{
	"Final Assignment/final_assignment_staking 1.sol": {
		"Staking_Token": {
			"abi": [
				{
					"inputs": [
						{
							"internalType": "contract ERC20Basic",
							"name": "_addressERC20",
							"type": "address"
						}
					],
					"stateMutability": "nonpayable",
					"type": "constructor"
				},
				{
					"anonymous": false,
					"inputs": [
						{
							"indexed": false,
							"internalType": "address",
							"name": "from",
							"type": "address"
						},
						{
							"indexed": false,
							"internalType": "uint256",
							"name": "amount",
							"type": "uint256"
						},
						{
							"indexed": false,
							"internalType": "uint256",
							"name": "_duration",
							"type": "uint256"
						}
					],
					"name": "tokensStaked",
					"type": "event"
				},
				{
					"inputs": [
						{
							"internalType": "address",
							"name": "",
							"type": "address"
						}
					],
					"name": "Stake_details",
					"outputs": [
						{
							"internalType": "uint256",
							"name": "stake_amount",
							"type": "uint256"
						},
						{
							"internalType": "string",
							"name": "stake_type",
							"type": "string"
						},
						{
							"internalType": "uint256",
							"name": "stake_time",
							"type": "uint256"
						}
					],
					"stateMutability": "view",
					"type": "function"
				},
				{
					"inputs": [],
					"name": "getcontractaddress",
					"outputs": [
						{
							"internalType": "address",
							"name": "",
							"type": "address"
						}
					],
					"stateMutability": "nonpayable",
					"type": "function"
				},
				{
					"inputs": [
						{
							"internalType": "address",
							"name": "_address",
							"type": "address"
						}
					],
					"name": "interestCalculated",
					"outputs": [
						{
							"internalType": "uint256",
							"name": "",
							"type": "uint256"
						}
					],
					"stateMutability": "nonpayable",
					"type": "function"
				},
				{
					"inputs": [
						{
							"internalType": "uint256",
							"name": "_amount",
							"type": "uint256"
						},
						{
							"internalType": "string",
							"name": "_type",
							"type": "string"
						},
						{
							"internalType": "uint256",
							"name": "_duration",
							"type": "uint256"
						}
					],
					"name": "staking",
					"outputs": [],
					"stateMutability": "nonpayable",
					"type": "function"
				},
				{
					"inputs": [],
					"name": "unstaking",
					"outputs": [
						{
							"internalType": "string",
							"name": "",
							"type": "string"
						}
					],
					"stateMutability": "nonpayable",
					"type": "function"
				}
			],
			"devdoc": {
				"kind": "dev",
				"methods": {},
				"version": 1
			},
			"evm": {
				"assembly": "    /* \"Final Assignment/final_assignment_staking 1.sol\":87:2967  contract Staking_Token {... */\n  mstore(0x40, 0x80)\n    /* \"Final Assignment/final_assignment_staking 1.sol\":421:424  300 */\n  0x012c\n    /* \"Final Assignment/final_assignment_staking 1.sol\":403:418  block.timestamp */\n  timestamp\n    /* \"Final Assignment/final_assignment_staking 1.sol\":403:424  block.timestamp + 300 */\n  tag_1\n  swap2\n  swap1\n  tag_2\n  jump\t// in\ntag_1:\n    /* \"Final Assignment/final_assignment_staking 1.sol\":369:424  uint experttime_forfixedstaking = block.timestamp + 300 */\n  0x02\n  sstore\n    /* \"Final Assignment/final_assignment_staking 1.sol\":454:455  4 */\n  0x04\n    /* \"Final Assignment/final_assignment_staking 1.sol\":432:455  uint penality_stake = 4 */\n  0x03\n  sstore\n    /* \"Final Assignment/final_assignment_staking 1.sol\":502:503  6 */\n  0x06\n    /* \"Final Assignment/final_assignment_staking 1.sol\":476:503  uint fixedinterest_rate = 6 */\n  0x04\n  sstore\n    /* \"Final Assignment/final_assignment_staking 1.sol\":538:539  2 */\n  0x02\n    /* \"Final Assignment/final_assignment_staking 1.sol\":510:539  uint unfixedinterest_rate = 2 */\n  0x05\n  sstore\n    /* \"Final Assignment/final_assignment_staking 1.sol\":145:221  constructor(ERC20Basic _addressERC20 ){... */\n  callvalue\n  dup1\n  iszero\n  tag_3\n  jumpi\n  0x00\n  dup1\n  revert\ntag_3:\n  pop\n  mload(0x40)\n  sub(codesize, bytecodeSize)\n  dup1\n  bytecodeSize\n  dup4\n  codecopy\n  dup2\n  dup2\n  add\n  0x40\n  mstore\n  dup2\n  add\n  swap1\n  tag_4\n  swap2\n  swap1\n  tag_5\n  jump\t// in\ntag_4:\n    /* \"Final Assignment/final_assignment_staking 1.sol\":200:213  _addressERC20 */\n  dup1\n    /* \"Final Assignment/final_assignment_staking 1.sol\":194:199  Token */\n  0x00\n  dup1\n    /* \"Final Assignment/final_assignment_staking 1.sol\":194:213  Token=_addressERC20 */\n  0x0100\n  exp\n  dup2\n  sload\n  dup2\n  0xffffffffffffffffffffffffffffffffffffffff\n  mul\n  not\n  and\n  swap1\n  dup4\n  0xffffffffffffffffffffffffffffffffffffffff\n  and\n  mul\n  or\n  swap1\n  sstore\n  pop\n    /* \"Final Assignment/final_assignment_staking 1.sol\":145:221  constructor(ERC20Basic _addressERC20 ){... */\n  pop\n    /* \"Final Assignment/final_assignment_staking 1.sol\":87:2967  contract Staking_Token {... */\n  jump(tag_8)\n    /* \"#utility.yul\":7:84   */\ntag_9:\n    /* \"#utility.yul\":44:51   */\n  0x00\n    /* \"#utility.yul\":73:78   */\n  dup2\n    /* \"#utility.yul\":62:78   */\n  swap1\n  pop\n    /* \"#utility.yul\":7:84   */\n  swap2\n  swap1\n  pop\n  jump\t// out\n    /* \"#utility.yul\":90:270   */\ntag_10:\n    /* \"#utility.yul\":138:215   */\n  0x4e487b7100000000000000000000000000000000000000000000000000000000\n    /* \"#utility.yul\":135:136   */\n  0x00\n    /* \"#utility.yul\":128:216   */\n  mstore\n    /* \"#utility.yul\":235:239   */\n  0x11\n    /* \"#utility.yul\":232:233   */\n  0x04\n    /* \"#utility.yul\":225:240   */\n  mstore\n    /* \"#utility.yul\":259:263   */\n  0x24\n    /* \"#utility.yul\":256:257   */\n  0x00\n    /* \"#utility.yul\":249:264   */\n  revert\n    /* \"#utility.yul\":276:467   */\ntag_2:\n    /* \"#utility.yul\":316:319   */\n  0x00\n    /* \"#utility.yul\":335:355   */\n  tag_23\n    /* \"#utility.yul\":353:354   */\n  dup3\n    /* \"#utility.yul\":335:355   */\n  tag_9\n  jump\t// in\ntag_23:\n    /* \"#utility.yul\":330:355   */\n  swap2\n  pop\n    /* \"#utility.yul\":369:389   */\n  tag_24\n    /* \"#utility.yul\":387:388   */\n  dup4\n    /* \"#utility.yul\":369:389   */\n  tag_9\n  jump\t// in\ntag_24:\n    /* \"#utility.yul\":364:389   */\n  swap3\n  pop\n    /* \"#utility.yul\":412:413   */\n  dup3\n    /* \"#utility.yul\":409:410   */\n  dup3\n    /* \"#utility.yul\":405:414   */\n  add\n    /* \"#utility.yul\":398:414   */\n  swap1\n  pop\n    /* \"#utility.yul\":433:436   */\n  dup1\n    /* \"#utility.yul\":430:431   */\n  dup3\n    /* \"#utility.yul\":427:437   */\n  gt\n    /* \"#utility.yul\":424:460   */\n  iszero\n  tag_25\n  jumpi\n    /* \"#utility.yul\":440:458   */\n  tag_26\n  tag_10\n  jump\t// in\ntag_26:\n    /* \"#utility.yul\":424:460   */\ntag_25:\n    /* \"#utility.yul\":276:467   */\n  swap3\n  swap2\n  pop\n  pop\n  jump\t// out\n    /* \"#utility.yul\":554:671   */\ntag_12:\n    /* \"#utility.yul\":663:664   */\n  0x00\n    /* \"#utility.yul\":660:661   */\n  dup1\n    /* \"#utility.yul\":653:665   */\n  revert\n    /* \"#utility.yul\":800:926   */\ntag_14:\n    /* \"#utility.yul\":837:844   */\n  0x00\n    /* \"#utility.yul\":877:919   */\n  0xffffffffffffffffffffffffffffffffffffffff\n    /* \"#utility.yul\":870:875   */\n  dup3\n    /* \"#utility.yul\":866:920   */\n  and\n    /* \"#utility.yul\":855:920   */\n  swap1\n  pop\n    /* \"#utility.yul\":800:926   */\n  swap2\n  swap1\n  pop\n  jump\t// out\n    /* \"#utility.yul\":932:1028   */\ntag_15:\n    /* \"#utility.yul\":969:976   */\n  0x00\n    /* \"#utility.yul\":998:1022   */\n  tag_32\n    /* \"#utility.yul\":1016:1021   */\n  dup3\n    /* \"#utility.yul\":998:1022   */\n  tag_14\n  jump\t// in\ntag_32:\n    /* \"#utility.yul\":987:1022   */\n  swap1\n  pop\n    /* \"#utility.yul\":932:1028   */\n  swap2\n  swap1\n  pop\n  jump\t// out\n    /* \"#utility.yul\":1034:1148   */\ntag_16:\n    /* \"#utility.yul\":1089:1096   */\n  0x00\n    /* \"#utility.yul\":1118:1142   */\n  tag_34\n    /* \"#utility.yul\":1136:1141   */\n  dup3\n    /* \"#utility.yul\":1118:1142   */\n  tag_15\n  jump\t// in\ntag_34:\n    /* \"#utility.yul\":1107:1142   */\n  swap1\n  pop\n    /* \"#utility.yul\":1034:1148   */\n  swap2\n  swap1\n  pop\n  jump\t// out\n    /* \"#utility.yul\":1154:1312   */\ntag_17:\n    /* \"#utility.yul\":1245:1287   */\n  tag_36\n    /* \"#utility.yul\":1281:1286   */\n  dup2\n    /* \"#utility.yul\":1245:1287   */\n  tag_16\n  jump\t// in\ntag_36:\n    /* \"#utility.yul\":1238:1243   */\n  dup2\n    /* \"#utility.yul\":1235:1288   */\n  eq\n    /* \"#utility.yul\":1225:1306   */\n  tag_37\n  jumpi\n    /* \"#utility.yul\":1302:1303   */\n  0x00\n    /* \"#utility.yul\":1299:1300   */\n  dup1\n    /* \"#utility.yul\":1292:1304   */\n  revert\n    /* \"#utility.yul\":1225:1306   */\ntag_37:\n    /* \"#utility.yul\":1154:1312   */\n  pop\n  jump\t// out\n    /* \"#utility.yul\":1318:1497   */\ntag_18:\n    /* \"#utility.yul\":1393:1398   */\n  0x00\n    /* \"#utility.yul\":1424:1430   */\n  dup2\n    /* \"#utility.yul\":1418:1431   */\n  mload\n    /* \"#utility.yul\":1409:1431   */\n  swap1\n  pop\n    /* \"#utility.yul\":1440:1491   */\n  tag_39\n    /* \"#utility.yul\":1485:1490   */\n  dup2\n    /* \"#utility.yul\":1440:1491   */\n  tag_17\n  jump\t// in\ntag_39:\n    /* \"#utility.yul\":1318:1497   */\n  swap3\n  swap2\n  pop\n  pop\n  jump\t// out\n    /* \"#utility.yul\":1503:1890   */\ntag_5:\n    /* \"#utility.yul\":1591:1597   */\n  0x00\n    /* \"#utility.yul\":1640:1642   */\n  0x20\n    /* \"#utility.yul\":1628:1637   */\n  dup3\n    /* \"#utility.yul\":1619:1626   */\n  dup5\n    /* \"#utility.yul\":1615:1638   */\n  sub\n    /* \"#utility.yul\":1611:1643   */\n  slt\n    /* \"#utility.yul\":1608:1727   */\n  iszero\n  tag_41\n  jumpi\n    /* \"#utility.yul\":1646:1725   */\n  tag_42\n  tag_12\n  jump\t// in\ntag_42:\n    /* \"#utility.yul\":1608:1727   */\ntag_41:\n    /* \"#utility.yul\":1766:1767   */\n  0x00\n    /* \"#utility.yul\":1791:1873   */\n  tag_43\n    /* \"#utility.yul\":1865:1872   */\n  dup5\n    /* \"#utility.yul\":1856:1862   */\n  dup3\n    /* \"#utility.yul\":1845:1854   */\n  dup6\n    /* \"#utility.yul\":1841:1863   */\n  add\n    /* \"#utility.yul\":1791:1873   */\n  tag_18\n  jump\t// in\ntag_43:\n    /* \"#utility.yul\":1781:1873   */\n  swap2\n  pop\n    /* \"#utility.yul\":1737:1883   */\n  pop\n    /* \"#utility.yul\":1503:1890   */\n  swap3\n  swap2\n  pop\n  pop\n  jump\t// out\n    /* \"Final Assignment/final_assignment_staking 1.sol\":87:2967  contract Staking_Token {... */\ntag_8:\n  dataSize(sub_0)\n  dup1\n  dataOffset(sub_0)\n  0x00\n  codecopy\n  0x00\n  return\nstop\n\nsub_0: assembly {\n        /* \"Final Assignment/final_assignment_staking 1.sol\":87:2967  contract Staking_Token {... */\n      mstore(0x40, 0x80)\n      callvalue\n      dup1\n      iszero\n      tag_1\n      jumpi\n      0x00\n      dup1\n      revert\n    tag_1:\n      pop\n      jumpi(tag_2, lt(calldatasize, 0x04))\n      shr(0xe0, calldataload(0x00))\n      dup1\n      0x15621373\n      eq\n      tag_3\n      jumpi\n      dup1\n      0x630b1146\n      eq\n      tag_4\n      jumpi\n      dup1\n      0x8cdec859\n      eq\n      tag_5\n      jumpi\n      dup1\n      0xa6acb7ee\n      eq\n      tag_6\n      jumpi\n      dup1\n      0xf42f2e82\n      eq\n      tag_7\n      jumpi\n    tag_2:\n      0x00\n      dup1\n      revert\n        /* \"Final Assignment/final_assignment_staking 1.sol\":2870:2962  function getcontractaddress() public returns(address){... */\n    tag_3:\n      tag_8\n      tag_9\n      jump\t// in\n    tag_8:\n      mload(0x40)\n      tag_10\n      swap2\n      swap1\n      tag_11\n      jump\t// in\n    tag_10:\n      mload(0x40)\n      dup1\n      swap2\n      sub\n      swap1\n      return\n        /* \"Final Assignment/final_assignment_staking 1.sol\":2806:2865  function unstaking()public returns(string memory){... */\n    tag_4:\n      tag_12\n      tag_13\n      jump\t// in\n    tag_12:\n      mload(0x40)\n      tag_14\n      swap2\n      swap1\n      tag_15\n      jump\t// in\n    tag_14:\n      mload(0x40)\n      dup1\n      swap2\n      sub\n      swap1\n      return\n        /* \"Final Assignment/final_assignment_staking 1.sol\":1949:2792  function interestCalculated(address _address) public returns(uint){... */\n    tag_5:\n      tag_16\n      0x04\n      dup1\n      calldatasize\n      sub\n      dup2\n      add\n      swap1\n      tag_17\n      swap2\n      swap1\n      tag_18\n      jump\t// in\n    tag_17:\n      tag_19\n      jump\t// in\n    tag_16:\n      mload(0x40)\n      tag_20\n      swap2\n      swap1\n      tag_21\n      jump\t// in\n    tag_20:\n      mload(0x40)\n      dup1\n      swap2\n      sub\n      swap1\n      return\n        /* \"Final Assignment/final_assignment_staking 1.sol\":942:1939  function staking(uint _amount, string memory _type, uint _duration) public  {... */\n    tag_6:\n      tag_22\n      0x04\n      dup1\n      calldatasize\n      sub\n      dup2\n      add\n      swap1\n      tag_23\n      swap2\n      swap1\n      tag_24\n      jump\t// in\n    tag_23:\n      tag_25\n      jump\t// in\n    tag_22:\n      stop\n        /* \"Final Assignment/final_assignment_staking 1.sol\":647:692  mapping(address =>Stake) public Stake_details */\n    tag_7:\n      tag_26\n      0x04\n      dup1\n      calldatasize\n      sub\n      dup2\n      add\n      swap1\n      tag_27\n      swap2\n      swap1\n      tag_18\n      jump\t// in\n    tag_27:\n      tag_28\n      jump\t// in\n    tag_26:\n      mload(0x40)\n      tag_29\n      swap4\n      swap3\n      swap2\n      swap1\n      tag_30\n      jump\t// in\n    tag_29:\n      mload(0x40)\n      dup1\n      swap2\n      sub\n      swap1\n      return\n        /* \"Final Assignment/final_assignment_staking 1.sol\":2870:2962  function getcontractaddress() public returns(address){... */\n    tag_9:\n        /* \"Final Assignment/final_assignment_staking 1.sol\":2915:2922  address */\n      0x00\n        /* \"Final Assignment/final_assignment_staking 1.sol\":2947:2951  this */\n      address\n        /* \"Final Assignment/final_assignment_staking 1.sol\":2932:2952  return address(this) */\n      swap1\n      pop\n        /* \"Final Assignment/final_assignment_staking 1.sol\":2870:2962  function getcontractaddress() public returns(address){... */\n      swap1\n      jump\t// out\n        /* \"Final Assignment/final_assignment_staking 1.sol\":2806:2865  function unstaking()public returns(string memory){... */\n    tag_13:\n        /* \"Final Assignment/final_assignment_staking 1.sol\":2841:2854  string memory */\n      0x60\n        /* \"Final Assignment/final_assignment_staking 1.sol\":2806:2865  function unstaking()public returns(string memory){... */\n      swap1\n      jump\t// out\n        /* \"Final Assignment/final_assignment_staking 1.sol\":1949:2792  function interestCalculated(address _address) public returns(uint){... */\n    tag_19:\n        /* \"Final Assignment/final_assignment_staking 1.sol\":2010:2014  uint */\n      0x00\n        /* \"Final Assignment/final_assignment_staking 1.sol\":2069:2095  experttime_forfixedstaking */\n      sload(0x02)\n        /* \"Final Assignment/final_assignment_staking 1.sol\":2030:2043  Stake_details */\n      0x0a\n        /* \"Final Assignment/final_assignment_staking 1.sol\":2030:2055  Stake_details[msg.sender] */\n      0x00\n        /* \"Final Assignment/final_assignment_staking 1.sol\":2044:2054  msg.sender */\n      caller\n        /* \"Final Assignment/final_assignment_staking 1.sol\":2030:2055  Stake_details[msg.sender] */\n      0xffffffffffffffffffffffffffffffffffffffff\n      and\n      0xffffffffffffffffffffffffffffffffffffffff\n      and\n      dup2\n      mstore\n      0x20\n      add\n      swap1\n      dup2\n      mstore\n      0x20\n      add\n      0x00\n      keccak256\n        /* \"Final Assignment/final_assignment_staking 1.sol\":2030:2066  Stake_details[msg.sender].stake_time */\n      0x02\n      add\n      sload\n        /* \"Final Assignment/final_assignment_staking 1.sol\":2030:2095  Stake_details[msg.sender].stake_time > experttime_forfixedstaking */\n      gt\n        /* \"Final Assignment/final_assignment_staking 1.sol\":2026:2775  if (Stake_details[msg.sender].stake_time > experttime_forfixedstaking){... */\n      iszero\n      tag_34\n      jumpi\n        /* \"Final Assignment/final_assignment_staking 1.sol\":2180:2193  Stake_details */\n      0x0a\n        /* \"Final Assignment/final_assignment_staking 1.sol\":2180:2205  Stake_details[msg.sender] */\n      0x00\n        /* \"Final Assignment/final_assignment_staking 1.sol\":2194:2204  msg.sender */\n      caller\n        /* \"Final Assignment/final_assignment_staking 1.sol\":2180:2205  Stake_details[msg.sender] */\n      0xffffffffffffffffffffffffffffffffffffffff\n      and\n      0xffffffffffffffffffffffffffffffffffffffff\n      and\n      dup2\n      mstore\n      0x20\n      add\n      swap1\n      dup2\n      mstore\n      0x20\n      add\n      0x00\n      keccak256\n        /* \"Final Assignment/final_assignment_staking 1.sol\":2180:2216  Stake_details[msg.sender].stake_time */\n      0x02\n      add\n      sload\n        /* \"Final Assignment/final_assignment_staking 1.sol\":2159:2177  fixedinterest_rate */\n      sload(0x04)\n        /* \"Final Assignment/final_assignment_staking 1.sol\":2118:2131  Stake_details */\n      0x0a\n        /* \"Final Assignment/final_assignment_staking 1.sol\":2118:2143  Stake_details[msg.sender] */\n      0x00\n        /* \"Final Assignment/final_assignment_staking 1.sol\":2132:2142  msg.sender */\n      caller\n        /* \"Final Assignment/final_assignment_staking 1.sol\":2118:2143  Stake_details[msg.sender] */\n      0xffffffffffffffffffffffffffffffffffffffff\n      and\n      0xffffffffffffffffffffffffffffffffffffffff\n      and\n      dup2\n      mstore\n      0x20\n      add\n      swap1\n      dup2\n      mstore\n      0x20\n      add\n      0x00\n      keccak256\n        /* \"Final Assignment/final_assignment_staking 1.sol\":2118:2156  Stake_details[msg.sender].stake_amount */\n      0x00\n      add\n      sload\n        /* \"Final Assignment/final_assignment_staking 1.sol\":2118:2177  Stake_details[msg.sender].stake_amount * fixedinterest_rate */\n      tag_35\n      swap2\n      swap1\n      tag_36\n      jump\t// in\n    tag_35:\n        /* \"Final Assignment/final_assignment_staking 1.sol\":2118:2216  Stake_details[msg.sender].stake_amount * fixedinterest_rate * Stake_details[msg.sender].stake_time */\n      tag_37\n      swap2\n      swap1\n      tag_36\n      jump\t// in\n    tag_37:\n        /* \"Final Assignment/final_assignment_staking 1.sol\":2107:2115  Interest */\n      0x07\n        /* \"Final Assignment/final_assignment_staking 1.sol\":2107:2216  Interest = Stake_details[msg.sender].stake_amount * fixedinterest_rate * Stake_details[msg.sender].stake_time */\n      dup2\n      swap1\n      sstore\n      pop\n        /* \"Final Assignment/final_assignment_staking 1.sol\":2301:2304  100 */\n      0x64\n        /* \"Final Assignment/final_assignment_staking 1.sol\":2290:2298  Interest */\n      sload(0x07)\n        /* \"Final Assignment/final_assignment_staking 1.sol\":2249:2262  Stake_details */\n      0x0a\n        /* \"Final Assignment/final_assignment_staking 1.sol\":2249:2274  Stake_details[msg.sender] */\n      0x00\n        /* \"Final Assignment/final_assignment_staking 1.sol\":2263:2273  msg.sender */\n      caller\n        /* \"Final Assignment/final_assignment_staking 1.sol\":2249:2274  Stake_details[msg.sender] */\n      0xffffffffffffffffffffffffffffffffffffffff\n      and\n      0xffffffffffffffffffffffffffffffffffffffff\n      and\n      dup2\n      mstore\n      0x20\n      add\n      swap1\n      dup2\n      mstore\n      0x20\n      add\n      0x00\n      keccak256\n        /* \"Final Assignment/final_assignment_staking 1.sol\":2249:2287  Stake_details[msg.sender].stake_amount */\n      0x00\n      add\n      sload\n        /* \"Final Assignment/final_assignment_staking 1.sol\":2249:2298  Stake_details[msg.sender].stake_amount + Interest */\n      tag_38\n      swap2\n      swap1\n      tag_39\n      jump\t// in\n    tag_38:\n        /* \"Final Assignment/final_assignment_staking 1.sol\":2248:2304  (Stake_details[msg.sender].stake_amount + Interest) /100 */\n      tag_40\n      swap2\n      swap1\n      tag_41\n      jump\t// in\n    tag_40:\n        /* \"Final Assignment/final_assignment_staking 1.sol\":2227:2245  totalIntrestAmount */\n      0x08\n        /* \"Final Assignment/final_assignment_staking 1.sol\":2227:2304  totalIntrestAmount = (Stake_details[msg.sender].stake_amount + Interest) /100 */\n      dup2\n      swap1\n      sstore\n      pop\n        /* \"Final Assignment/final_assignment_staking 1.sol\":2026:2775  if (Stake_details[msg.sender].stake_time > experttime_forfixedstaking){... */\n      jump(tag_42)\n    tag_34:\n        /* \"Final Assignment/final_assignment_staking 1.sol\":2373:2399  experttime_forfixedstaking */\n      sload(0x02)\n        /* \"Final Assignment/final_assignment_staking 1.sol\":2334:2347  Stake_details */\n      0x0a\n        /* \"Final Assignment/final_assignment_staking 1.sol\":2334:2359  Stake_details[msg.sender] */\n      0x00\n        /* \"Final Assignment/final_assignment_staking 1.sol\":2348:2358  msg.sender */\n      caller\n        /* \"Final Assignment/final_assignment_staking 1.sol\":2334:2359  Stake_details[msg.sender] */\n      0xffffffffffffffffffffffffffffffffffffffff\n      and\n      0xffffffffffffffffffffffffffffffffffffffff\n      and\n      dup2\n      mstore\n      0x20\n      add\n      swap1\n      dup2\n      mstore\n      0x20\n      add\n      0x00\n      keccak256\n        /* \"Final Assignment/final_assignment_staking 1.sol\":2334:2370  Stake_details[msg.sender].stake_time */\n      0x02\n      add\n      sload\n        /* \"Final Assignment/final_assignment_staking 1.sol\":2334:2399  Stake_details[msg.sender].stake_time < experttime_forfixedstaking */\n      lt\n        /* \"Final Assignment/final_assignment_staking 1.sol\":2331:2775  if(Stake_details[msg.sender].stake_time < experttime_forfixedstaking){... */\n      iszero\n      tag_43\n      jumpi\n        /* \"Final Assignment/final_assignment_staking 1.sol\":2591:2606  block.timestamp */\n      timestamp\n        /* \"Final Assignment/final_assignment_staking 1.sol\":2552:2565  Stake_details */\n      0x0a\n        /* \"Final Assignment/final_assignment_staking 1.sol\":2552:2577  Stake_details[msg.sender] */\n      0x00\n        /* \"Final Assignment/final_assignment_staking 1.sol\":2566:2576  msg.sender */\n      caller\n        /* \"Final Assignment/final_assignment_staking 1.sol\":2552:2577  Stake_details[msg.sender] */\n      0xffffffffffffffffffffffffffffffffffffffff\n      and\n      0xffffffffffffffffffffffffffffffffffffffff\n      and\n      dup2\n      mstore\n      0x20\n      add\n      swap1\n      dup2\n      mstore\n      0x20\n      add\n      0x00\n      keccak256\n        /* \"Final Assignment/final_assignment_staking 1.sol\":2552:2588  Stake_details[msg.sender].stake_time */\n      0x02\n      add\n      sload\n        /* \"Final Assignment/final_assignment_staking 1.sol\":2552:2606  Stake_details[msg.sender].stake_time - block.timestamp */\n      tag_44\n      swap2\n      swap1\n      tag_45\n      jump\t// in\n    tag_44:\n        /* \"Final Assignment/final_assignment_staking 1.sol\":2513:2526  Stake_details */\n      0x0a\n        /* \"Final Assignment/final_assignment_staking 1.sol\":2513:2538  Stake_details[msg.sender] */\n      0x00\n        /* \"Final Assignment/final_assignment_staking 1.sol\":2527:2537  msg.sender */\n      caller\n        /* \"Final Assignment/final_assignment_staking 1.sol\":2513:2538  Stake_details[msg.sender] */\n      0xffffffffffffffffffffffffffffffffffffffff\n      and\n      0xffffffffffffffffffffffffffffffffffffffff\n      and\n      dup2\n      mstore\n      0x20\n      add\n      swap1\n      dup2\n      mstore\n      0x20\n      add\n      0x00\n      keccak256\n        /* \"Final Assignment/final_assignment_staking 1.sol\":2513:2549  Stake_details[msg.sender].stake_time */\n      0x02\n      add\n      sload\n        /* \"Final Assignment/final_assignment_staking 1.sol\":2513:2607  Stake_details[msg.sender].stake_time -(Stake_details[msg.sender].stake_time - block.timestamp) */\n      tag_46\n      swap2\n      swap1\n      tag_45\n      jump\t// in\n    tag_46:\n        /* \"Final Assignment/final_assignment_staking 1.sol\":2491:2509  fixedinterest_rate */\n      sload(0x04)\n        /* \"Final Assignment/final_assignment_staking 1.sol\":2450:2463  Stake_details */\n      0x0a\n        /* \"Final Assignment/final_assignment_staking 1.sol\":2450:2475  Stake_details[msg.sender] */\n      0x00\n        /* \"Final Assignment/final_assignment_staking 1.sol\":2464:2474  msg.sender */\n      caller\n        /* \"Final Assignment/final_assignment_staking 1.sol\":2450:2475  Stake_details[msg.sender] */\n      0xffffffffffffffffffffffffffffffffffffffff\n      and\n      0xffffffffffffffffffffffffffffffffffffffff\n      and\n      dup2\n      mstore\n      0x20\n      add\n      swap1\n      dup2\n      mstore\n      0x20\n      add\n      0x00\n      keccak256\n        /* \"Final Assignment/final_assignment_staking 1.sol\":2450:2488  Stake_details[msg.sender].stake_amount */\n      0x00\n      add\n      sload\n        /* \"Final Assignment/final_assignment_staking 1.sol\":2450:2509  Stake_details[msg.sender].stake_amount * fixedinterest_rate */\n      tag_47\n      swap2\n      swap1\n      tag_36\n      jump\t// in\n    tag_47:\n        /* \"Final Assignment/final_assignment_staking 1.sol\":2450:2608  Stake_details[msg.sender].stake_amount * fixedinterest_rate * (Stake_details[msg.sender].stake_time -(Stake_details[msg.sender].stake_time - block.timestamp)) */\n      tag_48\n      swap2\n      swap1\n      tag_36\n      jump\t// in\n    tag_48:\n        /* \"Final Assignment/final_assignment_staking 1.sol\":2438:2446  Interest */\n      0x07\n        /* \"Final Assignment/final_assignment_staking 1.sol\":2438:2609  Interest = (Stake_details[msg.sender].stake_amount * fixedinterest_rate * (Stake_details[msg.sender].stake_time -(Stake_details[msg.sender].stake_time - block.timestamp))) */\n      dup2\n      swap1\n      sstore\n      pop\n        /* \"Final Assignment/final_assignment_staking 1.sol\":2686:2694  Interest */\n      sload(0x07)\n        /* \"Final Assignment/final_assignment_staking 1.sol\":2645:2658  Stake_details */\n      0x0a\n        /* \"Final Assignment/final_assignment_staking 1.sol\":2645:2670  Stake_details[msg.sender] */\n      0x00\n        /* \"Final Assignment/final_assignment_staking 1.sol\":2659:2669  msg.sender */\n      caller\n        /* \"Final Assignment/final_assignment_staking 1.sol\":2645:2670  Stake_details[msg.sender] */\n      0xffffffffffffffffffffffffffffffffffffffff\n      and\n      0xffffffffffffffffffffffffffffffffffffffff\n      and\n      dup2\n      mstore\n      0x20\n      add\n      swap1\n      dup2\n      mstore\n      0x20\n      add\n      0x00\n      keccak256\n        /* \"Final Assignment/final_assignment_staking 1.sol\":2645:2683  Stake_details[msg.sender].stake_amount */\n      0x00\n      add\n      sload\n        /* \"Final Assignment/final_assignment_staking 1.sol\":2645:2694  Stake_details[msg.sender].stake_amount + Interest */\n      tag_49\n      swap2\n      swap1\n      tag_39\n      jump\t// in\n    tag_49:\n        /* \"Final Assignment/final_assignment_staking 1.sol\":2624:2642  totalIntrestAmount */\n      0x08\n        /* \"Final Assignment/final_assignment_staking 1.sol\":2624:2694  totalIntrestAmount = Stake_details[msg.sender].stake_amount + Interest */\n      dup2\n      swap1\n      sstore\n      pop\n        /* \"Final Assignment/final_assignment_staking 1.sol\":2759:2762  100 */\n      0x64\n        /* \"Final Assignment/final_assignment_staking 1.sol\":2741:2755  penality_stake */\n      sload(0x03)\n        /* \"Final Assignment/final_assignment_staking 1.sol\":2720:2738  totalIntrestAmount */\n      sload(0x08)\n        /* \"Final Assignment/final_assignment_staking 1.sol\":2720:2755  totalIntrestAmount - penality_stake */\n      tag_50\n      swap2\n      swap1\n      tag_45\n      jump\t// in\n    tag_50:\n        /* \"Final Assignment/final_assignment_staking 1.sol\":2719:2762  (totalIntrestAmount - penality_stake) / 100 */\n      tag_51\n      swap2\n      swap1\n      tag_41\n      jump\t// in\n    tag_51:\n        /* \"Final Assignment/final_assignment_staking 1.sol\":2705:2716  finalAmount */\n      0x09\n        /* \"Final Assignment/final_assignment_staking 1.sol\":2705:2762  finalAmount = (totalIntrestAmount - penality_stake) / 100 */\n      dup2\n      swap1\n      sstore\n      pop\n        /* \"Final Assignment/final_assignment_staking 1.sol\":2331:2775  if(Stake_details[msg.sender].stake_time < experttime_forfixedstaking){... */\n    tag_43:\n        /* \"Final Assignment/final_assignment_staking 1.sol\":2026:2775  if (Stake_details[msg.sender].stake_time > experttime_forfixedstaking){... */\n    tag_42:\n        /* \"Final Assignment/final_assignment_staking 1.sol\":1949:2792  function interestCalculated(address _address) public returns(uint){... */\n      swap2\n      swap1\n      pop\n      jump\t// out\n        /* \"Final Assignment/final_assignment_staking 1.sol\":942:1939  function staking(uint _amount, string memory _type, uint _duration) public  {... */\n    tag_25:\n        /* \"Final Assignment/final_assignment_staking 1.sol\":1066:1073  _amount */\n      dup3\n        /* \"Final Assignment/final_assignment_staking 1.sol\":1037:1042  Token */\n      0x00\n      dup1\n      sload\n      swap1\n      0x0100\n      exp\n      swap1\n      div\n      0xffffffffffffffffffffffffffffffffffffffff\n      and\n        /* \"Final Assignment/final_assignment_staking 1.sol\":1037:1052  Token.balanceOf */\n      0xffffffffffffffffffffffffffffffffffffffff\n      and\n      0x70a08231\n        /* \"Final Assignment/final_assignment_staking 1.sol\":1053:1063  msg.sender */\n      caller\n        /* \"Final Assignment/final_assignment_staking 1.sol\":1037:1064  Token.balanceOf(msg.sender) */\n      mload(0x40)\n      dup3\n      0xffffffff\n      and\n      0xe0\n      shl\n      dup2\n      mstore\n      0x04\n      add\n      tag_53\n      swap2\n      swap1\n      tag_11\n      jump\t// in\n    tag_53:\n      0x20\n      mload(0x40)\n      dup1\n      dup4\n      sub\n      dup2\n      dup7\n      gas\n      staticcall\n      iszero\n      dup1\n      iszero\n      tag_55\n      jumpi\n      returndatasize\n      0x00\n      dup1\n      returndatacopy\n      revert(0x00, returndatasize)\n    tag_55:\n      pop\n      pop\n      pop\n      pop\n      mload(0x40)\n      returndatasize\n      not(0x1f)\n      0x1f\n      dup3\n      add\n      and\n      dup3\n      add\n      dup1\n      0x40\n      mstore\n      pop\n      dup2\n      add\n      swap1\n      tag_56\n      swap2\n      swap1\n      tag_57\n      jump\t// in\n    tag_56:\n        /* \"Final Assignment/final_assignment_staking 1.sol\":1037:1073  Token.balanceOf(msg.sender)>=_amount */\n      lt\n      iszero\n        /* \"Final Assignment/final_assignment_staking 1.sol\":1029:1097  require(Token.balanceOf(msg.sender)>=_amount,\"Insufficient Balance\") */\n      tag_58\n      jumpi\n      mload(0x40)\n      0x08c379a000000000000000000000000000000000000000000000000000000000\n      dup2\n      mstore\n      0x04\n      add\n      tag_59\n      swap1\n      tag_60\n      jump\t// in\n    tag_59:\n      mload(0x40)\n      dup1\n      swap2\n      sub\n      swap1\n      revert\n    tag_58:\n        /* \"Final Assignment/final_assignment_staking 1.sol\":1159:1184  abi.encodePacked(\"fixed\") */\n      add(0x20, mload(0x40))\n      tag_61\n      swap1\n      tag_62\n      jump\t// in\n    tag_61:\n      mload(0x40)\n      0x20\n      dup2\n      dup4\n      sub\n      sub\n      dup2\n      mstore\n      swap1\n      0x40\n      mstore\n        /* \"Final Assignment/final_assignment_staking 1.sol\":1149:1185  keccak256(abi.encodePacked(\"fixed\")) */\n      dup1\n      mload\n      swap1\n      0x20\n      add\n      keccak256\n        /* \"Final Assignment/final_assignment_staking 1.sol\":1138:1143  _type */\n      dup3\n        /* \"Final Assignment/final_assignment_staking 1.sol\":1121:1144  abi.encodePacked(_type) */\n      add(0x20, mload(0x40))\n      tag_63\n      swap2\n      swap1\n      tag_64\n      jump\t// in\n    tag_63:\n      mload(0x40)\n      0x20\n      dup2\n      dup4\n      sub\n      sub\n      dup2\n      mstore\n      swap1\n      0x40\n      mstore\n        /* \"Final Assignment/final_assignment_staking 1.sol\":1111:1145  keccak256(abi.encodePacked(_type)) */\n      dup1\n      mload\n      swap1\n      0x20\n      add\n      keccak256\n        /* \"Final Assignment/final_assignment_staking 1.sol\":1111:1185  keccak256(abi.encodePacked(_type)) == keccak256(abi.encodePacked(\"fixed\")) */\n      sub\n        /* \"Final Assignment/final_assignment_staking 1.sol\":1108:1924  if(keccak256(abi.encodePacked(_type)) == keccak256(abi.encodePacked(\"fixed\"))){... */\n      tag_65\n      jumpi\n        /* \"Final Assignment/final_assignment_staking 1.sol\":1218:1219  0 */\n      0x00\n        /* \"Final Assignment/final_assignment_staking 1.sol\":1209:1216  _amount */\n      dup4\n        /* \"Final Assignment/final_assignment_staking 1.sol\":1209:1219  _amount >0 */\n      gt\n        /* \"Final Assignment/final_assignment_staking 1.sol\":1201:1272  require(_amount >0,\" Stake can not be 0 , Enter some amount of tokens\") */\n      tag_66\n      jumpi\n      mload(0x40)\n      0x08c379a000000000000000000000000000000000000000000000000000000000\n      dup2\n      mstore\n      0x04\n      add\n      tag_67\n      swap1\n      tag_68\n      jump\t// in\n    tag_67:\n      mload(0x40)\n      dup1\n      swap2\n      sub\n      swap1\n      revert\n    tag_66:\n        /* \"Final Assignment/final_assignment_staking 1.sol\":1328:1335  _amount */\n      dup3\n        /* \"Final Assignment/final_assignment_staking 1.sol\":1287:1300  Stake_details */\n      0x0a\n        /* \"Final Assignment/final_assignment_staking 1.sol\":1287:1312  Stake_details[msg.sender] */\n      0x00\n        /* \"Final Assignment/final_assignment_staking 1.sol\":1301:1311  msg.sender */\n      caller\n        /* \"Final Assignment/final_assignment_staking 1.sol\":1287:1312  Stake_details[msg.sender] */\n      0xffffffffffffffffffffffffffffffffffffffff\n      and\n      0xffffffffffffffffffffffffffffffffffffffff\n      and\n      dup2\n      mstore\n      0x20\n      add\n      swap1\n      dup2\n      mstore\n      0x20\n      add\n      0x00\n      keccak256\n        /* \"Final Assignment/final_assignment_staking 1.sol\":1287:1325  Stake_details[msg.sender].stake_amount */\n      0x00\n      add\n        /* \"Final Assignment/final_assignment_staking 1.sol\":1287:1335  Stake_details[msg.sender].stake_amount = _amount */\n      dup2\n      swap1\n      sstore\n      pop\n        /* \"Final Assignment/final_assignment_staking 1.sol\":1389:1394  _type */\n      dup2\n        /* \"Final Assignment/final_assignment_staking 1.sol\":1350:1363  Stake_details */\n      0x0a\n        /* \"Final Assignment/final_assignment_staking 1.sol\":1350:1375  Stake_details[msg.sender] */\n      0x00\n        /* \"Final Assignment/final_assignment_staking 1.sol\":1364:1374  msg.sender */\n      caller\n        /* \"Final Assignment/final_assignment_staking 1.sol\":1350:1375  Stake_details[msg.sender] */\n      0xffffffffffffffffffffffffffffffffffffffff\n      and\n      0xffffffffffffffffffffffffffffffffffffffff\n      and\n      dup2\n      mstore\n      0x20\n      add\n      swap1\n      dup2\n      mstore\n      0x20\n      add\n      0x00\n      keccak256\n        /* \"Final Assignment/final_assignment_staking 1.sol\":1350:1386  Stake_details[msg.sender].stake_type */\n      0x01\n      add\n        /* \"Final Assignment/final_assignment_staking 1.sol\":1350:1394  Stake_details[msg.sender].stake_type = _type */\n      swap1\n      dup2\n      tag_69\n      swap2\n      swap1\n      tag_70\n      jump\t// in\n    tag_69:\n      pop\n        /* \"Final Assignment/final_assignment_staking 1.sol\":1466:1475  _duration */\n      dup1\n        /* \"Final Assignment/final_assignment_staking 1.sol\":1448:1463  block.timestamp */\n      timestamp\n        /* \"Final Assignment/final_assignment_staking 1.sol\":1448:1475  block.timestamp + _duration */\n      tag_71\n      swap2\n      swap1\n      tag_39\n      jump\t// in\n    tag_71:\n        /* \"Final Assignment/final_assignment_staking 1.sol\":1409:1422  Stake_details */\n      0x0a\n        /* \"Final Assignment/final_assignment_staking 1.sol\":1409:1434  Stake_details[msg.sender] */\n      0x00\n        /* \"Final Assignment/final_assignment_staking 1.sol\":1423:1433  msg.sender */\n      caller\n        /* \"Final Assignment/final_assignment_staking 1.sol\":1409:1434  Stake_details[msg.sender] */\n      0xffffffffffffffffffffffffffffffffffffffff\n      and\n      0xffffffffffffffffffffffffffffffffffffffff\n      and\n      dup2\n      mstore\n      0x20\n      add\n      swap1\n      dup2\n      mstore\n      0x20\n      add\n      0x00\n      keccak256\n        /* \"Final Assignment/final_assignment_staking 1.sol\":1409:1445  Stake_details[msg.sender].stake_time */\n      0x02\n      add\n        /* \"Final Assignment/final_assignment_staking 1.sol\":1409:1475  Stake_details[msg.sender].stake_time = block.timestamp + _duration */\n      dup2\n      swap1\n      sstore\n      pop\n        /* \"Final Assignment/final_assignment_staking 1.sol\":1486:1491  Token */\n      0x00\n      dup1\n      sload\n      swap1\n      0x0100\n      exp\n      swap1\n      div\n      0xffffffffffffffffffffffffffffffffffffffff\n      and\n        /* \"Final Assignment/final_assignment_staking 1.sol\":1486:1504  Token.transferFrom */\n      0xffffffffffffffffffffffffffffffffffffffff\n      and\n      0x23b872dd\n        /* \"Final Assignment/final_assignment_staking 1.sol\":1505:1515  msg.sender */\n      caller\n        /* \"Final Assignment/final_assignment_staking 1.sol\":1525:1529  this */\n      address\n        /* \"Final Assignment/final_assignment_staking 1.sol\":1532:1539  _amount */\n      dup7\n        /* \"Final Assignment/final_assignment_staking 1.sol\":1486:1540  Token.transferFrom(msg.sender, address(this), _amount) */\n      mload(0x40)\n      dup5\n      0xffffffff\n      and\n      0xe0\n      shl\n      dup2\n      mstore\n      0x04\n      add\n      tag_72\n      swap4\n      swap3\n      swap2\n      swap1\n      tag_73\n      jump\t// in\n    tag_72:\n      0x20\n      mload(0x40)\n      dup1\n      dup4\n      sub\n      dup2\n      0x00\n      dup8\n      gas\n      call\n      iszero\n      dup1\n      iszero\n      tag_75\n      jumpi\n      returndatasize\n      0x00\n      dup1\n      returndatacopy\n      revert(0x00, returndatasize)\n    tag_75:\n      pop\n      pop\n      pop\n      pop\n      mload(0x40)\n      returndatasize\n      not(0x1f)\n      0x1f\n      dup3\n      add\n      and\n      dup3\n      add\n      dup1\n      0x40\n      mstore\n      pop\n      dup2\n      add\n      swap1\n      tag_76\n      swap2\n      swap1\n      tag_77\n      jump\t// in\n    tag_76:\n      pop\n        /* \"Final Assignment/final_assignment_staking 1.sol\":1556:1606  tokensStaked(msg.sender, _amount, block.timestamp) */\n      0x96c68044657fcb3bea5ad282f026bd0361f647d377dfe1615a77e35dd87280a1\n        /* \"Final Assignment/final_assignment_staking 1.sol\":1569:1579  msg.sender */\n      caller\n        /* \"Final Assignment/final_assignment_staking 1.sol\":1581:1588  _amount */\n      dup5\n        /* \"Final Assignment/final_assignment_staking 1.sol\":1590:1605  block.timestamp */\n      timestamp\n        /* \"Final Assignment/final_assignment_staking 1.sol\":1556:1606  tokensStaked(msg.sender, _amount, block.timestamp) */\n      mload(0x40)\n      tag_78\n      swap4\n      swap3\n      swap2\n      swap1\n      tag_79\n      jump\t// in\n    tag_78:\n      mload(0x40)\n      dup1\n      swap2\n      sub\n      swap1\n      log1\n        /* \"Final Assignment/final_assignment_staking 1.sol\":1108:1924  if(keccak256(abi.encodePacked(_type)) == keccak256(abi.encodePacked(\"fixed\"))){... */\n      jump(tag_80)\n    tag_65:\n        /* \"Final Assignment/final_assignment_staking 1.sol\":1688:1715  abi.encodePacked(\"unfixed\") */\n      add(0x20, mload(0x40))\n      tag_81\n      swap1\n      tag_82\n      jump\t// in\n    tag_81:\n      mload(0x40)\n      0x20\n      dup2\n      dup4\n      sub\n      sub\n      dup2\n      mstore\n      swap1\n      0x40\n      mstore\n        /* \"Final Assignment/final_assignment_staking 1.sol\":1678:1716  keccak256(abi.encodePacked(\"unfixed\")) */\n      dup1\n      mload\n      swap1\n      0x20\n      add\n      keccak256\n        /* \"Final Assignment/final_assignment_staking 1.sol\":1667:1672  _type */\n      dup3\n        /* \"Final Assignment/final_assignment_staking 1.sol\":1650:1673  abi.encodePacked(_type) */\n      add(0x20, mload(0x40))\n      tag_83\n      swap2\n      swap1\n      tag_64\n      jump\t// in\n    tag_83:\n      mload(0x40)\n      0x20\n      dup2\n      dup4\n      sub\n      sub\n      dup2\n      mstore\n      swap1\n      0x40\n      mstore\n        /* \"Final Assignment/final_assignment_staking 1.sol\":1640:1674  keccak256(abi.encodePacked(_type)) */\n      dup1\n      mload\n      swap1\n      0x20\n      add\n      keccak256\n        /* \"Final Assignment/final_assignment_staking 1.sol\":1640:1716  keccak256(abi.encodePacked(_type)) == keccak256(abi.encodePacked(\"unfixed\")) */\n      sub\n        /* \"Final Assignment/final_assignment_staking 1.sol\":1637:1924  if(keccak256(abi.encodePacked(_type)) == keccak256(abi.encodePacked(\"unfixed\"))){... */\n      tag_84\n      jumpi\n        /* \"Final Assignment/final_assignment_staking 1.sol\":1773:1780  _amount */\n      dup3\n        /* \"Final Assignment/final_assignment_staking 1.sol\":1732:1745  Stake_details */\n      0x0a\n        /* \"Final Assignment/final_assignment_staking 1.sol\":1732:1757  Stake_details[msg.sender] */\n      0x00\n        /* \"Final Assignment/final_assignment_staking 1.sol\":1746:1756  msg.sender */\n      caller\n        /* \"Final Assignment/final_assignment_staking 1.sol\":1732:1757  Stake_details[msg.sender] */\n      0xffffffffffffffffffffffffffffffffffffffff\n      and\n      0xffffffffffffffffffffffffffffffffffffffff\n      and\n      dup2\n      mstore\n      0x20\n      add\n      swap1\n      dup2\n      mstore\n      0x20\n      add\n      0x00\n      keccak256\n        /* \"Final Assignment/final_assignment_staking 1.sol\":1732:1770  Stake_details[msg.sender].stake_amount */\n      0x00\n      add\n        /* \"Final Assignment/final_assignment_staking 1.sol\":1732:1780  Stake_details[msg.sender].stake_amount = _amount */\n      dup2\n      swap1\n      sstore\n      pop\n        /* \"Final Assignment/final_assignment_staking 1.sol\":1834:1839  _type */\n      dup2\n        /* \"Final Assignment/final_assignment_staking 1.sol\":1795:1808  Stake_details */\n      0x0a\n        /* \"Final Assignment/final_assignment_staking 1.sol\":1795:1820  Stake_details[msg.sender] */\n      0x00\n        /* \"Final Assignment/final_assignment_staking 1.sol\":1809:1819  msg.sender */\n      caller\n        /* \"Final Assignment/final_assignment_staking 1.sol\":1795:1820  Stake_details[msg.sender] */\n      0xffffffffffffffffffffffffffffffffffffffff\n      and\n      0xffffffffffffffffffffffffffffffffffffffff\n      and\n      dup2\n      mstore\n      0x20\n      add\n      swap1\n      dup2\n      mstore\n      0x20\n      add\n      0x00\n      keccak256\n        /* \"Final Assignment/final_assignment_staking 1.sol\":1795:1831  Stake_details[msg.sender].stake_type */\n      0x01\n      add\n        /* \"Final Assignment/final_assignment_staking 1.sol\":1795:1839  Stake_details[msg.sender].stake_type = _type */\n      swap1\n      dup2\n      tag_85\n      swap2\n      swap1\n      tag_70\n      jump\t// in\n    tag_85:\n      pop\n        /* \"Final Assignment/final_assignment_staking 1.sol\":1854:1859  Token */\n      0x00\n      dup1\n      sload\n      swap1\n      0x0100\n      exp\n      swap1\n      div\n      0xffffffffffffffffffffffffffffffffffffffff\n      and\n        /* \"Final Assignment/final_assignment_staking 1.sol\":1854:1872  Token.transferFrom */\n      0xffffffffffffffffffffffffffffffffffffffff\n      and\n      0x23b872dd\n        /* \"Final Assignment/final_assignment_staking 1.sol\":1873:1883  msg.sender */\n      caller\n        /* \"Final Assignment/final_assignment_staking 1.sol\":1893:1897  this */\n      address\n        /* \"Final Assignment/final_assignment_staking 1.sol\":1900:1907  _amount */\n      dup7\n        /* \"Final Assignment/final_assignment_staking 1.sol\":1854:1908  Token.transferFrom(msg.sender, address(this), _amount) */\n      mload(0x40)\n      dup5\n      0xffffffff\n      and\n      0xe0\n      shl\n      dup2\n      mstore\n      0x04\n      add\n      tag_86\n      swap4\n      swap3\n      swap2\n      swap1\n      tag_73\n      jump\t// in\n    tag_86:\n      0x20\n      mload(0x40)\n      dup1\n      dup4\n      sub\n      dup2\n      0x00\n      dup8\n      gas\n      call\n      iszero\n      dup1\n      iszero\n      tag_88\n      jumpi\n      returndatasize\n      0x00\n      dup1\n      returndatacopy\n      revert(0x00, returndatasize)\n    tag_88:\n      pop\n      pop\n      pop\n      pop\n      mload(0x40)\n      returndatasize\n      not(0x1f)\n      0x1f\n      dup3\n      add\n      and\n      dup3\n      add\n      dup1\n      0x40\n      mstore\n      pop\n      dup2\n      add\n      swap1\n      tag_89\n      swap2\n      swap1\n      tag_77\n      jump\t// in\n    tag_89:\n      pop\n        /* \"Final Assignment/final_assignment_staking 1.sol\":1637:1924  if(keccak256(abi.encodePacked(_type)) == keccak256(abi.encodePacked(\"unfixed\"))){... */\n    tag_84:\n        /* \"Final Assignment/final_assignment_staking 1.sol\":1108:1924  if(keccak256(abi.encodePacked(_type)) == keccak256(abi.encodePacked(\"fixed\"))){... */\n    tag_80:\n        /* \"Final Assignment/final_assignment_staking 1.sol\":942:1939  function staking(uint _amount, string memory _type, uint _duration) public  {... */\n      pop\n      pop\n      pop\n      jump\t// out\n        /* \"Final Assignment/final_assignment_staking 1.sol\":647:692  mapping(address =>Stake) public Stake_details */\n    tag_28:\n      mstore(0x20, 0x0a)\n      dup1\n      0x00\n      mstore\n      keccak256(0x00, 0x40)\n      0x00\n      swap2\n      pop\n      swap1\n      pop\n      dup1\n      0x00\n      add\n      sload\n      swap1\n      dup1\n      0x01\n      add\n      dup1\n      sload\n      tag_90\n      swap1\n      tag_91\n      jump\t// in\n    tag_90:\n      dup1\n      0x1f\n      add\n      0x20\n      dup1\n      swap2\n      div\n      mul\n      0x20\n      add\n      mload(0x40)\n      swap1\n      dup2\n      add\n      0x40\n      mstore\n      dup1\n      swap3\n      swap2\n      swap1\n      dup2\n      dup2\n      mstore\n      0x20\n      add\n      dup3\n      dup1\n      sload\n      tag_92\n      swap1\n      tag_91\n      jump\t// in\n    tag_92:\n      dup1\n      iszero\n      tag_93\n      jumpi\n      dup1\n      0x1f\n      lt\n      tag_94\n      jumpi\n      0x0100\n      dup1\n      dup4\n      sload\n      div\n      mul\n      dup4\n      mstore\n      swap2\n      0x20\n      add\n      swap2\n      jump(tag_93)\n    tag_94:\n      dup3\n      add\n      swap2\n      swap1\n      0x00\n      mstore\n      keccak256(0x00, 0x20)\n      swap1\n    tag_95:\n      dup2\n      sload\n      dup2\n      mstore\n      swap1\n      0x01\n      add\n      swap1\n      0x20\n      add\n      dup1\n      dup4\n      gt\n      tag_95\n      jumpi\n      dup3\n      swap1\n      sub\n      0x1f\n      and\n      dup3\n      add\n      swap2\n    tag_93:\n      pop\n      pop\n      pop\n      pop\n      pop\n      swap1\n      dup1\n      0x02\n      add\n      sload\n      swap1\n      pop\n      dup4\n      jump\t// out\n        /* \"#utility.yul\":7:133   */\n    tag_96:\n        /* \"#utility.yul\":44:51   */\n      0x00\n        /* \"#utility.yul\":84:126   */\n      0xffffffffffffffffffffffffffffffffffffffff\n        /* \"#utility.yul\":77:82   */\n      dup3\n        /* \"#utility.yul\":73:127   */\n      and\n        /* \"#utility.yul\":62:127   */\n      swap1\n      pop\n        /* \"#utility.yul\":7:133   */\n      swap2\n      swap1\n      pop\n      jump\t// out\n        /* \"#utility.yul\":139:235   */\n    tag_97:\n        /* \"#utility.yul\":176:183   */\n      0x00\n        /* \"#utility.yul\":205:229   */\n      tag_157\n        /* \"#utility.yul\":223:228   */\n      dup3\n        /* \"#utility.yul\":205:229   */\n      tag_96\n      jump\t// in\n    tag_157:\n        /* \"#utility.yul\":194:229   */\n      swap1\n      pop\n        /* \"#utility.yul\":139:235   */\n      swap2\n      swap1\n      pop\n      jump\t// out\n        /* \"#utility.yul\":241:359   */\n    tag_98:\n        /* \"#utility.yul\":328:352   */\n      tag_159\n        /* \"#utility.yul\":346:351   */\n      dup2\n        /* \"#utility.yul\":328:352   */\n      tag_97\n      jump\t// in\n    tag_159:\n        /* \"#utility.yul\":323:326   */\n      dup3\n        /* \"#utility.yul\":316:353   */\n      mstore\n        /* \"#utility.yul\":241:359   */\n      pop\n      pop\n      jump\t// out\n        /* \"#utility.yul\":365:587   */\n    tag_11:\n        /* \"#utility.yul\":458:462   */\n      0x00\n        /* \"#utility.yul\":496:498   */\n      0x20\n        /* \"#utility.yul\":485:494   */\n      dup3\n        /* \"#utility.yul\":481:499   */\n      add\n        /* \"#utility.yul\":473:499   */\n      swap1\n      pop\n        /* \"#utility.yul\":509:580   */\n      tag_161\n        /* \"#utility.yul\":577:578   */\n      0x00\n        /* \"#utility.yul\":566:575   */\n      dup4\n        /* \"#utility.yul\":562:579   */\n      add\n        /* \"#utility.yul\":553:559   */\n      dup5\n        /* \"#utility.yul\":509:580   */\n      tag_98\n      jump\t// in\n    tag_161:\n        /* \"#utility.yul\":365:587   */\n      swap3\n      swap2\n      pop\n      pop\n      jump\t// out\n        /* \"#utility.yul\":593:692   */\n    tag_99:\n        /* \"#utility.yul\":645:651   */\n      0x00\n        /* \"#utility.yul\":679:684   */\n      dup2\n        /* \"#utility.yul\":673:685   */\n      mload\n        /* \"#utility.yul\":663:685   */\n      swap1\n      pop\n        /* \"#utility.yul\":593:692   */\n      swap2\n      swap1\n      pop\n      jump\t// out\n        /* \"#utility.yul\":698:867   */\n    tag_100:\n        /* \"#utility.yul\":782:793   */\n      0x00\n        /* \"#utility.yul\":816:822   */\n      dup3\n        /* \"#utility.yul\":811:814   */\n      dup3\n        /* \"#utility.yul\":804:823   */\n      mstore\n        /* \"#utility.yul\":856:860   */\n      0x20\n        /* \"#utility.yul\":851:854   */\n      dup3\n        /* \"#utility.yul\":847:861   */\n      add\n        /* \"#utility.yul\":832:861   */\n      swap1\n      pop\n        /* \"#utility.yul\":698:867   */\n      swap3\n      swap2\n      pop\n      pop\n      jump\t// out\n        /* \"#utility.yul\":873:1119   */\n    tag_101:\n        /* \"#utility.yul\":954:955   */\n      0x00\n        /* \"#utility.yul\":964:1077   */\n    tag_165:\n        /* \"#utility.yul\":978:984   */\n      dup4\n        /* \"#utility.yul\":975:976   */\n      dup2\n        /* \"#utility.yul\":972:985   */\n      lt\n        /* \"#utility.yul\":964:1077   */\n      iszero\n      tag_167\n      jumpi\n        /* \"#utility.yul\":1063:1064   */\n      dup1\n        /* \"#utility.yul\":1058:1061   */\n      dup3\n        /* \"#utility.yul\":1054:1065   */\n      add\n        /* \"#utility.yul\":1048:1066   */\n      mload\n        /* \"#utility.yul\":1044:1045   */\n      dup2\n        /* \"#utility.yul\":1039:1042   */\n      dup5\n        /* \"#utility.yul\":1035:1046   */\n      add\n        /* \"#utility.yul\":1028:1067   */\n      mstore\n        /* \"#utility.yul\":1000:1002   */\n      0x20\n        /* \"#utility.yul\":997:998   */\n      dup2\n        /* \"#utility.yul\":993:1003   */\n      add\n        /* \"#utility.yul\":988:1003   */\n      swap1\n      pop\n        /* \"#utility.yul\":964:1077   */\n      jump(tag_165)\n    tag_167:\n        /* \"#utility.yul\":1111:1112   */\n      0x00\n        /* \"#utility.yul\":1102:1108   */\n      dup5\n        /* \"#utility.yul\":1097:1100   */\n      dup5\n        /* \"#utility.yul\":1093:1109   */\n      add\n        /* \"#utility.yul\":1086:1113   */\n      mstore\n        /* \"#utility.yul\":935:1119   */\n      pop\n        /* \"#utility.yul\":873:1119   */\n      pop\n      pop\n      pop\n      jump\t// out\n        /* \"#utility.yul\":1125:1227   */\n    tag_102:\n        /* \"#utility.yul\":1166:1172   */\n      0x00\n        /* \"#utility.yul\":1217:1219   */\n      0x1f\n        /* \"#utility.yul\":1213:1220   */\n      not\n        /* \"#utility.yul\":1208:1210   */\n      0x1f\n        /* \"#utility.yul\":1201:1206   */\n      dup4\n        /* \"#utility.yul\":1197:1211   */\n      add\n        /* \"#utility.yul\":1193:1221   */\n      and\n        /* \"#utility.yul\":1183:1221   */\n      swap1\n      pop\n        /* \"#utility.yul\":1125:1227   */\n      swap2\n      swap1\n      pop\n      jump\t// out\n        /* \"#utility.yul\":1233:1610   */\n    tag_103:\n        /* \"#utility.yul\":1321:1324   */\n      0x00\n        /* \"#utility.yul\":1349:1388   */\n      tag_170\n        /* \"#utility.yul\":1382:1387   */\n      dup3\n        /* \"#utility.yul\":1349:1388   */\n      tag_99\n      jump\t// in\n    tag_170:\n        /* \"#utility.yul\":1404:1475   */\n      tag_171\n        /* \"#utility.yul\":1468:1474   */\n      dup2\n        /* \"#utility.yul\":1463:1466   */\n      dup6\n        /* \"#utility.yul\":1404:1475   */\n      tag_100\n      jump\t// in\n    tag_171:\n        /* \"#utility.yul\":1397:1475   */\n      swap4\n      pop\n        /* \"#utility.yul\":1484:1549   */\n      tag_172\n        /* \"#utility.yul\":1542:1548   */\n      dup2\n        /* \"#utility.yul\":1537:1540   */\n      dup6\n        /* \"#utility.yul\":1530:1534   */\n      0x20\n        /* \"#utility.yul\":1523:1528   */\n      dup7\n        /* \"#utility.yul\":1519:1535   */\n      add\n        /* \"#utility.yul\":1484:1549   */\n      tag_101\n      jump\t// in\n    tag_172:\n        /* \"#utility.yul\":1574:1603   */\n      tag_173\n        /* \"#utility.yul\":1596:1602   */\n      dup2\n        /* \"#utility.yul\":1574:1603   */\n      tag_102\n      jump\t// in\n    tag_173:\n        /* \"#utility.yul\":1569:1572   */\n      dup5\n        /* \"#utility.yul\":1565:1604   */\n      add\n        /* \"#utility.yul\":1558:1604   */\n      swap2\n      pop\n        /* \"#utility.yul\":1325:1610   */\n      pop\n        /* \"#utility.yul\":1233:1610   */\n      swap3\n      swap2\n      pop\n      pop\n      jump\t// out\n        /* \"#utility.yul\":1616:1929   */\n    tag_15:\n        /* \"#utility.yul\":1729:1733   */\n      0x00\n        /* \"#utility.yul\":1767:1769   */\n      0x20\n        /* \"#utility.yul\":1756:1765   */\n      dup3\n        /* \"#utility.yul\":1752:1770   */\n      add\n        /* \"#utility.yul\":1744:1770   */\n      swap1\n      pop\n        /* \"#utility.yul\":1816:1825   */\n      dup2\n        /* \"#utility.yul\":1810:1814   */\n      dup2\n        /* \"#utility.yul\":1806:1826   */\n      sub\n        /* \"#utility.yul\":1802:1803   */\n      0x00\n        /* \"#utility.yul\":1791:1800   */\n      dup4\n        /* \"#utility.yul\":1787:1804   */\n      add\n        /* \"#utility.yul\":1780:1827   */\n      mstore\n        /* \"#utility.yul\":1844:1922   */\n      tag_175\n        /* \"#utility.yul\":1917:1921   */\n      dup2\n        /* \"#utility.yul\":1908:1914   */\n      dup5\n        /* \"#utility.yul\":1844:1922   */\n      tag_103\n      jump\t// in\n    tag_175:\n        /* \"#utility.yul\":1836:1922   */\n      swap1\n      pop\n        /* \"#utility.yul\":1616:1929   */\n      swap3\n      swap2\n      pop\n      pop\n      jump\t// out\n        /* \"#utility.yul\":1935:2010   */\n    tag_104:\n        /* \"#utility.yul\":1968:1974   */\n      0x00\n        /* \"#utility.yul\":2001:2003   */\n      0x40\n        /* \"#utility.yul\":1995:2004   */\n      mload\n        /* \"#utility.yul\":1985:2004   */\n      swap1\n      pop\n        /* \"#utility.yul\":1935:2010   */\n      swap1\n      jump\t// out\n        /* \"#utility.yul\":2016:2133   */\n    tag_105:\n        /* \"#utility.yul\":2125:2126   */\n      0x00\n        /* \"#utility.yul\":2122:2123   */\n      dup1\n        /* \"#utility.yul\":2115:2127   */\n      revert\n        /* \"#utility.yul\":2139:2256   */\n    tag_106:\n        /* \"#utility.yul\":2248:2249   */\n      0x00\n        /* \"#utility.yul\":2245:2246   */\n      dup1\n        /* \"#utility.yul\":2238:2250   */\n      revert\n        /* \"#utility.yul\":2262:2384   */\n    tag_107:\n        /* \"#utility.yul\":2335:2359   */\n      tag_180\n        /* \"#utility.yul\":2353:2358   */\n      dup2\n        /* \"#utility.yul\":2335:2359   */\n      tag_97\n      jump\t// in\n    tag_180:\n        /* \"#utility.yul\":2328:2333   */\n      dup2\n        /* \"#utility.yul\":2325:2360   */\n      eq\n        /* \"#utility.yul\":2315:2378   */\n      tag_181\n      jumpi\n        /* \"#utility.yul\":2374:2375   */\n      0x00\n        /* \"#utility.yul\":2371:2372   */\n      dup1\n        /* \"#utility.yul\":2364:2376   */\n      revert\n        /* \"#utility.yul\":2315:2378   */\n    tag_181:\n        /* \"#utility.yul\":2262:2384   */\n      pop\n      jump\t// out\n        /* \"#utility.yul\":2390:2529   */\n    tag_108:\n        /* \"#utility.yul\":2436:2441   */\n      0x00\n        /* \"#utility.yul\":2474:2480   */\n      dup2\n        /* \"#utility.yul\":2461:2481   */\n      calldataload\n        /* \"#utility.yul\":2452:2481   */\n      swap1\n      pop\n        /* \"#utility.yul\":2490:2523   */\n      tag_183\n        /* \"#utility.yul\":2517:2522   */\n      dup2\n        /* \"#utility.yul\":2490:2523   */\n      tag_107\n      jump\t// in\n    tag_183:\n        /* \"#utility.yul\":2390:2529   */\n      swap3\n      swap2\n      pop\n      pop\n      jump\t// out\n        /* \"#utility.yul\":2535:2864   */\n    tag_18:\n        /* \"#utility.yul\":2594:2600   */\n      0x00\n        /* \"#utility.yul\":2643:2645   */\n      0x20\n        /* \"#utility.yul\":2631:2640   */\n      dup3\n        /* \"#utility.yul\":2622:2629   */\n      dup5\n        /* \"#utility.yul\":2618:2641   */\n      sub\n        /* \"#utility.yul\":2614:2646   */\n      slt\n        /* \"#utility.yul\":2611:2730   */\n      iszero\n      tag_185\n      jumpi\n        /* \"#utility.yul\":2649:2728   */\n      tag_186\n      tag_105\n      jump\t// in\n    tag_186:\n        /* \"#utility.yul\":2611:2730   */\n    tag_185:\n        /* \"#utility.yul\":2769:2770   */\n      0x00\n        /* \"#utility.yul\":2794:2847   */\n      tag_187\n        /* \"#utility.yul\":2839:2846   */\n      dup5\n        /* \"#utility.yul\":2830:2836   */\n      dup3\n        /* \"#utility.yul\":2819:2828   */\n      dup6\n        /* \"#utility.yul\":2815:2837   */\n      add\n        /* \"#utility.yul\":2794:2847   */\n      tag_108\n      jump\t// in\n    tag_187:\n        /* \"#utility.yul\":2784:2847   */\n      swap2\n      pop\n        /* \"#utility.yul\":2740:2857   */\n      pop\n        /* \"#utility.yul\":2535:2864   */\n      swap3\n      swap2\n      pop\n      pop\n      jump\t// out\n        /* \"#utility.yul\":2870:2947   */\n    tag_109:\n        /* \"#utility.yul\":2907:2914   */\n      0x00\n        /* \"#utility.yul\":2936:2941   */\n      dup2\n        /* \"#utility.yul\":2925:2941   */\n      swap1\n      pop\n        /* \"#utility.yul\":2870:2947   */\n      swap2\n      swap1\n      pop\n      jump\t// out\n        /* \"#utility.yul\":2953:3071   */\n    tag_110:\n        /* \"#utility.yul\":3040:3064   */\n      tag_190\n        /* \"#utility.yul\":3058:3063   */\n      dup2\n        /* \"#utility.yul\":3040:3064   */\n      tag_109\n      jump\t// in\n    tag_190:\n        /* \"#utility.yul\":3035:3038   */\n      dup3\n        /* \"#utility.yul\":3028:3065   */\n      mstore\n        /* \"#utility.yul\":2953:3071   */\n      pop\n      pop\n      jump\t// out\n        /* \"#utility.yul\":3077:3299   */\n    tag_21:\n        /* \"#utility.yul\":3170:3174   */\n      0x00\n        /* \"#utility.yul\":3208:3210   */\n      0x20\n        /* \"#utility.yul\":3197:3206   */\n      dup3\n        /* \"#utility.yul\":3193:3211   */\n      add\n        /* \"#utility.yul\":3185:3211   */\n      swap1\n      pop\n        /* \"#utility.yul\":3221:3292   */\n      tag_192\n        /* \"#utility.yul\":3289:3290   */\n      0x00\n        /* \"#utility.yul\":3278:3287   */\n      dup4\n        /* \"#utility.yul\":3274:3291   */\n      add\n        /* \"#utility.yul\":3265:3271   */\n      dup5\n        /* \"#utility.yul\":3221:3292   */\n      tag_110\n      jump\t// in\n    tag_192:\n        /* \"#utility.yul\":3077:3299   */\n      swap3\n      swap2\n      pop\n      pop\n      jump\t// out\n        /* \"#utility.yul\":3305:3427   */\n    tag_111:\n        /* \"#utility.yul\":3378:3402   */\n      tag_194\n        /* \"#utility.yul\":3396:3401   */\n      dup2\n        /* \"#utility.yul\":3378:3402   */\n      tag_109\n      jump\t// in\n    tag_194:\n        /* \"#utility.yul\":3371:3376   */\n      dup2\n        /* \"#utility.yul\":3368:3403   */\n      eq\n        /* \"#utility.yul\":3358:3421   */\n      tag_195\n      jumpi\n        /* \"#utility.yul\":3417:3418   */\n      0x00\n        /* \"#utility.yul\":3414:3415   */\n      dup1\n        /* \"#utility.yul\":3407:3419   */\n      revert\n        /* \"#utility.yul\":3358:3421   */\n    tag_195:\n        /* \"#utility.yul\":3305:3427   */\n      pop\n      jump\t// out\n        /* \"#utility.yul\":3433:3572   */\n    tag_112:\n        /* \"#utility.yul\":3479:3484   */\n      0x00\n        /* \"#utility.yul\":3517:3523   */\n      dup2\n        /* \"#utility.yul\":3504:3524   */\n      calldataload\n        /* \"#utility.yul\":3495:3524   */\n      swap1\n      pop\n        /* \"#utility.yul\":3533:3566   */\n      tag_197\n        /* \"#utility.yul\":3560:3565   */\n      dup2\n        /* \"#utility.yul\":3533:3566   */\n      tag_111\n      jump\t// in\n    tag_197:\n        /* \"#utility.yul\":3433:3572   */\n      swap3\n      swap2\n      pop\n      pop\n      jump\t// out\n        /* \"#utility.yul\":3578:3695   */\n    tag_113:\n        /* \"#utility.yul\":3687:3688   */\n      0x00\n        /* \"#utility.yul\":3684:3685   */\n      dup1\n        /* \"#utility.yul\":3677:3689   */\n      revert\n        /* \"#utility.yul\":3701:3818   */\n    tag_114:\n        /* \"#utility.yul\":3810:3811   */\n      0x00\n        /* \"#utility.yul\":3807:3808   */\n      dup1\n        /* \"#utility.yul\":3800:3812   */\n      revert\n        /* \"#utility.yul\":3824:4004   */\n    tag_115:\n        /* \"#utility.yul\":3872:3949   */\n      0x4e487b7100000000000000000000000000000000000000000000000000000000\n        /* \"#utility.yul\":3869:3870   */\n      0x00\n        /* \"#utility.yul\":3862:3950   */\n      mstore\n        /* \"#utility.yul\":3969:3973   */\n      0x41\n        /* \"#utility.yul\":3966:3967   */\n      0x04\n        /* \"#utility.yul\":3959:3974   */\n      mstore\n        /* \"#utility.yul\":3993:3997   */\n      0x24\n        /* \"#utility.yul\":3990:3991   */\n      0x00\n        /* \"#utility.yul\":3983:3998   */\n      revert\n        /* \"#utility.yul\":4010:4291   */\n    tag_116:\n        /* \"#utility.yul\":4093:4120   */\n      tag_202\n        /* \"#utility.yul\":4115:4119   */\n      dup3\n        /* \"#utility.yul\":4093:4120   */\n      tag_102\n      jump\t// in\n    tag_202:\n        /* \"#utility.yul\":4085:4091   */\n      dup2\n        /* \"#utility.yul\":4081:4121   */\n      add\n        /* \"#utility.yul\":4223:4229   */\n      dup2\n        /* \"#utility.yul\":4211:4221   */\n      dup2\n        /* \"#utility.yul\":4208:4230   */\n      lt\n        /* \"#utility.yul\":4187:4205   */\n      0xffffffffffffffff\n        /* \"#utility.yul\":4175:4185   */\n      dup3\n        /* \"#utility.yul\":4172:4206   */\n      gt\n        /* \"#utility.yul\":4169:4231   */\n      or\n        /* \"#utility.yul\":4166:4254   */\n      iszero\n      tag_203\n      jumpi\n        /* \"#utility.yul\":4234:4252   */\n      tag_204\n      tag_115\n      jump\t// in\n    tag_204:\n        /* \"#utility.yul\":4166:4254   */\n    tag_203:\n        /* \"#utility.yul\":4274:4284   */\n      dup1\n        /* \"#utility.yul\":4270:4272   */\n      0x40\n        /* \"#utility.yul\":4263:4285   */\n      mstore\n        /* \"#utility.yul\":4053:4291   */\n      pop\n        /* \"#utility.yul\":4010:4291   */\n      pop\n      pop\n      jump\t// out\n        /* \"#utility.yul\":4297:4426   */\n    tag_117:\n        /* \"#utility.yul\":4331:4337   */\n      0x00\n        /* \"#utility.yul\":4358:4378   */\n      tag_206\n      tag_104\n      jump\t// in\n    tag_206:\n        /* \"#utility.yul\":4348:4378   */\n      swap1\n      pop\n        /* \"#utility.yul\":4387:4420   */\n      tag_207\n        /* \"#utility.yul\":4415:4419   */\n      dup3\n        /* \"#utility.yul\":4407:4413   */\n      dup3\n        /* \"#utility.yul\":4387:4420   */\n      tag_116\n      jump\t// in\n    tag_207:\n        /* \"#utility.yul\":4297:4426   */\n      swap2\n      swap1\n      pop\n      jump\t// out\n        /* \"#utility.yul\":4432:4740   */\n    tag_118:\n        /* \"#utility.yul\":4494:4498   */\n      0x00\n        /* \"#utility.yul\":4584:4602   */\n      0xffffffffffffffff\n        /* \"#utility.yul\":4576:4582   */\n      dup3\n        /* \"#utility.yul\":4573:4603   */\n      gt\n        /* \"#utility.yul\":4570:4626   */\n      iszero\n      tag_209\n      jumpi\n        /* \"#utility.yul\":4606:4624   */\n      tag_210\n      tag_115\n      jump\t// in\n    tag_210:\n        /* \"#utility.yul\":4570:4626   */\n    tag_209:\n        /* \"#utility.yul\":4644:4673   */\n      tag_211\n        /* \"#utility.yul\":4666:4672   */\n      dup3\n        /* \"#utility.yul\":4644:4673   */\n      tag_102\n      jump\t// in\n    tag_211:\n        /* \"#utility.yul\":4636:4673   */\n      swap1\n      pop\n        /* \"#utility.yul\":4728:4732   */\n      0x20\n        /* \"#utility.yul\":4722:4726   */\n      dup2\n        /* \"#utility.yul\":4718:4733   */\n      add\n        /* \"#utility.yul\":4710:4733   */\n      swap1\n      pop\n        /* \"#utility.yul\":4432:4740   */\n      swap2\n      swap1\n      pop\n      jump\t// out\n        /* \"#utility.yul\":4746:4892   */\n    tag_119:\n        /* \"#utility.yul\":4843:4849   */\n      dup3\n        /* \"#utility.yul\":4838:4841   */\n      dup2\n        /* \"#utility.yul\":4833:4836   */\n      dup4\n        /* \"#utility.yul\":4820:4850   */\n      calldatacopy\n        /* \"#utility.yul\":4884:4885   */\n      0x00\n        /* \"#utility.yul\":4875:4881   */\n      dup4\n        /* \"#utility.yul\":4870:4873   */\n      dup4\n        /* \"#utility.yul\":4866:4882   */\n      add\n        /* \"#utility.yul\":4859:4886   */\n      mstore\n        /* \"#utility.yul\":4746:4892   */\n      pop\n      pop\n      pop\n      jump\t// out\n        /* \"#utility.yul\":4898:5323   */\n    tag_120:\n        /* \"#utility.yul\":4976:4981   */\n      0x00\n        /* \"#utility.yul\":5001:5067   */\n      tag_214\n        /* \"#utility.yul\":5017:5066   */\n      tag_215\n        /* \"#utility.yul\":5059:5065   */\n      dup5\n        /* \"#utility.yul\":5017:5066   */\n      tag_118\n      jump\t// in\n    tag_215:\n        /* \"#utility.yul\":5001:5067   */\n      tag_117\n      jump\t// in\n    tag_214:\n        /* \"#utility.yul\":4992:5067   */\n      swap1\n      pop\n        /* \"#utility.yul\":5090:5096   */\n      dup3\n        /* \"#utility.yul\":5083:5088   */\n      dup2\n        /* \"#utility.yul\":5076:5097   */\n      mstore\n        /* \"#utility.yul\":5128:5132   */\n      0x20\n        /* \"#utility.yul\":5121:5126   */\n      dup2\n        /* \"#utility.yul\":5117:5133   */\n      add\n        /* \"#utility.yul\":5166:5169   */\n      dup5\n        /* \"#utility.yul\":5157:5163   */\n      dup5\n        /* \"#utility.yul\":5152:5155   */\n      dup5\n        /* \"#utility.yul\":5148:5164   */\n      add\n        /* \"#utility.yul\":5145:5170   */\n      gt\n        /* \"#utility.yul\":5142:5254   */\n      iszero\n      tag_216\n      jumpi\n        /* \"#utility.yul\":5173:5252   */\n      tag_217\n      tag_114\n      jump\t// in\n    tag_217:\n        /* \"#utility.yul\":5142:5254   */\n    tag_216:\n        /* \"#utility.yul\":5263:5317   */\n      tag_218\n        /* \"#utility.yul\":5310:5316   */\n      dup5\n        /* \"#utility.yul\":5305:5308   */\n      dup3\n        /* \"#utility.yul\":5300:5303   */\n      dup6\n        /* \"#utility.yul\":5263:5317   */\n      tag_119\n      jump\t// in\n    tag_218:\n        /* \"#utility.yul\":4982:5323   */\n      pop\n        /* \"#utility.yul\":4898:5323   */\n      swap4\n      swap3\n      pop\n      pop\n      pop\n      jump\t// out\n        /* \"#utility.yul\":5343:5683   */\n    tag_121:\n        /* \"#utility.yul\":5399:5404   */\n      0x00\n        /* \"#utility.yul\":5448:5451   */\n      dup3\n        /* \"#utility.yul\":5441:5445   */\n      0x1f\n        /* \"#utility.yul\":5433:5439   */\n      dup4\n        /* \"#utility.yul\":5429:5446   */\n      add\n        /* \"#utility.yul\":5425:5452   */\n      slt\n        /* \"#utility.yul\":5415:5537   */\n      tag_220\n      jumpi\n        /* \"#utility.yul\":5456:5535   */\n      tag_221\n      tag_113\n      jump\t// in\n    tag_221:\n        /* \"#utility.yul\":5415:5537   */\n    tag_220:\n        /* \"#utility.yul\":5573:5579   */\n      dup2\n        /* \"#utility.yul\":5560:5580   */\n      calldataload\n        /* \"#utility.yul\":5598:5677   */\n      tag_222\n        /* \"#utility.yul\":5673:5676   */\n      dup5\n        /* \"#utility.yul\":5665:5671   */\n      dup3\n        /* \"#utility.yul\":5658:5662   */\n      0x20\n        /* \"#utility.yul\":5650:5656   */\n      dup7\n        /* \"#utility.yul\":5646:5663   */\n      add\n        /* \"#utility.yul\":5598:5677   */\n      tag_120\n      jump\t// in\n    tag_222:\n        /* \"#utility.yul\":5589:5677   */\n      swap2\n      pop\n        /* \"#utility.yul\":5405:5683   */\n      pop\n        /* \"#utility.yul\":5343:5683   */\n      swap3\n      swap2\n      pop\n      pop\n      jump\t// out\n        /* \"#utility.yul\":5689:6488   */\n    tag_24:\n        /* \"#utility.yul\":5776:5782   */\n      0x00\n        /* \"#utility.yul\":5784:5790   */\n      dup1\n        /* \"#utility.yul\":5792:5798   */\n      0x00\n        /* \"#utility.yul\":5841:5843   */\n      0x60\n        /* \"#utility.yul\":5829:5838   */\n      dup5\n        /* \"#utility.yul\":5820:5827   */\n      dup7\n        /* \"#utility.yul\":5816:5839   */\n      sub\n        /* \"#utility.yul\":5812:5844   */\n      slt\n        /* \"#utility.yul\":5809:5928   */\n      iszero\n      tag_224\n      jumpi\n        /* \"#utility.yul\":5847:5926   */\n      tag_225\n      tag_105\n      jump\t// in\n    tag_225:\n        /* \"#utility.yul\":5809:5928   */\n    tag_224:\n        /* \"#utility.yul\":5967:5968   */\n      0x00\n        /* \"#utility.yul\":5992:6045   */\n      tag_226\n        /* \"#utility.yul\":6037:6044   */\n      dup7\n        /* \"#utility.yul\":6028:6034   */\n      dup3\n        /* \"#utility.yul\":6017:6026   */\n      dup8\n        /* \"#utility.yul\":6013:6035   */\n      add\n        /* \"#utility.yul\":5992:6045   */\n      tag_112\n      jump\t// in\n    tag_226:\n        /* \"#utility.yul\":5982:6045   */\n      swap4\n      pop\n        /* \"#utility.yul\":5938:6055   */\n      pop\n        /* \"#utility.yul\":6122:6124   */\n      0x20\n        /* \"#utility.yul\":6111:6120   */\n      dup5\n        /* \"#utility.yul\":6107:6125   */\n      add\n        /* \"#utility.yul\":6094:6126   */\n      calldataload\n        /* \"#utility.yul\":6153:6171   */\n      0xffffffffffffffff\n        /* \"#utility.yul\":6145:6151   */\n      dup2\n        /* \"#utility.yul\":6142:6172   */\n      gt\n        /* \"#utility.yul\":6139:6256   */\n      iszero\n      tag_227\n      jumpi\n        /* \"#utility.yul\":6175:6254   */\n      tag_228\n      tag_106\n      jump\t// in\n    tag_228:\n        /* \"#utility.yul\":6139:6256   */\n    tag_227:\n        /* \"#utility.yul\":6280:6343   */\n      tag_229\n        /* \"#utility.yul\":6335:6342   */\n      dup7\n        /* \"#utility.yul\":6326:6332   */\n      dup3\n        /* \"#utility.yul\":6315:6324   */\n      dup8\n        /* \"#utility.yul\":6311:6333   */\n      add\n        /* \"#utility.yul\":6280:6343   */\n      tag_121\n      jump\t// in\n    tag_229:\n        /* \"#utility.yul\":6270:6343   */\n      swap3\n      pop\n        /* \"#utility.yul\":6065:6353   */\n      pop\n        /* \"#utility.yul\":6392:6394   */\n      0x40\n        /* \"#utility.yul\":6418:6471   */\n      tag_230\n        /* \"#utility.yul\":6463:6470   */\n      dup7\n        /* \"#utility.yul\":6454:6460   */\n      dup3\n        /* \"#utility.yul\":6443:6452   */\n      dup8\n        /* \"#utility.yul\":6439:6461   */\n      add\n        /* \"#utility.yul\":6418:6471   */\n      tag_112\n      jump\t// in\n    tag_230:\n        /* \"#utility.yul\":6408:6471   */\n      swap2\n      pop\n        /* \"#utility.yul\":6363:6481   */\n      pop\n        /* \"#utility.yul\":5689:6488   */\n      swap3\n      pop\n      swap3\n      pop\n      swap3\n      jump\t// out\n        /* \"#utility.yul\":6494:7027   */\n    tag_30:\n        /* \"#utility.yul\":6663:6667   */\n      0x00\n        /* \"#utility.yul\":6701:6703   */\n      0x60\n        /* \"#utility.yul\":6690:6699   */\n      dup3\n        /* \"#utility.yul\":6686:6704   */\n      add\n        /* \"#utility.yul\":6678:6704   */\n      swap1\n      pop\n        /* \"#utility.yul\":6714:6785   */\n      tag_232\n        /* \"#utility.yul\":6782:6783   */\n      0x00\n        /* \"#utility.yul\":6771:6780   */\n      dup4\n        /* \"#utility.yul\":6767:6784   */\n      add\n        /* \"#utility.yul\":6758:6764   */\n      dup7\n        /* \"#utility.yul\":6714:6785   */\n      tag_110\n      jump\t// in\n    tag_232:\n        /* \"#utility.yul\":6832:6841   */\n      dup2\n        /* \"#utility.yul\":6826:6830   */\n      dup2\n        /* \"#utility.yul\":6822:6842   */\n      sub\n        /* \"#utility.yul\":6817:6819   */\n      0x20\n        /* \"#utility.yul\":6806:6815   */\n      dup4\n        /* \"#utility.yul\":6802:6820   */\n      add\n        /* \"#utility.yul\":6795:6843   */\n      mstore\n        /* \"#utility.yul\":6860:6938   */\n      tag_233\n        /* \"#utility.yul\":6933:6937   */\n      dup2\n        /* \"#utility.yul\":6924:6930   */\n      dup6\n        /* \"#utility.yul\":6860:6938   */\n      tag_103\n      jump\t// in\n    tag_233:\n        /* \"#utility.yul\":6852:6938   */\n      swap1\n      pop\n        /* \"#utility.yul\":6948:7020   */\n      tag_234\n        /* \"#utility.yul\":7016:7018   */\n      0x40\n        /* \"#utility.yul\":7005:7014   */\n      dup4\n        /* \"#utility.yul\":7001:7019   */\n      add\n        /* \"#utility.yul\":6992:6998   */\n      dup5\n        /* \"#utility.yul\":6948:7020   */\n      tag_110\n      jump\t// in\n    tag_234:\n        /* \"#utility.yul\":6494:7027   */\n      swap5\n      swap4\n      pop\n      pop\n      pop\n      pop\n      jump\t// out\n        /* \"#utility.yul\":7033:7213   */\n    tag_122:\n        /* \"#utility.yul\":7081:7158   */\n      0x4e487b7100000000000000000000000000000000000000000000000000000000\n        /* \"#utility.yul\":7078:7079   */\n      0x00\n        /* \"#utility.yul\":7071:7159   */\n      mstore\n        /* \"#utility.yul\":7178:7182   */\n      0x11\n        /* \"#utility.yul\":7175:7176   */\n      0x04\n        /* \"#utility.yul\":7168:7183   */\n      mstore\n        /* \"#utility.yul\":7202:7206   */\n      0x24\n        /* \"#utility.yul\":7199:7200   */\n      0x00\n        /* \"#utility.yul\":7192:7207   */\n      revert\n        /* \"#utility.yul\":7219:7629   */\n    tag_36:\n        /* \"#utility.yul\":7259:7266   */\n      0x00\n        /* \"#utility.yul\":7282:7302   */\n      tag_237\n        /* \"#utility.yul\":7300:7301   */\n      dup3\n        /* \"#utility.yul\":7282:7302   */\n      tag_109\n      jump\t// in\n    tag_237:\n        /* \"#utility.yul\":7277:7302   */\n      swap2\n      pop\n        /* \"#utility.yul\":7316:7336   */\n      tag_238\n        /* \"#utility.yul\":7334:7335   */\n      dup4\n        /* \"#utility.yul\":7316:7336   */\n      tag_109\n      jump\t// in\n    tag_238:\n        /* \"#utility.yul\":7311:7336   */\n      swap3\n      pop\n        /* \"#utility.yul\":7371:7372   */\n      dup3\n        /* \"#utility.yul\":7368:7369   */\n      dup3\n        /* \"#utility.yul\":7364:7373   */\n      mul\n        /* \"#utility.yul\":7393:7423   */\n      tag_239\n        /* \"#utility.yul\":7411:7422   */\n      dup2\n        /* \"#utility.yul\":7393:7423   */\n      tag_109\n      jump\t// in\n    tag_239:\n        /* \"#utility.yul\":7382:7423   */\n      swap2\n      pop\n        /* \"#utility.yul\":7572:7573   */\n      dup3\n        /* \"#utility.yul\":7563:7570   */\n      dup3\n        /* \"#utility.yul\":7559:7574   */\n      div\n        /* \"#utility.yul\":7556:7557   */\n      dup5\n        /* \"#utility.yul\":7553:7575   */\n      eq\n        /* \"#utility.yul\":7533:7534   */\n      dup4\n        /* \"#utility.yul\":7526:7535   */\n      iszero\n        /* \"#utility.yul\":7506:7589   */\n      or\n        /* \"#utility.yul\":7483:7622   */\n      tag_240\n      jumpi\n        /* \"#utility.yul\":7602:7620   */\n      tag_241\n      tag_122\n      jump\t// in\n    tag_241:\n        /* \"#utility.yul\":7483:7622   */\n    tag_240:\n        /* \"#utility.yul\":7267:7629   */\n      pop\n        /* \"#utility.yul\":7219:7629   */\n      swap3\n      swap2\n      pop\n      pop\n      jump\t// out\n        /* \"#utility.yul\":7635:7826   */\n    tag_39:\n        /* \"#utility.yul\":7675:7678   */\n      0x00\n        /* \"#utility.yul\":7694:7714   */\n      tag_243\n        /* \"#utility.yul\":7712:7713   */\n      dup3\n        /* \"#utility.yul\":7694:7714   */\n      tag_109\n      jump\t// in\n    tag_243:\n        /* \"#utility.yul\":7689:7714   */\n      swap2\n      pop\n        /* \"#utility.yul\":7728:7748   */\n      tag_244\n        /* \"#utility.yul\":7746:7747   */\n      dup4\n        /* \"#utility.yul\":7728:7748   */\n      tag_109\n      jump\t// in\n    tag_244:\n        /* \"#utility.yul\":7723:7748   */\n      swap3\n      pop\n        /* \"#utility.yul\":7771:7772   */\n      dup3\n        /* \"#utility.yul\":7768:7769   */\n      dup3\n        /* \"#utility.yul\":7764:7773   */\n      add\n        /* \"#utility.yul\":7757:7773   */\n      swap1\n      pop\n        /* \"#utility.yul\":7792:7795   */\n      dup1\n        /* \"#utility.yul\":7789:7790   */\n      dup3\n        /* \"#utility.yul\":7786:7796   */\n      gt\n        /* \"#utility.yul\":7783:7819   */\n      iszero\n      tag_245\n      jumpi\n        /* \"#utility.yul\":7799:7817   */\n      tag_246\n      tag_122\n      jump\t// in\n    tag_246:\n        /* \"#utility.yul\":7783:7819   */\n    tag_245:\n        /* \"#utility.yul\":7635:7826   */\n      swap3\n      swap2\n      pop\n      pop\n      jump\t// out\n        /* \"#utility.yul\":7832:8012   */\n    tag_123:\n        /* \"#utility.yul\":7880:7957   */\n      0x4e487b7100000000000000000000000000000000000000000000000000000000\n        /* \"#utility.yul\":7877:7878   */\n      0x00\n        /* \"#utility.yul\":7870:7958   */\n      mstore\n        /* \"#utility.yul\":7977:7981   */\n      0x12\n        /* \"#utility.yul\":7974:7975   */\n      0x04\n        /* \"#utility.yul\":7967:7982   */\n      mstore\n        /* \"#utility.yul\":8001:8005   */\n      0x24\n        /* \"#utility.yul\":7998:7999   */\n      0x00\n        /* \"#utility.yul\":7991:8006   */\n      revert\n        /* \"#utility.yul\":8018:8203   */\n    tag_41:\n        /* \"#utility.yul\":8058:8059   */\n      0x00\n        /* \"#utility.yul\":8075:8095   */\n      tag_249\n        /* \"#utility.yul\":8093:8094   */\n      dup3\n        /* \"#utility.yul\":8075:8095   */\n      tag_109\n      jump\t// in\n    tag_249:\n        /* \"#utility.yul\":8070:8095   */\n      swap2\n      pop\n        /* \"#utility.yul\":8109:8129   */\n      tag_250\n        /* \"#utility.yul\":8127:8128   */\n      dup4\n        /* \"#utility.yul\":8109:8129   */\n      tag_109\n      jump\t// in\n    tag_250:\n        /* \"#utility.yul\":8104:8129   */\n      swap3\n      pop\n        /* \"#utility.yul\":8148:8149   */\n      dup3\n        /* \"#utility.yul\":8138:8173   */\n      tag_251\n      jumpi\n        /* \"#utility.yul\":8153:8171   */\n      tag_252\n      tag_123\n      jump\t// in\n    tag_252:\n        /* \"#utility.yul\":8138:8173   */\n    tag_251:\n        /* \"#utility.yul\":8195:8196   */\n      dup3\n        /* \"#utility.yul\":8192:8193   */\n      dup3\n        /* \"#utility.yul\":8188:8197   */\n      div\n        /* \"#utility.yul\":8183:8197   */\n      swap1\n      pop\n        /* \"#utility.yul\":8018:8203   */\n      swap3\n      swap2\n      pop\n      pop\n      jump\t// out\n        /* \"#utility.yul\":8209:8403   */\n    tag_45:\n        /* \"#utility.yul\":8249:8253   */\n      0x00\n        /* \"#utility.yul\":8269:8289   */\n      tag_254\n        /* \"#utility.yul\":8287:8288   */\n      dup3\n        /* \"#utility.yul\":8269:8289   */\n      tag_109\n      jump\t// in\n    tag_254:\n        /* \"#utility.yul\":8264:8289   */\n      swap2\n      pop\n        /* \"#utility.yul\":8303:8323   */\n      tag_255\n        /* \"#utility.yul\":8321:8322   */\n      dup4\n        /* \"#utility.yul\":8303:8323   */\n      tag_109\n      jump\t// in\n    tag_255:\n        /* \"#utility.yul\":8298:8323   */\n      swap3\n      pop\n        /* \"#utility.yul\":8347:8348   */\n      dup3\n        /* \"#utility.yul\":8344:8345   */\n      dup3\n        /* \"#utility.yul\":8340:8349   */\n      sub\n        /* \"#utility.yul\":8332:8349   */\n      swap1\n      pop\n        /* \"#utility.yul\":8371:8372   */\n      dup2\n        /* \"#utility.yul\":8365:8369   */\n      dup2\n        /* \"#utility.yul\":8362:8373   */\n      gt\n        /* \"#utility.yul\":8359:8396   */\n      iszero\n      tag_256\n      jumpi\n        /* \"#utility.yul\":8376:8394   */\n      tag_257\n      tag_122\n      jump\t// in\n    tag_257:\n        /* \"#utility.yul\":8359:8396   */\n    tag_256:\n        /* \"#utility.yul\":8209:8403   */\n      swap3\n      swap2\n      pop\n      pop\n      jump\t// out\n        /* \"#utility.yul\":8409:8552   */\n    tag_124:\n        /* \"#utility.yul\":8466:8471   */\n      0x00\n        /* \"#utility.yul\":8497:8503   */\n      dup2\n        /* \"#utility.yul\":8491:8504   */\n      mload\n        /* \"#utility.yul\":8482:8504   */\n      swap1\n      pop\n        /* \"#utility.yul\":8513:8546   */\n      tag_259\n        /* \"#utility.yul\":8540:8545   */\n      dup2\n        /* \"#utility.yul\":8513:8546   */\n      tag_111\n      jump\t// in\n    tag_259:\n        /* \"#utility.yul\":8409:8552   */\n      swap3\n      swap2\n      pop\n      pop\n      jump\t// out\n        /* \"#utility.yul\":8558:8909   */\n    tag_57:\n        /* \"#utility.yul\":8628:8634   */\n      0x00\n        /* \"#utility.yul\":8677:8679   */\n      0x20\n        /* \"#utility.yul\":8665:8674   */\n      dup3\n        /* \"#utility.yul\":8656:8663   */\n      dup5\n        /* \"#utility.yul\":8652:8675   */\n      sub\n        /* \"#utility.yul\":8648:8680   */\n      slt\n        /* \"#utility.yul\":8645:8764   */\n      iszero\n      tag_261\n      jumpi\n        /* \"#utility.yul\":8683:8762   */\n      tag_262\n      tag_105\n      jump\t// in\n    tag_262:\n        /* \"#utility.yul\":8645:8764   */\n    tag_261:\n        /* \"#utility.yul\":8803:8804   */\n      0x00\n        /* \"#utility.yul\":8828:8892   */\n      tag_263\n        /* \"#utility.yul\":8884:8891   */\n      dup5\n        /* \"#utility.yul\":8875:8881   */\n      dup3\n        /* \"#utility.yul\":8864:8873   */\n      dup6\n        /* \"#utility.yul\":8860:8882   */\n      add\n        /* \"#utility.yul\":8828:8892   */\n      tag_124\n      jump\t// in\n    tag_263:\n        /* \"#utility.yul\":8818:8892   */\n      swap2\n      pop\n        /* \"#utility.yul\":8774:8902   */\n      pop\n        /* \"#utility.yul\":8558:8909   */\n      swap3\n      swap2\n      pop\n      pop\n      jump\t// out\n        /* \"#utility.yul\":8915:9085   */\n    tag_125:\n        /* \"#utility.yul\":9055:9077   */\n      0x496e73756666696369656e742042616c616e6365000000000000000000000000\n        /* \"#utility.yul\":9051:9052   */\n      0x00\n        /* \"#utility.yul\":9043:9049   */\n      dup3\n        /* \"#utility.yul\":9039:9053   */\n      add\n        /* \"#utility.yul\":9032:9078   */\n      mstore\n        /* \"#utility.yul\":8915:9085   */\n      pop\n      jump\t// out\n        /* \"#utility.yul\":9091:9457   */\n    tag_126:\n        /* \"#utility.yul\":9233:9236   */\n      0x00\n        /* \"#utility.yul\":9254:9321   */\n      tag_266\n        /* \"#utility.yul\":9318:9320   */\n      0x14\n        /* \"#utility.yul\":9313:9316   */\n      dup4\n        /* \"#utility.yul\":9254:9321   */\n      tag_100\n      jump\t// in\n    tag_266:\n        /* \"#utility.yul\":9247:9321   */\n      swap2\n      pop\n        /* \"#utility.yul\":9330:9423   */\n      tag_267\n        /* \"#utility.yul\":9419:9422   */\n      dup3\n        /* \"#utility.yul\":9330:9423   */\n      tag_125\n      jump\t// in\n    tag_267:\n        /* \"#utility.yul\":9448:9450   */\n      0x20\n        /* \"#utility.yul\":9443:9446   */\n      dup3\n        /* \"#utility.yul\":9439:9451   */\n      add\n        /* \"#utility.yul\":9432:9451   */\n      swap1\n      pop\n        /* \"#utility.yul\":9091:9457   */\n      swap2\n      swap1\n      pop\n      jump\t// out\n        /* \"#utility.yul\":9463:9882   */\n    tag_60:\n        /* \"#utility.yul\":9629:9633   */\n      0x00\n        /* \"#utility.yul\":9667:9669   */\n      0x20\n        /* \"#utility.yul\":9656:9665   */\n      dup3\n        /* \"#utility.yul\":9652:9670   */\n      add\n        /* \"#utility.yul\":9644:9670   */\n      swap1\n      pop\n        /* \"#utility.yul\":9716:9725   */\n      dup2\n        /* \"#utility.yul\":9710:9714   */\n      dup2\n        /* \"#utility.yul\":9706:9726   */\n      sub\n        /* \"#utility.yul\":9702:9703   */\n      0x00\n        /* \"#utility.yul\":9691:9700   */\n      dup4\n        /* \"#utility.yul\":9687:9704   */\n      add\n        /* \"#utility.yul\":9680:9727   */\n      mstore\n        /* \"#utility.yul\":9744:9875   */\n      tag_269\n        /* \"#utility.yul\":9870:9874   */\n      dup2\n        /* \"#utility.yul\":9744:9875   */\n      tag_126\n      jump\t// in\n    tag_269:\n        /* \"#utility.yul\":9736:9875   */\n      swap1\n      pop\n        /* \"#utility.yul\":9463:9882   */\n      swap2\n      swap1\n      pop\n      jump\t// out\n        /* \"#utility.yul\":9888:10036   */\n    tag_127:\n        /* \"#utility.yul\":9990:10001   */\n      0x00\n        /* \"#utility.yul\":10027:10030   */\n      dup2\n        /* \"#utility.yul\":10012:10030   */\n      swap1\n      pop\n        /* \"#utility.yul\":9888:10036   */\n      swap3\n      swap2\n      pop\n      pop\n      jump\t// out\n        /* \"#utility.yul\":10042:10197   */\n    tag_128:\n        /* \"#utility.yul\":10182:10189   */\n      0x6669786564000000000000000000000000000000000000000000000000000000\n        /* \"#utility.yul\":10178:10179   */\n      0x00\n        /* \"#utility.yul\":10170:10176   */\n      dup3\n        /* \"#utility.yul\":10166:10180   */\n      add\n        /* \"#utility.yul\":10159:10190   */\n      mstore\n        /* \"#utility.yul\":10042:10197   */\n      pop\n      jump\t// out\n        /* \"#utility.yul\":10203:10603   */\n    tag_129:\n        /* \"#utility.yul\":10363:10366   */\n      0x00\n        /* \"#utility.yul\":10384:10468   */\n      tag_273\n        /* \"#utility.yul\":10466:10467   */\n      0x05\n        /* \"#utility.yul\":10461:10464   */\n      dup4\n        /* \"#utility.yul\":10384:10468   */\n      tag_127\n      jump\t// in\n    tag_273:\n        /* \"#utility.yul\":10377:10468   */\n      swap2\n      pop\n        /* \"#utility.yul\":10477:10570   */\n      tag_274\n        /* \"#utility.yul\":10566:10569   */\n      dup3\n        /* \"#utility.yul\":10477:10570   */\n      tag_128\n      jump\t// in\n    tag_274:\n        /* \"#utility.yul\":10595:10596   */\n      0x05\n        /* \"#utility.yul\":10590:10593   */\n      dup3\n        /* \"#utility.yul\":10586:10597   */\n      add\n        /* \"#utility.yul\":10579:10597   */\n      swap1\n      pop\n        /* \"#utility.yul\":10203:10603   */\n      swap2\n      swap1\n      pop\n      jump\t// out\n        /* \"#utility.yul\":10609:10990   */\n    tag_62:\n        /* \"#utility.yul\":10794:10797   */\n      0x00\n        /* \"#utility.yul\":10816:10964   */\n      tag_276\n        /* \"#utility.yul\":10960:10963   */\n      dup3\n        /* \"#utility.yul\":10816:10964   */\n      tag_129\n      jump\t// in\n    tag_276:\n        /* \"#utility.yul\":10809:10964   */\n      swap2\n      pop\n        /* \"#utility.yul\":10981:10984   */\n      dup2\n        /* \"#utility.yul\":10974:10984   */\n      swap1\n      pop\n        /* \"#utility.yul\":10609:10990   */\n      swap2\n      swap1\n      pop\n      jump\t// out\n        /* \"#utility.yul\":10996:11386   */\n    tag_130:\n        /* \"#utility.yul\":11102:11105   */\n      0x00\n        /* \"#utility.yul\":11130:11169   */\n      tag_278\n        /* \"#utility.yul\":11163:11168   */\n      dup3\n        /* \"#utility.yul\":11130:11169   */\n      tag_99\n      jump\t// in\n    tag_278:\n        /* \"#utility.yul\":11185:11274   */\n      tag_279\n        /* \"#utility.yul\":11267:11273   */\n      dup2\n        /* \"#utility.yul\":11262:11265   */\n      dup6\n        /* \"#utility.yul\":11185:11274   */\n      tag_127\n      jump\t// in\n    tag_279:\n        /* \"#utility.yul\":11178:11274   */\n      swap4\n      pop\n        /* \"#utility.yul\":11283:11348   */\n      tag_280\n        /* \"#utility.yul\":11341:11347   */\n      dup2\n        /* \"#utility.yul\":11336:11339   */\n      dup6\n        /* \"#utility.yul\":11329:11333   */\n      0x20\n        /* \"#utility.yul\":11322:11327   */\n      dup7\n        /* \"#utility.yul\":11318:11334   */\n      add\n        /* \"#utility.yul\":11283:11348   */\n      tag_101\n      jump\t// in\n    tag_280:\n        /* \"#utility.yul\":11373:11379   */\n      dup1\n        /* \"#utility.yul\":11368:11371   */\n      dup5\n        /* \"#utility.yul\":11364:11380   */\n      add\n        /* \"#utility.yul\":11357:11380   */\n      swap2\n      pop\n        /* \"#utility.yul\":11106:11386   */\n      pop\n        /* \"#utility.yul\":10996:11386   */\n      swap3\n      swap2\n      pop\n      pop\n      jump\t// out\n        /* \"#utility.yul\":11392:11667   */\n    tag_64:\n        /* \"#utility.yul\":11524:11527   */\n      0x00\n        /* \"#utility.yul\":11546:11641   */\n      tag_282\n        /* \"#utility.yul\":11637:11640   */\n      dup3\n        /* \"#utility.yul\":11628:11634   */\n      dup5\n        /* \"#utility.yul\":11546:11641   */\n      tag_130\n      jump\t// in\n    tag_282:\n        /* \"#utility.yul\":11539:11641   */\n      swap2\n      pop\n        /* \"#utility.yul\":11658:11661   */\n      dup2\n        /* \"#utility.yul\":11651:11661   */\n      swap1\n      pop\n        /* \"#utility.yul\":11392:11667   */\n      swap3\n      swap2\n      pop\n      pop\n      jump\t// out\n        /* \"#utility.yul\":11673:11909   */\n    tag_131:\n        /* \"#utility.yul\":11813:11847   */\n      0x205374616b652063616e206e6f742062652030202c20456e74657220736f6d65\n        /* \"#utility.yul\":11809:11810   */\n      0x00\n        /* \"#utility.yul\":11801:11807   */\n      dup3\n        /* \"#utility.yul\":11797:11811   */\n      add\n        /* \"#utility.yul\":11790:11848   */\n      mstore\n        /* \"#utility.yul\":11882:11901   */\n      0x20616d6f756e74206f6620746f6b656e73000000000000000000000000000000\n        /* \"#utility.yul\":11877:11879   */\n      0x20\n        /* \"#utility.yul\":11869:11875   */\n      dup3\n        /* \"#utility.yul\":11865:11880   */\n      add\n        /* \"#utility.yul\":11858:11902   */\n      mstore\n        /* \"#utility.yul\":11673:11909   */\n      pop\n      jump\t// out\n        /* \"#utility.yul\":11915:12281   */\n    tag_132:\n        /* \"#utility.yul\":12057:12060   */\n      0x00\n        /* \"#utility.yul\":12078:12145   */\n      tag_285\n        /* \"#utility.yul\":12142:12144   */\n      0x31\n        /* \"#utility.yul\":12137:12140   */\n      dup4\n        /* \"#utility.yul\":12078:12145   */\n      tag_100\n      jump\t// in\n    tag_285:\n        /* \"#utility.yul\":12071:12145   */\n      swap2\n      pop\n        /* \"#utility.yul\":12154:12247   */\n      tag_286\n        /* \"#utility.yul\":12243:12246   */\n      dup3\n        /* \"#utility.yul\":12154:12247   */\n      tag_131\n      jump\t// in\n    tag_286:\n        /* \"#utility.yul\":12272:12274   */\n      0x40\n        /* \"#utility.yul\":12267:12270   */\n      dup3\n        /* \"#utility.yul\":12263:12275   */\n      add\n        /* \"#utility.yul\":12256:12275   */\n      swap1\n      pop\n        /* \"#utility.yul\":11915:12281   */\n      swap2\n      swap1\n      pop\n      jump\t// out\n        /* \"#utility.yul\":12287:12706   */\n    tag_68:\n        /* \"#utility.yul\":12453:12457   */\n      0x00\n        /* \"#utility.yul\":12491:12493   */\n      0x20\n        /* \"#utility.yul\":12480:12489   */\n      dup3\n        /* \"#utility.yul\":12476:12494   */\n      add\n        /* \"#utility.yul\":12468:12494   */\n      swap1\n      pop\n        /* \"#utility.yul\":12540:12549   */\n      dup2\n        /* \"#utility.yul\":12534:12538   */\n      dup2\n        /* \"#utility.yul\":12530:12550   */\n      sub\n        /* \"#utility.yul\":12526:12527   */\n      0x00\n        /* \"#utility.yul\":12515:12524   */\n      dup4\n        /* \"#utility.yul\":12511:12528   */\n      add\n        /* \"#utility.yul\":12504:12551   */\n      mstore\n        /* \"#utility.yul\":12568:12699   */\n      tag_288\n        /* \"#utility.yul\":12694:12698   */\n      dup2\n        /* \"#utility.yul\":12568:12699   */\n      tag_132\n      jump\t// in\n    tag_288:\n        /* \"#utility.yul\":12560:12699   */\n      swap1\n      pop\n        /* \"#utility.yul\":12287:12706   */\n      swap2\n      swap1\n      pop\n      jump\t// out\n        /* \"#utility.yul\":12712:12892   */\n    tag_133:\n        /* \"#utility.yul\":12760:12837   */\n      0x4e487b7100000000000000000000000000000000000000000000000000000000\n        /* \"#utility.yul\":12757:12758   */\n      0x00\n        /* \"#utility.yul\":12750:12838   */\n      mstore\n        /* \"#utility.yul\":12857:12861   */\n      0x22\n        /* \"#utility.yul\":12854:12855   */\n      0x04\n        /* \"#utility.yul\":12847:12862   */\n      mstore\n        /* \"#utility.yul\":12881:12885   */\n      0x24\n        /* \"#utility.yul\":12878:12879   */\n      0x00\n        /* \"#utility.yul\":12871:12886   */\n      revert\n        /* \"#utility.yul\":12898:13218   */\n    tag_91:\n        /* \"#utility.yul\":12942:12948   */\n      0x00\n        /* \"#utility.yul\":12979:12980   */\n      0x02\n        /* \"#utility.yul\":12973:12977   */\n      dup3\n        /* \"#utility.yul\":12969:12981   */\n      div\n        /* \"#utility.yul\":12959:12981   */\n      swap1\n      pop\n        /* \"#utility.yul\":13026:13027   */\n      0x01\n        /* \"#utility.yul\":13020:13024   */\n      dup3\n        /* \"#utility.yul\":13016:13028   */\n      and\n        /* \"#utility.yul\":13047:13065   */\n      dup1\n        /* \"#utility.yul\":13037:13118   */\n      tag_291\n      jumpi\n        /* \"#utility.yul\":13103:13107   */\n      0x7f\n        /* \"#utility.yul\":13095:13101   */\n      dup3\n        /* \"#utility.yul\":13091:13108   */\n      and\n        /* \"#utility.yul\":13081:13108   */\n      swap2\n      pop\n        /* \"#utility.yul\":13037:13118   */\n    tag_291:\n        /* \"#utility.yul\":13165:13167   */\n      0x20\n        /* \"#utility.yul\":13157:13163   */\n      dup3\n        /* \"#utility.yul\":13154:13168   */\n      lt\n        /* \"#utility.yul\":13134:13152   */\n      dup2\n        /* \"#utility.yul\":13131:13169   */\n      sub\n        /* \"#utility.yul\":13128:13212   */\n      tag_292\n      jumpi\n        /* \"#utility.yul\":13184:13202   */\n      tag_293\n      tag_133\n      jump\t// in\n    tag_293:\n        /* \"#utility.yul\":13128:13212   */\n    tag_292:\n        /* \"#utility.yul\":12949:13218   */\n      pop\n        /* \"#utility.yul\":12898:13218   */\n      swap2\n      swap1\n      pop\n      jump\t// out\n        /* \"#utility.yul\":13224:13365   */\n    tag_134:\n        /* \"#utility.yul\":13273:13277   */\n      0x00\n        /* \"#utility.yul\":13296:13299   */\n      dup2\n        /* \"#utility.yul\":13288:13299   */\n      swap1\n      pop\n        /* \"#utility.yul\":13319:13322   */\n      dup2\n        /* \"#utility.yul\":13316:13317   */\n      0x00\n        /* \"#utility.yul\":13309:13323   */\n      mstore\n        /* \"#utility.yul\":13353:13357   */\n      0x20\n        /* \"#utility.yul\":13350:13351   */\n      0x00\n        /* \"#utility.yul\":13340:13358   */\n      keccak256\n        /* \"#utility.yul\":13332:13358   */\n      swap1\n      pop\n        /* \"#utility.yul\":13224:13365   */\n      swap2\n      swap1\n      pop\n      jump\t// out\n        /* \"#utility.yul\":13371:13464   */\n    tag_135:\n        /* \"#utility.yul\":13408:13414   */\n      0x00\n        /* \"#utility.yul\":13455:13457   */\n      0x20\n        /* \"#utility.yul\":13450:13452   */\n      0x1f\n        /* \"#utility.yul\":13443:13448   */\n      dup4\n        /* \"#utility.yul\":13439:13453   */\n      add\n        /* \"#utility.yul\":13435:13458   */\n      div\n        /* \"#utility.yul\":13425:13458   */\n      swap1\n      pop\n        /* \"#utility.yul\":13371:13464   */\n      swap2\n      swap1\n      pop\n      jump\t// out\n        /* \"#utility.yul\":13470:13577   */\n    tag_136:\n        /* \"#utility.yul\":13514:13522   */\n      0x00\n        /* \"#utility.yul\":13564:13569   */\n      dup3\n        /* \"#utility.yul\":13558:13562   */\n      dup3\n        /* \"#utility.yul\":13554:13570   */\n      shl\n        /* \"#utility.yul\":13533:13570   */\n      swap1\n      pop\n        /* \"#utility.yul\":13470:13577   */\n      swap3\n      swap2\n      pop\n      pop\n      jump\t// out\n        /* \"#utility.yul\":13583:13976   */\n    tag_137:\n        /* \"#utility.yul\":13652:13658   */\n      0x00\n        /* \"#utility.yul\":13702:13703   */\n      0x08\n        /* \"#utility.yul\":13690:13700   */\n      dup4\n        /* \"#utility.yul\":13686:13704   */\n      mul\n        /* \"#utility.yul\":13725:13822   */\n      tag_298\n        /* \"#utility.yul\":13755:13821   */\n      0xffffffffffffffffffffffffffffffffffffffffffffffffffffffffffffffff\n        /* \"#utility.yul\":13744:13753   */\n      dup3\n        /* \"#utility.yul\":13725:13822   */\n      tag_136\n      jump\t// in\n    tag_298:\n        /* \"#utility.yul\":13843:13882   */\n      tag_299\n        /* \"#utility.yul\":13873:13881   */\n      dup7\n        /* \"#utility.yul\":13862:13871   */\n      dup4\n        /* \"#utility.yul\":13843:13882   */\n      tag_136\n      jump\t// in\n    tag_299:\n        /* \"#utility.yul\":13831:13882   */\n      swap6\n      pop\n        /* \"#utility.yul\":13915:13919   */\n      dup1\n        /* \"#utility.yul\":13911:13920   */\n      not\n        /* \"#utility.yul\":13904:13909   */\n      dup5\n        /* \"#utility.yul\":13900:13921   */\n      and\n        /* \"#utility.yul\":13891:13921   */\n      swap4\n      pop\n        /* \"#utility.yul\":13964:13968   */\n      dup1\n        /* \"#utility.yul\":13954:13962   */\n      dup7\n        /* \"#utility.yul\":13950:13969   */\n      and\n        /* \"#utility.yul\":13943:13948   */\n      dup5\n        /* \"#utility.yul\":13940:13970   */\n      or\n        /* \"#utility.yul\":13930:13970   */\n      swap3\n      pop\n        /* \"#utility.yul\":13659:13976   */\n      pop\n      pop\n        /* \"#utility.yul\":13583:13976   */\n      swap4\n      swap3\n      pop\n      pop\n      pop\n      jump\t// out\n        /* \"#utility.yul\":13982:14042   */\n    tag_138:\n        /* \"#utility.yul\":14010:14013   */\n      0x00\n        /* \"#utility.yul\":14031:14036   */\n      dup2\n        /* \"#utility.yul\":14024:14036   */\n      swap1\n      pop\n        /* \"#utility.yul\":13982:14042   */\n      swap2\n      swap1\n      pop\n      jump\t// out\n        /* \"#utility.yul\":14048:14190   */\n    tag_139:\n        /* \"#utility.yul\":14098:14107   */\n      0x00\n        /* \"#utility.yul\":14131:14184   */\n      tag_302\n        /* \"#utility.yul\":14149:14183   */\n      tag_303\n        /* \"#utility.yul\":14158:14182   */\n      tag_304\n        /* \"#utility.yul\":14176:14181   */\n      dup5\n        /* \"#utility.yul\":14158:14182   */\n      tag_109\n      jump\t// in\n    tag_304:\n        /* \"#utility.yul\":14149:14183   */\n      tag_138\n      jump\t// in\n    tag_303:\n        /* \"#utility.yul\":14131:14184   */\n      tag_109\n      jump\t// in\n    tag_302:\n        /* \"#utility.yul\":14118:14184   */\n      swap1\n      pop\n        /* \"#utility.yul\":14048:14190   */\n      swap2\n      swap1\n      pop\n      jump\t// out\n        /* \"#utility.yul\":14196:14271   */\n    tag_140:\n        /* \"#utility.yul\":14239:14242   */\n      0x00\n        /* \"#utility.yul\":14260:14265   */\n      dup2\n        /* \"#utility.yul\":14253:14265   */\n      swap1\n      pop\n        /* \"#utility.yul\":14196:14271   */\n      swap2\n      swap1\n      pop\n      jump\t// out\n        /* \"#utility.yul\":14277:14546   */\n    tag_141:\n        /* \"#utility.yul\":14387:14426   */\n      tag_307\n        /* \"#utility.yul\":14418:14425   */\n      dup4\n        /* \"#utility.yul\":14387:14426   */\n      tag_139\n      jump\t// in\n    tag_307:\n        /* \"#utility.yul\":14448:14539   */\n      tag_308\n        /* \"#utility.yul\":14497:14538   */\n      tag_309\n        /* \"#utility.yul\":14521:14537   */\n      dup3\n        /* \"#utility.yul\":14497:14538   */\n      tag_140\n      jump\t// in\n    tag_309:\n        /* \"#utility.yul\":14489:14495   */\n      dup5\n        /* \"#utility.yul\":14482:14486   */\n      dup5\n        /* \"#utility.yul\":14476:14487   */\n      sload\n        /* \"#utility.yul\":14448:14539   */\n      tag_137\n      jump\t// in\n    tag_308:\n        /* \"#utility.yul\":14442:14446   */\n      dup3\n        /* \"#utility.yul\":14435:14540   */\n      sstore\n        /* \"#utility.yul\":14353:14546   */\n      pop\n        /* \"#utility.yul\":14277:14546   */\n      pop\n      pop\n      pop\n      jump\t// out\n        /* \"#utility.yul\":14552:14625   */\n    tag_142:\n        /* \"#utility.yul\":14597:14600   */\n      0x00\n        /* \"#utility.yul\":14552:14625   */\n      swap1\n      jump\t// out\n        /* \"#utility.yul\":14631:14820   */\n    tag_143:\n        /* \"#utility.yul\":14708:14740   */\n      tag_312\n      tag_142\n      jump\t// in\n    tag_312:\n        /* \"#utility.yul\":14749:14814   */\n      tag_313\n        /* \"#utility.yul\":14807:14813   */\n      dup2\n        /* \"#utility.yul\":14799:14805   */\n      dup5\n        /* \"#utility.yul\":14793:14797   */\n      dup5\n        /* \"#utility.yul\":14749:14814   */\n      tag_141\n      jump\t// in\n    tag_313:\n        /* \"#utility.yul\":14684:14820   */\n      pop\n        /* \"#utility.yul\":14631:14820   */\n      pop\n      pop\n      jump\t// out\n        /* \"#utility.yul\":14826:15012   */\n    tag_144:\n        /* \"#utility.yul\":14886:15006   */\n    tag_315:\n        /* \"#utility.yul\":14903:14906   */\n      dup2\n        /* \"#utility.yul\":14896:14901   */\n      dup2\n        /* \"#utility.yul\":14893:14907   */\n      lt\n        /* \"#utility.yul\":14886:15006   */\n      iszero\n      tag_317\n      jumpi\n        /* \"#utility.yul\":14957:14996   */\n      tag_318\n        /* \"#utility.yul\":14994:14995   */\n      0x00\n        /* \"#utility.yul\":14987:14992   */\n      dup3\n        /* \"#utility.yul\":14957:14996   */\n      tag_143\n      jump\t// in\n    tag_318:\n        /* \"#utility.yul\":14930:14931   */\n      0x01\n        /* \"#utility.yul\":14923:14928   */\n      dup2\n        /* \"#utility.yul\":14919:14932   */\n      add\n        /* \"#utility.yul\":14910:14932   */\n      swap1\n      pop\n        /* \"#utility.yul\":14886:15006   */\n      jump(tag_315)\n    tag_317:\n        /* \"#utility.yul\":14826:15012   */\n      pop\n      pop\n      jump\t// out\n        /* \"#utility.yul\":15018:15561   */\n    tag_145:\n        /* \"#utility.yul\":15119:15121   */\n      0x1f\n        /* \"#utility.yul\":15114:15117   */\n      dup3\n        /* \"#utility.yul\":15111:15122   */\n      gt\n        /* \"#utility.yul\":15108:15554   */\n      iszero\n      tag_320\n      jumpi\n        /* \"#utility.yul\":15153:15191   */\n      tag_321\n        /* \"#utility.yul\":15185:15190   */\n      dup2\n        /* \"#utility.yul\":15153:15191   */\n      tag_134\n      jump\t// in\n    tag_321:\n        /* \"#utility.yul\":15237:15266   */\n      tag_322\n        /* \"#utility.yul\":15255:15265   */\n      dup5\n        /* \"#utility.yul\":15237:15266   */\n      tag_135\n      jump\t// in\n    tag_322:\n        /* \"#utility.yul\":15227:15235   */\n      dup2\n        /* \"#utility.yul\":15223:15267   */\n      add\n        /* \"#utility.yul\":15420:15422   */\n      0x20\n        /* \"#utility.yul\":15408:15418   */\n      dup6\n        /* \"#utility.yul\":15405:15423   */\n      lt\n        /* \"#utility.yul\":15402:15451   */\n      iszero\n      tag_323\n      jumpi\n        /* \"#utility.yul\":15441:15449   */\n      dup2\n        /* \"#utility.yul\":15426:15449   */\n      swap1\n      pop\n        /* \"#utility.yul\":15402:15451   */\n    tag_323:\n        /* \"#utility.yul\":15464:15544   */\n      tag_324\n        /* \"#utility.yul\":15520:15542   */\n      tag_325\n        /* \"#utility.yul\":15538:15541   */\n      dup6\n        /* \"#utility.yul\":15520:15542   */\n      tag_135\n      jump\t// in\n    tag_325:\n        /* \"#utility.yul\":15510:15518   */\n      dup4\n        /* \"#utility.yul\":15506:15543   */\n      add\n        /* \"#utility.yul\":15493:15504   */\n      dup3\n        /* \"#utility.yul\":15464:15544   */\n      tag_144\n      jump\t// in\n    tag_324:\n        /* \"#utility.yul\":15123:15554   */\n      pop\n      pop\n        /* \"#utility.yul\":15108:15554   */\n    tag_320:\n        /* \"#utility.yul\":15018:15561   */\n      pop\n      pop\n      pop\n      jump\t// out\n        /* \"#utility.yul\":15567:15684   */\n    tag_146:\n        /* \"#utility.yul\":15621:15629   */\n      0x00\n        /* \"#utility.yul\":15671:15676   */\n      dup3\n        /* \"#utility.yul\":15665:15669   */\n      dup3\n        /* \"#utility.yul\":15661:15677   */\n      shr\n        /* \"#utility.yul\":15640:15677   */\n      swap1\n      pop\n        /* \"#utility.yul\":15567:15684   */\n      swap3\n      swap2\n      pop\n      pop\n      jump\t// out\n        /* \"#utility.yul\":15690:15859   */\n    tag_147:\n        /* \"#utility.yul\":15734:15740   */\n      0x00\n        /* \"#utility.yul\":15767:15818   */\n      tag_328\n        /* \"#utility.yul\":15815:15816   */\n      0x00\n        /* \"#utility.yul\":15811:15817   */\n      not\n        /* \"#utility.yul\":15803:15808   */\n      dup5\n        /* \"#utility.yul\":15800:15801   */\n      0x08\n        /* \"#utility.yul\":15796:15809   */\n      mul\n        /* \"#utility.yul\":15767:15818   */\n      tag_146\n      jump\t// in\n    tag_328:\n        /* \"#utility.yul\":15763:15819   */\n      not\n        /* \"#utility.yul\":15848:15852   */\n      dup1\n        /* \"#utility.yul\":15842:15846   */\n      dup4\n        /* \"#utility.yul\":15838:15853   */\n      and\n        /* \"#utility.yul\":15828:15853   */\n      swap2\n      pop\n        /* \"#utility.yul\":15741:15859   */\n      pop\n        /* \"#utility.yul\":15690:15859   */\n      swap3\n      swap2\n      pop\n      pop\n      jump\t// out\n        /* \"#utility.yul\":15864:16159   */\n    tag_148:\n        /* \"#utility.yul\":15940:15944   */\n      0x00\n        /* \"#utility.yul\":16086:16115   */\n      tag_330\n        /* \"#utility.yul\":16111:16114   */\n      dup4\n        /* \"#utility.yul\":16105:16109   */\n      dup4\n        /* \"#utility.yul\":16086:16115   */\n      tag_147\n      jump\t// in\n    tag_330:\n        /* \"#utility.yul\":16078:16115   */\n      swap2\n      pop\n        /* \"#utility.yul\":16148:16151   */\n      dup3\n        /* \"#utility.yul\":16145:16146   */\n      0x02\n        /* \"#utility.yul\":16141:16152   */\n      mul\n        /* \"#utility.yul\":16135:16139   */\n      dup3\n        /* \"#utility.yul\":16132:16153   */\n      or\n        /* \"#utility.yul\":16124:16153   */\n      swap1\n      pop\n        /* \"#utility.yul\":15864:16159   */\n      swap3\n      swap2\n      pop\n      pop\n      jump\t// out\n        /* \"#utility.yul\":16164:17559   */\n    tag_70:\n        /* \"#utility.yul\":16281:16318   */\n      tag_332\n        /* \"#utility.yul\":16314:16317   */\n      dup3\n        /* \"#utility.yul\":16281:16318   */\n      tag_99\n      jump\t// in\n    tag_332:\n        /* \"#utility.yul\":16383:16401   */\n      0xffffffffffffffff\n        /* \"#utility.yul\":16375:16381   */\n      dup2\n        /* \"#utility.yul\":16372:16402   */\n      gt\n        /* \"#utility.yul\":16369:16425   */\n      iszero\n      tag_333\n      jumpi\n        /* \"#utility.yul\":16405:16423   */\n      tag_334\n      tag_115\n      jump\t// in\n    tag_334:\n        /* \"#utility.yul\":16369:16425   */\n    tag_333:\n        /* \"#utility.yul\":16449:16487   */\n      tag_335\n        /* \"#utility.yul\":16481:16485   */\n      dup3\n        /* \"#utility.yul\":16475:16486   */\n      sload\n        /* \"#utility.yul\":16449:16487   */\n      tag_91\n      jump\t// in\n    tag_335:\n        /* \"#utility.yul\":16534:16601   */\n      tag_336\n        /* \"#utility.yul\":16594:16600   */\n      dup3\n        /* \"#utility.yul\":16586:16592   */\n      dup3\n        /* \"#utility.yul\":16580:16584   */\n      dup6\n        /* \"#utility.yul\":16534:16601   */\n      tag_145\n      jump\t// in\n    tag_336:\n        /* \"#utility.yul\":16628:16629   */\n      0x00\n        /* \"#utility.yul\":16652:16656   */\n      0x20\n        /* \"#utility.yul\":16639:16656   */\n      swap1\n      pop\n        /* \"#utility.yul\":16684:16686   */\n      0x1f\n        /* \"#utility.yul\":16676:16682   */\n      dup4\n        /* \"#utility.yul\":16673:16687   */\n      gt\n        /* \"#utility.yul\":16701:16702   */\n      0x01\n        /* \"#utility.yul\":16696:17314   */\n      dup2\n      eq\n      tag_338\n      jumpi\n        /* \"#utility.yul\":17358:17359   */\n      0x00\n        /* \"#utility.yul\":17375:17381   */\n      dup5\n        /* \"#utility.yul\":17372:17449   */\n      iszero\n      tag_339\n      jumpi\n        /* \"#utility.yul\":17424:17433   */\n      dup3\n        /* \"#utility.yul\":17419:17422   */\n      dup8\n        /* \"#utility.yul\":17415:17434   */\n      add\n        /* \"#utility.yul\":17409:17435   */\n      mload\n        /* \"#utility.yul\":17400:17435   */\n      swap1\n      pop\n        /* \"#utility.yul\":17372:17449   */\n    tag_339:\n        /* \"#utility.yul\":17475:17542   */\n      tag_340\n        /* \"#utility.yul\":17535:17541   */\n      dup6\n        /* \"#utility.yul\":17528:17533   */\n      dup3\n        /* \"#utility.yul\":17475:17542   */\n      tag_148\n      jump\t// in\n    tag_340:\n        /* \"#utility.yul\":17469:17473   */\n      dup7\n        /* \"#utility.yul\":17462:17543   */\n      sstore\n        /* \"#utility.yul\":17331:17553   */\n      pop\n        /* \"#utility.yul\":16666:17553   */\n      jump(tag_337)\n        /* \"#utility.yul\":16696:17314   */\n    tag_338:\n        /* \"#utility.yul\":16748:16752   */\n      0x1f\n        /* \"#utility.yul\":16744:16753   */\n      not\n        /* \"#utility.yul\":16736:16742   */\n      dup5\n        /* \"#utility.yul\":16732:16754   */\n      and\n        /* \"#utility.yul\":16782:16819   */\n      tag_341\n        /* \"#utility.yul\":16814:16818   */\n      dup7\n        /* \"#utility.yul\":16782:16819   */\n      tag_134\n      jump\t// in\n    tag_341:\n        /* \"#utility.yul\":16841:16842   */\n      0x00\n        /* \"#utility.yul\":16855:17063   */\n    tag_342:\n        /* \"#utility.yul\":16869:16876   */\n      dup3\n        /* \"#utility.yul\":16866:16867   */\n      dup2\n        /* \"#utility.yul\":16863:16877   */\n      lt\n        /* \"#utility.yul\":16855:17063   */\n      iszero\n      tag_344\n      jumpi\n        /* \"#utility.yul\":16948:16957   */\n      dup5\n        /* \"#utility.yul\":16943:16946   */\n      dup10\n        /* \"#utility.yul\":16939:16958   */\n      add\n        /* \"#utility.yul\":16933:16959   */\n      mload\n        /* \"#utility.yul\":16925:16931   */\n      dup3\n        /* \"#utility.yul\":16918:16960   */\n      sstore\n        /* \"#utility.yul\":16999:17000   */\n      0x01\n        /* \"#utility.yul\":16991:16997   */\n      dup3\n        /* \"#utility.yul\":16987:17001   */\n      add\n        /* \"#utility.yul\":16977:17001   */\n      swap2\n      pop\n        /* \"#utility.yul\":17046:17048   */\n      0x20\n        /* \"#utility.yul\":17035:17044   */\n      dup6\n        /* \"#utility.yul\":17031:17049   */\n      add\n        /* \"#utility.yul\":17018:17049   */\n      swap5\n      pop\n        /* \"#utility.yul\":16892:16896   */\n      0x20\n        /* \"#utility.yul\":16889:16890   */\n      dup2\n        /* \"#utility.yul\":16885:16897   */\n      add\n        /* \"#utility.yul\":16880:16897   */\n      swap1\n      pop\n        /* \"#utility.yul\":16855:17063   */\n      jump(tag_342)\n    tag_344:\n        /* \"#utility.yul\":17091:17097   */\n      dup7\n        /* \"#utility.yul\":17082:17089   */\n      dup4\n        /* \"#utility.yul\":17079:17098   */\n      lt\n        /* \"#utility.yul\":17076:17255   */\n      iszero\n      tag_345\n      jumpi\n        /* \"#utility.yul\":17149:17158   */\n      dup5\n        /* \"#utility.yul\":17144:17147   */\n      dup10\n        /* \"#utility.yul\":17140:17159   */\n      add\n        /* \"#utility.yul\":17134:17160   */\n      mload\n        /* \"#utility.yul\":17192:17240   */\n      tag_346\n        /* \"#utility.yul\":17234:17238   */\n      0x1f\n        /* \"#utility.yul\":17226:17232   */\n      dup10\n        /* \"#utility.yul\":17222:17239   */\n      and\n        /* \"#utility.yul\":17211:17220   */\n      dup3\n        /* \"#utility.yul\":17192:17240   */\n      tag_147\n      jump\t// in\n    tag_346:\n        /* \"#utility.yul\":17184:17190   */\n      dup4\n        /* \"#utility.yul\":17177:17241   */\n      sstore\n        /* \"#utility.yul\":17099:17255   */\n      pop\n        /* \"#utility.yul\":17076:17255   */\n    tag_345:\n        /* \"#utility.yul\":17301:17302   */\n      0x01\n        /* \"#utility.yul\":17297:17298   */\n      0x02\n        /* \"#utility.yul\":17289:17295   */\n      dup9\n        /* \"#utility.yul\":17285:17299   */\n      mul\n        /* \"#utility.yul\":17281:17303   */\n      add\n        /* \"#utility.yul\":17275:17279   */\n      dup9\n        /* \"#utility.yul\":17268:17304   */\n      sstore\n        /* \"#utility.yul\":16703:17314   */\n      pop\n      pop\n      pop\n        /* \"#utility.yul\":16666:17553   */\n    tag_337:\n      pop\n        /* \"#utility.yul\":16256:17559   */\n      pop\n      pop\n      pop\n        /* \"#utility.yul\":16164:17559   */\n      pop\n      pop\n      jump\t// out\n        /* \"#utility.yul\":17565:18007   */\n    tag_73:\n        /* \"#utility.yul\":17714:17718   */\n      0x00\n        /* \"#utility.yul\":17752:17754   */\n      0x60\n        /* \"#utility.yul\":17741:17750   */\n      dup3\n        /* \"#utility.yul\":17737:17755   */\n      add\n        /* \"#utility.yul\":17729:17755   */\n      swap1\n      pop\n        /* \"#utility.yul\":17765:17836   */\n      tag_348\n        /* \"#utility.yul\":17833:17834   */\n      0x00\n        /* \"#utility.yul\":17822:17831   */\n      dup4\n        /* \"#utility.yul\":17818:17835   */\n      add\n        /* \"#utility.yul\":17809:17815   */\n      dup7\n        /* \"#utility.yul\":17765:17836   */\n      tag_98\n      jump\t// in\n    tag_348:\n        /* \"#utility.yul\":17846:17918   */\n      tag_349\n        /* \"#utility.yul\":17914:17916   */\n      0x20\n        /* \"#utility.yul\":17903:17912   */\n      dup4\n        /* \"#utility.yul\":17899:17917   */\n      add\n        /* \"#utility.yul\":17890:17896   */\n      dup6\n        /* \"#utility.yul\":17846:17918   */\n      tag_98\n      jump\t// in\n    tag_349:\n        /* \"#utility.yul\":17928:18000   */\n      tag_350\n        /* \"#utility.yul\":17996:17998   */\n      0x40\n        /* \"#utility.yul\":17985:17994   */\n      dup4\n        /* \"#utility.yul\":17981:17999   */\n      add\n        /* \"#utility.yul\":17972:17978   */\n      dup5\n        /* \"#utility.yul\":17928:18000   */\n      tag_110\n      jump\t// in\n    tag_350:\n        /* \"#utility.yul\":17565:18007   */\n      swap5\n      swap4\n      pop\n      pop\n      pop\n      pop\n      jump\t// out\n        /* \"#utility.yul\":18013:18103   */\n    tag_149:\n        /* \"#utility.yul\":18047:18054   */\n      0x00\n        /* \"#utility.yul\":18090:18095   */\n      dup2\n        /* \"#utility.yul\":18083:18096   */\n      iszero\n        /* \"#utility.yul\":18076:18097   */\n      iszero\n        /* \"#utility.yul\":18065:18097   */\n      swap1\n      pop\n        /* \"#utility.yul\":18013:18103   */\n      swap2\n      swap1\n      pop\n      jump\t// out\n        /* \"#utility.yul\":18109:18225   */\n    tag_150:\n        /* \"#utility.yul\":18179:18200   */\n      tag_353\n        /* \"#utility.yul\":18194:18199   */\n      dup2\n        /* \"#utility.yul\":18179:18200   */\n      tag_149\n      jump\t// in\n    tag_353:\n        /* \"#utility.yul\":18172:18177   */\n      dup2\n        /* \"#utility.yul\":18169:18201   */\n      eq\n        /* \"#utility.yul\":18159:18219   */\n      tag_354\n      jumpi\n        /* \"#utility.yul\":18215:18216   */\n      0x00\n        /* \"#utility.yul\":18212:18213   */\n      dup1\n        /* \"#utility.yul\":18205:18217   */\n      revert\n        /* \"#utility.yul\":18159:18219   */\n    tag_354:\n        /* \"#utility.yul\":18109:18225   */\n      pop\n      jump\t// out\n        /* \"#utility.yul\":18231:18368   */\n    tag_151:\n        /* \"#utility.yul\":18285:18290   */\n      0x00\n        /* \"#utility.yul\":18316:18322   */\n      dup2\n        /* \"#utility.yul\":18310:18323   */\n      mload\n        /* \"#utility.yul\":18301:18323   */\n      swap1\n      pop\n        /* \"#utility.yul\":18332:18362   */\n      tag_356\n        /* \"#utility.yul\":18356:18361   */\n      dup2\n        /* \"#utility.yul\":18332:18362   */\n      tag_150\n      jump\t// in\n    tag_356:\n        /* \"#utility.yul\":18231:18368   */\n      swap3\n      swap2\n      pop\n      pop\n      jump\t// out\n        /* \"#utility.yul\":18374:18719   */\n    tag_77:\n        /* \"#utility.yul\":18441:18447   */\n      0x00\n        /* \"#utility.yul\":18490:18492   */\n      0x20\n        /* \"#utility.yul\":18478:18487   */\n      dup3\n        /* \"#utility.yul\":18469:18476   */\n      dup5\n        /* \"#utility.yul\":18465:18488   */\n      sub\n        /* \"#utility.yul\":18461:18493   */\n      slt\n        /* \"#utility.yul\":18458:18577   */\n      iszero\n      tag_358\n      jumpi\n        /* \"#utility.yul\":18496:18575   */\n      tag_359\n      tag_105\n      jump\t// in\n    tag_359:\n        /* \"#utility.yul\":18458:18577   */\n    tag_358:\n        /* \"#utility.yul\":18616:18617   */\n      0x00\n        /* \"#utility.yul\":18641:18702   */\n      tag_360\n        /* \"#utility.yul\":18694:18701   */\n      dup5\n        /* \"#utility.yul\":18685:18691   */\n      dup3\n        /* \"#utility.yul\":18674:18683   */\n      dup6\n        /* \"#utility.yul\":18670:18692   */\n      add\n        /* \"#utility.yul\":18641:18702   */\n      tag_151\n      jump\t// in\n    tag_360:\n        /* \"#utility.yul\":18631:18702   */\n      swap2\n      pop\n        /* \"#utility.yul\":18587:18712   */\n      pop\n        /* \"#utility.yul\":18374:18719   */\n      swap3\n      swap2\n      pop\n      pop\n      jump\t// out\n        /* \"#utility.yul\":18725:19167   */\n    tag_79:\n        /* \"#utility.yul\":18874:18878   */\n      0x00\n        /* \"#utility.yul\":18912:18914   */\n      0x60\n        /* \"#utility.yul\":18901:18910   */\n      dup3\n        /* \"#utility.yul\":18897:18915   */\n      add\n        /* \"#utility.yul\":18889:18915   */\n      swap1\n      pop\n        /* \"#utility.yul\":18925:18996   */\n      tag_362\n        /* \"#utility.yul\":18993:18994   */\n      0x00\n        /* \"#utility.yul\":18982:18991   */\n      dup4\n        /* \"#utility.yul\":18978:18995   */\n      add\n        /* \"#utility.yul\":18969:18975   */\n      dup7\n        /* \"#utility.yul\":18925:18996   */\n      tag_98\n      jump\t// in\n    tag_362:\n        /* \"#utility.yul\":19006:19078   */\n      tag_363\n        /* \"#utility.yul\":19074:19076   */\n      0x20\n        /* \"#utility.yul\":19063:19072   */\n      dup4\n        /* \"#utility.yul\":19059:19077   */\n      add\n        /* \"#utility.yul\":19050:19056   */\n      dup6\n        /* \"#utility.yul\":19006:19078   */\n      tag_110\n      jump\t// in\n    tag_363:\n        /* \"#utility.yul\":19088:19160   */\n      tag_364\n        /* \"#utility.yul\":19156:19158   */\n      0x40\n        /* \"#utility.yul\":19145:19154   */\n      dup4\n        /* \"#utility.yul\":19141:19159   */\n      add\n        /* \"#utility.yul\":19132:19138   */\n      dup5\n        /* \"#utility.yul\":19088:19160   */\n      tag_110\n      jump\t// in\n    tag_364:\n        /* \"#utility.yul\":18725:19167   */\n      swap5\n      swap4\n      pop\n      pop\n      pop\n      pop\n      jump\t// out\n        /* \"#utility.yul\":19173:19330   */\n    tag_152:\n        /* \"#utility.yul\":19313:19322   */\n      0x756e666978656400000000000000000000000000000000000000000000000000\n        /* \"#utility.yul\":19309:19310   */\n      0x00\n        /* \"#utility.yul\":19301:19307   */\n      dup3\n        /* \"#utility.yul\":19297:19311   */\n      add\n        /* \"#utility.yul\":19290:19323   */\n      mstore\n        /* \"#utility.yul\":19173:19330   */\n      pop\n      jump\t// out\n        /* \"#utility.yul\":19336:19736   */\n    tag_153:\n        /* \"#utility.yul\":19496:19499   */\n      0x00\n        /* \"#utility.yul\":19517:19601   */\n      tag_367\n        /* \"#utility.yul\":19599:19600   */\n      0x07\n        /* \"#utility.yul\":19594:19597   */\n      dup4\n        /* \"#utility.yul\":19517:19601   */\n      tag_127\n      jump\t// in\n    tag_367:\n        /* \"#utility.yul\":19510:19601   */\n      swap2\n      pop\n        /* \"#utility.yul\":19610:19703   */\n      tag_368\n        /* \"#utility.yul\":19699:19702   */\n      dup3\n        /* \"#utility.yul\":19610:19703   */\n      tag_152\n      jump\t// in\n    tag_368:\n        /* \"#utility.yul\":19728:19729   */\n      0x07\n        /* \"#utility.yul\":19723:19726   */\n      dup3\n        /* \"#utility.yul\":19719:19730   */\n      add\n        /* \"#utility.yul\":19712:19730   */\n      swap1\n      pop\n        /* \"#utility.yul\":19336:19736   */\n      swap2\n      swap1\n      pop\n      jump\t// out\n        /* \"#utility.yul\":19742:20123   */\n    tag_82:\n        /* \"#utility.yul\":19927:19930   */\n      0x00\n        /* \"#utility.yul\":19949:20097   */\n      tag_370\n        /* \"#utility.yul\":20093:20096   */\n      dup3\n        /* \"#utility.yul\":19949:20097   */\n      tag_153\n      jump\t// in\n    tag_370:\n        /* \"#utility.yul\":19942:20097   */\n      swap2\n      pop\n        /* \"#utility.yul\":20114:20117   */\n      dup2\n        /* \"#utility.yul\":20107:20117   */\n      swap1\n      pop\n        /* \"#utility.yul\":19742:20123   */\n      swap2\n      swap1\n      pop\n      jump\t// out\n\n    auxdata: 0xa264697066735822122063c63650f19ed6ae22098b3c101d56645b622abafa977b84f3403227acb713e564736f6c63430008140033\n}\n",
				"bytecode": {
					"linkReferences": {},
					"object": "608060405261012c42620000149190620000d4565b60025560046003556006600455600260055534801562000032575f80fd5b506040516200161a3803806200161a833981810160405281019062000058919062000186565b805f806101000a81548173ffffffffffffffffffffffffffffffffffffffff021916908373ffffffffffffffffffffffffffffffffffffffff16021790555050620001b6565b5f819050919050565b7f4e487b71000000000000000000000000000000000000000000000000000000005f52601160045260245ffd5b5f620000e0826200009e565b9150620000ed836200009e565b9250828201905080821115620001085762000107620000a7565b5b92915050565b5f80fd5b5f73ffffffffffffffffffffffffffffffffffffffff82169050919050565b5f6200013d8262000112565b9050919050565b5f620001508262000131565b9050919050565b620001628162000144565b81146200016d575f80fd5b50565b5f81519050620001808162000157565b92915050565b5f602082840312156200019e576200019d6200010e565b5b5f620001ad8482850162000170565b91505092915050565b61145680620001c45f395ff3fe608060405234801561000f575f80fd5b5060043610610055575f3560e01c80631562137314610059578063630b1146146100775780638cdec85914610095578063a6acb7ee146100c5578063f42f2e82146100e1575b5f80fd5b610061610113565b60405161006e91906109c3565b60405180910390f35b61007f61011a565b60405161008c9190610a66565b60405180910390f35b6100af60048036038101906100aa9190610ac1565b61011f565b6040516100bc9190610b04565b60405180910390f35b6100df60048036038101906100da9190610c73565b610426565b005b6100fb60048036038101906100f69190610ac1565b6108d8565b60405161010a93929190610cdf565b60405180910390f35b5f30905090565b606090565b5f600254600a5f3373ffffffffffffffffffffffffffffffffffffffff1673ffffffffffffffffffffffffffffffffffffffff1681526020019081526020015f2060020154111561026c57600a5f3373ffffffffffffffffffffffffffffffffffffffff1673ffffffffffffffffffffffffffffffffffffffff1681526020019081526020015f2060020154600454600a5f3373ffffffffffffffffffffffffffffffffffffffff1673ffffffffffffffffffffffffffffffffffffffff1681526020019081526020015f205f01546101f89190610d48565b6102029190610d48565b6007819055506064600754600a5f3373ffffffffffffffffffffffffffffffffffffffff1673ffffffffffffffffffffffffffffffffffffffff1681526020019081526020015f205f01546102579190610d89565b6102619190610de9565b600881905550610421565b600254600a5f3373ffffffffffffffffffffffffffffffffffffffff1673ffffffffffffffffffffffffffffffffffffffff1681526020019081526020015f206002015410156104205742600a5f3373ffffffffffffffffffffffffffffffffffffffff1673ffffffffffffffffffffffffffffffffffffffff1681526020019081526020015f20600201546103029190610e19565b600a5f3373ffffffffffffffffffffffffffffffffffffffff1673ffffffffffffffffffffffffffffffffffffffff1681526020019081526020015f206002015461034d9190610e19565b600454600a5f3373ffffffffffffffffffffffffffffffffffffffff1673ffffffffffffffffffffffffffffffffffffffff1681526020019081526020015f205f015461039a9190610d48565b6103a49190610d48565b600781905550600754600a5f3373ffffffffffffffffffffffffffffffffffffffff1673ffffffffffffffffffffffffffffffffffffffff1681526020019081526020015f205f01546103f79190610d89565b600881905550606460035460085461040f9190610e19565b6104199190610de9565b6009819055505b5b919050565b825f8054906101000a900473ffffffffffffffffffffffffffffffffffffffff1673ffffffffffffffffffffffffffffffffffffffff166370a08231336040518263ffffffff1660e01b815260040161047f91906109c3565b602060405180830381865afa15801561049a573d5f803e3d5ffd5b505050506040513d601f19601f820116820180604052508101906104be9190610e60565b10156104ff576040517f08c379a00000000000000000000000000000000000000000000000000000000081526004016104f690610ed5565b60405180910390fd5b60405160200161050e90610f47565b60405160208183030381529060405280519060200120826040516020016105359190610f8b565b6040516020818303038152906040528051906020012003610751575f8311610592576040517f08c379a000000000000000000000000000000000000000000000000000000000815260040161058990611011565b60405180910390fd5b82600a5f3373ffffffffffffffffffffffffffffffffffffffff1673ffffffffffffffffffffffffffffffffffffffff1681526020019081526020015f205f018190555081600a5f3373ffffffffffffffffffffffffffffffffffffffff1673ffffffffffffffffffffffffffffffffffffffff1681526020019081526020015f2060010190816106239190611229565b5080426106309190610d89565b600a5f3373ffffffffffffffffffffffffffffffffffffffff1673ffffffffffffffffffffffffffffffffffffffff1681526020019081526020015f20600201819055505f8054906101000a900473ffffffffffffffffffffffffffffffffffffffff1673ffffffffffffffffffffffffffffffffffffffff166323b872dd3330866040518463ffffffff1660e01b81526004016106d0939291906112f8565b6020604051808303815f875af11580156106ec573d5f803e3d5ffd5b505050506040513d601f19601f820116820180604052508101906107109190611362565b507f96c68044657fcb3bea5ad282f026bd0361f647d377dfe1615a77e35dd87280a13384426040516107449392919061138d565b60405180910390a16108d3565b6040516020016107609061140c565b60405160208183030381529060405280519060200120826040516020016107879190610f8b565b60405160208183030381529060405280519060200120036108d25782600a5f3373ffffffffffffffffffffffffffffffffffffffff1673ffffffffffffffffffffffffffffffffffffffff1681526020019081526020015f205f018190555081600a5f3373ffffffffffffffffffffffffffffffffffffffff1673ffffffffffffffffffffffffffffffffffffffff1681526020019081526020015f2060010190816108339190611229565b505f8054906101000a900473ffffffffffffffffffffffffffffffffffffffff1673ffffffffffffffffffffffffffffffffffffffff166323b872dd3330866040518463ffffffff1660e01b8152600401610890939291906112f8565b6020604051808303815f875af11580156108ac573d5f803e3d5ffd5b505050506040513d601f19601f820116820180604052508101906108d09190611362565b505b5b505050565b600a602052805f5260405f205f91509050805f0154908060010180546108fd9061105c565b80601f01602080910402602001604051908101604052809291908181526020018280546109299061105c565b80156109745780601f1061094b57610100808354040283529160200191610974565b820191905f5260205f20905b81548152906001019060200180831161095757829003601f168201915b5050505050908060020154905083565b5f73ffffffffffffffffffffffffffffffffffffffff82169050919050565b5f6109ad82610984565b9050919050565b6109bd816109a3565b82525050565b5f6020820190506109d65f8301846109b4565b92915050565b5f81519050919050565b5f82825260208201905092915050565b5f5b83811015610a135780820151818401526020810190506109f8565b5f8484015250505050565b5f601f19601f8301169050919050565b5f610a38826109dc565b610a4281856109e6565b9350610a528185602086016109f6565b610a5b81610a1e565b840191505092915050565b5f6020820190508181035f830152610a7e8184610a2e565b905092915050565b5f604051905090565b5f80fd5b5f80fd5b610aa0816109a3565b8114610aaa575f80fd5b50565b5f81359050610abb81610a97565b92915050565b5f60208284031215610ad657610ad5610a8f565b5b5f610ae384828501610aad565b91505092915050565b5f819050919050565b610afe81610aec565b82525050565b5f602082019050610b175f830184610af5565b92915050565b610b2681610aec565b8114610b30575f80fd5b50565b5f81359050610b4181610b1d565b92915050565b5f80fd5b5f80fd5b7f4e487b71000000000000000000000000000000000000000000000000000000005f52604160045260245ffd5b610b8582610a1e565b810181811067ffffffffffffffff82111715610ba457610ba3610b4f565b5b80604052505050565b5f610bb6610a86565b9050610bc28282610b7c565b919050565b5f67ffffffffffffffff821115610be157610be0610b4f565b5b610bea82610a1e565b9050602081019050919050565b828183375f83830152505050565b5f610c17610c1284610bc7565b610bad565b905082815260208101848484011115610c3357610c32610b4b565b5b610c3e848285610bf7565b509392505050565b5f82601f830112610c5a57610c59610b47565b5b8135610c6a848260208601610c05565b91505092915050565b5f805f60608486031215610c8a57610c89610a8f565b5b5f610c9786828701610b33565b935050602084013567ffffffffffffffff811115610cb857610cb7610a93565b5b610cc486828701610c46565b9250506040610cd586828701610b33565b9150509250925092565b5f606082019050610cf25f830186610af5565b8181036020830152610d048185610a2e565b9050610d136040830184610af5565b949350505050565b7f4e487b71000000000000000000000000000000000000000000000000000000005f52601160045260245ffd5b5f610d5282610aec565b9150610d5d83610aec565b9250828202610d6b81610aec565b91508282048414831517610d8257610d81610d1b565b5b5092915050565b5f610d9382610aec565b9150610d9e83610aec565b9250828201905080821115610db657610db5610d1b565b5b92915050565b7f4e487b71000000000000000000000000000000000000000000000000000000005f52601260045260245ffd5b5f610df382610aec565b9150610dfe83610aec565b925082610e0e57610e0d610dbc565b5b828204905092915050565b5f610e2382610aec565b9150610e2e83610aec565b9250828203905081811115610e4657610e45610d1b565b5b92915050565b5f81519050610e5a81610b1d565b92915050565b5f60208284031215610e7557610e74610a8f565b5b5f610e8284828501610e4c565b91505092915050565b7f496e73756666696369656e742042616c616e63650000000000000000000000005f82015250565b5f610ebf6014836109e6565b9150610eca82610e8b565b602082019050919050565b5f6020820190508181035f830152610eec81610eb3565b9050919050565b5f81905092915050565b7f66697865640000000000000000000000000000000000000000000000000000005f82015250565b5f610f31600583610ef3565b9150610f3c82610efd565b600582019050919050565b5f610f5182610f25565b9150819050919050565b5f610f65826109dc565b610f6f8185610ef3565b9350610f7f8185602086016109f6565b80840191505092915050565b5f610f968284610f5b565b915081905092915050565b7f205374616b652063616e206e6f742062652030202c20456e74657220736f6d655f8201527f20616d6f756e74206f6620746f6b656e73000000000000000000000000000000602082015250565b5f610ffb6031836109e6565b915061100682610fa1565b604082019050919050565b5f6020820190508181035f83015261102881610fef565b9050919050565b7f4e487b71000000000000000000000000000000000000000000000000000000005f52602260045260245ffd5b5f600282049050600182168061107357607f821691505b6020821081036110865761108561102f565b5b50919050565b5f819050815f5260205f209050919050565b5f6020601f8301049050919050565b5f82821b905092915050565b5f600883026110e87fffffffffffffffffffffffffffffffffffffffffffffffffffffffffffffffff826110ad565b6110f286836110ad565b95508019841693508086168417925050509392505050565b5f819050919050565b5f61112d61112861112384610aec565b61110a565b610aec565b9050919050565b5f819050919050565b61114683611113565b61115a61115282611134565b8484546110b9565b825550505050565b5f90565b61116e611162565b61117981848461113d565b505050565b5b8181101561119c576111915f82611166565b60018101905061117f565b5050565b601f8211156111e1576111b28161108c565b6111bb8461109e565b810160208510156111ca578190505b6111de6111d68561109e565b83018261117e565b50505b505050565b5f82821c905092915050565b5f6112015f19846008026111e6565b1980831691505092915050565b5f61121983836111f2565b9150826002028217905092915050565b611232826109dc565b67ffffffffffffffff81111561124b5761124a610b4f565b5b611255825461105c565b6112608282856111a0565b5f60209050601f831160018114611291575f841561127f578287015190505b611289858261120e565b8655506112f0565b601f19841661129f8661108c565b5f5b828110156112c6578489015182556001820191506020850194506020810190506112a1565b868310156112e357848901516112df601f8916826111f2565b8355505b6001600288020188555050505b505050505050565b5f60608201905061130b5f8301866109b4565b61131860208301856109b4565b6113256040830184610af5565b949350505050565b5f8115159050919050565b6113418161132d565b811461134b575f80fd5b50565b5f8151905061135c81611338565b92915050565b5f6020828403121561137757611376610a8f565b5b5f6113848482850161134e565b91505092915050565b5f6060820190506113a05f8301866109b4565b6113ad6020830185610af5565b6113ba6040830184610af5565b949350505050565b7f756e6669786564000000000000000000000000000000000000000000000000005f82015250565b5f6113f6600783610ef3565b9150611401826113c2565b600782019050919050565b5f611416826113ea565b915081905091905056fea264697066735822122063c63650f19ed6ae22098b3c101d56645b622abafa977b84f3403227acb713e564736f6c63430008140033",
					"opcodes": "PUSH1 0x80 PUSH1 0x40 MSTORE PUSH2 0x12C TIMESTAMP PUSH3 0x14 SWAP2 SWAP1 PUSH3 0xD4 JUMP JUMPDEST PUSH1 0x2 SSTORE PUSH1 0x4 PUSH1 0x3 SSTORE PUSH1 0x6 PUSH1 0x4 SSTORE PUSH1 0x2 PUSH1 0x5 SSTORE CALLVALUE DUP1 ISZERO PUSH3 0x32 JUMPI PUSH0 DUP1 REVERT JUMPDEST POP PUSH1 0x40 MLOAD PUSH3 0x161A CODESIZE SUB DUP1 PUSH3 0x161A DUP4 CODECOPY DUP2 DUP2 ADD PUSH1 0x40 MSTORE DUP2 ADD SWAP1 PUSH3 0x58 SWAP2 SWAP1 PUSH3 0x186 JUMP JUMPDEST DUP1 PUSH0 DUP1 PUSH2 0x100 EXP DUP2 SLOAD DUP2 PUSH20 0xFFFFFFFFFFFFFFFFFFFFFFFFFFFFFFFFFFFFFFFF MUL NOT AND SWAP1 DUP4 PUSH20 0xFFFFFFFFFFFFFFFFFFFFFFFFFFFFFFFFFFFFFFFF AND MUL OR SWAP1 SSTORE POP POP PUSH3 0x1B6 JUMP JUMPDEST PUSH0 DUP2 SWAP1 POP SWAP2 SWAP1 POP JUMP JUMPDEST PUSH32 0x4E487B7100000000000000000000000000000000000000000000000000000000 PUSH0 MSTORE PUSH1 0x11 PUSH1 0x4 MSTORE PUSH1 0x24 PUSH0 REVERT JUMPDEST PUSH0 PUSH3 0xE0 DUP3 PUSH3 0x9E JUMP JUMPDEST SWAP2 POP PUSH3 0xED DUP4 PUSH3 0x9E JUMP JUMPDEST SWAP3 POP DUP3 DUP3 ADD SWAP1 POP DUP1 DUP3 GT ISZERO PUSH3 0x108 JUMPI PUSH3 0x107 PUSH3 0xA7 JUMP JUMPDEST JUMPDEST SWAP3 SWAP2 POP POP JUMP JUMPDEST PUSH0 DUP1 REVERT JUMPDEST PUSH0 PUSH20 0xFFFFFFFFFFFFFFFFFFFFFFFFFFFFFFFFFFFFFFFF DUP3 AND SWAP1 POP SWAP2 SWAP1 POP JUMP JUMPDEST PUSH0 PUSH3 0x13D DUP3 PUSH3 0x112 JUMP JUMPDEST SWAP1 POP SWAP2 SWAP1 POP JUMP JUMPDEST PUSH0 PUSH3 0x150 DUP3 PUSH3 0x131 JUMP JUMPDEST SWAP1 POP SWAP2 SWAP1 POP JUMP JUMPDEST PUSH3 0x162 DUP2 PUSH3 0x144 JUMP JUMPDEST DUP2 EQ PUSH3 0x16D JUMPI PUSH0 DUP1 REVERT JUMPDEST POP JUMP JUMPDEST PUSH0 DUP2 MLOAD SWAP1 POP PUSH3 0x180 DUP2 PUSH3 0x157 JUMP JUMPDEST SWAP3 SWAP2 POP POP JUMP JUMPDEST PUSH0 PUSH1 0x20 DUP3 DUP5 SUB SLT ISZERO PUSH3 0x19E JUMPI PUSH3 0x19D PUSH3 0x10E JUMP JUMPDEST JUMPDEST PUSH0 PUSH3 0x1AD DUP5 DUP3 DUP6 ADD PUSH3 0x170 JUMP JUMPDEST SWAP2 POP POP SWAP3 SWAP2 POP POP JUMP JUMPDEST PUSH2 0x1456 DUP1 PUSH3 0x1C4 PUSH0 CODECOPY PUSH0 RETURN INVALID PUSH1 0x80 PUSH1 0x40 MSTORE CALLVALUE DUP1 ISZERO PUSH2 0xF JUMPI PUSH0 DUP1 REVERT JUMPDEST POP PUSH1 0x4 CALLDATASIZE LT PUSH2 0x55 JUMPI PUSH0 CALLDATALOAD PUSH1 0xE0 SHR DUP1 PUSH4 0x15621373 EQ PUSH2 0x59 JUMPI DUP1 PUSH4 0x630B1146 EQ PUSH2 0x77 JUMPI DUP1 PUSH4 0x8CDEC859 EQ PUSH2 0x95 JUMPI DUP1 PUSH4 0xA6ACB7EE EQ PUSH2 0xC5 JUMPI DUP1 PUSH4 0xF42F2E82 EQ PUSH2 0xE1 JUMPI JUMPDEST PUSH0 DUP1 REVERT JUMPDEST PUSH2 0x61 PUSH2 0x113 JUMP JUMPDEST PUSH1 0x40 MLOAD PUSH2 0x6E SWAP2 SWAP1 PUSH2 0x9C3 JUMP JUMPDEST PUSH1 0x40 MLOAD DUP1 SWAP2 SUB SWAP1 RETURN JUMPDEST PUSH2 0x7F PUSH2 0x11A JUMP JUMPDEST PUSH1 0x40 MLOAD PUSH2 0x8C SWAP2 SWAP1 PUSH2 0xA66 JUMP JUMPDEST PUSH1 0x40 MLOAD DUP1 SWAP2 SUB SWAP1 RETURN JUMPDEST PUSH2 0xAF PUSH1 0x4 DUP1 CALLDATASIZE SUB DUP2 ADD SWAP1 PUSH2 0xAA SWAP2 SWAP1 PUSH2 0xAC1 JUMP JUMPDEST PUSH2 0x11F JUMP JUMPDEST PUSH1 0x40 MLOAD PUSH2 0xBC SWAP2 SWAP1 PUSH2 0xB04 JUMP JUMPDEST PUSH1 0x40 MLOAD DUP1 SWAP2 SUB SWAP1 RETURN JUMPDEST PUSH2 0xDF PUSH1 0x4 DUP1 CALLDATASIZE SUB DUP2 ADD SWAP1 PUSH2 0xDA SWAP2 SWAP1 PUSH2 0xC73 JUMP JUMPDEST PUSH2 0x426 JUMP JUMPDEST STOP JUMPDEST PUSH2 0xFB PUSH1 0x4 DUP1 CALLDATASIZE SUB DUP2 ADD SWAP1 PUSH2 0xF6 SWAP2 SWAP1 PUSH2 0xAC1 JUMP JUMPDEST PUSH2 0x8D8 JUMP JUMPDEST PUSH1 0x40 MLOAD PUSH2 0x10A SWAP4 SWAP3 SWAP2 SWAP1 PUSH2 0xCDF JUMP JUMPDEST PUSH1 0x40 MLOAD DUP1 SWAP2 SUB SWAP1 RETURN JUMPDEST PUSH0 ADDRESS SWAP1 POP SWAP1 JUMP JUMPDEST PUSH1 0x60 SWAP1 JUMP JUMPDEST PUSH0 PUSH1 0x2 SLOAD PUSH1 0xA PUSH0 CALLER PUSH20 0xFFFFFFFFFFFFFFFFFFFFFFFFFFFFFFFFFFFFFFFF AND PUSH20 0xFFFFFFFFFFFFFFFFFFFFFFFFFFFFFFFFFFFFFFFF AND DUP2 MSTORE PUSH1 0x20 ADD SWAP1 DUP2 MSTORE PUSH1 0x20 ADD PUSH0 KECCAK256 PUSH1 0x2 ADD SLOAD GT ISZERO PUSH2 0x26C JUMPI PUSH1 0xA PUSH0 CALLER PUSH20 0xFFFFFFFFFFFFFFFFFFFFFFFFFFFFFFFFFFFFFFFF AND PUSH20 0xFFFFFFFFFFFFFFFFFFFFFFFFFFFFFFFFFFFFFFFF AND DUP2 MSTORE PUSH1 0x20 ADD SWAP1 DUP2 MSTORE PUSH1 0x20 ADD PUSH0 KECCAK256 PUSH1 0x2 ADD SLOAD PUSH1 0x4 SLOAD PUSH1 0xA PUSH0 CALLER PUSH20 0xFFFFFFFFFFFFFFFFFFFFFFFFFFFFFFFFFFFFFFFF AND PUSH20 0xFFFFFFFFFFFFFFFFFFFFFFFFFFFFFFFFFFFFFFFF AND DUP2 MSTORE PUSH1 0x20 ADD SWAP1 DUP2 MSTORE PUSH1 0x20 ADD PUSH0 KECCAK256 PUSH0 ADD SLOAD PUSH2 0x1F8 SWAP2 SWAP1 PUSH2 0xD48 JUMP JUMPDEST PUSH2 0x202 SWAP2 SWAP1 PUSH2 0xD48 JUMP JUMPDEST PUSH1 0x7 DUP2 SWAP1 SSTORE POP PUSH1 0x64 PUSH1 0x7 SLOAD PUSH1 0xA PUSH0 CALLER PUSH20 0xFFFFFFFFFFFFFFFFFFFFFFFFFFFFFFFFFFFFFFFF AND PUSH20 0xFFFFFFFFFFFFFFFFFFFFFFFFFFFFFFFFFFFFFFFF AND DUP2 MSTORE PUSH1 0x20 ADD SWAP1 DUP2 MSTORE PUSH1 0x20 ADD PUSH0 KECCAK256 PUSH0 ADD SLOAD PUSH2 0x257 SWAP2 SWAP1 PUSH2 0xD89 JUMP JUMPDEST PUSH2 0x261 SWAP2 SWAP1 PUSH2 0xDE9 JUMP JUMPDEST PUSH1 0x8 DUP2 SWAP1 SSTORE POP PUSH2 0x421 JUMP JUMPDEST PUSH1 0x2 SLOAD PUSH1 0xA PUSH0 CALLER PUSH20 0xFFFFFFFFFFFFFFFFFFFFFFFFFFFFFFFFFFFFFFFF AND PUSH20 0xFFFFFFFFFFFFFFFFFFFFFFFFFFFFFFFFFFFFFFFF AND DUP2 MSTORE PUSH1 0x20 ADD SWAP1 DUP2 MSTORE PUSH1 0x20 ADD PUSH0 KECCAK256 PUSH1 0x2 ADD SLOAD LT ISZERO PUSH2 0x420 JUMPI TIMESTAMP PUSH1 0xA PUSH0 CALLER PUSH20 0xFFFFFFFFFFFFFFFFFFFFFFFFFFFFFFFFFFFFFFFF AND PUSH20 0xFFFFFFFFFFFFFFFFFFFFFFFFFFFFFFFFFFFFFFFF AND DUP2 MSTORE PUSH1 0x20 ADD SWAP1 DUP2 MSTORE PUSH1 0x20 ADD PUSH0 KECCAK256 PUSH1 0x2 ADD SLOAD PUSH2 0x302 SWAP2 SWAP1 PUSH2 0xE19 JUMP JUMPDEST PUSH1 0xA PUSH0 CALLER PUSH20 0xFFFFFFFFFFFFFFFFFFFFFFFFFFFFFFFFFFFFFFFF AND PUSH20 0xFFFFFFFFFFFFFFFFFFFFFFFFFFFFFFFFFFFFFFFF AND DUP2 MSTORE PUSH1 0x20 ADD SWAP1 DUP2 MSTORE PUSH1 0x20 ADD PUSH0 KECCAK256 PUSH1 0x2 ADD SLOAD PUSH2 0x34D SWAP2 SWAP1 PUSH2 0xE19 JUMP JUMPDEST PUSH1 0x4 SLOAD PUSH1 0xA PUSH0 CALLER PUSH20 0xFFFFFFFFFFFFFFFFFFFFFFFFFFFFFFFFFFFFFFFF AND PUSH20 0xFFFFFFFFFFFFFFFFFFFFFFFFFFFFFFFFFFFFFFFF AND DUP2 MSTORE PUSH1 0x20 ADD SWAP1 DUP2 MSTORE PUSH1 0x20 ADD PUSH0 KECCAK256 PUSH0 ADD SLOAD PUSH2 0x39A SWAP2 SWAP1 PUSH2 0xD48 JUMP JUMPDEST PUSH2 0x3A4 SWAP2 SWAP1 PUSH2 0xD48 JUMP JUMPDEST PUSH1 0x7 DUP2 SWAP1 SSTORE POP PUSH1 0x7 SLOAD PUSH1 0xA PUSH0 CALLER PUSH20 0xFFFFFFFFFFFFFFFFFFFFFFFFFFFFFFFFFFFFFFFF AND PUSH20 0xFFFFFFFFFFFFFFFFFFFFFFFFFFFFFFFFFFFFFFFF AND DUP2 MSTORE PUSH1 0x20 ADD SWAP1 DUP2 MSTORE PUSH1 0x20 ADD PUSH0 KECCAK256 PUSH0 ADD SLOAD PUSH2 0x3F7 SWAP2 SWAP1 PUSH2 0xD89 JUMP JUMPDEST PUSH1 0x8 DUP2 SWAP1 SSTORE POP PUSH1 0x64 PUSH1 0x3 SLOAD PUSH1 0x8 SLOAD PUSH2 0x40F SWAP2 SWAP1 PUSH2 0xE19 JUMP JUMPDEST PUSH2 0x419 SWAP2 SWAP1 PUSH2 0xDE9 JUMP JUMPDEST PUSH1 0x9 DUP2 SWAP1 SSTORE POP JUMPDEST JUMPDEST SWAP2 SWAP1 POP JUMP JUMPDEST DUP3 PUSH0 DUP1 SLOAD SWAP1 PUSH2 0x100 EXP SWAP1 DIV PUSH20 0xFFFFFFFFFFFFFFFFFFFFFFFFFFFFFFFFFFFFFFFF AND PUSH20 0xFFFFFFFFFFFFFFFFFFFFFFFFFFFFFFFFFFFFFFFF AND PUSH4 0x70A08231 CALLER PUSH1 0x40 MLOAD DUP3 PUSH4 0xFFFFFFFF AND PUSH1 0xE0 SHL DUP2 MSTORE PUSH1 0x4 ADD PUSH2 0x47F SWAP2 SWAP1 PUSH2 0x9C3 JUMP JUMPDEST PUSH1 0x20 PUSH1 0x40 MLOAD DUP1 DUP4 SUB DUP2 DUP7 GAS STATICCALL ISZERO DUP1 ISZERO PUSH2 0x49A JUMPI RETURNDATASIZE PUSH0 DUP1 RETURNDATACOPY RETURNDATASIZE PUSH0 REVERT JUMPDEST POP POP POP POP PUSH1 0x40 MLOAD RETURNDATASIZE PUSH1 0x1F NOT PUSH1 0x1F DUP3 ADD AND DUP3 ADD DUP1 PUSH1 0x40 MSTORE POP DUP2 ADD SWAP1 PUSH2 0x4BE SWAP2 SWAP1 PUSH2 0xE60 JUMP JUMPDEST LT ISZERO PUSH2 0x4FF JUMPI PUSH1 0x40 MLOAD PUSH32 0x8C379A000000000000000000000000000000000000000000000000000000000 DUP2 MSTORE PUSH1 0x4 ADD PUSH2 0x4F6 SWAP1 PUSH2 0xED5 JUMP JUMPDEST PUSH1 0x40 MLOAD DUP1 SWAP2 SUB SWAP1 REVERT JUMPDEST PUSH1 0x40 MLOAD PUSH1 0x20 ADD PUSH2 0x50E SWAP1 PUSH2 0xF47 JUMP JUMPDEST PUSH1 0x40 MLOAD PUSH1 0x20 DUP2 DUP4 SUB SUB DUP2 MSTORE SWAP1 PUSH1 0x40 MSTORE DUP1 MLOAD SWAP1 PUSH1 0x20 ADD KECCAK256 DUP3 PUSH1 0x40 MLOAD PUSH1 0x20 ADD PUSH2 0x535 SWAP2 SWAP1 PUSH2 0xF8B JUMP JUMPDEST PUSH1 0x40 MLOAD PUSH1 0x20 DUP2 DUP4 SUB SUB DUP2 MSTORE SWAP1 PUSH1 0x40 MSTORE DUP1 MLOAD SWAP1 PUSH1 0x20 ADD KECCAK256 SUB PUSH2 0x751 JUMPI PUSH0 DUP4 GT PUSH2 0x592 JUMPI PUSH1 0x40 MLOAD PUSH32 0x8C379A000000000000000000000000000000000000000000000000000000000 DUP2 MSTORE PUSH1 0x4 ADD PUSH2 0x589 SWAP1 PUSH2 0x1011 JUMP JUMPDEST PUSH1 0x40 MLOAD DUP1 SWAP2 SUB SWAP1 REVERT JUMPDEST DUP3 PUSH1 0xA PUSH0 CALLER PUSH20 0xFFFFFFFFFFFFFFFFFFFFFFFFFFFFFFFFFFFFFFFF AND PUSH20 0xFFFFFFFFFFFFFFFFFFFFFFFFFFFFFFFFFFFFFFFF AND DUP2 MSTORE PUSH1 0x20 ADD SWAP1 DUP2 MSTORE PUSH1 0x20 ADD PUSH0 KECCAK256 PUSH0 ADD DUP2 SWAP1 SSTORE POP DUP2 PUSH1 0xA PUSH0 CALLER PUSH20 0xFFFFFFFFFFFFFFFFFFFFFFFFFFFFFFFFFFFFFFFF AND PUSH20 0xFFFFFFFFFFFFFFFFFFFFFFFFFFFFFFFFFFFFFFFF AND DUP2 MSTORE PUSH1 0x20 ADD SWAP1 DUP2 MSTORE PUSH1 0x20 ADD PUSH0 KECCAK256 PUSH1 0x1 ADD SWAP1 DUP2 PUSH2 0x623 SWAP2 SWAP1 PUSH2 0x1229 JUMP JUMPDEST POP DUP1 TIMESTAMP PUSH2 0x630 SWAP2 SWAP1 PUSH2 0xD89 JUMP JUMPDEST PUSH1 0xA PUSH0 CALLER PUSH20 0xFFFFFFFFFFFFFFFFFFFFFFFFFFFFFFFFFFFFFFFF AND PUSH20 0xFFFFFFFFFFFFFFFFFFFFFFFFFFFFFFFFFFFFFFFF AND DUP2 MSTORE PUSH1 0x20 ADD SWAP1 DUP2 MSTORE PUSH1 0x20 ADD PUSH0 KECCAK256 PUSH1 0x2 ADD DUP2 SWAP1 SSTORE POP PUSH0 DUP1 SLOAD SWAP1 PUSH2 0x100 EXP SWAP1 DIV PUSH20 0xFFFFFFFFFFFFFFFFFFFFFFFFFFFFFFFFFFFFFFFF AND PUSH20 0xFFFFFFFFFFFFFFFFFFFFFFFFFFFFFFFFFFFFFFFF AND PUSH4 0x23B872DD CALLER ADDRESS DUP7 PUSH1 0x40 MLOAD DUP5 PUSH4 0xFFFFFFFF AND PUSH1 0xE0 SHL DUP2 MSTORE PUSH1 0x4 ADD PUSH2 0x6D0 SWAP4 SWAP3 SWAP2 SWAP1 PUSH2 0x12F8 JUMP JUMPDEST PUSH1 0x20 PUSH1 0x40 MLOAD DUP1 DUP4 SUB DUP2 PUSH0 DUP8 GAS CALL ISZERO DUP1 ISZERO PUSH2 0x6EC JUMPI RETURNDATASIZE PUSH0 DUP1 RETURNDATACOPY RETURNDATASIZE PUSH0 REVERT JUMPDEST POP POP POP POP PUSH1 0x40 MLOAD RETURNDATASIZE PUSH1 0x1F NOT PUSH1 0x1F DUP3 ADD AND DUP3 ADD DUP1 PUSH1 0x40 MSTORE POP DUP2 ADD SWAP1 PUSH2 0x710 SWAP2 SWAP1 PUSH2 0x1362 JUMP JUMPDEST POP PUSH32 0x96C68044657FCB3BEA5AD282F026BD0361F647D377DFE1615A77E35DD87280A1 CALLER DUP5 TIMESTAMP PUSH1 0x40 MLOAD PUSH2 0x744 SWAP4 SWAP3 SWAP2 SWAP1 PUSH2 0x138D JUMP JUMPDEST PUSH1 0x40 MLOAD DUP1 SWAP2 SUB SWAP1 LOG1 PUSH2 0x8D3 JUMP JUMPDEST PUSH1 0x40 MLOAD PUSH1 0x20 ADD PUSH2 0x760 SWAP1 PUSH2 0x140C JUMP JUMPDEST PUSH1 0x40 MLOAD PUSH1 0x20 DUP2 DUP4 SUB SUB DUP2 MSTORE SWAP1 PUSH1 0x40 MSTORE DUP1 MLOAD SWAP1 PUSH1 0x20 ADD KECCAK256 DUP3 PUSH1 0x40 MLOAD PUSH1 0x20 ADD PUSH2 0x787 SWAP2 SWAP1 PUSH2 0xF8B JUMP JUMPDEST PUSH1 0x40 MLOAD PUSH1 0x20 DUP2 DUP4 SUB SUB DUP2 MSTORE SWAP1 PUSH1 0x40 MSTORE DUP1 MLOAD SWAP1 PUSH1 0x20 ADD KECCAK256 SUB PUSH2 0x8D2 JUMPI DUP3 PUSH1 0xA PUSH0 CALLER PUSH20 0xFFFFFFFFFFFFFFFFFFFFFFFFFFFFFFFFFFFFFFFF AND PUSH20 0xFFFFFFFFFFFFFFFFFFFFFFFFFFFFFFFFFFFFFFFF AND DUP2 MSTORE PUSH1 0x20 ADD SWAP1 DUP2 MSTORE PUSH1 0x20 ADD PUSH0 KECCAK256 PUSH0 ADD DUP2 SWAP1 SSTORE POP DUP2 PUSH1 0xA PUSH0 CALLER PUSH20 0xFFFFFFFFFFFFFFFFFFFFFFFFFFFFFFFFFFFFFFFF AND PUSH20 0xFFFFFFFFFFFFFFFFFFFFFFFFFFFFFFFFFFFFFFFF AND DUP2 MSTORE PUSH1 0x20 ADD SWAP1 DUP2 MSTORE PUSH1 0x20 ADD PUSH0 KECCAK256 PUSH1 0x1 ADD SWAP1 DUP2 PUSH2 0x833 SWAP2 SWAP1 PUSH2 0x1229 JUMP JUMPDEST POP PUSH0 DUP1 SLOAD SWAP1 PUSH2 0x100 EXP SWAP1 DIV PUSH20 0xFFFFFFFFFFFFFFFFFFFFFFFFFFFFFFFFFFFFFFFF AND PUSH20 0xFFFFFFFFFFFFFFFFFFFFFFFFFFFFFFFFFFFFFFFF AND PUSH4 0x23B872DD CALLER ADDRESS DUP7 PUSH1 0x40 MLOAD DUP5 PUSH4 0xFFFFFFFF AND PUSH1 0xE0 SHL DUP2 MSTORE PUSH1 0x4 ADD PUSH2 0x890 SWAP4 SWAP3 SWAP2 SWAP1 PUSH2 0x12F8 JUMP JUMPDEST PUSH1 0x20 PUSH1 0x40 MLOAD DUP1 DUP4 SUB DUP2 PUSH0 DUP8 GAS CALL ISZERO DUP1 ISZERO PUSH2 0x8AC JUMPI RETURNDATASIZE PUSH0 DUP1 RETURNDATACOPY RETURNDATASIZE PUSH0 REVERT JUMPDEST POP POP POP POP PUSH1 0x40 MLOAD RETURNDATASIZE PUSH1 0x1F NOT PUSH1 0x1F DUP3 ADD AND DUP3 ADD DUP1 PUSH1 0x40 MSTORE POP DUP2 ADD SWAP1 PUSH2 0x8D0 SWAP2 SWAP1 PUSH2 0x1362 JUMP JUMPDEST POP JUMPDEST JUMPDEST POP POP POP JUMP JUMPDEST PUSH1 0xA PUSH1 0x20 MSTORE DUP1 PUSH0 MSTORE PUSH1 0x40 PUSH0 KECCAK256 PUSH0 SWAP2 POP SWAP1 POP DUP1 PUSH0 ADD SLOAD SWAP1 DUP1 PUSH1 0x1 ADD DUP1 SLOAD PUSH2 0x8FD SWAP1 PUSH2 0x105C JUMP JUMPDEST DUP1 PUSH1 0x1F ADD PUSH1 0x20 DUP1 SWAP2 DIV MUL PUSH1 0x20 ADD PUSH1 0x40 MLOAD SWAP1 DUP2 ADD PUSH1 0x40 MSTORE DUP1 SWAP3 SWAP2 SWAP1 DUP2 DUP2 MSTORE PUSH1 0x20 ADD DUP3 DUP1 SLOAD PUSH2 0x929 SWAP1 PUSH2 0x105C JUMP JUMPDEST DUP1 ISZERO PUSH2 0x974 JUMPI DUP1 PUSH1 0x1F LT PUSH2 0x94B JUMPI PUSH2 0x100 DUP1 DUP4 SLOAD DIV MUL DUP4 MSTORE SWAP2 PUSH1 0x20 ADD SWAP2 PUSH2 0x974 JUMP JUMPDEST DUP3 ADD SWAP2 SWAP1 PUSH0 MSTORE PUSH1 0x20 PUSH0 KECCAK256 SWAP1 JUMPDEST DUP2 SLOAD DUP2 MSTORE SWAP1 PUSH1 0x1 ADD SWAP1 PUSH1 0x20 ADD DUP1 DUP4 GT PUSH2 0x957 JUMPI DUP3 SWAP1 SUB PUSH1 0x1F AND DUP3 ADD SWAP2 JUMPDEST POP POP POP POP POP SWAP1 DUP1 PUSH1 0x2 ADD SLOAD SWAP1 POP DUP4 JUMP JUMPDEST PUSH0 PUSH20 0xFFFFFFFFFFFFFFFFFFFFFFFFFFFFFFFFFFFFFFFF DUP3 AND SWAP1 POP SWAP2 SWAP1 POP JUMP JUMPDEST PUSH0 PUSH2 0x9AD DUP3 PUSH2 0x984 JUMP JUMPDEST SWAP1 POP SWAP2 SWAP1 POP JUMP JUMPDEST PUSH2 0x9BD DUP2 PUSH2 0x9A3 JUMP JUMPDEST DUP3 MSTORE POP POP JUMP JUMPDEST PUSH0 PUSH1 0x20 DUP3 ADD SWAP1 POP PUSH2 0x9D6 PUSH0 DUP4 ADD DUP5 PUSH2 0x9B4 JUMP JUMPDEST SWAP3 SWAP2 POP POP JUMP JUMPDEST PUSH0 DUP2 MLOAD SWAP1 POP SWAP2 SWAP1 POP JUMP JUMPDEST PUSH0 DUP3 DUP3 MSTORE PUSH1 0x20 DUP3 ADD SWAP1 POP SWAP3 SWAP2 POP POP JUMP JUMPDEST PUSH0 JUMPDEST DUP4 DUP2 LT ISZERO PUSH2 0xA13 JUMPI DUP1 DUP3 ADD MLOAD DUP2 DUP5 ADD MSTORE PUSH1 0x20 DUP2 ADD SWAP1 POP PUSH2 0x9F8 JUMP JUMPDEST PUSH0 DUP5 DUP5 ADD MSTORE POP POP POP POP JUMP JUMPDEST PUSH0 PUSH1 0x1F NOT PUSH1 0x1F DUP4 ADD AND SWAP1 POP SWAP2 SWAP1 POP JUMP JUMPDEST PUSH0 PUSH2 0xA38 DUP3 PUSH2 0x9DC JUMP JUMPDEST PUSH2 0xA42 DUP2 DUP6 PUSH2 0x9E6 JUMP JUMPDEST SWAP4 POP PUSH2 0xA52 DUP2 DUP6 PUSH1 0x20 DUP7 ADD PUSH2 0x9F6 JUMP JUMPDEST PUSH2 0xA5B DUP2 PUSH2 0xA1E JUMP JUMPDEST DUP5 ADD SWAP2 POP POP SWAP3 SWAP2 POP POP JUMP JUMPDEST PUSH0 PUSH1 0x20 DUP3 ADD SWAP1 POP DUP2 DUP2 SUB PUSH0 DUP4 ADD MSTORE PUSH2 0xA7E DUP2 DUP5 PUSH2 0xA2E JUMP JUMPDEST SWAP1 POP SWAP3 SWAP2 POP POP JUMP JUMPDEST PUSH0 PUSH1 0x40 MLOAD SWAP1 POP SWAP1 JUMP JUMPDEST PUSH0 DUP1 REVERT JUMPDEST PUSH0 DUP1 REVERT JUMPDEST PUSH2 0xAA0 DUP2 PUSH2 0x9A3 JUMP JUMPDEST DUP2 EQ PUSH2 0xAAA JUMPI PUSH0 DUP1 REVERT JUMPDEST POP JUMP JUMPDEST PUSH0 DUP2 CALLDATALOAD SWAP1 POP PUSH2 0xABB DUP2 PUSH2 0xA97 JUMP JUMPDEST SWAP3 SWAP2 POP POP JUMP JUMPDEST PUSH0 PUSH1 0x20 DUP3 DUP5 SUB SLT ISZERO PUSH2 0xAD6 JUMPI PUSH2 0xAD5 PUSH2 0xA8F JUMP JUMPDEST JUMPDEST PUSH0 PUSH2 0xAE3 DUP5 DUP3 DUP6 ADD PUSH2 0xAAD JUMP JUMPDEST SWAP2 POP POP SWAP3 SWAP2 POP POP JUMP JUMPDEST PUSH0 DUP2 SWAP1 POP SWAP2 SWAP1 POP JUMP JUMPDEST PUSH2 0xAFE DUP2 PUSH2 0xAEC JUMP JUMPDEST DUP3 MSTORE POP POP JUMP JUMPDEST PUSH0 PUSH1 0x20 DUP3 ADD SWAP1 POP PUSH2 0xB17 PUSH0 DUP4 ADD DUP5 PUSH2 0xAF5 JUMP JUMPDEST SWAP3 SWAP2 POP POP JUMP JUMPDEST PUSH2 0xB26 DUP2 PUSH2 0xAEC JUMP JUMPDEST DUP2 EQ PUSH2 0xB30 JUMPI PUSH0 DUP1 REVERT JUMPDEST POP JUMP JUMPDEST PUSH0 DUP2 CALLDATALOAD SWAP1 POP PUSH2 0xB41 DUP2 PUSH2 0xB1D JUMP JUMPDEST SWAP3 SWAP2 POP POP JUMP JUMPDEST PUSH0 DUP1 REVERT JUMPDEST PUSH0 DUP1 REVERT JUMPDEST PUSH32 0x4E487B7100000000000000000000000000000000000000000000000000000000 PUSH0 MSTORE PUSH1 0x41 PUSH1 0x4 MSTORE PUSH1 0x24 PUSH0 REVERT JUMPDEST PUSH2 0xB85 DUP3 PUSH2 0xA1E JUMP JUMPDEST DUP2 ADD DUP2 DUP2 LT PUSH8 0xFFFFFFFFFFFFFFFF DUP3 GT OR ISZERO PUSH2 0xBA4 JUMPI PUSH2 0xBA3 PUSH2 0xB4F JUMP JUMPDEST JUMPDEST DUP1 PUSH1 0x40 MSTORE POP POP POP JUMP JUMPDEST PUSH0 PUSH2 0xBB6 PUSH2 0xA86 JUMP JUMPDEST SWAP1 POP PUSH2 0xBC2 DUP3 DUP3 PUSH2 0xB7C JUMP JUMPDEST SWAP2 SWAP1 POP JUMP JUMPDEST PUSH0 PUSH8 0xFFFFFFFFFFFFFFFF DUP3 GT ISZERO PUSH2 0xBE1 JUMPI PUSH2 0xBE0 PUSH2 0xB4F JUMP JUMPDEST JUMPDEST PUSH2 0xBEA DUP3 PUSH2 0xA1E JUMP JUMPDEST SWAP1 POP PUSH1 0x20 DUP2 ADD SWAP1 POP SWAP2 SWAP1 POP JUMP JUMPDEST DUP3 DUP2 DUP4 CALLDATACOPY PUSH0 DUP4 DUP4 ADD MSTORE POP POP POP JUMP JUMPDEST PUSH0 PUSH2 0xC17 PUSH2 0xC12 DUP5 PUSH2 0xBC7 JUMP JUMPDEST PUSH2 0xBAD JUMP JUMPDEST SWAP1 POP DUP3 DUP2 MSTORE PUSH1 0x20 DUP2 ADD DUP5 DUP5 DUP5 ADD GT ISZERO PUSH2 0xC33 JUMPI PUSH2 0xC32 PUSH2 0xB4B JUMP JUMPDEST JUMPDEST PUSH2 0xC3E DUP5 DUP3 DUP6 PUSH2 0xBF7 JUMP JUMPDEST POP SWAP4 SWAP3 POP POP POP JUMP JUMPDEST PUSH0 DUP3 PUSH1 0x1F DUP4 ADD SLT PUSH2 0xC5A JUMPI PUSH2 0xC59 PUSH2 0xB47 JUMP JUMPDEST JUMPDEST DUP2 CALLDATALOAD PUSH2 0xC6A DUP5 DUP3 PUSH1 0x20 DUP7 ADD PUSH2 0xC05 JUMP JUMPDEST SWAP2 POP POP SWAP3 SWAP2 POP POP JUMP JUMPDEST PUSH0 DUP1 PUSH0 PUSH1 0x60 DUP5 DUP7 SUB SLT ISZERO PUSH2 0xC8A JUMPI PUSH2 0xC89 PUSH2 0xA8F JUMP JUMPDEST JUMPDEST PUSH0 PUSH2 0xC97 DUP7 DUP3 DUP8 ADD PUSH2 0xB33 JUMP JUMPDEST SWAP4 POP POP PUSH1 0x20 DUP5 ADD CALLDATALOAD PUSH8 0xFFFFFFFFFFFFFFFF DUP2 GT ISZERO PUSH2 0xCB8 JUMPI PUSH2 0xCB7 PUSH2 0xA93 JUMP JUMPDEST JUMPDEST PUSH2 0xCC4 DUP7 DUP3 DUP8 ADD PUSH2 0xC46 JUMP JUMPDEST SWAP3 POP POP PUSH1 0x40 PUSH2 0xCD5 DUP7 DUP3 DUP8 ADD PUSH2 0xB33 JUMP JUMPDEST SWAP2 POP POP SWAP3 POP SWAP3 POP SWAP3 JUMP JUMPDEST PUSH0 PUSH1 0x60 DUP3 ADD SWAP1 POP PUSH2 0xCF2 PUSH0 DUP4 ADD DUP7 PUSH2 0xAF5 JUMP JUMPDEST DUP2 DUP2 SUB PUSH1 0x20 DUP4 ADD MSTORE PUSH2 0xD04 DUP2 DUP6 PUSH2 0xA2E JUMP JUMPDEST SWAP1 POP PUSH2 0xD13 PUSH1 0x40 DUP4 ADD DUP5 PUSH2 0xAF5 JUMP JUMPDEST SWAP5 SWAP4 POP POP POP POP JUMP JUMPDEST PUSH32 0x4E487B7100000000000000000000000000000000000000000000000000000000 PUSH0 MSTORE PUSH1 0x11 PUSH1 0x4 MSTORE PUSH1 0x24 PUSH0 REVERT JUMPDEST PUSH0 PUSH2 0xD52 DUP3 PUSH2 0xAEC JUMP JUMPDEST SWAP2 POP PUSH2 0xD5D DUP4 PUSH2 0xAEC JUMP JUMPDEST SWAP3 POP DUP3 DUP3 MUL PUSH2 0xD6B DUP2 PUSH2 0xAEC JUMP JUMPDEST SWAP2 POP DUP3 DUP3 DIV DUP5 EQ DUP4 ISZERO OR PUSH2 0xD82 JUMPI PUSH2 0xD81 PUSH2 0xD1B JUMP JUMPDEST JUMPDEST POP SWAP3 SWAP2 POP POP JUMP JUMPDEST PUSH0 PUSH2 0xD93 DUP3 PUSH2 0xAEC JUMP JUMPDEST SWAP2 POP PUSH2 0xD9E DUP4 PUSH2 0xAEC JUMP JUMPDEST SWAP3 POP DUP3 DUP3 ADD SWAP1 POP DUP1 DUP3 GT ISZERO PUSH2 0xDB6 JUMPI PUSH2 0xDB5 PUSH2 0xD1B JUMP JUMPDEST JUMPDEST SWAP3 SWAP2 POP POP JUMP JUMPDEST PUSH32 0x4E487B7100000000000000000000000000000000000000000000000000000000 PUSH0 MSTORE PUSH1 0x12 PUSH1 0x4 MSTORE PUSH1 0x24 PUSH0 REVERT JUMPDEST PUSH0 PUSH2 0xDF3 DUP3 PUSH2 0xAEC JUMP JUMPDEST SWAP2 POP PUSH2 0xDFE DUP4 PUSH2 0xAEC JUMP JUMPDEST SWAP3 POP DUP3 PUSH2 0xE0E JUMPI PUSH2 0xE0D PUSH2 0xDBC JUMP JUMPDEST JUMPDEST DUP3 DUP3 DIV SWAP1 POP SWAP3 SWAP2 POP POP JUMP JUMPDEST PUSH0 PUSH2 0xE23 DUP3 PUSH2 0xAEC JUMP JUMPDEST SWAP2 POP PUSH2 0xE2E DUP4 PUSH2 0xAEC JUMP JUMPDEST SWAP3 POP DUP3 DUP3 SUB SWAP1 POP DUP2 DUP2 GT ISZERO PUSH2 0xE46 JUMPI PUSH2 0xE45 PUSH2 0xD1B JUMP JUMPDEST JUMPDEST SWAP3 SWAP2 POP POP JUMP JUMPDEST PUSH0 DUP2 MLOAD SWAP1 POP PUSH2 0xE5A DUP2 PUSH2 0xB1D JUMP JUMPDEST SWAP3 SWAP2 POP POP JUMP JUMPDEST PUSH0 PUSH1 0x20 DUP3 DUP5 SUB SLT ISZERO PUSH2 0xE75 JUMPI PUSH2 0xE74 PUSH2 0xA8F JUMP JUMPDEST JUMPDEST PUSH0 PUSH2 0xE82 DUP5 DUP3 DUP6 ADD PUSH2 0xE4C JUMP JUMPDEST SWAP2 POP POP SWAP3 SWAP2 POP POP JUMP JUMPDEST PUSH32 0x496E73756666696369656E742042616C616E6365000000000000000000000000 PUSH0 DUP3 ADD MSTORE POP JUMP JUMPDEST PUSH0 PUSH2 0xEBF PUSH1 0x14 DUP4 PUSH2 0x9E6 JUMP JUMPDEST SWAP2 POP PUSH2 0xECA DUP3 PUSH2 0xE8B JUMP JUMPDEST PUSH1 0x20 DUP3 ADD SWAP1 POP SWAP2 SWAP1 POP JUMP JUMPDEST PUSH0 PUSH1 0x20 DUP3 ADD SWAP1 POP DUP2 DUP2 SUB PUSH0 DUP4 ADD MSTORE PUSH2 0xEEC DUP2 PUSH2 0xEB3 JUMP JUMPDEST SWAP1 POP SWAP2 SWAP1 POP JUMP JUMPDEST PUSH0 DUP2 SWAP1 POP SWAP3 SWAP2 POP POP JUMP JUMPDEST PUSH32 0x6669786564000000000000000000000000000000000000000000000000000000 PUSH0 DUP3 ADD MSTORE POP JUMP JUMPDEST PUSH0 PUSH2 0xF31 PUSH1 0x5 DUP4 PUSH2 0xEF3 JUMP JUMPDEST SWAP2 POP PUSH2 0xF3C DUP3 PUSH2 0xEFD JUMP JUMPDEST PUSH1 0x5 DUP3 ADD SWAP1 POP SWAP2 SWAP1 POP JUMP JUMPDEST PUSH0 PUSH2 0xF51 DUP3 PUSH2 0xF25 JUMP JUMPDEST SWAP2 POP DUP2 SWAP1 POP SWAP2 SWAP1 POP JUMP JUMPDEST PUSH0 PUSH2 0xF65 DUP3 PUSH2 0x9DC JUMP JUMPDEST PUSH2 0xF6F DUP2 DUP6 PUSH2 0xEF3 JUMP JUMPDEST SWAP4 POP PUSH2 0xF7F DUP2 DUP6 PUSH1 0x20 DUP7 ADD PUSH2 0x9F6 JUMP JUMPDEST DUP1 DUP5 ADD SWAP2 POP POP SWAP3 SWAP2 POP POP JUMP JUMPDEST PUSH0 PUSH2 0xF96 DUP3 DUP5 PUSH2 0xF5B JUMP JUMPDEST SWAP2 POP DUP2 SWAP1 POP SWAP3 SWAP2 POP POP JUMP JUMPDEST PUSH32 0x205374616B652063616E206E6F742062652030202C20456E74657220736F6D65 PUSH0 DUP3 ADD MSTORE PUSH32 0x20616D6F756E74206F6620746F6B656E73000000000000000000000000000000 PUSH1 0x20 DUP3 ADD MSTORE POP JUMP JUMPDEST PUSH0 PUSH2 0xFFB PUSH1 0x31 DUP4 PUSH2 0x9E6 JUMP JUMPDEST SWAP2 POP PUSH2 0x1006 DUP3 PUSH2 0xFA1 JUMP JUMPDEST PUSH1 0x40 DUP3 ADD SWAP1 POP SWAP2 SWAP1 POP JUMP JUMPDEST PUSH0 PUSH1 0x20 DUP3 ADD SWAP1 POP DUP2 DUP2 SUB PUSH0 DUP4 ADD MSTORE PUSH2 0x1028 DUP2 PUSH2 0xFEF JUMP JUMPDEST SWAP1 POP SWAP2 SWAP1 POP JUMP JUMPDEST PUSH32 0x4E487B7100000000000000000000000000000000000000000000000000000000 PUSH0 MSTORE PUSH1 0x22 PUSH1 0x4 MSTORE PUSH1 0x24 PUSH0 REVERT JUMPDEST PUSH0 PUSH1 0x2 DUP3 DIV SWAP1 POP PUSH1 0x1 DUP3 AND DUP1 PUSH2 0x1073 JUMPI PUSH1 0x7F DUP3 AND SWAP2 POP JUMPDEST PUSH1 0x20 DUP3 LT DUP2 SUB PUSH2 0x1086 JUMPI PUSH2 0x1085 PUSH2 0x102F JUMP JUMPDEST JUMPDEST POP SWAP2 SWAP1 POP JUMP JUMPDEST PUSH0 DUP2 SWAP1 POP DUP2 PUSH0 MSTORE PUSH1 0x20 PUSH0 KECCAK256 SWAP1 POP SWAP2 SWAP1 POP JUMP JUMPDEST PUSH0 PUSH1 0x20 PUSH1 0x1F DUP4 ADD DIV SWAP1 POP SWAP2 SWAP1 POP JUMP JUMPDEST PUSH0 DUP3 DUP3 SHL SWAP1 POP SWAP3 SWAP2 POP POP JUMP JUMPDEST PUSH0 PUSH1 0x8 DUP4 MUL PUSH2 0x10E8 PUSH32 0xFFFFFFFFFFFFFFFFFFFFFFFFFFFFFFFFFFFFFFFFFFFFFFFFFFFFFFFFFFFFFFFF DUP3 PUSH2 0x10AD JUMP JUMPDEST PUSH2 0x10F2 DUP7 DUP4 PUSH2 0x10AD JUMP JUMPDEST SWAP6 POP DUP1 NOT DUP5 AND SWAP4 POP DUP1 DUP7 AND DUP5 OR SWAP3 POP POP POP SWAP4 SWAP3 POP POP POP JUMP JUMPDEST PUSH0 DUP2 SWAP1 POP SWAP2 SWAP1 POP JUMP JUMPDEST PUSH0 PUSH2 0x112D PUSH2 0x1128 PUSH2 0x1123 DUP5 PUSH2 0xAEC JUMP JUMPDEST PUSH2 0x110A JUMP JUMPDEST PUSH2 0xAEC JUMP JUMPDEST SWAP1 POP SWAP2 SWAP1 POP JUMP JUMPDEST PUSH0 DUP2 SWAP1 POP SWAP2 SWAP1 POP JUMP JUMPDEST PUSH2 0x1146 DUP4 PUSH2 0x1113 JUMP JUMPDEST PUSH2 0x115A PUSH2 0x1152 DUP3 PUSH2 0x1134 JUMP JUMPDEST DUP5 DUP5 SLOAD PUSH2 0x10B9 JUMP JUMPDEST DUP3 SSTORE POP POP POP POP JUMP JUMPDEST PUSH0 SWAP1 JUMP JUMPDEST PUSH2 0x116E PUSH2 0x1162 JUMP JUMPDEST PUSH2 0x1179 DUP2 DUP5 DUP5 PUSH2 0x113D JUMP JUMPDEST POP POP POP JUMP JUMPDEST JUMPDEST DUP2 DUP2 LT ISZERO PUSH2 0x119C JUMPI PUSH2 0x1191 PUSH0 DUP3 PUSH2 0x1166 JUMP JUMPDEST PUSH1 0x1 DUP2 ADD SWAP1 POP PUSH2 0x117F JUMP JUMPDEST POP POP JUMP JUMPDEST PUSH1 0x1F DUP3 GT ISZERO PUSH2 0x11E1 JUMPI PUSH2 0x11B2 DUP2 PUSH2 0x108C JUMP JUMPDEST PUSH2 0x11BB DUP5 PUSH2 0x109E JUMP JUMPDEST DUP2 ADD PUSH1 0x20 DUP6 LT ISZERO PUSH2 0x11CA JUMPI DUP2 SWAP1 POP JUMPDEST PUSH2 0x11DE PUSH2 0x11D6 DUP6 PUSH2 0x109E JUMP JUMPDEST DUP4 ADD DUP3 PUSH2 0x117E JUMP JUMPDEST POP POP JUMPDEST POP POP POP JUMP JUMPDEST PUSH0 DUP3 DUP3 SHR SWAP1 POP SWAP3 SWAP2 POP POP JUMP JUMPDEST PUSH0 PUSH2 0x1201 PUSH0 NOT DUP5 PUSH1 0x8 MUL PUSH2 0x11E6 JUMP JUMPDEST NOT DUP1 DUP4 AND SWAP2 POP POP SWAP3 SWAP2 POP POP JUMP JUMPDEST PUSH0 PUSH2 0x1219 DUP4 DUP4 PUSH2 0x11F2 JUMP JUMPDEST SWAP2 POP DUP3 PUSH1 0x2 MUL DUP3 OR SWAP1 POP SWAP3 SWAP2 POP POP JUMP JUMPDEST PUSH2 0x1232 DUP3 PUSH2 0x9DC JUMP JUMPDEST PUSH8 0xFFFFFFFFFFFFFFFF DUP2 GT ISZERO PUSH2 0x124B JUMPI PUSH2 0x124A PUSH2 0xB4F JUMP JUMPDEST JUMPDEST PUSH2 0x1255 DUP3 SLOAD PUSH2 0x105C JUMP JUMPDEST PUSH2 0x1260 DUP3 DUP3 DUP6 PUSH2 0x11A0 JUMP JUMPDEST PUSH0 PUSH1 0x20 SWAP1 POP PUSH1 0x1F DUP4 GT PUSH1 0x1 DUP2 EQ PUSH2 0x1291 JUMPI PUSH0 DUP5 ISZERO PUSH2 0x127F JUMPI DUP3 DUP8 ADD MLOAD SWAP1 POP JUMPDEST PUSH2 0x1289 DUP6 DUP3 PUSH2 0x120E JUMP JUMPDEST DUP7 SSTORE POP PUSH2 0x12F0 JUMP JUMPDEST PUSH1 0x1F NOT DUP5 AND PUSH2 0x129F DUP7 PUSH2 0x108C JUMP JUMPDEST PUSH0 JUMPDEST DUP3 DUP2 LT ISZERO PUSH2 0x12C6 JUMPI DUP5 DUP10 ADD MLOAD DUP3 SSTORE PUSH1 0x1 DUP3 ADD SWAP2 POP PUSH1 0x20 DUP6 ADD SWAP5 POP PUSH1 0x20 DUP2 ADD SWAP1 POP PUSH2 0x12A1 JUMP JUMPDEST DUP7 DUP4 LT ISZERO PUSH2 0x12E3 JUMPI DUP5 DUP10 ADD MLOAD PUSH2 0x12DF PUSH1 0x1F DUP10 AND DUP3 PUSH2 0x11F2 JUMP JUMPDEST DUP4 SSTORE POP JUMPDEST PUSH1 0x1 PUSH1 0x2 DUP9 MUL ADD DUP9 SSTORE POP POP POP JUMPDEST POP POP POP POP POP POP JUMP JUMPDEST PUSH0 PUSH1 0x60 DUP3 ADD SWAP1 POP PUSH2 0x130B PUSH0 DUP4 ADD DUP7 PUSH2 0x9B4 JUMP JUMPDEST PUSH2 0x1318 PUSH1 0x20 DUP4 ADD DUP6 PUSH2 0x9B4 JUMP JUMPDEST PUSH2 0x1325 PUSH1 0x40 DUP4 ADD DUP5 PUSH2 0xAF5 JUMP JUMPDEST SWAP5 SWAP4 POP POP POP POP JUMP JUMPDEST PUSH0 DUP2 ISZERO ISZERO SWAP1 POP SWAP2 SWAP1 POP JUMP JUMPDEST PUSH2 0x1341 DUP2 PUSH2 0x132D JUMP JUMPDEST DUP2 EQ PUSH2 0x134B JUMPI PUSH0 DUP1 REVERT JUMPDEST POP JUMP JUMPDEST PUSH0 DUP2 MLOAD SWAP1 POP PUSH2 0x135C DUP2 PUSH2 0x1338 JUMP JUMPDEST SWAP3 SWAP2 POP POP JUMP JUMPDEST PUSH0 PUSH1 0x20 DUP3 DUP5 SUB SLT ISZERO PUSH2 0x1377 JUMPI PUSH2 0x1376 PUSH2 0xA8F JUMP JUMPDEST JUMPDEST PUSH0 PUSH2 0x1384 DUP5 DUP3 DUP6 ADD PUSH2 0x134E JUMP JUMPDEST SWAP2 POP POP SWAP3 SWAP2 POP POP JUMP JUMPDEST PUSH0 PUSH1 0x60 DUP3 ADD SWAP1 POP PUSH2 0x13A0 PUSH0 DUP4 ADD DUP7 PUSH2 0x9B4 JUMP JUMPDEST PUSH2 0x13AD PUSH1 0x20 DUP4 ADD DUP6 PUSH2 0xAF5 JUMP JUMPDEST PUSH2 0x13BA PUSH1 0x40 DUP4 ADD DUP5 PUSH2 0xAF5 JUMP JUMPDEST SWAP5 SWAP4 POP POP POP POP JUMP JUMPDEST PUSH32 0x756E666978656400000000000000000000000000000000000000000000000000 PUSH0 DUP3 ADD MSTORE POP JUMP JUMPDEST PUSH0 PUSH2 0x13F6 PUSH1 0x7 DUP4 PUSH2 0xEF3 JUMP JUMPDEST SWAP2 POP PUSH2 0x1401 DUP3 PUSH2 0x13C2 JUMP JUMPDEST PUSH1 0x7 DUP3 ADD SWAP1 POP SWAP2 SWAP1 POP JUMP JUMPDEST PUSH0 PUSH2 0x1416 DUP3 PUSH2 0x13EA JUMP JUMPDEST SWAP2 POP DUP2 SWAP1 POP SWAP2 SWAP1 POP JUMP INVALID LOG2 PUSH5 0x6970667358 0x22 SLT KECCAK256 PUSH4 0xC63650F1 SWAP15 0xD6 0xAE 0x22 MULMOD DUP12 EXTCODECOPY LT SAR JUMP PUSH5 0x5B622ABAFA SWAP8 PUSH28 0x84F3403227ACB713E564736F6C634300081400330000000000000000 "
				},
				"gasEstimates": {
					"creation": {
						"codeDepositCost": "1041200",
						"executionCost": "infinite",
						"totalCost": "infinite"
					},
					"external": {
						"Stake_details(address)": "infinite",
						"getcontractaddress()": "357",
						"interestCalculated(address)": "infinite",
						"staking(uint256,string,uint256)": "infinite",
						"unstaking()": "infinite"
					}
				},
				"methodIdentifiers": {
					"Stake_details(address)": "f42f2e82",
					"getcontractaddress()": "15621373",
					"interestCalculated(address)": "8cdec859",
					"staking(uint256,string,uint256)": "a6acb7ee",
					"unstaking()": "630b1146"
				}
			},
			"storageLayout": {
				"storage": [
					{
						"astId": 337,
						"contract": "Final Assignment/final_assignment_staking 1.sol:Staking_Token",
						"label": "Token",
						"offset": 0,
						"slot": "0",
						"type": "t_contract(ERC20Basic)331"
					},
					{
						"astId": 357,
						"contract": "Final Assignment/final_assignment_staking 1.sol:Staking_Token",
						"label": "mapping_address",
						"offset": 0,
						"slot": "1",
						"type": "t_address"
					},
					{
						"astId": 363,
						"contract": "Final Assignment/final_assignment_staking 1.sol:Staking_Token",
						"label": "experttime_forfixedstaking",
						"offset": 0,
						"slot": "2",
						"type": "t_uint256"
					},
					{
						"astId": 366,
						"contract": "Final Assignment/final_assignment_staking 1.sol:Staking_Token",
						"label": "penality_stake",
						"offset": 0,
						"slot": "3",
						"type": "t_uint256"
					},
					{
						"astId": 369,
						"contract": "Final Assignment/final_assignment_staking 1.sol:Staking_Token",
						"label": "fixedinterest_rate",
						"offset": 0,
						"slot": "4",
						"type": "t_uint256"
					},
					{
						"astId": 372,
						"contract": "Final Assignment/final_assignment_staking 1.sol:Staking_Token",
						"label": "unfixedinterest_rate",
						"offset": 0,
						"slot": "5",
						"type": "t_uint256"
					},
					{
						"astId": 374,
						"contract": "Final Assignment/final_assignment_staking 1.sol:Staking_Token",
						"label": "stake_reward",
						"offset": 0,
						"slot": "6",
						"type": "t_uint256"
					},
					{
						"astId": 376,
						"contract": "Final Assignment/final_assignment_staking 1.sol:Staking_Token",
						"label": "Interest",
						"offset": 0,
						"slot": "7",
						"type": "t_uint256"
					},
					{
						"astId": 378,
						"contract": "Final Assignment/final_assignment_staking 1.sol:Staking_Token",
						"label": "totalIntrestAmount",
						"offset": 0,
						"slot": "8",
						"type": "t_uint256"
					},
					{
						"astId": 380,
						"contract": "Final Assignment/final_assignment_staking 1.sol:Staking_Token",
						"label": "finalAmount",
						"offset": 0,
						"slot": "9",
						"type": "t_uint256"
					},
					{
						"astId": 385,
						"contract": "Final Assignment/final_assignment_staking 1.sol:Staking_Token",
						"label": "Stake_details",
						"offset": 0,
						"slot": "10",
						"type": "t_mapping(t_address,t_struct(Stake)355_storage)"
					}
				],
				"types": {
					"t_address": {
						"encoding": "inplace",
						"label": "address",
						"numberOfBytes": "20"
					},
					"t_contract(ERC20Basic)331": {
						"encoding": "inplace",
						"label": "contract ERC20Basic",
						"numberOfBytes": "20"
					},
					"t_mapping(t_address,t_struct(Stake)355_storage)": {
						"encoding": "mapping",
						"key": "t_address",
						"label": "mapping(address => struct Staking_Token.Stake)",
						"numberOfBytes": "32",
						"value": "t_struct(Stake)355_storage"
					},
					"t_string_storage": {
						"encoding": "bytes",
						"label": "string",
						"numberOfBytes": "32"
					},
					"t_struct(Stake)355_storage": {
						"encoding": "inplace",
						"label": "struct Staking_Token.Stake",
						"members": [
							{
								"astId": 350,
								"contract": "Final Assignment/final_assignment_staking 1.sol:Staking_Token",
								"label": "stake_amount",
								"offset": 0,
								"slot": "0",
								"type": "t_uint256"
							},
							{
								"astId": 352,
								"contract": "Final Assignment/final_assignment_staking 1.sol:Staking_Token",
								"label": "stake_type",
								"offset": 0,
								"slot": "1",
								"type": "t_string_storage"
							},
							{
								"astId": 354,
								"contract": "Final Assignment/final_assignment_staking 1.sol:Staking_Token",
								"label": "stake_time",
								"offset": 0,
								"slot": "2",
								"type": "t_uint256"
							}
						],
						"numberOfBytes": "96"
					},
					"t_uint256": {
						"encoding": "inplace",
						"label": "uint256",
						"numberOfBytes": "32"
					}
				}
			},
			"userdoc": {
				"kind": "user",
				"methods": {},
				"version": 1
			}
		}
	}
}