{
	"Final Assignment/final_assignment_staking 1.sol": {
		"Staking_Token": {
			"abi": [
				{
					"inputs": [
						{
							"internalType": "contract ERC20Basic",
							"name": "_addressERC20",
							"type": "address"
						}
					],
					"stateMutability": "nonpayable",
					"type": "constructor"
				},
				{
					"anonymous": false,
					"inputs": [
						{
							"indexed": false,
							"internalType": "address",
							"name": "from",
							"type": "address"
						},
						{
							"indexed": false,
							"internalType": "uint256",
							"name": "amount",
							"type": "uint256"
						},
						{
							"indexed": false,
							"internalType": "uint256",
							"name": "_duration",
							"type": "uint256"
						}
					],
					"name": "tokensStaked",
					"type": "event"
				},
				{
					"inputs": [
						{
							"internalType": "address",
							"name": "",
							"type": "address"
						}
					],
					"name": "Stake_details",
					"outputs": [
						{
							"internalType": "uint256",
							"name": "stake_amount",
							"type": "uint256"
						},
						{
							"internalType": "string",
							"name": "stake_type",
							"type": "string"
						},
						{
							"internalType": "uint256",
							"name": "stake_time",
							"type": "uint256"
						}
					],
					"stateMutability": "view",
					"type": "function"
				},
				{
					"inputs": [],
					"name": "getcontractaddress",
					"outputs": [
						{
							"internalType": "address",
							"name": "",
							"type": "address"
						}
					],
					"stateMutability": "nonpayable",
					"type": "function"
				},
				{
					"inputs": [
						{
							"internalType": "uint256",
							"name": "_amount",
							"type": "uint256"
						},
						{
							"internalType": "string",
							"name": "_type",
							"type": "string"
						},
						{
							"internalType": "uint256",
							"name": "_duration",
							"type": "uint256"
						}
					],
					"name": "staking",
					"outputs": [],
					"stateMutability": "nonpayable",
					"type": "function"
				},
				{
					"inputs": [],
					"name": "unstaking",
					"outputs": [
						{
							"internalType": "string",
							"name": "",
							"type": "string"
						}
					],
					"stateMutability": "nonpayable",
					"type": "function"
				}
			],
			"devdoc": {
				"kind": "dev",
				"methods": {},
				"version": 1
			},
			"evm": {
				"assembly": "    /* \"Final Assignment/final_assignment_staking 1.sol\":87:1851  contract Staking_Token {... */\n  mstore(0x40, 0x80)\n    /* \"Final Assignment/final_assignment_staking 1.sol\":421:424  300 */\n  0x012c\n    /* \"Final Assignment/final_assignment_staking 1.sol\":403:418  block.timestamp */\n  timestamp\n    /* \"Final Assignment/final_assignment_staking 1.sol\":403:424  block.timestamp + 300 */\n  tag_1\n  swap2\n  swap1\n  tag_2\n  jump\t// in\ntag_1:\n    /* \"Final Assignment/final_assignment_staking 1.sol\":369:424  uint experttime_forfixedstaking = block.timestamp + 300 */\n  0x02\n  sstore\n    /* \"Final Assignment/final_assignment_staking 1.sol\":145:221  constructor(ERC20Basic _addressERC20 ){... */\n  callvalue\n  dup1\n  iszero\n  tag_3\n  jumpi\n  0x00\n  dup1\n  revert\ntag_3:\n  pop\n  mload(0x40)\n  sub(codesize, bytecodeSize)\n  dup1\n  bytecodeSize\n  dup4\n  codecopy\n  dup2\n  dup2\n  add\n  0x40\n  mstore\n  dup2\n  add\n  swap1\n  tag_4\n  swap2\n  swap1\n  tag_5\n  jump\t// in\ntag_4:\n    /* \"Final Assignment/final_assignment_staking 1.sol\":200:213  _addressERC20 */\n  dup1\n    /* \"Final Assignment/final_assignment_staking 1.sol\":194:199  Token */\n  0x00\n  dup1\n    /* \"Final Assignment/final_assignment_staking 1.sol\":194:213  Token=_addressERC20 */\n  0x0100\n  exp\n  dup2\n  sload\n  dup2\n  0xffffffffffffffffffffffffffffffffffffffff\n  mul\n  not\n  and\n  swap1\n  dup4\n  0xffffffffffffffffffffffffffffffffffffffff\n  and\n  mul\n  or\n  swap1\n  sstore\n  pop\n    /* \"Final Assignment/final_assignment_staking 1.sol\":145:221  constructor(ERC20Basic _addressERC20 ){... */\n  pop\n    /* \"Final Assignment/final_assignment_staking 1.sol\":87:1851  contract Staking_Token {... */\n  jump(tag_8)\n    /* \"#utility.yul\":7:84   */\ntag_9:\n    /* \"#utility.yul\":44:51   */\n  0x00\n    /* \"#utility.yul\":73:78   */\n  dup2\n    /* \"#utility.yul\":62:78   */\n  swap1\n  pop\n    /* \"#utility.yul\":7:84   */\n  swap2\n  swap1\n  pop\n  jump\t// out\n    /* \"#utility.yul\":90:270   */\ntag_10:\n    /* \"#utility.yul\":138:215   */\n  0x4e487b7100000000000000000000000000000000000000000000000000000000\n    /* \"#utility.yul\":135:136   */\n  0x00\n    /* \"#utility.yul\":128:216   */\n  mstore\n    /* \"#utility.yul\":235:239   */\n  0x11\n    /* \"#utility.yul\":232:233   */\n  0x04\n    /* \"#utility.yul\":225:240   */\n  mstore\n    /* \"#utility.yul\":259:263   */\n  0x24\n    /* \"#utility.yul\":256:257   */\n  0x00\n    /* \"#utility.yul\":249:264   */\n  revert\n    /* \"#utility.yul\":276:467   */\ntag_2:\n    /* \"#utility.yul\":316:319   */\n  0x00\n    /* \"#utility.yul\":335:355   */\n  tag_23\n    /* \"#utility.yul\":353:354   */\n  dup3\n    /* \"#utility.yul\":335:355   */\n  tag_9\n  jump\t// in\ntag_23:\n    /* \"#utility.yul\":330:355   */\n  swap2\n  pop\n    /* \"#utility.yul\":369:389   */\n  tag_24\n    /* \"#utility.yul\":387:388   */\n  dup4\n    /* \"#utility.yul\":369:389   */\n  tag_9\n  jump\t// in\ntag_24:\n    /* \"#utility.yul\":364:389   */\n  swap3\n  pop\n    /* \"#utility.yul\":412:413   */\n  dup3\n    /* \"#utility.yul\":409:410   */\n  dup3\n    /* \"#utility.yul\":405:414   */\n  add\n    /* \"#utility.yul\":398:414   */\n  swap1\n  pop\n    /* \"#utility.yul\":433:436   */\n  dup1\n    /* \"#utility.yul\":430:431   */\n  dup3\n    /* \"#utility.yul\":427:437   */\n  gt\n    /* \"#utility.yul\":424:460   */\n  iszero\n  tag_25\n  jumpi\n    /* \"#utility.yul\":440:458   */\n  tag_26\n  tag_10\n  jump\t// in\ntag_26:\n    /* \"#utility.yul\":424:460   */\ntag_25:\n    /* \"#utility.yul\":276:467   */\n  swap3\n  swap2\n  pop\n  pop\n  jump\t// out\n    /* \"#utility.yul\":554:671   */\ntag_12:\n    /* \"#utility.yul\":663:664   */\n  0x00\n    /* \"#utility.yul\":660:661   */\n  dup1\n    /* \"#utility.yul\":653:665   */\n  revert\n    /* \"#utility.yul\":800:926   */\ntag_14:\n    /* \"#utility.yul\":837:844   */\n  0x00\n    /* \"#utility.yul\":877:919   */\n  0xffffffffffffffffffffffffffffffffffffffff\n    /* \"#utility.yul\":870:875   */\n  dup3\n    /* \"#utility.yul\":866:920   */\n  and\n    /* \"#utility.yul\":855:920   */\n  swap1\n  pop\n    /* \"#utility.yul\":800:926   */\n  swap2\n  swap1\n  pop\n  jump\t// out\n    /* \"#utility.yul\":932:1028   */\ntag_15:\n    /* \"#utility.yul\":969:976   */\n  0x00\n    /* \"#utility.yul\":998:1022   */\n  tag_32\n    /* \"#utility.yul\":1016:1021   */\n  dup3\n    /* \"#utility.yul\":998:1022   */\n  tag_14\n  jump\t// in\ntag_32:\n    /* \"#utility.yul\":987:1022   */\n  swap1\n  pop\n    /* \"#utility.yul\":932:1028   */\n  swap2\n  swap1\n  pop\n  jump\t// out\n    /* \"#utility.yul\":1034:1148   */\ntag_16:\n    /* \"#utility.yul\":1089:1096   */\n  0x00\n    /* \"#utility.yul\":1118:1142   */\n  tag_34\n    /* \"#utility.yul\":1136:1141   */\n  dup3\n    /* \"#utility.yul\":1118:1142   */\n  tag_15\n  jump\t// in\ntag_34:\n    /* \"#utility.yul\":1107:1142   */\n  swap1\n  pop\n    /* \"#utility.yul\":1034:1148   */\n  swap2\n  swap1\n  pop\n  jump\t// out\n    /* \"#utility.yul\":1154:1312   */\ntag_17:\n    /* \"#utility.yul\":1245:1287   */\n  tag_36\n    /* \"#utility.yul\":1281:1286   */\n  dup2\n    /* \"#utility.yul\":1245:1287   */\n  tag_16\n  jump\t// in\ntag_36:\n    /* \"#utility.yul\":1238:1243   */\n  dup2\n    /* \"#utility.yul\":1235:1288   */\n  eq\n    /* \"#utility.yul\":1225:1306   */\n  tag_37\n  jumpi\n    /* \"#utility.yul\":1302:1303   */\n  0x00\n    /* \"#utility.yul\":1299:1300   */\n  dup1\n    /* \"#utility.yul\":1292:1304   */\n  revert\n    /* \"#utility.yul\":1225:1306   */\ntag_37:\n    /* \"#utility.yul\":1154:1312   */\n  pop\n  jump\t// out\n    /* \"#utility.yul\":1318:1497   */\ntag_18:\n    /* \"#utility.yul\":1393:1398   */\n  0x00\n    /* \"#utility.yul\":1424:1430   */\n  dup2\n    /* \"#utility.yul\":1418:1431   */\n  mload\n    /* \"#utility.yul\":1409:1431   */\n  swap1\n  pop\n    /* \"#utility.yul\":1440:1491   */\n  tag_39\n    /* \"#utility.yul\":1485:1490   */\n  dup2\n    /* \"#utility.yul\":1440:1491   */\n  tag_17\n  jump\t// in\ntag_39:\n    /* \"#utility.yul\":1318:1497   */\n  swap3\n  swap2\n  pop\n  pop\n  jump\t// out\n    /* \"#utility.yul\":1503:1890   */\ntag_5:\n    /* \"#utility.yul\":1591:1597   */\n  0x00\n    /* \"#utility.yul\":1640:1642   */\n  0x20\n    /* \"#utility.yul\":1628:1637   */\n  dup3\n    /* \"#utility.yul\":1619:1626   */\n  dup5\n    /* \"#utility.yul\":1615:1638   */\n  sub\n    /* \"#utility.yul\":1611:1643   */\n  slt\n    /* \"#utility.yul\":1608:1727   */\n  iszero\n  tag_41\n  jumpi\n    /* \"#utility.yul\":1646:1725   */\n  tag_42\n  tag_12\n  jump\t// in\ntag_42:\n    /* \"#utility.yul\":1608:1727   */\ntag_41:\n    /* \"#utility.yul\":1766:1767   */\n  0x00\n    /* \"#utility.yul\":1791:1873   */\n  tag_43\n    /* \"#utility.yul\":1865:1872   */\n  dup5\n    /* \"#utility.yul\":1856:1862   */\n  dup3\n    /* \"#utility.yul\":1845:1854   */\n  dup6\n    /* \"#utility.yul\":1841:1863   */\n  add\n    /* \"#utility.yul\":1791:1873   */\n  tag_18\n  jump\t// in\ntag_43:\n    /* \"#utility.yul\":1781:1873   */\n  swap2\n  pop\n    /* \"#utility.yul\":1737:1883   */\n  pop\n    /* \"#utility.yul\":1503:1890   */\n  swap3\n  swap2\n  pop\n  pop\n  jump\t// out\n    /* \"Final Assignment/final_assignment_staking 1.sol\":87:1851  contract Staking_Token {... */\ntag_8:\n  dataSize(sub_0)\n  dup1\n  dataOffset(sub_0)\n  0x00\n  codecopy\n  0x00\n  return\nstop\n\nsub_0: assembly {\n        /* \"Final Assignment/final_assignment_staking 1.sol\":87:1851  contract Staking_Token {... */\n      mstore(0x40, 0x80)\n      callvalue\n      dup1\n      iszero\n      tag_1\n      jumpi\n      0x00\n      dup1\n      revert\n    tag_1:\n      pop\n      jumpi(tag_2, lt(calldatasize, 0x04))\n      shr(0xe0, calldataload(0x00))\n      dup1\n      0x15621373\n      eq\n      tag_3\n      jumpi\n      dup1\n      0x630b1146\n      eq\n      tag_4\n      jumpi\n      dup1\n      0xa6acb7ee\n      eq\n      tag_5\n      jumpi\n      dup1\n      0xf42f2e82\n      eq\n      tag_6\n      jumpi\n    tag_2:\n      0x00\n      dup1\n      revert\n        /* \"Final Assignment/final_assignment_staking 1.sol\":1754:1846  function getcontractaddress() public returns(address){... */\n    tag_3:\n      tag_7\n      tag_8\n      jump\t// in\n    tag_7:\n      mload(0x40)\n      tag_9\n      swap2\n      swap1\n      tag_10\n      jump\t// in\n    tag_9:\n      mload(0x40)\n      dup1\n      swap2\n      sub\n      swap1\n      return\n        /* \"Final Assignment/final_assignment_staking 1.sol\":1690:1749  function unstaking()public returns(string memory){... */\n    tag_4:\n      tag_11\n      tag_12\n      jump\t// in\n    tag_11:\n      mload(0x40)\n      tag_13\n      swap2\n      swap1\n      tag_14\n      jump\t// in\n    tag_13:\n      mload(0x40)\n      dup1\n      swap2\n      sub\n      swap1\n      return\n        /* \"Final Assignment/final_assignment_staking 1.sol\":755:1682  function staking(uint _amount, string memory _type, uint _duration) public  {... */\n    tag_5:\n      tag_15\n      0x04\n      dup1\n      calldatasize\n      sub\n      dup2\n      add\n      swap1\n      tag_16\n      swap2\n      swap1\n      tag_17\n      jump\t// in\n    tag_16:\n      tag_18\n      jump\t// in\n    tag_15:\n      stop\n        /* \"Final Assignment/final_assignment_staking 1.sol\":460:505  mapping(address =>Stake) public Stake_details */\n    tag_6:\n      tag_19\n      0x04\n      dup1\n      calldatasize\n      sub\n      dup2\n      add\n      swap1\n      tag_20\n      swap2\n      swap1\n      tag_21\n      jump\t// in\n    tag_20:\n      tag_22\n      jump\t// in\n    tag_19:\n      mload(0x40)\n      tag_23\n      swap4\n      swap3\n      swap2\n      swap1\n      tag_24\n      jump\t// in\n    tag_23:\n      mload(0x40)\n      dup1\n      swap2\n      sub\n      swap1\n      return\n        /* \"Final Assignment/final_assignment_staking 1.sol\":1754:1846  function getcontractaddress() public returns(address){... */\n    tag_8:\n        /* \"Final Assignment/final_assignment_staking 1.sol\":1799:1806  address */\n      0x00\n        /* \"Final Assignment/final_assignment_staking 1.sol\":1831:1835  this */\n      address\n        /* \"Final Assignment/final_assignment_staking 1.sol\":1816:1836  return address(this) */\n      swap1\n      pop\n        /* \"Final Assignment/final_assignment_staking 1.sol\":1754:1846  function getcontractaddress() public returns(address){... */\n      swap1\n      jump\t// out\n        /* \"Final Assignment/final_assignment_staking 1.sol\":1690:1749  function unstaking()public returns(string memory){... */\n    tag_12:\n        /* \"Final Assignment/final_assignment_staking 1.sol\":1725:1738  string memory */\n      0x60\n        /* \"Final Assignment/final_assignment_staking 1.sol\":1690:1749  function unstaking()public returns(string memory){... */\n      swap1\n      jump\t// out\n        /* \"Final Assignment/final_assignment_staking 1.sol\":755:1682  function staking(uint _amount, string memory _type, uint _duration) public  {... */\n    tag_18:\n        /* \"Final Assignment/final_assignment_staking 1.sol\":879:886  _amount */\n      dup3\n        /* \"Final Assignment/final_assignment_staking 1.sol\":850:855  Token */\n      0x00\n      dup1\n      sload\n      swap1\n      0x0100\n      exp\n      swap1\n      div\n      0xffffffffffffffffffffffffffffffffffffffff\n      and\n        /* \"Final Assignment/final_assignment_staking 1.sol\":850:865  Token.balanceOf */\n      0xffffffffffffffffffffffffffffffffffffffff\n      and\n      0x70a08231\n        /* \"Final Assignment/final_assignment_staking 1.sol\":866:876  msg.sender */\n      caller\n        /* \"Final Assignment/final_assignment_staking 1.sol\":850:877  Token.balanceOf(msg.sender) */\n      mload(0x40)\n      dup3\n      0xffffffff\n      and\n      0xe0\n      shl\n      dup2\n      mstore\n      0x04\n      add\n      tag_28\n      swap2\n      swap1\n      tag_10\n      jump\t// in\n    tag_28:\n      0x20\n      mload(0x40)\n      dup1\n      dup4\n      sub\n      dup2\n      dup7\n      gas\n      staticcall\n      iszero\n      dup1\n      iszero\n      tag_30\n      jumpi\n      returndatasize\n      0x00\n      dup1\n      returndatacopy\n      revert(0x00, returndatasize)\n    tag_30:\n      pop\n      pop\n      pop\n      pop\n      mload(0x40)\n      returndatasize\n      not(0x1f)\n      0x1f\n      dup3\n      add\n      and\n      dup3\n      add\n      dup1\n      0x40\n      mstore\n      pop\n      dup2\n      add\n      swap1\n      tag_31\n      swap2\n      swap1\n      tag_32\n      jump\t// in\n    tag_31:\n        /* \"Final Assignment/final_assignment_staking 1.sol\":850:886  Token.balanceOf(msg.sender)>=_amount */\n      lt\n      iszero\n        /* \"Final Assignment/final_assignment_staking 1.sol\":842:910  require(Token.balanceOf(msg.sender)>=_amount,\"Insufficient Balance\") */\n      tag_33\n      jumpi\n      mload(0x40)\n      0x08c379a000000000000000000000000000000000000000000000000000000000\n      dup2\n      mstore\n      0x04\n      add\n      tag_34\n      swap1\n      tag_35\n      jump\t// in\n    tag_34:\n      mload(0x40)\n      dup1\n      swap2\n      sub\n      swap1\n      revert\n    tag_33:\n        /* \"Final Assignment/final_assignment_staking 1.sol\":972:997  abi.encodePacked(\"fixed\") */\n      add(0x20, mload(0x40))\n      tag_36\n      swap1\n      tag_37\n      jump\t// in\n    tag_36:\n      mload(0x40)\n      0x20\n      dup2\n      dup4\n      sub\n      sub\n      dup2\n      mstore\n      swap1\n      0x40\n      mstore\n        /* \"Final Assignment/final_assignment_staking 1.sol\":962:998  keccak256(abi.encodePacked(\"fixed\")) */\n      dup1\n      mload\n      swap1\n      0x20\n      add\n      keccak256\n        /* \"Final Assignment/final_assignment_staking 1.sol\":951:956  _type */\n      dup3\n        /* \"Final Assignment/final_assignment_staking 1.sol\":934:957  abi.encodePacked(_type) */\n      add(0x20, mload(0x40))\n      tag_38\n      swap2\n      swap1\n      tag_39\n      jump\t// in\n    tag_38:\n      mload(0x40)\n      0x20\n      dup2\n      dup4\n      sub\n      sub\n      dup2\n      mstore\n      swap1\n      0x40\n      mstore\n        /* \"Final Assignment/final_assignment_staking 1.sol\":924:958  keccak256(abi.encodePacked(_type)) */\n      dup1\n      mload\n      swap1\n      0x20\n      add\n      keccak256\n        /* \"Final Assignment/final_assignment_staking 1.sol\":924:998  keccak256(abi.encodePacked(_type)) == keccak256(abi.encodePacked(\"fixed\")) */\n      sub\n        /* \"Final Assignment/final_assignment_staking 1.sol\":921:1667  if(keccak256(abi.encodePacked(_type)) == keccak256(abi.encodePacked(\"fixed\"))){... */\n      tag_40\n      jumpi\n        /* \"Final Assignment/final_assignment_staking 1.sol\":1144:1151  _amount */\n      dup3\n        /* \"Final Assignment/final_assignment_staking 1.sol\":1103:1116  Stake_details */\n      0x04\n        /* \"Final Assignment/final_assignment_staking 1.sol\":1103:1128  Stake_details[msg.sender] */\n      0x00\n        /* \"Final Assignment/final_assignment_staking 1.sol\":1117:1127  msg.sender */\n      caller\n        /* \"Final Assignment/final_assignment_staking 1.sol\":1103:1128  Stake_details[msg.sender] */\n      0xffffffffffffffffffffffffffffffffffffffff\n      and\n      0xffffffffffffffffffffffffffffffffffffffff\n      and\n      dup2\n      mstore\n      0x20\n      add\n      swap1\n      dup2\n      mstore\n      0x20\n      add\n      0x00\n      keccak256\n        /* \"Final Assignment/final_assignment_staking 1.sol\":1103:1141  Stake_details[msg.sender].stake_amount */\n      0x00\n      add\n        /* \"Final Assignment/final_assignment_staking 1.sol\":1103:1151  Stake_details[msg.sender].stake_amount = _amount */\n      dup2\n      swap1\n      sstore\n      pop\n        /* \"Final Assignment/final_assignment_staking 1.sol\":1205:1210  _type */\n      dup2\n        /* \"Final Assignment/final_assignment_staking 1.sol\":1166:1179  Stake_details */\n      0x04\n        /* \"Final Assignment/final_assignment_staking 1.sol\":1166:1191  Stake_details[msg.sender] */\n      0x00\n        /* \"Final Assignment/final_assignment_staking 1.sol\":1180:1190  msg.sender */\n      caller\n        /* \"Final Assignment/final_assignment_staking 1.sol\":1166:1191  Stake_details[msg.sender] */\n      0xffffffffffffffffffffffffffffffffffffffff\n      and\n      0xffffffffffffffffffffffffffffffffffffffff\n      and\n      dup2\n      mstore\n      0x20\n      add\n      swap1\n      dup2\n      mstore\n      0x20\n      add\n      0x00\n      keccak256\n        /* \"Final Assignment/final_assignment_staking 1.sol\":1166:1202  Stake_details[msg.sender].stake_type */\n      0x01\n      add\n        /* \"Final Assignment/final_assignment_staking 1.sol\":1166:1210  Stake_details[msg.sender].stake_type = _type */\n      swap1\n      dup2\n      tag_41\n      swap2\n      swap1\n      tag_42\n      jump\t// in\n    tag_41:\n      pop\n        /* \"Final Assignment/final_assignment_staking 1.sol\":1282:1291  _duration */\n      dup1\n        /* \"Final Assignment/final_assignment_staking 1.sol\":1264:1279  block.timestamp */\n      timestamp\n        /* \"Final Assignment/final_assignment_staking 1.sol\":1264:1291  block.timestamp + _duration */\n      tag_43\n      swap2\n      swap1\n      tag_44\n      jump\t// in\n    tag_43:\n        /* \"Final Assignment/final_assignment_staking 1.sol\":1225:1238  Stake_details */\n      0x04\n        /* \"Final Assignment/final_assignment_staking 1.sol\":1225:1250  Stake_details[msg.sender] */\n      0x00\n        /* \"Final Assignment/final_assignment_staking 1.sol\":1239:1249  msg.sender */\n      caller\n        /* \"Final Assignment/final_assignment_staking 1.sol\":1225:1250  Stake_details[msg.sender] */\n      0xffffffffffffffffffffffffffffffffffffffff\n      and\n      0xffffffffffffffffffffffffffffffffffffffff\n      and\n      dup2\n      mstore\n      0x20\n      add\n      swap1\n      dup2\n      mstore\n      0x20\n      add\n      0x00\n      keccak256\n        /* \"Final Assignment/final_assignment_staking 1.sol\":1225:1261  Stake_details[msg.sender].stake_time */\n      0x02\n      add\n        /* \"Final Assignment/final_assignment_staking 1.sol\":1225:1291  Stake_details[msg.sender].stake_time = block.timestamp + _duration */\n      dup2\n      swap1\n      sstore\n      pop\n        /* \"Final Assignment/final_assignment_staking 1.sol\":1302:1307  Token */\n      0x00\n      dup1\n      sload\n      swap1\n      0x0100\n      exp\n      swap1\n      div\n      0xffffffffffffffffffffffffffffffffffffffff\n      and\n        /* \"Final Assignment/final_assignment_staking 1.sol\":1302:1320  Token.transferFrom */\n      0xffffffffffffffffffffffffffffffffffffffff\n      and\n      0x23b872dd\n        /* \"Final Assignment/final_assignment_staking 1.sol\":1321:1331  msg.sender */\n      caller\n        /* \"Final Assignment/final_assignment_staking 1.sol\":1341:1345  this */\n      address\n        /* \"Final Assignment/final_assignment_staking 1.sol\":1348:1355  _amount */\n      dup7\n        /* \"Final Assignment/final_assignment_staking 1.sol\":1302:1356  Token.transferFrom(msg.sender, address(this), _amount) */\n      mload(0x40)\n      dup5\n      0xffffffff\n      and\n      0xe0\n      shl\n      dup2\n      mstore\n      0x04\n      add\n      tag_45\n      swap4\n      swap3\n      swap2\n      swap1\n      tag_46\n      jump\t// in\n    tag_45:\n      0x20\n      mload(0x40)\n      dup1\n      dup4\n      sub\n      dup2\n      0x00\n      dup8\n      gas\n      call\n      iszero\n      dup1\n      iszero\n      tag_48\n      jumpi\n      returndatasize\n      0x00\n      dup1\n      returndatacopy\n      revert(0x00, returndatasize)\n    tag_48:\n      pop\n      pop\n      pop\n      pop\n      mload(0x40)\n      returndatasize\n      not(0x1f)\n      0x1f\n      dup3\n      add\n      and\n      dup3\n      add\n      dup1\n      0x40\n      mstore\n      pop\n      dup2\n      add\n      swap1\n      tag_49\n      swap2\n      swap1\n      tag_50\n      jump\t// in\n    tag_49:\n      pop\n        /* \"Final Assignment/final_assignment_staking 1.sol\":1372:1422  tokensStaked(msg.sender, _amount, block.timestamp) */\n      0x96c68044657fcb3bea5ad282f026bd0361f647d377dfe1615a77e35dd87280a1\n        /* \"Final Assignment/final_assignment_staking 1.sol\":1385:1395  msg.sender */\n      caller\n        /* \"Final Assignment/final_assignment_staking 1.sol\":1397:1404  _amount */\n      dup5\n        /* \"Final Assignment/final_assignment_staking 1.sol\":1406:1421  block.timestamp */\n      timestamp\n        /* \"Final Assignment/final_assignment_staking 1.sol\":1372:1422  tokensStaked(msg.sender, _amount, block.timestamp) */\n      mload(0x40)\n      tag_51\n      swap4\n      swap3\n      swap2\n      swap1\n      tag_52\n      jump\t// in\n    tag_51:\n      mload(0x40)\n      dup1\n      swap2\n      sub\n      swap1\n      log1\n        /* \"Final Assignment/final_assignment_staking 1.sol\":921:1667  if(keccak256(abi.encodePacked(_type)) == keccak256(abi.encodePacked(\"fixed\"))){... */\n      jump(tag_53)\n    tag_40:\n        /* \"Final Assignment/final_assignment_staking 1.sol\":1504:1531  abi.encodePacked(\"unfixed\") */\n      add(0x20, mload(0x40))\n      tag_54\n      swap1\n      tag_55\n      jump\t// in\n    tag_54:\n      mload(0x40)\n      0x20\n      dup2\n      dup4\n      sub\n      sub\n      dup2\n      mstore\n      swap1\n      0x40\n      mstore\n        /* \"Final Assignment/final_assignment_staking 1.sol\":1494:1532  keccak256(abi.encodePacked(\"unfixed\")) */\n      dup1\n      mload\n      swap1\n      0x20\n      add\n      keccak256\n        /* \"Final Assignment/final_assignment_staking 1.sol\":1483:1488  _type */\n      dup3\n        /* \"Final Assignment/final_assignment_staking 1.sol\":1466:1489  abi.encodePacked(_type) */\n      add(0x20, mload(0x40))\n      tag_56\n      swap2\n      swap1\n      tag_39\n      jump\t// in\n    tag_56:\n      mload(0x40)\n      0x20\n      dup2\n      dup4\n      sub\n      sub\n      dup2\n      mstore\n      swap1\n      0x40\n      mstore\n        /* \"Final Assignment/final_assignment_staking 1.sol\":1456:1490  keccak256(abi.encodePacked(_type)) */\n      dup1\n      mload\n      swap1\n      0x20\n      add\n      keccak256\n        /* \"Final Assignment/final_assignment_staking 1.sol\":1456:1532  keccak256(abi.encodePacked(_type)) == keccak256(abi.encodePacked(\"unfixed\")) */\n      sub\n        /* \"Final Assignment/final_assignment_staking 1.sol\":1453:1667  if(keccak256(abi.encodePacked(_type)) == keccak256(abi.encodePacked(\"unfixed\"))){... */\n      tag_57\n      jumpi\n        /* \"Final Assignment/final_assignment_staking 1.sol\":1589:1596  _amount */\n      dup3\n        /* \"Final Assignment/final_assignment_staking 1.sol\":1548:1561  Stake_details */\n      0x04\n        /* \"Final Assignment/final_assignment_staking 1.sol\":1548:1573  Stake_details[msg.sender] */\n      0x00\n        /* \"Final Assignment/final_assignment_staking 1.sol\":1562:1572  msg.sender */\n      caller\n        /* \"Final Assignment/final_assignment_staking 1.sol\":1548:1573  Stake_details[msg.sender] */\n      0xffffffffffffffffffffffffffffffffffffffff\n      and\n      0xffffffffffffffffffffffffffffffffffffffff\n      and\n      dup2\n      mstore\n      0x20\n      add\n      swap1\n      dup2\n      mstore\n      0x20\n      add\n      0x00\n      keccak256\n        /* \"Final Assignment/final_assignment_staking 1.sol\":1548:1586  Stake_details[msg.sender].stake_amount */\n      0x00\n      add\n        /* \"Final Assignment/final_assignment_staking 1.sol\":1548:1596  Stake_details[msg.sender].stake_amount = _amount */\n      dup2\n      swap1\n      sstore\n      pop\n        /* \"Final Assignment/final_assignment_staking 1.sol\":1650:1655  _type */\n      dup2\n        /* \"Final Assignment/final_assignment_staking 1.sol\":1611:1624  Stake_details */\n      0x04\n        /* \"Final Assignment/final_assignment_staking 1.sol\":1611:1636  Stake_details[msg.sender] */\n      0x00\n        /* \"Final Assignment/final_assignment_staking 1.sol\":1625:1635  msg.sender */\n      caller\n        /* \"Final Assignment/final_assignment_staking 1.sol\":1611:1636  Stake_details[msg.sender] */\n      0xffffffffffffffffffffffffffffffffffffffff\n      and\n      0xffffffffffffffffffffffffffffffffffffffff\n      and\n      dup2\n      mstore\n      0x20\n      add\n      swap1\n      dup2\n      mstore\n      0x20\n      add\n      0x00\n      keccak256\n        /* \"Final Assignment/final_assignment_staking 1.sol\":1611:1647  Stake_details[msg.sender].stake_type */\n      0x01\n      add\n        /* \"Final Assignment/final_assignment_staking 1.sol\":1611:1655  Stake_details[msg.sender].stake_type = _type */\n      swap1\n      dup2\n      tag_58\n      swap2\n      swap1\n      tag_42\n      jump\t// in\n    tag_58:\n      pop\n        /* \"Final Assignment/final_assignment_staking 1.sol\":1453:1667  if(keccak256(abi.encodePacked(_type)) == keccak256(abi.encodePacked(\"unfixed\"))){... */\n    tag_57:\n        /* \"Final Assignment/final_assignment_staking 1.sol\":921:1667  if(keccak256(abi.encodePacked(_type)) == keccak256(abi.encodePacked(\"fixed\"))){... */\n    tag_53:\n        /* \"Final Assignment/final_assignment_staking 1.sol\":755:1682  function staking(uint _amount, string memory _type, uint _duration) public  {... */\n      pop\n      pop\n      pop\n      jump\t// out\n        /* \"Final Assignment/final_assignment_staking 1.sol\":460:505  mapping(address =>Stake) public Stake_details */\n    tag_22:\n      mstore(0x20, 0x04)\n      dup1\n      0x00\n      mstore\n      keccak256(0x00, 0x40)\n      0x00\n      swap2\n      pop\n      swap1\n      pop\n      dup1\n      0x00\n      add\n      sload\n      swap1\n      dup1\n      0x01\n      add\n      dup1\n      sload\n      tag_59\n      swap1\n      tag_60\n      jump\t// in\n    tag_59:\n      dup1\n      0x1f\n      add\n      0x20\n      dup1\n      swap2\n      div\n      mul\n      0x20\n      add\n      mload(0x40)\n      swap1\n      dup2\n      add\n      0x40\n      mstore\n      dup1\n      swap3\n      swap2\n      swap1\n      dup2\n      dup2\n      mstore\n      0x20\n      add\n      dup3\n      dup1\n      sload\n      tag_61\n      swap1\n      tag_60\n      jump\t// in\n    tag_61:\n      dup1\n      iszero\n      tag_62\n      jumpi\n      dup1\n      0x1f\n      lt\n      tag_63\n      jumpi\n      0x0100\n      dup1\n      dup4\n      sload\n      div\n      mul\n      dup4\n      mstore\n      swap2\n      0x20\n      add\n      swap2\n      jump(tag_62)\n    tag_63:\n      dup3\n      add\n      swap2\n      swap1\n      0x00\n      mstore\n      keccak256(0x00, 0x20)\n      swap1\n    tag_64:\n      dup2\n      sload\n      dup2\n      mstore\n      swap1\n      0x01\n      add\n      swap1\n      0x20\n      add\n      dup1\n      dup4\n      gt\n      tag_64\n      jumpi\n      dup3\n      swap1\n      sub\n      0x1f\n      and\n      dup3\n      add\n      swap2\n    tag_62:\n      pop\n      pop\n      pop\n      pop\n      pop\n      swap1\n      dup1\n      0x02\n      add\n      sload\n      swap1\n      pop\n      dup4\n      jump\t// out\n        /* \"#utility.yul\":7:133   */\n    tag_65:\n        /* \"#utility.yul\":44:51   */\n      0x00\n        /* \"#utility.yul\":84:126   */\n      0xffffffffffffffffffffffffffffffffffffffff\n        /* \"#utility.yul\":77:82   */\n      dup3\n        /* \"#utility.yul\":73:127   */\n      and\n        /* \"#utility.yul\":62:127   */\n      swap1\n      pop\n        /* \"#utility.yul\":7:133   */\n      swap2\n      swap1\n      pop\n      jump\t// out\n        /* \"#utility.yul\":139:235   */\n    tag_66:\n        /* \"#utility.yul\":176:183   */\n      0x00\n        /* \"#utility.yul\":205:229   */\n      tag_123\n        /* \"#utility.yul\":223:228   */\n      dup3\n        /* \"#utility.yul\":205:229   */\n      tag_65\n      jump\t// in\n    tag_123:\n        /* \"#utility.yul\":194:229   */\n      swap1\n      pop\n        /* \"#utility.yul\":139:235   */\n      swap2\n      swap1\n      pop\n      jump\t// out\n        /* \"#utility.yul\":241:359   */\n    tag_67:\n        /* \"#utility.yul\":328:352   */\n      tag_125\n        /* \"#utility.yul\":346:351   */\n      dup2\n        /* \"#utility.yul\":328:352   */\n      tag_66\n      jump\t// in\n    tag_125:\n        /* \"#utility.yul\":323:326   */\n      dup3\n        /* \"#utility.yul\":316:353   */\n      mstore\n        /* \"#utility.yul\":241:359   */\n      pop\n      pop\n      jump\t// out\n        /* \"#utility.yul\":365:587   */\n    tag_10:\n        /* \"#utility.yul\":458:462   */\n      0x00\n        /* \"#utility.yul\":496:498   */\n      0x20\n        /* \"#utility.yul\":485:494   */\n      dup3\n        /* \"#utility.yul\":481:499   */\n      add\n        /* \"#utility.yul\":473:499   */\n      swap1\n      pop\n        /* \"#utility.yul\":509:580   */\n      tag_127\n        /* \"#utility.yul\":577:578   */\n      0x00\n        /* \"#utility.yul\":566:575   */\n      dup4\n        /* \"#utility.yul\":562:579   */\n      add\n        /* \"#utility.yul\":553:559   */\n      dup5\n        /* \"#utility.yul\":509:580   */\n      tag_67\n      jump\t// in\n    tag_127:\n        /* \"#utility.yul\":365:587   */\n      swap3\n      swap2\n      pop\n      pop\n      jump\t// out\n        /* \"#utility.yul\":593:692   */\n    tag_68:\n        /* \"#utility.yul\":645:651   */\n      0x00\n        /* \"#utility.yul\":679:684   */\n      dup2\n        /* \"#utility.yul\":673:685   */\n      mload\n        /* \"#utility.yul\":663:685   */\n      swap1\n      pop\n        /* \"#utility.yul\":593:692   */\n      swap2\n      swap1\n      pop\n      jump\t// out\n        /* \"#utility.yul\":698:867   */\n    tag_69:\n        /* \"#utility.yul\":782:793   */\n      0x00\n        /* \"#utility.yul\":816:822   */\n      dup3\n        /* \"#utility.yul\":811:814   */\n      dup3\n        /* \"#utility.yul\":804:823   */\n      mstore\n        /* \"#utility.yul\":856:860   */\n      0x20\n        /* \"#utility.yul\":851:854   */\n      dup3\n        /* \"#utility.yul\":847:861   */\n      add\n        /* \"#utility.yul\":832:861   */\n      swap1\n      pop\n        /* \"#utility.yul\":698:867   */\n      swap3\n      swap2\n      pop\n      pop\n      jump\t// out\n        /* \"#utility.yul\":873:1119   */\n    tag_70:\n        /* \"#utility.yul\":954:955   */\n      0x00\n        /* \"#utility.yul\":964:1077   */\n    tag_131:\n        /* \"#utility.yul\":978:984   */\n      dup4\n        /* \"#utility.yul\":975:976   */\n      dup2\n        /* \"#utility.yul\":972:985   */\n      lt\n        /* \"#utility.yul\":964:1077   */\n      iszero\n      tag_133\n      jumpi\n        /* \"#utility.yul\":1063:1064   */\n      dup1\n        /* \"#utility.yul\":1058:1061   */\n      dup3\n        /* \"#utility.yul\":1054:1065   */\n      add\n        /* \"#utility.yul\":1048:1066   */\n      mload\n        /* \"#utility.yul\":1044:1045   */\n      dup2\n        /* \"#utility.yul\":1039:1042   */\n      dup5\n        /* \"#utility.yul\":1035:1046   */\n      add\n        /* \"#utility.yul\":1028:1067   */\n      mstore\n        /* \"#utility.yul\":1000:1002   */\n      0x20\n        /* \"#utility.yul\":997:998   */\n      dup2\n        /* \"#utility.yul\":993:1003   */\n      add\n        /* \"#utility.yul\":988:1003   */\n      swap1\n      pop\n        /* \"#utility.yul\":964:1077   */\n      jump(tag_131)\n    tag_133:\n        /* \"#utility.yul\":1111:1112   */\n      0x00\n        /* \"#utility.yul\":1102:1108   */\n      dup5\n        /* \"#utility.yul\":1097:1100   */\n      dup5\n        /* \"#utility.yul\":1093:1109   */\n      add\n        /* \"#utility.yul\":1086:1113   */\n      mstore\n        /* \"#utility.yul\":935:1119   */\n      pop\n        /* \"#utility.yul\":873:1119   */\n      pop\n      pop\n      pop\n      jump\t// out\n        /* \"#utility.yul\":1125:1227   */\n    tag_71:\n        /* \"#utility.yul\":1166:1172   */\n      0x00\n        /* \"#utility.yul\":1217:1219   */\n      0x1f\n        /* \"#utility.yul\":1213:1220   */\n      not\n        /* \"#utility.yul\":1208:1210   */\n      0x1f\n        /* \"#utility.yul\":1201:1206   */\n      dup4\n        /* \"#utility.yul\":1197:1211   */\n      add\n        /* \"#utility.yul\":1193:1221   */\n      and\n        /* \"#utility.yul\":1183:1221   */\n      swap1\n      pop\n        /* \"#utility.yul\":1125:1227   */\n      swap2\n      swap1\n      pop\n      jump\t// out\n        /* \"#utility.yul\":1233:1610   */\n    tag_72:\n        /* \"#utility.yul\":1321:1324   */\n      0x00\n        /* \"#utility.yul\":1349:1388   */\n      tag_136\n        /* \"#utility.yul\":1382:1387   */\n      dup3\n        /* \"#utility.yul\":1349:1388   */\n      tag_68\n      jump\t// in\n    tag_136:\n        /* \"#utility.yul\":1404:1475   */\n      tag_137\n        /* \"#utility.yul\":1468:1474   */\n      dup2\n        /* \"#utility.yul\":1463:1466   */\n      dup6\n        /* \"#utility.yul\":1404:1475   */\n      tag_69\n      jump\t// in\n    tag_137:\n        /* \"#utility.yul\":1397:1475   */\n      swap4\n      pop\n        /* \"#utility.yul\":1484:1549   */\n      tag_138\n        /* \"#utility.yul\":1542:1548   */\n      dup2\n        /* \"#utility.yul\":1537:1540   */\n      dup6\n        /* \"#utility.yul\":1530:1534   */\n      0x20\n        /* \"#utility.yul\":1523:1528   */\n      dup7\n        /* \"#utility.yul\":1519:1535   */\n      add\n        /* \"#utility.yul\":1484:1549   */\n      tag_70\n      jump\t// in\n    tag_138:\n        /* \"#utility.yul\":1574:1603   */\n      tag_139\n        /* \"#utility.yul\":1596:1602   */\n      dup2\n        /* \"#utility.yul\":1574:1603   */\n      tag_71\n      jump\t// in\n    tag_139:\n        /* \"#utility.yul\":1569:1572   */\n      dup5\n        /* \"#utility.yul\":1565:1604   */\n      add\n        /* \"#utility.yul\":1558:1604   */\n      swap2\n      pop\n        /* \"#utility.yul\":1325:1610   */\n      pop\n        /* \"#utility.yul\":1233:1610   */\n      swap3\n      swap2\n      pop\n      pop\n      jump\t// out\n        /* \"#utility.yul\":1616:1929   */\n    tag_14:\n        /* \"#utility.yul\":1729:1733   */\n      0x00\n        /* \"#utility.yul\":1767:1769   */\n      0x20\n        /* \"#utility.yul\":1756:1765   */\n      dup3\n        /* \"#utility.yul\":1752:1770   */\n      add\n        /* \"#utility.yul\":1744:1770   */\n      swap1\n      pop\n        /* \"#utility.yul\":1816:1825   */\n      dup2\n        /* \"#utility.yul\":1810:1814   */\n      dup2\n        /* \"#utility.yul\":1806:1826   */\n      sub\n        /* \"#utility.yul\":1802:1803   */\n      0x00\n        /* \"#utility.yul\":1791:1800   */\n      dup4\n        /* \"#utility.yul\":1787:1804   */\n      add\n        /* \"#utility.yul\":1780:1827   */\n      mstore\n        /* \"#utility.yul\":1844:1922   */\n      tag_141\n        /* \"#utility.yul\":1917:1921   */\n      dup2\n        /* \"#utility.yul\":1908:1914   */\n      dup5\n        /* \"#utility.yul\":1844:1922   */\n      tag_72\n      jump\t// in\n    tag_141:\n        /* \"#utility.yul\":1836:1922   */\n      swap1\n      pop\n        /* \"#utility.yul\":1616:1929   */\n      swap3\n      swap2\n      pop\n      pop\n      jump\t// out\n        /* \"#utility.yul\":1935:2010   */\n    tag_73:\n        /* \"#utility.yul\":1968:1974   */\n      0x00\n        /* \"#utility.yul\":2001:2003   */\n      0x40\n        /* \"#utility.yul\":1995:2004   */\n      mload\n        /* \"#utility.yul\":1985:2004   */\n      swap1\n      pop\n        /* \"#utility.yul\":1935:2010   */\n      swap1\n      jump\t// out\n        /* \"#utility.yul\":2016:2133   */\n    tag_74:\n        /* \"#utility.yul\":2125:2126   */\n      0x00\n        /* \"#utility.yul\":2122:2123   */\n      dup1\n        /* \"#utility.yul\":2115:2127   */\n      revert\n        /* \"#utility.yul\":2139:2256   */\n    tag_75:\n        /* \"#utility.yul\":2248:2249   */\n      0x00\n        /* \"#utility.yul\":2245:2246   */\n      dup1\n        /* \"#utility.yul\":2238:2250   */\n      revert\n        /* \"#utility.yul\":2262:2339   */\n    tag_76:\n        /* \"#utility.yul\":2299:2306   */\n      0x00\n        /* \"#utility.yul\":2328:2333   */\n      dup2\n        /* \"#utility.yul\":2317:2333   */\n      swap1\n      pop\n        /* \"#utility.yul\":2262:2339   */\n      swap2\n      swap1\n      pop\n      jump\t// out\n        /* \"#utility.yul\":2345:2467   */\n    tag_77:\n        /* \"#utility.yul\":2418:2442   */\n      tag_147\n        /* \"#utility.yul\":2436:2441   */\n      dup2\n        /* \"#utility.yul\":2418:2442   */\n      tag_76\n      jump\t// in\n    tag_147:\n        /* \"#utility.yul\":2411:2416   */\n      dup2\n        /* \"#utility.yul\":2408:2443   */\n      eq\n        /* \"#utility.yul\":2398:2461   */\n      tag_148\n      jumpi\n        /* \"#utility.yul\":2457:2458   */\n      0x00\n        /* \"#utility.yul\":2454:2455   */\n      dup1\n        /* \"#utility.yul\":2447:2459   */\n      revert\n        /* \"#utility.yul\":2398:2461   */\n    tag_148:\n        /* \"#utility.yul\":2345:2467   */\n      pop\n      jump\t// out\n        /* \"#utility.yul\":2473:2612   */\n    tag_78:\n        /* \"#utility.yul\":2519:2524   */\n      0x00\n        /* \"#utility.yul\":2557:2563   */\n      dup2\n        /* \"#utility.yul\":2544:2564   */\n      calldataload\n        /* \"#utility.yul\":2535:2564   */\n      swap1\n      pop\n        /* \"#utility.yul\":2573:2606   */\n      tag_150\n        /* \"#utility.yul\":2600:2605   */\n      dup2\n        /* \"#utility.yul\":2573:2606   */\n      tag_77\n      jump\t// in\n    tag_150:\n        /* \"#utility.yul\":2473:2612   */\n      swap3\n      swap2\n      pop\n      pop\n      jump\t// out\n        /* \"#utility.yul\":2618:2735   */\n    tag_79:\n        /* \"#utility.yul\":2727:2728   */\n      0x00\n        /* \"#utility.yul\":2724:2725   */\n      dup1\n        /* \"#utility.yul\":2717:2729   */\n      revert\n        /* \"#utility.yul\":2741:2858   */\n    tag_80:\n        /* \"#utility.yul\":2850:2851   */\n      0x00\n        /* \"#utility.yul\":2847:2848   */\n      dup1\n        /* \"#utility.yul\":2840:2852   */\n      revert\n        /* \"#utility.yul\":2864:3044   */\n    tag_81:\n        /* \"#utility.yul\":2912:2989   */\n      0x4e487b7100000000000000000000000000000000000000000000000000000000\n        /* \"#utility.yul\":2909:2910   */\n      0x00\n        /* \"#utility.yul\":2902:2990   */\n      mstore\n        /* \"#utility.yul\":3009:3013   */\n      0x41\n        /* \"#utility.yul\":3006:3007   */\n      0x04\n        /* \"#utility.yul\":2999:3014   */\n      mstore\n        /* \"#utility.yul\":3033:3037   */\n      0x24\n        /* \"#utility.yul\":3030:3031   */\n      0x00\n        /* \"#utility.yul\":3023:3038   */\n      revert\n        /* \"#utility.yul\":3050:3331   */\n    tag_82:\n        /* \"#utility.yul\":3133:3160   */\n      tag_155\n        /* \"#utility.yul\":3155:3159   */\n      dup3\n        /* \"#utility.yul\":3133:3160   */\n      tag_71\n      jump\t// in\n    tag_155:\n        /* \"#utility.yul\":3125:3131   */\n      dup2\n        /* \"#utility.yul\":3121:3161   */\n      add\n        /* \"#utility.yul\":3263:3269   */\n      dup2\n        /* \"#utility.yul\":3251:3261   */\n      dup2\n        /* \"#utility.yul\":3248:3270   */\n      lt\n        /* \"#utility.yul\":3227:3245   */\n      0xffffffffffffffff\n        /* \"#utility.yul\":3215:3225   */\n      dup3\n        /* \"#utility.yul\":3212:3246   */\n      gt\n        /* \"#utility.yul\":3209:3271   */\n      or\n        /* \"#utility.yul\":3206:3294   */\n      iszero\n      tag_156\n      jumpi\n        /* \"#utility.yul\":3274:3292   */\n      tag_157\n      tag_81\n      jump\t// in\n    tag_157:\n        /* \"#utility.yul\":3206:3294   */\n    tag_156:\n        /* \"#utility.yul\":3314:3324   */\n      dup1\n        /* \"#utility.yul\":3310:3312   */\n      0x40\n        /* \"#utility.yul\":3303:3325   */\n      mstore\n        /* \"#utility.yul\":3093:3331   */\n      pop\n        /* \"#utility.yul\":3050:3331   */\n      pop\n      pop\n      jump\t// out\n        /* \"#utility.yul\":3337:3466   */\n    tag_83:\n        /* \"#utility.yul\":3371:3377   */\n      0x00\n        /* \"#utility.yul\":3398:3418   */\n      tag_159\n      tag_73\n      jump\t// in\n    tag_159:\n        /* \"#utility.yul\":3388:3418   */\n      swap1\n      pop\n        /* \"#utility.yul\":3427:3460   */\n      tag_160\n        /* \"#utility.yul\":3455:3459   */\n      dup3\n        /* \"#utility.yul\":3447:3453   */\n      dup3\n        /* \"#utility.yul\":3427:3460   */\n      tag_82\n      jump\t// in\n    tag_160:\n        /* \"#utility.yul\":3337:3466   */\n      swap2\n      swap1\n      pop\n      jump\t// out\n        /* \"#utility.yul\":3472:3780   */\n    tag_84:\n        /* \"#utility.yul\":3534:3538   */\n      0x00\n        /* \"#utility.yul\":3624:3642   */\n      0xffffffffffffffff\n        /* \"#utility.yul\":3616:3622   */\n      dup3\n        /* \"#utility.yul\":3613:3643   */\n      gt\n        /* \"#utility.yul\":3610:3666   */\n      iszero\n      tag_162\n      jumpi\n        /* \"#utility.yul\":3646:3664   */\n      tag_163\n      tag_81\n      jump\t// in\n    tag_163:\n        /* \"#utility.yul\":3610:3666   */\n    tag_162:\n        /* \"#utility.yul\":3684:3713   */\n      tag_164\n        /* \"#utility.yul\":3706:3712   */\n      dup3\n        /* \"#utility.yul\":3684:3713   */\n      tag_71\n      jump\t// in\n    tag_164:\n        /* \"#utility.yul\":3676:3713   */\n      swap1\n      pop\n        /* \"#utility.yul\":3768:3772   */\n      0x20\n        /* \"#utility.yul\":3762:3766   */\n      dup2\n        /* \"#utility.yul\":3758:3773   */\n      add\n        /* \"#utility.yul\":3750:3773   */\n      swap1\n      pop\n        /* \"#utility.yul\":3472:3780   */\n      swap2\n      swap1\n      pop\n      jump\t// out\n        /* \"#utility.yul\":3786:3932   */\n    tag_85:\n        /* \"#utility.yul\":3883:3889   */\n      dup3\n        /* \"#utility.yul\":3878:3881   */\n      dup2\n        /* \"#utility.yul\":3873:3876   */\n      dup4\n        /* \"#utility.yul\":3860:3890   */\n      calldatacopy\n        /* \"#utility.yul\":3924:3925   */\n      0x00\n        /* \"#utility.yul\":3915:3921   */\n      dup4\n        /* \"#utility.yul\":3910:3913   */\n      dup4\n        /* \"#utility.yul\":3906:3922   */\n      add\n        /* \"#utility.yul\":3899:3926   */\n      mstore\n        /* \"#utility.yul\":3786:3932   */\n      pop\n      pop\n      pop\n      jump\t// out\n        /* \"#utility.yul\":3938:4363   */\n    tag_86:\n        /* \"#utility.yul\":4016:4021   */\n      0x00\n        /* \"#utility.yul\":4041:4107   */\n      tag_167\n        /* \"#utility.yul\":4057:4106   */\n      tag_168\n        /* \"#utility.yul\":4099:4105   */\n      dup5\n        /* \"#utility.yul\":4057:4106   */\n      tag_84\n      jump\t// in\n    tag_168:\n        /* \"#utility.yul\":4041:4107   */\n      tag_83\n      jump\t// in\n    tag_167:\n        /* \"#utility.yul\":4032:4107   */\n      swap1\n      pop\n        /* \"#utility.yul\":4130:4136   */\n      dup3\n        /* \"#utility.yul\":4123:4128   */\n      dup2\n        /* \"#utility.yul\":4116:4137   */\n      mstore\n        /* \"#utility.yul\":4168:4172   */\n      0x20\n        /* \"#utility.yul\":4161:4166   */\n      dup2\n        /* \"#utility.yul\":4157:4173   */\n      add\n        /* \"#utility.yul\":4206:4209   */\n      dup5\n        /* \"#utility.yul\":4197:4203   */\n      dup5\n        /* \"#utility.yul\":4192:4195   */\n      dup5\n        /* \"#utility.yul\":4188:4204   */\n      add\n        /* \"#utility.yul\":4185:4210   */\n      gt\n        /* \"#utility.yul\":4182:4294   */\n      iszero\n      tag_169\n      jumpi\n        /* \"#utility.yul\":4213:4292   */\n      tag_170\n      tag_80\n      jump\t// in\n    tag_170:\n        /* \"#utility.yul\":4182:4294   */\n    tag_169:\n        /* \"#utility.yul\":4303:4357   */\n      tag_171\n        /* \"#utility.yul\":4350:4356   */\n      dup5\n        /* \"#utility.yul\":4345:4348   */\n      dup3\n        /* \"#utility.yul\":4340:4343   */\n      dup6\n        /* \"#utility.yul\":4303:4357   */\n      tag_85\n      jump\t// in\n    tag_171:\n        /* \"#utility.yul\":4022:4363   */\n      pop\n        /* \"#utility.yul\":3938:4363   */\n      swap4\n      swap3\n      pop\n      pop\n      pop\n      jump\t// out\n        /* \"#utility.yul\":4383:4723   */\n    tag_87:\n        /* \"#utility.yul\":4439:4444   */\n      0x00\n        /* \"#utility.yul\":4488:4491   */\n      dup3\n        /* \"#utility.yul\":4481:4485   */\n      0x1f\n        /* \"#utility.yul\":4473:4479   */\n      dup4\n        /* \"#utility.yul\":4469:4486   */\n      add\n        /* \"#utility.yul\":4465:4492   */\n      slt\n        /* \"#utility.yul\":4455:4577   */\n      tag_173\n      jumpi\n        /* \"#utility.yul\":4496:4575   */\n      tag_174\n      tag_79\n      jump\t// in\n    tag_174:\n        /* \"#utility.yul\":4455:4577   */\n    tag_173:\n        /* \"#utility.yul\":4613:4619   */\n      dup2\n        /* \"#utility.yul\":4600:4620   */\n      calldataload\n        /* \"#utility.yul\":4638:4717   */\n      tag_175\n        /* \"#utility.yul\":4713:4716   */\n      dup5\n        /* \"#utility.yul\":4705:4711   */\n      dup3\n        /* \"#utility.yul\":4698:4702   */\n      0x20\n        /* \"#utility.yul\":4690:4696   */\n      dup7\n        /* \"#utility.yul\":4686:4703   */\n      add\n        /* \"#utility.yul\":4638:4717   */\n      tag_86\n      jump\t// in\n    tag_175:\n        /* \"#utility.yul\":4629:4717   */\n      swap2\n      pop\n        /* \"#utility.yul\":4445:4723   */\n      pop\n        /* \"#utility.yul\":4383:4723   */\n      swap3\n      swap2\n      pop\n      pop\n      jump\t// out\n        /* \"#utility.yul\":4729:5528   */\n    tag_17:\n        /* \"#utility.yul\":4816:4822   */\n      0x00\n        /* \"#utility.yul\":4824:4830   */\n      dup1\n        /* \"#utility.yul\":4832:4838   */\n      0x00\n        /* \"#utility.yul\":4881:4883   */\n      0x60\n        /* \"#utility.yul\":4869:4878   */\n      dup5\n        /* \"#utility.yul\":4860:4867   */\n      dup7\n        /* \"#utility.yul\":4856:4879   */\n      sub\n        /* \"#utility.yul\":4852:4884   */\n      slt\n        /* \"#utility.yul\":4849:4968   */\n      iszero\n      tag_177\n      jumpi\n        /* \"#utility.yul\":4887:4966   */\n      tag_178\n      tag_74\n      jump\t// in\n    tag_178:\n        /* \"#utility.yul\":4849:4968   */\n    tag_177:\n        /* \"#utility.yul\":5007:5008   */\n      0x00\n        /* \"#utility.yul\":5032:5085   */\n      tag_179\n        /* \"#utility.yul\":5077:5084   */\n      dup7\n        /* \"#utility.yul\":5068:5074   */\n      dup3\n        /* \"#utility.yul\":5057:5066   */\n      dup8\n        /* \"#utility.yul\":5053:5075   */\n      add\n        /* \"#utility.yul\":5032:5085   */\n      tag_78\n      jump\t// in\n    tag_179:\n        /* \"#utility.yul\":5022:5085   */\n      swap4\n      pop\n        /* \"#utility.yul\":4978:5095   */\n      pop\n        /* \"#utility.yul\":5162:5164   */\n      0x20\n        /* \"#utility.yul\":5151:5160   */\n      dup5\n        /* \"#utility.yul\":5147:5165   */\n      add\n        /* \"#utility.yul\":5134:5166   */\n      calldataload\n        /* \"#utility.yul\":5193:5211   */\n      0xffffffffffffffff\n        /* \"#utility.yul\":5185:5191   */\n      dup2\n        /* \"#utility.yul\":5182:5212   */\n      gt\n        /* \"#utility.yul\":5179:5296   */\n      iszero\n      tag_180\n      jumpi\n        /* \"#utility.yul\":5215:5294   */\n      tag_181\n      tag_75\n      jump\t// in\n    tag_181:\n        /* \"#utility.yul\":5179:5296   */\n    tag_180:\n        /* \"#utility.yul\":5320:5383   */\n      tag_182\n        /* \"#utility.yul\":5375:5382   */\n      dup7\n        /* \"#utility.yul\":5366:5372   */\n      dup3\n        /* \"#utility.yul\":5355:5364   */\n      dup8\n        /* \"#utility.yul\":5351:5373   */\n      add\n        /* \"#utility.yul\":5320:5383   */\n      tag_87\n      jump\t// in\n    tag_182:\n        /* \"#utility.yul\":5310:5383   */\n      swap3\n      pop\n        /* \"#utility.yul\":5105:5393   */\n      pop\n        /* \"#utility.yul\":5432:5434   */\n      0x40\n        /* \"#utility.yul\":5458:5511   */\n      tag_183\n        /* \"#utility.yul\":5503:5510   */\n      dup7\n        /* \"#utility.yul\":5494:5500   */\n      dup3\n        /* \"#utility.yul\":5483:5492   */\n      dup8\n        /* \"#utility.yul\":5479:5501   */\n      add\n        /* \"#utility.yul\":5458:5511   */\n      tag_78\n      jump\t// in\n    tag_183:\n        /* \"#utility.yul\":5448:5511   */\n      swap2\n      pop\n        /* \"#utility.yul\":5403:5521   */\n      pop\n        /* \"#utility.yul\":4729:5528   */\n      swap3\n      pop\n      swap3\n      pop\n      swap3\n      jump\t// out\n        /* \"#utility.yul\":5534:5656   */\n    tag_88:\n        /* \"#utility.yul\":5607:5631   */\n      tag_185\n        /* \"#utility.yul\":5625:5630   */\n      dup2\n        /* \"#utility.yul\":5607:5631   */\n      tag_66\n      jump\t// in\n    tag_185:\n        /* \"#utility.yul\":5600:5605   */\n      dup2\n        /* \"#utility.yul\":5597:5632   */\n      eq\n        /* \"#utility.yul\":5587:5650   */\n      tag_186\n      jumpi\n        /* \"#utility.yul\":5646:5647   */\n      0x00\n        /* \"#utility.yul\":5643:5644   */\n      dup1\n        /* \"#utility.yul\":5636:5648   */\n      revert\n        /* \"#utility.yul\":5587:5650   */\n    tag_186:\n        /* \"#utility.yul\":5534:5656   */\n      pop\n      jump\t// out\n        /* \"#utility.yul\":5662:5801   */\n    tag_89:\n        /* \"#utility.yul\":5708:5713   */\n      0x00\n        /* \"#utility.yul\":5746:5752   */\n      dup2\n        /* \"#utility.yul\":5733:5753   */\n      calldataload\n        /* \"#utility.yul\":5724:5753   */\n      swap1\n      pop\n        /* \"#utility.yul\":5762:5795   */\n      tag_188\n        /* \"#utility.yul\":5789:5794   */\n      dup2\n        /* \"#utility.yul\":5762:5795   */\n      tag_88\n      jump\t// in\n    tag_188:\n        /* \"#utility.yul\":5662:5801   */\n      swap3\n      swap2\n      pop\n      pop\n      jump\t// out\n        /* \"#utility.yul\":5807:6136   */\n    tag_21:\n        /* \"#utility.yul\":5866:5872   */\n      0x00\n        /* \"#utility.yul\":5915:5917   */\n      0x20\n        /* \"#utility.yul\":5903:5912   */\n      dup3\n        /* \"#utility.yul\":5894:5901   */\n      dup5\n        /* \"#utility.yul\":5890:5913   */\n      sub\n        /* \"#utility.yul\":5886:5918   */\n      slt\n        /* \"#utility.yul\":5883:6002   */\n      iszero\n      tag_190\n      jumpi\n        /* \"#utility.yul\":5921:6000   */\n      tag_191\n      tag_74\n      jump\t// in\n    tag_191:\n        /* \"#utility.yul\":5883:6002   */\n    tag_190:\n        /* \"#utility.yul\":6041:6042   */\n      0x00\n        /* \"#utility.yul\":6066:6119   */\n      tag_192\n        /* \"#utility.yul\":6111:6118   */\n      dup5\n        /* \"#utility.yul\":6102:6108   */\n      dup3\n        /* \"#utility.yul\":6091:6100   */\n      dup6\n        /* \"#utility.yul\":6087:6109   */\n      add\n        /* \"#utility.yul\":6066:6119   */\n      tag_89\n      jump\t// in\n    tag_192:\n        /* \"#utility.yul\":6056:6119   */\n      swap2\n      pop\n        /* \"#utility.yul\":6012:6129   */\n      pop\n        /* \"#utility.yul\":5807:6136   */\n      swap3\n      swap2\n      pop\n      pop\n      jump\t// out\n        /* \"#utility.yul\":6142:6260   */\n    tag_90:\n        /* \"#utility.yul\":6229:6253   */\n      tag_194\n        /* \"#utility.yul\":6247:6252   */\n      dup2\n        /* \"#utility.yul\":6229:6253   */\n      tag_76\n      jump\t// in\n    tag_194:\n        /* \"#utility.yul\":6224:6227   */\n      dup3\n        /* \"#utility.yul\":6217:6254   */\n      mstore\n        /* \"#utility.yul\":6142:6260   */\n      pop\n      pop\n      jump\t// out\n        /* \"#utility.yul\":6266:6799   */\n    tag_24:\n        /* \"#utility.yul\":6435:6439   */\n      0x00\n        /* \"#utility.yul\":6473:6475   */\n      0x60\n        /* \"#utility.yul\":6462:6471   */\n      dup3\n        /* \"#utility.yul\":6458:6476   */\n      add\n        /* \"#utility.yul\":6450:6476   */\n      swap1\n      pop\n        /* \"#utility.yul\":6486:6557   */\n      tag_196\n        /* \"#utility.yul\":6554:6555   */\n      0x00\n        /* \"#utility.yul\":6543:6552   */\n      dup4\n        /* \"#utility.yul\":6539:6556   */\n      add\n        /* \"#utility.yul\":6530:6536   */\n      dup7\n        /* \"#utility.yul\":6486:6557   */\n      tag_90\n      jump\t// in\n    tag_196:\n        /* \"#utility.yul\":6604:6613   */\n      dup2\n        /* \"#utility.yul\":6598:6602   */\n      dup2\n        /* \"#utility.yul\":6594:6614   */\n      sub\n        /* \"#utility.yul\":6589:6591   */\n      0x20\n        /* \"#utility.yul\":6578:6587   */\n      dup4\n        /* \"#utility.yul\":6574:6592   */\n      add\n        /* \"#utility.yul\":6567:6615   */\n      mstore\n        /* \"#utility.yul\":6632:6710   */\n      tag_197\n        /* \"#utility.yul\":6705:6709   */\n      dup2\n        /* \"#utility.yul\":6696:6702   */\n      dup6\n        /* \"#utility.yul\":6632:6710   */\n      tag_72\n      jump\t// in\n    tag_197:\n        /* \"#utility.yul\":6624:6710   */\n      swap1\n      pop\n        /* \"#utility.yul\":6720:6792   */\n      tag_198\n        /* \"#utility.yul\":6788:6790   */\n      0x40\n        /* \"#utility.yul\":6777:6786   */\n      dup4\n        /* \"#utility.yul\":6773:6791   */\n      add\n        /* \"#utility.yul\":6764:6770   */\n      dup5\n        /* \"#utility.yul\":6720:6792   */\n      tag_90\n      jump\t// in\n    tag_198:\n        /* \"#utility.yul\":6266:6799   */\n      swap5\n      swap4\n      pop\n      pop\n      pop\n      pop\n      jump\t// out\n        /* \"#utility.yul\":6805:6948   */\n    tag_91:\n        /* \"#utility.yul\":6862:6867   */\n      0x00\n        /* \"#utility.yul\":6893:6899   */\n      dup2\n        /* \"#utility.yul\":6887:6900   */\n      mload\n        /* \"#utility.yul\":6878:6900   */\n      swap1\n      pop\n        /* \"#utility.yul\":6909:6942   */\n      tag_200\n        /* \"#utility.yul\":6936:6941   */\n      dup2\n        /* \"#utility.yul\":6909:6942   */\n      tag_77\n      jump\t// in\n    tag_200:\n        /* \"#utility.yul\":6805:6948   */\n      swap3\n      swap2\n      pop\n      pop\n      jump\t// out\n        /* \"#utility.yul\":6954:7305   */\n    tag_32:\n        /* \"#utility.yul\":7024:7030   */\n      0x00\n        /* \"#utility.yul\":7073:7075   */\n      0x20\n        /* \"#utility.yul\":7061:7070   */\n      dup3\n        /* \"#utility.yul\":7052:7059   */\n      dup5\n        /* \"#utility.yul\":7048:7071   */\n      sub\n        /* \"#utility.yul\":7044:7076   */\n      slt\n        /* \"#utility.yul\":7041:7160   */\n      iszero\n      tag_202\n      jumpi\n        /* \"#utility.yul\":7079:7158   */\n      tag_203\n      tag_74\n      jump\t// in\n    tag_203:\n        /* \"#utility.yul\":7041:7160   */\n    tag_202:\n        /* \"#utility.yul\":7199:7200   */\n      0x00\n        /* \"#utility.yul\":7224:7288   */\n      tag_204\n        /* \"#utility.yul\":7280:7287   */\n      dup5\n        /* \"#utility.yul\":7271:7277   */\n      dup3\n        /* \"#utility.yul\":7260:7269   */\n      dup6\n        /* \"#utility.yul\":7256:7278   */\n      add\n        /* \"#utility.yul\":7224:7288   */\n      tag_91\n      jump\t// in\n    tag_204:\n        /* \"#utility.yul\":7214:7288   */\n      swap2\n      pop\n        /* \"#utility.yul\":7170:7298   */\n      pop\n        /* \"#utility.yul\":6954:7305   */\n      swap3\n      swap2\n      pop\n      pop\n      jump\t// out\n        /* \"#utility.yul\":7311:7481   */\n    tag_92:\n        /* \"#utility.yul\":7451:7473   */\n      0x496e73756666696369656e742042616c616e6365000000000000000000000000\n        /* \"#utility.yul\":7447:7448   */\n      0x00\n        /* \"#utility.yul\":7439:7445   */\n      dup3\n        /* \"#utility.yul\":7435:7449   */\n      add\n        /* \"#utility.yul\":7428:7474   */\n      mstore\n        /* \"#utility.yul\":7311:7481   */\n      pop\n      jump\t// out\n        /* \"#utility.yul\":7487:7853   */\n    tag_93:\n        /* \"#utility.yul\":7629:7632   */\n      0x00\n        /* \"#utility.yul\":7650:7717   */\n      tag_207\n        /* \"#utility.yul\":7714:7716   */\n      0x14\n        /* \"#utility.yul\":7709:7712   */\n      dup4\n        /* \"#utility.yul\":7650:7717   */\n      tag_69\n      jump\t// in\n    tag_207:\n        /* \"#utility.yul\":7643:7717   */\n      swap2\n      pop\n        /* \"#utility.yul\":7726:7819   */\n      tag_208\n        /* \"#utility.yul\":7815:7818   */\n      dup3\n        /* \"#utility.yul\":7726:7819   */\n      tag_92\n      jump\t// in\n    tag_208:\n        /* \"#utility.yul\":7844:7846   */\n      0x20\n        /* \"#utility.yul\":7839:7842   */\n      dup3\n        /* \"#utility.yul\":7835:7847   */\n      add\n        /* \"#utility.yul\":7828:7847   */\n      swap1\n      pop\n        /* \"#utility.yul\":7487:7853   */\n      swap2\n      swap1\n      pop\n      jump\t// out\n        /* \"#utility.yul\":7859:8278   */\n    tag_35:\n        /* \"#utility.yul\":8025:8029   */\n      0x00\n        /* \"#utility.yul\":8063:8065   */\n      0x20\n        /* \"#utility.yul\":8052:8061   */\n      dup3\n        /* \"#utility.yul\":8048:8066   */\n      add\n        /* \"#utility.yul\":8040:8066   */\n      swap1\n      pop\n        /* \"#utility.yul\":8112:8121   */\n      dup2\n        /* \"#utility.yul\":8106:8110   */\n      dup2\n        /* \"#utility.yul\":8102:8122   */\n      sub\n        /* \"#utility.yul\":8098:8099   */\n      0x00\n        /* \"#utility.yul\":8087:8096   */\n      dup4\n        /* \"#utility.yul\":8083:8100   */\n      add\n        /* \"#utility.yul\":8076:8123   */\n      mstore\n        /* \"#utility.yul\":8140:8271   */\n      tag_210\n        /* \"#utility.yul\":8266:8270   */\n      dup2\n        /* \"#utility.yul\":8140:8271   */\n      tag_93\n      jump\t// in\n    tag_210:\n        /* \"#utility.yul\":8132:8271   */\n      swap1\n      pop\n        /* \"#utility.yul\":7859:8278   */\n      swap2\n      swap1\n      pop\n      jump\t// out\n        /* \"#utility.yul\":8284:8432   */\n    tag_94:\n        /* \"#utility.yul\":8386:8397   */\n      0x00\n        /* \"#utility.yul\":8423:8426   */\n      dup2\n        /* \"#utility.yul\":8408:8426   */\n      swap1\n      pop\n        /* \"#utility.yul\":8284:8432   */\n      swap3\n      swap2\n      pop\n      pop\n      jump\t// out\n        /* \"#utility.yul\":8438:8593   */\n    tag_95:\n        /* \"#utility.yul\":8578:8585   */\n      0x6669786564000000000000000000000000000000000000000000000000000000\n        /* \"#utility.yul\":8574:8575   */\n      0x00\n        /* \"#utility.yul\":8566:8572   */\n      dup3\n        /* \"#utility.yul\":8562:8576   */\n      add\n        /* \"#utility.yul\":8555:8586   */\n      mstore\n        /* \"#utility.yul\":8438:8593   */\n      pop\n      jump\t// out\n        /* \"#utility.yul\":8599:8999   */\n    tag_96:\n        /* \"#utility.yul\":8759:8762   */\n      0x00\n        /* \"#utility.yul\":8780:8864   */\n      tag_214\n        /* \"#utility.yul\":8862:8863   */\n      0x05\n        /* \"#utility.yul\":8857:8860   */\n      dup4\n        /* \"#utility.yul\":8780:8864   */\n      tag_94\n      jump\t// in\n    tag_214:\n        /* \"#utility.yul\":8773:8864   */\n      swap2\n      pop\n        /* \"#utility.yul\":8873:8966   */\n      tag_215\n        /* \"#utility.yul\":8962:8965   */\n      dup3\n        /* \"#utility.yul\":8873:8966   */\n      tag_95\n      jump\t// in\n    tag_215:\n        /* \"#utility.yul\":8991:8992   */\n      0x05\n        /* \"#utility.yul\":8986:8989   */\n      dup3\n        /* \"#utility.yul\":8982:8993   */\n      add\n        /* \"#utility.yul\":8975:8993   */\n      swap1\n      pop\n        /* \"#utility.yul\":8599:8999   */\n      swap2\n      swap1\n      pop\n      jump\t// out\n        /* \"#utility.yul\":9005:9386   */\n    tag_37:\n        /* \"#utility.yul\":9190:9193   */\n      0x00\n        /* \"#utility.yul\":9212:9360   */\n      tag_217\n        /* \"#utility.yul\":9356:9359   */\n      dup3\n        /* \"#utility.yul\":9212:9360   */\n      tag_96\n      jump\t// in\n    tag_217:\n        /* \"#utility.yul\":9205:9360   */\n      swap2\n      pop\n        /* \"#utility.yul\":9377:9380   */\n      dup2\n        /* \"#utility.yul\":9370:9380   */\n      swap1\n      pop\n        /* \"#utility.yul\":9005:9386   */\n      swap2\n      swap1\n      pop\n      jump\t// out\n        /* \"#utility.yul\":9392:9782   */\n    tag_97:\n        /* \"#utility.yul\":9498:9501   */\n      0x00\n        /* \"#utility.yul\":9526:9565   */\n      tag_219\n        /* \"#utility.yul\":9559:9564   */\n      dup3\n        /* \"#utility.yul\":9526:9565   */\n      tag_68\n      jump\t// in\n    tag_219:\n        /* \"#utility.yul\":9581:9670   */\n      tag_220\n        /* \"#utility.yul\":9663:9669   */\n      dup2\n        /* \"#utility.yul\":9658:9661   */\n      dup6\n        /* \"#utility.yul\":9581:9670   */\n      tag_94\n      jump\t// in\n    tag_220:\n        /* \"#utility.yul\":9574:9670   */\n      swap4\n      pop\n        /* \"#utility.yul\":9679:9744   */\n      tag_221\n        /* \"#utility.yul\":9737:9743   */\n      dup2\n        /* \"#utility.yul\":9732:9735   */\n      dup6\n        /* \"#utility.yul\":9725:9729   */\n      0x20\n        /* \"#utility.yul\":9718:9723   */\n      dup7\n        /* \"#utility.yul\":9714:9730   */\n      add\n        /* \"#utility.yul\":9679:9744   */\n      tag_70\n      jump\t// in\n    tag_221:\n        /* \"#utility.yul\":9769:9775   */\n      dup1\n        /* \"#utility.yul\":9764:9767   */\n      dup5\n        /* \"#utility.yul\":9760:9776   */\n      add\n        /* \"#utility.yul\":9753:9776   */\n      swap2\n      pop\n        /* \"#utility.yul\":9502:9782   */\n      pop\n        /* \"#utility.yul\":9392:9782   */\n      swap3\n      swap2\n      pop\n      pop\n      jump\t// out\n        /* \"#utility.yul\":9788:10063   */\n    tag_39:\n        /* \"#utility.yul\":9920:9923   */\n      0x00\n        /* \"#utility.yul\":9942:10037   */\n      tag_223\n        /* \"#utility.yul\":10033:10036   */\n      dup3\n        /* \"#utility.yul\":10024:10030   */\n      dup5\n        /* \"#utility.yul\":9942:10037   */\n      tag_97\n      jump\t// in\n    tag_223:\n        /* \"#utility.yul\":9935:10037   */\n      swap2\n      pop\n        /* \"#utility.yul\":10054:10057   */\n      dup2\n        /* \"#utility.yul\":10047:10057   */\n      swap1\n      pop\n        /* \"#utility.yul\":9788:10063   */\n      swap3\n      swap2\n      pop\n      pop\n      jump\t// out\n        /* \"#utility.yul\":10069:10249   */\n    tag_98:\n        /* \"#utility.yul\":10117:10194   */\n      0x4e487b7100000000000000000000000000000000000000000000000000000000\n        /* \"#utility.yul\":10114:10115   */\n      0x00\n        /* \"#utility.yul\":10107:10195   */\n      mstore\n        /* \"#utility.yul\":10214:10218   */\n      0x22\n        /* \"#utility.yul\":10211:10212   */\n      0x04\n        /* \"#utility.yul\":10204:10219   */\n      mstore\n        /* \"#utility.yul\":10238:10242   */\n      0x24\n        /* \"#utility.yul\":10235:10236   */\n      0x00\n        /* \"#utility.yul\":10228:10243   */\n      revert\n        /* \"#utility.yul\":10255:10575   */\n    tag_60:\n        /* \"#utility.yul\":10299:10305   */\n      0x00\n        /* \"#utility.yul\":10336:10337   */\n      0x02\n        /* \"#utility.yul\":10330:10334   */\n      dup3\n        /* \"#utility.yul\":10326:10338   */\n      div\n        /* \"#utility.yul\":10316:10338   */\n      swap1\n      pop\n        /* \"#utility.yul\":10383:10384   */\n      0x01\n        /* \"#utility.yul\":10377:10381   */\n      dup3\n        /* \"#utility.yul\":10373:10385   */\n      and\n        /* \"#utility.yul\":10404:10422   */\n      dup1\n        /* \"#utility.yul\":10394:10475   */\n      tag_226\n      jumpi\n        /* \"#utility.yul\":10460:10464   */\n      0x7f\n        /* \"#utility.yul\":10452:10458   */\n      dup3\n        /* \"#utility.yul\":10448:10465   */\n      and\n        /* \"#utility.yul\":10438:10465   */\n      swap2\n      pop\n        /* \"#utility.yul\":10394:10475   */\n    tag_226:\n        /* \"#utility.yul\":10522:10524   */\n      0x20\n        /* \"#utility.yul\":10514:10520   */\n      dup3\n        /* \"#utility.yul\":10511:10525   */\n      lt\n        /* \"#utility.yul\":10491:10509   */\n      dup2\n        /* \"#utility.yul\":10488:10526   */\n      sub\n        /* \"#utility.yul\":10485:10569   */\n      tag_227\n      jumpi\n        /* \"#utility.yul\":10541:10559   */\n      tag_228\n      tag_98\n      jump\t// in\n    tag_228:\n        /* \"#utility.yul\":10485:10569   */\n    tag_227:\n        /* \"#utility.yul\":10306:10575   */\n      pop\n        /* \"#utility.yul\":10255:10575   */\n      swap2\n      swap1\n      pop\n      jump\t// out\n        /* \"#utility.yul\":10581:10722   */\n    tag_99:\n        /* \"#utility.yul\":10630:10634   */\n      0x00\n        /* \"#utility.yul\":10653:10656   */\n      dup2\n        /* \"#utility.yul\":10645:10656   */\n      swap1\n      pop\n        /* \"#utility.yul\":10676:10679   */\n      dup2\n        /* \"#utility.yul\":10673:10674   */\n      0x00\n        /* \"#utility.yul\":10666:10680   */\n      mstore\n        /* \"#utility.yul\":10710:10714   */\n      0x20\n        /* \"#utility.yul\":10707:10708   */\n      0x00\n        /* \"#utility.yul\":10697:10715   */\n      keccak256\n        /* \"#utility.yul\":10689:10715   */\n      swap1\n      pop\n        /* \"#utility.yul\":10581:10722   */\n      swap2\n      swap1\n      pop\n      jump\t// out\n        /* \"#utility.yul\":10728:10821   */\n    tag_100:\n        /* \"#utility.yul\":10765:10771   */\n      0x00\n        /* \"#utility.yul\":10812:10814   */\n      0x20\n        /* \"#utility.yul\":10807:10809   */\n      0x1f\n        /* \"#utility.yul\":10800:10805   */\n      dup4\n        /* \"#utility.yul\":10796:10810   */\n      add\n        /* \"#utility.yul\":10792:10815   */\n      div\n        /* \"#utility.yul\":10782:10815   */\n      swap1\n      pop\n        /* \"#utility.yul\":10728:10821   */\n      swap2\n      swap1\n      pop\n      jump\t// out\n        /* \"#utility.yul\":10827:10934   */\n    tag_101:\n        /* \"#utility.yul\":10871:10879   */\n      0x00\n        /* \"#utility.yul\":10921:10926   */\n      dup3\n        /* \"#utility.yul\":10915:10919   */\n      dup3\n        /* \"#utility.yul\":10911:10927   */\n      shl\n        /* \"#utility.yul\":10890:10927   */\n      swap1\n      pop\n        /* \"#utility.yul\":10827:10934   */\n      swap3\n      swap2\n      pop\n      pop\n      jump\t// out\n        /* \"#utility.yul\":10940:11333   */\n    tag_102:\n        /* \"#utility.yul\":11009:11015   */\n      0x00\n        /* \"#utility.yul\":11059:11060   */\n      0x08\n        /* \"#utility.yul\":11047:11057   */\n      dup4\n        /* \"#utility.yul\":11043:11061   */\n      mul\n        /* \"#utility.yul\":11082:11179   */\n      tag_233\n        /* \"#utility.yul\":11112:11178   */\n      0xffffffffffffffffffffffffffffffffffffffffffffffffffffffffffffffff\n        /* \"#utility.yul\":11101:11110   */\n      dup3\n        /* \"#utility.yul\":11082:11179   */\n      tag_101\n      jump\t// in\n    tag_233:\n        /* \"#utility.yul\":11200:11239   */\n      tag_234\n        /* \"#utility.yul\":11230:11238   */\n      dup7\n        /* \"#utility.yul\":11219:11228   */\n      dup4\n        /* \"#utility.yul\":11200:11239   */\n      tag_101\n      jump\t// in\n    tag_234:\n        /* \"#utility.yul\":11188:11239   */\n      swap6\n      pop\n        /* \"#utility.yul\":11272:11276   */\n      dup1\n        /* \"#utility.yul\":11268:11277   */\n      not\n        /* \"#utility.yul\":11261:11266   */\n      dup5\n        /* \"#utility.yul\":11257:11278   */\n      and\n        /* \"#utility.yul\":11248:11278   */\n      swap4\n      pop\n        /* \"#utility.yul\":11321:11325   */\n      dup1\n        /* \"#utility.yul\":11311:11319   */\n      dup7\n        /* \"#utility.yul\":11307:11326   */\n      and\n        /* \"#utility.yul\":11300:11305   */\n      dup5\n        /* \"#utility.yul\":11297:11327   */\n      or\n        /* \"#utility.yul\":11287:11327   */\n      swap3\n      pop\n        /* \"#utility.yul\":11016:11333   */\n      pop\n      pop\n        /* \"#utility.yul\":10940:11333   */\n      swap4\n      swap3\n      pop\n      pop\n      pop\n      jump\t// out\n        /* \"#utility.yul\":11339:11399   */\n    tag_103:\n        /* \"#utility.yul\":11367:11370   */\n      0x00\n        /* \"#utility.yul\":11388:11393   */\n      dup2\n        /* \"#utility.yul\":11381:11393   */\n      swap1\n      pop\n        /* \"#utility.yul\":11339:11399   */\n      swap2\n      swap1\n      pop\n      jump\t// out\n        /* \"#utility.yul\":11405:11547   */\n    tag_104:\n        /* \"#utility.yul\":11455:11464   */\n      0x00\n        /* \"#utility.yul\":11488:11541   */\n      tag_237\n        /* \"#utility.yul\":11506:11540   */\n      tag_238\n        /* \"#utility.yul\":11515:11539   */\n      tag_239\n        /* \"#utility.yul\":11533:11538   */\n      dup5\n        /* \"#utility.yul\":11515:11539   */\n      tag_76\n      jump\t// in\n    tag_239:\n        /* \"#utility.yul\":11506:11540   */\n      tag_103\n      jump\t// in\n    tag_238:\n        /* \"#utility.yul\":11488:11541   */\n      tag_76\n      jump\t// in\n    tag_237:\n        /* \"#utility.yul\":11475:11541   */\n      swap1\n      pop\n        /* \"#utility.yul\":11405:11547   */\n      swap2\n      swap1\n      pop\n      jump\t// out\n        /* \"#utility.yul\":11553:11628   */\n    tag_105:\n        /* \"#utility.yul\":11596:11599   */\n      0x00\n        /* \"#utility.yul\":11617:11622   */\n      dup2\n        /* \"#utility.yul\":11610:11622   */\n      swap1\n      pop\n        /* \"#utility.yul\":11553:11628   */\n      swap2\n      swap1\n      pop\n      jump\t// out\n        /* \"#utility.yul\":11634:11903   */\n    tag_106:\n        /* \"#utility.yul\":11744:11783   */\n      tag_242\n        /* \"#utility.yul\":11775:11782   */\n      dup4\n        /* \"#utility.yul\":11744:11783   */\n      tag_104\n      jump\t// in\n    tag_242:\n        /* \"#utility.yul\":11805:11896   */\n      tag_243\n        /* \"#utility.yul\":11854:11895   */\n      tag_244\n        /* \"#utility.yul\":11878:11894   */\n      dup3\n        /* \"#utility.yul\":11854:11895   */\n      tag_105\n      jump\t// in\n    tag_244:\n        /* \"#utility.yul\":11846:11852   */\n      dup5\n        /* \"#utility.yul\":11839:11843   */\n      dup5\n        /* \"#utility.yul\":11833:11844   */\n      sload\n        /* \"#utility.yul\":11805:11896   */\n      tag_102\n      jump\t// in\n    tag_243:\n        /* \"#utility.yul\":11799:11803   */\n      dup3\n        /* \"#utility.yul\":11792:11897   */\n      sstore\n        /* \"#utility.yul\":11710:11903   */\n      pop\n        /* \"#utility.yul\":11634:11903   */\n      pop\n      pop\n      pop\n      jump\t// out\n        /* \"#utility.yul\":11909:11982   */\n    tag_107:\n        /* \"#utility.yul\":11954:11957   */\n      0x00\n        /* \"#utility.yul\":11909:11982   */\n      swap1\n      jump\t// out\n        /* \"#utility.yul\":11988:12177   */\n    tag_108:\n        /* \"#utility.yul\":12065:12097   */\n      tag_247\n      tag_107\n      jump\t// in\n    tag_247:\n        /* \"#utility.yul\":12106:12171   */\n      tag_248\n        /* \"#utility.yul\":12164:12170   */\n      dup2\n        /* \"#utility.yul\":12156:12162   */\n      dup5\n        /* \"#utility.yul\":12150:12154   */\n      dup5\n        /* \"#utility.yul\":12106:12171   */\n      tag_106\n      jump\t// in\n    tag_248:\n        /* \"#utility.yul\":12041:12177   */\n      pop\n        /* \"#utility.yul\":11988:12177   */\n      pop\n      pop\n      jump\t// out\n        /* \"#utility.yul\":12183:12369   */\n    tag_109:\n        /* \"#utility.yul\":12243:12363   */\n    tag_250:\n        /* \"#utility.yul\":12260:12263   */\n      dup2\n        /* \"#utility.yul\":12253:12258   */\n      dup2\n        /* \"#utility.yul\":12250:12264   */\n      lt\n        /* \"#utility.yul\":12243:12363   */\n      iszero\n      tag_252\n      jumpi\n        /* \"#utility.yul\":12314:12353   */\n      tag_253\n        /* \"#utility.yul\":12351:12352   */\n      0x00\n        /* \"#utility.yul\":12344:12349   */\n      dup3\n        /* \"#utility.yul\":12314:12353   */\n      tag_108\n      jump\t// in\n    tag_253:\n        /* \"#utility.yul\":12287:12288   */\n      0x01\n        /* \"#utility.yul\":12280:12285   */\n      dup2\n        /* \"#utility.yul\":12276:12289   */\n      add\n        /* \"#utility.yul\":12267:12289   */\n      swap1\n      pop\n        /* \"#utility.yul\":12243:12363   */\n      jump(tag_250)\n    tag_252:\n        /* \"#utility.yul\":12183:12369   */\n      pop\n      pop\n      jump\t// out\n        /* \"#utility.yul\":12375:12918   */\n    tag_110:\n        /* \"#utility.yul\":12476:12478   */\n      0x1f\n        /* \"#utility.yul\":12471:12474   */\n      dup3\n        /* \"#utility.yul\":12468:12479   */\n      gt\n        /* \"#utility.yul\":12465:12911   */\n      iszero\n      tag_255\n      jumpi\n        /* \"#utility.yul\":12510:12548   */\n      tag_256\n        /* \"#utility.yul\":12542:12547   */\n      dup2\n        /* \"#utility.yul\":12510:12548   */\n      tag_99\n      jump\t// in\n    tag_256:\n        /* \"#utility.yul\":12594:12623   */\n      tag_257\n        /* \"#utility.yul\":12612:12622   */\n      dup5\n        /* \"#utility.yul\":12594:12623   */\n      tag_100\n      jump\t// in\n    tag_257:\n        /* \"#utility.yul\":12584:12592   */\n      dup2\n        /* \"#utility.yul\":12580:12624   */\n      add\n        /* \"#utility.yul\":12777:12779   */\n      0x20\n        /* \"#utility.yul\":12765:12775   */\n      dup6\n        /* \"#utility.yul\":12762:12780   */\n      lt\n        /* \"#utility.yul\":12759:12808   */\n      iszero\n      tag_258\n      jumpi\n        /* \"#utility.yul\":12798:12806   */\n      dup2\n        /* \"#utility.yul\":12783:12806   */\n      swap1\n      pop\n        /* \"#utility.yul\":12759:12808   */\n    tag_258:\n        /* \"#utility.yul\":12821:12901   */\n      tag_259\n        /* \"#utility.yul\":12877:12899   */\n      tag_260\n        /* \"#utility.yul\":12895:12898   */\n      dup6\n        /* \"#utility.yul\":12877:12899   */\n      tag_100\n      jump\t// in\n    tag_260:\n        /* \"#utility.yul\":12867:12875   */\n      dup4\n        /* \"#utility.yul\":12863:12900   */\n      add\n        /* \"#utility.yul\":12850:12861   */\n      dup3\n        /* \"#utility.yul\":12821:12901   */\n      tag_109\n      jump\t// in\n    tag_259:\n        /* \"#utility.yul\":12480:12911   */\n      pop\n      pop\n        /* \"#utility.yul\":12465:12911   */\n    tag_255:\n        /* \"#utility.yul\":12375:12918   */\n      pop\n      pop\n      pop\n      jump\t// out\n        /* \"#utility.yul\":12924:13041   */\n    tag_111:\n        /* \"#utility.yul\":12978:12986   */\n      0x00\n        /* \"#utility.yul\":13028:13033   */\n      dup3\n        /* \"#utility.yul\":13022:13026   */\n      dup3\n        /* \"#utility.yul\":13018:13034   */\n      shr\n        /* \"#utility.yul\":12997:13034   */\n      swap1\n      pop\n        /* \"#utility.yul\":12924:13041   */\n      swap3\n      swap2\n      pop\n      pop\n      jump\t// out\n        /* \"#utility.yul\":13047:13216   */\n    tag_112:\n        /* \"#utility.yul\":13091:13097   */\n      0x00\n        /* \"#utility.yul\":13124:13175   */\n      tag_263\n        /* \"#utility.yul\":13172:13173   */\n      0x00\n        /* \"#utility.yul\":13168:13174   */\n      not\n        /* \"#utility.yul\":13160:13165   */\n      dup5\n        /* \"#utility.yul\":13157:13158   */\n      0x08\n        /* \"#utility.yul\":13153:13166   */\n      mul\n        /* \"#utility.yul\":13124:13175   */\n      tag_111\n      jump\t// in\n    tag_263:\n        /* \"#utility.yul\":13120:13176   */\n      not\n        /* \"#utility.yul\":13205:13209   */\n      dup1\n        /* \"#utility.yul\":13199:13203   */\n      dup4\n        /* \"#utility.yul\":13195:13210   */\n      and\n        /* \"#utility.yul\":13185:13210   */\n      swap2\n      pop\n        /* \"#utility.yul\":13098:13216   */\n      pop\n        /* \"#utility.yul\":13047:13216   */\n      swap3\n      swap2\n      pop\n      pop\n      jump\t// out\n        /* \"#utility.yul\":13221:13516   */\n    tag_113:\n        /* \"#utility.yul\":13297:13301   */\n      0x00\n        /* \"#utility.yul\":13443:13472   */\n      tag_265\n        /* \"#utility.yul\":13468:13471   */\n      dup4\n        /* \"#utility.yul\":13462:13466   */\n      dup4\n        /* \"#utility.yul\":13443:13472   */\n      tag_112\n      jump\t// in\n    tag_265:\n        /* \"#utility.yul\":13435:13472   */\n      swap2\n      pop\n        /* \"#utility.yul\":13505:13508   */\n      dup3\n        /* \"#utility.yul\":13502:13503   */\n      0x02\n        /* \"#utility.yul\":13498:13509   */\n      mul\n        /* \"#utility.yul\":13492:13496   */\n      dup3\n        /* \"#utility.yul\":13489:13510   */\n      or\n        /* \"#utility.yul\":13481:13510   */\n      swap1\n      pop\n        /* \"#utility.yul\":13221:13516   */\n      swap3\n      swap2\n      pop\n      pop\n      jump\t// out\n        /* \"#utility.yul\":13521:14916   */\n    tag_42:\n        /* \"#utility.yul\":13638:13675   */\n      tag_267\n        /* \"#utility.yul\":13671:13674   */\n      dup3\n        /* \"#utility.yul\":13638:13675   */\n      tag_68\n      jump\t// in\n    tag_267:\n        /* \"#utility.yul\":13740:13758   */\n      0xffffffffffffffff\n        /* \"#utility.yul\":13732:13738   */\n      dup2\n        /* \"#utility.yul\":13729:13759   */\n      gt\n        /* \"#utility.yul\":13726:13782   */\n      iszero\n      tag_268\n      jumpi\n        /* \"#utility.yul\":13762:13780   */\n      tag_269\n      tag_81\n      jump\t// in\n    tag_269:\n        /* \"#utility.yul\":13726:13782   */\n    tag_268:\n        /* \"#utility.yul\":13806:13844   */\n      tag_270\n        /* \"#utility.yul\":13838:13842   */\n      dup3\n        /* \"#utility.yul\":13832:13843   */\n      sload\n        /* \"#utility.yul\":13806:13844   */\n      tag_60\n      jump\t// in\n    tag_270:\n        /* \"#utility.yul\":13891:13958   */\n      tag_271\n        /* \"#utility.yul\":13951:13957   */\n      dup3\n        /* \"#utility.yul\":13943:13949   */\n      dup3\n        /* \"#utility.yul\":13937:13941   */\n      dup6\n        /* \"#utility.yul\":13891:13958   */\n      tag_110\n      jump\t// in\n    tag_271:\n        /* \"#utility.yul\":13985:13986   */\n      0x00\n        /* \"#utility.yul\":14009:14013   */\n      0x20\n        /* \"#utility.yul\":13996:14013   */\n      swap1\n      pop\n        /* \"#utility.yul\":14041:14043   */\n      0x1f\n        /* \"#utility.yul\":14033:14039   */\n      dup4\n        /* \"#utility.yul\":14030:14044   */\n      gt\n        /* \"#utility.yul\":14058:14059   */\n      0x01\n        /* \"#utility.yul\":14053:14671   */\n      dup2\n      eq\n      tag_273\n      jumpi\n        /* \"#utility.yul\":14715:14716   */\n      0x00\n        /* \"#utility.yul\":14732:14738   */\n      dup5\n        /* \"#utility.yul\":14729:14806   */\n      iszero\n      tag_274\n      jumpi\n        /* \"#utility.yul\":14781:14790   */\n      dup3\n        /* \"#utility.yul\":14776:14779   */\n      dup8\n        /* \"#utility.yul\":14772:14791   */\n      add\n        /* \"#utility.yul\":14766:14792   */\n      mload\n        /* \"#utility.yul\":14757:14792   */\n      swap1\n      pop\n        /* \"#utility.yul\":14729:14806   */\n    tag_274:\n        /* \"#utility.yul\":14832:14899   */\n      tag_275\n        /* \"#utility.yul\":14892:14898   */\n      dup6\n        /* \"#utility.yul\":14885:14890   */\n      dup3\n        /* \"#utility.yul\":14832:14899   */\n      tag_113\n      jump\t// in\n    tag_275:\n        /* \"#utility.yul\":14826:14830   */\n      dup7\n        /* \"#utility.yul\":14819:14900   */\n      sstore\n        /* \"#utility.yul\":14688:14910   */\n      pop\n        /* \"#utility.yul\":14023:14910   */\n      jump(tag_272)\n        /* \"#utility.yul\":14053:14671   */\n    tag_273:\n        /* \"#utility.yul\":14105:14109   */\n      0x1f\n        /* \"#utility.yul\":14101:14110   */\n      not\n        /* \"#utility.yul\":14093:14099   */\n      dup5\n        /* \"#utility.yul\":14089:14111   */\n      and\n        /* \"#utility.yul\":14139:14176   */\n      tag_276\n        /* \"#utility.yul\":14171:14175   */\n      dup7\n        /* \"#utility.yul\":14139:14176   */\n      tag_99\n      jump\t// in\n    tag_276:\n        /* \"#utility.yul\":14198:14199   */\n      0x00\n        /* \"#utility.yul\":14212:14420   */\n    tag_277:\n        /* \"#utility.yul\":14226:14233   */\n      dup3\n        /* \"#utility.yul\":14223:14224   */\n      dup2\n        /* \"#utility.yul\":14220:14234   */\n      lt\n        /* \"#utility.yul\":14212:14420   */\n      iszero\n      tag_279\n      jumpi\n        /* \"#utility.yul\":14305:14314   */\n      dup5\n        /* \"#utility.yul\":14300:14303   */\n      dup10\n        /* \"#utility.yul\":14296:14315   */\n      add\n        /* \"#utility.yul\":14290:14316   */\n      mload\n        /* \"#utility.yul\":14282:14288   */\n      dup3\n        /* \"#utility.yul\":14275:14317   */\n      sstore\n        /* \"#utility.yul\":14356:14357   */\n      0x01\n        /* \"#utility.yul\":14348:14354   */\n      dup3\n        /* \"#utility.yul\":14344:14358   */\n      add\n        /* \"#utility.yul\":14334:14358   */\n      swap2\n      pop\n        /* \"#utility.yul\":14403:14405   */\n      0x20\n        /* \"#utility.yul\":14392:14401   */\n      dup6\n        /* \"#utility.yul\":14388:14406   */\n      add\n        /* \"#utility.yul\":14375:14406   */\n      swap5\n      pop\n        /* \"#utility.yul\":14249:14253   */\n      0x20\n        /* \"#utility.yul\":14246:14247   */\n      dup2\n        /* \"#utility.yul\":14242:14254   */\n      add\n        /* \"#utility.yul\":14237:14254   */\n      swap1\n      pop\n        /* \"#utility.yul\":14212:14420   */\n      jump(tag_277)\n    tag_279:\n        /* \"#utility.yul\":14448:14454   */\n      dup7\n        /* \"#utility.yul\":14439:14446   */\n      dup4\n        /* \"#utility.yul\":14436:14455   */\n      lt\n        /* \"#utility.yul\":14433:14612   */\n      iszero\n      tag_280\n      jumpi\n        /* \"#utility.yul\":14506:14515   */\n      dup5\n        /* \"#utility.yul\":14501:14504   */\n      dup10\n        /* \"#utility.yul\":14497:14516   */\n      add\n        /* \"#utility.yul\":14491:14517   */\n      mload\n        /* \"#utility.yul\":14549:14597   */\n      tag_281\n        /* \"#utility.yul\":14591:14595   */\n      0x1f\n        /* \"#utility.yul\":14583:14589   */\n      dup10\n        /* \"#utility.yul\":14579:14596   */\n      and\n        /* \"#utility.yul\":14568:14577   */\n      dup3\n        /* \"#utility.yul\":14549:14597   */\n      tag_112\n      jump\t// in\n    tag_281:\n        /* \"#utility.yul\":14541:14547   */\n      dup4\n        /* \"#utility.yul\":14534:14598   */\n      sstore\n        /* \"#utility.yul\":14456:14612   */\n      pop\n        /* \"#utility.yul\":14433:14612   */\n    tag_280:\n        /* \"#utility.yul\":14658:14659   */\n      0x01\n        /* \"#utility.yul\":14654:14655   */\n      0x02\n        /* \"#utility.yul\":14646:14652   */\n      dup9\n        /* \"#utility.yul\":14642:14656   */\n      mul\n        /* \"#utility.yul\":14638:14660   */\n      add\n        /* \"#utility.yul\":14632:14636   */\n      dup9\n        /* \"#utility.yul\":14625:14661   */\n      sstore\n        /* \"#utility.yul\":14060:14671   */\n      pop\n      pop\n      pop\n        /* \"#utility.yul\":14023:14910   */\n    tag_272:\n      pop\n        /* \"#utility.yul\":13613:14916   */\n      pop\n      pop\n      pop\n        /* \"#utility.yul\":13521:14916   */\n      pop\n      pop\n      jump\t// out\n        /* \"#utility.yul\":14922:15102   */\n    tag_114:\n        /* \"#utility.yul\":14970:15047   */\n      0x4e487b7100000000000000000000000000000000000000000000000000000000\n        /* \"#utility.yul\":14967:14968   */\n      0x00\n        /* \"#utility.yul\":14960:15048   */\n      mstore\n        /* \"#utility.yul\":15067:15071   */\n      0x11\n        /* \"#utility.yul\":15064:15065   */\n      0x04\n        /* \"#utility.yul\":15057:15072   */\n      mstore\n        /* \"#utility.yul\":15091:15095   */\n      0x24\n        /* \"#utility.yul\":15088:15089   */\n      0x00\n        /* \"#utility.yul\":15081:15096   */\n      revert\n        /* \"#utility.yul\":15108:15299   */\n    tag_44:\n        /* \"#utility.yul\":15148:15151   */\n      0x00\n        /* \"#utility.yul\":15167:15187   */\n      tag_284\n        /* \"#utility.yul\":15185:15186   */\n      dup3\n        /* \"#utility.yul\":15167:15187   */\n      tag_76\n      jump\t// in\n    tag_284:\n        /* \"#utility.yul\":15162:15187   */\n      swap2\n      pop\n        /* \"#utility.yul\":15201:15221   */\n      tag_285\n        /* \"#utility.yul\":15219:15220   */\n      dup4\n        /* \"#utility.yul\":15201:15221   */\n      tag_76\n      jump\t// in\n    tag_285:\n        /* \"#utility.yul\":15196:15221   */\n      swap3\n      pop\n        /* \"#utility.yul\":15244:15245   */\n      dup3\n        /* \"#utility.yul\":15241:15242   */\n      dup3\n        /* \"#utility.yul\":15237:15246   */\n      add\n        /* \"#utility.yul\":15230:15246   */\n      swap1\n      pop\n        /* \"#utility.yul\":15265:15268   */\n      dup1\n        /* \"#utility.yul\":15262:15263   */\n      dup3\n        /* \"#utility.yul\":15259:15269   */\n      gt\n        /* \"#utility.yul\":15256:15292   */\n      iszero\n      tag_286\n      jumpi\n        /* \"#utility.yul\":15272:15290   */\n      tag_287\n      tag_114\n      jump\t// in\n    tag_287:\n        /* \"#utility.yul\":15256:15292   */\n    tag_286:\n        /* \"#utility.yul\":15108:15299   */\n      swap3\n      swap2\n      pop\n      pop\n      jump\t// out\n        /* \"#utility.yul\":15305:15747   */\n    tag_46:\n        /* \"#utility.yul\":15454:15458   */\n      0x00\n        /* \"#utility.yul\":15492:15494   */\n      0x60\n        /* \"#utility.yul\":15481:15490   */\n      dup3\n        /* \"#utility.yul\":15477:15495   */\n      add\n        /* \"#utility.yul\":15469:15495   */\n      swap1\n      pop\n        /* \"#utility.yul\":15505:15576   */\n      tag_289\n        /* \"#utility.yul\":15573:15574   */\n      0x00\n        /* \"#utility.yul\":15562:15571   */\n      dup4\n        /* \"#utility.yul\":15558:15575   */\n      add\n        /* \"#utility.yul\":15549:15555   */\n      dup7\n        /* \"#utility.yul\":15505:15576   */\n      tag_67\n      jump\t// in\n    tag_289:\n        /* \"#utility.yul\":15586:15658   */\n      tag_290\n        /* \"#utility.yul\":15654:15656   */\n      0x20\n        /* \"#utility.yul\":15643:15652   */\n      dup4\n        /* \"#utility.yul\":15639:15657   */\n      add\n        /* \"#utility.yul\":15630:15636   */\n      dup6\n        /* \"#utility.yul\":15586:15658   */\n      tag_67\n      jump\t// in\n    tag_290:\n        /* \"#utility.yul\":15668:15740   */\n      tag_291\n        /* \"#utility.yul\":15736:15738   */\n      0x40\n        /* \"#utility.yul\":15725:15734   */\n      dup4\n        /* \"#utility.yul\":15721:15739   */\n      add\n        /* \"#utility.yul\":15712:15718   */\n      dup5\n        /* \"#utility.yul\":15668:15740   */\n      tag_90\n      jump\t// in\n    tag_291:\n        /* \"#utility.yul\":15305:15747   */\n      swap5\n      swap4\n      pop\n      pop\n      pop\n      pop\n      jump\t// out\n        /* \"#utility.yul\":15753:15843   */\n    tag_115:\n        /* \"#utility.yul\":15787:15794   */\n      0x00\n        /* \"#utility.yul\":15830:15835   */\n      dup2\n        /* \"#utility.yul\":15823:15836   */\n      iszero\n        /* \"#utility.yul\":15816:15837   */\n      iszero\n        /* \"#utility.yul\":15805:15837   */\n      swap1\n      pop\n        /* \"#utility.yul\":15753:15843   */\n      swap2\n      swap1\n      pop\n      jump\t// out\n        /* \"#utility.yul\":15849:15965   */\n    tag_116:\n        /* \"#utility.yul\":15919:15940   */\n      tag_294\n        /* \"#utility.yul\":15934:15939   */\n      dup2\n        /* \"#utility.yul\":15919:15940   */\n      tag_115\n      jump\t// in\n    tag_294:\n        /* \"#utility.yul\":15912:15917   */\n      dup2\n        /* \"#utility.yul\":15909:15941   */\n      eq\n        /* \"#utility.yul\":15899:15959   */\n      tag_295\n      jumpi\n        /* \"#utility.yul\":15955:15956   */\n      0x00\n        /* \"#utility.yul\":15952:15953   */\n      dup1\n        /* \"#utility.yul\":15945:15957   */\n      revert\n        /* \"#utility.yul\":15899:15959   */\n    tag_295:\n        /* \"#utility.yul\":15849:15965   */\n      pop\n      jump\t// out\n        /* \"#utility.yul\":15971:16108   */\n    tag_117:\n        /* \"#utility.yul\":16025:16030   */\n      0x00\n        /* \"#utility.yul\":16056:16062   */\n      dup2\n        /* \"#utility.yul\":16050:16063   */\n      mload\n        /* \"#utility.yul\":16041:16063   */\n      swap1\n      pop\n        /* \"#utility.yul\":16072:16102   */\n      tag_297\n        /* \"#utility.yul\":16096:16101   */\n      dup2\n        /* \"#utility.yul\":16072:16102   */\n      tag_116\n      jump\t// in\n    tag_297:\n        /* \"#utility.yul\":15971:16108   */\n      swap3\n      swap2\n      pop\n      pop\n      jump\t// out\n        /* \"#utility.yul\":16114:16459   */\n    tag_50:\n        /* \"#utility.yul\":16181:16187   */\n      0x00\n        /* \"#utility.yul\":16230:16232   */\n      0x20\n        /* \"#utility.yul\":16218:16227   */\n      dup3\n        /* \"#utility.yul\":16209:16216   */\n      dup5\n        /* \"#utility.yul\":16205:16228   */\n      sub\n        /* \"#utility.yul\":16201:16233   */\n      slt\n        /* \"#utility.yul\":16198:16317   */\n      iszero\n      tag_299\n      jumpi\n        /* \"#utility.yul\":16236:16315   */\n      tag_300\n      tag_74\n      jump\t// in\n    tag_300:\n        /* \"#utility.yul\":16198:16317   */\n    tag_299:\n        /* \"#utility.yul\":16356:16357   */\n      0x00\n        /* \"#utility.yul\":16381:16442   */\n      tag_301\n        /* \"#utility.yul\":16434:16441   */\n      dup5\n        /* \"#utility.yul\":16425:16431   */\n      dup3\n        /* \"#utility.yul\":16414:16423   */\n      dup6\n        /* \"#utility.yul\":16410:16432   */\n      add\n        /* \"#utility.yul\":16381:16442   */\n      tag_117\n      jump\t// in\n    tag_301:\n        /* \"#utility.yul\":16371:16442   */\n      swap2\n      pop\n        /* \"#utility.yul\":16327:16452   */\n      pop\n        /* \"#utility.yul\":16114:16459   */\n      swap3\n      swap2\n      pop\n      pop\n      jump\t// out\n        /* \"#utility.yul\":16465:16907   */\n    tag_52:\n        /* \"#utility.yul\":16614:16618   */\n      0x00\n        /* \"#utility.yul\":16652:16654   */\n      0x60\n        /* \"#utility.yul\":16641:16650   */\n      dup3\n        /* \"#utility.yul\":16637:16655   */\n      add\n        /* \"#utility.yul\":16629:16655   */\n      swap1\n      pop\n        /* \"#utility.yul\":16665:16736   */\n      tag_303\n        /* \"#utility.yul\":16733:16734   */\n      0x00\n        /* \"#utility.yul\":16722:16731   */\n      dup4\n        /* \"#utility.yul\":16718:16735   */\n      add\n        /* \"#utility.yul\":16709:16715   */\n      dup7\n        /* \"#utility.yul\":16665:16736   */\n      tag_67\n      jump\t// in\n    tag_303:\n        /* \"#utility.yul\":16746:16818   */\n      tag_304\n        /* \"#utility.yul\":16814:16816   */\n      0x20\n        /* \"#utility.yul\":16803:16812   */\n      dup4\n        /* \"#utility.yul\":16799:16817   */\n      add\n        /* \"#utility.yul\":16790:16796   */\n      dup6\n        /* \"#utility.yul\":16746:16818   */\n      tag_90\n      jump\t// in\n    tag_304:\n        /* \"#utility.yul\":16828:16900   */\n      tag_305\n        /* \"#utility.yul\":16896:16898   */\n      0x40\n        /* \"#utility.yul\":16885:16894   */\n      dup4\n        /* \"#utility.yul\":16881:16899   */\n      add\n        /* \"#utility.yul\":16872:16878   */\n      dup5\n        /* \"#utility.yul\":16828:16900   */\n      tag_90\n      jump\t// in\n    tag_305:\n        /* \"#utility.yul\":16465:16907   */\n      swap5\n      swap4\n      pop\n      pop\n      pop\n      pop\n      jump\t// out\n        /* \"#utility.yul\":16913:17070   */\n    tag_118:\n        /* \"#utility.yul\":17053:17062   */\n      0x756e666978656400000000000000000000000000000000000000000000000000\n        /* \"#utility.yul\":17049:17050   */\n      0x00\n        /* \"#utility.yul\":17041:17047   */\n      dup3\n        /* \"#utility.yul\":17037:17051   */\n      add\n        /* \"#utility.yul\":17030:17063   */\n      mstore\n        /* \"#utility.yul\":16913:17070   */\n      pop\n      jump\t// out\n        /* \"#utility.yul\":17076:17476   */\n    tag_119:\n        /* \"#utility.yul\":17236:17239   */\n      0x00\n        /* \"#utility.yul\":17257:17341   */\n      tag_308\n        /* \"#utility.yul\":17339:17340   */\n      0x07\n        /* \"#utility.yul\":17334:17337   */\n      dup4\n        /* \"#utility.yul\":17257:17341   */\n      tag_94\n      jump\t// in\n    tag_308:\n        /* \"#utility.yul\":17250:17341   */\n      swap2\n      pop\n        /* \"#utility.yul\":17350:17443   */\n      tag_309\n        /* \"#utility.yul\":17439:17442   */\n      dup3\n        /* \"#utility.yul\":17350:17443   */\n      tag_118\n      jump\t// in\n    tag_309:\n        /* \"#utility.yul\":17468:17469   */\n      0x07\n        /* \"#utility.yul\":17463:17466   */\n      dup3\n        /* \"#utility.yul\":17459:17470   */\n      add\n        /* \"#utility.yul\":17452:17470   */\n      swap1\n      pop\n        /* \"#utility.yul\":17076:17476   */\n      swap2\n      swap1\n      pop\n      jump\t// out\n        /* \"#utility.yul\":17482:17863   */\n    tag_55:\n        /* \"#utility.yul\":17667:17670   */\n      0x00\n        /* \"#utility.yul\":17689:17837   */\n      tag_311\n        /* \"#utility.yul\":17833:17836   */\n      dup3\n        /* \"#utility.yul\":17689:17837   */\n      tag_119\n      jump\t// in\n    tag_311:\n        /* \"#utility.yul\":17682:17837   */\n      swap2\n      pop\n        /* \"#utility.yul\":17854:17857   */\n      dup2\n        /* \"#utility.yul\":17847:17857   */\n      swap1\n      pop\n        /* \"#utility.yul\":17482:17863   */\n      swap2\n      swap1\n      pop\n      jump\t// out\n\n    auxdata: 0xa2646970667358221220290a9c2ce133be4afa143331ca0b2d1b6f5c7c829b15759d678c817ba727427a64736f6c63430008140033\n}\n",
				"bytecode": {
					"linkReferences": {},
					"object": "608060405261012c42620000149190620000c5565b60025534801562000023575f80fd5b506040516200107238038062001072833981810160405281019062000049919062000177565b805f806101000a81548173ffffffffffffffffffffffffffffffffffffffff021916908373ffffffffffffffffffffffffffffffffffffffff16021790555050620001a7565b5f819050919050565b7f4e487b71000000000000000000000000000000000000000000000000000000005f52601160045260245ffd5b5f620000d1826200008f565b9150620000de836200008f565b9250828201905080821115620000f957620000f862000098565b5b92915050565b5f80fd5b5f73ffffffffffffffffffffffffffffffffffffffff82169050919050565b5f6200012e8262000103565b9050919050565b5f620001418262000122565b9050919050565b620001538162000135565b81146200015e575f80fd5b50565b5f81519050620001718162000148565b92915050565b5f602082840312156200018f576200018e620000ff565b5b5f6200019e8482850162000161565b91505092915050565b610ebd80620001b55f395ff3fe608060405234801561000f575f80fd5b506004361061004a575f3560e01c8063156213731461004e578063630b11461461006c578063a6acb7ee1461008a578063f42f2e82146100a6575b5f80fd5b6100566100d8565b60405161006391906105a2565b60405180910390f35b6100746100df565b6040516100819190610645565b60405180910390f35b6100a4600480360381019061009f91906107d5565b6100e4565b005b6100c060048036038101906100bb919061086b565b6104b7565b6040516100cf939291906108a5565b60405180910390f35b5f30905090565b606090565b825f8054906101000a900473ffffffffffffffffffffffffffffffffffffffff1673ffffffffffffffffffffffffffffffffffffffff166370a08231336040518263ffffffff1660e01b815260040161013d91906105a2565b602060405180830381865afa158015610158573d5f803e3d5ffd5b505050506040513d601f19601f8201168201806040525081019061017c91906108f5565b10156101bd576040517f08c379a00000000000000000000000000000000000000000000000000000000081526004016101b49061096a565b60405180910390fd5b6040516020016101cc906109dc565b60405160208183030381529060405280519060200120826040516020016101f39190610a20565b60405160208183030381529060405280519060200120036103cd578260045f3373ffffffffffffffffffffffffffffffffffffffff1673ffffffffffffffffffffffffffffffffffffffff1681526020019081526020015f205f01819055508160045f3373ffffffffffffffffffffffffffffffffffffffff1673ffffffffffffffffffffffffffffffffffffffff1681526020019081526020015f20600101908161029f9190610c30565b5080426102ac9190610d2c565b60045f3373ffffffffffffffffffffffffffffffffffffffff1673ffffffffffffffffffffffffffffffffffffffff1681526020019081526020015f20600201819055505f8054906101000a900473ffffffffffffffffffffffffffffffffffffffff1673ffffffffffffffffffffffffffffffffffffffff166323b872dd3330866040518463ffffffff1660e01b815260040161034c93929190610d5f565b6020604051808303815f875af1158015610368573d5f803e3d5ffd5b505050506040513d601f19601f8201168201806040525081019061038c9190610dc9565b507f96c68044657fcb3bea5ad282f026bd0361f647d377dfe1615a77e35dd87280a13384426040516103c093929190610df4565b60405180910390a16104b2565b6040516020016103dc90610e73565b60405160208183030381529060405280519060200120826040516020016104039190610a20565b60405160208183030381529060405280519060200120036104b1578260045f3373ffffffffffffffffffffffffffffffffffffffff1673ffffffffffffffffffffffffffffffffffffffff1681526020019081526020015f205f01819055508160045f3373ffffffffffffffffffffffffffffffffffffffff1673ffffffffffffffffffffffffffffffffffffffff1681526020019081526020015f2060010190816104af9190610c30565b505b5b505050565b6004602052805f5260405f205f91509050805f0154908060010180546104dc90610a63565b80601f016020809104026020016040519081016040528092919081815260200182805461050890610a63565b80156105535780601f1061052a57610100808354040283529160200191610553565b820191905f5260205f20905b81548152906001019060200180831161053657829003601f168201915b5050505050908060020154905083565b5f73ffffffffffffffffffffffffffffffffffffffff82169050919050565b5f61058c82610563565b9050919050565b61059c81610582565b82525050565b5f6020820190506105b55f830184610593565b92915050565b5f81519050919050565b5f82825260208201905092915050565b5f5b838110156105f25780820151818401526020810190506105d7565b5f8484015250505050565b5f601f19601f8301169050919050565b5f610617826105bb565b61062181856105c5565b93506106318185602086016105d5565b61063a816105fd565b840191505092915050565b5f6020820190508181035f83015261065d818461060d565b905092915050565b5f604051905090565b5f80fd5b5f80fd5b5f819050919050565b61068881610676565b8114610692575f80fd5b50565b5f813590506106a38161067f565b92915050565b5f80fd5b5f80fd5b7f4e487b71000000000000000000000000000000000000000000000000000000005f52604160045260245ffd5b6106e7826105fd565b810181811067ffffffffffffffff82111715610706576107056106b1565b5b80604052505050565b5f610718610665565b905061072482826106de565b919050565b5f67ffffffffffffffff821115610743576107426106b1565b5b61074c826105fd565b9050602081019050919050565b828183375f83830152505050565b5f61077961077484610729565b61070f565b905082815260208101848484011115610795576107946106ad565b5b6107a0848285610759565b509392505050565b5f82601f8301126107bc576107bb6106a9565b5b81356107cc848260208601610767565b91505092915050565b5f805f606084860312156107ec576107eb61066e565b5b5f6107f986828701610695565b935050602084013567ffffffffffffffff81111561081a57610819610672565b5b610826868287016107a8565b925050604061083786828701610695565b9150509250925092565b61084a81610582565b8114610854575f80fd5b50565b5f8135905061086581610841565b92915050565b5f602082840312156108805761087f61066e565b5b5f61088d84828501610857565b91505092915050565b61089f81610676565b82525050565b5f6060820190506108b85f830186610896565b81810360208301526108ca818561060d565b90506108d96040830184610896565b949350505050565b5f815190506108ef8161067f565b92915050565b5f6020828403121561090a5761090961066e565b5b5f610917848285016108e1565b91505092915050565b7f496e73756666696369656e742042616c616e63650000000000000000000000005f82015250565b5f6109546014836105c5565b915061095f82610920565b602082019050919050565b5f6020820190508181035f83015261098181610948565b9050919050565b5f81905092915050565b7f66697865640000000000000000000000000000000000000000000000000000005f82015250565b5f6109c6600583610988565b91506109d182610992565b600582019050919050565b5f6109e6826109ba565b9150819050919050565b5f6109fa826105bb565b610a048185610988565b9350610a148185602086016105d5565b80840191505092915050565b5f610a2b82846109f0565b915081905092915050565b7f4e487b71000000000000000000000000000000000000000000000000000000005f52602260045260245ffd5b5f6002820490506001821680610a7a57607f821691505b602082108103610a8d57610a8c610a36565b5b50919050565b5f819050815f5260205f209050919050565b5f6020601f8301049050919050565b5f82821b905092915050565b5f60088302610aef7fffffffffffffffffffffffffffffffffffffffffffffffffffffffffffffffff82610ab4565b610af98683610ab4565b95508019841693508086168417925050509392505050565b5f819050919050565b5f610b34610b2f610b2a84610676565b610b11565b610676565b9050919050565b5f819050919050565b610b4d83610b1a565b610b61610b5982610b3b565b848454610ac0565b825550505050565b5f90565b610b75610b69565b610b80818484610b44565b505050565b5b81811015610ba357610b985f82610b6d565b600181019050610b86565b5050565b601f821115610be857610bb981610a93565b610bc284610aa5565b81016020851015610bd1578190505b610be5610bdd85610aa5565b830182610b85565b50505b505050565b5f82821c905092915050565b5f610c085f1984600802610bed565b1980831691505092915050565b5f610c208383610bf9565b9150826002028217905092915050565b610c39826105bb565b67ffffffffffffffff811115610c5257610c516106b1565b5b610c5c8254610a63565b610c67828285610ba7565b5f60209050601f831160018114610c98575f8415610c86578287015190505b610c908582610c15565b865550610cf7565b601f198416610ca686610a93565b5f5b82811015610ccd57848901518255600182019150602085019450602081019050610ca8565b86831015610cea5784890151610ce6601f891682610bf9565b8355505b6001600288020188555050505b505050505050565b7f4e487b71000000000000000000000000000000000000000000000000000000005f52601160045260245ffd5b5f610d3682610676565b9150610d4183610676565b9250828201905080821115610d5957610d58610cff565b5b92915050565b5f606082019050610d725f830186610593565b610d7f6020830185610593565b610d8c6040830184610896565b949350505050565b5f8115159050919050565b610da881610d94565b8114610db2575f80fd5b50565b5f81519050610dc381610d9f565b92915050565b5f60208284031215610dde57610ddd61066e565b5b5f610deb84828501610db5565b91505092915050565b5f606082019050610e075f830186610593565b610e146020830185610896565b610e216040830184610896565b949350505050565b7f756e6669786564000000000000000000000000000000000000000000000000005f82015250565b5f610e5d600783610988565b9150610e6882610e29565b600782019050919050565b5f610e7d82610e51565b915081905091905056fea2646970667358221220290a9c2ce133be4afa143331ca0b2d1b6f5c7c829b15759d678c817ba727427a64736f6c63430008140033",
					"opcodes": "PUSH1 0x80 PUSH1 0x40 MSTORE PUSH2 0x12C TIMESTAMP PUSH3 0x14 SWAP2 SWAP1 PUSH3 0xC5 JUMP JUMPDEST PUSH1 0x2 SSTORE CALLVALUE DUP1 ISZERO PUSH3 0x23 JUMPI PUSH0 DUP1 REVERT JUMPDEST POP PUSH1 0x40 MLOAD PUSH3 0x1072 CODESIZE SUB DUP1 PUSH3 0x1072 DUP4 CODECOPY DUP2 DUP2 ADD PUSH1 0x40 MSTORE DUP2 ADD SWAP1 PUSH3 0x49 SWAP2 SWAP1 PUSH3 0x177 JUMP JUMPDEST DUP1 PUSH0 DUP1 PUSH2 0x100 EXP DUP2 SLOAD DUP2 PUSH20 0xFFFFFFFFFFFFFFFFFFFFFFFFFFFFFFFFFFFFFFFF MUL NOT AND SWAP1 DUP4 PUSH20 0xFFFFFFFFFFFFFFFFFFFFFFFFFFFFFFFFFFFFFFFF AND MUL OR SWAP1 SSTORE POP POP PUSH3 0x1A7 JUMP JUMPDEST PUSH0 DUP2 SWAP1 POP SWAP2 SWAP1 POP JUMP JUMPDEST PUSH32 0x4E487B7100000000000000000000000000000000000000000000000000000000 PUSH0 MSTORE PUSH1 0x11 PUSH1 0x4 MSTORE PUSH1 0x24 PUSH0 REVERT JUMPDEST PUSH0 PUSH3 0xD1 DUP3 PUSH3 0x8F JUMP JUMPDEST SWAP2 POP PUSH3 0xDE DUP4 PUSH3 0x8F JUMP JUMPDEST SWAP3 POP DUP3 DUP3 ADD SWAP1 POP DUP1 DUP3 GT ISZERO PUSH3 0xF9 JUMPI PUSH3 0xF8 PUSH3 0x98 JUMP JUMPDEST JUMPDEST SWAP3 SWAP2 POP POP JUMP JUMPDEST PUSH0 DUP1 REVERT JUMPDEST PUSH0 PUSH20 0xFFFFFFFFFFFFFFFFFFFFFFFFFFFFFFFFFFFFFFFF DUP3 AND SWAP1 POP SWAP2 SWAP1 POP JUMP JUMPDEST PUSH0 PUSH3 0x12E DUP3 PUSH3 0x103 JUMP JUMPDEST SWAP1 POP SWAP2 SWAP1 POP JUMP JUMPDEST PUSH0 PUSH3 0x141 DUP3 PUSH3 0x122 JUMP JUMPDEST SWAP1 POP SWAP2 SWAP1 POP JUMP JUMPDEST PUSH3 0x153 DUP2 PUSH3 0x135 JUMP JUMPDEST DUP2 EQ PUSH3 0x15E JUMPI PUSH0 DUP1 REVERT JUMPDEST POP JUMP JUMPDEST PUSH0 DUP2 MLOAD SWAP1 POP PUSH3 0x171 DUP2 PUSH3 0x148 JUMP JUMPDEST SWAP3 SWAP2 POP POP JUMP JUMPDEST PUSH0 PUSH1 0x20 DUP3 DUP5 SUB SLT ISZERO PUSH3 0x18F JUMPI PUSH3 0x18E PUSH3 0xFF JUMP JUMPDEST JUMPDEST PUSH0 PUSH3 0x19E DUP5 DUP3 DUP6 ADD PUSH3 0x161 JUMP JUMPDEST SWAP2 POP POP SWAP3 SWAP2 POP POP JUMP JUMPDEST PUSH2 0xEBD DUP1 PUSH3 0x1B5 PUSH0 CODECOPY PUSH0 RETURN INVALID PUSH1 0x80 PUSH1 0x40 MSTORE CALLVALUE DUP1 ISZERO PUSH2 0xF JUMPI PUSH0 DUP1 REVERT JUMPDEST POP PUSH1 0x4 CALLDATASIZE LT PUSH2 0x4A JUMPI PUSH0 CALLDATALOAD PUSH1 0xE0 SHR DUP1 PUSH4 0x15621373 EQ PUSH2 0x4E JUMPI DUP1 PUSH4 0x630B1146 EQ PUSH2 0x6C JUMPI DUP1 PUSH4 0xA6ACB7EE EQ PUSH2 0x8A JUMPI DUP1 PUSH4 0xF42F2E82 EQ PUSH2 0xA6 JUMPI JUMPDEST PUSH0 DUP1 REVERT JUMPDEST PUSH2 0x56 PUSH2 0xD8 JUMP JUMPDEST PUSH1 0x40 MLOAD PUSH2 0x63 SWAP2 SWAP1 PUSH2 0x5A2 JUMP JUMPDEST PUSH1 0x40 MLOAD DUP1 SWAP2 SUB SWAP1 RETURN JUMPDEST PUSH2 0x74 PUSH2 0xDF JUMP JUMPDEST PUSH1 0x40 MLOAD PUSH2 0x81 SWAP2 SWAP1 PUSH2 0x645 JUMP JUMPDEST PUSH1 0x40 MLOAD DUP1 SWAP2 SUB SWAP1 RETURN JUMPDEST PUSH2 0xA4 PUSH1 0x4 DUP1 CALLDATASIZE SUB DUP2 ADD SWAP1 PUSH2 0x9F SWAP2 SWAP1 PUSH2 0x7D5 JUMP JUMPDEST PUSH2 0xE4 JUMP JUMPDEST STOP JUMPDEST PUSH2 0xC0 PUSH1 0x4 DUP1 CALLDATASIZE SUB DUP2 ADD SWAP1 PUSH2 0xBB SWAP2 SWAP1 PUSH2 0x86B JUMP JUMPDEST PUSH2 0x4B7 JUMP JUMPDEST PUSH1 0x40 MLOAD PUSH2 0xCF SWAP4 SWAP3 SWAP2 SWAP1 PUSH2 0x8A5 JUMP JUMPDEST PUSH1 0x40 MLOAD DUP1 SWAP2 SUB SWAP1 RETURN JUMPDEST PUSH0 ADDRESS SWAP1 POP SWAP1 JUMP JUMPDEST PUSH1 0x60 SWAP1 JUMP JUMPDEST DUP3 PUSH0 DUP1 SLOAD SWAP1 PUSH2 0x100 EXP SWAP1 DIV PUSH20 0xFFFFFFFFFFFFFFFFFFFFFFFFFFFFFFFFFFFFFFFF AND PUSH20 0xFFFFFFFFFFFFFFFFFFFFFFFFFFFFFFFFFFFFFFFF AND PUSH4 0x70A08231 CALLER PUSH1 0x40 MLOAD DUP3 PUSH4 0xFFFFFFFF AND PUSH1 0xE0 SHL DUP2 MSTORE PUSH1 0x4 ADD PUSH2 0x13D SWAP2 SWAP1 PUSH2 0x5A2 JUMP JUMPDEST PUSH1 0x20 PUSH1 0x40 MLOAD DUP1 DUP4 SUB DUP2 DUP7 GAS STATICCALL ISZERO DUP1 ISZERO PUSH2 0x158 JUMPI RETURNDATASIZE PUSH0 DUP1 RETURNDATACOPY RETURNDATASIZE PUSH0 REVERT JUMPDEST POP POP POP POP PUSH1 0x40 MLOAD RETURNDATASIZE PUSH1 0x1F NOT PUSH1 0x1F DUP3 ADD AND DUP3 ADD DUP1 PUSH1 0x40 MSTORE POP DUP2 ADD SWAP1 PUSH2 0x17C SWAP2 SWAP1 PUSH2 0x8F5 JUMP JUMPDEST LT ISZERO PUSH2 0x1BD JUMPI PUSH1 0x40 MLOAD PUSH32 0x8C379A000000000000000000000000000000000000000000000000000000000 DUP2 MSTORE PUSH1 0x4 ADD PUSH2 0x1B4 SWAP1 PUSH2 0x96A JUMP JUMPDEST PUSH1 0x40 MLOAD DUP1 SWAP2 SUB SWAP1 REVERT JUMPDEST PUSH1 0x40 MLOAD PUSH1 0x20 ADD PUSH2 0x1CC SWAP1 PUSH2 0x9DC JUMP JUMPDEST PUSH1 0x40 MLOAD PUSH1 0x20 DUP2 DUP4 SUB SUB DUP2 MSTORE SWAP1 PUSH1 0x40 MSTORE DUP1 MLOAD SWAP1 PUSH1 0x20 ADD KECCAK256 DUP3 PUSH1 0x40 MLOAD PUSH1 0x20 ADD PUSH2 0x1F3 SWAP2 SWAP1 PUSH2 0xA20 JUMP JUMPDEST PUSH1 0x40 MLOAD PUSH1 0x20 DUP2 DUP4 SUB SUB DUP2 MSTORE SWAP1 PUSH1 0x40 MSTORE DUP1 MLOAD SWAP1 PUSH1 0x20 ADD KECCAK256 SUB PUSH2 0x3CD JUMPI DUP3 PUSH1 0x4 PUSH0 CALLER PUSH20 0xFFFFFFFFFFFFFFFFFFFFFFFFFFFFFFFFFFFFFFFF AND PUSH20 0xFFFFFFFFFFFFFFFFFFFFFFFFFFFFFFFFFFFFFFFF AND DUP2 MSTORE PUSH1 0x20 ADD SWAP1 DUP2 MSTORE PUSH1 0x20 ADD PUSH0 KECCAK256 PUSH0 ADD DUP2 SWAP1 SSTORE POP DUP2 PUSH1 0x4 PUSH0 CALLER PUSH20 0xFFFFFFFFFFFFFFFFFFFFFFFFFFFFFFFFFFFFFFFF AND PUSH20 0xFFFFFFFFFFFFFFFFFFFFFFFFFFFFFFFFFFFFFFFF AND DUP2 MSTORE PUSH1 0x20 ADD SWAP1 DUP2 MSTORE PUSH1 0x20 ADD PUSH0 KECCAK256 PUSH1 0x1 ADD SWAP1 DUP2 PUSH2 0x29F SWAP2 SWAP1 PUSH2 0xC30 JUMP JUMPDEST POP DUP1 TIMESTAMP PUSH2 0x2AC SWAP2 SWAP1 PUSH2 0xD2C JUMP JUMPDEST PUSH1 0x4 PUSH0 CALLER PUSH20 0xFFFFFFFFFFFFFFFFFFFFFFFFFFFFFFFFFFFFFFFF AND PUSH20 0xFFFFFFFFFFFFFFFFFFFFFFFFFFFFFFFFFFFFFFFF AND DUP2 MSTORE PUSH1 0x20 ADD SWAP1 DUP2 MSTORE PUSH1 0x20 ADD PUSH0 KECCAK256 PUSH1 0x2 ADD DUP2 SWAP1 SSTORE POP PUSH0 DUP1 SLOAD SWAP1 PUSH2 0x100 EXP SWAP1 DIV PUSH20 0xFFFFFFFFFFFFFFFFFFFFFFFFFFFFFFFFFFFFFFFF AND PUSH20 0xFFFFFFFFFFFFFFFFFFFFFFFFFFFFFFFFFFFFFFFF AND PUSH4 0x23B872DD CALLER ADDRESS DUP7 PUSH1 0x40 MLOAD DUP5 PUSH4 0xFFFFFFFF AND PUSH1 0xE0 SHL DUP2 MSTORE PUSH1 0x4 ADD PUSH2 0x34C SWAP4 SWAP3 SWAP2 SWAP1 PUSH2 0xD5F JUMP JUMPDEST PUSH1 0x20 PUSH1 0x40 MLOAD DUP1 DUP4 SUB DUP2 PUSH0 DUP8 GAS CALL ISZERO DUP1 ISZERO PUSH2 0x368 JUMPI RETURNDATASIZE PUSH0 DUP1 RETURNDATACOPY RETURNDATASIZE PUSH0 REVERT JUMPDEST POP POP POP POP PUSH1 0x40 MLOAD RETURNDATASIZE PUSH1 0x1F NOT PUSH1 0x1F DUP3 ADD AND DUP3 ADD DUP1 PUSH1 0x40 MSTORE POP DUP2 ADD SWAP1 PUSH2 0x38C SWAP2 SWAP1 PUSH2 0xDC9 JUMP JUMPDEST POP PUSH32 0x96C68044657FCB3BEA5AD282F026BD0361F647D377DFE1615A77E35DD87280A1 CALLER DUP5 TIMESTAMP PUSH1 0x40 MLOAD PUSH2 0x3C0 SWAP4 SWAP3 SWAP2 SWAP1 PUSH2 0xDF4 JUMP JUMPDEST PUSH1 0x40 MLOAD DUP1 SWAP2 SUB SWAP1 LOG1 PUSH2 0x4B2 JUMP JUMPDEST PUSH1 0x40 MLOAD PUSH1 0x20 ADD PUSH2 0x3DC SWAP1 PUSH2 0xE73 JUMP JUMPDEST PUSH1 0x40 MLOAD PUSH1 0x20 DUP2 DUP4 SUB SUB DUP2 MSTORE SWAP1 PUSH1 0x40 MSTORE DUP1 MLOAD SWAP1 PUSH1 0x20 ADD KECCAK256 DUP3 PUSH1 0x40 MLOAD PUSH1 0x20 ADD PUSH2 0x403 SWAP2 SWAP1 PUSH2 0xA20 JUMP JUMPDEST PUSH1 0x40 MLOAD PUSH1 0x20 DUP2 DUP4 SUB SUB DUP2 MSTORE SWAP1 PUSH1 0x40 MSTORE DUP1 MLOAD SWAP1 PUSH1 0x20 ADD KECCAK256 SUB PUSH2 0x4B1 JUMPI DUP3 PUSH1 0x4 PUSH0 CALLER PUSH20 0xFFFFFFFFFFFFFFFFFFFFFFFFFFFFFFFFFFFFFFFF AND PUSH20 0xFFFFFFFFFFFFFFFFFFFFFFFFFFFFFFFFFFFFFFFF AND DUP2 MSTORE PUSH1 0x20 ADD SWAP1 DUP2 MSTORE PUSH1 0x20 ADD PUSH0 KECCAK256 PUSH0 ADD DUP2 SWAP1 SSTORE POP DUP2 PUSH1 0x4 PUSH0 CALLER PUSH20 0xFFFFFFFFFFFFFFFFFFFFFFFFFFFFFFFFFFFFFFFF AND PUSH20 0xFFFFFFFFFFFFFFFFFFFFFFFFFFFFFFFFFFFFFFFF AND DUP2 MSTORE PUSH1 0x20 ADD SWAP1 DUP2 MSTORE PUSH1 0x20 ADD PUSH0 KECCAK256 PUSH1 0x1 ADD SWAP1 DUP2 PUSH2 0x4AF SWAP2 SWAP1 PUSH2 0xC30 JUMP JUMPDEST POP JUMPDEST JUMPDEST POP POP POP JUMP JUMPDEST PUSH1 0x4 PUSH1 0x20 MSTORE DUP1 PUSH0 MSTORE PUSH1 0x40 PUSH0 KECCAK256 PUSH0 SWAP2 POP SWAP1 POP DUP1 PUSH0 ADD SLOAD SWAP1 DUP1 PUSH1 0x1 ADD DUP1 SLOAD PUSH2 0x4DC SWAP1 PUSH2 0xA63 JUMP JUMPDEST DUP1 PUSH1 0x1F ADD PUSH1 0x20 DUP1 SWAP2 DIV MUL PUSH1 0x20 ADD PUSH1 0x40 MLOAD SWAP1 DUP2 ADD PUSH1 0x40 MSTORE DUP1 SWAP3 SWAP2 SWAP1 DUP2 DUP2 MSTORE PUSH1 0x20 ADD DUP3 DUP1 SLOAD PUSH2 0x508 SWAP1 PUSH2 0xA63 JUMP JUMPDEST DUP1 ISZERO PUSH2 0x553 JUMPI DUP1 PUSH1 0x1F LT PUSH2 0x52A JUMPI PUSH2 0x100 DUP1 DUP4 SLOAD DIV MUL DUP4 MSTORE SWAP2 PUSH1 0x20 ADD SWAP2 PUSH2 0x553 JUMP JUMPDEST DUP3 ADD SWAP2 SWAP1 PUSH0 MSTORE PUSH1 0x20 PUSH0 KECCAK256 SWAP1 JUMPDEST DUP2 SLOAD DUP2 MSTORE SWAP1 PUSH1 0x1 ADD SWAP1 PUSH1 0x20 ADD DUP1 DUP4 GT PUSH2 0x536 JUMPI DUP3 SWAP1 SUB PUSH1 0x1F AND DUP3 ADD SWAP2 JUMPDEST POP POP POP POP POP SWAP1 DUP1 PUSH1 0x2 ADD SLOAD SWAP1 POP DUP4 JUMP JUMPDEST PUSH0 PUSH20 0xFFFFFFFFFFFFFFFFFFFFFFFFFFFFFFFFFFFFFFFF DUP3 AND SWAP1 POP SWAP2 SWAP1 POP JUMP JUMPDEST PUSH0 PUSH2 0x58C DUP3 PUSH2 0x563 JUMP JUMPDEST SWAP1 POP SWAP2 SWAP1 POP JUMP JUMPDEST PUSH2 0x59C DUP2 PUSH2 0x582 JUMP JUMPDEST DUP3 MSTORE POP POP JUMP JUMPDEST PUSH0 PUSH1 0x20 DUP3 ADD SWAP1 POP PUSH2 0x5B5 PUSH0 DUP4 ADD DUP5 PUSH2 0x593 JUMP JUMPDEST SWAP3 SWAP2 POP POP JUMP JUMPDEST PUSH0 DUP2 MLOAD SWAP1 POP SWAP2 SWAP1 POP JUMP JUMPDEST PUSH0 DUP3 DUP3 MSTORE PUSH1 0x20 DUP3 ADD SWAP1 POP SWAP3 SWAP2 POP POP JUMP JUMPDEST PUSH0 JUMPDEST DUP4 DUP2 LT ISZERO PUSH2 0x5F2 JUMPI DUP1 DUP3 ADD MLOAD DUP2 DUP5 ADD MSTORE PUSH1 0x20 DUP2 ADD SWAP1 POP PUSH2 0x5D7 JUMP JUMPDEST PUSH0 DUP5 DUP5 ADD MSTORE POP POP POP POP JUMP JUMPDEST PUSH0 PUSH1 0x1F NOT PUSH1 0x1F DUP4 ADD AND SWAP1 POP SWAP2 SWAP1 POP JUMP JUMPDEST PUSH0 PUSH2 0x617 DUP3 PUSH2 0x5BB JUMP JUMPDEST PUSH2 0x621 DUP2 DUP6 PUSH2 0x5C5 JUMP JUMPDEST SWAP4 POP PUSH2 0x631 DUP2 DUP6 PUSH1 0x20 DUP7 ADD PUSH2 0x5D5 JUMP JUMPDEST PUSH2 0x63A DUP2 PUSH2 0x5FD JUMP JUMPDEST DUP5 ADD SWAP2 POP POP SWAP3 SWAP2 POP POP JUMP JUMPDEST PUSH0 PUSH1 0x20 DUP3 ADD SWAP1 POP DUP2 DUP2 SUB PUSH0 DUP4 ADD MSTORE PUSH2 0x65D DUP2 DUP5 PUSH2 0x60D JUMP JUMPDEST SWAP1 POP SWAP3 SWAP2 POP POP JUMP JUMPDEST PUSH0 PUSH1 0x40 MLOAD SWAP1 POP SWAP1 JUMP JUMPDEST PUSH0 DUP1 REVERT JUMPDEST PUSH0 DUP1 REVERT JUMPDEST PUSH0 DUP2 SWAP1 POP SWAP2 SWAP1 POP JUMP JUMPDEST PUSH2 0x688 DUP2 PUSH2 0x676 JUMP JUMPDEST DUP2 EQ PUSH2 0x692 JUMPI PUSH0 DUP1 REVERT JUMPDEST POP JUMP JUMPDEST PUSH0 DUP2 CALLDATALOAD SWAP1 POP PUSH2 0x6A3 DUP2 PUSH2 0x67F JUMP JUMPDEST SWAP3 SWAP2 POP POP JUMP JUMPDEST PUSH0 DUP1 REVERT JUMPDEST PUSH0 DUP1 REVERT JUMPDEST PUSH32 0x4E487B7100000000000000000000000000000000000000000000000000000000 PUSH0 MSTORE PUSH1 0x41 PUSH1 0x4 MSTORE PUSH1 0x24 PUSH0 REVERT JUMPDEST PUSH2 0x6E7 DUP3 PUSH2 0x5FD JUMP JUMPDEST DUP2 ADD DUP2 DUP2 LT PUSH8 0xFFFFFFFFFFFFFFFF DUP3 GT OR ISZERO PUSH2 0x706 JUMPI PUSH2 0x705 PUSH2 0x6B1 JUMP JUMPDEST JUMPDEST DUP1 PUSH1 0x40 MSTORE POP POP POP JUMP JUMPDEST PUSH0 PUSH2 0x718 PUSH2 0x665 JUMP JUMPDEST SWAP1 POP PUSH2 0x724 DUP3 DUP3 PUSH2 0x6DE JUMP JUMPDEST SWAP2 SWAP1 POP JUMP JUMPDEST PUSH0 PUSH8 0xFFFFFFFFFFFFFFFF DUP3 GT ISZERO PUSH2 0x743 JUMPI PUSH2 0x742 PUSH2 0x6B1 JUMP JUMPDEST JUMPDEST PUSH2 0x74C DUP3 PUSH2 0x5FD JUMP JUMPDEST SWAP1 POP PUSH1 0x20 DUP2 ADD SWAP1 POP SWAP2 SWAP1 POP JUMP JUMPDEST DUP3 DUP2 DUP4 CALLDATACOPY PUSH0 DUP4 DUP4 ADD MSTORE POP POP POP JUMP JUMPDEST PUSH0 PUSH2 0x779 PUSH2 0x774 DUP5 PUSH2 0x729 JUMP JUMPDEST PUSH2 0x70F JUMP JUMPDEST SWAP1 POP DUP3 DUP2 MSTORE PUSH1 0x20 DUP2 ADD DUP5 DUP5 DUP5 ADD GT ISZERO PUSH2 0x795 JUMPI PUSH2 0x794 PUSH2 0x6AD JUMP JUMPDEST JUMPDEST PUSH2 0x7A0 DUP5 DUP3 DUP6 PUSH2 0x759 JUMP JUMPDEST POP SWAP4 SWAP3 POP POP POP JUMP JUMPDEST PUSH0 DUP3 PUSH1 0x1F DUP4 ADD SLT PUSH2 0x7BC JUMPI PUSH2 0x7BB PUSH2 0x6A9 JUMP JUMPDEST JUMPDEST DUP2 CALLDATALOAD PUSH2 0x7CC DUP5 DUP3 PUSH1 0x20 DUP7 ADD PUSH2 0x767 JUMP JUMPDEST SWAP2 POP POP SWAP3 SWAP2 POP POP JUMP JUMPDEST PUSH0 DUP1 PUSH0 PUSH1 0x60 DUP5 DUP7 SUB SLT ISZERO PUSH2 0x7EC JUMPI PUSH2 0x7EB PUSH2 0x66E JUMP JUMPDEST JUMPDEST PUSH0 PUSH2 0x7F9 DUP7 DUP3 DUP8 ADD PUSH2 0x695 JUMP JUMPDEST SWAP4 POP POP PUSH1 0x20 DUP5 ADD CALLDATALOAD PUSH8 0xFFFFFFFFFFFFFFFF DUP2 GT ISZERO PUSH2 0x81A JUMPI PUSH2 0x819 PUSH2 0x672 JUMP JUMPDEST JUMPDEST PUSH2 0x826 DUP7 DUP3 DUP8 ADD PUSH2 0x7A8 JUMP JUMPDEST SWAP3 POP POP PUSH1 0x40 PUSH2 0x837 DUP7 DUP3 DUP8 ADD PUSH2 0x695 JUMP JUMPDEST SWAP2 POP POP SWAP3 POP SWAP3 POP SWAP3 JUMP JUMPDEST PUSH2 0x84A DUP2 PUSH2 0x582 JUMP JUMPDEST DUP2 EQ PUSH2 0x854 JUMPI PUSH0 DUP1 REVERT JUMPDEST POP JUMP JUMPDEST PUSH0 DUP2 CALLDATALOAD SWAP1 POP PUSH2 0x865 DUP2 PUSH2 0x841 JUMP JUMPDEST SWAP3 SWAP2 POP POP JUMP JUMPDEST PUSH0 PUSH1 0x20 DUP3 DUP5 SUB SLT ISZERO PUSH2 0x880 JUMPI PUSH2 0x87F PUSH2 0x66E JUMP JUMPDEST JUMPDEST PUSH0 PUSH2 0x88D DUP5 DUP3 DUP6 ADD PUSH2 0x857 JUMP JUMPDEST SWAP2 POP POP SWAP3 SWAP2 POP POP JUMP JUMPDEST PUSH2 0x89F DUP2 PUSH2 0x676 JUMP JUMPDEST DUP3 MSTORE POP POP JUMP JUMPDEST PUSH0 PUSH1 0x60 DUP3 ADD SWAP1 POP PUSH2 0x8B8 PUSH0 DUP4 ADD DUP7 PUSH2 0x896 JUMP JUMPDEST DUP2 DUP2 SUB PUSH1 0x20 DUP4 ADD MSTORE PUSH2 0x8CA DUP2 DUP6 PUSH2 0x60D JUMP JUMPDEST SWAP1 POP PUSH2 0x8D9 PUSH1 0x40 DUP4 ADD DUP5 PUSH2 0x896 JUMP JUMPDEST SWAP5 SWAP4 POP POP POP POP JUMP JUMPDEST PUSH0 DUP2 MLOAD SWAP1 POP PUSH2 0x8EF DUP2 PUSH2 0x67F JUMP JUMPDEST SWAP3 SWAP2 POP POP JUMP JUMPDEST PUSH0 PUSH1 0x20 DUP3 DUP5 SUB SLT ISZERO PUSH2 0x90A JUMPI PUSH2 0x909 PUSH2 0x66E JUMP JUMPDEST JUMPDEST PUSH0 PUSH2 0x917 DUP5 DUP3 DUP6 ADD PUSH2 0x8E1 JUMP JUMPDEST SWAP2 POP POP SWAP3 SWAP2 POP POP JUMP JUMPDEST PUSH32 0x496E73756666696369656E742042616C616E6365000000000000000000000000 PUSH0 DUP3 ADD MSTORE POP JUMP JUMPDEST PUSH0 PUSH2 0x954 PUSH1 0x14 DUP4 PUSH2 0x5C5 JUMP JUMPDEST SWAP2 POP PUSH2 0x95F DUP3 PUSH2 0x920 JUMP JUMPDEST PUSH1 0x20 DUP3 ADD SWAP1 POP SWAP2 SWAP1 POP JUMP JUMPDEST PUSH0 PUSH1 0x20 DUP3 ADD SWAP1 POP DUP2 DUP2 SUB PUSH0 DUP4 ADD MSTORE PUSH2 0x981 DUP2 PUSH2 0x948 JUMP JUMPDEST SWAP1 POP SWAP2 SWAP1 POP JUMP JUMPDEST PUSH0 DUP2 SWAP1 POP SWAP3 SWAP2 POP POP JUMP JUMPDEST PUSH32 0x6669786564000000000000000000000000000000000000000000000000000000 PUSH0 DUP3 ADD MSTORE POP JUMP JUMPDEST PUSH0 PUSH2 0x9C6 PUSH1 0x5 DUP4 PUSH2 0x988 JUMP JUMPDEST SWAP2 POP PUSH2 0x9D1 DUP3 PUSH2 0x992 JUMP JUMPDEST PUSH1 0x5 DUP3 ADD SWAP1 POP SWAP2 SWAP1 POP JUMP JUMPDEST PUSH0 PUSH2 0x9E6 DUP3 PUSH2 0x9BA JUMP JUMPDEST SWAP2 POP DUP2 SWAP1 POP SWAP2 SWAP1 POP JUMP JUMPDEST PUSH0 PUSH2 0x9FA DUP3 PUSH2 0x5BB JUMP JUMPDEST PUSH2 0xA04 DUP2 DUP6 PUSH2 0x988 JUMP JUMPDEST SWAP4 POP PUSH2 0xA14 DUP2 DUP6 PUSH1 0x20 DUP7 ADD PUSH2 0x5D5 JUMP JUMPDEST DUP1 DUP5 ADD SWAP2 POP POP SWAP3 SWAP2 POP POP JUMP JUMPDEST PUSH0 PUSH2 0xA2B DUP3 DUP5 PUSH2 0x9F0 JUMP JUMPDEST SWAP2 POP DUP2 SWAP1 POP SWAP3 SWAP2 POP POP JUMP JUMPDEST PUSH32 0x4E487B7100000000000000000000000000000000000000000000000000000000 PUSH0 MSTORE PUSH1 0x22 PUSH1 0x4 MSTORE PUSH1 0x24 PUSH0 REVERT JUMPDEST PUSH0 PUSH1 0x2 DUP3 DIV SWAP1 POP PUSH1 0x1 DUP3 AND DUP1 PUSH2 0xA7A JUMPI PUSH1 0x7F DUP3 AND SWAP2 POP JUMPDEST PUSH1 0x20 DUP3 LT DUP2 SUB PUSH2 0xA8D JUMPI PUSH2 0xA8C PUSH2 0xA36 JUMP JUMPDEST JUMPDEST POP SWAP2 SWAP1 POP JUMP JUMPDEST PUSH0 DUP2 SWAP1 POP DUP2 PUSH0 MSTORE PUSH1 0x20 PUSH0 KECCAK256 SWAP1 POP SWAP2 SWAP1 POP JUMP JUMPDEST PUSH0 PUSH1 0x20 PUSH1 0x1F DUP4 ADD DIV SWAP1 POP SWAP2 SWAP1 POP JUMP JUMPDEST PUSH0 DUP3 DUP3 SHL SWAP1 POP SWAP3 SWAP2 POP POP JUMP JUMPDEST PUSH0 PUSH1 0x8 DUP4 MUL PUSH2 0xAEF PUSH32 0xFFFFFFFFFFFFFFFFFFFFFFFFFFFFFFFFFFFFFFFFFFFFFFFFFFFFFFFFFFFFFFFF DUP3 PUSH2 0xAB4 JUMP JUMPDEST PUSH2 0xAF9 DUP7 DUP4 PUSH2 0xAB4 JUMP JUMPDEST SWAP6 POP DUP1 NOT DUP5 AND SWAP4 POP DUP1 DUP7 AND DUP5 OR SWAP3 POP POP POP SWAP4 SWAP3 POP POP POP JUMP JUMPDEST PUSH0 DUP2 SWAP1 POP SWAP2 SWAP1 POP JUMP JUMPDEST PUSH0 PUSH2 0xB34 PUSH2 0xB2F PUSH2 0xB2A DUP5 PUSH2 0x676 JUMP JUMPDEST PUSH2 0xB11 JUMP JUMPDEST PUSH2 0x676 JUMP JUMPDEST SWAP1 POP SWAP2 SWAP1 POP JUMP JUMPDEST PUSH0 DUP2 SWAP1 POP SWAP2 SWAP1 POP JUMP JUMPDEST PUSH2 0xB4D DUP4 PUSH2 0xB1A JUMP JUMPDEST PUSH2 0xB61 PUSH2 0xB59 DUP3 PUSH2 0xB3B JUMP JUMPDEST DUP5 DUP5 SLOAD PUSH2 0xAC0 JUMP JUMPDEST DUP3 SSTORE POP POP POP POP JUMP JUMPDEST PUSH0 SWAP1 JUMP JUMPDEST PUSH2 0xB75 PUSH2 0xB69 JUMP JUMPDEST PUSH2 0xB80 DUP2 DUP5 DUP5 PUSH2 0xB44 JUMP JUMPDEST POP POP POP JUMP JUMPDEST JUMPDEST DUP2 DUP2 LT ISZERO PUSH2 0xBA3 JUMPI PUSH2 0xB98 PUSH0 DUP3 PUSH2 0xB6D JUMP JUMPDEST PUSH1 0x1 DUP2 ADD SWAP1 POP PUSH2 0xB86 JUMP JUMPDEST POP POP JUMP JUMPDEST PUSH1 0x1F DUP3 GT ISZERO PUSH2 0xBE8 JUMPI PUSH2 0xBB9 DUP2 PUSH2 0xA93 JUMP JUMPDEST PUSH2 0xBC2 DUP5 PUSH2 0xAA5 JUMP JUMPDEST DUP2 ADD PUSH1 0x20 DUP6 LT ISZERO PUSH2 0xBD1 JUMPI DUP2 SWAP1 POP JUMPDEST PUSH2 0xBE5 PUSH2 0xBDD DUP6 PUSH2 0xAA5 JUMP JUMPDEST DUP4 ADD DUP3 PUSH2 0xB85 JUMP JUMPDEST POP POP JUMPDEST POP POP POP JUMP JUMPDEST PUSH0 DUP3 DUP3 SHR SWAP1 POP SWAP3 SWAP2 POP POP JUMP JUMPDEST PUSH0 PUSH2 0xC08 PUSH0 NOT DUP5 PUSH1 0x8 MUL PUSH2 0xBED JUMP JUMPDEST NOT DUP1 DUP4 AND SWAP2 POP POP SWAP3 SWAP2 POP POP JUMP JUMPDEST PUSH0 PUSH2 0xC20 DUP4 DUP4 PUSH2 0xBF9 JUMP JUMPDEST SWAP2 POP DUP3 PUSH1 0x2 MUL DUP3 OR SWAP1 POP SWAP3 SWAP2 POP POP JUMP JUMPDEST PUSH2 0xC39 DUP3 PUSH2 0x5BB JUMP JUMPDEST PUSH8 0xFFFFFFFFFFFFFFFF DUP2 GT ISZERO PUSH2 0xC52 JUMPI PUSH2 0xC51 PUSH2 0x6B1 JUMP JUMPDEST JUMPDEST PUSH2 0xC5C DUP3 SLOAD PUSH2 0xA63 JUMP JUMPDEST PUSH2 0xC67 DUP3 DUP3 DUP6 PUSH2 0xBA7 JUMP JUMPDEST PUSH0 PUSH1 0x20 SWAP1 POP PUSH1 0x1F DUP4 GT PUSH1 0x1 DUP2 EQ PUSH2 0xC98 JUMPI PUSH0 DUP5 ISZERO PUSH2 0xC86 JUMPI DUP3 DUP8 ADD MLOAD SWAP1 POP JUMPDEST PUSH2 0xC90 DUP6 DUP3 PUSH2 0xC15 JUMP JUMPDEST DUP7 SSTORE POP PUSH2 0xCF7 JUMP JUMPDEST PUSH1 0x1F NOT DUP5 AND PUSH2 0xCA6 DUP7 PUSH2 0xA93 JUMP JUMPDEST PUSH0 JUMPDEST DUP3 DUP2 LT ISZERO PUSH2 0xCCD JUMPI DUP5 DUP10 ADD MLOAD DUP3 SSTORE PUSH1 0x1 DUP3 ADD SWAP2 POP PUSH1 0x20 DUP6 ADD SWAP5 POP PUSH1 0x20 DUP2 ADD SWAP1 POP PUSH2 0xCA8 JUMP JUMPDEST DUP7 DUP4 LT ISZERO PUSH2 0xCEA JUMPI DUP5 DUP10 ADD MLOAD PUSH2 0xCE6 PUSH1 0x1F DUP10 AND DUP3 PUSH2 0xBF9 JUMP JUMPDEST DUP4 SSTORE POP JUMPDEST PUSH1 0x1 PUSH1 0x2 DUP9 MUL ADD DUP9 SSTORE POP POP POP JUMPDEST POP POP POP POP POP POP JUMP JUMPDEST PUSH32 0x4E487B7100000000000000000000000000000000000000000000000000000000 PUSH0 MSTORE PUSH1 0x11 PUSH1 0x4 MSTORE PUSH1 0x24 PUSH0 REVERT JUMPDEST PUSH0 PUSH2 0xD36 DUP3 PUSH2 0x676 JUMP JUMPDEST SWAP2 POP PUSH2 0xD41 DUP4 PUSH2 0x676 JUMP JUMPDEST SWAP3 POP DUP3 DUP3 ADD SWAP1 POP DUP1 DUP3 GT ISZERO PUSH2 0xD59 JUMPI PUSH2 0xD58 PUSH2 0xCFF JUMP JUMPDEST JUMPDEST SWAP3 SWAP2 POP POP JUMP JUMPDEST PUSH0 PUSH1 0x60 DUP3 ADD SWAP1 POP PUSH2 0xD72 PUSH0 DUP4 ADD DUP7 PUSH2 0x593 JUMP JUMPDEST PUSH2 0xD7F PUSH1 0x20 DUP4 ADD DUP6 PUSH2 0x593 JUMP JUMPDEST PUSH2 0xD8C PUSH1 0x40 DUP4 ADD DUP5 PUSH2 0x896 JUMP JUMPDEST SWAP5 SWAP4 POP POP POP POP JUMP JUMPDEST PUSH0 DUP2 ISZERO ISZERO SWAP1 POP SWAP2 SWAP1 POP JUMP JUMPDEST PUSH2 0xDA8 DUP2 PUSH2 0xD94 JUMP JUMPDEST DUP2 EQ PUSH2 0xDB2 JUMPI PUSH0 DUP1 REVERT JUMPDEST POP JUMP JUMPDEST PUSH0 DUP2 MLOAD SWAP1 POP PUSH2 0xDC3 DUP2 PUSH2 0xD9F JUMP JUMPDEST SWAP3 SWAP2 POP POP JUMP JUMPDEST PUSH0 PUSH1 0x20 DUP3 DUP5 SUB SLT ISZERO PUSH2 0xDDE JUMPI PUSH2 0xDDD PUSH2 0x66E JUMP JUMPDEST JUMPDEST PUSH0 PUSH2 0xDEB DUP5 DUP3 DUP6 ADD PUSH2 0xDB5 JUMP JUMPDEST SWAP2 POP POP SWAP3 SWAP2 POP POP JUMP JUMPDEST PUSH0 PUSH1 0x60 DUP3 ADD SWAP1 POP PUSH2 0xE07 PUSH0 DUP4 ADD DUP7 PUSH2 0x593 JUMP JUMPDEST PUSH2 0xE14 PUSH1 0x20 DUP4 ADD DUP6 PUSH2 0x896 JUMP JUMPDEST PUSH2 0xE21 PUSH1 0x40 DUP4 ADD DUP5 PUSH2 0x896 JUMP JUMPDEST SWAP5 SWAP4 POP POP POP POP JUMP JUMPDEST PUSH32 0x756E666978656400000000000000000000000000000000000000000000000000 PUSH0 DUP3 ADD MSTORE POP JUMP JUMPDEST PUSH0 PUSH2 0xE5D PUSH1 0x7 DUP4 PUSH2 0x988 JUMP JUMPDEST SWAP2 POP PUSH2 0xE68 DUP3 PUSH2 0xE29 JUMP JUMPDEST PUSH1 0x7 DUP3 ADD SWAP1 POP SWAP2 SWAP1 POP JUMP JUMPDEST PUSH0 PUSH2 0xE7D DUP3 PUSH2 0xE51 JUMP JUMPDEST SWAP2 POP DUP2 SWAP1 POP SWAP2 SWAP1 POP JUMP INVALID LOG2 PUSH5 0x6970667358 0x22 SLT KECCAK256 0x29 EXP SWAP13 0x2C 0xE1 CALLER 0xBE 0x4A STATICCALL EQ CALLER BALANCE 0xCA SIGNEXTEND 0x2D SHL PUSH16 0x5C7C829B15759D678C817BA727427A64 PUSH20 0x6F6C634300081400330000000000000000000000 "
				},
				"gasEstimates": {
					"creation": {
						"codeDepositCost": "754600",
						"executionCost": "infinite",
						"totalCost": "infinite"
					},
					"external": {
						"Stake_details(address)": "infinite",
						"getcontractaddress()": "357",
						"staking(uint256,string,uint256)": "infinite",
						"unstaking()": "infinite"
					}
				},
				"methodIdentifiers": {
					"Stake_details(address)": "f42f2e82",
					"getcontractaddress()": "15621373",
					"staking(uint256,string,uint256)": "a6acb7ee",
					"unstaking()": "630b1146"
				}
			},
			"storageLayout": {
				"storage": [
					{
						"astId": 337,
						"contract": "Final Assignment/final_assignment_staking 1.sol:Staking_Token",
						"label": "Token",
						"offset": 0,
						"slot": "0",
						"type": "t_contract(ERC20Basic)331"
					},
					{
						"astId": 357,
						"contract": "Final Assignment/final_assignment_staking 1.sol:Staking_Token",
						"label": "mapping_address",
						"offset": 0,
						"slot": "1",
						"type": "t_address"
					},
					{
						"astId": 363,
						"contract": "Final Assignment/final_assignment_staking 1.sol:Staking_Token",
						"label": "experttime_forfixedstaking",
						"offset": 0,
						"slot": "2",
						"type": "t_uint256"
					},
					{
						"astId": 365,
						"contract": "Final Assignment/final_assignment_staking 1.sol:Staking_Token",
						"label": "stake_reward",
						"offset": 0,
						"slot": "3",
						"type": "t_uint256"
					},
					{
						"astId": 370,
						"contract": "Final Assignment/final_assignment_staking 1.sol:Staking_Token",
						"label": "Stake_details",
						"offset": 0,
						"slot": "4",
						"type": "t_mapping(t_address,t_struct(Stake)355_storage)"
					}
				],
				"types": {
					"t_address": {
						"encoding": "inplace",
						"label": "address",
						"numberOfBytes": "20"
					},
					"t_contract(ERC20Basic)331": {
						"encoding": "inplace",
						"label": "contract ERC20Basic",
						"numberOfBytes": "20"
					},
					"t_mapping(t_address,t_struct(Stake)355_storage)": {
						"encoding": "mapping",
						"key": "t_address",
						"label": "mapping(address => struct Staking_Token.Stake)",
						"numberOfBytes": "32",
						"value": "t_struct(Stake)355_storage"
					},
					"t_string_storage": {
						"encoding": "bytes",
						"label": "string",
						"numberOfBytes": "32"
					},
					"t_struct(Stake)355_storage": {
						"encoding": "inplace",
						"label": "struct Staking_Token.Stake",
						"members": [
							{
								"astId": 350,
								"contract": "Final Assignment/final_assignment_staking 1.sol:Staking_Token",
								"label": "stake_amount",
								"offset": 0,
								"slot": "0",
								"type": "t_uint256"
							},
							{
								"astId": 352,
								"contract": "Final Assignment/final_assignment_staking 1.sol:Staking_Token",
								"label": "stake_type",
								"offset": 0,
								"slot": "1",
								"type": "t_string_storage"
							},
							{
								"astId": 354,
								"contract": "Final Assignment/final_assignment_staking 1.sol:Staking_Token",
								"label": "stake_time",
								"offset": 0,
								"slot": "2",
								"type": "t_uint256"
							}
						],
						"numberOfBytes": "96"
					},
					"t_uint256": {
						"encoding": "inplace",
						"label": "uint256",
						"numberOfBytes": "32"
					}
				}
			},
			"userdoc": {
				"kind": "user",
				"methods": {},
				"version": 1
			}
		}
	}
}