{
	"data": {
		"bytecode": {
			"linkReferences": {},
			"object": "608060405261012c42620000149190620000d4565b60025560046003556006600455600260055534801562000032575f80fd5b506040516200228638038062002286833981810160405281019062000058919062000186565b805f806101000a81548173ffffffffffffffffffffffffffffffffffffffff021916908373ffffffffffffffffffffffffffffffffffffffff16021790555050620001b6565b5f819050919050565b7f4e487b71000000000000000000000000000000000000000000000000000000005f52601160045260245ffd5b5f620000e0826200009e565b9150620000ed836200009e565b9250828201905080821115620001085762000107620000a7565b5b92915050565b5f80fd5b5f73ffffffffffffffffffffffffffffffffffffffff82169050919050565b5f6200013d8262000112565b9050919050565b5f620001508262000131565b9050919050565b620001628162000144565b81146200016d575f80fd5b50565b5f81519050620001808162000157565b92915050565b5f602082840312156200019e576200019d6200010e565b5b5f620001ad8482850162000170565b91505092915050565b6120c280620001c45f395ff3fe608060405234801561000f575f80fd5b5060043610610055575f3560e01c8063070825d514610059578063151cc95d1461008957806315621373146100bd578063b6e2b395146100db578063fe004efb1461010b575b5f80fd5b610073600480360381019061006e91906114ef565b610127565b604051610080919061153c565b60405180910390f35b6100a3600480360381019061009e91906114ef565b6109a2565b6040516100b49594939291906115f9565b60405180910390f35b6100c5610a80565b6040516100d29190611660565b60405180910390f35b6100f560048036038101906100f09190611679565b610a87565b604051610102919061153c565b60405180910390f35b610125600480360381019061012091906117fa565b610b27565b005b5f6101666040518060400160405280600581526020017f68656c6c6f0000000000000000000000000000000000000000000000000000008152506112f9565b60011515600a5f8573ffffffffffffffffffffffffffffffffffffffff1673ffffffffffffffffffffffffffffffffffffffff1681526020019081526020015f2083815481106101b9576101b861188d565b5b905f5260205f2090600502016004015f9054906101000a900460ff1615150361073c5760025442111561041f576102076040518060600160405280602a8152602001612027602a91396112f9565b6064600a5f8573ffffffffffffffffffffffffffffffffffffffff1673ffffffffffffffffffffffffffffffffffffffff1681526020019081526020015f2083815481106102585761025761188d565b5b905f5260205f20906005020160020154600454600a5f8773ffffffffffffffffffffffffffffffffffffffff1673ffffffffffffffffffffffffffffffffffffffff1681526020019081526020015f2085815481106102ba576102b961188d565b5b905f5260205f2090600502015f01546102d391906118e7565b6102dd91906118e7565b6102e79190611955565b6007819055506301e13380600754600a5f8673ffffffffffffffffffffffffffffffffffffffff1673ffffffffffffffffffffffffffffffffffffffff1681526020019081526020015f2084815481106103445761034361188d565b5b905f5260205f2090600502015f015461035d9190611985565b6103679190611955565b600881905550610378600854611392565b5f8054906101000a900473ffffffffffffffffffffffffffffffffffffffff1673ffffffffffffffffffffffffffffffffffffffff1663a9059cbb846008546040518363ffffffff1660e01b81526004016103d49291906119b8565b6020604051808303815f875af11580156103f0573d5f803e3d5ffd5b505050506040513d601f19601f8201168201806040525081019061041491906119f3565b50600854905061099c565b6002544210156107375761044a6040518060600160405280603c8152602001612051603c91396112f9565b600254600a5f8573ffffffffffffffffffffffffffffffffffffffff1673ffffffffffffffffffffffffffffffffffffffff1681526020019081526020015f20838154811061049c5761049b61188d565b5b905f5260205f20906005020160020154106104ec576040517f08c379a00000000000000000000000000000000000000000000000000000000081526004016104e390611a41565b60405180910390fd5b6064600a5f8573ffffffffffffffffffffffffffffffffffffffff1673ffffffffffffffffffffffffffffffffffffffff1681526020019081526020015f20838154811061053d5761053c61188d565b5b905f5260205f20906005020160030154426105589190611a5f565b600454600a5f8773ffffffffffffffffffffffffffffffffffffffff1673ffffffffffffffffffffffffffffffffffffffff1681526020019081526020015f2085815481106105aa576105a961188d565b5b905f5260205f2090600502015f01546105c391906118e7565b6105cd91906118e7565b6105d79190611955565b6007819055506105e8600754611392565b606460606007546105f991906118e7565b6106039190611955565b600881905550610614600854611392565b600a5f8473ffffffffffffffffffffffffffffffffffffffff1673ffffffffffffffffffffffffffffffffffffffff1681526020019081526020015f2082815481106106635761066261188d565b5b905f5260205f2090600502015f015460085461067f9190611985565b600981905550610690600954611392565b5f8054906101000a900473ffffffffffffffffffffffffffffffffffffffff1673ffffffffffffffffffffffffffffffffffffffff1663a9059cbb846009546040518363ffffffff1660e01b81526004016106ec9291906119b8565b6020604051808303815f875af1158015610708573d5f803e3d5ffd5b505050506040513d601f19601f8201168201806040525081019061072c91906119f3565b50600954905061099c565b61099b565b5f1515600a5f8573ffffffffffffffffffffffffffffffffffffffff1673ffffffffffffffffffffffffffffffffffffffff1681526020019081526020015f20838154811061078e5761078d61188d565b5b905f5260205f2090600502016004015f9054906101000a900460ff1615150361099a576107ef6040518060400160405280600e81526020017f6e6f74206669786564206c6f6f700000000000000000000000000000000000008152506112f9565b6064600554600a5f8673ffffffffffffffffffffffffffffffffffffffff1673ffffffffffffffffffffffffffffffffffffffff1681526020019081526020015f2084815481106108435761084261188d565b5b905f5260205f2090600502015f015461085c91906118e7565b6108669190611955565b600781905550610877600754611392565b600754600a5f8573ffffffffffffffffffffffffffffffffffffffff1673ffffffffffffffffffffffffffffffffffffffff1681526020019081526020015f2083815481106108c9576108c861188d565b5b905f5260205f2090600502015f01546108e29190611985565b6008819055506108f3600854611392565b5f8054906101000a900473ffffffffffffffffffffffffffffffffffffffff1673ffffffffffffffffffffffffffffffffffffffff1663a9059cbb846008546040518363ffffffff1660e01b815260040161094f9291906119b8565b6020604051808303815f875af115801561096b573d5f803e3d5ffd5b505050506040513d601f19601f8201168201806040525081019061098f91906119f3565b50600854905061099c565b5b5b92915050565b600a602052815f5260405f2081815481106109bb575f80fd5b905f5260205f2090600502015f9150915050805f0154908060010180546109e190611abf565b80601f0160208091040260200160405190810160405280929190818152602001828054610a0d90611abf565b8015610a585780601f10610a2f57610100808354040283529160200191610a58565b820191905f5260205f20905b815481529060010190602001808311610a3b57829003601f168201915b505050505090806002015490806003015490806004015f9054906101000a900460ff16905085565b5f30905090565b5f805f9054906101000a900473ffffffffffffffffffffffffffffffffffffffff1673ffffffffffffffffffffffffffffffffffffffff166370a08231836040518263ffffffff1660e01b8152600401610ae19190611660565b602060405180830381865afa158015610afc573d5f803e3d5ffd5b505050506040513d601f19601f82011682018060405250810190610b209190611b03565b9050919050565b845f8054906101000a900473ffffffffffffffffffffffffffffffffffffffff1673ffffffffffffffffffffffffffffffffffffffff166370a08231336040518263ffffffff1660e01b8152600401610b809190611660565b602060405180830381865afa158015610b9b573d5f803e3d5ffd5b505050506040513d601f19601f82011682018060405250810190610bbf9190611b03565b1015610c00576040517f08c379a0000000000000000000000000000000000000000000000000000000008152600401610bf790611b78565b60405180910390fd5b604051602001610c0f90611bea565b6040516020818303038152906040528051906020012084604051602001610c369190611c2e565b6040516020818303038152906040528051906020012003610f84575f8511610c93576040517f08c379a0000000000000000000000000000000000000000000000000000000008152600401610c8a90611cb4565b60405180910390fd5b84600a5f3373ffffffffffffffffffffffffffffffffffffffff1673ffffffffffffffffffffffffffffffffffffffff1681526020019081526020015f208281548110610ce357610ce261188d565b5b905f5260205f2090600502015f018190555083600a5f3373ffffffffffffffffffffffffffffffffffffffff1673ffffffffffffffffffffffffffffffffffffffff1681526020019081526020015f208281548110610d4557610d4461188d565b5b905f5260205f2090600502016001019081610d609190611e6f565b508242610d6d9190611985565b600a5f3373ffffffffffffffffffffffffffffffffffffffff1673ffffffffffffffffffffffffffffffffffffffff1681526020019081526020015f208281548110610dbc57610dbb61188d565b5b905f5260205f2090600502016002018190555081600a5f3373ffffffffffffffffffffffffffffffffffffffff1673ffffffffffffffffffffffffffffffffffffffff1681526020019081526020015f208281548110610e1f57610e1e61188d565b5b905f5260205f2090600502016004015f6101000a81548160ff02191690831515021790555042600a5f3373ffffffffffffffffffffffffffffffffffffffff1673ffffffffffffffffffffffffffffffffffffffff1681526020019081526020015f208281548110610e9457610e9361188d565b5b905f5260205f209060050201600301819055505f8054906101000a900473ffffffffffffffffffffffffffffffffffffffff1673ffffffffffffffffffffffffffffffffffffffff166323b872dd3330886040518463ffffffff1660e01b8152600401610f0393929190611f3e565b6020604051808303815f875af1158015610f1f573d5f803e3d5ffd5b505050506040513d601f19601f82011682018060405250810190610f4391906119f3565b507f96c68044657fcb3bea5ad282f026bd0361f647d377dfe1615a77e35dd87280a1338642604051610f7793929190611f73565b60405180910390a16112f2565b604051602001610f9390611ff2565b6040516020818303038152906040528051906020012084604051602001610fba9190611c2e565b60405160208183030381529060405280519060200120036112f15784600a5f3373ffffffffffffffffffffffffffffffffffffffff1673ffffffffffffffffffffffffffffffffffffffff1681526020019081526020015f2082815481106110255761102461188d565b5b905f5260205f2090600502015f018190555083600a5f3373ffffffffffffffffffffffffffffffffffffffff1673ffffffffffffffffffffffffffffffffffffffff1681526020019081526020015f2082815481106110875761108661188d565b5b905f5260205f20906005020160010190816110a29190611e6f565b5081600a5f3373ffffffffffffffffffffffffffffffffffffffff1673ffffffffffffffffffffffffffffffffffffffff1681526020019081526020015f2082815481106110f3576110f261188d565b5b905f5260205f2090600502016004015f6101000a81548160ff0219169083151502179055505f8054906101000a900473ffffffffffffffffffffffffffffffffffffffff1673ffffffffffffffffffffffffffffffffffffffff166323b872dd3330886040518463ffffffff1660e01b815260040161117493929190611f3e565b6020604051808303815f875af1158015611190573d5f803e3d5ffd5b505050506040513d601f19601f820116820180604052508101906111b491906119f3565b5042600a5f3373ffffffffffffffffffffffffffffffffffffffff1673ffffffffffffffffffffffffffffffffffffffff1681526020019081526020015f2082815481106112055761120461188d565b5b905f5260205f209060050201600301819055505f8054906101000a900473ffffffffffffffffffffffffffffffffffffffff1673ffffffffffffffffffffffffffffffffffffffff166323b872dd3330886040518463ffffffff1660e01b815260040161127493929190611f3e565b6020604051808303815f875af1158015611290573d5f803e3d5ffd5b505050506040513d601f19601f820116820180604052508101906112b491906119f3565b507f96c68044657fcb3bea5ad282f026bd0361f647d377dfe1615a77e35dd87280a13386426040516112e893929190611f73565b60405180910390a15b5b5050505050565b61138f8160405160240161130d9190612006565b6040516020818303038152906040527f41304fac000000000000000000000000000000000000000000000000000000007bffffffffffffffffffffffffffffffffffffffffffffffffffffffff19166020820180517bffffffffffffffffffffffffffffffffffffffffffffffffffffffff838183161783525050505061142b565b50565b611428816040516024016113a6919061153c565b6040516020818303038152906040527ff82c50f1000000000000000000000000000000000000000000000000000000007bffffffffffffffffffffffffffffffffffffffffffffffffffffffff19166020820180517bffffffffffffffffffffffffffffffffffffffffffffffffffffffff838183161783525050505061142b565b50565b5f815190505f6a636f6e736f6c652e6c6f679050602083015f808483855afa5050505050565b5f604051905090565b5f80fd5b5f80fd5b5f73ffffffffffffffffffffffffffffffffffffffff82169050919050565b5f61148b82611462565b9050919050565b61149b81611481565b81146114a5575f80fd5b50565b5f813590506114b681611492565b92915050565b5f819050919050565b6114ce816114bc565b81146114d8575f80fd5b50565b5f813590506114e9816114c5565b92915050565b5f80604083850312156115055761150461145a565b5b5f611512858286016114a8565b9250506020611523858286016114db565b9150509250929050565b611536816114bc565b82525050565b5f60208201905061154f5f83018461152d565b92915050565b5f81519050919050565b5f82825260208201905092915050565b5f5b8381101561158c578082015181840152602081019050611571565b5f8484015250505050565b5f601f19601f8301169050919050565b5f6115b182611555565b6115bb818561155f565b93506115cb81856020860161156f565b6115d481611597565b840191505092915050565b5f8115159050919050565b6115f3816115df565b82525050565b5f60a08201905061160c5f83018861152d565b818103602083015261161e81876115a7565b905061162d604083018661152d565b61163a606083018561152d565b61164760808301846115ea565b9695505050505050565b61165a81611481565b82525050565b5f6020820190506116735f830184611651565b92915050565b5f6020828403121561168e5761168d61145a565b5b5f61169b848285016114a8565b91505092915050565b5f80fd5b5f80fd5b7f4e487b71000000000000000000000000000000000000000000000000000000005f52604160045260245ffd5b6116e282611597565b810181811067ffffffffffffffff82111715611701576117006116ac565b5b80604052505050565b5f611713611451565b905061171f82826116d9565b919050565b5f67ffffffffffffffff82111561173e5761173d6116ac565b5b61174782611597565b9050602081019050919050565b828183375f83830152505050565b5f61177461176f84611724565b61170a565b9050828152602081018484840111156117905761178f6116a8565b5b61179b848285611754565b509392505050565b5f82601f8301126117b7576117b66116a4565b5b81356117c7848260208601611762565b91505092915050565b6117d9816115df565b81146117e3575f80fd5b50565b5f813590506117f4816117d0565b92915050565b5f805f805f60a086880312156118135761181261145a565b5b5f611820888289016114db565b955050602086013567ffffffffffffffff8111156118415761184061145e565b5b61184d888289016117a3565b945050604061185e888289016114db565b935050606061186f888289016117e6565b9250506080611880888289016114db565b9150509295509295909350565b7f4e487b71000000000000000000000000000000000000000000000000000000005f52603260045260245ffd5b7f4e487b71000000000000000000000000000000000000000000000000000000005f52601160045260245ffd5b5f6118f1826114bc565b91506118fc836114bc565b925082820261190a816114bc565b91508282048414831517611921576119206118ba565b5b5092915050565b7f4e487b71000000000000000000000000000000000000000000000000000000005f52601260045260245ffd5b5f61195f826114bc565b915061196a836114bc565b92508261197a57611979611928565b5b828204905092915050565b5f61198f826114bc565b915061199a836114bc565b92508282019050808211156119b2576119b16118ba565b5b92915050565b5f6040820190506119cb5f830185611651565b6119d8602083018461152d565b9392505050565b5f815190506119ed816117d0565b92915050565b5f60208284031215611a0857611a0761145a565b5b5f611a15848285016119df565b91505092915050565b50565b5f611a2c5f8361155f565b9150611a3782611a1e565b5f82019050919050565b5f6020820190508181035f830152611a5881611a21565b9050919050565b5f611a69826114bc565b9150611a74836114bc565b9250828203905081811115611a8c57611a8b6118ba565b5b92915050565b7f4e487b71000000000000000000000000000000000000000000000000000000005f52602260045260245ffd5b5f6002820490506001821680611ad657607f821691505b602082108103611ae957611ae8611a92565b5b50919050565b5f81519050611afd816114c5565b92915050565b5f60208284031215611b1857611b1761145a565b5b5f611b2584828501611aef565b91505092915050565b7f496e73756666696369656e742042616c616e63650000000000000000000000005f82015250565b5f611b6260148361155f565b9150611b6d82611b2e565b602082019050919050565b5f6020820190508181035f830152611b8f81611b56565b9050919050565b5f81905092915050565b7f66697865640000000000000000000000000000000000000000000000000000005f82015250565b5f611bd4600583611b96565b9150611bdf82611ba0565b600582019050919050565b5f611bf482611bc8565b9150819050919050565b5f611c0882611555565b611c128185611b96565b9350611c2281856020860161156f565b80840191505092915050565b5f611c398284611bfe565b915081905092915050565b7f205374616b652063616e206e6f742062652030202c20456e74657220736f6d655f8201527f20616d6f756e74206f6620746f6b656e73000000000000000000000000000000602082015250565b5f611c9e60318361155f565b9150611ca982611c44565b604082019050919050565b5f6020820190508181035f830152611ccb81611c92565b9050919050565b5f819050815f5260205f209050919050565b5f6020601f8301049050919050565b5f82821b905092915050565b5f60088302611d2e7fffffffffffffffffffffffffffffffffffffffffffffffffffffffffffffffff82611cf3565b611d388683611cf3565b95508019841693508086168417925050509392505050565b5f819050919050565b5f611d73611d6e611d69846114bc565b611d50565b6114bc565b9050919050565b5f819050919050565b611d8c83611d59565b611da0611d9882611d7a565b848454611cff565b825550505050565b5f90565b611db4611da8565b611dbf818484611d83565b505050565b5b81811015611de257611dd75f82611dac565b600181019050611dc5565b5050565b601f821115611e2757611df881611cd2565b611e0184611ce4565b81016020851015611e10578190505b611e24611e1c85611ce4565b830182611dc4565b50505b505050565b5f82821c905092915050565b5f611e475f1984600802611e2c565b1980831691505092915050565b5f611e5f8383611e38565b9150826002028217905092915050565b611e7882611555565b67ffffffffffffffff811115611e9157611e906116ac565b5b611e9b8254611abf565b611ea6828285611de6565b5f60209050601f831160018114611ed7575f8415611ec5578287015190505b611ecf8582611e54565b865550611f36565b601f198416611ee586611cd2565b5f5b82811015611f0c57848901518255600182019150602085019450602081019050611ee7565b86831015611f295784890151611f25601f891682611e38565b8355505b6001600288020188555050505b505050505050565b5f606082019050611f515f830186611651565b611f5e6020830185611651565b611f6b604083018461152d565b949350505050565b5f606082019050611f865f830186611651565b611f93602083018561152d565b611fa0604083018461152d565b949350505050565b7f756e6669786564000000000000000000000000000000000000000000000000005f82015250565b5f611fdc600783611b96565b9150611fe782611fa8565b600782019050919050565b5f611ffc82611fd0565b9150819050919050565b5f6020820190508181035f83015261201e81846115a7565b90509291505056fe696e7369646520746865206669786564207374616b6520616674657220636f6d706c6574652074696d65696e7369646520746865206669786564207374616b65206265666f726520636f6d706c6574652074696d6520616e6420676f742070656e616c697479a2646970667358221220cb3d21fd5ef13f42f41de0f412c56a8cb93c051e63cc8514a551b3d5dc84c27464736f6c63430008140033",
			"opcodes": "PUSH1 0x80 PUSH1 0x40 MSTORE PUSH2 0x12C TIMESTAMP PUSH3 0x14 SWAP2 SWAP1 PUSH3 0xD4 JUMP JUMPDEST PUSH1 0x2 SSTORE PUSH1 0x4 PUSH1 0x3 SSTORE PUSH1 0x6 PUSH1 0x4 SSTORE PUSH1 0x2 PUSH1 0x5 SSTORE CALLVALUE DUP1 ISZERO PUSH3 0x32 JUMPI PUSH0 DUP1 REVERT JUMPDEST POP PUSH1 0x40 MLOAD PUSH3 0x2286 CODESIZE SUB DUP1 PUSH3 0x2286 DUP4 CODECOPY DUP2 DUP2 ADD PUSH1 0x40 MSTORE DUP2 ADD SWAP1 PUSH3 0x58 SWAP2 SWAP1 PUSH3 0x186 JUMP JUMPDEST DUP1 PUSH0 DUP1 PUSH2 0x100 EXP DUP2 SLOAD DUP2 PUSH20 0xFFFFFFFFFFFFFFFFFFFFFFFFFFFFFFFFFFFFFFFF MUL NOT AND SWAP1 DUP4 PUSH20 0xFFFFFFFFFFFFFFFFFFFFFFFFFFFFFFFFFFFFFFFF AND MUL OR SWAP1 SSTORE POP POP PUSH3 0x1B6 JUMP JUMPDEST PUSH0 DUP2 SWAP1 POP SWAP2 SWAP1 POP JUMP JUMPDEST PUSH32 0x4E487B7100000000000000000000000000000000000000000000000000000000 PUSH0 MSTORE PUSH1 0x11 PUSH1 0x4 MSTORE PUSH1 0x24 PUSH0 REVERT JUMPDEST PUSH0 PUSH3 0xE0 DUP3 PUSH3 0x9E JUMP JUMPDEST SWAP2 POP PUSH3 0xED DUP4 PUSH3 0x9E JUMP JUMPDEST SWAP3 POP DUP3 DUP3 ADD SWAP1 POP DUP1 DUP3 GT ISZERO PUSH3 0x108 JUMPI PUSH3 0x107 PUSH3 0xA7 JUMP JUMPDEST JUMPDEST SWAP3 SWAP2 POP POP JUMP JUMPDEST PUSH0 DUP1 REVERT JUMPDEST PUSH0 PUSH20 0xFFFFFFFFFFFFFFFFFFFFFFFFFFFFFFFFFFFFFFFF DUP3 AND SWAP1 POP SWAP2 SWAP1 POP JUMP JUMPDEST PUSH0 PUSH3 0x13D DUP3 PUSH3 0x112 JUMP JUMPDEST SWAP1 POP SWAP2 SWAP1 POP JUMP JUMPDEST PUSH0 PUSH3 0x150 DUP3 PUSH3 0x131 JUMP JUMPDEST SWAP1 POP SWAP2 SWAP1 POP JUMP JUMPDEST PUSH3 0x162 DUP2 PUSH3 0x144 JUMP JUMPDEST DUP2 EQ PUSH3 0x16D JUMPI PUSH0 DUP1 REVERT JUMPDEST POP JUMP JUMPDEST PUSH0 DUP2 MLOAD SWAP1 POP PUSH3 0x180 DUP2 PUSH3 0x157 JUMP JUMPDEST SWAP3 SWAP2 POP POP JUMP JUMPDEST PUSH0 PUSH1 0x20 DUP3 DUP5 SUB SLT ISZERO PUSH3 0x19E JUMPI PUSH3 0x19D PUSH3 0x10E JUMP JUMPDEST JUMPDEST PUSH0 PUSH3 0x1AD DUP5 DUP3 DUP6 ADD PUSH3 0x170 JUMP JUMPDEST SWAP2 POP POP SWAP3 SWAP2 POP POP JUMP JUMPDEST PUSH2 0x20C2 DUP1 PUSH3 0x1C4 PUSH0 CODECOPY PUSH0 RETURN INVALID PUSH1 0x80 PUSH1 0x40 MSTORE CALLVALUE DUP1 ISZERO PUSH2 0xF JUMPI PUSH0 DUP1 REVERT JUMPDEST POP PUSH1 0x4 CALLDATASIZE LT PUSH2 0x55 JUMPI PUSH0 CALLDATALOAD PUSH1 0xE0 SHR DUP1 PUSH4 0x70825D5 EQ PUSH2 0x59 JUMPI DUP1 PUSH4 0x151CC95D EQ PUSH2 0x89 JUMPI DUP1 PUSH4 0x15621373 EQ PUSH2 0xBD JUMPI DUP1 PUSH4 0xB6E2B395 EQ PUSH2 0xDB JUMPI DUP1 PUSH4 0xFE004EFB EQ PUSH2 0x10B JUMPI JUMPDEST PUSH0 DUP1 REVERT JUMPDEST PUSH2 0x73 PUSH1 0x4 DUP1 CALLDATASIZE SUB DUP2 ADD SWAP1 PUSH2 0x6E SWAP2 SWAP1 PUSH2 0x14EF JUMP JUMPDEST PUSH2 0x127 JUMP JUMPDEST PUSH1 0x40 MLOAD PUSH2 0x80 SWAP2 SWAP1 PUSH2 0x153C JUMP JUMPDEST PUSH1 0x40 MLOAD DUP1 SWAP2 SUB SWAP1 RETURN JUMPDEST PUSH2 0xA3 PUSH1 0x4 DUP1 CALLDATASIZE SUB DUP2 ADD SWAP1 PUSH2 0x9E SWAP2 SWAP1 PUSH2 0x14EF JUMP JUMPDEST PUSH2 0x9A2 JUMP JUMPDEST PUSH1 0x40 MLOAD PUSH2 0xB4 SWAP6 SWAP5 SWAP4 SWAP3 SWAP2 SWAP1 PUSH2 0x15F9 JUMP JUMPDEST PUSH1 0x40 MLOAD DUP1 SWAP2 SUB SWAP1 RETURN JUMPDEST PUSH2 0xC5 PUSH2 0xA80 JUMP JUMPDEST PUSH1 0x40 MLOAD PUSH2 0xD2 SWAP2 SWAP1 PUSH2 0x1660 JUMP JUMPDEST PUSH1 0x40 MLOAD DUP1 SWAP2 SUB SWAP1 RETURN JUMPDEST PUSH2 0xF5 PUSH1 0x4 DUP1 CALLDATASIZE SUB DUP2 ADD SWAP1 PUSH2 0xF0 SWAP2 SWAP1 PUSH2 0x1679 JUMP JUMPDEST PUSH2 0xA87 JUMP JUMPDEST PUSH1 0x40 MLOAD PUSH2 0x102 SWAP2 SWAP1 PUSH2 0x153C JUMP JUMPDEST PUSH1 0x40 MLOAD DUP1 SWAP2 SUB SWAP1 RETURN JUMPDEST PUSH2 0x125 PUSH1 0x4 DUP1 CALLDATASIZE SUB DUP2 ADD SWAP1 PUSH2 0x120 SWAP2 SWAP1 PUSH2 0x17FA JUMP JUMPDEST PUSH2 0xB27 JUMP JUMPDEST STOP JUMPDEST PUSH0 PUSH2 0x166 PUSH1 0x40 MLOAD DUP1 PUSH1 0x40 ADD PUSH1 0x40 MSTORE DUP1 PUSH1 0x5 DUP2 MSTORE PUSH1 0x20 ADD PUSH32 0x68656C6C6F000000000000000000000000000000000000000000000000000000 DUP2 MSTORE POP PUSH2 0x12F9 JUMP JUMPDEST PUSH1 0x1 ISZERO ISZERO PUSH1 0xA PUSH0 DUP6 PUSH20 0xFFFFFFFFFFFFFFFFFFFFFFFFFFFFFFFFFFFFFFFF AND PUSH20 0xFFFFFFFFFFFFFFFFFFFFFFFFFFFFFFFFFFFFFFFF AND DUP2 MSTORE PUSH1 0x20 ADD SWAP1 DUP2 MSTORE PUSH1 0x20 ADD PUSH0 KECCAK256 DUP4 DUP2 SLOAD DUP2 LT PUSH2 0x1B9 JUMPI PUSH2 0x1B8 PUSH2 0x188D JUMP JUMPDEST JUMPDEST SWAP1 PUSH0 MSTORE PUSH1 0x20 PUSH0 KECCAK256 SWAP1 PUSH1 0x5 MUL ADD PUSH1 0x4 ADD PUSH0 SWAP1 SLOAD SWAP1 PUSH2 0x100 EXP SWAP1 DIV PUSH1 0xFF AND ISZERO ISZERO SUB PUSH2 0x73C JUMPI PUSH1 0x2 SLOAD TIMESTAMP GT ISZERO PUSH2 0x41F JUMPI PUSH2 0x207 PUSH1 0x40 MLOAD DUP1 PUSH1 0x60 ADD PUSH1 0x40 MSTORE DUP1 PUSH1 0x2A DUP2 MSTORE PUSH1 0x20 ADD PUSH2 0x2027 PUSH1 0x2A SWAP2 CODECOPY PUSH2 0x12F9 JUMP JUMPDEST PUSH1 0x64 PUSH1 0xA PUSH0 DUP6 PUSH20 0xFFFFFFFFFFFFFFFFFFFFFFFFFFFFFFFFFFFFFFFF AND PUSH20 0xFFFFFFFFFFFFFFFFFFFFFFFFFFFFFFFFFFFFFFFF AND DUP2 MSTORE PUSH1 0x20 ADD SWAP1 DUP2 MSTORE PUSH1 0x20 ADD PUSH0 KECCAK256 DUP4 DUP2 SLOAD DUP2 LT PUSH2 0x258 JUMPI PUSH2 0x257 PUSH2 0x188D JUMP JUMPDEST JUMPDEST SWAP1 PUSH0 MSTORE PUSH1 0x20 PUSH0 KECCAK256 SWAP1 PUSH1 0x5 MUL ADD PUSH1 0x2 ADD SLOAD PUSH1 0x4 SLOAD PUSH1 0xA PUSH0 DUP8 PUSH20 0xFFFFFFFFFFFFFFFFFFFFFFFFFFFFFFFFFFFFFFFF AND PUSH20 0xFFFFFFFFFFFFFFFFFFFFFFFFFFFFFFFFFFFFFFFF AND DUP2 MSTORE PUSH1 0x20 ADD SWAP1 DUP2 MSTORE PUSH1 0x20 ADD PUSH0 KECCAK256 DUP6 DUP2 SLOAD DUP2 LT PUSH2 0x2BA JUMPI PUSH2 0x2B9 PUSH2 0x188D JUMP JUMPDEST JUMPDEST SWAP1 PUSH0 MSTORE PUSH1 0x20 PUSH0 KECCAK256 SWAP1 PUSH1 0x5 MUL ADD PUSH0 ADD SLOAD PUSH2 0x2D3 SWAP2 SWAP1 PUSH2 0x18E7 JUMP JUMPDEST PUSH2 0x2DD SWAP2 SWAP1 PUSH2 0x18E7 JUMP JUMPDEST PUSH2 0x2E7 SWAP2 SWAP1 PUSH2 0x1955 JUMP JUMPDEST PUSH1 0x7 DUP2 SWAP1 SSTORE POP PUSH4 0x1E13380 PUSH1 0x7 SLOAD PUSH1 0xA PUSH0 DUP7 PUSH20 0xFFFFFFFFFFFFFFFFFFFFFFFFFFFFFFFFFFFFFFFF AND PUSH20 0xFFFFFFFFFFFFFFFFFFFFFFFFFFFFFFFFFFFFFFFF AND DUP2 MSTORE PUSH1 0x20 ADD SWAP1 DUP2 MSTORE PUSH1 0x20 ADD PUSH0 KECCAK256 DUP5 DUP2 SLOAD DUP2 LT PUSH2 0x344 JUMPI PUSH2 0x343 PUSH2 0x188D JUMP JUMPDEST JUMPDEST SWAP1 PUSH0 MSTORE PUSH1 0x20 PUSH0 KECCAK256 SWAP1 PUSH1 0x5 MUL ADD PUSH0 ADD SLOAD PUSH2 0x35D SWAP2 SWAP1 PUSH2 0x1985 JUMP JUMPDEST PUSH2 0x367 SWAP2 SWAP1 PUSH2 0x1955 JUMP JUMPDEST PUSH1 0x8 DUP2 SWAP1 SSTORE POP PUSH2 0x378 PUSH1 0x8 SLOAD PUSH2 0x1392 JUMP JUMPDEST PUSH0 DUP1 SLOAD SWAP1 PUSH2 0x100 EXP SWAP1 DIV PUSH20 0xFFFFFFFFFFFFFFFFFFFFFFFFFFFFFFFFFFFFFFFF AND PUSH20 0xFFFFFFFFFFFFFFFFFFFFFFFFFFFFFFFFFFFFFFFF AND PUSH4 0xA9059CBB DUP5 PUSH1 0x8 SLOAD PUSH1 0x40 MLOAD DUP4 PUSH4 0xFFFFFFFF AND PUSH1 0xE0 SHL DUP2 MSTORE PUSH1 0x4 ADD PUSH2 0x3D4 SWAP3 SWAP2 SWAP1 PUSH2 0x19B8 JUMP JUMPDEST PUSH1 0x20 PUSH1 0x40 MLOAD DUP1 DUP4 SUB DUP2 PUSH0 DUP8 GAS CALL ISZERO DUP1 ISZERO PUSH2 0x3F0 JUMPI RETURNDATASIZE PUSH0 DUP1 RETURNDATACOPY RETURNDATASIZE PUSH0 REVERT JUMPDEST POP POP POP POP PUSH1 0x40 MLOAD RETURNDATASIZE PUSH1 0x1F NOT PUSH1 0x1F DUP3 ADD AND DUP3 ADD DUP1 PUSH1 0x40 MSTORE POP DUP2 ADD SWAP1 PUSH2 0x414 SWAP2 SWAP1 PUSH2 0x19F3 JUMP JUMPDEST POP PUSH1 0x8 SLOAD SWAP1 POP PUSH2 0x99C JUMP JUMPDEST PUSH1 0x2 SLOAD TIMESTAMP LT ISZERO PUSH2 0x737 JUMPI PUSH2 0x44A PUSH1 0x40 MLOAD DUP1 PUSH1 0x60 ADD PUSH1 0x40 MSTORE DUP1 PUSH1 0x3C DUP2 MSTORE PUSH1 0x20 ADD PUSH2 0x2051 PUSH1 0x3C SWAP2 CODECOPY PUSH2 0x12F9 JUMP JUMPDEST PUSH1 0x2 SLOAD PUSH1 0xA PUSH0 DUP6 PUSH20 0xFFFFFFFFFFFFFFFFFFFFFFFFFFFFFFFFFFFFFFFF AND PUSH20 0xFFFFFFFFFFFFFFFFFFFFFFFFFFFFFFFFFFFFFFFF AND DUP2 MSTORE PUSH1 0x20 ADD SWAP1 DUP2 MSTORE PUSH1 0x20 ADD PUSH0 KECCAK256 DUP4 DUP2 SLOAD DUP2 LT PUSH2 0x49C JUMPI PUSH2 0x49B PUSH2 0x188D JUMP JUMPDEST JUMPDEST SWAP1 PUSH0 MSTORE PUSH1 0x20 PUSH0 KECCAK256 SWAP1 PUSH1 0x5 MUL ADD PUSH1 0x2 ADD SLOAD LT PUSH2 0x4EC JUMPI PUSH1 0x40 MLOAD PUSH32 0x8C379A000000000000000000000000000000000000000000000000000000000 DUP2 MSTORE PUSH1 0x4 ADD PUSH2 0x4E3 SWAP1 PUSH2 0x1A41 JUMP JUMPDEST PUSH1 0x40 MLOAD DUP1 SWAP2 SUB SWAP1 REVERT JUMPDEST PUSH1 0x64 PUSH1 0xA PUSH0 DUP6 PUSH20 0xFFFFFFFFFFFFFFFFFFFFFFFFFFFFFFFFFFFFFFFF AND PUSH20 0xFFFFFFFFFFFFFFFFFFFFFFFFFFFFFFFFFFFFFFFF AND DUP2 MSTORE PUSH1 0x20 ADD SWAP1 DUP2 MSTORE PUSH1 0x20 ADD PUSH0 KECCAK256 DUP4 DUP2 SLOAD DUP2 LT PUSH2 0x53D JUMPI PUSH2 0x53C PUSH2 0x188D JUMP JUMPDEST JUMPDEST SWAP1 PUSH0 MSTORE PUSH1 0x20 PUSH0 KECCAK256 SWAP1 PUSH1 0x5 MUL ADD PUSH1 0x3 ADD SLOAD TIMESTAMP PUSH2 0x558 SWAP2 SWAP1 PUSH2 0x1A5F JUMP JUMPDEST PUSH1 0x4 SLOAD PUSH1 0xA PUSH0 DUP8 PUSH20 0xFFFFFFFFFFFFFFFFFFFFFFFFFFFFFFFFFFFFFFFF AND PUSH20 0xFFFFFFFFFFFFFFFFFFFFFFFFFFFFFFFFFFFFFFFF AND DUP2 MSTORE PUSH1 0x20 ADD SWAP1 DUP2 MSTORE PUSH1 0x20 ADD PUSH0 KECCAK256 DUP6 DUP2 SLOAD DUP2 LT PUSH2 0x5AA JUMPI PUSH2 0x5A9 PUSH2 0x188D JUMP JUMPDEST JUMPDEST SWAP1 PUSH0 MSTORE PUSH1 0x20 PUSH0 KECCAK256 SWAP1 PUSH1 0x5 MUL ADD PUSH0 ADD SLOAD PUSH2 0x5C3 SWAP2 SWAP1 PUSH2 0x18E7 JUMP JUMPDEST PUSH2 0x5CD SWAP2 SWAP1 PUSH2 0x18E7 JUMP JUMPDEST PUSH2 0x5D7 SWAP2 SWAP1 PUSH2 0x1955 JUMP JUMPDEST PUSH1 0x7 DUP2 SWAP1 SSTORE POP PUSH2 0x5E8 PUSH1 0x7 SLOAD PUSH2 0x1392 JUMP JUMPDEST PUSH1 0x64 PUSH1 0x60 PUSH1 0x7 SLOAD PUSH2 0x5F9 SWAP2 SWAP1 PUSH2 0x18E7 JUMP JUMPDEST PUSH2 0x603 SWAP2 SWAP1 PUSH2 0x1955 JUMP JUMPDEST PUSH1 0x8 DUP2 SWAP1 SSTORE POP PUSH2 0x614 PUSH1 0x8 SLOAD PUSH2 0x1392 JUMP JUMPDEST PUSH1 0xA PUSH0 DUP5 PUSH20 0xFFFFFFFFFFFFFFFFFFFFFFFFFFFFFFFFFFFFFFFF AND PUSH20 0xFFFFFFFFFFFFFFFFFFFFFFFFFFFFFFFFFFFFFFFF AND DUP2 MSTORE PUSH1 0x20 ADD SWAP1 DUP2 MSTORE PUSH1 0x20 ADD PUSH0 KECCAK256 DUP3 DUP2 SLOAD DUP2 LT PUSH2 0x663 JUMPI PUSH2 0x662 PUSH2 0x188D JUMP JUMPDEST JUMPDEST SWAP1 PUSH0 MSTORE PUSH1 0x20 PUSH0 KECCAK256 SWAP1 PUSH1 0x5 MUL ADD PUSH0 ADD SLOAD PUSH1 0x8 SLOAD PUSH2 0x67F SWAP2 SWAP1 PUSH2 0x1985 JUMP JUMPDEST PUSH1 0x9 DUP2 SWAP1 SSTORE POP PUSH2 0x690 PUSH1 0x9 SLOAD PUSH2 0x1392 JUMP JUMPDEST PUSH0 DUP1 SLOAD SWAP1 PUSH2 0x100 EXP SWAP1 DIV PUSH20 0xFFFFFFFFFFFFFFFFFFFFFFFFFFFFFFFFFFFFFFFF AND PUSH20 0xFFFFFFFFFFFFFFFFFFFFFFFFFFFFFFFFFFFFFFFF AND PUSH4 0xA9059CBB DUP5 PUSH1 0x9 SLOAD PUSH1 0x40 MLOAD DUP4 PUSH4 0xFFFFFFFF AND PUSH1 0xE0 SHL DUP2 MSTORE PUSH1 0x4 ADD PUSH2 0x6EC SWAP3 SWAP2 SWAP1 PUSH2 0x19B8 JUMP JUMPDEST PUSH1 0x20 PUSH1 0x40 MLOAD DUP1 DUP4 SUB DUP2 PUSH0 DUP8 GAS CALL ISZERO DUP1 ISZERO PUSH2 0x708 JUMPI RETURNDATASIZE PUSH0 DUP1 RETURNDATACOPY RETURNDATASIZE PUSH0 REVERT JUMPDEST POP POP POP POP PUSH1 0x40 MLOAD RETURNDATASIZE PUSH1 0x1F NOT PUSH1 0x1F DUP3 ADD AND DUP3 ADD DUP1 PUSH1 0x40 MSTORE POP DUP2 ADD SWAP1 PUSH2 0x72C SWAP2 SWAP1 PUSH2 0x19F3 JUMP JUMPDEST POP PUSH1 0x9 SLOAD SWAP1 POP PUSH2 0x99C JUMP JUMPDEST PUSH2 0x99B JUMP JUMPDEST PUSH0 ISZERO ISZERO PUSH1 0xA PUSH0 DUP6 PUSH20 0xFFFFFFFFFFFFFFFFFFFFFFFFFFFFFFFFFFFFFFFF AND PUSH20 0xFFFFFFFFFFFFFFFFFFFFFFFFFFFFFFFFFFFFFFFF AND DUP2 MSTORE PUSH1 0x20 ADD SWAP1 DUP2 MSTORE PUSH1 0x20 ADD PUSH0 KECCAK256 DUP4 DUP2 SLOAD DUP2 LT PUSH2 0x78E JUMPI PUSH2 0x78D PUSH2 0x188D JUMP JUMPDEST JUMPDEST SWAP1 PUSH0 MSTORE PUSH1 0x20 PUSH0 KECCAK256 SWAP1 PUSH1 0x5 MUL ADD PUSH1 0x4 ADD PUSH0 SWAP1 SLOAD SWAP1 PUSH2 0x100 EXP SWAP1 DIV PUSH1 0xFF AND ISZERO ISZERO SUB PUSH2 0x99A JUMPI PUSH2 0x7EF PUSH1 0x40 MLOAD DUP1 PUSH1 0x40 ADD PUSH1 0x40 MSTORE DUP1 PUSH1 0xE DUP2 MSTORE PUSH1 0x20 ADD PUSH32 0x6E6F74206669786564206C6F6F70000000000000000000000000000000000000 DUP2 MSTORE POP PUSH2 0x12F9 JUMP JUMPDEST PUSH1 0x64 PUSH1 0x5 SLOAD PUSH1 0xA PUSH0 DUP7 PUSH20 0xFFFFFFFFFFFFFFFFFFFFFFFFFFFFFFFFFFFFFFFF AND PUSH20 0xFFFFFFFFFFFFFFFFFFFFFFFFFFFFFFFFFFFFFFFF AND DUP2 MSTORE PUSH1 0x20 ADD SWAP1 DUP2 MSTORE PUSH1 0x20 ADD PUSH0 KECCAK256 DUP5 DUP2 SLOAD DUP2 LT PUSH2 0x843 JUMPI PUSH2 0x842 PUSH2 0x188D JUMP JUMPDEST JUMPDEST SWAP1 PUSH0 MSTORE PUSH1 0x20 PUSH0 KECCAK256 SWAP1 PUSH1 0x5 MUL ADD PUSH0 ADD SLOAD PUSH2 0x85C SWAP2 SWAP1 PUSH2 0x18E7 JUMP JUMPDEST PUSH2 0x866 SWAP2 SWAP1 PUSH2 0x1955 JUMP JUMPDEST PUSH1 0x7 DUP2 SWAP1 SSTORE POP PUSH2 0x877 PUSH1 0x7 SLOAD PUSH2 0x1392 JUMP JUMPDEST PUSH1 0x7 SLOAD PUSH1 0xA PUSH0 DUP6 PUSH20 0xFFFFFFFFFFFFFFFFFFFFFFFFFFFFFFFFFFFFFFFF AND PUSH20 0xFFFFFFFFFFFFFFFFFFFFFFFFFFFFFFFFFFFFFFFF AND DUP2 MSTORE PUSH1 0x20 ADD SWAP1 DUP2 MSTORE PUSH1 0x20 ADD PUSH0 KECCAK256 DUP4 DUP2 SLOAD DUP2 LT PUSH2 0x8C9 JUMPI PUSH2 0x8C8 PUSH2 0x188D JUMP JUMPDEST JUMPDEST SWAP1 PUSH0 MSTORE PUSH1 0x20 PUSH0 KECCAK256 SWAP1 PUSH1 0x5 MUL ADD PUSH0 ADD SLOAD PUSH2 0x8E2 SWAP2 SWAP1 PUSH2 0x1985 JUMP JUMPDEST PUSH1 0x8 DUP2 SWAP1 SSTORE POP PUSH2 0x8F3 PUSH1 0x8 SLOAD PUSH2 0x1392 JUMP JUMPDEST PUSH0 DUP1 SLOAD SWAP1 PUSH2 0x100 EXP SWAP1 DIV PUSH20 0xFFFFFFFFFFFFFFFFFFFFFFFFFFFFFFFFFFFFFFFF AND PUSH20 0xFFFFFFFFFFFFFFFFFFFFFFFFFFFFFFFFFFFFFFFF AND PUSH4 0xA9059CBB DUP5 PUSH1 0x8 SLOAD PUSH1 0x40 MLOAD DUP4 PUSH4 0xFFFFFFFF AND PUSH1 0xE0 SHL DUP2 MSTORE PUSH1 0x4 ADD PUSH2 0x94F SWAP3 SWAP2 SWAP1 PUSH2 0x19B8 JUMP JUMPDEST PUSH1 0x20 PUSH1 0x40 MLOAD DUP1 DUP4 SUB DUP2 PUSH0 DUP8 GAS CALL ISZERO DUP1 ISZERO PUSH2 0x96B JUMPI RETURNDATASIZE PUSH0 DUP1 RETURNDATACOPY RETURNDATASIZE PUSH0 REVERT JUMPDEST POP POP POP POP PUSH1 0x40 MLOAD RETURNDATASIZE PUSH1 0x1F NOT PUSH1 0x1F DUP3 ADD AND DUP3 ADD DUP1 PUSH1 0x40 MSTORE POP DUP2 ADD SWAP1 PUSH2 0x98F SWAP2 SWAP1 PUSH2 0x19F3 JUMP JUMPDEST POP PUSH1 0x8 SLOAD SWAP1 POP PUSH2 0x99C JUMP JUMPDEST JUMPDEST JUMPDEST SWAP3 SWAP2 POP POP JUMP JUMPDEST PUSH1 0xA PUSH1 0x20 MSTORE DUP2 PUSH0 MSTORE PUSH1 0x40 PUSH0 KECCAK256 DUP2 DUP2 SLOAD DUP2 LT PUSH2 0x9BB JUMPI PUSH0 DUP1 REVERT JUMPDEST SWAP1 PUSH0 MSTORE PUSH1 0x20 PUSH0 KECCAK256 SWAP1 PUSH1 0x5 MUL ADD PUSH0 SWAP2 POP SWAP2 POP POP DUP1 PUSH0 ADD SLOAD SWAP1 DUP1 PUSH1 0x1 ADD DUP1 SLOAD PUSH2 0x9E1 SWAP1 PUSH2 0x1ABF JUMP JUMPDEST DUP1 PUSH1 0x1F ADD PUSH1 0x20 DUP1 SWAP2 DIV MUL PUSH1 0x20 ADD PUSH1 0x40 MLOAD SWAP1 DUP2 ADD PUSH1 0x40 MSTORE DUP1 SWAP3 SWAP2 SWAP1 DUP2 DUP2 MSTORE PUSH1 0x20 ADD DUP3 DUP1 SLOAD PUSH2 0xA0D SWAP1 PUSH2 0x1ABF JUMP JUMPDEST DUP1 ISZERO PUSH2 0xA58 JUMPI DUP1 PUSH1 0x1F LT PUSH2 0xA2F JUMPI PUSH2 0x100 DUP1 DUP4 SLOAD DIV MUL DUP4 MSTORE SWAP2 PUSH1 0x20 ADD SWAP2 PUSH2 0xA58 JUMP JUMPDEST DUP3 ADD SWAP2 SWAP1 PUSH0 MSTORE PUSH1 0x20 PUSH0 KECCAK256 SWAP1 JUMPDEST DUP2 SLOAD DUP2 MSTORE SWAP1 PUSH1 0x1 ADD SWAP1 PUSH1 0x20 ADD DUP1 DUP4 GT PUSH2 0xA3B JUMPI DUP3 SWAP1 SUB PUSH1 0x1F AND DUP3 ADD SWAP2 JUMPDEST POP POP POP POP POP SWAP1 DUP1 PUSH1 0x2 ADD SLOAD SWAP1 DUP1 PUSH1 0x3 ADD SLOAD SWAP1 DUP1 PUSH1 0x4 ADD PUSH0 SWAP1 SLOAD SWAP1 PUSH2 0x100 EXP SWAP1 DIV PUSH1 0xFF AND SWAP1 POP DUP6 JUMP JUMPDEST PUSH0 ADDRESS SWAP1 POP SWAP1 JUMP JUMPDEST PUSH0 DUP1 PUSH0 SWAP1 SLOAD SWAP1 PUSH2 0x100 EXP SWAP1 DIV PUSH20 0xFFFFFFFFFFFFFFFFFFFFFFFFFFFFFFFFFFFFFFFF AND PUSH20 0xFFFFFFFFFFFFFFFFFFFFFFFFFFFFFFFFFFFFFFFF AND PUSH4 0x70A08231 DUP4 PUSH1 0x40 MLOAD DUP3 PUSH4 0xFFFFFFFF AND PUSH1 0xE0 SHL DUP2 MSTORE PUSH1 0x4 ADD PUSH2 0xAE1 SWAP2 SWAP1 PUSH2 0x1660 JUMP JUMPDEST PUSH1 0x20 PUSH1 0x40 MLOAD DUP1 DUP4 SUB DUP2 DUP7 GAS STATICCALL ISZERO DUP1 ISZERO PUSH2 0xAFC JUMPI RETURNDATASIZE PUSH0 DUP1 RETURNDATACOPY RETURNDATASIZE PUSH0 REVERT JUMPDEST POP POP POP POP PUSH1 0x40 MLOAD RETURNDATASIZE PUSH1 0x1F NOT PUSH1 0x1F DUP3 ADD AND DUP3 ADD DUP1 PUSH1 0x40 MSTORE POP DUP2 ADD SWAP1 PUSH2 0xB20 SWAP2 SWAP1 PUSH2 0x1B03 JUMP JUMPDEST SWAP1 POP SWAP2 SWAP1 POP JUMP JUMPDEST DUP5 PUSH0 DUP1 SLOAD SWAP1 PUSH2 0x100 EXP SWAP1 DIV PUSH20 0xFFFFFFFFFFFFFFFFFFFFFFFFFFFFFFFFFFFFFFFF AND PUSH20 0xFFFFFFFFFFFFFFFFFFFFFFFFFFFFFFFFFFFFFFFF AND PUSH4 0x70A08231 CALLER PUSH1 0x40 MLOAD DUP3 PUSH4 0xFFFFFFFF AND PUSH1 0xE0 SHL DUP2 MSTORE PUSH1 0x4 ADD PUSH2 0xB80 SWAP2 SWAP1 PUSH2 0x1660 JUMP JUMPDEST PUSH1 0x20 PUSH1 0x40 MLOAD DUP1 DUP4 SUB DUP2 DUP7 GAS STATICCALL ISZERO DUP1 ISZERO PUSH2 0xB9B JUMPI RETURNDATASIZE PUSH0 DUP1 RETURNDATACOPY RETURNDATASIZE PUSH0 REVERT JUMPDEST POP POP POP POP PUSH1 0x40 MLOAD RETURNDATASIZE PUSH1 0x1F NOT PUSH1 0x1F DUP3 ADD AND DUP3 ADD DUP1 PUSH1 0x40 MSTORE POP DUP2 ADD SWAP1 PUSH2 0xBBF SWAP2 SWAP1 PUSH2 0x1B03 JUMP JUMPDEST LT ISZERO PUSH2 0xC00 JUMPI PUSH1 0x40 MLOAD PUSH32 0x8C379A000000000000000000000000000000000000000000000000000000000 DUP2 MSTORE PUSH1 0x4 ADD PUSH2 0xBF7 SWAP1 PUSH2 0x1B78 JUMP JUMPDEST PUSH1 0x40 MLOAD DUP1 SWAP2 SUB SWAP1 REVERT JUMPDEST PUSH1 0x40 MLOAD PUSH1 0x20 ADD PUSH2 0xC0F SWAP1 PUSH2 0x1BEA JUMP JUMPDEST PUSH1 0x40 MLOAD PUSH1 0x20 DUP2 DUP4 SUB SUB DUP2 MSTORE SWAP1 PUSH1 0x40 MSTORE DUP1 MLOAD SWAP1 PUSH1 0x20 ADD KECCAK256 DUP5 PUSH1 0x40 MLOAD PUSH1 0x20 ADD PUSH2 0xC36 SWAP2 SWAP1 PUSH2 0x1C2E JUMP JUMPDEST PUSH1 0x40 MLOAD PUSH1 0x20 DUP2 DUP4 SUB SUB DUP2 MSTORE SWAP1 PUSH1 0x40 MSTORE DUP1 MLOAD SWAP1 PUSH1 0x20 ADD KECCAK256 SUB PUSH2 0xF84 JUMPI PUSH0 DUP6 GT PUSH2 0xC93 JUMPI PUSH1 0x40 MLOAD PUSH32 0x8C379A000000000000000000000000000000000000000000000000000000000 DUP2 MSTORE PUSH1 0x4 ADD PUSH2 0xC8A SWAP1 PUSH2 0x1CB4 JUMP JUMPDEST PUSH1 0x40 MLOAD DUP1 SWAP2 SUB SWAP1 REVERT JUMPDEST DUP5 PUSH1 0xA PUSH0 CALLER PUSH20 0xFFFFFFFFFFFFFFFFFFFFFFFFFFFFFFFFFFFFFFFF AND PUSH20 0xFFFFFFFFFFFFFFFFFFFFFFFFFFFFFFFFFFFFFFFF AND DUP2 MSTORE PUSH1 0x20 ADD SWAP1 DUP2 MSTORE PUSH1 0x20 ADD PUSH0 KECCAK256 DUP3 DUP2 SLOAD DUP2 LT PUSH2 0xCE3 JUMPI PUSH2 0xCE2 PUSH2 0x188D JUMP JUMPDEST JUMPDEST SWAP1 PUSH0 MSTORE PUSH1 0x20 PUSH0 KECCAK256 SWAP1 PUSH1 0x5 MUL ADD PUSH0 ADD DUP2 SWAP1 SSTORE POP DUP4 PUSH1 0xA PUSH0 CALLER PUSH20 0xFFFFFFFFFFFFFFFFFFFFFFFFFFFFFFFFFFFFFFFF AND PUSH20 0xFFFFFFFFFFFFFFFFFFFFFFFFFFFFFFFFFFFFFFFF AND DUP2 MSTORE PUSH1 0x20 ADD SWAP1 DUP2 MSTORE PUSH1 0x20 ADD PUSH0 KECCAK256 DUP3 DUP2 SLOAD DUP2 LT PUSH2 0xD45 JUMPI PUSH2 0xD44 PUSH2 0x188D JUMP JUMPDEST JUMPDEST SWAP1 PUSH0 MSTORE PUSH1 0x20 PUSH0 KECCAK256 SWAP1 PUSH1 0x5 MUL ADD PUSH1 0x1 ADD SWAP1 DUP2 PUSH2 0xD60 SWAP2 SWAP1 PUSH2 0x1E6F JUMP JUMPDEST POP DUP3 TIMESTAMP PUSH2 0xD6D SWAP2 SWAP1 PUSH2 0x1985 JUMP JUMPDEST PUSH1 0xA PUSH0 CALLER PUSH20 0xFFFFFFFFFFFFFFFFFFFFFFFFFFFFFFFFFFFFFFFF AND PUSH20 0xFFFFFFFFFFFFFFFFFFFFFFFFFFFFFFFFFFFFFFFF AND DUP2 MSTORE PUSH1 0x20 ADD SWAP1 DUP2 MSTORE PUSH1 0x20 ADD PUSH0 KECCAK256 DUP3 DUP2 SLOAD DUP2 LT PUSH2 0xDBC JUMPI PUSH2 0xDBB PUSH2 0x188D JUMP JUMPDEST JUMPDEST SWAP1 PUSH0 MSTORE PUSH1 0x20 PUSH0 KECCAK256 SWAP1 PUSH1 0x5 MUL ADD PUSH1 0x2 ADD DUP2 SWAP1 SSTORE POP DUP2 PUSH1 0xA PUSH0 CALLER PUSH20 0xFFFFFFFFFFFFFFFFFFFFFFFFFFFFFFFFFFFFFFFF AND PUSH20 0xFFFFFFFFFFFFFFFFFFFFFFFFFFFFFFFFFFFFFFFF AND DUP2 MSTORE PUSH1 0x20 ADD SWAP1 DUP2 MSTORE PUSH1 0x20 ADD PUSH0 KECCAK256 DUP3 DUP2 SLOAD DUP2 LT PUSH2 0xE1F JUMPI PUSH2 0xE1E PUSH2 0x188D JUMP JUMPDEST JUMPDEST SWAP1 PUSH0 MSTORE PUSH1 0x20 PUSH0 KECCAK256 SWAP1 PUSH1 0x5 MUL ADD PUSH1 0x4 ADD PUSH0 PUSH2 0x100 EXP DUP2 SLOAD DUP2 PUSH1 0xFF MUL NOT AND SWAP1 DUP4 ISZERO ISZERO MUL OR SWAP1 SSTORE POP TIMESTAMP PUSH1 0xA PUSH0 CALLER PUSH20 0xFFFFFFFFFFFFFFFFFFFFFFFFFFFFFFFFFFFFFFFF AND PUSH20 0xFFFFFFFFFFFFFFFFFFFFFFFFFFFFFFFFFFFFFFFF AND DUP2 MSTORE PUSH1 0x20 ADD SWAP1 DUP2 MSTORE PUSH1 0x20 ADD PUSH0 KECCAK256 DUP3 DUP2 SLOAD DUP2 LT PUSH2 0xE94 JUMPI PUSH2 0xE93 PUSH2 0x188D JUMP JUMPDEST JUMPDEST SWAP1 PUSH0 MSTORE PUSH1 0x20 PUSH0 KECCAK256 SWAP1 PUSH1 0x5 MUL ADD PUSH1 0x3 ADD DUP2 SWAP1 SSTORE POP PUSH0 DUP1 SLOAD SWAP1 PUSH2 0x100 EXP SWAP1 DIV PUSH20 0xFFFFFFFFFFFFFFFFFFFFFFFFFFFFFFFFFFFFFFFF AND PUSH20 0xFFFFFFFFFFFFFFFFFFFFFFFFFFFFFFFFFFFFFFFF AND PUSH4 0x23B872DD CALLER ADDRESS DUP9 PUSH1 0x40 MLOAD DUP5 PUSH4 0xFFFFFFFF AND PUSH1 0xE0 SHL DUP2 MSTORE PUSH1 0x4 ADD PUSH2 0xF03 SWAP4 SWAP3 SWAP2 SWAP1 PUSH2 0x1F3E JUMP JUMPDEST PUSH1 0x20 PUSH1 0x40 MLOAD DUP1 DUP4 SUB DUP2 PUSH0 DUP8 GAS CALL ISZERO DUP1 ISZERO PUSH2 0xF1F JUMPI RETURNDATASIZE PUSH0 DUP1 RETURNDATACOPY RETURNDATASIZE PUSH0 REVERT JUMPDEST POP POP POP POP PUSH1 0x40 MLOAD RETURNDATASIZE PUSH1 0x1F NOT PUSH1 0x1F DUP3 ADD AND DUP3 ADD DUP1 PUSH1 0x40 MSTORE POP DUP2 ADD SWAP1 PUSH2 0xF43 SWAP2 SWAP1 PUSH2 0x19F3 JUMP JUMPDEST POP PUSH32 0x96C68044657FCB3BEA5AD282F026BD0361F647D377DFE1615A77E35DD87280A1 CALLER DUP7 TIMESTAMP PUSH1 0x40 MLOAD PUSH2 0xF77 SWAP4 SWAP3 SWAP2 SWAP1 PUSH2 0x1F73 JUMP JUMPDEST PUSH1 0x40 MLOAD DUP1 SWAP2 SUB SWAP1 LOG1 PUSH2 0x12F2 JUMP JUMPDEST PUSH1 0x40 MLOAD PUSH1 0x20 ADD PUSH2 0xF93 SWAP1 PUSH2 0x1FF2 JUMP JUMPDEST PUSH1 0x40 MLOAD PUSH1 0x20 DUP2 DUP4 SUB SUB DUP2 MSTORE SWAP1 PUSH1 0x40 MSTORE DUP1 MLOAD SWAP1 PUSH1 0x20 ADD KECCAK256 DUP5 PUSH1 0x40 MLOAD PUSH1 0x20 ADD PUSH2 0xFBA SWAP2 SWAP1 PUSH2 0x1C2E JUMP JUMPDEST PUSH1 0x40 MLOAD PUSH1 0x20 DUP2 DUP4 SUB SUB DUP2 MSTORE SWAP1 PUSH1 0x40 MSTORE DUP1 MLOAD SWAP1 PUSH1 0x20 ADD KECCAK256 SUB PUSH2 0x12F1 JUMPI DUP5 PUSH1 0xA PUSH0 CALLER PUSH20 0xFFFFFFFFFFFFFFFFFFFFFFFFFFFFFFFFFFFFFFFF AND PUSH20 0xFFFFFFFFFFFFFFFFFFFFFFFFFFFFFFFFFFFFFFFF AND DUP2 MSTORE PUSH1 0x20 ADD SWAP1 DUP2 MSTORE PUSH1 0x20 ADD PUSH0 KECCAK256 DUP3 DUP2 SLOAD DUP2 LT PUSH2 0x1025 JUMPI PUSH2 0x1024 PUSH2 0x188D JUMP JUMPDEST JUMPDEST SWAP1 PUSH0 MSTORE PUSH1 0x20 PUSH0 KECCAK256 SWAP1 PUSH1 0x5 MUL ADD PUSH0 ADD DUP2 SWAP1 SSTORE POP DUP4 PUSH1 0xA PUSH0 CALLER PUSH20 0xFFFFFFFFFFFFFFFFFFFFFFFFFFFFFFFFFFFFFFFF AND PUSH20 0xFFFFFFFFFFFFFFFFFFFFFFFFFFFFFFFFFFFFFFFF AND DUP2 MSTORE PUSH1 0x20 ADD SWAP1 DUP2 MSTORE PUSH1 0x20 ADD PUSH0 KECCAK256 DUP3 DUP2 SLOAD DUP2 LT PUSH2 0x1087 JUMPI PUSH2 0x1086 PUSH2 0x188D JUMP JUMPDEST JUMPDEST SWAP1 PUSH0 MSTORE PUSH1 0x20 PUSH0 KECCAK256 SWAP1 PUSH1 0x5 MUL ADD PUSH1 0x1 ADD SWAP1 DUP2 PUSH2 0x10A2 SWAP2 SWAP1 PUSH2 0x1E6F JUMP JUMPDEST POP DUP2 PUSH1 0xA PUSH0 CALLER PUSH20 0xFFFFFFFFFFFFFFFFFFFFFFFFFFFFFFFFFFFFFFFF AND PUSH20 0xFFFFFFFFFFFFFFFFFFFFFFFFFFFFFFFFFFFFFFFF AND DUP2 MSTORE PUSH1 0x20 ADD SWAP1 DUP2 MSTORE PUSH1 0x20 ADD PUSH0 KECCAK256 DUP3 DUP2 SLOAD DUP2 LT PUSH2 0x10F3 JUMPI PUSH2 0x10F2 PUSH2 0x188D JUMP JUMPDEST JUMPDEST SWAP1 PUSH0 MSTORE PUSH1 0x20 PUSH0 KECCAK256 SWAP1 PUSH1 0x5 MUL ADD PUSH1 0x4 ADD PUSH0 PUSH2 0x100 EXP DUP2 SLOAD DUP2 PUSH1 0xFF MUL NOT AND SWAP1 DUP4 ISZERO ISZERO MUL OR SWAP1 SSTORE POP PUSH0 DUP1 SLOAD SWAP1 PUSH2 0x100 EXP SWAP1 DIV PUSH20 0xFFFFFFFFFFFFFFFFFFFFFFFFFFFFFFFFFFFFFFFF AND PUSH20 0xFFFFFFFFFFFFFFFFFFFFFFFFFFFFFFFFFFFFFFFF AND PUSH4 0x23B872DD CALLER ADDRESS DUP9 PUSH1 0x40 MLOAD DUP5 PUSH4 0xFFFFFFFF AND PUSH1 0xE0 SHL DUP2 MSTORE PUSH1 0x4 ADD PUSH2 0x1174 SWAP4 SWAP3 SWAP2 SWAP1 PUSH2 0x1F3E JUMP JUMPDEST PUSH1 0x20 PUSH1 0x40 MLOAD DUP1 DUP4 SUB DUP2 PUSH0 DUP8 GAS CALL ISZERO DUP1 ISZERO PUSH2 0x1190 JUMPI RETURNDATASIZE PUSH0 DUP1 RETURNDATACOPY RETURNDATASIZE PUSH0 REVERT JUMPDEST POP POP POP POP PUSH1 0x40 MLOAD RETURNDATASIZE PUSH1 0x1F NOT PUSH1 0x1F DUP3 ADD AND DUP3 ADD DUP1 PUSH1 0x40 MSTORE POP DUP2 ADD SWAP1 PUSH2 0x11B4 SWAP2 SWAP1 PUSH2 0x19F3 JUMP JUMPDEST POP TIMESTAMP PUSH1 0xA PUSH0 CALLER PUSH20 0xFFFFFFFFFFFFFFFFFFFFFFFFFFFFFFFFFFFFFFFF AND PUSH20 0xFFFFFFFFFFFFFFFFFFFFFFFFFFFFFFFFFFFFFFFF AND DUP2 MSTORE PUSH1 0x20 ADD SWAP1 DUP2 MSTORE PUSH1 0x20 ADD PUSH0 KECCAK256 DUP3 DUP2 SLOAD DUP2 LT PUSH2 0x1205 JUMPI PUSH2 0x1204 PUSH2 0x188D JUMP JUMPDEST JUMPDEST SWAP1 PUSH0 MSTORE PUSH1 0x20 PUSH0 KECCAK256 SWAP1 PUSH1 0x5 MUL ADD PUSH1 0x3 ADD DUP2 SWAP1 SSTORE POP PUSH0 DUP1 SLOAD SWAP1 PUSH2 0x100 EXP SWAP1 DIV PUSH20 0xFFFFFFFFFFFFFFFFFFFFFFFFFFFFFFFFFFFFFFFF AND PUSH20 0xFFFFFFFFFFFFFFFFFFFFFFFFFFFFFFFFFFFFFFFF AND PUSH4 0x23B872DD CALLER ADDRESS DUP9 PUSH1 0x40 MLOAD DUP5 PUSH4 0xFFFFFFFF AND PUSH1 0xE0 SHL DUP2 MSTORE PUSH1 0x4 ADD PUSH2 0x1274 SWAP4 SWAP3 SWAP2 SWAP1 PUSH2 0x1F3E JUMP JUMPDEST PUSH1 0x20 PUSH1 0x40 MLOAD DUP1 DUP4 SUB DUP2 PUSH0 DUP8 GAS CALL ISZERO DUP1 ISZERO PUSH2 0x1290 JUMPI RETURNDATASIZE PUSH0 DUP1 RETURNDATACOPY RETURNDATASIZE PUSH0 REVERT JUMPDEST POP POP POP POP PUSH1 0x40 MLOAD RETURNDATASIZE PUSH1 0x1F NOT PUSH1 0x1F DUP3 ADD AND DUP3 ADD DUP1 PUSH1 0x40 MSTORE POP DUP2 ADD SWAP1 PUSH2 0x12B4 SWAP2 SWAP1 PUSH2 0x19F3 JUMP JUMPDEST POP PUSH32 0x96C68044657FCB3BEA5AD282F026BD0361F647D377DFE1615A77E35DD87280A1 CALLER DUP7 TIMESTAMP PUSH1 0x40 MLOAD PUSH2 0x12E8 SWAP4 SWAP3 SWAP2 SWAP1 PUSH2 0x1F73 JUMP JUMPDEST PUSH1 0x40 MLOAD DUP1 SWAP2 SUB SWAP1 LOG1 JUMPDEST JUMPDEST POP POP POP POP POP JUMP JUMPDEST PUSH2 0x138F DUP2 PUSH1 0x40 MLOAD PUSH1 0x24 ADD PUSH2 0x130D SWAP2 SWAP1 PUSH2 0x2006 JUMP JUMPDEST PUSH1 0x40 MLOAD PUSH1 0x20 DUP2 DUP4 SUB SUB DUP2 MSTORE SWAP1 PUSH1 0x40 MSTORE PUSH32 0x41304FAC00000000000000000000000000000000000000000000000000000000 PUSH28 0xFFFFFFFFFFFFFFFFFFFFFFFFFFFFFFFFFFFFFFFFFFFFFFFFFFFFFFFF NOT AND PUSH1 0x20 DUP3 ADD DUP1 MLOAD PUSH28 0xFFFFFFFFFFFFFFFFFFFFFFFFFFFFFFFFFFFFFFFFFFFFFFFFFFFFFFFF DUP4 DUP2 DUP4 AND OR DUP4 MSTORE POP POP POP POP PUSH2 0x142B JUMP JUMPDEST POP JUMP JUMPDEST PUSH2 0x1428 DUP2 PUSH1 0x40 MLOAD PUSH1 0x24 ADD PUSH2 0x13A6 SWAP2 SWAP1 PUSH2 0x153C JUMP JUMPDEST PUSH1 0x40 MLOAD PUSH1 0x20 DUP2 DUP4 SUB SUB DUP2 MSTORE SWAP1 PUSH1 0x40 MSTORE PUSH32 0xF82C50F100000000000000000000000000000000000000000000000000000000 PUSH28 0xFFFFFFFFFFFFFFFFFFFFFFFFFFFFFFFFFFFFFFFFFFFFFFFFFFFFFFFF NOT AND PUSH1 0x20 DUP3 ADD DUP1 MLOAD PUSH28 0xFFFFFFFFFFFFFFFFFFFFFFFFFFFFFFFFFFFFFFFFFFFFFFFFFFFFFFFF DUP4 DUP2 DUP4 AND OR DUP4 MSTORE POP POP POP POP PUSH2 0x142B JUMP JUMPDEST POP JUMP JUMPDEST PUSH0 DUP2 MLOAD SWAP1 POP PUSH0 PUSH11 0x636F6E736F6C652E6C6F67 SWAP1 POP PUSH1 0x20 DUP4 ADD PUSH0 DUP1 DUP5 DUP4 DUP6 GAS STATICCALL POP POP POP POP POP JUMP JUMPDEST PUSH0 PUSH1 0x40 MLOAD SWAP1 POP SWAP1 JUMP JUMPDEST PUSH0 DUP1 REVERT JUMPDEST PUSH0 DUP1 REVERT JUMPDEST PUSH0 PUSH20 0xFFFFFFFFFFFFFFFFFFFFFFFFFFFFFFFFFFFFFFFF DUP3 AND SWAP1 POP SWAP2 SWAP1 POP JUMP JUMPDEST PUSH0 PUSH2 0x148B DUP3 PUSH2 0x1462 JUMP JUMPDEST SWAP1 POP SWAP2 SWAP1 POP JUMP JUMPDEST PUSH2 0x149B DUP2 PUSH2 0x1481 JUMP JUMPDEST DUP2 EQ PUSH2 0x14A5 JUMPI PUSH0 DUP1 REVERT JUMPDEST POP JUMP JUMPDEST PUSH0 DUP2 CALLDATALOAD SWAP1 POP PUSH2 0x14B6 DUP2 PUSH2 0x1492 JUMP JUMPDEST SWAP3 SWAP2 POP POP JUMP JUMPDEST PUSH0 DUP2 SWAP1 POP SWAP2 SWAP1 POP JUMP JUMPDEST PUSH2 0x14CE DUP2 PUSH2 0x14BC JUMP JUMPDEST DUP2 EQ PUSH2 0x14D8 JUMPI PUSH0 DUP1 REVERT JUMPDEST POP JUMP JUMPDEST PUSH0 DUP2 CALLDATALOAD SWAP1 POP PUSH2 0x14E9 DUP2 PUSH2 0x14C5 JUMP JUMPDEST SWAP3 SWAP2 POP POP JUMP JUMPDEST PUSH0 DUP1 PUSH1 0x40 DUP4 DUP6 SUB SLT ISZERO PUSH2 0x1505 JUMPI PUSH2 0x1504 PUSH2 0x145A JUMP JUMPDEST JUMPDEST PUSH0 PUSH2 0x1512 DUP6 DUP3 DUP7 ADD PUSH2 0x14A8 JUMP JUMPDEST SWAP3 POP POP PUSH1 0x20 PUSH2 0x1523 DUP6 DUP3 DUP7 ADD PUSH2 0x14DB JUMP JUMPDEST SWAP2 POP POP SWAP3 POP SWAP3 SWAP1 POP JUMP JUMPDEST PUSH2 0x1536 DUP2 PUSH2 0x14BC JUMP JUMPDEST DUP3 MSTORE POP POP JUMP JUMPDEST PUSH0 PUSH1 0x20 DUP3 ADD SWAP1 POP PUSH2 0x154F PUSH0 DUP4 ADD DUP5 PUSH2 0x152D JUMP JUMPDEST SWAP3 SWAP2 POP POP JUMP JUMPDEST PUSH0 DUP2 MLOAD SWAP1 POP SWAP2 SWAP1 POP JUMP JUMPDEST PUSH0 DUP3 DUP3 MSTORE PUSH1 0x20 DUP3 ADD SWAP1 POP SWAP3 SWAP2 POP POP JUMP JUMPDEST PUSH0 JUMPDEST DUP4 DUP2 LT ISZERO PUSH2 0x158C JUMPI DUP1 DUP3 ADD MLOAD DUP2 DUP5 ADD MSTORE PUSH1 0x20 DUP2 ADD SWAP1 POP PUSH2 0x1571 JUMP JUMPDEST PUSH0 DUP5 DUP5 ADD MSTORE POP POP POP POP JUMP JUMPDEST PUSH0 PUSH1 0x1F NOT PUSH1 0x1F DUP4 ADD AND SWAP1 POP SWAP2 SWAP1 POP JUMP JUMPDEST PUSH0 PUSH2 0x15B1 DUP3 PUSH2 0x1555 JUMP JUMPDEST PUSH2 0x15BB DUP2 DUP6 PUSH2 0x155F JUMP JUMPDEST SWAP4 POP PUSH2 0x15CB DUP2 DUP6 PUSH1 0x20 DUP7 ADD PUSH2 0x156F JUMP JUMPDEST PUSH2 0x15D4 DUP2 PUSH2 0x1597 JUMP JUMPDEST DUP5 ADD SWAP2 POP POP SWAP3 SWAP2 POP POP JUMP JUMPDEST PUSH0 DUP2 ISZERO ISZERO SWAP1 POP SWAP2 SWAP1 POP JUMP JUMPDEST PUSH2 0x15F3 DUP2 PUSH2 0x15DF JUMP JUMPDEST DUP3 MSTORE POP POP JUMP JUMPDEST PUSH0 PUSH1 0xA0 DUP3 ADD SWAP1 POP PUSH2 0x160C PUSH0 DUP4 ADD DUP9 PUSH2 0x152D JUMP JUMPDEST DUP2 DUP2 SUB PUSH1 0x20 DUP4 ADD MSTORE PUSH2 0x161E DUP2 DUP8 PUSH2 0x15A7 JUMP JUMPDEST SWAP1 POP PUSH2 0x162D PUSH1 0x40 DUP4 ADD DUP7 PUSH2 0x152D JUMP JUMPDEST PUSH2 0x163A PUSH1 0x60 DUP4 ADD DUP6 PUSH2 0x152D JUMP JUMPDEST PUSH2 0x1647 PUSH1 0x80 DUP4 ADD DUP5 PUSH2 0x15EA JUMP JUMPDEST SWAP7 SWAP6 POP POP POP POP POP POP JUMP JUMPDEST PUSH2 0x165A DUP2 PUSH2 0x1481 JUMP JUMPDEST DUP3 MSTORE POP POP JUMP JUMPDEST PUSH0 PUSH1 0x20 DUP3 ADD SWAP1 POP PUSH2 0x1673 PUSH0 DUP4 ADD DUP5 PUSH2 0x1651 JUMP JUMPDEST SWAP3 SWAP2 POP POP JUMP JUMPDEST PUSH0 PUSH1 0x20 DUP3 DUP5 SUB SLT ISZERO PUSH2 0x168E JUMPI PUSH2 0x168D PUSH2 0x145A JUMP JUMPDEST JUMPDEST PUSH0 PUSH2 0x169B DUP5 DUP3 DUP6 ADD PUSH2 0x14A8 JUMP JUMPDEST SWAP2 POP POP SWAP3 SWAP2 POP POP JUMP JUMPDEST PUSH0 DUP1 REVERT JUMPDEST PUSH0 DUP1 REVERT JUMPDEST PUSH32 0x4E487B7100000000000000000000000000000000000000000000000000000000 PUSH0 MSTORE PUSH1 0x41 PUSH1 0x4 MSTORE PUSH1 0x24 PUSH0 REVERT JUMPDEST PUSH2 0x16E2 DUP3 PUSH2 0x1597 JUMP JUMPDEST DUP2 ADD DUP2 DUP2 LT PUSH8 0xFFFFFFFFFFFFFFFF DUP3 GT OR ISZERO PUSH2 0x1701 JUMPI PUSH2 0x1700 PUSH2 0x16AC JUMP JUMPDEST JUMPDEST DUP1 PUSH1 0x40 MSTORE POP POP POP JUMP JUMPDEST PUSH0 PUSH2 0x1713 PUSH2 0x1451 JUMP JUMPDEST SWAP1 POP PUSH2 0x171F DUP3 DUP3 PUSH2 0x16D9 JUMP JUMPDEST SWAP2 SWAP1 POP JUMP JUMPDEST PUSH0 PUSH8 0xFFFFFFFFFFFFFFFF DUP3 GT ISZERO PUSH2 0x173E JUMPI PUSH2 0x173D PUSH2 0x16AC JUMP JUMPDEST JUMPDEST PUSH2 0x1747 DUP3 PUSH2 0x1597 JUMP JUMPDEST SWAP1 POP PUSH1 0x20 DUP2 ADD SWAP1 POP SWAP2 SWAP1 POP JUMP JUMPDEST DUP3 DUP2 DUP4 CALLDATACOPY PUSH0 DUP4 DUP4 ADD MSTORE POP POP POP JUMP JUMPDEST PUSH0 PUSH2 0x1774 PUSH2 0x176F DUP5 PUSH2 0x1724 JUMP JUMPDEST PUSH2 0x170A JUMP JUMPDEST SWAP1 POP DUP3 DUP2 MSTORE PUSH1 0x20 DUP2 ADD DUP5 DUP5 DUP5 ADD GT ISZERO PUSH2 0x1790 JUMPI PUSH2 0x178F PUSH2 0x16A8 JUMP JUMPDEST JUMPDEST PUSH2 0x179B DUP5 DUP3 DUP6 PUSH2 0x1754 JUMP JUMPDEST POP SWAP4 SWAP3 POP POP POP JUMP JUMPDEST PUSH0 DUP3 PUSH1 0x1F DUP4 ADD SLT PUSH2 0x17B7 JUMPI PUSH2 0x17B6 PUSH2 0x16A4 JUMP JUMPDEST JUMPDEST DUP2 CALLDATALOAD PUSH2 0x17C7 DUP5 DUP3 PUSH1 0x20 DUP7 ADD PUSH2 0x1762 JUMP JUMPDEST SWAP2 POP POP SWAP3 SWAP2 POP POP JUMP JUMPDEST PUSH2 0x17D9 DUP2 PUSH2 0x15DF JUMP JUMPDEST DUP2 EQ PUSH2 0x17E3 JUMPI PUSH0 DUP1 REVERT JUMPDEST POP JUMP JUMPDEST PUSH0 DUP2 CALLDATALOAD SWAP1 POP PUSH2 0x17F4 DUP2 PUSH2 0x17D0 JUMP JUMPDEST SWAP3 SWAP2 POP POP JUMP JUMPDEST PUSH0 DUP1 PUSH0 DUP1 PUSH0 PUSH1 0xA0 DUP7 DUP9 SUB SLT ISZERO PUSH2 0x1813 JUMPI PUSH2 0x1812 PUSH2 0x145A JUMP JUMPDEST JUMPDEST PUSH0 PUSH2 0x1820 DUP9 DUP3 DUP10 ADD PUSH2 0x14DB JUMP JUMPDEST SWAP6 POP POP PUSH1 0x20 DUP7 ADD CALLDATALOAD PUSH8 0xFFFFFFFFFFFFFFFF DUP2 GT ISZERO PUSH2 0x1841 JUMPI PUSH2 0x1840 PUSH2 0x145E JUMP JUMPDEST JUMPDEST PUSH2 0x184D DUP9 DUP3 DUP10 ADD PUSH2 0x17A3 JUMP JUMPDEST SWAP5 POP POP PUSH1 0x40 PUSH2 0x185E DUP9 DUP3 DUP10 ADD PUSH2 0x14DB JUMP JUMPDEST SWAP4 POP POP PUSH1 0x60 PUSH2 0x186F DUP9 DUP3 DUP10 ADD PUSH2 0x17E6 JUMP JUMPDEST SWAP3 POP POP PUSH1 0x80 PUSH2 0x1880 DUP9 DUP3 DUP10 ADD PUSH2 0x14DB JUMP JUMPDEST SWAP2 POP POP SWAP3 SWAP6 POP SWAP3 SWAP6 SWAP1 SWAP4 POP JUMP JUMPDEST PUSH32 0x4E487B7100000000000000000000000000000000000000000000000000000000 PUSH0 MSTORE PUSH1 0x32 PUSH1 0x4 MSTORE PUSH1 0x24 PUSH0 REVERT JUMPDEST PUSH32 0x4E487B7100000000000000000000000000000000000000000000000000000000 PUSH0 MSTORE PUSH1 0x11 PUSH1 0x4 MSTORE PUSH1 0x24 PUSH0 REVERT JUMPDEST PUSH0 PUSH2 0x18F1 DUP3 PUSH2 0x14BC JUMP JUMPDEST SWAP2 POP PUSH2 0x18FC DUP4 PUSH2 0x14BC JUMP JUMPDEST SWAP3 POP DUP3 DUP3 MUL PUSH2 0x190A DUP2 PUSH2 0x14BC JUMP JUMPDEST SWAP2 POP DUP3 DUP3 DIV DUP5 EQ DUP4 ISZERO OR PUSH2 0x1921 JUMPI PUSH2 0x1920 PUSH2 0x18BA JUMP JUMPDEST JUMPDEST POP SWAP3 SWAP2 POP POP JUMP JUMPDEST PUSH32 0x4E487B7100000000000000000000000000000000000000000000000000000000 PUSH0 MSTORE PUSH1 0x12 PUSH1 0x4 MSTORE PUSH1 0x24 PUSH0 REVERT JUMPDEST PUSH0 PUSH2 0x195F DUP3 PUSH2 0x14BC JUMP JUMPDEST SWAP2 POP PUSH2 0x196A DUP4 PUSH2 0x14BC JUMP JUMPDEST SWAP3 POP DUP3 PUSH2 0x197A JUMPI PUSH2 0x1979 PUSH2 0x1928 JUMP JUMPDEST JUMPDEST DUP3 DUP3 DIV SWAP1 POP SWAP3 SWAP2 POP POP JUMP JUMPDEST PUSH0 PUSH2 0x198F DUP3 PUSH2 0x14BC JUMP JUMPDEST SWAP2 POP PUSH2 0x199A DUP4 PUSH2 0x14BC JUMP JUMPDEST SWAP3 POP DUP3 DUP3 ADD SWAP1 POP DUP1 DUP3 GT ISZERO PUSH2 0x19B2 JUMPI PUSH2 0x19B1 PUSH2 0x18BA JUMP JUMPDEST JUMPDEST SWAP3 SWAP2 POP POP JUMP JUMPDEST PUSH0 PUSH1 0x40 DUP3 ADD SWAP1 POP PUSH2 0x19CB PUSH0 DUP4 ADD DUP6 PUSH2 0x1651 JUMP JUMPDEST PUSH2 0x19D8 PUSH1 0x20 DUP4 ADD DUP5 PUSH2 0x152D JUMP JUMPDEST SWAP4 SWAP3 POP POP POP JUMP JUMPDEST PUSH0 DUP2 MLOAD SWAP1 POP PUSH2 0x19ED DUP2 PUSH2 0x17D0 JUMP JUMPDEST SWAP3 SWAP2 POP POP JUMP JUMPDEST PUSH0 PUSH1 0x20 DUP3 DUP5 SUB SLT ISZERO PUSH2 0x1A08 JUMPI PUSH2 0x1A07 PUSH2 0x145A JUMP JUMPDEST JUMPDEST PUSH0 PUSH2 0x1A15 DUP5 DUP3 DUP6 ADD PUSH2 0x19DF JUMP JUMPDEST SWAP2 POP POP SWAP3 SWAP2 POP POP JUMP JUMPDEST POP JUMP JUMPDEST PUSH0 PUSH2 0x1A2C PUSH0 DUP4 PUSH2 0x155F JUMP JUMPDEST SWAP2 POP PUSH2 0x1A37 DUP3 PUSH2 0x1A1E JUMP JUMPDEST PUSH0 DUP3 ADD SWAP1 POP SWAP2 SWAP1 POP JUMP JUMPDEST PUSH0 PUSH1 0x20 DUP3 ADD SWAP1 POP DUP2 DUP2 SUB PUSH0 DUP4 ADD MSTORE PUSH2 0x1A58 DUP2 PUSH2 0x1A21 JUMP JUMPDEST SWAP1 POP SWAP2 SWAP1 POP JUMP JUMPDEST PUSH0 PUSH2 0x1A69 DUP3 PUSH2 0x14BC JUMP JUMPDEST SWAP2 POP PUSH2 0x1A74 DUP4 PUSH2 0x14BC JUMP JUMPDEST SWAP3 POP DUP3 DUP3 SUB SWAP1 POP DUP2 DUP2 GT ISZERO PUSH2 0x1A8C JUMPI PUSH2 0x1A8B PUSH2 0x18BA JUMP JUMPDEST JUMPDEST SWAP3 SWAP2 POP POP JUMP JUMPDEST PUSH32 0x4E487B7100000000000000000000000000000000000000000000000000000000 PUSH0 MSTORE PUSH1 0x22 PUSH1 0x4 MSTORE PUSH1 0x24 PUSH0 REVERT JUMPDEST PUSH0 PUSH1 0x2 DUP3 DIV SWAP1 POP PUSH1 0x1 DUP3 AND DUP1 PUSH2 0x1AD6 JUMPI PUSH1 0x7F DUP3 AND SWAP2 POP JUMPDEST PUSH1 0x20 DUP3 LT DUP2 SUB PUSH2 0x1AE9 JUMPI PUSH2 0x1AE8 PUSH2 0x1A92 JUMP JUMPDEST JUMPDEST POP SWAP2 SWAP1 POP JUMP JUMPDEST PUSH0 DUP2 MLOAD SWAP1 POP PUSH2 0x1AFD DUP2 PUSH2 0x14C5 JUMP JUMPDEST SWAP3 SWAP2 POP POP JUMP JUMPDEST PUSH0 PUSH1 0x20 DUP3 DUP5 SUB SLT ISZERO PUSH2 0x1B18 JUMPI PUSH2 0x1B17 PUSH2 0x145A JUMP JUMPDEST JUMPDEST PUSH0 PUSH2 0x1B25 DUP5 DUP3 DUP6 ADD PUSH2 0x1AEF JUMP JUMPDEST SWAP2 POP POP SWAP3 SWAP2 POP POP JUMP JUMPDEST PUSH32 0x496E73756666696369656E742042616C616E6365000000000000000000000000 PUSH0 DUP3 ADD MSTORE POP JUMP JUMPDEST PUSH0 PUSH2 0x1B62 PUSH1 0x14 DUP4 PUSH2 0x155F JUMP JUMPDEST SWAP2 POP PUSH2 0x1B6D DUP3 PUSH2 0x1B2E JUMP JUMPDEST PUSH1 0x20 DUP3 ADD SWAP1 POP SWAP2 SWAP1 POP JUMP JUMPDEST PUSH0 PUSH1 0x20 DUP3 ADD SWAP1 POP DUP2 DUP2 SUB PUSH0 DUP4 ADD MSTORE PUSH2 0x1B8F DUP2 PUSH2 0x1B56 JUMP JUMPDEST SWAP1 POP SWAP2 SWAP1 POP JUMP JUMPDEST PUSH0 DUP2 SWAP1 POP SWAP3 SWAP2 POP POP JUMP JUMPDEST PUSH32 0x6669786564000000000000000000000000000000000000000000000000000000 PUSH0 DUP3 ADD MSTORE POP JUMP JUMPDEST PUSH0 PUSH2 0x1BD4 PUSH1 0x5 DUP4 PUSH2 0x1B96 JUMP JUMPDEST SWAP2 POP PUSH2 0x1BDF DUP3 PUSH2 0x1BA0 JUMP JUMPDEST PUSH1 0x5 DUP3 ADD SWAP1 POP SWAP2 SWAP1 POP JUMP JUMPDEST PUSH0 PUSH2 0x1BF4 DUP3 PUSH2 0x1BC8 JUMP JUMPDEST SWAP2 POP DUP2 SWAP1 POP SWAP2 SWAP1 POP JUMP JUMPDEST PUSH0 PUSH2 0x1C08 DUP3 PUSH2 0x1555 JUMP JUMPDEST PUSH2 0x1C12 DUP2 DUP6 PUSH2 0x1B96 JUMP JUMPDEST SWAP4 POP PUSH2 0x1C22 DUP2 DUP6 PUSH1 0x20 DUP7 ADD PUSH2 0x156F JUMP JUMPDEST DUP1 DUP5 ADD SWAP2 POP POP SWAP3 SWAP2 POP POP JUMP JUMPDEST PUSH0 PUSH2 0x1C39 DUP3 DUP5 PUSH2 0x1BFE JUMP JUMPDEST SWAP2 POP DUP2 SWAP1 POP SWAP3 SWAP2 POP POP JUMP JUMPDEST PUSH32 0x205374616B652063616E206E6F742062652030202C20456E74657220736F6D65 PUSH0 DUP3 ADD MSTORE PUSH32 0x20616D6F756E74206F6620746F6B656E73000000000000000000000000000000 PUSH1 0x20 DUP3 ADD MSTORE POP JUMP JUMPDEST PUSH0 PUSH2 0x1C9E PUSH1 0x31 DUP4 PUSH2 0x155F JUMP JUMPDEST SWAP2 POP PUSH2 0x1CA9 DUP3 PUSH2 0x1C44 JUMP JUMPDEST PUSH1 0x40 DUP3 ADD SWAP1 POP SWAP2 SWAP1 POP JUMP JUMPDEST PUSH0 PUSH1 0x20 DUP3 ADD SWAP1 POP DUP2 DUP2 SUB PUSH0 DUP4 ADD MSTORE PUSH2 0x1CCB DUP2 PUSH2 0x1C92 JUMP JUMPDEST SWAP1 POP SWAP2 SWAP1 POP JUMP JUMPDEST PUSH0 DUP2 SWAP1 POP DUP2 PUSH0 MSTORE PUSH1 0x20 PUSH0 KECCAK256 SWAP1 POP SWAP2 SWAP1 POP JUMP JUMPDEST PUSH0 PUSH1 0x20 PUSH1 0x1F DUP4 ADD DIV SWAP1 POP SWAP2 SWAP1 POP JUMP JUMPDEST PUSH0 DUP3 DUP3 SHL SWAP1 POP SWAP3 SWAP2 POP POP JUMP JUMPDEST PUSH0 PUSH1 0x8 DUP4 MUL PUSH2 0x1D2E PUSH32 0xFFFFFFFFFFFFFFFFFFFFFFFFFFFFFFFFFFFFFFFFFFFFFFFFFFFFFFFFFFFFFFFF DUP3 PUSH2 0x1CF3 JUMP JUMPDEST PUSH2 0x1D38 DUP7 DUP4 PUSH2 0x1CF3 JUMP JUMPDEST SWAP6 POP DUP1 NOT DUP5 AND SWAP4 POP DUP1 DUP7 AND DUP5 OR SWAP3 POP POP POP SWAP4 SWAP3 POP POP POP JUMP JUMPDEST PUSH0 DUP2 SWAP1 POP SWAP2 SWAP1 POP JUMP JUMPDEST PUSH0 PUSH2 0x1D73 PUSH2 0x1D6E PUSH2 0x1D69 DUP5 PUSH2 0x14BC JUMP JUMPDEST PUSH2 0x1D50 JUMP JUMPDEST PUSH2 0x14BC JUMP JUMPDEST SWAP1 POP SWAP2 SWAP1 POP JUMP JUMPDEST PUSH0 DUP2 SWAP1 POP SWAP2 SWAP1 POP JUMP JUMPDEST PUSH2 0x1D8C DUP4 PUSH2 0x1D59 JUMP JUMPDEST PUSH2 0x1DA0 PUSH2 0x1D98 DUP3 PUSH2 0x1D7A JUMP JUMPDEST DUP5 DUP5 SLOAD PUSH2 0x1CFF JUMP JUMPDEST DUP3 SSTORE POP POP POP POP JUMP JUMPDEST PUSH0 SWAP1 JUMP JUMPDEST PUSH2 0x1DB4 PUSH2 0x1DA8 JUMP JUMPDEST PUSH2 0x1DBF DUP2 DUP5 DUP5 PUSH2 0x1D83 JUMP JUMPDEST POP POP POP JUMP JUMPDEST JUMPDEST DUP2 DUP2 LT ISZERO PUSH2 0x1DE2 JUMPI PUSH2 0x1DD7 PUSH0 DUP3 PUSH2 0x1DAC JUMP JUMPDEST PUSH1 0x1 DUP2 ADD SWAP1 POP PUSH2 0x1DC5 JUMP JUMPDEST POP POP JUMP JUMPDEST PUSH1 0x1F DUP3 GT ISZERO PUSH2 0x1E27 JUMPI PUSH2 0x1DF8 DUP2 PUSH2 0x1CD2 JUMP JUMPDEST PUSH2 0x1E01 DUP5 PUSH2 0x1CE4 JUMP JUMPDEST DUP2 ADD PUSH1 0x20 DUP6 LT ISZERO PUSH2 0x1E10 JUMPI DUP2 SWAP1 POP JUMPDEST PUSH2 0x1E24 PUSH2 0x1E1C DUP6 PUSH2 0x1CE4 JUMP JUMPDEST DUP4 ADD DUP3 PUSH2 0x1DC4 JUMP JUMPDEST POP POP JUMPDEST POP POP POP JUMP JUMPDEST PUSH0 DUP3 DUP3 SHR SWAP1 POP SWAP3 SWAP2 POP POP JUMP JUMPDEST PUSH0 PUSH2 0x1E47 PUSH0 NOT DUP5 PUSH1 0x8 MUL PUSH2 0x1E2C JUMP JUMPDEST NOT DUP1 DUP4 AND SWAP2 POP POP SWAP3 SWAP2 POP POP JUMP JUMPDEST PUSH0 PUSH2 0x1E5F DUP4 DUP4 PUSH2 0x1E38 JUMP JUMPDEST SWAP2 POP DUP3 PUSH1 0x2 MUL DUP3 OR SWAP1 POP SWAP3 SWAP2 POP POP JUMP JUMPDEST PUSH2 0x1E78 DUP3 PUSH2 0x1555 JUMP JUMPDEST PUSH8 0xFFFFFFFFFFFFFFFF DUP2 GT ISZERO PUSH2 0x1E91 JUMPI PUSH2 0x1E90 PUSH2 0x16AC JUMP JUMPDEST JUMPDEST PUSH2 0x1E9B DUP3 SLOAD PUSH2 0x1ABF JUMP JUMPDEST PUSH2 0x1EA6 DUP3 DUP3 DUP6 PUSH2 0x1DE6 JUMP JUMPDEST PUSH0 PUSH1 0x20 SWAP1 POP PUSH1 0x1F DUP4 GT PUSH1 0x1 DUP2 EQ PUSH2 0x1ED7 JUMPI PUSH0 DUP5 ISZERO PUSH2 0x1EC5 JUMPI DUP3 DUP8 ADD MLOAD SWAP1 POP JUMPDEST PUSH2 0x1ECF DUP6 DUP3 PUSH2 0x1E54 JUMP JUMPDEST DUP7 SSTORE POP PUSH2 0x1F36 JUMP JUMPDEST PUSH1 0x1F NOT DUP5 AND PUSH2 0x1EE5 DUP7 PUSH2 0x1CD2 JUMP JUMPDEST PUSH0 JUMPDEST DUP3 DUP2 LT ISZERO PUSH2 0x1F0C JUMPI DUP5 DUP10 ADD MLOAD DUP3 SSTORE PUSH1 0x1 DUP3 ADD SWAP2 POP PUSH1 0x20 DUP6 ADD SWAP5 POP PUSH1 0x20 DUP2 ADD SWAP1 POP PUSH2 0x1EE7 JUMP JUMPDEST DUP7 DUP4 LT ISZERO PUSH2 0x1F29 JUMPI DUP5 DUP10 ADD MLOAD PUSH2 0x1F25 PUSH1 0x1F DUP10 AND DUP3 PUSH2 0x1E38 JUMP JUMPDEST DUP4 SSTORE POP JUMPDEST PUSH1 0x1 PUSH1 0x2 DUP9 MUL ADD DUP9 SSTORE POP POP POP JUMPDEST POP POP POP POP POP POP JUMP JUMPDEST PUSH0 PUSH1 0x60 DUP3 ADD SWAP1 POP PUSH2 0x1F51 PUSH0 DUP4 ADD DUP7 PUSH2 0x1651 JUMP JUMPDEST PUSH2 0x1F5E PUSH1 0x20 DUP4 ADD DUP6 PUSH2 0x1651 JUMP JUMPDEST PUSH2 0x1F6B PUSH1 0x40 DUP4 ADD DUP5 PUSH2 0x152D JUMP JUMPDEST SWAP5 SWAP4 POP POP POP POP JUMP JUMPDEST PUSH0 PUSH1 0x60 DUP3 ADD SWAP1 POP PUSH2 0x1F86 PUSH0 DUP4 ADD DUP7 PUSH2 0x1651 JUMP JUMPDEST PUSH2 0x1F93 PUSH1 0x20 DUP4 ADD DUP6 PUSH2 0x152D JUMP JUMPDEST PUSH2 0x1FA0 PUSH1 0x40 DUP4 ADD DUP5 PUSH2 0x152D JUMP JUMPDEST SWAP5 SWAP4 POP POP POP POP JUMP JUMPDEST PUSH32 0x756E666978656400000000000000000000000000000000000000000000000000 PUSH0 DUP3 ADD MSTORE POP JUMP JUMPDEST PUSH0 PUSH2 0x1FDC PUSH1 0x7 DUP4 PUSH2 0x1B96 JUMP JUMPDEST SWAP2 POP PUSH2 0x1FE7 DUP3 PUSH2 0x1FA8 JUMP JUMPDEST PUSH1 0x7 DUP3 ADD SWAP1 POP SWAP2 SWAP1 POP JUMP JUMPDEST PUSH0 PUSH2 0x1FFC DUP3 PUSH2 0x1FD0 JUMP JUMPDEST SWAP2 POP DUP2 SWAP1 POP SWAP2 SWAP1 POP JUMP JUMPDEST PUSH0 PUSH1 0x20 DUP3 ADD SWAP1 POP DUP2 DUP2 SUB PUSH0 DUP4 ADD MSTORE PUSH2 0x201E DUP2 DUP5 PUSH2 0x15A7 JUMP JUMPDEST SWAP1 POP SWAP3 SWAP2 POP POP JUMP INVALID PUSH10 0x6E736964652074686520 PUSH7 0x69786564207374 PUSH2 0x6B65 KECCAK256 PUSH2 0x6674 PUSH6 0x7220636F6D70 PUSH13 0x6574652074696D65696E736964 PUSH6 0x207468652066 PUSH10 0x786564207374616B6520 PUSH3 0x65666F PUSH19 0x6520636F6D706C6574652074696D6520616E64 KECCAK256 PUSH8 0x6F742070656E616C PUSH10 0x7479A264697066735822 SLT KECCAK256 0xCB RETURNDATASIZE 0x21 REVERT 0x5E CALL EXTCODEHASH TIMESTAMP DELEGATECALL SAR 0xE0 DELEGATECALL SLT 0xC5 PUSH11 0x8CB93C051E63CC8514A551 0xB3 0xD5 0xDC DUP5 0xC2 PUSH21 0x64736F6C6343000814003300000000000000000000 "
		},
		"gasEstimates": {
			"creation": {
				"codeDepositCost": "1677200",
				"executionCost": "infinite",
				"totalCost": "infinite"
			},
			"external": {
				"Stake_details(address,uint256)": "infinite",
				"TokenBalance(address)": "infinite",
				"getcontractaddress()": "401",
				"staking(uint256,string,uint256,bool,uint256)": "infinite",
				"unstaking(address,uint256)": "infinite"
			}
		},
		"methodIdentifiers": {
			"Stake_details(address,uint256)": "151cc95d",
			"TokenBalance(address)": "b6e2b395",
			"getcontractaddress()": "15621373",
			"staking(uint256,string,uint256,bool,uint256)": "fe004efb",
			"unstaking(address,uint256)": "070825d5"
		}
	},
	"abi": [
		{
			"inputs": [
				{
					"internalType": "contract ERC20Basic",
					"name": "_addressERC20",
					"type": "address"
				}
			],
			"stateMutability": "nonpayable",
			"type": "constructor"
		},
		{
			"anonymous": false,
			"inputs": [
				{
					"indexed": false,
					"internalType": "address",
					"name": "from",
					"type": "address"
				},
				{
					"indexed": false,
					"internalType": "uint256",
					"name": "amount",
					"type": "uint256"
				},
				{
					"indexed": false,
					"internalType": "uint256",
					"name": "_duration",
					"type": "uint256"
				}
			],
			"name": "tokensStaked",
			"type": "event"
		},
		{
			"inputs": [
				{
					"internalType": "address",
					"name": "",
					"type": "address"
				},
				{
					"internalType": "uint256",
					"name": "",
					"type": "uint256"
				}
			],
			"name": "Stake_details",
			"outputs": [
				{
					"internalType": "uint256",
					"name": "stake_amount",
					"type": "uint256"
				},
				{
					"internalType": "string",
					"name": "stake_type",
					"type": "string"
				},
				{
					"internalType": "uint256",
					"name": "stake_time",
					"type": "uint256"
				},
				{
					"internalType": "uint256",
					"name": "starting_stake_time",
					"type": "uint256"
				},
				{
					"internalType": "bool",
					"name": "isFixed",
					"type": "bool"
				}
			],
			"stateMutability": "view",
			"type": "function"
		},
		{
			"inputs": [
				{
					"internalType": "address",
					"name": "_address",
					"type": "address"
				}
			],
			"name": "TokenBalance",
			"outputs": [
				{
					"internalType": "uint256",
					"name": "",
					"type": "uint256"
				}
			],
			"stateMutability": "view",
			"type": "function"
		},
		{
			"inputs": [],
			"name": "getcontractaddress",
			"outputs": [
				{
					"internalType": "address",
					"name": "",
					"type": "address"
				}
			],
			"stateMutability": "nonpayable",
			"type": "function"
		},
		{
			"inputs": [
				{
					"internalType": "uint256",
					"name": "_amount",
					"type": "uint256"
				},
				{
					"internalType": "string",
					"name": "_type",
					"type": "string"
				},
				{
					"internalType": "uint256",
					"name": "_duration",
					"type": "uint256"
				},
				{
					"internalType": "bool",
					"name": "_isFixed",
					"type": "bool"
				},
				{
					"internalType": "uint256",
					"name": "_index",
					"type": "uint256"
				}
			],
			"name": "staking",
			"outputs": [],
			"stateMutability": "nonpayable",
			"type": "function"
		},
		{
			"inputs": [
				{
					"internalType": "address",
					"name": "_address",
					"type": "address"
				},
				{
					"internalType": "uint256",
					"name": "_index",
					"type": "uint256"
				}
			],
			"name": "unstaking",
			"outputs": [
				{
					"internalType": "uint256",
					"name": "",
					"type": "uint256"
				}
			],
			"stateMutability": "nonpayable",
			"type": "function"
		}
	]
}