{
	"data": {
		"bytecode": {
			"linkReferences": {},
			"object": "608060405260056008553480156200001657600080fd5b50604051620045363803806200453683398181016040528101906200003c9190620003db565b6040518060400160405280600581526020017f5354414b450000000000000000000000000000000000000000000000000000008152506040518060400160405280600381526020017f4e535800000000000000000000000000000000000000000000000000000000008152508160009081620000b9919062000682565b508060019081620000cb919062000682565b505050620000ee620000e26200013f60201b60201c565b6200014760201b60201c565b81600981905550806011908162000106919062000682565b506001600e60006101000a81548160ff02191690831515021790555060784262000131919062000798565b600a819055505050620007d3565b600033905090565b6000600760009054906101000a900473ffffffffffffffffffffffffffffffffffffffff16905081600760006101000a81548173ffffffffffffffffffffffffffffffffffffffff021916908373ffffffffffffffffffffffffffffffffffffffff1602179055508173ffffffffffffffffffffffffffffffffffffffff168173ffffffffffffffffffffffffffffffffffffffff167f8be0079c531659141344cd1fd0a4f28419497f9722a3daafe3b4186f6b6457e060405160405180910390a35050565b6000604051905090565b600080fd5b600080fd5b6000819050919050565b620002368162000221565b81146200024257600080fd5b50565b60008151905062000256816200022b565b92915050565b600080fd5b600080fd5b6000601f19601f8301169050919050565b7f4e487b7100000000000000000000000000000000000000000000000000000000600052604160045260246000fd5b620002b18262000266565b810181811067ffffffffffffffff82111715620002d357620002d262000277565b5b80604052505050565b6000620002e86200020d565b9050620002f68282620002a6565b919050565b600067ffffffffffffffff82111562000319576200031862000277565b5b620003248262000266565b9050602081019050919050565b60005b838110156200035157808201518184015260208101905062000334565b60008484015250505050565b6000620003746200036e84620002fb565b620002dc565b90508281526020810184848401111562000393576200039262000261565b5b620003a084828562000331565b509392505050565b600082601f830112620003c057620003bf6200025c565b5b8151620003d28482602086016200035d565b91505092915050565b60008060408385031215620003f557620003f462000217565b5b6000620004058582860162000245565b925050602083015167ffffffffffffffff8111156200042957620004286200021c565b5b6200043785828601620003a8565b9150509250929050565b600081519050919050565b7f4e487b7100000000000000000000000000000000000000000000000000000000600052602260045260246000fd5b600060028204905060018216806200049457607f821691505b602082108103620004aa57620004a96200044c565b5b50919050565b60008190508160005260206000209050919050565b60006020601f8301049050919050565b600082821b905092915050565b600060088302620005147fffffffffffffffffffffffffffffffffffffffffffffffffffffffffffffffff82620004d5565b620005208683620004d5565b95508019841693508086168417925050509392505050565b6000819050919050565b6000620005636200055d620005578462000221565b62000538565b62000221565b9050919050565b6000819050919050565b6200057f8362000542565b620005976200058e826200056a565b848454620004e2565b825550505050565b600090565b620005ae6200059f565b620005bb81848462000574565b505050565b5b81811015620005e357620005d7600082620005a4565b600181019050620005c1565b5050565b601f8211156200063257620005fc81620004b0565b6200060784620004c5565b8101602085101562000617578190505b6200062f6200062685620004c5565b830182620005c0565b50505b505050565b600082821c905092915050565b6000620006576000198460080262000637565b1980831691505092915050565b600062000672838362000644565b9150826002028217905092915050565b6200068d8262000441565b67ffffffffffffffff811115620006a957620006a862000277565b5b620006b582546200047b565b620006c2828285620005e7565b600060209050601f831160018114620006fa5760008415620006e5578287015190505b620006f1858262000664565b86555062000761565b601f1984166200070a86620004b0565b60005b8281101562000734578489015182556001820191506020850194506020810190506200070d565b8683101562000754578489015162000750601f89168262000644565b8355505b6001600288020188555050505b505050505050565b7f4e487b7100000000000000000000000000000000000000000000000000000000600052601160045260246000fd5b6000620007a58262000221565b9150620007b28362000221565b9250828201905080821115620007cd57620007cc62000769565b5b92915050565b613d5380620007e36000396000f3fe60806040526004361061019c5760003560e01c8063715018a6116100ec578063b88d4fde1161008a578063ce61a14111610064578063ce61a14114610584578063e985e9c5146105af578063f2fde38b146105ec578063fb4eb634146106155761019c565b8063b88d4fde14610507578063c7d17fd114610530578063c87b56dd146105475761019c565b8063909d6877116100c6578063909d68771461046c57806395d89b4114610497578063a22cb465146104c2578063b6f220aa146104eb5761019c565b8063715018a61461040157806381e7e20e146104185780638da5cb5b146104415761019c565b806335617a7a116101595780634af56d93116101335780634af56d93146103405780636352211e1461035c5780636e3de87c1461039957806370a08231146103c45761019c565b806335617a7a146102d55780633ccfd60b1461030057806342842e0e146103175761019c565b806301ffc9a7146101a157806306fdde03146101de57806307763ec314610209578063081812fc14610246578063095ea7b31461028357806323b872dd146102ac575b600080fd5b3480156101ad57600080fd5b506101c860048036038101906101c39190612596565b610640565b6040516101d591906125de565b60405180910390f35b3480156101ea57600080fd5b506101f3610722565b6040516102009190612689565b60405180910390f35b34801561021557600080fd5b50610230600480360381019061022b91906126e1565b6107b4565b60405161023d919061274f565b60405180910390f35b34801561025257600080fd5b5061026d600480360381019061026891906126e1565b6107f3565b60405161027a919061274f565b60405180910390f35b34801561028f57600080fd5b506102aa60048036038101906102a59190612796565b610839565b005b3480156102b857600080fd5b506102d360048036038101906102ce91906127d6565b610950565b005b3480156102e157600080fd5b506102ea6109b0565b6040516102f79190612838565b60405180910390f35b34801561030c57600080fd5b506103156109b6565b005b34801561032357600080fd5b5061033e600480360381019061033991906127d6565b610a14565b005b61035a60048036038101906103559190612988565b610a34565b005b34801561036857600080fd5b50610383600480360381019061037e91906126e1565b610c46565b604051610390919061274f565b60405180910390f35b3480156103a557600080fd5b506103ae610ccc565b6040516103bb9190612838565b60405180910390f35b3480156103d057600080fd5b506103eb60048036038101906103e691906129e4565b610cd2565b6040516103f89190612838565b60405180910390f35b34801561040d57600080fd5b50610416610d89565b005b34801561042457600080fd5b5061043f600480360381019061043a91906129e4565b610d9d565b005b34801561044d57600080fd5b50610456610e0b565b604051610463919061274f565b60405180910390f35b34801561047857600080fd5b50610481610e35565b60405161048e9190612838565b60405180910390f35b3480156104a357600080fd5b506104ac610e3b565b6040516104b99190612689565b60405180910390f35b3480156104ce57600080fd5b506104e960048036038101906104e49190612a3d565b610ecd565b005b61050560048036038101906105009190612988565b610ee3565b005b34801561051357600080fd5b5061052e60048036038101906105299190612b1e565b611177565b005b34801561053c57600080fd5b506105456111d9565b005b34801561055357600080fd5b5061056e600480360381019061056991906126e1565b61124d565b60405161057b9190612689565b60405180910390f35b34801561059057600080fd5b5061059961135f565b6040516105a69190612838565b60405180910390f35b3480156105bb57600080fd5b506105d660048036038101906105d19190612ba1565b611365565b6040516105e391906125de565b60405180910390f35b3480156105f857600080fd5b50610613600480360381019061060e91906129e4565b6113f9565b005b34801561062157600080fd5b5061062a61147c565b6040516106379190612838565b60405180910390f35b60007f80ac58cd000000000000000000000000000000000000000000000000000000007bffffffffffffffffffffffffffffffffffffffffffffffffffffffff1916827bffffffffffffffffffffffffffffffffffffffffffffffffffffffff1916148061070b57507f5b5e139f000000000000000000000000000000000000000000000000000000007bffffffffffffffffffffffffffffffffffffffffffffffffffffffff1916827bffffffffffffffffffffffffffffffffffffffffffffffffffffffff1916145b8061071b575061071a82611481565b5b9050919050565b60606000805461073190612c10565b80601f016020809104026020016040519081016040528092919081815260200182805461075d90612c10565b80156107aa5780601f1061077f576101008083540402835291602001916107aa565b820191906000526020600020905b81548152906001019060200180831161078d57829003601f168201915b5050505050905090565b600f81815481106107c457600080fd5b906000526020600020016000915054906101000a900473ffffffffffffffffffffffffffffffffffffffff1681565b60006107fe826114eb565b6004600083815260200190815260200160002060009054906101000a900473ffffffffffffffffffffffffffffffffffffffff169050919050565b600061084482610c46565b90508073ffffffffffffffffffffffffffffffffffffffff168373ffffffffffffffffffffffffffffffffffffffff16036108b4576040517f08c379a00000000000000000000000000000000000000000000000000000000081526004016108ab90612cb3565b60405180910390fd5b8073ffffffffffffffffffffffffffffffffffffffff166108d3611536565b73ffffffffffffffffffffffffffffffffffffffff1614806109025750610901816108fc611536565b611365565b5b610941576040517f08c379a000000000000000000000000000000000000000000000000000000000815260040161093890612d45565b60405180910390fd5b61094b838361153e565b505050565b61096161095b611536565b826115f7565b6109a0576040517f08c379a000000000000000000000000000000000000000000000000000000000815260040161099790612dd7565b60405180910390fd5b6109ab83838361168c565b505050565b600d5481565b6109be611985565b60004790506109cb610e0b565b73ffffffffffffffffffffffffffffffffffffffff166108fc829081150290604051600060405180830381858888f19350505050158015610a10573d6000803e3d6000fd5b5050565b610a2f83838360405180602001604052806000815250611177565b505050565b600a600d5410610a79576040517f08c379a0000000000000000000000000000000000000000000000000000000008152600401610a7090612e43565b60405180910390fd5b42600a5410610abd576040517f08c379a0000000000000000000000000000000000000000000000000000000008152600401610ab490612eaf565b60405180910390fd5b600854600d5410610b03576040517f08c379a0000000000000000000000000000000000000000000000000000000008152600401610afa90612f1b565b60405180910390fd5b600954600b541015610b57576000600b54600954610b219190612f6a565b90508060086000828254610b359190612f9e565b925050819055508060096000828254610b4e9190612f6a565b92505081905550505b81670de0b6b3a7640000610b6b9190612fd2565b341015610bad576040517f08c379a0000000000000000000000000000000000000000000000000000000008152600401610ba490613060565b60405180910390fd5b60005b82811015610c415760106000815480929190610bcb90613080565b9190505550610bdc33601054611a03565b6001600d6000828254610bef9190612f9e565b92505081905550610c2e6010546011610c09601054611a21565b604051602001610c1a9291906131e8565b604051602081830303815290604052611aef565b8080610c3990613080565b915050610bb0565b505050565b600080610c5283611b5c565b9050600073ffffffffffffffffffffffffffffffffffffffff168173ffffffffffffffffffffffffffffffffffffffff1603610cc3576040517f08c379a0000000000000000000000000000000000000000000000000000000008152600401610cba90613263565b60405180910390fd5b80915050919050565b60085481565b60008073ffffffffffffffffffffffffffffffffffffffff168273ffffffffffffffffffffffffffffffffffffffff1603610d42576040517f08c379a0000000000000000000000000000000000000000000000000000000008152600401610d39906132f5565b60405180910390fd5b600360008373ffffffffffffffffffffffffffffffffffffffff1673ffffffffffffffffffffffffffffffffffffffff168152602001908152602001600020549050919050565b610d91611985565b610d9b6000611b99565b565b610da5611985565b600f819080600181540180825580915050600190039060005260206000200160009091909190916101000a81548173ffffffffffffffffffffffffffffffffffffffff021916908373ffffffffffffffffffffffffffffffffffffffff16021790555050565b6000600760009054906101000a900473ffffffffffffffffffffffffffffffffffffffff16905090565b60095481565b606060018054610e4a90612c10565b80601f0160208091040260200160405190810160405280929190818152602001828054610e7690612c10565b8015610ec35780601f10610e9857610100808354040283529160200191610ec3565b820191906000526020600020905b815481529060010190602001808311610ea657829003601f168201915b5050505050905090565b610edf610ed8611536565b8383611c5f565b5050565b600080600091505b600f80549050821015610fbe57600f8281548110610f0c57610f0b613315565b5b9060005260206000200160009054906101000a900473ffffffffffffffffffffffffffffffffffffffff1673ffffffffffffffffffffffffffffffffffffffff163373ffffffffffffffffffffffffffffffffffffffff1603610fab57600f8281548110610f7d57610f7c613315565b5b9060005260206000200160009054906101000a900473ffffffffffffffffffffffffffffffffffffffff1690505b8180610fb690613080565b925050610eeb565b8073ffffffffffffffffffffffffffffffffffffffff163373ffffffffffffffffffffffffffffffffffffffff161461102c576040517f08c379a000000000000000000000000000000000000000000000000000000000815260040161102390613390565b60405180910390fd5b600b5460095411611072576040517f08c379a0000000000000000000000000000000000000000000000000000000008152600401611069906133fc565b60405180910390fd5b83670de0b6b3a76400006110869190612fd2565b3410156110c8576040517f08c379a00000000000000000000000000000000000000000000000000000000081526004016110bf90613468565b60405180910390fd5b600091505b8382101561117157601060008154809291906110e890613080565b91905055506110f933601054611dcb565b6001600b600082825461110c9190612f9e565b9250508190555061114b6010546011611126601054611a21565b6040516020016111379291906131e8565b604051602081830303815290604052611aef565b61115e61115960105461124d565b611fe8565b818061116990613080565b9250506110cd565b50505050565b611188611182611536565b836115f7565b6111c7576040517f08c379a00000000000000000000000000000000000000000000000000000000081526004016111be90612dd7565b60405180910390fd5b6111d384848484612081565b50505050565b6111e1611985565b600e60019054906101000a900460ff16611230576040517f08c379a0000000000000000000000000000000000000000000000000000000008152600401611227906134d4565b60405180910390fd5b6000600e60016101000a81548160ff021916908315150217905550565b6060611258826114eb565b600060066000848152602001908152602001600020805461127890612c10565b80601f01602080910402602001604051908101604052809291908181526020018280546112a490612c10565b80156112f15780601f106112c6576101008083540402835291602001916112f1565b820191906000526020600020905b8154815290600101906020018083116112d457829003601f168201915b5050505050905060006113026120dd565b9050600081510361131757819250505061135a565b60008251111561134c5780826040516020016113349291906134f4565b6040516020818303038152906040529250505061135a565b611355846120f4565b925050505b919050565b600b5481565b6000600560008473ffffffffffffffffffffffffffffffffffffffff1673ffffffffffffffffffffffffffffffffffffffff16815260200190815260200160002060008373ffffffffffffffffffffffffffffffffffffffff1673ffffffffffffffffffffffffffffffffffffffff16815260200190815260200160002060009054906101000a900460ff16905092915050565b611401611985565b600073ffffffffffffffffffffffffffffffffffffffff168173ffffffffffffffffffffffffffffffffffffffff1603611470576040517f08c379a00000000000000000000000000000000000000000000000000000000081526004016114679061358a565b60405180910390fd5b61147981611b99565b50565b600a81565b60007f01ffc9a7000000000000000000000000000000000000000000000000000000007bffffffffffffffffffffffffffffffffffffffffffffffffffffffff1916827bffffffffffffffffffffffffffffffffffffffffffffffffffffffff1916149050919050565b6114f48161215c565b611533576040517f08c379a000000000000000000000000000000000000000000000000000000000815260040161152a90613263565b60405180910390fd5b50565b600033905090565b816004600083815260200190815260200160002060006101000a81548173ffffffffffffffffffffffffffffffffffffffff021916908373ffffffffffffffffffffffffffffffffffffffff160217905550808273ffffffffffffffffffffffffffffffffffffffff166115b183610c46565b73ffffffffffffffffffffffffffffffffffffffff167f8c5be1e5ebec7d5bd14f71427d1e84f3dd0314c0f7b2291e5b200ac8c7c3b92560405160405180910390a45050565b60008061160383610c46565b90508073ffffffffffffffffffffffffffffffffffffffff168473ffffffffffffffffffffffffffffffffffffffff16148061164557506116448185611365565b5b8061168357508373ffffffffffffffffffffffffffffffffffffffff1661166b846107f3565b73ffffffffffffffffffffffffffffffffffffffff16145b91505092915050565b8273ffffffffffffffffffffffffffffffffffffffff166116ac82610c46565b73ffffffffffffffffffffffffffffffffffffffff1614611702576040517f08c379a00000000000000000000000000000000000000000000000000000000081526004016116f99061361c565b60405180910390fd5b600073ffffffffffffffffffffffffffffffffffffffff168273ffffffffffffffffffffffffffffffffffffffff1603611771576040517f08c379a0000000000000000000000000000000000000000000000000000000008152600401611768906136ae565b60405180910390fd5b61177e838383600161219d565b8273ffffffffffffffffffffffffffffffffffffffff1661179e82610c46565b73ffffffffffffffffffffffffffffffffffffffff16146117f4576040517f08c379a00000000000000000000000000000000000000000000000000000000081526004016117eb9061361c565b60405180910390fd5b6004600082815260200190815260200160002060006101000a81549073ffffffffffffffffffffffffffffffffffffffff02191690556001600360008573ffffffffffffffffffffffffffffffffffffffff1673ffffffffffffffffffffffffffffffffffffffff168152602001908152602001600020600082825403925050819055506001600360008473ffffffffffffffffffffffffffffffffffffffff1673ffffffffffffffffffffffffffffffffffffffff16815260200190815260200160002060008282540192505081905550816002600083815260200190815260200160002060006101000a81548173ffffffffffffffffffffffffffffffffffffffff021916908373ffffffffffffffffffffffffffffffffffffffff160217905550808273ffffffffffffffffffffffffffffffffffffffff168473ffffffffffffffffffffffffffffffffffffffff167fddf252ad1be2c89b69c2b068fc378daa952ba7f163c4a11628f55a4df523b3ef60405160405180910390a461198083838360016121a3565b505050565b61198d611536565b73ffffffffffffffffffffffffffffffffffffffff166119ab610e0b565b73ffffffffffffffffffffffffffffffffffffffff1614611a01576040517f08c379a00000000000000000000000000000000000000000000000000000000081526004016119f89061371a565b60405180910390fd5b565b611a1d8282604051806020016040528060008152506121a9565b5050565b606060006001611a3084612204565b01905060008167ffffffffffffffff811115611a4f57611a4e61285d565b5b6040519080825280601f01601f191660200182016040528015611a815781602001600182028036833780820191505090505b509050600082602001820190505b600115611ae4578080600190039150507f3031323334353637383961626364656600000000000000000000000000000000600a86061a8153600a8581611ad857611ad761373a565b5b04945060008503611a8f575b819350505050919050565b611af88261215c565b611b37576040517f08c379a0000000000000000000000000000000000000000000000000000000008152600401611b2e906137db565b60405180910390fd5b80600660008481526020019081526020016000209081611b579190613992565b505050565b60006002600083815260200190815260200160002060009054906101000a900473ffffffffffffffffffffffffffffffffffffffff169050919050565b6000600760009054906101000a900473ffffffffffffffffffffffffffffffffffffffff16905081600760006101000a81548173ffffffffffffffffffffffffffffffffffffffff021916908373ffffffffffffffffffffffffffffffffffffffff1602179055508173ffffffffffffffffffffffffffffffffffffffff168173ffffffffffffffffffffffffffffffffffffffff167f8be0079c531659141344cd1fd0a4f28419497f9722a3daafe3b4186f6b6457e060405160405180910390a35050565b8173ffffffffffffffffffffffffffffffffffffffff168373ffffffffffffffffffffffffffffffffffffffff1603611ccd576040517f08c379a0000000000000000000000000000000000000000000000000000000008152600401611cc490613ab0565b60405180910390fd5b80600560008573ffffffffffffffffffffffffffffffffffffffff1673ffffffffffffffffffffffffffffffffffffffff16815260200190815260200160002060008473ffffffffffffffffffffffffffffffffffffffff1673ffffffffffffffffffffffffffffffffffffffff16815260200190815260200160002060006101000a81548160ff0219169083151502179055508173ffffffffffffffffffffffffffffffffffffffff168373ffffffffffffffffffffffffffffffffffffffff167f17307eab39ab6107e8899845ad3d59bd9653f200f220920489ca2b5937696c3183604051611dbe91906125de565b60405180910390a3505050565b600073ffffffffffffffffffffffffffffffffffffffff168273ffffffffffffffffffffffffffffffffffffffff1603611e3a576040517f08c379a0000000000000000000000000000000000000000000000000000000008152600401611e3190613b1c565b60405180910390fd5b611e438161215c565b15611e83576040517f08c379a0000000000000000000000000000000000000000000000000000000008152600401611e7a90613b88565b60405180910390fd5b611e9160008383600161219d565b611e9a8161215c565b15611eda576040517f08c379a0000000000000000000000000000000000000000000000000000000008152600401611ed190613b88565b60405180910390fd5b6001600360008473ffffffffffffffffffffffffffffffffffffffff1673ffffffffffffffffffffffffffffffffffffffff16815260200190815260200160002060008282540192505081905550816002600083815260200190815260200160002060006101000a81548173ffffffffffffffffffffffffffffffffffffffff021916908373ffffffffffffffffffffffffffffffffffffffff160217905550808273ffffffffffffffffffffffffffffffffffffffff16600073ffffffffffffffffffffffffffffffffffffffff167fddf252ad1be2c89b69c2b068fc378daa952ba7f163c4a11628f55a4df523b3ef60405160405180910390a4611fe46000838360016121a3565b5050565b61207e81604051602401611ffc9190612689565b6040516020818303038152906040527f41304fac000000000000000000000000000000000000000000000000000000007bffffffffffffffffffffffffffffffffffffffffffffffffffffffff19166020820180517bffffffffffffffffffffffffffffffffffffffffffffffffffffffff8381831617835250505050612357565b50565b61208c84848461168c565b61209884848484612380565b6120d7576040517f08c379a00000000000000000000000000000000000000000000000000000000081526004016120ce90613c1a565b60405180910390fd5b50505050565b606060405180602001604052806000815250905090565b60606120ff826114eb565b60006121096120dd565b905060008151116121295760405180602001604052806000815250612154565b8061213384611a21565b6040516020016121449291906134f4565b6040516020818303038152906040525b915050919050565b60008073ffffffffffffffffffffffffffffffffffffffff1661217e83611b5c565b73ffffffffffffffffffffffffffffffffffffffff1614159050919050565b50505050565b50505050565b6121b38383611dcb565b6121c06000848484612380565b6121ff576040517f08c379a00000000000000000000000000000000000000000000000000000000081526004016121f690613c1a565b60405180910390fd5b505050565b600080600090507a184f03e93ff9f4daa797ed6e38ed64bf6a1f0100000000000000008310612262577a184f03e93ff9f4daa797ed6e38ed64bf6a1f01000000000000000083816122585761225761373a565b5b0492506040810190505b6d04ee2d6d415b85acef8100000000831061229f576d04ee2d6d415b85acef810000000083816122955761229461373a565b5b0492506020810190505b662386f26fc1000083106122ce57662386f26fc1000083816122c4576122c361373a565b5b0492506010810190505b6305f5e10083106122f7576305f5e10083816122ed576122ec61373a565b5b0492506008810190505b612710831061231c5761271083816123125761231161373a565b5b0492506004810190505b6064831061233f57606483816123355761233461373a565b5b0492506002810190505b600a831061234e576001810190505b80915050919050565b60008151905060006a636f6e736f6c652e6c6f679050602083016000808483855afa5050505050565b60006123a18473ffffffffffffffffffffffffffffffffffffffff16612507565b156124fa578373ffffffffffffffffffffffffffffffffffffffff1663150b7a026123ca611536565b8786866040518563ffffffff1660e01b81526004016123ec9493929190613c8f565b6020604051808303816000875af192505050801561242857506040513d601f19601f820116820180604052508101906124259190613cf0565b60015b6124aa573d8060008114612458576040519150601f19603f3d011682016040523d82523d6000602084013e61245d565b606091505b5060008151036124a2576040517f08c379a000000000000000000000000000000000000000000000000000000000815260040161249990613c1a565b60405180910390fd5b805181602001fd5b63150b7a0260e01b7bffffffffffffffffffffffffffffffffffffffffffffffffffffffff1916817bffffffffffffffffffffffffffffffffffffffffffffffffffffffff1916149150506124ff565b600190505b949350505050565b6000808273ffffffffffffffffffffffffffffffffffffffff163b119050919050565b6000604051905090565b600080fd5b600080fd5b60007fffffffff0000000000000000000000000000000000000000000000000000000082169050919050565b6125738161253e565b811461257e57600080fd5b50565b6000813590506125908161256a565b92915050565b6000602082840312156125ac576125ab612534565b5b60006125ba84828501612581565b91505092915050565b60008115159050919050565b6125d8816125c3565b82525050565b60006020820190506125f360008301846125cf565b92915050565b600081519050919050565b600082825260208201905092915050565b60005b83811015612633578082015181840152602081019050612618565b60008484015250505050565b6000601f19601f8301169050919050565b600061265b826125f9565b6126658185612604565b9350612675818560208601612615565b61267e8161263f565b840191505092915050565b600060208201905081810360008301526126a38184612650565b905092915050565b6000819050919050565b6126be816126ab565b81146126c957600080fd5b50565b6000813590506126db816126b5565b92915050565b6000602082840312156126f7576126f6612534565b5b6000612705848285016126cc565b91505092915050565b600073ffffffffffffffffffffffffffffffffffffffff82169050919050565b60006127398261270e565b9050919050565b6127498161272e565b82525050565b60006020820190506127646000830184612740565b92915050565b6127738161272e565b811461277e57600080fd5b50565b6000813590506127908161276a565b92915050565b600080604083850312156127ad576127ac612534565b5b60006127bb85828601612781565b92505060206127cc858286016126cc565b9150509250929050565b6000806000606084860312156127ef576127ee612534565b5b60006127fd86828701612781565b935050602061280e86828701612781565b925050604061281f868287016126cc565b9150509250925092565b612832816126ab565b82525050565b600060208201905061284d6000830184612829565b92915050565b600080fd5b600080fd5b7f4e487b7100000000000000000000000000000000000000000000000000000000600052604160045260246000fd5b6128958261263f565b810181811067ffffffffffffffff821117156128b4576128b361285d565b5b80604052505050565b60006128c761252a565b90506128d3828261288c565b919050565b600067ffffffffffffffff8211156128f3576128f261285d565b5b6128fc8261263f565b9050602081019050919050565b82818337600083830152505050565b600061292b612926846128d8565b6128bd565b90508281526020810184848401111561294757612946612858565b5b612952848285612909565b509392505050565b600082601f83011261296f5761296e612853565b5b813561297f848260208601612918565b91505092915050565b6000806040838503121561299f5761299e612534565b5b60006129ad858286016126cc565b925050602083013567ffffffffffffffff8111156129ce576129cd612539565b5b6129da8582860161295a565b9150509250929050565b6000602082840312156129fa576129f9612534565b5b6000612a0884828501612781565b91505092915050565b612a1a816125c3565b8114612a2557600080fd5b50565b600081359050612a3781612a11565b92915050565b60008060408385031215612a5457612a53612534565b5b6000612a6285828601612781565b9250506020612a7385828601612a28565b9150509250929050565b600067ffffffffffffffff821115612a9857612a9761285d565b5b612aa18261263f565b9050602081019050919050565b6000612ac1612abc84612a7d565b6128bd565b905082815260208101848484011115612add57612adc612858565b5b612ae8848285612909565b509392505050565b600082601f830112612b0557612b04612853565b5b8135612b15848260208601612aae565b91505092915050565b60008060008060808587031215612b3857612b37612534565b5b6000612b4687828801612781565b9450506020612b5787828801612781565b9350506040612b68878288016126cc565b925050606085013567ffffffffffffffff811115612b8957612b88612539565b5b612b9587828801612af0565b91505092959194509250565b60008060408385031215612bb857612bb7612534565b5b6000612bc685828601612781565b9250506020612bd785828601612781565b9150509250929050565b7f4e487b7100000000000000000000000000000000000000000000000000000000600052602260045260246000fd5b60006002820490506001821680612c2857607f821691505b602082108103612c3b57612c3a612be1565b5b50919050565b7f4552433732313a20617070726f76616c20746f2063757272656e74206f776e6560008201527f7200000000000000000000000000000000000000000000000000000000000000602082015250565b6000612c9d602183612604565b9150612ca882612c41565b604082019050919050565b60006020820190508181036000830152612ccc81612c90565b9050919050565b7f4552433732313a20617070726f76652063616c6c6572206973206e6f7420746f60008201527f6b656e206f776e6572206f7220617070726f76656420666f7220616c6c000000602082015250565b6000612d2f603d83612604565b9150612d3a82612cd3565b604082019050919050565b60006020820190508181036000830152612d5e81612d22565b9050919050565b7f4552433732313a2063616c6c6572206973206e6f7420746f6b656e206f776e6560008201527f72206f7220617070726f76656400000000000000000000000000000000000000602082015250565b6000612dc1602d83612604565b9150612dcc82612d65565b604082019050919050565b60006020820190508181036000830152612df081612db4565b9050919050565b7f53746f636b206f75740000000000000000000000000000000000000000000000600082015250565b6000612e2d600983612604565b9150612e3882612df7565b602082019050919050565b60006020820190508181036000830152612e5c81612e20565b9050919050565b7f5075626c69632053616c65204e6f742053746172746564000000000000000000600082015250565b6000612e99601783612604565b9150612ea482612e63565b602082019050919050565b60006020820190508181036000830152612ec881612e8c565b9050919050565b7f53746f636b204f75742000000000000000000000000000000000000000000000600082015250565b6000612f05600a83612604565b9150612f1082612ecf565b602082019050919050565b60006020820190508181036000830152612f3481612ef8565b9050919050565b7f4e487b7100000000000000000000000000000000000000000000000000000000600052601160045260246000fd5b6000612f75826126ab565b9150612f80836126ab565b9250828203905081811115612f9857612f97612f3b565b5b92915050565b6000612fa9826126ab565b9150612fb4836126ab565b9250828201905080821115612fcc57612fcb612f3b565b5b92915050565b6000612fdd826126ab565b9150612fe8836126ab565b9250828202612ff6816126ab565b9150828204841483151761300d5761300c612f3b565b5b5092915050565b7f4e6f742073756666696369656e7420616d6f756e740000000000000000000000600082015250565b600061304a601583612604565b915061305582613014565b602082019050919050565b600060208201905081810360008301526130798161303d565b9050919050565b600061308b826126ab565b91507fffffffffffffffffffffffffffffffffffffffffffffffffffffffffffffffff82036130bd576130bc612f3b565b5b600182019050919050565b600081905092915050565b60008190508160005260206000209050919050565b600081546130f581612c10565b6130ff81866130c8565b9450600182166000811461311a576001811461312f57613162565b60ff1983168652811515820286019350613162565b613138856130d3565b60005b8381101561315a5781548189015260018201915060208101905061313b565b838801955050505b50505092915050565b6000613176826125f9565b61318081856130c8565b9350613190818560208601612615565b80840191505092915050565b7f2e6a736f6e000000000000000000000000000000000000000000000000000000600082015250565b60006131d26005836130c8565b91506131dd8261319c565b600582019050919050565b60006131f482856130e8565b9150613200828461316b565b915061320b826131c5565b91508190509392505050565b7f4552433732313a20696e76616c696420746f6b656e2049440000000000000000600082015250565b600061324d601883612604565b915061325882613217565b602082019050919050565b6000602082019050818103600083015261327c81613240565b9050919050565b7f4552433732313a2061646472657373207a65726f206973206e6f74206120766160008201527f6c6964206f776e65720000000000000000000000000000000000000000000000602082015250565b60006132df602983612604565b91506132ea82613283565b604082019050919050565b6000602082019050818103600083015261330e816132d2565b9050919050565b7f4e487b7100000000000000000000000000000000000000000000000000000000600052603260045260246000fd5b7f4e6f742061205665726966696564205573657200000000000000000000000000600082015250565b600061337a601383612604565b915061338582613344565b602082019050919050565b600060208201905081810360008301526133a98161336d565b9050919050565b7f2053746f636b204f757400000000000000000000000000000000000000000000600082015250565b60006133e6600a83612604565b91506133f1826133b0565b602082019050919050565b60006020820190508181036000830152613415816133d9565b9050919050565b7f4861766520746f207061792074686520636f727265637420616d6f756e740000600082015250565b6000613452601e83612604565b915061345d8261341c565b602082019050919050565b6000602082019050818103600083015261348181613445565b9050919050565b7f5075626c69632073616c6520686173206e6f7420737461727465642e00000000600082015250565b60006134be601c83612604565b91506134c982613488565b602082019050919050565b600060208201905081810360008301526134ed816134b1565b9050919050565b6000613500828561316b565b915061350c828461316b565b91508190509392505050565b7f4f776e61626c653a206e6577206f776e657220697320746865207a65726f206160008201527f6464726573730000000000000000000000000000000000000000000000000000602082015250565b6000613574602683612604565b915061357f82613518565b604082019050919050565b600060208201905081810360008301526135a381613567565b9050919050565b7f4552433732313a207472616e736665722066726f6d20696e636f72726563742060008201527f6f776e6572000000000000000000000000000000000000000000000000000000602082015250565b6000613606602583612604565b9150613611826135aa565b604082019050919050565b60006020820190508181036000830152613635816135f9565b9050919050565b7f4552433732313a207472616e7366657220746f20746865207a65726f2061646460008201527f7265737300000000000000000000000000000000000000000000000000000000602082015250565b6000613698602483612604565b91506136a38261363c565b604082019050919050565b600060208201905081810360008301526136c78161368b565b9050919050565b7f4f776e61626c653a2063616c6c6572206973206e6f7420746865206f776e6572600082015250565b6000613704602083612604565b915061370f826136ce565b602082019050919050565b60006020820190508181036000830152613733816136f7565b9050919050565b7f4e487b7100000000000000000000000000000000000000000000000000000000600052601260045260246000fd5b7f45524337323155524953746f726167653a2055524920736574206f66206e6f6e60008201527f6578697374656e7420746f6b656e000000000000000000000000000000000000602082015250565b60006137c5602e83612604565b91506137d082613769565b604082019050919050565b600060208201905081810360008301526137f4816137b8565b9050919050565b60006020601f8301049050919050565b600082821b905092915050565b6000600883026138487fffffffffffffffffffffffffffffffffffffffffffffffffffffffffffffffff8261380b565b613852868361380b565b95508019841693508086168417925050509392505050565b6000819050919050565b600061388f61388a613885846126ab565b61386a565b6126ab565b9050919050565b6000819050919050565b6138a983613874565b6138bd6138b582613896565b848454613818565b825550505050565b600090565b6138d26138c5565b6138dd8184846138a0565b505050565b5b81811015613901576138f66000826138ca565b6001810190506138e3565b5050565b601f82111561394657613917816130d3565b613920846137fb565b8101602085101561392f578190505b61394361393b856137fb565b8301826138e2565b50505b505050565b600082821c905092915050565b60006139696000198460080261394b565b1980831691505092915050565b60006139828383613958565b9150826002028217905092915050565b61399b826125f9565b67ffffffffffffffff8111156139b4576139b361285d565b5b6139be8254612c10565b6139c9828285613905565b600060209050601f8311600181146139fc57600084156139ea578287015190505b6139f48582613976565b865550613a5c565b601f198416613a0a866130d3565b60005b82811015613a3257848901518255600182019150602085019450602081019050613a0d565b86831015613a4f5784890151613a4b601f891682613958565b8355505b6001600288020188555050505b505050505050565b7f4552433732313a20617070726f766520746f2063616c6c657200000000000000600082015250565b6000613a9a601983612604565b9150613aa582613a64565b602082019050919050565b60006020820190508181036000830152613ac981613a8d565b9050919050565b7f4552433732313a206d696e7420746f20746865207a65726f2061646472657373600082015250565b6000613b06602083612604565b9150613b1182613ad0565b602082019050919050565b60006020820190508181036000830152613b3581613af9565b9050919050565b7f4552433732313a20746f6b656e20616c7265616479206d696e74656400000000600082015250565b6000613b72601c83612604565b9150613b7d82613b3c565b602082019050919050565b60006020820190508181036000830152613ba181613b65565b9050919050565b7f4552433732313a207472616e7366657220746f206e6f6e20455243373231526560008201527f63656976657220696d706c656d656e7465720000000000000000000000000000602082015250565b6000613c04603283612604565b9150613c0f82613ba8565b604082019050919050565b60006020820190508181036000830152613c3381613bf7565b9050919050565b600081519050919050565b600082825260208201905092915050565b6000613c6182613c3a565b613c6b8185613c45565b9350613c7b818560208601612615565b613c848161263f565b840191505092915050565b6000608082019050613ca46000830187612740565b613cb16020830186612740565b613cbe6040830185612829565b8181036060830152613cd08184613c56565b905095945050505050565b600081519050613cea8161256a565b92915050565b600060208284031215613d0657613d05612534565b5b6000613d1484828501613cdb565b9150509291505056fea2646970667358221220ceac0f26cab55aa2fe46595fc4b17328bc74386e8b229450ffbc6d7aefb6caf864736f6c63430008120033",
			"opcodes": "PUSH1 0x80 PUSH1 0x40 MSTORE PUSH1 0x5 PUSH1 0x8 SSTORE CALLVALUE DUP1 ISZERO PUSH3 0x16 JUMPI PUSH1 0x0 DUP1 REVERT JUMPDEST POP PUSH1 0x40 MLOAD PUSH3 0x4536 CODESIZE SUB DUP1 PUSH3 0x4536 DUP4 CODECOPY DUP2 DUP2 ADD PUSH1 0x40 MSTORE DUP2 ADD SWAP1 PUSH3 0x3C SWAP2 SWAP1 PUSH3 0x3DB JUMP JUMPDEST PUSH1 0x40 MLOAD DUP1 PUSH1 0x40 ADD PUSH1 0x40 MSTORE DUP1 PUSH1 0x5 DUP2 MSTORE PUSH1 0x20 ADD PUSH32 0x5354414B45000000000000000000000000000000000000000000000000000000 DUP2 MSTORE POP PUSH1 0x40 MLOAD DUP1 PUSH1 0x40 ADD PUSH1 0x40 MSTORE DUP1 PUSH1 0x3 DUP2 MSTORE PUSH1 0x20 ADD PUSH32 0x4E53580000000000000000000000000000000000000000000000000000000000 DUP2 MSTORE POP DUP2 PUSH1 0x0 SWAP1 DUP2 PUSH3 0xB9 SWAP2 SWAP1 PUSH3 0x682 JUMP JUMPDEST POP DUP1 PUSH1 0x1 SWAP1 DUP2 PUSH3 0xCB SWAP2 SWAP1 PUSH3 0x682 JUMP JUMPDEST POP POP POP PUSH3 0xEE PUSH3 0xE2 PUSH3 0x13F PUSH1 0x20 SHL PUSH1 0x20 SHR JUMP JUMPDEST PUSH3 0x147 PUSH1 0x20 SHL PUSH1 0x20 SHR JUMP JUMPDEST DUP2 PUSH1 0x9 DUP2 SWAP1 SSTORE POP DUP1 PUSH1 0x11 SWAP1 DUP2 PUSH3 0x106 SWAP2 SWAP1 PUSH3 0x682 JUMP JUMPDEST POP PUSH1 0x1 PUSH1 0xE PUSH1 0x0 PUSH2 0x100 EXP DUP2 SLOAD DUP2 PUSH1 0xFF MUL NOT AND SWAP1 DUP4 ISZERO ISZERO MUL OR SWAP1 SSTORE POP PUSH1 0x78 TIMESTAMP PUSH3 0x131 SWAP2 SWAP1 PUSH3 0x798 JUMP JUMPDEST PUSH1 0xA DUP2 SWAP1 SSTORE POP POP POP PUSH3 0x7D3 JUMP JUMPDEST PUSH1 0x0 CALLER SWAP1 POP SWAP1 JUMP JUMPDEST PUSH1 0x0 PUSH1 0x7 PUSH1 0x0 SWAP1 SLOAD SWAP1 PUSH2 0x100 EXP SWAP1 DIV PUSH20 0xFFFFFFFFFFFFFFFFFFFFFFFFFFFFFFFFFFFFFFFF AND SWAP1 POP DUP2 PUSH1 0x7 PUSH1 0x0 PUSH2 0x100 EXP DUP2 SLOAD DUP2 PUSH20 0xFFFFFFFFFFFFFFFFFFFFFFFFFFFFFFFFFFFFFFFF MUL NOT AND SWAP1 DUP4 PUSH20 0xFFFFFFFFFFFFFFFFFFFFFFFFFFFFFFFFFFFFFFFF AND MUL OR SWAP1 SSTORE POP DUP2 PUSH20 0xFFFFFFFFFFFFFFFFFFFFFFFFFFFFFFFFFFFFFFFF AND DUP2 PUSH20 0xFFFFFFFFFFFFFFFFFFFFFFFFFFFFFFFFFFFFFFFF AND PUSH32 0x8BE0079C531659141344CD1FD0A4F28419497F9722A3DAAFE3B4186F6B6457E0 PUSH1 0x40 MLOAD PUSH1 0x40 MLOAD DUP1 SWAP2 SUB SWAP1 LOG3 POP POP JUMP JUMPDEST PUSH1 0x0 PUSH1 0x40 MLOAD SWAP1 POP SWAP1 JUMP JUMPDEST PUSH1 0x0 DUP1 REVERT JUMPDEST PUSH1 0x0 DUP1 REVERT JUMPDEST PUSH1 0x0 DUP2 SWAP1 POP SWAP2 SWAP1 POP JUMP JUMPDEST PUSH3 0x236 DUP2 PUSH3 0x221 JUMP JUMPDEST DUP2 EQ PUSH3 0x242 JUMPI PUSH1 0x0 DUP1 REVERT JUMPDEST POP JUMP JUMPDEST PUSH1 0x0 DUP2 MLOAD SWAP1 POP PUSH3 0x256 DUP2 PUSH3 0x22B JUMP JUMPDEST SWAP3 SWAP2 POP POP JUMP JUMPDEST PUSH1 0x0 DUP1 REVERT JUMPDEST PUSH1 0x0 DUP1 REVERT JUMPDEST PUSH1 0x0 PUSH1 0x1F NOT PUSH1 0x1F DUP4 ADD AND SWAP1 POP SWAP2 SWAP1 POP JUMP JUMPDEST PUSH32 0x4E487B7100000000000000000000000000000000000000000000000000000000 PUSH1 0x0 MSTORE PUSH1 0x41 PUSH1 0x4 MSTORE PUSH1 0x24 PUSH1 0x0 REVERT JUMPDEST PUSH3 0x2B1 DUP3 PUSH3 0x266 JUMP JUMPDEST DUP2 ADD DUP2 DUP2 LT PUSH8 0xFFFFFFFFFFFFFFFF DUP3 GT OR ISZERO PUSH3 0x2D3 JUMPI PUSH3 0x2D2 PUSH3 0x277 JUMP JUMPDEST JUMPDEST DUP1 PUSH1 0x40 MSTORE POP POP POP JUMP JUMPDEST PUSH1 0x0 PUSH3 0x2E8 PUSH3 0x20D JUMP JUMPDEST SWAP1 POP PUSH3 0x2F6 DUP3 DUP3 PUSH3 0x2A6 JUMP JUMPDEST SWAP2 SWAP1 POP JUMP JUMPDEST PUSH1 0x0 PUSH8 0xFFFFFFFFFFFFFFFF DUP3 GT ISZERO PUSH3 0x319 JUMPI PUSH3 0x318 PUSH3 0x277 JUMP JUMPDEST JUMPDEST PUSH3 0x324 DUP3 PUSH3 0x266 JUMP JUMPDEST SWAP1 POP PUSH1 0x20 DUP2 ADD SWAP1 POP SWAP2 SWAP1 POP JUMP JUMPDEST PUSH1 0x0 JUMPDEST DUP4 DUP2 LT ISZERO PUSH3 0x351 JUMPI DUP1 DUP3 ADD MLOAD DUP2 DUP5 ADD MSTORE PUSH1 0x20 DUP2 ADD SWAP1 POP PUSH3 0x334 JUMP JUMPDEST PUSH1 0x0 DUP5 DUP5 ADD MSTORE POP POP POP POP JUMP JUMPDEST PUSH1 0x0 PUSH3 0x374 PUSH3 0x36E DUP5 PUSH3 0x2FB JUMP JUMPDEST PUSH3 0x2DC JUMP JUMPDEST SWAP1 POP DUP3 DUP2 MSTORE PUSH1 0x20 DUP2 ADD DUP5 DUP5 DUP5 ADD GT ISZERO PUSH3 0x393 JUMPI PUSH3 0x392 PUSH3 0x261 JUMP JUMPDEST JUMPDEST PUSH3 0x3A0 DUP5 DUP3 DUP6 PUSH3 0x331 JUMP JUMPDEST POP SWAP4 SWAP3 POP POP POP JUMP JUMPDEST PUSH1 0x0 DUP3 PUSH1 0x1F DUP4 ADD SLT PUSH3 0x3C0 JUMPI PUSH3 0x3BF PUSH3 0x25C JUMP JUMPDEST JUMPDEST DUP2 MLOAD PUSH3 0x3D2 DUP5 DUP3 PUSH1 0x20 DUP7 ADD PUSH3 0x35D JUMP JUMPDEST SWAP2 POP POP SWAP3 SWAP2 POP POP JUMP JUMPDEST PUSH1 0x0 DUP1 PUSH1 0x40 DUP4 DUP6 SUB SLT ISZERO PUSH3 0x3F5 JUMPI PUSH3 0x3F4 PUSH3 0x217 JUMP JUMPDEST JUMPDEST PUSH1 0x0 PUSH3 0x405 DUP6 DUP3 DUP7 ADD PUSH3 0x245 JUMP JUMPDEST SWAP3 POP POP PUSH1 0x20 DUP4 ADD MLOAD PUSH8 0xFFFFFFFFFFFFFFFF DUP2 GT ISZERO PUSH3 0x429 JUMPI PUSH3 0x428 PUSH3 0x21C JUMP JUMPDEST JUMPDEST PUSH3 0x437 DUP6 DUP3 DUP7 ADD PUSH3 0x3A8 JUMP JUMPDEST SWAP2 POP POP SWAP3 POP SWAP3 SWAP1 POP JUMP JUMPDEST PUSH1 0x0 DUP2 MLOAD SWAP1 POP SWAP2 SWAP1 POP JUMP JUMPDEST PUSH32 0x4E487B7100000000000000000000000000000000000000000000000000000000 PUSH1 0x0 MSTORE PUSH1 0x22 PUSH1 0x4 MSTORE PUSH1 0x24 PUSH1 0x0 REVERT JUMPDEST PUSH1 0x0 PUSH1 0x2 DUP3 DIV SWAP1 POP PUSH1 0x1 DUP3 AND DUP1 PUSH3 0x494 JUMPI PUSH1 0x7F DUP3 AND SWAP2 POP JUMPDEST PUSH1 0x20 DUP3 LT DUP2 SUB PUSH3 0x4AA JUMPI PUSH3 0x4A9 PUSH3 0x44C JUMP JUMPDEST JUMPDEST POP SWAP2 SWAP1 POP JUMP JUMPDEST PUSH1 0x0 DUP2 SWAP1 POP DUP2 PUSH1 0x0 MSTORE PUSH1 0x20 PUSH1 0x0 KECCAK256 SWAP1 POP SWAP2 SWAP1 POP JUMP JUMPDEST PUSH1 0x0 PUSH1 0x20 PUSH1 0x1F DUP4 ADD DIV SWAP1 POP SWAP2 SWAP1 POP JUMP JUMPDEST PUSH1 0x0 DUP3 DUP3 SHL SWAP1 POP SWAP3 SWAP2 POP POP JUMP JUMPDEST PUSH1 0x0 PUSH1 0x8 DUP4 MUL PUSH3 0x514 PUSH32 0xFFFFFFFFFFFFFFFFFFFFFFFFFFFFFFFFFFFFFFFFFFFFFFFFFFFFFFFFFFFFFFFF DUP3 PUSH3 0x4D5 JUMP JUMPDEST PUSH3 0x520 DUP7 DUP4 PUSH3 0x4D5 JUMP JUMPDEST SWAP6 POP DUP1 NOT DUP5 AND SWAP4 POP DUP1 DUP7 AND DUP5 OR SWAP3 POP POP POP SWAP4 SWAP3 POP POP POP JUMP JUMPDEST PUSH1 0x0 DUP2 SWAP1 POP SWAP2 SWAP1 POP JUMP JUMPDEST PUSH1 0x0 PUSH3 0x563 PUSH3 0x55D PUSH3 0x557 DUP5 PUSH3 0x221 JUMP JUMPDEST PUSH3 0x538 JUMP JUMPDEST PUSH3 0x221 JUMP JUMPDEST SWAP1 POP SWAP2 SWAP1 POP JUMP JUMPDEST PUSH1 0x0 DUP2 SWAP1 POP SWAP2 SWAP1 POP JUMP JUMPDEST PUSH3 0x57F DUP4 PUSH3 0x542 JUMP JUMPDEST PUSH3 0x597 PUSH3 0x58E DUP3 PUSH3 0x56A JUMP JUMPDEST DUP5 DUP5 SLOAD PUSH3 0x4E2 JUMP JUMPDEST DUP3 SSTORE POP POP POP POP JUMP JUMPDEST PUSH1 0x0 SWAP1 JUMP JUMPDEST PUSH3 0x5AE PUSH3 0x59F JUMP JUMPDEST PUSH3 0x5BB DUP2 DUP5 DUP5 PUSH3 0x574 JUMP JUMPDEST POP POP POP JUMP JUMPDEST JUMPDEST DUP2 DUP2 LT ISZERO PUSH3 0x5E3 JUMPI PUSH3 0x5D7 PUSH1 0x0 DUP3 PUSH3 0x5A4 JUMP JUMPDEST PUSH1 0x1 DUP2 ADD SWAP1 POP PUSH3 0x5C1 JUMP JUMPDEST POP POP JUMP JUMPDEST PUSH1 0x1F DUP3 GT ISZERO PUSH3 0x632 JUMPI PUSH3 0x5FC DUP2 PUSH3 0x4B0 JUMP JUMPDEST PUSH3 0x607 DUP5 PUSH3 0x4C5 JUMP JUMPDEST DUP2 ADD PUSH1 0x20 DUP6 LT ISZERO PUSH3 0x617 JUMPI DUP2 SWAP1 POP JUMPDEST PUSH3 0x62F PUSH3 0x626 DUP6 PUSH3 0x4C5 JUMP JUMPDEST DUP4 ADD DUP3 PUSH3 0x5C0 JUMP JUMPDEST POP POP JUMPDEST POP POP POP JUMP JUMPDEST PUSH1 0x0 DUP3 DUP3 SHR SWAP1 POP SWAP3 SWAP2 POP POP JUMP JUMPDEST PUSH1 0x0 PUSH3 0x657 PUSH1 0x0 NOT DUP5 PUSH1 0x8 MUL PUSH3 0x637 JUMP JUMPDEST NOT DUP1 DUP4 AND SWAP2 POP POP SWAP3 SWAP2 POP POP JUMP JUMPDEST PUSH1 0x0 PUSH3 0x672 DUP4 DUP4 PUSH3 0x644 JUMP JUMPDEST SWAP2 POP DUP3 PUSH1 0x2 MUL DUP3 OR SWAP1 POP SWAP3 SWAP2 POP POP JUMP JUMPDEST PUSH3 0x68D DUP3 PUSH3 0x441 JUMP JUMPDEST PUSH8 0xFFFFFFFFFFFFFFFF DUP2 GT ISZERO PUSH3 0x6A9 JUMPI PUSH3 0x6A8 PUSH3 0x277 JUMP JUMPDEST JUMPDEST PUSH3 0x6B5 DUP3 SLOAD PUSH3 0x47B JUMP JUMPDEST PUSH3 0x6C2 DUP3 DUP3 DUP6 PUSH3 0x5E7 JUMP JUMPDEST PUSH1 0x0 PUSH1 0x20 SWAP1 POP PUSH1 0x1F DUP4 GT PUSH1 0x1 DUP2 EQ PUSH3 0x6FA JUMPI PUSH1 0x0 DUP5 ISZERO PUSH3 0x6E5 JUMPI DUP3 DUP8 ADD MLOAD SWAP1 POP JUMPDEST PUSH3 0x6F1 DUP6 DUP3 PUSH3 0x664 JUMP JUMPDEST DUP7 SSTORE POP PUSH3 0x761 JUMP JUMPDEST PUSH1 0x1F NOT DUP5 AND PUSH3 0x70A DUP7 PUSH3 0x4B0 JUMP JUMPDEST PUSH1 0x0 JUMPDEST DUP3 DUP2 LT ISZERO PUSH3 0x734 JUMPI DUP5 DUP10 ADD MLOAD DUP3 SSTORE PUSH1 0x1 DUP3 ADD SWAP2 POP PUSH1 0x20 DUP6 ADD SWAP5 POP PUSH1 0x20 DUP2 ADD SWAP1 POP PUSH3 0x70D JUMP JUMPDEST DUP7 DUP4 LT ISZERO PUSH3 0x754 JUMPI DUP5 DUP10 ADD MLOAD PUSH3 0x750 PUSH1 0x1F DUP10 AND DUP3 PUSH3 0x644 JUMP JUMPDEST DUP4 SSTORE POP JUMPDEST PUSH1 0x1 PUSH1 0x2 DUP9 MUL ADD DUP9 SSTORE POP POP POP JUMPDEST POP POP POP POP POP POP JUMP JUMPDEST PUSH32 0x4E487B7100000000000000000000000000000000000000000000000000000000 PUSH1 0x0 MSTORE PUSH1 0x11 PUSH1 0x4 MSTORE PUSH1 0x24 PUSH1 0x0 REVERT JUMPDEST PUSH1 0x0 PUSH3 0x7A5 DUP3 PUSH3 0x221 JUMP JUMPDEST SWAP2 POP PUSH3 0x7B2 DUP4 PUSH3 0x221 JUMP JUMPDEST SWAP3 POP DUP3 DUP3 ADD SWAP1 POP DUP1 DUP3 GT ISZERO PUSH3 0x7CD JUMPI PUSH3 0x7CC PUSH3 0x769 JUMP JUMPDEST JUMPDEST SWAP3 SWAP2 POP POP JUMP JUMPDEST PUSH2 0x3D53 DUP1 PUSH3 0x7E3 PUSH1 0x0 CODECOPY PUSH1 0x0 RETURN INVALID PUSH1 0x80 PUSH1 0x40 MSTORE PUSH1 0x4 CALLDATASIZE LT PUSH2 0x19C JUMPI PUSH1 0x0 CALLDATALOAD PUSH1 0xE0 SHR DUP1 PUSH4 0x715018A6 GT PUSH2 0xEC JUMPI DUP1 PUSH4 0xB88D4FDE GT PUSH2 0x8A JUMPI DUP1 PUSH4 0xCE61A141 GT PUSH2 0x64 JUMPI DUP1 PUSH4 0xCE61A141 EQ PUSH2 0x584 JUMPI DUP1 PUSH4 0xE985E9C5 EQ PUSH2 0x5AF JUMPI DUP1 PUSH4 0xF2FDE38B EQ PUSH2 0x5EC JUMPI DUP1 PUSH4 0xFB4EB634 EQ PUSH2 0x615 JUMPI PUSH2 0x19C JUMP JUMPDEST DUP1 PUSH4 0xB88D4FDE EQ PUSH2 0x507 JUMPI DUP1 PUSH4 0xC7D17FD1 EQ PUSH2 0x530 JUMPI DUP1 PUSH4 0xC87B56DD EQ PUSH2 0x547 JUMPI PUSH2 0x19C JUMP JUMPDEST DUP1 PUSH4 0x909D6877 GT PUSH2 0xC6 JUMPI DUP1 PUSH4 0x909D6877 EQ PUSH2 0x46C JUMPI DUP1 PUSH4 0x95D89B41 EQ PUSH2 0x497 JUMPI DUP1 PUSH4 0xA22CB465 EQ PUSH2 0x4C2 JUMPI DUP1 PUSH4 0xB6F220AA EQ PUSH2 0x4EB JUMPI PUSH2 0x19C JUMP JUMPDEST DUP1 PUSH4 0x715018A6 EQ PUSH2 0x401 JUMPI DUP1 PUSH4 0x81E7E20E EQ PUSH2 0x418 JUMPI DUP1 PUSH4 0x8DA5CB5B EQ PUSH2 0x441 JUMPI PUSH2 0x19C JUMP JUMPDEST DUP1 PUSH4 0x35617A7A GT PUSH2 0x159 JUMPI DUP1 PUSH4 0x4AF56D93 GT PUSH2 0x133 JUMPI DUP1 PUSH4 0x4AF56D93 EQ PUSH2 0x340 JUMPI DUP1 PUSH4 0x6352211E EQ PUSH2 0x35C JUMPI DUP1 PUSH4 0x6E3DE87C EQ PUSH2 0x399 JUMPI DUP1 PUSH4 0x70A08231 EQ PUSH2 0x3C4 JUMPI PUSH2 0x19C JUMP JUMPDEST DUP1 PUSH4 0x35617A7A EQ PUSH2 0x2D5 JUMPI DUP1 PUSH4 0x3CCFD60B EQ PUSH2 0x300 JUMPI DUP1 PUSH4 0x42842E0E EQ PUSH2 0x317 JUMPI PUSH2 0x19C JUMP JUMPDEST DUP1 PUSH4 0x1FFC9A7 EQ PUSH2 0x1A1 JUMPI DUP1 PUSH4 0x6FDDE03 EQ PUSH2 0x1DE JUMPI DUP1 PUSH4 0x7763EC3 EQ PUSH2 0x209 JUMPI DUP1 PUSH4 0x81812FC EQ PUSH2 0x246 JUMPI DUP1 PUSH4 0x95EA7B3 EQ PUSH2 0x283 JUMPI DUP1 PUSH4 0x23B872DD EQ PUSH2 0x2AC JUMPI JUMPDEST PUSH1 0x0 DUP1 REVERT JUMPDEST CALLVALUE DUP1 ISZERO PUSH2 0x1AD JUMPI PUSH1 0x0 DUP1 REVERT JUMPDEST POP PUSH2 0x1C8 PUSH1 0x4 DUP1 CALLDATASIZE SUB DUP2 ADD SWAP1 PUSH2 0x1C3 SWAP2 SWAP1 PUSH2 0x2596 JUMP JUMPDEST PUSH2 0x640 JUMP JUMPDEST PUSH1 0x40 MLOAD PUSH2 0x1D5 SWAP2 SWAP1 PUSH2 0x25DE JUMP JUMPDEST PUSH1 0x40 MLOAD DUP1 SWAP2 SUB SWAP1 RETURN JUMPDEST CALLVALUE DUP1 ISZERO PUSH2 0x1EA JUMPI PUSH1 0x0 DUP1 REVERT JUMPDEST POP PUSH2 0x1F3 PUSH2 0x722 JUMP JUMPDEST PUSH1 0x40 MLOAD PUSH2 0x200 SWAP2 SWAP1 PUSH2 0x2689 JUMP JUMPDEST PUSH1 0x40 MLOAD DUP1 SWAP2 SUB SWAP1 RETURN JUMPDEST CALLVALUE DUP1 ISZERO PUSH2 0x215 JUMPI PUSH1 0x0 DUP1 REVERT JUMPDEST POP PUSH2 0x230 PUSH1 0x4 DUP1 CALLDATASIZE SUB DUP2 ADD SWAP1 PUSH2 0x22B SWAP2 SWAP1 PUSH2 0x26E1 JUMP JUMPDEST PUSH2 0x7B4 JUMP JUMPDEST PUSH1 0x40 MLOAD PUSH2 0x23D SWAP2 SWAP1 PUSH2 0x274F JUMP JUMPDEST PUSH1 0x40 MLOAD DUP1 SWAP2 SUB SWAP1 RETURN JUMPDEST CALLVALUE DUP1 ISZERO PUSH2 0x252 JUMPI PUSH1 0x0 DUP1 REVERT JUMPDEST POP PUSH2 0x26D PUSH1 0x4 DUP1 CALLDATASIZE SUB DUP2 ADD SWAP1 PUSH2 0x268 SWAP2 SWAP1 PUSH2 0x26E1 JUMP JUMPDEST PUSH2 0x7F3 JUMP JUMPDEST PUSH1 0x40 MLOAD PUSH2 0x27A SWAP2 SWAP1 PUSH2 0x274F JUMP JUMPDEST PUSH1 0x40 MLOAD DUP1 SWAP2 SUB SWAP1 RETURN JUMPDEST CALLVALUE DUP1 ISZERO PUSH2 0x28F JUMPI PUSH1 0x0 DUP1 REVERT JUMPDEST POP PUSH2 0x2AA PUSH1 0x4 DUP1 CALLDATASIZE SUB DUP2 ADD SWAP1 PUSH2 0x2A5 SWAP2 SWAP1 PUSH2 0x2796 JUMP JUMPDEST PUSH2 0x839 JUMP JUMPDEST STOP JUMPDEST CALLVALUE DUP1 ISZERO PUSH2 0x2B8 JUMPI PUSH1 0x0 DUP1 REVERT JUMPDEST POP PUSH2 0x2D3 PUSH1 0x4 DUP1 CALLDATASIZE SUB DUP2 ADD SWAP1 PUSH2 0x2CE SWAP2 SWAP1 PUSH2 0x27D6 JUMP JUMPDEST PUSH2 0x950 JUMP JUMPDEST STOP JUMPDEST CALLVALUE DUP1 ISZERO PUSH2 0x2E1 JUMPI PUSH1 0x0 DUP1 REVERT JUMPDEST POP PUSH2 0x2EA PUSH2 0x9B0 JUMP JUMPDEST PUSH1 0x40 MLOAD PUSH2 0x2F7 SWAP2 SWAP1 PUSH2 0x2838 JUMP JUMPDEST PUSH1 0x40 MLOAD DUP1 SWAP2 SUB SWAP1 RETURN JUMPDEST CALLVALUE DUP1 ISZERO PUSH2 0x30C JUMPI PUSH1 0x0 DUP1 REVERT JUMPDEST POP PUSH2 0x315 PUSH2 0x9B6 JUMP JUMPDEST STOP JUMPDEST CALLVALUE DUP1 ISZERO PUSH2 0x323 JUMPI PUSH1 0x0 DUP1 REVERT JUMPDEST POP PUSH2 0x33E PUSH1 0x4 DUP1 CALLDATASIZE SUB DUP2 ADD SWAP1 PUSH2 0x339 SWAP2 SWAP1 PUSH2 0x27D6 JUMP JUMPDEST PUSH2 0xA14 JUMP JUMPDEST STOP JUMPDEST PUSH2 0x35A PUSH1 0x4 DUP1 CALLDATASIZE SUB DUP2 ADD SWAP1 PUSH2 0x355 SWAP2 SWAP1 PUSH2 0x2988 JUMP JUMPDEST PUSH2 0xA34 JUMP JUMPDEST STOP JUMPDEST CALLVALUE DUP1 ISZERO PUSH2 0x368 JUMPI PUSH1 0x0 DUP1 REVERT JUMPDEST POP PUSH2 0x383 PUSH1 0x4 DUP1 CALLDATASIZE SUB DUP2 ADD SWAP1 PUSH2 0x37E SWAP2 SWAP1 PUSH2 0x26E1 JUMP JUMPDEST PUSH2 0xC46 JUMP JUMPDEST PUSH1 0x40 MLOAD PUSH2 0x390 SWAP2 SWAP1 PUSH2 0x274F JUMP JUMPDEST PUSH1 0x40 MLOAD DUP1 SWAP2 SUB SWAP1 RETURN JUMPDEST CALLVALUE DUP1 ISZERO PUSH2 0x3A5 JUMPI PUSH1 0x0 DUP1 REVERT JUMPDEST POP PUSH2 0x3AE PUSH2 0xCCC JUMP JUMPDEST PUSH1 0x40 MLOAD PUSH2 0x3BB SWAP2 SWAP1 PUSH2 0x2838 JUMP JUMPDEST PUSH1 0x40 MLOAD DUP1 SWAP2 SUB SWAP1 RETURN JUMPDEST CALLVALUE DUP1 ISZERO PUSH2 0x3D0 JUMPI PUSH1 0x0 DUP1 REVERT JUMPDEST POP PUSH2 0x3EB PUSH1 0x4 DUP1 CALLDATASIZE SUB DUP2 ADD SWAP1 PUSH2 0x3E6 SWAP2 SWAP1 PUSH2 0x29E4 JUMP JUMPDEST PUSH2 0xCD2 JUMP JUMPDEST PUSH1 0x40 MLOAD PUSH2 0x3F8 SWAP2 SWAP1 PUSH2 0x2838 JUMP JUMPDEST PUSH1 0x40 MLOAD DUP1 SWAP2 SUB SWAP1 RETURN JUMPDEST CALLVALUE DUP1 ISZERO PUSH2 0x40D JUMPI PUSH1 0x0 DUP1 REVERT JUMPDEST POP PUSH2 0x416 PUSH2 0xD89 JUMP JUMPDEST STOP JUMPDEST CALLVALUE DUP1 ISZERO PUSH2 0x424 JUMPI PUSH1 0x0 DUP1 REVERT JUMPDEST POP PUSH2 0x43F PUSH1 0x4 DUP1 CALLDATASIZE SUB DUP2 ADD SWAP1 PUSH2 0x43A SWAP2 SWAP1 PUSH2 0x29E4 JUMP JUMPDEST PUSH2 0xD9D JUMP JUMPDEST STOP JUMPDEST CALLVALUE DUP1 ISZERO PUSH2 0x44D JUMPI PUSH1 0x0 DUP1 REVERT JUMPDEST POP PUSH2 0x456 PUSH2 0xE0B JUMP JUMPDEST PUSH1 0x40 MLOAD PUSH2 0x463 SWAP2 SWAP1 PUSH2 0x274F JUMP JUMPDEST PUSH1 0x40 MLOAD DUP1 SWAP2 SUB SWAP1 RETURN JUMPDEST CALLVALUE DUP1 ISZERO PUSH2 0x478 JUMPI PUSH1 0x0 DUP1 REVERT JUMPDEST POP PUSH2 0x481 PUSH2 0xE35 JUMP JUMPDEST PUSH1 0x40 MLOAD PUSH2 0x48E SWAP2 SWAP1 PUSH2 0x2838 JUMP JUMPDEST PUSH1 0x40 MLOAD DUP1 SWAP2 SUB SWAP1 RETURN JUMPDEST CALLVALUE DUP1 ISZERO PUSH2 0x4A3 JUMPI PUSH1 0x0 DUP1 REVERT JUMPDEST POP PUSH2 0x4AC PUSH2 0xE3B JUMP JUMPDEST PUSH1 0x40 MLOAD PUSH2 0x4B9 SWAP2 SWAP1 PUSH2 0x2689 JUMP JUMPDEST PUSH1 0x40 MLOAD DUP1 SWAP2 SUB SWAP1 RETURN JUMPDEST CALLVALUE DUP1 ISZERO PUSH2 0x4CE JUMPI PUSH1 0x0 DUP1 REVERT JUMPDEST POP PUSH2 0x4E9 PUSH1 0x4 DUP1 CALLDATASIZE SUB DUP2 ADD SWAP1 PUSH2 0x4E4 SWAP2 SWAP1 PUSH2 0x2A3D JUMP JUMPDEST PUSH2 0xECD JUMP JUMPDEST STOP JUMPDEST PUSH2 0x505 PUSH1 0x4 DUP1 CALLDATASIZE SUB DUP2 ADD SWAP1 PUSH2 0x500 SWAP2 SWAP1 PUSH2 0x2988 JUMP JUMPDEST PUSH2 0xEE3 JUMP JUMPDEST STOP JUMPDEST CALLVALUE DUP1 ISZERO PUSH2 0x513 JUMPI PUSH1 0x0 DUP1 REVERT JUMPDEST POP PUSH2 0x52E PUSH1 0x4 DUP1 CALLDATASIZE SUB DUP2 ADD SWAP1 PUSH2 0x529 SWAP2 SWAP1 PUSH2 0x2B1E JUMP JUMPDEST PUSH2 0x1177 JUMP JUMPDEST STOP JUMPDEST CALLVALUE DUP1 ISZERO PUSH2 0x53C JUMPI PUSH1 0x0 DUP1 REVERT JUMPDEST POP PUSH2 0x545 PUSH2 0x11D9 JUMP JUMPDEST STOP JUMPDEST CALLVALUE DUP1 ISZERO PUSH2 0x553 JUMPI PUSH1 0x0 DUP1 REVERT JUMPDEST POP PUSH2 0x56E PUSH1 0x4 DUP1 CALLDATASIZE SUB DUP2 ADD SWAP1 PUSH2 0x569 SWAP2 SWAP1 PUSH2 0x26E1 JUMP JUMPDEST PUSH2 0x124D JUMP JUMPDEST PUSH1 0x40 MLOAD PUSH2 0x57B SWAP2 SWAP1 PUSH2 0x2689 JUMP JUMPDEST PUSH1 0x40 MLOAD DUP1 SWAP2 SUB SWAP1 RETURN JUMPDEST CALLVALUE DUP1 ISZERO PUSH2 0x590 JUMPI PUSH1 0x0 DUP1 REVERT JUMPDEST POP PUSH2 0x599 PUSH2 0x135F JUMP JUMPDEST PUSH1 0x40 MLOAD PUSH2 0x5A6 SWAP2 SWAP1 PUSH2 0x2838 JUMP JUMPDEST PUSH1 0x40 MLOAD DUP1 SWAP2 SUB SWAP1 RETURN JUMPDEST CALLVALUE DUP1 ISZERO PUSH2 0x5BB JUMPI PUSH1 0x0 DUP1 REVERT JUMPDEST POP PUSH2 0x5D6 PUSH1 0x4 DUP1 CALLDATASIZE SUB DUP2 ADD SWAP1 PUSH2 0x5D1 SWAP2 SWAP1 PUSH2 0x2BA1 JUMP JUMPDEST PUSH2 0x1365 JUMP JUMPDEST PUSH1 0x40 MLOAD PUSH2 0x5E3 SWAP2 SWAP1 PUSH2 0x25DE JUMP JUMPDEST PUSH1 0x40 MLOAD DUP1 SWAP2 SUB SWAP1 RETURN JUMPDEST CALLVALUE DUP1 ISZERO PUSH2 0x5F8 JUMPI PUSH1 0x0 DUP1 REVERT JUMPDEST POP PUSH2 0x613 PUSH1 0x4 DUP1 CALLDATASIZE SUB DUP2 ADD SWAP1 PUSH2 0x60E SWAP2 SWAP1 PUSH2 0x29E4 JUMP JUMPDEST PUSH2 0x13F9 JUMP JUMPDEST STOP JUMPDEST CALLVALUE DUP1 ISZERO PUSH2 0x621 JUMPI PUSH1 0x0 DUP1 REVERT JUMPDEST POP PUSH2 0x62A PUSH2 0x147C JUMP JUMPDEST PUSH1 0x40 MLOAD PUSH2 0x637 SWAP2 SWAP1 PUSH2 0x2838 JUMP JUMPDEST PUSH1 0x40 MLOAD DUP1 SWAP2 SUB SWAP1 RETURN JUMPDEST PUSH1 0x0 PUSH32 0x80AC58CD00000000000000000000000000000000000000000000000000000000 PUSH28 0xFFFFFFFFFFFFFFFFFFFFFFFFFFFFFFFFFFFFFFFFFFFFFFFFFFFFFFFF NOT AND DUP3 PUSH28 0xFFFFFFFFFFFFFFFFFFFFFFFFFFFFFFFFFFFFFFFFFFFFFFFFFFFFFFFF NOT AND EQ DUP1 PUSH2 0x70B JUMPI POP PUSH32 0x5B5E139F00000000000000000000000000000000000000000000000000000000 PUSH28 0xFFFFFFFFFFFFFFFFFFFFFFFFFFFFFFFFFFFFFFFFFFFFFFFFFFFFFFFF NOT AND DUP3 PUSH28 0xFFFFFFFFFFFFFFFFFFFFFFFFFFFFFFFFFFFFFFFFFFFFFFFFFFFFFFFF NOT AND EQ JUMPDEST DUP1 PUSH2 0x71B JUMPI POP PUSH2 0x71A DUP3 PUSH2 0x1481 JUMP JUMPDEST JUMPDEST SWAP1 POP SWAP2 SWAP1 POP JUMP JUMPDEST PUSH1 0x60 PUSH1 0x0 DUP1 SLOAD PUSH2 0x731 SWAP1 PUSH2 0x2C10 JUMP JUMPDEST DUP1 PUSH1 0x1F ADD PUSH1 0x20 DUP1 SWAP2 DIV MUL PUSH1 0x20 ADD PUSH1 0x40 MLOAD SWAP1 DUP2 ADD PUSH1 0x40 MSTORE DUP1 SWAP3 SWAP2 SWAP1 DUP2 DUP2 MSTORE PUSH1 0x20 ADD DUP3 DUP1 SLOAD PUSH2 0x75D SWAP1 PUSH2 0x2C10 JUMP JUMPDEST DUP1 ISZERO PUSH2 0x7AA JUMPI DUP1 PUSH1 0x1F LT PUSH2 0x77F JUMPI PUSH2 0x100 DUP1 DUP4 SLOAD DIV MUL DUP4 MSTORE SWAP2 PUSH1 0x20 ADD SWAP2 PUSH2 0x7AA JUMP JUMPDEST DUP3 ADD SWAP2 SWAP1 PUSH1 0x0 MSTORE PUSH1 0x20 PUSH1 0x0 KECCAK256 SWAP1 JUMPDEST DUP2 SLOAD DUP2 MSTORE SWAP1 PUSH1 0x1 ADD SWAP1 PUSH1 0x20 ADD DUP1 DUP4 GT PUSH2 0x78D JUMPI DUP3 SWAP1 SUB PUSH1 0x1F AND DUP3 ADD SWAP2 JUMPDEST POP POP POP POP POP SWAP1 POP SWAP1 JUMP JUMPDEST PUSH1 0xF DUP2 DUP2 SLOAD DUP2 LT PUSH2 0x7C4 JUMPI PUSH1 0x0 DUP1 REVERT JUMPDEST SWAP1 PUSH1 0x0 MSTORE PUSH1 0x20 PUSH1 0x0 KECCAK256 ADD PUSH1 0x0 SWAP2 POP SLOAD SWAP1 PUSH2 0x100 EXP SWAP1 DIV PUSH20 0xFFFFFFFFFFFFFFFFFFFFFFFFFFFFFFFFFFFFFFFF AND DUP2 JUMP JUMPDEST PUSH1 0x0 PUSH2 0x7FE DUP3 PUSH2 0x14EB JUMP JUMPDEST PUSH1 0x4 PUSH1 0x0 DUP4 DUP2 MSTORE PUSH1 0x20 ADD SWAP1 DUP2 MSTORE PUSH1 0x20 ADD PUSH1 0x0 KECCAK256 PUSH1 0x0 SWAP1 SLOAD SWAP1 PUSH2 0x100 EXP SWAP1 DIV PUSH20 0xFFFFFFFFFFFFFFFFFFFFFFFFFFFFFFFFFFFFFFFF AND SWAP1 POP SWAP2 SWAP1 POP JUMP JUMPDEST PUSH1 0x0 PUSH2 0x844 DUP3 PUSH2 0xC46 JUMP JUMPDEST SWAP1 POP DUP1 PUSH20 0xFFFFFFFFFFFFFFFFFFFFFFFFFFFFFFFFFFFFFFFF AND DUP4 PUSH20 0xFFFFFFFFFFFFFFFFFFFFFFFFFFFFFFFFFFFFFFFF AND SUB PUSH2 0x8B4 JUMPI PUSH1 0x40 MLOAD PUSH32 0x8C379A000000000000000000000000000000000000000000000000000000000 DUP2 MSTORE PUSH1 0x4 ADD PUSH2 0x8AB SWAP1 PUSH2 0x2CB3 JUMP JUMPDEST PUSH1 0x40 MLOAD DUP1 SWAP2 SUB SWAP1 REVERT JUMPDEST DUP1 PUSH20 0xFFFFFFFFFFFFFFFFFFFFFFFFFFFFFFFFFFFFFFFF AND PUSH2 0x8D3 PUSH2 0x1536 JUMP JUMPDEST PUSH20 0xFFFFFFFFFFFFFFFFFFFFFFFFFFFFFFFFFFFFFFFF AND EQ DUP1 PUSH2 0x902 JUMPI POP PUSH2 0x901 DUP2 PUSH2 0x8FC PUSH2 0x1536 JUMP JUMPDEST PUSH2 0x1365 JUMP JUMPDEST JUMPDEST PUSH2 0x941 JUMPI PUSH1 0x40 MLOAD PUSH32 0x8C379A000000000000000000000000000000000000000000000000000000000 DUP2 MSTORE PUSH1 0x4 ADD PUSH2 0x938 SWAP1 PUSH2 0x2D45 JUMP JUMPDEST PUSH1 0x40 MLOAD DUP1 SWAP2 SUB SWAP1 REVERT JUMPDEST PUSH2 0x94B DUP4 DUP4 PUSH2 0x153E JUMP JUMPDEST POP POP POP JUMP JUMPDEST PUSH2 0x961 PUSH2 0x95B PUSH2 0x1536 JUMP JUMPDEST DUP3 PUSH2 0x15F7 JUMP JUMPDEST PUSH2 0x9A0 JUMPI PUSH1 0x40 MLOAD PUSH32 0x8C379A000000000000000000000000000000000000000000000000000000000 DUP2 MSTORE PUSH1 0x4 ADD PUSH2 0x997 SWAP1 PUSH2 0x2DD7 JUMP JUMPDEST PUSH1 0x40 MLOAD DUP1 SWAP2 SUB SWAP1 REVERT JUMPDEST PUSH2 0x9AB DUP4 DUP4 DUP4 PUSH2 0x168C JUMP JUMPDEST POP POP POP JUMP JUMPDEST PUSH1 0xD SLOAD DUP2 JUMP JUMPDEST PUSH2 0x9BE PUSH2 0x1985 JUMP JUMPDEST PUSH1 0x0 SELFBALANCE SWAP1 POP PUSH2 0x9CB PUSH2 0xE0B JUMP JUMPDEST PUSH20 0xFFFFFFFFFFFFFFFFFFFFFFFFFFFFFFFFFFFFFFFF AND PUSH2 0x8FC DUP3 SWAP1 DUP2 ISZERO MUL SWAP1 PUSH1 0x40 MLOAD PUSH1 0x0 PUSH1 0x40 MLOAD DUP1 DUP4 SUB DUP2 DUP6 DUP9 DUP9 CALL SWAP4 POP POP POP POP ISZERO DUP1 ISZERO PUSH2 0xA10 JUMPI RETURNDATASIZE PUSH1 0x0 DUP1 RETURNDATACOPY RETURNDATASIZE PUSH1 0x0 REVERT JUMPDEST POP POP JUMP JUMPDEST PUSH2 0xA2F DUP4 DUP4 DUP4 PUSH1 0x40 MLOAD DUP1 PUSH1 0x20 ADD PUSH1 0x40 MSTORE DUP1 PUSH1 0x0 DUP2 MSTORE POP PUSH2 0x1177 JUMP JUMPDEST POP POP POP JUMP JUMPDEST PUSH1 0xA PUSH1 0xD SLOAD LT PUSH2 0xA79 JUMPI PUSH1 0x40 MLOAD PUSH32 0x8C379A000000000000000000000000000000000000000000000000000000000 DUP2 MSTORE PUSH1 0x4 ADD PUSH2 0xA70 SWAP1 PUSH2 0x2E43 JUMP JUMPDEST PUSH1 0x40 MLOAD DUP1 SWAP2 SUB SWAP1 REVERT JUMPDEST TIMESTAMP PUSH1 0xA SLOAD LT PUSH2 0xABD JUMPI PUSH1 0x40 MLOAD PUSH32 0x8C379A000000000000000000000000000000000000000000000000000000000 DUP2 MSTORE PUSH1 0x4 ADD PUSH2 0xAB4 SWAP1 PUSH2 0x2EAF JUMP JUMPDEST PUSH1 0x40 MLOAD DUP1 SWAP2 SUB SWAP1 REVERT JUMPDEST PUSH1 0x8 SLOAD PUSH1 0xD SLOAD LT PUSH2 0xB03 JUMPI PUSH1 0x40 MLOAD PUSH32 0x8C379A000000000000000000000000000000000000000000000000000000000 DUP2 MSTORE PUSH1 0x4 ADD PUSH2 0xAFA SWAP1 PUSH2 0x2F1B JUMP JUMPDEST PUSH1 0x40 MLOAD DUP1 SWAP2 SUB SWAP1 REVERT JUMPDEST PUSH1 0x9 SLOAD PUSH1 0xB SLOAD LT ISZERO PUSH2 0xB57 JUMPI PUSH1 0x0 PUSH1 0xB SLOAD PUSH1 0x9 SLOAD PUSH2 0xB21 SWAP2 SWAP1 PUSH2 0x2F6A JUMP JUMPDEST SWAP1 POP DUP1 PUSH1 0x8 PUSH1 0x0 DUP3 DUP3 SLOAD PUSH2 0xB35 SWAP2 SWAP1 PUSH2 0x2F9E JUMP JUMPDEST SWAP3 POP POP DUP2 SWAP1 SSTORE POP DUP1 PUSH1 0x9 PUSH1 0x0 DUP3 DUP3 SLOAD PUSH2 0xB4E SWAP2 SWAP1 PUSH2 0x2F6A JUMP JUMPDEST SWAP3 POP POP DUP2 SWAP1 SSTORE POP POP JUMPDEST DUP2 PUSH8 0xDE0B6B3A7640000 PUSH2 0xB6B SWAP2 SWAP1 PUSH2 0x2FD2 JUMP JUMPDEST CALLVALUE LT ISZERO PUSH2 0xBAD JUMPI PUSH1 0x40 MLOAD PUSH32 0x8C379A000000000000000000000000000000000000000000000000000000000 DUP2 MSTORE PUSH1 0x4 ADD PUSH2 0xBA4 SWAP1 PUSH2 0x3060 JUMP JUMPDEST PUSH1 0x40 MLOAD DUP1 SWAP2 SUB SWAP1 REVERT JUMPDEST PUSH1 0x0 JUMPDEST DUP3 DUP2 LT ISZERO PUSH2 0xC41 JUMPI PUSH1 0x10 PUSH1 0x0 DUP2 SLOAD DUP1 SWAP3 SWAP2 SWAP1 PUSH2 0xBCB SWAP1 PUSH2 0x3080 JUMP JUMPDEST SWAP2 SWAP1 POP SSTORE POP PUSH2 0xBDC CALLER PUSH1 0x10 SLOAD PUSH2 0x1A03 JUMP JUMPDEST PUSH1 0x1 PUSH1 0xD PUSH1 0x0 DUP3 DUP3 SLOAD PUSH2 0xBEF SWAP2 SWAP1 PUSH2 0x2F9E JUMP JUMPDEST SWAP3 POP POP DUP2 SWAP1 SSTORE POP PUSH2 0xC2E PUSH1 0x10 SLOAD PUSH1 0x11 PUSH2 0xC09 PUSH1 0x10 SLOAD PUSH2 0x1A21 JUMP JUMPDEST PUSH1 0x40 MLOAD PUSH1 0x20 ADD PUSH2 0xC1A SWAP3 SWAP2 SWAP1 PUSH2 0x31E8 JUMP JUMPDEST PUSH1 0x40 MLOAD PUSH1 0x20 DUP2 DUP4 SUB SUB DUP2 MSTORE SWAP1 PUSH1 0x40 MSTORE PUSH2 0x1AEF JUMP JUMPDEST DUP1 DUP1 PUSH2 0xC39 SWAP1 PUSH2 0x3080 JUMP JUMPDEST SWAP2 POP POP PUSH2 0xBB0 JUMP JUMPDEST POP POP POP JUMP JUMPDEST PUSH1 0x0 DUP1 PUSH2 0xC52 DUP4 PUSH2 0x1B5C JUMP JUMPDEST SWAP1 POP PUSH1 0x0 PUSH20 0xFFFFFFFFFFFFFFFFFFFFFFFFFFFFFFFFFFFFFFFF AND DUP2 PUSH20 0xFFFFFFFFFFFFFFFFFFFFFFFFFFFFFFFFFFFFFFFF AND SUB PUSH2 0xCC3 JUMPI PUSH1 0x40 MLOAD PUSH32 0x8C379A000000000000000000000000000000000000000000000000000000000 DUP2 MSTORE PUSH1 0x4 ADD PUSH2 0xCBA SWAP1 PUSH2 0x3263 JUMP JUMPDEST PUSH1 0x40 MLOAD DUP1 SWAP2 SUB SWAP1 REVERT JUMPDEST DUP1 SWAP2 POP POP SWAP2 SWAP1 POP JUMP JUMPDEST PUSH1 0x8 SLOAD DUP2 JUMP JUMPDEST PUSH1 0x0 DUP1 PUSH20 0xFFFFFFFFFFFFFFFFFFFFFFFFFFFFFFFFFFFFFFFF AND DUP3 PUSH20 0xFFFFFFFFFFFFFFFFFFFFFFFFFFFFFFFFFFFFFFFF AND SUB PUSH2 0xD42 JUMPI PUSH1 0x40 MLOAD PUSH32 0x8C379A000000000000000000000000000000000000000000000000000000000 DUP2 MSTORE PUSH1 0x4 ADD PUSH2 0xD39 SWAP1 PUSH2 0x32F5 JUMP JUMPDEST PUSH1 0x40 MLOAD DUP1 SWAP2 SUB SWAP1 REVERT JUMPDEST PUSH1 0x3 PUSH1 0x0 DUP4 PUSH20 0xFFFFFFFFFFFFFFFFFFFFFFFFFFFFFFFFFFFFFFFF AND PUSH20 0xFFFFFFFFFFFFFFFFFFFFFFFFFFFFFFFFFFFFFFFF AND DUP2 MSTORE PUSH1 0x20 ADD SWAP1 DUP2 MSTORE PUSH1 0x20 ADD PUSH1 0x0 KECCAK256 SLOAD SWAP1 POP SWAP2 SWAP1 POP JUMP JUMPDEST PUSH2 0xD91 PUSH2 0x1985 JUMP JUMPDEST PUSH2 0xD9B PUSH1 0x0 PUSH2 0x1B99 JUMP JUMPDEST JUMP JUMPDEST PUSH2 0xDA5 PUSH2 0x1985 JUMP JUMPDEST PUSH1 0xF DUP2 SWAP1 DUP1 PUSH1 0x1 DUP2 SLOAD ADD DUP1 DUP3 SSTORE DUP1 SWAP2 POP POP PUSH1 0x1 SWAP1 SUB SWAP1 PUSH1 0x0 MSTORE PUSH1 0x20 PUSH1 0x0 KECCAK256 ADD PUSH1 0x0 SWAP1 SWAP2 SWAP1 SWAP2 SWAP1 SWAP2 PUSH2 0x100 EXP DUP2 SLOAD DUP2 PUSH20 0xFFFFFFFFFFFFFFFFFFFFFFFFFFFFFFFFFFFFFFFF MUL NOT AND SWAP1 DUP4 PUSH20 0xFFFFFFFFFFFFFFFFFFFFFFFFFFFFFFFFFFFFFFFF AND MUL OR SWAP1 SSTORE POP POP JUMP JUMPDEST PUSH1 0x0 PUSH1 0x7 PUSH1 0x0 SWAP1 SLOAD SWAP1 PUSH2 0x100 EXP SWAP1 DIV PUSH20 0xFFFFFFFFFFFFFFFFFFFFFFFFFFFFFFFFFFFFFFFF AND SWAP1 POP SWAP1 JUMP JUMPDEST PUSH1 0x9 SLOAD DUP2 JUMP JUMPDEST PUSH1 0x60 PUSH1 0x1 DUP1 SLOAD PUSH2 0xE4A SWAP1 PUSH2 0x2C10 JUMP JUMPDEST DUP1 PUSH1 0x1F ADD PUSH1 0x20 DUP1 SWAP2 DIV MUL PUSH1 0x20 ADD PUSH1 0x40 MLOAD SWAP1 DUP2 ADD PUSH1 0x40 MSTORE DUP1 SWAP3 SWAP2 SWAP1 DUP2 DUP2 MSTORE PUSH1 0x20 ADD DUP3 DUP1 SLOAD PUSH2 0xE76 SWAP1 PUSH2 0x2C10 JUMP JUMPDEST DUP1 ISZERO PUSH2 0xEC3 JUMPI DUP1 PUSH1 0x1F LT PUSH2 0xE98 JUMPI PUSH2 0x100 DUP1 DUP4 SLOAD DIV MUL DUP4 MSTORE SWAP2 PUSH1 0x20 ADD SWAP2 PUSH2 0xEC3 JUMP JUMPDEST DUP3 ADD SWAP2 SWAP1 PUSH1 0x0 MSTORE PUSH1 0x20 PUSH1 0x0 KECCAK256 SWAP1 JUMPDEST DUP2 SLOAD DUP2 MSTORE SWAP1 PUSH1 0x1 ADD SWAP1 PUSH1 0x20 ADD DUP1 DUP4 GT PUSH2 0xEA6 JUMPI DUP3 SWAP1 SUB PUSH1 0x1F AND DUP3 ADD SWAP2 JUMPDEST POP POP POP POP POP SWAP1 POP SWAP1 JUMP JUMPDEST PUSH2 0xEDF PUSH2 0xED8 PUSH2 0x1536 JUMP JUMPDEST DUP4 DUP4 PUSH2 0x1C5F JUMP JUMPDEST POP POP JUMP JUMPDEST PUSH1 0x0 DUP1 PUSH1 0x0 SWAP2 POP JUMPDEST PUSH1 0xF DUP1 SLOAD SWAP1 POP DUP3 LT ISZERO PUSH2 0xFBE JUMPI PUSH1 0xF DUP3 DUP2 SLOAD DUP2 LT PUSH2 0xF0C JUMPI PUSH2 0xF0B PUSH2 0x3315 JUMP JUMPDEST JUMPDEST SWAP1 PUSH1 0x0 MSTORE PUSH1 0x20 PUSH1 0x0 KECCAK256 ADD PUSH1 0x0 SWAP1 SLOAD SWAP1 PUSH2 0x100 EXP SWAP1 DIV PUSH20 0xFFFFFFFFFFFFFFFFFFFFFFFFFFFFFFFFFFFFFFFF AND PUSH20 0xFFFFFFFFFFFFFFFFFFFFFFFFFFFFFFFFFFFFFFFF AND CALLER PUSH20 0xFFFFFFFFFFFFFFFFFFFFFFFFFFFFFFFFFFFFFFFF AND SUB PUSH2 0xFAB JUMPI PUSH1 0xF DUP3 DUP2 SLOAD DUP2 LT PUSH2 0xF7D JUMPI PUSH2 0xF7C PUSH2 0x3315 JUMP JUMPDEST JUMPDEST SWAP1 PUSH1 0x0 MSTORE PUSH1 0x20 PUSH1 0x0 KECCAK256 ADD PUSH1 0x0 SWAP1 SLOAD SWAP1 PUSH2 0x100 EXP SWAP1 DIV PUSH20 0xFFFFFFFFFFFFFFFFFFFFFFFFFFFFFFFFFFFFFFFF AND SWAP1 POP JUMPDEST DUP2 DUP1 PUSH2 0xFB6 SWAP1 PUSH2 0x3080 JUMP JUMPDEST SWAP3 POP POP PUSH2 0xEEB JUMP JUMPDEST DUP1 PUSH20 0xFFFFFFFFFFFFFFFFFFFFFFFFFFFFFFFFFFFFFFFF AND CALLER PUSH20 0xFFFFFFFFFFFFFFFFFFFFFFFFFFFFFFFFFFFFFFFF AND EQ PUSH2 0x102C JUMPI PUSH1 0x40 MLOAD PUSH32 0x8C379A000000000000000000000000000000000000000000000000000000000 DUP2 MSTORE PUSH1 0x4 ADD PUSH2 0x1023 SWAP1 PUSH2 0x3390 JUMP JUMPDEST PUSH1 0x40 MLOAD DUP1 SWAP2 SUB SWAP1 REVERT JUMPDEST PUSH1 0xB SLOAD PUSH1 0x9 SLOAD GT PUSH2 0x1072 JUMPI PUSH1 0x40 MLOAD PUSH32 0x8C379A000000000000000000000000000000000000000000000000000000000 DUP2 MSTORE PUSH1 0x4 ADD PUSH2 0x1069 SWAP1 PUSH2 0x33FC JUMP JUMPDEST PUSH1 0x40 MLOAD DUP1 SWAP2 SUB SWAP1 REVERT JUMPDEST DUP4 PUSH8 0xDE0B6B3A7640000 PUSH2 0x1086 SWAP2 SWAP1 PUSH2 0x2FD2 JUMP JUMPDEST CALLVALUE LT ISZERO PUSH2 0x10C8 JUMPI PUSH1 0x40 MLOAD PUSH32 0x8C379A000000000000000000000000000000000000000000000000000000000 DUP2 MSTORE PUSH1 0x4 ADD PUSH2 0x10BF SWAP1 PUSH2 0x3468 JUMP JUMPDEST PUSH1 0x40 MLOAD DUP1 SWAP2 SUB SWAP1 REVERT JUMPDEST PUSH1 0x0 SWAP2 POP JUMPDEST DUP4 DUP3 LT ISZERO PUSH2 0x1171 JUMPI PUSH1 0x10 PUSH1 0x0 DUP2 SLOAD DUP1 SWAP3 SWAP2 SWAP1 PUSH2 0x10E8 SWAP1 PUSH2 0x3080 JUMP JUMPDEST SWAP2 SWAP1 POP SSTORE POP PUSH2 0x10F9 CALLER PUSH1 0x10 SLOAD PUSH2 0x1DCB JUMP JUMPDEST PUSH1 0x1 PUSH1 0xB PUSH1 0x0 DUP3 DUP3 SLOAD PUSH2 0x110C SWAP2 SWAP1 PUSH2 0x2F9E JUMP JUMPDEST SWAP3 POP POP DUP2 SWAP1 SSTORE POP PUSH2 0x114B PUSH1 0x10 SLOAD PUSH1 0x11 PUSH2 0x1126 PUSH1 0x10 SLOAD PUSH2 0x1A21 JUMP JUMPDEST PUSH1 0x40 MLOAD PUSH1 0x20 ADD PUSH2 0x1137 SWAP3 SWAP2 SWAP1 PUSH2 0x31E8 JUMP JUMPDEST PUSH1 0x40 MLOAD PUSH1 0x20 DUP2 DUP4 SUB SUB DUP2 MSTORE SWAP1 PUSH1 0x40 MSTORE PUSH2 0x1AEF JUMP JUMPDEST PUSH2 0x115E PUSH2 0x1159 PUSH1 0x10 SLOAD PUSH2 0x124D JUMP JUMPDEST PUSH2 0x1FE8 JUMP JUMPDEST DUP2 DUP1 PUSH2 0x1169 SWAP1 PUSH2 0x3080 JUMP JUMPDEST SWAP3 POP POP PUSH2 0x10CD JUMP JUMPDEST POP POP POP POP JUMP JUMPDEST PUSH2 0x1188 PUSH2 0x1182 PUSH2 0x1536 JUMP JUMPDEST DUP4 PUSH2 0x15F7 JUMP JUMPDEST PUSH2 0x11C7 JUMPI PUSH1 0x40 MLOAD PUSH32 0x8C379A000000000000000000000000000000000000000000000000000000000 DUP2 MSTORE PUSH1 0x4 ADD PUSH2 0x11BE SWAP1 PUSH2 0x2DD7 JUMP JUMPDEST PUSH1 0x40 MLOAD DUP1 SWAP2 SUB SWAP1 REVERT JUMPDEST PUSH2 0x11D3 DUP5 DUP5 DUP5 DUP5 PUSH2 0x2081 JUMP JUMPDEST POP POP POP POP JUMP JUMPDEST PUSH2 0x11E1 PUSH2 0x1985 JUMP JUMPDEST PUSH1 0xE PUSH1 0x1 SWAP1 SLOAD SWAP1 PUSH2 0x100 EXP SWAP1 DIV PUSH1 0xFF AND PUSH2 0x1230 JUMPI PUSH1 0x40 MLOAD PUSH32 0x8C379A000000000000000000000000000000000000000000000000000000000 DUP2 MSTORE PUSH1 0x4 ADD PUSH2 0x1227 SWAP1 PUSH2 0x34D4 JUMP JUMPDEST PUSH1 0x40 MLOAD DUP1 SWAP2 SUB SWAP1 REVERT JUMPDEST PUSH1 0x0 PUSH1 0xE PUSH1 0x1 PUSH2 0x100 EXP DUP2 SLOAD DUP2 PUSH1 0xFF MUL NOT AND SWAP1 DUP4 ISZERO ISZERO MUL OR SWAP1 SSTORE POP JUMP JUMPDEST PUSH1 0x60 PUSH2 0x1258 DUP3 PUSH2 0x14EB JUMP JUMPDEST PUSH1 0x0 PUSH1 0x6 PUSH1 0x0 DUP5 DUP2 MSTORE PUSH1 0x20 ADD SWAP1 DUP2 MSTORE PUSH1 0x20 ADD PUSH1 0x0 KECCAK256 DUP1 SLOAD PUSH2 0x1278 SWAP1 PUSH2 0x2C10 JUMP JUMPDEST DUP1 PUSH1 0x1F ADD PUSH1 0x20 DUP1 SWAP2 DIV MUL PUSH1 0x20 ADD PUSH1 0x40 MLOAD SWAP1 DUP2 ADD PUSH1 0x40 MSTORE DUP1 SWAP3 SWAP2 SWAP1 DUP2 DUP2 MSTORE PUSH1 0x20 ADD DUP3 DUP1 SLOAD PUSH2 0x12A4 SWAP1 PUSH2 0x2C10 JUMP JUMPDEST DUP1 ISZERO PUSH2 0x12F1 JUMPI DUP1 PUSH1 0x1F LT PUSH2 0x12C6 JUMPI PUSH2 0x100 DUP1 DUP4 SLOAD DIV MUL DUP4 MSTORE SWAP2 PUSH1 0x20 ADD SWAP2 PUSH2 0x12F1 JUMP JUMPDEST DUP3 ADD SWAP2 SWAP1 PUSH1 0x0 MSTORE PUSH1 0x20 PUSH1 0x0 KECCAK256 SWAP1 JUMPDEST DUP2 SLOAD DUP2 MSTORE SWAP1 PUSH1 0x1 ADD SWAP1 PUSH1 0x20 ADD DUP1 DUP4 GT PUSH2 0x12D4 JUMPI DUP3 SWAP1 SUB PUSH1 0x1F AND DUP3 ADD SWAP2 JUMPDEST POP POP POP POP POP SWAP1 POP PUSH1 0x0 PUSH2 0x1302 PUSH2 0x20DD JUMP JUMPDEST SWAP1 POP PUSH1 0x0 DUP2 MLOAD SUB PUSH2 0x1317 JUMPI DUP2 SWAP3 POP POP POP PUSH2 0x135A JUMP JUMPDEST PUSH1 0x0 DUP3 MLOAD GT ISZERO PUSH2 0x134C JUMPI DUP1 DUP3 PUSH1 0x40 MLOAD PUSH1 0x20 ADD PUSH2 0x1334 SWAP3 SWAP2 SWAP1 PUSH2 0x34F4 JUMP JUMPDEST PUSH1 0x40 MLOAD PUSH1 0x20 DUP2 DUP4 SUB SUB DUP2 MSTORE SWAP1 PUSH1 0x40 MSTORE SWAP3 POP POP POP PUSH2 0x135A JUMP JUMPDEST PUSH2 0x1355 DUP5 PUSH2 0x20F4 JUMP JUMPDEST SWAP3 POP POP POP JUMPDEST SWAP2 SWAP1 POP JUMP JUMPDEST PUSH1 0xB SLOAD DUP2 JUMP JUMPDEST PUSH1 0x0 PUSH1 0x5 PUSH1 0x0 DUP5 PUSH20 0xFFFFFFFFFFFFFFFFFFFFFFFFFFFFFFFFFFFFFFFF AND PUSH20 0xFFFFFFFFFFFFFFFFFFFFFFFFFFFFFFFFFFFFFFFF AND DUP2 MSTORE PUSH1 0x20 ADD SWAP1 DUP2 MSTORE PUSH1 0x20 ADD PUSH1 0x0 KECCAK256 PUSH1 0x0 DUP4 PUSH20 0xFFFFFFFFFFFFFFFFFFFFFFFFFFFFFFFFFFFFFFFF AND PUSH20 0xFFFFFFFFFFFFFFFFFFFFFFFFFFFFFFFFFFFFFFFF AND DUP2 MSTORE PUSH1 0x20 ADD SWAP1 DUP2 MSTORE PUSH1 0x20 ADD PUSH1 0x0 KECCAK256 PUSH1 0x0 SWAP1 SLOAD SWAP1 PUSH2 0x100 EXP SWAP1 DIV PUSH1 0xFF AND SWAP1 POP SWAP3 SWAP2 POP POP JUMP JUMPDEST PUSH2 0x1401 PUSH2 0x1985 JUMP JUMPDEST PUSH1 0x0 PUSH20 0xFFFFFFFFFFFFFFFFFFFFFFFFFFFFFFFFFFFFFFFF AND DUP2 PUSH20 0xFFFFFFFFFFFFFFFFFFFFFFFFFFFFFFFFFFFFFFFF AND SUB PUSH2 0x1470 JUMPI PUSH1 0x40 MLOAD PUSH32 0x8C379A000000000000000000000000000000000000000000000000000000000 DUP2 MSTORE PUSH1 0x4 ADD PUSH2 0x1467 SWAP1 PUSH2 0x358A JUMP JUMPDEST PUSH1 0x40 MLOAD DUP1 SWAP2 SUB SWAP1 REVERT JUMPDEST PUSH2 0x1479 DUP2 PUSH2 0x1B99 JUMP JUMPDEST POP JUMP JUMPDEST PUSH1 0xA DUP2 JUMP JUMPDEST PUSH1 0x0 PUSH32 0x1FFC9A700000000000000000000000000000000000000000000000000000000 PUSH28 0xFFFFFFFFFFFFFFFFFFFFFFFFFFFFFFFFFFFFFFFFFFFFFFFFFFFFFFFF NOT AND DUP3 PUSH28 0xFFFFFFFFFFFFFFFFFFFFFFFFFFFFFFFFFFFFFFFFFFFFFFFFFFFFFFFF NOT AND EQ SWAP1 POP SWAP2 SWAP1 POP JUMP JUMPDEST PUSH2 0x14F4 DUP2 PUSH2 0x215C JUMP JUMPDEST PUSH2 0x1533 JUMPI PUSH1 0x40 MLOAD PUSH32 0x8C379A000000000000000000000000000000000000000000000000000000000 DUP2 MSTORE PUSH1 0x4 ADD PUSH2 0x152A SWAP1 PUSH2 0x3263 JUMP JUMPDEST PUSH1 0x40 MLOAD DUP1 SWAP2 SUB SWAP1 REVERT JUMPDEST POP JUMP JUMPDEST PUSH1 0x0 CALLER SWAP1 POP SWAP1 JUMP JUMPDEST DUP2 PUSH1 0x4 PUSH1 0x0 DUP4 DUP2 MSTORE PUSH1 0x20 ADD SWAP1 DUP2 MSTORE PUSH1 0x20 ADD PUSH1 0x0 KECCAK256 PUSH1 0x0 PUSH2 0x100 EXP DUP2 SLOAD DUP2 PUSH20 0xFFFFFFFFFFFFFFFFFFFFFFFFFFFFFFFFFFFFFFFF MUL NOT AND SWAP1 DUP4 PUSH20 0xFFFFFFFFFFFFFFFFFFFFFFFFFFFFFFFFFFFFFFFF AND MUL OR SWAP1 SSTORE POP DUP1 DUP3 PUSH20 0xFFFFFFFFFFFFFFFFFFFFFFFFFFFFFFFFFFFFFFFF AND PUSH2 0x15B1 DUP4 PUSH2 0xC46 JUMP JUMPDEST PUSH20 0xFFFFFFFFFFFFFFFFFFFFFFFFFFFFFFFFFFFFFFFF AND PUSH32 0x8C5BE1E5EBEC7D5BD14F71427D1E84F3DD0314C0F7B2291E5B200AC8C7C3B925 PUSH1 0x40 MLOAD PUSH1 0x40 MLOAD DUP1 SWAP2 SUB SWAP1 LOG4 POP POP JUMP JUMPDEST PUSH1 0x0 DUP1 PUSH2 0x1603 DUP4 PUSH2 0xC46 JUMP JUMPDEST SWAP1 POP DUP1 PUSH20 0xFFFFFFFFFFFFFFFFFFFFFFFFFFFFFFFFFFFFFFFF AND DUP5 PUSH20 0xFFFFFFFFFFFFFFFFFFFFFFFFFFFFFFFFFFFFFFFF AND EQ DUP1 PUSH2 0x1645 JUMPI POP PUSH2 0x1644 DUP2 DUP6 PUSH2 0x1365 JUMP JUMPDEST JUMPDEST DUP1 PUSH2 0x1683 JUMPI POP DUP4 PUSH20 0xFFFFFFFFFFFFFFFFFFFFFFFFFFFFFFFFFFFFFFFF AND PUSH2 0x166B DUP5 PUSH2 0x7F3 JUMP JUMPDEST PUSH20 0xFFFFFFFFFFFFFFFFFFFFFFFFFFFFFFFFFFFFFFFF AND EQ JUMPDEST SWAP2 POP POP SWAP3 SWAP2 POP POP JUMP JUMPDEST DUP3 PUSH20 0xFFFFFFFFFFFFFFFFFFFFFFFFFFFFFFFFFFFFFFFF AND PUSH2 0x16AC DUP3 PUSH2 0xC46 JUMP JUMPDEST PUSH20 0xFFFFFFFFFFFFFFFFFFFFFFFFFFFFFFFFFFFFFFFF AND EQ PUSH2 0x1702 JUMPI PUSH1 0x40 MLOAD PUSH32 0x8C379A000000000000000000000000000000000000000000000000000000000 DUP2 MSTORE PUSH1 0x4 ADD PUSH2 0x16F9 SWAP1 PUSH2 0x361C JUMP JUMPDEST PUSH1 0x40 MLOAD DUP1 SWAP2 SUB SWAP1 REVERT JUMPDEST PUSH1 0x0 PUSH20 0xFFFFFFFFFFFFFFFFFFFFFFFFFFFFFFFFFFFFFFFF AND DUP3 PUSH20 0xFFFFFFFFFFFFFFFFFFFFFFFFFFFFFFFFFFFFFFFF AND SUB PUSH2 0x1771 JUMPI PUSH1 0x40 MLOAD PUSH32 0x8C379A000000000000000000000000000000000000000000000000000000000 DUP2 MSTORE PUSH1 0x4 ADD PUSH2 0x1768 SWAP1 PUSH2 0x36AE JUMP JUMPDEST PUSH1 0x40 MLOAD DUP1 SWAP2 SUB SWAP1 REVERT JUMPDEST PUSH2 0x177E DUP4 DUP4 DUP4 PUSH1 0x1 PUSH2 0x219D JUMP JUMPDEST DUP3 PUSH20 0xFFFFFFFFFFFFFFFFFFFFFFFFFFFFFFFFFFFFFFFF AND PUSH2 0x179E DUP3 PUSH2 0xC46 JUMP JUMPDEST PUSH20 0xFFFFFFFFFFFFFFFFFFFFFFFFFFFFFFFFFFFFFFFF AND EQ PUSH2 0x17F4 JUMPI PUSH1 0x40 MLOAD PUSH32 0x8C379A000000000000000000000000000000000000000000000000000000000 DUP2 MSTORE PUSH1 0x4 ADD PUSH2 0x17EB SWAP1 PUSH2 0x361C JUMP JUMPDEST PUSH1 0x40 MLOAD DUP1 SWAP2 SUB SWAP1 REVERT JUMPDEST PUSH1 0x4 PUSH1 0x0 DUP3 DUP2 MSTORE PUSH1 0x20 ADD SWAP1 DUP2 MSTORE PUSH1 0x20 ADD PUSH1 0x0 KECCAK256 PUSH1 0x0 PUSH2 0x100 EXP DUP2 SLOAD SWAP1 PUSH20 0xFFFFFFFFFFFFFFFFFFFFFFFFFFFFFFFFFFFFFFFF MUL NOT AND SWAP1 SSTORE PUSH1 0x1 PUSH1 0x3 PUSH1 0x0 DUP6 PUSH20 0xFFFFFFFFFFFFFFFFFFFFFFFFFFFFFFFFFFFFFFFF AND PUSH20 0xFFFFFFFFFFFFFFFFFFFFFFFFFFFFFFFFFFFFFFFF AND DUP2 MSTORE PUSH1 0x20 ADD SWAP1 DUP2 MSTORE PUSH1 0x20 ADD PUSH1 0x0 KECCAK256 PUSH1 0x0 DUP3 DUP3 SLOAD SUB SWAP3 POP POP DUP2 SWAP1 SSTORE POP PUSH1 0x1 PUSH1 0x3 PUSH1 0x0 DUP5 PUSH20 0xFFFFFFFFFFFFFFFFFFFFFFFFFFFFFFFFFFFFFFFF AND PUSH20 0xFFFFFFFFFFFFFFFFFFFFFFFFFFFFFFFFFFFFFFFF AND DUP2 MSTORE PUSH1 0x20 ADD SWAP1 DUP2 MSTORE PUSH1 0x20 ADD PUSH1 0x0 KECCAK256 PUSH1 0x0 DUP3 DUP3 SLOAD ADD SWAP3 POP POP DUP2 SWAP1 SSTORE POP DUP2 PUSH1 0x2 PUSH1 0x0 DUP4 DUP2 MSTORE PUSH1 0x20 ADD SWAP1 DUP2 MSTORE PUSH1 0x20 ADD PUSH1 0x0 KECCAK256 PUSH1 0x0 PUSH2 0x100 EXP DUP2 SLOAD DUP2 PUSH20 0xFFFFFFFFFFFFFFFFFFFFFFFFFFFFFFFFFFFFFFFF MUL NOT AND SWAP1 DUP4 PUSH20 0xFFFFFFFFFFFFFFFFFFFFFFFFFFFFFFFFFFFFFFFF AND MUL OR SWAP1 SSTORE POP DUP1 DUP3 PUSH20 0xFFFFFFFFFFFFFFFFFFFFFFFFFFFFFFFFFFFFFFFF AND DUP5 PUSH20 0xFFFFFFFFFFFFFFFFFFFFFFFFFFFFFFFFFFFFFFFF AND PUSH32 0xDDF252AD1BE2C89B69C2B068FC378DAA952BA7F163C4A11628F55A4DF523B3EF PUSH1 0x40 MLOAD PUSH1 0x40 MLOAD DUP1 SWAP2 SUB SWAP1 LOG4 PUSH2 0x1980 DUP4 DUP4 DUP4 PUSH1 0x1 PUSH2 0x21A3 JUMP JUMPDEST POP POP POP JUMP JUMPDEST PUSH2 0x198D PUSH2 0x1536 JUMP JUMPDEST PUSH20 0xFFFFFFFFFFFFFFFFFFFFFFFFFFFFFFFFFFFFFFFF AND PUSH2 0x19AB PUSH2 0xE0B JUMP JUMPDEST PUSH20 0xFFFFFFFFFFFFFFFFFFFFFFFFFFFFFFFFFFFFFFFF AND EQ PUSH2 0x1A01 JUMPI PUSH1 0x40 MLOAD PUSH32 0x8C379A000000000000000000000000000000000000000000000000000000000 DUP2 MSTORE PUSH1 0x4 ADD PUSH2 0x19F8 SWAP1 PUSH2 0x371A JUMP JUMPDEST PUSH1 0x40 MLOAD DUP1 SWAP2 SUB SWAP1 REVERT JUMPDEST JUMP JUMPDEST PUSH2 0x1A1D DUP3 DUP3 PUSH1 0x40 MLOAD DUP1 PUSH1 0x20 ADD PUSH1 0x40 MSTORE DUP1 PUSH1 0x0 DUP2 MSTORE POP PUSH2 0x21A9 JUMP JUMPDEST POP POP JUMP JUMPDEST PUSH1 0x60 PUSH1 0x0 PUSH1 0x1 PUSH2 0x1A30 DUP5 PUSH2 0x2204 JUMP JUMPDEST ADD SWAP1 POP PUSH1 0x0 DUP2 PUSH8 0xFFFFFFFFFFFFFFFF DUP2 GT ISZERO PUSH2 0x1A4F JUMPI PUSH2 0x1A4E PUSH2 0x285D JUMP JUMPDEST JUMPDEST PUSH1 0x40 MLOAD SWAP1 DUP1 DUP3 MSTORE DUP1 PUSH1 0x1F ADD PUSH1 0x1F NOT AND PUSH1 0x20 ADD DUP3 ADD PUSH1 0x40 MSTORE DUP1 ISZERO PUSH2 0x1A81 JUMPI DUP2 PUSH1 0x20 ADD PUSH1 0x1 DUP3 MUL DUP1 CALLDATASIZE DUP4 CALLDATACOPY DUP1 DUP3 ADD SWAP2 POP POP SWAP1 POP JUMPDEST POP SWAP1 POP PUSH1 0x0 DUP3 PUSH1 0x20 ADD DUP3 ADD SWAP1 POP JUMPDEST PUSH1 0x1 ISZERO PUSH2 0x1AE4 JUMPI DUP1 DUP1 PUSH1 0x1 SWAP1 SUB SWAP2 POP POP PUSH32 0x3031323334353637383961626364656600000000000000000000000000000000 PUSH1 0xA DUP7 MOD BYTE DUP2 MSTORE8 PUSH1 0xA DUP6 DUP2 PUSH2 0x1AD8 JUMPI PUSH2 0x1AD7 PUSH2 0x373A JUMP JUMPDEST JUMPDEST DIV SWAP5 POP PUSH1 0x0 DUP6 SUB PUSH2 0x1A8F JUMPI JUMPDEST DUP2 SWAP4 POP POP POP POP SWAP2 SWAP1 POP JUMP JUMPDEST PUSH2 0x1AF8 DUP3 PUSH2 0x215C JUMP JUMPDEST PUSH2 0x1B37 JUMPI PUSH1 0x40 MLOAD PUSH32 0x8C379A000000000000000000000000000000000000000000000000000000000 DUP2 MSTORE PUSH1 0x4 ADD PUSH2 0x1B2E SWAP1 PUSH2 0x37DB JUMP JUMPDEST PUSH1 0x40 MLOAD DUP1 SWAP2 SUB SWAP1 REVERT JUMPDEST DUP1 PUSH1 0x6 PUSH1 0x0 DUP5 DUP2 MSTORE PUSH1 0x20 ADD SWAP1 DUP2 MSTORE PUSH1 0x20 ADD PUSH1 0x0 KECCAK256 SWAP1 DUP2 PUSH2 0x1B57 SWAP2 SWAP1 PUSH2 0x3992 JUMP JUMPDEST POP POP POP JUMP JUMPDEST PUSH1 0x0 PUSH1 0x2 PUSH1 0x0 DUP4 DUP2 MSTORE PUSH1 0x20 ADD SWAP1 DUP2 MSTORE PUSH1 0x20 ADD PUSH1 0x0 KECCAK256 PUSH1 0x0 SWAP1 SLOAD SWAP1 PUSH2 0x100 EXP SWAP1 DIV PUSH20 0xFFFFFFFFFFFFFFFFFFFFFFFFFFFFFFFFFFFFFFFF AND SWAP1 POP SWAP2 SWAP1 POP JUMP JUMPDEST PUSH1 0x0 PUSH1 0x7 PUSH1 0x0 SWAP1 SLOAD SWAP1 PUSH2 0x100 EXP SWAP1 DIV PUSH20 0xFFFFFFFFFFFFFFFFFFFFFFFFFFFFFFFFFFFFFFFF AND SWAP1 POP DUP2 PUSH1 0x7 PUSH1 0x0 PUSH2 0x100 EXP DUP2 SLOAD DUP2 PUSH20 0xFFFFFFFFFFFFFFFFFFFFFFFFFFFFFFFFFFFFFFFF MUL NOT AND SWAP1 DUP4 PUSH20 0xFFFFFFFFFFFFFFFFFFFFFFFFFFFFFFFFFFFFFFFF AND MUL OR SWAP1 SSTORE POP DUP2 PUSH20 0xFFFFFFFFFFFFFFFFFFFFFFFFFFFFFFFFFFFFFFFF AND DUP2 PUSH20 0xFFFFFFFFFFFFFFFFFFFFFFFFFFFFFFFFFFFFFFFF AND PUSH32 0x8BE0079C531659141344CD1FD0A4F28419497F9722A3DAAFE3B4186F6B6457E0 PUSH1 0x40 MLOAD PUSH1 0x40 MLOAD DUP1 SWAP2 SUB SWAP1 LOG3 POP POP JUMP JUMPDEST DUP2 PUSH20 0xFFFFFFFFFFFFFFFFFFFFFFFFFFFFFFFFFFFFFFFF AND DUP4 PUSH20 0xFFFFFFFFFFFFFFFFFFFFFFFFFFFFFFFFFFFFFFFF AND SUB PUSH2 0x1CCD JUMPI PUSH1 0x40 MLOAD PUSH32 0x8C379A000000000000000000000000000000000000000000000000000000000 DUP2 MSTORE PUSH1 0x4 ADD PUSH2 0x1CC4 SWAP1 PUSH2 0x3AB0 JUMP JUMPDEST PUSH1 0x40 MLOAD DUP1 SWAP2 SUB SWAP1 REVERT JUMPDEST DUP1 PUSH1 0x5 PUSH1 0x0 DUP6 PUSH20 0xFFFFFFFFFFFFFFFFFFFFFFFFFFFFFFFFFFFFFFFF AND PUSH20 0xFFFFFFFFFFFFFFFFFFFFFFFFFFFFFFFFFFFFFFFF AND DUP2 MSTORE PUSH1 0x20 ADD SWAP1 DUP2 MSTORE PUSH1 0x20 ADD PUSH1 0x0 KECCAK256 PUSH1 0x0 DUP5 PUSH20 0xFFFFFFFFFFFFFFFFFFFFFFFFFFFFFFFFFFFFFFFF AND PUSH20 0xFFFFFFFFFFFFFFFFFFFFFFFFFFFFFFFFFFFFFFFF AND DUP2 MSTORE PUSH1 0x20 ADD SWAP1 DUP2 MSTORE PUSH1 0x20 ADD PUSH1 0x0 KECCAK256 PUSH1 0x0 PUSH2 0x100 EXP DUP2 SLOAD DUP2 PUSH1 0xFF MUL NOT AND SWAP1 DUP4 ISZERO ISZERO MUL OR SWAP1 SSTORE POP DUP2 PUSH20 0xFFFFFFFFFFFFFFFFFFFFFFFFFFFFFFFFFFFFFFFF AND DUP4 PUSH20 0xFFFFFFFFFFFFFFFFFFFFFFFFFFFFFFFFFFFFFFFF AND PUSH32 0x17307EAB39AB6107E8899845AD3D59BD9653F200F220920489CA2B5937696C31 DUP4 PUSH1 0x40 MLOAD PUSH2 0x1DBE SWAP2 SWAP1 PUSH2 0x25DE JUMP JUMPDEST PUSH1 0x40 MLOAD DUP1 SWAP2 SUB SWAP1 LOG3 POP POP POP JUMP JUMPDEST PUSH1 0x0 PUSH20 0xFFFFFFFFFFFFFFFFFFFFFFFFFFFFFFFFFFFFFFFF AND DUP3 PUSH20 0xFFFFFFFFFFFFFFFFFFFFFFFFFFFFFFFFFFFFFFFF AND SUB PUSH2 0x1E3A JUMPI PUSH1 0x40 MLOAD PUSH32 0x8C379A000000000000000000000000000000000000000000000000000000000 DUP2 MSTORE PUSH1 0x4 ADD PUSH2 0x1E31 SWAP1 PUSH2 0x3B1C JUMP JUMPDEST PUSH1 0x40 MLOAD DUP1 SWAP2 SUB SWAP1 REVERT JUMPDEST PUSH2 0x1E43 DUP2 PUSH2 0x215C JUMP JUMPDEST ISZERO PUSH2 0x1E83 JUMPI PUSH1 0x40 MLOAD PUSH32 0x8C379A000000000000000000000000000000000000000000000000000000000 DUP2 MSTORE PUSH1 0x4 ADD PUSH2 0x1E7A SWAP1 PUSH2 0x3B88 JUMP JUMPDEST PUSH1 0x40 MLOAD DUP1 SWAP2 SUB SWAP1 REVERT JUMPDEST PUSH2 0x1E91 PUSH1 0x0 DUP4 DUP4 PUSH1 0x1 PUSH2 0x219D JUMP JUMPDEST PUSH2 0x1E9A DUP2 PUSH2 0x215C JUMP JUMPDEST ISZERO PUSH2 0x1EDA JUMPI PUSH1 0x40 MLOAD PUSH32 0x8C379A000000000000000000000000000000000000000000000000000000000 DUP2 MSTORE PUSH1 0x4 ADD PUSH2 0x1ED1 SWAP1 PUSH2 0x3B88 JUMP JUMPDEST PUSH1 0x40 MLOAD DUP1 SWAP2 SUB SWAP1 REVERT JUMPDEST PUSH1 0x1 PUSH1 0x3 PUSH1 0x0 DUP5 PUSH20 0xFFFFFFFFFFFFFFFFFFFFFFFFFFFFFFFFFFFFFFFF AND PUSH20 0xFFFFFFFFFFFFFFFFFFFFFFFFFFFFFFFFFFFFFFFF AND DUP2 MSTORE PUSH1 0x20 ADD SWAP1 DUP2 MSTORE PUSH1 0x20 ADD PUSH1 0x0 KECCAK256 PUSH1 0x0 DUP3 DUP3 SLOAD ADD SWAP3 POP POP DUP2 SWAP1 SSTORE POP DUP2 PUSH1 0x2 PUSH1 0x0 DUP4 DUP2 MSTORE PUSH1 0x20 ADD SWAP1 DUP2 MSTORE PUSH1 0x20 ADD PUSH1 0x0 KECCAK256 PUSH1 0x0 PUSH2 0x100 EXP DUP2 SLOAD DUP2 PUSH20 0xFFFFFFFFFFFFFFFFFFFFFFFFFFFFFFFFFFFFFFFF MUL NOT AND SWAP1 DUP4 PUSH20 0xFFFFFFFFFFFFFFFFFFFFFFFFFFFFFFFFFFFFFFFF AND MUL OR SWAP1 SSTORE POP DUP1 DUP3 PUSH20 0xFFFFFFFFFFFFFFFFFFFFFFFFFFFFFFFFFFFFFFFF AND PUSH1 0x0 PUSH20 0xFFFFFFFFFFFFFFFFFFFFFFFFFFFFFFFFFFFFFFFF AND PUSH32 0xDDF252AD1BE2C89B69C2B068FC378DAA952BA7F163C4A11628F55A4DF523B3EF PUSH1 0x40 MLOAD PUSH1 0x40 MLOAD DUP1 SWAP2 SUB SWAP1 LOG4 PUSH2 0x1FE4 PUSH1 0x0 DUP4 DUP4 PUSH1 0x1 PUSH2 0x21A3 JUMP JUMPDEST POP POP JUMP JUMPDEST PUSH2 0x207E DUP2 PUSH1 0x40 MLOAD PUSH1 0x24 ADD PUSH2 0x1FFC SWAP2 SWAP1 PUSH2 0x2689 JUMP JUMPDEST PUSH1 0x40 MLOAD PUSH1 0x20 DUP2 DUP4 SUB SUB DUP2 MSTORE SWAP1 PUSH1 0x40 MSTORE PUSH32 0x41304FAC00000000000000000000000000000000000000000000000000000000 PUSH28 0xFFFFFFFFFFFFFFFFFFFFFFFFFFFFFFFFFFFFFFFFFFFFFFFFFFFFFFFF NOT AND PUSH1 0x20 DUP3 ADD DUP1 MLOAD PUSH28 0xFFFFFFFFFFFFFFFFFFFFFFFFFFFFFFFFFFFFFFFFFFFFFFFFFFFFFFFF DUP4 DUP2 DUP4 AND OR DUP4 MSTORE POP POP POP POP PUSH2 0x2357 JUMP JUMPDEST POP JUMP JUMPDEST PUSH2 0x208C DUP5 DUP5 DUP5 PUSH2 0x168C JUMP JUMPDEST PUSH2 0x2098 DUP5 DUP5 DUP5 DUP5 PUSH2 0x2380 JUMP JUMPDEST PUSH2 0x20D7 JUMPI PUSH1 0x40 MLOAD PUSH32 0x8C379A000000000000000000000000000000000000000000000000000000000 DUP2 MSTORE PUSH1 0x4 ADD PUSH2 0x20CE SWAP1 PUSH2 0x3C1A JUMP JUMPDEST PUSH1 0x40 MLOAD DUP1 SWAP2 SUB SWAP1 REVERT JUMPDEST POP POP POP POP JUMP JUMPDEST PUSH1 0x60 PUSH1 0x40 MLOAD DUP1 PUSH1 0x20 ADD PUSH1 0x40 MSTORE DUP1 PUSH1 0x0 DUP2 MSTORE POP SWAP1 POP SWAP1 JUMP JUMPDEST PUSH1 0x60 PUSH2 0x20FF DUP3 PUSH2 0x14EB JUMP JUMPDEST PUSH1 0x0 PUSH2 0x2109 PUSH2 0x20DD JUMP JUMPDEST SWAP1 POP PUSH1 0x0 DUP2 MLOAD GT PUSH2 0x2129 JUMPI PUSH1 0x40 MLOAD DUP1 PUSH1 0x20 ADD PUSH1 0x40 MSTORE DUP1 PUSH1 0x0 DUP2 MSTORE POP PUSH2 0x2154 JUMP JUMPDEST DUP1 PUSH2 0x2133 DUP5 PUSH2 0x1A21 JUMP JUMPDEST PUSH1 0x40 MLOAD PUSH1 0x20 ADD PUSH2 0x2144 SWAP3 SWAP2 SWAP1 PUSH2 0x34F4 JUMP JUMPDEST PUSH1 0x40 MLOAD PUSH1 0x20 DUP2 DUP4 SUB SUB DUP2 MSTORE SWAP1 PUSH1 0x40 MSTORE JUMPDEST SWAP2 POP POP SWAP2 SWAP1 POP JUMP JUMPDEST PUSH1 0x0 DUP1 PUSH20 0xFFFFFFFFFFFFFFFFFFFFFFFFFFFFFFFFFFFFFFFF AND PUSH2 0x217E DUP4 PUSH2 0x1B5C JUMP JUMPDEST PUSH20 0xFFFFFFFFFFFFFFFFFFFFFFFFFFFFFFFFFFFFFFFF AND EQ ISZERO SWAP1 POP SWAP2 SWAP1 POP JUMP JUMPDEST POP POP POP POP JUMP JUMPDEST POP POP POP POP JUMP JUMPDEST PUSH2 0x21B3 DUP4 DUP4 PUSH2 0x1DCB JUMP JUMPDEST PUSH2 0x21C0 PUSH1 0x0 DUP5 DUP5 DUP5 PUSH2 0x2380 JUMP JUMPDEST PUSH2 0x21FF JUMPI PUSH1 0x40 MLOAD PUSH32 0x8C379A000000000000000000000000000000000000000000000000000000000 DUP2 MSTORE PUSH1 0x4 ADD PUSH2 0x21F6 SWAP1 PUSH2 0x3C1A JUMP JUMPDEST PUSH1 0x40 MLOAD DUP1 SWAP2 SUB SWAP1 REVERT JUMPDEST POP POP POP JUMP JUMPDEST PUSH1 0x0 DUP1 PUSH1 0x0 SWAP1 POP PUSH27 0x184F03E93FF9F4DAA797ED6E38ED64BF6A1F010000000000000000 DUP4 LT PUSH2 0x2262 JUMPI PUSH27 0x184F03E93FF9F4DAA797ED6E38ED64BF6A1F010000000000000000 DUP4 DUP2 PUSH2 0x2258 JUMPI PUSH2 0x2257 PUSH2 0x373A JUMP JUMPDEST JUMPDEST DIV SWAP3 POP PUSH1 0x40 DUP2 ADD SWAP1 POP JUMPDEST PUSH14 0x4EE2D6D415B85ACEF8100000000 DUP4 LT PUSH2 0x229F JUMPI PUSH14 0x4EE2D6D415B85ACEF8100000000 DUP4 DUP2 PUSH2 0x2295 JUMPI PUSH2 0x2294 PUSH2 0x373A JUMP JUMPDEST JUMPDEST DIV SWAP3 POP PUSH1 0x20 DUP2 ADD SWAP1 POP JUMPDEST PUSH7 0x2386F26FC10000 DUP4 LT PUSH2 0x22CE JUMPI PUSH7 0x2386F26FC10000 DUP4 DUP2 PUSH2 0x22C4 JUMPI PUSH2 0x22C3 PUSH2 0x373A JUMP JUMPDEST JUMPDEST DIV SWAP3 POP PUSH1 0x10 DUP2 ADD SWAP1 POP JUMPDEST PUSH4 0x5F5E100 DUP4 LT PUSH2 0x22F7 JUMPI PUSH4 0x5F5E100 DUP4 DUP2 PUSH2 0x22ED JUMPI PUSH2 0x22EC PUSH2 0x373A JUMP JUMPDEST JUMPDEST DIV SWAP3 POP PUSH1 0x8 DUP2 ADD SWAP1 POP JUMPDEST PUSH2 0x2710 DUP4 LT PUSH2 0x231C JUMPI PUSH2 0x2710 DUP4 DUP2 PUSH2 0x2312 JUMPI PUSH2 0x2311 PUSH2 0x373A JUMP JUMPDEST JUMPDEST DIV SWAP3 POP PUSH1 0x4 DUP2 ADD SWAP1 POP JUMPDEST PUSH1 0x64 DUP4 LT PUSH2 0x233F JUMPI PUSH1 0x64 DUP4 DUP2 PUSH2 0x2335 JUMPI PUSH2 0x2334 PUSH2 0x373A JUMP JUMPDEST JUMPDEST DIV SWAP3 POP PUSH1 0x2 DUP2 ADD SWAP1 POP JUMPDEST PUSH1 0xA DUP4 LT PUSH2 0x234E JUMPI PUSH1 0x1 DUP2 ADD SWAP1 POP JUMPDEST DUP1 SWAP2 POP POP SWAP2 SWAP1 POP JUMP JUMPDEST PUSH1 0x0 DUP2 MLOAD SWAP1 POP PUSH1 0x0 PUSH11 0x636F6E736F6C652E6C6F67 SWAP1 POP PUSH1 0x20 DUP4 ADD PUSH1 0x0 DUP1 DUP5 DUP4 DUP6 GAS STATICCALL POP POP POP POP POP JUMP JUMPDEST PUSH1 0x0 PUSH2 0x23A1 DUP5 PUSH20 0xFFFFFFFFFFFFFFFFFFFFFFFFFFFFFFFFFFFFFFFF AND PUSH2 0x2507 JUMP JUMPDEST ISZERO PUSH2 0x24FA JUMPI DUP4 PUSH20 0xFFFFFFFFFFFFFFFFFFFFFFFFFFFFFFFFFFFFFFFF AND PUSH4 0x150B7A02 PUSH2 0x23CA PUSH2 0x1536 JUMP JUMPDEST DUP8 DUP7 DUP7 PUSH1 0x40 MLOAD DUP6 PUSH4 0xFFFFFFFF AND PUSH1 0xE0 SHL DUP2 MSTORE PUSH1 0x4 ADD PUSH2 0x23EC SWAP5 SWAP4 SWAP3 SWAP2 SWAP1 PUSH2 0x3C8F JUMP JUMPDEST PUSH1 0x20 PUSH1 0x40 MLOAD DUP1 DUP4 SUB DUP2 PUSH1 0x0 DUP8 GAS CALL SWAP3 POP POP POP DUP1 ISZERO PUSH2 0x2428 JUMPI POP PUSH1 0x40 MLOAD RETURNDATASIZE PUSH1 0x1F NOT PUSH1 0x1F DUP3 ADD AND DUP3 ADD DUP1 PUSH1 0x40 MSTORE POP DUP2 ADD SWAP1 PUSH2 0x2425 SWAP2 SWAP1 PUSH2 0x3CF0 JUMP JUMPDEST PUSH1 0x1 JUMPDEST PUSH2 0x24AA JUMPI RETURNDATASIZE DUP1 PUSH1 0x0 DUP2 EQ PUSH2 0x2458 JUMPI PUSH1 0x40 MLOAD SWAP2 POP PUSH1 0x1F NOT PUSH1 0x3F RETURNDATASIZE ADD AND DUP3 ADD PUSH1 0x40 MSTORE RETURNDATASIZE DUP3 MSTORE RETURNDATASIZE PUSH1 0x0 PUSH1 0x20 DUP5 ADD RETURNDATACOPY PUSH2 0x245D JUMP JUMPDEST PUSH1 0x60 SWAP2 POP JUMPDEST POP PUSH1 0x0 DUP2 MLOAD SUB PUSH2 0x24A2 JUMPI PUSH1 0x40 MLOAD PUSH32 0x8C379A000000000000000000000000000000000000000000000000000000000 DUP2 MSTORE PUSH1 0x4 ADD PUSH2 0x2499 SWAP1 PUSH2 0x3C1A JUMP JUMPDEST PUSH1 0x40 MLOAD DUP1 SWAP2 SUB SWAP1 REVERT JUMPDEST DUP1 MLOAD DUP2 PUSH1 0x20 ADD REVERT JUMPDEST PUSH4 0x150B7A02 PUSH1 0xE0 SHL PUSH28 0xFFFFFFFFFFFFFFFFFFFFFFFFFFFFFFFFFFFFFFFFFFFFFFFFFFFFFFFF NOT AND DUP2 PUSH28 0xFFFFFFFFFFFFFFFFFFFFFFFFFFFFFFFFFFFFFFFFFFFFFFFFFFFFFFFF NOT AND EQ SWAP2 POP POP PUSH2 0x24FF JUMP JUMPDEST PUSH1 0x1 SWAP1 POP JUMPDEST SWAP5 SWAP4 POP POP POP POP JUMP JUMPDEST PUSH1 0x0 DUP1 DUP3 PUSH20 0xFFFFFFFFFFFFFFFFFFFFFFFFFFFFFFFFFFFFFFFF AND EXTCODESIZE GT SWAP1 POP SWAP2 SWAP1 POP JUMP JUMPDEST PUSH1 0x0 PUSH1 0x40 MLOAD SWAP1 POP SWAP1 JUMP JUMPDEST PUSH1 0x0 DUP1 REVERT JUMPDEST PUSH1 0x0 DUP1 REVERT JUMPDEST PUSH1 0x0 PUSH32 0xFFFFFFFF00000000000000000000000000000000000000000000000000000000 DUP3 AND SWAP1 POP SWAP2 SWAP1 POP JUMP JUMPDEST PUSH2 0x2573 DUP2 PUSH2 0x253E JUMP JUMPDEST DUP2 EQ PUSH2 0x257E JUMPI PUSH1 0x0 DUP1 REVERT JUMPDEST POP JUMP JUMPDEST PUSH1 0x0 DUP2 CALLDATALOAD SWAP1 POP PUSH2 0x2590 DUP2 PUSH2 0x256A JUMP JUMPDEST SWAP3 SWAP2 POP POP JUMP JUMPDEST PUSH1 0x0 PUSH1 0x20 DUP3 DUP5 SUB SLT ISZERO PUSH2 0x25AC JUMPI PUSH2 0x25AB PUSH2 0x2534 JUMP JUMPDEST JUMPDEST PUSH1 0x0 PUSH2 0x25BA DUP5 DUP3 DUP6 ADD PUSH2 0x2581 JUMP JUMPDEST SWAP2 POP POP SWAP3 SWAP2 POP POP JUMP JUMPDEST PUSH1 0x0 DUP2 ISZERO ISZERO SWAP1 POP SWAP2 SWAP1 POP JUMP JUMPDEST PUSH2 0x25D8 DUP2 PUSH2 0x25C3 JUMP JUMPDEST DUP3 MSTORE POP POP JUMP JUMPDEST PUSH1 0x0 PUSH1 0x20 DUP3 ADD SWAP1 POP PUSH2 0x25F3 PUSH1 0x0 DUP4 ADD DUP5 PUSH2 0x25CF JUMP JUMPDEST SWAP3 SWAP2 POP POP JUMP JUMPDEST PUSH1 0x0 DUP2 MLOAD SWAP1 POP SWAP2 SWAP1 POP JUMP JUMPDEST PUSH1 0x0 DUP3 DUP3 MSTORE PUSH1 0x20 DUP3 ADD SWAP1 POP SWAP3 SWAP2 POP POP JUMP JUMPDEST PUSH1 0x0 JUMPDEST DUP4 DUP2 LT ISZERO PUSH2 0x2633 JUMPI DUP1 DUP3 ADD MLOAD DUP2 DUP5 ADD MSTORE PUSH1 0x20 DUP2 ADD SWAP1 POP PUSH2 0x2618 JUMP JUMPDEST PUSH1 0x0 DUP5 DUP5 ADD MSTORE POP POP POP POP JUMP JUMPDEST PUSH1 0x0 PUSH1 0x1F NOT PUSH1 0x1F DUP4 ADD AND SWAP1 POP SWAP2 SWAP1 POP JUMP JUMPDEST PUSH1 0x0 PUSH2 0x265B DUP3 PUSH2 0x25F9 JUMP JUMPDEST PUSH2 0x2665 DUP2 DUP6 PUSH2 0x2604 JUMP JUMPDEST SWAP4 POP PUSH2 0x2675 DUP2 DUP6 PUSH1 0x20 DUP7 ADD PUSH2 0x2615 JUMP JUMPDEST PUSH2 0x267E DUP2 PUSH2 0x263F JUMP JUMPDEST DUP5 ADD SWAP2 POP POP SWAP3 SWAP2 POP POP JUMP JUMPDEST PUSH1 0x0 PUSH1 0x20 DUP3 ADD SWAP1 POP DUP2 DUP2 SUB PUSH1 0x0 DUP4 ADD MSTORE PUSH2 0x26A3 DUP2 DUP5 PUSH2 0x2650 JUMP JUMPDEST SWAP1 POP SWAP3 SWAP2 POP POP JUMP JUMPDEST PUSH1 0x0 DUP2 SWAP1 POP SWAP2 SWAP1 POP JUMP JUMPDEST PUSH2 0x26BE DUP2 PUSH2 0x26AB JUMP JUMPDEST DUP2 EQ PUSH2 0x26C9 JUMPI PUSH1 0x0 DUP1 REVERT JUMPDEST POP JUMP JUMPDEST PUSH1 0x0 DUP2 CALLDATALOAD SWAP1 POP PUSH2 0x26DB DUP2 PUSH2 0x26B5 JUMP JUMPDEST SWAP3 SWAP2 POP POP JUMP JUMPDEST PUSH1 0x0 PUSH1 0x20 DUP3 DUP5 SUB SLT ISZERO PUSH2 0x26F7 JUMPI PUSH2 0x26F6 PUSH2 0x2534 JUMP JUMPDEST JUMPDEST PUSH1 0x0 PUSH2 0x2705 DUP5 DUP3 DUP6 ADD PUSH2 0x26CC JUMP JUMPDEST SWAP2 POP POP SWAP3 SWAP2 POP POP JUMP JUMPDEST PUSH1 0x0 PUSH20 0xFFFFFFFFFFFFFFFFFFFFFFFFFFFFFFFFFFFFFFFF DUP3 AND SWAP1 POP SWAP2 SWAP1 POP JUMP JUMPDEST PUSH1 0x0 PUSH2 0x2739 DUP3 PUSH2 0x270E JUMP JUMPDEST SWAP1 POP SWAP2 SWAP1 POP JUMP JUMPDEST PUSH2 0x2749 DUP2 PUSH2 0x272E JUMP JUMPDEST DUP3 MSTORE POP POP JUMP JUMPDEST PUSH1 0x0 PUSH1 0x20 DUP3 ADD SWAP1 POP PUSH2 0x2764 PUSH1 0x0 DUP4 ADD DUP5 PUSH2 0x2740 JUMP JUMPDEST SWAP3 SWAP2 POP POP JUMP JUMPDEST PUSH2 0x2773 DUP2 PUSH2 0x272E JUMP JUMPDEST DUP2 EQ PUSH2 0x277E JUMPI PUSH1 0x0 DUP1 REVERT JUMPDEST POP JUMP JUMPDEST PUSH1 0x0 DUP2 CALLDATALOAD SWAP1 POP PUSH2 0x2790 DUP2 PUSH2 0x276A JUMP JUMPDEST SWAP3 SWAP2 POP POP JUMP JUMPDEST PUSH1 0x0 DUP1 PUSH1 0x40 DUP4 DUP6 SUB SLT ISZERO PUSH2 0x27AD JUMPI PUSH2 0x27AC PUSH2 0x2534 JUMP JUMPDEST JUMPDEST PUSH1 0x0 PUSH2 0x27BB DUP6 DUP3 DUP7 ADD PUSH2 0x2781 JUMP JUMPDEST SWAP3 POP POP PUSH1 0x20 PUSH2 0x27CC DUP6 DUP3 DUP7 ADD PUSH2 0x26CC JUMP JUMPDEST SWAP2 POP POP SWAP3 POP SWAP3 SWAP1 POP JUMP JUMPDEST PUSH1 0x0 DUP1 PUSH1 0x0 PUSH1 0x60 DUP5 DUP7 SUB SLT ISZERO PUSH2 0x27EF JUMPI PUSH2 0x27EE PUSH2 0x2534 JUMP JUMPDEST JUMPDEST PUSH1 0x0 PUSH2 0x27FD DUP7 DUP3 DUP8 ADD PUSH2 0x2781 JUMP JUMPDEST SWAP4 POP POP PUSH1 0x20 PUSH2 0x280E DUP7 DUP3 DUP8 ADD PUSH2 0x2781 JUMP JUMPDEST SWAP3 POP POP PUSH1 0x40 PUSH2 0x281F DUP7 DUP3 DUP8 ADD PUSH2 0x26CC JUMP JUMPDEST SWAP2 POP POP SWAP3 POP SWAP3 POP SWAP3 JUMP JUMPDEST PUSH2 0x2832 DUP2 PUSH2 0x26AB JUMP JUMPDEST DUP3 MSTORE POP POP JUMP JUMPDEST PUSH1 0x0 PUSH1 0x20 DUP3 ADD SWAP1 POP PUSH2 0x284D PUSH1 0x0 DUP4 ADD DUP5 PUSH2 0x2829 JUMP JUMPDEST SWAP3 SWAP2 POP POP JUMP JUMPDEST PUSH1 0x0 DUP1 REVERT JUMPDEST PUSH1 0x0 DUP1 REVERT JUMPDEST PUSH32 0x4E487B7100000000000000000000000000000000000000000000000000000000 PUSH1 0x0 MSTORE PUSH1 0x41 PUSH1 0x4 MSTORE PUSH1 0x24 PUSH1 0x0 REVERT JUMPDEST PUSH2 0x2895 DUP3 PUSH2 0x263F JUMP JUMPDEST DUP2 ADD DUP2 DUP2 LT PUSH8 0xFFFFFFFFFFFFFFFF DUP3 GT OR ISZERO PUSH2 0x28B4 JUMPI PUSH2 0x28B3 PUSH2 0x285D JUMP JUMPDEST JUMPDEST DUP1 PUSH1 0x40 MSTORE POP POP POP JUMP JUMPDEST PUSH1 0x0 PUSH2 0x28C7 PUSH2 0x252A JUMP JUMPDEST SWAP1 POP PUSH2 0x28D3 DUP3 DUP3 PUSH2 0x288C JUMP JUMPDEST SWAP2 SWAP1 POP JUMP JUMPDEST PUSH1 0x0 PUSH8 0xFFFFFFFFFFFFFFFF DUP3 GT ISZERO PUSH2 0x28F3 JUMPI PUSH2 0x28F2 PUSH2 0x285D JUMP JUMPDEST JUMPDEST PUSH2 0x28FC DUP3 PUSH2 0x263F JUMP JUMPDEST SWAP1 POP PUSH1 0x20 DUP2 ADD SWAP1 POP SWAP2 SWAP1 POP JUMP JUMPDEST DUP3 DUP2 DUP4 CALLDATACOPY PUSH1 0x0 DUP4 DUP4 ADD MSTORE POP POP POP JUMP JUMPDEST PUSH1 0x0 PUSH2 0x292B PUSH2 0x2926 DUP5 PUSH2 0x28D8 JUMP JUMPDEST PUSH2 0x28BD JUMP JUMPDEST SWAP1 POP DUP3 DUP2 MSTORE PUSH1 0x20 DUP2 ADD DUP5 DUP5 DUP5 ADD GT ISZERO PUSH2 0x2947 JUMPI PUSH2 0x2946 PUSH2 0x2858 JUMP JUMPDEST JUMPDEST PUSH2 0x2952 DUP5 DUP3 DUP6 PUSH2 0x2909 JUMP JUMPDEST POP SWAP4 SWAP3 POP POP POP JUMP JUMPDEST PUSH1 0x0 DUP3 PUSH1 0x1F DUP4 ADD SLT PUSH2 0x296F JUMPI PUSH2 0x296E PUSH2 0x2853 JUMP JUMPDEST JUMPDEST DUP2 CALLDATALOAD PUSH2 0x297F DUP5 DUP3 PUSH1 0x20 DUP7 ADD PUSH2 0x2918 JUMP JUMPDEST SWAP2 POP POP SWAP3 SWAP2 POP POP JUMP JUMPDEST PUSH1 0x0 DUP1 PUSH1 0x40 DUP4 DUP6 SUB SLT ISZERO PUSH2 0x299F JUMPI PUSH2 0x299E PUSH2 0x2534 JUMP JUMPDEST JUMPDEST PUSH1 0x0 PUSH2 0x29AD DUP6 DUP3 DUP7 ADD PUSH2 0x26CC JUMP JUMPDEST SWAP3 POP POP PUSH1 0x20 DUP4 ADD CALLDATALOAD PUSH8 0xFFFFFFFFFFFFFFFF DUP2 GT ISZERO PUSH2 0x29CE JUMPI PUSH2 0x29CD PUSH2 0x2539 JUMP JUMPDEST JUMPDEST PUSH2 0x29DA DUP6 DUP3 DUP7 ADD PUSH2 0x295A JUMP JUMPDEST SWAP2 POP POP SWAP3 POP SWAP3 SWAP1 POP JUMP JUMPDEST PUSH1 0x0 PUSH1 0x20 DUP3 DUP5 SUB SLT ISZERO PUSH2 0x29FA JUMPI PUSH2 0x29F9 PUSH2 0x2534 JUMP JUMPDEST JUMPDEST PUSH1 0x0 PUSH2 0x2A08 DUP5 DUP3 DUP6 ADD PUSH2 0x2781 JUMP JUMPDEST SWAP2 POP POP SWAP3 SWAP2 POP POP JUMP JUMPDEST PUSH2 0x2A1A DUP2 PUSH2 0x25C3 JUMP JUMPDEST DUP2 EQ PUSH2 0x2A25 JUMPI PUSH1 0x0 DUP1 REVERT JUMPDEST POP JUMP JUMPDEST PUSH1 0x0 DUP2 CALLDATALOAD SWAP1 POP PUSH2 0x2A37 DUP2 PUSH2 0x2A11 JUMP JUMPDEST SWAP3 SWAP2 POP POP JUMP JUMPDEST PUSH1 0x0 DUP1 PUSH1 0x40 DUP4 DUP6 SUB SLT ISZERO PUSH2 0x2A54 JUMPI PUSH2 0x2A53 PUSH2 0x2534 JUMP JUMPDEST JUMPDEST PUSH1 0x0 PUSH2 0x2A62 DUP6 DUP3 DUP7 ADD PUSH2 0x2781 JUMP JUMPDEST SWAP3 POP POP PUSH1 0x20 PUSH2 0x2A73 DUP6 DUP3 DUP7 ADD PUSH2 0x2A28 JUMP JUMPDEST SWAP2 POP POP SWAP3 POP SWAP3 SWAP1 POP JUMP JUMPDEST PUSH1 0x0 PUSH8 0xFFFFFFFFFFFFFFFF DUP3 GT ISZERO PUSH2 0x2A98 JUMPI PUSH2 0x2A97 PUSH2 0x285D JUMP JUMPDEST JUMPDEST PUSH2 0x2AA1 DUP3 PUSH2 0x263F JUMP JUMPDEST SWAP1 POP PUSH1 0x20 DUP2 ADD SWAP1 POP SWAP2 SWAP1 POP JUMP JUMPDEST PUSH1 0x0 PUSH2 0x2AC1 PUSH2 0x2ABC DUP5 PUSH2 0x2A7D JUMP JUMPDEST PUSH2 0x28BD JUMP JUMPDEST SWAP1 POP DUP3 DUP2 MSTORE PUSH1 0x20 DUP2 ADD DUP5 DUP5 DUP5 ADD GT ISZERO PUSH2 0x2ADD JUMPI PUSH2 0x2ADC PUSH2 0x2858 JUMP JUMPDEST JUMPDEST PUSH2 0x2AE8 DUP5 DUP3 DUP6 PUSH2 0x2909 JUMP JUMPDEST POP SWAP4 SWAP3 POP POP POP JUMP JUMPDEST PUSH1 0x0 DUP3 PUSH1 0x1F DUP4 ADD SLT PUSH2 0x2B05 JUMPI PUSH2 0x2B04 PUSH2 0x2853 JUMP JUMPDEST JUMPDEST DUP2 CALLDATALOAD PUSH2 0x2B15 DUP5 DUP3 PUSH1 0x20 DUP7 ADD PUSH2 0x2AAE JUMP JUMPDEST SWAP2 POP POP SWAP3 SWAP2 POP POP JUMP JUMPDEST PUSH1 0x0 DUP1 PUSH1 0x0 DUP1 PUSH1 0x80 DUP6 DUP8 SUB SLT ISZERO PUSH2 0x2B38 JUMPI PUSH2 0x2B37 PUSH2 0x2534 JUMP JUMPDEST JUMPDEST PUSH1 0x0 PUSH2 0x2B46 DUP8 DUP3 DUP9 ADD PUSH2 0x2781 JUMP JUMPDEST SWAP5 POP POP PUSH1 0x20 PUSH2 0x2B57 DUP8 DUP3 DUP9 ADD PUSH2 0x2781 JUMP JUMPDEST SWAP4 POP POP PUSH1 0x40 PUSH2 0x2B68 DUP8 DUP3 DUP9 ADD PUSH2 0x26CC JUMP JUMPDEST SWAP3 POP POP PUSH1 0x60 DUP6 ADD CALLDATALOAD PUSH8 0xFFFFFFFFFFFFFFFF DUP2 GT ISZERO PUSH2 0x2B89 JUMPI PUSH2 0x2B88 PUSH2 0x2539 JUMP JUMPDEST JUMPDEST PUSH2 0x2B95 DUP8 DUP3 DUP9 ADD PUSH2 0x2AF0 JUMP JUMPDEST SWAP2 POP POP SWAP3 SWAP6 SWAP2 SWAP5 POP SWAP3 POP JUMP JUMPDEST PUSH1 0x0 DUP1 PUSH1 0x40 DUP4 DUP6 SUB SLT ISZERO PUSH2 0x2BB8 JUMPI PUSH2 0x2BB7 PUSH2 0x2534 JUMP JUMPDEST JUMPDEST PUSH1 0x0 PUSH2 0x2BC6 DUP6 DUP3 DUP7 ADD PUSH2 0x2781 JUMP JUMPDEST SWAP3 POP POP PUSH1 0x20 PUSH2 0x2BD7 DUP6 DUP3 DUP7 ADD PUSH2 0x2781 JUMP JUMPDEST SWAP2 POP POP SWAP3 POP SWAP3 SWAP1 POP JUMP JUMPDEST PUSH32 0x4E487B7100000000000000000000000000000000000000000000000000000000 PUSH1 0x0 MSTORE PUSH1 0x22 PUSH1 0x4 MSTORE PUSH1 0x24 PUSH1 0x0 REVERT JUMPDEST PUSH1 0x0 PUSH1 0x2 DUP3 DIV SWAP1 POP PUSH1 0x1 DUP3 AND DUP1 PUSH2 0x2C28 JUMPI PUSH1 0x7F DUP3 AND SWAP2 POP JUMPDEST PUSH1 0x20 DUP3 LT DUP2 SUB PUSH2 0x2C3B JUMPI PUSH2 0x2C3A PUSH2 0x2BE1 JUMP JUMPDEST JUMPDEST POP SWAP2 SWAP1 POP JUMP JUMPDEST PUSH32 0x4552433732313A20617070726F76616C20746F2063757272656E74206F776E65 PUSH1 0x0 DUP3 ADD MSTORE PUSH32 0x7200000000000000000000000000000000000000000000000000000000000000 PUSH1 0x20 DUP3 ADD MSTORE POP JUMP JUMPDEST PUSH1 0x0 PUSH2 0x2C9D PUSH1 0x21 DUP4 PUSH2 0x2604 JUMP JUMPDEST SWAP2 POP PUSH2 0x2CA8 DUP3 PUSH2 0x2C41 JUMP JUMPDEST PUSH1 0x40 DUP3 ADD SWAP1 POP SWAP2 SWAP1 POP JUMP JUMPDEST PUSH1 0x0 PUSH1 0x20 DUP3 ADD SWAP1 POP DUP2 DUP2 SUB PUSH1 0x0 DUP4 ADD MSTORE PUSH2 0x2CCC DUP2 PUSH2 0x2C90 JUMP JUMPDEST SWAP1 POP SWAP2 SWAP1 POP JUMP JUMPDEST PUSH32 0x4552433732313A20617070726F76652063616C6C6572206973206E6F7420746F PUSH1 0x0 DUP3 ADD MSTORE PUSH32 0x6B656E206F776E6572206F7220617070726F76656420666F7220616C6C000000 PUSH1 0x20 DUP3 ADD MSTORE POP JUMP JUMPDEST PUSH1 0x0 PUSH2 0x2D2F PUSH1 0x3D DUP4 PUSH2 0x2604 JUMP JUMPDEST SWAP2 POP PUSH2 0x2D3A DUP3 PUSH2 0x2CD3 JUMP JUMPDEST PUSH1 0x40 DUP3 ADD SWAP1 POP SWAP2 SWAP1 POP JUMP JUMPDEST PUSH1 0x0 PUSH1 0x20 DUP3 ADD SWAP1 POP DUP2 DUP2 SUB PUSH1 0x0 DUP4 ADD MSTORE PUSH2 0x2D5E DUP2 PUSH2 0x2D22 JUMP JUMPDEST SWAP1 POP SWAP2 SWAP1 POP JUMP JUMPDEST PUSH32 0x4552433732313A2063616C6C6572206973206E6F7420746F6B656E206F776E65 PUSH1 0x0 DUP3 ADD MSTORE PUSH32 0x72206F7220617070726F76656400000000000000000000000000000000000000 PUSH1 0x20 DUP3 ADD MSTORE POP JUMP JUMPDEST PUSH1 0x0 PUSH2 0x2DC1 PUSH1 0x2D DUP4 PUSH2 0x2604 JUMP JUMPDEST SWAP2 POP PUSH2 0x2DCC DUP3 PUSH2 0x2D65 JUMP JUMPDEST PUSH1 0x40 DUP3 ADD SWAP1 POP SWAP2 SWAP1 POP JUMP JUMPDEST PUSH1 0x0 PUSH1 0x20 DUP3 ADD SWAP1 POP DUP2 DUP2 SUB PUSH1 0x0 DUP4 ADD MSTORE PUSH2 0x2DF0 DUP2 PUSH2 0x2DB4 JUMP JUMPDEST SWAP1 POP SWAP2 SWAP1 POP JUMP JUMPDEST PUSH32 0x53746F636B206F75740000000000000000000000000000000000000000000000 PUSH1 0x0 DUP3 ADD MSTORE POP JUMP JUMPDEST PUSH1 0x0 PUSH2 0x2E2D PUSH1 0x9 DUP4 PUSH2 0x2604 JUMP JUMPDEST SWAP2 POP PUSH2 0x2E38 DUP3 PUSH2 0x2DF7 JUMP JUMPDEST PUSH1 0x20 DUP3 ADD SWAP1 POP SWAP2 SWAP1 POP JUMP JUMPDEST PUSH1 0x0 PUSH1 0x20 DUP3 ADD SWAP1 POP DUP2 DUP2 SUB PUSH1 0x0 DUP4 ADD MSTORE PUSH2 0x2E5C DUP2 PUSH2 0x2E20 JUMP JUMPDEST SWAP1 POP SWAP2 SWAP1 POP JUMP JUMPDEST PUSH32 0x5075626C69632053616C65204E6F742053746172746564000000000000000000 PUSH1 0x0 DUP3 ADD MSTORE POP JUMP JUMPDEST PUSH1 0x0 PUSH2 0x2E99 PUSH1 0x17 DUP4 PUSH2 0x2604 JUMP JUMPDEST SWAP2 POP PUSH2 0x2EA4 DUP3 PUSH2 0x2E63 JUMP JUMPDEST PUSH1 0x20 DUP3 ADD SWAP1 POP SWAP2 SWAP1 POP JUMP JUMPDEST PUSH1 0x0 PUSH1 0x20 DUP3 ADD SWAP1 POP DUP2 DUP2 SUB PUSH1 0x0 DUP4 ADD MSTORE PUSH2 0x2EC8 DUP2 PUSH2 0x2E8C JUMP JUMPDEST SWAP1 POP SWAP2 SWAP1 POP JUMP JUMPDEST PUSH32 0x53746F636B204F75742000000000000000000000000000000000000000000000 PUSH1 0x0 DUP3 ADD MSTORE POP JUMP JUMPDEST PUSH1 0x0 PUSH2 0x2F05 PUSH1 0xA DUP4 PUSH2 0x2604 JUMP JUMPDEST SWAP2 POP PUSH2 0x2F10 DUP3 PUSH2 0x2ECF JUMP JUMPDEST PUSH1 0x20 DUP3 ADD SWAP1 POP SWAP2 SWAP1 POP JUMP JUMPDEST PUSH1 0x0 PUSH1 0x20 DUP3 ADD SWAP1 POP DUP2 DUP2 SUB PUSH1 0x0 DUP4 ADD MSTORE PUSH2 0x2F34 DUP2 PUSH2 0x2EF8 JUMP JUMPDEST SWAP1 POP SWAP2 SWAP1 POP JUMP JUMPDEST PUSH32 0x4E487B7100000000000000000000000000000000000000000000000000000000 PUSH1 0x0 MSTORE PUSH1 0x11 PUSH1 0x4 MSTORE PUSH1 0x24 PUSH1 0x0 REVERT JUMPDEST PUSH1 0x0 PUSH2 0x2F75 DUP3 PUSH2 0x26AB JUMP JUMPDEST SWAP2 POP PUSH2 0x2F80 DUP4 PUSH2 0x26AB JUMP JUMPDEST SWAP3 POP DUP3 DUP3 SUB SWAP1 POP DUP2 DUP2 GT ISZERO PUSH2 0x2F98 JUMPI PUSH2 0x2F97 PUSH2 0x2F3B JUMP JUMPDEST JUMPDEST SWAP3 SWAP2 POP POP JUMP JUMPDEST PUSH1 0x0 PUSH2 0x2FA9 DUP3 PUSH2 0x26AB JUMP JUMPDEST SWAP2 POP PUSH2 0x2FB4 DUP4 PUSH2 0x26AB JUMP JUMPDEST SWAP3 POP DUP3 DUP3 ADD SWAP1 POP DUP1 DUP3 GT ISZERO PUSH2 0x2FCC JUMPI PUSH2 0x2FCB PUSH2 0x2F3B JUMP JUMPDEST JUMPDEST SWAP3 SWAP2 POP POP JUMP JUMPDEST PUSH1 0x0 PUSH2 0x2FDD DUP3 PUSH2 0x26AB JUMP JUMPDEST SWAP2 POP PUSH2 0x2FE8 DUP4 PUSH2 0x26AB JUMP JUMPDEST SWAP3 POP DUP3 DUP3 MUL PUSH2 0x2FF6 DUP2 PUSH2 0x26AB JUMP JUMPDEST SWAP2 POP DUP3 DUP3 DIV DUP5 EQ DUP4 ISZERO OR PUSH2 0x300D JUMPI PUSH2 0x300C PUSH2 0x2F3B JUMP JUMPDEST JUMPDEST POP SWAP3 SWAP2 POP POP JUMP JUMPDEST PUSH32 0x4E6F742073756666696369656E7420616D6F756E740000000000000000000000 PUSH1 0x0 DUP3 ADD MSTORE POP JUMP JUMPDEST PUSH1 0x0 PUSH2 0x304A PUSH1 0x15 DUP4 PUSH2 0x2604 JUMP JUMPDEST SWAP2 POP PUSH2 0x3055 DUP3 PUSH2 0x3014 JUMP JUMPDEST PUSH1 0x20 DUP3 ADD SWAP1 POP SWAP2 SWAP1 POP JUMP JUMPDEST PUSH1 0x0 PUSH1 0x20 DUP3 ADD SWAP1 POP DUP2 DUP2 SUB PUSH1 0x0 DUP4 ADD MSTORE PUSH2 0x3079 DUP2 PUSH2 0x303D JUMP JUMPDEST SWAP1 POP SWAP2 SWAP1 POP JUMP JUMPDEST PUSH1 0x0 PUSH2 0x308B DUP3 PUSH2 0x26AB JUMP JUMPDEST SWAP2 POP PUSH32 0xFFFFFFFFFFFFFFFFFFFFFFFFFFFFFFFFFFFFFFFFFFFFFFFFFFFFFFFFFFFFFFFF DUP3 SUB PUSH2 0x30BD JUMPI PUSH2 0x30BC PUSH2 0x2F3B JUMP JUMPDEST JUMPDEST PUSH1 0x1 DUP3 ADD SWAP1 POP SWAP2 SWAP1 POP JUMP JUMPDEST PUSH1 0x0 DUP2 SWAP1 POP SWAP3 SWAP2 POP POP JUMP JUMPDEST PUSH1 0x0 DUP2 SWAP1 POP DUP2 PUSH1 0x0 MSTORE PUSH1 0x20 PUSH1 0x0 KECCAK256 SWAP1 POP SWAP2 SWAP1 POP JUMP JUMPDEST PUSH1 0x0 DUP2 SLOAD PUSH2 0x30F5 DUP2 PUSH2 0x2C10 JUMP JUMPDEST PUSH2 0x30FF DUP2 DUP7 PUSH2 0x30C8 JUMP JUMPDEST SWAP5 POP PUSH1 0x1 DUP3 AND PUSH1 0x0 DUP2 EQ PUSH2 0x311A JUMPI PUSH1 0x1 DUP2 EQ PUSH2 0x312F JUMPI PUSH2 0x3162 JUMP JUMPDEST PUSH1 0xFF NOT DUP4 AND DUP7 MSTORE DUP2 ISZERO ISZERO DUP3 MUL DUP7 ADD SWAP4 POP PUSH2 0x3162 JUMP JUMPDEST PUSH2 0x3138 DUP6 PUSH2 0x30D3 JUMP JUMPDEST PUSH1 0x0 JUMPDEST DUP4 DUP2 LT ISZERO PUSH2 0x315A JUMPI DUP2 SLOAD DUP2 DUP10 ADD MSTORE PUSH1 0x1 DUP3 ADD SWAP2 POP PUSH1 0x20 DUP2 ADD SWAP1 POP PUSH2 0x313B JUMP JUMPDEST DUP4 DUP9 ADD SWAP6 POP POP POP JUMPDEST POP POP POP SWAP3 SWAP2 POP POP JUMP JUMPDEST PUSH1 0x0 PUSH2 0x3176 DUP3 PUSH2 0x25F9 JUMP JUMPDEST PUSH2 0x3180 DUP2 DUP6 PUSH2 0x30C8 JUMP JUMPDEST SWAP4 POP PUSH2 0x3190 DUP2 DUP6 PUSH1 0x20 DUP7 ADD PUSH2 0x2615 JUMP JUMPDEST DUP1 DUP5 ADD SWAP2 POP POP SWAP3 SWAP2 POP POP JUMP JUMPDEST PUSH32 0x2E6A736F6E000000000000000000000000000000000000000000000000000000 PUSH1 0x0 DUP3 ADD MSTORE POP JUMP JUMPDEST PUSH1 0x0 PUSH2 0x31D2 PUSH1 0x5 DUP4 PUSH2 0x30C8 JUMP JUMPDEST SWAP2 POP PUSH2 0x31DD DUP3 PUSH2 0x319C JUMP JUMPDEST PUSH1 0x5 DUP3 ADD SWAP1 POP SWAP2 SWAP1 POP JUMP JUMPDEST PUSH1 0x0 PUSH2 0x31F4 DUP3 DUP6 PUSH2 0x30E8 JUMP JUMPDEST SWAP2 POP PUSH2 0x3200 DUP3 DUP5 PUSH2 0x316B JUMP JUMPDEST SWAP2 POP PUSH2 0x320B DUP3 PUSH2 0x31C5 JUMP JUMPDEST SWAP2 POP DUP2 SWAP1 POP SWAP4 SWAP3 POP POP POP JUMP JUMPDEST PUSH32 0x4552433732313A20696E76616C696420746F6B656E2049440000000000000000 PUSH1 0x0 DUP3 ADD MSTORE POP JUMP JUMPDEST PUSH1 0x0 PUSH2 0x324D PUSH1 0x18 DUP4 PUSH2 0x2604 JUMP JUMPDEST SWAP2 POP PUSH2 0x3258 DUP3 PUSH2 0x3217 JUMP JUMPDEST PUSH1 0x20 DUP3 ADD SWAP1 POP SWAP2 SWAP1 POP JUMP JUMPDEST PUSH1 0x0 PUSH1 0x20 DUP3 ADD SWAP1 POP DUP2 DUP2 SUB PUSH1 0x0 DUP4 ADD MSTORE PUSH2 0x327C DUP2 PUSH2 0x3240 JUMP JUMPDEST SWAP1 POP SWAP2 SWAP1 POP JUMP JUMPDEST PUSH32 0x4552433732313A2061646472657373207A65726F206973206E6F742061207661 PUSH1 0x0 DUP3 ADD MSTORE PUSH32 0x6C6964206F776E65720000000000000000000000000000000000000000000000 PUSH1 0x20 DUP3 ADD MSTORE POP JUMP JUMPDEST PUSH1 0x0 PUSH2 0x32DF PUSH1 0x29 DUP4 PUSH2 0x2604 JUMP JUMPDEST SWAP2 POP PUSH2 0x32EA DUP3 PUSH2 0x3283 JUMP JUMPDEST PUSH1 0x40 DUP3 ADD SWAP1 POP SWAP2 SWAP1 POP JUMP JUMPDEST PUSH1 0x0 PUSH1 0x20 DUP3 ADD SWAP1 POP DUP2 DUP2 SUB PUSH1 0x0 DUP4 ADD MSTORE PUSH2 0x330E DUP2 PUSH2 0x32D2 JUMP JUMPDEST SWAP1 POP SWAP2 SWAP1 POP JUMP JUMPDEST PUSH32 0x4E487B7100000000000000000000000000000000000000000000000000000000 PUSH1 0x0 MSTORE PUSH1 0x32 PUSH1 0x4 MSTORE PUSH1 0x24 PUSH1 0x0 REVERT JUMPDEST PUSH32 0x4E6F742061205665726966696564205573657200000000000000000000000000 PUSH1 0x0 DUP3 ADD MSTORE POP JUMP JUMPDEST PUSH1 0x0 PUSH2 0x337A PUSH1 0x13 DUP4 PUSH2 0x2604 JUMP JUMPDEST SWAP2 POP PUSH2 0x3385 DUP3 PUSH2 0x3344 JUMP JUMPDEST PUSH1 0x20 DUP3 ADD SWAP1 POP SWAP2 SWAP1 POP JUMP JUMPDEST PUSH1 0x0 PUSH1 0x20 DUP3 ADD SWAP1 POP DUP2 DUP2 SUB PUSH1 0x0 DUP4 ADD MSTORE PUSH2 0x33A9 DUP2 PUSH2 0x336D JUMP JUMPDEST SWAP1 POP SWAP2 SWAP1 POP JUMP JUMPDEST PUSH32 0x2053746F636B204F757400000000000000000000000000000000000000000000 PUSH1 0x0 DUP3 ADD MSTORE POP JUMP JUMPDEST PUSH1 0x0 PUSH2 0x33E6 PUSH1 0xA DUP4 PUSH2 0x2604 JUMP JUMPDEST SWAP2 POP PUSH2 0x33F1 DUP3 PUSH2 0x33B0 JUMP JUMPDEST PUSH1 0x20 DUP3 ADD SWAP1 POP SWAP2 SWAP1 POP JUMP JUMPDEST PUSH1 0x0 PUSH1 0x20 DUP3 ADD SWAP1 POP DUP2 DUP2 SUB PUSH1 0x0 DUP4 ADD MSTORE PUSH2 0x3415 DUP2 PUSH2 0x33D9 JUMP JUMPDEST SWAP1 POP SWAP2 SWAP1 POP JUMP JUMPDEST PUSH32 0x4861766520746F207061792074686520636F727265637420616D6F756E740000 PUSH1 0x0 DUP3 ADD MSTORE POP JUMP JUMPDEST PUSH1 0x0 PUSH2 0x3452 PUSH1 0x1E DUP4 PUSH2 0x2604 JUMP JUMPDEST SWAP2 POP PUSH2 0x345D DUP3 PUSH2 0x341C JUMP JUMPDEST PUSH1 0x20 DUP3 ADD SWAP1 POP SWAP2 SWAP1 POP JUMP JUMPDEST PUSH1 0x0 PUSH1 0x20 DUP3 ADD SWAP1 POP DUP2 DUP2 SUB PUSH1 0x0 DUP4 ADD MSTORE PUSH2 0x3481 DUP2 PUSH2 0x3445 JUMP JUMPDEST SWAP1 POP SWAP2 SWAP1 POP JUMP JUMPDEST PUSH32 0x5075626C69632073616C6520686173206E6F7420737461727465642E00000000 PUSH1 0x0 DUP3 ADD MSTORE POP JUMP JUMPDEST PUSH1 0x0 PUSH2 0x34BE PUSH1 0x1C DUP4 PUSH2 0x2604 JUMP JUMPDEST SWAP2 POP PUSH2 0x34C9 DUP3 PUSH2 0x3488 JUMP JUMPDEST PUSH1 0x20 DUP3 ADD SWAP1 POP SWAP2 SWAP1 POP JUMP JUMPDEST PUSH1 0x0 PUSH1 0x20 DUP3 ADD SWAP1 POP DUP2 DUP2 SUB PUSH1 0x0 DUP4 ADD MSTORE PUSH2 0x34ED DUP2 PUSH2 0x34B1 JUMP JUMPDEST SWAP1 POP SWAP2 SWAP1 POP JUMP JUMPDEST PUSH1 0x0 PUSH2 0x3500 DUP3 DUP6 PUSH2 0x316B JUMP JUMPDEST SWAP2 POP PUSH2 0x350C DUP3 DUP5 PUSH2 0x316B JUMP JUMPDEST SWAP2 POP DUP2 SWAP1 POP SWAP4 SWAP3 POP POP POP JUMP JUMPDEST PUSH32 0x4F776E61626C653A206E6577206F776E657220697320746865207A65726F2061 PUSH1 0x0 DUP3 ADD MSTORE PUSH32 0x6464726573730000000000000000000000000000000000000000000000000000 PUSH1 0x20 DUP3 ADD MSTORE POP JUMP JUMPDEST PUSH1 0x0 PUSH2 0x3574 PUSH1 0x26 DUP4 PUSH2 0x2604 JUMP JUMPDEST SWAP2 POP PUSH2 0x357F DUP3 PUSH2 0x3518 JUMP JUMPDEST PUSH1 0x40 DUP3 ADD SWAP1 POP SWAP2 SWAP1 POP JUMP JUMPDEST PUSH1 0x0 PUSH1 0x20 DUP3 ADD SWAP1 POP DUP2 DUP2 SUB PUSH1 0x0 DUP4 ADD MSTORE PUSH2 0x35A3 DUP2 PUSH2 0x3567 JUMP JUMPDEST SWAP1 POP SWAP2 SWAP1 POP JUMP JUMPDEST PUSH32 0x4552433732313A207472616E736665722066726F6D20696E636F727265637420 PUSH1 0x0 DUP3 ADD MSTORE PUSH32 0x6F776E6572000000000000000000000000000000000000000000000000000000 PUSH1 0x20 DUP3 ADD MSTORE POP JUMP JUMPDEST PUSH1 0x0 PUSH2 0x3606 PUSH1 0x25 DUP4 PUSH2 0x2604 JUMP JUMPDEST SWAP2 POP PUSH2 0x3611 DUP3 PUSH2 0x35AA JUMP JUMPDEST PUSH1 0x40 DUP3 ADD SWAP1 POP SWAP2 SWAP1 POP JUMP JUMPDEST PUSH1 0x0 PUSH1 0x20 DUP3 ADD SWAP1 POP DUP2 DUP2 SUB PUSH1 0x0 DUP4 ADD MSTORE PUSH2 0x3635 DUP2 PUSH2 0x35F9 JUMP JUMPDEST SWAP1 POP SWAP2 SWAP1 POP JUMP JUMPDEST PUSH32 0x4552433732313A207472616E7366657220746F20746865207A65726F20616464 PUSH1 0x0 DUP3 ADD MSTORE PUSH32 0x7265737300000000000000000000000000000000000000000000000000000000 PUSH1 0x20 DUP3 ADD MSTORE POP JUMP JUMPDEST PUSH1 0x0 PUSH2 0x3698 PUSH1 0x24 DUP4 PUSH2 0x2604 JUMP JUMPDEST SWAP2 POP PUSH2 0x36A3 DUP3 PUSH2 0x363C JUMP JUMPDEST PUSH1 0x40 DUP3 ADD SWAP1 POP SWAP2 SWAP1 POP JUMP JUMPDEST PUSH1 0x0 PUSH1 0x20 DUP3 ADD SWAP1 POP DUP2 DUP2 SUB PUSH1 0x0 DUP4 ADD MSTORE PUSH2 0x36C7 DUP2 PUSH2 0x368B JUMP JUMPDEST SWAP1 POP SWAP2 SWAP1 POP JUMP JUMPDEST PUSH32 0x4F776E61626C653A2063616C6C6572206973206E6F7420746865206F776E6572 PUSH1 0x0 DUP3 ADD MSTORE POP JUMP JUMPDEST PUSH1 0x0 PUSH2 0x3704 PUSH1 0x20 DUP4 PUSH2 0x2604 JUMP JUMPDEST SWAP2 POP PUSH2 0x370F DUP3 PUSH2 0x36CE JUMP JUMPDEST PUSH1 0x20 DUP3 ADD SWAP1 POP SWAP2 SWAP1 POP JUMP JUMPDEST PUSH1 0x0 PUSH1 0x20 DUP3 ADD SWAP1 POP DUP2 DUP2 SUB PUSH1 0x0 DUP4 ADD MSTORE PUSH2 0x3733 DUP2 PUSH2 0x36F7 JUMP JUMPDEST SWAP1 POP SWAP2 SWAP1 POP JUMP JUMPDEST PUSH32 0x4E487B7100000000000000000000000000000000000000000000000000000000 PUSH1 0x0 MSTORE PUSH1 0x12 PUSH1 0x4 MSTORE PUSH1 0x24 PUSH1 0x0 REVERT JUMPDEST PUSH32 0x45524337323155524953746F726167653A2055524920736574206F66206E6F6E PUSH1 0x0 DUP3 ADD MSTORE PUSH32 0x6578697374656E7420746F6B656E000000000000000000000000000000000000 PUSH1 0x20 DUP3 ADD MSTORE POP JUMP JUMPDEST PUSH1 0x0 PUSH2 0x37C5 PUSH1 0x2E DUP4 PUSH2 0x2604 JUMP JUMPDEST SWAP2 POP PUSH2 0x37D0 DUP3 PUSH2 0x3769 JUMP JUMPDEST PUSH1 0x40 DUP3 ADD SWAP1 POP SWAP2 SWAP1 POP JUMP JUMPDEST PUSH1 0x0 PUSH1 0x20 DUP3 ADD SWAP1 POP DUP2 DUP2 SUB PUSH1 0x0 DUP4 ADD MSTORE PUSH2 0x37F4 DUP2 PUSH2 0x37B8 JUMP JUMPDEST SWAP1 POP SWAP2 SWAP1 POP JUMP JUMPDEST PUSH1 0x0 PUSH1 0x20 PUSH1 0x1F DUP4 ADD DIV SWAP1 POP SWAP2 SWAP1 POP JUMP JUMPDEST PUSH1 0x0 DUP3 DUP3 SHL SWAP1 POP SWAP3 SWAP2 POP POP JUMP JUMPDEST PUSH1 0x0 PUSH1 0x8 DUP4 MUL PUSH2 0x3848 PUSH32 0xFFFFFFFFFFFFFFFFFFFFFFFFFFFFFFFFFFFFFFFFFFFFFFFFFFFFFFFFFFFFFFFF DUP3 PUSH2 0x380B JUMP JUMPDEST PUSH2 0x3852 DUP7 DUP4 PUSH2 0x380B JUMP JUMPDEST SWAP6 POP DUP1 NOT DUP5 AND SWAP4 POP DUP1 DUP7 AND DUP5 OR SWAP3 POP POP POP SWAP4 SWAP3 POP POP POP JUMP JUMPDEST PUSH1 0x0 DUP2 SWAP1 POP SWAP2 SWAP1 POP JUMP JUMPDEST PUSH1 0x0 PUSH2 0x388F PUSH2 0x388A PUSH2 0x3885 DUP5 PUSH2 0x26AB JUMP JUMPDEST PUSH2 0x386A JUMP JUMPDEST PUSH2 0x26AB JUMP JUMPDEST SWAP1 POP SWAP2 SWAP1 POP JUMP JUMPDEST PUSH1 0x0 DUP2 SWAP1 POP SWAP2 SWAP1 POP JUMP JUMPDEST PUSH2 0x38A9 DUP4 PUSH2 0x3874 JUMP JUMPDEST PUSH2 0x38BD PUSH2 0x38B5 DUP3 PUSH2 0x3896 JUMP JUMPDEST DUP5 DUP5 SLOAD PUSH2 0x3818 JUMP JUMPDEST DUP3 SSTORE POP POP POP POP JUMP JUMPDEST PUSH1 0x0 SWAP1 JUMP JUMPDEST PUSH2 0x38D2 PUSH2 0x38C5 JUMP JUMPDEST PUSH2 0x38DD DUP2 DUP5 DUP5 PUSH2 0x38A0 JUMP JUMPDEST POP POP POP JUMP JUMPDEST JUMPDEST DUP2 DUP2 LT ISZERO PUSH2 0x3901 JUMPI PUSH2 0x38F6 PUSH1 0x0 DUP3 PUSH2 0x38CA JUMP JUMPDEST PUSH1 0x1 DUP2 ADD SWAP1 POP PUSH2 0x38E3 JUMP JUMPDEST POP POP JUMP JUMPDEST PUSH1 0x1F DUP3 GT ISZERO PUSH2 0x3946 JUMPI PUSH2 0x3917 DUP2 PUSH2 0x30D3 JUMP JUMPDEST PUSH2 0x3920 DUP5 PUSH2 0x37FB JUMP JUMPDEST DUP2 ADD PUSH1 0x20 DUP6 LT ISZERO PUSH2 0x392F JUMPI DUP2 SWAP1 POP JUMPDEST PUSH2 0x3943 PUSH2 0x393B DUP6 PUSH2 0x37FB JUMP JUMPDEST DUP4 ADD DUP3 PUSH2 0x38E2 JUMP JUMPDEST POP POP JUMPDEST POP POP POP JUMP JUMPDEST PUSH1 0x0 DUP3 DUP3 SHR SWAP1 POP SWAP3 SWAP2 POP POP JUMP JUMPDEST PUSH1 0x0 PUSH2 0x3969 PUSH1 0x0 NOT DUP5 PUSH1 0x8 MUL PUSH2 0x394B JUMP JUMPDEST NOT DUP1 DUP4 AND SWAP2 POP POP SWAP3 SWAP2 POP POP JUMP JUMPDEST PUSH1 0x0 PUSH2 0x3982 DUP4 DUP4 PUSH2 0x3958 JUMP JUMPDEST SWAP2 POP DUP3 PUSH1 0x2 MUL DUP3 OR SWAP1 POP SWAP3 SWAP2 POP POP JUMP JUMPDEST PUSH2 0x399B DUP3 PUSH2 0x25F9 JUMP JUMPDEST PUSH8 0xFFFFFFFFFFFFFFFF DUP2 GT ISZERO PUSH2 0x39B4 JUMPI PUSH2 0x39B3 PUSH2 0x285D JUMP JUMPDEST JUMPDEST PUSH2 0x39BE DUP3 SLOAD PUSH2 0x2C10 JUMP JUMPDEST PUSH2 0x39C9 DUP3 DUP3 DUP6 PUSH2 0x3905 JUMP JUMPDEST PUSH1 0x0 PUSH1 0x20 SWAP1 POP PUSH1 0x1F DUP4 GT PUSH1 0x1 DUP2 EQ PUSH2 0x39FC JUMPI PUSH1 0x0 DUP5 ISZERO PUSH2 0x39EA JUMPI DUP3 DUP8 ADD MLOAD SWAP1 POP JUMPDEST PUSH2 0x39F4 DUP6 DUP3 PUSH2 0x3976 JUMP JUMPDEST DUP7 SSTORE POP PUSH2 0x3A5C JUMP JUMPDEST PUSH1 0x1F NOT DUP5 AND PUSH2 0x3A0A DUP7 PUSH2 0x30D3 JUMP JUMPDEST PUSH1 0x0 JUMPDEST DUP3 DUP2 LT ISZERO PUSH2 0x3A32 JUMPI DUP5 DUP10 ADD MLOAD DUP3 SSTORE PUSH1 0x1 DUP3 ADD SWAP2 POP PUSH1 0x20 DUP6 ADD SWAP5 POP PUSH1 0x20 DUP2 ADD SWAP1 POP PUSH2 0x3A0D JUMP JUMPDEST DUP7 DUP4 LT ISZERO PUSH2 0x3A4F JUMPI DUP5 DUP10 ADD MLOAD PUSH2 0x3A4B PUSH1 0x1F DUP10 AND DUP3 PUSH2 0x3958 JUMP JUMPDEST DUP4 SSTORE POP JUMPDEST PUSH1 0x1 PUSH1 0x2 DUP9 MUL ADD DUP9 SSTORE POP POP POP JUMPDEST POP POP POP POP POP POP JUMP JUMPDEST PUSH32 0x4552433732313A20617070726F766520746F2063616C6C657200000000000000 PUSH1 0x0 DUP3 ADD MSTORE POP JUMP JUMPDEST PUSH1 0x0 PUSH2 0x3A9A PUSH1 0x19 DUP4 PUSH2 0x2604 JUMP JUMPDEST SWAP2 POP PUSH2 0x3AA5 DUP3 PUSH2 0x3A64 JUMP JUMPDEST PUSH1 0x20 DUP3 ADD SWAP1 POP SWAP2 SWAP1 POP JUMP JUMPDEST PUSH1 0x0 PUSH1 0x20 DUP3 ADD SWAP1 POP DUP2 DUP2 SUB PUSH1 0x0 DUP4 ADD MSTORE PUSH2 0x3AC9 DUP2 PUSH2 0x3A8D JUMP JUMPDEST SWAP1 POP SWAP2 SWAP1 POP JUMP JUMPDEST PUSH32 0x4552433732313A206D696E7420746F20746865207A65726F2061646472657373 PUSH1 0x0 DUP3 ADD MSTORE POP JUMP JUMPDEST PUSH1 0x0 PUSH2 0x3B06 PUSH1 0x20 DUP4 PUSH2 0x2604 JUMP JUMPDEST SWAP2 POP PUSH2 0x3B11 DUP3 PUSH2 0x3AD0 JUMP JUMPDEST PUSH1 0x20 DUP3 ADD SWAP1 POP SWAP2 SWAP1 POP JUMP JUMPDEST PUSH1 0x0 PUSH1 0x20 DUP3 ADD SWAP1 POP DUP2 DUP2 SUB PUSH1 0x0 DUP4 ADD MSTORE PUSH2 0x3B35 DUP2 PUSH2 0x3AF9 JUMP JUMPDEST SWAP1 POP SWAP2 SWAP1 POP JUMP JUMPDEST PUSH32 0x4552433732313A20746F6B656E20616C7265616479206D696E74656400000000 PUSH1 0x0 DUP3 ADD MSTORE POP JUMP JUMPDEST PUSH1 0x0 PUSH2 0x3B72 PUSH1 0x1C DUP4 PUSH2 0x2604 JUMP JUMPDEST SWAP2 POP PUSH2 0x3B7D DUP3 PUSH2 0x3B3C JUMP JUMPDEST PUSH1 0x20 DUP3 ADD SWAP1 POP SWAP2 SWAP1 POP JUMP JUMPDEST PUSH1 0x0 PUSH1 0x20 DUP3 ADD SWAP1 POP DUP2 DUP2 SUB PUSH1 0x0 DUP4 ADD MSTORE PUSH2 0x3BA1 DUP2 PUSH2 0x3B65 JUMP JUMPDEST SWAP1 POP SWAP2 SWAP1 POP JUMP JUMPDEST PUSH32 0x4552433732313A207472616E7366657220746F206E6F6E204552433732315265 PUSH1 0x0 DUP3 ADD MSTORE PUSH32 0x63656976657220696D706C656D656E7465720000000000000000000000000000 PUSH1 0x20 DUP3 ADD MSTORE POP JUMP JUMPDEST PUSH1 0x0 PUSH2 0x3C04 PUSH1 0x32 DUP4 PUSH2 0x2604 JUMP JUMPDEST SWAP2 POP PUSH2 0x3C0F DUP3 PUSH2 0x3BA8 JUMP JUMPDEST PUSH1 0x40 DUP3 ADD SWAP1 POP SWAP2 SWAP1 POP JUMP JUMPDEST PUSH1 0x0 PUSH1 0x20 DUP3 ADD SWAP1 POP DUP2 DUP2 SUB PUSH1 0x0 DUP4 ADD MSTORE PUSH2 0x3C33 DUP2 PUSH2 0x3BF7 JUMP JUMPDEST SWAP1 POP SWAP2 SWAP1 POP JUMP JUMPDEST PUSH1 0x0 DUP2 MLOAD SWAP1 POP SWAP2 SWAP1 POP JUMP JUMPDEST PUSH1 0x0 DUP3 DUP3 MSTORE PUSH1 0x20 DUP3 ADD SWAP1 POP SWAP3 SWAP2 POP POP JUMP JUMPDEST PUSH1 0x0 PUSH2 0x3C61 DUP3 PUSH2 0x3C3A JUMP JUMPDEST PUSH2 0x3C6B DUP2 DUP6 PUSH2 0x3C45 JUMP JUMPDEST SWAP4 POP PUSH2 0x3C7B DUP2 DUP6 PUSH1 0x20 DUP7 ADD PUSH2 0x2615 JUMP JUMPDEST PUSH2 0x3C84 DUP2 PUSH2 0x263F JUMP JUMPDEST DUP5 ADD SWAP2 POP POP SWAP3 SWAP2 POP POP JUMP JUMPDEST PUSH1 0x0 PUSH1 0x80 DUP3 ADD SWAP1 POP PUSH2 0x3CA4 PUSH1 0x0 DUP4 ADD DUP8 PUSH2 0x2740 JUMP JUMPDEST PUSH2 0x3CB1 PUSH1 0x20 DUP4 ADD DUP7 PUSH2 0x2740 JUMP JUMPDEST PUSH2 0x3CBE PUSH1 0x40 DUP4 ADD DUP6 PUSH2 0x2829 JUMP JUMPDEST DUP2 DUP2 SUB PUSH1 0x60 DUP4 ADD MSTORE PUSH2 0x3CD0 DUP2 DUP5 PUSH2 0x3C56 JUMP JUMPDEST SWAP1 POP SWAP6 SWAP5 POP POP POP POP POP JUMP JUMPDEST PUSH1 0x0 DUP2 MLOAD SWAP1 POP PUSH2 0x3CEA DUP2 PUSH2 0x256A JUMP JUMPDEST SWAP3 SWAP2 POP POP JUMP JUMPDEST PUSH1 0x0 PUSH1 0x20 DUP3 DUP5 SUB SLT ISZERO PUSH2 0x3D06 JUMPI PUSH2 0x3D05 PUSH2 0x2534 JUMP JUMPDEST JUMPDEST PUSH1 0x0 PUSH2 0x3D14 DUP5 DUP3 DUP6 ADD PUSH2 0x3CDB JUMP JUMPDEST SWAP2 POP POP SWAP3 SWAP2 POP POP JUMP INVALID LOG2 PUSH5 0x6970667358 0x22 SLT KECCAK256 0xCE 0xAC 0xF 0x26 0xCA 0xB5 GAS LOG2 INVALID CHAINID MSIZE 0x5F 0xC4 0xB1 PUSH20 0x28BC74386E8B229450FFBC6D7AEFB6CAF864736F PUSH13 0x63430008120033000000000000 "
		},
		"gasEstimates": {
			"creation": {
				"codeDepositCost": "3139800",
				"executionCost": "infinite",
				"totalCost": "infinite"
			},
			"external": {
				"MAX_supply()": "439",
				"approve(address,uint256)": "infinite",
				"balanceOf(address)": "2987",
				"endPublicSale()": "28995",
				"getApproved(uint256)": "5322",
				"isApprovedForAll(address,address)": "infinite",
				"name()": "infinite",
				"owner()": "2612",
				"ownerOf(uint256)": "3066",
				"preMint(uint256,string)": "infinite",
				"preSaleClaimed()": "2473",
				"preSaleLimit()": "2474",
				"publicMint(uint256,string)": "infinite",
				"publicSaleClaimed()": "2475",
				"publicSaleLimit()": "2518",
				"renounceOwnership()": "30444",
				"safeTransferFrom(address,address,uint256)": "infinite",
				"safeTransferFrom(address,address,uint256,bytes)": "infinite",
				"setApprovalForAll(address,bool)": "infinite",
				"supportsInterface(bytes4)": "797",
				"symbol()": "infinite",
				"tokenURI(uint256)": "infinite",
				"transferFrom(address,address,uint256)": "infinite",
				"transferOwnership(address)": "30832",
				"user(address)": "51366",
				"verifiedUsers(uint256)": "5024",
				"withdraw()": "infinite"
			}
		},
		"methodIdentifiers": {
			"MAX_supply()": "fb4eb634",
			"approve(address,uint256)": "095ea7b3",
			"balanceOf(address)": "70a08231",
			"endPublicSale()": "c7d17fd1",
			"getApproved(uint256)": "081812fc",
			"isApprovedForAll(address,address)": "e985e9c5",
			"name()": "06fdde03",
			"owner()": "8da5cb5b",
			"ownerOf(uint256)": "6352211e",
			"preMint(uint256,string)": "b6f220aa",
			"preSaleClaimed()": "ce61a141",
			"preSaleLimit()": "909d6877",
			"publicMint(uint256,string)": "4af56d93",
			"publicSaleClaimed()": "35617a7a",
			"publicSaleLimit()": "6e3de87c",
			"renounceOwnership()": "715018a6",
			"safeTransferFrom(address,address,uint256)": "42842e0e",
			"safeTransferFrom(address,address,uint256,bytes)": "b88d4fde",
			"setApprovalForAll(address,bool)": "a22cb465",
			"supportsInterface(bytes4)": "01ffc9a7",
			"symbol()": "95d89b41",
			"tokenURI(uint256)": "c87b56dd",
			"transferFrom(address,address,uint256)": "23b872dd",
			"transferOwnership(address)": "f2fde38b",
			"user(address)": "81e7e20e",
			"verifiedUsers(uint256)": "07763ec3",
			"withdraw()": "3ccfd60b"
		}
	},
	"abi": [
		{
			"inputs": [
				{
					"internalType": "uint256",
					"name": "_preSaleLimit",
					"type": "uint256"
				},
				{
					"internalType": "string",
					"name": "_baseURI",
					"type": "string"
				}
			],
			"stateMutability": "nonpayable",
			"type": "constructor"
		},
		{
			"anonymous": false,
			"inputs": [
				{
					"indexed": true,
					"internalType": "address",
					"name": "owner",
					"type": "address"
				},
				{
					"indexed": true,
					"internalType": "address",
					"name": "approved",
					"type": "address"
				},
				{
					"indexed": true,
					"internalType": "uint256",
					"name": "tokenId",
					"type": "uint256"
				}
			],
			"name": "Approval",
			"type": "event"
		},
		{
			"anonymous": false,
			"inputs": [
				{
					"indexed": true,
					"internalType": "address",
					"name": "owner",
					"type": "address"
				},
				{
					"indexed": true,
					"internalType": "address",
					"name": "operator",
					"type": "address"
				},
				{
					"indexed": false,
					"internalType": "bool",
					"name": "approved",
					"type": "bool"
				}
			],
			"name": "ApprovalForAll",
			"type": "event"
		},
		{
			"anonymous": false,
			"inputs": [
				{
					"indexed": true,
					"internalType": "address",
					"name": "previousOwner",
					"type": "address"
				},
				{
					"indexed": true,
					"internalType": "address",
					"name": "newOwner",
					"type": "address"
				}
			],
			"name": "OwnershipTransferred",
			"type": "event"
		},
		{
			"anonymous": false,
			"inputs": [
				{
					"indexed": true,
					"internalType": "address",
					"name": "from",
					"type": "address"
				},
				{
					"indexed": true,
					"internalType": "address",
					"name": "to",
					"type": "address"
				},
				{
					"indexed": true,
					"internalType": "uint256",
					"name": "tokenId",
					"type": "uint256"
				}
			],
			"name": "Transfer",
			"type": "event"
		},
		{
			"inputs": [],
			"name": "MAX_supply",
			"outputs": [
				{
					"internalType": "uint256",
					"name": "",
					"type": "uint256"
				}
			],
			"stateMutability": "view",
			"type": "function"
		},
		{
			"inputs": [
				{
					"internalType": "address",
					"name": "to",
					"type": "address"
				},
				{
					"internalType": "uint256",
					"name": "tokenId",
					"type": "uint256"
				}
			],
			"name": "approve",
			"outputs": [],
			"stateMutability": "nonpayable",
			"type": "function"
		},
		{
			"inputs": [
				{
					"internalType": "address",
					"name": "owner",
					"type": "address"
				}
			],
			"name": "balanceOf",
			"outputs": [
				{
					"internalType": "uint256",
					"name": "",
					"type": "uint256"
				}
			],
			"stateMutability": "view",
			"type": "function"
		},
		{
			"inputs": [],
			"name": "endPublicSale",
			"outputs": [],
			"stateMutability": "nonpayable",
			"type": "function"
		},
		{
			"inputs": [
				{
					"internalType": "uint256",
					"name": "tokenId",
					"type": "uint256"
				}
			],
			"name": "getApproved",
			"outputs": [
				{
					"internalType": "address",
					"name": "",
					"type": "address"
				}
			],
			"stateMutability": "view",
			"type": "function"
		},
		{
			"inputs": [
				{
					"internalType": "address",
					"name": "owner",
					"type": "address"
				},
				{
					"internalType": "address",
					"name": "operator",
					"type": "address"
				}
			],
			"name": "isApprovedForAll",
			"outputs": [
				{
					"internalType": "bool",
					"name": "",
					"type": "bool"
				}
			],
			"stateMutability": "view",
			"type": "function"
		},
		{
			"inputs": [],
			"name": "name",
			"outputs": [
				{
					"internalType": "string",
					"name": "",
					"type": "string"
				}
			],
			"stateMutability": "view",
			"type": "function"
		},
		{
			"inputs": [],
			"name": "owner",
			"outputs": [
				{
					"internalType": "address",
					"name": "",
					"type": "address"
				}
			],
			"stateMutability": "view",
			"type": "function"
		},
		{
			"inputs": [
				{
					"internalType": "uint256",
					"name": "tokenId",
					"type": "uint256"
				}
			],
			"name": "ownerOf",
			"outputs": [
				{
					"internalType": "address",
					"name": "",
					"type": "address"
				}
			],
			"stateMutability": "view",
			"type": "function"
		},
		{
			"inputs": [
				{
					"internalType": "uint256",
					"name": "_quantity",
					"type": "uint256"
				},
				{
					"internalType": "string",
					"name": "uri",
					"type": "string"
				}
			],
			"name": "preMint",
			"outputs": [],
			"stateMutability": "payable",
			"type": "function"
		},
		{
			"inputs": [],
			"name": "preSaleClaimed",
			"outputs": [
				{
					"internalType": "uint256",
					"name": "",
					"type": "uint256"
				}
			],
			"stateMutability": "view",
			"type": "function"
		},
		{
			"inputs": [],
			"name": "preSaleLimit",
			"outputs": [
				{
					"internalType": "uint256",
					"name": "",
					"type": "uint256"
				}
			],
			"stateMutability": "view",
			"type": "function"
		},
		{
			"inputs": [
				{
					"internalType": "uint256",
					"name": "_quantity",
					"type": "uint256"
				},
				{
					"internalType": "string",
					"name": "uri",
					"type": "string"
				}
			],
			"name": "publicMint",
			"outputs": [],
			"stateMutability": "payable",
			"type": "function"
		},
		{
			"inputs": [],
			"name": "publicSaleClaimed",
			"outputs": [
				{
					"internalType": "uint256",
					"name": "",
					"type": "uint256"
				}
			],
			"stateMutability": "view",
			"type": "function"
		},
		{
			"inputs": [],
			"name": "publicSaleLimit",
			"outputs": [
				{
					"internalType": "uint256",
					"name": "",
					"type": "uint256"
				}
			],
			"stateMutability": "view",
			"type": "function"
		},
		{
			"inputs": [],
			"name": "renounceOwnership",
			"outputs": [],
			"stateMutability": "nonpayable",
			"type": "function"
		},
		{
			"inputs": [
				{
					"internalType": "address",
					"name": "from",
					"type": "address"
				},
				{
					"internalType": "address",
					"name": "to",
					"type": "address"
				},
				{
					"internalType": "uint256",
					"name": "tokenId",
					"type": "uint256"
				}
			],
			"name": "safeTransferFrom",
			"outputs": [],
			"stateMutability": "nonpayable",
			"type": "function"
		},
		{
			"inputs": [
				{
					"internalType": "address",
					"name": "from",
					"type": "address"
				},
				{
					"internalType": "address",
					"name": "to",
					"type": "address"
				},
				{
					"internalType": "uint256",
					"name": "tokenId",
					"type": "uint256"
				},
				{
					"internalType": "bytes",
					"name": "data",
					"type": "bytes"
				}
			],
			"name": "safeTransferFrom",
			"outputs": [],
			"stateMutability": "nonpayable",
			"type": "function"
		},
		{
			"inputs": [
				{
					"internalType": "address",
					"name": "operator",
					"type": "address"
				},
				{
					"internalType": "bool",
					"name": "approved",
					"type": "bool"
				}
			],
			"name": "setApprovalForAll",
			"outputs": [],
			"stateMutability": "nonpayable",
			"type": "function"
		},
		{
			"inputs": [
				{
					"internalType": "bytes4",
					"name": "interfaceId",
					"type": "bytes4"
				}
			],
			"name": "supportsInterface",
			"outputs": [
				{
					"internalType": "bool",
					"name": "",
					"type": "bool"
				}
			],
			"stateMutability": "view",
			"type": "function"
		},
		{
			"inputs": [],
			"name": "symbol",
			"outputs": [
				{
					"internalType": "string",
					"name": "",
					"type": "string"
				}
			],
			"stateMutability": "view",
			"type": "function"
		},
		{
			"inputs": [
				{
					"internalType": "uint256",
					"name": "tokenId",
					"type": "uint256"
				}
			],
			"name": "tokenURI",
			"outputs": [
				{
					"internalType": "string",
					"name": "",
					"type": "string"
				}
			],
			"stateMutability": "view",
			"type": "function"
		},
		{
			"inputs": [
				{
					"internalType": "address",
					"name": "from",
					"type": "address"
				},
				{
					"internalType": "address",
					"name": "to",
					"type": "address"
				},
				{
					"internalType": "uint256",
					"name": "tokenId",
					"type": "uint256"
				}
			],
			"name": "transferFrom",
			"outputs": [],
			"stateMutability": "nonpayable",
			"type": "function"
		},
		{
			"inputs": [
				{
					"internalType": "address",
					"name": "newOwner",
					"type": "address"
				}
			],
			"name": "transferOwnership",
			"outputs": [],
			"stateMutability": "nonpayable",
			"type": "function"
		},
		{
			"inputs": [
				{
					"internalType": "address",
					"name": "addr",
					"type": "address"
				}
			],
			"name": "user",
			"outputs": [],
			"stateMutability": "nonpayable",
			"type": "function"
		},
		{
			"inputs": [
				{
					"internalType": "uint256",
					"name": "",
					"type": "uint256"
				}
			],
			"name": "verifiedUsers",
			"outputs": [
				{
					"internalType": "address",
					"name": "",
					"type": "address"
				}
			],
			"stateMutability": "view",
			"type": "function"
		},
		{
			"inputs": [],
			"name": "withdraw",
			"outputs": [],
			"stateMutability": "nonpayable",
			"type": "function"
		}
	]
}