{
	"data": {
		"bytecode": {
			"linkReferences": {},
			"object": "60806040523480156200001157600080fd5b5060405162000a1c38038062000a1c833981810160405281019062000037919062000299565b826000908162000048919062000574565b5081600190816200005a919062000574565b506012600260006101000a81548160ff021916908360ff1602179055508060038190555080600460003373ffffffffffffffffffffffffffffffffffffffff1673ffffffffffffffffffffffffffffffffffffffff168152602001908152602001600020819055505050506200065b565b6000604051905090565b600080fd5b600080fd5b600080fd5b600080fd5b6000601f19601f8301169050919050565b7f4e487b7100000000000000000000000000000000000000000000000000000000600052604160045260246000fd5b6200013482620000e9565b810181811067ffffffffffffffff82111715620001565762000155620000fa565b5b80604052505050565b60006200016b620000cb565b905062000179828262000129565b919050565b600067ffffffffffffffff8211156200019c576200019b620000fa565b5b620001a782620000e9565b9050602081019050919050565b60005b83811015620001d4578082015181840152602081019050620001b7565b60008484015250505050565b6000620001f7620001f1846200017e565b6200015f565b905082815260208101848484011115620002165762000215620000e4565b5b62000223848285620001b4565b509392505050565b600082601f830112620002435762000242620000df565b5b815162000255848260208601620001e0565b91505092915050565b6000819050919050565b62000273816200025e565b81146200027f57600080fd5b50565b600081519050620002938162000268565b92915050565b600080600060608486031215620002b557620002b4620000d5565b5b600084015167ffffffffffffffff811115620002d657620002d5620000da565b5b620002e4868287016200022b565b935050602084015167ffffffffffffffff811115620003085762000307620000da565b5b62000316868287016200022b565b9250506040620003298682870162000282565b9150509250925092565b600081519050919050565b7f4e487b7100000000000000000000000000000000000000000000000000000000600052602260045260246000fd5b600060028204905060018216806200038657607f821691505b6020821081036200039c576200039b6200033e565b5b50919050565b60008190508160005260206000209050919050565b60006020601f8301049050919050565b600082821b905092915050565b600060088302620004067fffffffffffffffffffffffffffffffffffffffffffffffffffffffffffffffff82620003c7565b620004128683620003c7565b95508019841693508086168417925050509392505050565b6000819050919050565b6000620004556200044f62000449846200025e565b6200042a565b6200025e565b9050919050565b6000819050919050565b620004718362000434565b6200048962000480826200045c565b848454620003d4565b825550505050565b600090565b620004a062000491565b620004ad81848462000466565b505050565b5b81811015620004d557620004c960008262000496565b600181019050620004b3565b5050565b601f8211156200052457620004ee81620003a2565b620004f984620003b7565b8101602085101562000509578190505b620005216200051885620003b7565b830182620004b2565b50505b505050565b600082821c905092915050565b6000620005496000198460080262000529565b1980831691505092915050565b600062000564838362000536565b9150826002028217905092915050565b6200057f8262000333565b67ffffffffffffffff8111156200059b576200059a620000fa565b5b620005a782546200036d565b620005b4828285620004d9565b600060209050601f831160018114620005ec5760008415620005d7578287015190505b620005e3858262000556565b86555062000653565b601f198416620005fc86620003a2565b60005b828110156200062657848901518255600182019150602085019450602081019050620005ff565b8683101562000646578489015162000642601f89168262000536565b8355505b6001600288020188555050505b505050505050565b6103b1806200066b6000396000f3fe608060405234801561001057600080fd5b506004361061004c5760003560e01c806306fdde031461005157806318160ddd1461006f578063313ce5671461008d57806395d89b41146100ab575b600080fd5b6100596100c9565b604051610066919061028e565b60405180910390f35b610077610157565b60405161008491906102c9565b60405180910390f35b61009561015d565b6040516100a29190610300565b60405180910390f35b6100b3610170565b6040516100c0919061028e565b60405180910390f35b600080546100d69061034a565b80601f01602080910402602001604051908101604052809291908181526020018280546101029061034a565b801561014f5780601f106101245761010080835404028352916020019161014f565b820191906000526020600020905b81548152906001019060200180831161013257829003601f168201915b505050505081565b60035481565b600260009054906101000a900460ff1681565b6001805461017d9061034a565b80601f01602080910402602001604051908101604052809291908181526020018280546101a99061034a565b80156101f65780601f106101cb576101008083540402835291602001916101f6565b820191906000526020600020905b8154815290600101906020018083116101d957829003601f168201915b505050505081565b600081519050919050565b600082825260208201905092915050565b60005b8381101561023857808201518184015260208101905061021d565b60008484015250505050565b6000601f19601f8301169050919050565b6000610260826101fe565b61026a8185610209565b935061027a81856020860161021a565b61028381610244565b840191505092915050565b600060208201905081810360008301526102a88184610255565b905092915050565b6000819050919050565b6102c3816102b0565b82525050565b60006020820190506102de60008301846102ba565b92915050565b600060ff82169050919050565b6102fa816102e4565b82525050565b600060208201905061031560008301846102f1565b92915050565b7f4e487b7100000000000000000000000000000000000000000000000000000000600052602260045260246000fd5b6000600282049050600182168061036257607f821691505b6020821081036103755761037461031b565b5b5091905056fea2646970667358221220a6da38f738926ff61c9d74a3909a53e38a39045d3549e6e8cbefe8e8fba0383e64736f6c63430008120033",
			"opcodes": "PUSH1 0x80 PUSH1 0x40 MSTORE CALLVALUE DUP1 ISZERO PUSH3 0x11 JUMPI PUSH1 0x0 DUP1 REVERT JUMPDEST POP PUSH1 0x40 MLOAD PUSH3 0xA1C CODESIZE SUB DUP1 PUSH3 0xA1C DUP4 CODECOPY DUP2 DUP2 ADD PUSH1 0x40 MSTORE DUP2 ADD SWAP1 PUSH3 0x37 SWAP2 SWAP1 PUSH3 0x299 JUMP JUMPDEST DUP3 PUSH1 0x0 SWAP1 DUP2 PUSH3 0x48 SWAP2 SWAP1 PUSH3 0x574 JUMP JUMPDEST POP DUP2 PUSH1 0x1 SWAP1 DUP2 PUSH3 0x5A SWAP2 SWAP1 PUSH3 0x574 JUMP JUMPDEST POP PUSH1 0x12 PUSH1 0x2 PUSH1 0x0 PUSH2 0x100 EXP DUP2 SLOAD DUP2 PUSH1 0xFF MUL NOT AND SWAP1 DUP4 PUSH1 0xFF AND MUL OR SWAP1 SSTORE POP DUP1 PUSH1 0x3 DUP2 SWAP1 SSTORE POP DUP1 PUSH1 0x4 PUSH1 0x0 CALLER PUSH20 0xFFFFFFFFFFFFFFFFFFFFFFFFFFFFFFFFFFFFFFFF AND PUSH20 0xFFFFFFFFFFFFFFFFFFFFFFFFFFFFFFFFFFFFFFFF AND DUP2 MSTORE PUSH1 0x20 ADD SWAP1 DUP2 MSTORE PUSH1 0x20 ADD PUSH1 0x0 KECCAK256 DUP2 SWAP1 SSTORE POP POP POP POP PUSH3 0x65B JUMP JUMPDEST PUSH1 0x0 PUSH1 0x40 MLOAD SWAP1 POP SWAP1 JUMP JUMPDEST PUSH1 0x0 DUP1 REVERT JUMPDEST PUSH1 0x0 DUP1 REVERT JUMPDEST PUSH1 0x0 DUP1 REVERT JUMPDEST PUSH1 0x0 DUP1 REVERT JUMPDEST PUSH1 0x0 PUSH1 0x1F NOT PUSH1 0x1F DUP4 ADD AND SWAP1 POP SWAP2 SWAP1 POP JUMP JUMPDEST PUSH32 0x4E487B7100000000000000000000000000000000000000000000000000000000 PUSH1 0x0 MSTORE PUSH1 0x41 PUSH1 0x4 MSTORE PUSH1 0x24 PUSH1 0x0 REVERT JUMPDEST PUSH3 0x134 DUP3 PUSH3 0xE9 JUMP JUMPDEST DUP2 ADD DUP2 DUP2 LT PUSH8 0xFFFFFFFFFFFFFFFF DUP3 GT OR ISZERO PUSH3 0x156 JUMPI PUSH3 0x155 PUSH3 0xFA JUMP JUMPDEST JUMPDEST DUP1 PUSH1 0x40 MSTORE POP POP POP JUMP JUMPDEST PUSH1 0x0 PUSH3 0x16B PUSH3 0xCB JUMP JUMPDEST SWAP1 POP PUSH3 0x179 DUP3 DUP3 PUSH3 0x129 JUMP JUMPDEST SWAP2 SWAP1 POP JUMP JUMPDEST PUSH1 0x0 PUSH8 0xFFFFFFFFFFFFFFFF DUP3 GT ISZERO PUSH3 0x19C JUMPI PUSH3 0x19B PUSH3 0xFA JUMP JUMPDEST JUMPDEST PUSH3 0x1A7 DUP3 PUSH3 0xE9 JUMP JUMPDEST SWAP1 POP PUSH1 0x20 DUP2 ADD SWAP1 POP SWAP2 SWAP1 POP JUMP JUMPDEST PUSH1 0x0 JUMPDEST DUP4 DUP2 LT ISZERO PUSH3 0x1D4 JUMPI DUP1 DUP3 ADD MLOAD DUP2 DUP5 ADD MSTORE PUSH1 0x20 DUP2 ADD SWAP1 POP PUSH3 0x1B7 JUMP JUMPDEST PUSH1 0x0 DUP5 DUP5 ADD MSTORE POP POP POP POP JUMP JUMPDEST PUSH1 0x0 PUSH3 0x1F7 PUSH3 0x1F1 DUP5 PUSH3 0x17E JUMP JUMPDEST PUSH3 0x15F JUMP JUMPDEST SWAP1 POP DUP3 DUP2 MSTORE PUSH1 0x20 DUP2 ADD DUP5 DUP5 DUP5 ADD GT ISZERO PUSH3 0x216 JUMPI PUSH3 0x215 PUSH3 0xE4 JUMP JUMPDEST JUMPDEST PUSH3 0x223 DUP5 DUP3 DUP6 PUSH3 0x1B4 JUMP JUMPDEST POP SWAP4 SWAP3 POP POP POP JUMP JUMPDEST PUSH1 0x0 DUP3 PUSH1 0x1F DUP4 ADD SLT PUSH3 0x243 JUMPI PUSH3 0x242 PUSH3 0xDF JUMP JUMPDEST JUMPDEST DUP2 MLOAD PUSH3 0x255 DUP5 DUP3 PUSH1 0x20 DUP7 ADD PUSH3 0x1E0 JUMP JUMPDEST SWAP2 POP POP SWAP3 SWAP2 POP POP JUMP JUMPDEST PUSH1 0x0 DUP2 SWAP1 POP SWAP2 SWAP1 POP JUMP JUMPDEST PUSH3 0x273 DUP2 PUSH3 0x25E JUMP JUMPDEST DUP2 EQ PUSH3 0x27F JUMPI PUSH1 0x0 DUP1 REVERT JUMPDEST POP JUMP JUMPDEST PUSH1 0x0 DUP2 MLOAD SWAP1 POP PUSH3 0x293 DUP2 PUSH3 0x268 JUMP JUMPDEST SWAP3 SWAP2 POP POP JUMP JUMPDEST PUSH1 0x0 DUP1 PUSH1 0x0 PUSH1 0x60 DUP5 DUP7 SUB SLT ISZERO PUSH3 0x2B5 JUMPI PUSH3 0x2B4 PUSH3 0xD5 JUMP JUMPDEST JUMPDEST PUSH1 0x0 DUP5 ADD MLOAD PUSH8 0xFFFFFFFFFFFFFFFF DUP2 GT ISZERO PUSH3 0x2D6 JUMPI PUSH3 0x2D5 PUSH3 0xDA JUMP JUMPDEST JUMPDEST PUSH3 0x2E4 DUP7 DUP3 DUP8 ADD PUSH3 0x22B JUMP JUMPDEST SWAP4 POP POP PUSH1 0x20 DUP5 ADD MLOAD PUSH8 0xFFFFFFFFFFFFFFFF DUP2 GT ISZERO PUSH3 0x308 JUMPI PUSH3 0x307 PUSH3 0xDA JUMP JUMPDEST JUMPDEST PUSH3 0x316 DUP7 DUP3 DUP8 ADD PUSH3 0x22B JUMP JUMPDEST SWAP3 POP POP PUSH1 0x40 PUSH3 0x329 DUP7 DUP3 DUP8 ADD PUSH3 0x282 JUMP JUMPDEST SWAP2 POP POP SWAP3 POP SWAP3 POP SWAP3 JUMP JUMPDEST PUSH1 0x0 DUP2 MLOAD SWAP1 POP SWAP2 SWAP1 POP JUMP JUMPDEST PUSH32 0x4E487B7100000000000000000000000000000000000000000000000000000000 PUSH1 0x0 MSTORE PUSH1 0x22 PUSH1 0x4 MSTORE PUSH1 0x24 PUSH1 0x0 REVERT JUMPDEST PUSH1 0x0 PUSH1 0x2 DUP3 DIV SWAP1 POP PUSH1 0x1 DUP3 AND DUP1 PUSH3 0x386 JUMPI PUSH1 0x7F DUP3 AND SWAP2 POP JUMPDEST PUSH1 0x20 DUP3 LT DUP2 SUB PUSH3 0x39C JUMPI PUSH3 0x39B PUSH3 0x33E JUMP JUMPDEST JUMPDEST POP SWAP2 SWAP1 POP JUMP JUMPDEST PUSH1 0x0 DUP2 SWAP1 POP DUP2 PUSH1 0x0 MSTORE PUSH1 0x20 PUSH1 0x0 KECCAK256 SWAP1 POP SWAP2 SWAP1 POP JUMP JUMPDEST PUSH1 0x0 PUSH1 0x20 PUSH1 0x1F DUP4 ADD DIV SWAP1 POP SWAP2 SWAP1 POP JUMP JUMPDEST PUSH1 0x0 DUP3 DUP3 SHL SWAP1 POP SWAP3 SWAP2 POP POP JUMP JUMPDEST PUSH1 0x0 PUSH1 0x8 DUP4 MUL PUSH3 0x406 PUSH32 0xFFFFFFFFFFFFFFFFFFFFFFFFFFFFFFFFFFFFFFFFFFFFFFFFFFFFFFFFFFFFFFFF DUP3 PUSH3 0x3C7 JUMP JUMPDEST PUSH3 0x412 DUP7 DUP4 PUSH3 0x3C7 JUMP JUMPDEST SWAP6 POP DUP1 NOT DUP5 AND SWAP4 POP DUP1 DUP7 AND DUP5 OR SWAP3 POP POP POP SWAP4 SWAP3 POP POP POP JUMP JUMPDEST PUSH1 0x0 DUP2 SWAP1 POP SWAP2 SWAP1 POP JUMP JUMPDEST PUSH1 0x0 PUSH3 0x455 PUSH3 0x44F PUSH3 0x449 DUP5 PUSH3 0x25E JUMP JUMPDEST PUSH3 0x42A JUMP JUMPDEST PUSH3 0x25E JUMP JUMPDEST SWAP1 POP SWAP2 SWAP1 POP JUMP JUMPDEST PUSH1 0x0 DUP2 SWAP1 POP SWAP2 SWAP1 POP JUMP JUMPDEST PUSH3 0x471 DUP4 PUSH3 0x434 JUMP JUMPDEST PUSH3 0x489 PUSH3 0x480 DUP3 PUSH3 0x45C JUMP JUMPDEST DUP5 DUP5 SLOAD PUSH3 0x3D4 JUMP JUMPDEST DUP3 SSTORE POP POP POP POP JUMP JUMPDEST PUSH1 0x0 SWAP1 JUMP JUMPDEST PUSH3 0x4A0 PUSH3 0x491 JUMP JUMPDEST PUSH3 0x4AD DUP2 DUP5 DUP5 PUSH3 0x466 JUMP JUMPDEST POP POP POP JUMP JUMPDEST JUMPDEST DUP2 DUP2 LT ISZERO PUSH3 0x4D5 JUMPI PUSH3 0x4C9 PUSH1 0x0 DUP3 PUSH3 0x496 JUMP JUMPDEST PUSH1 0x1 DUP2 ADD SWAP1 POP PUSH3 0x4B3 JUMP JUMPDEST POP POP JUMP JUMPDEST PUSH1 0x1F DUP3 GT ISZERO PUSH3 0x524 JUMPI PUSH3 0x4EE DUP2 PUSH3 0x3A2 JUMP JUMPDEST PUSH3 0x4F9 DUP5 PUSH3 0x3B7 JUMP JUMPDEST DUP2 ADD PUSH1 0x20 DUP6 LT ISZERO PUSH3 0x509 JUMPI DUP2 SWAP1 POP JUMPDEST PUSH3 0x521 PUSH3 0x518 DUP6 PUSH3 0x3B7 JUMP JUMPDEST DUP4 ADD DUP3 PUSH3 0x4B2 JUMP JUMPDEST POP POP JUMPDEST POP POP POP JUMP JUMPDEST PUSH1 0x0 DUP3 DUP3 SHR SWAP1 POP SWAP3 SWAP2 POP POP JUMP JUMPDEST PUSH1 0x0 PUSH3 0x549 PUSH1 0x0 NOT DUP5 PUSH1 0x8 MUL PUSH3 0x529 JUMP JUMPDEST NOT DUP1 DUP4 AND SWAP2 POP POP SWAP3 SWAP2 POP POP JUMP JUMPDEST PUSH1 0x0 PUSH3 0x564 DUP4 DUP4 PUSH3 0x536 JUMP JUMPDEST SWAP2 POP DUP3 PUSH1 0x2 MUL DUP3 OR SWAP1 POP SWAP3 SWAP2 POP POP JUMP JUMPDEST PUSH3 0x57F DUP3 PUSH3 0x333 JUMP JUMPDEST PUSH8 0xFFFFFFFFFFFFFFFF DUP2 GT ISZERO PUSH3 0x59B JUMPI PUSH3 0x59A PUSH3 0xFA JUMP JUMPDEST JUMPDEST PUSH3 0x5A7 DUP3 SLOAD PUSH3 0x36D JUMP JUMPDEST PUSH3 0x5B4 DUP3 DUP3 DUP6 PUSH3 0x4D9 JUMP JUMPDEST PUSH1 0x0 PUSH1 0x20 SWAP1 POP PUSH1 0x1F DUP4 GT PUSH1 0x1 DUP2 EQ PUSH3 0x5EC JUMPI PUSH1 0x0 DUP5 ISZERO PUSH3 0x5D7 JUMPI DUP3 DUP8 ADD MLOAD SWAP1 POP JUMPDEST PUSH3 0x5E3 DUP6 DUP3 PUSH3 0x556 JUMP JUMPDEST DUP7 SSTORE POP PUSH3 0x653 JUMP JUMPDEST PUSH1 0x1F NOT DUP5 AND PUSH3 0x5FC DUP7 PUSH3 0x3A2 JUMP JUMPDEST PUSH1 0x0 JUMPDEST DUP3 DUP2 LT ISZERO PUSH3 0x626 JUMPI DUP5 DUP10 ADD MLOAD DUP3 SSTORE PUSH1 0x1 DUP3 ADD SWAP2 POP PUSH1 0x20 DUP6 ADD SWAP5 POP PUSH1 0x20 DUP2 ADD SWAP1 POP PUSH3 0x5FF JUMP JUMPDEST DUP7 DUP4 LT ISZERO PUSH3 0x646 JUMPI DUP5 DUP10 ADD MLOAD PUSH3 0x642 PUSH1 0x1F DUP10 AND DUP3 PUSH3 0x536 JUMP JUMPDEST DUP4 SSTORE POP JUMPDEST PUSH1 0x1 PUSH1 0x2 DUP9 MUL ADD DUP9 SSTORE POP POP POP JUMPDEST POP POP POP POP POP POP JUMP JUMPDEST PUSH2 0x3B1 DUP1 PUSH3 0x66B PUSH1 0x0 CODECOPY PUSH1 0x0 RETURN INVALID PUSH1 0x80 PUSH1 0x40 MSTORE CALLVALUE DUP1 ISZERO PUSH2 0x10 JUMPI PUSH1 0x0 DUP1 REVERT JUMPDEST POP PUSH1 0x4 CALLDATASIZE LT PUSH2 0x4C JUMPI PUSH1 0x0 CALLDATALOAD PUSH1 0xE0 SHR DUP1 PUSH4 0x6FDDE03 EQ PUSH2 0x51 JUMPI DUP1 PUSH4 0x18160DDD EQ PUSH2 0x6F JUMPI DUP1 PUSH4 0x313CE567 EQ PUSH2 0x8D JUMPI DUP1 PUSH4 0x95D89B41 EQ PUSH2 0xAB JUMPI JUMPDEST PUSH1 0x0 DUP1 REVERT JUMPDEST PUSH2 0x59 PUSH2 0xC9 JUMP JUMPDEST PUSH1 0x40 MLOAD PUSH2 0x66 SWAP2 SWAP1 PUSH2 0x28E JUMP JUMPDEST PUSH1 0x40 MLOAD DUP1 SWAP2 SUB SWAP1 RETURN JUMPDEST PUSH2 0x77 PUSH2 0x157 JUMP JUMPDEST PUSH1 0x40 MLOAD PUSH2 0x84 SWAP2 SWAP1 PUSH2 0x2C9 JUMP JUMPDEST PUSH1 0x40 MLOAD DUP1 SWAP2 SUB SWAP1 RETURN JUMPDEST PUSH2 0x95 PUSH2 0x15D JUMP JUMPDEST PUSH1 0x40 MLOAD PUSH2 0xA2 SWAP2 SWAP1 PUSH2 0x300 JUMP JUMPDEST PUSH1 0x40 MLOAD DUP1 SWAP2 SUB SWAP1 RETURN JUMPDEST PUSH2 0xB3 PUSH2 0x170 JUMP JUMPDEST PUSH1 0x40 MLOAD PUSH2 0xC0 SWAP2 SWAP1 PUSH2 0x28E JUMP JUMPDEST PUSH1 0x40 MLOAD DUP1 SWAP2 SUB SWAP1 RETURN JUMPDEST PUSH1 0x0 DUP1 SLOAD PUSH2 0xD6 SWAP1 PUSH2 0x34A JUMP JUMPDEST DUP1 PUSH1 0x1F ADD PUSH1 0x20 DUP1 SWAP2 DIV MUL PUSH1 0x20 ADD PUSH1 0x40 MLOAD SWAP1 DUP2 ADD PUSH1 0x40 MSTORE DUP1 SWAP3 SWAP2 SWAP1 DUP2 DUP2 MSTORE PUSH1 0x20 ADD DUP3 DUP1 SLOAD PUSH2 0x102 SWAP1 PUSH2 0x34A JUMP JUMPDEST DUP1 ISZERO PUSH2 0x14F JUMPI DUP1 PUSH1 0x1F LT PUSH2 0x124 JUMPI PUSH2 0x100 DUP1 DUP4 SLOAD DIV MUL DUP4 MSTORE SWAP2 PUSH1 0x20 ADD SWAP2 PUSH2 0x14F JUMP JUMPDEST DUP3 ADD SWAP2 SWAP1 PUSH1 0x0 MSTORE PUSH1 0x20 PUSH1 0x0 KECCAK256 SWAP1 JUMPDEST DUP2 SLOAD DUP2 MSTORE SWAP1 PUSH1 0x1 ADD SWAP1 PUSH1 0x20 ADD DUP1 DUP4 GT PUSH2 0x132 JUMPI DUP3 SWAP1 SUB PUSH1 0x1F AND DUP3 ADD SWAP2 JUMPDEST POP POP POP POP POP DUP2 JUMP JUMPDEST PUSH1 0x3 SLOAD DUP2 JUMP JUMPDEST PUSH1 0x2 PUSH1 0x0 SWAP1 SLOAD SWAP1 PUSH2 0x100 EXP SWAP1 DIV PUSH1 0xFF AND DUP2 JUMP JUMPDEST PUSH1 0x1 DUP1 SLOAD PUSH2 0x17D SWAP1 PUSH2 0x34A JUMP JUMPDEST DUP1 PUSH1 0x1F ADD PUSH1 0x20 DUP1 SWAP2 DIV MUL PUSH1 0x20 ADD PUSH1 0x40 MLOAD SWAP1 DUP2 ADD PUSH1 0x40 MSTORE DUP1 SWAP3 SWAP2 SWAP1 DUP2 DUP2 MSTORE PUSH1 0x20 ADD DUP3 DUP1 SLOAD PUSH2 0x1A9 SWAP1 PUSH2 0x34A JUMP JUMPDEST DUP1 ISZERO PUSH2 0x1F6 JUMPI DUP1 PUSH1 0x1F LT PUSH2 0x1CB JUMPI PUSH2 0x100 DUP1 DUP4 SLOAD DIV MUL DUP4 MSTORE SWAP2 PUSH1 0x20 ADD SWAP2 PUSH2 0x1F6 JUMP JUMPDEST DUP3 ADD SWAP2 SWAP1 PUSH1 0x0 MSTORE PUSH1 0x20 PUSH1 0x0 KECCAK256 SWAP1 JUMPDEST DUP2 SLOAD DUP2 MSTORE SWAP1 PUSH1 0x1 ADD SWAP1 PUSH1 0x20 ADD DUP1 DUP4 GT PUSH2 0x1D9 JUMPI DUP3 SWAP1 SUB PUSH1 0x1F AND DUP3 ADD SWAP2 JUMPDEST POP POP POP POP POP DUP2 JUMP JUMPDEST PUSH1 0x0 DUP2 MLOAD SWAP1 POP SWAP2 SWAP1 POP JUMP JUMPDEST PUSH1 0x0 DUP3 DUP3 MSTORE PUSH1 0x20 DUP3 ADD SWAP1 POP SWAP3 SWAP2 POP POP JUMP JUMPDEST PUSH1 0x0 JUMPDEST DUP4 DUP2 LT ISZERO PUSH2 0x238 JUMPI DUP1 DUP3 ADD MLOAD DUP2 DUP5 ADD MSTORE PUSH1 0x20 DUP2 ADD SWAP1 POP PUSH2 0x21D JUMP JUMPDEST PUSH1 0x0 DUP5 DUP5 ADD MSTORE POP POP POP POP JUMP JUMPDEST PUSH1 0x0 PUSH1 0x1F NOT PUSH1 0x1F DUP4 ADD AND SWAP1 POP SWAP2 SWAP1 POP JUMP JUMPDEST PUSH1 0x0 PUSH2 0x260 DUP3 PUSH2 0x1FE JUMP JUMPDEST PUSH2 0x26A DUP2 DUP6 PUSH2 0x209 JUMP JUMPDEST SWAP4 POP PUSH2 0x27A DUP2 DUP6 PUSH1 0x20 DUP7 ADD PUSH2 0x21A JUMP JUMPDEST PUSH2 0x283 DUP2 PUSH2 0x244 JUMP JUMPDEST DUP5 ADD SWAP2 POP POP SWAP3 SWAP2 POP POP JUMP JUMPDEST PUSH1 0x0 PUSH1 0x20 DUP3 ADD SWAP1 POP DUP2 DUP2 SUB PUSH1 0x0 DUP4 ADD MSTORE PUSH2 0x2A8 DUP2 DUP5 PUSH2 0x255 JUMP JUMPDEST SWAP1 POP SWAP3 SWAP2 POP POP JUMP JUMPDEST PUSH1 0x0 DUP2 SWAP1 POP SWAP2 SWAP1 POP JUMP JUMPDEST PUSH2 0x2C3 DUP2 PUSH2 0x2B0 JUMP JUMPDEST DUP3 MSTORE POP POP JUMP JUMPDEST PUSH1 0x0 PUSH1 0x20 DUP3 ADD SWAP1 POP PUSH2 0x2DE PUSH1 0x0 DUP4 ADD DUP5 PUSH2 0x2BA JUMP JUMPDEST SWAP3 SWAP2 POP POP JUMP JUMPDEST PUSH1 0x0 PUSH1 0xFF DUP3 AND SWAP1 POP SWAP2 SWAP1 POP JUMP JUMPDEST PUSH2 0x2FA DUP2 PUSH2 0x2E4 JUMP JUMPDEST DUP3 MSTORE POP POP JUMP JUMPDEST PUSH1 0x0 PUSH1 0x20 DUP3 ADD SWAP1 POP PUSH2 0x315 PUSH1 0x0 DUP4 ADD DUP5 PUSH2 0x2F1 JUMP JUMPDEST SWAP3 SWAP2 POP POP JUMP JUMPDEST PUSH32 0x4E487B7100000000000000000000000000000000000000000000000000000000 PUSH1 0x0 MSTORE PUSH1 0x22 PUSH1 0x4 MSTORE PUSH1 0x24 PUSH1 0x0 REVERT JUMPDEST PUSH1 0x0 PUSH1 0x2 DUP3 DIV SWAP1 POP PUSH1 0x1 DUP3 AND DUP1 PUSH2 0x362 JUMPI PUSH1 0x7F DUP3 AND SWAP2 POP JUMPDEST PUSH1 0x20 DUP3 LT DUP2 SUB PUSH2 0x375 JUMPI PUSH2 0x374 PUSH2 0x31B JUMP JUMPDEST JUMPDEST POP SWAP2 SWAP1 POP JUMP INVALID LOG2 PUSH5 0x6970667358 0x22 SLT KECCAK256 0xA6 0xDA CODESIZE 0xF7 CODESIZE SWAP3 PUSH16 0xF61C9D74A3909A53E38A39045D3549E6 0xE8 0xCB 0xEF 0xE8 0xE8 0xFB LOG0 CODESIZE RETURNDATACOPY PUSH5 0x736F6C6343 STOP ADDMOD SLT STOP CALLER "
		},
		"gasEstimates": {
			"creation": {
				"codeDepositCost": "189000",
				"executionCost": "infinite",
				"totalCost": "infinite"
			},
			"external": {
				"decimals()": "2493",
				"name()": "infinite",
				"symbol()": "infinite",
				"totalSupply()": "2429"
			}
		},
		"methodIdentifiers": {
			"decimals()": "313ce567",
			"name()": "06fdde03",
			"symbol()": "95d89b41",
			"totalSupply()": "18160ddd"
		}
	},
	"abi": [
		{
			"inputs": [
				{
					"internalType": "string",
					"name": "_name",
					"type": "string"
				},
				{
					"internalType": "string",
					"name": "_symbol",
					"type": "string"
				},
				{
					"internalType": "uint256",
					"name": "_totalSupply",
					"type": "uint256"
				}
			],
			"stateMutability": "nonpayable",
			"type": "constructor"
		},
		{
			"anonymous": false,
			"inputs": [
				{
					"indexed": true,
					"internalType": "address",
					"name": "_owner",
					"type": "address"
				},
				{
					"indexed": true,
					"internalType": "address",
					"name": "_spender",
					"type": "address"
				},
				{
					"indexed": false,
					"internalType": "uint256",
					"name": "_value",
					"type": "uint256"
				}
			],
			"name": "Approval",
			"type": "event"
		},
		{
			"anonymous": false,
			"inputs": [
				{
					"indexed": true,
					"internalType": "address",
					"name": "_from",
					"type": "address"
				},
				{
					"indexed": true,
					"internalType": "address",
					"name": "_to",
					"type": "address"
				},
				{
					"indexed": false,
					"internalType": "uint256",
					"name": "_value",
					"type": "uint256"
				}
			],
			"name": "Transfer",
			"type": "event"
		},
		{
			"inputs": [],
			"name": "decimals",
			"outputs": [
				{
					"internalType": "uint8",
					"name": "",
					"type": "uint8"
				}
			],
			"stateMutability": "view",
			"type": "function"
		},
		{
			"inputs": [],
			"name": "name",
			"outputs": [
				{
					"internalType": "string",
					"name": "",
					"type": "string"
				}
			],
			"stateMutability": "view",
			"type": "function"
		},
		{
			"inputs": [],
			"name": "symbol",
			"outputs": [
				{
					"internalType": "string",
					"name": "",
					"type": "string"
				}
			],
			"stateMutability": "view",
			"type": "function"
		},
		{
			"inputs": [],
			"name": "totalSupply",
			"outputs": [
				{
					"internalType": "uint256",
					"name": "",
					"type": "uint256"
				}
			],
			"stateMutability": "view",
			"type": "function"
		}
	]
}