{
	"Assignment 4 Tokens/final.sol": {
		"finaL": {
			"abi": [
				{
					"inputs": [],
					"stateMutability": "nonpayable",
					"type": "constructor"
				},
				{
					"anonymous": false,
					"inputs": [
						{
							"indexed": false,
							"internalType": "address",
							"name": "_address",
							"type": "address"
						},
						{
							"indexed": false,
							"internalType": "uint256",
							"name": "_bidamount",
							"type": "uint256"
						}
					],
					"name": "Bid",
					"type": "event"
				},
				{
					"anonymous": false,
					"inputs": [
						{
							"indexed": false,
							"internalType": "address",
							"name": "owner",
							"type": "address"
						},
						{
							"indexed": false,
							"internalType": "uint256",
							"name": "id",
							"type": "uint256"
						},
						{
							"indexed": false,
							"internalType": "string",
							"name": "name",
							"type": "string"
						}
					],
					"name": "createItem",
					"type": "event"
				},
				{
					"anonymous": false,
					"inputs": [
						{
							"indexed": false,
							"internalType": "address",
							"name": "_from",
							"type": "address"
						},
						{
							"indexed": false,
							"internalType": "address",
							"name": "_to",
							"type": "address"
						},
						{
							"components": [
								{
									"internalType": "string",
									"name": "name",
									"type": "string"
								},
								{
									"internalType": "uint256",
									"name": "lastBid",
									"type": "uint256"
								},
								{
									"internalType": "uint256",
									"name": "highestBid",
									"type": "uint256"
								},
								{
									"internalType": "address",
									"name": "highestBider",
									"type": "address"
								},
								{
									"internalType": "uint256",
									"name": "auction_time",
									"type": "uint256"
								},
								{
									"internalType": "address",
									"name": "lastHighestBider",
									"type": "address"
								}
							],
							"indexed": false,
							"internalType": "struct finaL.itemD",
							"name": "_item",
							"type": "tuple"
						}
					],
					"name": "transfer",
					"type": "event"
				},
				{
					"inputs": [
						{
							"internalType": "uint256",
							"name": "id",
							"type": "uint256"
						},
						{
							"internalType": "string",
							"name": "_name",
							"type": "string"
						}
					],
					"name": "CreateItem",
					"outputs": [],
					"stateMutability": "nonpayable",
					"type": "function"
				},
				{
					"inputs": [
						{
							"internalType": "address",
							"name": "_address",
							"type": "address"
						},
						{
							"internalType": "uint256",
							"name": "id",
							"type": "uint256"
						}
					],
					"name": "cancelAuction",
					"outputs": [],
					"stateMutability": "nonpayable",
					"type": "function"
				},
				{
					"inputs": [
						{
							"internalType": "address",
							"name": "_address",
							"type": "address"
						},
						{
							"internalType": "uint256",
							"name": "id",
							"type": "uint256"
						}
					],
					"name": "getHighestBid",
					"outputs": [
						{
							"internalType": "uint256",
							"name": "",
							"type": "uint256"
						}
					],
					"stateMutability": "view",
					"type": "function"
				},
				{
					"inputs": [
						{
							"internalType": "address",
							"name": "_address",
							"type": "address"
						},
						{
							"internalType": "uint256",
							"name": "id",
							"type": "uint256"
						}
					],
					"name": "getWinningBidder",
					"outputs": [
						{
							"internalType": "address",
							"name": "",
							"type": "address"
						}
					],
					"stateMutability": "view",
					"type": "function"
				},
				{
					"inputs": [
						{
							"internalType": "address",
							"name": "",
							"type": "address"
						},
						{
							"internalType": "uint256",
							"name": "",
							"type": "uint256"
						}
					],
					"name": "itemDetails",
					"outputs": [
						{
							"internalType": "string",
							"name": "name",
							"type": "string"
						},
						{
							"internalType": "uint256",
							"name": "lastBid",
							"type": "uint256"
						},
						{
							"internalType": "uint256",
							"name": "highestBid",
							"type": "uint256"
						},
						{
							"internalType": "address",
							"name": "highestBider",
							"type": "address"
						},
						{
							"internalType": "uint256",
							"name": "auction_time",
							"type": "uint256"
						},
						{
							"internalType": "address",
							"name": "lastHighestBider",
							"type": "address"
						}
					],
					"stateMutability": "view",
					"type": "function"
				},
				{
					"inputs": [
						{
							"internalType": "address payable",
							"name": "_address",
							"type": "address"
						},
						{
							"internalType": "uint256",
							"name": "id",
							"type": "uint256"
						},
						{
							"internalType": "uint256",
							"name": "id2",
							"type": "uint256"
						}
					],
					"name": "ownershipTransfer",
					"outputs": [],
					"stateMutability": "nonpayable",
					"type": "function"
				},
				{
					"inputs": [
						{
							"internalType": "address",
							"name": "_address",
							"type": "address"
						},
						{
							"internalType": "uint256",
							"name": "id",
							"type": "uint256"
						}
					],
					"name": "placeBid",
					"outputs": [],
					"stateMutability": "payable",
					"type": "function"
				},
				{
					"inputs": [],
					"name": "withdraw",
					"outputs": [],
					"stateMutability": "nonpayable",
					"type": "function"
				}
			],
			"devdoc": {
				"kind": "dev",
				"methods": {},
				"version": 1
			},
			"evm": {
				"assembly": "    /* \"Assignment 4 Tokens/final.sol\":180:3314  contract finaL  {... */\n  mstore(0x40, 0x80)\n    /* \"Assignment 4 Tokens/final.sol\":533:593  constructor() {... */\n  callvalue\n  dup1\n  iszero\n  tag_1\n  jumpi\n  0x00\n  dup1\n  revert\ntag_1:\n  pop\n    /* \"Assignment 4 Tokens/final.sol\":570:580  msg.sender */\n  caller\n    /* \"Assignment 4 Tokens/final.sol\":562:567  Owner */\n  0x00\n  dup1\n    /* \"Assignment 4 Tokens/final.sol\":562:580  Owner = msg.sender */\n  0x0100\n  exp\n  dup2\n  sload\n  dup2\n  0xffffffffffffffffffffffffffffffffffffffff\n  mul\n  not\n  and\n  swap1\n  dup4\n  0xffffffffffffffffffffffffffffffffffffffff\n  and\n  mul\n  or\n  swap1\n  sstore\n  pop\n    /* \"Assignment 4 Tokens/final.sol\":180:3314  contract finaL  {... */\n  dataSize(sub_0)\n  dup1\n  dataOffset(sub_0)\n  0x00\n  codecopy\n  0x00\n  return\nstop\n\nsub_0: assembly {\n        /* \"Assignment 4 Tokens/final.sol\":180:3314  contract finaL  {... */\n      mstore(0x40, 0x80)\n      jumpi(tag_1, lt(calldatasize, 0x04))\n      shr(0xe0, calldataload(0x00))\n      dup1\n      0x8226508d\n      gt\n      tag_10\n      jumpi\n      dup1\n      0x8226508d\n      eq\n      tag_6\n      jumpi\n      dup1\n      0x859b97fe\n      eq\n      tag_7\n      jumpi\n      dup1\n      0xc8b5555c\n      eq\n      tag_8\n      jumpi\n      dup1\n      0xd98b9bb5\n      eq\n      tag_9\n      jumpi\n      jump(tag_1)\n    tag_10:\n      dup1\n      0x069ea362\n      eq\n      tag_2\n      jumpi\n      dup1\n      0x32627af9\n      eq\n      tag_3\n      jumpi\n      dup1\n      0x3ccfd60b\n      eq\n      tag_4\n      jumpi\n      dup1\n      0x7090c36e\n      eq\n      tag_5\n      jumpi\n    tag_1:\n      0x00\n      dup1\n      revert\n        /* \"Assignment 4 Tokens/final.sol\":455:518  mapping(address => mapping(uint256 =>itemD)) public itemDetails */\n    tag_2:\n      callvalue\n      dup1\n      iszero\n      tag_11\n      jumpi\n      0x00\n      dup1\n      revert\n    tag_11:\n      pop\n      tag_12\n      0x04\n      dup1\n      calldatasize\n      sub\n      dup2\n      add\n      swap1\n      tag_13\n      swap2\n      swap1\n      tag_14\n      jump\t// in\n    tag_13:\n      tag_15\n      jump\t// in\n    tag_12:\n      mload(0x40)\n      tag_16\n      swap7\n      swap6\n      swap5\n      swap4\n      swap3\n      swap2\n      swap1\n      tag_17\n      jump\t// in\n    tag_16:\n      mload(0x40)\n      dup1\n      swap2\n      sub\n      swap1\n      return\n        /* \"Assignment 4 Tokens/final.sol\":813:1339  function CreateItem(uint256 id, string memory _name) public {... */\n    tag_3:\n      callvalue\n      dup1\n      iszero\n      tag_18\n      jumpi\n      0x00\n      dup1\n      revert\n    tag_18:\n      pop\n      tag_19\n      0x04\n      dup1\n      calldatasize\n      sub\n      dup2\n      add\n      swap1\n      tag_20\n      swap2\n      swap1\n      tag_21\n      jump\t// in\n    tag_20:\n      tag_22\n      jump\t// in\n    tag_19:\n      stop\n        /* \"Assignment 4 Tokens/final.sol\":3104:3309  function withdraw() public {... */\n    tag_4:\n      callvalue\n      dup1\n      iszero\n      tag_23\n      jumpi\n      0x00\n      dup1\n      revert\n    tag_23:\n      pop\n      tag_24\n      tag_25\n      jump\t// in\n    tag_24:\n      stop\n        /* \"Assignment 4 Tokens/final.sol\":2374:2521  function getWinningBidder(address _address,uint256 id) public view returns(address){... */\n    tag_5:\n      callvalue\n      dup1\n      iszero\n      tag_26\n      jumpi\n      0x00\n      dup1\n      revert\n    tag_26:\n      pop\n      tag_27\n      0x04\n      dup1\n      calldatasize\n      sub\n      dup2\n      add\n      swap1\n      tag_28\n      swap2\n      swap1\n      tag_14\n      jump\t// in\n    tag_28:\n      tag_29\n      jump\t// in\n    tag_27:\n      mload(0x40)\n      tag_30\n      swap2\n      swap1\n      tag_31\n      jump\t// in\n    tag_30:\n      mload(0x40)\n      dup1\n      swap2\n      sub\n      swap1\n      return\n        /* \"Assignment 4 Tokens/final.sol\":2222:2366  function getHighestBid(address _address, uint256 id) public view returns(uint256) {... */\n    tag_6:\n      callvalue\n      dup1\n      iszero\n      tag_32\n      jumpi\n      0x00\n      dup1\n      revert\n    tag_32:\n      pop\n      tag_33\n      0x04\n      dup1\n      calldatasize\n      sub\n      dup2\n      add\n      swap1\n      tag_34\n      swap2\n      swap1\n      tag_14\n      jump\t// in\n    tag_34:\n      tag_35\n      jump\t// in\n    tag_33:\n      mload(0x40)\n      tag_36\n      swap2\n      swap1\n      tag_37\n      jump\t// in\n    tag_36:\n      mload(0x40)\n      dup1\n      swap2\n      sub\n      swap1\n      return\n        /* \"Assignment 4 Tokens/final.sol\":2529:2781  function cancelAuction(address _address,uint256 id) public  {... */\n    tag_7:\n      callvalue\n      dup1\n      iszero\n      tag_38\n      jumpi\n      0x00\n      dup1\n      revert\n    tag_38:\n      pop\n      tag_39\n      0x04\n      dup1\n      calldatasize\n      sub\n      dup2\n      add\n      swap1\n      tag_40\n      swap2\n      swap1\n      tag_14\n      jump\t// in\n    tag_40:\n      tag_41\n      jump\t// in\n    tag_39:\n      stop\n        /* \"Assignment 4 Tokens/final.sol\":2789:3095  function ownershipTransfer(address payable  _address,uint256 id, uint256 id2) public {... */\n    tag_8:\n      callvalue\n      dup1\n      iszero\n      tag_42\n      jumpi\n      0x00\n      dup1\n      revert\n    tag_42:\n      pop\n      tag_43\n      0x04\n      dup1\n      calldatasize\n      sub\n      dup2\n      add\n      swap1\n      tag_44\n      swap2\n      swap1\n      tag_45\n      jump\t// in\n    tag_44:\n      tag_46\n      jump\t// in\n    tag_43:\n      stop\n        /* \"Assignment 4 Tokens/final.sol\":1347:2214  function placeBid(address _address,uint256 id) public payable  {... */\n    tag_9:\n      tag_47\n      0x04\n      dup1\n      calldatasize\n      sub\n      dup2\n      add\n      swap1\n      tag_48\n      swap2\n      swap1\n      tag_14\n      jump\t// in\n    tag_48:\n      tag_49\n      jump\t// in\n    tag_47:\n      stop\n        /* \"Assignment 4 Tokens/final.sol\":455:518  mapping(address => mapping(uint256 =>itemD)) public itemDetails */\n    tag_15:\n      mstore(0x20, 0x01)\n      dup2\n      0x00\n      mstore\n      mstore(0x20, keccak256(0x00, 0x40))\n      dup1\n      0x00\n      mstore\n      keccak256(0x00, 0x40)\n      0x00\n      swap2\n      pop\n      swap2\n      pop\n      pop\n      dup1\n      0x00\n      add\n      dup1\n      sload\n      tag_50\n      swap1\n      tag_51\n      jump\t// in\n    tag_50:\n      dup1\n      0x1f\n      add\n      0x20\n      dup1\n      swap2\n      div\n      mul\n      0x20\n      add\n      mload(0x40)\n      swap1\n      dup2\n      add\n      0x40\n      mstore\n      dup1\n      swap3\n      swap2\n      swap1\n      dup2\n      dup2\n      mstore\n      0x20\n      add\n      dup3\n      dup1\n      sload\n      tag_52\n      swap1\n      tag_51\n      jump\t// in\n    tag_52:\n      dup1\n      iszero\n      tag_53\n      jumpi\n      dup1\n      0x1f\n      lt\n      tag_54\n      jumpi\n      0x0100\n      dup1\n      dup4\n      sload\n      div\n      mul\n      dup4\n      mstore\n      swap2\n      0x20\n      add\n      swap2\n      jump(tag_53)\n    tag_54:\n      dup3\n      add\n      swap2\n      swap1\n      0x00\n      mstore\n      keccak256(0x00, 0x20)\n      swap1\n    tag_55:\n      dup2\n      sload\n      dup2\n      mstore\n      swap1\n      0x01\n      add\n      swap1\n      0x20\n      add\n      dup1\n      dup4\n      gt\n      tag_55\n      jumpi\n      dup3\n      swap1\n      sub\n      0x1f\n      and\n      dup3\n      add\n      swap2\n    tag_53:\n      pop\n      pop\n      pop\n      pop\n      pop\n      swap1\n      dup1\n      0x01\n      add\n      sload\n      swap1\n      dup1\n      0x02\n      add\n      sload\n      swap1\n      dup1\n      0x03\n      add\n      0x00\n      swap1\n      sload\n      swap1\n      0x0100\n      exp\n      swap1\n      div\n      0xffffffffffffffffffffffffffffffffffffffff\n      and\n      swap1\n      dup1\n      0x04\n      add\n      sload\n      swap1\n      dup1\n      0x05\n      add\n      0x00\n      swap1\n      sload\n      swap1\n      0x0100\n      exp\n      swap1\n      div\n      0xffffffffffffffffffffffffffffffffffffffff\n      and\n      swap1\n      pop\n      dup7\n      jump\t// out\n        /* \"Assignment 4 Tokens/final.sol\":813:1339  function CreateItem(uint256 id, string memory _name) public {... */\n    tag_22:\n        /* \"Assignment 4 Tokens/final.sol\":914:915  0 */\n      0x00\n        /* \"Assignment 4 Tokens/final.sol\":892:916  msg.sender != address(0) */\n      0xffffffffffffffffffffffffffffffffffffffff\n      and\n        /* \"Assignment 4 Tokens/final.sol\":892:902  msg.sender */\n      caller\n        /* \"Assignment 4 Tokens/final.sol\":892:916  msg.sender != address(0) */\n      0xffffffffffffffffffffffffffffffffffffffff\n      and\n      sub\n        /* \"Assignment 4 Tokens/final.sol\":884:930  require(msg.sender != address(0) ,\"Not Valid\") */\n      tag_57\n      jumpi\n      mload(0x40)\n      0x08c379a000000000000000000000000000000000000000000000000000000000\n      dup2\n      mstore\n      0x04\n      add\n      tag_58\n      swap1\n      tag_59\n      jump\t// in\n    tag_58:\n      mload(0x40)\n      dup1\n      swap2\n      sub\n      swap1\n      revert\n    tag_57:\n        /* \"Assignment 4 Tokens/final.sol\":974:979  _name */\n      dup1\n        /* \"Assignment 4 Tokens/final.sol\":941:952  itemDetails */\n      0x01\n        /* \"Assignment 4 Tokens/final.sol\":941:964  itemDetails[msg.sender] */\n      0x00\n        /* \"Assignment 4 Tokens/final.sol\":953:963  msg.sender */\n      caller\n        /* \"Assignment 4 Tokens/final.sol\":941:964  itemDetails[msg.sender] */\n      0xffffffffffffffffffffffffffffffffffffffff\n      and\n      0xffffffffffffffffffffffffffffffffffffffff\n      and\n      dup2\n      mstore\n      0x20\n      add\n      swap1\n      dup2\n      mstore\n      0x20\n      add\n      0x00\n      keccak256\n        /* \"Assignment 4 Tokens/final.sol\":941:968  itemDetails[msg.sender][id] */\n      0x00\n        /* \"Assignment 4 Tokens/final.sol\":965:967  id */\n      dup5\n        /* \"Assignment 4 Tokens/final.sol\":941:968  itemDetails[msg.sender][id] */\n      dup2\n      mstore\n      0x20\n      add\n      swap1\n      dup2\n      mstore\n      0x20\n      add\n      0x00\n      keccak256\n        /* \"Assignment 4 Tokens/final.sol\":941:973  itemDetails[msg.sender][id].name */\n      0x00\n      add\n        /* \"Assignment 4 Tokens/final.sol\":941:979  itemDetails[msg.sender][id].name=_name */\n      swap1\n      dup2\n      tag_60\n      swap2\n      swap1\n      tag_61\n      jump\t// in\n    tag_60:\n      pop\n        /* \"Assignment 4 Tokens/final.sol\":1026:1027  0 */\n      0x00\n        /* \"Assignment 4 Tokens/final.sol\":990:1001  itemDetails */\n      0x01\n        /* \"Assignment 4 Tokens/final.sol\":990:1013  itemDetails[msg.sender] */\n      0x00\n        /* \"Assignment 4 Tokens/final.sol\":1002:1012  msg.sender */\n      caller\n        /* \"Assignment 4 Tokens/final.sol\":990:1013  itemDetails[msg.sender] */\n      0xffffffffffffffffffffffffffffffffffffffff\n      and\n      0xffffffffffffffffffffffffffffffffffffffff\n      and\n      dup2\n      mstore\n      0x20\n      add\n      swap1\n      dup2\n      mstore\n      0x20\n      add\n      0x00\n      keccak256\n        /* \"Assignment 4 Tokens/final.sol\":990:1017  itemDetails[msg.sender][id] */\n      0x00\n        /* \"Assignment 4 Tokens/final.sol\":1014:1016  id */\n      dup5\n        /* \"Assignment 4 Tokens/final.sol\":990:1017  itemDetails[msg.sender][id] */\n      dup2\n      mstore\n      0x20\n      add\n      swap1\n      dup2\n      mstore\n      0x20\n      add\n      0x00\n      keccak256\n        /* \"Assignment 4 Tokens/final.sol\":990:1025  itemDetails[msg.sender][id].lastBid */\n      0x01\n      add\n        /* \"Assignment 4 Tokens/final.sol\":990:1027  itemDetails[msg.sender][id].lastBid=0 */\n      dup2\n      swap1\n      sstore\n      pop\n        /* \"Assignment 4 Tokens/final.sol\":1077:1078  0 */\n      0x00\n        /* \"Assignment 4 Tokens/final.sol\":1038:1049  itemDetails */\n      0x01\n        /* \"Assignment 4 Tokens/final.sol\":1038:1061  itemDetails[msg.sender] */\n      0x00\n        /* \"Assignment 4 Tokens/final.sol\":1050:1060  msg.sender */\n      caller\n        /* \"Assignment 4 Tokens/final.sol\":1038:1061  itemDetails[msg.sender] */\n      0xffffffffffffffffffffffffffffffffffffffff\n      and\n      0xffffffffffffffffffffffffffffffffffffffff\n      and\n      dup2\n      mstore\n      0x20\n      add\n      swap1\n      dup2\n      mstore\n      0x20\n      add\n      0x00\n      keccak256\n        /* \"Assignment 4 Tokens/final.sol\":1038:1065  itemDetails[msg.sender][id] */\n      0x00\n        /* \"Assignment 4 Tokens/final.sol\":1062:1064  id */\n      dup5\n        /* \"Assignment 4 Tokens/final.sol\":1038:1065  itemDetails[msg.sender][id] */\n      dup2\n      mstore\n      0x20\n      add\n      swap1\n      dup2\n      mstore\n      0x20\n      add\n      0x00\n      keccak256\n        /* \"Assignment 4 Tokens/final.sol\":1038:1076  itemDetails[msg.sender][id].highestBid */\n      0x02\n      add\n        /* \"Assignment 4 Tokens/final.sol\":1038:1078  itemDetails[msg.sender][id].highestBid=0 */\n      dup2\n      swap1\n      sstore\n      pop\n        /* \"Assignment 4 Tokens/final.sol\":1138:1139  0 */\n      0x00\n        /* \"Assignment 4 Tokens/final.sol\":1089:1100  itemDetails */\n      0x01\n        /* \"Assignment 4 Tokens/final.sol\":1089:1112  itemDetails[msg.sender] */\n      0x00\n        /* \"Assignment 4 Tokens/final.sol\":1101:1111  msg.sender */\n      caller\n        /* \"Assignment 4 Tokens/final.sol\":1089:1112  itemDetails[msg.sender] */\n      0xffffffffffffffffffffffffffffffffffffffff\n      and\n      0xffffffffffffffffffffffffffffffffffffffff\n      and\n      dup2\n      mstore\n      0x20\n      add\n      swap1\n      dup2\n      mstore\n      0x20\n      add\n      0x00\n      keccak256\n        /* \"Assignment 4 Tokens/final.sol\":1089:1116  itemDetails[msg.sender][id] */\n      0x00\n        /* \"Assignment 4 Tokens/final.sol\":1113:1115  id */\n      dup5\n        /* \"Assignment 4 Tokens/final.sol\":1089:1116  itemDetails[msg.sender][id] */\n      dup2\n      mstore\n      0x20\n      add\n      swap1\n      dup2\n      mstore\n      0x20\n      add\n      0x00\n      keccak256\n        /* \"Assignment 4 Tokens/final.sol\":1089:1129  itemDetails[msg.sender][id].highestBider */\n      0x03\n      add\n      0x00\n        /* \"Assignment 4 Tokens/final.sol\":1089:1140  itemDetails[msg.sender][id].highestBider=address(0) */\n      0x0100\n      exp\n      dup2\n      sload\n      dup2\n      0xffffffffffffffffffffffffffffffffffffffff\n      mul\n      not\n      and\n      swap1\n      dup4\n      0xffffffffffffffffffffffffffffffffffffffff\n      and\n      mul\n      or\n      swap1\n      sstore\n      pop\n        /* \"Assignment 4 Tokens/final.sol\":1205:1206  0 */\n      0x00\n        /* \"Assignment 4 Tokens/final.sol\":1151:1162  itemDetails */\n      0x01\n        /* \"Assignment 4 Tokens/final.sol\":1151:1174  itemDetails[msg.sender] */\n      0x00\n        /* \"Assignment 4 Tokens/final.sol\":1163:1173  msg.sender */\n      caller\n        /* \"Assignment 4 Tokens/final.sol\":1151:1174  itemDetails[msg.sender] */\n      0xffffffffffffffffffffffffffffffffffffffff\n      and\n      0xffffffffffffffffffffffffffffffffffffffff\n      and\n      dup2\n      mstore\n      0x20\n      add\n      swap1\n      dup2\n      mstore\n      0x20\n      add\n      0x00\n      keccak256\n        /* \"Assignment 4 Tokens/final.sol\":1151:1178  itemDetails[msg.sender][id] */\n      0x00\n        /* \"Assignment 4 Tokens/final.sol\":1175:1177  id */\n      dup5\n        /* \"Assignment 4 Tokens/final.sol\":1151:1178  itemDetails[msg.sender][id] */\n      dup2\n      mstore\n      0x20\n      add\n      swap1\n      dup2\n      mstore\n      0x20\n      add\n      0x00\n      keccak256\n        /* \"Assignment 4 Tokens/final.sol\":1151:1195  itemDetails[msg.sender][id].lastHighestBider */\n      0x05\n      add\n      0x00\n        /* \"Assignment 4 Tokens/final.sol\":1151:1207  itemDetails[msg.sender][id].lastHighestBider=address (0) */\n      0x0100\n      exp\n      dup2\n      sload\n      dup2\n      0xffffffffffffffffffffffffffffffffffffffff\n      mul\n      not\n      and\n      swap1\n      dup4\n      0xffffffffffffffffffffffffffffffffffffffff\n      and\n      mul\n      or\n      swap1\n      sstore\n      pop\n        /* \"Assignment 4 Tokens/final.sol\":1277:1281  3600 */\n      0x0e10\n        /* \"Assignment 4 Tokens/final.sol\":1259:1274  block.timestamp */\n      timestamp\n        /* \"Assignment 4 Tokens/final.sol\":1259:1281  block.timestamp + 3600 */\n      tag_62\n      swap2\n      swap1\n      tag_63\n      jump\t// in\n    tag_62:\n        /* \"Assignment 4 Tokens/final.sol\":1218:1229  itemDetails */\n      0x01\n        /* \"Assignment 4 Tokens/final.sol\":1218:1241  itemDetails[msg.sender] */\n      0x00\n        /* \"Assignment 4 Tokens/final.sol\":1230:1240  msg.sender */\n      caller\n        /* \"Assignment 4 Tokens/final.sol\":1218:1241  itemDetails[msg.sender] */\n      0xffffffffffffffffffffffffffffffffffffffff\n      and\n      0xffffffffffffffffffffffffffffffffffffffff\n      and\n      dup2\n      mstore\n      0x20\n      add\n      swap1\n      dup2\n      mstore\n      0x20\n      add\n      0x00\n      keccak256\n        /* \"Assignment 4 Tokens/final.sol\":1218:1245  itemDetails[msg.sender][id] */\n      0x00\n        /* \"Assignment 4 Tokens/final.sol\":1242:1244  id */\n      dup5\n        /* \"Assignment 4 Tokens/final.sol\":1218:1245  itemDetails[msg.sender][id] */\n      dup2\n      mstore\n      0x20\n      add\n      swap1\n      dup2\n      mstore\n      0x20\n      add\n      0x00\n      keccak256\n        /* \"Assignment 4 Tokens/final.sol\":1218:1258  itemDetails[msg.sender][id].auction_time */\n      0x04\n      add\n        /* \"Assignment 4 Tokens/final.sol\":1218:1281  itemDetails[msg.sender][id].auction_time=block.timestamp + 3600 */\n      dup2\n      swap1\n      sstore\n      pop\n        /* \"Assignment 4 Tokens/final.sol\":1297:1331  createItem(msg.sender, id , _name) */\n      0xa7806320b37116843ec008da1594a383d57d02cf004956b72c34754bf6395070\n        /* \"Assignment 4 Tokens/final.sol\":1308:1318  msg.sender */\n      caller\n        /* \"Assignment 4 Tokens/final.sol\":1320:1322  id */\n      dup4\n        /* \"Assignment 4 Tokens/final.sol\":1325:1330  _name */\n      dup4\n        /* \"Assignment 4 Tokens/final.sol\":1297:1331  createItem(msg.sender, id , _name) */\n      mload(0x40)\n      tag_64\n      swap4\n      swap3\n      swap2\n      swap1\n      tag_65\n      jump\t// in\n    tag_64:\n      mload(0x40)\n      dup1\n      swap2\n      sub\n      swap1\n      log1\n        /* \"Assignment 4 Tokens/final.sol\":813:1339  function CreateItem(uint256 id, string memory _name) public {... */\n      pop\n      pop\n      jump\t// out\n        /* \"Assignment 4 Tokens/final.sol\":3104:3309  function withdraw() public {... */\n    tag_25:\n        /* \"Assignment 4 Tokens/final.sol\":3164:3169  Owner */\n      0x00\n      dup1\n      sload\n      swap1\n      0x0100\n      exp\n      swap1\n      div\n      0xffffffffffffffffffffffffffffffffffffffff\n      and\n        /* \"Assignment 4 Tokens/final.sol\":3150:3169  msg.sender == Owner */\n      0xffffffffffffffffffffffffffffffffffffffff\n      and\n        /* \"Assignment 4 Tokens/final.sol\":3150:3160  msg.sender */\n      caller\n        /* \"Assignment 4 Tokens/final.sol\":3150:3169  msg.sender == Owner */\n      0xffffffffffffffffffffffffffffffffffffffff\n      and\n      eq\n        /* \"Assignment 4 Tokens/final.sol\":3142:3208  require(msg.sender == Owner, \" Only owner can withdraw the money\") */\n      tag_67\n      jumpi\n      mload(0x40)\n      0x08c379a000000000000000000000000000000000000000000000000000000000\n      dup2\n      mstore\n      0x04\n      add\n      tag_68\n      swap1\n      tag_69\n      jump\t// in\n    tag_68:\n      mload(0x40)\n      dup1\n      swap2\n      sub\n      swap1\n      revert\n    tag_67:\n        /* \"Assignment 4 Tokens/final.sol\":3219:3234  uint256 balance */\n      0x00\n        /* \"Assignment 4 Tokens/final.sol\":3237:3258  address(this).balance */\n      selfbalance\n        /* \"Assignment 4 Tokens/final.sol\":3219:3258  uint256 balance = address(this).balance */\n      swap1\n      pop\n        /* \"Assignment 4 Tokens/final.sol\":3277:3282  Owner */\n      0x00\n      dup1\n      sload\n      swap1\n      0x0100\n      exp\n      swap1\n      div\n      0xffffffffffffffffffffffffffffffffffffffff\n      and\n        /* \"Assignment 4 Tokens/final.sol\":3269:3292  payable(Owner).transfer */\n      0xffffffffffffffffffffffffffffffffffffffff\n      and\n        /* \"Assignment 4 Tokens/final.sol\":3269:3301  payable(Owner).transfer(balance) */\n      0x08fc\n        /* \"Assignment 4 Tokens/final.sol\":3293:3300  balance */\n      dup3\n        /* \"Assignment 4 Tokens/final.sol\":3269:3301  payable(Owner).transfer(balance) */\n      swap1\n      dup2\n      iszero\n      mul\n      swap1\n      mload(0x40)\n      0x00\n      mload(0x40)\n      dup1\n      dup4\n      sub\n      dup2\n      dup6\n      dup9\n      dup9\n      call\n      swap4\n      pop\n      pop\n      pop\n      pop\n      iszero\n      dup1\n      iszero\n      tag_71\n      jumpi\n      returndatasize\n      0x00\n      dup1\n      returndatacopy\n      revert(0x00, returndatasize)\n    tag_71:\n      pop\n        /* \"Assignment 4 Tokens/final.sol\":3131:3309  {... */\n      pop\n        /* \"Assignment 4 Tokens/final.sol\":3104:3309  function withdraw() public {... */\n      jump\t// out\n        /* \"Assignment 4 Tokens/final.sol\":2374:2521  function getWinningBidder(address _address,uint256 id) public view returns(address){... */\n    tag_29:\n        /* \"Assignment 4 Tokens/final.sol\":2449:2456  address */\n      0x00\n        /* \"Assignment 4 Tokens/final.sol\":2475:2486  itemDetails */\n      0x01\n        /* \"Assignment 4 Tokens/final.sol\":2475:2496  itemDetails[_address] */\n      0x00\n        /* \"Assignment 4 Tokens/final.sol\":2487:2495  _address */\n      dup5\n        /* \"Assignment 4 Tokens/final.sol\":2475:2496  itemDetails[_address] */\n      0xffffffffffffffffffffffffffffffffffffffff\n      and\n      0xffffffffffffffffffffffffffffffffffffffff\n      and\n      dup2\n      mstore\n      0x20\n      add\n      swap1\n      dup2\n      mstore\n      0x20\n      add\n      0x00\n      keccak256\n        /* \"Assignment 4 Tokens/final.sol\":2475:2500  itemDetails[_address][id] */\n      0x00\n        /* \"Assignment 4 Tokens/final.sol\":2497:2499  id */\n      dup4\n        /* \"Assignment 4 Tokens/final.sol\":2475:2500  itemDetails[_address][id] */\n      dup2\n      mstore\n      0x20\n      add\n      swap1\n      dup2\n      mstore\n      0x20\n      add\n      0x00\n      keccak256\n        /* \"Assignment 4 Tokens/final.sol\":2475:2513  itemDetails[_address][id].highestBider */\n      0x03\n      add\n      0x00\n      swap1\n      sload\n      swap1\n      0x0100\n      exp\n      swap1\n      div\n      0xffffffffffffffffffffffffffffffffffffffff\n      and\n        /* \"Assignment 4 Tokens/final.sol\":2468:2513  return itemDetails[_address][id].highestBider */\n      swap1\n      pop\n        /* \"Assignment 4 Tokens/final.sol\":2374:2521  function getWinningBidder(address _address,uint256 id) public view returns(address){... */\n      swap3\n      swap2\n      pop\n      pop\n      jump\t// out\n        /* \"Assignment 4 Tokens/final.sol\":2222:2366  function getHighestBid(address _address, uint256 id) public view returns(uint256) {... */\n    tag_35:\n        /* \"Assignment 4 Tokens/final.sol\":2295:2302  uint256 */\n      0x00\n        /* \"Assignment 4 Tokens/final.sol\":2322:2333  itemDetails */\n      0x01\n        /* \"Assignment 4 Tokens/final.sol\":2322:2343  itemDetails[_address] */\n      0x00\n        /* \"Assignment 4 Tokens/final.sol\":2334:2342  _address */\n      dup5\n        /* \"Assignment 4 Tokens/final.sol\":2322:2343  itemDetails[_address] */\n      0xffffffffffffffffffffffffffffffffffffffff\n      and\n      0xffffffffffffffffffffffffffffffffffffffff\n      and\n      dup2\n      mstore\n      0x20\n      add\n      swap1\n      dup2\n      mstore\n      0x20\n      add\n      0x00\n      keccak256\n        /* \"Assignment 4 Tokens/final.sol\":2322:2347  itemDetails[_address][id] */\n      0x00\n        /* \"Assignment 4 Tokens/final.sol\":2344:2346  id */\n      dup4\n        /* \"Assignment 4 Tokens/final.sol\":2322:2347  itemDetails[_address][id] */\n      dup2\n      mstore\n      0x20\n      add\n      swap1\n      dup2\n      mstore\n      0x20\n      add\n      0x00\n      keccak256\n        /* \"Assignment 4 Tokens/final.sol\":2322:2358  itemDetails[_address][id].highestBid */\n      0x02\n      add\n      sload\n        /* \"Assignment 4 Tokens/final.sol\":2315:2358  return itemDetails[_address][id].highestBid */\n      swap1\n      pop\n        /* \"Assignment 4 Tokens/final.sol\":2222:2366  function getHighestBid(address _address, uint256 id) public view returns(uint256) {... */\n      swap3\n      swap2\n      pop\n      pop\n      jump\t// out\n        /* \"Assignment 4 Tokens/final.sol\":2529:2781  function cancelAuction(address _address,uint256 id) public  {... */\n    tag_41:\n        /* \"Assignment 4 Tokens/final.sol\":2622:2627  Owner */\n      0x00\n      dup1\n      sload\n      swap1\n      0x0100\n      exp\n      swap1\n      div\n      0xffffffffffffffffffffffffffffffffffffffff\n      and\n        /* \"Assignment 4 Tokens/final.sol\":2608:2627  msg.sender == Owner */\n      0xffffffffffffffffffffffffffffffffffffffff\n      and\n        /* \"Assignment 4 Tokens/final.sol\":2608:2618  msg.sender */\n      caller\n        /* \"Assignment 4 Tokens/final.sol\":2608:2627  msg.sender == Owner */\n      0xffffffffffffffffffffffffffffffffffffffff\n      and\n      eq\n        /* \"Assignment 4 Tokens/final.sol\":2600:2665  require(msg.sender == Owner,\" Only Owner can cancel the Auction\") */\n      tag_75\n      jumpi\n      mload(0x40)\n      0x08c379a000000000000000000000000000000000000000000000000000000000\n      dup2\n      mstore\n      0x04\n      add\n      tag_76\n      swap1\n      tag_77\n      jump\t// in\n    tag_76:\n      mload(0x40)\n      dup1\n      swap2\n      sub\n      swap1\n      revert\n    tag_75:\n        /* \"Assignment 4 Tokens/final.sol\":2685:2696  itemDetails */\n      0x01\n        /* \"Assignment 4 Tokens/final.sol\":2685:2706  itemDetails[_address] */\n      0x00\n        /* \"Assignment 4 Tokens/final.sol\":2697:2705  _address */\n      dup4\n        /* \"Assignment 4 Tokens/final.sol\":2685:2706  itemDetails[_address] */\n      0xffffffffffffffffffffffffffffffffffffffff\n      and\n      0xffffffffffffffffffffffffffffffffffffffff\n      and\n      dup2\n      mstore\n      0x20\n      add\n      swap1\n      dup2\n      mstore\n      0x20\n      add\n      0x00\n      keccak256\n        /* \"Assignment 4 Tokens/final.sol\":2685:2710  itemDetails[_address][id] */\n      0x00\n        /* \"Assignment 4 Tokens/final.sol\":2707:2709  id */\n      dup3\n        /* \"Assignment 4 Tokens/final.sol\":2685:2710  itemDetails[_address][id] */\n      dup2\n      mstore\n      0x20\n      add\n      swap1\n      dup2\n      mstore\n      0x20\n      add\n      0x00\n      keccak256\n        /* \"Assignment 4 Tokens/final.sol\":2685:2723  itemDetails[_address][id].highestBider */\n      0x03\n      add\n      0x00\n      swap1\n      sload\n      swap1\n      0x0100\n      exp\n      swap1\n      div\n      0xffffffffffffffffffffffffffffffffffffffff\n      and\n        /* \"Assignment 4 Tokens/final.sol\":2676:2733  payable (itemDetails[_address][id].highestBider).transfer */\n      0xffffffffffffffffffffffffffffffffffffffff\n      and\n        /* \"Assignment 4 Tokens/final.sol\":2676:2771  payable (itemDetails[_address][id].highestBider).transfer(itemDetails[_address][id].highestBid) */\n      0x08fc\n        /* \"Assignment 4 Tokens/final.sol\":2734:2745  itemDetails */\n      0x01\n        /* \"Assignment 4 Tokens/final.sol\":2734:2755  itemDetails[_address] */\n      0x00\n        /* \"Assignment 4 Tokens/final.sol\":2746:2754  _address */\n      dup6\n        /* \"Assignment 4 Tokens/final.sol\":2734:2755  itemDetails[_address] */\n      0xffffffffffffffffffffffffffffffffffffffff\n      and\n      0xffffffffffffffffffffffffffffffffffffffff\n      and\n      dup2\n      mstore\n      0x20\n      add\n      swap1\n      dup2\n      mstore\n      0x20\n      add\n      0x00\n      keccak256\n        /* \"Assignment 4 Tokens/final.sol\":2734:2759  itemDetails[_address][id] */\n      0x00\n        /* \"Assignment 4 Tokens/final.sol\":2756:2758  id */\n      dup5\n        /* \"Assignment 4 Tokens/final.sol\":2734:2759  itemDetails[_address][id] */\n      dup2\n      mstore\n      0x20\n      add\n      swap1\n      dup2\n      mstore\n      0x20\n      add\n      0x00\n      keccak256\n        /* \"Assignment 4 Tokens/final.sol\":2734:2770  itemDetails[_address][id].highestBid */\n      0x02\n      add\n      sload\n        /* \"Assignment 4 Tokens/final.sol\":2676:2771  payable (itemDetails[_address][id].highestBider).transfer(itemDetails[_address][id].highestBid) */\n      swap1\n      dup2\n      iszero\n      mul\n      swap1\n      mload(0x40)\n      0x00\n      mload(0x40)\n      dup1\n      dup4\n      sub\n      dup2\n      dup6\n      dup9\n      dup9\n      call\n      swap4\n      pop\n      pop\n      pop\n      pop\n      iszero\n      dup1\n      iszero\n      tag_79\n      jumpi\n      returndatasize\n      0x00\n      dup1\n      returndatacopy\n      revert(0x00, returndatasize)\n    tag_79:\n      pop\n        /* \"Assignment 4 Tokens/final.sol\":2529:2781  function cancelAuction(address _address,uint256 id) public  {... */\n      pop\n      pop\n      jump\t// out\n        /* \"Assignment 4 Tokens/final.sol\":2789:3095  function ownershipTransfer(address payable  _address,uint256 id, uint256 id2) public {... */\n    tag_46:\n        /* \"Assignment 4 Tokens/final.sol\":2895:2903  _address */\n      dup3\n        /* \"Assignment 4 Tokens/final.sol\":2895:2912  _address.transfer */\n      0xffffffffffffffffffffffffffffffffffffffff\n      and\n        /* \"Assignment 4 Tokens/final.sol\":2895:2950  _address.transfer(itemDetails[_address][id].highestBid) */\n      0x08fc\n        /* \"Assignment 4 Tokens/final.sol\":2913:2924  itemDetails */\n      0x01\n        /* \"Assignment 4 Tokens/final.sol\":2913:2934  itemDetails[_address] */\n      0x00\n        /* \"Assignment 4 Tokens/final.sol\":2925:2933  _address */\n      dup7\n        /* \"Assignment 4 Tokens/final.sol\":2913:2934  itemDetails[_address] */\n      0xffffffffffffffffffffffffffffffffffffffff\n      and\n      0xffffffffffffffffffffffffffffffffffffffff\n      and\n      dup2\n      mstore\n      0x20\n      add\n      swap1\n      dup2\n      mstore\n      0x20\n      add\n      0x00\n      keccak256\n        /* \"Assignment 4 Tokens/final.sol\":2913:2938  itemDetails[_address][id] */\n      0x00\n        /* \"Assignment 4 Tokens/final.sol\":2935:2937  id */\n      dup6\n        /* \"Assignment 4 Tokens/final.sol\":2913:2938  itemDetails[_address][id] */\n      dup2\n      mstore\n      0x20\n      add\n      swap1\n      dup2\n      mstore\n      0x20\n      add\n      0x00\n      keccak256\n        /* \"Assignment 4 Tokens/final.sol\":2913:2949  itemDetails[_address][id].highestBid */\n      0x02\n      add\n      sload\n        /* \"Assignment 4 Tokens/final.sol\":2895:2950  _address.transfer(itemDetails[_address][id].highestBid) */\n      swap1\n      dup2\n      iszero\n      mul\n      swap1\n      mload(0x40)\n      0x00\n      mload(0x40)\n      dup1\n      dup4\n      sub\n      dup2\n      dup6\n      dup9\n      dup9\n      call\n      swap4\n      pop\n      pop\n      pop\n      pop\n      iszero\n      dup1\n      iszero\n      tag_82\n      jumpi\n      returndatasize\n      0x00\n      dup1\n      returndatacopy\n      revert(0x00, returndatasize)\n    tag_82:\n      pop\n        /* \"Assignment 4 Tokens/final.sol\":3019:3030  itemDetails */\n      0x01\n        /* \"Assignment 4 Tokens/final.sol\":3019:3040  itemDetails[_address] */\n      0x00\n        /* \"Assignment 4 Tokens/final.sol\":3031:3039  _address */\n      dup5\n        /* \"Assignment 4 Tokens/final.sol\":3019:3040  itemDetails[_address] */\n      0xffffffffffffffffffffffffffffffffffffffff\n      and\n      0xffffffffffffffffffffffffffffffffffffffff\n      and\n      dup2\n      mstore\n      0x20\n      add\n      swap1\n      dup2\n      mstore\n      0x20\n      add\n      0x00\n      keccak256\n        /* \"Assignment 4 Tokens/final.sol\":3019:3044  itemDetails[_address][id] */\n      0x00\n        /* \"Assignment 4 Tokens/final.sol\":3041:3043  id */\n      dup4\n        /* \"Assignment 4 Tokens/final.sol\":3019:3044  itemDetails[_address][id] */\n      dup2\n      mstore\n      0x20\n      add\n      swap1\n      dup2\n      mstore\n      0x20\n      add\n      0x00\n      keccak256\n        /* \"Assignment 4 Tokens/final.sol\":2961:2972  itemDetails */\n      0x01\n        /* \"Assignment 4 Tokens/final.sol\":2961:3012  itemDetails[itemDetails[_address][id].highestBider] */\n      0x00\n        /* \"Assignment 4 Tokens/final.sol\":2973:2984  itemDetails */\n      0x01\n        /* \"Assignment 4 Tokens/final.sol\":2973:2994  itemDetails[_address] */\n      0x00\n        /* \"Assignment 4 Tokens/final.sol\":2985:2993  _address */\n      dup8\n        /* \"Assignment 4 Tokens/final.sol\":2973:2994  itemDetails[_address] */\n      0xffffffffffffffffffffffffffffffffffffffff\n      and\n      0xffffffffffffffffffffffffffffffffffffffff\n      and\n      dup2\n      mstore\n      0x20\n      add\n      swap1\n      dup2\n      mstore\n      0x20\n      add\n      0x00\n      keccak256\n        /* \"Assignment 4 Tokens/final.sol\":2973:2998  itemDetails[_address][id] */\n      0x00\n        /* \"Assignment 4 Tokens/final.sol\":2995:2997  id */\n      dup7\n        /* \"Assignment 4 Tokens/final.sol\":2973:2998  itemDetails[_address][id] */\n      dup2\n      mstore\n      0x20\n      add\n      swap1\n      dup2\n      mstore\n      0x20\n      add\n      0x00\n      keccak256\n        /* \"Assignment 4 Tokens/final.sol\":2973:3011  itemDetails[_address][id].highestBider */\n      0x03\n      add\n      0x00\n      swap1\n      sload\n      swap1\n      0x0100\n      exp\n      swap1\n      div\n      0xffffffffffffffffffffffffffffffffffffffff\n      and\n        /* \"Assignment 4 Tokens/final.sol\":2961:3012  itemDetails[itemDetails[_address][id].highestBider] */\n      0xffffffffffffffffffffffffffffffffffffffff\n      and\n      0xffffffffffffffffffffffffffffffffffffffff\n      and\n      dup2\n      mstore\n      0x20\n      add\n      swap1\n      dup2\n      mstore\n      0x20\n      add\n      0x00\n      keccak256\n        /* \"Assignment 4 Tokens/final.sol\":2961:3017  itemDetails[itemDetails[_address][id].highestBider][id2] */\n      0x00\n        /* \"Assignment 4 Tokens/final.sol\":3013:3016  id2 */\n      dup4\n        /* \"Assignment 4 Tokens/final.sol\":2961:3017  itemDetails[itemDetails[_address][id].highestBider][id2] */\n      dup2\n      mstore\n      0x20\n      add\n      swap1\n      dup2\n      mstore\n      0x20\n      add\n      0x00\n      keccak256\n        /* \"Assignment 4 Tokens/final.sol\":2961:3044  itemDetails[itemDetails[_address][id].highestBider][id2]= itemDetails[_address][id] */\n      0x00\n      dup3\n      add\n      dup2\n      0x00\n      add\n      swap1\n      dup2\n      tag_83\n      swap2\n      swap1\n      tag_84\n      jump\t// in\n    tag_83:\n      pop\n      0x01\n      dup3\n      add\n      sload\n      dup2\n      0x01\n      add\n      sstore\n      0x02\n      dup3\n      add\n      sload\n      dup2\n      0x02\n      add\n      sstore\n      0x03\n      dup3\n      add\n      0x00\n      swap1\n      sload\n      swap1\n      0x0100\n      exp\n      swap1\n      div\n      0xffffffffffffffffffffffffffffffffffffffff\n      and\n      dup2\n      0x03\n      add\n      exp(0x0100, 0x00)\n      dup2\n      sload\n      dup2\n      0xffffffffffffffffffffffffffffffffffffffff\n      mul\n      not\n      and\n      swap1\n      dup4\n      0xffffffffffffffffffffffffffffffffffffffff\n      and\n      mul\n      or\n      swap1\n      sstore\n      pop\n      0x04\n      dup3\n      add\n      sload\n      dup2\n      0x04\n      add\n      sstore\n      0x05\n      dup3\n      add\n      0x00\n      swap1\n      sload\n      swap1\n      0x0100\n      exp\n      swap1\n      div\n      0xffffffffffffffffffffffffffffffffffffffff\n      and\n      dup2\n      0x05\n      add\n      exp(0x0100, 0x00)\n      dup2\n      sload\n      dup2\n      0xffffffffffffffffffffffffffffffffffffffff\n      mul\n      not\n      and\n      swap1\n      dup4\n      0xffffffffffffffffffffffffffffffffffffffff\n      and\n      mul\n      or\n      swap1\n      sstore\n      pop\n      swap1\n      pop\n      pop\n        /* \"Assignment 4 Tokens/final.sol\":3062:3073  itemDetails */\n      0x01\n        /* \"Assignment 4 Tokens/final.sol\":3062:3083  itemDetails[_address] */\n      0x00\n        /* \"Assignment 4 Tokens/final.sol\":3074:3082  _address */\n      dup5\n        /* \"Assignment 4 Tokens/final.sol\":3062:3083  itemDetails[_address] */\n      0xffffffffffffffffffffffffffffffffffffffff\n      and\n      0xffffffffffffffffffffffffffffffffffffffff\n      and\n      dup2\n      mstore\n      0x20\n      add\n      swap1\n      dup2\n      mstore\n      0x20\n      add\n      0x00\n      keccak256\n        /* \"Assignment 4 Tokens/final.sol\":3062:3087  itemDetails[_address][id] */\n      0x00\n        /* \"Assignment 4 Tokens/final.sol\":3084:3086  id */\n      dup4\n        /* \"Assignment 4 Tokens/final.sol\":3062:3087  itemDetails[_address][id] */\n      dup2\n      mstore\n      0x20\n      add\n      swap1\n      dup2\n      mstore\n      0x20\n      add\n      0x00\n      keccak256\n      0x00\n        /* \"Assignment 4 Tokens/final.sol\":3055:3087  delete itemDetails[_address][id] */\n      dup1\n      dup3\n      add\n      0x00\n      tag_85\n      swap2\n      swap1\n      tag_86\n      jump\t// in\n    tag_85:\n      0x01\n      dup3\n      add\n      0x00\n      swap1\n      sstore\n      0x02\n      dup3\n      add\n      0x00\n      swap1\n      sstore\n      0x03\n      dup3\n      add\n      exp(0x0100, 0x00)\n      dup2\n      sload\n      swap1\n      0xffffffffffffffffffffffffffffffffffffffff\n      mul\n      not\n      and\n      swap1\n      sstore\n      0x04\n      dup3\n      add\n      0x00\n      swap1\n      sstore\n      0x05\n      dup3\n      add\n      exp(0x0100, 0x00)\n      dup2\n      sload\n      swap1\n      0xffffffffffffffffffffffffffffffffffffffff\n      mul\n      not\n      and\n      swap1\n      sstore\n      pop\n      pop\n        /* \"Assignment 4 Tokens/final.sol\":2789:3095  function ownershipTransfer(address payable  _address,uint256 id, uint256 id2) public {... */\n      pop\n      pop\n      pop\n      jump\t// out\n        /* \"Assignment 4 Tokens/final.sol\":1347:2214  function placeBid(address _address,uint256 id) public payable  {... */\n    tag_49:\n        /* \"Assignment 4 Tokens/final.sol\":1441:1451  msg.sender */\n      caller\n        /* \"Assignment 4 Tokens/final.sol\":1429:1451  _address != msg.sender */\n      0xffffffffffffffffffffffffffffffffffffffff\n      and\n        /* \"Assignment 4 Tokens/final.sol\":1429:1437  _address */\n      dup3\n        /* \"Assignment 4 Tokens/final.sol\":1429:1451  _address != msg.sender */\n      0xffffffffffffffffffffffffffffffffffffffff\n      and\n      sub\n        /* \"Assignment 4 Tokens/final.sol\":1421:1471  require(_address != msg.sender,\" owner can't bid\") */\n      tag_88\n      jumpi\n      mload(0x40)\n      0x08c379a000000000000000000000000000000000000000000000000000000000\n      dup2\n      mstore\n      0x04\n      add\n      tag_89\n      swap1\n      tag_90\n      jump\t// in\n    tag_89:\n      mload(0x40)\n      dup1\n      swap2\n      sub\n      swap1\n      revert\n    tag_88:\n        /* \"Assignment 4 Tokens/final.sol\":1531:1546  block.timestamp */\n      timestamp\n        /* \"Assignment 4 Tokens/final.sol\":1490:1501  itemDetails */\n      0x01\n        /* \"Assignment 4 Tokens/final.sol\":1490:1511  itemDetails[_address] */\n      0x00\n        /* \"Assignment 4 Tokens/final.sol\":1502:1510  _address */\n      dup5\n        /* \"Assignment 4 Tokens/final.sol\":1490:1511  itemDetails[_address] */\n      0xffffffffffffffffffffffffffffffffffffffff\n      and\n      0xffffffffffffffffffffffffffffffffffffffff\n      and\n      dup2\n      mstore\n      0x20\n      add\n      swap1\n      dup2\n      mstore\n      0x20\n      add\n      0x00\n      keccak256\n        /* \"Assignment 4 Tokens/final.sol\":1490:1515  itemDetails[_address][id] */\n      0x00\n        /* \"Assignment 4 Tokens/final.sol\":1512:1514  id */\n      dup4\n        /* \"Assignment 4 Tokens/final.sol\":1490:1515  itemDetails[_address][id] */\n      dup2\n      mstore\n      0x20\n      add\n      swap1\n      dup2\n      mstore\n      0x20\n      add\n      0x00\n      keccak256\n        /* \"Assignment 4 Tokens/final.sol\":1490:1528  itemDetails[_address][id].auction_time */\n      0x04\n      add\n      sload\n        /* \"Assignment 4 Tokens/final.sol\":1490:1546  itemDetails[_address][id].auction_time > block.timestamp */\n      gt\n        /* \"Assignment 4 Tokens/final.sol\":1482:1576  require(itemDetails[_address][id].auction_time > block.timestamp,\" Nothing to Place the Bid \") */\n      tag_91\n      jumpi\n      mload(0x40)\n      0x08c379a000000000000000000000000000000000000000000000000000000000\n      dup2\n      mstore\n      0x04\n      add\n      tag_92\n      swap1\n      tag_93\n      jump\t// in\n    tag_92:\n      mload(0x40)\n      dup1\n      swap2\n      sub\n      swap1\n      revert\n    tag_91:\n        /* \"Assignment 4 Tokens/final.sol\":1608:1619  itemDetails */\n      0x01\n        /* \"Assignment 4 Tokens/final.sol\":1608:1629  itemDetails[_address] */\n      0x00\n        /* \"Assignment 4 Tokens/final.sol\":1620:1628  _address */\n      dup4\n        /* \"Assignment 4 Tokens/final.sol\":1608:1629  itemDetails[_address] */\n      0xffffffffffffffffffffffffffffffffffffffff\n      and\n      0xffffffffffffffffffffffffffffffffffffffff\n      and\n      dup2\n      mstore\n      0x20\n      add\n      swap1\n      dup2\n      mstore\n      0x20\n      add\n      0x00\n      keccak256\n        /* \"Assignment 4 Tokens/final.sol\":1608:1633  itemDetails[_address][id] */\n      0x00\n        /* \"Assignment 4 Tokens/final.sol\":1630:1632  id */\n      dup3\n        /* \"Assignment 4 Tokens/final.sol\":1608:1633  itemDetails[_address][id] */\n      dup2\n      mstore\n      0x20\n      add\n      swap1\n      dup2\n      mstore\n      0x20\n      add\n      0x00\n      keccak256\n        /* \"Assignment 4 Tokens/final.sol\":1608:1641  itemDetails[_address][id].lastBid */\n      0x01\n      add\n      sload\n        /* \"Assignment 4 Tokens/final.sol\":1595:1604  msg.value */\n      callvalue\n        /* \"Assignment 4 Tokens/final.sol\":1595:1641  msg.value >= itemDetails[_address][id].lastBid */\n      lt\n      iszero\n        /* \"Assignment 4 Tokens/final.sol\":1587:1664  require(msg.value >= itemDetails[_address][id].lastBid, \"Not a Valid Amount\") */\n      tag_94\n      jumpi\n      mload(0x40)\n      0x08c379a000000000000000000000000000000000000000000000000000000000\n      dup2\n      mstore\n      0x04\n      add\n      tag_95\n      swap1\n      tag_96\n      jump\t// in\n    tag_95:\n      mload(0x40)\n      dup1\n      swap2\n      sub\n      swap1\n      revert\n    tag_94:\n        /* \"Assignment 4 Tokens/final.sol\":1695:1706  itemDetails */\n      0x01\n        /* \"Assignment 4 Tokens/final.sol\":1695:1716  itemDetails[_address] */\n      0x00\n        /* \"Assignment 4 Tokens/final.sol\":1707:1715  _address */\n      dup4\n        /* \"Assignment 4 Tokens/final.sol\":1695:1716  itemDetails[_address] */\n      0xffffffffffffffffffffffffffffffffffffffff\n      and\n      0xffffffffffffffffffffffffffffffffffffffff\n      and\n      dup2\n      mstore\n      0x20\n      add\n      swap1\n      dup2\n      mstore\n      0x20\n      add\n      0x00\n      keccak256\n        /* \"Assignment 4 Tokens/final.sol\":1695:1720  itemDetails[_address][id] */\n      0x00\n        /* \"Assignment 4 Tokens/final.sol\":1717:1719  id */\n      dup3\n        /* \"Assignment 4 Tokens/final.sol\":1695:1720  itemDetails[_address][id] */\n      dup2\n      mstore\n      0x20\n      add\n      swap1\n      dup2\n      mstore\n      0x20\n      add\n      0x00\n      keccak256\n        /* \"Assignment 4 Tokens/final.sol\":1695:1731  itemDetails[_address][id].highestBid */\n      0x02\n      add\n      sload\n        /* \"Assignment 4 Tokens/final.sol\":1683:1692  msg.value */\n      callvalue\n        /* \"Assignment 4 Tokens/final.sol\":1683:1731  msg.value > itemDetails[_address][id].highestBid */\n      gt\n        /* \"Assignment 4 Tokens/final.sol\":1675:1766  require(msg.value > itemDetails[_address][id].highestBid,\" Increase the amount by 1 ether\") */\n      tag_97\n      jumpi\n      mload(0x40)\n      0x08c379a000000000000000000000000000000000000000000000000000000000\n      dup2\n      mstore\n      0x04\n      add\n      tag_98\n      swap1\n      tag_99\n      jump\t// in\n    tag_98:\n      mload(0x40)\n      dup1\n      swap2\n      sub\n      swap1\n      revert\n    tag_97:\n        /* \"Assignment 4 Tokens/final.sol\":1811:1822  itemDetails */\n      0x01\n        /* \"Assignment 4 Tokens/final.sol\":1811:1832  itemDetails[_address] */\n      0x00\n        /* \"Assignment 4 Tokens/final.sol\":1823:1831  _address */\n      dup4\n        /* \"Assignment 4 Tokens/final.sol\":1811:1832  itemDetails[_address] */\n      0xffffffffffffffffffffffffffffffffffffffff\n      and\n      0xffffffffffffffffffffffffffffffffffffffff\n      and\n      dup2\n      mstore\n      0x20\n      add\n      swap1\n      dup2\n      mstore\n      0x20\n      add\n      0x00\n      keccak256\n        /* \"Assignment 4 Tokens/final.sol\":1811:1836  itemDetails[_address][id] */\n      0x00\n        /* \"Assignment 4 Tokens/final.sol\":1833:1835  id */\n      dup3\n        /* \"Assignment 4 Tokens/final.sol\":1811:1836  itemDetails[_address][id] */\n      dup2\n      mstore\n      0x20\n      add\n      swap1\n      dup2\n      mstore\n      0x20\n      add\n      0x00\n      keccak256\n        /* \"Assignment 4 Tokens/final.sol\":1811:1847  itemDetails[_address][id].highestBid */\n      0x02\n      add\n      sload\n        /* \"Assignment 4 Tokens/final.sol\":1777:1788  itemDetails */\n      0x01\n        /* \"Assignment 4 Tokens/final.sol\":1777:1798  itemDetails[_address] */\n      0x00\n        /* \"Assignment 4 Tokens/final.sol\":1789:1797  _address */\n      dup5\n        /* \"Assignment 4 Tokens/final.sol\":1777:1798  itemDetails[_address] */\n      0xffffffffffffffffffffffffffffffffffffffff\n      and\n      0xffffffffffffffffffffffffffffffffffffffff\n      and\n      dup2\n      mstore\n      0x20\n      add\n      swap1\n      dup2\n      mstore\n      0x20\n      add\n      0x00\n      keccak256\n        /* \"Assignment 4 Tokens/final.sol\":1777:1802  itemDetails[_address][id] */\n      0x00\n        /* \"Assignment 4 Tokens/final.sol\":1799:1801  id */\n      dup4\n        /* \"Assignment 4 Tokens/final.sol\":1777:1802  itemDetails[_address][id] */\n      dup2\n      mstore\n      0x20\n      add\n      swap1\n      dup2\n      mstore\n      0x20\n      add\n      0x00\n      keccak256\n        /* \"Assignment 4 Tokens/final.sol\":1777:1810  itemDetails[_address][id].lastBid */\n      0x01\n      add\n        /* \"Assignment 4 Tokens/final.sol\":1777:1847  itemDetails[_address][id].lastBid=itemDetails[_address][id].highestBid */\n      dup2\n      swap1\n      sstore\n      pop\n        /* \"Assignment 4 Tokens/final.sol\":1901:1912  itemDetails */\n      0x01\n        /* \"Assignment 4 Tokens/final.sol\":1901:1922  itemDetails[_address] */\n      0x00\n        /* \"Assignment 4 Tokens/final.sol\":1913:1921  _address */\n      dup4\n        /* \"Assignment 4 Tokens/final.sol\":1901:1922  itemDetails[_address] */\n      0xffffffffffffffffffffffffffffffffffffffff\n      and\n      0xffffffffffffffffffffffffffffffffffffffff\n      and\n      dup2\n      mstore\n      0x20\n      add\n      swap1\n      dup2\n      mstore\n      0x20\n      add\n      0x00\n      keccak256\n        /* \"Assignment 4 Tokens/final.sol\":1901:1926  itemDetails[_address][id] */\n      0x00\n        /* \"Assignment 4 Tokens/final.sol\":1923:1925  id */\n      dup3\n        /* \"Assignment 4 Tokens/final.sol\":1901:1926  itemDetails[_address][id] */\n      dup2\n      mstore\n      0x20\n      add\n      swap1\n      dup2\n      mstore\n      0x20\n      add\n      0x00\n      keccak256\n        /* \"Assignment 4 Tokens/final.sol\":1901:1939  itemDetails[_address][id].highestBider */\n      0x03\n      add\n      0x00\n      swap1\n      sload\n      swap1\n      0x0100\n      exp\n      swap1\n      div\n      0xffffffffffffffffffffffffffffffffffffffff\n      and\n        /* \"Assignment 4 Tokens/final.sol\":1858:1869  itemDetails */\n      0x01\n        /* \"Assignment 4 Tokens/final.sol\":1858:1879  itemDetails[_address] */\n      0x00\n        /* \"Assignment 4 Tokens/final.sol\":1870:1878  _address */\n      dup5\n        /* \"Assignment 4 Tokens/final.sol\":1858:1879  itemDetails[_address] */\n      0xffffffffffffffffffffffffffffffffffffffff\n      and\n      0xffffffffffffffffffffffffffffffffffffffff\n      and\n      dup2\n      mstore\n      0x20\n      add\n      swap1\n      dup2\n      mstore\n      0x20\n      add\n      0x00\n      keccak256\n        /* \"Assignment 4 Tokens/final.sol\":1858:1883  itemDetails[_address][id] */\n      0x00\n        /* \"Assignment 4 Tokens/final.sol\":1880:1882  id */\n      dup4\n        /* \"Assignment 4 Tokens/final.sol\":1858:1883  itemDetails[_address][id] */\n      dup2\n      mstore\n      0x20\n      add\n      swap1\n      dup2\n      mstore\n      0x20\n      add\n      0x00\n      keccak256\n        /* \"Assignment 4 Tokens/final.sol\":1858:1900  itemDetails[_address][id].lastHighestBider */\n      0x05\n      add\n      0x00\n        /* \"Assignment 4 Tokens/final.sol\":1858:1939  itemDetails[_address][id].lastHighestBider=itemDetails[_address][id].highestBider */\n      0x0100\n      exp\n      dup2\n      sload\n      dup2\n      0xffffffffffffffffffffffffffffffffffffffff\n      mul\n      not\n      and\n      swap1\n      dup4\n      0xffffffffffffffffffffffffffffffffffffffff\n      and\n      mul\n      or\n      swap1\n      sstore\n      pop\n        /* \"Assignment 4 Tokens/final.sol\":1987:1996  msg.value */\n      callvalue\n        /* \"Assignment 4 Tokens/final.sol\":1950:1961  itemDetails */\n      0x01\n        /* \"Assignment 4 Tokens/final.sol\":1950:1971  itemDetails[_address] */\n      0x00\n        /* \"Assignment 4 Tokens/final.sol\":1962:1970  _address */\n      dup5\n        /* \"Assignment 4 Tokens/final.sol\":1950:1971  itemDetails[_address] */\n      0xffffffffffffffffffffffffffffffffffffffff\n      and\n      0xffffffffffffffffffffffffffffffffffffffff\n      and\n      dup2\n      mstore\n      0x20\n      add\n      swap1\n      dup2\n      mstore\n      0x20\n      add\n      0x00\n      keccak256\n        /* \"Assignment 4 Tokens/final.sol\":1950:1975  itemDetails[_address][id] */\n      0x00\n        /* \"Assignment 4 Tokens/final.sol\":1972:1974  id */\n      dup4\n        /* \"Assignment 4 Tokens/final.sol\":1950:1975  itemDetails[_address][id] */\n      dup2\n      mstore\n      0x20\n      add\n      swap1\n      dup2\n      mstore\n      0x20\n      add\n      0x00\n      keccak256\n        /* \"Assignment 4 Tokens/final.sol\":1950:1986  itemDetails[_address][id].highestBid */\n      0x02\n      add\n        /* \"Assignment 4 Tokens/final.sol\":1950:1996  itemDetails[_address][id].highestBid=msg.value */\n      dup2\n      swap1\n      sstore\n      pop\n        /* \"Assignment 4 Tokens/final.sol\":2046:2056  msg.sender */\n      caller\n        /* \"Assignment 4 Tokens/final.sol\":2007:2018  itemDetails */\n      0x01\n        /* \"Assignment 4 Tokens/final.sol\":2007:2028  itemDetails[_address] */\n      0x00\n        /* \"Assignment 4 Tokens/final.sol\":2019:2027  _address */\n      dup5\n        /* \"Assignment 4 Tokens/final.sol\":2007:2028  itemDetails[_address] */\n      0xffffffffffffffffffffffffffffffffffffffff\n      and\n      0xffffffffffffffffffffffffffffffffffffffff\n      and\n      dup2\n      mstore\n      0x20\n      add\n      swap1\n      dup2\n      mstore\n      0x20\n      add\n      0x00\n      keccak256\n        /* \"Assignment 4 Tokens/final.sol\":2007:2032  itemDetails[_address][id] */\n      0x00\n        /* \"Assignment 4 Tokens/final.sol\":2029:2031  id */\n      dup4\n        /* \"Assignment 4 Tokens/final.sol\":2007:2032  itemDetails[_address][id] */\n      dup2\n      mstore\n      0x20\n      add\n      swap1\n      dup2\n      mstore\n      0x20\n      add\n      0x00\n      keccak256\n        /* \"Assignment 4 Tokens/final.sol\":2007:2045  itemDetails[_address][id].highestBider */\n      0x03\n      add\n      0x00\n        /* \"Assignment 4 Tokens/final.sol\":2007:2056  itemDetails[_address][id].highestBider=msg.sender */\n      0x0100\n      exp\n      dup2\n      sload\n      dup2\n      0xffffffffffffffffffffffffffffffffffffffff\n      mul\n      not\n      and\n      swap1\n      dup4\n      0xffffffffffffffffffffffffffffffffffffffff\n      and\n      mul\n      or\n      swap1\n      sstore\n      pop\n        /* \"Assignment 4 Tokens/final.sol\":2075:2086  itemDetails */\n      0x01\n        /* \"Assignment 4 Tokens/final.sol\":2075:2096  itemDetails[_address] */\n      0x00\n        /* \"Assignment 4 Tokens/final.sol\":2087:2095  _address */\n      dup4\n        /* \"Assignment 4 Tokens/final.sol\":2075:2096  itemDetails[_address] */\n      0xffffffffffffffffffffffffffffffffffffffff\n      and\n      0xffffffffffffffffffffffffffffffffffffffff\n      and\n      dup2\n      mstore\n      0x20\n      add\n      swap1\n      dup2\n      mstore\n      0x20\n      add\n      0x00\n      keccak256\n        /* \"Assignment 4 Tokens/final.sol\":2075:2100  itemDetails[_address][id] */\n      0x00\n        /* \"Assignment 4 Tokens/final.sol\":2097:2099  id */\n      dup3\n        /* \"Assignment 4 Tokens/final.sol\":2075:2100  itemDetails[_address][id] */\n      dup2\n      mstore\n      0x20\n      add\n      swap1\n      dup2\n      mstore\n      0x20\n      add\n      0x00\n      keccak256\n        /* \"Assignment 4 Tokens/final.sol\":2075:2117  itemDetails[_address][id].lastHighestBider */\n      0x05\n      add\n      0x00\n      swap1\n      sload\n      swap1\n      0x0100\n      exp\n      swap1\n      div\n      0xffffffffffffffffffffffffffffffffffffffff\n      and\n        /* \"Assignment 4 Tokens/final.sol\":2067:2127  payable(itemDetails[_address][id].lastHighestBider).transfer */\n      0xffffffffffffffffffffffffffffffffffffffff\n      and\n        /* \"Assignment 4 Tokens/final.sol\":2067:2162  payable(itemDetails[_address][id].lastHighestBider).transfer(itemDetails[_address][id].lastBid) */\n      0x08fc\n        /* \"Assignment 4 Tokens/final.sol\":2128:2139  itemDetails */\n      0x01\n        /* \"Assignment 4 Tokens/final.sol\":2128:2149  itemDetails[_address] */\n      0x00\n        /* \"Assignment 4 Tokens/final.sol\":2140:2148  _address */\n      dup6\n        /* \"Assignment 4 Tokens/final.sol\":2128:2149  itemDetails[_address] */\n      0xffffffffffffffffffffffffffffffffffffffff\n      and\n      0xffffffffffffffffffffffffffffffffffffffff\n      and\n      dup2\n      mstore\n      0x20\n      add\n      swap1\n      dup2\n      mstore\n      0x20\n      add\n      0x00\n      keccak256\n        /* \"Assignment 4 Tokens/final.sol\":2128:2153  itemDetails[_address][id] */\n      0x00\n        /* \"Assignment 4 Tokens/final.sol\":2150:2152  id */\n      dup5\n        /* \"Assignment 4 Tokens/final.sol\":2128:2153  itemDetails[_address][id] */\n      dup2\n      mstore\n      0x20\n      add\n      swap1\n      dup2\n      mstore\n      0x20\n      add\n      0x00\n      keccak256\n        /* \"Assignment 4 Tokens/final.sol\":2128:2161  itemDetails[_address][id].lastBid */\n      0x01\n      add\n      sload\n        /* \"Assignment 4 Tokens/final.sol\":2067:2162  payable(itemDetails[_address][id].lastHighestBider).transfer(itemDetails[_address][id].lastBid) */\n      swap1\n      dup2\n      iszero\n      mul\n      swap1\n      mload(0x40)\n      0x00\n      mload(0x40)\n      dup1\n      dup4\n      sub\n      dup2\n      dup6\n      dup9\n      dup9\n      call\n      swap4\n      pop\n      pop\n      pop\n      pop\n      iszero\n      dup1\n      iszero\n      tag_101\n      jumpi\n      returndatasize\n      0x00\n      dup1\n      returndatacopy\n      revert(0x00, returndatasize)\n    tag_101:\n      pop\n        /* \"Assignment 4 Tokens/final.sol\":2178:2204  Bid(msg.sender, msg.value) */\n      0xe684a55f31b79eca403df938249029212a5925ec6be8012e099b45bc1019e5d2\n        /* \"Assignment 4 Tokens/final.sol\":2182:2192  msg.sender */\n      caller\n        /* \"Assignment 4 Tokens/final.sol\":2194:2203  msg.value */\n      callvalue\n        /* \"Assignment 4 Tokens/final.sol\":2178:2204  Bid(msg.sender, msg.value) */\n      mload(0x40)\n      tag_102\n      swap3\n      swap2\n      swap1\n      tag_103\n      jump\t// in\n    tag_102:\n      mload(0x40)\n      dup1\n      swap2\n      sub\n      swap1\n      log1\n        /* \"Assignment 4 Tokens/final.sol\":1347:2214  function placeBid(address _address,uint256 id) public payable  {... */\n      pop\n      pop\n      jump\t// out\n    tag_86:\n      pop\n      dup1\n      sload\n      tag_104\n      swap1\n      tag_51\n      jump\t// in\n    tag_104:\n      0x00\n      dup3\n      sstore\n      dup1\n      0x1f\n      lt\n      tag_106\n      jumpi\n      pop\n      jump(tag_105)\n    tag_106:\n      0x1f\n      add\n      0x20\n      swap1\n      div\n      swap1\n      0x00\n      mstore\n      keccak256(0x00, 0x20)\n      swap1\n      dup2\n      add\n      swap1\n      tag_107\n      swap2\n      swap1\n      tag_108\n      jump\t// in\n    tag_107:\n    tag_105:\n      pop\n      jump\t// out\n    tag_108:\n    tag_109:\n      dup1\n      dup3\n      gt\n      iszero\n      tag_110\n      jumpi\n      0x00\n      dup2\n      0x00\n      swap1\n      sstore\n      pop\n      0x01\n      add\n      jump(tag_109)\n    tag_110:\n      pop\n      swap1\n      jump\t// out\n        /* \"#utility.yul\":7:82   */\n    tag_111:\n        /* \"#utility.yul\":40:46   */\n      0x00\n        /* \"#utility.yul\":73:75   */\n      0x40\n        /* \"#utility.yul\":67:76   */\n      mload\n        /* \"#utility.yul\":57:76   */\n      swap1\n      pop\n        /* \"#utility.yul\":7:82   */\n      swap1\n      jump\t// out\n        /* \"#utility.yul\":88:205   */\n    tag_112:\n        /* \"#utility.yul\":197:198   */\n      0x00\n        /* \"#utility.yul\":194:195   */\n      dup1\n        /* \"#utility.yul\":187:199   */\n      revert\n        /* \"#utility.yul\":211:328   */\n    tag_113:\n        /* \"#utility.yul\":320:321   */\n      0x00\n        /* \"#utility.yul\":317:318   */\n      dup1\n        /* \"#utility.yul\":310:322   */\n      revert\n        /* \"#utility.yul\":334:460   */\n    tag_114:\n        /* \"#utility.yul\":371:378   */\n      0x00\n        /* \"#utility.yul\":411:453   */\n      0xffffffffffffffffffffffffffffffffffffffff\n        /* \"#utility.yul\":404:409   */\n      dup3\n        /* \"#utility.yul\":400:454   */\n      and\n        /* \"#utility.yul\":389:454   */\n      swap1\n      pop\n        /* \"#utility.yul\":334:460   */\n      swap2\n      swap1\n      pop\n      jump\t// out\n        /* \"#utility.yul\":466:562   */\n    tag_115:\n        /* \"#utility.yul\":503:510   */\n      0x00\n        /* \"#utility.yul\":532:556   */\n      tag_178\n        /* \"#utility.yul\":550:555   */\n      dup3\n        /* \"#utility.yul\":532:556   */\n      tag_114\n      jump\t// in\n    tag_178:\n        /* \"#utility.yul\":521:556   */\n      swap1\n      pop\n        /* \"#utility.yul\":466:562   */\n      swap2\n      swap1\n      pop\n      jump\t// out\n        /* \"#utility.yul\":568:690   */\n    tag_116:\n        /* \"#utility.yul\":641:665   */\n      tag_180\n        /* \"#utility.yul\":659:664   */\n      dup2\n        /* \"#utility.yul\":641:665   */\n      tag_115\n      jump\t// in\n    tag_180:\n        /* \"#utility.yul\":634:639   */\n      dup2\n        /* \"#utility.yul\":631:666   */\n      eq\n        /* \"#utility.yul\":621:684   */\n      tag_181\n      jumpi\n        /* \"#utility.yul\":680:681   */\n      0x00\n        /* \"#utility.yul\":677:678   */\n      dup1\n        /* \"#utility.yul\":670:682   */\n      revert\n        /* \"#utility.yul\":621:684   */\n    tag_181:\n        /* \"#utility.yul\":568:690   */\n      pop\n      jump\t// out\n        /* \"#utility.yul\":696:835   */\n    tag_117:\n        /* \"#utility.yul\":742:747   */\n      0x00\n        /* \"#utility.yul\":780:786   */\n      dup2\n        /* \"#utility.yul\":767:787   */\n      calldataload\n        /* \"#utility.yul\":758:787   */\n      swap1\n      pop\n        /* \"#utility.yul\":796:829   */\n      tag_183\n        /* \"#utility.yul\":823:828   */\n      dup2\n        /* \"#utility.yul\":796:829   */\n      tag_116\n      jump\t// in\n    tag_183:\n        /* \"#utility.yul\":696:835   */\n      swap3\n      swap2\n      pop\n      pop\n      jump\t// out\n        /* \"#utility.yul\":841:918   */\n    tag_118:\n        /* \"#utility.yul\":878:885   */\n      0x00\n        /* \"#utility.yul\":907:912   */\n      dup2\n        /* \"#utility.yul\":896:912   */\n      swap1\n      pop\n        /* \"#utility.yul\":841:918   */\n      swap2\n      swap1\n      pop\n      jump\t// out\n        /* \"#utility.yul\":924:1046   */\n    tag_119:\n        /* \"#utility.yul\":997:1021   */\n      tag_186\n        /* \"#utility.yul\":1015:1020   */\n      dup2\n        /* \"#utility.yul\":997:1021   */\n      tag_118\n      jump\t// in\n    tag_186:\n        /* \"#utility.yul\":990:995   */\n      dup2\n        /* \"#utility.yul\":987:1022   */\n      eq\n        /* \"#utility.yul\":977:1040   */\n      tag_187\n      jumpi\n        /* \"#utility.yul\":1036:1037   */\n      0x00\n        /* \"#utility.yul\":1033:1034   */\n      dup1\n        /* \"#utility.yul\":1026:1038   */\n      revert\n        /* \"#utility.yul\":977:1040   */\n    tag_187:\n        /* \"#utility.yul\":924:1046   */\n      pop\n      jump\t// out\n        /* \"#utility.yul\":1052:1191   */\n    tag_120:\n        /* \"#utility.yul\":1098:1103   */\n      0x00\n        /* \"#utility.yul\":1136:1142   */\n      dup2\n        /* \"#utility.yul\":1123:1143   */\n      calldataload\n        /* \"#utility.yul\":1114:1143   */\n      swap1\n      pop\n        /* \"#utility.yul\":1152:1185   */\n      tag_189\n        /* \"#utility.yul\":1179:1184   */\n      dup2\n        /* \"#utility.yul\":1152:1185   */\n      tag_119\n      jump\t// in\n    tag_189:\n        /* \"#utility.yul\":1052:1191   */\n      swap3\n      swap2\n      pop\n      pop\n      jump\t// out\n        /* \"#utility.yul\":1197:1671   */\n    tag_14:\n        /* \"#utility.yul\":1265:1271   */\n      0x00\n        /* \"#utility.yul\":1273:1279   */\n      dup1\n        /* \"#utility.yul\":1322:1324   */\n      0x40\n        /* \"#utility.yul\":1310:1319   */\n      dup4\n        /* \"#utility.yul\":1301:1308   */\n      dup6\n        /* \"#utility.yul\":1297:1320   */\n      sub\n        /* \"#utility.yul\":1293:1325   */\n      slt\n        /* \"#utility.yul\":1290:1409   */\n      iszero\n      tag_191\n      jumpi\n        /* \"#utility.yul\":1328:1407   */\n      tag_192\n      tag_112\n      jump\t// in\n    tag_192:\n        /* \"#utility.yul\":1290:1409   */\n    tag_191:\n        /* \"#utility.yul\":1448:1449   */\n      0x00\n        /* \"#utility.yul\":1473:1526   */\n      tag_193\n        /* \"#utility.yul\":1518:1525   */\n      dup6\n        /* \"#utility.yul\":1509:1515   */\n      dup3\n        /* \"#utility.yul\":1498:1507   */\n      dup7\n        /* \"#utility.yul\":1494:1516   */\n      add\n        /* \"#utility.yul\":1473:1526   */\n      tag_117\n      jump\t// in\n    tag_193:\n        /* \"#utility.yul\":1463:1526   */\n      swap3\n      pop\n        /* \"#utility.yul\":1419:1536   */\n      pop\n        /* \"#utility.yul\":1575:1577   */\n      0x20\n        /* \"#utility.yul\":1601:1654   */\n      tag_194\n        /* \"#utility.yul\":1646:1653   */\n      dup6\n        /* \"#utility.yul\":1637:1643   */\n      dup3\n        /* \"#utility.yul\":1626:1635   */\n      dup7\n        /* \"#utility.yul\":1622:1644   */\n      add\n        /* \"#utility.yul\":1601:1654   */\n      tag_120\n      jump\t// in\n    tag_194:\n        /* \"#utility.yul\":1591:1654   */\n      swap2\n      pop\n        /* \"#utility.yul\":1546:1664   */\n      pop\n        /* \"#utility.yul\":1197:1671   */\n      swap3\n      pop\n      swap3\n      swap1\n      pop\n      jump\t// out\n        /* \"#utility.yul\":1677:1776   */\n    tag_121:\n        /* \"#utility.yul\":1729:1735   */\n      0x00\n        /* \"#utility.yul\":1763:1768   */\n      dup2\n        /* \"#utility.yul\":1757:1769   */\n      mload\n        /* \"#utility.yul\":1747:1769   */\n      swap1\n      pop\n        /* \"#utility.yul\":1677:1776   */\n      swap2\n      swap1\n      pop\n      jump\t// out\n        /* \"#utility.yul\":1782:1951   */\n    tag_122:\n        /* \"#utility.yul\":1866:1877   */\n      0x00\n        /* \"#utility.yul\":1900:1906   */\n      dup3\n        /* \"#utility.yul\":1895:1898   */\n      dup3\n        /* \"#utility.yul\":1888:1907   */\n      mstore\n        /* \"#utility.yul\":1940:1944   */\n      0x20\n        /* \"#utility.yul\":1935:1938   */\n      dup3\n        /* \"#utility.yul\":1931:1945   */\n      add\n        /* \"#utility.yul\":1916:1945   */\n      swap1\n      pop\n        /* \"#utility.yul\":1782:1951   */\n      swap3\n      swap2\n      pop\n      pop\n      jump\t// out\n        /* \"#utility.yul\":1957:2203   */\n    tag_123:\n        /* \"#utility.yul\":2038:2039   */\n      0x00\n        /* \"#utility.yul\":2048:2161   */\n    tag_198:\n        /* \"#utility.yul\":2062:2068   */\n      dup4\n        /* \"#utility.yul\":2059:2060   */\n      dup2\n        /* \"#utility.yul\":2056:2069   */\n      lt\n        /* \"#utility.yul\":2048:2161   */\n      iszero\n      tag_200\n      jumpi\n        /* \"#utility.yul\":2147:2148   */\n      dup1\n        /* \"#utility.yul\":2142:2145   */\n      dup3\n        /* \"#utility.yul\":2138:2149   */\n      add\n        /* \"#utility.yul\":2132:2150   */\n      mload\n        /* \"#utility.yul\":2128:2129   */\n      dup2\n        /* \"#utility.yul\":2123:2126   */\n      dup5\n        /* \"#utility.yul\":2119:2130   */\n      add\n        /* \"#utility.yul\":2112:2151   */\n      mstore\n        /* \"#utility.yul\":2084:2086   */\n      0x20\n        /* \"#utility.yul\":2081:2082   */\n      dup2\n        /* \"#utility.yul\":2077:2087   */\n      add\n        /* \"#utility.yul\":2072:2087   */\n      swap1\n      pop\n        /* \"#utility.yul\":2048:2161   */\n      jump(tag_198)\n    tag_200:\n        /* \"#utility.yul\":2195:2196   */\n      0x00\n        /* \"#utility.yul\":2186:2192   */\n      dup5\n        /* \"#utility.yul\":2181:2184   */\n      dup5\n        /* \"#utility.yul\":2177:2193   */\n      add\n        /* \"#utility.yul\":2170:2197   */\n      mstore\n        /* \"#utility.yul\":2019:2203   */\n      pop\n        /* \"#utility.yul\":1957:2203   */\n      pop\n      pop\n      pop\n      jump\t// out\n        /* \"#utility.yul\":2209:2311   */\n    tag_124:\n        /* \"#utility.yul\":2250:2256   */\n      0x00\n        /* \"#utility.yul\":2301:2303   */\n      0x1f\n        /* \"#utility.yul\":2297:2304   */\n      not\n        /* \"#utility.yul\":2292:2294   */\n      0x1f\n        /* \"#utility.yul\":2285:2290   */\n      dup4\n        /* \"#utility.yul\":2281:2295   */\n      add\n        /* \"#utility.yul\":2277:2305   */\n      and\n        /* \"#utility.yul\":2267:2305   */\n      swap1\n      pop\n        /* \"#utility.yul\":2209:2311   */\n      swap2\n      swap1\n      pop\n      jump\t// out\n        /* \"#utility.yul\":2317:2694   */\n    tag_125:\n        /* \"#utility.yul\":2405:2408   */\n      0x00\n        /* \"#utility.yul\":2433:2472   */\n      tag_203\n        /* \"#utility.yul\":2466:2471   */\n      dup3\n        /* \"#utility.yul\":2433:2472   */\n      tag_121\n      jump\t// in\n    tag_203:\n        /* \"#utility.yul\":2488:2559   */\n      tag_204\n        /* \"#utility.yul\":2552:2558   */\n      dup2\n        /* \"#utility.yul\":2547:2550   */\n      dup6\n        /* \"#utility.yul\":2488:2559   */\n      tag_122\n      jump\t// in\n    tag_204:\n        /* \"#utility.yul\":2481:2559   */\n      swap4\n      pop\n        /* \"#utility.yul\":2568:2633   */\n      tag_205\n        /* \"#utility.yul\":2626:2632   */\n      dup2\n        /* \"#utility.yul\":2621:2624   */\n      dup6\n        /* \"#utility.yul\":2614:2618   */\n      0x20\n        /* \"#utility.yul\":2607:2612   */\n      dup7\n        /* \"#utility.yul\":2603:2619   */\n      add\n        /* \"#utility.yul\":2568:2633   */\n      tag_123\n      jump\t// in\n    tag_205:\n        /* \"#utility.yul\":2658:2687   */\n      tag_206\n        /* \"#utility.yul\":2680:2686   */\n      dup2\n        /* \"#utility.yul\":2658:2687   */\n      tag_124\n      jump\t// in\n    tag_206:\n        /* \"#utility.yul\":2653:2656   */\n      dup5\n        /* \"#utility.yul\":2649:2688   */\n      add\n        /* \"#utility.yul\":2642:2688   */\n      swap2\n      pop\n        /* \"#utility.yul\":2409:2694   */\n      pop\n        /* \"#utility.yul\":2317:2694   */\n      swap3\n      swap2\n      pop\n      pop\n      jump\t// out\n        /* \"#utility.yul\":2700:2818   */\n    tag_126:\n        /* \"#utility.yul\":2787:2811   */\n      tag_208\n        /* \"#utility.yul\":2805:2810   */\n      dup2\n        /* \"#utility.yul\":2787:2811   */\n      tag_118\n      jump\t// in\n    tag_208:\n        /* \"#utility.yul\":2782:2785   */\n      dup3\n        /* \"#utility.yul\":2775:2812   */\n      mstore\n        /* \"#utility.yul\":2700:2818   */\n      pop\n      pop\n      jump\t// out\n        /* \"#utility.yul\":2824:2942   */\n    tag_127:\n        /* \"#utility.yul\":2911:2935   */\n      tag_210\n        /* \"#utility.yul\":2929:2934   */\n      dup2\n        /* \"#utility.yul\":2911:2935   */\n      tag_115\n      jump\t// in\n    tag_210:\n        /* \"#utility.yul\":2906:2909   */\n      dup3\n        /* \"#utility.yul\":2899:2936   */\n      mstore\n        /* \"#utility.yul\":2824:2942   */\n      pop\n      pop\n      jump\t// out\n        /* \"#utility.yul\":2948:3814   */\n    tag_17:\n        /* \"#utility.yul\":3201:3205   */\n      0x00\n        /* \"#utility.yul\":3239:3242   */\n      0xc0\n        /* \"#utility.yul\":3228:3237   */\n      dup3\n        /* \"#utility.yul\":3224:3243   */\n      add\n        /* \"#utility.yul\":3216:3243   */\n      swap1\n      pop\n        /* \"#utility.yul\":3289:3298   */\n      dup2\n        /* \"#utility.yul\":3283:3287   */\n      dup2\n        /* \"#utility.yul\":3279:3299   */\n      sub\n        /* \"#utility.yul\":3275:3276   */\n      0x00\n        /* \"#utility.yul\":3264:3273   */\n      dup4\n        /* \"#utility.yul\":3260:3277   */\n      add\n        /* \"#utility.yul\":3253:3300   */\n      mstore\n        /* \"#utility.yul\":3317:3395   */\n      tag_212\n        /* \"#utility.yul\":3390:3394   */\n      dup2\n        /* \"#utility.yul\":3381:3387   */\n      dup10\n        /* \"#utility.yul\":3317:3395   */\n      tag_125\n      jump\t// in\n    tag_212:\n        /* \"#utility.yul\":3309:3395   */\n      swap1\n      pop\n        /* \"#utility.yul\":3405:3477   */\n      tag_213\n        /* \"#utility.yul\":3473:3475   */\n      0x20\n        /* \"#utility.yul\":3462:3471   */\n      dup4\n        /* \"#utility.yul\":3458:3476   */\n      add\n        /* \"#utility.yul\":3449:3455   */\n      dup9\n        /* \"#utility.yul\":3405:3477   */\n      tag_126\n      jump\t// in\n    tag_213:\n        /* \"#utility.yul\":3487:3559   */\n      tag_214\n        /* \"#utility.yul\":3555:3557   */\n      0x40\n        /* \"#utility.yul\":3544:3553   */\n      dup4\n        /* \"#utility.yul\":3540:3558   */\n      add\n        /* \"#utility.yul\":3531:3537   */\n      dup8\n        /* \"#utility.yul\":3487:3559   */\n      tag_126\n      jump\t// in\n    tag_214:\n        /* \"#utility.yul\":3569:3641   */\n      tag_215\n        /* \"#utility.yul\":3637:3639   */\n      0x60\n        /* \"#utility.yul\":3626:3635   */\n      dup4\n        /* \"#utility.yul\":3622:3640   */\n      add\n        /* \"#utility.yul\":3613:3619   */\n      dup7\n        /* \"#utility.yul\":3569:3641   */\n      tag_127\n      jump\t// in\n    tag_215:\n        /* \"#utility.yul\":3651:3724   */\n      tag_216\n        /* \"#utility.yul\":3719:3722   */\n      0x80\n        /* \"#utility.yul\":3708:3717   */\n      dup4\n        /* \"#utility.yul\":3704:3723   */\n      add\n        /* \"#utility.yul\":3695:3701   */\n      dup6\n        /* \"#utility.yul\":3651:3724   */\n      tag_126\n      jump\t// in\n    tag_216:\n        /* \"#utility.yul\":3734:3807   */\n      tag_217\n        /* \"#utility.yul\":3802:3805   */\n      0xa0\n        /* \"#utility.yul\":3791:3800   */\n      dup4\n        /* \"#utility.yul\":3787:3806   */\n      add\n        /* \"#utility.yul\":3778:3784   */\n      dup5\n        /* \"#utility.yul\":3734:3807   */\n      tag_127\n      jump\t// in\n    tag_217:\n        /* \"#utility.yul\":2948:3814   */\n      swap8\n      swap7\n      pop\n      pop\n      pop\n      pop\n      pop\n      pop\n      pop\n      jump\t// out\n        /* \"#utility.yul\":3820:3937   */\n    tag_128:\n        /* \"#utility.yul\":3929:3930   */\n      0x00\n        /* \"#utility.yul\":3926:3927   */\n      dup1\n        /* \"#utility.yul\":3919:3931   */\n      revert\n        /* \"#utility.yul\":3943:4060   */\n    tag_129:\n        /* \"#utility.yul\":4052:4053   */\n      0x00\n        /* \"#utility.yul\":4049:4050   */\n      dup1\n        /* \"#utility.yul\":4042:4054   */\n      revert\n        /* \"#utility.yul\":4066:4246   */\n    tag_130:\n        /* \"#utility.yul\":4114:4191   */\n      0x4e487b7100000000000000000000000000000000000000000000000000000000\n        /* \"#utility.yul\":4111:4112   */\n      0x00\n        /* \"#utility.yul\":4104:4192   */\n      mstore\n        /* \"#utility.yul\":4211:4215   */\n      0x41\n        /* \"#utility.yul\":4208:4209   */\n      0x04\n        /* \"#utility.yul\":4201:4216   */\n      mstore\n        /* \"#utility.yul\":4235:4239   */\n      0x24\n        /* \"#utility.yul\":4232:4233   */\n      0x00\n        /* \"#utility.yul\":4225:4240   */\n      revert\n        /* \"#utility.yul\":4252:4533   */\n    tag_131:\n        /* \"#utility.yul\":4335:4362   */\n      tag_222\n        /* \"#utility.yul\":4357:4361   */\n      dup3\n        /* \"#utility.yul\":4335:4362   */\n      tag_124\n      jump\t// in\n    tag_222:\n        /* \"#utility.yul\":4327:4333   */\n      dup2\n        /* \"#utility.yul\":4323:4363   */\n      add\n        /* \"#utility.yul\":4465:4471   */\n      dup2\n        /* \"#utility.yul\":4453:4463   */\n      dup2\n        /* \"#utility.yul\":4450:4472   */\n      lt\n        /* \"#utility.yul\":4429:4447   */\n      0xffffffffffffffff\n        /* \"#utility.yul\":4417:4427   */\n      dup3\n        /* \"#utility.yul\":4414:4448   */\n      gt\n        /* \"#utility.yul\":4411:4473   */\n      or\n        /* \"#utility.yul\":4408:4496   */\n      iszero\n      tag_223\n      jumpi\n        /* \"#utility.yul\":4476:4494   */\n      tag_224\n      tag_130\n      jump\t// in\n    tag_224:\n        /* \"#utility.yul\":4408:4496   */\n    tag_223:\n        /* \"#utility.yul\":4516:4526   */\n      dup1\n        /* \"#utility.yul\":4512:4514   */\n      0x40\n        /* \"#utility.yul\":4505:4527   */\n      mstore\n        /* \"#utility.yul\":4295:4533   */\n      pop\n        /* \"#utility.yul\":4252:4533   */\n      pop\n      pop\n      jump\t// out\n        /* \"#utility.yul\":4539:4668   */\n    tag_132:\n        /* \"#utility.yul\":4573:4579   */\n      0x00\n        /* \"#utility.yul\":4600:4620   */\n      tag_226\n      tag_111\n      jump\t// in\n    tag_226:\n        /* \"#utility.yul\":4590:4620   */\n      swap1\n      pop\n        /* \"#utility.yul\":4629:4662   */\n      tag_227\n        /* \"#utility.yul\":4657:4661   */\n      dup3\n        /* \"#utility.yul\":4649:4655   */\n      dup3\n        /* \"#utility.yul\":4629:4662   */\n      tag_131\n      jump\t// in\n    tag_227:\n        /* \"#utility.yul\":4539:4668   */\n      swap2\n      swap1\n      pop\n      jump\t// out\n        /* \"#utility.yul\":4674:4982   */\n    tag_133:\n        /* \"#utility.yul\":4736:4740   */\n      0x00\n        /* \"#utility.yul\":4826:4844   */\n      0xffffffffffffffff\n        /* \"#utility.yul\":4818:4824   */\n      dup3\n        /* \"#utility.yul\":4815:4845   */\n      gt\n        /* \"#utility.yul\":4812:4868   */\n      iszero\n      tag_229\n      jumpi\n        /* \"#utility.yul\":4848:4866   */\n      tag_230\n      tag_130\n      jump\t// in\n    tag_230:\n        /* \"#utility.yul\":4812:4868   */\n    tag_229:\n        /* \"#utility.yul\":4886:4915   */\n      tag_231\n        /* \"#utility.yul\":4908:4914   */\n      dup3\n        /* \"#utility.yul\":4886:4915   */\n      tag_124\n      jump\t// in\n    tag_231:\n        /* \"#utility.yul\":4878:4915   */\n      swap1\n      pop\n        /* \"#utility.yul\":4970:4974   */\n      0x20\n        /* \"#utility.yul\":4964:4968   */\n      dup2\n        /* \"#utility.yul\":4960:4975   */\n      add\n        /* \"#utility.yul\":4952:4975   */\n      swap1\n      pop\n        /* \"#utility.yul\":4674:4982   */\n      swap2\n      swap1\n      pop\n      jump\t// out\n        /* \"#utility.yul\":4988:5134   */\n    tag_134:\n        /* \"#utility.yul\":5085:5091   */\n      dup3\n        /* \"#utility.yul\":5080:5083   */\n      dup2\n        /* \"#utility.yul\":5075:5078   */\n      dup4\n        /* \"#utility.yul\":5062:5092   */\n      calldatacopy\n        /* \"#utility.yul\":5126:5127   */\n      0x00\n        /* \"#utility.yul\":5117:5123   */\n      dup4\n        /* \"#utility.yul\":5112:5115   */\n      dup4\n        /* \"#utility.yul\":5108:5124   */\n      add\n        /* \"#utility.yul\":5101:5128   */\n      mstore\n        /* \"#utility.yul\":4988:5134   */\n      pop\n      pop\n      pop\n      jump\t// out\n        /* \"#utility.yul\":5140:5565   */\n    tag_135:\n        /* \"#utility.yul\":5218:5223   */\n      0x00\n        /* \"#utility.yul\":5243:5309   */\n      tag_234\n        /* \"#utility.yul\":5259:5308   */\n      tag_235\n        /* \"#utility.yul\":5301:5307   */\n      dup5\n        /* \"#utility.yul\":5259:5308   */\n      tag_133\n      jump\t// in\n    tag_235:\n        /* \"#utility.yul\":5243:5309   */\n      tag_132\n      jump\t// in\n    tag_234:\n        /* \"#utility.yul\":5234:5309   */\n      swap1\n      pop\n        /* \"#utility.yul\":5332:5338   */\n      dup3\n        /* \"#utility.yul\":5325:5330   */\n      dup2\n        /* \"#utility.yul\":5318:5339   */\n      mstore\n        /* \"#utility.yul\":5370:5374   */\n      0x20\n        /* \"#utility.yul\":5363:5368   */\n      dup2\n        /* \"#utility.yul\":5359:5375   */\n      add\n        /* \"#utility.yul\":5408:5411   */\n      dup5\n        /* \"#utility.yul\":5399:5405   */\n      dup5\n        /* \"#utility.yul\":5394:5397   */\n      dup5\n        /* \"#utility.yul\":5390:5406   */\n      add\n        /* \"#utility.yul\":5387:5412   */\n      gt\n        /* \"#utility.yul\":5384:5496   */\n      iszero\n      tag_236\n      jumpi\n        /* \"#utility.yul\":5415:5494   */\n      tag_237\n      tag_129\n      jump\t// in\n    tag_237:\n        /* \"#utility.yul\":5384:5496   */\n    tag_236:\n        /* \"#utility.yul\":5505:5559   */\n      tag_238\n        /* \"#utility.yul\":5552:5558   */\n      dup5\n        /* \"#utility.yul\":5547:5550   */\n      dup3\n        /* \"#utility.yul\":5542:5545   */\n      dup6\n        /* \"#utility.yul\":5505:5559   */\n      tag_134\n      jump\t// in\n    tag_238:\n        /* \"#utility.yul\":5224:5565   */\n      pop\n        /* \"#utility.yul\":5140:5565   */\n      swap4\n      swap3\n      pop\n      pop\n      pop\n      jump\t// out\n        /* \"#utility.yul\":5585:5925   */\n    tag_136:\n        /* \"#utility.yul\":5641:5646   */\n      0x00\n        /* \"#utility.yul\":5690:5693   */\n      dup3\n        /* \"#utility.yul\":5683:5687   */\n      0x1f\n        /* \"#utility.yul\":5675:5681   */\n      dup4\n        /* \"#utility.yul\":5671:5688   */\n      add\n        /* \"#utility.yul\":5667:5694   */\n      slt\n        /* \"#utility.yul\":5657:5779   */\n      tag_240\n      jumpi\n        /* \"#utility.yul\":5698:5777   */\n      tag_241\n      tag_128\n      jump\t// in\n    tag_241:\n        /* \"#utility.yul\":5657:5779   */\n    tag_240:\n        /* \"#utility.yul\":5815:5821   */\n      dup2\n        /* \"#utility.yul\":5802:5822   */\n      calldataload\n        /* \"#utility.yul\":5840:5919   */\n      tag_242\n        /* \"#utility.yul\":5915:5918   */\n      dup5\n        /* \"#utility.yul\":5907:5913   */\n      dup3\n        /* \"#utility.yul\":5900:5904   */\n      0x20\n        /* \"#utility.yul\":5892:5898   */\n      dup7\n        /* \"#utility.yul\":5888:5905   */\n      add\n        /* \"#utility.yul\":5840:5919   */\n      tag_135\n      jump\t// in\n    tag_242:\n        /* \"#utility.yul\":5831:5919   */\n      swap2\n      pop\n        /* \"#utility.yul\":5647:5925   */\n      pop\n        /* \"#utility.yul\":5585:5925   */\n      swap3\n      swap2\n      pop\n      pop\n      jump\t// out\n        /* \"#utility.yul\":5931:6585   */\n    tag_21:\n        /* \"#utility.yul\":6009:6015   */\n      0x00\n        /* \"#utility.yul\":6017:6023   */\n      dup1\n        /* \"#utility.yul\":6066:6068   */\n      0x40\n        /* \"#utility.yul\":6054:6063   */\n      dup4\n        /* \"#utility.yul\":6045:6052   */\n      dup6\n        /* \"#utility.yul\":6041:6064   */\n      sub\n        /* \"#utility.yul\":6037:6069   */\n      slt\n        /* \"#utility.yul\":6034:6153   */\n      iszero\n      tag_244\n      jumpi\n        /* \"#utility.yul\":6072:6151   */\n      tag_245\n      tag_112\n      jump\t// in\n    tag_245:\n        /* \"#utility.yul\":6034:6153   */\n    tag_244:\n        /* \"#utility.yul\":6192:6193   */\n      0x00\n        /* \"#utility.yul\":6217:6270   */\n      tag_246\n        /* \"#utility.yul\":6262:6269   */\n      dup6\n        /* \"#utility.yul\":6253:6259   */\n      dup3\n        /* \"#utility.yul\":6242:6251   */\n      dup7\n        /* \"#utility.yul\":6238:6260   */\n      add\n        /* \"#utility.yul\":6217:6270   */\n      tag_120\n      jump\t// in\n    tag_246:\n        /* \"#utility.yul\":6207:6270   */\n      swap3\n      pop\n        /* \"#utility.yul\":6163:6280   */\n      pop\n        /* \"#utility.yul\":6347:6349   */\n      0x20\n        /* \"#utility.yul\":6336:6345   */\n      dup4\n        /* \"#utility.yul\":6332:6350   */\n      add\n        /* \"#utility.yul\":6319:6351   */\n      calldataload\n        /* \"#utility.yul\":6378:6396   */\n      0xffffffffffffffff\n        /* \"#utility.yul\":6370:6376   */\n      dup2\n        /* \"#utility.yul\":6367:6397   */\n      gt\n        /* \"#utility.yul\":6364:6481   */\n      iszero\n      tag_247\n      jumpi\n        /* \"#utility.yul\":6400:6479   */\n      tag_248\n      tag_113\n      jump\t// in\n    tag_248:\n        /* \"#utility.yul\":6364:6481   */\n    tag_247:\n        /* \"#utility.yul\":6505:6568   */\n      tag_249\n        /* \"#utility.yul\":6560:6567   */\n      dup6\n        /* \"#utility.yul\":6551:6557   */\n      dup3\n        /* \"#utility.yul\":6540:6549   */\n      dup7\n        /* \"#utility.yul\":6536:6558   */\n      add\n        /* \"#utility.yul\":6505:6568   */\n      tag_136\n      jump\t// in\n    tag_249:\n        /* \"#utility.yul\":6495:6568   */\n      swap2\n      pop\n        /* \"#utility.yul\":6290:6578   */\n      pop\n        /* \"#utility.yul\":5931:6585   */\n      swap3\n      pop\n      swap3\n      swap1\n      pop\n      jump\t// out\n        /* \"#utility.yul\":6591:6813   */\n    tag_31:\n        /* \"#utility.yul\":6684:6688   */\n      0x00\n        /* \"#utility.yul\":6722:6724   */\n      0x20\n        /* \"#utility.yul\":6711:6720   */\n      dup3\n        /* \"#utility.yul\":6707:6725   */\n      add\n        /* \"#utility.yul\":6699:6725   */\n      swap1\n      pop\n        /* \"#utility.yul\":6735:6806   */\n      tag_251\n        /* \"#utility.yul\":6803:6804   */\n      0x00\n        /* \"#utility.yul\":6792:6801   */\n      dup4\n        /* \"#utility.yul\":6788:6805   */\n      add\n        /* \"#utility.yul\":6779:6785   */\n      dup5\n        /* \"#utility.yul\":6735:6806   */\n      tag_127\n      jump\t// in\n    tag_251:\n        /* \"#utility.yul\":6591:6813   */\n      swap3\n      swap2\n      pop\n      pop\n      jump\t// out\n        /* \"#utility.yul\":6819:7041   */\n    tag_37:\n        /* \"#utility.yul\":6912:6916   */\n      0x00\n        /* \"#utility.yul\":6950:6952   */\n      0x20\n        /* \"#utility.yul\":6939:6948   */\n      dup3\n        /* \"#utility.yul\":6935:6953   */\n      add\n        /* \"#utility.yul\":6927:6953   */\n      swap1\n      pop\n        /* \"#utility.yul\":6963:7034   */\n      tag_253\n        /* \"#utility.yul\":7031:7032   */\n      0x00\n        /* \"#utility.yul\":7020:7029   */\n      dup4\n        /* \"#utility.yul\":7016:7033   */\n      add\n        /* \"#utility.yul\":7007:7013   */\n      dup5\n        /* \"#utility.yul\":6963:7034   */\n      tag_126\n      jump\t// in\n    tag_253:\n        /* \"#utility.yul\":6819:7041   */\n      swap3\n      swap2\n      pop\n      pop\n      jump\t// out\n        /* \"#utility.yul\":7047:7151   */\n    tag_137:\n        /* \"#utility.yul\":7092:7099   */\n      0x00\n        /* \"#utility.yul\":7121:7145   */\n      tag_255\n        /* \"#utility.yul\":7139:7144   */\n      dup3\n        /* \"#utility.yul\":7121:7145   */\n      tag_114\n      jump\t// in\n    tag_255:\n        /* \"#utility.yul\":7110:7145   */\n      swap1\n      pop\n        /* \"#utility.yul\":7047:7151   */\n      swap2\n      swap1\n      pop\n      jump\t// out\n        /* \"#utility.yul\":7157:7295   */\n    tag_138:\n        /* \"#utility.yul\":7238:7270   */\n      tag_257\n        /* \"#utility.yul\":7264:7269   */\n      dup2\n        /* \"#utility.yul\":7238:7270   */\n      tag_137\n      jump\t// in\n    tag_257:\n        /* \"#utility.yul\":7231:7236   */\n      dup2\n        /* \"#utility.yul\":7228:7271   */\n      eq\n        /* \"#utility.yul\":7218:7289   */\n      tag_258\n      jumpi\n        /* \"#utility.yul\":7285:7286   */\n      0x00\n        /* \"#utility.yul\":7282:7283   */\n      dup1\n        /* \"#utility.yul\":7275:7287   */\n      revert\n        /* \"#utility.yul\":7218:7289   */\n    tag_258:\n        /* \"#utility.yul\":7157:7295   */\n      pop\n      jump\t// out\n        /* \"#utility.yul\":7301:7456   */\n    tag_139:\n        /* \"#utility.yul\":7355:7360   */\n      0x00\n        /* \"#utility.yul\":7393:7399   */\n      dup2\n        /* \"#utility.yul\":7380:7400   */\n      calldataload\n        /* \"#utility.yul\":7371:7400   */\n      swap1\n      pop\n        /* \"#utility.yul\":7409:7450   */\n      tag_260\n        /* \"#utility.yul\":7444:7449   */\n      dup2\n        /* \"#utility.yul\":7409:7450   */\n      tag_138\n      jump\t// in\n    tag_260:\n        /* \"#utility.yul\":7301:7456   */\n      swap3\n      swap2\n      pop\n      pop\n      jump\t// out\n        /* \"#utility.yul\":7462:8097   */\n    tag_45:\n        /* \"#utility.yul\":7547:7553   */\n      0x00\n        /* \"#utility.yul\":7555:7561   */\n      dup1\n        /* \"#utility.yul\":7563:7569   */\n      0x00\n        /* \"#utility.yul\":7612:7614   */\n      0x60\n        /* \"#utility.yul\":7600:7609   */\n      dup5\n        /* \"#utility.yul\":7591:7598   */\n      dup7\n        /* \"#utility.yul\":7587:7610   */\n      sub\n        /* \"#utility.yul\":7583:7615   */\n      slt\n        /* \"#utility.yul\":7580:7699   */\n      iszero\n      tag_262\n      jumpi\n        /* \"#utility.yul\":7618:7697   */\n      tag_263\n      tag_112\n      jump\t// in\n    tag_263:\n        /* \"#utility.yul\":7580:7699   */\n    tag_262:\n        /* \"#utility.yul\":7738:7739   */\n      0x00\n        /* \"#utility.yul\":7763:7824   */\n      tag_264\n        /* \"#utility.yul\":7816:7823   */\n      dup7\n        /* \"#utility.yul\":7807:7813   */\n      dup3\n        /* \"#utility.yul\":7796:7805   */\n      dup8\n        /* \"#utility.yul\":7792:7814   */\n      add\n        /* \"#utility.yul\":7763:7824   */\n      tag_139\n      jump\t// in\n    tag_264:\n        /* \"#utility.yul\":7753:7824   */\n      swap4\n      pop\n        /* \"#utility.yul\":7709:7834   */\n      pop\n        /* \"#utility.yul\":7873:7875   */\n      0x20\n        /* \"#utility.yul\":7899:7952   */\n      tag_265\n        /* \"#utility.yul\":7944:7951   */\n      dup7\n        /* \"#utility.yul\":7935:7941   */\n      dup3\n        /* \"#utility.yul\":7924:7933   */\n      dup8\n        /* \"#utility.yul\":7920:7942   */\n      add\n        /* \"#utility.yul\":7899:7952   */\n      tag_120\n      jump\t// in\n    tag_265:\n        /* \"#utility.yul\":7889:7952   */\n      swap3\n      pop\n        /* \"#utility.yul\":7844:7962   */\n      pop\n        /* \"#utility.yul\":8001:8003   */\n      0x40\n        /* \"#utility.yul\":8027:8080   */\n      tag_266\n        /* \"#utility.yul\":8072:8079   */\n      dup7\n        /* \"#utility.yul\":8063:8069   */\n      dup3\n        /* \"#utility.yul\":8052:8061   */\n      dup8\n        /* \"#utility.yul\":8048:8070   */\n      add\n        /* \"#utility.yul\":8027:8080   */\n      tag_120\n      jump\t// in\n    tag_266:\n        /* \"#utility.yul\":8017:8080   */\n      swap2\n      pop\n        /* \"#utility.yul\":7972:8090   */\n      pop\n        /* \"#utility.yul\":7462:8097   */\n      swap3\n      pop\n      swap3\n      pop\n      swap3\n      jump\t// out\n        /* \"#utility.yul\":8103:8283   */\n    tag_140:\n        /* \"#utility.yul\":8151:8228   */\n      0x4e487b7100000000000000000000000000000000000000000000000000000000\n        /* \"#utility.yul\":8148:8149   */\n      0x00\n        /* \"#utility.yul\":8141:8229   */\n      mstore\n        /* \"#utility.yul\":8248:8252   */\n      0x22\n        /* \"#utility.yul\":8245:8246   */\n      0x04\n        /* \"#utility.yul\":8238:8253   */\n      mstore\n        /* \"#utility.yul\":8272:8276   */\n      0x24\n        /* \"#utility.yul\":8269:8270   */\n      0x00\n        /* \"#utility.yul\":8262:8277   */\n      revert\n        /* \"#utility.yul\":8289:8609   */\n    tag_51:\n        /* \"#utility.yul\":8333:8339   */\n      0x00\n        /* \"#utility.yul\":8370:8371   */\n      0x02\n        /* \"#utility.yul\":8364:8368   */\n      dup3\n        /* \"#utility.yul\":8360:8372   */\n      div\n        /* \"#utility.yul\":8350:8372   */\n      swap1\n      pop\n        /* \"#utility.yul\":8417:8418   */\n      0x01\n        /* \"#utility.yul\":8411:8415   */\n      dup3\n        /* \"#utility.yul\":8407:8419   */\n      and\n        /* \"#utility.yul\":8438:8456   */\n      dup1\n        /* \"#utility.yul\":8428:8509   */\n      tag_269\n      jumpi\n        /* \"#utility.yul\":8494:8498   */\n      0x7f\n        /* \"#utility.yul\":8486:8492   */\n      dup3\n        /* \"#utility.yul\":8482:8499   */\n      and\n        /* \"#utility.yul\":8472:8499   */\n      swap2\n      pop\n        /* \"#utility.yul\":8428:8509   */\n    tag_269:\n        /* \"#utility.yul\":8556:8558   */\n      0x20\n        /* \"#utility.yul\":8548:8554   */\n      dup3\n        /* \"#utility.yul\":8545:8559   */\n      lt\n        /* \"#utility.yul\":8525:8543   */\n      dup2\n        /* \"#utility.yul\":8522:8560   */\n      sub\n        /* \"#utility.yul\":8519:8603   */\n      tag_270\n      jumpi\n        /* \"#utility.yul\":8575:8593   */\n      tag_271\n      tag_140\n      jump\t// in\n    tag_271:\n        /* \"#utility.yul\":8519:8603   */\n    tag_270:\n        /* \"#utility.yul\":8340:8609   */\n      pop\n        /* \"#utility.yul\":8289:8609   */\n      swap2\n      swap1\n      pop\n      jump\t// out\n        /* \"#utility.yul\":8615:8774   */\n    tag_141:\n        /* \"#utility.yul\":8755:8766   */\n      0x4e6f742056616c69640000000000000000000000000000000000000000000000\n        /* \"#utility.yul\":8751:8752   */\n      0x00\n        /* \"#utility.yul\":8743:8749   */\n      dup3\n        /* \"#utility.yul\":8739:8753   */\n      add\n        /* \"#utility.yul\":8732:8767   */\n      mstore\n        /* \"#utility.yul\":8615:8774   */\n      pop\n      jump\t// out\n        /* \"#utility.yul\":8780:9145   */\n    tag_142:\n        /* \"#utility.yul\":8922:8925   */\n      0x00\n        /* \"#utility.yul\":8943:9009   */\n      tag_274\n        /* \"#utility.yul\":9007:9008   */\n      0x09\n        /* \"#utility.yul\":9002:9005   */\n      dup4\n        /* \"#utility.yul\":8943:9009   */\n      tag_122\n      jump\t// in\n    tag_274:\n        /* \"#utility.yul\":8936:9009   */\n      swap2\n      pop\n        /* \"#utility.yul\":9018:9111   */\n      tag_275\n        /* \"#utility.yul\":9107:9110   */\n      dup3\n        /* \"#utility.yul\":9018:9111   */\n      tag_141\n      jump\t// in\n    tag_275:\n        /* \"#utility.yul\":9136:9138   */\n      0x20\n        /* \"#utility.yul\":9131:9134   */\n      dup3\n        /* \"#utility.yul\":9127:9139   */\n      add\n        /* \"#utility.yul\":9120:9139   */\n      swap1\n      pop\n        /* \"#utility.yul\":8780:9145   */\n      swap2\n      swap1\n      pop\n      jump\t// out\n        /* \"#utility.yul\":9151:9570   */\n    tag_59:\n        /* \"#utility.yul\":9317:9321   */\n      0x00\n        /* \"#utility.yul\":9355:9357   */\n      0x20\n        /* \"#utility.yul\":9344:9353   */\n      dup3\n        /* \"#utility.yul\":9340:9358   */\n      add\n        /* \"#utility.yul\":9332:9358   */\n      swap1\n      pop\n        /* \"#utility.yul\":9404:9413   */\n      dup2\n        /* \"#utility.yul\":9398:9402   */\n      dup2\n        /* \"#utility.yul\":9394:9414   */\n      sub\n        /* \"#utility.yul\":9390:9391   */\n      0x00\n        /* \"#utility.yul\":9379:9388   */\n      dup4\n        /* \"#utility.yul\":9375:9392   */\n      add\n        /* \"#utility.yul\":9368:9415   */\n      mstore\n        /* \"#utility.yul\":9432:9563   */\n      tag_277\n        /* \"#utility.yul\":9558:9562   */\n      dup2\n        /* \"#utility.yul\":9432:9563   */\n      tag_142\n      jump\t// in\n    tag_277:\n        /* \"#utility.yul\":9424:9563   */\n      swap1\n      pop\n        /* \"#utility.yul\":9151:9570   */\n      swap2\n      swap1\n      pop\n      jump\t// out\n        /* \"#utility.yul\":9576:9717   */\n    tag_143:\n        /* \"#utility.yul\":9625:9629   */\n      0x00\n        /* \"#utility.yul\":9648:9651   */\n      dup2\n        /* \"#utility.yul\":9640:9651   */\n      swap1\n      pop\n        /* \"#utility.yul\":9671:9674   */\n      dup2\n        /* \"#utility.yul\":9668:9669   */\n      0x00\n        /* \"#utility.yul\":9661:9675   */\n      mstore\n        /* \"#utility.yul\":9705:9709   */\n      0x20\n        /* \"#utility.yul\":9702:9703   */\n      0x00\n        /* \"#utility.yul\":9692:9710   */\n      keccak256\n        /* \"#utility.yul\":9684:9710   */\n      swap1\n      pop\n        /* \"#utility.yul\":9576:9717   */\n      swap2\n      swap1\n      pop\n      jump\t// out\n        /* \"#utility.yul\":9723:9816   */\n    tag_144:\n        /* \"#utility.yul\":9760:9766   */\n      0x00\n        /* \"#utility.yul\":9807:9809   */\n      0x20\n        /* \"#utility.yul\":9802:9804   */\n      0x1f\n        /* \"#utility.yul\":9795:9800   */\n      dup4\n        /* \"#utility.yul\":9791:9805   */\n      add\n        /* \"#utility.yul\":9787:9810   */\n      div\n        /* \"#utility.yul\":9777:9810   */\n      swap1\n      pop\n        /* \"#utility.yul\":9723:9816   */\n      swap2\n      swap1\n      pop\n      jump\t// out\n        /* \"#utility.yul\":9822:9929   */\n    tag_145:\n        /* \"#utility.yul\":9866:9874   */\n      0x00\n        /* \"#utility.yul\":9916:9921   */\n      dup3\n        /* \"#utility.yul\":9910:9914   */\n      dup3\n        /* \"#utility.yul\":9906:9922   */\n      shl\n        /* \"#utility.yul\":9885:9922   */\n      swap1\n      pop\n        /* \"#utility.yul\":9822:9929   */\n      swap3\n      swap2\n      pop\n      pop\n      jump\t// out\n        /* \"#utility.yul\":9935:10328   */\n    tag_146:\n        /* \"#utility.yul\":10004:10010   */\n      0x00\n        /* \"#utility.yul\":10054:10055   */\n      0x08\n        /* \"#utility.yul\":10042:10052   */\n      dup4\n        /* \"#utility.yul\":10038:10056   */\n      mul\n        /* \"#utility.yul\":10077:10174   */\n      tag_282\n        /* \"#utility.yul\":10107:10173   */\n      0xffffffffffffffffffffffffffffffffffffffffffffffffffffffffffffffff\n        /* \"#utility.yul\":10096:10105   */\n      dup3\n        /* \"#utility.yul\":10077:10174   */\n      tag_145\n      jump\t// in\n    tag_282:\n        /* \"#utility.yul\":10195:10234   */\n      tag_283\n        /* \"#utility.yul\":10225:10233   */\n      dup7\n        /* \"#utility.yul\":10214:10223   */\n      dup4\n        /* \"#utility.yul\":10195:10234   */\n      tag_145\n      jump\t// in\n    tag_283:\n        /* \"#utility.yul\":10183:10234   */\n      swap6\n      pop\n        /* \"#utility.yul\":10267:10271   */\n      dup1\n        /* \"#utility.yul\":10263:10272   */\n      not\n        /* \"#utility.yul\":10256:10261   */\n      dup5\n        /* \"#utility.yul\":10252:10273   */\n      and\n        /* \"#utility.yul\":10243:10273   */\n      swap4\n      pop\n        /* \"#utility.yul\":10316:10320   */\n      dup1\n        /* \"#utility.yul\":10306:10314   */\n      dup7\n        /* \"#utility.yul\":10302:10321   */\n      and\n        /* \"#utility.yul\":10295:10300   */\n      dup5\n        /* \"#utility.yul\":10292:10322   */\n      or\n        /* \"#utility.yul\":10282:10322   */\n      swap3\n      pop\n        /* \"#utility.yul\":10011:10328   */\n      pop\n      pop\n        /* \"#utility.yul\":9935:10328   */\n      swap4\n      swap3\n      pop\n      pop\n      pop\n      jump\t// out\n        /* \"#utility.yul\":10334:10394   */\n    tag_147:\n        /* \"#utility.yul\":10362:10365   */\n      0x00\n        /* \"#utility.yul\":10383:10388   */\n      dup2\n        /* \"#utility.yul\":10376:10388   */\n      swap1\n      pop\n        /* \"#utility.yul\":10334:10394   */\n      swap2\n      swap1\n      pop\n      jump\t// out\n        /* \"#utility.yul\":10400:10542   */\n    tag_148:\n        /* \"#utility.yul\":10450:10459   */\n      0x00\n        /* \"#utility.yul\":10483:10536   */\n      tag_286\n        /* \"#utility.yul\":10501:10535   */\n      tag_287\n        /* \"#utility.yul\":10510:10534   */\n      tag_288\n        /* \"#utility.yul\":10528:10533   */\n      dup5\n        /* \"#utility.yul\":10510:10534   */\n      tag_118\n      jump\t// in\n    tag_288:\n        /* \"#utility.yul\":10501:10535   */\n      tag_147\n      jump\t// in\n    tag_287:\n        /* \"#utility.yul\":10483:10536   */\n      tag_118\n      jump\t// in\n    tag_286:\n        /* \"#utility.yul\":10470:10536   */\n      swap1\n      pop\n        /* \"#utility.yul\":10400:10542   */\n      swap2\n      swap1\n      pop\n      jump\t// out\n        /* \"#utility.yul\":10548:10623   */\n    tag_149:\n        /* \"#utility.yul\":10591:10594   */\n      0x00\n        /* \"#utility.yul\":10612:10617   */\n      dup2\n        /* \"#utility.yul\":10605:10617   */\n      swap1\n      pop\n        /* \"#utility.yul\":10548:10623   */\n      swap2\n      swap1\n      pop\n      jump\t// out\n        /* \"#utility.yul\":10629:10898   */\n    tag_150:\n        /* \"#utility.yul\":10739:10778   */\n      tag_291\n        /* \"#utility.yul\":10770:10777   */\n      dup4\n        /* \"#utility.yul\":10739:10778   */\n      tag_148\n      jump\t// in\n    tag_291:\n        /* \"#utility.yul\":10800:10891   */\n      tag_292\n        /* \"#utility.yul\":10849:10890   */\n      tag_293\n        /* \"#utility.yul\":10873:10889   */\n      dup3\n        /* \"#utility.yul\":10849:10890   */\n      tag_149\n      jump\t// in\n    tag_293:\n        /* \"#utility.yul\":10841:10847   */\n      dup5\n        /* \"#utility.yul\":10834:10838   */\n      dup5\n        /* \"#utility.yul\":10828:10839   */\n      sload\n        /* \"#utility.yul\":10800:10891   */\n      tag_146\n      jump\t// in\n    tag_292:\n        /* \"#utility.yul\":10794:10798   */\n      dup3\n        /* \"#utility.yul\":10787:10892   */\n      sstore\n        /* \"#utility.yul\":10705:10898   */\n      pop\n        /* \"#utility.yul\":10629:10898   */\n      pop\n      pop\n      pop\n      jump\t// out\n        /* \"#utility.yul\":10904:10977   */\n    tag_151:\n        /* \"#utility.yul\":10949:10952   */\n      0x00\n        /* \"#utility.yul\":10904:10977   */\n      swap1\n      jump\t// out\n        /* \"#utility.yul\":10983:11172   */\n    tag_152:\n        /* \"#utility.yul\":11060:11092   */\n      tag_296\n      tag_151\n      jump\t// in\n    tag_296:\n        /* \"#utility.yul\":11101:11166   */\n      tag_297\n        /* \"#utility.yul\":11159:11165   */\n      dup2\n        /* \"#utility.yul\":11151:11157   */\n      dup5\n        /* \"#utility.yul\":11145:11149   */\n      dup5\n        /* \"#utility.yul\":11101:11166   */\n      tag_150\n      jump\t// in\n    tag_297:\n        /* \"#utility.yul\":11036:11172   */\n      pop\n        /* \"#utility.yul\":10983:11172   */\n      pop\n      pop\n      jump\t// out\n        /* \"#utility.yul\":11178:11364   */\n    tag_153:\n        /* \"#utility.yul\":11238:11358   */\n    tag_299:\n        /* \"#utility.yul\":11255:11258   */\n      dup2\n        /* \"#utility.yul\":11248:11253   */\n      dup2\n        /* \"#utility.yul\":11245:11259   */\n      lt\n        /* \"#utility.yul\":11238:11358   */\n      iszero\n      tag_301\n      jumpi\n        /* \"#utility.yul\":11309:11348   */\n      tag_302\n        /* \"#utility.yul\":11346:11347   */\n      0x00\n        /* \"#utility.yul\":11339:11344   */\n      dup3\n        /* \"#utility.yul\":11309:11348   */\n      tag_152\n      jump\t// in\n    tag_302:\n        /* \"#utility.yul\":11282:11283   */\n      0x01\n        /* \"#utility.yul\":11275:11280   */\n      dup2\n        /* \"#utility.yul\":11271:11284   */\n      add\n        /* \"#utility.yul\":11262:11284   */\n      swap1\n      pop\n        /* \"#utility.yul\":11238:11358   */\n      jump(tag_299)\n    tag_301:\n        /* \"#utility.yul\":11178:11364   */\n      pop\n      pop\n      jump\t// out\n        /* \"#utility.yul\":11370:11913   */\n    tag_154:\n        /* \"#utility.yul\":11471:11473   */\n      0x1f\n        /* \"#utility.yul\":11466:11469   */\n      dup3\n        /* \"#utility.yul\":11463:11474   */\n      gt\n        /* \"#utility.yul\":11460:11906   */\n      iszero\n      tag_304\n      jumpi\n        /* \"#utility.yul\":11505:11543   */\n      tag_305\n        /* \"#utility.yul\":11537:11542   */\n      dup2\n        /* \"#utility.yul\":11505:11543   */\n      tag_143\n      jump\t// in\n    tag_305:\n        /* \"#utility.yul\":11589:11618   */\n      tag_306\n        /* \"#utility.yul\":11607:11617   */\n      dup5\n        /* \"#utility.yul\":11589:11618   */\n      tag_144\n      jump\t// in\n    tag_306:\n        /* \"#utility.yul\":11579:11587   */\n      dup2\n        /* \"#utility.yul\":11575:11619   */\n      add\n        /* \"#utility.yul\":11772:11774   */\n      0x20\n        /* \"#utility.yul\":11760:11770   */\n      dup6\n        /* \"#utility.yul\":11757:11775   */\n      lt\n        /* \"#utility.yul\":11754:11803   */\n      iszero\n      tag_307\n      jumpi\n        /* \"#utility.yul\":11793:11801   */\n      dup2\n        /* \"#utility.yul\":11778:11801   */\n      swap1\n      pop\n        /* \"#utility.yul\":11754:11803   */\n    tag_307:\n        /* \"#utility.yul\":11816:11896   */\n      tag_308\n        /* \"#utility.yul\":11872:11894   */\n      tag_309\n        /* \"#utility.yul\":11890:11893   */\n      dup6\n        /* \"#utility.yul\":11872:11894   */\n      tag_144\n      jump\t// in\n    tag_309:\n        /* \"#utility.yul\":11862:11870   */\n      dup4\n        /* \"#utility.yul\":11858:11895   */\n      add\n        /* \"#utility.yul\":11845:11856   */\n      dup3\n        /* \"#utility.yul\":11816:11896   */\n      tag_153\n      jump\t// in\n    tag_308:\n        /* \"#utility.yul\":11475:11906   */\n      pop\n      pop\n        /* \"#utility.yul\":11460:11906   */\n    tag_304:\n        /* \"#utility.yul\":11370:11913   */\n      pop\n      pop\n      pop\n      jump\t// out\n        /* \"#utility.yul\":11919:12036   */\n    tag_155:\n        /* \"#utility.yul\":11973:11981   */\n      0x00\n        /* \"#utility.yul\":12023:12028   */\n      dup3\n        /* \"#utility.yul\":12017:12021   */\n      dup3\n        /* \"#utility.yul\":12013:12029   */\n      shr\n        /* \"#utility.yul\":11992:12029   */\n      swap1\n      pop\n        /* \"#utility.yul\":11919:12036   */\n      swap3\n      swap2\n      pop\n      pop\n      jump\t// out\n        /* \"#utility.yul\":12042:12211   */\n    tag_156:\n        /* \"#utility.yul\":12086:12092   */\n      0x00\n        /* \"#utility.yul\":12119:12170   */\n      tag_312\n        /* \"#utility.yul\":12167:12168   */\n      0x00\n        /* \"#utility.yul\":12163:12169   */\n      not\n        /* \"#utility.yul\":12155:12160   */\n      dup5\n        /* \"#utility.yul\":12152:12153   */\n      0x08\n        /* \"#utility.yul\":12148:12161   */\n      mul\n        /* \"#utility.yul\":12119:12170   */\n      tag_155\n      jump\t// in\n    tag_312:\n        /* \"#utility.yul\":12115:12171   */\n      not\n        /* \"#utility.yul\":12200:12204   */\n      dup1\n        /* \"#utility.yul\":12194:12198   */\n      dup4\n        /* \"#utility.yul\":12190:12205   */\n      and\n        /* \"#utility.yul\":12180:12205   */\n      swap2\n      pop\n        /* \"#utility.yul\":12093:12211   */\n      pop\n        /* \"#utility.yul\":12042:12211   */\n      swap3\n      swap2\n      pop\n      pop\n      jump\t// out\n        /* \"#utility.yul\":12216:12511   */\n    tag_157:\n        /* \"#utility.yul\":12292:12296   */\n      0x00\n        /* \"#utility.yul\":12438:12467   */\n      tag_314\n        /* \"#utility.yul\":12463:12466   */\n      dup4\n        /* \"#utility.yul\":12457:12461   */\n      dup4\n        /* \"#utility.yul\":12438:12467   */\n      tag_156\n      jump\t// in\n    tag_314:\n        /* \"#utility.yul\":12430:12467   */\n      swap2\n      pop\n        /* \"#utility.yul\":12500:12503   */\n      dup3\n        /* \"#utility.yul\":12497:12498   */\n      0x02\n        /* \"#utility.yul\":12493:12504   */\n      mul\n        /* \"#utility.yul\":12487:12491   */\n      dup3\n        /* \"#utility.yul\":12484:12505   */\n      or\n        /* \"#utility.yul\":12476:12505   */\n      swap1\n      pop\n        /* \"#utility.yul\":12216:12511   */\n      swap3\n      swap2\n      pop\n      pop\n      jump\t// out\n        /* \"#utility.yul\":12516:13911   */\n    tag_61:\n        /* \"#utility.yul\":12633:12670   */\n      tag_316\n        /* \"#utility.yul\":12666:12669   */\n      dup3\n        /* \"#utility.yul\":12633:12670   */\n      tag_121\n      jump\t// in\n    tag_316:\n        /* \"#utility.yul\":12735:12753   */\n      0xffffffffffffffff\n        /* \"#utility.yul\":12727:12733   */\n      dup2\n        /* \"#utility.yul\":12724:12754   */\n      gt\n        /* \"#utility.yul\":12721:12777   */\n      iszero\n      tag_317\n      jumpi\n        /* \"#utility.yul\":12757:12775   */\n      tag_318\n      tag_130\n      jump\t// in\n    tag_318:\n        /* \"#utility.yul\":12721:12777   */\n    tag_317:\n        /* \"#utility.yul\":12801:12839   */\n      tag_319\n        /* \"#utility.yul\":12833:12837   */\n      dup3\n        /* \"#utility.yul\":12827:12838   */\n      sload\n        /* \"#utility.yul\":12801:12839   */\n      tag_51\n      jump\t// in\n    tag_319:\n        /* \"#utility.yul\":12886:12953   */\n      tag_320\n        /* \"#utility.yul\":12946:12952   */\n      dup3\n        /* \"#utility.yul\":12938:12944   */\n      dup3\n        /* \"#utility.yul\":12932:12936   */\n      dup6\n        /* \"#utility.yul\":12886:12953   */\n      tag_154\n      jump\t// in\n    tag_320:\n        /* \"#utility.yul\":12980:12981   */\n      0x00\n        /* \"#utility.yul\":13004:13008   */\n      0x20\n        /* \"#utility.yul\":12991:13008   */\n      swap1\n      pop\n        /* \"#utility.yul\":13036:13038   */\n      0x1f\n        /* \"#utility.yul\":13028:13034   */\n      dup4\n        /* \"#utility.yul\":13025:13039   */\n      gt\n        /* \"#utility.yul\":13053:13054   */\n      0x01\n        /* \"#utility.yul\":13048:13666   */\n      dup2\n      eq\n      tag_322\n      jumpi\n        /* \"#utility.yul\":13710:13711   */\n      0x00\n        /* \"#utility.yul\":13727:13733   */\n      dup5\n        /* \"#utility.yul\":13724:13801   */\n      iszero\n      tag_323\n      jumpi\n        /* \"#utility.yul\":13776:13785   */\n      dup3\n        /* \"#utility.yul\":13771:13774   */\n      dup8\n        /* \"#utility.yul\":13767:13786   */\n      add\n        /* \"#utility.yul\":13761:13787   */\n      mload\n        /* \"#utility.yul\":13752:13787   */\n      swap1\n      pop\n        /* \"#utility.yul\":13724:13801   */\n    tag_323:\n        /* \"#utility.yul\":13827:13894   */\n      tag_324\n        /* \"#utility.yul\":13887:13893   */\n      dup6\n        /* \"#utility.yul\":13880:13885   */\n      dup3\n        /* \"#utility.yul\":13827:13894   */\n      tag_157\n      jump\t// in\n    tag_324:\n        /* \"#utility.yul\":13821:13825   */\n      dup7\n        /* \"#utility.yul\":13814:13895   */\n      sstore\n        /* \"#utility.yul\":13683:13905   */\n      pop\n        /* \"#utility.yul\":13018:13905   */\n      jump(tag_321)\n        /* \"#utility.yul\":13048:13666   */\n    tag_322:\n        /* \"#utility.yul\":13100:13104   */\n      0x1f\n        /* \"#utility.yul\":13096:13105   */\n      not\n        /* \"#utility.yul\":13088:13094   */\n      dup5\n        /* \"#utility.yul\":13084:13106   */\n      and\n        /* \"#utility.yul\":13134:13171   */\n      tag_325\n        /* \"#utility.yul\":13166:13170   */\n      dup7\n        /* \"#utility.yul\":13134:13171   */\n      tag_143\n      jump\t// in\n    tag_325:\n        /* \"#utility.yul\":13193:13194   */\n      0x00\n        /* \"#utility.yul\":13207:13415   */\n    tag_326:\n        /* \"#utility.yul\":13221:13228   */\n      dup3\n        /* \"#utility.yul\":13218:13219   */\n      dup2\n        /* \"#utility.yul\":13215:13229   */\n      lt\n        /* \"#utility.yul\":13207:13415   */\n      iszero\n      tag_328\n      jumpi\n        /* \"#utility.yul\":13300:13309   */\n      dup5\n        /* \"#utility.yul\":13295:13298   */\n      dup10\n        /* \"#utility.yul\":13291:13310   */\n      add\n        /* \"#utility.yul\":13285:13311   */\n      mload\n        /* \"#utility.yul\":13277:13283   */\n      dup3\n        /* \"#utility.yul\":13270:13312   */\n      sstore\n        /* \"#utility.yul\":13351:13352   */\n      0x01\n        /* \"#utility.yul\":13343:13349   */\n      dup3\n        /* \"#utility.yul\":13339:13353   */\n      add\n        /* \"#utility.yul\":13329:13353   */\n      swap2\n      pop\n        /* \"#utility.yul\":13398:13400   */\n      0x20\n        /* \"#utility.yul\":13387:13396   */\n      dup6\n        /* \"#utility.yul\":13383:13401   */\n      add\n        /* \"#utility.yul\":13370:13401   */\n      swap5\n      pop\n        /* \"#utility.yul\":13244:13248   */\n      0x20\n        /* \"#utility.yul\":13241:13242   */\n      dup2\n        /* \"#utility.yul\":13237:13249   */\n      add\n        /* \"#utility.yul\":13232:13249   */\n      swap1\n      pop\n        /* \"#utility.yul\":13207:13415   */\n      jump(tag_326)\n    tag_328:\n        /* \"#utility.yul\":13443:13449   */\n      dup7\n        /* \"#utility.yul\":13434:13441   */\n      dup4\n        /* \"#utility.yul\":13431:13450   */\n      lt\n        /* \"#utility.yul\":13428:13607   */\n      iszero\n      tag_329\n      jumpi\n        /* \"#utility.yul\":13501:13510   */\n      dup5\n        /* \"#utility.yul\":13496:13499   */\n      dup10\n        /* \"#utility.yul\":13492:13511   */\n      add\n        /* \"#utility.yul\":13486:13512   */\n      mload\n        /* \"#utility.yul\":13544:13592   */\n      tag_330\n        /* \"#utility.yul\":13586:13590   */\n      0x1f\n        /* \"#utility.yul\":13578:13584   */\n      dup10\n        /* \"#utility.yul\":13574:13591   */\n      and\n        /* \"#utility.yul\":13563:13572   */\n      dup3\n        /* \"#utility.yul\":13544:13592   */\n      tag_156\n      jump\t// in\n    tag_330:\n        /* \"#utility.yul\":13536:13542   */\n      dup4\n        /* \"#utility.yul\":13529:13593   */\n      sstore\n        /* \"#utility.yul\":13451:13607   */\n      pop\n        /* \"#utility.yul\":13428:13607   */\n    tag_329:\n        /* \"#utility.yul\":13653:13654   */\n      0x01\n        /* \"#utility.yul\":13649:13650   */\n      0x02\n        /* \"#utility.yul\":13641:13647   */\n      dup9\n        /* \"#utility.yul\":13637:13651   */\n      mul\n        /* \"#utility.yul\":13633:13655   */\n      add\n        /* \"#utility.yul\":13627:13631   */\n      dup9\n        /* \"#utility.yul\":13620:13656   */\n      sstore\n        /* \"#utility.yul\":13055:13666   */\n      pop\n      pop\n      pop\n        /* \"#utility.yul\":13018:13905   */\n    tag_321:\n      pop\n        /* \"#utility.yul\":12608:13911   */\n      pop\n      pop\n      pop\n        /* \"#utility.yul\":12516:13911   */\n      pop\n      pop\n      jump\t// out\n        /* \"#utility.yul\":13917:14097   */\n    tag_158:\n        /* \"#utility.yul\":13965:14042   */\n      0x4e487b7100000000000000000000000000000000000000000000000000000000\n        /* \"#utility.yul\":13962:13963   */\n      0x00\n        /* \"#utility.yul\":13955:14043   */\n      mstore\n        /* \"#utility.yul\":14062:14066   */\n      0x11\n        /* \"#utility.yul\":14059:14060   */\n      0x04\n        /* \"#utility.yul\":14052:14067   */\n      mstore\n        /* \"#utility.yul\":14086:14090   */\n      0x24\n        /* \"#utility.yul\":14083:14084   */\n      0x00\n        /* \"#utility.yul\":14076:14091   */\n      revert\n        /* \"#utility.yul\":14103:14294   */\n    tag_63:\n        /* \"#utility.yul\":14143:14146   */\n      0x00\n        /* \"#utility.yul\":14162:14182   */\n      tag_333\n        /* \"#utility.yul\":14180:14181   */\n      dup3\n        /* \"#utility.yul\":14162:14182   */\n      tag_118\n      jump\t// in\n    tag_333:\n        /* \"#utility.yul\":14157:14182   */\n      swap2\n      pop\n        /* \"#utility.yul\":14196:14216   */\n      tag_334\n        /* \"#utility.yul\":14214:14215   */\n      dup4\n        /* \"#utility.yul\":14196:14216   */\n      tag_118\n      jump\t// in\n    tag_334:\n        /* \"#utility.yul\":14191:14216   */\n      swap3\n      pop\n        /* \"#utility.yul\":14239:14240   */\n      dup3\n        /* \"#utility.yul\":14236:14237   */\n      dup3\n        /* \"#utility.yul\":14232:14241   */\n      add\n        /* \"#utility.yul\":14225:14241   */\n      swap1\n      pop\n        /* \"#utility.yul\":14260:14263   */\n      dup1\n        /* \"#utility.yul\":14257:14258   */\n      dup3\n        /* \"#utility.yul\":14254:14264   */\n      gt\n        /* \"#utility.yul\":14251:14287   */\n      iszero\n      tag_335\n      jumpi\n        /* \"#utility.yul\":14267:14285   */\n      tag_336\n      tag_158\n      jump\t// in\n    tag_336:\n        /* \"#utility.yul\":14251:14287   */\n    tag_335:\n        /* \"#utility.yul\":14103:14294   */\n      swap3\n      swap2\n      pop\n      pop\n      jump\t// out\n        /* \"#utility.yul\":14300:14833   */\n    tag_65:\n        /* \"#utility.yul\":14469:14473   */\n      0x00\n        /* \"#utility.yul\":14507:14509   */\n      0x60\n        /* \"#utility.yul\":14496:14505   */\n      dup3\n        /* \"#utility.yul\":14492:14510   */\n      add\n        /* \"#utility.yul\":14484:14510   */\n      swap1\n      pop\n        /* \"#utility.yul\":14520:14591   */\n      tag_338\n        /* \"#utility.yul\":14588:14589   */\n      0x00\n        /* \"#utility.yul\":14577:14586   */\n      dup4\n        /* \"#utility.yul\":14573:14590   */\n      add\n        /* \"#utility.yul\":14564:14570   */\n      dup7\n        /* \"#utility.yul\":14520:14591   */\n      tag_127\n      jump\t// in\n    tag_338:\n        /* \"#utility.yul\":14601:14673   */\n      tag_339\n        /* \"#utility.yul\":14669:14671   */\n      0x20\n        /* \"#utility.yul\":14658:14667   */\n      dup4\n        /* \"#utility.yul\":14654:14672   */\n      add\n        /* \"#utility.yul\":14645:14651   */\n      dup6\n        /* \"#utility.yul\":14601:14673   */\n      tag_126\n      jump\t// in\n    tag_339:\n        /* \"#utility.yul\":14720:14729   */\n      dup2\n        /* \"#utility.yul\":14714:14718   */\n      dup2\n        /* \"#utility.yul\":14710:14730   */\n      sub\n        /* \"#utility.yul\":14705:14707   */\n      0x40\n        /* \"#utility.yul\":14694:14703   */\n      dup4\n        /* \"#utility.yul\":14690:14708   */\n      add\n        /* \"#utility.yul\":14683:14731   */\n      mstore\n        /* \"#utility.yul\":14748:14826   */\n      tag_340\n        /* \"#utility.yul\":14821:14825   */\n      dup2\n        /* \"#utility.yul\":14812:14818   */\n      dup5\n        /* \"#utility.yul\":14748:14826   */\n      tag_125\n      jump\t// in\n    tag_340:\n        /* \"#utility.yul\":14740:14826   */\n      swap1\n      pop\n        /* \"#utility.yul\":14300:14833   */\n      swap5\n      swap4\n      pop\n      pop\n      pop\n      pop\n      jump\t// out\n        /* \"#utility.yul\":14839:15060   */\n    tag_159:\n        /* \"#utility.yul\":14979:15013   */\n      0x204f6e6c79206f776e65722063616e20776974686472617720746865206d6f6e\n        /* \"#utility.yul\":14975:14976   */\n      0x00\n        /* \"#utility.yul\":14967:14973   */\n      dup3\n        /* \"#utility.yul\":14963:14977   */\n      add\n        /* \"#utility.yul\":14956:15014   */\n      mstore\n        /* \"#utility.yul\":15048:15052   */\n      0x6579000000000000000000000000000000000000000000000000000000000000\n        /* \"#utility.yul\":15043:15045   */\n      0x20\n        /* \"#utility.yul\":15035:15041   */\n      dup3\n        /* \"#utility.yul\":15031:15046   */\n      add\n        /* \"#utility.yul\":15024:15053   */\n      mstore\n        /* \"#utility.yul\":14839:15060   */\n      pop\n      jump\t// out\n        /* \"#utility.yul\":15066:15432   */\n    tag_160:\n        /* \"#utility.yul\":15208:15211   */\n      0x00\n        /* \"#utility.yul\":15229:15296   */\n      tag_343\n        /* \"#utility.yul\":15293:15295   */\n      0x22\n        /* \"#utility.yul\":15288:15291   */\n      dup4\n        /* \"#utility.yul\":15229:15296   */\n      tag_122\n      jump\t// in\n    tag_343:\n        /* \"#utility.yul\":15222:15296   */\n      swap2\n      pop\n        /* \"#utility.yul\":15305:15398   */\n      tag_344\n        /* \"#utility.yul\":15394:15397   */\n      dup3\n        /* \"#utility.yul\":15305:15398   */\n      tag_159\n      jump\t// in\n    tag_344:\n        /* \"#utility.yul\":15423:15425   */\n      0x40\n        /* \"#utility.yul\":15418:15421   */\n      dup3\n        /* \"#utility.yul\":15414:15426   */\n      add\n        /* \"#utility.yul\":15407:15426   */\n      swap1\n      pop\n        /* \"#utility.yul\":15066:15432   */\n      swap2\n      swap1\n      pop\n      jump\t// out\n        /* \"#utility.yul\":15438:15857   */\n    tag_69:\n        /* \"#utility.yul\":15604:15608   */\n      0x00\n        /* \"#utility.yul\":15642:15644   */\n      0x20\n        /* \"#utility.yul\":15631:15640   */\n      dup3\n        /* \"#utility.yul\":15627:15645   */\n      add\n        /* \"#utility.yul\":15619:15645   */\n      swap1\n      pop\n        /* \"#utility.yul\":15691:15700   */\n      dup2\n        /* \"#utility.yul\":15685:15689   */\n      dup2\n        /* \"#utility.yul\":15681:15701   */\n      sub\n        /* \"#utility.yul\":15677:15678   */\n      0x00\n        /* \"#utility.yul\":15666:15675   */\n      dup4\n        /* \"#utility.yul\":15662:15679   */\n      add\n        /* \"#utility.yul\":15655:15702   */\n      mstore\n        /* \"#utility.yul\":15719:15850   */\n      tag_346\n        /* \"#utility.yul\":15845:15849   */\n      dup2\n        /* \"#utility.yul\":15719:15850   */\n      tag_160\n      jump\t// in\n    tag_346:\n        /* \"#utility.yul\":15711:15850   */\n      swap1\n      pop\n        /* \"#utility.yul\":15438:15857   */\n      swap2\n      swap1\n      pop\n      jump\t// out\n        /* \"#utility.yul\":15863:16084   */\n    tag_161:\n        /* \"#utility.yul\":16003:16037   */\n      0x204f6e6c79204f776e65722063616e2063616e63656c20746865204175637469\n        /* \"#utility.yul\":15999:16000   */\n      0x00\n        /* \"#utility.yul\":15991:15997   */\n      dup3\n        /* \"#utility.yul\":15987:16001   */\n      add\n        /* \"#utility.yul\":15980:16038   */\n      mstore\n        /* \"#utility.yul\":16072:16076   */\n      0x6f6e000000000000000000000000000000000000000000000000000000000000\n        /* \"#utility.yul\":16067:16069   */\n      0x20\n        /* \"#utility.yul\":16059:16065   */\n      dup3\n        /* \"#utility.yul\":16055:16070   */\n      add\n        /* \"#utility.yul\":16048:16077   */\n      mstore\n        /* \"#utility.yul\":15863:16084   */\n      pop\n      jump\t// out\n        /* \"#utility.yul\":16090:16456   */\n    tag_162:\n        /* \"#utility.yul\":16232:16235   */\n      0x00\n        /* \"#utility.yul\":16253:16320   */\n      tag_349\n        /* \"#utility.yul\":16317:16319   */\n      0x22\n        /* \"#utility.yul\":16312:16315   */\n      dup4\n        /* \"#utility.yul\":16253:16320   */\n      tag_122\n      jump\t// in\n    tag_349:\n        /* \"#utility.yul\":16246:16320   */\n      swap2\n      pop\n        /* \"#utility.yul\":16329:16422   */\n      tag_350\n        /* \"#utility.yul\":16418:16421   */\n      dup3\n        /* \"#utility.yul\":16329:16422   */\n      tag_161\n      jump\t// in\n    tag_350:\n        /* \"#utility.yul\":16447:16449   */\n      0x40\n        /* \"#utility.yul\":16442:16445   */\n      dup3\n        /* \"#utility.yul\":16438:16450   */\n      add\n        /* \"#utility.yul\":16431:16450   */\n      swap1\n      pop\n        /* \"#utility.yul\":16090:16456   */\n      swap2\n      swap1\n      pop\n      jump\t// out\n        /* \"#utility.yul\":16462:16881   */\n    tag_77:\n        /* \"#utility.yul\":16628:16632   */\n      0x00\n        /* \"#utility.yul\":16666:16668   */\n      0x20\n        /* \"#utility.yul\":16655:16664   */\n      dup3\n        /* \"#utility.yul\":16651:16669   */\n      add\n        /* \"#utility.yul\":16643:16669   */\n      swap1\n      pop\n        /* \"#utility.yul\":16715:16724   */\n      dup2\n        /* \"#utility.yul\":16709:16713   */\n      dup2\n        /* \"#utility.yul\":16705:16725   */\n      sub\n        /* \"#utility.yul\":16701:16702   */\n      0x00\n        /* \"#utility.yul\":16690:16699   */\n      dup4\n        /* \"#utility.yul\":16686:16703   */\n      add\n        /* \"#utility.yul\":16679:16726   */\n      mstore\n        /* \"#utility.yul\":16743:16874   */\n      tag_352\n        /* \"#utility.yul\":16869:16873   */\n      dup2\n        /* \"#utility.yul\":16743:16874   */\n      tag_162\n      jump\t// in\n    tag_352:\n        /* \"#utility.yul\":16735:16874   */\n      swap1\n      pop\n        /* \"#utility.yul\":16462:16881   */\n      swap2\n      swap1\n      pop\n      jump\t// out\n        /* \"#utility.yul\":16887:17036   */\n    tag_163:\n        /* \"#utility.yul\":16936:16942   */\n      0x00\n        /* \"#utility.yul\":16970:16975   */\n      dup2\n        /* \"#utility.yul\":16964:16976   */\n      sload\n        /* \"#utility.yul\":16954:16976   */\n      swap1\n      pop\n        /* \"#utility.yul\":16996:17029   */\n      tag_354\n        /* \"#utility.yul\":17022:17028   */\n      dup2\n        /* \"#utility.yul\":16996:17029   */\n      tag_51\n      jump\t// in\n    tag_354:\n        /* \"#utility.yul\":16986:17029   */\n      swap1\n      pop\n        /* \"#utility.yul\":16887:17036   */\n      swap2\n      swap1\n      pop\n      jump\t// out\n        /* \"#utility.yul\":17042:18493   */\n    tag_84:\n        /* \"#utility.yul\":17153:17156   */\n      dup2\n        /* \"#utility.yul\":17147:17151   */\n      dup2\n        /* \"#utility.yul\":17144:17157   */\n      sub\n        /* \"#utility.yul\":17141:17167   */\n      tag_356\n      jumpi\n        /* \"#utility.yul\":17160:17165   */\n      pop\n      pop\n      jump(tag_355)\n        /* \"#utility.yul\":17141:17167   */\n    tag_356:\n        /* \"#utility.yul\":17191:17225   */\n      tag_357\n        /* \"#utility.yul\":17221:17224   */\n      dup3\n        /* \"#utility.yul\":17191:17225   */\n      tag_163\n      jump\t// in\n    tag_357:\n        /* \"#utility.yul\":17290:17308   */\n      0xffffffffffffffff\n        /* \"#utility.yul\":17282:17288   */\n      dup2\n        /* \"#utility.yul\":17279:17309   */\n      gt\n        /* \"#utility.yul\":17276:17332   */\n      iszero\n      tag_358\n      jumpi\n        /* \"#utility.yul\":17312:17330   */\n      tag_359\n      tag_130\n      jump\t// in\n    tag_359:\n        /* \"#utility.yul\":17276:17332   */\n    tag_358:\n        /* \"#utility.yul\":17356:17394   */\n      tag_360\n        /* \"#utility.yul\":17388:17392   */\n      dup3\n        /* \"#utility.yul\":17382:17393   */\n      sload\n        /* \"#utility.yul\":17356:17394   */\n      tag_51\n      jump\t// in\n    tag_360:\n        /* \"#utility.yul\":17441:17508   */\n      tag_361\n        /* \"#utility.yul\":17501:17507   */\n      dup3\n        /* \"#utility.yul\":17493:17499   */\n      dup3\n        /* \"#utility.yul\":17487:17491   */\n      dup6\n        /* \"#utility.yul\":17441:17508   */\n      tag_154\n      jump\t// in\n    tag_361:\n        /* \"#utility.yul\":17535:17536   */\n      0x00\n        /* \"#utility.yul\":17564:17566   */\n      0x1f\n        /* \"#utility.yul\":17556:17562   */\n      dup4\n        /* \"#utility.yul\":17553:17567   */\n      gt\n        /* \"#utility.yul\":17581:17582   */\n      0x01\n        /* \"#utility.yul\":17576:18248   */\n      dup2\n      eq\n      tag_363\n      jumpi\n        /* \"#utility.yul\":18292:18293   */\n      0x00\n        /* \"#utility.yul\":18309:18315   */\n      dup5\n        /* \"#utility.yul\":18306:18383   */\n      iszero\n      tag_364\n      jumpi\n        /* \"#utility.yul\":18358:18367   */\n      dup3\n        /* \"#utility.yul\":18353:18356   */\n      dup8\n        /* \"#utility.yul\":18349:18368   */\n      add\n        /* \"#utility.yul\":18343:18369   */\n      sload\n        /* \"#utility.yul\":18334:18369   */\n      swap1\n      pop\n        /* \"#utility.yul\":18306:18383   */\n    tag_364:\n        /* \"#utility.yul\":18409:18476   */\n      tag_365\n        /* \"#utility.yul\":18469:18475   */\n      dup6\n        /* \"#utility.yul\":18462:18467   */\n      dup3\n        /* \"#utility.yul\":18409:18476   */\n      tag_157\n      jump\t// in\n    tag_365:\n        /* \"#utility.yul\":18403:18407   */\n      dup7\n        /* \"#utility.yul\":18396:18477   */\n      sstore\n        /* \"#utility.yul\":18265:18487   */\n      pop\n        /* \"#utility.yul\":17546:18487   */\n      jump(tag_362)\n        /* \"#utility.yul\":17576:18248   */\n    tag_363:\n        /* \"#utility.yul\":17628:17632   */\n      0x1f\n        /* \"#utility.yul\":17624:17633   */\n      not\n        /* \"#utility.yul\":17616:17622   */\n      dup5\n        /* \"#utility.yul\":17612:17634   */\n      and\n        /* \"#utility.yul\":17654:17690   */\n      tag_366\n        /* \"#utility.yul\":17686:17689   */\n      dup8\n        /* \"#utility.yul\":17654:17690   */\n      tag_143\n      jump\t// in\n    tag_366:\n        /* \"#utility.yul\":17647:17690   */\n      swap7\n      pop\n        /* \"#utility.yul\":17717:17754   */\n      tag_367\n        /* \"#utility.yul\":17749:17753   */\n      dup7\n        /* \"#utility.yul\":17717:17754   */\n      tag_143\n      jump\t// in\n    tag_367:\n        /* \"#utility.yul\":17776:17777   */\n      0x00\n        /* \"#utility.yul\":17790:17997   */\n    tag_368:\n        /* \"#utility.yul\":17804:17811   */\n      dup3\n        /* \"#utility.yul\":17801:17802   */\n      dup2\n        /* \"#utility.yul\":17798:17812   */\n      lt\n        /* \"#utility.yul\":17790:17997   */\n      iszero\n      tag_370\n      jumpi\n        /* \"#utility.yul\":17883:17892   */\n      dup5\n        /* \"#utility.yul\":17878:17881   */\n      dup10\n        /* \"#utility.yul\":17874:17893   */\n      add\n        /* \"#utility.yul\":17868:17894   */\n      sload\n        /* \"#utility.yul\":17860:17866   */\n      dup3\n        /* \"#utility.yul\":17853:17895   */\n      sstore\n        /* \"#utility.yul\":17934:17935   */\n      0x01\n        /* \"#utility.yul\":17926:17932   */\n      dup3\n        /* \"#utility.yul\":17922:17936   */\n      add\n        /* \"#utility.yul\":17912:17936   */\n      swap2\n      pop\n        /* \"#utility.yul\":17981:17982   */\n      0x01\n        /* \"#utility.yul\":17970:17979   */\n      dup6\n        /* \"#utility.yul\":17966:17983   */\n      add\n        /* \"#utility.yul\":17953:17983   */\n      swap5\n      pop\n        /* \"#utility.yul\":17827:17831   */\n      0x20\n        /* \"#utility.yul\":17824:17825   */\n      dup2\n        /* \"#utility.yul\":17820:17832   */\n      add\n        /* \"#utility.yul\":17815:17832   */\n      swap1\n      pop\n        /* \"#utility.yul\":17790:17997   */\n      jump(tag_368)\n    tag_370:\n        /* \"#utility.yul\":18025:18031   */\n      dup7\n        /* \"#utility.yul\":18016:18023   */\n      dup4\n        /* \"#utility.yul\":18013:18032   */\n      lt\n        /* \"#utility.yul\":18010:18189   */\n      iszero\n      tag_371\n      jumpi\n        /* \"#utility.yul\":18083:18092   */\n      dup5\n        /* \"#utility.yul\":18078:18081   */\n      dup10\n        /* \"#utility.yul\":18074:18093   */\n      add\n        /* \"#utility.yul\":18068:18094   */\n      sload\n        /* \"#utility.yul\":18126:18174   */\n      tag_372\n        /* \"#utility.yul\":18168:18172   */\n      0x1f\n        /* \"#utility.yul\":18160:18166   */\n      dup10\n        /* \"#utility.yul\":18156:18173   */\n      and\n        /* \"#utility.yul\":18145:18154   */\n      dup3\n        /* \"#utility.yul\":18126:18174   */\n      tag_156\n      jump\t// in\n    tag_372:\n        /* \"#utility.yul\":18118:18124   */\n      dup4\n        /* \"#utility.yul\":18111:18175   */\n      sstore\n        /* \"#utility.yul\":18033:18189   */\n      pop\n        /* \"#utility.yul\":18010:18189   */\n    tag_371:\n        /* \"#utility.yul\":18235:18236   */\n      0x01\n        /* \"#utility.yul\":18231:18232   */\n      0x02\n        /* \"#utility.yul\":18223:18229   */\n      dup9\n        /* \"#utility.yul\":18219:18233   */\n      mul\n        /* \"#utility.yul\":18215:18237   */\n      add\n        /* \"#utility.yul\":18209:18213   */\n      dup9\n        /* \"#utility.yul\":18202:18238   */\n      sstore\n        /* \"#utility.yul\":17583:18248   */\n      pop\n      pop\n      pop\n        /* \"#utility.yul\":17546:18487   */\n    tag_362:\n      pop\n        /* \"#utility.yul\":17131:18493   */\n      pop\n      pop\n      pop\n        /* \"#utility.yul\":17042:18493   */\n      pop\n      pop\n    tag_355:\n      jump\t// out\n        /* \"#utility.yul\":18499:18665   */\n    tag_164:\n        /* \"#utility.yul\":18639:18657   */\n      0x206f776e65722063616e27742062696400000000000000000000000000000000\n        /* \"#utility.yul\":18635:18636   */\n      0x00\n        /* \"#utility.yul\":18627:18633   */\n      dup3\n        /* \"#utility.yul\":18623:18637   */\n      add\n        /* \"#utility.yul\":18616:18658   */\n      mstore\n        /* \"#utility.yul\":18499:18665   */\n      pop\n      jump\t// out\n        /* \"#utility.yul\":18671:19037   */\n    tag_165:\n        /* \"#utility.yul\":18813:18816   */\n      0x00\n        /* \"#utility.yul\":18834:18901   */\n      tag_375\n        /* \"#utility.yul\":18898:18900   */\n      0x10\n        /* \"#utility.yul\":18893:18896   */\n      dup4\n        /* \"#utility.yul\":18834:18901   */\n      tag_122\n      jump\t// in\n    tag_375:\n        /* \"#utility.yul\":18827:18901   */\n      swap2\n      pop\n        /* \"#utility.yul\":18910:19003   */\n      tag_376\n        /* \"#utility.yul\":18999:19002   */\n      dup3\n        /* \"#utility.yul\":18910:19003   */\n      tag_164\n      jump\t// in\n    tag_376:\n        /* \"#utility.yul\":19028:19030   */\n      0x20\n        /* \"#utility.yul\":19023:19026   */\n      dup3\n        /* \"#utility.yul\":19019:19031   */\n      add\n        /* \"#utility.yul\":19012:19031   */\n      swap1\n      pop\n        /* \"#utility.yul\":18671:19037   */\n      swap2\n      swap1\n      pop\n      jump\t// out\n        /* \"#utility.yul\":19043:19462   */\n    tag_90:\n        /* \"#utility.yul\":19209:19213   */\n      0x00\n        /* \"#utility.yul\":19247:19249   */\n      0x20\n        /* \"#utility.yul\":19236:19245   */\n      dup3\n        /* \"#utility.yul\":19232:19250   */\n      add\n        /* \"#utility.yul\":19224:19250   */\n      swap1\n      pop\n        /* \"#utility.yul\":19296:19305   */\n      dup2\n        /* \"#utility.yul\":19290:19294   */\n      dup2\n        /* \"#utility.yul\":19286:19306   */\n      sub\n        /* \"#utility.yul\":19282:19283   */\n      0x00\n        /* \"#utility.yul\":19271:19280   */\n      dup4\n        /* \"#utility.yul\":19267:19284   */\n      add\n        /* \"#utility.yul\":19260:19307   */\n      mstore\n        /* \"#utility.yul\":19324:19455   */\n      tag_378\n        /* \"#utility.yul\":19450:19454   */\n      dup2\n        /* \"#utility.yul\":19324:19455   */\n      tag_165\n      jump\t// in\n    tag_378:\n        /* \"#utility.yul\":19316:19455   */\n      swap1\n      pop\n        /* \"#utility.yul\":19043:19462   */\n      swap2\n      swap1\n      pop\n      jump\t// out\n        /* \"#utility.yul\":19468:19644   */\n    tag_166:\n        /* \"#utility.yul\":19608:19636   */\n      0x204e6f7468696e6720746f20506c616365207468652042696420000000000000\n        /* \"#utility.yul\":19604:19605   */\n      0x00\n        /* \"#utility.yul\":19596:19602   */\n      dup3\n        /* \"#utility.yul\":19592:19606   */\n      add\n        /* \"#utility.yul\":19585:19637   */\n      mstore\n        /* \"#utility.yul\":19468:19644   */\n      pop\n      jump\t// out\n        /* \"#utility.yul\":19650:20016   */\n    tag_167:\n        /* \"#utility.yul\":19792:19795   */\n      0x00\n        /* \"#utility.yul\":19813:19880   */\n      tag_381\n        /* \"#utility.yul\":19877:19879   */\n      0x1a\n        /* \"#utility.yul\":19872:19875   */\n      dup4\n        /* \"#utility.yul\":19813:19880   */\n      tag_122\n      jump\t// in\n    tag_381:\n        /* \"#utility.yul\":19806:19880   */\n      swap2\n      pop\n        /* \"#utility.yul\":19889:19982   */\n      tag_382\n        /* \"#utility.yul\":19978:19981   */\n      dup3\n        /* \"#utility.yul\":19889:19982   */\n      tag_166\n      jump\t// in\n    tag_382:\n        /* \"#utility.yul\":20007:20009   */\n      0x20\n        /* \"#utility.yul\":20002:20005   */\n      dup3\n        /* \"#utility.yul\":19998:20010   */\n      add\n        /* \"#utility.yul\":19991:20010   */\n      swap1\n      pop\n        /* \"#utility.yul\":19650:20016   */\n      swap2\n      swap1\n      pop\n      jump\t// out\n        /* \"#utility.yul\":20022:20441   */\n    tag_93:\n        /* \"#utility.yul\":20188:20192   */\n      0x00\n        /* \"#utility.yul\":20226:20228   */\n      0x20\n        /* \"#utility.yul\":20215:20224   */\n      dup3\n        /* \"#utility.yul\":20211:20229   */\n      add\n        /* \"#utility.yul\":20203:20229   */\n      swap1\n      pop\n        /* \"#utility.yul\":20275:20284   */\n      dup2\n        /* \"#utility.yul\":20269:20273   */\n      dup2\n        /* \"#utility.yul\":20265:20285   */\n      sub\n        /* \"#utility.yul\":20261:20262   */\n      0x00\n        /* \"#utility.yul\":20250:20259   */\n      dup4\n        /* \"#utility.yul\":20246:20263   */\n      add\n        /* \"#utility.yul\":20239:20286   */\n      mstore\n        /* \"#utility.yul\":20303:20434   */\n      tag_384\n        /* \"#utility.yul\":20429:20433   */\n      dup2\n        /* \"#utility.yul\":20303:20434   */\n      tag_167\n      jump\t// in\n    tag_384:\n        /* \"#utility.yul\":20295:20434   */\n      swap1\n      pop\n        /* \"#utility.yul\":20022:20441   */\n      swap2\n      swap1\n      pop\n      jump\t// out\n        /* \"#utility.yul\":20447:20615   */\n    tag_168:\n        /* \"#utility.yul\":20587:20607   */\n      0x4e6f7420612056616c696420416d6f756e740000000000000000000000000000\n        /* \"#utility.yul\":20583:20584   */\n      0x00\n        /* \"#utility.yul\":20575:20581   */\n      dup3\n        /* \"#utility.yul\":20571:20585   */\n      add\n        /* \"#utility.yul\":20564:20608   */\n      mstore\n        /* \"#utility.yul\":20447:20615   */\n      pop\n      jump\t// out\n        /* \"#utility.yul\":20621:20987   */\n    tag_169:\n        /* \"#utility.yul\":20763:20766   */\n      0x00\n        /* \"#utility.yul\":20784:20851   */\n      tag_387\n        /* \"#utility.yul\":20848:20850   */\n      0x12\n        /* \"#utility.yul\":20843:20846   */\n      dup4\n        /* \"#utility.yul\":20784:20851   */\n      tag_122\n      jump\t// in\n    tag_387:\n        /* \"#utility.yul\":20777:20851   */\n      swap2\n      pop\n        /* \"#utility.yul\":20860:20953   */\n      tag_388\n        /* \"#utility.yul\":20949:20952   */\n      dup3\n        /* \"#utility.yul\":20860:20953   */\n      tag_168\n      jump\t// in\n    tag_388:\n        /* \"#utility.yul\":20978:20980   */\n      0x20\n        /* \"#utility.yul\":20973:20976   */\n      dup3\n        /* \"#utility.yul\":20969:20981   */\n      add\n        /* \"#utility.yul\":20962:20981   */\n      swap1\n      pop\n        /* \"#utility.yul\":20621:20987   */\n      swap2\n      swap1\n      pop\n      jump\t// out\n        /* \"#utility.yul\":20993:21412   */\n    tag_96:\n        /* \"#utility.yul\":21159:21163   */\n      0x00\n        /* \"#utility.yul\":21197:21199   */\n      0x20\n        /* \"#utility.yul\":21186:21195   */\n      dup3\n        /* \"#utility.yul\":21182:21200   */\n      add\n        /* \"#utility.yul\":21174:21200   */\n      swap1\n      pop\n        /* \"#utility.yul\":21246:21255   */\n      dup2\n        /* \"#utility.yul\":21240:21244   */\n      dup2\n        /* \"#utility.yul\":21236:21256   */\n      sub\n        /* \"#utility.yul\":21232:21233   */\n      0x00\n        /* \"#utility.yul\":21221:21230   */\n      dup4\n        /* \"#utility.yul\":21217:21234   */\n      add\n        /* \"#utility.yul\":21210:21257   */\n      mstore\n        /* \"#utility.yul\":21274:21405   */\n      tag_390\n        /* \"#utility.yul\":21400:21404   */\n      dup2\n        /* \"#utility.yul\":21274:21405   */\n      tag_169\n      jump\t// in\n    tag_390:\n        /* \"#utility.yul\":21266:21405   */\n      swap1\n      pop\n        /* \"#utility.yul\":20993:21412   */\n      swap2\n      swap1\n      pop\n      jump\t// out\n        /* \"#utility.yul\":21418:21599   */\n    tag_170:\n        /* \"#utility.yul\":21558:21591   */\n      0x20496e6372656173652074686520616d6f756e74206279203120657468657200\n        /* \"#utility.yul\":21554:21555   */\n      0x00\n        /* \"#utility.yul\":21546:21552   */\n      dup3\n        /* \"#utility.yul\":21542:21556   */\n      add\n        /* \"#utility.yul\":21535:21592   */\n      mstore\n        /* \"#utility.yul\":21418:21599   */\n      pop\n      jump\t// out\n        /* \"#utility.yul\":21605:21971   */\n    tag_171:\n        /* \"#utility.yul\":21747:21750   */\n      0x00\n        /* \"#utility.yul\":21768:21835   */\n      tag_393\n        /* \"#utility.yul\":21832:21834   */\n      0x1f\n        /* \"#utility.yul\":21827:21830   */\n      dup4\n        /* \"#utility.yul\":21768:21835   */\n      tag_122\n      jump\t// in\n    tag_393:\n        /* \"#utility.yul\":21761:21835   */\n      swap2\n      pop\n        /* \"#utility.yul\":21844:21937   */\n      tag_394\n        /* \"#utility.yul\":21933:21936   */\n      dup3\n        /* \"#utility.yul\":21844:21937   */\n      tag_170\n      jump\t// in\n    tag_394:\n        /* \"#utility.yul\":21962:21964   */\n      0x20\n        /* \"#utility.yul\":21957:21960   */\n      dup3\n        /* \"#utility.yul\":21953:21965   */\n      add\n        /* \"#utility.yul\":21946:21965   */\n      swap1\n      pop\n        /* \"#utility.yul\":21605:21971   */\n      swap2\n      swap1\n      pop\n      jump\t// out\n        /* \"#utility.yul\":21977:22396   */\n    tag_99:\n        /* \"#utility.yul\":22143:22147   */\n      0x00\n        /* \"#utility.yul\":22181:22183   */\n      0x20\n        /* \"#utility.yul\":22170:22179   */\n      dup3\n        /* \"#utility.yul\":22166:22184   */\n      add\n        /* \"#utility.yul\":22158:22184   */\n      swap1\n      pop\n        /* \"#utility.yul\":22230:22239   */\n      dup2\n        /* \"#utility.yul\":22224:22228   */\n      dup2\n        /* \"#utility.yul\":22220:22240   */\n      sub\n        /* \"#utility.yul\":22216:22217   */\n      0x00\n        /* \"#utility.yul\":22205:22214   */\n      dup4\n        /* \"#utility.yul\":22201:22218   */\n      add\n        /* \"#utility.yul\":22194:22241   */\n      mstore\n        /* \"#utility.yul\":22258:22389   */\n      tag_396\n        /* \"#utility.yul\":22384:22388   */\n      dup2\n        /* \"#utility.yul\":22258:22389   */\n      tag_171\n      jump\t// in\n    tag_396:\n        /* \"#utility.yul\":22250:22389   */\n      swap1\n      pop\n        /* \"#utility.yul\":21977:22396   */\n      swap2\n      swap1\n      pop\n      jump\t// out\n        /* \"#utility.yul\":22402:22734   */\n    tag_103:\n        /* \"#utility.yul\":22523:22527   */\n      0x00\n        /* \"#utility.yul\":22561:22563   */\n      0x40\n        /* \"#utility.yul\":22550:22559   */\n      dup3\n        /* \"#utility.yul\":22546:22564   */\n      add\n        /* \"#utility.yul\":22538:22564   */\n      swap1\n      pop\n        /* \"#utility.yul\":22574:22645   */\n      tag_398\n        /* \"#utility.yul\":22642:22643   */\n      0x00\n        /* \"#utility.yul\":22631:22640   */\n      dup4\n        /* \"#utility.yul\":22627:22644   */\n      add\n        /* \"#utility.yul\":22618:22624   */\n      dup6\n        /* \"#utility.yul\":22574:22645   */\n      tag_127\n      jump\t// in\n    tag_398:\n        /* \"#utility.yul\":22655:22727   */\n      tag_399\n        /* \"#utility.yul\":22723:22725   */\n      0x20\n        /* \"#utility.yul\":22712:22721   */\n      dup4\n        /* \"#utility.yul\":22708:22726   */\n      add\n        /* \"#utility.yul\":22699:22705   */\n      dup5\n        /* \"#utility.yul\":22655:22727   */\n      tag_126\n      jump\t// in\n    tag_399:\n        /* \"#utility.yul\":22402:22734   */\n      swap4\n      swap3\n      pop\n      pop\n      pop\n      jump\t// out\n\n    auxdata: 0xa2646970667358221220b447e71b4e531130f216adc43c9f85ed098bc6f1baa7363a414c51556ac50a6164736f6c63430008120033\n}\n",
				"bytecode": {
					"linkReferences": {},
					"object": "608060405234801561001057600080fd5b50336000806101000a81548173ffffffffffffffffffffffffffffffffffffffff021916908373ffffffffffffffffffffffffffffffffffffffff16021790555061201f806100606000396000f3fe60806040526004361061007b5760003560e01c80638226508d1161004e5780638226508d1461013f578063859b97fe1461017c578063c8b5555c146101a5578063d98b9bb5146101ce5761007b565b8063069ea3621461008057806332627af9146100c25780633ccfd60b146100eb5780637090c36e14610102575b600080fd5b34801561008c57600080fd5b506100a760048036038101906100a29190611455565b6101ea565b6040516100b996959493929190611543565b60405180910390f35b3480156100ce57600080fd5b506100e960048036038101906100e491906116e0565b6102fb565b005b3480156100f757600080fd5b50610100610647565b005b34801561010e57600080fd5b5061012960048036038101906101249190611455565b610744565b604051610136919061173c565b60405180910390f35b34801561014b57600080fd5b5061016660048036038101906101619190611455565b6107c2565b6040516101739190611757565b60405180910390f35b34801561018857600080fd5b506101a3600480360381019061019e9190611455565b610820565b005b3480156101b157600080fd5b506101cc60048036038101906101c791906117b0565b6109bf565b005b6101e860048036038101906101e39190611455565b610d3e565b005b60016020528160005260406000206020528060005260406000206000915091505080600001805461021a90611832565b80601f016020809104026020016040519081016040528092919081815260200182805461024690611832565b80156102935780601f1061026857610100808354040283529160200191610293565b820191906000526020600020905b81548152906001019060200180831161027657829003601f168201915b5050505050908060010154908060020154908060030160009054906101000a900473ffffffffffffffffffffffffffffffffffffffff16908060040154908060050160009054906101000a900473ffffffffffffffffffffffffffffffffffffffff16905086565b600073ffffffffffffffffffffffffffffffffffffffff163373ffffffffffffffffffffffffffffffffffffffff160361036a576040517f08c379a0000000000000000000000000000000000000000000000000000000008152600401610361906118af565b60405180910390fd5b80600160003373ffffffffffffffffffffffffffffffffffffffff1673ffffffffffffffffffffffffffffffffffffffff168152602001908152602001600020600084815260200190815260200160002060000190816103ca9190611a7b565b506000600160003373ffffffffffffffffffffffffffffffffffffffff1673ffffffffffffffffffffffffffffffffffffffff1681526020019081526020016000206000848152602001908152602001600020600101819055506000600160003373ffffffffffffffffffffffffffffffffffffffff1673ffffffffffffffffffffffffffffffffffffffff1681526020019081526020016000206000848152602001908152602001600020600201819055506000600160003373ffffffffffffffffffffffffffffffffffffffff1673ffffffffffffffffffffffffffffffffffffffff168152602001908152602001600020600084815260200190815260200160002060030160006101000a81548173ffffffffffffffffffffffffffffffffffffffff021916908373ffffffffffffffffffffffffffffffffffffffff1602179055506000600160003373ffffffffffffffffffffffffffffffffffffffff1673ffffffffffffffffffffffffffffffffffffffff168152602001908152602001600020600084815260200190815260200160002060050160006101000a81548173ffffffffffffffffffffffffffffffffffffffff021916908373ffffffffffffffffffffffffffffffffffffffff160217905550610e10426105b19190611b7c565b600160003373ffffffffffffffffffffffffffffffffffffffff1673ffffffffffffffffffffffffffffffffffffffff1681526020019081526020016000206000848152602001908152602001600020600401819055507fa7806320b37116843ec008da1594a383d57d02cf004956b72c34754bf639507033838360405161063b93929190611bb0565b60405180910390a15050565b60008054906101000a900473ffffffffffffffffffffffffffffffffffffffff1673ffffffffffffffffffffffffffffffffffffffff163373ffffffffffffffffffffffffffffffffffffffff16146106d5576040517f08c379a00000000000000000000000000000000000000000000000000000000081526004016106cc90611c60565b60405180910390fd5b600047905060008054906101000a900473ffffffffffffffffffffffffffffffffffffffff1673ffffffffffffffffffffffffffffffffffffffff166108fc829081150290604051600060405180830381858888f19350505050158015610740573d6000803e3d6000fd5b5050565b6000600160008473ffffffffffffffffffffffffffffffffffffffff1673ffffffffffffffffffffffffffffffffffffffff168152602001908152602001600020600083815260200190815260200160002060030160009054906101000a900473ffffffffffffffffffffffffffffffffffffffff16905092915050565b6000600160008473ffffffffffffffffffffffffffffffffffffffff1673ffffffffffffffffffffffffffffffffffffffff168152602001908152602001600020600083815260200190815260200160002060020154905092915050565b60008054906101000a900473ffffffffffffffffffffffffffffffffffffffff1673ffffffffffffffffffffffffffffffffffffffff163373ffffffffffffffffffffffffffffffffffffffff16146108ae576040517f08c379a00000000000000000000000000000000000000000000000000000000081526004016108a590611cf2565b60405180910390fd5b600160008373ffffffffffffffffffffffffffffffffffffffff1673ffffffffffffffffffffffffffffffffffffffff168152602001908152602001600020600082815260200190815260200160002060030160009054906101000a900473ffffffffffffffffffffffffffffffffffffffff1673ffffffffffffffffffffffffffffffffffffffff166108fc600160008573ffffffffffffffffffffffffffffffffffffffff1673ffffffffffffffffffffffffffffffffffffffff1681526020019081526020016000206000848152602001908152602001600020600201549081150290604051600060405180830381858888f193505050501580156109ba573d6000803e3d6000fd5b505050565b8273ffffffffffffffffffffffffffffffffffffffff166108fc600160008673ffffffffffffffffffffffffffffffffffffffff1673ffffffffffffffffffffffffffffffffffffffff1681526020019081526020016000206000858152602001908152602001600020600201549081150290604051600060405180830381858888f19350505050158015610a58573d6000803e3d6000fd5b50600160008473ffffffffffffffffffffffffffffffffffffffff1673ffffffffffffffffffffffffffffffffffffffff168152602001908152602001600020600083815260200190815260200160002060016000600160008773ffffffffffffffffffffffffffffffffffffffff1673ffffffffffffffffffffffffffffffffffffffff168152602001908152602001600020600086815260200190815260200160002060030160009054906101000a900473ffffffffffffffffffffffffffffffffffffffff1673ffffffffffffffffffffffffffffffffffffffff1673ffffffffffffffffffffffffffffffffffffffff168152602001908152602001600020600083815260200190815260200160002060008201816000019081610b809190611d28565b5060018201548160010155600282015481600201556003820160009054906101000a900473ffffffffffffffffffffffffffffffffffffffff168160030160006101000a81548173ffffffffffffffffffffffffffffffffffffffff021916908373ffffffffffffffffffffffffffffffffffffffff160217905550600482015481600401556005820160009054906101000a900473ffffffffffffffffffffffffffffffffffffffff168160050160006101000a81548173ffffffffffffffffffffffffffffffffffffffff021916908373ffffffffffffffffffffffffffffffffffffffff160217905550905050600160008473ffffffffffffffffffffffffffffffffffffffff1673ffffffffffffffffffffffffffffffffffffffff168152602001908152602001600020600083815260200190815260200160002060008082016000610cd19190611350565b600182016000905560028201600090556003820160006101000a81549073ffffffffffffffffffffffffffffffffffffffff021916905560048201600090556005820160006101000a81549073ffffffffffffffffffffffffffffffffffffffff02191690555050505050565b3373ffffffffffffffffffffffffffffffffffffffff168273ffffffffffffffffffffffffffffffffffffffff1603610dac576040517f08c379a0000000000000000000000000000000000000000000000000000000008152600401610da390611e5c565b60405180910390fd5b42600160008473ffffffffffffffffffffffffffffffffffffffff1673ffffffffffffffffffffffffffffffffffffffff16815260200190815260200160002060008381526020019081526020016000206004015411610e41576040517f08c379a0000000000000000000000000000000000000000000000000000000008152600401610e3890611ec8565b60405180910390fd5b600160008373ffffffffffffffffffffffffffffffffffffffff1673ffffffffffffffffffffffffffffffffffffffff168152602001908152602001600020600082815260200190815260200160002060010154341015610ed7576040517f08c379a0000000000000000000000000000000000000000000000000000000008152600401610ece90611f34565b60405180910390fd5b600160008373ffffffffffffffffffffffffffffffffffffffff1673ffffffffffffffffffffffffffffffffffffffff1681526020019081526020016000206000828152602001908152602001600020600201543411610f6c576040517f08c379a0000000000000000000000000000000000000000000000000000000008152600401610f6390611fa0565b60405180910390fd5b600160008373ffffffffffffffffffffffffffffffffffffffff1673ffffffffffffffffffffffffffffffffffffffff168152602001908152602001600020600082815260200190815260200160002060020154600160008473ffffffffffffffffffffffffffffffffffffffff1673ffffffffffffffffffffffffffffffffffffffff168152602001908152602001600020600083815260200190815260200160002060010181905550600160008373ffffffffffffffffffffffffffffffffffffffff1673ffffffffffffffffffffffffffffffffffffffff168152602001908152602001600020600082815260200190815260200160002060030160009054906101000a900473ffffffffffffffffffffffffffffffffffffffff16600160008473ffffffffffffffffffffffffffffffffffffffff1673ffffffffffffffffffffffffffffffffffffffff168152602001908152602001600020600083815260200190815260200160002060050160006101000a81548173ffffffffffffffffffffffffffffffffffffffff021916908373ffffffffffffffffffffffffffffffffffffffff16021790555034600160008473ffffffffffffffffffffffffffffffffffffffff1673ffffffffffffffffffffffffffffffffffffffff16815260200190815260200160002060008381526020019081526020016000206002018190555033600160008473ffffffffffffffffffffffffffffffffffffffff1673ffffffffffffffffffffffffffffffffffffffff168152602001908152602001600020600083815260200190815260200160002060030160006101000a81548173ffffffffffffffffffffffffffffffffffffffff021916908373ffffffffffffffffffffffffffffffffffffffff160217905550600160008373ffffffffffffffffffffffffffffffffffffffff1673ffffffffffffffffffffffffffffffffffffffff168152602001908152602001600020600082815260200190815260200160002060050160009054906101000a900473ffffffffffffffffffffffffffffffffffffffff1673ffffffffffffffffffffffffffffffffffffffff166108fc600160008573ffffffffffffffffffffffffffffffffffffffff1673ffffffffffffffffffffffffffffffffffffffff1681526020019081526020016000206000848152602001908152602001600020600101549081150290604051600060405180830381858888f19350505050158015611312573d6000803e3d6000fd5b507fe684a55f31b79eca403df938249029212a5925ec6be8012e099b45bc1019e5d23334604051611344929190611fc0565b60405180910390a15050565b50805461135c90611832565b6000825580601f1061136e575061138d565b601f01602090049060005260206000209081019061138c9190611390565b5b50565b5b808211156113a9576000816000905550600101611391565b5090565b6000604051905090565b600080fd5b600080fd5b600073ffffffffffffffffffffffffffffffffffffffff82169050919050565b60006113ec826113c1565b9050919050565b6113fc816113e1565b811461140757600080fd5b50565b600081359050611419816113f3565b92915050565b6000819050919050565b6114328161141f565b811461143d57600080fd5b50565b60008135905061144f81611429565b92915050565b6000806040838503121561146c5761146b6113b7565b5b600061147a8582860161140a565b925050602061148b85828601611440565b9150509250929050565b600081519050919050565b600082825260208201905092915050565b60005b838110156114cf5780820151818401526020810190506114b4565b60008484015250505050565b6000601f19601f8301169050919050565b60006114f782611495565b61150181856114a0565b93506115118185602086016114b1565b61151a816114db565b840191505092915050565b61152e8161141f565b82525050565b61153d816113e1565b82525050565b600060c082019050818103600083015261155d81896114ec565b905061156c6020830188611525565b6115796040830187611525565b6115866060830186611534565b6115936080830185611525565b6115a060a0830184611534565b979650505050505050565b600080fd5b600080fd5b7f4e487b7100000000000000000000000000000000000000000000000000000000600052604160045260246000fd5b6115ed826114db565b810181811067ffffffffffffffff8211171561160c5761160b6115b5565b5b80604052505050565b600061161f6113ad565b905061162b82826115e4565b919050565b600067ffffffffffffffff82111561164b5761164a6115b5565b5b611654826114db565b9050602081019050919050565b82818337600083830152505050565b600061168361167e84611630565b611615565b90508281526020810184848401111561169f5761169e6115b0565b5b6116aa848285611661565b509392505050565b600082601f8301126116c7576116c66115ab565b5b81356116d7848260208601611670565b91505092915050565b600080604083850312156116f7576116f66113b7565b5b600061170585828601611440565b925050602083013567ffffffffffffffff811115611726576117256113bc565b5b611732858286016116b2565b9150509250929050565b60006020820190506117516000830184611534565b92915050565b600060208201905061176c6000830184611525565b92915050565b600061177d826113c1565b9050919050565b61178d81611772565b811461179857600080fd5b50565b6000813590506117aa81611784565b92915050565b6000806000606084860312156117c9576117c86113b7565b5b60006117d78682870161179b565b93505060206117e886828701611440565b92505060406117f986828701611440565b9150509250925092565b7f4e487b7100000000000000000000000000000000000000000000000000000000600052602260045260246000fd5b6000600282049050600182168061184a57607f821691505b60208210810361185d5761185c611803565b5b50919050565b7f4e6f742056616c69640000000000000000000000000000000000000000000000600082015250565b60006118996009836114a0565b91506118a482611863565b602082019050919050565b600060208201905081810360008301526118c88161188c565b9050919050565b60008190508160005260206000209050919050565b60006020601f8301049050919050565b600082821b905092915050565b6000600883026119317fffffffffffffffffffffffffffffffffffffffffffffffffffffffffffffffff826118f4565b61193b86836118f4565b95508019841693508086168417925050509392505050565b6000819050919050565b600061197861197361196e8461141f565b611953565b61141f565b9050919050565b6000819050919050565b6119928361195d565b6119a661199e8261197f565b848454611901565b825550505050565b600090565b6119bb6119ae565b6119c6818484611989565b505050565b5b818110156119ea576119df6000826119b3565b6001810190506119cc565b5050565b601f821115611a2f57611a00816118cf565b611a09846118e4565b81016020851015611a18578190505b611a2c611a24856118e4565b8301826119cb565b50505b505050565b600082821c905092915050565b6000611a5260001984600802611a34565b1980831691505092915050565b6000611a6b8383611a41565b9150826002028217905092915050565b611a8482611495565b67ffffffffffffffff811115611a9d57611a9c6115b5565b5b611aa78254611832565b611ab28282856119ee565b600060209050601f831160018114611ae55760008415611ad3578287015190505b611add8582611a5f565b865550611b45565b601f198416611af3866118cf565b60005b82811015611b1b57848901518255600182019150602085019450602081019050611af6565b86831015611b385784890151611b34601f891682611a41565b8355505b6001600288020188555050505b505050505050565b7f4e487b7100000000000000000000000000000000000000000000000000000000600052601160045260246000fd5b6000611b878261141f565b9150611b928361141f565b9250828201905080821115611baa57611ba9611b4d565b5b92915050565b6000606082019050611bc56000830186611534565b611bd26020830185611525565b8181036040830152611be481846114ec565b9050949350505050565b7f204f6e6c79206f776e65722063616e20776974686472617720746865206d6f6e60008201527f6579000000000000000000000000000000000000000000000000000000000000602082015250565b6000611c4a6022836114a0565b9150611c5582611bee565b604082019050919050565b60006020820190508181036000830152611c7981611c3d565b9050919050565b7f204f6e6c79204f776e65722063616e2063616e63656c2074686520417563746960008201527f6f6e000000000000000000000000000000000000000000000000000000000000602082015250565b6000611cdc6022836114a0565b9150611ce782611c80565b604082019050919050565b60006020820190508181036000830152611d0b81611ccf565b9050919050565b600081549050611d2181611832565b9050919050565b818103611d36575050611e0e565b611d3f82611d12565b67ffffffffffffffff811115611d5857611d576115b5565b5b611d628254611832565b611d6d8282856119ee565b6000601f831160018114611d9c5760008415611d8a578287015490505b611d948582611a5f565b865550611e07565b601f198416611daa876118cf565b9650611db5866118cf565b60005b82811015611ddd57848901548255600182019150600185019450602081019050611db8565b86831015611dfa5784890154611df6601f891682611a41565b8355505b6001600288020188555050505b5050505050505b565b7f206f776e65722063616e27742062696400000000000000000000000000000000600082015250565b6000611e466010836114a0565b9150611e5182611e10565b602082019050919050565b60006020820190508181036000830152611e7581611e39565b9050919050565b7f204e6f7468696e6720746f20506c616365207468652042696420000000000000600082015250565b6000611eb2601a836114a0565b9150611ebd82611e7c565b602082019050919050565b60006020820190508181036000830152611ee181611ea5565b9050919050565b7f4e6f7420612056616c696420416d6f756e740000000000000000000000000000600082015250565b6000611f1e6012836114a0565b9150611f2982611ee8565b602082019050919050565b60006020820190508181036000830152611f4d81611f11565b9050919050565b7f20496e6372656173652074686520616d6f756e74206279203120657468657200600082015250565b6000611f8a601f836114a0565b9150611f9582611f54565b602082019050919050565b60006020820190508181036000830152611fb981611f7d565b9050919050565b6000604082019050611fd56000830185611534565b611fe26020830184611525565b939250505056fea2646970667358221220b447e71b4e531130f216adc43c9f85ed098bc6f1baa7363a414c51556ac50a6164736f6c63430008120033",
					"opcodes": "PUSH1 0x80 PUSH1 0x40 MSTORE CALLVALUE DUP1 ISZERO PUSH2 0x10 JUMPI PUSH1 0x0 DUP1 REVERT JUMPDEST POP CALLER PUSH1 0x0 DUP1 PUSH2 0x100 EXP DUP2 SLOAD DUP2 PUSH20 0xFFFFFFFFFFFFFFFFFFFFFFFFFFFFFFFFFFFFFFFF MUL NOT AND SWAP1 DUP4 PUSH20 0xFFFFFFFFFFFFFFFFFFFFFFFFFFFFFFFFFFFFFFFF AND MUL OR SWAP1 SSTORE POP PUSH2 0x201F DUP1 PUSH2 0x60 PUSH1 0x0 CODECOPY PUSH1 0x0 RETURN INVALID PUSH1 0x80 PUSH1 0x40 MSTORE PUSH1 0x4 CALLDATASIZE LT PUSH2 0x7B JUMPI PUSH1 0x0 CALLDATALOAD PUSH1 0xE0 SHR DUP1 PUSH4 0x8226508D GT PUSH2 0x4E JUMPI DUP1 PUSH4 0x8226508D EQ PUSH2 0x13F JUMPI DUP1 PUSH4 0x859B97FE EQ PUSH2 0x17C JUMPI DUP1 PUSH4 0xC8B5555C EQ PUSH2 0x1A5 JUMPI DUP1 PUSH4 0xD98B9BB5 EQ PUSH2 0x1CE JUMPI PUSH2 0x7B JUMP JUMPDEST DUP1 PUSH4 0x69EA362 EQ PUSH2 0x80 JUMPI DUP1 PUSH4 0x32627AF9 EQ PUSH2 0xC2 JUMPI DUP1 PUSH4 0x3CCFD60B EQ PUSH2 0xEB JUMPI DUP1 PUSH4 0x7090C36E EQ PUSH2 0x102 JUMPI JUMPDEST PUSH1 0x0 DUP1 REVERT JUMPDEST CALLVALUE DUP1 ISZERO PUSH2 0x8C JUMPI PUSH1 0x0 DUP1 REVERT JUMPDEST POP PUSH2 0xA7 PUSH1 0x4 DUP1 CALLDATASIZE SUB DUP2 ADD SWAP1 PUSH2 0xA2 SWAP2 SWAP1 PUSH2 0x1455 JUMP JUMPDEST PUSH2 0x1EA JUMP JUMPDEST PUSH1 0x40 MLOAD PUSH2 0xB9 SWAP7 SWAP6 SWAP5 SWAP4 SWAP3 SWAP2 SWAP1 PUSH2 0x1543 JUMP JUMPDEST PUSH1 0x40 MLOAD DUP1 SWAP2 SUB SWAP1 RETURN JUMPDEST CALLVALUE DUP1 ISZERO PUSH2 0xCE JUMPI PUSH1 0x0 DUP1 REVERT JUMPDEST POP PUSH2 0xE9 PUSH1 0x4 DUP1 CALLDATASIZE SUB DUP2 ADD SWAP1 PUSH2 0xE4 SWAP2 SWAP1 PUSH2 0x16E0 JUMP JUMPDEST PUSH2 0x2FB JUMP JUMPDEST STOP JUMPDEST CALLVALUE DUP1 ISZERO PUSH2 0xF7 JUMPI PUSH1 0x0 DUP1 REVERT JUMPDEST POP PUSH2 0x100 PUSH2 0x647 JUMP JUMPDEST STOP JUMPDEST CALLVALUE DUP1 ISZERO PUSH2 0x10E JUMPI PUSH1 0x0 DUP1 REVERT JUMPDEST POP PUSH2 0x129 PUSH1 0x4 DUP1 CALLDATASIZE SUB DUP2 ADD SWAP1 PUSH2 0x124 SWAP2 SWAP1 PUSH2 0x1455 JUMP JUMPDEST PUSH2 0x744 JUMP JUMPDEST PUSH1 0x40 MLOAD PUSH2 0x136 SWAP2 SWAP1 PUSH2 0x173C JUMP JUMPDEST PUSH1 0x40 MLOAD DUP1 SWAP2 SUB SWAP1 RETURN JUMPDEST CALLVALUE DUP1 ISZERO PUSH2 0x14B JUMPI PUSH1 0x0 DUP1 REVERT JUMPDEST POP PUSH2 0x166 PUSH1 0x4 DUP1 CALLDATASIZE SUB DUP2 ADD SWAP1 PUSH2 0x161 SWAP2 SWAP1 PUSH2 0x1455 JUMP JUMPDEST PUSH2 0x7C2 JUMP JUMPDEST PUSH1 0x40 MLOAD PUSH2 0x173 SWAP2 SWAP1 PUSH2 0x1757 JUMP JUMPDEST PUSH1 0x40 MLOAD DUP1 SWAP2 SUB SWAP1 RETURN JUMPDEST CALLVALUE DUP1 ISZERO PUSH2 0x188 JUMPI PUSH1 0x0 DUP1 REVERT JUMPDEST POP PUSH2 0x1A3 PUSH1 0x4 DUP1 CALLDATASIZE SUB DUP2 ADD SWAP1 PUSH2 0x19E SWAP2 SWAP1 PUSH2 0x1455 JUMP JUMPDEST PUSH2 0x820 JUMP JUMPDEST STOP JUMPDEST CALLVALUE DUP1 ISZERO PUSH2 0x1B1 JUMPI PUSH1 0x0 DUP1 REVERT JUMPDEST POP PUSH2 0x1CC PUSH1 0x4 DUP1 CALLDATASIZE SUB DUP2 ADD SWAP1 PUSH2 0x1C7 SWAP2 SWAP1 PUSH2 0x17B0 JUMP JUMPDEST PUSH2 0x9BF JUMP JUMPDEST STOP JUMPDEST PUSH2 0x1E8 PUSH1 0x4 DUP1 CALLDATASIZE SUB DUP2 ADD SWAP1 PUSH2 0x1E3 SWAP2 SWAP1 PUSH2 0x1455 JUMP JUMPDEST PUSH2 0xD3E JUMP JUMPDEST STOP JUMPDEST PUSH1 0x1 PUSH1 0x20 MSTORE DUP2 PUSH1 0x0 MSTORE PUSH1 0x40 PUSH1 0x0 KECCAK256 PUSH1 0x20 MSTORE DUP1 PUSH1 0x0 MSTORE PUSH1 0x40 PUSH1 0x0 KECCAK256 PUSH1 0x0 SWAP2 POP SWAP2 POP POP DUP1 PUSH1 0x0 ADD DUP1 SLOAD PUSH2 0x21A SWAP1 PUSH2 0x1832 JUMP JUMPDEST DUP1 PUSH1 0x1F ADD PUSH1 0x20 DUP1 SWAP2 DIV MUL PUSH1 0x20 ADD PUSH1 0x40 MLOAD SWAP1 DUP2 ADD PUSH1 0x40 MSTORE DUP1 SWAP3 SWAP2 SWAP1 DUP2 DUP2 MSTORE PUSH1 0x20 ADD DUP3 DUP1 SLOAD PUSH2 0x246 SWAP1 PUSH2 0x1832 JUMP JUMPDEST DUP1 ISZERO PUSH2 0x293 JUMPI DUP1 PUSH1 0x1F LT PUSH2 0x268 JUMPI PUSH2 0x100 DUP1 DUP4 SLOAD DIV MUL DUP4 MSTORE SWAP2 PUSH1 0x20 ADD SWAP2 PUSH2 0x293 JUMP JUMPDEST DUP3 ADD SWAP2 SWAP1 PUSH1 0x0 MSTORE PUSH1 0x20 PUSH1 0x0 KECCAK256 SWAP1 JUMPDEST DUP2 SLOAD DUP2 MSTORE SWAP1 PUSH1 0x1 ADD SWAP1 PUSH1 0x20 ADD DUP1 DUP4 GT PUSH2 0x276 JUMPI DUP3 SWAP1 SUB PUSH1 0x1F AND DUP3 ADD SWAP2 JUMPDEST POP POP POP POP POP SWAP1 DUP1 PUSH1 0x1 ADD SLOAD SWAP1 DUP1 PUSH1 0x2 ADD SLOAD SWAP1 DUP1 PUSH1 0x3 ADD PUSH1 0x0 SWAP1 SLOAD SWAP1 PUSH2 0x100 EXP SWAP1 DIV PUSH20 0xFFFFFFFFFFFFFFFFFFFFFFFFFFFFFFFFFFFFFFFF AND SWAP1 DUP1 PUSH1 0x4 ADD SLOAD SWAP1 DUP1 PUSH1 0x5 ADD PUSH1 0x0 SWAP1 SLOAD SWAP1 PUSH2 0x100 EXP SWAP1 DIV PUSH20 0xFFFFFFFFFFFFFFFFFFFFFFFFFFFFFFFFFFFFFFFF AND SWAP1 POP DUP7 JUMP JUMPDEST PUSH1 0x0 PUSH20 0xFFFFFFFFFFFFFFFFFFFFFFFFFFFFFFFFFFFFFFFF AND CALLER PUSH20 0xFFFFFFFFFFFFFFFFFFFFFFFFFFFFFFFFFFFFFFFF AND SUB PUSH2 0x36A JUMPI PUSH1 0x40 MLOAD PUSH32 0x8C379A000000000000000000000000000000000000000000000000000000000 DUP2 MSTORE PUSH1 0x4 ADD PUSH2 0x361 SWAP1 PUSH2 0x18AF JUMP JUMPDEST PUSH1 0x40 MLOAD DUP1 SWAP2 SUB SWAP1 REVERT JUMPDEST DUP1 PUSH1 0x1 PUSH1 0x0 CALLER PUSH20 0xFFFFFFFFFFFFFFFFFFFFFFFFFFFFFFFFFFFFFFFF AND PUSH20 0xFFFFFFFFFFFFFFFFFFFFFFFFFFFFFFFFFFFFFFFF AND DUP2 MSTORE PUSH1 0x20 ADD SWAP1 DUP2 MSTORE PUSH1 0x20 ADD PUSH1 0x0 KECCAK256 PUSH1 0x0 DUP5 DUP2 MSTORE PUSH1 0x20 ADD SWAP1 DUP2 MSTORE PUSH1 0x20 ADD PUSH1 0x0 KECCAK256 PUSH1 0x0 ADD SWAP1 DUP2 PUSH2 0x3CA SWAP2 SWAP1 PUSH2 0x1A7B JUMP JUMPDEST POP PUSH1 0x0 PUSH1 0x1 PUSH1 0x0 CALLER PUSH20 0xFFFFFFFFFFFFFFFFFFFFFFFFFFFFFFFFFFFFFFFF AND PUSH20 0xFFFFFFFFFFFFFFFFFFFFFFFFFFFFFFFFFFFFFFFF AND DUP2 MSTORE PUSH1 0x20 ADD SWAP1 DUP2 MSTORE PUSH1 0x20 ADD PUSH1 0x0 KECCAK256 PUSH1 0x0 DUP5 DUP2 MSTORE PUSH1 0x20 ADD SWAP1 DUP2 MSTORE PUSH1 0x20 ADD PUSH1 0x0 KECCAK256 PUSH1 0x1 ADD DUP2 SWAP1 SSTORE POP PUSH1 0x0 PUSH1 0x1 PUSH1 0x0 CALLER PUSH20 0xFFFFFFFFFFFFFFFFFFFFFFFFFFFFFFFFFFFFFFFF AND PUSH20 0xFFFFFFFFFFFFFFFFFFFFFFFFFFFFFFFFFFFFFFFF AND DUP2 MSTORE PUSH1 0x20 ADD SWAP1 DUP2 MSTORE PUSH1 0x20 ADD PUSH1 0x0 KECCAK256 PUSH1 0x0 DUP5 DUP2 MSTORE PUSH1 0x20 ADD SWAP1 DUP2 MSTORE PUSH1 0x20 ADD PUSH1 0x0 KECCAK256 PUSH1 0x2 ADD DUP2 SWAP1 SSTORE POP PUSH1 0x0 PUSH1 0x1 PUSH1 0x0 CALLER PUSH20 0xFFFFFFFFFFFFFFFFFFFFFFFFFFFFFFFFFFFFFFFF AND PUSH20 0xFFFFFFFFFFFFFFFFFFFFFFFFFFFFFFFFFFFFFFFF AND DUP2 MSTORE PUSH1 0x20 ADD SWAP1 DUP2 MSTORE PUSH1 0x20 ADD PUSH1 0x0 KECCAK256 PUSH1 0x0 DUP5 DUP2 MSTORE PUSH1 0x20 ADD SWAP1 DUP2 MSTORE PUSH1 0x20 ADD PUSH1 0x0 KECCAK256 PUSH1 0x3 ADD PUSH1 0x0 PUSH2 0x100 EXP DUP2 SLOAD DUP2 PUSH20 0xFFFFFFFFFFFFFFFFFFFFFFFFFFFFFFFFFFFFFFFF MUL NOT AND SWAP1 DUP4 PUSH20 0xFFFFFFFFFFFFFFFFFFFFFFFFFFFFFFFFFFFFFFFF AND MUL OR SWAP1 SSTORE POP PUSH1 0x0 PUSH1 0x1 PUSH1 0x0 CALLER PUSH20 0xFFFFFFFFFFFFFFFFFFFFFFFFFFFFFFFFFFFFFFFF AND PUSH20 0xFFFFFFFFFFFFFFFFFFFFFFFFFFFFFFFFFFFFFFFF AND DUP2 MSTORE PUSH1 0x20 ADD SWAP1 DUP2 MSTORE PUSH1 0x20 ADD PUSH1 0x0 KECCAK256 PUSH1 0x0 DUP5 DUP2 MSTORE PUSH1 0x20 ADD SWAP1 DUP2 MSTORE PUSH1 0x20 ADD PUSH1 0x0 KECCAK256 PUSH1 0x5 ADD PUSH1 0x0 PUSH2 0x100 EXP DUP2 SLOAD DUP2 PUSH20 0xFFFFFFFFFFFFFFFFFFFFFFFFFFFFFFFFFFFFFFFF MUL NOT AND SWAP1 DUP4 PUSH20 0xFFFFFFFFFFFFFFFFFFFFFFFFFFFFFFFFFFFFFFFF AND MUL OR SWAP1 SSTORE POP PUSH2 0xE10 TIMESTAMP PUSH2 0x5B1 SWAP2 SWAP1 PUSH2 0x1B7C JUMP JUMPDEST PUSH1 0x1 PUSH1 0x0 CALLER PUSH20 0xFFFFFFFFFFFFFFFFFFFFFFFFFFFFFFFFFFFFFFFF AND PUSH20 0xFFFFFFFFFFFFFFFFFFFFFFFFFFFFFFFFFFFFFFFF AND DUP2 MSTORE PUSH1 0x20 ADD SWAP1 DUP2 MSTORE PUSH1 0x20 ADD PUSH1 0x0 KECCAK256 PUSH1 0x0 DUP5 DUP2 MSTORE PUSH1 0x20 ADD SWAP1 DUP2 MSTORE PUSH1 0x20 ADD PUSH1 0x0 KECCAK256 PUSH1 0x4 ADD DUP2 SWAP1 SSTORE POP PUSH32 0xA7806320B37116843EC008DA1594A383D57D02CF004956B72C34754BF6395070 CALLER DUP4 DUP4 PUSH1 0x40 MLOAD PUSH2 0x63B SWAP4 SWAP3 SWAP2 SWAP1 PUSH2 0x1BB0 JUMP JUMPDEST PUSH1 0x40 MLOAD DUP1 SWAP2 SUB SWAP1 LOG1 POP POP JUMP JUMPDEST PUSH1 0x0 DUP1 SLOAD SWAP1 PUSH2 0x100 EXP SWAP1 DIV PUSH20 0xFFFFFFFFFFFFFFFFFFFFFFFFFFFFFFFFFFFFFFFF AND PUSH20 0xFFFFFFFFFFFFFFFFFFFFFFFFFFFFFFFFFFFFFFFF AND CALLER PUSH20 0xFFFFFFFFFFFFFFFFFFFFFFFFFFFFFFFFFFFFFFFF AND EQ PUSH2 0x6D5 JUMPI PUSH1 0x40 MLOAD PUSH32 0x8C379A000000000000000000000000000000000000000000000000000000000 DUP2 MSTORE PUSH1 0x4 ADD PUSH2 0x6CC SWAP1 PUSH2 0x1C60 JUMP JUMPDEST PUSH1 0x40 MLOAD DUP1 SWAP2 SUB SWAP1 REVERT JUMPDEST PUSH1 0x0 SELFBALANCE SWAP1 POP PUSH1 0x0 DUP1 SLOAD SWAP1 PUSH2 0x100 EXP SWAP1 DIV PUSH20 0xFFFFFFFFFFFFFFFFFFFFFFFFFFFFFFFFFFFFFFFF AND PUSH20 0xFFFFFFFFFFFFFFFFFFFFFFFFFFFFFFFFFFFFFFFF AND PUSH2 0x8FC DUP3 SWAP1 DUP2 ISZERO MUL SWAP1 PUSH1 0x40 MLOAD PUSH1 0x0 PUSH1 0x40 MLOAD DUP1 DUP4 SUB DUP2 DUP6 DUP9 DUP9 CALL SWAP4 POP POP POP POP ISZERO DUP1 ISZERO PUSH2 0x740 JUMPI RETURNDATASIZE PUSH1 0x0 DUP1 RETURNDATACOPY RETURNDATASIZE PUSH1 0x0 REVERT JUMPDEST POP POP JUMP JUMPDEST PUSH1 0x0 PUSH1 0x1 PUSH1 0x0 DUP5 PUSH20 0xFFFFFFFFFFFFFFFFFFFFFFFFFFFFFFFFFFFFFFFF AND PUSH20 0xFFFFFFFFFFFFFFFFFFFFFFFFFFFFFFFFFFFFFFFF AND DUP2 MSTORE PUSH1 0x20 ADD SWAP1 DUP2 MSTORE PUSH1 0x20 ADD PUSH1 0x0 KECCAK256 PUSH1 0x0 DUP4 DUP2 MSTORE PUSH1 0x20 ADD SWAP1 DUP2 MSTORE PUSH1 0x20 ADD PUSH1 0x0 KECCAK256 PUSH1 0x3 ADD PUSH1 0x0 SWAP1 SLOAD SWAP1 PUSH2 0x100 EXP SWAP1 DIV PUSH20 0xFFFFFFFFFFFFFFFFFFFFFFFFFFFFFFFFFFFFFFFF AND SWAP1 POP SWAP3 SWAP2 POP POP JUMP JUMPDEST PUSH1 0x0 PUSH1 0x1 PUSH1 0x0 DUP5 PUSH20 0xFFFFFFFFFFFFFFFFFFFFFFFFFFFFFFFFFFFFFFFF AND PUSH20 0xFFFFFFFFFFFFFFFFFFFFFFFFFFFFFFFFFFFFFFFF AND DUP2 MSTORE PUSH1 0x20 ADD SWAP1 DUP2 MSTORE PUSH1 0x20 ADD PUSH1 0x0 KECCAK256 PUSH1 0x0 DUP4 DUP2 MSTORE PUSH1 0x20 ADD SWAP1 DUP2 MSTORE PUSH1 0x20 ADD PUSH1 0x0 KECCAK256 PUSH1 0x2 ADD SLOAD SWAP1 POP SWAP3 SWAP2 POP POP JUMP JUMPDEST PUSH1 0x0 DUP1 SLOAD SWAP1 PUSH2 0x100 EXP SWAP1 DIV PUSH20 0xFFFFFFFFFFFFFFFFFFFFFFFFFFFFFFFFFFFFFFFF AND PUSH20 0xFFFFFFFFFFFFFFFFFFFFFFFFFFFFFFFFFFFFFFFF AND CALLER PUSH20 0xFFFFFFFFFFFFFFFFFFFFFFFFFFFFFFFFFFFFFFFF AND EQ PUSH2 0x8AE JUMPI PUSH1 0x40 MLOAD PUSH32 0x8C379A000000000000000000000000000000000000000000000000000000000 DUP2 MSTORE PUSH1 0x4 ADD PUSH2 0x8A5 SWAP1 PUSH2 0x1CF2 JUMP JUMPDEST PUSH1 0x40 MLOAD DUP1 SWAP2 SUB SWAP1 REVERT JUMPDEST PUSH1 0x1 PUSH1 0x0 DUP4 PUSH20 0xFFFFFFFFFFFFFFFFFFFFFFFFFFFFFFFFFFFFFFFF AND PUSH20 0xFFFFFFFFFFFFFFFFFFFFFFFFFFFFFFFFFFFFFFFF AND DUP2 MSTORE PUSH1 0x20 ADD SWAP1 DUP2 MSTORE PUSH1 0x20 ADD PUSH1 0x0 KECCAK256 PUSH1 0x0 DUP3 DUP2 MSTORE PUSH1 0x20 ADD SWAP1 DUP2 MSTORE PUSH1 0x20 ADD PUSH1 0x0 KECCAK256 PUSH1 0x3 ADD PUSH1 0x0 SWAP1 SLOAD SWAP1 PUSH2 0x100 EXP SWAP1 DIV PUSH20 0xFFFFFFFFFFFFFFFFFFFFFFFFFFFFFFFFFFFFFFFF AND PUSH20 0xFFFFFFFFFFFFFFFFFFFFFFFFFFFFFFFFFFFFFFFF AND PUSH2 0x8FC PUSH1 0x1 PUSH1 0x0 DUP6 PUSH20 0xFFFFFFFFFFFFFFFFFFFFFFFFFFFFFFFFFFFFFFFF AND PUSH20 0xFFFFFFFFFFFFFFFFFFFFFFFFFFFFFFFFFFFFFFFF AND DUP2 MSTORE PUSH1 0x20 ADD SWAP1 DUP2 MSTORE PUSH1 0x20 ADD PUSH1 0x0 KECCAK256 PUSH1 0x0 DUP5 DUP2 MSTORE PUSH1 0x20 ADD SWAP1 DUP2 MSTORE PUSH1 0x20 ADD PUSH1 0x0 KECCAK256 PUSH1 0x2 ADD SLOAD SWAP1 DUP2 ISZERO MUL SWAP1 PUSH1 0x40 MLOAD PUSH1 0x0 PUSH1 0x40 MLOAD DUP1 DUP4 SUB DUP2 DUP6 DUP9 DUP9 CALL SWAP4 POP POP POP POP ISZERO DUP1 ISZERO PUSH2 0x9BA JUMPI RETURNDATASIZE PUSH1 0x0 DUP1 RETURNDATACOPY RETURNDATASIZE PUSH1 0x0 REVERT JUMPDEST POP POP POP JUMP JUMPDEST DUP3 PUSH20 0xFFFFFFFFFFFFFFFFFFFFFFFFFFFFFFFFFFFFFFFF AND PUSH2 0x8FC PUSH1 0x1 PUSH1 0x0 DUP7 PUSH20 0xFFFFFFFFFFFFFFFFFFFFFFFFFFFFFFFFFFFFFFFF AND PUSH20 0xFFFFFFFFFFFFFFFFFFFFFFFFFFFFFFFFFFFFFFFF AND DUP2 MSTORE PUSH1 0x20 ADD SWAP1 DUP2 MSTORE PUSH1 0x20 ADD PUSH1 0x0 KECCAK256 PUSH1 0x0 DUP6 DUP2 MSTORE PUSH1 0x20 ADD SWAP1 DUP2 MSTORE PUSH1 0x20 ADD PUSH1 0x0 KECCAK256 PUSH1 0x2 ADD SLOAD SWAP1 DUP2 ISZERO MUL SWAP1 PUSH1 0x40 MLOAD PUSH1 0x0 PUSH1 0x40 MLOAD DUP1 DUP4 SUB DUP2 DUP6 DUP9 DUP9 CALL SWAP4 POP POP POP POP ISZERO DUP1 ISZERO PUSH2 0xA58 JUMPI RETURNDATASIZE PUSH1 0x0 DUP1 RETURNDATACOPY RETURNDATASIZE PUSH1 0x0 REVERT JUMPDEST POP PUSH1 0x1 PUSH1 0x0 DUP5 PUSH20 0xFFFFFFFFFFFFFFFFFFFFFFFFFFFFFFFFFFFFFFFF AND PUSH20 0xFFFFFFFFFFFFFFFFFFFFFFFFFFFFFFFFFFFFFFFF AND DUP2 MSTORE PUSH1 0x20 ADD SWAP1 DUP2 MSTORE PUSH1 0x20 ADD PUSH1 0x0 KECCAK256 PUSH1 0x0 DUP4 DUP2 MSTORE PUSH1 0x20 ADD SWAP1 DUP2 MSTORE PUSH1 0x20 ADD PUSH1 0x0 KECCAK256 PUSH1 0x1 PUSH1 0x0 PUSH1 0x1 PUSH1 0x0 DUP8 PUSH20 0xFFFFFFFFFFFFFFFFFFFFFFFFFFFFFFFFFFFFFFFF AND PUSH20 0xFFFFFFFFFFFFFFFFFFFFFFFFFFFFFFFFFFFFFFFF AND DUP2 MSTORE PUSH1 0x20 ADD SWAP1 DUP2 MSTORE PUSH1 0x20 ADD PUSH1 0x0 KECCAK256 PUSH1 0x0 DUP7 DUP2 MSTORE PUSH1 0x20 ADD SWAP1 DUP2 MSTORE PUSH1 0x20 ADD PUSH1 0x0 KECCAK256 PUSH1 0x3 ADD PUSH1 0x0 SWAP1 SLOAD SWAP1 PUSH2 0x100 EXP SWAP1 DIV PUSH20 0xFFFFFFFFFFFFFFFFFFFFFFFFFFFFFFFFFFFFFFFF AND PUSH20 0xFFFFFFFFFFFFFFFFFFFFFFFFFFFFFFFFFFFFFFFF AND PUSH20 0xFFFFFFFFFFFFFFFFFFFFFFFFFFFFFFFFFFFFFFFF AND DUP2 MSTORE PUSH1 0x20 ADD SWAP1 DUP2 MSTORE PUSH1 0x20 ADD PUSH1 0x0 KECCAK256 PUSH1 0x0 DUP4 DUP2 MSTORE PUSH1 0x20 ADD SWAP1 DUP2 MSTORE PUSH1 0x20 ADD PUSH1 0x0 KECCAK256 PUSH1 0x0 DUP3 ADD DUP2 PUSH1 0x0 ADD SWAP1 DUP2 PUSH2 0xB80 SWAP2 SWAP1 PUSH2 0x1D28 JUMP JUMPDEST POP PUSH1 0x1 DUP3 ADD SLOAD DUP2 PUSH1 0x1 ADD SSTORE PUSH1 0x2 DUP3 ADD SLOAD DUP2 PUSH1 0x2 ADD SSTORE PUSH1 0x3 DUP3 ADD PUSH1 0x0 SWAP1 SLOAD SWAP1 PUSH2 0x100 EXP SWAP1 DIV PUSH20 0xFFFFFFFFFFFFFFFFFFFFFFFFFFFFFFFFFFFFFFFF AND DUP2 PUSH1 0x3 ADD PUSH1 0x0 PUSH2 0x100 EXP DUP2 SLOAD DUP2 PUSH20 0xFFFFFFFFFFFFFFFFFFFFFFFFFFFFFFFFFFFFFFFF MUL NOT AND SWAP1 DUP4 PUSH20 0xFFFFFFFFFFFFFFFFFFFFFFFFFFFFFFFFFFFFFFFF AND MUL OR SWAP1 SSTORE POP PUSH1 0x4 DUP3 ADD SLOAD DUP2 PUSH1 0x4 ADD SSTORE PUSH1 0x5 DUP3 ADD PUSH1 0x0 SWAP1 SLOAD SWAP1 PUSH2 0x100 EXP SWAP1 DIV PUSH20 0xFFFFFFFFFFFFFFFFFFFFFFFFFFFFFFFFFFFFFFFF AND DUP2 PUSH1 0x5 ADD PUSH1 0x0 PUSH2 0x100 EXP DUP2 SLOAD DUP2 PUSH20 0xFFFFFFFFFFFFFFFFFFFFFFFFFFFFFFFFFFFFFFFF MUL NOT AND SWAP1 DUP4 PUSH20 0xFFFFFFFFFFFFFFFFFFFFFFFFFFFFFFFFFFFFFFFF AND MUL OR SWAP1 SSTORE POP SWAP1 POP POP PUSH1 0x1 PUSH1 0x0 DUP5 PUSH20 0xFFFFFFFFFFFFFFFFFFFFFFFFFFFFFFFFFFFFFFFF AND PUSH20 0xFFFFFFFFFFFFFFFFFFFFFFFFFFFFFFFFFFFFFFFF AND DUP2 MSTORE PUSH1 0x20 ADD SWAP1 DUP2 MSTORE PUSH1 0x20 ADD PUSH1 0x0 KECCAK256 PUSH1 0x0 DUP4 DUP2 MSTORE PUSH1 0x20 ADD SWAP1 DUP2 MSTORE PUSH1 0x20 ADD PUSH1 0x0 KECCAK256 PUSH1 0x0 DUP1 DUP3 ADD PUSH1 0x0 PUSH2 0xCD1 SWAP2 SWAP1 PUSH2 0x1350 JUMP JUMPDEST PUSH1 0x1 DUP3 ADD PUSH1 0x0 SWAP1 SSTORE PUSH1 0x2 DUP3 ADD PUSH1 0x0 SWAP1 SSTORE PUSH1 0x3 DUP3 ADD PUSH1 0x0 PUSH2 0x100 EXP DUP2 SLOAD SWAP1 PUSH20 0xFFFFFFFFFFFFFFFFFFFFFFFFFFFFFFFFFFFFFFFF MUL NOT AND SWAP1 SSTORE PUSH1 0x4 DUP3 ADD PUSH1 0x0 SWAP1 SSTORE PUSH1 0x5 DUP3 ADD PUSH1 0x0 PUSH2 0x100 EXP DUP2 SLOAD SWAP1 PUSH20 0xFFFFFFFFFFFFFFFFFFFFFFFFFFFFFFFFFFFFFFFF MUL NOT AND SWAP1 SSTORE POP POP POP POP POP JUMP JUMPDEST CALLER PUSH20 0xFFFFFFFFFFFFFFFFFFFFFFFFFFFFFFFFFFFFFFFF AND DUP3 PUSH20 0xFFFFFFFFFFFFFFFFFFFFFFFFFFFFFFFFFFFFFFFF AND SUB PUSH2 0xDAC JUMPI PUSH1 0x40 MLOAD PUSH32 0x8C379A000000000000000000000000000000000000000000000000000000000 DUP2 MSTORE PUSH1 0x4 ADD PUSH2 0xDA3 SWAP1 PUSH2 0x1E5C JUMP JUMPDEST PUSH1 0x40 MLOAD DUP1 SWAP2 SUB SWAP1 REVERT JUMPDEST TIMESTAMP PUSH1 0x1 PUSH1 0x0 DUP5 PUSH20 0xFFFFFFFFFFFFFFFFFFFFFFFFFFFFFFFFFFFFFFFF AND PUSH20 0xFFFFFFFFFFFFFFFFFFFFFFFFFFFFFFFFFFFFFFFF AND DUP2 MSTORE PUSH1 0x20 ADD SWAP1 DUP2 MSTORE PUSH1 0x20 ADD PUSH1 0x0 KECCAK256 PUSH1 0x0 DUP4 DUP2 MSTORE PUSH1 0x20 ADD SWAP1 DUP2 MSTORE PUSH1 0x20 ADD PUSH1 0x0 KECCAK256 PUSH1 0x4 ADD SLOAD GT PUSH2 0xE41 JUMPI PUSH1 0x40 MLOAD PUSH32 0x8C379A000000000000000000000000000000000000000000000000000000000 DUP2 MSTORE PUSH1 0x4 ADD PUSH2 0xE38 SWAP1 PUSH2 0x1EC8 JUMP JUMPDEST PUSH1 0x40 MLOAD DUP1 SWAP2 SUB SWAP1 REVERT JUMPDEST PUSH1 0x1 PUSH1 0x0 DUP4 PUSH20 0xFFFFFFFFFFFFFFFFFFFFFFFFFFFFFFFFFFFFFFFF AND PUSH20 0xFFFFFFFFFFFFFFFFFFFFFFFFFFFFFFFFFFFFFFFF AND DUP2 MSTORE PUSH1 0x20 ADD SWAP1 DUP2 MSTORE PUSH1 0x20 ADD PUSH1 0x0 KECCAK256 PUSH1 0x0 DUP3 DUP2 MSTORE PUSH1 0x20 ADD SWAP1 DUP2 MSTORE PUSH1 0x20 ADD PUSH1 0x0 KECCAK256 PUSH1 0x1 ADD SLOAD CALLVALUE LT ISZERO PUSH2 0xED7 JUMPI PUSH1 0x40 MLOAD PUSH32 0x8C379A000000000000000000000000000000000000000000000000000000000 DUP2 MSTORE PUSH1 0x4 ADD PUSH2 0xECE SWAP1 PUSH2 0x1F34 JUMP JUMPDEST PUSH1 0x40 MLOAD DUP1 SWAP2 SUB SWAP1 REVERT JUMPDEST PUSH1 0x1 PUSH1 0x0 DUP4 PUSH20 0xFFFFFFFFFFFFFFFFFFFFFFFFFFFFFFFFFFFFFFFF AND PUSH20 0xFFFFFFFFFFFFFFFFFFFFFFFFFFFFFFFFFFFFFFFF AND DUP2 MSTORE PUSH1 0x20 ADD SWAP1 DUP2 MSTORE PUSH1 0x20 ADD PUSH1 0x0 KECCAK256 PUSH1 0x0 DUP3 DUP2 MSTORE PUSH1 0x20 ADD SWAP1 DUP2 MSTORE PUSH1 0x20 ADD PUSH1 0x0 KECCAK256 PUSH1 0x2 ADD SLOAD CALLVALUE GT PUSH2 0xF6C JUMPI PUSH1 0x40 MLOAD PUSH32 0x8C379A000000000000000000000000000000000000000000000000000000000 DUP2 MSTORE PUSH1 0x4 ADD PUSH2 0xF63 SWAP1 PUSH2 0x1FA0 JUMP JUMPDEST PUSH1 0x40 MLOAD DUP1 SWAP2 SUB SWAP1 REVERT JUMPDEST PUSH1 0x1 PUSH1 0x0 DUP4 PUSH20 0xFFFFFFFFFFFFFFFFFFFFFFFFFFFFFFFFFFFFFFFF AND PUSH20 0xFFFFFFFFFFFFFFFFFFFFFFFFFFFFFFFFFFFFFFFF AND DUP2 MSTORE PUSH1 0x20 ADD SWAP1 DUP2 MSTORE PUSH1 0x20 ADD PUSH1 0x0 KECCAK256 PUSH1 0x0 DUP3 DUP2 MSTORE PUSH1 0x20 ADD SWAP1 DUP2 MSTORE PUSH1 0x20 ADD PUSH1 0x0 KECCAK256 PUSH1 0x2 ADD SLOAD PUSH1 0x1 PUSH1 0x0 DUP5 PUSH20 0xFFFFFFFFFFFFFFFFFFFFFFFFFFFFFFFFFFFFFFFF AND PUSH20 0xFFFFFFFFFFFFFFFFFFFFFFFFFFFFFFFFFFFFFFFF AND DUP2 MSTORE PUSH1 0x20 ADD SWAP1 DUP2 MSTORE PUSH1 0x20 ADD PUSH1 0x0 KECCAK256 PUSH1 0x0 DUP4 DUP2 MSTORE PUSH1 0x20 ADD SWAP1 DUP2 MSTORE PUSH1 0x20 ADD PUSH1 0x0 KECCAK256 PUSH1 0x1 ADD DUP2 SWAP1 SSTORE POP PUSH1 0x1 PUSH1 0x0 DUP4 PUSH20 0xFFFFFFFFFFFFFFFFFFFFFFFFFFFFFFFFFFFFFFFF AND PUSH20 0xFFFFFFFFFFFFFFFFFFFFFFFFFFFFFFFFFFFFFFFF AND DUP2 MSTORE PUSH1 0x20 ADD SWAP1 DUP2 MSTORE PUSH1 0x20 ADD PUSH1 0x0 KECCAK256 PUSH1 0x0 DUP3 DUP2 MSTORE PUSH1 0x20 ADD SWAP1 DUP2 MSTORE PUSH1 0x20 ADD PUSH1 0x0 KECCAK256 PUSH1 0x3 ADD PUSH1 0x0 SWAP1 SLOAD SWAP1 PUSH2 0x100 EXP SWAP1 DIV PUSH20 0xFFFFFFFFFFFFFFFFFFFFFFFFFFFFFFFFFFFFFFFF AND PUSH1 0x1 PUSH1 0x0 DUP5 PUSH20 0xFFFFFFFFFFFFFFFFFFFFFFFFFFFFFFFFFFFFFFFF AND PUSH20 0xFFFFFFFFFFFFFFFFFFFFFFFFFFFFFFFFFFFFFFFF AND DUP2 MSTORE PUSH1 0x20 ADD SWAP1 DUP2 MSTORE PUSH1 0x20 ADD PUSH1 0x0 KECCAK256 PUSH1 0x0 DUP4 DUP2 MSTORE PUSH1 0x20 ADD SWAP1 DUP2 MSTORE PUSH1 0x20 ADD PUSH1 0x0 KECCAK256 PUSH1 0x5 ADD PUSH1 0x0 PUSH2 0x100 EXP DUP2 SLOAD DUP2 PUSH20 0xFFFFFFFFFFFFFFFFFFFFFFFFFFFFFFFFFFFFFFFF MUL NOT AND SWAP1 DUP4 PUSH20 0xFFFFFFFFFFFFFFFFFFFFFFFFFFFFFFFFFFFFFFFF AND MUL OR SWAP1 SSTORE POP CALLVALUE PUSH1 0x1 PUSH1 0x0 DUP5 PUSH20 0xFFFFFFFFFFFFFFFFFFFFFFFFFFFFFFFFFFFFFFFF AND PUSH20 0xFFFFFFFFFFFFFFFFFFFFFFFFFFFFFFFFFFFFFFFF AND DUP2 MSTORE PUSH1 0x20 ADD SWAP1 DUP2 MSTORE PUSH1 0x20 ADD PUSH1 0x0 KECCAK256 PUSH1 0x0 DUP4 DUP2 MSTORE PUSH1 0x20 ADD SWAP1 DUP2 MSTORE PUSH1 0x20 ADD PUSH1 0x0 KECCAK256 PUSH1 0x2 ADD DUP2 SWAP1 SSTORE POP CALLER PUSH1 0x1 PUSH1 0x0 DUP5 PUSH20 0xFFFFFFFFFFFFFFFFFFFFFFFFFFFFFFFFFFFFFFFF AND PUSH20 0xFFFFFFFFFFFFFFFFFFFFFFFFFFFFFFFFFFFFFFFF AND DUP2 MSTORE PUSH1 0x20 ADD SWAP1 DUP2 MSTORE PUSH1 0x20 ADD PUSH1 0x0 KECCAK256 PUSH1 0x0 DUP4 DUP2 MSTORE PUSH1 0x20 ADD SWAP1 DUP2 MSTORE PUSH1 0x20 ADD PUSH1 0x0 KECCAK256 PUSH1 0x3 ADD PUSH1 0x0 PUSH2 0x100 EXP DUP2 SLOAD DUP2 PUSH20 0xFFFFFFFFFFFFFFFFFFFFFFFFFFFFFFFFFFFFFFFF MUL NOT AND SWAP1 DUP4 PUSH20 0xFFFFFFFFFFFFFFFFFFFFFFFFFFFFFFFFFFFFFFFF AND MUL OR SWAP1 SSTORE POP PUSH1 0x1 PUSH1 0x0 DUP4 PUSH20 0xFFFFFFFFFFFFFFFFFFFFFFFFFFFFFFFFFFFFFFFF AND PUSH20 0xFFFFFFFFFFFFFFFFFFFFFFFFFFFFFFFFFFFFFFFF AND DUP2 MSTORE PUSH1 0x20 ADD SWAP1 DUP2 MSTORE PUSH1 0x20 ADD PUSH1 0x0 KECCAK256 PUSH1 0x0 DUP3 DUP2 MSTORE PUSH1 0x20 ADD SWAP1 DUP2 MSTORE PUSH1 0x20 ADD PUSH1 0x0 KECCAK256 PUSH1 0x5 ADD PUSH1 0x0 SWAP1 SLOAD SWAP1 PUSH2 0x100 EXP SWAP1 DIV PUSH20 0xFFFFFFFFFFFFFFFFFFFFFFFFFFFFFFFFFFFFFFFF AND PUSH20 0xFFFFFFFFFFFFFFFFFFFFFFFFFFFFFFFFFFFFFFFF AND PUSH2 0x8FC PUSH1 0x1 PUSH1 0x0 DUP6 PUSH20 0xFFFFFFFFFFFFFFFFFFFFFFFFFFFFFFFFFFFFFFFF AND PUSH20 0xFFFFFFFFFFFFFFFFFFFFFFFFFFFFFFFFFFFFFFFF AND DUP2 MSTORE PUSH1 0x20 ADD SWAP1 DUP2 MSTORE PUSH1 0x20 ADD PUSH1 0x0 KECCAK256 PUSH1 0x0 DUP5 DUP2 MSTORE PUSH1 0x20 ADD SWAP1 DUP2 MSTORE PUSH1 0x20 ADD PUSH1 0x0 KECCAK256 PUSH1 0x1 ADD SLOAD SWAP1 DUP2 ISZERO MUL SWAP1 PUSH1 0x40 MLOAD PUSH1 0x0 PUSH1 0x40 MLOAD DUP1 DUP4 SUB DUP2 DUP6 DUP9 DUP9 CALL SWAP4 POP POP POP POP ISZERO DUP1 ISZERO PUSH2 0x1312 JUMPI RETURNDATASIZE PUSH1 0x0 DUP1 RETURNDATACOPY RETURNDATASIZE PUSH1 0x0 REVERT JUMPDEST POP PUSH32 0xE684A55F31B79ECA403DF938249029212A5925EC6BE8012E099B45BC1019E5D2 CALLER CALLVALUE PUSH1 0x40 MLOAD PUSH2 0x1344 SWAP3 SWAP2 SWAP1 PUSH2 0x1FC0 JUMP JUMPDEST PUSH1 0x40 MLOAD DUP1 SWAP2 SUB SWAP1 LOG1 POP POP JUMP JUMPDEST POP DUP1 SLOAD PUSH2 0x135C SWAP1 PUSH2 0x1832 JUMP JUMPDEST PUSH1 0x0 DUP3 SSTORE DUP1 PUSH1 0x1F LT PUSH2 0x136E JUMPI POP PUSH2 0x138D JUMP JUMPDEST PUSH1 0x1F ADD PUSH1 0x20 SWAP1 DIV SWAP1 PUSH1 0x0 MSTORE PUSH1 0x20 PUSH1 0x0 KECCAK256 SWAP1 DUP2 ADD SWAP1 PUSH2 0x138C SWAP2 SWAP1 PUSH2 0x1390 JUMP JUMPDEST JUMPDEST POP JUMP JUMPDEST JUMPDEST DUP1 DUP3 GT ISZERO PUSH2 0x13A9 JUMPI PUSH1 0x0 DUP2 PUSH1 0x0 SWAP1 SSTORE POP PUSH1 0x1 ADD PUSH2 0x1391 JUMP JUMPDEST POP SWAP1 JUMP JUMPDEST PUSH1 0x0 PUSH1 0x40 MLOAD SWAP1 POP SWAP1 JUMP JUMPDEST PUSH1 0x0 DUP1 REVERT JUMPDEST PUSH1 0x0 DUP1 REVERT JUMPDEST PUSH1 0x0 PUSH20 0xFFFFFFFFFFFFFFFFFFFFFFFFFFFFFFFFFFFFFFFF DUP3 AND SWAP1 POP SWAP2 SWAP1 POP JUMP JUMPDEST PUSH1 0x0 PUSH2 0x13EC DUP3 PUSH2 0x13C1 JUMP JUMPDEST SWAP1 POP SWAP2 SWAP1 POP JUMP JUMPDEST PUSH2 0x13FC DUP2 PUSH2 0x13E1 JUMP JUMPDEST DUP2 EQ PUSH2 0x1407 JUMPI PUSH1 0x0 DUP1 REVERT JUMPDEST POP JUMP JUMPDEST PUSH1 0x0 DUP2 CALLDATALOAD SWAP1 POP PUSH2 0x1419 DUP2 PUSH2 0x13F3 JUMP JUMPDEST SWAP3 SWAP2 POP POP JUMP JUMPDEST PUSH1 0x0 DUP2 SWAP1 POP SWAP2 SWAP1 POP JUMP JUMPDEST PUSH2 0x1432 DUP2 PUSH2 0x141F JUMP JUMPDEST DUP2 EQ PUSH2 0x143D JUMPI PUSH1 0x0 DUP1 REVERT JUMPDEST POP JUMP JUMPDEST PUSH1 0x0 DUP2 CALLDATALOAD SWAP1 POP PUSH2 0x144F DUP2 PUSH2 0x1429 JUMP JUMPDEST SWAP3 SWAP2 POP POP JUMP JUMPDEST PUSH1 0x0 DUP1 PUSH1 0x40 DUP4 DUP6 SUB SLT ISZERO PUSH2 0x146C JUMPI PUSH2 0x146B PUSH2 0x13B7 JUMP JUMPDEST JUMPDEST PUSH1 0x0 PUSH2 0x147A DUP6 DUP3 DUP7 ADD PUSH2 0x140A JUMP JUMPDEST SWAP3 POP POP PUSH1 0x20 PUSH2 0x148B DUP6 DUP3 DUP7 ADD PUSH2 0x1440 JUMP JUMPDEST SWAP2 POP POP SWAP3 POP SWAP3 SWAP1 POP JUMP JUMPDEST PUSH1 0x0 DUP2 MLOAD SWAP1 POP SWAP2 SWAP1 POP JUMP JUMPDEST PUSH1 0x0 DUP3 DUP3 MSTORE PUSH1 0x20 DUP3 ADD SWAP1 POP SWAP3 SWAP2 POP POP JUMP JUMPDEST PUSH1 0x0 JUMPDEST DUP4 DUP2 LT ISZERO PUSH2 0x14CF JUMPI DUP1 DUP3 ADD MLOAD DUP2 DUP5 ADD MSTORE PUSH1 0x20 DUP2 ADD SWAP1 POP PUSH2 0x14B4 JUMP JUMPDEST PUSH1 0x0 DUP5 DUP5 ADD MSTORE POP POP POP POP JUMP JUMPDEST PUSH1 0x0 PUSH1 0x1F NOT PUSH1 0x1F DUP4 ADD AND SWAP1 POP SWAP2 SWAP1 POP JUMP JUMPDEST PUSH1 0x0 PUSH2 0x14F7 DUP3 PUSH2 0x1495 JUMP JUMPDEST PUSH2 0x1501 DUP2 DUP6 PUSH2 0x14A0 JUMP JUMPDEST SWAP4 POP PUSH2 0x1511 DUP2 DUP6 PUSH1 0x20 DUP7 ADD PUSH2 0x14B1 JUMP JUMPDEST PUSH2 0x151A DUP2 PUSH2 0x14DB JUMP JUMPDEST DUP5 ADD SWAP2 POP POP SWAP3 SWAP2 POP POP JUMP JUMPDEST PUSH2 0x152E DUP2 PUSH2 0x141F JUMP JUMPDEST DUP3 MSTORE POP POP JUMP JUMPDEST PUSH2 0x153D DUP2 PUSH2 0x13E1 JUMP JUMPDEST DUP3 MSTORE POP POP JUMP JUMPDEST PUSH1 0x0 PUSH1 0xC0 DUP3 ADD SWAP1 POP DUP2 DUP2 SUB PUSH1 0x0 DUP4 ADD MSTORE PUSH2 0x155D DUP2 DUP10 PUSH2 0x14EC JUMP JUMPDEST SWAP1 POP PUSH2 0x156C PUSH1 0x20 DUP4 ADD DUP9 PUSH2 0x1525 JUMP JUMPDEST PUSH2 0x1579 PUSH1 0x40 DUP4 ADD DUP8 PUSH2 0x1525 JUMP JUMPDEST PUSH2 0x1586 PUSH1 0x60 DUP4 ADD DUP7 PUSH2 0x1534 JUMP JUMPDEST PUSH2 0x1593 PUSH1 0x80 DUP4 ADD DUP6 PUSH2 0x1525 JUMP JUMPDEST PUSH2 0x15A0 PUSH1 0xA0 DUP4 ADD DUP5 PUSH2 0x1534 JUMP JUMPDEST SWAP8 SWAP7 POP POP POP POP POP POP POP JUMP JUMPDEST PUSH1 0x0 DUP1 REVERT JUMPDEST PUSH1 0x0 DUP1 REVERT JUMPDEST PUSH32 0x4E487B7100000000000000000000000000000000000000000000000000000000 PUSH1 0x0 MSTORE PUSH1 0x41 PUSH1 0x4 MSTORE PUSH1 0x24 PUSH1 0x0 REVERT JUMPDEST PUSH2 0x15ED DUP3 PUSH2 0x14DB JUMP JUMPDEST DUP2 ADD DUP2 DUP2 LT PUSH8 0xFFFFFFFFFFFFFFFF DUP3 GT OR ISZERO PUSH2 0x160C JUMPI PUSH2 0x160B PUSH2 0x15B5 JUMP JUMPDEST JUMPDEST DUP1 PUSH1 0x40 MSTORE POP POP POP JUMP JUMPDEST PUSH1 0x0 PUSH2 0x161F PUSH2 0x13AD JUMP JUMPDEST SWAP1 POP PUSH2 0x162B DUP3 DUP3 PUSH2 0x15E4 JUMP JUMPDEST SWAP2 SWAP1 POP JUMP JUMPDEST PUSH1 0x0 PUSH8 0xFFFFFFFFFFFFFFFF DUP3 GT ISZERO PUSH2 0x164B JUMPI PUSH2 0x164A PUSH2 0x15B5 JUMP JUMPDEST JUMPDEST PUSH2 0x1654 DUP3 PUSH2 0x14DB JUMP JUMPDEST SWAP1 POP PUSH1 0x20 DUP2 ADD SWAP1 POP SWAP2 SWAP1 POP JUMP JUMPDEST DUP3 DUP2 DUP4 CALLDATACOPY PUSH1 0x0 DUP4 DUP4 ADD MSTORE POP POP POP JUMP JUMPDEST PUSH1 0x0 PUSH2 0x1683 PUSH2 0x167E DUP5 PUSH2 0x1630 JUMP JUMPDEST PUSH2 0x1615 JUMP JUMPDEST SWAP1 POP DUP3 DUP2 MSTORE PUSH1 0x20 DUP2 ADD DUP5 DUP5 DUP5 ADD GT ISZERO PUSH2 0x169F JUMPI PUSH2 0x169E PUSH2 0x15B0 JUMP JUMPDEST JUMPDEST PUSH2 0x16AA DUP5 DUP3 DUP6 PUSH2 0x1661 JUMP JUMPDEST POP SWAP4 SWAP3 POP POP POP JUMP JUMPDEST PUSH1 0x0 DUP3 PUSH1 0x1F DUP4 ADD SLT PUSH2 0x16C7 JUMPI PUSH2 0x16C6 PUSH2 0x15AB JUMP JUMPDEST JUMPDEST DUP2 CALLDATALOAD PUSH2 0x16D7 DUP5 DUP3 PUSH1 0x20 DUP7 ADD PUSH2 0x1670 JUMP JUMPDEST SWAP2 POP POP SWAP3 SWAP2 POP POP JUMP JUMPDEST PUSH1 0x0 DUP1 PUSH1 0x40 DUP4 DUP6 SUB SLT ISZERO PUSH2 0x16F7 JUMPI PUSH2 0x16F6 PUSH2 0x13B7 JUMP JUMPDEST JUMPDEST PUSH1 0x0 PUSH2 0x1705 DUP6 DUP3 DUP7 ADD PUSH2 0x1440 JUMP JUMPDEST SWAP3 POP POP PUSH1 0x20 DUP4 ADD CALLDATALOAD PUSH8 0xFFFFFFFFFFFFFFFF DUP2 GT ISZERO PUSH2 0x1726 JUMPI PUSH2 0x1725 PUSH2 0x13BC JUMP JUMPDEST JUMPDEST PUSH2 0x1732 DUP6 DUP3 DUP7 ADD PUSH2 0x16B2 JUMP JUMPDEST SWAP2 POP POP SWAP3 POP SWAP3 SWAP1 POP JUMP JUMPDEST PUSH1 0x0 PUSH1 0x20 DUP3 ADD SWAP1 POP PUSH2 0x1751 PUSH1 0x0 DUP4 ADD DUP5 PUSH2 0x1534 JUMP JUMPDEST SWAP3 SWAP2 POP POP JUMP JUMPDEST PUSH1 0x0 PUSH1 0x20 DUP3 ADD SWAP1 POP PUSH2 0x176C PUSH1 0x0 DUP4 ADD DUP5 PUSH2 0x1525 JUMP JUMPDEST SWAP3 SWAP2 POP POP JUMP JUMPDEST PUSH1 0x0 PUSH2 0x177D DUP3 PUSH2 0x13C1 JUMP JUMPDEST SWAP1 POP SWAP2 SWAP1 POP JUMP JUMPDEST PUSH2 0x178D DUP2 PUSH2 0x1772 JUMP JUMPDEST DUP2 EQ PUSH2 0x1798 JUMPI PUSH1 0x0 DUP1 REVERT JUMPDEST POP JUMP JUMPDEST PUSH1 0x0 DUP2 CALLDATALOAD SWAP1 POP PUSH2 0x17AA DUP2 PUSH2 0x1784 JUMP JUMPDEST SWAP3 SWAP2 POP POP JUMP JUMPDEST PUSH1 0x0 DUP1 PUSH1 0x0 PUSH1 0x60 DUP5 DUP7 SUB SLT ISZERO PUSH2 0x17C9 JUMPI PUSH2 0x17C8 PUSH2 0x13B7 JUMP JUMPDEST JUMPDEST PUSH1 0x0 PUSH2 0x17D7 DUP7 DUP3 DUP8 ADD PUSH2 0x179B JUMP JUMPDEST SWAP4 POP POP PUSH1 0x20 PUSH2 0x17E8 DUP7 DUP3 DUP8 ADD PUSH2 0x1440 JUMP JUMPDEST SWAP3 POP POP PUSH1 0x40 PUSH2 0x17F9 DUP7 DUP3 DUP8 ADD PUSH2 0x1440 JUMP JUMPDEST SWAP2 POP POP SWAP3 POP SWAP3 POP SWAP3 JUMP JUMPDEST PUSH32 0x4E487B7100000000000000000000000000000000000000000000000000000000 PUSH1 0x0 MSTORE PUSH1 0x22 PUSH1 0x4 MSTORE PUSH1 0x24 PUSH1 0x0 REVERT JUMPDEST PUSH1 0x0 PUSH1 0x2 DUP3 DIV SWAP1 POP PUSH1 0x1 DUP3 AND DUP1 PUSH2 0x184A JUMPI PUSH1 0x7F DUP3 AND SWAP2 POP JUMPDEST PUSH1 0x20 DUP3 LT DUP2 SUB PUSH2 0x185D JUMPI PUSH2 0x185C PUSH2 0x1803 JUMP JUMPDEST JUMPDEST POP SWAP2 SWAP1 POP JUMP JUMPDEST PUSH32 0x4E6F742056616C69640000000000000000000000000000000000000000000000 PUSH1 0x0 DUP3 ADD MSTORE POP JUMP JUMPDEST PUSH1 0x0 PUSH2 0x1899 PUSH1 0x9 DUP4 PUSH2 0x14A0 JUMP JUMPDEST SWAP2 POP PUSH2 0x18A4 DUP3 PUSH2 0x1863 JUMP JUMPDEST PUSH1 0x20 DUP3 ADD SWAP1 POP SWAP2 SWAP1 POP JUMP JUMPDEST PUSH1 0x0 PUSH1 0x20 DUP3 ADD SWAP1 POP DUP2 DUP2 SUB PUSH1 0x0 DUP4 ADD MSTORE PUSH2 0x18C8 DUP2 PUSH2 0x188C JUMP JUMPDEST SWAP1 POP SWAP2 SWAP1 POP JUMP JUMPDEST PUSH1 0x0 DUP2 SWAP1 POP DUP2 PUSH1 0x0 MSTORE PUSH1 0x20 PUSH1 0x0 KECCAK256 SWAP1 POP SWAP2 SWAP1 POP JUMP JUMPDEST PUSH1 0x0 PUSH1 0x20 PUSH1 0x1F DUP4 ADD DIV SWAP1 POP SWAP2 SWAP1 POP JUMP JUMPDEST PUSH1 0x0 DUP3 DUP3 SHL SWAP1 POP SWAP3 SWAP2 POP POP JUMP JUMPDEST PUSH1 0x0 PUSH1 0x8 DUP4 MUL PUSH2 0x1931 PUSH32 0xFFFFFFFFFFFFFFFFFFFFFFFFFFFFFFFFFFFFFFFFFFFFFFFFFFFFFFFFFFFFFFFF DUP3 PUSH2 0x18F4 JUMP JUMPDEST PUSH2 0x193B DUP7 DUP4 PUSH2 0x18F4 JUMP JUMPDEST SWAP6 POP DUP1 NOT DUP5 AND SWAP4 POP DUP1 DUP7 AND DUP5 OR SWAP3 POP POP POP SWAP4 SWAP3 POP POP POP JUMP JUMPDEST PUSH1 0x0 DUP2 SWAP1 POP SWAP2 SWAP1 POP JUMP JUMPDEST PUSH1 0x0 PUSH2 0x1978 PUSH2 0x1973 PUSH2 0x196E DUP5 PUSH2 0x141F JUMP JUMPDEST PUSH2 0x1953 JUMP JUMPDEST PUSH2 0x141F JUMP JUMPDEST SWAP1 POP SWAP2 SWAP1 POP JUMP JUMPDEST PUSH1 0x0 DUP2 SWAP1 POP SWAP2 SWAP1 POP JUMP JUMPDEST PUSH2 0x1992 DUP4 PUSH2 0x195D JUMP JUMPDEST PUSH2 0x19A6 PUSH2 0x199E DUP3 PUSH2 0x197F JUMP JUMPDEST DUP5 DUP5 SLOAD PUSH2 0x1901 JUMP JUMPDEST DUP3 SSTORE POP POP POP POP JUMP JUMPDEST PUSH1 0x0 SWAP1 JUMP JUMPDEST PUSH2 0x19BB PUSH2 0x19AE JUMP JUMPDEST PUSH2 0x19C6 DUP2 DUP5 DUP5 PUSH2 0x1989 JUMP JUMPDEST POP POP POP JUMP JUMPDEST JUMPDEST DUP2 DUP2 LT ISZERO PUSH2 0x19EA JUMPI PUSH2 0x19DF PUSH1 0x0 DUP3 PUSH2 0x19B3 JUMP JUMPDEST PUSH1 0x1 DUP2 ADD SWAP1 POP PUSH2 0x19CC JUMP JUMPDEST POP POP JUMP JUMPDEST PUSH1 0x1F DUP3 GT ISZERO PUSH2 0x1A2F JUMPI PUSH2 0x1A00 DUP2 PUSH2 0x18CF JUMP JUMPDEST PUSH2 0x1A09 DUP5 PUSH2 0x18E4 JUMP JUMPDEST DUP2 ADD PUSH1 0x20 DUP6 LT ISZERO PUSH2 0x1A18 JUMPI DUP2 SWAP1 POP JUMPDEST PUSH2 0x1A2C PUSH2 0x1A24 DUP6 PUSH2 0x18E4 JUMP JUMPDEST DUP4 ADD DUP3 PUSH2 0x19CB JUMP JUMPDEST POP POP JUMPDEST POP POP POP JUMP JUMPDEST PUSH1 0x0 DUP3 DUP3 SHR SWAP1 POP SWAP3 SWAP2 POP POP JUMP JUMPDEST PUSH1 0x0 PUSH2 0x1A52 PUSH1 0x0 NOT DUP5 PUSH1 0x8 MUL PUSH2 0x1A34 JUMP JUMPDEST NOT DUP1 DUP4 AND SWAP2 POP POP SWAP3 SWAP2 POP POP JUMP JUMPDEST PUSH1 0x0 PUSH2 0x1A6B DUP4 DUP4 PUSH2 0x1A41 JUMP JUMPDEST SWAP2 POP DUP3 PUSH1 0x2 MUL DUP3 OR SWAP1 POP SWAP3 SWAP2 POP POP JUMP JUMPDEST PUSH2 0x1A84 DUP3 PUSH2 0x1495 JUMP JUMPDEST PUSH8 0xFFFFFFFFFFFFFFFF DUP2 GT ISZERO PUSH2 0x1A9D JUMPI PUSH2 0x1A9C PUSH2 0x15B5 JUMP JUMPDEST JUMPDEST PUSH2 0x1AA7 DUP3 SLOAD PUSH2 0x1832 JUMP JUMPDEST PUSH2 0x1AB2 DUP3 DUP3 DUP6 PUSH2 0x19EE JUMP JUMPDEST PUSH1 0x0 PUSH1 0x20 SWAP1 POP PUSH1 0x1F DUP4 GT PUSH1 0x1 DUP2 EQ PUSH2 0x1AE5 JUMPI PUSH1 0x0 DUP5 ISZERO PUSH2 0x1AD3 JUMPI DUP3 DUP8 ADD MLOAD SWAP1 POP JUMPDEST PUSH2 0x1ADD DUP6 DUP3 PUSH2 0x1A5F JUMP JUMPDEST DUP7 SSTORE POP PUSH2 0x1B45 JUMP JUMPDEST PUSH1 0x1F NOT DUP5 AND PUSH2 0x1AF3 DUP7 PUSH2 0x18CF JUMP JUMPDEST PUSH1 0x0 JUMPDEST DUP3 DUP2 LT ISZERO PUSH2 0x1B1B JUMPI DUP5 DUP10 ADD MLOAD DUP3 SSTORE PUSH1 0x1 DUP3 ADD SWAP2 POP PUSH1 0x20 DUP6 ADD SWAP5 POP PUSH1 0x20 DUP2 ADD SWAP1 POP PUSH2 0x1AF6 JUMP JUMPDEST DUP7 DUP4 LT ISZERO PUSH2 0x1B38 JUMPI DUP5 DUP10 ADD MLOAD PUSH2 0x1B34 PUSH1 0x1F DUP10 AND DUP3 PUSH2 0x1A41 JUMP JUMPDEST DUP4 SSTORE POP JUMPDEST PUSH1 0x1 PUSH1 0x2 DUP9 MUL ADD DUP9 SSTORE POP POP POP JUMPDEST POP POP POP POP POP POP JUMP JUMPDEST PUSH32 0x4E487B7100000000000000000000000000000000000000000000000000000000 PUSH1 0x0 MSTORE PUSH1 0x11 PUSH1 0x4 MSTORE PUSH1 0x24 PUSH1 0x0 REVERT JUMPDEST PUSH1 0x0 PUSH2 0x1B87 DUP3 PUSH2 0x141F JUMP JUMPDEST SWAP2 POP PUSH2 0x1B92 DUP4 PUSH2 0x141F JUMP JUMPDEST SWAP3 POP DUP3 DUP3 ADD SWAP1 POP DUP1 DUP3 GT ISZERO PUSH2 0x1BAA JUMPI PUSH2 0x1BA9 PUSH2 0x1B4D JUMP JUMPDEST JUMPDEST SWAP3 SWAP2 POP POP JUMP JUMPDEST PUSH1 0x0 PUSH1 0x60 DUP3 ADD SWAP1 POP PUSH2 0x1BC5 PUSH1 0x0 DUP4 ADD DUP7 PUSH2 0x1534 JUMP JUMPDEST PUSH2 0x1BD2 PUSH1 0x20 DUP4 ADD DUP6 PUSH2 0x1525 JUMP JUMPDEST DUP2 DUP2 SUB PUSH1 0x40 DUP4 ADD MSTORE PUSH2 0x1BE4 DUP2 DUP5 PUSH2 0x14EC JUMP JUMPDEST SWAP1 POP SWAP5 SWAP4 POP POP POP POP JUMP JUMPDEST PUSH32 0x204F6E6C79206F776E65722063616E20776974686472617720746865206D6F6E PUSH1 0x0 DUP3 ADD MSTORE PUSH32 0x6579000000000000000000000000000000000000000000000000000000000000 PUSH1 0x20 DUP3 ADD MSTORE POP JUMP JUMPDEST PUSH1 0x0 PUSH2 0x1C4A PUSH1 0x22 DUP4 PUSH2 0x14A0 JUMP JUMPDEST SWAP2 POP PUSH2 0x1C55 DUP3 PUSH2 0x1BEE JUMP JUMPDEST PUSH1 0x40 DUP3 ADD SWAP1 POP SWAP2 SWAP1 POP JUMP JUMPDEST PUSH1 0x0 PUSH1 0x20 DUP3 ADD SWAP1 POP DUP2 DUP2 SUB PUSH1 0x0 DUP4 ADD MSTORE PUSH2 0x1C79 DUP2 PUSH2 0x1C3D JUMP JUMPDEST SWAP1 POP SWAP2 SWAP1 POP JUMP JUMPDEST PUSH32 0x204F6E6C79204F776E65722063616E2063616E63656C20746865204175637469 PUSH1 0x0 DUP3 ADD MSTORE PUSH32 0x6F6E000000000000000000000000000000000000000000000000000000000000 PUSH1 0x20 DUP3 ADD MSTORE POP JUMP JUMPDEST PUSH1 0x0 PUSH2 0x1CDC PUSH1 0x22 DUP4 PUSH2 0x14A0 JUMP JUMPDEST SWAP2 POP PUSH2 0x1CE7 DUP3 PUSH2 0x1C80 JUMP JUMPDEST PUSH1 0x40 DUP3 ADD SWAP1 POP SWAP2 SWAP1 POP JUMP JUMPDEST PUSH1 0x0 PUSH1 0x20 DUP3 ADD SWAP1 POP DUP2 DUP2 SUB PUSH1 0x0 DUP4 ADD MSTORE PUSH2 0x1D0B DUP2 PUSH2 0x1CCF JUMP JUMPDEST SWAP1 POP SWAP2 SWAP1 POP JUMP JUMPDEST PUSH1 0x0 DUP2 SLOAD SWAP1 POP PUSH2 0x1D21 DUP2 PUSH2 0x1832 JUMP JUMPDEST SWAP1 POP SWAP2 SWAP1 POP JUMP JUMPDEST DUP2 DUP2 SUB PUSH2 0x1D36 JUMPI POP POP PUSH2 0x1E0E JUMP JUMPDEST PUSH2 0x1D3F DUP3 PUSH2 0x1D12 JUMP JUMPDEST PUSH8 0xFFFFFFFFFFFFFFFF DUP2 GT ISZERO PUSH2 0x1D58 JUMPI PUSH2 0x1D57 PUSH2 0x15B5 JUMP JUMPDEST JUMPDEST PUSH2 0x1D62 DUP3 SLOAD PUSH2 0x1832 JUMP JUMPDEST PUSH2 0x1D6D DUP3 DUP3 DUP6 PUSH2 0x19EE JUMP JUMPDEST PUSH1 0x0 PUSH1 0x1F DUP4 GT PUSH1 0x1 DUP2 EQ PUSH2 0x1D9C JUMPI PUSH1 0x0 DUP5 ISZERO PUSH2 0x1D8A JUMPI DUP3 DUP8 ADD SLOAD SWAP1 POP JUMPDEST PUSH2 0x1D94 DUP6 DUP3 PUSH2 0x1A5F JUMP JUMPDEST DUP7 SSTORE POP PUSH2 0x1E07 JUMP JUMPDEST PUSH1 0x1F NOT DUP5 AND PUSH2 0x1DAA DUP8 PUSH2 0x18CF JUMP JUMPDEST SWAP7 POP PUSH2 0x1DB5 DUP7 PUSH2 0x18CF JUMP JUMPDEST PUSH1 0x0 JUMPDEST DUP3 DUP2 LT ISZERO PUSH2 0x1DDD JUMPI DUP5 DUP10 ADD SLOAD DUP3 SSTORE PUSH1 0x1 DUP3 ADD SWAP2 POP PUSH1 0x1 DUP6 ADD SWAP5 POP PUSH1 0x20 DUP2 ADD SWAP1 POP PUSH2 0x1DB8 JUMP JUMPDEST DUP7 DUP4 LT ISZERO PUSH2 0x1DFA JUMPI DUP5 DUP10 ADD SLOAD PUSH2 0x1DF6 PUSH1 0x1F DUP10 AND DUP3 PUSH2 0x1A41 JUMP JUMPDEST DUP4 SSTORE POP JUMPDEST PUSH1 0x1 PUSH1 0x2 DUP9 MUL ADD DUP9 SSTORE POP POP POP JUMPDEST POP POP POP POP POP POP JUMPDEST JUMP JUMPDEST PUSH32 0x206F776E65722063616E27742062696400000000000000000000000000000000 PUSH1 0x0 DUP3 ADD MSTORE POP JUMP JUMPDEST PUSH1 0x0 PUSH2 0x1E46 PUSH1 0x10 DUP4 PUSH2 0x14A0 JUMP JUMPDEST SWAP2 POP PUSH2 0x1E51 DUP3 PUSH2 0x1E10 JUMP JUMPDEST PUSH1 0x20 DUP3 ADD SWAP1 POP SWAP2 SWAP1 POP JUMP JUMPDEST PUSH1 0x0 PUSH1 0x20 DUP3 ADD SWAP1 POP DUP2 DUP2 SUB PUSH1 0x0 DUP4 ADD MSTORE PUSH2 0x1E75 DUP2 PUSH2 0x1E39 JUMP JUMPDEST SWAP1 POP SWAP2 SWAP1 POP JUMP JUMPDEST PUSH32 0x204E6F7468696E6720746F20506C616365207468652042696420000000000000 PUSH1 0x0 DUP3 ADD MSTORE POP JUMP JUMPDEST PUSH1 0x0 PUSH2 0x1EB2 PUSH1 0x1A DUP4 PUSH2 0x14A0 JUMP JUMPDEST SWAP2 POP PUSH2 0x1EBD DUP3 PUSH2 0x1E7C JUMP JUMPDEST PUSH1 0x20 DUP3 ADD SWAP1 POP SWAP2 SWAP1 POP JUMP JUMPDEST PUSH1 0x0 PUSH1 0x20 DUP3 ADD SWAP1 POP DUP2 DUP2 SUB PUSH1 0x0 DUP4 ADD MSTORE PUSH2 0x1EE1 DUP2 PUSH2 0x1EA5 JUMP JUMPDEST SWAP1 POP SWAP2 SWAP1 POP JUMP JUMPDEST PUSH32 0x4E6F7420612056616C696420416D6F756E740000000000000000000000000000 PUSH1 0x0 DUP3 ADD MSTORE POP JUMP JUMPDEST PUSH1 0x0 PUSH2 0x1F1E PUSH1 0x12 DUP4 PUSH2 0x14A0 JUMP JUMPDEST SWAP2 POP PUSH2 0x1F29 DUP3 PUSH2 0x1EE8 JUMP JUMPDEST PUSH1 0x20 DUP3 ADD SWAP1 POP SWAP2 SWAP1 POP JUMP JUMPDEST PUSH1 0x0 PUSH1 0x20 DUP3 ADD SWAP1 POP DUP2 DUP2 SUB PUSH1 0x0 DUP4 ADD MSTORE PUSH2 0x1F4D DUP2 PUSH2 0x1F11 JUMP JUMPDEST SWAP1 POP SWAP2 SWAP1 POP JUMP JUMPDEST PUSH32 0x20496E6372656173652074686520616D6F756E74206279203120657468657200 PUSH1 0x0 DUP3 ADD MSTORE POP JUMP JUMPDEST PUSH1 0x0 PUSH2 0x1F8A PUSH1 0x1F DUP4 PUSH2 0x14A0 JUMP JUMPDEST SWAP2 POP PUSH2 0x1F95 DUP3 PUSH2 0x1F54 JUMP JUMPDEST PUSH1 0x20 DUP3 ADD SWAP1 POP SWAP2 SWAP1 POP JUMP JUMPDEST PUSH1 0x0 PUSH1 0x20 DUP3 ADD SWAP1 POP DUP2 DUP2 SUB PUSH1 0x0 DUP4 ADD MSTORE PUSH2 0x1FB9 DUP2 PUSH2 0x1F7D JUMP JUMPDEST SWAP1 POP SWAP2 SWAP1 POP JUMP JUMPDEST PUSH1 0x0 PUSH1 0x40 DUP3 ADD SWAP1 POP PUSH2 0x1FD5 PUSH1 0x0 DUP4 ADD DUP6 PUSH2 0x1534 JUMP JUMPDEST PUSH2 0x1FE2 PUSH1 0x20 DUP4 ADD DUP5 PUSH2 0x1525 JUMP JUMPDEST SWAP4 SWAP3 POP POP POP JUMP INVALID LOG2 PUSH5 0x6970667358 0x22 SLT KECCAK256 0xB4 SELFBALANCE 0xE7 SHL 0x4E MSTORE8 GT ADDRESS CALLCODE AND 0xAD 0xC4 EXTCODECOPY SWAP16 DUP6 0xED MULMOD DUP12 0xC6 CALL 0xBA 0xA7 CALLDATASIZE GASPRICE COINBASE 0x4C MLOAD SSTORE PUSH11 0xC50A6164736F6C63430008 SLT STOP CALLER "
				},
				"gasEstimates": {
					"creation": {
						"codeDepositCost": "1644600",
						"executionCost": "25988",
						"totalCost": "1670588"
					},
					"external": {
						"CreateItem(uint256,string)": "infinite",
						"cancelAuction(address,uint256)": "infinite",
						"getHighestBid(address,uint256)": "infinite",
						"getWinningBidder(address,uint256)": "infinite",
						"itemDetails(address,uint256)": "infinite",
						"ownershipTransfer(address,uint256,uint256)": "infinite",
						"placeBid(address,uint256)": "infinite",
						"withdraw()": "infinite"
					}
				},
				"methodIdentifiers": {
					"CreateItem(uint256,string)": "32627af9",
					"cancelAuction(address,uint256)": "859b97fe",
					"getHighestBid(address,uint256)": "8226508d",
					"getWinningBidder(address,uint256)": "7090c36e",
					"itemDetails(address,uint256)": "069ea362",
					"ownershipTransfer(address,uint256,uint256)": "c8b5555c",
					"placeBid(address,uint256)": "d98b9bb5",
					"withdraw()": "3ccfd60b"
				}
			},
			"storageLayout": {
				"storage": [
					{
						"astId": 152,
						"contract": "Assignment 4 Tokens/final.sol:finaL",
						"label": "Owner",
						"offset": 0,
						"slot": "0",
						"type": "t_address"
					},
					{
						"astId": 159,
						"contract": "Assignment 4 Tokens/final.sol:finaL",
						"label": "itemDetails",
						"offset": 0,
						"slot": "1",
						"type": "t_mapping(t_address,t_mapping(t_uint256,t_struct(itemD)150_storage))"
					}
				],
				"types": {
					"t_address": {
						"encoding": "inplace",
						"label": "address",
						"numberOfBytes": "20"
					},
					"t_mapping(t_address,t_mapping(t_uint256,t_struct(itemD)150_storage))": {
						"encoding": "mapping",
						"key": "t_address",
						"label": "mapping(address => mapping(uint256 => struct finaL.itemD))",
						"numberOfBytes": "32",
						"value": "t_mapping(t_uint256,t_struct(itemD)150_storage)"
					},
					"t_mapping(t_uint256,t_struct(itemD)150_storage)": {
						"encoding": "mapping",
						"key": "t_uint256",
						"label": "mapping(uint256 => struct finaL.itemD)",
						"numberOfBytes": "32",
						"value": "t_struct(itemD)150_storage"
					},
					"t_string_storage": {
						"encoding": "bytes",
						"label": "string",
						"numberOfBytes": "32"
					},
					"t_struct(itemD)150_storage": {
						"encoding": "inplace",
						"label": "struct finaL.itemD",
						"members": [
							{
								"astId": 139,
								"contract": "Assignment 4 Tokens/final.sol:finaL",
								"label": "name",
								"offset": 0,
								"slot": "0",
								"type": "t_string_storage"
							},
							{
								"astId": 141,
								"contract": "Assignment 4 Tokens/final.sol:finaL",
								"label": "lastBid",
								"offset": 0,
								"slot": "1",
								"type": "t_uint256"
							},
							{
								"astId": 143,
								"contract": "Assignment 4 Tokens/final.sol:finaL",
								"label": "highestBid",
								"offset": 0,
								"slot": "2",
								"type": "t_uint256"
							},
							{
								"astId": 145,
								"contract": "Assignment 4 Tokens/final.sol:finaL",
								"label": "highestBider",
								"offset": 0,
								"slot": "3",
								"type": "t_address"
							},
							{
								"astId": 147,
								"contract": "Assignment 4 Tokens/final.sol:finaL",
								"label": "auction_time",
								"offset": 0,
								"slot": "4",
								"type": "t_uint256"
							},
							{
								"astId": 149,
								"contract": "Assignment 4 Tokens/final.sol:finaL",
								"label": "lastHighestBider",
								"offset": 0,
								"slot": "5",
								"type": "t_address"
							}
						],
						"numberOfBytes": "192"
					},
					"t_uint256": {
						"encoding": "inplace",
						"label": "uint256",
						"numberOfBytes": "32"
					}
				}
			},
			"userdoc": {
				"kind": "user",
				"methods": {},
				"version": 1
			}
		}
	}
}