{
	"Assignment 4 Tokens/final.sol": {
		"finaL": {
			"abi": [
				{
					"anonymous": false,
					"inputs": [
						{
							"indexed": false,
							"internalType": "address",
							"name": "_address",
							"type": "address"
						},
						{
							"indexed": false,
							"internalType": "uint256",
							"name": "_bidamount",
							"type": "uint256"
						}
					],
					"name": "Bid",
					"type": "event"
				},
				{
					"anonymous": false,
					"inputs": [
						{
							"indexed": false,
							"internalType": "address",
							"name": "owner",
							"type": "address"
						},
						{
							"indexed": false,
							"internalType": "uint256",
							"name": "id",
							"type": "uint256"
						},
						{
							"indexed": false,
							"internalType": "string",
							"name": "name",
							"type": "string"
						}
					],
					"name": "createItem",
					"type": "event"
				},
				{
					"anonymous": false,
					"inputs": [
						{
							"indexed": false,
							"internalType": "address",
							"name": "_from",
							"type": "address"
						},
						{
							"indexed": false,
							"internalType": "address",
							"name": "_to",
							"type": "address"
						},
						{
							"components": [
								{
									"internalType": "string",
									"name": "name",
									"type": "string"
								},
								{
									"internalType": "uint256",
									"name": "lastBid",
									"type": "uint256"
								},
								{
									"internalType": "uint256",
									"name": "highestBid",
									"type": "uint256"
								},
								{
									"internalType": "address",
									"name": "highestBider",
									"type": "address"
								},
								{
									"internalType": "uint256",
									"name": "auction_time",
									"type": "uint256"
								},
								{
									"internalType": "address",
									"name": "lastHighestBider",
									"type": "address"
								}
							],
							"indexed": false,
							"internalType": "struct finaL.itemD",
							"name": "_item",
							"type": "tuple"
						}
					],
					"name": "transfer",
					"type": "event"
				},
				{
					"inputs": [
						{
							"internalType": "uint256",
							"name": "id",
							"type": "uint256"
						},
						{
							"internalType": "string",
							"name": "_name",
							"type": "string"
						}
					],
					"name": "CreateItem",
					"outputs": [],
					"stateMutability": "nonpayable",
					"type": "function"
				},
				{
					"inputs": [
						{
							"internalType": "address",
							"name": "_address",
							"type": "address"
						},
						{
							"internalType": "uint256",
							"name": "id",
							"type": "uint256"
						}
					],
					"name": "cancelAuction",
					"outputs": [],
					"stateMutability": "nonpayable",
					"type": "function"
				},
				{
					"inputs": [
						{
							"internalType": "address",
							"name": "_address",
							"type": "address"
						},
						{
							"internalType": "uint256",
							"name": "id",
							"type": "uint256"
						}
					],
					"name": "getHighestBid",
					"outputs": [
						{
							"internalType": "uint256",
							"name": "",
							"type": "uint256"
						}
					],
					"stateMutability": "view",
					"type": "function"
				},
				{
					"inputs": [
						{
							"internalType": "address",
							"name": "_address",
							"type": "address"
						},
						{
							"internalType": "uint256",
							"name": "id",
							"type": "uint256"
						}
					],
					"name": "getWinningBidder",
					"outputs": [
						{
							"internalType": "address",
							"name": "",
							"type": "address"
						}
					],
					"stateMutability": "view",
					"type": "function"
				},
				{
					"inputs": [
						{
							"internalType": "address",
							"name": "",
							"type": "address"
						},
						{
							"internalType": "uint256",
							"name": "",
							"type": "uint256"
						}
					],
					"name": "itemDetails",
					"outputs": [
						{
							"internalType": "string",
							"name": "name",
							"type": "string"
						},
						{
							"internalType": "uint256",
							"name": "lastBid",
							"type": "uint256"
						},
						{
							"internalType": "uint256",
							"name": "highestBid",
							"type": "uint256"
						},
						{
							"internalType": "address",
							"name": "highestBider",
							"type": "address"
						},
						{
							"internalType": "uint256",
							"name": "auction_time",
							"type": "uint256"
						},
						{
							"internalType": "address",
							"name": "lastHighestBider",
							"type": "address"
						}
					],
					"stateMutability": "view",
					"type": "function"
				},
				{
					"inputs": [
						{
							"internalType": "address payable",
							"name": "_address",
							"type": "address"
						},
						{
							"internalType": "uint256",
							"name": "id",
							"type": "uint256"
						}
					],
					"name": "ownershipTransfer",
					"outputs": [],
					"stateMutability": "nonpayable",
					"type": "function"
				},
				{
					"inputs": [
						{
							"internalType": "address",
							"name": "_address",
							"type": "address"
						},
						{
							"internalType": "uint256",
							"name": "id",
							"type": "uint256"
						}
					],
					"name": "placeBid",
					"outputs": [],
					"stateMutability": "payable",
					"type": "function"
				}
			],
			"devdoc": {
				"kind": "dev",
				"methods": {},
				"version": 1
			},
			"evm": {
				"assembly": "    /* \"Assignment 4 Tokens/final.sol\":126:2510  contract finaL  {... */\n  mstore(0x40, 0x80)\n  callvalue\n  dup1\n  iszero\n  tag_1\n  jumpi\n  0x00\n  dup1\n  revert\ntag_1:\n  pop\n  dataSize(sub_0)\n  dup1\n  dataOffset(sub_0)\n  0x00\n  codecopy\n  0x00\n  return\nstop\n\nsub_0: assembly {\n        /* \"Assignment 4 Tokens/final.sol\":126:2510  contract finaL  {... */\n      mstore(0x40, 0x80)\n      jumpi(tag_1, lt(calldatasize, 0x04))\n      shr(0xe0, calldataload(0x00))\n      dup1\n      0x7090c36e\n      gt\n      tag_9\n      jumpi\n      dup1\n      0x7090c36e\n      eq\n      tag_5\n      jumpi\n      dup1\n      0x8226508d\n      eq\n      tag_6\n      jumpi\n      dup1\n      0x859b97fe\n      eq\n      tag_7\n      jumpi\n      dup1\n      0xd98b9bb5\n      eq\n      tag_8\n      jumpi\n      jump(tag_1)\n    tag_9:\n      dup1\n      0x069ea362\n      eq\n      tag_2\n      jumpi\n      dup1\n      0x32627af9\n      eq\n      tag_3\n      jumpi\n      dup1\n      0x6db2a303\n      eq\n      tag_4\n      jumpi\n    tag_1:\n      0x00\n      dup1\n      revert\n        /* \"Assignment 4 Tokens/final.sol\":375:438  mapping(address => mapping(uint256 =>itemD)) public itemDetails */\n    tag_2:\n      callvalue\n      dup1\n      iszero\n      tag_10\n      jumpi\n      0x00\n      dup1\n      revert\n    tag_10:\n      pop\n      tag_11\n      0x04\n      dup1\n      calldatasize\n      sub\n      dup2\n      add\n      swap1\n      tag_12\n      swap2\n      swap1\n      tag_13\n      jump\t// in\n    tag_12:\n      tag_14\n      jump\t// in\n    tag_11:\n      mload(0x40)\n      tag_15\n      swap7\n      swap6\n      swap5\n      swap4\n      swap3\n      swap2\n      swap1\n      tag_16\n      jump\t// in\n    tag_15:\n      mload(0x40)\n      dup1\n      swap2\n      sub\n      swap1\n      return\n        /* \"Assignment 4 Tokens/final.sol\":659:1185  function CreateItem(uint256 id, string memory _name) public {... */\n    tag_3:\n      callvalue\n      dup1\n      iszero\n      tag_17\n      jumpi\n      0x00\n      dup1\n      revert\n    tag_17:\n      pop\n      tag_18\n      0x04\n      dup1\n      calldatasize\n      sub\n      dup2\n      add\n      swap1\n      tag_19\n      swap2\n      swap1\n      tag_20\n      jump\t// in\n    tag_19:\n      tag_21\n      jump\t// in\n    tag_18:\n      stop\n        /* \"Assignment 4 Tokens/final.sol\":2426:2507  function ownershipTransfer(address payable  _address,uint256 id)public {... */\n    tag_4:\n      callvalue\n      dup1\n      iszero\n      tag_22\n      jumpi\n      0x00\n      dup1\n      revert\n    tag_22:\n      pop\n      tag_23\n      0x04\n      dup1\n      calldatasize\n      sub\n      dup2\n      add\n      swap1\n      tag_24\n      swap2\n      swap1\n      tag_25\n      jump\t// in\n    tag_24:\n      tag_26\n      jump\t// in\n    tag_23:\n      stop\n        /* \"Assignment 4 Tokens/final.sol\":2088:2234  function getWinningBidder(address _address,uint256 id)public view returns(address){... */\n    tag_5:\n      callvalue\n      dup1\n      iszero\n      tag_27\n      jumpi\n      0x00\n      dup1\n      revert\n    tag_27:\n      pop\n      tag_28\n      0x04\n      dup1\n      calldatasize\n      sub\n      dup2\n      add\n      swap1\n      tag_29\n      swap2\n      swap1\n      tag_13\n      jump\t// in\n    tag_29:\n      tag_30\n      jump\t// in\n    tag_28:\n      mload(0x40)\n      tag_31\n      swap2\n      swap1\n      tag_32\n      jump\t// in\n    tag_31:\n      mload(0x40)\n      dup1\n      swap2\n      sub\n      swap1\n      return\n        /* \"Assignment 4 Tokens/final.sol\":1937:2080  function getHighestBid(address _address, uint256 id)public view returns(uint256) {... */\n    tag_6:\n      callvalue\n      dup1\n      iszero\n      tag_33\n      jumpi\n      0x00\n      dup1\n      revert\n    tag_33:\n      pop\n      tag_34\n      0x04\n      dup1\n      calldatasize\n      sub\n      dup2\n      add\n      swap1\n      tag_35\n      swap2\n      swap1\n      tag_13\n      jump\t// in\n    tag_35:\n      tag_36\n      jump\t// in\n    tag_34:\n      mload(0x40)\n      tag_37\n      swap2\n      swap1\n      tag_38\n      jump\t// in\n    tag_37:\n      mload(0x40)\n      dup1\n      swap2\n      sub\n      swap1\n      return\n        /* \"Assignment 4 Tokens/final.sol\":2242:2418  function cancelAuction(address _address,uint256 id)public {... */\n    tag_7:\n      callvalue\n      dup1\n      iszero\n      tag_39\n      jumpi\n      0x00\n      dup1\n      revert\n    tag_39:\n      pop\n      tag_40\n      0x04\n      dup1\n      calldatasize\n      sub\n      dup2\n      add\n      swap1\n      tag_41\n      swap2\n      swap1\n      tag_13\n      jump\t// in\n    tag_41:\n      tag_42\n      jump\t// in\n    tag_40:\n      stop\n        /* \"Assignment 4 Tokens/final.sol\":1193:1929  function placeBid(address _address,uint256 id)public payable  {... */\n    tag_8:\n      tag_43\n      0x04\n      dup1\n      calldatasize\n      sub\n      dup2\n      add\n      swap1\n      tag_44\n      swap2\n      swap1\n      tag_13\n      jump\t// in\n    tag_44:\n      tag_45\n      jump\t// in\n    tag_43:\n      stop\n        /* \"Assignment 4 Tokens/final.sol\":375:438  mapping(address => mapping(uint256 =>itemD)) public itemDetails */\n    tag_14:\n      mstore(0x20, 0x00)\n      dup2\n      0x00\n      mstore\n      mstore(0x20, keccak256(0x00, 0x40))\n      dup1\n      0x00\n      mstore\n      keccak256(0x00, 0x40)\n      0x00\n      swap2\n      pop\n      swap2\n      pop\n      pop\n      dup1\n      0x00\n      add\n      dup1\n      sload\n      tag_46\n      swap1\n      tag_47\n      jump\t// in\n    tag_46:\n      dup1\n      0x1f\n      add\n      0x20\n      dup1\n      swap2\n      div\n      mul\n      0x20\n      add\n      mload(0x40)\n      swap1\n      dup2\n      add\n      0x40\n      mstore\n      dup1\n      swap3\n      swap2\n      swap1\n      dup2\n      dup2\n      mstore\n      0x20\n      add\n      dup3\n      dup1\n      sload\n      tag_48\n      swap1\n      tag_47\n      jump\t// in\n    tag_48:\n      dup1\n      iszero\n      tag_49\n      jumpi\n      dup1\n      0x1f\n      lt\n      tag_50\n      jumpi\n      0x0100\n      dup1\n      dup4\n      sload\n      div\n      mul\n      dup4\n      mstore\n      swap2\n      0x20\n      add\n      swap2\n      jump(tag_49)\n    tag_50:\n      dup3\n      add\n      swap2\n      swap1\n      0x00\n      mstore\n      keccak256(0x00, 0x20)\n      swap1\n    tag_51:\n      dup2\n      sload\n      dup2\n      mstore\n      swap1\n      0x01\n      add\n      swap1\n      0x20\n      add\n      dup1\n      dup4\n      gt\n      tag_51\n      jumpi\n      dup3\n      swap1\n      sub\n      0x1f\n      and\n      dup3\n      add\n      swap2\n    tag_49:\n      pop\n      pop\n      pop\n      pop\n      pop\n      swap1\n      dup1\n      0x01\n      add\n      sload\n      swap1\n      dup1\n      0x02\n      add\n      sload\n      swap1\n      dup1\n      0x03\n      add\n      0x00\n      swap1\n      sload\n      swap1\n      0x0100\n      exp\n      swap1\n      div\n      0xffffffffffffffffffffffffffffffffffffffff\n      and\n      swap1\n      dup1\n      0x04\n      add\n      sload\n      swap1\n      dup1\n      0x05\n      add\n      0x00\n      swap1\n      sload\n      swap1\n      0x0100\n      exp\n      swap1\n      div\n      0xffffffffffffffffffffffffffffffffffffffff\n      and\n      swap1\n      pop\n      dup7\n      jump\t// out\n        /* \"Assignment 4 Tokens/final.sol\":659:1185  function CreateItem(uint256 id, string memory _name) public {... */\n    tag_21:\n        /* \"Assignment 4 Tokens/final.sol\":760:761  0 */\n      0x00\n        /* \"Assignment 4 Tokens/final.sol\":738:762  msg.sender != address(0) */\n      0xffffffffffffffffffffffffffffffffffffffff\n      and\n        /* \"Assignment 4 Tokens/final.sol\":738:748  msg.sender */\n      caller\n        /* \"Assignment 4 Tokens/final.sol\":738:762  msg.sender != address(0) */\n      0xffffffffffffffffffffffffffffffffffffffff\n      and\n      sub\n        /* \"Assignment 4 Tokens/final.sol\":730:776  require(msg.sender != address(0) ,\"Not Valid\") */\n      tag_53\n      jumpi\n      mload(0x40)\n      0x08c379a000000000000000000000000000000000000000000000000000000000\n      dup2\n      mstore\n      0x04\n      add\n      tag_54\n      swap1\n      tag_55\n      jump\t// in\n    tag_54:\n      mload(0x40)\n      dup1\n      swap2\n      sub\n      swap1\n      revert\n    tag_53:\n        /* \"Assignment 4 Tokens/final.sol\":820:825  _name */\n      dup1\n        /* \"Assignment 4 Tokens/final.sol\":787:798  itemDetails */\n      0x00\n        /* \"Assignment 4 Tokens/final.sol\":787:810  itemDetails[msg.sender] */\n      dup1\n        /* \"Assignment 4 Tokens/final.sol\":799:809  msg.sender */\n      caller\n        /* \"Assignment 4 Tokens/final.sol\":787:810  itemDetails[msg.sender] */\n      0xffffffffffffffffffffffffffffffffffffffff\n      and\n      0xffffffffffffffffffffffffffffffffffffffff\n      and\n      dup2\n      mstore\n      0x20\n      add\n      swap1\n      dup2\n      mstore\n      0x20\n      add\n      0x00\n      keccak256\n        /* \"Assignment 4 Tokens/final.sol\":787:814  itemDetails[msg.sender][id] */\n      0x00\n        /* \"Assignment 4 Tokens/final.sol\":811:813  id */\n      dup5\n        /* \"Assignment 4 Tokens/final.sol\":787:814  itemDetails[msg.sender][id] */\n      dup2\n      mstore\n      0x20\n      add\n      swap1\n      dup2\n      mstore\n      0x20\n      add\n      0x00\n      keccak256\n        /* \"Assignment 4 Tokens/final.sol\":787:819  itemDetails[msg.sender][id].name */\n      0x00\n      add\n        /* \"Assignment 4 Tokens/final.sol\":787:825  itemDetails[msg.sender][id].name=_name */\n      swap1\n      dup2\n      tag_56\n      swap2\n      swap1\n      tag_57\n      jump\t// in\n    tag_56:\n      pop\n        /* \"Assignment 4 Tokens/final.sol\":872:873  0 */\n      0x00\n        /* \"Assignment 4 Tokens/final.sol\":836:847  itemDetails */\n      dup1\n        /* \"Assignment 4 Tokens/final.sol\":836:859  itemDetails[msg.sender] */\n      0x00\n        /* \"Assignment 4 Tokens/final.sol\":848:858  msg.sender */\n      caller\n        /* \"Assignment 4 Tokens/final.sol\":836:859  itemDetails[msg.sender] */\n      0xffffffffffffffffffffffffffffffffffffffff\n      and\n      0xffffffffffffffffffffffffffffffffffffffff\n      and\n      dup2\n      mstore\n      0x20\n      add\n      swap1\n      dup2\n      mstore\n      0x20\n      add\n      0x00\n      keccak256\n        /* \"Assignment 4 Tokens/final.sol\":836:863  itemDetails[msg.sender][id] */\n      0x00\n        /* \"Assignment 4 Tokens/final.sol\":860:862  id */\n      dup5\n        /* \"Assignment 4 Tokens/final.sol\":836:863  itemDetails[msg.sender][id] */\n      dup2\n      mstore\n      0x20\n      add\n      swap1\n      dup2\n      mstore\n      0x20\n      add\n      0x00\n      keccak256\n        /* \"Assignment 4 Tokens/final.sol\":836:871  itemDetails[msg.sender][id].lastBid */\n      0x01\n      add\n        /* \"Assignment 4 Tokens/final.sol\":836:873  itemDetails[msg.sender][id].lastBid=0 */\n      dup2\n      swap1\n      sstore\n      pop\n        /* \"Assignment 4 Tokens/final.sol\":923:924  0 */\n      0x00\n        /* \"Assignment 4 Tokens/final.sol\":884:895  itemDetails */\n      dup1\n        /* \"Assignment 4 Tokens/final.sol\":884:907  itemDetails[msg.sender] */\n      0x00\n        /* \"Assignment 4 Tokens/final.sol\":896:906  msg.sender */\n      caller\n        /* \"Assignment 4 Tokens/final.sol\":884:907  itemDetails[msg.sender] */\n      0xffffffffffffffffffffffffffffffffffffffff\n      and\n      0xffffffffffffffffffffffffffffffffffffffff\n      and\n      dup2\n      mstore\n      0x20\n      add\n      swap1\n      dup2\n      mstore\n      0x20\n      add\n      0x00\n      keccak256\n        /* \"Assignment 4 Tokens/final.sol\":884:911  itemDetails[msg.sender][id] */\n      0x00\n        /* \"Assignment 4 Tokens/final.sol\":908:910  id */\n      dup5\n        /* \"Assignment 4 Tokens/final.sol\":884:911  itemDetails[msg.sender][id] */\n      dup2\n      mstore\n      0x20\n      add\n      swap1\n      dup2\n      mstore\n      0x20\n      add\n      0x00\n      keccak256\n        /* \"Assignment 4 Tokens/final.sol\":884:922  itemDetails[msg.sender][id].highestBid */\n      0x02\n      add\n        /* \"Assignment 4 Tokens/final.sol\":884:924  itemDetails[msg.sender][id].highestBid=0 */\n      dup2\n      swap1\n      sstore\n      pop\n        /* \"Assignment 4 Tokens/final.sol\":984:985  0 */\n      0x00\n        /* \"Assignment 4 Tokens/final.sol\":935:946  itemDetails */\n      dup1\n        /* \"Assignment 4 Tokens/final.sol\":935:958  itemDetails[msg.sender] */\n      0x00\n        /* \"Assignment 4 Tokens/final.sol\":947:957  msg.sender */\n      caller\n        /* \"Assignment 4 Tokens/final.sol\":935:958  itemDetails[msg.sender] */\n      0xffffffffffffffffffffffffffffffffffffffff\n      and\n      0xffffffffffffffffffffffffffffffffffffffff\n      and\n      dup2\n      mstore\n      0x20\n      add\n      swap1\n      dup2\n      mstore\n      0x20\n      add\n      0x00\n      keccak256\n        /* \"Assignment 4 Tokens/final.sol\":935:962  itemDetails[msg.sender][id] */\n      0x00\n        /* \"Assignment 4 Tokens/final.sol\":959:961  id */\n      dup5\n        /* \"Assignment 4 Tokens/final.sol\":935:962  itemDetails[msg.sender][id] */\n      dup2\n      mstore\n      0x20\n      add\n      swap1\n      dup2\n      mstore\n      0x20\n      add\n      0x00\n      keccak256\n        /* \"Assignment 4 Tokens/final.sol\":935:975  itemDetails[msg.sender][id].highestBider */\n      0x03\n      add\n      0x00\n        /* \"Assignment 4 Tokens/final.sol\":935:986  itemDetails[msg.sender][id].highestBider=address(0) */\n      0x0100\n      exp\n      dup2\n      sload\n      dup2\n      0xffffffffffffffffffffffffffffffffffffffff\n      mul\n      not\n      and\n      swap1\n      dup4\n      0xffffffffffffffffffffffffffffffffffffffff\n      and\n      mul\n      or\n      swap1\n      sstore\n      pop\n        /* \"Assignment 4 Tokens/final.sol\":1051:1052  0 */\n      0x00\n        /* \"Assignment 4 Tokens/final.sol\":997:1008  itemDetails */\n      dup1\n        /* \"Assignment 4 Tokens/final.sol\":997:1020  itemDetails[msg.sender] */\n      0x00\n        /* \"Assignment 4 Tokens/final.sol\":1009:1019  msg.sender */\n      caller\n        /* \"Assignment 4 Tokens/final.sol\":997:1020  itemDetails[msg.sender] */\n      0xffffffffffffffffffffffffffffffffffffffff\n      and\n      0xffffffffffffffffffffffffffffffffffffffff\n      and\n      dup2\n      mstore\n      0x20\n      add\n      swap1\n      dup2\n      mstore\n      0x20\n      add\n      0x00\n      keccak256\n        /* \"Assignment 4 Tokens/final.sol\":997:1024  itemDetails[msg.sender][id] */\n      0x00\n        /* \"Assignment 4 Tokens/final.sol\":1021:1023  id */\n      dup5\n        /* \"Assignment 4 Tokens/final.sol\":997:1024  itemDetails[msg.sender][id] */\n      dup2\n      mstore\n      0x20\n      add\n      swap1\n      dup2\n      mstore\n      0x20\n      add\n      0x00\n      keccak256\n        /* \"Assignment 4 Tokens/final.sol\":997:1041  itemDetails[msg.sender][id].lastHighestBider */\n      0x05\n      add\n      0x00\n        /* \"Assignment 4 Tokens/final.sol\":997:1053  itemDetails[msg.sender][id].lastHighestBider=address (0) */\n      0x0100\n      exp\n      dup2\n      sload\n      dup2\n      0xffffffffffffffffffffffffffffffffffffffff\n      mul\n      not\n      and\n      swap1\n      dup4\n      0xffffffffffffffffffffffffffffffffffffffff\n      and\n      mul\n      or\n      swap1\n      sstore\n      pop\n        /* \"Assignment 4 Tokens/final.sol\":1123:1127  3600 */\n      0x0e10\n        /* \"Assignment 4 Tokens/final.sol\":1105:1120  block.timestamp */\n      timestamp\n        /* \"Assignment 4 Tokens/final.sol\":1105:1127  block.timestamp + 3600 */\n      tag_58\n      swap2\n      swap1\n      tag_59\n      jump\t// in\n    tag_58:\n        /* \"Assignment 4 Tokens/final.sol\":1064:1075  itemDetails */\n      0x00\n        /* \"Assignment 4 Tokens/final.sol\":1064:1087  itemDetails[msg.sender] */\n      dup1\n        /* \"Assignment 4 Tokens/final.sol\":1076:1086  msg.sender */\n      caller\n        /* \"Assignment 4 Tokens/final.sol\":1064:1087  itemDetails[msg.sender] */\n      0xffffffffffffffffffffffffffffffffffffffff\n      and\n      0xffffffffffffffffffffffffffffffffffffffff\n      and\n      dup2\n      mstore\n      0x20\n      add\n      swap1\n      dup2\n      mstore\n      0x20\n      add\n      0x00\n      keccak256\n        /* \"Assignment 4 Tokens/final.sol\":1064:1091  itemDetails[msg.sender][id] */\n      0x00\n        /* \"Assignment 4 Tokens/final.sol\":1088:1090  id */\n      dup5\n        /* \"Assignment 4 Tokens/final.sol\":1064:1091  itemDetails[msg.sender][id] */\n      dup2\n      mstore\n      0x20\n      add\n      swap1\n      dup2\n      mstore\n      0x20\n      add\n      0x00\n      keccak256\n        /* \"Assignment 4 Tokens/final.sol\":1064:1104  itemDetails[msg.sender][id].auction_time */\n      0x04\n      add\n        /* \"Assignment 4 Tokens/final.sol\":1064:1127  itemDetails[msg.sender][id].auction_time=block.timestamp + 3600 */\n      dup2\n      swap1\n      sstore\n      pop\n        /* \"Assignment 4 Tokens/final.sol\":1143:1177  createItem(msg.sender, id , _name) */\n      0xa7806320b37116843ec008da1594a383d57d02cf004956b72c34754bf6395070\n        /* \"Assignment 4 Tokens/final.sol\":1154:1164  msg.sender */\n      caller\n        /* \"Assignment 4 Tokens/final.sol\":1166:1168  id */\n      dup4\n        /* \"Assignment 4 Tokens/final.sol\":1171:1176  _name */\n      dup4\n        /* \"Assignment 4 Tokens/final.sol\":1143:1177  createItem(msg.sender, id , _name) */\n      mload(0x40)\n      tag_60\n      swap4\n      swap3\n      swap2\n      swap1\n      tag_61\n      jump\t// in\n    tag_60:\n      mload(0x40)\n      dup1\n      swap2\n      sub\n      swap1\n      log1\n        /* \"Assignment 4 Tokens/final.sol\":659:1185  function CreateItem(uint256 id, string memory _name) public {... */\n      pop\n      pop\n      jump\t// out\n        /* \"Assignment 4 Tokens/final.sol\":2426:2507  function ownershipTransfer(address payable  _address,uint256 id)public {... */\n    tag_26:\n      pop\n      pop\n      jump\t// out\n        /* \"Assignment 4 Tokens/final.sol\":2088:2234  function getWinningBidder(address _address,uint256 id)public view returns(address){... */\n    tag_30:\n        /* \"Assignment 4 Tokens/final.sol\":2162:2169  address */\n      0x00\n        /* \"Assignment 4 Tokens/final.sol\":2188:2199  itemDetails */\n      dup1\n        /* \"Assignment 4 Tokens/final.sol\":2188:2209  itemDetails[_address] */\n      0x00\n        /* \"Assignment 4 Tokens/final.sol\":2200:2208  _address */\n      dup5\n        /* \"Assignment 4 Tokens/final.sol\":2188:2209  itemDetails[_address] */\n      0xffffffffffffffffffffffffffffffffffffffff\n      and\n      0xffffffffffffffffffffffffffffffffffffffff\n      and\n      dup2\n      mstore\n      0x20\n      add\n      swap1\n      dup2\n      mstore\n      0x20\n      add\n      0x00\n      keccak256\n        /* \"Assignment 4 Tokens/final.sol\":2188:2213  itemDetails[_address][id] */\n      0x00\n        /* \"Assignment 4 Tokens/final.sol\":2210:2212  id */\n      dup4\n        /* \"Assignment 4 Tokens/final.sol\":2188:2213  itemDetails[_address][id] */\n      dup2\n      mstore\n      0x20\n      add\n      swap1\n      dup2\n      mstore\n      0x20\n      add\n      0x00\n      keccak256\n        /* \"Assignment 4 Tokens/final.sol\":2188:2226  itemDetails[_address][id].highestBider */\n      0x03\n      add\n      0x00\n      swap1\n      sload\n      swap1\n      0x0100\n      exp\n      swap1\n      div\n      0xffffffffffffffffffffffffffffffffffffffff\n      and\n        /* \"Assignment 4 Tokens/final.sol\":2181:2226  return itemDetails[_address][id].highestBider */\n      swap1\n      pop\n        /* \"Assignment 4 Tokens/final.sol\":2088:2234  function getWinningBidder(address _address,uint256 id)public view returns(address){... */\n      swap3\n      swap2\n      pop\n      pop\n      jump\t// out\n        /* \"Assignment 4 Tokens/final.sol\":1937:2080  function getHighestBid(address _address, uint256 id)public view returns(uint256) {... */\n    tag_36:\n        /* \"Assignment 4 Tokens/final.sol\":2009:2016  uint256 */\n      0x00\n        /* \"Assignment 4 Tokens/final.sol\":2036:2047  itemDetails */\n      dup1\n        /* \"Assignment 4 Tokens/final.sol\":2036:2057  itemDetails[_address] */\n      0x00\n        /* \"Assignment 4 Tokens/final.sol\":2048:2056  _address */\n      dup5\n        /* \"Assignment 4 Tokens/final.sol\":2036:2057  itemDetails[_address] */\n      0xffffffffffffffffffffffffffffffffffffffff\n      and\n      0xffffffffffffffffffffffffffffffffffffffff\n      and\n      dup2\n      mstore\n      0x20\n      add\n      swap1\n      dup2\n      mstore\n      0x20\n      add\n      0x00\n      keccak256\n        /* \"Assignment 4 Tokens/final.sol\":2036:2061  itemDetails[_address][id] */\n      0x00\n        /* \"Assignment 4 Tokens/final.sol\":2058:2060  id */\n      dup4\n        /* \"Assignment 4 Tokens/final.sol\":2036:2061  itemDetails[_address][id] */\n      dup2\n      mstore\n      0x20\n      add\n      swap1\n      dup2\n      mstore\n      0x20\n      add\n      0x00\n      keccak256\n        /* \"Assignment 4 Tokens/final.sol\":2036:2072  itemDetails[_address][id].highestBid */\n      0x02\n      add\n      sload\n        /* \"Assignment 4 Tokens/final.sol\":2029:2072  return itemDetails[_address][id].highestBid */\n      swap1\n      pop\n        /* \"Assignment 4 Tokens/final.sol\":1937:2080  function getHighestBid(address _address, uint256 id)public view returns(uint256) {... */\n      swap3\n      swap2\n      pop\n      pop\n      jump\t// out\n        /* \"Assignment 4 Tokens/final.sol\":2242:2418  function cancelAuction(address _address,uint256 id)public {... */\n    tag_42:\n        /* \"Assignment 4 Tokens/final.sol\":2322:2333  itemDetails */\n      0x00\n        /* \"Assignment 4 Tokens/final.sol\":2322:2343  itemDetails[_address] */\n      dup1\n        /* \"Assignment 4 Tokens/final.sol\":2334:2342  _address */\n      dup4\n        /* \"Assignment 4 Tokens/final.sol\":2322:2343  itemDetails[_address] */\n      0xffffffffffffffffffffffffffffffffffffffff\n      and\n      0xffffffffffffffffffffffffffffffffffffffff\n      and\n      dup2\n      mstore\n      0x20\n      add\n      swap1\n      dup2\n      mstore\n      0x20\n      add\n      0x00\n      keccak256\n        /* \"Assignment 4 Tokens/final.sol\":2322:2347  itemDetails[_address][id] */\n      0x00\n        /* \"Assignment 4 Tokens/final.sol\":2344:2346  id */\n      dup3\n        /* \"Assignment 4 Tokens/final.sol\":2322:2347  itemDetails[_address][id] */\n      dup2\n      mstore\n      0x20\n      add\n      swap1\n      dup2\n      mstore\n      0x20\n      add\n      0x00\n      keccak256\n        /* \"Assignment 4 Tokens/final.sol\":2322:2360  itemDetails[_address][id].highestBider */\n      0x03\n      add\n      0x00\n      swap1\n      sload\n      swap1\n      0x0100\n      exp\n      swap1\n      div\n      0xffffffffffffffffffffffffffffffffffffffff\n      and\n        /* \"Assignment 4 Tokens/final.sol\":2313:2370  payable (itemDetails[_address][id].highestBider).transfer */\n      0xffffffffffffffffffffffffffffffffffffffff\n      and\n        /* \"Assignment 4 Tokens/final.sol\":2313:2408  payable (itemDetails[_address][id].highestBider).transfer(itemDetails[_address][id].highestBid) */\n      0x08fc\n        /* \"Assignment 4 Tokens/final.sol\":2371:2382  itemDetails */\n      0x00\n        /* \"Assignment 4 Tokens/final.sol\":2371:2392  itemDetails[_address] */\n      dup1\n        /* \"Assignment 4 Tokens/final.sol\":2383:2391  _address */\n      dup6\n        /* \"Assignment 4 Tokens/final.sol\":2371:2392  itemDetails[_address] */\n      0xffffffffffffffffffffffffffffffffffffffff\n      and\n      0xffffffffffffffffffffffffffffffffffffffff\n      and\n      dup2\n      mstore\n      0x20\n      add\n      swap1\n      dup2\n      mstore\n      0x20\n      add\n      0x00\n      keccak256\n        /* \"Assignment 4 Tokens/final.sol\":2371:2396  itemDetails[_address][id] */\n      0x00\n        /* \"Assignment 4 Tokens/final.sol\":2393:2395  id */\n      dup5\n        /* \"Assignment 4 Tokens/final.sol\":2371:2396  itemDetails[_address][id] */\n      dup2\n      mstore\n      0x20\n      add\n      swap1\n      dup2\n      mstore\n      0x20\n      add\n      0x00\n      keccak256\n        /* \"Assignment 4 Tokens/final.sol\":2371:2407  itemDetails[_address][id].highestBid */\n      0x02\n      add\n      sload\n        /* \"Assignment 4 Tokens/final.sol\":2313:2408  payable (itemDetails[_address][id].highestBider).transfer(itemDetails[_address][id].highestBid) */\n      swap1\n      dup2\n      iszero\n      mul\n      swap1\n      mload(0x40)\n      0x00\n      mload(0x40)\n      dup1\n      dup4\n      sub\n      dup2\n      dup6\n      dup9\n      dup9\n      call\n      swap4\n      pop\n      pop\n      pop\n      pop\n      iszero\n      dup1\n      iszero\n      tag_67\n      jumpi\n      returndatasize\n      0x00\n      dup1\n      returndatacopy\n      revert(0x00, returndatasize)\n    tag_67:\n      pop\n        /* \"Assignment 4 Tokens/final.sol\":2242:2418  function cancelAuction(address _address,uint256 id)public {... */\n      pop\n      pop\n      jump\t// out\n        /* \"Assignment 4 Tokens/final.sol\":1193:1929  function placeBid(address _address,uint256 id)public payable  {... */\n    tag_45:\n        /* \"Assignment 4 Tokens/final.sol\":1286:1296  msg.sender */\n      caller\n        /* \"Assignment 4 Tokens/final.sol\":1274:1296  _address != msg.sender */\n      0xffffffffffffffffffffffffffffffffffffffff\n      and\n        /* \"Assignment 4 Tokens/final.sol\":1274:1282  _address */\n      dup3\n        /* \"Assignment 4 Tokens/final.sol\":1274:1296  _address != msg.sender */\n      0xffffffffffffffffffffffffffffffffffffffff\n      and\n      sub\n        /* \"Assignment 4 Tokens/final.sol\":1266:1316  require(_address != msg.sender,\" owner can't bid\") */\n      tag_69\n      jumpi\n      mload(0x40)\n      0x08c379a000000000000000000000000000000000000000000000000000000000\n      dup2\n      mstore\n      0x04\n      add\n      tag_70\n      swap1\n      tag_71\n      jump\t// in\n    tag_70:\n      mload(0x40)\n      dup1\n      swap2\n      sub\n      swap1\n      revert\n    tag_69:\n        /* \"Assignment 4 Tokens/final.sol\":1376:1377  0 */\n      0x00\n        /* \"Assignment 4 Tokens/final.sol\":1335:1346  itemDetails */\n      dup1\n        /* \"Assignment 4 Tokens/final.sol\":1335:1356  itemDetails[_address] */\n      0x00\n        /* \"Assignment 4 Tokens/final.sol\":1347:1355  _address */\n      dup5\n        /* \"Assignment 4 Tokens/final.sol\":1335:1356  itemDetails[_address] */\n      0xffffffffffffffffffffffffffffffffffffffff\n      and\n      0xffffffffffffffffffffffffffffffffffffffff\n      and\n      dup2\n      mstore\n      0x20\n      add\n      swap1\n      dup2\n      mstore\n      0x20\n      add\n      0x00\n      keccak256\n        /* \"Assignment 4 Tokens/final.sol\":1335:1360  itemDetails[_address][id] */\n      0x00\n        /* \"Assignment 4 Tokens/final.sol\":1357:1359  id */\n      dup4\n        /* \"Assignment 4 Tokens/final.sol\":1335:1360  itemDetails[_address][id] */\n      dup2\n      mstore\n      0x20\n      add\n      swap1\n      dup2\n      mstore\n      0x20\n      add\n      0x00\n      keccak256\n        /* \"Assignment 4 Tokens/final.sol\":1335:1373  itemDetails[_address][id].auction_time */\n      0x04\n      add\n      sload\n        /* \"Assignment 4 Tokens/final.sol\":1335:1377  itemDetails[_address][id].auction_time > 0 */\n      gt\n        /* \"Assignment 4 Tokens/final.sol\":1327:1407  require(itemDetails[_address][id].auction_time > 0,\" Nothing to Place the Bid \") */\n      tag_72\n      jumpi\n      mload(0x40)\n      0x08c379a000000000000000000000000000000000000000000000000000000000\n      dup2\n      mstore\n      0x04\n      add\n      tag_73\n      swap1\n      tag_74\n      jump\t// in\n    tag_73:\n      mload(0x40)\n      dup1\n      swap2\n      sub\n      swap1\n      revert\n    tag_72:\n        /* \"Assignment 4 Tokens/final.sol\":1438:1449  itemDetails */\n      0x00\n        /* \"Assignment 4 Tokens/final.sol\":1438:1459  itemDetails[_address] */\n      dup1\n        /* \"Assignment 4 Tokens/final.sol\":1450:1458  _address */\n      dup4\n        /* \"Assignment 4 Tokens/final.sol\":1438:1459  itemDetails[_address] */\n      0xffffffffffffffffffffffffffffffffffffffff\n      and\n      0xffffffffffffffffffffffffffffffffffffffff\n      and\n      dup2\n      mstore\n      0x20\n      add\n      swap1\n      dup2\n      mstore\n      0x20\n      add\n      0x00\n      keccak256\n        /* \"Assignment 4 Tokens/final.sol\":1438:1463  itemDetails[_address][id] */\n      0x00\n        /* \"Assignment 4 Tokens/final.sol\":1460:1462  id */\n      dup3\n        /* \"Assignment 4 Tokens/final.sol\":1438:1463  itemDetails[_address][id] */\n      dup2\n      mstore\n      0x20\n      add\n      swap1\n      dup2\n      mstore\n      0x20\n      add\n      0x00\n      keccak256\n        /* \"Assignment 4 Tokens/final.sol\":1438:1474  itemDetails[_address][id].highestBid */\n      0x02\n      add\n      sload\n        /* \"Assignment 4 Tokens/final.sol\":1426:1435  msg.value */\n      callvalue\n        /* \"Assignment 4 Tokens/final.sol\":1426:1474  msg.value > itemDetails[_address][id].highestBid */\n      gt\n        /* \"Assignment 4 Tokens/final.sol\":1418:1509  require(msg.value > itemDetails[_address][id].highestBid,\" Increase the amount by 1 ether\") */\n      tag_75\n      jumpi\n      mload(0x40)\n      0x08c379a000000000000000000000000000000000000000000000000000000000\n      dup2\n      mstore\n      0x04\n      add\n      tag_76\n      swap1\n      tag_77\n      jump\t// in\n    tag_76:\n      mload(0x40)\n      dup1\n      swap2\n      sub\n      swap1\n      revert\n    tag_75:\n        /* \"Assignment 4 Tokens/final.sol\":1554:1563  msg.value */\n      callvalue\n        /* \"Assignment 4 Tokens/final.sol\":1520:1531  itemDetails */\n      0x00\n        /* \"Assignment 4 Tokens/final.sol\":1520:1541  itemDetails[_address] */\n      dup1\n        /* \"Assignment 4 Tokens/final.sol\":1532:1540  _address */\n      dup5\n        /* \"Assignment 4 Tokens/final.sol\":1520:1541  itemDetails[_address] */\n      0xffffffffffffffffffffffffffffffffffffffff\n      and\n      0xffffffffffffffffffffffffffffffffffffffff\n      and\n      dup2\n      mstore\n      0x20\n      add\n      swap1\n      dup2\n      mstore\n      0x20\n      add\n      0x00\n      keccak256\n        /* \"Assignment 4 Tokens/final.sol\":1520:1545  itemDetails[_address][id] */\n      0x00\n        /* \"Assignment 4 Tokens/final.sol\":1542:1544  id */\n      dup4\n        /* \"Assignment 4 Tokens/final.sol\":1520:1545  itemDetails[_address][id] */\n      dup2\n      mstore\n      0x20\n      add\n      swap1\n      dup2\n      mstore\n      0x20\n      add\n      0x00\n      keccak256\n        /* \"Assignment 4 Tokens/final.sol\":1520:1553  itemDetails[_address][id].lastBid */\n      0x01\n      add\n        /* \"Assignment 4 Tokens/final.sol\":1520:1563  itemDetails[_address][id].lastBid=msg.value */\n      dup2\n      swap1\n      sstore\n      pop\n        /* \"Assignment 4 Tokens/final.sol\":1611:1622  itemDetails */\n      0x00\n        /* \"Assignment 4 Tokens/final.sol\":1611:1632  itemDetails[_address] */\n      dup1\n        /* \"Assignment 4 Tokens/final.sol\":1623:1631  _address */\n      dup4\n        /* \"Assignment 4 Tokens/final.sol\":1611:1632  itemDetails[_address] */\n      0xffffffffffffffffffffffffffffffffffffffff\n      and\n      0xffffffffffffffffffffffffffffffffffffffff\n      and\n      dup2\n      mstore\n      0x20\n      add\n      swap1\n      dup2\n      mstore\n      0x20\n      add\n      0x00\n      keccak256\n        /* \"Assignment 4 Tokens/final.sol\":1611:1636  itemDetails[_address][id] */\n      0x00\n        /* \"Assignment 4 Tokens/final.sol\":1633:1635  id */\n      dup3\n        /* \"Assignment 4 Tokens/final.sol\":1611:1636  itemDetails[_address][id] */\n      dup2\n      mstore\n      0x20\n      add\n      swap1\n      dup2\n      mstore\n      0x20\n      add\n      0x00\n      keccak256\n        /* \"Assignment 4 Tokens/final.sol\":1611:1644  itemDetails[_address][id].lastBid */\n      0x01\n      add\n      sload\n        /* \"Assignment 4 Tokens/final.sol\":1574:1585  itemDetails */\n      0x00\n        /* \"Assignment 4 Tokens/final.sol\":1574:1595  itemDetails[_address] */\n      dup1\n        /* \"Assignment 4 Tokens/final.sol\":1586:1594  _address */\n      dup5\n        /* \"Assignment 4 Tokens/final.sol\":1574:1595  itemDetails[_address] */\n      0xffffffffffffffffffffffffffffffffffffffff\n      and\n      0xffffffffffffffffffffffffffffffffffffffff\n      and\n      dup2\n      mstore\n      0x20\n      add\n      swap1\n      dup2\n      mstore\n      0x20\n      add\n      0x00\n      keccak256\n        /* \"Assignment 4 Tokens/final.sol\":1574:1599  itemDetails[_address][id] */\n      0x00\n        /* \"Assignment 4 Tokens/final.sol\":1596:1598  id */\n      dup4\n        /* \"Assignment 4 Tokens/final.sol\":1574:1599  itemDetails[_address][id] */\n      dup2\n      mstore\n      0x20\n      add\n      swap1\n      dup2\n      mstore\n      0x20\n      add\n      0x00\n      keccak256\n        /* \"Assignment 4 Tokens/final.sol\":1574:1610  itemDetails[_address][id].highestBid */\n      0x02\n      add\n        /* \"Assignment 4 Tokens/final.sol\":1574:1644  itemDetails[_address][id].highestBid=itemDetails[_address][id].lastBid */\n      dup2\n      swap1\n      sstore\n      pop\n        /* \"Assignment 4 Tokens/final.sol\":1698:1708  msg.sender */\n      caller\n        /* \"Assignment 4 Tokens/final.sol\":1655:1666  itemDetails */\n      0x00\n        /* \"Assignment 4 Tokens/final.sol\":1655:1676  itemDetails[_address] */\n      dup1\n        /* \"Assignment 4 Tokens/final.sol\":1667:1675  _address */\n      dup5\n        /* \"Assignment 4 Tokens/final.sol\":1655:1676  itemDetails[_address] */\n      0xffffffffffffffffffffffffffffffffffffffff\n      and\n      0xffffffffffffffffffffffffffffffffffffffff\n      and\n      dup2\n      mstore\n      0x20\n      add\n      swap1\n      dup2\n      mstore\n      0x20\n      add\n      0x00\n      keccak256\n        /* \"Assignment 4 Tokens/final.sol\":1655:1680  itemDetails[_address][id] */\n      0x00\n        /* \"Assignment 4 Tokens/final.sol\":1677:1679  id */\n      dup4\n        /* \"Assignment 4 Tokens/final.sol\":1655:1680  itemDetails[_address][id] */\n      dup2\n      mstore\n      0x20\n      add\n      swap1\n      dup2\n      mstore\n      0x20\n      add\n      0x00\n      keccak256\n        /* \"Assignment 4 Tokens/final.sol\":1655:1697  itemDetails[_address][id].lastHighestBider */\n      0x05\n      add\n      0x00\n        /* \"Assignment 4 Tokens/final.sol\":1655:1708  itemDetails[_address][id].lastHighestBider=msg.sender */\n      0x0100\n      exp\n      dup2\n      sload\n      dup2\n      0xffffffffffffffffffffffffffffffffffffffff\n      mul\n      not\n      and\n      swap1\n      dup4\n      0xffffffffffffffffffffffffffffffffffffffff\n      and\n      mul\n      or\n      swap1\n      sstore\n      pop\n        /* \"Assignment 4 Tokens/final.sol\":1758:1768  msg.sender */\n      caller\n        /* \"Assignment 4 Tokens/final.sol\":1719:1730  itemDetails */\n      0x00\n        /* \"Assignment 4 Tokens/final.sol\":1719:1740  itemDetails[_address] */\n      dup1\n        /* \"Assignment 4 Tokens/final.sol\":1731:1739  _address */\n      dup5\n        /* \"Assignment 4 Tokens/final.sol\":1719:1740  itemDetails[_address] */\n      0xffffffffffffffffffffffffffffffffffffffff\n      and\n      0xffffffffffffffffffffffffffffffffffffffff\n      and\n      dup2\n      mstore\n      0x20\n      add\n      swap1\n      dup2\n      mstore\n      0x20\n      add\n      0x00\n      keccak256\n        /* \"Assignment 4 Tokens/final.sol\":1719:1744  itemDetails[_address][id] */\n      0x00\n        /* \"Assignment 4 Tokens/final.sol\":1741:1743  id */\n      dup4\n        /* \"Assignment 4 Tokens/final.sol\":1719:1744  itemDetails[_address][id] */\n      dup2\n      mstore\n      0x20\n      add\n      swap1\n      dup2\n      mstore\n      0x20\n      add\n      0x00\n      keccak256\n        /* \"Assignment 4 Tokens/final.sol\":1719:1757  itemDetails[_address][id].highestBider */\n      0x03\n      add\n      0x00\n        /* \"Assignment 4 Tokens/final.sol\":1719:1768  itemDetails[_address][id].highestBider=msg.sender */\n      0x0100\n      exp\n      dup2\n      sload\n      dup2\n      0xffffffffffffffffffffffffffffffffffffffff\n      mul\n      not\n      and\n      swap1\n      dup4\n      0xffffffffffffffffffffffffffffffffffffffff\n      and\n      mul\n      or\n      swap1\n      sstore\n      pop\n        /* \"Assignment 4 Tokens/final.sol\":1787:1798  itemDetails */\n      0x00\n        /* \"Assignment 4 Tokens/final.sol\":1787:1808  itemDetails[_address] */\n      dup1\n        /* \"Assignment 4 Tokens/final.sol\":1799:1807  _address */\n      dup4\n        /* \"Assignment 4 Tokens/final.sol\":1787:1808  itemDetails[_address] */\n      0xffffffffffffffffffffffffffffffffffffffff\n      and\n      0xffffffffffffffffffffffffffffffffffffffff\n      and\n      dup2\n      mstore\n      0x20\n      add\n      swap1\n      dup2\n      mstore\n      0x20\n      add\n      0x00\n      keccak256\n        /* \"Assignment 4 Tokens/final.sol\":1787:1812  itemDetails[_address][id] */\n      0x00\n        /* \"Assignment 4 Tokens/final.sol\":1809:1811  id */\n      dup3\n        /* \"Assignment 4 Tokens/final.sol\":1787:1812  itemDetails[_address][id] */\n      dup2\n      mstore\n      0x20\n      add\n      swap1\n      dup2\n      mstore\n      0x20\n      add\n      0x00\n      keccak256\n        /* \"Assignment 4 Tokens/final.sol\":1787:1829  itemDetails[_address][id].lastHighestBider */\n      0x05\n      add\n      0x00\n      swap1\n      sload\n      swap1\n      0x0100\n      exp\n      swap1\n      div\n      0xffffffffffffffffffffffffffffffffffffffff\n      and\n        /* \"Assignment 4 Tokens/final.sol\":1779:1839  payable(itemDetails[_address][id].lastHighestBider).transfer */\n      0xffffffffffffffffffffffffffffffffffffffff\n      and\n        /* \"Assignment 4 Tokens/final.sol\":1779:1877  payable(itemDetails[_address][id].lastHighestBider).transfer(itemDetails[_address][id].highestBid) */\n      0x08fc\n        /* \"Assignment 4 Tokens/final.sol\":1840:1851  itemDetails */\n      0x00\n        /* \"Assignment 4 Tokens/final.sol\":1840:1861  itemDetails[_address] */\n      dup1\n        /* \"Assignment 4 Tokens/final.sol\":1852:1860  _address */\n      dup6\n        /* \"Assignment 4 Tokens/final.sol\":1840:1861  itemDetails[_address] */\n      0xffffffffffffffffffffffffffffffffffffffff\n      and\n      0xffffffffffffffffffffffffffffffffffffffff\n      and\n      dup2\n      mstore\n      0x20\n      add\n      swap1\n      dup2\n      mstore\n      0x20\n      add\n      0x00\n      keccak256\n        /* \"Assignment 4 Tokens/final.sol\":1840:1865  itemDetails[_address][id] */\n      0x00\n        /* \"Assignment 4 Tokens/final.sol\":1862:1864  id */\n      dup5\n        /* \"Assignment 4 Tokens/final.sol\":1840:1865  itemDetails[_address][id] */\n      dup2\n      mstore\n      0x20\n      add\n      swap1\n      dup2\n      mstore\n      0x20\n      add\n      0x00\n      keccak256\n        /* \"Assignment 4 Tokens/final.sol\":1840:1876  itemDetails[_address][id].highestBid */\n      0x02\n      add\n      sload\n        /* \"Assignment 4 Tokens/final.sol\":1779:1877  payable(itemDetails[_address][id].lastHighestBider).transfer(itemDetails[_address][id].highestBid) */\n      swap1\n      dup2\n      iszero\n      mul\n      swap1\n      mload(0x40)\n      0x00\n      mload(0x40)\n      dup1\n      dup4\n      sub\n      dup2\n      dup6\n      dup9\n      dup9\n      call\n      swap4\n      pop\n      pop\n      pop\n      pop\n      iszero\n      dup1\n      iszero\n      tag_79\n      jumpi\n      returndatasize\n      0x00\n      dup1\n      returndatacopy\n      revert(0x00, returndatasize)\n    tag_79:\n      pop\n        /* \"Assignment 4 Tokens/final.sol\":1893:1919  Bid(msg.sender, msg.value) */\n      0xe684a55f31b79eca403df938249029212a5925ec6be8012e099b45bc1019e5d2\n        /* \"Assignment 4 Tokens/final.sol\":1897:1907  msg.sender */\n      caller\n        /* \"Assignment 4 Tokens/final.sol\":1909:1918  msg.value */\n      callvalue\n        /* \"Assignment 4 Tokens/final.sol\":1893:1919  Bid(msg.sender, msg.value) */\n      mload(0x40)\n      tag_80\n      swap3\n      swap2\n      swap1\n      tag_81\n      jump\t// in\n    tag_80:\n      mload(0x40)\n      dup1\n      swap2\n      sub\n      swap1\n      log1\n        /* \"Assignment 4 Tokens/final.sol\":1193:1929  function placeBid(address _address,uint256 id)public payable  {... */\n      pop\n      pop\n      jump\t// out\n        /* \"#utility.yul\":7:82   */\n    tag_82:\n        /* \"#utility.yul\":40:46   */\n      0x00\n        /* \"#utility.yul\":73:75   */\n      0x40\n        /* \"#utility.yul\":67:76   */\n      mload\n        /* \"#utility.yul\":57:76   */\n      swap1\n      pop\n        /* \"#utility.yul\":7:82   */\n      swap1\n      jump\t// out\n        /* \"#utility.yul\":88:205   */\n    tag_83:\n        /* \"#utility.yul\":197:198   */\n      0x00\n        /* \"#utility.yul\":194:195   */\n      dup1\n        /* \"#utility.yul\":187:199   */\n      revert\n        /* \"#utility.yul\":211:328   */\n    tag_84:\n        /* \"#utility.yul\":320:321   */\n      0x00\n        /* \"#utility.yul\":317:318   */\n      dup1\n        /* \"#utility.yul\":310:322   */\n      revert\n        /* \"#utility.yul\":334:460   */\n    tag_85:\n        /* \"#utility.yul\":371:378   */\n      0x00\n        /* \"#utility.yul\":411:453   */\n      0xffffffffffffffffffffffffffffffffffffffff\n        /* \"#utility.yul\":404:409   */\n      dup3\n        /* \"#utility.yul\":400:454   */\n      and\n        /* \"#utility.yul\":389:454   */\n      swap1\n      pop\n        /* \"#utility.yul\":334:460   */\n      swap2\n      swap1\n      pop\n      jump\t// out\n        /* \"#utility.yul\":466:562   */\n    tag_86:\n        /* \"#utility.yul\":503:510   */\n      0x00\n        /* \"#utility.yul\":532:556   */\n      tag_142\n        /* \"#utility.yul\":550:555   */\n      dup3\n        /* \"#utility.yul\":532:556   */\n      tag_85\n      jump\t// in\n    tag_142:\n        /* \"#utility.yul\":521:556   */\n      swap1\n      pop\n        /* \"#utility.yul\":466:562   */\n      swap2\n      swap1\n      pop\n      jump\t// out\n        /* \"#utility.yul\":568:690   */\n    tag_87:\n        /* \"#utility.yul\":641:665   */\n      tag_144\n        /* \"#utility.yul\":659:664   */\n      dup2\n        /* \"#utility.yul\":641:665   */\n      tag_86\n      jump\t// in\n    tag_144:\n        /* \"#utility.yul\":634:639   */\n      dup2\n        /* \"#utility.yul\":631:666   */\n      eq\n        /* \"#utility.yul\":621:684   */\n      tag_145\n      jumpi\n        /* \"#utility.yul\":680:681   */\n      0x00\n        /* \"#utility.yul\":677:678   */\n      dup1\n        /* \"#utility.yul\":670:682   */\n      revert\n        /* \"#utility.yul\":621:684   */\n    tag_145:\n        /* \"#utility.yul\":568:690   */\n      pop\n      jump\t// out\n        /* \"#utility.yul\":696:835   */\n    tag_88:\n        /* \"#utility.yul\":742:747   */\n      0x00\n        /* \"#utility.yul\":780:786   */\n      dup2\n        /* \"#utility.yul\":767:787   */\n      calldataload\n        /* \"#utility.yul\":758:787   */\n      swap1\n      pop\n        /* \"#utility.yul\":796:829   */\n      tag_147\n        /* \"#utility.yul\":823:828   */\n      dup2\n        /* \"#utility.yul\":796:829   */\n      tag_87\n      jump\t// in\n    tag_147:\n        /* \"#utility.yul\":696:835   */\n      swap3\n      swap2\n      pop\n      pop\n      jump\t// out\n        /* \"#utility.yul\":841:918   */\n    tag_89:\n        /* \"#utility.yul\":878:885   */\n      0x00\n        /* \"#utility.yul\":907:912   */\n      dup2\n        /* \"#utility.yul\":896:912   */\n      swap1\n      pop\n        /* \"#utility.yul\":841:918   */\n      swap2\n      swap1\n      pop\n      jump\t// out\n        /* \"#utility.yul\":924:1046   */\n    tag_90:\n        /* \"#utility.yul\":997:1021   */\n      tag_150\n        /* \"#utility.yul\":1015:1020   */\n      dup2\n        /* \"#utility.yul\":997:1021   */\n      tag_89\n      jump\t// in\n    tag_150:\n        /* \"#utility.yul\":990:995   */\n      dup2\n        /* \"#utility.yul\":987:1022   */\n      eq\n        /* \"#utility.yul\":977:1040   */\n      tag_151\n      jumpi\n        /* \"#utility.yul\":1036:1037   */\n      0x00\n        /* \"#utility.yul\":1033:1034   */\n      dup1\n        /* \"#utility.yul\":1026:1038   */\n      revert\n        /* \"#utility.yul\":977:1040   */\n    tag_151:\n        /* \"#utility.yul\":924:1046   */\n      pop\n      jump\t// out\n        /* \"#utility.yul\":1052:1191   */\n    tag_91:\n        /* \"#utility.yul\":1098:1103   */\n      0x00\n        /* \"#utility.yul\":1136:1142   */\n      dup2\n        /* \"#utility.yul\":1123:1143   */\n      calldataload\n        /* \"#utility.yul\":1114:1143   */\n      swap1\n      pop\n        /* \"#utility.yul\":1152:1185   */\n      tag_153\n        /* \"#utility.yul\":1179:1184   */\n      dup2\n        /* \"#utility.yul\":1152:1185   */\n      tag_90\n      jump\t// in\n    tag_153:\n        /* \"#utility.yul\":1052:1191   */\n      swap3\n      swap2\n      pop\n      pop\n      jump\t// out\n        /* \"#utility.yul\":1197:1671   */\n    tag_13:\n        /* \"#utility.yul\":1265:1271   */\n      0x00\n        /* \"#utility.yul\":1273:1279   */\n      dup1\n        /* \"#utility.yul\":1322:1324   */\n      0x40\n        /* \"#utility.yul\":1310:1319   */\n      dup4\n        /* \"#utility.yul\":1301:1308   */\n      dup6\n        /* \"#utility.yul\":1297:1320   */\n      sub\n        /* \"#utility.yul\":1293:1325   */\n      slt\n        /* \"#utility.yul\":1290:1409   */\n      iszero\n      tag_155\n      jumpi\n        /* \"#utility.yul\":1328:1407   */\n      tag_156\n      tag_83\n      jump\t// in\n    tag_156:\n        /* \"#utility.yul\":1290:1409   */\n    tag_155:\n        /* \"#utility.yul\":1448:1449   */\n      0x00\n        /* \"#utility.yul\":1473:1526   */\n      tag_157\n        /* \"#utility.yul\":1518:1525   */\n      dup6\n        /* \"#utility.yul\":1509:1515   */\n      dup3\n        /* \"#utility.yul\":1498:1507   */\n      dup7\n        /* \"#utility.yul\":1494:1516   */\n      add\n        /* \"#utility.yul\":1473:1526   */\n      tag_88\n      jump\t// in\n    tag_157:\n        /* \"#utility.yul\":1463:1526   */\n      swap3\n      pop\n        /* \"#utility.yul\":1419:1536   */\n      pop\n        /* \"#utility.yul\":1575:1577   */\n      0x20\n        /* \"#utility.yul\":1601:1654   */\n      tag_158\n        /* \"#utility.yul\":1646:1653   */\n      dup6\n        /* \"#utility.yul\":1637:1643   */\n      dup3\n        /* \"#utility.yul\":1626:1635   */\n      dup7\n        /* \"#utility.yul\":1622:1644   */\n      add\n        /* \"#utility.yul\":1601:1654   */\n      tag_91\n      jump\t// in\n    tag_158:\n        /* \"#utility.yul\":1591:1654   */\n      swap2\n      pop\n        /* \"#utility.yul\":1546:1664   */\n      pop\n        /* \"#utility.yul\":1197:1671   */\n      swap3\n      pop\n      swap3\n      swap1\n      pop\n      jump\t// out\n        /* \"#utility.yul\":1677:1776   */\n    tag_92:\n        /* \"#utility.yul\":1729:1735   */\n      0x00\n        /* \"#utility.yul\":1763:1768   */\n      dup2\n        /* \"#utility.yul\":1757:1769   */\n      mload\n        /* \"#utility.yul\":1747:1769   */\n      swap1\n      pop\n        /* \"#utility.yul\":1677:1776   */\n      swap2\n      swap1\n      pop\n      jump\t// out\n        /* \"#utility.yul\":1782:1951   */\n    tag_93:\n        /* \"#utility.yul\":1866:1877   */\n      0x00\n        /* \"#utility.yul\":1900:1906   */\n      dup3\n        /* \"#utility.yul\":1895:1898   */\n      dup3\n        /* \"#utility.yul\":1888:1907   */\n      mstore\n        /* \"#utility.yul\":1940:1944   */\n      0x20\n        /* \"#utility.yul\":1935:1938   */\n      dup3\n        /* \"#utility.yul\":1931:1945   */\n      add\n        /* \"#utility.yul\":1916:1945   */\n      swap1\n      pop\n        /* \"#utility.yul\":1782:1951   */\n      swap3\n      swap2\n      pop\n      pop\n      jump\t// out\n        /* \"#utility.yul\":1957:2203   */\n    tag_94:\n        /* \"#utility.yul\":2038:2039   */\n      0x00\n        /* \"#utility.yul\":2048:2161   */\n    tag_162:\n        /* \"#utility.yul\":2062:2068   */\n      dup4\n        /* \"#utility.yul\":2059:2060   */\n      dup2\n        /* \"#utility.yul\":2056:2069   */\n      lt\n        /* \"#utility.yul\":2048:2161   */\n      iszero\n      tag_164\n      jumpi\n        /* \"#utility.yul\":2147:2148   */\n      dup1\n        /* \"#utility.yul\":2142:2145   */\n      dup3\n        /* \"#utility.yul\":2138:2149   */\n      add\n        /* \"#utility.yul\":2132:2150   */\n      mload\n        /* \"#utility.yul\":2128:2129   */\n      dup2\n        /* \"#utility.yul\":2123:2126   */\n      dup5\n        /* \"#utility.yul\":2119:2130   */\n      add\n        /* \"#utility.yul\":2112:2151   */\n      mstore\n        /* \"#utility.yul\":2084:2086   */\n      0x20\n        /* \"#utility.yul\":2081:2082   */\n      dup2\n        /* \"#utility.yul\":2077:2087   */\n      add\n        /* \"#utility.yul\":2072:2087   */\n      swap1\n      pop\n        /* \"#utility.yul\":2048:2161   */\n      jump(tag_162)\n    tag_164:\n        /* \"#utility.yul\":2195:2196   */\n      0x00\n        /* \"#utility.yul\":2186:2192   */\n      dup5\n        /* \"#utility.yul\":2181:2184   */\n      dup5\n        /* \"#utility.yul\":2177:2193   */\n      add\n        /* \"#utility.yul\":2170:2197   */\n      mstore\n        /* \"#utility.yul\":2019:2203   */\n      pop\n        /* \"#utility.yul\":1957:2203   */\n      pop\n      pop\n      pop\n      jump\t// out\n        /* \"#utility.yul\":2209:2311   */\n    tag_95:\n        /* \"#utility.yul\":2250:2256   */\n      0x00\n        /* \"#utility.yul\":2301:2303   */\n      0x1f\n        /* \"#utility.yul\":2297:2304   */\n      not\n        /* \"#utility.yul\":2292:2294   */\n      0x1f\n        /* \"#utility.yul\":2285:2290   */\n      dup4\n        /* \"#utility.yul\":2281:2295   */\n      add\n        /* \"#utility.yul\":2277:2305   */\n      and\n        /* \"#utility.yul\":2267:2305   */\n      swap1\n      pop\n        /* \"#utility.yul\":2209:2311   */\n      swap2\n      swap1\n      pop\n      jump\t// out\n        /* \"#utility.yul\":2317:2694   */\n    tag_96:\n        /* \"#utility.yul\":2405:2408   */\n      0x00\n        /* \"#utility.yul\":2433:2472   */\n      tag_167\n        /* \"#utility.yul\":2466:2471   */\n      dup3\n        /* \"#utility.yul\":2433:2472   */\n      tag_92\n      jump\t// in\n    tag_167:\n        /* \"#utility.yul\":2488:2559   */\n      tag_168\n        /* \"#utility.yul\":2552:2558   */\n      dup2\n        /* \"#utility.yul\":2547:2550   */\n      dup6\n        /* \"#utility.yul\":2488:2559   */\n      tag_93\n      jump\t// in\n    tag_168:\n        /* \"#utility.yul\":2481:2559   */\n      swap4\n      pop\n        /* \"#utility.yul\":2568:2633   */\n      tag_169\n        /* \"#utility.yul\":2626:2632   */\n      dup2\n        /* \"#utility.yul\":2621:2624   */\n      dup6\n        /* \"#utility.yul\":2614:2618   */\n      0x20\n        /* \"#utility.yul\":2607:2612   */\n      dup7\n        /* \"#utility.yul\":2603:2619   */\n      add\n        /* \"#utility.yul\":2568:2633   */\n      tag_94\n      jump\t// in\n    tag_169:\n        /* \"#utility.yul\":2658:2687   */\n      tag_170\n        /* \"#utility.yul\":2680:2686   */\n      dup2\n        /* \"#utility.yul\":2658:2687   */\n      tag_95\n      jump\t// in\n    tag_170:\n        /* \"#utility.yul\":2653:2656   */\n      dup5\n        /* \"#utility.yul\":2649:2688   */\n      add\n        /* \"#utility.yul\":2642:2688   */\n      swap2\n      pop\n        /* \"#utility.yul\":2409:2694   */\n      pop\n        /* \"#utility.yul\":2317:2694   */\n      swap3\n      swap2\n      pop\n      pop\n      jump\t// out\n        /* \"#utility.yul\":2700:2818   */\n    tag_97:\n        /* \"#utility.yul\":2787:2811   */\n      tag_172\n        /* \"#utility.yul\":2805:2810   */\n      dup2\n        /* \"#utility.yul\":2787:2811   */\n      tag_89\n      jump\t// in\n    tag_172:\n        /* \"#utility.yul\":2782:2785   */\n      dup3\n        /* \"#utility.yul\":2775:2812   */\n      mstore\n        /* \"#utility.yul\":2700:2818   */\n      pop\n      pop\n      jump\t// out\n        /* \"#utility.yul\":2824:2942   */\n    tag_98:\n        /* \"#utility.yul\":2911:2935   */\n      tag_174\n        /* \"#utility.yul\":2929:2934   */\n      dup2\n        /* \"#utility.yul\":2911:2935   */\n      tag_86\n      jump\t// in\n    tag_174:\n        /* \"#utility.yul\":2906:2909   */\n      dup3\n        /* \"#utility.yul\":2899:2936   */\n      mstore\n        /* \"#utility.yul\":2824:2942   */\n      pop\n      pop\n      jump\t// out\n        /* \"#utility.yul\":2948:3814   */\n    tag_16:\n        /* \"#utility.yul\":3201:3205   */\n      0x00\n        /* \"#utility.yul\":3239:3242   */\n      0xc0\n        /* \"#utility.yul\":3228:3237   */\n      dup3\n        /* \"#utility.yul\":3224:3243   */\n      add\n        /* \"#utility.yul\":3216:3243   */\n      swap1\n      pop\n        /* \"#utility.yul\":3289:3298   */\n      dup2\n        /* \"#utility.yul\":3283:3287   */\n      dup2\n        /* \"#utility.yul\":3279:3299   */\n      sub\n        /* \"#utility.yul\":3275:3276   */\n      0x00\n        /* \"#utility.yul\":3264:3273   */\n      dup4\n        /* \"#utility.yul\":3260:3277   */\n      add\n        /* \"#utility.yul\":3253:3300   */\n      mstore\n        /* \"#utility.yul\":3317:3395   */\n      tag_176\n        /* \"#utility.yul\":3390:3394   */\n      dup2\n        /* \"#utility.yul\":3381:3387   */\n      dup10\n        /* \"#utility.yul\":3317:3395   */\n      tag_96\n      jump\t// in\n    tag_176:\n        /* \"#utility.yul\":3309:3395   */\n      swap1\n      pop\n        /* \"#utility.yul\":3405:3477   */\n      tag_177\n        /* \"#utility.yul\":3473:3475   */\n      0x20\n        /* \"#utility.yul\":3462:3471   */\n      dup4\n        /* \"#utility.yul\":3458:3476   */\n      add\n        /* \"#utility.yul\":3449:3455   */\n      dup9\n        /* \"#utility.yul\":3405:3477   */\n      tag_97\n      jump\t// in\n    tag_177:\n        /* \"#utility.yul\":3487:3559   */\n      tag_178\n        /* \"#utility.yul\":3555:3557   */\n      0x40\n        /* \"#utility.yul\":3544:3553   */\n      dup4\n        /* \"#utility.yul\":3540:3558   */\n      add\n        /* \"#utility.yul\":3531:3537   */\n      dup8\n        /* \"#utility.yul\":3487:3559   */\n      tag_97\n      jump\t// in\n    tag_178:\n        /* \"#utility.yul\":3569:3641   */\n      tag_179\n        /* \"#utility.yul\":3637:3639   */\n      0x60\n        /* \"#utility.yul\":3626:3635   */\n      dup4\n        /* \"#utility.yul\":3622:3640   */\n      add\n        /* \"#utility.yul\":3613:3619   */\n      dup7\n        /* \"#utility.yul\":3569:3641   */\n      tag_98\n      jump\t// in\n    tag_179:\n        /* \"#utility.yul\":3651:3724   */\n      tag_180\n        /* \"#utility.yul\":3719:3722   */\n      0x80\n        /* \"#utility.yul\":3708:3717   */\n      dup4\n        /* \"#utility.yul\":3704:3723   */\n      add\n        /* \"#utility.yul\":3695:3701   */\n      dup6\n        /* \"#utility.yul\":3651:3724   */\n      tag_97\n      jump\t// in\n    tag_180:\n        /* \"#utility.yul\":3734:3807   */\n      tag_181\n        /* \"#utility.yul\":3802:3805   */\n      0xa0\n        /* \"#utility.yul\":3791:3800   */\n      dup4\n        /* \"#utility.yul\":3787:3806   */\n      add\n        /* \"#utility.yul\":3778:3784   */\n      dup5\n        /* \"#utility.yul\":3734:3807   */\n      tag_98\n      jump\t// in\n    tag_181:\n        /* \"#utility.yul\":2948:3814   */\n      swap8\n      swap7\n      pop\n      pop\n      pop\n      pop\n      pop\n      pop\n      pop\n      jump\t// out\n        /* \"#utility.yul\":3820:3937   */\n    tag_99:\n        /* \"#utility.yul\":3929:3930   */\n      0x00\n        /* \"#utility.yul\":3926:3927   */\n      dup1\n        /* \"#utility.yul\":3919:3931   */\n      revert\n        /* \"#utility.yul\":3943:4060   */\n    tag_100:\n        /* \"#utility.yul\":4052:4053   */\n      0x00\n        /* \"#utility.yul\":4049:4050   */\n      dup1\n        /* \"#utility.yul\":4042:4054   */\n      revert\n        /* \"#utility.yul\":4066:4246   */\n    tag_101:\n        /* \"#utility.yul\":4114:4191   */\n      0x4e487b7100000000000000000000000000000000000000000000000000000000\n        /* \"#utility.yul\":4111:4112   */\n      0x00\n        /* \"#utility.yul\":4104:4192   */\n      mstore\n        /* \"#utility.yul\":4211:4215   */\n      0x41\n        /* \"#utility.yul\":4208:4209   */\n      0x04\n        /* \"#utility.yul\":4201:4216   */\n      mstore\n        /* \"#utility.yul\":4235:4239   */\n      0x24\n        /* \"#utility.yul\":4232:4233   */\n      0x00\n        /* \"#utility.yul\":4225:4240   */\n      revert\n        /* \"#utility.yul\":4252:4533   */\n    tag_102:\n        /* \"#utility.yul\":4335:4362   */\n      tag_186\n        /* \"#utility.yul\":4357:4361   */\n      dup3\n        /* \"#utility.yul\":4335:4362   */\n      tag_95\n      jump\t// in\n    tag_186:\n        /* \"#utility.yul\":4327:4333   */\n      dup2\n        /* \"#utility.yul\":4323:4363   */\n      add\n        /* \"#utility.yul\":4465:4471   */\n      dup2\n        /* \"#utility.yul\":4453:4463   */\n      dup2\n        /* \"#utility.yul\":4450:4472   */\n      lt\n        /* \"#utility.yul\":4429:4447   */\n      0xffffffffffffffff\n        /* \"#utility.yul\":4417:4427   */\n      dup3\n        /* \"#utility.yul\":4414:4448   */\n      gt\n        /* \"#utility.yul\":4411:4473   */\n      or\n        /* \"#utility.yul\":4408:4496   */\n      iszero\n      tag_187\n      jumpi\n        /* \"#utility.yul\":4476:4494   */\n      tag_188\n      tag_101\n      jump\t// in\n    tag_188:\n        /* \"#utility.yul\":4408:4496   */\n    tag_187:\n        /* \"#utility.yul\":4516:4526   */\n      dup1\n        /* \"#utility.yul\":4512:4514   */\n      0x40\n        /* \"#utility.yul\":4505:4527   */\n      mstore\n        /* \"#utility.yul\":4295:4533   */\n      pop\n        /* \"#utility.yul\":4252:4533   */\n      pop\n      pop\n      jump\t// out\n        /* \"#utility.yul\":4539:4668   */\n    tag_103:\n        /* \"#utility.yul\":4573:4579   */\n      0x00\n        /* \"#utility.yul\":4600:4620   */\n      tag_190\n      tag_82\n      jump\t// in\n    tag_190:\n        /* \"#utility.yul\":4590:4620   */\n      swap1\n      pop\n        /* \"#utility.yul\":4629:4662   */\n      tag_191\n        /* \"#utility.yul\":4657:4661   */\n      dup3\n        /* \"#utility.yul\":4649:4655   */\n      dup3\n        /* \"#utility.yul\":4629:4662   */\n      tag_102\n      jump\t// in\n    tag_191:\n        /* \"#utility.yul\":4539:4668   */\n      swap2\n      swap1\n      pop\n      jump\t// out\n        /* \"#utility.yul\":4674:4982   */\n    tag_104:\n        /* \"#utility.yul\":4736:4740   */\n      0x00\n        /* \"#utility.yul\":4826:4844   */\n      0xffffffffffffffff\n        /* \"#utility.yul\":4818:4824   */\n      dup3\n        /* \"#utility.yul\":4815:4845   */\n      gt\n        /* \"#utility.yul\":4812:4868   */\n      iszero\n      tag_193\n      jumpi\n        /* \"#utility.yul\":4848:4866   */\n      tag_194\n      tag_101\n      jump\t// in\n    tag_194:\n        /* \"#utility.yul\":4812:4868   */\n    tag_193:\n        /* \"#utility.yul\":4886:4915   */\n      tag_195\n        /* \"#utility.yul\":4908:4914   */\n      dup3\n        /* \"#utility.yul\":4886:4915   */\n      tag_95\n      jump\t// in\n    tag_195:\n        /* \"#utility.yul\":4878:4915   */\n      swap1\n      pop\n        /* \"#utility.yul\":4970:4974   */\n      0x20\n        /* \"#utility.yul\":4964:4968   */\n      dup2\n        /* \"#utility.yul\":4960:4975   */\n      add\n        /* \"#utility.yul\":4952:4975   */\n      swap1\n      pop\n        /* \"#utility.yul\":4674:4982   */\n      swap2\n      swap1\n      pop\n      jump\t// out\n        /* \"#utility.yul\":4988:5134   */\n    tag_105:\n        /* \"#utility.yul\":5085:5091   */\n      dup3\n        /* \"#utility.yul\":5080:5083   */\n      dup2\n        /* \"#utility.yul\":5075:5078   */\n      dup4\n        /* \"#utility.yul\":5062:5092   */\n      calldatacopy\n        /* \"#utility.yul\":5126:5127   */\n      0x00\n        /* \"#utility.yul\":5117:5123   */\n      dup4\n        /* \"#utility.yul\":5112:5115   */\n      dup4\n        /* \"#utility.yul\":5108:5124   */\n      add\n        /* \"#utility.yul\":5101:5128   */\n      mstore\n        /* \"#utility.yul\":4988:5134   */\n      pop\n      pop\n      pop\n      jump\t// out\n        /* \"#utility.yul\":5140:5565   */\n    tag_106:\n        /* \"#utility.yul\":5218:5223   */\n      0x00\n        /* \"#utility.yul\":5243:5309   */\n      tag_198\n        /* \"#utility.yul\":5259:5308   */\n      tag_199\n        /* \"#utility.yul\":5301:5307   */\n      dup5\n        /* \"#utility.yul\":5259:5308   */\n      tag_104\n      jump\t// in\n    tag_199:\n        /* \"#utility.yul\":5243:5309   */\n      tag_103\n      jump\t// in\n    tag_198:\n        /* \"#utility.yul\":5234:5309   */\n      swap1\n      pop\n        /* \"#utility.yul\":5332:5338   */\n      dup3\n        /* \"#utility.yul\":5325:5330   */\n      dup2\n        /* \"#utility.yul\":5318:5339   */\n      mstore\n        /* \"#utility.yul\":5370:5374   */\n      0x20\n        /* \"#utility.yul\":5363:5368   */\n      dup2\n        /* \"#utility.yul\":5359:5375   */\n      add\n        /* \"#utility.yul\":5408:5411   */\n      dup5\n        /* \"#utility.yul\":5399:5405   */\n      dup5\n        /* \"#utility.yul\":5394:5397   */\n      dup5\n        /* \"#utility.yul\":5390:5406   */\n      add\n        /* \"#utility.yul\":5387:5412   */\n      gt\n        /* \"#utility.yul\":5384:5496   */\n      iszero\n      tag_200\n      jumpi\n        /* \"#utility.yul\":5415:5494   */\n      tag_201\n      tag_100\n      jump\t// in\n    tag_201:\n        /* \"#utility.yul\":5384:5496   */\n    tag_200:\n        /* \"#utility.yul\":5505:5559   */\n      tag_202\n        /* \"#utility.yul\":5552:5558   */\n      dup5\n        /* \"#utility.yul\":5547:5550   */\n      dup3\n        /* \"#utility.yul\":5542:5545   */\n      dup6\n        /* \"#utility.yul\":5505:5559   */\n      tag_105\n      jump\t// in\n    tag_202:\n        /* \"#utility.yul\":5224:5565   */\n      pop\n        /* \"#utility.yul\":5140:5565   */\n      swap4\n      swap3\n      pop\n      pop\n      pop\n      jump\t// out\n        /* \"#utility.yul\":5585:5925   */\n    tag_107:\n        /* \"#utility.yul\":5641:5646   */\n      0x00\n        /* \"#utility.yul\":5690:5693   */\n      dup3\n        /* \"#utility.yul\":5683:5687   */\n      0x1f\n        /* \"#utility.yul\":5675:5681   */\n      dup4\n        /* \"#utility.yul\":5671:5688   */\n      add\n        /* \"#utility.yul\":5667:5694   */\n      slt\n        /* \"#utility.yul\":5657:5779   */\n      tag_204\n      jumpi\n        /* \"#utility.yul\":5698:5777   */\n      tag_205\n      tag_99\n      jump\t// in\n    tag_205:\n        /* \"#utility.yul\":5657:5779   */\n    tag_204:\n        /* \"#utility.yul\":5815:5821   */\n      dup2\n        /* \"#utility.yul\":5802:5822   */\n      calldataload\n        /* \"#utility.yul\":5840:5919   */\n      tag_206\n        /* \"#utility.yul\":5915:5918   */\n      dup5\n        /* \"#utility.yul\":5907:5913   */\n      dup3\n        /* \"#utility.yul\":5900:5904   */\n      0x20\n        /* \"#utility.yul\":5892:5898   */\n      dup7\n        /* \"#utility.yul\":5888:5905   */\n      add\n        /* \"#utility.yul\":5840:5919   */\n      tag_106\n      jump\t// in\n    tag_206:\n        /* \"#utility.yul\":5831:5919   */\n      swap2\n      pop\n        /* \"#utility.yul\":5647:5925   */\n      pop\n        /* \"#utility.yul\":5585:5925   */\n      swap3\n      swap2\n      pop\n      pop\n      jump\t// out\n        /* \"#utility.yul\":5931:6585   */\n    tag_20:\n        /* \"#utility.yul\":6009:6015   */\n      0x00\n        /* \"#utility.yul\":6017:6023   */\n      dup1\n        /* \"#utility.yul\":6066:6068   */\n      0x40\n        /* \"#utility.yul\":6054:6063   */\n      dup4\n        /* \"#utility.yul\":6045:6052   */\n      dup6\n        /* \"#utility.yul\":6041:6064   */\n      sub\n        /* \"#utility.yul\":6037:6069   */\n      slt\n        /* \"#utility.yul\":6034:6153   */\n      iszero\n      tag_208\n      jumpi\n        /* \"#utility.yul\":6072:6151   */\n      tag_209\n      tag_83\n      jump\t// in\n    tag_209:\n        /* \"#utility.yul\":6034:6153   */\n    tag_208:\n        /* \"#utility.yul\":6192:6193   */\n      0x00\n        /* \"#utility.yul\":6217:6270   */\n      tag_210\n        /* \"#utility.yul\":6262:6269   */\n      dup6\n        /* \"#utility.yul\":6253:6259   */\n      dup3\n        /* \"#utility.yul\":6242:6251   */\n      dup7\n        /* \"#utility.yul\":6238:6260   */\n      add\n        /* \"#utility.yul\":6217:6270   */\n      tag_91\n      jump\t// in\n    tag_210:\n        /* \"#utility.yul\":6207:6270   */\n      swap3\n      pop\n        /* \"#utility.yul\":6163:6280   */\n      pop\n        /* \"#utility.yul\":6347:6349   */\n      0x20\n        /* \"#utility.yul\":6336:6345   */\n      dup4\n        /* \"#utility.yul\":6332:6350   */\n      add\n        /* \"#utility.yul\":6319:6351   */\n      calldataload\n        /* \"#utility.yul\":6378:6396   */\n      0xffffffffffffffff\n        /* \"#utility.yul\":6370:6376   */\n      dup2\n        /* \"#utility.yul\":6367:6397   */\n      gt\n        /* \"#utility.yul\":6364:6481   */\n      iszero\n      tag_211\n      jumpi\n        /* \"#utility.yul\":6400:6479   */\n      tag_212\n      tag_84\n      jump\t// in\n    tag_212:\n        /* \"#utility.yul\":6364:6481   */\n    tag_211:\n        /* \"#utility.yul\":6505:6568   */\n      tag_213\n        /* \"#utility.yul\":6560:6567   */\n      dup6\n        /* \"#utility.yul\":6551:6557   */\n      dup3\n        /* \"#utility.yul\":6540:6549   */\n      dup7\n        /* \"#utility.yul\":6536:6558   */\n      add\n        /* \"#utility.yul\":6505:6568   */\n      tag_107\n      jump\t// in\n    tag_213:\n        /* \"#utility.yul\":6495:6568   */\n      swap2\n      pop\n        /* \"#utility.yul\":6290:6578   */\n      pop\n        /* \"#utility.yul\":5931:6585   */\n      swap3\n      pop\n      swap3\n      swap1\n      pop\n      jump\t// out\n        /* \"#utility.yul\":6591:6695   */\n    tag_108:\n        /* \"#utility.yul\":6636:6643   */\n      0x00\n        /* \"#utility.yul\":6665:6689   */\n      tag_215\n        /* \"#utility.yul\":6683:6688   */\n      dup3\n        /* \"#utility.yul\":6665:6689   */\n      tag_85\n      jump\t// in\n    tag_215:\n        /* \"#utility.yul\":6654:6689   */\n      swap1\n      pop\n        /* \"#utility.yul\":6591:6695   */\n      swap2\n      swap1\n      pop\n      jump\t// out\n        /* \"#utility.yul\":6701:6839   */\n    tag_109:\n        /* \"#utility.yul\":6782:6814   */\n      tag_217\n        /* \"#utility.yul\":6808:6813   */\n      dup2\n        /* \"#utility.yul\":6782:6814   */\n      tag_108\n      jump\t// in\n    tag_217:\n        /* \"#utility.yul\":6775:6780   */\n      dup2\n        /* \"#utility.yul\":6772:6815   */\n      eq\n        /* \"#utility.yul\":6762:6833   */\n      tag_218\n      jumpi\n        /* \"#utility.yul\":6829:6830   */\n      0x00\n        /* \"#utility.yul\":6826:6827   */\n      dup1\n        /* \"#utility.yul\":6819:6831   */\n      revert\n        /* \"#utility.yul\":6762:6833   */\n    tag_218:\n        /* \"#utility.yul\":6701:6839   */\n      pop\n      jump\t// out\n        /* \"#utility.yul\":6845:7000   */\n    tag_110:\n        /* \"#utility.yul\":6899:6904   */\n      0x00\n        /* \"#utility.yul\":6937:6943   */\n      dup2\n        /* \"#utility.yul\":6924:6944   */\n      calldataload\n        /* \"#utility.yul\":6915:6944   */\n      swap1\n      pop\n        /* \"#utility.yul\":6953:6994   */\n      tag_220\n        /* \"#utility.yul\":6988:6993   */\n      dup2\n        /* \"#utility.yul\":6953:6994   */\n      tag_109\n      jump\t// in\n    tag_220:\n        /* \"#utility.yul\":6845:7000   */\n      swap3\n      swap2\n      pop\n      pop\n      jump\t// out\n        /* \"#utility.yul\":7006:7496   */\n    tag_25:\n        /* \"#utility.yul\":7082:7088   */\n      0x00\n        /* \"#utility.yul\":7090:7096   */\n      dup1\n        /* \"#utility.yul\":7139:7141   */\n      0x40\n        /* \"#utility.yul\":7127:7136   */\n      dup4\n        /* \"#utility.yul\":7118:7125   */\n      dup6\n        /* \"#utility.yul\":7114:7137   */\n      sub\n        /* \"#utility.yul\":7110:7142   */\n      slt\n        /* \"#utility.yul\":7107:7226   */\n      iszero\n      tag_222\n      jumpi\n        /* \"#utility.yul\":7145:7224   */\n      tag_223\n      tag_83\n      jump\t// in\n    tag_223:\n        /* \"#utility.yul\":7107:7226   */\n    tag_222:\n        /* \"#utility.yul\":7265:7266   */\n      0x00\n        /* \"#utility.yul\":7290:7351   */\n      tag_224\n        /* \"#utility.yul\":7343:7350   */\n      dup6\n        /* \"#utility.yul\":7334:7340   */\n      dup3\n        /* \"#utility.yul\":7323:7332   */\n      dup7\n        /* \"#utility.yul\":7319:7341   */\n      add\n        /* \"#utility.yul\":7290:7351   */\n      tag_110\n      jump\t// in\n    tag_224:\n        /* \"#utility.yul\":7280:7351   */\n      swap3\n      pop\n        /* \"#utility.yul\":7236:7361   */\n      pop\n        /* \"#utility.yul\":7400:7402   */\n      0x20\n        /* \"#utility.yul\":7426:7479   */\n      tag_225\n        /* \"#utility.yul\":7471:7478   */\n      dup6\n        /* \"#utility.yul\":7462:7468   */\n      dup3\n        /* \"#utility.yul\":7451:7460   */\n      dup7\n        /* \"#utility.yul\":7447:7469   */\n      add\n        /* \"#utility.yul\":7426:7479   */\n      tag_91\n      jump\t// in\n    tag_225:\n        /* \"#utility.yul\":7416:7479   */\n      swap2\n      pop\n        /* \"#utility.yul\":7371:7489   */\n      pop\n        /* \"#utility.yul\":7006:7496   */\n      swap3\n      pop\n      swap3\n      swap1\n      pop\n      jump\t// out\n        /* \"#utility.yul\":7502:7724   */\n    tag_32:\n        /* \"#utility.yul\":7595:7599   */\n      0x00\n        /* \"#utility.yul\":7633:7635   */\n      0x20\n        /* \"#utility.yul\":7622:7631   */\n      dup3\n        /* \"#utility.yul\":7618:7636   */\n      add\n        /* \"#utility.yul\":7610:7636   */\n      swap1\n      pop\n        /* \"#utility.yul\":7646:7717   */\n      tag_227\n        /* \"#utility.yul\":7714:7715   */\n      0x00\n        /* \"#utility.yul\":7703:7712   */\n      dup4\n        /* \"#utility.yul\":7699:7716   */\n      add\n        /* \"#utility.yul\":7690:7696   */\n      dup5\n        /* \"#utility.yul\":7646:7717   */\n      tag_98\n      jump\t// in\n    tag_227:\n        /* \"#utility.yul\":7502:7724   */\n      swap3\n      swap2\n      pop\n      pop\n      jump\t// out\n        /* \"#utility.yul\":7730:7952   */\n    tag_38:\n        /* \"#utility.yul\":7823:7827   */\n      0x00\n        /* \"#utility.yul\":7861:7863   */\n      0x20\n        /* \"#utility.yul\":7850:7859   */\n      dup3\n        /* \"#utility.yul\":7846:7864   */\n      add\n        /* \"#utility.yul\":7838:7864   */\n      swap1\n      pop\n        /* \"#utility.yul\":7874:7945   */\n      tag_229\n        /* \"#utility.yul\":7942:7943   */\n      0x00\n        /* \"#utility.yul\":7931:7940   */\n      dup4\n        /* \"#utility.yul\":7927:7944   */\n      add\n        /* \"#utility.yul\":7918:7924   */\n      dup5\n        /* \"#utility.yul\":7874:7945   */\n      tag_97\n      jump\t// in\n    tag_229:\n        /* \"#utility.yul\":7730:7952   */\n      swap3\n      swap2\n      pop\n      pop\n      jump\t// out\n        /* \"#utility.yul\":7958:8138   */\n    tag_111:\n        /* \"#utility.yul\":8006:8083   */\n      0x4e487b7100000000000000000000000000000000000000000000000000000000\n        /* \"#utility.yul\":8003:8004   */\n      0x00\n        /* \"#utility.yul\":7996:8084   */\n      mstore\n        /* \"#utility.yul\":8103:8107   */\n      0x22\n        /* \"#utility.yul\":8100:8101   */\n      0x04\n        /* \"#utility.yul\":8093:8108   */\n      mstore\n        /* \"#utility.yul\":8127:8131   */\n      0x24\n        /* \"#utility.yul\":8124:8125   */\n      0x00\n        /* \"#utility.yul\":8117:8132   */\n      revert\n        /* \"#utility.yul\":8144:8464   */\n    tag_47:\n        /* \"#utility.yul\":8188:8194   */\n      0x00\n        /* \"#utility.yul\":8225:8226   */\n      0x02\n        /* \"#utility.yul\":8219:8223   */\n      dup3\n        /* \"#utility.yul\":8215:8227   */\n      div\n        /* \"#utility.yul\":8205:8227   */\n      swap1\n      pop\n        /* \"#utility.yul\":8272:8273   */\n      0x01\n        /* \"#utility.yul\":8266:8270   */\n      dup3\n        /* \"#utility.yul\":8262:8274   */\n      and\n        /* \"#utility.yul\":8293:8311   */\n      dup1\n        /* \"#utility.yul\":8283:8364   */\n      tag_232\n      jumpi\n        /* \"#utility.yul\":8349:8353   */\n      0x7f\n        /* \"#utility.yul\":8341:8347   */\n      dup3\n        /* \"#utility.yul\":8337:8354   */\n      and\n        /* \"#utility.yul\":8327:8354   */\n      swap2\n      pop\n        /* \"#utility.yul\":8283:8364   */\n    tag_232:\n        /* \"#utility.yul\":8411:8413   */\n      0x20\n        /* \"#utility.yul\":8403:8409   */\n      dup3\n        /* \"#utility.yul\":8400:8414   */\n      lt\n        /* \"#utility.yul\":8380:8398   */\n      dup2\n        /* \"#utility.yul\":8377:8415   */\n      sub\n        /* \"#utility.yul\":8374:8458   */\n      tag_233\n      jumpi\n        /* \"#utility.yul\":8430:8448   */\n      tag_234\n      tag_111\n      jump\t// in\n    tag_234:\n        /* \"#utility.yul\":8374:8458   */\n    tag_233:\n        /* \"#utility.yul\":8195:8464   */\n      pop\n        /* \"#utility.yul\":8144:8464   */\n      swap2\n      swap1\n      pop\n      jump\t// out\n        /* \"#utility.yul\":8470:8629   */\n    tag_112:\n        /* \"#utility.yul\":8610:8621   */\n      0x4e6f742056616c69640000000000000000000000000000000000000000000000\n        /* \"#utility.yul\":8606:8607   */\n      0x00\n        /* \"#utility.yul\":8598:8604   */\n      dup3\n        /* \"#utility.yul\":8594:8608   */\n      add\n        /* \"#utility.yul\":8587:8622   */\n      mstore\n        /* \"#utility.yul\":8470:8629   */\n      pop\n      jump\t// out\n        /* \"#utility.yul\":8635:9000   */\n    tag_113:\n        /* \"#utility.yul\":8777:8780   */\n      0x00\n        /* \"#utility.yul\":8798:8864   */\n      tag_237\n        /* \"#utility.yul\":8862:8863   */\n      0x09\n        /* \"#utility.yul\":8857:8860   */\n      dup4\n        /* \"#utility.yul\":8798:8864   */\n      tag_93\n      jump\t// in\n    tag_237:\n        /* \"#utility.yul\":8791:8864   */\n      swap2\n      pop\n        /* \"#utility.yul\":8873:8966   */\n      tag_238\n        /* \"#utility.yul\":8962:8965   */\n      dup3\n        /* \"#utility.yul\":8873:8966   */\n      tag_112\n      jump\t// in\n    tag_238:\n        /* \"#utility.yul\":8991:8993   */\n      0x20\n        /* \"#utility.yul\":8986:8989   */\n      dup3\n        /* \"#utility.yul\":8982:8994   */\n      add\n        /* \"#utility.yul\":8975:8994   */\n      swap1\n      pop\n        /* \"#utility.yul\":8635:9000   */\n      swap2\n      swap1\n      pop\n      jump\t// out\n        /* \"#utility.yul\":9006:9425   */\n    tag_55:\n        /* \"#utility.yul\":9172:9176   */\n      0x00\n        /* \"#utility.yul\":9210:9212   */\n      0x20\n        /* \"#utility.yul\":9199:9208   */\n      dup3\n        /* \"#utility.yul\":9195:9213   */\n      add\n        /* \"#utility.yul\":9187:9213   */\n      swap1\n      pop\n        /* \"#utility.yul\":9259:9268   */\n      dup2\n        /* \"#utility.yul\":9253:9257   */\n      dup2\n        /* \"#utility.yul\":9249:9269   */\n      sub\n        /* \"#utility.yul\":9245:9246   */\n      0x00\n        /* \"#utility.yul\":9234:9243   */\n      dup4\n        /* \"#utility.yul\":9230:9247   */\n      add\n        /* \"#utility.yul\":9223:9270   */\n      mstore\n        /* \"#utility.yul\":9287:9418   */\n      tag_240\n        /* \"#utility.yul\":9413:9417   */\n      dup2\n        /* \"#utility.yul\":9287:9418   */\n      tag_113\n      jump\t// in\n    tag_240:\n        /* \"#utility.yul\":9279:9418   */\n      swap1\n      pop\n        /* \"#utility.yul\":9006:9425   */\n      swap2\n      swap1\n      pop\n      jump\t// out\n        /* \"#utility.yul\":9431:9572   */\n    tag_114:\n        /* \"#utility.yul\":9480:9484   */\n      0x00\n        /* \"#utility.yul\":9503:9506   */\n      dup2\n        /* \"#utility.yul\":9495:9506   */\n      swap1\n      pop\n        /* \"#utility.yul\":9526:9529   */\n      dup2\n        /* \"#utility.yul\":9523:9524   */\n      0x00\n        /* \"#utility.yul\":9516:9530   */\n      mstore\n        /* \"#utility.yul\":9560:9564   */\n      0x20\n        /* \"#utility.yul\":9557:9558   */\n      0x00\n        /* \"#utility.yul\":9547:9565   */\n      keccak256\n        /* \"#utility.yul\":9539:9565   */\n      swap1\n      pop\n        /* \"#utility.yul\":9431:9572   */\n      swap2\n      swap1\n      pop\n      jump\t// out\n        /* \"#utility.yul\":9578:9671   */\n    tag_115:\n        /* \"#utility.yul\":9615:9621   */\n      0x00\n        /* \"#utility.yul\":9662:9664   */\n      0x20\n        /* \"#utility.yul\":9657:9659   */\n      0x1f\n        /* \"#utility.yul\":9650:9655   */\n      dup4\n        /* \"#utility.yul\":9646:9660   */\n      add\n        /* \"#utility.yul\":9642:9665   */\n      div\n        /* \"#utility.yul\":9632:9665   */\n      swap1\n      pop\n        /* \"#utility.yul\":9578:9671   */\n      swap2\n      swap1\n      pop\n      jump\t// out\n        /* \"#utility.yul\":9677:9784   */\n    tag_116:\n        /* \"#utility.yul\":9721:9729   */\n      0x00\n        /* \"#utility.yul\":9771:9776   */\n      dup3\n        /* \"#utility.yul\":9765:9769   */\n      dup3\n        /* \"#utility.yul\":9761:9777   */\n      shl\n        /* \"#utility.yul\":9740:9777   */\n      swap1\n      pop\n        /* \"#utility.yul\":9677:9784   */\n      swap3\n      swap2\n      pop\n      pop\n      jump\t// out\n        /* \"#utility.yul\":9790:10183   */\n    tag_117:\n        /* \"#utility.yul\":9859:9865   */\n      0x00\n        /* \"#utility.yul\":9909:9910   */\n      0x08\n        /* \"#utility.yul\":9897:9907   */\n      dup4\n        /* \"#utility.yul\":9893:9911   */\n      mul\n        /* \"#utility.yul\":9932:10029   */\n      tag_245\n        /* \"#utility.yul\":9962:10028   */\n      0xffffffffffffffffffffffffffffffffffffffffffffffffffffffffffffffff\n        /* \"#utility.yul\":9951:9960   */\n      dup3\n        /* \"#utility.yul\":9932:10029   */\n      tag_116\n      jump\t// in\n    tag_245:\n        /* \"#utility.yul\":10050:10089   */\n      tag_246\n        /* \"#utility.yul\":10080:10088   */\n      dup7\n        /* \"#utility.yul\":10069:10078   */\n      dup4\n        /* \"#utility.yul\":10050:10089   */\n      tag_116\n      jump\t// in\n    tag_246:\n        /* \"#utility.yul\":10038:10089   */\n      swap6\n      pop\n        /* \"#utility.yul\":10122:10126   */\n      dup1\n        /* \"#utility.yul\":10118:10127   */\n      not\n        /* \"#utility.yul\":10111:10116   */\n      dup5\n        /* \"#utility.yul\":10107:10128   */\n      and\n        /* \"#utility.yul\":10098:10128   */\n      swap4\n      pop\n        /* \"#utility.yul\":10171:10175   */\n      dup1\n        /* \"#utility.yul\":10161:10169   */\n      dup7\n        /* \"#utility.yul\":10157:10176   */\n      and\n        /* \"#utility.yul\":10150:10155   */\n      dup5\n        /* \"#utility.yul\":10147:10177   */\n      or\n        /* \"#utility.yul\":10137:10177   */\n      swap3\n      pop\n        /* \"#utility.yul\":9866:10183   */\n      pop\n      pop\n        /* \"#utility.yul\":9790:10183   */\n      swap4\n      swap3\n      pop\n      pop\n      pop\n      jump\t// out\n        /* \"#utility.yul\":10189:10249   */\n    tag_118:\n        /* \"#utility.yul\":10217:10220   */\n      0x00\n        /* \"#utility.yul\":10238:10243   */\n      dup2\n        /* \"#utility.yul\":10231:10243   */\n      swap1\n      pop\n        /* \"#utility.yul\":10189:10249   */\n      swap2\n      swap1\n      pop\n      jump\t// out\n        /* \"#utility.yul\":10255:10397   */\n    tag_119:\n        /* \"#utility.yul\":10305:10314   */\n      0x00\n        /* \"#utility.yul\":10338:10391   */\n      tag_249\n        /* \"#utility.yul\":10356:10390   */\n      tag_250\n        /* \"#utility.yul\":10365:10389   */\n      tag_251\n        /* \"#utility.yul\":10383:10388   */\n      dup5\n        /* \"#utility.yul\":10365:10389   */\n      tag_89\n      jump\t// in\n    tag_251:\n        /* \"#utility.yul\":10356:10390   */\n      tag_118\n      jump\t// in\n    tag_250:\n        /* \"#utility.yul\":10338:10391   */\n      tag_89\n      jump\t// in\n    tag_249:\n        /* \"#utility.yul\":10325:10391   */\n      swap1\n      pop\n        /* \"#utility.yul\":10255:10397   */\n      swap2\n      swap1\n      pop\n      jump\t// out\n        /* \"#utility.yul\":10403:10478   */\n    tag_120:\n        /* \"#utility.yul\":10446:10449   */\n      0x00\n        /* \"#utility.yul\":10467:10472   */\n      dup2\n        /* \"#utility.yul\":10460:10472   */\n      swap1\n      pop\n        /* \"#utility.yul\":10403:10478   */\n      swap2\n      swap1\n      pop\n      jump\t// out\n        /* \"#utility.yul\":10484:10753   */\n    tag_121:\n        /* \"#utility.yul\":10594:10633   */\n      tag_254\n        /* \"#utility.yul\":10625:10632   */\n      dup4\n        /* \"#utility.yul\":10594:10633   */\n      tag_119\n      jump\t// in\n    tag_254:\n        /* \"#utility.yul\":10655:10746   */\n      tag_255\n        /* \"#utility.yul\":10704:10745   */\n      tag_256\n        /* \"#utility.yul\":10728:10744   */\n      dup3\n        /* \"#utility.yul\":10704:10745   */\n      tag_120\n      jump\t// in\n    tag_256:\n        /* \"#utility.yul\":10696:10702   */\n      dup5\n        /* \"#utility.yul\":10689:10693   */\n      dup5\n        /* \"#utility.yul\":10683:10694   */\n      sload\n        /* \"#utility.yul\":10655:10746   */\n      tag_117\n      jump\t// in\n    tag_255:\n        /* \"#utility.yul\":10649:10653   */\n      dup3\n        /* \"#utility.yul\":10642:10747   */\n      sstore\n        /* \"#utility.yul\":10560:10753   */\n      pop\n        /* \"#utility.yul\":10484:10753   */\n      pop\n      pop\n      pop\n      jump\t// out\n        /* \"#utility.yul\":10759:10832   */\n    tag_122:\n        /* \"#utility.yul\":10804:10807   */\n      0x00\n        /* \"#utility.yul\":10759:10832   */\n      swap1\n      jump\t// out\n        /* \"#utility.yul\":10838:11027   */\n    tag_123:\n        /* \"#utility.yul\":10915:10947   */\n      tag_259\n      tag_122\n      jump\t// in\n    tag_259:\n        /* \"#utility.yul\":10956:11021   */\n      tag_260\n        /* \"#utility.yul\":11014:11020   */\n      dup2\n        /* \"#utility.yul\":11006:11012   */\n      dup5\n        /* \"#utility.yul\":11000:11004   */\n      dup5\n        /* \"#utility.yul\":10956:11021   */\n      tag_121\n      jump\t// in\n    tag_260:\n        /* \"#utility.yul\":10891:11027   */\n      pop\n        /* \"#utility.yul\":10838:11027   */\n      pop\n      pop\n      jump\t// out\n        /* \"#utility.yul\":11033:11219   */\n    tag_124:\n        /* \"#utility.yul\":11093:11213   */\n    tag_262:\n        /* \"#utility.yul\":11110:11113   */\n      dup2\n        /* \"#utility.yul\":11103:11108   */\n      dup2\n        /* \"#utility.yul\":11100:11114   */\n      lt\n        /* \"#utility.yul\":11093:11213   */\n      iszero\n      tag_264\n      jumpi\n        /* \"#utility.yul\":11164:11203   */\n      tag_265\n        /* \"#utility.yul\":11201:11202   */\n      0x00\n        /* \"#utility.yul\":11194:11199   */\n      dup3\n        /* \"#utility.yul\":11164:11203   */\n      tag_123\n      jump\t// in\n    tag_265:\n        /* \"#utility.yul\":11137:11138   */\n      0x01\n        /* \"#utility.yul\":11130:11135   */\n      dup2\n        /* \"#utility.yul\":11126:11139   */\n      add\n        /* \"#utility.yul\":11117:11139   */\n      swap1\n      pop\n        /* \"#utility.yul\":11093:11213   */\n      jump(tag_262)\n    tag_264:\n        /* \"#utility.yul\":11033:11219   */\n      pop\n      pop\n      jump\t// out\n        /* \"#utility.yul\":11225:11768   */\n    tag_125:\n        /* \"#utility.yul\":11326:11328   */\n      0x1f\n        /* \"#utility.yul\":11321:11324   */\n      dup3\n        /* \"#utility.yul\":11318:11329   */\n      gt\n        /* \"#utility.yul\":11315:11761   */\n      iszero\n      tag_267\n      jumpi\n        /* \"#utility.yul\":11360:11398   */\n      tag_268\n        /* \"#utility.yul\":11392:11397   */\n      dup2\n        /* \"#utility.yul\":11360:11398   */\n      tag_114\n      jump\t// in\n    tag_268:\n        /* \"#utility.yul\":11444:11473   */\n      tag_269\n        /* \"#utility.yul\":11462:11472   */\n      dup5\n        /* \"#utility.yul\":11444:11473   */\n      tag_115\n      jump\t// in\n    tag_269:\n        /* \"#utility.yul\":11434:11442   */\n      dup2\n        /* \"#utility.yul\":11430:11474   */\n      add\n        /* \"#utility.yul\":11627:11629   */\n      0x20\n        /* \"#utility.yul\":11615:11625   */\n      dup6\n        /* \"#utility.yul\":11612:11630   */\n      lt\n        /* \"#utility.yul\":11609:11658   */\n      iszero\n      tag_270\n      jumpi\n        /* \"#utility.yul\":11648:11656   */\n      dup2\n        /* \"#utility.yul\":11633:11656   */\n      swap1\n      pop\n        /* \"#utility.yul\":11609:11658   */\n    tag_270:\n        /* \"#utility.yul\":11671:11751   */\n      tag_271\n        /* \"#utility.yul\":11727:11749   */\n      tag_272\n        /* \"#utility.yul\":11745:11748   */\n      dup6\n        /* \"#utility.yul\":11727:11749   */\n      tag_115\n      jump\t// in\n    tag_272:\n        /* \"#utility.yul\":11717:11725   */\n      dup4\n        /* \"#utility.yul\":11713:11750   */\n      add\n        /* \"#utility.yul\":11700:11711   */\n      dup3\n        /* \"#utility.yul\":11671:11751   */\n      tag_124\n      jump\t// in\n    tag_271:\n        /* \"#utility.yul\":11330:11761   */\n      pop\n      pop\n        /* \"#utility.yul\":11315:11761   */\n    tag_267:\n        /* \"#utility.yul\":11225:11768   */\n      pop\n      pop\n      pop\n      jump\t// out\n        /* \"#utility.yul\":11774:11891   */\n    tag_126:\n        /* \"#utility.yul\":11828:11836   */\n      0x00\n        /* \"#utility.yul\":11878:11883   */\n      dup3\n        /* \"#utility.yul\":11872:11876   */\n      dup3\n        /* \"#utility.yul\":11868:11884   */\n      shr\n        /* \"#utility.yul\":11847:11884   */\n      swap1\n      pop\n        /* \"#utility.yul\":11774:11891   */\n      swap3\n      swap2\n      pop\n      pop\n      jump\t// out\n        /* \"#utility.yul\":11897:12066   */\n    tag_127:\n        /* \"#utility.yul\":11941:11947   */\n      0x00\n        /* \"#utility.yul\":11974:12025   */\n      tag_275\n        /* \"#utility.yul\":12022:12023   */\n      0x00\n        /* \"#utility.yul\":12018:12024   */\n      not\n        /* \"#utility.yul\":12010:12015   */\n      dup5\n        /* \"#utility.yul\":12007:12008   */\n      0x08\n        /* \"#utility.yul\":12003:12016   */\n      mul\n        /* \"#utility.yul\":11974:12025   */\n      tag_126\n      jump\t// in\n    tag_275:\n        /* \"#utility.yul\":11970:12026   */\n      not\n        /* \"#utility.yul\":12055:12059   */\n      dup1\n        /* \"#utility.yul\":12049:12053   */\n      dup4\n        /* \"#utility.yul\":12045:12060   */\n      and\n        /* \"#utility.yul\":12035:12060   */\n      swap2\n      pop\n        /* \"#utility.yul\":11948:12066   */\n      pop\n        /* \"#utility.yul\":11897:12066   */\n      swap3\n      swap2\n      pop\n      pop\n      jump\t// out\n        /* \"#utility.yul\":12071:12366   */\n    tag_128:\n        /* \"#utility.yul\":12147:12151   */\n      0x00\n        /* \"#utility.yul\":12293:12322   */\n      tag_277\n        /* \"#utility.yul\":12318:12321   */\n      dup4\n        /* \"#utility.yul\":12312:12316   */\n      dup4\n        /* \"#utility.yul\":12293:12322   */\n      tag_127\n      jump\t// in\n    tag_277:\n        /* \"#utility.yul\":12285:12322   */\n      swap2\n      pop\n        /* \"#utility.yul\":12355:12358   */\n      dup3\n        /* \"#utility.yul\":12352:12353   */\n      0x02\n        /* \"#utility.yul\":12348:12359   */\n      mul\n        /* \"#utility.yul\":12342:12346   */\n      dup3\n        /* \"#utility.yul\":12339:12360   */\n      or\n        /* \"#utility.yul\":12331:12360   */\n      swap1\n      pop\n        /* \"#utility.yul\":12071:12366   */\n      swap3\n      swap2\n      pop\n      pop\n      jump\t// out\n        /* \"#utility.yul\":12371:13766   */\n    tag_57:\n        /* \"#utility.yul\":12488:12525   */\n      tag_279\n        /* \"#utility.yul\":12521:12524   */\n      dup3\n        /* \"#utility.yul\":12488:12525   */\n      tag_92\n      jump\t// in\n    tag_279:\n        /* \"#utility.yul\":12590:12608   */\n      0xffffffffffffffff\n        /* \"#utility.yul\":12582:12588   */\n      dup2\n        /* \"#utility.yul\":12579:12609   */\n      gt\n        /* \"#utility.yul\":12576:12632   */\n      iszero\n      tag_280\n      jumpi\n        /* \"#utility.yul\":12612:12630   */\n      tag_281\n      tag_101\n      jump\t// in\n    tag_281:\n        /* \"#utility.yul\":12576:12632   */\n    tag_280:\n        /* \"#utility.yul\":12656:12694   */\n      tag_282\n        /* \"#utility.yul\":12688:12692   */\n      dup3\n        /* \"#utility.yul\":12682:12693   */\n      sload\n        /* \"#utility.yul\":12656:12694   */\n      tag_47\n      jump\t// in\n    tag_282:\n        /* \"#utility.yul\":12741:12808   */\n      tag_283\n        /* \"#utility.yul\":12801:12807   */\n      dup3\n        /* \"#utility.yul\":12793:12799   */\n      dup3\n        /* \"#utility.yul\":12787:12791   */\n      dup6\n        /* \"#utility.yul\":12741:12808   */\n      tag_125\n      jump\t// in\n    tag_283:\n        /* \"#utility.yul\":12835:12836   */\n      0x00\n        /* \"#utility.yul\":12859:12863   */\n      0x20\n        /* \"#utility.yul\":12846:12863   */\n      swap1\n      pop\n        /* \"#utility.yul\":12891:12893   */\n      0x1f\n        /* \"#utility.yul\":12883:12889   */\n      dup4\n        /* \"#utility.yul\":12880:12894   */\n      gt\n        /* \"#utility.yul\":12908:12909   */\n      0x01\n        /* \"#utility.yul\":12903:13521   */\n      dup2\n      eq\n      tag_285\n      jumpi\n        /* \"#utility.yul\":13565:13566   */\n      0x00\n        /* \"#utility.yul\":13582:13588   */\n      dup5\n        /* \"#utility.yul\":13579:13656   */\n      iszero\n      tag_286\n      jumpi\n        /* \"#utility.yul\":13631:13640   */\n      dup3\n        /* \"#utility.yul\":13626:13629   */\n      dup8\n        /* \"#utility.yul\":13622:13641   */\n      add\n        /* \"#utility.yul\":13616:13642   */\n      mload\n        /* \"#utility.yul\":13607:13642   */\n      swap1\n      pop\n        /* \"#utility.yul\":13579:13656   */\n    tag_286:\n        /* \"#utility.yul\":13682:13749   */\n      tag_287\n        /* \"#utility.yul\":13742:13748   */\n      dup6\n        /* \"#utility.yul\":13735:13740   */\n      dup3\n        /* \"#utility.yul\":13682:13749   */\n      tag_128\n      jump\t// in\n    tag_287:\n        /* \"#utility.yul\":13676:13680   */\n      dup7\n        /* \"#utility.yul\":13669:13750   */\n      sstore\n        /* \"#utility.yul\":13538:13760   */\n      pop\n        /* \"#utility.yul\":12873:13760   */\n      jump(tag_284)\n        /* \"#utility.yul\":12903:13521   */\n    tag_285:\n        /* \"#utility.yul\":12955:12959   */\n      0x1f\n        /* \"#utility.yul\":12951:12960   */\n      not\n        /* \"#utility.yul\":12943:12949   */\n      dup5\n        /* \"#utility.yul\":12939:12961   */\n      and\n        /* \"#utility.yul\":12989:13026   */\n      tag_288\n        /* \"#utility.yul\":13021:13025   */\n      dup7\n        /* \"#utility.yul\":12989:13026   */\n      tag_114\n      jump\t// in\n    tag_288:\n        /* \"#utility.yul\":13048:13049   */\n      0x00\n        /* \"#utility.yul\":13062:13270   */\n    tag_289:\n        /* \"#utility.yul\":13076:13083   */\n      dup3\n        /* \"#utility.yul\":13073:13074   */\n      dup2\n        /* \"#utility.yul\":13070:13084   */\n      lt\n        /* \"#utility.yul\":13062:13270   */\n      iszero\n      tag_291\n      jumpi\n        /* \"#utility.yul\":13155:13164   */\n      dup5\n        /* \"#utility.yul\":13150:13153   */\n      dup10\n        /* \"#utility.yul\":13146:13165   */\n      add\n        /* \"#utility.yul\":13140:13166   */\n      mload\n        /* \"#utility.yul\":13132:13138   */\n      dup3\n        /* \"#utility.yul\":13125:13167   */\n      sstore\n        /* \"#utility.yul\":13206:13207   */\n      0x01\n        /* \"#utility.yul\":13198:13204   */\n      dup3\n        /* \"#utility.yul\":13194:13208   */\n      add\n        /* \"#utility.yul\":13184:13208   */\n      swap2\n      pop\n        /* \"#utility.yul\":13253:13255   */\n      0x20\n        /* \"#utility.yul\":13242:13251   */\n      dup6\n        /* \"#utility.yul\":13238:13256   */\n      add\n        /* \"#utility.yul\":13225:13256   */\n      swap5\n      pop\n        /* \"#utility.yul\":13099:13103   */\n      0x20\n        /* \"#utility.yul\":13096:13097   */\n      dup2\n        /* \"#utility.yul\":13092:13104   */\n      add\n        /* \"#utility.yul\":13087:13104   */\n      swap1\n      pop\n        /* \"#utility.yul\":13062:13270   */\n      jump(tag_289)\n    tag_291:\n        /* \"#utility.yul\":13298:13304   */\n      dup7\n        /* \"#utility.yul\":13289:13296   */\n      dup4\n        /* \"#utility.yul\":13286:13305   */\n      lt\n        /* \"#utility.yul\":13283:13462   */\n      iszero\n      tag_292\n      jumpi\n        /* \"#utility.yul\":13356:13365   */\n      dup5\n        /* \"#utility.yul\":13351:13354   */\n      dup10\n        /* \"#utility.yul\":13347:13366   */\n      add\n        /* \"#utility.yul\":13341:13367   */\n      mload\n        /* \"#utility.yul\":13399:13447   */\n      tag_293\n        /* \"#utility.yul\":13441:13445   */\n      0x1f\n        /* \"#utility.yul\":13433:13439   */\n      dup10\n        /* \"#utility.yul\":13429:13446   */\n      and\n        /* \"#utility.yul\":13418:13427   */\n      dup3\n        /* \"#utility.yul\":13399:13447   */\n      tag_127\n      jump\t// in\n    tag_293:\n        /* \"#utility.yul\":13391:13397   */\n      dup4\n        /* \"#utility.yul\":13384:13448   */\n      sstore\n        /* \"#utility.yul\":13306:13462   */\n      pop\n        /* \"#utility.yul\":13283:13462   */\n    tag_292:\n        /* \"#utility.yul\":13508:13509   */\n      0x01\n        /* \"#utility.yul\":13504:13505   */\n      0x02\n        /* \"#utility.yul\":13496:13502   */\n      dup9\n        /* \"#utility.yul\":13492:13506   */\n      mul\n        /* \"#utility.yul\":13488:13510   */\n      add\n        /* \"#utility.yul\":13482:13486   */\n      dup9\n        /* \"#utility.yul\":13475:13511   */\n      sstore\n        /* \"#utility.yul\":12910:13521   */\n      pop\n      pop\n      pop\n        /* \"#utility.yul\":12873:13760   */\n    tag_284:\n      pop\n        /* \"#utility.yul\":12463:13766   */\n      pop\n      pop\n      pop\n        /* \"#utility.yul\":12371:13766   */\n      pop\n      pop\n      jump\t// out\n        /* \"#utility.yul\":13772:13952   */\n    tag_129:\n        /* \"#utility.yul\":13820:13897   */\n      0x4e487b7100000000000000000000000000000000000000000000000000000000\n        /* \"#utility.yul\":13817:13818   */\n      0x00\n        /* \"#utility.yul\":13810:13898   */\n      mstore\n        /* \"#utility.yul\":13917:13921   */\n      0x11\n        /* \"#utility.yul\":13914:13915   */\n      0x04\n        /* \"#utility.yul\":13907:13922   */\n      mstore\n        /* \"#utility.yul\":13941:13945   */\n      0x24\n        /* \"#utility.yul\":13938:13939   */\n      0x00\n        /* \"#utility.yul\":13931:13946   */\n      revert\n        /* \"#utility.yul\":13958:14149   */\n    tag_59:\n        /* \"#utility.yul\":13998:14001   */\n      0x00\n        /* \"#utility.yul\":14017:14037   */\n      tag_296\n        /* \"#utility.yul\":14035:14036   */\n      dup3\n        /* \"#utility.yul\":14017:14037   */\n      tag_89\n      jump\t// in\n    tag_296:\n        /* \"#utility.yul\":14012:14037   */\n      swap2\n      pop\n        /* \"#utility.yul\":14051:14071   */\n      tag_297\n        /* \"#utility.yul\":14069:14070   */\n      dup4\n        /* \"#utility.yul\":14051:14071   */\n      tag_89\n      jump\t// in\n    tag_297:\n        /* \"#utility.yul\":14046:14071   */\n      swap3\n      pop\n        /* \"#utility.yul\":14094:14095   */\n      dup3\n        /* \"#utility.yul\":14091:14092   */\n      dup3\n        /* \"#utility.yul\":14087:14096   */\n      add\n        /* \"#utility.yul\":14080:14096   */\n      swap1\n      pop\n        /* \"#utility.yul\":14115:14118   */\n      dup1\n        /* \"#utility.yul\":14112:14113   */\n      dup3\n        /* \"#utility.yul\":14109:14119   */\n      gt\n        /* \"#utility.yul\":14106:14142   */\n      iszero\n      tag_298\n      jumpi\n        /* \"#utility.yul\":14122:14140   */\n      tag_299\n      tag_129\n      jump\t// in\n    tag_299:\n        /* \"#utility.yul\":14106:14142   */\n    tag_298:\n        /* \"#utility.yul\":13958:14149   */\n      swap3\n      swap2\n      pop\n      pop\n      jump\t// out\n        /* \"#utility.yul\":14155:14688   */\n    tag_61:\n        /* \"#utility.yul\":14324:14328   */\n      0x00\n        /* \"#utility.yul\":14362:14364   */\n      0x60\n        /* \"#utility.yul\":14351:14360   */\n      dup3\n        /* \"#utility.yul\":14347:14365   */\n      add\n        /* \"#utility.yul\":14339:14365   */\n      swap1\n      pop\n        /* \"#utility.yul\":14375:14446   */\n      tag_301\n        /* \"#utility.yul\":14443:14444   */\n      0x00\n        /* \"#utility.yul\":14432:14441   */\n      dup4\n        /* \"#utility.yul\":14428:14445   */\n      add\n        /* \"#utility.yul\":14419:14425   */\n      dup7\n        /* \"#utility.yul\":14375:14446   */\n      tag_98\n      jump\t// in\n    tag_301:\n        /* \"#utility.yul\":14456:14528   */\n      tag_302\n        /* \"#utility.yul\":14524:14526   */\n      0x20\n        /* \"#utility.yul\":14513:14522   */\n      dup4\n        /* \"#utility.yul\":14509:14527   */\n      add\n        /* \"#utility.yul\":14500:14506   */\n      dup6\n        /* \"#utility.yul\":14456:14528   */\n      tag_97\n      jump\t// in\n    tag_302:\n        /* \"#utility.yul\":14575:14584   */\n      dup2\n        /* \"#utility.yul\":14569:14573   */\n      dup2\n        /* \"#utility.yul\":14565:14585   */\n      sub\n        /* \"#utility.yul\":14560:14562   */\n      0x40\n        /* \"#utility.yul\":14549:14558   */\n      dup4\n        /* \"#utility.yul\":14545:14563   */\n      add\n        /* \"#utility.yul\":14538:14586   */\n      mstore\n        /* \"#utility.yul\":14603:14681   */\n      tag_303\n        /* \"#utility.yul\":14676:14680   */\n      dup2\n        /* \"#utility.yul\":14667:14673   */\n      dup5\n        /* \"#utility.yul\":14603:14681   */\n      tag_96\n      jump\t// in\n    tag_303:\n        /* \"#utility.yul\":14595:14681   */\n      swap1\n      pop\n        /* \"#utility.yul\":14155:14688   */\n      swap5\n      swap4\n      pop\n      pop\n      pop\n      pop\n      jump\t// out\n        /* \"#utility.yul\":14694:14860   */\n    tag_130:\n        /* \"#utility.yul\":14834:14852   */\n      0x206f776e65722063616e27742062696400000000000000000000000000000000\n        /* \"#utility.yul\":14830:14831   */\n      0x00\n        /* \"#utility.yul\":14822:14828   */\n      dup3\n        /* \"#utility.yul\":14818:14832   */\n      add\n        /* \"#utility.yul\":14811:14853   */\n      mstore\n        /* \"#utility.yul\":14694:14860   */\n      pop\n      jump\t// out\n        /* \"#utility.yul\":14866:15232   */\n    tag_131:\n        /* \"#utility.yul\":15008:15011   */\n      0x00\n        /* \"#utility.yul\":15029:15096   */\n      tag_306\n        /* \"#utility.yul\":15093:15095   */\n      0x10\n        /* \"#utility.yul\":15088:15091   */\n      dup4\n        /* \"#utility.yul\":15029:15096   */\n      tag_93\n      jump\t// in\n    tag_306:\n        /* \"#utility.yul\":15022:15096   */\n      swap2\n      pop\n        /* \"#utility.yul\":15105:15198   */\n      tag_307\n        /* \"#utility.yul\":15194:15197   */\n      dup3\n        /* \"#utility.yul\":15105:15198   */\n      tag_130\n      jump\t// in\n    tag_307:\n        /* \"#utility.yul\":15223:15225   */\n      0x20\n        /* \"#utility.yul\":15218:15221   */\n      dup3\n        /* \"#utility.yul\":15214:15226   */\n      add\n        /* \"#utility.yul\":15207:15226   */\n      swap1\n      pop\n        /* \"#utility.yul\":14866:15232   */\n      swap2\n      swap1\n      pop\n      jump\t// out\n        /* \"#utility.yul\":15238:15657   */\n    tag_71:\n        /* \"#utility.yul\":15404:15408   */\n      0x00\n        /* \"#utility.yul\":15442:15444   */\n      0x20\n        /* \"#utility.yul\":15431:15440   */\n      dup3\n        /* \"#utility.yul\":15427:15445   */\n      add\n        /* \"#utility.yul\":15419:15445   */\n      swap1\n      pop\n        /* \"#utility.yul\":15491:15500   */\n      dup2\n        /* \"#utility.yul\":15485:15489   */\n      dup2\n        /* \"#utility.yul\":15481:15501   */\n      sub\n        /* \"#utility.yul\":15477:15478   */\n      0x00\n        /* \"#utility.yul\":15466:15475   */\n      dup4\n        /* \"#utility.yul\":15462:15479   */\n      add\n        /* \"#utility.yul\":15455:15502   */\n      mstore\n        /* \"#utility.yul\":15519:15650   */\n      tag_309\n        /* \"#utility.yul\":15645:15649   */\n      dup2\n        /* \"#utility.yul\":15519:15650   */\n      tag_131\n      jump\t// in\n    tag_309:\n        /* \"#utility.yul\":15511:15650   */\n      swap1\n      pop\n        /* \"#utility.yul\":15238:15657   */\n      swap2\n      swap1\n      pop\n      jump\t// out\n        /* \"#utility.yul\":15663:15839   */\n    tag_132:\n        /* \"#utility.yul\":15803:15831   */\n      0x204e6f7468696e6720746f20506c616365207468652042696420000000000000\n        /* \"#utility.yul\":15799:15800   */\n      0x00\n        /* \"#utility.yul\":15791:15797   */\n      dup3\n        /* \"#utility.yul\":15787:15801   */\n      add\n        /* \"#utility.yul\":15780:15832   */\n      mstore\n        /* \"#utility.yul\":15663:15839   */\n      pop\n      jump\t// out\n        /* \"#utility.yul\":15845:16211   */\n    tag_133:\n        /* \"#utility.yul\":15987:15990   */\n      0x00\n        /* \"#utility.yul\":16008:16075   */\n      tag_312\n        /* \"#utility.yul\":16072:16074   */\n      0x1a\n        /* \"#utility.yul\":16067:16070   */\n      dup4\n        /* \"#utility.yul\":16008:16075   */\n      tag_93\n      jump\t// in\n    tag_312:\n        /* \"#utility.yul\":16001:16075   */\n      swap2\n      pop\n        /* \"#utility.yul\":16084:16177   */\n      tag_313\n        /* \"#utility.yul\":16173:16176   */\n      dup3\n        /* \"#utility.yul\":16084:16177   */\n      tag_132\n      jump\t// in\n    tag_313:\n        /* \"#utility.yul\":16202:16204   */\n      0x20\n        /* \"#utility.yul\":16197:16200   */\n      dup3\n        /* \"#utility.yul\":16193:16205   */\n      add\n        /* \"#utility.yul\":16186:16205   */\n      swap1\n      pop\n        /* \"#utility.yul\":15845:16211   */\n      swap2\n      swap1\n      pop\n      jump\t// out\n        /* \"#utility.yul\":16217:16636   */\n    tag_74:\n        /* \"#utility.yul\":16383:16387   */\n      0x00\n        /* \"#utility.yul\":16421:16423   */\n      0x20\n        /* \"#utility.yul\":16410:16419   */\n      dup3\n        /* \"#utility.yul\":16406:16424   */\n      add\n        /* \"#utility.yul\":16398:16424   */\n      swap1\n      pop\n        /* \"#utility.yul\":16470:16479   */\n      dup2\n        /* \"#utility.yul\":16464:16468   */\n      dup2\n        /* \"#utility.yul\":16460:16480   */\n      sub\n        /* \"#utility.yul\":16456:16457   */\n      0x00\n        /* \"#utility.yul\":16445:16454   */\n      dup4\n        /* \"#utility.yul\":16441:16458   */\n      add\n        /* \"#utility.yul\":16434:16481   */\n      mstore\n        /* \"#utility.yul\":16498:16629   */\n      tag_315\n        /* \"#utility.yul\":16624:16628   */\n      dup2\n        /* \"#utility.yul\":16498:16629   */\n      tag_133\n      jump\t// in\n    tag_315:\n        /* \"#utility.yul\":16490:16629   */\n      swap1\n      pop\n        /* \"#utility.yul\":16217:16636   */\n      swap2\n      swap1\n      pop\n      jump\t// out\n        /* \"#utility.yul\":16642:16823   */\n    tag_134:\n        /* \"#utility.yul\":16782:16815   */\n      0x20496e6372656173652074686520616d6f756e74206279203120657468657200\n        /* \"#utility.yul\":16778:16779   */\n      0x00\n        /* \"#utility.yul\":16770:16776   */\n      dup3\n        /* \"#utility.yul\":16766:16780   */\n      add\n        /* \"#utility.yul\":16759:16816   */\n      mstore\n        /* \"#utility.yul\":16642:16823   */\n      pop\n      jump\t// out\n        /* \"#utility.yul\":16829:17195   */\n    tag_135:\n        /* \"#utility.yul\":16971:16974   */\n      0x00\n        /* \"#utility.yul\":16992:17059   */\n      tag_318\n        /* \"#utility.yul\":17056:17058   */\n      0x1f\n        /* \"#utility.yul\":17051:17054   */\n      dup4\n        /* \"#utility.yul\":16992:17059   */\n      tag_93\n      jump\t// in\n    tag_318:\n        /* \"#utility.yul\":16985:17059   */\n      swap2\n      pop\n        /* \"#utility.yul\":17068:17161   */\n      tag_319\n        /* \"#utility.yul\":17157:17160   */\n      dup3\n        /* \"#utility.yul\":17068:17161   */\n      tag_134\n      jump\t// in\n    tag_319:\n        /* \"#utility.yul\":17186:17188   */\n      0x20\n        /* \"#utility.yul\":17181:17184   */\n      dup3\n        /* \"#utility.yul\":17177:17189   */\n      add\n        /* \"#utility.yul\":17170:17189   */\n      swap1\n      pop\n        /* \"#utility.yul\":16829:17195   */\n      swap2\n      swap1\n      pop\n      jump\t// out\n        /* \"#utility.yul\":17201:17620   */\n    tag_77:\n        /* \"#utility.yul\":17367:17371   */\n      0x00\n        /* \"#utility.yul\":17405:17407   */\n      0x20\n        /* \"#utility.yul\":17394:17403   */\n      dup3\n        /* \"#utility.yul\":17390:17408   */\n      add\n        /* \"#utility.yul\":17382:17408   */\n      swap1\n      pop\n        /* \"#utility.yul\":17454:17463   */\n      dup2\n        /* \"#utility.yul\":17448:17452   */\n      dup2\n        /* \"#utility.yul\":17444:17464   */\n      sub\n        /* \"#utility.yul\":17440:17441   */\n      0x00\n        /* \"#utility.yul\":17429:17438   */\n      dup4\n        /* \"#utility.yul\":17425:17442   */\n      add\n        /* \"#utility.yul\":17418:17465   */\n      mstore\n        /* \"#utility.yul\":17482:17613   */\n      tag_321\n        /* \"#utility.yul\":17608:17612   */\n      dup2\n        /* \"#utility.yul\":17482:17613   */\n      tag_135\n      jump\t// in\n    tag_321:\n        /* \"#utility.yul\":17474:17613   */\n      swap1\n      pop\n        /* \"#utility.yul\":17201:17620   */\n      swap2\n      swap1\n      pop\n      jump\t// out\n        /* \"#utility.yul\":17626:17958   */\n    tag_81:\n        /* \"#utility.yul\":17747:17751   */\n      0x00\n        /* \"#utility.yul\":17785:17787   */\n      0x40\n        /* \"#utility.yul\":17774:17783   */\n      dup3\n        /* \"#utility.yul\":17770:17788   */\n      add\n        /* \"#utility.yul\":17762:17788   */\n      swap1\n      pop\n        /* \"#utility.yul\":17798:17869   */\n      tag_323\n        /* \"#utility.yul\":17866:17867   */\n      0x00\n        /* \"#utility.yul\":17855:17864   */\n      dup4\n        /* \"#utility.yul\":17851:17868   */\n      add\n        /* \"#utility.yul\":17842:17848   */\n      dup6\n        /* \"#utility.yul\":17798:17869   */\n      tag_98\n      jump\t// in\n    tag_323:\n        /* \"#utility.yul\":17879:17951   */\n      tag_324\n        /* \"#utility.yul\":17947:17949   */\n      0x20\n        /* \"#utility.yul\":17936:17945   */\n      dup4\n        /* \"#utility.yul\":17932:17950   */\n      add\n        /* \"#utility.yul\":17923:17929   */\n      dup5\n        /* \"#utility.yul\":17879:17951   */\n      tag_97\n      jump\t// in\n    tag_324:\n        /* \"#utility.yul\":17626:17958   */\n      swap4\n      swap3\n      pop\n      pop\n      pop\n      jump\t// out\n\n    auxdata: 0xa2646970667358221220254ff6895d01c9433c938a9d52d6a147241c45b1a57f9658d23704485a813b6c64736f6c63430008120033\n}\n",
				"bytecode": {
					"linkReferences": {},
					"object": "608060405234801561001057600080fd5b506116de806100206000396000f3fe6080604052600436106100705760003560e01c80637090c36e1161004e5780637090c36e146101095780638226508d14610146578063859b97fe14610183578063d98b9bb5146101ac57610070565b8063069ea3621461007557806332627af9146100b75780636db2a303146100e0575b600080fd5b34801561008157600080fd5b5061009c60048036038101906100979190610db5565b6101c8565b6040516100ae96959493929190610ea3565b60405180910390f35b3480156100c357600080fd5b506100de60048036038101906100d99190611040565b6102d9565b005b3480156100ec57600080fd5b50610107600480360381019061010291906110da565b61061f565b005b34801561011557600080fd5b50610130600480360381019061012b9190610db5565b610623565b60405161013d919061111a565b60405180910390f35b34801561015257600080fd5b5061016d60048036038101906101689190610db5565b6106a0565b60405161017a9190611135565b60405180910390f35b34801561018f57600080fd5b506101aa60048036038101906101a59190610db5565b6106fd565b005b6101c660048036038101906101c19190610db5565b61080c565b005b6000602052816000526040600020602052806000526040600020600091509150508060000180546101f89061117f565b80601f01602080910402602001604051908101604052809291908181526020018280546102249061117f565b80156102715780601f1061024657610100808354040283529160200191610271565b820191906000526020600020905b81548152906001019060200180831161025457829003601f168201915b5050505050908060010154908060020154908060030160009054906101000a900473ffffffffffffffffffffffffffffffffffffffff16908060040154908060050160009054906101000a900473ffffffffffffffffffffffffffffffffffffffff16905086565b600073ffffffffffffffffffffffffffffffffffffffff163373ffffffffffffffffffffffffffffffffffffffff1603610348576040517f08c379a000000000000000000000000000000000000000000000000000000000815260040161033f906111fc565b60405180910390fd5b806000803373ffffffffffffffffffffffffffffffffffffffff1673ffffffffffffffffffffffffffffffffffffffff168152602001908152602001600020600084815260200190815260200160002060000190816103a791906113c8565b5060008060003373ffffffffffffffffffffffffffffffffffffffff1673ffffffffffffffffffffffffffffffffffffffff16815260200190815260200160002060008481526020019081526020016000206001018190555060008060003373ffffffffffffffffffffffffffffffffffffffff1673ffffffffffffffffffffffffffffffffffffffff16815260200190815260200160002060008481526020019081526020016000206002018190555060008060003373ffffffffffffffffffffffffffffffffffffffff1673ffffffffffffffffffffffffffffffffffffffff168152602001908152602001600020600084815260200190815260200160002060030160006101000a81548173ffffffffffffffffffffffffffffffffffffffff021916908373ffffffffffffffffffffffffffffffffffffffff16021790555060008060003373ffffffffffffffffffffffffffffffffffffffff1673ffffffffffffffffffffffffffffffffffffffff168152602001908152602001600020600084815260200190815260200160002060050160006101000a81548173ffffffffffffffffffffffffffffffffffffffff021916908373ffffffffffffffffffffffffffffffffffffffff160217905550610e104261058a91906114c9565b6000803373ffffffffffffffffffffffffffffffffffffffff1673ffffffffffffffffffffffffffffffffffffffff1681526020019081526020016000206000848152602001908152602001600020600401819055507fa7806320b37116843ec008da1594a383d57d02cf004956b72c34754bf6395070338383604051610613939291906114fd565b60405180910390a15050565b5050565b60008060008473ffffffffffffffffffffffffffffffffffffffff1673ffffffffffffffffffffffffffffffffffffffff168152602001908152602001600020600083815260200190815260200160002060030160009054906101000a900473ffffffffffffffffffffffffffffffffffffffff16905092915050565b60008060008473ffffffffffffffffffffffffffffffffffffffff1673ffffffffffffffffffffffffffffffffffffffff168152602001908152602001600020600083815260200190815260200160002060020154905092915050565b6000808373ffffffffffffffffffffffffffffffffffffffff1673ffffffffffffffffffffffffffffffffffffffff168152602001908152602001600020600082815260200190815260200160002060030160009054906101000a900473ffffffffffffffffffffffffffffffffffffffff1673ffffffffffffffffffffffffffffffffffffffff166108fc6000808573ffffffffffffffffffffffffffffffffffffffff1673ffffffffffffffffffffffffffffffffffffffff1681526020019081526020016000206000848152602001908152602001600020600201549081150290604051600060405180830381858888f19350505050158015610807573d6000803e3d6000fd5b505050565b3373ffffffffffffffffffffffffffffffffffffffff168273ffffffffffffffffffffffffffffffffffffffff160361087a576040517f08c379a000000000000000000000000000000000000000000000000000000000815260040161087190611587565b60405180910390fd5b60008060008473ffffffffffffffffffffffffffffffffffffffff1673ffffffffffffffffffffffffffffffffffffffff1681526020019081526020016000206000838152602001908152602001600020600401541161090f576040517f08c379a0000000000000000000000000000000000000000000000000000000008152600401610906906115f3565b60405180910390fd5b6000808373ffffffffffffffffffffffffffffffffffffffff1673ffffffffffffffffffffffffffffffffffffffff16815260200190815260200160002060008281526020019081526020016000206002015434116109a3576040517f08c379a000000000000000000000000000000000000000000000000000000000815260040161099a9061165f565b60405180910390fd5b346000808473ffffffffffffffffffffffffffffffffffffffff1673ffffffffffffffffffffffffffffffffffffffff1681526020019081526020016000206000838152602001908152602001600020600101819055506000808373ffffffffffffffffffffffffffffffffffffffff1673ffffffffffffffffffffffffffffffffffffffff1681526020019081526020016000206000828152602001908152602001600020600101546000808473ffffffffffffffffffffffffffffffffffffffff1673ffffffffffffffffffffffffffffffffffffffff168152602001908152602001600020600083815260200190815260200160002060020181905550336000808473ffffffffffffffffffffffffffffffffffffffff1673ffffffffffffffffffffffffffffffffffffffff168152602001908152602001600020600083815260200190815260200160002060050160006101000a81548173ffffffffffffffffffffffffffffffffffffffff021916908373ffffffffffffffffffffffffffffffffffffffff160217905550336000808473ffffffffffffffffffffffffffffffffffffffff1673ffffffffffffffffffffffffffffffffffffffff168152602001908152602001600020600083815260200190815260200160002060030160006101000a81548173ffffffffffffffffffffffffffffffffffffffff021916908373ffffffffffffffffffffffffffffffffffffffff1602179055506000808373ffffffffffffffffffffffffffffffffffffffff1673ffffffffffffffffffffffffffffffffffffffff168152602001908152602001600020600082815260200190815260200160002060050160009054906101000a900473ffffffffffffffffffffffffffffffffffffffff1673ffffffffffffffffffffffffffffffffffffffff166108fc6000808573ffffffffffffffffffffffffffffffffffffffff1673ffffffffffffffffffffffffffffffffffffffff1681526020019081526020016000206000848152602001908152602001600020600201549081150290604051600060405180830381858888f19350505050158015610ccf573d6000803e3d6000fd5b507fe684a55f31b79eca403df938249029212a5925ec6be8012e099b45bc1019e5d23334604051610d0192919061167f565b60405180910390a15050565b6000604051905090565b600080fd5b600080fd5b600073ffffffffffffffffffffffffffffffffffffffff82169050919050565b6000610d4c82610d21565b9050919050565b610d5c81610d41565b8114610d6757600080fd5b50565b600081359050610d7981610d53565b92915050565b6000819050919050565b610d9281610d7f565b8114610d9d57600080fd5b50565b600081359050610daf81610d89565b92915050565b60008060408385031215610dcc57610dcb610d17565b5b6000610dda85828601610d6a565b9250506020610deb85828601610da0565b9150509250929050565b600081519050919050565b600082825260208201905092915050565b60005b83811015610e2f578082015181840152602081019050610e14565b60008484015250505050565b6000601f19601f8301169050919050565b6000610e5782610df5565b610e618185610e00565b9350610e71818560208601610e11565b610e7a81610e3b565b840191505092915050565b610e8e81610d7f565b82525050565b610e9d81610d41565b82525050565b600060c0820190508181036000830152610ebd8189610e4c565b9050610ecc6020830188610e85565b610ed96040830187610e85565b610ee66060830186610e94565b610ef36080830185610e85565b610f0060a0830184610e94565b979650505050505050565b600080fd5b600080fd5b7f4e487b7100000000000000000000000000000000000000000000000000000000600052604160045260246000fd5b610f4d82610e3b565b810181811067ffffffffffffffff82111715610f6c57610f6b610f15565b5b80604052505050565b6000610f7f610d0d565b9050610f8b8282610f44565b919050565b600067ffffffffffffffff821115610fab57610faa610f15565b5b610fb482610e3b565b9050602081019050919050565b82818337600083830152505050565b6000610fe3610fde84610f90565b610f75565b905082815260208101848484011115610fff57610ffe610f10565b5b61100a848285610fc1565b509392505050565b600082601f83011261102757611026610f0b565b5b8135611037848260208601610fd0565b91505092915050565b6000806040838503121561105757611056610d17565b5b600061106585828601610da0565b925050602083013567ffffffffffffffff81111561108657611085610d1c565b5b61109285828601611012565b9150509250929050565b60006110a782610d21565b9050919050565b6110b78161109c565b81146110c257600080fd5b50565b6000813590506110d4816110ae565b92915050565b600080604083850312156110f1576110f0610d17565b5b60006110ff858286016110c5565b925050602061111085828601610da0565b9150509250929050565b600060208201905061112f6000830184610e94565b92915050565b600060208201905061114a6000830184610e85565b92915050565b7f4e487b7100000000000000000000000000000000000000000000000000000000600052602260045260246000fd5b6000600282049050600182168061119757607f821691505b6020821081036111aa576111a9611150565b5b50919050565b7f4e6f742056616c69640000000000000000000000000000000000000000000000600082015250565b60006111e6600983610e00565b91506111f1826111b0565b602082019050919050565b60006020820190508181036000830152611215816111d9565b9050919050565b60008190508160005260206000209050919050565b60006020601f8301049050919050565b600082821b905092915050565b60006008830261127e7fffffffffffffffffffffffffffffffffffffffffffffffffffffffffffffffff82611241565b6112888683611241565b95508019841693508086168417925050509392505050565b6000819050919050565b60006112c56112c06112bb84610d7f565b6112a0565b610d7f565b9050919050565b6000819050919050565b6112df836112aa565b6112f36112eb826112cc565b84845461124e565b825550505050565b600090565b6113086112fb565b6113138184846112d6565b505050565b5b818110156113375761132c600082611300565b600181019050611319565b5050565b601f82111561137c5761134d8161121c565b61135684611231565b81016020851015611365578190505b61137961137185611231565b830182611318565b50505b505050565b600082821c905092915050565b600061139f60001984600802611381565b1980831691505092915050565b60006113b8838361138e565b9150826002028217905092915050565b6113d182610df5565b67ffffffffffffffff8111156113ea576113e9610f15565b5b6113f4825461117f565b6113ff82828561133b565b600060209050601f8311600181146114325760008415611420578287015190505b61142a85826113ac565b865550611492565b601f1984166114408661121c565b60005b8281101561146857848901518255600182019150602085019450602081019050611443565b868310156114855784890151611481601f89168261138e565b8355505b6001600288020188555050505b505050505050565b7f4e487b7100000000000000000000000000000000000000000000000000000000600052601160045260246000fd5b60006114d482610d7f565b91506114df83610d7f565b92508282019050808211156114f7576114f661149a565b5b92915050565b60006060820190506115126000830186610e94565b61151f6020830185610e85565b81810360408301526115318184610e4c565b9050949350505050565b7f206f776e65722063616e27742062696400000000000000000000000000000000600082015250565b6000611571601083610e00565b915061157c8261153b565b602082019050919050565b600060208201905081810360008301526115a081611564565b9050919050565b7f204e6f7468696e6720746f20506c616365207468652042696420000000000000600082015250565b60006115dd601a83610e00565b91506115e8826115a7565b602082019050919050565b6000602082019050818103600083015261160c816115d0565b9050919050565b7f20496e6372656173652074686520616d6f756e74206279203120657468657200600082015250565b6000611649601f83610e00565b915061165482611613565b602082019050919050565b600060208201905081810360008301526116788161163c565b9050919050565b60006040820190506116946000830185610e94565b6116a16020830184610e85565b939250505056fea2646970667358221220254ff6895d01c9433c938a9d52d6a147241c45b1a57f9658d23704485a813b6c64736f6c63430008120033",
					"opcodes": "PUSH1 0x80 PUSH1 0x40 MSTORE CALLVALUE DUP1 ISZERO PUSH2 0x10 JUMPI PUSH1 0x0 DUP1 REVERT JUMPDEST POP PUSH2 0x16DE DUP1 PUSH2 0x20 PUSH1 0x0 CODECOPY PUSH1 0x0 RETURN INVALID PUSH1 0x80 PUSH1 0x40 MSTORE PUSH1 0x4 CALLDATASIZE LT PUSH2 0x70 JUMPI PUSH1 0x0 CALLDATALOAD PUSH1 0xE0 SHR DUP1 PUSH4 0x7090C36E GT PUSH2 0x4E JUMPI DUP1 PUSH4 0x7090C36E EQ PUSH2 0x109 JUMPI DUP1 PUSH4 0x8226508D EQ PUSH2 0x146 JUMPI DUP1 PUSH4 0x859B97FE EQ PUSH2 0x183 JUMPI DUP1 PUSH4 0xD98B9BB5 EQ PUSH2 0x1AC JUMPI PUSH2 0x70 JUMP JUMPDEST DUP1 PUSH4 0x69EA362 EQ PUSH2 0x75 JUMPI DUP1 PUSH4 0x32627AF9 EQ PUSH2 0xB7 JUMPI DUP1 PUSH4 0x6DB2A303 EQ PUSH2 0xE0 JUMPI JUMPDEST PUSH1 0x0 DUP1 REVERT JUMPDEST CALLVALUE DUP1 ISZERO PUSH2 0x81 JUMPI PUSH1 0x0 DUP1 REVERT JUMPDEST POP PUSH2 0x9C PUSH1 0x4 DUP1 CALLDATASIZE SUB DUP2 ADD SWAP1 PUSH2 0x97 SWAP2 SWAP1 PUSH2 0xDB5 JUMP JUMPDEST PUSH2 0x1C8 JUMP JUMPDEST PUSH1 0x40 MLOAD PUSH2 0xAE SWAP7 SWAP6 SWAP5 SWAP4 SWAP3 SWAP2 SWAP1 PUSH2 0xEA3 JUMP JUMPDEST PUSH1 0x40 MLOAD DUP1 SWAP2 SUB SWAP1 RETURN JUMPDEST CALLVALUE DUP1 ISZERO PUSH2 0xC3 JUMPI PUSH1 0x0 DUP1 REVERT JUMPDEST POP PUSH2 0xDE PUSH1 0x4 DUP1 CALLDATASIZE SUB DUP2 ADD SWAP1 PUSH2 0xD9 SWAP2 SWAP1 PUSH2 0x1040 JUMP JUMPDEST PUSH2 0x2D9 JUMP JUMPDEST STOP JUMPDEST CALLVALUE DUP1 ISZERO PUSH2 0xEC JUMPI PUSH1 0x0 DUP1 REVERT JUMPDEST POP PUSH2 0x107 PUSH1 0x4 DUP1 CALLDATASIZE SUB DUP2 ADD SWAP1 PUSH2 0x102 SWAP2 SWAP1 PUSH2 0x10DA JUMP JUMPDEST PUSH2 0x61F JUMP JUMPDEST STOP JUMPDEST CALLVALUE DUP1 ISZERO PUSH2 0x115 JUMPI PUSH1 0x0 DUP1 REVERT JUMPDEST POP PUSH2 0x130 PUSH1 0x4 DUP1 CALLDATASIZE SUB DUP2 ADD SWAP1 PUSH2 0x12B SWAP2 SWAP1 PUSH2 0xDB5 JUMP JUMPDEST PUSH2 0x623 JUMP JUMPDEST PUSH1 0x40 MLOAD PUSH2 0x13D SWAP2 SWAP1 PUSH2 0x111A JUMP JUMPDEST PUSH1 0x40 MLOAD DUP1 SWAP2 SUB SWAP1 RETURN JUMPDEST CALLVALUE DUP1 ISZERO PUSH2 0x152 JUMPI PUSH1 0x0 DUP1 REVERT JUMPDEST POP PUSH2 0x16D PUSH1 0x4 DUP1 CALLDATASIZE SUB DUP2 ADD SWAP1 PUSH2 0x168 SWAP2 SWAP1 PUSH2 0xDB5 JUMP JUMPDEST PUSH2 0x6A0 JUMP JUMPDEST PUSH1 0x40 MLOAD PUSH2 0x17A SWAP2 SWAP1 PUSH2 0x1135 JUMP JUMPDEST PUSH1 0x40 MLOAD DUP1 SWAP2 SUB SWAP1 RETURN JUMPDEST CALLVALUE DUP1 ISZERO PUSH2 0x18F JUMPI PUSH1 0x0 DUP1 REVERT JUMPDEST POP PUSH2 0x1AA PUSH1 0x4 DUP1 CALLDATASIZE SUB DUP2 ADD SWAP1 PUSH2 0x1A5 SWAP2 SWAP1 PUSH2 0xDB5 JUMP JUMPDEST PUSH2 0x6FD JUMP JUMPDEST STOP JUMPDEST PUSH2 0x1C6 PUSH1 0x4 DUP1 CALLDATASIZE SUB DUP2 ADD SWAP1 PUSH2 0x1C1 SWAP2 SWAP1 PUSH2 0xDB5 JUMP JUMPDEST PUSH2 0x80C JUMP JUMPDEST STOP JUMPDEST PUSH1 0x0 PUSH1 0x20 MSTORE DUP2 PUSH1 0x0 MSTORE PUSH1 0x40 PUSH1 0x0 KECCAK256 PUSH1 0x20 MSTORE DUP1 PUSH1 0x0 MSTORE PUSH1 0x40 PUSH1 0x0 KECCAK256 PUSH1 0x0 SWAP2 POP SWAP2 POP POP DUP1 PUSH1 0x0 ADD DUP1 SLOAD PUSH2 0x1F8 SWAP1 PUSH2 0x117F JUMP JUMPDEST DUP1 PUSH1 0x1F ADD PUSH1 0x20 DUP1 SWAP2 DIV MUL PUSH1 0x20 ADD PUSH1 0x40 MLOAD SWAP1 DUP2 ADD PUSH1 0x40 MSTORE DUP1 SWAP3 SWAP2 SWAP1 DUP2 DUP2 MSTORE PUSH1 0x20 ADD DUP3 DUP1 SLOAD PUSH2 0x224 SWAP1 PUSH2 0x117F JUMP JUMPDEST DUP1 ISZERO PUSH2 0x271 JUMPI DUP1 PUSH1 0x1F LT PUSH2 0x246 JUMPI PUSH2 0x100 DUP1 DUP4 SLOAD DIV MUL DUP4 MSTORE SWAP2 PUSH1 0x20 ADD SWAP2 PUSH2 0x271 JUMP JUMPDEST DUP3 ADD SWAP2 SWAP1 PUSH1 0x0 MSTORE PUSH1 0x20 PUSH1 0x0 KECCAK256 SWAP1 JUMPDEST DUP2 SLOAD DUP2 MSTORE SWAP1 PUSH1 0x1 ADD SWAP1 PUSH1 0x20 ADD DUP1 DUP4 GT PUSH2 0x254 JUMPI DUP3 SWAP1 SUB PUSH1 0x1F AND DUP3 ADD SWAP2 JUMPDEST POP POP POP POP POP SWAP1 DUP1 PUSH1 0x1 ADD SLOAD SWAP1 DUP1 PUSH1 0x2 ADD SLOAD SWAP1 DUP1 PUSH1 0x3 ADD PUSH1 0x0 SWAP1 SLOAD SWAP1 PUSH2 0x100 EXP SWAP1 DIV PUSH20 0xFFFFFFFFFFFFFFFFFFFFFFFFFFFFFFFFFFFFFFFF AND SWAP1 DUP1 PUSH1 0x4 ADD SLOAD SWAP1 DUP1 PUSH1 0x5 ADD PUSH1 0x0 SWAP1 SLOAD SWAP1 PUSH2 0x100 EXP SWAP1 DIV PUSH20 0xFFFFFFFFFFFFFFFFFFFFFFFFFFFFFFFFFFFFFFFF AND SWAP1 POP DUP7 JUMP JUMPDEST PUSH1 0x0 PUSH20 0xFFFFFFFFFFFFFFFFFFFFFFFFFFFFFFFFFFFFFFFF AND CALLER PUSH20 0xFFFFFFFFFFFFFFFFFFFFFFFFFFFFFFFFFFFFFFFF AND SUB PUSH2 0x348 JUMPI PUSH1 0x40 MLOAD PUSH32 0x8C379A000000000000000000000000000000000000000000000000000000000 DUP2 MSTORE PUSH1 0x4 ADD PUSH2 0x33F SWAP1 PUSH2 0x11FC JUMP JUMPDEST PUSH1 0x40 MLOAD DUP1 SWAP2 SUB SWAP1 REVERT JUMPDEST DUP1 PUSH1 0x0 DUP1 CALLER PUSH20 0xFFFFFFFFFFFFFFFFFFFFFFFFFFFFFFFFFFFFFFFF AND PUSH20 0xFFFFFFFFFFFFFFFFFFFFFFFFFFFFFFFFFFFFFFFF AND DUP2 MSTORE PUSH1 0x20 ADD SWAP1 DUP2 MSTORE PUSH1 0x20 ADD PUSH1 0x0 KECCAK256 PUSH1 0x0 DUP5 DUP2 MSTORE PUSH1 0x20 ADD SWAP1 DUP2 MSTORE PUSH1 0x20 ADD PUSH1 0x0 KECCAK256 PUSH1 0x0 ADD SWAP1 DUP2 PUSH2 0x3A7 SWAP2 SWAP1 PUSH2 0x13C8 JUMP JUMPDEST POP PUSH1 0x0 DUP1 PUSH1 0x0 CALLER PUSH20 0xFFFFFFFFFFFFFFFFFFFFFFFFFFFFFFFFFFFFFFFF AND PUSH20 0xFFFFFFFFFFFFFFFFFFFFFFFFFFFFFFFFFFFFFFFF AND DUP2 MSTORE PUSH1 0x20 ADD SWAP1 DUP2 MSTORE PUSH1 0x20 ADD PUSH1 0x0 KECCAK256 PUSH1 0x0 DUP5 DUP2 MSTORE PUSH1 0x20 ADD SWAP1 DUP2 MSTORE PUSH1 0x20 ADD PUSH1 0x0 KECCAK256 PUSH1 0x1 ADD DUP2 SWAP1 SSTORE POP PUSH1 0x0 DUP1 PUSH1 0x0 CALLER PUSH20 0xFFFFFFFFFFFFFFFFFFFFFFFFFFFFFFFFFFFFFFFF AND PUSH20 0xFFFFFFFFFFFFFFFFFFFFFFFFFFFFFFFFFFFFFFFF AND DUP2 MSTORE PUSH1 0x20 ADD SWAP1 DUP2 MSTORE PUSH1 0x20 ADD PUSH1 0x0 KECCAK256 PUSH1 0x0 DUP5 DUP2 MSTORE PUSH1 0x20 ADD SWAP1 DUP2 MSTORE PUSH1 0x20 ADD PUSH1 0x0 KECCAK256 PUSH1 0x2 ADD DUP2 SWAP1 SSTORE POP PUSH1 0x0 DUP1 PUSH1 0x0 CALLER PUSH20 0xFFFFFFFFFFFFFFFFFFFFFFFFFFFFFFFFFFFFFFFF AND PUSH20 0xFFFFFFFFFFFFFFFFFFFFFFFFFFFFFFFFFFFFFFFF AND DUP2 MSTORE PUSH1 0x20 ADD SWAP1 DUP2 MSTORE PUSH1 0x20 ADD PUSH1 0x0 KECCAK256 PUSH1 0x0 DUP5 DUP2 MSTORE PUSH1 0x20 ADD SWAP1 DUP2 MSTORE PUSH1 0x20 ADD PUSH1 0x0 KECCAK256 PUSH1 0x3 ADD PUSH1 0x0 PUSH2 0x100 EXP DUP2 SLOAD DUP2 PUSH20 0xFFFFFFFFFFFFFFFFFFFFFFFFFFFFFFFFFFFFFFFF MUL NOT AND SWAP1 DUP4 PUSH20 0xFFFFFFFFFFFFFFFFFFFFFFFFFFFFFFFFFFFFFFFF AND MUL OR SWAP1 SSTORE POP PUSH1 0x0 DUP1 PUSH1 0x0 CALLER PUSH20 0xFFFFFFFFFFFFFFFFFFFFFFFFFFFFFFFFFFFFFFFF AND PUSH20 0xFFFFFFFFFFFFFFFFFFFFFFFFFFFFFFFFFFFFFFFF AND DUP2 MSTORE PUSH1 0x20 ADD SWAP1 DUP2 MSTORE PUSH1 0x20 ADD PUSH1 0x0 KECCAK256 PUSH1 0x0 DUP5 DUP2 MSTORE PUSH1 0x20 ADD SWAP1 DUP2 MSTORE PUSH1 0x20 ADD PUSH1 0x0 KECCAK256 PUSH1 0x5 ADD PUSH1 0x0 PUSH2 0x100 EXP DUP2 SLOAD DUP2 PUSH20 0xFFFFFFFFFFFFFFFFFFFFFFFFFFFFFFFFFFFFFFFF MUL NOT AND SWAP1 DUP4 PUSH20 0xFFFFFFFFFFFFFFFFFFFFFFFFFFFFFFFFFFFFFFFF AND MUL OR SWAP1 SSTORE POP PUSH2 0xE10 TIMESTAMP PUSH2 0x58A SWAP2 SWAP1 PUSH2 0x14C9 JUMP JUMPDEST PUSH1 0x0 DUP1 CALLER PUSH20 0xFFFFFFFFFFFFFFFFFFFFFFFFFFFFFFFFFFFFFFFF AND PUSH20 0xFFFFFFFFFFFFFFFFFFFFFFFFFFFFFFFFFFFFFFFF AND DUP2 MSTORE PUSH1 0x20 ADD SWAP1 DUP2 MSTORE PUSH1 0x20 ADD PUSH1 0x0 KECCAK256 PUSH1 0x0 DUP5 DUP2 MSTORE PUSH1 0x20 ADD SWAP1 DUP2 MSTORE PUSH1 0x20 ADD PUSH1 0x0 KECCAK256 PUSH1 0x4 ADD DUP2 SWAP1 SSTORE POP PUSH32 0xA7806320B37116843EC008DA1594A383D57D02CF004956B72C34754BF6395070 CALLER DUP4 DUP4 PUSH1 0x40 MLOAD PUSH2 0x613 SWAP4 SWAP3 SWAP2 SWAP1 PUSH2 0x14FD JUMP JUMPDEST PUSH1 0x40 MLOAD DUP1 SWAP2 SUB SWAP1 LOG1 POP POP JUMP JUMPDEST POP POP JUMP JUMPDEST PUSH1 0x0 DUP1 PUSH1 0x0 DUP5 PUSH20 0xFFFFFFFFFFFFFFFFFFFFFFFFFFFFFFFFFFFFFFFF AND PUSH20 0xFFFFFFFFFFFFFFFFFFFFFFFFFFFFFFFFFFFFFFFF AND DUP2 MSTORE PUSH1 0x20 ADD SWAP1 DUP2 MSTORE PUSH1 0x20 ADD PUSH1 0x0 KECCAK256 PUSH1 0x0 DUP4 DUP2 MSTORE PUSH1 0x20 ADD SWAP1 DUP2 MSTORE PUSH1 0x20 ADD PUSH1 0x0 KECCAK256 PUSH1 0x3 ADD PUSH1 0x0 SWAP1 SLOAD SWAP1 PUSH2 0x100 EXP SWAP1 DIV PUSH20 0xFFFFFFFFFFFFFFFFFFFFFFFFFFFFFFFFFFFFFFFF AND SWAP1 POP SWAP3 SWAP2 POP POP JUMP JUMPDEST PUSH1 0x0 DUP1 PUSH1 0x0 DUP5 PUSH20 0xFFFFFFFFFFFFFFFFFFFFFFFFFFFFFFFFFFFFFFFF AND PUSH20 0xFFFFFFFFFFFFFFFFFFFFFFFFFFFFFFFFFFFFFFFF AND DUP2 MSTORE PUSH1 0x20 ADD SWAP1 DUP2 MSTORE PUSH1 0x20 ADD PUSH1 0x0 KECCAK256 PUSH1 0x0 DUP4 DUP2 MSTORE PUSH1 0x20 ADD SWAP1 DUP2 MSTORE PUSH1 0x20 ADD PUSH1 0x0 KECCAK256 PUSH1 0x2 ADD SLOAD SWAP1 POP SWAP3 SWAP2 POP POP JUMP JUMPDEST PUSH1 0x0 DUP1 DUP4 PUSH20 0xFFFFFFFFFFFFFFFFFFFFFFFFFFFFFFFFFFFFFFFF AND PUSH20 0xFFFFFFFFFFFFFFFFFFFFFFFFFFFFFFFFFFFFFFFF AND DUP2 MSTORE PUSH1 0x20 ADD SWAP1 DUP2 MSTORE PUSH1 0x20 ADD PUSH1 0x0 KECCAK256 PUSH1 0x0 DUP3 DUP2 MSTORE PUSH1 0x20 ADD SWAP1 DUP2 MSTORE PUSH1 0x20 ADD PUSH1 0x0 KECCAK256 PUSH1 0x3 ADD PUSH1 0x0 SWAP1 SLOAD SWAP1 PUSH2 0x100 EXP SWAP1 DIV PUSH20 0xFFFFFFFFFFFFFFFFFFFFFFFFFFFFFFFFFFFFFFFF AND PUSH20 0xFFFFFFFFFFFFFFFFFFFFFFFFFFFFFFFFFFFFFFFF AND PUSH2 0x8FC PUSH1 0x0 DUP1 DUP6 PUSH20 0xFFFFFFFFFFFFFFFFFFFFFFFFFFFFFFFFFFFFFFFF AND PUSH20 0xFFFFFFFFFFFFFFFFFFFFFFFFFFFFFFFFFFFFFFFF AND DUP2 MSTORE PUSH1 0x20 ADD SWAP1 DUP2 MSTORE PUSH1 0x20 ADD PUSH1 0x0 KECCAK256 PUSH1 0x0 DUP5 DUP2 MSTORE PUSH1 0x20 ADD SWAP1 DUP2 MSTORE PUSH1 0x20 ADD PUSH1 0x0 KECCAK256 PUSH1 0x2 ADD SLOAD SWAP1 DUP2 ISZERO MUL SWAP1 PUSH1 0x40 MLOAD PUSH1 0x0 PUSH1 0x40 MLOAD DUP1 DUP4 SUB DUP2 DUP6 DUP9 DUP9 CALL SWAP4 POP POP POP POP ISZERO DUP1 ISZERO PUSH2 0x807 JUMPI RETURNDATASIZE PUSH1 0x0 DUP1 RETURNDATACOPY RETURNDATASIZE PUSH1 0x0 REVERT JUMPDEST POP POP POP JUMP JUMPDEST CALLER PUSH20 0xFFFFFFFFFFFFFFFFFFFFFFFFFFFFFFFFFFFFFFFF AND DUP3 PUSH20 0xFFFFFFFFFFFFFFFFFFFFFFFFFFFFFFFFFFFFFFFF AND SUB PUSH2 0x87A JUMPI PUSH1 0x40 MLOAD PUSH32 0x8C379A000000000000000000000000000000000000000000000000000000000 DUP2 MSTORE PUSH1 0x4 ADD PUSH2 0x871 SWAP1 PUSH2 0x1587 JUMP JUMPDEST PUSH1 0x40 MLOAD DUP1 SWAP2 SUB SWAP1 REVERT JUMPDEST PUSH1 0x0 DUP1 PUSH1 0x0 DUP5 PUSH20 0xFFFFFFFFFFFFFFFFFFFFFFFFFFFFFFFFFFFFFFFF AND PUSH20 0xFFFFFFFFFFFFFFFFFFFFFFFFFFFFFFFFFFFFFFFF AND DUP2 MSTORE PUSH1 0x20 ADD SWAP1 DUP2 MSTORE PUSH1 0x20 ADD PUSH1 0x0 KECCAK256 PUSH1 0x0 DUP4 DUP2 MSTORE PUSH1 0x20 ADD SWAP1 DUP2 MSTORE PUSH1 0x20 ADD PUSH1 0x0 KECCAK256 PUSH1 0x4 ADD SLOAD GT PUSH2 0x90F JUMPI PUSH1 0x40 MLOAD PUSH32 0x8C379A000000000000000000000000000000000000000000000000000000000 DUP2 MSTORE PUSH1 0x4 ADD PUSH2 0x906 SWAP1 PUSH2 0x15F3 JUMP JUMPDEST PUSH1 0x40 MLOAD DUP1 SWAP2 SUB SWAP1 REVERT JUMPDEST PUSH1 0x0 DUP1 DUP4 PUSH20 0xFFFFFFFFFFFFFFFFFFFFFFFFFFFFFFFFFFFFFFFF AND PUSH20 0xFFFFFFFFFFFFFFFFFFFFFFFFFFFFFFFFFFFFFFFF AND DUP2 MSTORE PUSH1 0x20 ADD SWAP1 DUP2 MSTORE PUSH1 0x20 ADD PUSH1 0x0 KECCAK256 PUSH1 0x0 DUP3 DUP2 MSTORE PUSH1 0x20 ADD SWAP1 DUP2 MSTORE PUSH1 0x20 ADD PUSH1 0x0 KECCAK256 PUSH1 0x2 ADD SLOAD CALLVALUE GT PUSH2 0x9A3 JUMPI PUSH1 0x40 MLOAD PUSH32 0x8C379A000000000000000000000000000000000000000000000000000000000 DUP2 MSTORE PUSH1 0x4 ADD PUSH2 0x99A SWAP1 PUSH2 0x165F JUMP JUMPDEST PUSH1 0x40 MLOAD DUP1 SWAP2 SUB SWAP1 REVERT JUMPDEST CALLVALUE PUSH1 0x0 DUP1 DUP5 PUSH20 0xFFFFFFFFFFFFFFFFFFFFFFFFFFFFFFFFFFFFFFFF AND PUSH20 0xFFFFFFFFFFFFFFFFFFFFFFFFFFFFFFFFFFFFFFFF AND DUP2 MSTORE PUSH1 0x20 ADD SWAP1 DUP2 MSTORE PUSH1 0x20 ADD PUSH1 0x0 KECCAK256 PUSH1 0x0 DUP4 DUP2 MSTORE PUSH1 0x20 ADD SWAP1 DUP2 MSTORE PUSH1 0x20 ADD PUSH1 0x0 KECCAK256 PUSH1 0x1 ADD DUP2 SWAP1 SSTORE POP PUSH1 0x0 DUP1 DUP4 PUSH20 0xFFFFFFFFFFFFFFFFFFFFFFFFFFFFFFFFFFFFFFFF AND PUSH20 0xFFFFFFFFFFFFFFFFFFFFFFFFFFFFFFFFFFFFFFFF AND DUP2 MSTORE PUSH1 0x20 ADD SWAP1 DUP2 MSTORE PUSH1 0x20 ADD PUSH1 0x0 KECCAK256 PUSH1 0x0 DUP3 DUP2 MSTORE PUSH1 0x20 ADD SWAP1 DUP2 MSTORE PUSH1 0x20 ADD PUSH1 0x0 KECCAK256 PUSH1 0x1 ADD SLOAD PUSH1 0x0 DUP1 DUP5 PUSH20 0xFFFFFFFFFFFFFFFFFFFFFFFFFFFFFFFFFFFFFFFF AND PUSH20 0xFFFFFFFFFFFFFFFFFFFFFFFFFFFFFFFFFFFFFFFF AND DUP2 MSTORE PUSH1 0x20 ADD SWAP1 DUP2 MSTORE PUSH1 0x20 ADD PUSH1 0x0 KECCAK256 PUSH1 0x0 DUP4 DUP2 MSTORE PUSH1 0x20 ADD SWAP1 DUP2 MSTORE PUSH1 0x20 ADD PUSH1 0x0 KECCAK256 PUSH1 0x2 ADD DUP2 SWAP1 SSTORE POP CALLER PUSH1 0x0 DUP1 DUP5 PUSH20 0xFFFFFFFFFFFFFFFFFFFFFFFFFFFFFFFFFFFFFFFF AND PUSH20 0xFFFFFFFFFFFFFFFFFFFFFFFFFFFFFFFFFFFFFFFF AND DUP2 MSTORE PUSH1 0x20 ADD SWAP1 DUP2 MSTORE PUSH1 0x20 ADD PUSH1 0x0 KECCAK256 PUSH1 0x0 DUP4 DUP2 MSTORE PUSH1 0x20 ADD SWAP1 DUP2 MSTORE PUSH1 0x20 ADD PUSH1 0x0 KECCAK256 PUSH1 0x5 ADD PUSH1 0x0 PUSH2 0x100 EXP DUP2 SLOAD DUP2 PUSH20 0xFFFFFFFFFFFFFFFFFFFFFFFFFFFFFFFFFFFFFFFF MUL NOT AND SWAP1 DUP4 PUSH20 0xFFFFFFFFFFFFFFFFFFFFFFFFFFFFFFFFFFFFFFFF AND MUL OR SWAP1 SSTORE POP CALLER PUSH1 0x0 DUP1 DUP5 PUSH20 0xFFFFFFFFFFFFFFFFFFFFFFFFFFFFFFFFFFFFFFFF AND PUSH20 0xFFFFFFFFFFFFFFFFFFFFFFFFFFFFFFFFFFFFFFFF AND DUP2 MSTORE PUSH1 0x20 ADD SWAP1 DUP2 MSTORE PUSH1 0x20 ADD PUSH1 0x0 KECCAK256 PUSH1 0x0 DUP4 DUP2 MSTORE PUSH1 0x20 ADD SWAP1 DUP2 MSTORE PUSH1 0x20 ADD PUSH1 0x0 KECCAK256 PUSH1 0x3 ADD PUSH1 0x0 PUSH2 0x100 EXP DUP2 SLOAD DUP2 PUSH20 0xFFFFFFFFFFFFFFFFFFFFFFFFFFFFFFFFFFFFFFFF MUL NOT AND SWAP1 DUP4 PUSH20 0xFFFFFFFFFFFFFFFFFFFFFFFFFFFFFFFFFFFFFFFF AND MUL OR SWAP1 SSTORE POP PUSH1 0x0 DUP1 DUP4 PUSH20 0xFFFFFFFFFFFFFFFFFFFFFFFFFFFFFFFFFFFFFFFF AND PUSH20 0xFFFFFFFFFFFFFFFFFFFFFFFFFFFFFFFFFFFFFFFF AND DUP2 MSTORE PUSH1 0x20 ADD SWAP1 DUP2 MSTORE PUSH1 0x20 ADD PUSH1 0x0 KECCAK256 PUSH1 0x0 DUP3 DUP2 MSTORE PUSH1 0x20 ADD SWAP1 DUP2 MSTORE PUSH1 0x20 ADD PUSH1 0x0 KECCAK256 PUSH1 0x5 ADD PUSH1 0x0 SWAP1 SLOAD SWAP1 PUSH2 0x100 EXP SWAP1 DIV PUSH20 0xFFFFFFFFFFFFFFFFFFFFFFFFFFFFFFFFFFFFFFFF AND PUSH20 0xFFFFFFFFFFFFFFFFFFFFFFFFFFFFFFFFFFFFFFFF AND PUSH2 0x8FC PUSH1 0x0 DUP1 DUP6 PUSH20 0xFFFFFFFFFFFFFFFFFFFFFFFFFFFFFFFFFFFFFFFF AND PUSH20 0xFFFFFFFFFFFFFFFFFFFFFFFFFFFFFFFFFFFFFFFF AND DUP2 MSTORE PUSH1 0x20 ADD SWAP1 DUP2 MSTORE PUSH1 0x20 ADD PUSH1 0x0 KECCAK256 PUSH1 0x0 DUP5 DUP2 MSTORE PUSH1 0x20 ADD SWAP1 DUP2 MSTORE PUSH1 0x20 ADD PUSH1 0x0 KECCAK256 PUSH1 0x2 ADD SLOAD SWAP1 DUP2 ISZERO MUL SWAP1 PUSH1 0x40 MLOAD PUSH1 0x0 PUSH1 0x40 MLOAD DUP1 DUP4 SUB DUP2 DUP6 DUP9 DUP9 CALL SWAP4 POP POP POP POP ISZERO DUP1 ISZERO PUSH2 0xCCF JUMPI RETURNDATASIZE PUSH1 0x0 DUP1 RETURNDATACOPY RETURNDATASIZE PUSH1 0x0 REVERT JUMPDEST POP PUSH32 0xE684A55F31B79ECA403DF938249029212A5925EC6BE8012E099B45BC1019E5D2 CALLER CALLVALUE PUSH1 0x40 MLOAD PUSH2 0xD01 SWAP3 SWAP2 SWAP1 PUSH2 0x167F JUMP JUMPDEST PUSH1 0x40 MLOAD DUP1 SWAP2 SUB SWAP1 LOG1 POP POP JUMP JUMPDEST PUSH1 0x0 PUSH1 0x40 MLOAD SWAP1 POP SWAP1 JUMP JUMPDEST PUSH1 0x0 DUP1 REVERT JUMPDEST PUSH1 0x0 DUP1 REVERT JUMPDEST PUSH1 0x0 PUSH20 0xFFFFFFFFFFFFFFFFFFFFFFFFFFFFFFFFFFFFFFFF DUP3 AND SWAP1 POP SWAP2 SWAP1 POP JUMP JUMPDEST PUSH1 0x0 PUSH2 0xD4C DUP3 PUSH2 0xD21 JUMP JUMPDEST SWAP1 POP SWAP2 SWAP1 POP JUMP JUMPDEST PUSH2 0xD5C DUP2 PUSH2 0xD41 JUMP JUMPDEST DUP2 EQ PUSH2 0xD67 JUMPI PUSH1 0x0 DUP1 REVERT JUMPDEST POP JUMP JUMPDEST PUSH1 0x0 DUP2 CALLDATALOAD SWAP1 POP PUSH2 0xD79 DUP2 PUSH2 0xD53 JUMP JUMPDEST SWAP3 SWAP2 POP POP JUMP JUMPDEST PUSH1 0x0 DUP2 SWAP1 POP SWAP2 SWAP1 POP JUMP JUMPDEST PUSH2 0xD92 DUP2 PUSH2 0xD7F JUMP JUMPDEST DUP2 EQ PUSH2 0xD9D JUMPI PUSH1 0x0 DUP1 REVERT JUMPDEST POP JUMP JUMPDEST PUSH1 0x0 DUP2 CALLDATALOAD SWAP1 POP PUSH2 0xDAF DUP2 PUSH2 0xD89 JUMP JUMPDEST SWAP3 SWAP2 POP POP JUMP JUMPDEST PUSH1 0x0 DUP1 PUSH1 0x40 DUP4 DUP6 SUB SLT ISZERO PUSH2 0xDCC JUMPI PUSH2 0xDCB PUSH2 0xD17 JUMP JUMPDEST JUMPDEST PUSH1 0x0 PUSH2 0xDDA DUP6 DUP3 DUP7 ADD PUSH2 0xD6A JUMP JUMPDEST SWAP3 POP POP PUSH1 0x20 PUSH2 0xDEB DUP6 DUP3 DUP7 ADD PUSH2 0xDA0 JUMP JUMPDEST SWAP2 POP POP SWAP3 POP SWAP3 SWAP1 POP JUMP JUMPDEST PUSH1 0x0 DUP2 MLOAD SWAP1 POP SWAP2 SWAP1 POP JUMP JUMPDEST PUSH1 0x0 DUP3 DUP3 MSTORE PUSH1 0x20 DUP3 ADD SWAP1 POP SWAP3 SWAP2 POP POP JUMP JUMPDEST PUSH1 0x0 JUMPDEST DUP4 DUP2 LT ISZERO PUSH2 0xE2F JUMPI DUP1 DUP3 ADD MLOAD DUP2 DUP5 ADD MSTORE PUSH1 0x20 DUP2 ADD SWAP1 POP PUSH2 0xE14 JUMP JUMPDEST PUSH1 0x0 DUP5 DUP5 ADD MSTORE POP POP POP POP JUMP JUMPDEST PUSH1 0x0 PUSH1 0x1F NOT PUSH1 0x1F DUP4 ADD AND SWAP1 POP SWAP2 SWAP1 POP JUMP JUMPDEST PUSH1 0x0 PUSH2 0xE57 DUP3 PUSH2 0xDF5 JUMP JUMPDEST PUSH2 0xE61 DUP2 DUP6 PUSH2 0xE00 JUMP JUMPDEST SWAP4 POP PUSH2 0xE71 DUP2 DUP6 PUSH1 0x20 DUP7 ADD PUSH2 0xE11 JUMP JUMPDEST PUSH2 0xE7A DUP2 PUSH2 0xE3B JUMP JUMPDEST DUP5 ADD SWAP2 POP POP SWAP3 SWAP2 POP POP JUMP JUMPDEST PUSH2 0xE8E DUP2 PUSH2 0xD7F JUMP JUMPDEST DUP3 MSTORE POP POP JUMP JUMPDEST PUSH2 0xE9D DUP2 PUSH2 0xD41 JUMP JUMPDEST DUP3 MSTORE POP POP JUMP JUMPDEST PUSH1 0x0 PUSH1 0xC0 DUP3 ADD SWAP1 POP DUP2 DUP2 SUB PUSH1 0x0 DUP4 ADD MSTORE PUSH2 0xEBD DUP2 DUP10 PUSH2 0xE4C JUMP JUMPDEST SWAP1 POP PUSH2 0xECC PUSH1 0x20 DUP4 ADD DUP9 PUSH2 0xE85 JUMP JUMPDEST PUSH2 0xED9 PUSH1 0x40 DUP4 ADD DUP8 PUSH2 0xE85 JUMP JUMPDEST PUSH2 0xEE6 PUSH1 0x60 DUP4 ADD DUP7 PUSH2 0xE94 JUMP JUMPDEST PUSH2 0xEF3 PUSH1 0x80 DUP4 ADD DUP6 PUSH2 0xE85 JUMP JUMPDEST PUSH2 0xF00 PUSH1 0xA0 DUP4 ADD DUP5 PUSH2 0xE94 JUMP JUMPDEST SWAP8 SWAP7 POP POP POP POP POP POP POP JUMP JUMPDEST PUSH1 0x0 DUP1 REVERT JUMPDEST PUSH1 0x0 DUP1 REVERT JUMPDEST PUSH32 0x4E487B7100000000000000000000000000000000000000000000000000000000 PUSH1 0x0 MSTORE PUSH1 0x41 PUSH1 0x4 MSTORE PUSH1 0x24 PUSH1 0x0 REVERT JUMPDEST PUSH2 0xF4D DUP3 PUSH2 0xE3B JUMP JUMPDEST DUP2 ADD DUP2 DUP2 LT PUSH8 0xFFFFFFFFFFFFFFFF DUP3 GT OR ISZERO PUSH2 0xF6C JUMPI PUSH2 0xF6B PUSH2 0xF15 JUMP JUMPDEST JUMPDEST DUP1 PUSH1 0x40 MSTORE POP POP POP JUMP JUMPDEST PUSH1 0x0 PUSH2 0xF7F PUSH2 0xD0D JUMP JUMPDEST SWAP1 POP PUSH2 0xF8B DUP3 DUP3 PUSH2 0xF44 JUMP JUMPDEST SWAP2 SWAP1 POP JUMP JUMPDEST PUSH1 0x0 PUSH8 0xFFFFFFFFFFFFFFFF DUP3 GT ISZERO PUSH2 0xFAB JUMPI PUSH2 0xFAA PUSH2 0xF15 JUMP JUMPDEST JUMPDEST PUSH2 0xFB4 DUP3 PUSH2 0xE3B JUMP JUMPDEST SWAP1 POP PUSH1 0x20 DUP2 ADD SWAP1 POP SWAP2 SWAP1 POP JUMP JUMPDEST DUP3 DUP2 DUP4 CALLDATACOPY PUSH1 0x0 DUP4 DUP4 ADD MSTORE POP POP POP JUMP JUMPDEST PUSH1 0x0 PUSH2 0xFE3 PUSH2 0xFDE DUP5 PUSH2 0xF90 JUMP JUMPDEST PUSH2 0xF75 JUMP JUMPDEST SWAP1 POP DUP3 DUP2 MSTORE PUSH1 0x20 DUP2 ADD DUP5 DUP5 DUP5 ADD GT ISZERO PUSH2 0xFFF JUMPI PUSH2 0xFFE PUSH2 0xF10 JUMP JUMPDEST JUMPDEST PUSH2 0x100A DUP5 DUP3 DUP6 PUSH2 0xFC1 JUMP JUMPDEST POP SWAP4 SWAP3 POP POP POP JUMP JUMPDEST PUSH1 0x0 DUP3 PUSH1 0x1F DUP4 ADD SLT PUSH2 0x1027 JUMPI PUSH2 0x1026 PUSH2 0xF0B JUMP JUMPDEST JUMPDEST DUP2 CALLDATALOAD PUSH2 0x1037 DUP5 DUP3 PUSH1 0x20 DUP7 ADD PUSH2 0xFD0 JUMP JUMPDEST SWAP2 POP POP SWAP3 SWAP2 POP POP JUMP JUMPDEST PUSH1 0x0 DUP1 PUSH1 0x40 DUP4 DUP6 SUB SLT ISZERO PUSH2 0x1057 JUMPI PUSH2 0x1056 PUSH2 0xD17 JUMP JUMPDEST JUMPDEST PUSH1 0x0 PUSH2 0x1065 DUP6 DUP3 DUP7 ADD PUSH2 0xDA0 JUMP JUMPDEST SWAP3 POP POP PUSH1 0x20 DUP4 ADD CALLDATALOAD PUSH8 0xFFFFFFFFFFFFFFFF DUP2 GT ISZERO PUSH2 0x1086 JUMPI PUSH2 0x1085 PUSH2 0xD1C JUMP JUMPDEST JUMPDEST PUSH2 0x1092 DUP6 DUP3 DUP7 ADD PUSH2 0x1012 JUMP JUMPDEST SWAP2 POP POP SWAP3 POP SWAP3 SWAP1 POP JUMP JUMPDEST PUSH1 0x0 PUSH2 0x10A7 DUP3 PUSH2 0xD21 JUMP JUMPDEST SWAP1 POP SWAP2 SWAP1 POP JUMP JUMPDEST PUSH2 0x10B7 DUP2 PUSH2 0x109C JUMP JUMPDEST DUP2 EQ PUSH2 0x10C2 JUMPI PUSH1 0x0 DUP1 REVERT JUMPDEST POP JUMP JUMPDEST PUSH1 0x0 DUP2 CALLDATALOAD SWAP1 POP PUSH2 0x10D4 DUP2 PUSH2 0x10AE JUMP JUMPDEST SWAP3 SWAP2 POP POP JUMP JUMPDEST PUSH1 0x0 DUP1 PUSH1 0x40 DUP4 DUP6 SUB SLT ISZERO PUSH2 0x10F1 JUMPI PUSH2 0x10F0 PUSH2 0xD17 JUMP JUMPDEST JUMPDEST PUSH1 0x0 PUSH2 0x10FF DUP6 DUP3 DUP7 ADD PUSH2 0x10C5 JUMP JUMPDEST SWAP3 POP POP PUSH1 0x20 PUSH2 0x1110 DUP6 DUP3 DUP7 ADD PUSH2 0xDA0 JUMP JUMPDEST SWAP2 POP POP SWAP3 POP SWAP3 SWAP1 POP JUMP JUMPDEST PUSH1 0x0 PUSH1 0x20 DUP3 ADD SWAP1 POP PUSH2 0x112F PUSH1 0x0 DUP4 ADD DUP5 PUSH2 0xE94 JUMP JUMPDEST SWAP3 SWAP2 POP POP JUMP JUMPDEST PUSH1 0x0 PUSH1 0x20 DUP3 ADD SWAP1 POP PUSH2 0x114A PUSH1 0x0 DUP4 ADD DUP5 PUSH2 0xE85 JUMP JUMPDEST SWAP3 SWAP2 POP POP JUMP JUMPDEST PUSH32 0x4E487B7100000000000000000000000000000000000000000000000000000000 PUSH1 0x0 MSTORE PUSH1 0x22 PUSH1 0x4 MSTORE PUSH1 0x24 PUSH1 0x0 REVERT JUMPDEST PUSH1 0x0 PUSH1 0x2 DUP3 DIV SWAP1 POP PUSH1 0x1 DUP3 AND DUP1 PUSH2 0x1197 JUMPI PUSH1 0x7F DUP3 AND SWAP2 POP JUMPDEST PUSH1 0x20 DUP3 LT DUP2 SUB PUSH2 0x11AA JUMPI PUSH2 0x11A9 PUSH2 0x1150 JUMP JUMPDEST JUMPDEST POP SWAP2 SWAP1 POP JUMP JUMPDEST PUSH32 0x4E6F742056616C69640000000000000000000000000000000000000000000000 PUSH1 0x0 DUP3 ADD MSTORE POP JUMP JUMPDEST PUSH1 0x0 PUSH2 0x11E6 PUSH1 0x9 DUP4 PUSH2 0xE00 JUMP JUMPDEST SWAP2 POP PUSH2 0x11F1 DUP3 PUSH2 0x11B0 JUMP JUMPDEST PUSH1 0x20 DUP3 ADD SWAP1 POP SWAP2 SWAP1 POP JUMP JUMPDEST PUSH1 0x0 PUSH1 0x20 DUP3 ADD SWAP1 POP DUP2 DUP2 SUB PUSH1 0x0 DUP4 ADD MSTORE PUSH2 0x1215 DUP2 PUSH2 0x11D9 JUMP JUMPDEST SWAP1 POP SWAP2 SWAP1 POP JUMP JUMPDEST PUSH1 0x0 DUP2 SWAP1 POP DUP2 PUSH1 0x0 MSTORE PUSH1 0x20 PUSH1 0x0 KECCAK256 SWAP1 POP SWAP2 SWAP1 POP JUMP JUMPDEST PUSH1 0x0 PUSH1 0x20 PUSH1 0x1F DUP4 ADD DIV SWAP1 POP SWAP2 SWAP1 POP JUMP JUMPDEST PUSH1 0x0 DUP3 DUP3 SHL SWAP1 POP SWAP3 SWAP2 POP POP JUMP JUMPDEST PUSH1 0x0 PUSH1 0x8 DUP4 MUL PUSH2 0x127E PUSH32 0xFFFFFFFFFFFFFFFFFFFFFFFFFFFFFFFFFFFFFFFFFFFFFFFFFFFFFFFFFFFFFFFF DUP3 PUSH2 0x1241 JUMP JUMPDEST PUSH2 0x1288 DUP7 DUP4 PUSH2 0x1241 JUMP JUMPDEST SWAP6 POP DUP1 NOT DUP5 AND SWAP4 POP DUP1 DUP7 AND DUP5 OR SWAP3 POP POP POP SWAP4 SWAP3 POP POP POP JUMP JUMPDEST PUSH1 0x0 DUP2 SWAP1 POP SWAP2 SWAP1 POP JUMP JUMPDEST PUSH1 0x0 PUSH2 0x12C5 PUSH2 0x12C0 PUSH2 0x12BB DUP5 PUSH2 0xD7F JUMP JUMPDEST PUSH2 0x12A0 JUMP JUMPDEST PUSH2 0xD7F JUMP JUMPDEST SWAP1 POP SWAP2 SWAP1 POP JUMP JUMPDEST PUSH1 0x0 DUP2 SWAP1 POP SWAP2 SWAP1 POP JUMP JUMPDEST PUSH2 0x12DF DUP4 PUSH2 0x12AA JUMP JUMPDEST PUSH2 0x12F3 PUSH2 0x12EB DUP3 PUSH2 0x12CC JUMP JUMPDEST DUP5 DUP5 SLOAD PUSH2 0x124E JUMP JUMPDEST DUP3 SSTORE POP POP POP POP JUMP JUMPDEST PUSH1 0x0 SWAP1 JUMP JUMPDEST PUSH2 0x1308 PUSH2 0x12FB JUMP JUMPDEST PUSH2 0x1313 DUP2 DUP5 DUP5 PUSH2 0x12D6 JUMP JUMPDEST POP POP POP JUMP JUMPDEST JUMPDEST DUP2 DUP2 LT ISZERO PUSH2 0x1337 JUMPI PUSH2 0x132C PUSH1 0x0 DUP3 PUSH2 0x1300 JUMP JUMPDEST PUSH1 0x1 DUP2 ADD SWAP1 POP PUSH2 0x1319 JUMP JUMPDEST POP POP JUMP JUMPDEST PUSH1 0x1F DUP3 GT ISZERO PUSH2 0x137C JUMPI PUSH2 0x134D DUP2 PUSH2 0x121C JUMP JUMPDEST PUSH2 0x1356 DUP5 PUSH2 0x1231 JUMP JUMPDEST DUP2 ADD PUSH1 0x20 DUP6 LT ISZERO PUSH2 0x1365 JUMPI DUP2 SWAP1 POP JUMPDEST PUSH2 0x1379 PUSH2 0x1371 DUP6 PUSH2 0x1231 JUMP JUMPDEST DUP4 ADD DUP3 PUSH2 0x1318 JUMP JUMPDEST POP POP JUMPDEST POP POP POP JUMP JUMPDEST PUSH1 0x0 DUP3 DUP3 SHR SWAP1 POP SWAP3 SWAP2 POP POP JUMP JUMPDEST PUSH1 0x0 PUSH2 0x139F PUSH1 0x0 NOT DUP5 PUSH1 0x8 MUL PUSH2 0x1381 JUMP JUMPDEST NOT DUP1 DUP4 AND SWAP2 POP POP SWAP3 SWAP2 POP POP JUMP JUMPDEST PUSH1 0x0 PUSH2 0x13B8 DUP4 DUP4 PUSH2 0x138E JUMP JUMPDEST SWAP2 POP DUP3 PUSH1 0x2 MUL DUP3 OR SWAP1 POP SWAP3 SWAP2 POP POP JUMP JUMPDEST PUSH2 0x13D1 DUP3 PUSH2 0xDF5 JUMP JUMPDEST PUSH8 0xFFFFFFFFFFFFFFFF DUP2 GT ISZERO PUSH2 0x13EA JUMPI PUSH2 0x13E9 PUSH2 0xF15 JUMP JUMPDEST JUMPDEST PUSH2 0x13F4 DUP3 SLOAD PUSH2 0x117F JUMP JUMPDEST PUSH2 0x13FF DUP3 DUP3 DUP6 PUSH2 0x133B JUMP JUMPDEST PUSH1 0x0 PUSH1 0x20 SWAP1 POP PUSH1 0x1F DUP4 GT PUSH1 0x1 DUP2 EQ PUSH2 0x1432 JUMPI PUSH1 0x0 DUP5 ISZERO PUSH2 0x1420 JUMPI DUP3 DUP8 ADD MLOAD SWAP1 POP JUMPDEST PUSH2 0x142A DUP6 DUP3 PUSH2 0x13AC JUMP JUMPDEST DUP7 SSTORE POP PUSH2 0x1492 JUMP JUMPDEST PUSH1 0x1F NOT DUP5 AND PUSH2 0x1440 DUP7 PUSH2 0x121C JUMP JUMPDEST PUSH1 0x0 JUMPDEST DUP3 DUP2 LT ISZERO PUSH2 0x1468 JUMPI DUP5 DUP10 ADD MLOAD DUP3 SSTORE PUSH1 0x1 DUP3 ADD SWAP2 POP PUSH1 0x20 DUP6 ADD SWAP5 POP PUSH1 0x20 DUP2 ADD SWAP1 POP PUSH2 0x1443 JUMP JUMPDEST DUP7 DUP4 LT ISZERO PUSH2 0x1485 JUMPI DUP5 DUP10 ADD MLOAD PUSH2 0x1481 PUSH1 0x1F DUP10 AND DUP3 PUSH2 0x138E JUMP JUMPDEST DUP4 SSTORE POP JUMPDEST PUSH1 0x1 PUSH1 0x2 DUP9 MUL ADD DUP9 SSTORE POP POP POP JUMPDEST POP POP POP POP POP POP JUMP JUMPDEST PUSH32 0x4E487B7100000000000000000000000000000000000000000000000000000000 PUSH1 0x0 MSTORE PUSH1 0x11 PUSH1 0x4 MSTORE PUSH1 0x24 PUSH1 0x0 REVERT JUMPDEST PUSH1 0x0 PUSH2 0x14D4 DUP3 PUSH2 0xD7F JUMP JUMPDEST SWAP2 POP PUSH2 0x14DF DUP4 PUSH2 0xD7F JUMP JUMPDEST SWAP3 POP DUP3 DUP3 ADD SWAP1 POP DUP1 DUP3 GT ISZERO PUSH2 0x14F7 JUMPI PUSH2 0x14F6 PUSH2 0x149A JUMP JUMPDEST JUMPDEST SWAP3 SWAP2 POP POP JUMP JUMPDEST PUSH1 0x0 PUSH1 0x60 DUP3 ADD SWAP1 POP PUSH2 0x1512 PUSH1 0x0 DUP4 ADD DUP7 PUSH2 0xE94 JUMP JUMPDEST PUSH2 0x151F PUSH1 0x20 DUP4 ADD DUP6 PUSH2 0xE85 JUMP JUMPDEST DUP2 DUP2 SUB PUSH1 0x40 DUP4 ADD MSTORE PUSH2 0x1531 DUP2 DUP5 PUSH2 0xE4C JUMP JUMPDEST SWAP1 POP SWAP5 SWAP4 POP POP POP POP JUMP JUMPDEST PUSH32 0x206F776E65722063616E27742062696400000000000000000000000000000000 PUSH1 0x0 DUP3 ADD MSTORE POP JUMP JUMPDEST PUSH1 0x0 PUSH2 0x1571 PUSH1 0x10 DUP4 PUSH2 0xE00 JUMP JUMPDEST SWAP2 POP PUSH2 0x157C DUP3 PUSH2 0x153B JUMP JUMPDEST PUSH1 0x20 DUP3 ADD SWAP1 POP SWAP2 SWAP1 POP JUMP JUMPDEST PUSH1 0x0 PUSH1 0x20 DUP3 ADD SWAP1 POP DUP2 DUP2 SUB PUSH1 0x0 DUP4 ADD MSTORE PUSH2 0x15A0 DUP2 PUSH2 0x1564 JUMP JUMPDEST SWAP1 POP SWAP2 SWAP1 POP JUMP JUMPDEST PUSH32 0x204E6F7468696E6720746F20506C616365207468652042696420000000000000 PUSH1 0x0 DUP3 ADD MSTORE POP JUMP JUMPDEST PUSH1 0x0 PUSH2 0x15DD PUSH1 0x1A DUP4 PUSH2 0xE00 JUMP JUMPDEST SWAP2 POP PUSH2 0x15E8 DUP3 PUSH2 0x15A7 JUMP JUMPDEST PUSH1 0x20 DUP3 ADD SWAP1 POP SWAP2 SWAP1 POP JUMP JUMPDEST PUSH1 0x0 PUSH1 0x20 DUP3 ADD SWAP1 POP DUP2 DUP2 SUB PUSH1 0x0 DUP4 ADD MSTORE PUSH2 0x160C DUP2 PUSH2 0x15D0 JUMP JUMPDEST SWAP1 POP SWAP2 SWAP1 POP JUMP JUMPDEST PUSH32 0x20496E6372656173652074686520616D6F756E74206279203120657468657200 PUSH1 0x0 DUP3 ADD MSTORE POP JUMP JUMPDEST PUSH1 0x0 PUSH2 0x1649 PUSH1 0x1F DUP4 PUSH2 0xE00 JUMP JUMPDEST SWAP2 POP PUSH2 0x1654 DUP3 PUSH2 0x1613 JUMP JUMPDEST PUSH1 0x20 DUP3 ADD SWAP1 POP SWAP2 SWAP1 POP JUMP JUMPDEST PUSH1 0x0 PUSH1 0x20 DUP3 ADD SWAP1 POP DUP2 DUP2 SUB PUSH1 0x0 DUP4 ADD MSTORE PUSH2 0x1678 DUP2 PUSH2 0x163C JUMP JUMPDEST SWAP1 POP SWAP2 SWAP1 POP JUMP JUMPDEST PUSH1 0x0 PUSH1 0x40 DUP3 ADD SWAP1 POP PUSH2 0x1694 PUSH1 0x0 DUP4 ADD DUP6 PUSH2 0xE94 JUMP JUMPDEST PUSH2 0x16A1 PUSH1 0x20 DUP4 ADD DUP5 PUSH2 0xE85 JUMP JUMPDEST SWAP4 SWAP3 POP POP POP JUMP INVALID LOG2 PUSH5 0x6970667358 0x22 SLT KECCAK256 0x25 0x4F 0xF6 DUP10 0x5D ADD 0xC9 NUMBER EXTCODECOPY SWAP4 DUP11 SWAP14 MSTORE 0xD6 LOG1 SELFBALANCE 0x24 SHR GASLIMIT 0xB1 0xA5 PUSH32 0x9658D23704485A813B6C64736F6C634300081200330000000000000000000000 "
				},
				"gasEstimates": {
					"creation": {
						"codeDepositCost": "1170800",
						"executionCost": "1214",
						"totalCost": "1172014"
					},
					"external": {
						"CreateItem(uint256,string)": "infinite",
						"cancelAuction(address,uint256)": "infinite",
						"getHighestBid(address,uint256)": "infinite",
						"getWinningBidder(address,uint256)": "infinite",
						"itemDetails(address,uint256)": "infinite",
						"ownershipTransfer(address,uint256)": "673",
						"placeBid(address,uint256)": "infinite"
					}
				},
				"methodIdentifiers": {
					"CreateItem(uint256,string)": "32627af9",
					"cancelAuction(address,uint256)": "859b97fe",
					"getHighestBid(address,uint256)": "8226508d",
					"getWinningBidder(address,uint256)": "7090c36e",
					"itemDetails(address,uint256)": "069ea362",
					"ownershipTransfer(address,uint256)": "6db2a303",
					"placeBid(address,uint256)": "d98b9bb5"
				}
			},
			"storageLayout": {
				"storage": [
					{
						"astId": 21,
						"contract": "Assignment 4 Tokens/final.sol:finaL",
						"label": "itemDetails",
						"offset": 0,
						"slot": "0",
						"type": "t_mapping(t_address,t_mapping(t_uint256,t_struct(itemD)14_storage))"
					}
				],
				"types": {
					"t_address": {
						"encoding": "inplace",
						"label": "address",
						"numberOfBytes": "20"
					},
					"t_mapping(t_address,t_mapping(t_uint256,t_struct(itemD)14_storage))": {
						"encoding": "mapping",
						"key": "t_address",
						"label": "mapping(address => mapping(uint256 => struct finaL.itemD))",
						"numberOfBytes": "32",
						"value": "t_mapping(t_uint256,t_struct(itemD)14_storage)"
					},
					"t_mapping(t_uint256,t_struct(itemD)14_storage)": {
						"encoding": "mapping",
						"key": "t_uint256",
						"label": "mapping(uint256 => struct finaL.itemD)",
						"numberOfBytes": "32",
						"value": "t_struct(itemD)14_storage"
					},
					"t_string_storage": {
						"encoding": "bytes",
						"label": "string",
						"numberOfBytes": "32"
					},
					"t_struct(itemD)14_storage": {
						"encoding": "inplace",
						"label": "struct finaL.itemD",
						"members": [
							{
								"astId": 3,
								"contract": "Assignment 4 Tokens/final.sol:finaL",
								"label": "name",
								"offset": 0,
								"slot": "0",
								"type": "t_string_storage"
							},
							{
								"astId": 5,
								"contract": "Assignment 4 Tokens/final.sol:finaL",
								"label": "lastBid",
								"offset": 0,
								"slot": "1",
								"type": "t_uint256"
							},
							{
								"astId": 7,
								"contract": "Assignment 4 Tokens/final.sol:finaL",
								"label": "highestBid",
								"offset": 0,
								"slot": "2",
								"type": "t_uint256"
							},
							{
								"astId": 9,
								"contract": "Assignment 4 Tokens/final.sol:finaL",
								"label": "highestBider",
								"offset": 0,
								"slot": "3",
								"type": "t_address"
							},
							{
								"astId": 11,
								"contract": "Assignment 4 Tokens/final.sol:finaL",
								"label": "auction_time",
								"offset": 0,
								"slot": "4",
								"type": "t_uint256"
							},
							{
								"astId": 13,
								"contract": "Assignment 4 Tokens/final.sol:finaL",
								"label": "lastHighestBider",
								"offset": 0,
								"slot": "5",
								"type": "t_address"
							}
						],
						"numberOfBytes": "192"
					},
					"t_uint256": {
						"encoding": "inplace",
						"label": "uint256",
						"numberOfBytes": "32"
					}
				}
			},
			"userdoc": {
				"kind": "user",
				"methods": {},
				"version": 1
			}
		}
	}
}