{
	"Assignment 4 Tokens/final.sol": {
		"finaL": {
			"abi": [
				{
					"anonymous": false,
					"inputs": [
						{
							"indexed": false,
							"internalType": "address",
							"name": "_address",
							"type": "address"
						},
						{
							"indexed": false,
							"internalType": "uint256",
							"name": "_bidamount",
							"type": "uint256"
						}
					],
					"name": "Bid",
					"type": "event"
				},
				{
					"anonymous": false,
					"inputs": [
						{
							"indexed": false,
							"internalType": "address",
							"name": "owner",
							"type": "address"
						},
						{
							"indexed": false,
							"internalType": "uint256",
							"name": "id",
							"type": "uint256"
						},
						{
							"indexed": false,
							"internalType": "string",
							"name": "name",
							"type": "string"
						}
					],
					"name": "createItem",
					"type": "event"
				},
				{
					"anonymous": false,
					"inputs": [
						{
							"indexed": false,
							"internalType": "address",
							"name": "_from",
							"type": "address"
						},
						{
							"indexed": false,
							"internalType": "address",
							"name": "_to",
							"type": "address"
						},
						{
							"components": [
								{
									"internalType": "string",
									"name": "name",
									"type": "string"
								},
								{
									"internalType": "uint256",
									"name": "lastBid",
									"type": "uint256"
								},
								{
									"internalType": "uint256",
									"name": "highestBid",
									"type": "uint256"
								},
								{
									"internalType": "address",
									"name": "highestBider",
									"type": "address"
								},
								{
									"internalType": "uint256",
									"name": "auction_time",
									"type": "uint256"
								},
								{
									"internalType": "address",
									"name": "lastHighestBider",
									"type": "address"
								}
							],
							"indexed": false,
							"internalType": "struct finaL.itemD",
							"name": "_item",
							"type": "tuple"
						}
					],
					"name": "transfer",
					"type": "event"
				},
				{
					"inputs": [
						{
							"internalType": "uint256",
							"name": "id",
							"type": "uint256"
						},
						{
							"internalType": "string",
							"name": "_name",
							"type": "string"
						}
					],
					"name": "CreateItem",
					"outputs": [],
					"stateMutability": "nonpayable",
					"type": "function"
				},
				{
					"inputs": [
						{
							"internalType": "address",
							"name": "_address",
							"type": "address"
						},
						{
							"internalType": "uint256",
							"name": "id",
							"type": "uint256"
						}
					],
					"name": "cancelAuction",
					"outputs": [],
					"stateMutability": "nonpayable",
					"type": "function"
				},
				{
					"inputs": [
						{
							"internalType": "address",
							"name": "_address",
							"type": "address"
						},
						{
							"internalType": "uint256",
							"name": "id",
							"type": "uint256"
						}
					],
					"name": "getHighestBid",
					"outputs": [
						{
							"internalType": "uint256",
							"name": "",
							"type": "uint256"
						}
					],
					"stateMutability": "view",
					"type": "function"
				},
				{
					"inputs": [
						{
							"internalType": "address",
							"name": "_address",
							"type": "address"
						},
						{
							"internalType": "uint256",
							"name": "id",
							"type": "uint256"
						}
					],
					"name": "getWinningBidder",
					"outputs": [
						{
							"internalType": "address",
							"name": "",
							"type": "address"
						}
					],
					"stateMutability": "view",
					"type": "function"
				},
				{
					"inputs": [
						{
							"internalType": "address",
							"name": "",
							"type": "address"
						},
						{
							"internalType": "uint256",
							"name": "",
							"type": "uint256"
						}
					],
					"name": "itemDetails",
					"outputs": [
						{
							"internalType": "string",
							"name": "name",
							"type": "string"
						},
						{
							"internalType": "uint256",
							"name": "lastBid",
							"type": "uint256"
						},
						{
							"internalType": "uint256",
							"name": "highestBid",
							"type": "uint256"
						},
						{
							"internalType": "address",
							"name": "highestBider",
							"type": "address"
						},
						{
							"internalType": "uint256",
							"name": "auction_time",
							"type": "uint256"
						},
						{
							"internalType": "address",
							"name": "lastHighestBider",
							"type": "address"
						}
					],
					"stateMutability": "view",
					"type": "function"
				},
				{
					"inputs": [
						{
							"internalType": "address",
							"name": "_address",
							"type": "address"
						},
						{
							"internalType": "uint256",
							"name": "id",
							"type": "uint256"
						}
					],
					"name": "ownershipTransfer",
					"outputs": [],
					"stateMutability": "nonpayable",
					"type": "function"
				},
				{
					"inputs": [
						{
							"internalType": "address",
							"name": "_address",
							"type": "address"
						},
						{
							"internalType": "uint256",
							"name": "id",
							"type": "uint256"
						}
					],
					"name": "placeBid",
					"outputs": [],
					"stateMutability": "payable",
					"type": "function"
				}
			],
			"devdoc": {
				"kind": "dev",
				"methods": {},
				"version": 1
			},
			"evm": {
				"assembly": "    /* \"Assignment 4 Tokens/final.sol\":126:2499  contract finaL  {... */\n  mstore(0x40, 0x80)\n  callvalue\n  dup1\n  iszero\n  tag_1\n  jumpi\n  0x00\n  dup1\n  revert\ntag_1:\n  pop\n  dataSize(sub_0)\n  dup1\n  dataOffset(sub_0)\n  0x00\n  codecopy\n  0x00\n  return\nstop\n\nsub_0: assembly {\n        /* \"Assignment 4 Tokens/final.sol\":126:2499  contract finaL  {... */\n      mstore(0x40, 0x80)\n      jumpi(tag_1, lt(calldatasize, 0x04))\n      shr(0xe0, calldataload(0x00))\n      dup1\n      0x7090c36e\n      gt\n      tag_9\n      jumpi\n      dup1\n      0x7090c36e\n      eq\n      tag_5\n      jumpi\n      dup1\n      0x8226508d\n      eq\n      tag_6\n      jumpi\n      dup1\n      0x859b97fe\n      eq\n      tag_7\n      jumpi\n      dup1\n      0xd98b9bb5\n      eq\n      tag_8\n      jumpi\n      jump(tag_1)\n    tag_9:\n      dup1\n      0x069ea362\n      eq\n      tag_2\n      jumpi\n      dup1\n      0x32627af9\n      eq\n      tag_3\n      jumpi\n      dup1\n      0x6db2a303\n      eq\n      tag_4\n      jumpi\n    tag_1:\n      0x00\n      dup1\n      revert\n        /* \"Assignment 4 Tokens/final.sol\":375:438  mapping(address => mapping(uint256 =>itemD)) public itemDetails */\n    tag_2:\n      callvalue\n      dup1\n      iszero\n      tag_10\n      jumpi\n      0x00\n      dup1\n      revert\n    tag_10:\n      pop\n      tag_11\n      0x04\n      dup1\n      calldatasize\n      sub\n      dup2\n      add\n      swap1\n      tag_12\n      swap2\n      swap1\n      tag_13\n      jump\t// in\n    tag_12:\n      tag_14\n      jump\t// in\n    tag_11:\n      mload(0x40)\n      tag_15\n      swap7\n      swap6\n      swap5\n      swap4\n      swap3\n      swap2\n      swap1\n      tag_16\n      jump\t// in\n    tag_15:\n      mload(0x40)\n      dup1\n      swap2\n      sub\n      swap1\n      return\n        /* \"Assignment 4 Tokens/final.sol\":659:1185  function CreateItem(uint256 id, string memory _name) public {... */\n    tag_3:\n      callvalue\n      dup1\n      iszero\n      tag_17\n      jumpi\n      0x00\n      dup1\n      revert\n    tag_17:\n      pop\n      tag_18\n      0x04\n      dup1\n      calldatasize\n      sub\n      dup2\n      add\n      swap1\n      tag_19\n      swap2\n      swap1\n      tag_20\n      jump\t// in\n    tag_19:\n      tag_21\n      jump\t// in\n    tag_18:\n      stop\n        /* \"Assignment 4 Tokens/final.sol\":2424:2496  function ownershipTransfer(address _address,uint256 id)public {... */\n    tag_4:\n      callvalue\n      dup1\n      iszero\n      tag_22\n      jumpi\n      0x00\n      dup1\n      revert\n    tag_22:\n      pop\n      tag_23\n      0x04\n      dup1\n      calldatasize\n      sub\n      dup2\n      add\n      swap1\n      tag_24\n      swap2\n      swap1\n      tag_13\n      jump\t// in\n    tag_24:\n      tag_25\n      jump\t// in\n    tag_23:\n      stop\n        /* \"Assignment 4 Tokens/final.sol\":2088:2234  function getWinningBidder(address _address,uint256 id)public view returns(address){... */\n    tag_5:\n      callvalue\n      dup1\n      iszero\n      tag_26\n      jumpi\n      0x00\n      dup1\n      revert\n    tag_26:\n      pop\n      tag_27\n      0x04\n      dup1\n      calldatasize\n      sub\n      dup2\n      add\n      swap1\n      tag_28\n      swap2\n      swap1\n      tag_13\n      jump\t// in\n    tag_28:\n      tag_29\n      jump\t// in\n    tag_27:\n      mload(0x40)\n      tag_30\n      swap2\n      swap1\n      tag_31\n      jump\t// in\n    tag_30:\n      mload(0x40)\n      dup1\n      swap2\n      sub\n      swap1\n      return\n        /* \"Assignment 4 Tokens/final.sol\":1937:2080  function getHighestBid(address _address, uint256 id)public view returns(uint256) {... */\n    tag_6:\n      callvalue\n      dup1\n      iszero\n      tag_32\n      jumpi\n      0x00\n      dup1\n      revert\n    tag_32:\n      pop\n      tag_33\n      0x04\n      dup1\n      calldatasize\n      sub\n      dup2\n      add\n      swap1\n      tag_34\n      swap2\n      swap1\n      tag_13\n      jump\t// in\n    tag_34:\n      tag_35\n      jump\t// in\n    tag_33:\n      mload(0x40)\n      tag_36\n      swap2\n      swap1\n      tag_37\n      jump\t// in\n    tag_36:\n      mload(0x40)\n      dup1\n      swap2\n      sub\n      swap1\n      return\n        /* \"Assignment 4 Tokens/final.sol\":2242:2416  function cancelAuction(address _address,uint256 id)public {... */\n    tag_7:\n      callvalue\n      dup1\n      iszero\n      tag_38\n      jumpi\n      0x00\n      dup1\n      revert\n    tag_38:\n      pop\n      tag_39\n      0x04\n      dup1\n      calldatasize\n      sub\n      dup2\n      add\n      swap1\n      tag_40\n      swap2\n      swap1\n      tag_13\n      jump\t// in\n    tag_40:\n      tag_41\n      jump\t// in\n    tag_39:\n      stop\n        /* \"Assignment 4 Tokens/final.sol\":1193:1929  function placeBid(address _address,uint256 id)public payable  {... */\n    tag_8:\n      tag_42\n      0x04\n      dup1\n      calldatasize\n      sub\n      dup2\n      add\n      swap1\n      tag_43\n      swap2\n      swap1\n      tag_13\n      jump\t// in\n    tag_43:\n      tag_44\n      jump\t// in\n    tag_42:\n      stop\n        /* \"Assignment 4 Tokens/final.sol\":375:438  mapping(address => mapping(uint256 =>itemD)) public itemDetails */\n    tag_14:\n      mstore(0x20, 0x00)\n      dup2\n      0x00\n      mstore\n      mstore(0x20, keccak256(0x00, 0x40))\n      dup1\n      0x00\n      mstore\n      keccak256(0x00, 0x40)\n      0x00\n      swap2\n      pop\n      swap2\n      pop\n      pop\n      dup1\n      0x00\n      add\n      dup1\n      sload\n      tag_45\n      swap1\n      tag_46\n      jump\t// in\n    tag_45:\n      dup1\n      0x1f\n      add\n      0x20\n      dup1\n      swap2\n      div\n      mul\n      0x20\n      add\n      mload(0x40)\n      swap1\n      dup2\n      add\n      0x40\n      mstore\n      dup1\n      swap3\n      swap2\n      swap1\n      dup2\n      dup2\n      mstore\n      0x20\n      add\n      dup3\n      dup1\n      sload\n      tag_47\n      swap1\n      tag_46\n      jump\t// in\n    tag_47:\n      dup1\n      iszero\n      tag_48\n      jumpi\n      dup1\n      0x1f\n      lt\n      tag_49\n      jumpi\n      0x0100\n      dup1\n      dup4\n      sload\n      div\n      mul\n      dup4\n      mstore\n      swap2\n      0x20\n      add\n      swap2\n      jump(tag_48)\n    tag_49:\n      dup3\n      add\n      swap2\n      swap1\n      0x00\n      mstore\n      keccak256(0x00, 0x20)\n      swap1\n    tag_50:\n      dup2\n      sload\n      dup2\n      mstore\n      swap1\n      0x01\n      add\n      swap1\n      0x20\n      add\n      dup1\n      dup4\n      gt\n      tag_50\n      jumpi\n      dup3\n      swap1\n      sub\n      0x1f\n      and\n      dup3\n      add\n      swap2\n    tag_48:\n      pop\n      pop\n      pop\n      pop\n      pop\n      swap1\n      dup1\n      0x01\n      add\n      sload\n      swap1\n      dup1\n      0x02\n      add\n      sload\n      swap1\n      dup1\n      0x03\n      add\n      0x00\n      swap1\n      sload\n      swap1\n      0x0100\n      exp\n      swap1\n      div\n      0xffffffffffffffffffffffffffffffffffffffff\n      and\n      swap1\n      dup1\n      0x04\n      add\n      sload\n      swap1\n      dup1\n      0x05\n      add\n      0x00\n      swap1\n      sload\n      swap1\n      0x0100\n      exp\n      swap1\n      div\n      0xffffffffffffffffffffffffffffffffffffffff\n      and\n      swap1\n      pop\n      dup7\n      jump\t// out\n        /* \"Assignment 4 Tokens/final.sol\":659:1185  function CreateItem(uint256 id, string memory _name) public {... */\n    tag_21:\n        /* \"Assignment 4 Tokens/final.sol\":760:761  0 */\n      0x00\n        /* \"Assignment 4 Tokens/final.sol\":738:762  msg.sender != address(0) */\n      0xffffffffffffffffffffffffffffffffffffffff\n      and\n        /* \"Assignment 4 Tokens/final.sol\":738:748  msg.sender */\n      caller\n        /* \"Assignment 4 Tokens/final.sol\":738:762  msg.sender != address(0) */\n      0xffffffffffffffffffffffffffffffffffffffff\n      and\n      sub\n        /* \"Assignment 4 Tokens/final.sol\":730:776  require(msg.sender != address(0) ,\"Not Valid\") */\n      tag_52\n      jumpi\n      mload(0x40)\n      0x08c379a000000000000000000000000000000000000000000000000000000000\n      dup2\n      mstore\n      0x04\n      add\n      tag_53\n      swap1\n      tag_54\n      jump\t// in\n    tag_53:\n      mload(0x40)\n      dup1\n      swap2\n      sub\n      swap1\n      revert\n    tag_52:\n        /* \"Assignment 4 Tokens/final.sol\":820:825  _name */\n      dup1\n        /* \"Assignment 4 Tokens/final.sol\":787:798  itemDetails */\n      0x00\n        /* \"Assignment 4 Tokens/final.sol\":787:810  itemDetails[msg.sender] */\n      dup1\n        /* \"Assignment 4 Tokens/final.sol\":799:809  msg.sender */\n      caller\n        /* \"Assignment 4 Tokens/final.sol\":787:810  itemDetails[msg.sender] */\n      0xffffffffffffffffffffffffffffffffffffffff\n      and\n      0xffffffffffffffffffffffffffffffffffffffff\n      and\n      dup2\n      mstore\n      0x20\n      add\n      swap1\n      dup2\n      mstore\n      0x20\n      add\n      0x00\n      keccak256\n        /* \"Assignment 4 Tokens/final.sol\":787:814  itemDetails[msg.sender][id] */\n      0x00\n        /* \"Assignment 4 Tokens/final.sol\":811:813  id */\n      dup5\n        /* \"Assignment 4 Tokens/final.sol\":787:814  itemDetails[msg.sender][id] */\n      dup2\n      mstore\n      0x20\n      add\n      swap1\n      dup2\n      mstore\n      0x20\n      add\n      0x00\n      keccak256\n        /* \"Assignment 4 Tokens/final.sol\":787:819  itemDetails[msg.sender][id].name */\n      0x00\n      add\n        /* \"Assignment 4 Tokens/final.sol\":787:825  itemDetails[msg.sender][id].name=_name */\n      swap1\n      dup2\n      tag_55\n      swap2\n      swap1\n      tag_56\n      jump\t// in\n    tag_55:\n      pop\n        /* \"Assignment 4 Tokens/final.sol\":872:873  0 */\n      0x00\n        /* \"Assignment 4 Tokens/final.sol\":836:847  itemDetails */\n      dup1\n        /* \"Assignment 4 Tokens/final.sol\":836:859  itemDetails[msg.sender] */\n      0x00\n        /* \"Assignment 4 Tokens/final.sol\":848:858  msg.sender */\n      caller\n        /* \"Assignment 4 Tokens/final.sol\":836:859  itemDetails[msg.sender] */\n      0xffffffffffffffffffffffffffffffffffffffff\n      and\n      0xffffffffffffffffffffffffffffffffffffffff\n      and\n      dup2\n      mstore\n      0x20\n      add\n      swap1\n      dup2\n      mstore\n      0x20\n      add\n      0x00\n      keccak256\n        /* \"Assignment 4 Tokens/final.sol\":836:863  itemDetails[msg.sender][id] */\n      0x00\n        /* \"Assignment 4 Tokens/final.sol\":860:862  id */\n      dup5\n        /* \"Assignment 4 Tokens/final.sol\":836:863  itemDetails[msg.sender][id] */\n      dup2\n      mstore\n      0x20\n      add\n      swap1\n      dup2\n      mstore\n      0x20\n      add\n      0x00\n      keccak256\n        /* \"Assignment 4 Tokens/final.sol\":836:871  itemDetails[msg.sender][id].lastBid */\n      0x01\n      add\n        /* \"Assignment 4 Tokens/final.sol\":836:873  itemDetails[msg.sender][id].lastBid=0 */\n      dup2\n      swap1\n      sstore\n      pop\n        /* \"Assignment 4 Tokens/final.sol\":923:924  0 */\n      0x00\n        /* \"Assignment 4 Tokens/final.sol\":884:895  itemDetails */\n      dup1\n        /* \"Assignment 4 Tokens/final.sol\":884:907  itemDetails[msg.sender] */\n      0x00\n        /* \"Assignment 4 Tokens/final.sol\":896:906  msg.sender */\n      caller\n        /* \"Assignment 4 Tokens/final.sol\":884:907  itemDetails[msg.sender] */\n      0xffffffffffffffffffffffffffffffffffffffff\n      and\n      0xffffffffffffffffffffffffffffffffffffffff\n      and\n      dup2\n      mstore\n      0x20\n      add\n      swap1\n      dup2\n      mstore\n      0x20\n      add\n      0x00\n      keccak256\n        /* \"Assignment 4 Tokens/final.sol\":884:911  itemDetails[msg.sender][id] */\n      0x00\n        /* \"Assignment 4 Tokens/final.sol\":908:910  id */\n      dup5\n        /* \"Assignment 4 Tokens/final.sol\":884:911  itemDetails[msg.sender][id] */\n      dup2\n      mstore\n      0x20\n      add\n      swap1\n      dup2\n      mstore\n      0x20\n      add\n      0x00\n      keccak256\n        /* \"Assignment 4 Tokens/final.sol\":884:922  itemDetails[msg.sender][id].highestBid */\n      0x02\n      add\n        /* \"Assignment 4 Tokens/final.sol\":884:924  itemDetails[msg.sender][id].highestBid=0 */\n      dup2\n      swap1\n      sstore\n      pop\n        /* \"Assignment 4 Tokens/final.sol\":984:985  0 */\n      0x00\n        /* \"Assignment 4 Tokens/final.sol\":935:946  itemDetails */\n      dup1\n        /* \"Assignment 4 Tokens/final.sol\":935:958  itemDetails[msg.sender] */\n      0x00\n        /* \"Assignment 4 Tokens/final.sol\":947:957  msg.sender */\n      caller\n        /* \"Assignment 4 Tokens/final.sol\":935:958  itemDetails[msg.sender] */\n      0xffffffffffffffffffffffffffffffffffffffff\n      and\n      0xffffffffffffffffffffffffffffffffffffffff\n      and\n      dup2\n      mstore\n      0x20\n      add\n      swap1\n      dup2\n      mstore\n      0x20\n      add\n      0x00\n      keccak256\n        /* \"Assignment 4 Tokens/final.sol\":935:962  itemDetails[msg.sender][id] */\n      0x00\n        /* \"Assignment 4 Tokens/final.sol\":959:961  id */\n      dup5\n        /* \"Assignment 4 Tokens/final.sol\":935:962  itemDetails[msg.sender][id] */\n      dup2\n      mstore\n      0x20\n      add\n      swap1\n      dup2\n      mstore\n      0x20\n      add\n      0x00\n      keccak256\n        /* \"Assignment 4 Tokens/final.sol\":935:975  itemDetails[msg.sender][id].highestBider */\n      0x03\n      add\n      0x00\n        /* \"Assignment 4 Tokens/final.sol\":935:986  itemDetails[msg.sender][id].highestBider=address(0) */\n      0x0100\n      exp\n      dup2\n      sload\n      dup2\n      0xffffffffffffffffffffffffffffffffffffffff\n      mul\n      not\n      and\n      swap1\n      dup4\n      0xffffffffffffffffffffffffffffffffffffffff\n      and\n      mul\n      or\n      swap1\n      sstore\n      pop\n        /* \"Assignment 4 Tokens/final.sol\":1051:1052  0 */\n      0x00\n        /* \"Assignment 4 Tokens/final.sol\":997:1008  itemDetails */\n      dup1\n        /* \"Assignment 4 Tokens/final.sol\":997:1020  itemDetails[msg.sender] */\n      0x00\n        /* \"Assignment 4 Tokens/final.sol\":1009:1019  msg.sender */\n      caller\n        /* \"Assignment 4 Tokens/final.sol\":997:1020  itemDetails[msg.sender] */\n      0xffffffffffffffffffffffffffffffffffffffff\n      and\n      0xffffffffffffffffffffffffffffffffffffffff\n      and\n      dup2\n      mstore\n      0x20\n      add\n      swap1\n      dup2\n      mstore\n      0x20\n      add\n      0x00\n      keccak256\n        /* \"Assignment 4 Tokens/final.sol\":997:1024  itemDetails[msg.sender][id] */\n      0x00\n        /* \"Assignment 4 Tokens/final.sol\":1021:1023  id */\n      dup5\n        /* \"Assignment 4 Tokens/final.sol\":997:1024  itemDetails[msg.sender][id] */\n      dup2\n      mstore\n      0x20\n      add\n      swap1\n      dup2\n      mstore\n      0x20\n      add\n      0x00\n      keccak256\n        /* \"Assignment 4 Tokens/final.sol\":997:1041  itemDetails[msg.sender][id].lastHighestBider */\n      0x05\n      add\n      0x00\n        /* \"Assignment 4 Tokens/final.sol\":997:1053  itemDetails[msg.sender][id].lastHighestBider=address (0) */\n      0x0100\n      exp\n      dup2\n      sload\n      dup2\n      0xffffffffffffffffffffffffffffffffffffffff\n      mul\n      not\n      and\n      swap1\n      dup4\n      0xffffffffffffffffffffffffffffffffffffffff\n      and\n      mul\n      or\n      swap1\n      sstore\n      pop\n        /* \"Assignment 4 Tokens/final.sol\":1123:1127  3600 */\n      0x0e10\n        /* \"Assignment 4 Tokens/final.sol\":1105:1120  block.timestamp */\n      timestamp\n        /* \"Assignment 4 Tokens/final.sol\":1105:1127  block.timestamp + 3600 */\n      tag_57\n      swap2\n      swap1\n      tag_58\n      jump\t// in\n    tag_57:\n        /* \"Assignment 4 Tokens/final.sol\":1064:1075  itemDetails */\n      0x00\n        /* \"Assignment 4 Tokens/final.sol\":1064:1087  itemDetails[msg.sender] */\n      dup1\n        /* \"Assignment 4 Tokens/final.sol\":1076:1086  msg.sender */\n      caller\n        /* \"Assignment 4 Tokens/final.sol\":1064:1087  itemDetails[msg.sender] */\n      0xffffffffffffffffffffffffffffffffffffffff\n      and\n      0xffffffffffffffffffffffffffffffffffffffff\n      and\n      dup2\n      mstore\n      0x20\n      add\n      swap1\n      dup2\n      mstore\n      0x20\n      add\n      0x00\n      keccak256\n        /* \"Assignment 4 Tokens/final.sol\":1064:1091  itemDetails[msg.sender][id] */\n      0x00\n        /* \"Assignment 4 Tokens/final.sol\":1088:1090  id */\n      dup5\n        /* \"Assignment 4 Tokens/final.sol\":1064:1091  itemDetails[msg.sender][id] */\n      dup2\n      mstore\n      0x20\n      add\n      swap1\n      dup2\n      mstore\n      0x20\n      add\n      0x00\n      keccak256\n        /* \"Assignment 4 Tokens/final.sol\":1064:1104  itemDetails[msg.sender][id].auction_time */\n      0x04\n      add\n        /* \"Assignment 4 Tokens/final.sol\":1064:1127  itemDetails[msg.sender][id].auction_time=block.timestamp + 3600 */\n      dup2\n      swap1\n      sstore\n      pop\n        /* \"Assignment 4 Tokens/final.sol\":1143:1177  createItem(msg.sender, id , _name) */\n      0xa7806320b37116843ec008da1594a383d57d02cf004956b72c34754bf6395070\n        /* \"Assignment 4 Tokens/final.sol\":1154:1164  msg.sender */\n      caller\n        /* \"Assignment 4 Tokens/final.sol\":1166:1168  id */\n      dup4\n        /* \"Assignment 4 Tokens/final.sol\":1171:1176  _name */\n      dup4\n        /* \"Assignment 4 Tokens/final.sol\":1143:1177  createItem(msg.sender, id , _name) */\n      mload(0x40)\n      tag_59\n      swap4\n      swap3\n      swap2\n      swap1\n      tag_60\n      jump\t// in\n    tag_59:\n      mload(0x40)\n      dup1\n      swap2\n      sub\n      swap1\n      log1\n        /* \"Assignment 4 Tokens/final.sol\":659:1185  function CreateItem(uint256 id, string memory _name) public {... */\n      pop\n      pop\n      jump\t// out\n        /* \"Assignment 4 Tokens/final.sol\":2424:2496  function ownershipTransfer(address _address,uint256 id)public {... */\n    tag_25:\n      pop\n      pop\n      jump\t// out\n        /* \"Assignment 4 Tokens/final.sol\":2088:2234  function getWinningBidder(address _address,uint256 id)public view returns(address){... */\n    tag_29:\n        /* \"Assignment 4 Tokens/final.sol\":2162:2169  address */\n      0x00\n        /* \"Assignment 4 Tokens/final.sol\":2188:2199  itemDetails */\n      dup1\n        /* \"Assignment 4 Tokens/final.sol\":2188:2209  itemDetails[_address] */\n      0x00\n        /* \"Assignment 4 Tokens/final.sol\":2200:2208  _address */\n      dup5\n        /* \"Assignment 4 Tokens/final.sol\":2188:2209  itemDetails[_address] */\n      0xffffffffffffffffffffffffffffffffffffffff\n      and\n      0xffffffffffffffffffffffffffffffffffffffff\n      and\n      dup2\n      mstore\n      0x20\n      add\n      swap1\n      dup2\n      mstore\n      0x20\n      add\n      0x00\n      keccak256\n        /* \"Assignment 4 Tokens/final.sol\":2188:2213  itemDetails[_address][id] */\n      0x00\n        /* \"Assignment 4 Tokens/final.sol\":2210:2212  id */\n      dup4\n        /* \"Assignment 4 Tokens/final.sol\":2188:2213  itemDetails[_address][id] */\n      dup2\n      mstore\n      0x20\n      add\n      swap1\n      dup2\n      mstore\n      0x20\n      add\n      0x00\n      keccak256\n        /* \"Assignment 4 Tokens/final.sol\":2188:2226  itemDetails[_address][id].highestBider */\n      0x03\n      add\n      0x00\n      swap1\n      sload\n      swap1\n      0x0100\n      exp\n      swap1\n      div\n      0xffffffffffffffffffffffffffffffffffffffff\n      and\n        /* \"Assignment 4 Tokens/final.sol\":2181:2226  return itemDetails[_address][id].highestBider */\n      swap1\n      pop\n        /* \"Assignment 4 Tokens/final.sol\":2088:2234  function getWinningBidder(address _address,uint256 id)public view returns(address){... */\n      swap3\n      swap2\n      pop\n      pop\n      jump\t// out\n        /* \"Assignment 4 Tokens/final.sol\":1937:2080  function getHighestBid(address _address, uint256 id)public view returns(uint256) {... */\n    tag_35:\n        /* \"Assignment 4 Tokens/final.sol\":2009:2016  uint256 */\n      0x00\n        /* \"Assignment 4 Tokens/final.sol\":2036:2047  itemDetails */\n      dup1\n        /* \"Assignment 4 Tokens/final.sol\":2036:2057  itemDetails[_address] */\n      0x00\n        /* \"Assignment 4 Tokens/final.sol\":2048:2056  _address */\n      dup5\n        /* \"Assignment 4 Tokens/final.sol\":2036:2057  itemDetails[_address] */\n      0xffffffffffffffffffffffffffffffffffffffff\n      and\n      0xffffffffffffffffffffffffffffffffffffffff\n      and\n      dup2\n      mstore\n      0x20\n      add\n      swap1\n      dup2\n      mstore\n      0x20\n      add\n      0x00\n      keccak256\n        /* \"Assignment 4 Tokens/final.sol\":2036:2061  itemDetails[_address][id] */\n      0x00\n        /* \"Assignment 4 Tokens/final.sol\":2058:2060  id */\n      dup4\n        /* \"Assignment 4 Tokens/final.sol\":2036:2061  itemDetails[_address][id] */\n      dup2\n      mstore\n      0x20\n      add\n      swap1\n      dup2\n      mstore\n      0x20\n      add\n      0x00\n      keccak256\n        /* \"Assignment 4 Tokens/final.sol\":2036:2072  itemDetails[_address][id].highestBid */\n      0x02\n      add\n      sload\n        /* \"Assignment 4 Tokens/final.sol\":2029:2072  return itemDetails[_address][id].highestBid */\n      swap1\n      pop\n        /* \"Assignment 4 Tokens/final.sol\":1937:2080  function getHighestBid(address _address, uint256 id)public view returns(uint256) {... */\n      swap3\n      swap2\n      pop\n      pop\n      jump\t// out\n        /* \"Assignment 4 Tokens/final.sol\":2242:2416  function cancelAuction(address _address,uint256 id)public {... */\n    tag_41:\n        /* \"Assignment 4 Tokens/final.sol\":2320:2331  itemDetails */\n      0x00\n        /* \"Assignment 4 Tokens/final.sol\":2320:2341  itemDetails[_address] */\n      dup1\n        /* \"Assignment 4 Tokens/final.sol\":2332:2340  _address */\n      dup4\n        /* \"Assignment 4 Tokens/final.sol\":2320:2341  itemDetails[_address] */\n      0xffffffffffffffffffffffffffffffffffffffff\n      and\n      0xffffffffffffffffffffffffffffffffffffffff\n      and\n      dup2\n      mstore\n      0x20\n      add\n      swap1\n      dup2\n      mstore\n      0x20\n      add\n      0x00\n      keccak256\n        /* \"Assignment 4 Tokens/final.sol\":2320:2345  itemDetails[_address][id] */\n      0x00\n        /* \"Assignment 4 Tokens/final.sol\":2342:2344  id */\n      dup3\n        /* \"Assignment 4 Tokens/final.sol\":2320:2345  itemDetails[_address][id] */\n      dup2\n      mstore\n      0x20\n      add\n      swap1\n      dup2\n      mstore\n      0x20\n      add\n      0x00\n      keccak256\n        /* \"Assignment 4 Tokens/final.sol\":2320:2358  itemDetails[_address][id].highestBider */\n      0x03\n      add\n      0x00\n      swap1\n      sload\n      swap1\n      0x0100\n      exp\n      swap1\n      div\n      0xffffffffffffffffffffffffffffffffffffffff\n      and\n        /* \"Assignment 4 Tokens/final.sol\":2311:2368  payable (itemDetails[_address][id].highestBider).transfer */\n      0xffffffffffffffffffffffffffffffffffffffff\n      and\n        /* \"Assignment 4 Tokens/final.sol\":2311:2406  payable (itemDetails[_address][id].highestBider).transfer(itemDetails[_address][id].highestBid) */\n      0x08fc\n        /* \"Assignment 4 Tokens/final.sol\":2369:2380  itemDetails */\n      0x00\n        /* \"Assignment 4 Tokens/final.sol\":2369:2390  itemDetails[_address] */\n      dup1\n        /* \"Assignment 4 Tokens/final.sol\":2381:2389  _address */\n      dup6\n        /* \"Assignment 4 Tokens/final.sol\":2369:2390  itemDetails[_address] */\n      0xffffffffffffffffffffffffffffffffffffffff\n      and\n      0xffffffffffffffffffffffffffffffffffffffff\n      and\n      dup2\n      mstore\n      0x20\n      add\n      swap1\n      dup2\n      mstore\n      0x20\n      add\n      0x00\n      keccak256\n        /* \"Assignment 4 Tokens/final.sol\":2369:2394  itemDetails[_address][id] */\n      0x00\n        /* \"Assignment 4 Tokens/final.sol\":2391:2393  id */\n      dup5\n        /* \"Assignment 4 Tokens/final.sol\":2369:2394  itemDetails[_address][id] */\n      dup2\n      mstore\n      0x20\n      add\n      swap1\n      dup2\n      mstore\n      0x20\n      add\n      0x00\n      keccak256\n        /* \"Assignment 4 Tokens/final.sol\":2369:2405  itemDetails[_address][id].highestBid */\n      0x02\n      add\n      sload\n        /* \"Assignment 4 Tokens/final.sol\":2311:2406  payable (itemDetails[_address][id].highestBider).transfer(itemDetails[_address][id].highestBid) */\n      swap1\n      dup2\n      iszero\n      mul\n      swap1\n      mload(0x40)\n      0x00\n      mload(0x40)\n      dup1\n      dup4\n      sub\n      dup2\n      dup6\n      dup9\n      dup9\n      call\n      swap4\n      pop\n      pop\n      pop\n      pop\n      iszero\n      dup1\n      iszero\n      tag_66\n      jumpi\n      returndatasize\n      0x00\n      dup1\n      returndatacopy\n      revert(0x00, returndatasize)\n    tag_66:\n      pop\n        /* \"Assignment 4 Tokens/final.sol\":2242:2416  function cancelAuction(address _address,uint256 id)public {... */\n      pop\n      pop\n      jump\t// out\n        /* \"Assignment 4 Tokens/final.sol\":1193:1929  function placeBid(address _address,uint256 id)public payable  {... */\n    tag_44:\n        /* \"Assignment 4 Tokens/final.sol\":1286:1296  msg.sender */\n      caller\n        /* \"Assignment 4 Tokens/final.sol\":1274:1296  _address != msg.sender */\n      0xffffffffffffffffffffffffffffffffffffffff\n      and\n        /* \"Assignment 4 Tokens/final.sol\":1274:1282  _address */\n      dup3\n        /* \"Assignment 4 Tokens/final.sol\":1274:1296  _address != msg.sender */\n      0xffffffffffffffffffffffffffffffffffffffff\n      and\n      sub\n        /* \"Assignment 4 Tokens/final.sol\":1266:1316  require(_address != msg.sender,\" owner can't bid\") */\n      tag_68\n      jumpi\n      mload(0x40)\n      0x08c379a000000000000000000000000000000000000000000000000000000000\n      dup2\n      mstore\n      0x04\n      add\n      tag_69\n      swap1\n      tag_70\n      jump\t// in\n    tag_69:\n      mload(0x40)\n      dup1\n      swap2\n      sub\n      swap1\n      revert\n    tag_68:\n        /* \"Assignment 4 Tokens/final.sol\":1376:1377  0 */\n      0x00\n        /* \"Assignment 4 Tokens/final.sol\":1335:1346  itemDetails */\n      dup1\n        /* \"Assignment 4 Tokens/final.sol\":1335:1356  itemDetails[_address] */\n      0x00\n        /* \"Assignment 4 Tokens/final.sol\":1347:1355  _address */\n      dup5\n        /* \"Assignment 4 Tokens/final.sol\":1335:1356  itemDetails[_address] */\n      0xffffffffffffffffffffffffffffffffffffffff\n      and\n      0xffffffffffffffffffffffffffffffffffffffff\n      and\n      dup2\n      mstore\n      0x20\n      add\n      swap1\n      dup2\n      mstore\n      0x20\n      add\n      0x00\n      keccak256\n        /* \"Assignment 4 Tokens/final.sol\":1335:1360  itemDetails[_address][id] */\n      0x00\n        /* \"Assignment 4 Tokens/final.sol\":1357:1359  id */\n      dup4\n        /* \"Assignment 4 Tokens/final.sol\":1335:1360  itemDetails[_address][id] */\n      dup2\n      mstore\n      0x20\n      add\n      swap1\n      dup2\n      mstore\n      0x20\n      add\n      0x00\n      keccak256\n        /* \"Assignment 4 Tokens/final.sol\":1335:1373  itemDetails[_address][id].auction_time */\n      0x04\n      add\n      sload\n        /* \"Assignment 4 Tokens/final.sol\":1335:1377  itemDetails[_address][id].auction_time > 0 */\n      gt\n        /* \"Assignment 4 Tokens/final.sol\":1327:1407  require(itemDetails[_address][id].auction_time > 0,\" Nothing to Place the Bid \") */\n      tag_71\n      jumpi\n      mload(0x40)\n      0x08c379a000000000000000000000000000000000000000000000000000000000\n      dup2\n      mstore\n      0x04\n      add\n      tag_72\n      swap1\n      tag_73\n      jump\t// in\n    tag_72:\n      mload(0x40)\n      dup1\n      swap2\n      sub\n      swap1\n      revert\n    tag_71:\n        /* \"Assignment 4 Tokens/final.sol\":1438:1449  itemDetails */\n      0x00\n        /* \"Assignment 4 Tokens/final.sol\":1438:1459  itemDetails[_address] */\n      dup1\n        /* \"Assignment 4 Tokens/final.sol\":1450:1458  _address */\n      dup4\n        /* \"Assignment 4 Tokens/final.sol\":1438:1459  itemDetails[_address] */\n      0xffffffffffffffffffffffffffffffffffffffff\n      and\n      0xffffffffffffffffffffffffffffffffffffffff\n      and\n      dup2\n      mstore\n      0x20\n      add\n      swap1\n      dup2\n      mstore\n      0x20\n      add\n      0x00\n      keccak256\n        /* \"Assignment 4 Tokens/final.sol\":1438:1463  itemDetails[_address][id] */\n      0x00\n        /* \"Assignment 4 Tokens/final.sol\":1460:1462  id */\n      dup3\n        /* \"Assignment 4 Tokens/final.sol\":1438:1463  itemDetails[_address][id] */\n      dup2\n      mstore\n      0x20\n      add\n      swap1\n      dup2\n      mstore\n      0x20\n      add\n      0x00\n      keccak256\n        /* \"Assignment 4 Tokens/final.sol\":1438:1474  itemDetails[_address][id].highestBid */\n      0x02\n      add\n      sload\n        /* \"Assignment 4 Tokens/final.sol\":1426:1435  msg.value */\n      callvalue\n        /* \"Assignment 4 Tokens/final.sol\":1426:1474  msg.value > itemDetails[_address][id].highestBid */\n      gt\n        /* \"Assignment 4 Tokens/final.sol\":1418:1509  require(msg.value > itemDetails[_address][id].highestBid,\" Increase the amount by 1 ether\") */\n      tag_74\n      jumpi\n      mload(0x40)\n      0x08c379a000000000000000000000000000000000000000000000000000000000\n      dup2\n      mstore\n      0x04\n      add\n      tag_75\n      swap1\n      tag_76\n      jump\t// in\n    tag_75:\n      mload(0x40)\n      dup1\n      swap2\n      sub\n      swap1\n      revert\n    tag_74:\n        /* \"Assignment 4 Tokens/final.sol\":1554:1563  msg.value */\n      callvalue\n        /* \"Assignment 4 Tokens/final.sol\":1520:1531  itemDetails */\n      0x00\n        /* \"Assignment 4 Tokens/final.sol\":1520:1541  itemDetails[_address] */\n      dup1\n        /* \"Assignment 4 Tokens/final.sol\":1532:1540  _address */\n      dup5\n        /* \"Assignment 4 Tokens/final.sol\":1520:1541  itemDetails[_address] */\n      0xffffffffffffffffffffffffffffffffffffffff\n      and\n      0xffffffffffffffffffffffffffffffffffffffff\n      and\n      dup2\n      mstore\n      0x20\n      add\n      swap1\n      dup2\n      mstore\n      0x20\n      add\n      0x00\n      keccak256\n        /* \"Assignment 4 Tokens/final.sol\":1520:1545  itemDetails[_address][id] */\n      0x00\n        /* \"Assignment 4 Tokens/final.sol\":1542:1544  id */\n      dup4\n        /* \"Assignment 4 Tokens/final.sol\":1520:1545  itemDetails[_address][id] */\n      dup2\n      mstore\n      0x20\n      add\n      swap1\n      dup2\n      mstore\n      0x20\n      add\n      0x00\n      keccak256\n        /* \"Assignment 4 Tokens/final.sol\":1520:1553  itemDetails[_address][id].lastBid */\n      0x01\n      add\n        /* \"Assignment 4 Tokens/final.sol\":1520:1563  itemDetails[_address][id].lastBid=msg.value */\n      dup2\n      swap1\n      sstore\n      pop\n        /* \"Assignment 4 Tokens/final.sol\":1611:1622  itemDetails */\n      0x00\n        /* \"Assignment 4 Tokens/final.sol\":1611:1632  itemDetails[_address] */\n      dup1\n        /* \"Assignment 4 Tokens/final.sol\":1623:1631  _address */\n      dup4\n        /* \"Assignment 4 Tokens/final.sol\":1611:1632  itemDetails[_address] */\n      0xffffffffffffffffffffffffffffffffffffffff\n      and\n      0xffffffffffffffffffffffffffffffffffffffff\n      and\n      dup2\n      mstore\n      0x20\n      add\n      swap1\n      dup2\n      mstore\n      0x20\n      add\n      0x00\n      keccak256\n        /* \"Assignment 4 Tokens/final.sol\":1611:1636  itemDetails[_address][id] */\n      0x00\n        /* \"Assignment 4 Tokens/final.sol\":1633:1635  id */\n      dup3\n        /* \"Assignment 4 Tokens/final.sol\":1611:1636  itemDetails[_address][id] */\n      dup2\n      mstore\n      0x20\n      add\n      swap1\n      dup2\n      mstore\n      0x20\n      add\n      0x00\n      keccak256\n        /* \"Assignment 4 Tokens/final.sol\":1611:1644  itemDetails[_address][id].lastBid */\n      0x01\n      add\n      sload\n        /* \"Assignment 4 Tokens/final.sol\":1574:1585  itemDetails */\n      0x00\n        /* \"Assignment 4 Tokens/final.sol\":1574:1595  itemDetails[_address] */\n      dup1\n        /* \"Assignment 4 Tokens/final.sol\":1586:1594  _address */\n      dup5\n        /* \"Assignment 4 Tokens/final.sol\":1574:1595  itemDetails[_address] */\n      0xffffffffffffffffffffffffffffffffffffffff\n      and\n      0xffffffffffffffffffffffffffffffffffffffff\n      and\n      dup2\n      mstore\n      0x20\n      add\n      swap1\n      dup2\n      mstore\n      0x20\n      add\n      0x00\n      keccak256\n        /* \"Assignment 4 Tokens/final.sol\":1574:1599  itemDetails[_address][id] */\n      0x00\n        /* \"Assignment 4 Tokens/final.sol\":1596:1598  id */\n      dup4\n        /* \"Assignment 4 Tokens/final.sol\":1574:1599  itemDetails[_address][id] */\n      dup2\n      mstore\n      0x20\n      add\n      swap1\n      dup2\n      mstore\n      0x20\n      add\n      0x00\n      keccak256\n        /* \"Assignment 4 Tokens/final.sol\":1574:1610  itemDetails[_address][id].highestBid */\n      0x02\n      add\n        /* \"Assignment 4 Tokens/final.sol\":1574:1644  itemDetails[_address][id].highestBid=itemDetails[_address][id].lastBid */\n      dup2\n      swap1\n      sstore\n      pop\n        /* \"Assignment 4 Tokens/final.sol\":1698:1708  msg.sender */\n      caller\n        /* \"Assignment 4 Tokens/final.sol\":1655:1666  itemDetails */\n      0x00\n        /* \"Assignment 4 Tokens/final.sol\":1655:1676  itemDetails[_address] */\n      dup1\n        /* \"Assignment 4 Tokens/final.sol\":1667:1675  _address */\n      dup5\n        /* \"Assignment 4 Tokens/final.sol\":1655:1676  itemDetails[_address] */\n      0xffffffffffffffffffffffffffffffffffffffff\n      and\n      0xffffffffffffffffffffffffffffffffffffffff\n      and\n      dup2\n      mstore\n      0x20\n      add\n      swap1\n      dup2\n      mstore\n      0x20\n      add\n      0x00\n      keccak256\n        /* \"Assignment 4 Tokens/final.sol\":1655:1680  itemDetails[_address][id] */\n      0x00\n        /* \"Assignment 4 Tokens/final.sol\":1677:1679  id */\n      dup4\n        /* \"Assignment 4 Tokens/final.sol\":1655:1680  itemDetails[_address][id] */\n      dup2\n      mstore\n      0x20\n      add\n      swap1\n      dup2\n      mstore\n      0x20\n      add\n      0x00\n      keccak256\n        /* \"Assignment 4 Tokens/final.sol\":1655:1697  itemDetails[_address][id].lastHighestBider */\n      0x05\n      add\n      0x00\n        /* \"Assignment 4 Tokens/final.sol\":1655:1708  itemDetails[_address][id].lastHighestBider=msg.sender */\n      0x0100\n      exp\n      dup2\n      sload\n      dup2\n      0xffffffffffffffffffffffffffffffffffffffff\n      mul\n      not\n      and\n      swap1\n      dup4\n      0xffffffffffffffffffffffffffffffffffffffff\n      and\n      mul\n      or\n      swap1\n      sstore\n      pop\n        /* \"Assignment 4 Tokens/final.sol\":1758:1768  msg.sender */\n      caller\n        /* \"Assignment 4 Tokens/final.sol\":1719:1730  itemDetails */\n      0x00\n        /* \"Assignment 4 Tokens/final.sol\":1719:1740  itemDetails[_address] */\n      dup1\n        /* \"Assignment 4 Tokens/final.sol\":1731:1739  _address */\n      dup5\n        /* \"Assignment 4 Tokens/final.sol\":1719:1740  itemDetails[_address] */\n      0xffffffffffffffffffffffffffffffffffffffff\n      and\n      0xffffffffffffffffffffffffffffffffffffffff\n      and\n      dup2\n      mstore\n      0x20\n      add\n      swap1\n      dup2\n      mstore\n      0x20\n      add\n      0x00\n      keccak256\n        /* \"Assignment 4 Tokens/final.sol\":1719:1744  itemDetails[_address][id] */\n      0x00\n        /* \"Assignment 4 Tokens/final.sol\":1741:1743  id */\n      dup4\n        /* \"Assignment 4 Tokens/final.sol\":1719:1744  itemDetails[_address][id] */\n      dup2\n      mstore\n      0x20\n      add\n      swap1\n      dup2\n      mstore\n      0x20\n      add\n      0x00\n      keccak256\n        /* \"Assignment 4 Tokens/final.sol\":1719:1757  itemDetails[_address][id].highestBider */\n      0x03\n      add\n      0x00\n        /* \"Assignment 4 Tokens/final.sol\":1719:1768  itemDetails[_address][id].highestBider=msg.sender */\n      0x0100\n      exp\n      dup2\n      sload\n      dup2\n      0xffffffffffffffffffffffffffffffffffffffff\n      mul\n      not\n      and\n      swap1\n      dup4\n      0xffffffffffffffffffffffffffffffffffffffff\n      and\n      mul\n      or\n      swap1\n      sstore\n      pop\n        /* \"Assignment 4 Tokens/final.sol\":1787:1798  itemDetails */\n      0x00\n        /* \"Assignment 4 Tokens/final.sol\":1787:1808  itemDetails[_address] */\n      dup1\n        /* \"Assignment 4 Tokens/final.sol\":1799:1807  _address */\n      dup4\n        /* \"Assignment 4 Tokens/final.sol\":1787:1808  itemDetails[_address] */\n      0xffffffffffffffffffffffffffffffffffffffff\n      and\n      0xffffffffffffffffffffffffffffffffffffffff\n      and\n      dup2\n      mstore\n      0x20\n      add\n      swap1\n      dup2\n      mstore\n      0x20\n      add\n      0x00\n      keccak256\n        /* \"Assignment 4 Tokens/final.sol\":1787:1812  itemDetails[_address][id] */\n      0x00\n        /* \"Assignment 4 Tokens/final.sol\":1809:1811  id */\n      dup3\n        /* \"Assignment 4 Tokens/final.sol\":1787:1812  itemDetails[_address][id] */\n      dup2\n      mstore\n      0x20\n      add\n      swap1\n      dup2\n      mstore\n      0x20\n      add\n      0x00\n      keccak256\n        /* \"Assignment 4 Tokens/final.sol\":1787:1829  itemDetails[_address][id].lastHighestBider */\n      0x05\n      add\n      0x00\n      swap1\n      sload\n      swap1\n      0x0100\n      exp\n      swap1\n      div\n      0xffffffffffffffffffffffffffffffffffffffff\n      and\n        /* \"Assignment 4 Tokens/final.sol\":1779:1839  payable(itemDetails[_address][id].lastHighestBider).transfer */\n      0xffffffffffffffffffffffffffffffffffffffff\n      and\n        /* \"Assignment 4 Tokens/final.sol\":1779:1877  payable(itemDetails[_address][id].lastHighestBider).transfer(itemDetails[_address][id].highestBid) */\n      0x08fc\n        /* \"Assignment 4 Tokens/final.sol\":1840:1851  itemDetails */\n      0x00\n        /* \"Assignment 4 Tokens/final.sol\":1840:1861  itemDetails[_address] */\n      dup1\n        /* \"Assignment 4 Tokens/final.sol\":1852:1860  _address */\n      dup6\n        /* \"Assignment 4 Tokens/final.sol\":1840:1861  itemDetails[_address] */\n      0xffffffffffffffffffffffffffffffffffffffff\n      and\n      0xffffffffffffffffffffffffffffffffffffffff\n      and\n      dup2\n      mstore\n      0x20\n      add\n      swap1\n      dup2\n      mstore\n      0x20\n      add\n      0x00\n      keccak256\n        /* \"Assignment 4 Tokens/final.sol\":1840:1865  itemDetails[_address][id] */\n      0x00\n        /* \"Assignment 4 Tokens/final.sol\":1862:1864  id */\n      dup5\n        /* \"Assignment 4 Tokens/final.sol\":1840:1865  itemDetails[_address][id] */\n      dup2\n      mstore\n      0x20\n      add\n      swap1\n      dup2\n      mstore\n      0x20\n      add\n      0x00\n      keccak256\n        /* \"Assignment 4 Tokens/final.sol\":1840:1876  itemDetails[_address][id].highestBid */\n      0x02\n      add\n      sload\n        /* \"Assignment 4 Tokens/final.sol\":1779:1877  payable(itemDetails[_address][id].lastHighestBider).transfer(itemDetails[_address][id].highestBid) */\n      swap1\n      dup2\n      iszero\n      mul\n      swap1\n      mload(0x40)\n      0x00\n      mload(0x40)\n      dup1\n      dup4\n      sub\n      dup2\n      dup6\n      dup9\n      dup9\n      call\n      swap4\n      pop\n      pop\n      pop\n      pop\n      iszero\n      dup1\n      iszero\n      tag_78\n      jumpi\n      returndatasize\n      0x00\n      dup1\n      returndatacopy\n      revert(0x00, returndatasize)\n    tag_78:\n      pop\n        /* \"Assignment 4 Tokens/final.sol\":1893:1919  Bid(msg.sender, msg.value) */\n      0xe684a55f31b79eca403df938249029212a5925ec6be8012e099b45bc1019e5d2\n        /* \"Assignment 4 Tokens/final.sol\":1897:1907  msg.sender */\n      caller\n        /* \"Assignment 4 Tokens/final.sol\":1909:1918  msg.value */\n      callvalue\n        /* \"Assignment 4 Tokens/final.sol\":1893:1919  Bid(msg.sender, msg.value) */\n      mload(0x40)\n      tag_79\n      swap3\n      swap2\n      swap1\n      tag_80\n      jump\t// in\n    tag_79:\n      mload(0x40)\n      dup1\n      swap2\n      sub\n      swap1\n      log1\n        /* \"Assignment 4 Tokens/final.sol\":1193:1929  function placeBid(address _address,uint256 id)public payable  {... */\n      pop\n      pop\n      jump\t// out\n        /* \"#utility.yul\":7:82   */\n    tag_81:\n        /* \"#utility.yul\":40:46   */\n      0x00\n        /* \"#utility.yul\":73:75   */\n      0x40\n        /* \"#utility.yul\":67:76   */\n      mload\n        /* \"#utility.yul\":57:76   */\n      swap1\n      pop\n        /* \"#utility.yul\":7:82   */\n      swap1\n      jump\t// out\n        /* \"#utility.yul\":88:205   */\n    tag_82:\n        /* \"#utility.yul\":197:198   */\n      0x00\n        /* \"#utility.yul\":194:195   */\n      dup1\n        /* \"#utility.yul\":187:199   */\n      revert\n        /* \"#utility.yul\":211:328   */\n    tag_83:\n        /* \"#utility.yul\":320:321   */\n      0x00\n        /* \"#utility.yul\":317:318   */\n      dup1\n        /* \"#utility.yul\":310:322   */\n      revert\n        /* \"#utility.yul\":334:460   */\n    tag_84:\n        /* \"#utility.yul\":371:378   */\n      0x00\n        /* \"#utility.yul\":411:453   */\n      0xffffffffffffffffffffffffffffffffffffffff\n        /* \"#utility.yul\":404:409   */\n      dup3\n        /* \"#utility.yul\":400:454   */\n      and\n        /* \"#utility.yul\":389:454   */\n      swap1\n      pop\n        /* \"#utility.yul\":334:460   */\n      swap2\n      swap1\n      pop\n      jump\t// out\n        /* \"#utility.yul\":466:562   */\n    tag_85:\n        /* \"#utility.yul\":503:510   */\n      0x00\n        /* \"#utility.yul\":532:556   */\n      tag_138\n        /* \"#utility.yul\":550:555   */\n      dup3\n        /* \"#utility.yul\":532:556   */\n      tag_84\n      jump\t// in\n    tag_138:\n        /* \"#utility.yul\":521:556   */\n      swap1\n      pop\n        /* \"#utility.yul\":466:562   */\n      swap2\n      swap1\n      pop\n      jump\t// out\n        /* \"#utility.yul\":568:690   */\n    tag_86:\n        /* \"#utility.yul\":641:665   */\n      tag_140\n        /* \"#utility.yul\":659:664   */\n      dup2\n        /* \"#utility.yul\":641:665   */\n      tag_85\n      jump\t// in\n    tag_140:\n        /* \"#utility.yul\":634:639   */\n      dup2\n        /* \"#utility.yul\":631:666   */\n      eq\n        /* \"#utility.yul\":621:684   */\n      tag_141\n      jumpi\n        /* \"#utility.yul\":680:681   */\n      0x00\n        /* \"#utility.yul\":677:678   */\n      dup1\n        /* \"#utility.yul\":670:682   */\n      revert\n        /* \"#utility.yul\":621:684   */\n    tag_141:\n        /* \"#utility.yul\":568:690   */\n      pop\n      jump\t// out\n        /* \"#utility.yul\":696:835   */\n    tag_87:\n        /* \"#utility.yul\":742:747   */\n      0x00\n        /* \"#utility.yul\":780:786   */\n      dup2\n        /* \"#utility.yul\":767:787   */\n      calldataload\n        /* \"#utility.yul\":758:787   */\n      swap1\n      pop\n        /* \"#utility.yul\":796:829   */\n      tag_143\n        /* \"#utility.yul\":823:828   */\n      dup2\n        /* \"#utility.yul\":796:829   */\n      tag_86\n      jump\t// in\n    tag_143:\n        /* \"#utility.yul\":696:835   */\n      swap3\n      swap2\n      pop\n      pop\n      jump\t// out\n        /* \"#utility.yul\":841:918   */\n    tag_88:\n        /* \"#utility.yul\":878:885   */\n      0x00\n        /* \"#utility.yul\":907:912   */\n      dup2\n        /* \"#utility.yul\":896:912   */\n      swap1\n      pop\n        /* \"#utility.yul\":841:918   */\n      swap2\n      swap1\n      pop\n      jump\t// out\n        /* \"#utility.yul\":924:1046   */\n    tag_89:\n        /* \"#utility.yul\":997:1021   */\n      tag_146\n        /* \"#utility.yul\":1015:1020   */\n      dup2\n        /* \"#utility.yul\":997:1021   */\n      tag_88\n      jump\t// in\n    tag_146:\n        /* \"#utility.yul\":990:995   */\n      dup2\n        /* \"#utility.yul\":987:1022   */\n      eq\n        /* \"#utility.yul\":977:1040   */\n      tag_147\n      jumpi\n        /* \"#utility.yul\":1036:1037   */\n      0x00\n        /* \"#utility.yul\":1033:1034   */\n      dup1\n        /* \"#utility.yul\":1026:1038   */\n      revert\n        /* \"#utility.yul\":977:1040   */\n    tag_147:\n        /* \"#utility.yul\":924:1046   */\n      pop\n      jump\t// out\n        /* \"#utility.yul\":1052:1191   */\n    tag_90:\n        /* \"#utility.yul\":1098:1103   */\n      0x00\n        /* \"#utility.yul\":1136:1142   */\n      dup2\n        /* \"#utility.yul\":1123:1143   */\n      calldataload\n        /* \"#utility.yul\":1114:1143   */\n      swap1\n      pop\n        /* \"#utility.yul\":1152:1185   */\n      tag_149\n        /* \"#utility.yul\":1179:1184   */\n      dup2\n        /* \"#utility.yul\":1152:1185   */\n      tag_89\n      jump\t// in\n    tag_149:\n        /* \"#utility.yul\":1052:1191   */\n      swap3\n      swap2\n      pop\n      pop\n      jump\t// out\n        /* \"#utility.yul\":1197:1671   */\n    tag_13:\n        /* \"#utility.yul\":1265:1271   */\n      0x00\n        /* \"#utility.yul\":1273:1279   */\n      dup1\n        /* \"#utility.yul\":1322:1324   */\n      0x40\n        /* \"#utility.yul\":1310:1319   */\n      dup4\n        /* \"#utility.yul\":1301:1308   */\n      dup6\n        /* \"#utility.yul\":1297:1320   */\n      sub\n        /* \"#utility.yul\":1293:1325   */\n      slt\n        /* \"#utility.yul\":1290:1409   */\n      iszero\n      tag_151\n      jumpi\n        /* \"#utility.yul\":1328:1407   */\n      tag_152\n      tag_82\n      jump\t// in\n    tag_152:\n        /* \"#utility.yul\":1290:1409   */\n    tag_151:\n        /* \"#utility.yul\":1448:1449   */\n      0x00\n        /* \"#utility.yul\":1473:1526   */\n      tag_153\n        /* \"#utility.yul\":1518:1525   */\n      dup6\n        /* \"#utility.yul\":1509:1515   */\n      dup3\n        /* \"#utility.yul\":1498:1507   */\n      dup7\n        /* \"#utility.yul\":1494:1516   */\n      add\n        /* \"#utility.yul\":1473:1526   */\n      tag_87\n      jump\t// in\n    tag_153:\n        /* \"#utility.yul\":1463:1526   */\n      swap3\n      pop\n        /* \"#utility.yul\":1419:1536   */\n      pop\n        /* \"#utility.yul\":1575:1577   */\n      0x20\n        /* \"#utility.yul\":1601:1654   */\n      tag_154\n        /* \"#utility.yul\":1646:1653   */\n      dup6\n        /* \"#utility.yul\":1637:1643   */\n      dup3\n        /* \"#utility.yul\":1626:1635   */\n      dup7\n        /* \"#utility.yul\":1622:1644   */\n      add\n        /* \"#utility.yul\":1601:1654   */\n      tag_90\n      jump\t// in\n    tag_154:\n        /* \"#utility.yul\":1591:1654   */\n      swap2\n      pop\n        /* \"#utility.yul\":1546:1664   */\n      pop\n        /* \"#utility.yul\":1197:1671   */\n      swap3\n      pop\n      swap3\n      swap1\n      pop\n      jump\t// out\n        /* \"#utility.yul\":1677:1776   */\n    tag_91:\n        /* \"#utility.yul\":1729:1735   */\n      0x00\n        /* \"#utility.yul\":1763:1768   */\n      dup2\n        /* \"#utility.yul\":1757:1769   */\n      mload\n        /* \"#utility.yul\":1747:1769   */\n      swap1\n      pop\n        /* \"#utility.yul\":1677:1776   */\n      swap2\n      swap1\n      pop\n      jump\t// out\n        /* \"#utility.yul\":1782:1951   */\n    tag_92:\n        /* \"#utility.yul\":1866:1877   */\n      0x00\n        /* \"#utility.yul\":1900:1906   */\n      dup3\n        /* \"#utility.yul\":1895:1898   */\n      dup3\n        /* \"#utility.yul\":1888:1907   */\n      mstore\n        /* \"#utility.yul\":1940:1944   */\n      0x20\n        /* \"#utility.yul\":1935:1938   */\n      dup3\n        /* \"#utility.yul\":1931:1945   */\n      add\n        /* \"#utility.yul\":1916:1945   */\n      swap1\n      pop\n        /* \"#utility.yul\":1782:1951   */\n      swap3\n      swap2\n      pop\n      pop\n      jump\t// out\n        /* \"#utility.yul\":1957:2203   */\n    tag_93:\n        /* \"#utility.yul\":2038:2039   */\n      0x00\n        /* \"#utility.yul\":2048:2161   */\n    tag_158:\n        /* \"#utility.yul\":2062:2068   */\n      dup4\n        /* \"#utility.yul\":2059:2060   */\n      dup2\n        /* \"#utility.yul\":2056:2069   */\n      lt\n        /* \"#utility.yul\":2048:2161   */\n      iszero\n      tag_160\n      jumpi\n        /* \"#utility.yul\":2147:2148   */\n      dup1\n        /* \"#utility.yul\":2142:2145   */\n      dup3\n        /* \"#utility.yul\":2138:2149   */\n      add\n        /* \"#utility.yul\":2132:2150   */\n      mload\n        /* \"#utility.yul\":2128:2129   */\n      dup2\n        /* \"#utility.yul\":2123:2126   */\n      dup5\n        /* \"#utility.yul\":2119:2130   */\n      add\n        /* \"#utility.yul\":2112:2151   */\n      mstore\n        /* \"#utility.yul\":2084:2086   */\n      0x20\n        /* \"#utility.yul\":2081:2082   */\n      dup2\n        /* \"#utility.yul\":2077:2087   */\n      add\n        /* \"#utility.yul\":2072:2087   */\n      swap1\n      pop\n        /* \"#utility.yul\":2048:2161   */\n      jump(tag_158)\n    tag_160:\n        /* \"#utility.yul\":2195:2196   */\n      0x00\n        /* \"#utility.yul\":2186:2192   */\n      dup5\n        /* \"#utility.yul\":2181:2184   */\n      dup5\n        /* \"#utility.yul\":2177:2193   */\n      add\n        /* \"#utility.yul\":2170:2197   */\n      mstore\n        /* \"#utility.yul\":2019:2203   */\n      pop\n        /* \"#utility.yul\":1957:2203   */\n      pop\n      pop\n      pop\n      jump\t// out\n        /* \"#utility.yul\":2209:2311   */\n    tag_94:\n        /* \"#utility.yul\":2250:2256   */\n      0x00\n        /* \"#utility.yul\":2301:2303   */\n      0x1f\n        /* \"#utility.yul\":2297:2304   */\n      not\n        /* \"#utility.yul\":2292:2294   */\n      0x1f\n        /* \"#utility.yul\":2285:2290   */\n      dup4\n        /* \"#utility.yul\":2281:2295   */\n      add\n        /* \"#utility.yul\":2277:2305   */\n      and\n        /* \"#utility.yul\":2267:2305   */\n      swap1\n      pop\n        /* \"#utility.yul\":2209:2311   */\n      swap2\n      swap1\n      pop\n      jump\t// out\n        /* \"#utility.yul\":2317:2694   */\n    tag_95:\n        /* \"#utility.yul\":2405:2408   */\n      0x00\n        /* \"#utility.yul\":2433:2472   */\n      tag_163\n        /* \"#utility.yul\":2466:2471   */\n      dup3\n        /* \"#utility.yul\":2433:2472   */\n      tag_91\n      jump\t// in\n    tag_163:\n        /* \"#utility.yul\":2488:2559   */\n      tag_164\n        /* \"#utility.yul\":2552:2558   */\n      dup2\n        /* \"#utility.yul\":2547:2550   */\n      dup6\n        /* \"#utility.yul\":2488:2559   */\n      tag_92\n      jump\t// in\n    tag_164:\n        /* \"#utility.yul\":2481:2559   */\n      swap4\n      pop\n        /* \"#utility.yul\":2568:2633   */\n      tag_165\n        /* \"#utility.yul\":2626:2632   */\n      dup2\n        /* \"#utility.yul\":2621:2624   */\n      dup6\n        /* \"#utility.yul\":2614:2618   */\n      0x20\n        /* \"#utility.yul\":2607:2612   */\n      dup7\n        /* \"#utility.yul\":2603:2619   */\n      add\n        /* \"#utility.yul\":2568:2633   */\n      tag_93\n      jump\t// in\n    tag_165:\n        /* \"#utility.yul\":2658:2687   */\n      tag_166\n        /* \"#utility.yul\":2680:2686   */\n      dup2\n        /* \"#utility.yul\":2658:2687   */\n      tag_94\n      jump\t// in\n    tag_166:\n        /* \"#utility.yul\":2653:2656   */\n      dup5\n        /* \"#utility.yul\":2649:2688   */\n      add\n        /* \"#utility.yul\":2642:2688   */\n      swap2\n      pop\n        /* \"#utility.yul\":2409:2694   */\n      pop\n        /* \"#utility.yul\":2317:2694   */\n      swap3\n      swap2\n      pop\n      pop\n      jump\t// out\n        /* \"#utility.yul\":2700:2818   */\n    tag_96:\n        /* \"#utility.yul\":2787:2811   */\n      tag_168\n        /* \"#utility.yul\":2805:2810   */\n      dup2\n        /* \"#utility.yul\":2787:2811   */\n      tag_88\n      jump\t// in\n    tag_168:\n        /* \"#utility.yul\":2782:2785   */\n      dup3\n        /* \"#utility.yul\":2775:2812   */\n      mstore\n        /* \"#utility.yul\":2700:2818   */\n      pop\n      pop\n      jump\t// out\n        /* \"#utility.yul\":2824:2942   */\n    tag_97:\n        /* \"#utility.yul\":2911:2935   */\n      tag_170\n        /* \"#utility.yul\":2929:2934   */\n      dup2\n        /* \"#utility.yul\":2911:2935   */\n      tag_85\n      jump\t// in\n    tag_170:\n        /* \"#utility.yul\":2906:2909   */\n      dup3\n        /* \"#utility.yul\":2899:2936   */\n      mstore\n        /* \"#utility.yul\":2824:2942   */\n      pop\n      pop\n      jump\t// out\n        /* \"#utility.yul\":2948:3814   */\n    tag_16:\n        /* \"#utility.yul\":3201:3205   */\n      0x00\n        /* \"#utility.yul\":3239:3242   */\n      0xc0\n        /* \"#utility.yul\":3228:3237   */\n      dup3\n        /* \"#utility.yul\":3224:3243   */\n      add\n        /* \"#utility.yul\":3216:3243   */\n      swap1\n      pop\n        /* \"#utility.yul\":3289:3298   */\n      dup2\n        /* \"#utility.yul\":3283:3287   */\n      dup2\n        /* \"#utility.yul\":3279:3299   */\n      sub\n        /* \"#utility.yul\":3275:3276   */\n      0x00\n        /* \"#utility.yul\":3264:3273   */\n      dup4\n        /* \"#utility.yul\":3260:3277   */\n      add\n        /* \"#utility.yul\":3253:3300   */\n      mstore\n        /* \"#utility.yul\":3317:3395   */\n      tag_172\n        /* \"#utility.yul\":3390:3394   */\n      dup2\n        /* \"#utility.yul\":3381:3387   */\n      dup10\n        /* \"#utility.yul\":3317:3395   */\n      tag_95\n      jump\t// in\n    tag_172:\n        /* \"#utility.yul\":3309:3395   */\n      swap1\n      pop\n        /* \"#utility.yul\":3405:3477   */\n      tag_173\n        /* \"#utility.yul\":3473:3475   */\n      0x20\n        /* \"#utility.yul\":3462:3471   */\n      dup4\n        /* \"#utility.yul\":3458:3476   */\n      add\n        /* \"#utility.yul\":3449:3455   */\n      dup9\n        /* \"#utility.yul\":3405:3477   */\n      tag_96\n      jump\t// in\n    tag_173:\n        /* \"#utility.yul\":3487:3559   */\n      tag_174\n        /* \"#utility.yul\":3555:3557   */\n      0x40\n        /* \"#utility.yul\":3544:3553   */\n      dup4\n        /* \"#utility.yul\":3540:3558   */\n      add\n        /* \"#utility.yul\":3531:3537   */\n      dup8\n        /* \"#utility.yul\":3487:3559   */\n      tag_96\n      jump\t// in\n    tag_174:\n        /* \"#utility.yul\":3569:3641   */\n      tag_175\n        /* \"#utility.yul\":3637:3639   */\n      0x60\n        /* \"#utility.yul\":3626:3635   */\n      dup4\n        /* \"#utility.yul\":3622:3640   */\n      add\n        /* \"#utility.yul\":3613:3619   */\n      dup7\n        /* \"#utility.yul\":3569:3641   */\n      tag_97\n      jump\t// in\n    tag_175:\n        /* \"#utility.yul\":3651:3724   */\n      tag_176\n        /* \"#utility.yul\":3719:3722   */\n      0x80\n        /* \"#utility.yul\":3708:3717   */\n      dup4\n        /* \"#utility.yul\":3704:3723   */\n      add\n        /* \"#utility.yul\":3695:3701   */\n      dup6\n        /* \"#utility.yul\":3651:3724   */\n      tag_96\n      jump\t// in\n    tag_176:\n        /* \"#utility.yul\":3734:3807   */\n      tag_177\n        /* \"#utility.yul\":3802:3805   */\n      0xa0\n        /* \"#utility.yul\":3791:3800   */\n      dup4\n        /* \"#utility.yul\":3787:3806   */\n      add\n        /* \"#utility.yul\":3778:3784   */\n      dup5\n        /* \"#utility.yul\":3734:3807   */\n      tag_97\n      jump\t// in\n    tag_177:\n        /* \"#utility.yul\":2948:3814   */\n      swap8\n      swap7\n      pop\n      pop\n      pop\n      pop\n      pop\n      pop\n      pop\n      jump\t// out\n        /* \"#utility.yul\":3820:3937   */\n    tag_98:\n        /* \"#utility.yul\":3929:3930   */\n      0x00\n        /* \"#utility.yul\":3926:3927   */\n      dup1\n        /* \"#utility.yul\":3919:3931   */\n      revert\n        /* \"#utility.yul\":3943:4060   */\n    tag_99:\n        /* \"#utility.yul\":4052:4053   */\n      0x00\n        /* \"#utility.yul\":4049:4050   */\n      dup1\n        /* \"#utility.yul\":4042:4054   */\n      revert\n        /* \"#utility.yul\":4066:4246   */\n    tag_100:\n        /* \"#utility.yul\":4114:4191   */\n      0x4e487b7100000000000000000000000000000000000000000000000000000000\n        /* \"#utility.yul\":4111:4112   */\n      0x00\n        /* \"#utility.yul\":4104:4192   */\n      mstore\n        /* \"#utility.yul\":4211:4215   */\n      0x41\n        /* \"#utility.yul\":4208:4209   */\n      0x04\n        /* \"#utility.yul\":4201:4216   */\n      mstore\n        /* \"#utility.yul\":4235:4239   */\n      0x24\n        /* \"#utility.yul\":4232:4233   */\n      0x00\n        /* \"#utility.yul\":4225:4240   */\n      revert\n        /* \"#utility.yul\":4252:4533   */\n    tag_101:\n        /* \"#utility.yul\":4335:4362   */\n      tag_182\n        /* \"#utility.yul\":4357:4361   */\n      dup3\n        /* \"#utility.yul\":4335:4362   */\n      tag_94\n      jump\t// in\n    tag_182:\n        /* \"#utility.yul\":4327:4333   */\n      dup2\n        /* \"#utility.yul\":4323:4363   */\n      add\n        /* \"#utility.yul\":4465:4471   */\n      dup2\n        /* \"#utility.yul\":4453:4463   */\n      dup2\n        /* \"#utility.yul\":4450:4472   */\n      lt\n        /* \"#utility.yul\":4429:4447   */\n      0xffffffffffffffff\n        /* \"#utility.yul\":4417:4427   */\n      dup3\n        /* \"#utility.yul\":4414:4448   */\n      gt\n        /* \"#utility.yul\":4411:4473   */\n      or\n        /* \"#utility.yul\":4408:4496   */\n      iszero\n      tag_183\n      jumpi\n        /* \"#utility.yul\":4476:4494   */\n      tag_184\n      tag_100\n      jump\t// in\n    tag_184:\n        /* \"#utility.yul\":4408:4496   */\n    tag_183:\n        /* \"#utility.yul\":4516:4526   */\n      dup1\n        /* \"#utility.yul\":4512:4514   */\n      0x40\n        /* \"#utility.yul\":4505:4527   */\n      mstore\n        /* \"#utility.yul\":4295:4533   */\n      pop\n        /* \"#utility.yul\":4252:4533   */\n      pop\n      pop\n      jump\t// out\n        /* \"#utility.yul\":4539:4668   */\n    tag_102:\n        /* \"#utility.yul\":4573:4579   */\n      0x00\n        /* \"#utility.yul\":4600:4620   */\n      tag_186\n      tag_81\n      jump\t// in\n    tag_186:\n        /* \"#utility.yul\":4590:4620   */\n      swap1\n      pop\n        /* \"#utility.yul\":4629:4662   */\n      tag_187\n        /* \"#utility.yul\":4657:4661   */\n      dup3\n        /* \"#utility.yul\":4649:4655   */\n      dup3\n        /* \"#utility.yul\":4629:4662   */\n      tag_101\n      jump\t// in\n    tag_187:\n        /* \"#utility.yul\":4539:4668   */\n      swap2\n      swap1\n      pop\n      jump\t// out\n        /* \"#utility.yul\":4674:4982   */\n    tag_103:\n        /* \"#utility.yul\":4736:4740   */\n      0x00\n        /* \"#utility.yul\":4826:4844   */\n      0xffffffffffffffff\n        /* \"#utility.yul\":4818:4824   */\n      dup3\n        /* \"#utility.yul\":4815:4845   */\n      gt\n        /* \"#utility.yul\":4812:4868   */\n      iszero\n      tag_189\n      jumpi\n        /* \"#utility.yul\":4848:4866   */\n      tag_190\n      tag_100\n      jump\t// in\n    tag_190:\n        /* \"#utility.yul\":4812:4868   */\n    tag_189:\n        /* \"#utility.yul\":4886:4915   */\n      tag_191\n        /* \"#utility.yul\":4908:4914   */\n      dup3\n        /* \"#utility.yul\":4886:4915   */\n      tag_94\n      jump\t// in\n    tag_191:\n        /* \"#utility.yul\":4878:4915   */\n      swap1\n      pop\n        /* \"#utility.yul\":4970:4974   */\n      0x20\n        /* \"#utility.yul\":4964:4968   */\n      dup2\n        /* \"#utility.yul\":4960:4975   */\n      add\n        /* \"#utility.yul\":4952:4975   */\n      swap1\n      pop\n        /* \"#utility.yul\":4674:4982   */\n      swap2\n      swap1\n      pop\n      jump\t// out\n        /* \"#utility.yul\":4988:5134   */\n    tag_104:\n        /* \"#utility.yul\":5085:5091   */\n      dup3\n        /* \"#utility.yul\":5080:5083   */\n      dup2\n        /* \"#utility.yul\":5075:5078   */\n      dup4\n        /* \"#utility.yul\":5062:5092   */\n      calldatacopy\n        /* \"#utility.yul\":5126:5127   */\n      0x00\n        /* \"#utility.yul\":5117:5123   */\n      dup4\n        /* \"#utility.yul\":5112:5115   */\n      dup4\n        /* \"#utility.yul\":5108:5124   */\n      add\n        /* \"#utility.yul\":5101:5128   */\n      mstore\n        /* \"#utility.yul\":4988:5134   */\n      pop\n      pop\n      pop\n      jump\t// out\n        /* \"#utility.yul\":5140:5565   */\n    tag_105:\n        /* \"#utility.yul\":5218:5223   */\n      0x00\n        /* \"#utility.yul\":5243:5309   */\n      tag_194\n        /* \"#utility.yul\":5259:5308   */\n      tag_195\n        /* \"#utility.yul\":5301:5307   */\n      dup5\n        /* \"#utility.yul\":5259:5308   */\n      tag_103\n      jump\t// in\n    tag_195:\n        /* \"#utility.yul\":5243:5309   */\n      tag_102\n      jump\t// in\n    tag_194:\n        /* \"#utility.yul\":5234:5309   */\n      swap1\n      pop\n        /* \"#utility.yul\":5332:5338   */\n      dup3\n        /* \"#utility.yul\":5325:5330   */\n      dup2\n        /* \"#utility.yul\":5318:5339   */\n      mstore\n        /* \"#utility.yul\":5370:5374   */\n      0x20\n        /* \"#utility.yul\":5363:5368   */\n      dup2\n        /* \"#utility.yul\":5359:5375   */\n      add\n        /* \"#utility.yul\":5408:5411   */\n      dup5\n        /* \"#utility.yul\":5399:5405   */\n      dup5\n        /* \"#utility.yul\":5394:5397   */\n      dup5\n        /* \"#utility.yul\":5390:5406   */\n      add\n        /* \"#utility.yul\":5387:5412   */\n      gt\n        /* \"#utility.yul\":5384:5496   */\n      iszero\n      tag_196\n      jumpi\n        /* \"#utility.yul\":5415:5494   */\n      tag_197\n      tag_99\n      jump\t// in\n    tag_197:\n        /* \"#utility.yul\":5384:5496   */\n    tag_196:\n        /* \"#utility.yul\":5505:5559   */\n      tag_198\n        /* \"#utility.yul\":5552:5558   */\n      dup5\n        /* \"#utility.yul\":5547:5550   */\n      dup3\n        /* \"#utility.yul\":5542:5545   */\n      dup6\n        /* \"#utility.yul\":5505:5559   */\n      tag_104\n      jump\t// in\n    tag_198:\n        /* \"#utility.yul\":5224:5565   */\n      pop\n        /* \"#utility.yul\":5140:5565   */\n      swap4\n      swap3\n      pop\n      pop\n      pop\n      jump\t// out\n        /* \"#utility.yul\":5585:5925   */\n    tag_106:\n        /* \"#utility.yul\":5641:5646   */\n      0x00\n        /* \"#utility.yul\":5690:5693   */\n      dup3\n        /* \"#utility.yul\":5683:5687   */\n      0x1f\n        /* \"#utility.yul\":5675:5681   */\n      dup4\n        /* \"#utility.yul\":5671:5688   */\n      add\n        /* \"#utility.yul\":5667:5694   */\n      slt\n        /* \"#utility.yul\":5657:5779   */\n      tag_200\n      jumpi\n        /* \"#utility.yul\":5698:5777   */\n      tag_201\n      tag_98\n      jump\t// in\n    tag_201:\n        /* \"#utility.yul\":5657:5779   */\n    tag_200:\n        /* \"#utility.yul\":5815:5821   */\n      dup2\n        /* \"#utility.yul\":5802:5822   */\n      calldataload\n        /* \"#utility.yul\":5840:5919   */\n      tag_202\n        /* \"#utility.yul\":5915:5918   */\n      dup5\n        /* \"#utility.yul\":5907:5913   */\n      dup3\n        /* \"#utility.yul\":5900:5904   */\n      0x20\n        /* \"#utility.yul\":5892:5898   */\n      dup7\n        /* \"#utility.yul\":5888:5905   */\n      add\n        /* \"#utility.yul\":5840:5919   */\n      tag_105\n      jump\t// in\n    tag_202:\n        /* \"#utility.yul\":5831:5919   */\n      swap2\n      pop\n        /* \"#utility.yul\":5647:5925   */\n      pop\n        /* \"#utility.yul\":5585:5925   */\n      swap3\n      swap2\n      pop\n      pop\n      jump\t// out\n        /* \"#utility.yul\":5931:6585   */\n    tag_20:\n        /* \"#utility.yul\":6009:6015   */\n      0x00\n        /* \"#utility.yul\":6017:6023   */\n      dup1\n        /* \"#utility.yul\":6066:6068   */\n      0x40\n        /* \"#utility.yul\":6054:6063   */\n      dup4\n        /* \"#utility.yul\":6045:6052   */\n      dup6\n        /* \"#utility.yul\":6041:6064   */\n      sub\n        /* \"#utility.yul\":6037:6069   */\n      slt\n        /* \"#utility.yul\":6034:6153   */\n      iszero\n      tag_204\n      jumpi\n        /* \"#utility.yul\":6072:6151   */\n      tag_205\n      tag_82\n      jump\t// in\n    tag_205:\n        /* \"#utility.yul\":6034:6153   */\n    tag_204:\n        /* \"#utility.yul\":6192:6193   */\n      0x00\n        /* \"#utility.yul\":6217:6270   */\n      tag_206\n        /* \"#utility.yul\":6262:6269   */\n      dup6\n        /* \"#utility.yul\":6253:6259   */\n      dup3\n        /* \"#utility.yul\":6242:6251   */\n      dup7\n        /* \"#utility.yul\":6238:6260   */\n      add\n        /* \"#utility.yul\":6217:6270   */\n      tag_90\n      jump\t// in\n    tag_206:\n        /* \"#utility.yul\":6207:6270   */\n      swap3\n      pop\n        /* \"#utility.yul\":6163:6280   */\n      pop\n        /* \"#utility.yul\":6347:6349   */\n      0x20\n        /* \"#utility.yul\":6336:6345   */\n      dup4\n        /* \"#utility.yul\":6332:6350   */\n      add\n        /* \"#utility.yul\":6319:6351   */\n      calldataload\n        /* \"#utility.yul\":6378:6396   */\n      0xffffffffffffffff\n        /* \"#utility.yul\":6370:6376   */\n      dup2\n        /* \"#utility.yul\":6367:6397   */\n      gt\n        /* \"#utility.yul\":6364:6481   */\n      iszero\n      tag_207\n      jumpi\n        /* \"#utility.yul\":6400:6479   */\n      tag_208\n      tag_83\n      jump\t// in\n    tag_208:\n        /* \"#utility.yul\":6364:6481   */\n    tag_207:\n        /* \"#utility.yul\":6505:6568   */\n      tag_209\n        /* \"#utility.yul\":6560:6567   */\n      dup6\n        /* \"#utility.yul\":6551:6557   */\n      dup3\n        /* \"#utility.yul\":6540:6549   */\n      dup7\n        /* \"#utility.yul\":6536:6558   */\n      add\n        /* \"#utility.yul\":6505:6568   */\n      tag_106\n      jump\t// in\n    tag_209:\n        /* \"#utility.yul\":6495:6568   */\n      swap2\n      pop\n        /* \"#utility.yul\":6290:6578   */\n      pop\n        /* \"#utility.yul\":5931:6585   */\n      swap3\n      pop\n      swap3\n      swap1\n      pop\n      jump\t// out\n        /* \"#utility.yul\":6591:6813   */\n    tag_31:\n        /* \"#utility.yul\":6684:6688   */\n      0x00\n        /* \"#utility.yul\":6722:6724   */\n      0x20\n        /* \"#utility.yul\":6711:6720   */\n      dup3\n        /* \"#utility.yul\":6707:6725   */\n      add\n        /* \"#utility.yul\":6699:6725   */\n      swap1\n      pop\n        /* \"#utility.yul\":6735:6806   */\n      tag_211\n        /* \"#utility.yul\":6803:6804   */\n      0x00\n        /* \"#utility.yul\":6792:6801   */\n      dup4\n        /* \"#utility.yul\":6788:6805   */\n      add\n        /* \"#utility.yul\":6779:6785   */\n      dup5\n        /* \"#utility.yul\":6735:6806   */\n      tag_97\n      jump\t// in\n    tag_211:\n        /* \"#utility.yul\":6591:6813   */\n      swap3\n      swap2\n      pop\n      pop\n      jump\t// out\n        /* \"#utility.yul\":6819:7041   */\n    tag_37:\n        /* \"#utility.yul\":6912:6916   */\n      0x00\n        /* \"#utility.yul\":6950:6952   */\n      0x20\n        /* \"#utility.yul\":6939:6948   */\n      dup3\n        /* \"#utility.yul\":6935:6953   */\n      add\n        /* \"#utility.yul\":6927:6953   */\n      swap1\n      pop\n        /* \"#utility.yul\":6963:7034   */\n      tag_213\n        /* \"#utility.yul\":7031:7032   */\n      0x00\n        /* \"#utility.yul\":7020:7029   */\n      dup4\n        /* \"#utility.yul\":7016:7033   */\n      add\n        /* \"#utility.yul\":7007:7013   */\n      dup5\n        /* \"#utility.yul\":6963:7034   */\n      tag_96\n      jump\t// in\n    tag_213:\n        /* \"#utility.yul\":6819:7041   */\n      swap3\n      swap2\n      pop\n      pop\n      jump\t// out\n        /* \"#utility.yul\":7047:7227   */\n    tag_107:\n        /* \"#utility.yul\":7095:7172   */\n      0x4e487b7100000000000000000000000000000000000000000000000000000000\n        /* \"#utility.yul\":7092:7093   */\n      0x00\n        /* \"#utility.yul\":7085:7173   */\n      mstore\n        /* \"#utility.yul\":7192:7196   */\n      0x22\n        /* \"#utility.yul\":7189:7190   */\n      0x04\n        /* \"#utility.yul\":7182:7197   */\n      mstore\n        /* \"#utility.yul\":7216:7220   */\n      0x24\n        /* \"#utility.yul\":7213:7214   */\n      0x00\n        /* \"#utility.yul\":7206:7221   */\n      revert\n        /* \"#utility.yul\":7233:7553   */\n    tag_46:\n        /* \"#utility.yul\":7277:7283   */\n      0x00\n        /* \"#utility.yul\":7314:7315   */\n      0x02\n        /* \"#utility.yul\":7308:7312   */\n      dup3\n        /* \"#utility.yul\":7304:7316   */\n      div\n        /* \"#utility.yul\":7294:7316   */\n      swap1\n      pop\n        /* \"#utility.yul\":7361:7362   */\n      0x01\n        /* \"#utility.yul\":7355:7359   */\n      dup3\n        /* \"#utility.yul\":7351:7363   */\n      and\n        /* \"#utility.yul\":7382:7400   */\n      dup1\n        /* \"#utility.yul\":7372:7453   */\n      tag_216\n      jumpi\n        /* \"#utility.yul\":7438:7442   */\n      0x7f\n        /* \"#utility.yul\":7430:7436   */\n      dup3\n        /* \"#utility.yul\":7426:7443   */\n      and\n        /* \"#utility.yul\":7416:7443   */\n      swap2\n      pop\n        /* \"#utility.yul\":7372:7453   */\n    tag_216:\n        /* \"#utility.yul\":7500:7502   */\n      0x20\n        /* \"#utility.yul\":7492:7498   */\n      dup3\n        /* \"#utility.yul\":7489:7503   */\n      lt\n        /* \"#utility.yul\":7469:7487   */\n      dup2\n        /* \"#utility.yul\":7466:7504   */\n      sub\n        /* \"#utility.yul\":7463:7547   */\n      tag_217\n      jumpi\n        /* \"#utility.yul\":7519:7537   */\n      tag_218\n      tag_107\n      jump\t// in\n    tag_218:\n        /* \"#utility.yul\":7463:7547   */\n    tag_217:\n        /* \"#utility.yul\":7284:7553   */\n      pop\n        /* \"#utility.yul\":7233:7553   */\n      swap2\n      swap1\n      pop\n      jump\t// out\n        /* \"#utility.yul\":7559:7718   */\n    tag_108:\n        /* \"#utility.yul\":7699:7710   */\n      0x4e6f742056616c69640000000000000000000000000000000000000000000000\n        /* \"#utility.yul\":7695:7696   */\n      0x00\n        /* \"#utility.yul\":7687:7693   */\n      dup3\n        /* \"#utility.yul\":7683:7697   */\n      add\n        /* \"#utility.yul\":7676:7711   */\n      mstore\n        /* \"#utility.yul\":7559:7718   */\n      pop\n      jump\t// out\n        /* \"#utility.yul\":7724:8089   */\n    tag_109:\n        /* \"#utility.yul\":7866:7869   */\n      0x00\n        /* \"#utility.yul\":7887:7953   */\n      tag_221\n        /* \"#utility.yul\":7951:7952   */\n      0x09\n        /* \"#utility.yul\":7946:7949   */\n      dup4\n        /* \"#utility.yul\":7887:7953   */\n      tag_92\n      jump\t// in\n    tag_221:\n        /* \"#utility.yul\":7880:7953   */\n      swap2\n      pop\n        /* \"#utility.yul\":7962:8055   */\n      tag_222\n        /* \"#utility.yul\":8051:8054   */\n      dup3\n        /* \"#utility.yul\":7962:8055   */\n      tag_108\n      jump\t// in\n    tag_222:\n        /* \"#utility.yul\":8080:8082   */\n      0x20\n        /* \"#utility.yul\":8075:8078   */\n      dup3\n        /* \"#utility.yul\":8071:8083   */\n      add\n        /* \"#utility.yul\":8064:8083   */\n      swap1\n      pop\n        /* \"#utility.yul\":7724:8089   */\n      swap2\n      swap1\n      pop\n      jump\t// out\n        /* \"#utility.yul\":8095:8514   */\n    tag_54:\n        /* \"#utility.yul\":8261:8265   */\n      0x00\n        /* \"#utility.yul\":8299:8301   */\n      0x20\n        /* \"#utility.yul\":8288:8297   */\n      dup3\n        /* \"#utility.yul\":8284:8302   */\n      add\n        /* \"#utility.yul\":8276:8302   */\n      swap1\n      pop\n        /* \"#utility.yul\":8348:8357   */\n      dup2\n        /* \"#utility.yul\":8342:8346   */\n      dup2\n        /* \"#utility.yul\":8338:8358   */\n      sub\n        /* \"#utility.yul\":8334:8335   */\n      0x00\n        /* \"#utility.yul\":8323:8332   */\n      dup4\n        /* \"#utility.yul\":8319:8336   */\n      add\n        /* \"#utility.yul\":8312:8359   */\n      mstore\n        /* \"#utility.yul\":8376:8507   */\n      tag_224\n        /* \"#utility.yul\":8502:8506   */\n      dup2\n        /* \"#utility.yul\":8376:8507   */\n      tag_109\n      jump\t// in\n    tag_224:\n        /* \"#utility.yul\":8368:8507   */\n      swap1\n      pop\n        /* \"#utility.yul\":8095:8514   */\n      swap2\n      swap1\n      pop\n      jump\t// out\n        /* \"#utility.yul\":8520:8661   */\n    tag_110:\n        /* \"#utility.yul\":8569:8573   */\n      0x00\n        /* \"#utility.yul\":8592:8595   */\n      dup2\n        /* \"#utility.yul\":8584:8595   */\n      swap1\n      pop\n        /* \"#utility.yul\":8615:8618   */\n      dup2\n        /* \"#utility.yul\":8612:8613   */\n      0x00\n        /* \"#utility.yul\":8605:8619   */\n      mstore\n        /* \"#utility.yul\":8649:8653   */\n      0x20\n        /* \"#utility.yul\":8646:8647   */\n      0x00\n        /* \"#utility.yul\":8636:8654   */\n      keccak256\n        /* \"#utility.yul\":8628:8654   */\n      swap1\n      pop\n        /* \"#utility.yul\":8520:8661   */\n      swap2\n      swap1\n      pop\n      jump\t// out\n        /* \"#utility.yul\":8667:8760   */\n    tag_111:\n        /* \"#utility.yul\":8704:8710   */\n      0x00\n        /* \"#utility.yul\":8751:8753   */\n      0x20\n        /* \"#utility.yul\":8746:8748   */\n      0x1f\n        /* \"#utility.yul\":8739:8744   */\n      dup4\n        /* \"#utility.yul\":8735:8749   */\n      add\n        /* \"#utility.yul\":8731:8754   */\n      div\n        /* \"#utility.yul\":8721:8754   */\n      swap1\n      pop\n        /* \"#utility.yul\":8667:8760   */\n      swap2\n      swap1\n      pop\n      jump\t// out\n        /* \"#utility.yul\":8766:8873   */\n    tag_112:\n        /* \"#utility.yul\":8810:8818   */\n      0x00\n        /* \"#utility.yul\":8860:8865   */\n      dup3\n        /* \"#utility.yul\":8854:8858   */\n      dup3\n        /* \"#utility.yul\":8850:8866   */\n      shl\n        /* \"#utility.yul\":8829:8866   */\n      swap1\n      pop\n        /* \"#utility.yul\":8766:8873   */\n      swap3\n      swap2\n      pop\n      pop\n      jump\t// out\n        /* \"#utility.yul\":8879:9272   */\n    tag_113:\n        /* \"#utility.yul\":8948:8954   */\n      0x00\n        /* \"#utility.yul\":8998:8999   */\n      0x08\n        /* \"#utility.yul\":8986:8996   */\n      dup4\n        /* \"#utility.yul\":8982:9000   */\n      mul\n        /* \"#utility.yul\":9021:9118   */\n      tag_229\n        /* \"#utility.yul\":9051:9117   */\n      0xffffffffffffffffffffffffffffffffffffffffffffffffffffffffffffffff\n        /* \"#utility.yul\":9040:9049   */\n      dup3\n        /* \"#utility.yul\":9021:9118   */\n      tag_112\n      jump\t// in\n    tag_229:\n        /* \"#utility.yul\":9139:9178   */\n      tag_230\n        /* \"#utility.yul\":9169:9177   */\n      dup7\n        /* \"#utility.yul\":9158:9167   */\n      dup4\n        /* \"#utility.yul\":9139:9178   */\n      tag_112\n      jump\t// in\n    tag_230:\n        /* \"#utility.yul\":9127:9178   */\n      swap6\n      pop\n        /* \"#utility.yul\":9211:9215   */\n      dup1\n        /* \"#utility.yul\":9207:9216   */\n      not\n        /* \"#utility.yul\":9200:9205   */\n      dup5\n        /* \"#utility.yul\":9196:9217   */\n      and\n        /* \"#utility.yul\":9187:9217   */\n      swap4\n      pop\n        /* \"#utility.yul\":9260:9264   */\n      dup1\n        /* \"#utility.yul\":9250:9258   */\n      dup7\n        /* \"#utility.yul\":9246:9265   */\n      and\n        /* \"#utility.yul\":9239:9244   */\n      dup5\n        /* \"#utility.yul\":9236:9266   */\n      or\n        /* \"#utility.yul\":9226:9266   */\n      swap3\n      pop\n        /* \"#utility.yul\":8955:9272   */\n      pop\n      pop\n        /* \"#utility.yul\":8879:9272   */\n      swap4\n      swap3\n      pop\n      pop\n      pop\n      jump\t// out\n        /* \"#utility.yul\":9278:9338   */\n    tag_114:\n        /* \"#utility.yul\":9306:9309   */\n      0x00\n        /* \"#utility.yul\":9327:9332   */\n      dup2\n        /* \"#utility.yul\":9320:9332   */\n      swap1\n      pop\n        /* \"#utility.yul\":9278:9338   */\n      swap2\n      swap1\n      pop\n      jump\t// out\n        /* \"#utility.yul\":9344:9486   */\n    tag_115:\n        /* \"#utility.yul\":9394:9403   */\n      0x00\n        /* \"#utility.yul\":9427:9480   */\n      tag_233\n        /* \"#utility.yul\":9445:9479   */\n      tag_234\n        /* \"#utility.yul\":9454:9478   */\n      tag_235\n        /* \"#utility.yul\":9472:9477   */\n      dup5\n        /* \"#utility.yul\":9454:9478   */\n      tag_88\n      jump\t// in\n    tag_235:\n        /* \"#utility.yul\":9445:9479   */\n      tag_114\n      jump\t// in\n    tag_234:\n        /* \"#utility.yul\":9427:9480   */\n      tag_88\n      jump\t// in\n    tag_233:\n        /* \"#utility.yul\":9414:9480   */\n      swap1\n      pop\n        /* \"#utility.yul\":9344:9486   */\n      swap2\n      swap1\n      pop\n      jump\t// out\n        /* \"#utility.yul\":9492:9567   */\n    tag_116:\n        /* \"#utility.yul\":9535:9538   */\n      0x00\n        /* \"#utility.yul\":9556:9561   */\n      dup2\n        /* \"#utility.yul\":9549:9561   */\n      swap1\n      pop\n        /* \"#utility.yul\":9492:9567   */\n      swap2\n      swap1\n      pop\n      jump\t// out\n        /* \"#utility.yul\":9573:9842   */\n    tag_117:\n        /* \"#utility.yul\":9683:9722   */\n      tag_238\n        /* \"#utility.yul\":9714:9721   */\n      dup4\n        /* \"#utility.yul\":9683:9722   */\n      tag_115\n      jump\t// in\n    tag_238:\n        /* \"#utility.yul\":9744:9835   */\n      tag_239\n        /* \"#utility.yul\":9793:9834   */\n      tag_240\n        /* \"#utility.yul\":9817:9833   */\n      dup3\n        /* \"#utility.yul\":9793:9834   */\n      tag_116\n      jump\t// in\n    tag_240:\n        /* \"#utility.yul\":9785:9791   */\n      dup5\n        /* \"#utility.yul\":9778:9782   */\n      dup5\n        /* \"#utility.yul\":9772:9783   */\n      sload\n        /* \"#utility.yul\":9744:9835   */\n      tag_113\n      jump\t// in\n    tag_239:\n        /* \"#utility.yul\":9738:9742   */\n      dup3\n        /* \"#utility.yul\":9731:9836   */\n      sstore\n        /* \"#utility.yul\":9649:9842   */\n      pop\n        /* \"#utility.yul\":9573:9842   */\n      pop\n      pop\n      pop\n      jump\t// out\n        /* \"#utility.yul\":9848:9921   */\n    tag_118:\n        /* \"#utility.yul\":9893:9896   */\n      0x00\n        /* \"#utility.yul\":9848:9921   */\n      swap1\n      jump\t// out\n        /* \"#utility.yul\":9927:10116   */\n    tag_119:\n        /* \"#utility.yul\":10004:10036   */\n      tag_243\n      tag_118\n      jump\t// in\n    tag_243:\n        /* \"#utility.yul\":10045:10110   */\n      tag_244\n        /* \"#utility.yul\":10103:10109   */\n      dup2\n        /* \"#utility.yul\":10095:10101   */\n      dup5\n        /* \"#utility.yul\":10089:10093   */\n      dup5\n        /* \"#utility.yul\":10045:10110   */\n      tag_117\n      jump\t// in\n    tag_244:\n        /* \"#utility.yul\":9980:10116   */\n      pop\n        /* \"#utility.yul\":9927:10116   */\n      pop\n      pop\n      jump\t// out\n        /* \"#utility.yul\":10122:10308   */\n    tag_120:\n        /* \"#utility.yul\":10182:10302   */\n    tag_246:\n        /* \"#utility.yul\":10199:10202   */\n      dup2\n        /* \"#utility.yul\":10192:10197   */\n      dup2\n        /* \"#utility.yul\":10189:10203   */\n      lt\n        /* \"#utility.yul\":10182:10302   */\n      iszero\n      tag_248\n      jumpi\n        /* \"#utility.yul\":10253:10292   */\n      tag_249\n        /* \"#utility.yul\":10290:10291   */\n      0x00\n        /* \"#utility.yul\":10283:10288   */\n      dup3\n        /* \"#utility.yul\":10253:10292   */\n      tag_119\n      jump\t// in\n    tag_249:\n        /* \"#utility.yul\":10226:10227   */\n      0x01\n        /* \"#utility.yul\":10219:10224   */\n      dup2\n        /* \"#utility.yul\":10215:10228   */\n      add\n        /* \"#utility.yul\":10206:10228   */\n      swap1\n      pop\n        /* \"#utility.yul\":10182:10302   */\n      jump(tag_246)\n    tag_248:\n        /* \"#utility.yul\":10122:10308   */\n      pop\n      pop\n      jump\t// out\n        /* \"#utility.yul\":10314:10857   */\n    tag_121:\n        /* \"#utility.yul\":10415:10417   */\n      0x1f\n        /* \"#utility.yul\":10410:10413   */\n      dup3\n        /* \"#utility.yul\":10407:10418   */\n      gt\n        /* \"#utility.yul\":10404:10850   */\n      iszero\n      tag_251\n      jumpi\n        /* \"#utility.yul\":10449:10487   */\n      tag_252\n        /* \"#utility.yul\":10481:10486   */\n      dup2\n        /* \"#utility.yul\":10449:10487   */\n      tag_110\n      jump\t// in\n    tag_252:\n        /* \"#utility.yul\":10533:10562   */\n      tag_253\n        /* \"#utility.yul\":10551:10561   */\n      dup5\n        /* \"#utility.yul\":10533:10562   */\n      tag_111\n      jump\t// in\n    tag_253:\n        /* \"#utility.yul\":10523:10531   */\n      dup2\n        /* \"#utility.yul\":10519:10563   */\n      add\n        /* \"#utility.yul\":10716:10718   */\n      0x20\n        /* \"#utility.yul\":10704:10714   */\n      dup6\n        /* \"#utility.yul\":10701:10719   */\n      lt\n        /* \"#utility.yul\":10698:10747   */\n      iszero\n      tag_254\n      jumpi\n        /* \"#utility.yul\":10737:10745   */\n      dup2\n        /* \"#utility.yul\":10722:10745   */\n      swap1\n      pop\n        /* \"#utility.yul\":10698:10747   */\n    tag_254:\n        /* \"#utility.yul\":10760:10840   */\n      tag_255\n        /* \"#utility.yul\":10816:10838   */\n      tag_256\n        /* \"#utility.yul\":10834:10837   */\n      dup6\n        /* \"#utility.yul\":10816:10838   */\n      tag_111\n      jump\t// in\n    tag_256:\n        /* \"#utility.yul\":10806:10814   */\n      dup4\n        /* \"#utility.yul\":10802:10839   */\n      add\n        /* \"#utility.yul\":10789:10800   */\n      dup3\n        /* \"#utility.yul\":10760:10840   */\n      tag_120\n      jump\t// in\n    tag_255:\n        /* \"#utility.yul\":10419:10850   */\n      pop\n      pop\n        /* \"#utility.yul\":10404:10850   */\n    tag_251:\n        /* \"#utility.yul\":10314:10857   */\n      pop\n      pop\n      pop\n      jump\t// out\n        /* \"#utility.yul\":10863:10980   */\n    tag_122:\n        /* \"#utility.yul\":10917:10925   */\n      0x00\n        /* \"#utility.yul\":10967:10972   */\n      dup3\n        /* \"#utility.yul\":10961:10965   */\n      dup3\n        /* \"#utility.yul\":10957:10973   */\n      shr\n        /* \"#utility.yul\":10936:10973   */\n      swap1\n      pop\n        /* \"#utility.yul\":10863:10980   */\n      swap3\n      swap2\n      pop\n      pop\n      jump\t// out\n        /* \"#utility.yul\":10986:11155   */\n    tag_123:\n        /* \"#utility.yul\":11030:11036   */\n      0x00\n        /* \"#utility.yul\":11063:11114   */\n      tag_259\n        /* \"#utility.yul\":11111:11112   */\n      0x00\n        /* \"#utility.yul\":11107:11113   */\n      not\n        /* \"#utility.yul\":11099:11104   */\n      dup5\n        /* \"#utility.yul\":11096:11097   */\n      0x08\n        /* \"#utility.yul\":11092:11105   */\n      mul\n        /* \"#utility.yul\":11063:11114   */\n      tag_122\n      jump\t// in\n    tag_259:\n        /* \"#utility.yul\":11059:11115   */\n      not\n        /* \"#utility.yul\":11144:11148   */\n      dup1\n        /* \"#utility.yul\":11138:11142   */\n      dup4\n        /* \"#utility.yul\":11134:11149   */\n      and\n        /* \"#utility.yul\":11124:11149   */\n      swap2\n      pop\n        /* \"#utility.yul\":11037:11155   */\n      pop\n        /* \"#utility.yul\":10986:11155   */\n      swap3\n      swap2\n      pop\n      pop\n      jump\t// out\n        /* \"#utility.yul\":11160:11455   */\n    tag_124:\n        /* \"#utility.yul\":11236:11240   */\n      0x00\n        /* \"#utility.yul\":11382:11411   */\n      tag_261\n        /* \"#utility.yul\":11407:11410   */\n      dup4\n        /* \"#utility.yul\":11401:11405   */\n      dup4\n        /* \"#utility.yul\":11382:11411   */\n      tag_123\n      jump\t// in\n    tag_261:\n        /* \"#utility.yul\":11374:11411   */\n      swap2\n      pop\n        /* \"#utility.yul\":11444:11447   */\n      dup3\n        /* \"#utility.yul\":11441:11442   */\n      0x02\n        /* \"#utility.yul\":11437:11448   */\n      mul\n        /* \"#utility.yul\":11431:11435   */\n      dup3\n        /* \"#utility.yul\":11428:11449   */\n      or\n        /* \"#utility.yul\":11420:11449   */\n      swap1\n      pop\n        /* \"#utility.yul\":11160:11455   */\n      swap3\n      swap2\n      pop\n      pop\n      jump\t// out\n        /* \"#utility.yul\":11460:12855   */\n    tag_56:\n        /* \"#utility.yul\":11577:11614   */\n      tag_263\n        /* \"#utility.yul\":11610:11613   */\n      dup3\n        /* \"#utility.yul\":11577:11614   */\n      tag_91\n      jump\t// in\n    tag_263:\n        /* \"#utility.yul\":11679:11697   */\n      0xffffffffffffffff\n        /* \"#utility.yul\":11671:11677   */\n      dup2\n        /* \"#utility.yul\":11668:11698   */\n      gt\n        /* \"#utility.yul\":11665:11721   */\n      iszero\n      tag_264\n      jumpi\n        /* \"#utility.yul\":11701:11719   */\n      tag_265\n      tag_100\n      jump\t// in\n    tag_265:\n        /* \"#utility.yul\":11665:11721   */\n    tag_264:\n        /* \"#utility.yul\":11745:11783   */\n      tag_266\n        /* \"#utility.yul\":11777:11781   */\n      dup3\n        /* \"#utility.yul\":11771:11782   */\n      sload\n        /* \"#utility.yul\":11745:11783   */\n      tag_46\n      jump\t// in\n    tag_266:\n        /* \"#utility.yul\":11830:11897   */\n      tag_267\n        /* \"#utility.yul\":11890:11896   */\n      dup3\n        /* \"#utility.yul\":11882:11888   */\n      dup3\n        /* \"#utility.yul\":11876:11880   */\n      dup6\n        /* \"#utility.yul\":11830:11897   */\n      tag_121\n      jump\t// in\n    tag_267:\n        /* \"#utility.yul\":11924:11925   */\n      0x00\n        /* \"#utility.yul\":11948:11952   */\n      0x20\n        /* \"#utility.yul\":11935:11952   */\n      swap1\n      pop\n        /* \"#utility.yul\":11980:11982   */\n      0x1f\n        /* \"#utility.yul\":11972:11978   */\n      dup4\n        /* \"#utility.yul\":11969:11983   */\n      gt\n        /* \"#utility.yul\":11997:11998   */\n      0x01\n        /* \"#utility.yul\":11992:12610   */\n      dup2\n      eq\n      tag_269\n      jumpi\n        /* \"#utility.yul\":12654:12655   */\n      0x00\n        /* \"#utility.yul\":12671:12677   */\n      dup5\n        /* \"#utility.yul\":12668:12745   */\n      iszero\n      tag_270\n      jumpi\n        /* \"#utility.yul\":12720:12729   */\n      dup3\n        /* \"#utility.yul\":12715:12718   */\n      dup8\n        /* \"#utility.yul\":12711:12730   */\n      add\n        /* \"#utility.yul\":12705:12731   */\n      mload\n        /* \"#utility.yul\":12696:12731   */\n      swap1\n      pop\n        /* \"#utility.yul\":12668:12745   */\n    tag_270:\n        /* \"#utility.yul\":12771:12838   */\n      tag_271\n        /* \"#utility.yul\":12831:12837   */\n      dup6\n        /* \"#utility.yul\":12824:12829   */\n      dup3\n        /* \"#utility.yul\":12771:12838   */\n      tag_124\n      jump\t// in\n    tag_271:\n        /* \"#utility.yul\":12765:12769   */\n      dup7\n        /* \"#utility.yul\":12758:12839   */\n      sstore\n        /* \"#utility.yul\":12627:12849   */\n      pop\n        /* \"#utility.yul\":11962:12849   */\n      jump(tag_268)\n        /* \"#utility.yul\":11992:12610   */\n    tag_269:\n        /* \"#utility.yul\":12044:12048   */\n      0x1f\n        /* \"#utility.yul\":12040:12049   */\n      not\n        /* \"#utility.yul\":12032:12038   */\n      dup5\n        /* \"#utility.yul\":12028:12050   */\n      and\n        /* \"#utility.yul\":12078:12115   */\n      tag_272\n        /* \"#utility.yul\":12110:12114   */\n      dup7\n        /* \"#utility.yul\":12078:12115   */\n      tag_110\n      jump\t// in\n    tag_272:\n        /* \"#utility.yul\":12137:12138   */\n      0x00\n        /* \"#utility.yul\":12151:12359   */\n    tag_273:\n        /* \"#utility.yul\":12165:12172   */\n      dup3\n        /* \"#utility.yul\":12162:12163   */\n      dup2\n        /* \"#utility.yul\":12159:12173   */\n      lt\n        /* \"#utility.yul\":12151:12359   */\n      iszero\n      tag_275\n      jumpi\n        /* \"#utility.yul\":12244:12253   */\n      dup5\n        /* \"#utility.yul\":12239:12242   */\n      dup10\n        /* \"#utility.yul\":12235:12254   */\n      add\n        /* \"#utility.yul\":12229:12255   */\n      mload\n        /* \"#utility.yul\":12221:12227   */\n      dup3\n        /* \"#utility.yul\":12214:12256   */\n      sstore\n        /* \"#utility.yul\":12295:12296   */\n      0x01\n        /* \"#utility.yul\":12287:12293   */\n      dup3\n        /* \"#utility.yul\":12283:12297   */\n      add\n        /* \"#utility.yul\":12273:12297   */\n      swap2\n      pop\n        /* \"#utility.yul\":12342:12344   */\n      0x20\n        /* \"#utility.yul\":12331:12340   */\n      dup6\n        /* \"#utility.yul\":12327:12345   */\n      add\n        /* \"#utility.yul\":12314:12345   */\n      swap5\n      pop\n        /* \"#utility.yul\":12188:12192   */\n      0x20\n        /* \"#utility.yul\":12185:12186   */\n      dup2\n        /* \"#utility.yul\":12181:12193   */\n      add\n        /* \"#utility.yul\":12176:12193   */\n      swap1\n      pop\n        /* \"#utility.yul\":12151:12359   */\n      jump(tag_273)\n    tag_275:\n        /* \"#utility.yul\":12387:12393   */\n      dup7\n        /* \"#utility.yul\":12378:12385   */\n      dup4\n        /* \"#utility.yul\":12375:12394   */\n      lt\n        /* \"#utility.yul\":12372:12551   */\n      iszero\n      tag_276\n      jumpi\n        /* \"#utility.yul\":12445:12454   */\n      dup5\n        /* \"#utility.yul\":12440:12443   */\n      dup10\n        /* \"#utility.yul\":12436:12455   */\n      add\n        /* \"#utility.yul\":12430:12456   */\n      mload\n        /* \"#utility.yul\":12488:12536   */\n      tag_277\n        /* \"#utility.yul\":12530:12534   */\n      0x1f\n        /* \"#utility.yul\":12522:12528   */\n      dup10\n        /* \"#utility.yul\":12518:12535   */\n      and\n        /* \"#utility.yul\":12507:12516   */\n      dup3\n        /* \"#utility.yul\":12488:12536   */\n      tag_123\n      jump\t// in\n    tag_277:\n        /* \"#utility.yul\":12480:12486   */\n      dup4\n        /* \"#utility.yul\":12473:12537   */\n      sstore\n        /* \"#utility.yul\":12395:12551   */\n      pop\n        /* \"#utility.yul\":12372:12551   */\n    tag_276:\n        /* \"#utility.yul\":12597:12598   */\n      0x01\n        /* \"#utility.yul\":12593:12594   */\n      0x02\n        /* \"#utility.yul\":12585:12591   */\n      dup9\n        /* \"#utility.yul\":12581:12595   */\n      mul\n        /* \"#utility.yul\":12577:12599   */\n      add\n        /* \"#utility.yul\":12571:12575   */\n      dup9\n        /* \"#utility.yul\":12564:12600   */\n      sstore\n        /* \"#utility.yul\":11999:12610   */\n      pop\n      pop\n      pop\n        /* \"#utility.yul\":11962:12849   */\n    tag_268:\n      pop\n        /* \"#utility.yul\":11552:12855   */\n      pop\n      pop\n      pop\n        /* \"#utility.yul\":11460:12855   */\n      pop\n      pop\n      jump\t// out\n        /* \"#utility.yul\":12861:13041   */\n    tag_125:\n        /* \"#utility.yul\":12909:12986   */\n      0x4e487b7100000000000000000000000000000000000000000000000000000000\n        /* \"#utility.yul\":12906:12907   */\n      0x00\n        /* \"#utility.yul\":12899:12987   */\n      mstore\n        /* \"#utility.yul\":13006:13010   */\n      0x11\n        /* \"#utility.yul\":13003:13004   */\n      0x04\n        /* \"#utility.yul\":12996:13011   */\n      mstore\n        /* \"#utility.yul\":13030:13034   */\n      0x24\n        /* \"#utility.yul\":13027:13028   */\n      0x00\n        /* \"#utility.yul\":13020:13035   */\n      revert\n        /* \"#utility.yul\":13047:13238   */\n    tag_58:\n        /* \"#utility.yul\":13087:13090   */\n      0x00\n        /* \"#utility.yul\":13106:13126   */\n      tag_280\n        /* \"#utility.yul\":13124:13125   */\n      dup3\n        /* \"#utility.yul\":13106:13126   */\n      tag_88\n      jump\t// in\n    tag_280:\n        /* \"#utility.yul\":13101:13126   */\n      swap2\n      pop\n        /* \"#utility.yul\":13140:13160   */\n      tag_281\n        /* \"#utility.yul\":13158:13159   */\n      dup4\n        /* \"#utility.yul\":13140:13160   */\n      tag_88\n      jump\t// in\n    tag_281:\n        /* \"#utility.yul\":13135:13160   */\n      swap3\n      pop\n        /* \"#utility.yul\":13183:13184   */\n      dup3\n        /* \"#utility.yul\":13180:13181   */\n      dup3\n        /* \"#utility.yul\":13176:13185   */\n      add\n        /* \"#utility.yul\":13169:13185   */\n      swap1\n      pop\n        /* \"#utility.yul\":13204:13207   */\n      dup1\n        /* \"#utility.yul\":13201:13202   */\n      dup3\n        /* \"#utility.yul\":13198:13208   */\n      gt\n        /* \"#utility.yul\":13195:13231   */\n      iszero\n      tag_282\n      jumpi\n        /* \"#utility.yul\":13211:13229   */\n      tag_283\n      tag_125\n      jump\t// in\n    tag_283:\n        /* \"#utility.yul\":13195:13231   */\n    tag_282:\n        /* \"#utility.yul\":13047:13238   */\n      swap3\n      swap2\n      pop\n      pop\n      jump\t// out\n        /* \"#utility.yul\":13244:13777   */\n    tag_60:\n        /* \"#utility.yul\":13413:13417   */\n      0x00\n        /* \"#utility.yul\":13451:13453   */\n      0x60\n        /* \"#utility.yul\":13440:13449   */\n      dup3\n        /* \"#utility.yul\":13436:13454   */\n      add\n        /* \"#utility.yul\":13428:13454   */\n      swap1\n      pop\n        /* \"#utility.yul\":13464:13535   */\n      tag_285\n        /* \"#utility.yul\":13532:13533   */\n      0x00\n        /* \"#utility.yul\":13521:13530   */\n      dup4\n        /* \"#utility.yul\":13517:13534   */\n      add\n        /* \"#utility.yul\":13508:13514   */\n      dup7\n        /* \"#utility.yul\":13464:13535   */\n      tag_97\n      jump\t// in\n    tag_285:\n        /* \"#utility.yul\":13545:13617   */\n      tag_286\n        /* \"#utility.yul\":13613:13615   */\n      0x20\n        /* \"#utility.yul\":13602:13611   */\n      dup4\n        /* \"#utility.yul\":13598:13616   */\n      add\n        /* \"#utility.yul\":13589:13595   */\n      dup6\n        /* \"#utility.yul\":13545:13617   */\n      tag_96\n      jump\t// in\n    tag_286:\n        /* \"#utility.yul\":13664:13673   */\n      dup2\n        /* \"#utility.yul\":13658:13662   */\n      dup2\n        /* \"#utility.yul\":13654:13674   */\n      sub\n        /* \"#utility.yul\":13649:13651   */\n      0x40\n        /* \"#utility.yul\":13638:13647   */\n      dup4\n        /* \"#utility.yul\":13634:13652   */\n      add\n        /* \"#utility.yul\":13627:13675   */\n      mstore\n        /* \"#utility.yul\":13692:13770   */\n      tag_287\n        /* \"#utility.yul\":13765:13769   */\n      dup2\n        /* \"#utility.yul\":13756:13762   */\n      dup5\n        /* \"#utility.yul\":13692:13770   */\n      tag_95\n      jump\t// in\n    tag_287:\n        /* \"#utility.yul\":13684:13770   */\n      swap1\n      pop\n        /* \"#utility.yul\":13244:13777   */\n      swap5\n      swap4\n      pop\n      pop\n      pop\n      pop\n      jump\t// out\n        /* \"#utility.yul\":13783:13949   */\n    tag_126:\n        /* \"#utility.yul\":13923:13941   */\n      0x206f776e65722063616e27742062696400000000000000000000000000000000\n        /* \"#utility.yul\":13919:13920   */\n      0x00\n        /* \"#utility.yul\":13911:13917   */\n      dup3\n        /* \"#utility.yul\":13907:13921   */\n      add\n        /* \"#utility.yul\":13900:13942   */\n      mstore\n        /* \"#utility.yul\":13783:13949   */\n      pop\n      jump\t// out\n        /* \"#utility.yul\":13955:14321   */\n    tag_127:\n        /* \"#utility.yul\":14097:14100   */\n      0x00\n        /* \"#utility.yul\":14118:14185   */\n      tag_290\n        /* \"#utility.yul\":14182:14184   */\n      0x10\n        /* \"#utility.yul\":14177:14180   */\n      dup4\n        /* \"#utility.yul\":14118:14185   */\n      tag_92\n      jump\t// in\n    tag_290:\n        /* \"#utility.yul\":14111:14185   */\n      swap2\n      pop\n        /* \"#utility.yul\":14194:14287   */\n      tag_291\n        /* \"#utility.yul\":14283:14286   */\n      dup3\n        /* \"#utility.yul\":14194:14287   */\n      tag_126\n      jump\t// in\n    tag_291:\n        /* \"#utility.yul\":14312:14314   */\n      0x20\n        /* \"#utility.yul\":14307:14310   */\n      dup3\n        /* \"#utility.yul\":14303:14315   */\n      add\n        /* \"#utility.yul\":14296:14315   */\n      swap1\n      pop\n        /* \"#utility.yul\":13955:14321   */\n      swap2\n      swap1\n      pop\n      jump\t// out\n        /* \"#utility.yul\":14327:14746   */\n    tag_70:\n        /* \"#utility.yul\":14493:14497   */\n      0x00\n        /* \"#utility.yul\":14531:14533   */\n      0x20\n        /* \"#utility.yul\":14520:14529   */\n      dup3\n        /* \"#utility.yul\":14516:14534   */\n      add\n        /* \"#utility.yul\":14508:14534   */\n      swap1\n      pop\n        /* \"#utility.yul\":14580:14589   */\n      dup2\n        /* \"#utility.yul\":14574:14578   */\n      dup2\n        /* \"#utility.yul\":14570:14590   */\n      sub\n        /* \"#utility.yul\":14566:14567   */\n      0x00\n        /* \"#utility.yul\":14555:14564   */\n      dup4\n        /* \"#utility.yul\":14551:14568   */\n      add\n        /* \"#utility.yul\":14544:14591   */\n      mstore\n        /* \"#utility.yul\":14608:14739   */\n      tag_293\n        /* \"#utility.yul\":14734:14738   */\n      dup2\n        /* \"#utility.yul\":14608:14739   */\n      tag_127\n      jump\t// in\n    tag_293:\n        /* \"#utility.yul\":14600:14739   */\n      swap1\n      pop\n        /* \"#utility.yul\":14327:14746   */\n      swap2\n      swap1\n      pop\n      jump\t// out\n        /* \"#utility.yul\":14752:14928   */\n    tag_128:\n        /* \"#utility.yul\":14892:14920   */\n      0x204e6f7468696e6720746f20506c616365207468652042696420000000000000\n        /* \"#utility.yul\":14888:14889   */\n      0x00\n        /* \"#utility.yul\":14880:14886   */\n      dup3\n        /* \"#utility.yul\":14876:14890   */\n      add\n        /* \"#utility.yul\":14869:14921   */\n      mstore\n        /* \"#utility.yul\":14752:14928   */\n      pop\n      jump\t// out\n        /* \"#utility.yul\":14934:15300   */\n    tag_129:\n        /* \"#utility.yul\":15076:15079   */\n      0x00\n        /* \"#utility.yul\":15097:15164   */\n      tag_296\n        /* \"#utility.yul\":15161:15163   */\n      0x1a\n        /* \"#utility.yul\":15156:15159   */\n      dup4\n        /* \"#utility.yul\":15097:15164   */\n      tag_92\n      jump\t// in\n    tag_296:\n        /* \"#utility.yul\":15090:15164   */\n      swap2\n      pop\n        /* \"#utility.yul\":15173:15266   */\n      tag_297\n        /* \"#utility.yul\":15262:15265   */\n      dup3\n        /* \"#utility.yul\":15173:15266   */\n      tag_128\n      jump\t// in\n    tag_297:\n        /* \"#utility.yul\":15291:15293   */\n      0x20\n        /* \"#utility.yul\":15286:15289   */\n      dup3\n        /* \"#utility.yul\":15282:15294   */\n      add\n        /* \"#utility.yul\":15275:15294   */\n      swap1\n      pop\n        /* \"#utility.yul\":14934:15300   */\n      swap2\n      swap1\n      pop\n      jump\t// out\n        /* \"#utility.yul\":15306:15725   */\n    tag_73:\n        /* \"#utility.yul\":15472:15476   */\n      0x00\n        /* \"#utility.yul\":15510:15512   */\n      0x20\n        /* \"#utility.yul\":15499:15508   */\n      dup3\n        /* \"#utility.yul\":15495:15513   */\n      add\n        /* \"#utility.yul\":15487:15513   */\n      swap1\n      pop\n        /* \"#utility.yul\":15559:15568   */\n      dup2\n        /* \"#utility.yul\":15553:15557   */\n      dup2\n        /* \"#utility.yul\":15549:15569   */\n      sub\n        /* \"#utility.yul\":15545:15546   */\n      0x00\n        /* \"#utility.yul\":15534:15543   */\n      dup4\n        /* \"#utility.yul\":15530:15547   */\n      add\n        /* \"#utility.yul\":15523:15570   */\n      mstore\n        /* \"#utility.yul\":15587:15718   */\n      tag_299\n        /* \"#utility.yul\":15713:15717   */\n      dup2\n        /* \"#utility.yul\":15587:15718   */\n      tag_129\n      jump\t// in\n    tag_299:\n        /* \"#utility.yul\":15579:15718   */\n      swap1\n      pop\n        /* \"#utility.yul\":15306:15725   */\n      swap2\n      swap1\n      pop\n      jump\t// out\n        /* \"#utility.yul\":15731:15912   */\n    tag_130:\n        /* \"#utility.yul\":15871:15904   */\n      0x20496e6372656173652074686520616d6f756e74206279203120657468657200\n        /* \"#utility.yul\":15867:15868   */\n      0x00\n        /* \"#utility.yul\":15859:15865   */\n      dup3\n        /* \"#utility.yul\":15855:15869   */\n      add\n        /* \"#utility.yul\":15848:15905   */\n      mstore\n        /* \"#utility.yul\":15731:15912   */\n      pop\n      jump\t// out\n        /* \"#utility.yul\":15918:16284   */\n    tag_131:\n        /* \"#utility.yul\":16060:16063   */\n      0x00\n        /* \"#utility.yul\":16081:16148   */\n      tag_302\n        /* \"#utility.yul\":16145:16147   */\n      0x1f\n        /* \"#utility.yul\":16140:16143   */\n      dup4\n        /* \"#utility.yul\":16081:16148   */\n      tag_92\n      jump\t// in\n    tag_302:\n        /* \"#utility.yul\":16074:16148   */\n      swap2\n      pop\n        /* \"#utility.yul\":16157:16250   */\n      tag_303\n        /* \"#utility.yul\":16246:16249   */\n      dup3\n        /* \"#utility.yul\":16157:16250   */\n      tag_130\n      jump\t// in\n    tag_303:\n        /* \"#utility.yul\":16275:16277   */\n      0x20\n        /* \"#utility.yul\":16270:16273   */\n      dup3\n        /* \"#utility.yul\":16266:16278   */\n      add\n        /* \"#utility.yul\":16259:16278   */\n      swap1\n      pop\n        /* \"#utility.yul\":15918:16284   */\n      swap2\n      swap1\n      pop\n      jump\t// out\n        /* \"#utility.yul\":16290:16709   */\n    tag_76:\n        /* \"#utility.yul\":16456:16460   */\n      0x00\n        /* \"#utility.yul\":16494:16496   */\n      0x20\n        /* \"#utility.yul\":16483:16492   */\n      dup3\n        /* \"#utility.yul\":16479:16497   */\n      add\n        /* \"#utility.yul\":16471:16497   */\n      swap1\n      pop\n        /* \"#utility.yul\":16543:16552   */\n      dup2\n        /* \"#utility.yul\":16537:16541   */\n      dup2\n        /* \"#utility.yul\":16533:16553   */\n      sub\n        /* \"#utility.yul\":16529:16530   */\n      0x00\n        /* \"#utility.yul\":16518:16527   */\n      dup4\n        /* \"#utility.yul\":16514:16531   */\n      add\n        /* \"#utility.yul\":16507:16554   */\n      mstore\n        /* \"#utility.yul\":16571:16702   */\n      tag_305\n        /* \"#utility.yul\":16697:16701   */\n      dup2\n        /* \"#utility.yul\":16571:16702   */\n      tag_131\n      jump\t// in\n    tag_305:\n        /* \"#utility.yul\":16563:16702   */\n      swap1\n      pop\n        /* \"#utility.yul\":16290:16709   */\n      swap2\n      swap1\n      pop\n      jump\t// out\n        /* \"#utility.yul\":16715:17047   */\n    tag_80:\n        /* \"#utility.yul\":16836:16840   */\n      0x00\n        /* \"#utility.yul\":16874:16876   */\n      0x40\n        /* \"#utility.yul\":16863:16872   */\n      dup3\n        /* \"#utility.yul\":16859:16877   */\n      add\n        /* \"#utility.yul\":16851:16877   */\n      swap1\n      pop\n        /* \"#utility.yul\":16887:16958   */\n      tag_307\n        /* \"#utility.yul\":16955:16956   */\n      0x00\n        /* \"#utility.yul\":16944:16953   */\n      dup4\n        /* \"#utility.yul\":16940:16957   */\n      add\n        /* \"#utility.yul\":16931:16937   */\n      dup6\n        /* \"#utility.yul\":16887:16958   */\n      tag_97\n      jump\t// in\n    tag_307:\n        /* \"#utility.yul\":16968:17040   */\n      tag_308\n        /* \"#utility.yul\":17036:17038   */\n      0x20\n        /* \"#utility.yul\":17025:17034   */\n      dup4\n        /* \"#utility.yul\":17021:17039   */\n      add\n        /* \"#utility.yul\":17012:17018   */\n      dup5\n        /* \"#utility.yul\":16968:17040   */\n      tag_96\n      jump\t// in\n    tag_308:\n        /* \"#utility.yul\":16715:17047   */\n      swap4\n      swap3\n      pop\n      pop\n      pop\n      jump\t// out\n\n    auxdata: 0xa2646970667358221220dae019d1da24c153bec98d5f76cca8ff23e08c25a60d7b378aebeefb4a16855364736f6c63430008120033\n}\n",
				"bytecode": {
					"linkReferences": {},
					"object": "608060405234801561001057600080fd5b50611660806100206000396000f3fe6080604052600436106100705760003560e01c80637090c36e1161004e5780637090c36e146101095780638226508d14610146578063859b97fe14610183578063d98b9bb5146101ac57610070565b8063069ea3621461007557806332627af9146100b75780636db2a303146100e0575b600080fd5b34801561008157600080fd5b5061009c60048036038101906100979190610db5565b6101c8565b6040516100ae96959493929190610ea3565b60405180910390f35b3480156100c357600080fd5b506100de60048036038101906100d99190611040565b6102d9565b005b3480156100ec57600080fd5b5061010760048036038101906101029190610db5565b61061f565b005b34801561011557600080fd5b50610130600480360381019061012b9190610db5565b610623565b60405161013d919061109c565b60405180910390f35b34801561015257600080fd5b5061016d60048036038101906101689190610db5565b6106a0565b60405161017a91906110b7565b60405180910390f35b34801561018f57600080fd5b506101aa60048036038101906101a59190610db5565b6106fd565b005b6101c660048036038101906101c19190610db5565b61080c565b005b6000602052816000526040600020602052806000526040600020600091509150508060000180546101f890611101565b80601f016020809104026020016040519081016040528092919081815260200182805461022490611101565b80156102715780601f1061024657610100808354040283529160200191610271565b820191906000526020600020905b81548152906001019060200180831161025457829003601f168201915b5050505050908060010154908060020154908060030160009054906101000a900473ffffffffffffffffffffffffffffffffffffffff16908060040154908060050160009054906101000a900473ffffffffffffffffffffffffffffffffffffffff16905086565b600073ffffffffffffffffffffffffffffffffffffffff163373ffffffffffffffffffffffffffffffffffffffff1603610348576040517f08c379a000000000000000000000000000000000000000000000000000000000815260040161033f9061117e565b60405180910390fd5b806000803373ffffffffffffffffffffffffffffffffffffffff1673ffffffffffffffffffffffffffffffffffffffff168152602001908152602001600020600084815260200190815260200160002060000190816103a7919061134a565b5060008060003373ffffffffffffffffffffffffffffffffffffffff1673ffffffffffffffffffffffffffffffffffffffff16815260200190815260200160002060008481526020019081526020016000206001018190555060008060003373ffffffffffffffffffffffffffffffffffffffff1673ffffffffffffffffffffffffffffffffffffffff16815260200190815260200160002060008481526020019081526020016000206002018190555060008060003373ffffffffffffffffffffffffffffffffffffffff1673ffffffffffffffffffffffffffffffffffffffff168152602001908152602001600020600084815260200190815260200160002060030160006101000a81548173ffffffffffffffffffffffffffffffffffffffff021916908373ffffffffffffffffffffffffffffffffffffffff16021790555060008060003373ffffffffffffffffffffffffffffffffffffffff1673ffffffffffffffffffffffffffffffffffffffff168152602001908152602001600020600084815260200190815260200160002060050160006101000a81548173ffffffffffffffffffffffffffffffffffffffff021916908373ffffffffffffffffffffffffffffffffffffffff160217905550610e104261058a919061144b565b6000803373ffffffffffffffffffffffffffffffffffffffff1673ffffffffffffffffffffffffffffffffffffffff1681526020019081526020016000206000848152602001908152602001600020600401819055507fa7806320b37116843ec008da1594a383d57d02cf004956b72c34754bf63950703383836040516106139392919061147f565b60405180910390a15050565b5050565b60008060008473ffffffffffffffffffffffffffffffffffffffff1673ffffffffffffffffffffffffffffffffffffffff168152602001908152602001600020600083815260200190815260200160002060030160009054906101000a900473ffffffffffffffffffffffffffffffffffffffff16905092915050565b60008060008473ffffffffffffffffffffffffffffffffffffffff1673ffffffffffffffffffffffffffffffffffffffff168152602001908152602001600020600083815260200190815260200160002060020154905092915050565b6000808373ffffffffffffffffffffffffffffffffffffffff1673ffffffffffffffffffffffffffffffffffffffff168152602001908152602001600020600082815260200190815260200160002060030160009054906101000a900473ffffffffffffffffffffffffffffffffffffffff1673ffffffffffffffffffffffffffffffffffffffff166108fc6000808573ffffffffffffffffffffffffffffffffffffffff1673ffffffffffffffffffffffffffffffffffffffff1681526020019081526020016000206000848152602001908152602001600020600201549081150290604051600060405180830381858888f19350505050158015610807573d6000803e3d6000fd5b505050565b3373ffffffffffffffffffffffffffffffffffffffff168273ffffffffffffffffffffffffffffffffffffffff160361087a576040517f08c379a000000000000000000000000000000000000000000000000000000000815260040161087190611509565b60405180910390fd5b60008060008473ffffffffffffffffffffffffffffffffffffffff1673ffffffffffffffffffffffffffffffffffffffff1681526020019081526020016000206000838152602001908152602001600020600401541161090f576040517f08c379a000000000000000000000000000000000000000000000000000000000815260040161090690611575565b60405180910390fd5b6000808373ffffffffffffffffffffffffffffffffffffffff1673ffffffffffffffffffffffffffffffffffffffff16815260200190815260200160002060008281526020019081526020016000206002015434116109a3576040517f08c379a000000000000000000000000000000000000000000000000000000000815260040161099a906115e1565b60405180910390fd5b346000808473ffffffffffffffffffffffffffffffffffffffff1673ffffffffffffffffffffffffffffffffffffffff1681526020019081526020016000206000838152602001908152602001600020600101819055506000808373ffffffffffffffffffffffffffffffffffffffff1673ffffffffffffffffffffffffffffffffffffffff1681526020019081526020016000206000828152602001908152602001600020600101546000808473ffffffffffffffffffffffffffffffffffffffff1673ffffffffffffffffffffffffffffffffffffffff168152602001908152602001600020600083815260200190815260200160002060020181905550336000808473ffffffffffffffffffffffffffffffffffffffff1673ffffffffffffffffffffffffffffffffffffffff168152602001908152602001600020600083815260200190815260200160002060050160006101000a81548173ffffffffffffffffffffffffffffffffffffffff021916908373ffffffffffffffffffffffffffffffffffffffff160217905550336000808473ffffffffffffffffffffffffffffffffffffffff1673ffffffffffffffffffffffffffffffffffffffff168152602001908152602001600020600083815260200190815260200160002060030160006101000a81548173ffffffffffffffffffffffffffffffffffffffff021916908373ffffffffffffffffffffffffffffffffffffffff1602179055506000808373ffffffffffffffffffffffffffffffffffffffff1673ffffffffffffffffffffffffffffffffffffffff168152602001908152602001600020600082815260200190815260200160002060050160009054906101000a900473ffffffffffffffffffffffffffffffffffffffff1673ffffffffffffffffffffffffffffffffffffffff166108fc6000808573ffffffffffffffffffffffffffffffffffffffff1673ffffffffffffffffffffffffffffffffffffffff1681526020019081526020016000206000848152602001908152602001600020600201549081150290604051600060405180830381858888f19350505050158015610ccf573d6000803e3d6000fd5b507fe684a55f31b79eca403df938249029212a5925ec6be8012e099b45bc1019e5d23334604051610d01929190611601565b60405180910390a15050565b6000604051905090565b600080fd5b600080fd5b600073ffffffffffffffffffffffffffffffffffffffff82169050919050565b6000610d4c82610d21565b9050919050565b610d5c81610d41565b8114610d6757600080fd5b50565b600081359050610d7981610d53565b92915050565b6000819050919050565b610d9281610d7f565b8114610d9d57600080fd5b50565b600081359050610daf81610d89565b92915050565b60008060408385031215610dcc57610dcb610d17565b5b6000610dda85828601610d6a565b9250506020610deb85828601610da0565b9150509250929050565b600081519050919050565b600082825260208201905092915050565b60005b83811015610e2f578082015181840152602081019050610e14565b60008484015250505050565b6000601f19601f8301169050919050565b6000610e5782610df5565b610e618185610e00565b9350610e71818560208601610e11565b610e7a81610e3b565b840191505092915050565b610e8e81610d7f565b82525050565b610e9d81610d41565b82525050565b600060c0820190508181036000830152610ebd8189610e4c565b9050610ecc6020830188610e85565b610ed96040830187610e85565b610ee66060830186610e94565b610ef36080830185610e85565b610f0060a0830184610e94565b979650505050505050565b600080fd5b600080fd5b7f4e487b7100000000000000000000000000000000000000000000000000000000600052604160045260246000fd5b610f4d82610e3b565b810181811067ffffffffffffffff82111715610f6c57610f6b610f15565b5b80604052505050565b6000610f7f610d0d565b9050610f8b8282610f44565b919050565b600067ffffffffffffffff821115610fab57610faa610f15565b5b610fb482610e3b565b9050602081019050919050565b82818337600083830152505050565b6000610fe3610fde84610f90565b610f75565b905082815260208101848484011115610fff57610ffe610f10565b5b61100a848285610fc1565b509392505050565b600082601f83011261102757611026610f0b565b5b8135611037848260208601610fd0565b91505092915050565b6000806040838503121561105757611056610d17565b5b600061106585828601610da0565b925050602083013567ffffffffffffffff81111561108657611085610d1c565b5b61109285828601611012565b9150509250929050565b60006020820190506110b16000830184610e94565b92915050565b60006020820190506110cc6000830184610e85565b92915050565b7f4e487b7100000000000000000000000000000000000000000000000000000000600052602260045260246000fd5b6000600282049050600182168061111957607f821691505b60208210810361112c5761112b6110d2565b5b50919050565b7f4e6f742056616c69640000000000000000000000000000000000000000000000600082015250565b6000611168600983610e00565b915061117382611132565b602082019050919050565b600060208201905081810360008301526111978161115b565b9050919050565b60008190508160005260206000209050919050565b60006020601f8301049050919050565b600082821b905092915050565b6000600883026112007fffffffffffffffffffffffffffffffffffffffffffffffffffffffffffffffff826111c3565b61120a86836111c3565b95508019841693508086168417925050509392505050565b6000819050919050565b600061124761124261123d84610d7f565b611222565b610d7f565b9050919050565b6000819050919050565b6112618361122c565b61127561126d8261124e565b8484546111d0565b825550505050565b600090565b61128a61127d565b611295818484611258565b505050565b5b818110156112b9576112ae600082611282565b60018101905061129b565b5050565b601f8211156112fe576112cf8161119e565b6112d8846111b3565b810160208510156112e7578190505b6112fb6112f3856111b3565b83018261129a565b50505b505050565b600082821c905092915050565b600061132160001984600802611303565b1980831691505092915050565b600061133a8383611310565b9150826002028217905092915050565b61135382610df5565b67ffffffffffffffff81111561136c5761136b610f15565b5b6113768254611101565b6113818282856112bd565b600060209050601f8311600181146113b457600084156113a2578287015190505b6113ac858261132e565b865550611414565b601f1984166113c28661119e565b60005b828110156113ea578489015182556001820191506020850194506020810190506113c5565b868310156114075784890151611403601f891682611310565b8355505b6001600288020188555050505b505050505050565b7f4e487b7100000000000000000000000000000000000000000000000000000000600052601160045260246000fd5b600061145682610d7f565b915061146183610d7f565b92508282019050808211156114795761147861141c565b5b92915050565b60006060820190506114946000830186610e94565b6114a16020830185610e85565b81810360408301526114b38184610e4c565b9050949350505050565b7f206f776e65722063616e27742062696400000000000000000000000000000000600082015250565b60006114f3601083610e00565b91506114fe826114bd565b602082019050919050565b60006020820190508181036000830152611522816114e6565b9050919050565b7f204e6f7468696e6720746f20506c616365207468652042696420000000000000600082015250565b600061155f601a83610e00565b915061156a82611529565b602082019050919050565b6000602082019050818103600083015261158e81611552565b9050919050565b7f20496e6372656173652074686520616d6f756e74206279203120657468657200600082015250565b60006115cb601f83610e00565b91506115d682611595565b602082019050919050565b600060208201905081810360008301526115fa816115be565b9050919050565b60006040820190506116166000830185610e94565b6116236020830184610e85565b939250505056fea2646970667358221220dae019d1da24c153bec98d5f76cca8ff23e08c25a60d7b378aebeefb4a16855364736f6c63430008120033",
					"opcodes": "PUSH1 0x80 PUSH1 0x40 MSTORE CALLVALUE DUP1 ISZERO PUSH2 0x10 JUMPI PUSH1 0x0 DUP1 REVERT JUMPDEST POP PUSH2 0x1660 DUP1 PUSH2 0x20 PUSH1 0x0 CODECOPY PUSH1 0x0 RETURN INVALID PUSH1 0x80 PUSH1 0x40 MSTORE PUSH1 0x4 CALLDATASIZE LT PUSH2 0x70 JUMPI PUSH1 0x0 CALLDATALOAD PUSH1 0xE0 SHR DUP1 PUSH4 0x7090C36E GT PUSH2 0x4E JUMPI DUP1 PUSH4 0x7090C36E EQ PUSH2 0x109 JUMPI DUP1 PUSH4 0x8226508D EQ PUSH2 0x146 JUMPI DUP1 PUSH4 0x859B97FE EQ PUSH2 0x183 JUMPI DUP1 PUSH4 0xD98B9BB5 EQ PUSH2 0x1AC JUMPI PUSH2 0x70 JUMP JUMPDEST DUP1 PUSH4 0x69EA362 EQ PUSH2 0x75 JUMPI DUP1 PUSH4 0x32627AF9 EQ PUSH2 0xB7 JUMPI DUP1 PUSH4 0x6DB2A303 EQ PUSH2 0xE0 JUMPI JUMPDEST PUSH1 0x0 DUP1 REVERT JUMPDEST CALLVALUE DUP1 ISZERO PUSH2 0x81 JUMPI PUSH1 0x0 DUP1 REVERT JUMPDEST POP PUSH2 0x9C PUSH1 0x4 DUP1 CALLDATASIZE SUB DUP2 ADD SWAP1 PUSH2 0x97 SWAP2 SWAP1 PUSH2 0xDB5 JUMP JUMPDEST PUSH2 0x1C8 JUMP JUMPDEST PUSH1 0x40 MLOAD PUSH2 0xAE SWAP7 SWAP6 SWAP5 SWAP4 SWAP3 SWAP2 SWAP1 PUSH2 0xEA3 JUMP JUMPDEST PUSH1 0x40 MLOAD DUP1 SWAP2 SUB SWAP1 RETURN JUMPDEST CALLVALUE DUP1 ISZERO PUSH2 0xC3 JUMPI PUSH1 0x0 DUP1 REVERT JUMPDEST POP PUSH2 0xDE PUSH1 0x4 DUP1 CALLDATASIZE SUB DUP2 ADD SWAP1 PUSH2 0xD9 SWAP2 SWAP1 PUSH2 0x1040 JUMP JUMPDEST PUSH2 0x2D9 JUMP JUMPDEST STOP JUMPDEST CALLVALUE DUP1 ISZERO PUSH2 0xEC JUMPI PUSH1 0x0 DUP1 REVERT JUMPDEST POP PUSH2 0x107 PUSH1 0x4 DUP1 CALLDATASIZE SUB DUP2 ADD SWAP1 PUSH2 0x102 SWAP2 SWAP1 PUSH2 0xDB5 JUMP JUMPDEST PUSH2 0x61F JUMP JUMPDEST STOP JUMPDEST CALLVALUE DUP1 ISZERO PUSH2 0x115 JUMPI PUSH1 0x0 DUP1 REVERT JUMPDEST POP PUSH2 0x130 PUSH1 0x4 DUP1 CALLDATASIZE SUB DUP2 ADD SWAP1 PUSH2 0x12B SWAP2 SWAP1 PUSH2 0xDB5 JUMP JUMPDEST PUSH2 0x623 JUMP JUMPDEST PUSH1 0x40 MLOAD PUSH2 0x13D SWAP2 SWAP1 PUSH2 0x109C JUMP JUMPDEST PUSH1 0x40 MLOAD DUP1 SWAP2 SUB SWAP1 RETURN JUMPDEST CALLVALUE DUP1 ISZERO PUSH2 0x152 JUMPI PUSH1 0x0 DUP1 REVERT JUMPDEST POP PUSH2 0x16D PUSH1 0x4 DUP1 CALLDATASIZE SUB DUP2 ADD SWAP1 PUSH2 0x168 SWAP2 SWAP1 PUSH2 0xDB5 JUMP JUMPDEST PUSH2 0x6A0 JUMP JUMPDEST PUSH1 0x40 MLOAD PUSH2 0x17A SWAP2 SWAP1 PUSH2 0x10B7 JUMP JUMPDEST PUSH1 0x40 MLOAD DUP1 SWAP2 SUB SWAP1 RETURN JUMPDEST CALLVALUE DUP1 ISZERO PUSH2 0x18F JUMPI PUSH1 0x0 DUP1 REVERT JUMPDEST POP PUSH2 0x1AA PUSH1 0x4 DUP1 CALLDATASIZE SUB DUP2 ADD SWAP1 PUSH2 0x1A5 SWAP2 SWAP1 PUSH2 0xDB5 JUMP JUMPDEST PUSH2 0x6FD JUMP JUMPDEST STOP JUMPDEST PUSH2 0x1C6 PUSH1 0x4 DUP1 CALLDATASIZE SUB DUP2 ADD SWAP1 PUSH2 0x1C1 SWAP2 SWAP1 PUSH2 0xDB5 JUMP JUMPDEST PUSH2 0x80C JUMP JUMPDEST STOP JUMPDEST PUSH1 0x0 PUSH1 0x20 MSTORE DUP2 PUSH1 0x0 MSTORE PUSH1 0x40 PUSH1 0x0 KECCAK256 PUSH1 0x20 MSTORE DUP1 PUSH1 0x0 MSTORE PUSH1 0x40 PUSH1 0x0 KECCAK256 PUSH1 0x0 SWAP2 POP SWAP2 POP POP DUP1 PUSH1 0x0 ADD DUP1 SLOAD PUSH2 0x1F8 SWAP1 PUSH2 0x1101 JUMP JUMPDEST DUP1 PUSH1 0x1F ADD PUSH1 0x20 DUP1 SWAP2 DIV MUL PUSH1 0x20 ADD PUSH1 0x40 MLOAD SWAP1 DUP2 ADD PUSH1 0x40 MSTORE DUP1 SWAP3 SWAP2 SWAP1 DUP2 DUP2 MSTORE PUSH1 0x20 ADD DUP3 DUP1 SLOAD PUSH2 0x224 SWAP1 PUSH2 0x1101 JUMP JUMPDEST DUP1 ISZERO PUSH2 0x271 JUMPI DUP1 PUSH1 0x1F LT PUSH2 0x246 JUMPI PUSH2 0x100 DUP1 DUP4 SLOAD DIV MUL DUP4 MSTORE SWAP2 PUSH1 0x20 ADD SWAP2 PUSH2 0x271 JUMP JUMPDEST DUP3 ADD SWAP2 SWAP1 PUSH1 0x0 MSTORE PUSH1 0x20 PUSH1 0x0 KECCAK256 SWAP1 JUMPDEST DUP2 SLOAD DUP2 MSTORE SWAP1 PUSH1 0x1 ADD SWAP1 PUSH1 0x20 ADD DUP1 DUP4 GT PUSH2 0x254 JUMPI DUP3 SWAP1 SUB PUSH1 0x1F AND DUP3 ADD SWAP2 JUMPDEST POP POP POP POP POP SWAP1 DUP1 PUSH1 0x1 ADD SLOAD SWAP1 DUP1 PUSH1 0x2 ADD SLOAD SWAP1 DUP1 PUSH1 0x3 ADD PUSH1 0x0 SWAP1 SLOAD SWAP1 PUSH2 0x100 EXP SWAP1 DIV PUSH20 0xFFFFFFFFFFFFFFFFFFFFFFFFFFFFFFFFFFFFFFFF AND SWAP1 DUP1 PUSH1 0x4 ADD SLOAD SWAP1 DUP1 PUSH1 0x5 ADD PUSH1 0x0 SWAP1 SLOAD SWAP1 PUSH2 0x100 EXP SWAP1 DIV PUSH20 0xFFFFFFFFFFFFFFFFFFFFFFFFFFFFFFFFFFFFFFFF AND SWAP1 POP DUP7 JUMP JUMPDEST PUSH1 0x0 PUSH20 0xFFFFFFFFFFFFFFFFFFFFFFFFFFFFFFFFFFFFFFFF AND CALLER PUSH20 0xFFFFFFFFFFFFFFFFFFFFFFFFFFFFFFFFFFFFFFFF AND SUB PUSH2 0x348 JUMPI PUSH1 0x40 MLOAD PUSH32 0x8C379A000000000000000000000000000000000000000000000000000000000 DUP2 MSTORE PUSH1 0x4 ADD PUSH2 0x33F SWAP1 PUSH2 0x117E JUMP JUMPDEST PUSH1 0x40 MLOAD DUP1 SWAP2 SUB SWAP1 REVERT JUMPDEST DUP1 PUSH1 0x0 DUP1 CALLER PUSH20 0xFFFFFFFFFFFFFFFFFFFFFFFFFFFFFFFFFFFFFFFF AND PUSH20 0xFFFFFFFFFFFFFFFFFFFFFFFFFFFFFFFFFFFFFFFF AND DUP2 MSTORE PUSH1 0x20 ADD SWAP1 DUP2 MSTORE PUSH1 0x20 ADD PUSH1 0x0 KECCAK256 PUSH1 0x0 DUP5 DUP2 MSTORE PUSH1 0x20 ADD SWAP1 DUP2 MSTORE PUSH1 0x20 ADD PUSH1 0x0 KECCAK256 PUSH1 0x0 ADD SWAP1 DUP2 PUSH2 0x3A7 SWAP2 SWAP1 PUSH2 0x134A JUMP JUMPDEST POP PUSH1 0x0 DUP1 PUSH1 0x0 CALLER PUSH20 0xFFFFFFFFFFFFFFFFFFFFFFFFFFFFFFFFFFFFFFFF AND PUSH20 0xFFFFFFFFFFFFFFFFFFFFFFFFFFFFFFFFFFFFFFFF AND DUP2 MSTORE PUSH1 0x20 ADD SWAP1 DUP2 MSTORE PUSH1 0x20 ADD PUSH1 0x0 KECCAK256 PUSH1 0x0 DUP5 DUP2 MSTORE PUSH1 0x20 ADD SWAP1 DUP2 MSTORE PUSH1 0x20 ADD PUSH1 0x0 KECCAK256 PUSH1 0x1 ADD DUP2 SWAP1 SSTORE POP PUSH1 0x0 DUP1 PUSH1 0x0 CALLER PUSH20 0xFFFFFFFFFFFFFFFFFFFFFFFFFFFFFFFFFFFFFFFF AND PUSH20 0xFFFFFFFFFFFFFFFFFFFFFFFFFFFFFFFFFFFFFFFF AND DUP2 MSTORE PUSH1 0x20 ADD SWAP1 DUP2 MSTORE PUSH1 0x20 ADD PUSH1 0x0 KECCAK256 PUSH1 0x0 DUP5 DUP2 MSTORE PUSH1 0x20 ADD SWAP1 DUP2 MSTORE PUSH1 0x20 ADD PUSH1 0x0 KECCAK256 PUSH1 0x2 ADD DUP2 SWAP1 SSTORE POP PUSH1 0x0 DUP1 PUSH1 0x0 CALLER PUSH20 0xFFFFFFFFFFFFFFFFFFFFFFFFFFFFFFFFFFFFFFFF AND PUSH20 0xFFFFFFFFFFFFFFFFFFFFFFFFFFFFFFFFFFFFFFFF AND DUP2 MSTORE PUSH1 0x20 ADD SWAP1 DUP2 MSTORE PUSH1 0x20 ADD PUSH1 0x0 KECCAK256 PUSH1 0x0 DUP5 DUP2 MSTORE PUSH1 0x20 ADD SWAP1 DUP2 MSTORE PUSH1 0x20 ADD PUSH1 0x0 KECCAK256 PUSH1 0x3 ADD PUSH1 0x0 PUSH2 0x100 EXP DUP2 SLOAD DUP2 PUSH20 0xFFFFFFFFFFFFFFFFFFFFFFFFFFFFFFFFFFFFFFFF MUL NOT AND SWAP1 DUP4 PUSH20 0xFFFFFFFFFFFFFFFFFFFFFFFFFFFFFFFFFFFFFFFF AND MUL OR SWAP1 SSTORE POP PUSH1 0x0 DUP1 PUSH1 0x0 CALLER PUSH20 0xFFFFFFFFFFFFFFFFFFFFFFFFFFFFFFFFFFFFFFFF AND PUSH20 0xFFFFFFFFFFFFFFFFFFFFFFFFFFFFFFFFFFFFFFFF AND DUP2 MSTORE PUSH1 0x20 ADD SWAP1 DUP2 MSTORE PUSH1 0x20 ADD PUSH1 0x0 KECCAK256 PUSH1 0x0 DUP5 DUP2 MSTORE PUSH1 0x20 ADD SWAP1 DUP2 MSTORE PUSH1 0x20 ADD PUSH1 0x0 KECCAK256 PUSH1 0x5 ADD PUSH1 0x0 PUSH2 0x100 EXP DUP2 SLOAD DUP2 PUSH20 0xFFFFFFFFFFFFFFFFFFFFFFFFFFFFFFFFFFFFFFFF MUL NOT AND SWAP1 DUP4 PUSH20 0xFFFFFFFFFFFFFFFFFFFFFFFFFFFFFFFFFFFFFFFF AND MUL OR SWAP1 SSTORE POP PUSH2 0xE10 TIMESTAMP PUSH2 0x58A SWAP2 SWAP1 PUSH2 0x144B JUMP JUMPDEST PUSH1 0x0 DUP1 CALLER PUSH20 0xFFFFFFFFFFFFFFFFFFFFFFFFFFFFFFFFFFFFFFFF AND PUSH20 0xFFFFFFFFFFFFFFFFFFFFFFFFFFFFFFFFFFFFFFFF AND DUP2 MSTORE PUSH1 0x20 ADD SWAP1 DUP2 MSTORE PUSH1 0x20 ADD PUSH1 0x0 KECCAK256 PUSH1 0x0 DUP5 DUP2 MSTORE PUSH1 0x20 ADD SWAP1 DUP2 MSTORE PUSH1 0x20 ADD PUSH1 0x0 KECCAK256 PUSH1 0x4 ADD DUP2 SWAP1 SSTORE POP PUSH32 0xA7806320B37116843EC008DA1594A383D57D02CF004956B72C34754BF6395070 CALLER DUP4 DUP4 PUSH1 0x40 MLOAD PUSH2 0x613 SWAP4 SWAP3 SWAP2 SWAP1 PUSH2 0x147F JUMP JUMPDEST PUSH1 0x40 MLOAD DUP1 SWAP2 SUB SWAP1 LOG1 POP POP JUMP JUMPDEST POP POP JUMP JUMPDEST PUSH1 0x0 DUP1 PUSH1 0x0 DUP5 PUSH20 0xFFFFFFFFFFFFFFFFFFFFFFFFFFFFFFFFFFFFFFFF AND PUSH20 0xFFFFFFFFFFFFFFFFFFFFFFFFFFFFFFFFFFFFFFFF AND DUP2 MSTORE PUSH1 0x20 ADD SWAP1 DUP2 MSTORE PUSH1 0x20 ADD PUSH1 0x0 KECCAK256 PUSH1 0x0 DUP4 DUP2 MSTORE PUSH1 0x20 ADD SWAP1 DUP2 MSTORE PUSH1 0x20 ADD PUSH1 0x0 KECCAK256 PUSH1 0x3 ADD PUSH1 0x0 SWAP1 SLOAD SWAP1 PUSH2 0x100 EXP SWAP1 DIV PUSH20 0xFFFFFFFFFFFFFFFFFFFFFFFFFFFFFFFFFFFFFFFF AND SWAP1 POP SWAP3 SWAP2 POP POP JUMP JUMPDEST PUSH1 0x0 DUP1 PUSH1 0x0 DUP5 PUSH20 0xFFFFFFFFFFFFFFFFFFFFFFFFFFFFFFFFFFFFFFFF AND PUSH20 0xFFFFFFFFFFFFFFFFFFFFFFFFFFFFFFFFFFFFFFFF AND DUP2 MSTORE PUSH1 0x20 ADD SWAP1 DUP2 MSTORE PUSH1 0x20 ADD PUSH1 0x0 KECCAK256 PUSH1 0x0 DUP4 DUP2 MSTORE PUSH1 0x20 ADD SWAP1 DUP2 MSTORE PUSH1 0x20 ADD PUSH1 0x0 KECCAK256 PUSH1 0x2 ADD SLOAD SWAP1 POP SWAP3 SWAP2 POP POP JUMP JUMPDEST PUSH1 0x0 DUP1 DUP4 PUSH20 0xFFFFFFFFFFFFFFFFFFFFFFFFFFFFFFFFFFFFFFFF AND PUSH20 0xFFFFFFFFFFFFFFFFFFFFFFFFFFFFFFFFFFFFFFFF AND DUP2 MSTORE PUSH1 0x20 ADD SWAP1 DUP2 MSTORE PUSH1 0x20 ADD PUSH1 0x0 KECCAK256 PUSH1 0x0 DUP3 DUP2 MSTORE PUSH1 0x20 ADD SWAP1 DUP2 MSTORE PUSH1 0x20 ADD PUSH1 0x0 KECCAK256 PUSH1 0x3 ADD PUSH1 0x0 SWAP1 SLOAD SWAP1 PUSH2 0x100 EXP SWAP1 DIV PUSH20 0xFFFFFFFFFFFFFFFFFFFFFFFFFFFFFFFFFFFFFFFF AND PUSH20 0xFFFFFFFFFFFFFFFFFFFFFFFFFFFFFFFFFFFFFFFF AND PUSH2 0x8FC PUSH1 0x0 DUP1 DUP6 PUSH20 0xFFFFFFFFFFFFFFFFFFFFFFFFFFFFFFFFFFFFFFFF AND PUSH20 0xFFFFFFFFFFFFFFFFFFFFFFFFFFFFFFFFFFFFFFFF AND DUP2 MSTORE PUSH1 0x20 ADD SWAP1 DUP2 MSTORE PUSH1 0x20 ADD PUSH1 0x0 KECCAK256 PUSH1 0x0 DUP5 DUP2 MSTORE PUSH1 0x20 ADD SWAP1 DUP2 MSTORE PUSH1 0x20 ADD PUSH1 0x0 KECCAK256 PUSH1 0x2 ADD SLOAD SWAP1 DUP2 ISZERO MUL SWAP1 PUSH1 0x40 MLOAD PUSH1 0x0 PUSH1 0x40 MLOAD DUP1 DUP4 SUB DUP2 DUP6 DUP9 DUP9 CALL SWAP4 POP POP POP POP ISZERO DUP1 ISZERO PUSH2 0x807 JUMPI RETURNDATASIZE PUSH1 0x0 DUP1 RETURNDATACOPY RETURNDATASIZE PUSH1 0x0 REVERT JUMPDEST POP POP POP JUMP JUMPDEST CALLER PUSH20 0xFFFFFFFFFFFFFFFFFFFFFFFFFFFFFFFFFFFFFFFF AND DUP3 PUSH20 0xFFFFFFFFFFFFFFFFFFFFFFFFFFFFFFFFFFFFFFFF AND SUB PUSH2 0x87A JUMPI PUSH1 0x40 MLOAD PUSH32 0x8C379A000000000000000000000000000000000000000000000000000000000 DUP2 MSTORE PUSH1 0x4 ADD PUSH2 0x871 SWAP1 PUSH2 0x1509 JUMP JUMPDEST PUSH1 0x40 MLOAD DUP1 SWAP2 SUB SWAP1 REVERT JUMPDEST PUSH1 0x0 DUP1 PUSH1 0x0 DUP5 PUSH20 0xFFFFFFFFFFFFFFFFFFFFFFFFFFFFFFFFFFFFFFFF AND PUSH20 0xFFFFFFFFFFFFFFFFFFFFFFFFFFFFFFFFFFFFFFFF AND DUP2 MSTORE PUSH1 0x20 ADD SWAP1 DUP2 MSTORE PUSH1 0x20 ADD PUSH1 0x0 KECCAK256 PUSH1 0x0 DUP4 DUP2 MSTORE PUSH1 0x20 ADD SWAP1 DUP2 MSTORE PUSH1 0x20 ADD PUSH1 0x0 KECCAK256 PUSH1 0x4 ADD SLOAD GT PUSH2 0x90F JUMPI PUSH1 0x40 MLOAD PUSH32 0x8C379A000000000000000000000000000000000000000000000000000000000 DUP2 MSTORE PUSH1 0x4 ADD PUSH2 0x906 SWAP1 PUSH2 0x1575 JUMP JUMPDEST PUSH1 0x40 MLOAD DUP1 SWAP2 SUB SWAP1 REVERT JUMPDEST PUSH1 0x0 DUP1 DUP4 PUSH20 0xFFFFFFFFFFFFFFFFFFFFFFFFFFFFFFFFFFFFFFFF AND PUSH20 0xFFFFFFFFFFFFFFFFFFFFFFFFFFFFFFFFFFFFFFFF AND DUP2 MSTORE PUSH1 0x20 ADD SWAP1 DUP2 MSTORE PUSH1 0x20 ADD PUSH1 0x0 KECCAK256 PUSH1 0x0 DUP3 DUP2 MSTORE PUSH1 0x20 ADD SWAP1 DUP2 MSTORE PUSH1 0x20 ADD PUSH1 0x0 KECCAK256 PUSH1 0x2 ADD SLOAD CALLVALUE GT PUSH2 0x9A3 JUMPI PUSH1 0x40 MLOAD PUSH32 0x8C379A000000000000000000000000000000000000000000000000000000000 DUP2 MSTORE PUSH1 0x4 ADD PUSH2 0x99A SWAP1 PUSH2 0x15E1 JUMP JUMPDEST PUSH1 0x40 MLOAD DUP1 SWAP2 SUB SWAP1 REVERT JUMPDEST CALLVALUE PUSH1 0x0 DUP1 DUP5 PUSH20 0xFFFFFFFFFFFFFFFFFFFFFFFFFFFFFFFFFFFFFFFF AND PUSH20 0xFFFFFFFFFFFFFFFFFFFFFFFFFFFFFFFFFFFFFFFF AND DUP2 MSTORE PUSH1 0x20 ADD SWAP1 DUP2 MSTORE PUSH1 0x20 ADD PUSH1 0x0 KECCAK256 PUSH1 0x0 DUP4 DUP2 MSTORE PUSH1 0x20 ADD SWAP1 DUP2 MSTORE PUSH1 0x20 ADD PUSH1 0x0 KECCAK256 PUSH1 0x1 ADD DUP2 SWAP1 SSTORE POP PUSH1 0x0 DUP1 DUP4 PUSH20 0xFFFFFFFFFFFFFFFFFFFFFFFFFFFFFFFFFFFFFFFF AND PUSH20 0xFFFFFFFFFFFFFFFFFFFFFFFFFFFFFFFFFFFFFFFF AND DUP2 MSTORE PUSH1 0x20 ADD SWAP1 DUP2 MSTORE PUSH1 0x20 ADD PUSH1 0x0 KECCAK256 PUSH1 0x0 DUP3 DUP2 MSTORE PUSH1 0x20 ADD SWAP1 DUP2 MSTORE PUSH1 0x20 ADD PUSH1 0x0 KECCAK256 PUSH1 0x1 ADD SLOAD PUSH1 0x0 DUP1 DUP5 PUSH20 0xFFFFFFFFFFFFFFFFFFFFFFFFFFFFFFFFFFFFFFFF AND PUSH20 0xFFFFFFFFFFFFFFFFFFFFFFFFFFFFFFFFFFFFFFFF AND DUP2 MSTORE PUSH1 0x20 ADD SWAP1 DUP2 MSTORE PUSH1 0x20 ADD PUSH1 0x0 KECCAK256 PUSH1 0x0 DUP4 DUP2 MSTORE PUSH1 0x20 ADD SWAP1 DUP2 MSTORE PUSH1 0x20 ADD PUSH1 0x0 KECCAK256 PUSH1 0x2 ADD DUP2 SWAP1 SSTORE POP CALLER PUSH1 0x0 DUP1 DUP5 PUSH20 0xFFFFFFFFFFFFFFFFFFFFFFFFFFFFFFFFFFFFFFFF AND PUSH20 0xFFFFFFFFFFFFFFFFFFFFFFFFFFFFFFFFFFFFFFFF AND DUP2 MSTORE PUSH1 0x20 ADD SWAP1 DUP2 MSTORE PUSH1 0x20 ADD PUSH1 0x0 KECCAK256 PUSH1 0x0 DUP4 DUP2 MSTORE PUSH1 0x20 ADD SWAP1 DUP2 MSTORE PUSH1 0x20 ADD PUSH1 0x0 KECCAK256 PUSH1 0x5 ADD PUSH1 0x0 PUSH2 0x100 EXP DUP2 SLOAD DUP2 PUSH20 0xFFFFFFFFFFFFFFFFFFFFFFFFFFFFFFFFFFFFFFFF MUL NOT AND SWAP1 DUP4 PUSH20 0xFFFFFFFFFFFFFFFFFFFFFFFFFFFFFFFFFFFFFFFF AND MUL OR SWAP1 SSTORE POP CALLER PUSH1 0x0 DUP1 DUP5 PUSH20 0xFFFFFFFFFFFFFFFFFFFFFFFFFFFFFFFFFFFFFFFF AND PUSH20 0xFFFFFFFFFFFFFFFFFFFFFFFFFFFFFFFFFFFFFFFF AND DUP2 MSTORE PUSH1 0x20 ADD SWAP1 DUP2 MSTORE PUSH1 0x20 ADD PUSH1 0x0 KECCAK256 PUSH1 0x0 DUP4 DUP2 MSTORE PUSH1 0x20 ADD SWAP1 DUP2 MSTORE PUSH1 0x20 ADD PUSH1 0x0 KECCAK256 PUSH1 0x3 ADD PUSH1 0x0 PUSH2 0x100 EXP DUP2 SLOAD DUP2 PUSH20 0xFFFFFFFFFFFFFFFFFFFFFFFFFFFFFFFFFFFFFFFF MUL NOT AND SWAP1 DUP4 PUSH20 0xFFFFFFFFFFFFFFFFFFFFFFFFFFFFFFFFFFFFFFFF AND MUL OR SWAP1 SSTORE POP PUSH1 0x0 DUP1 DUP4 PUSH20 0xFFFFFFFFFFFFFFFFFFFFFFFFFFFFFFFFFFFFFFFF AND PUSH20 0xFFFFFFFFFFFFFFFFFFFFFFFFFFFFFFFFFFFFFFFF AND DUP2 MSTORE PUSH1 0x20 ADD SWAP1 DUP2 MSTORE PUSH1 0x20 ADD PUSH1 0x0 KECCAK256 PUSH1 0x0 DUP3 DUP2 MSTORE PUSH1 0x20 ADD SWAP1 DUP2 MSTORE PUSH1 0x20 ADD PUSH1 0x0 KECCAK256 PUSH1 0x5 ADD PUSH1 0x0 SWAP1 SLOAD SWAP1 PUSH2 0x100 EXP SWAP1 DIV PUSH20 0xFFFFFFFFFFFFFFFFFFFFFFFFFFFFFFFFFFFFFFFF AND PUSH20 0xFFFFFFFFFFFFFFFFFFFFFFFFFFFFFFFFFFFFFFFF AND PUSH2 0x8FC PUSH1 0x0 DUP1 DUP6 PUSH20 0xFFFFFFFFFFFFFFFFFFFFFFFFFFFFFFFFFFFFFFFF AND PUSH20 0xFFFFFFFFFFFFFFFFFFFFFFFFFFFFFFFFFFFFFFFF AND DUP2 MSTORE PUSH1 0x20 ADD SWAP1 DUP2 MSTORE PUSH1 0x20 ADD PUSH1 0x0 KECCAK256 PUSH1 0x0 DUP5 DUP2 MSTORE PUSH1 0x20 ADD SWAP1 DUP2 MSTORE PUSH1 0x20 ADD PUSH1 0x0 KECCAK256 PUSH1 0x2 ADD SLOAD SWAP1 DUP2 ISZERO MUL SWAP1 PUSH1 0x40 MLOAD PUSH1 0x0 PUSH1 0x40 MLOAD DUP1 DUP4 SUB DUP2 DUP6 DUP9 DUP9 CALL SWAP4 POP POP POP POP ISZERO DUP1 ISZERO PUSH2 0xCCF JUMPI RETURNDATASIZE PUSH1 0x0 DUP1 RETURNDATACOPY RETURNDATASIZE PUSH1 0x0 REVERT JUMPDEST POP PUSH32 0xE684A55F31B79ECA403DF938249029212A5925EC6BE8012E099B45BC1019E5D2 CALLER CALLVALUE PUSH1 0x40 MLOAD PUSH2 0xD01 SWAP3 SWAP2 SWAP1 PUSH2 0x1601 JUMP JUMPDEST PUSH1 0x40 MLOAD DUP1 SWAP2 SUB SWAP1 LOG1 POP POP JUMP JUMPDEST PUSH1 0x0 PUSH1 0x40 MLOAD SWAP1 POP SWAP1 JUMP JUMPDEST PUSH1 0x0 DUP1 REVERT JUMPDEST PUSH1 0x0 DUP1 REVERT JUMPDEST PUSH1 0x0 PUSH20 0xFFFFFFFFFFFFFFFFFFFFFFFFFFFFFFFFFFFFFFFF DUP3 AND SWAP1 POP SWAP2 SWAP1 POP JUMP JUMPDEST PUSH1 0x0 PUSH2 0xD4C DUP3 PUSH2 0xD21 JUMP JUMPDEST SWAP1 POP SWAP2 SWAP1 POP JUMP JUMPDEST PUSH2 0xD5C DUP2 PUSH2 0xD41 JUMP JUMPDEST DUP2 EQ PUSH2 0xD67 JUMPI PUSH1 0x0 DUP1 REVERT JUMPDEST POP JUMP JUMPDEST PUSH1 0x0 DUP2 CALLDATALOAD SWAP1 POP PUSH2 0xD79 DUP2 PUSH2 0xD53 JUMP JUMPDEST SWAP3 SWAP2 POP POP JUMP JUMPDEST PUSH1 0x0 DUP2 SWAP1 POP SWAP2 SWAP1 POP JUMP JUMPDEST PUSH2 0xD92 DUP2 PUSH2 0xD7F JUMP JUMPDEST DUP2 EQ PUSH2 0xD9D JUMPI PUSH1 0x0 DUP1 REVERT JUMPDEST POP JUMP JUMPDEST PUSH1 0x0 DUP2 CALLDATALOAD SWAP1 POP PUSH2 0xDAF DUP2 PUSH2 0xD89 JUMP JUMPDEST SWAP3 SWAP2 POP POP JUMP JUMPDEST PUSH1 0x0 DUP1 PUSH1 0x40 DUP4 DUP6 SUB SLT ISZERO PUSH2 0xDCC JUMPI PUSH2 0xDCB PUSH2 0xD17 JUMP JUMPDEST JUMPDEST PUSH1 0x0 PUSH2 0xDDA DUP6 DUP3 DUP7 ADD PUSH2 0xD6A JUMP JUMPDEST SWAP3 POP POP PUSH1 0x20 PUSH2 0xDEB DUP6 DUP3 DUP7 ADD PUSH2 0xDA0 JUMP JUMPDEST SWAP2 POP POP SWAP3 POP SWAP3 SWAP1 POP JUMP JUMPDEST PUSH1 0x0 DUP2 MLOAD SWAP1 POP SWAP2 SWAP1 POP JUMP JUMPDEST PUSH1 0x0 DUP3 DUP3 MSTORE PUSH1 0x20 DUP3 ADD SWAP1 POP SWAP3 SWAP2 POP POP JUMP JUMPDEST PUSH1 0x0 JUMPDEST DUP4 DUP2 LT ISZERO PUSH2 0xE2F JUMPI DUP1 DUP3 ADD MLOAD DUP2 DUP5 ADD MSTORE PUSH1 0x20 DUP2 ADD SWAP1 POP PUSH2 0xE14 JUMP JUMPDEST PUSH1 0x0 DUP5 DUP5 ADD MSTORE POP POP POP POP JUMP JUMPDEST PUSH1 0x0 PUSH1 0x1F NOT PUSH1 0x1F DUP4 ADD AND SWAP1 POP SWAP2 SWAP1 POP JUMP JUMPDEST PUSH1 0x0 PUSH2 0xE57 DUP3 PUSH2 0xDF5 JUMP JUMPDEST PUSH2 0xE61 DUP2 DUP6 PUSH2 0xE00 JUMP JUMPDEST SWAP4 POP PUSH2 0xE71 DUP2 DUP6 PUSH1 0x20 DUP7 ADD PUSH2 0xE11 JUMP JUMPDEST PUSH2 0xE7A DUP2 PUSH2 0xE3B JUMP JUMPDEST DUP5 ADD SWAP2 POP POP SWAP3 SWAP2 POP POP JUMP JUMPDEST PUSH2 0xE8E DUP2 PUSH2 0xD7F JUMP JUMPDEST DUP3 MSTORE POP POP JUMP JUMPDEST PUSH2 0xE9D DUP2 PUSH2 0xD41 JUMP JUMPDEST DUP3 MSTORE POP POP JUMP JUMPDEST PUSH1 0x0 PUSH1 0xC0 DUP3 ADD SWAP1 POP DUP2 DUP2 SUB PUSH1 0x0 DUP4 ADD MSTORE PUSH2 0xEBD DUP2 DUP10 PUSH2 0xE4C JUMP JUMPDEST SWAP1 POP PUSH2 0xECC PUSH1 0x20 DUP4 ADD DUP9 PUSH2 0xE85 JUMP JUMPDEST PUSH2 0xED9 PUSH1 0x40 DUP4 ADD DUP8 PUSH2 0xE85 JUMP JUMPDEST PUSH2 0xEE6 PUSH1 0x60 DUP4 ADD DUP7 PUSH2 0xE94 JUMP JUMPDEST PUSH2 0xEF3 PUSH1 0x80 DUP4 ADD DUP6 PUSH2 0xE85 JUMP JUMPDEST PUSH2 0xF00 PUSH1 0xA0 DUP4 ADD DUP5 PUSH2 0xE94 JUMP JUMPDEST SWAP8 SWAP7 POP POP POP POP POP POP POP JUMP JUMPDEST PUSH1 0x0 DUP1 REVERT JUMPDEST PUSH1 0x0 DUP1 REVERT JUMPDEST PUSH32 0x4E487B7100000000000000000000000000000000000000000000000000000000 PUSH1 0x0 MSTORE PUSH1 0x41 PUSH1 0x4 MSTORE PUSH1 0x24 PUSH1 0x0 REVERT JUMPDEST PUSH2 0xF4D DUP3 PUSH2 0xE3B JUMP JUMPDEST DUP2 ADD DUP2 DUP2 LT PUSH8 0xFFFFFFFFFFFFFFFF DUP3 GT OR ISZERO PUSH2 0xF6C JUMPI PUSH2 0xF6B PUSH2 0xF15 JUMP JUMPDEST JUMPDEST DUP1 PUSH1 0x40 MSTORE POP POP POP JUMP JUMPDEST PUSH1 0x0 PUSH2 0xF7F PUSH2 0xD0D JUMP JUMPDEST SWAP1 POP PUSH2 0xF8B DUP3 DUP3 PUSH2 0xF44 JUMP JUMPDEST SWAP2 SWAP1 POP JUMP JUMPDEST PUSH1 0x0 PUSH8 0xFFFFFFFFFFFFFFFF DUP3 GT ISZERO PUSH2 0xFAB JUMPI PUSH2 0xFAA PUSH2 0xF15 JUMP JUMPDEST JUMPDEST PUSH2 0xFB4 DUP3 PUSH2 0xE3B JUMP JUMPDEST SWAP1 POP PUSH1 0x20 DUP2 ADD SWAP1 POP SWAP2 SWAP1 POP JUMP JUMPDEST DUP3 DUP2 DUP4 CALLDATACOPY PUSH1 0x0 DUP4 DUP4 ADD MSTORE POP POP POP JUMP JUMPDEST PUSH1 0x0 PUSH2 0xFE3 PUSH2 0xFDE DUP5 PUSH2 0xF90 JUMP JUMPDEST PUSH2 0xF75 JUMP JUMPDEST SWAP1 POP DUP3 DUP2 MSTORE PUSH1 0x20 DUP2 ADD DUP5 DUP5 DUP5 ADD GT ISZERO PUSH2 0xFFF JUMPI PUSH2 0xFFE PUSH2 0xF10 JUMP JUMPDEST JUMPDEST PUSH2 0x100A DUP5 DUP3 DUP6 PUSH2 0xFC1 JUMP JUMPDEST POP SWAP4 SWAP3 POP POP POP JUMP JUMPDEST PUSH1 0x0 DUP3 PUSH1 0x1F DUP4 ADD SLT PUSH2 0x1027 JUMPI PUSH2 0x1026 PUSH2 0xF0B JUMP JUMPDEST JUMPDEST DUP2 CALLDATALOAD PUSH2 0x1037 DUP5 DUP3 PUSH1 0x20 DUP7 ADD PUSH2 0xFD0 JUMP JUMPDEST SWAP2 POP POP SWAP3 SWAP2 POP POP JUMP JUMPDEST PUSH1 0x0 DUP1 PUSH1 0x40 DUP4 DUP6 SUB SLT ISZERO PUSH2 0x1057 JUMPI PUSH2 0x1056 PUSH2 0xD17 JUMP JUMPDEST JUMPDEST PUSH1 0x0 PUSH2 0x1065 DUP6 DUP3 DUP7 ADD PUSH2 0xDA0 JUMP JUMPDEST SWAP3 POP POP PUSH1 0x20 DUP4 ADD CALLDATALOAD PUSH8 0xFFFFFFFFFFFFFFFF DUP2 GT ISZERO PUSH2 0x1086 JUMPI PUSH2 0x1085 PUSH2 0xD1C JUMP JUMPDEST JUMPDEST PUSH2 0x1092 DUP6 DUP3 DUP7 ADD PUSH2 0x1012 JUMP JUMPDEST SWAP2 POP POP SWAP3 POP SWAP3 SWAP1 POP JUMP JUMPDEST PUSH1 0x0 PUSH1 0x20 DUP3 ADD SWAP1 POP PUSH2 0x10B1 PUSH1 0x0 DUP4 ADD DUP5 PUSH2 0xE94 JUMP JUMPDEST SWAP3 SWAP2 POP POP JUMP JUMPDEST PUSH1 0x0 PUSH1 0x20 DUP3 ADD SWAP1 POP PUSH2 0x10CC PUSH1 0x0 DUP4 ADD DUP5 PUSH2 0xE85 JUMP JUMPDEST SWAP3 SWAP2 POP POP JUMP JUMPDEST PUSH32 0x4E487B7100000000000000000000000000000000000000000000000000000000 PUSH1 0x0 MSTORE PUSH1 0x22 PUSH1 0x4 MSTORE PUSH1 0x24 PUSH1 0x0 REVERT JUMPDEST PUSH1 0x0 PUSH1 0x2 DUP3 DIV SWAP1 POP PUSH1 0x1 DUP3 AND DUP1 PUSH2 0x1119 JUMPI PUSH1 0x7F DUP3 AND SWAP2 POP JUMPDEST PUSH1 0x20 DUP3 LT DUP2 SUB PUSH2 0x112C JUMPI PUSH2 0x112B PUSH2 0x10D2 JUMP JUMPDEST JUMPDEST POP SWAP2 SWAP1 POP JUMP JUMPDEST PUSH32 0x4E6F742056616C69640000000000000000000000000000000000000000000000 PUSH1 0x0 DUP3 ADD MSTORE POP JUMP JUMPDEST PUSH1 0x0 PUSH2 0x1168 PUSH1 0x9 DUP4 PUSH2 0xE00 JUMP JUMPDEST SWAP2 POP PUSH2 0x1173 DUP3 PUSH2 0x1132 JUMP JUMPDEST PUSH1 0x20 DUP3 ADD SWAP1 POP SWAP2 SWAP1 POP JUMP JUMPDEST PUSH1 0x0 PUSH1 0x20 DUP3 ADD SWAP1 POP DUP2 DUP2 SUB PUSH1 0x0 DUP4 ADD MSTORE PUSH2 0x1197 DUP2 PUSH2 0x115B JUMP JUMPDEST SWAP1 POP SWAP2 SWAP1 POP JUMP JUMPDEST PUSH1 0x0 DUP2 SWAP1 POP DUP2 PUSH1 0x0 MSTORE PUSH1 0x20 PUSH1 0x0 KECCAK256 SWAP1 POP SWAP2 SWAP1 POP JUMP JUMPDEST PUSH1 0x0 PUSH1 0x20 PUSH1 0x1F DUP4 ADD DIV SWAP1 POP SWAP2 SWAP1 POP JUMP JUMPDEST PUSH1 0x0 DUP3 DUP3 SHL SWAP1 POP SWAP3 SWAP2 POP POP JUMP JUMPDEST PUSH1 0x0 PUSH1 0x8 DUP4 MUL PUSH2 0x1200 PUSH32 0xFFFFFFFFFFFFFFFFFFFFFFFFFFFFFFFFFFFFFFFFFFFFFFFFFFFFFFFFFFFFFFFF DUP3 PUSH2 0x11C3 JUMP JUMPDEST PUSH2 0x120A DUP7 DUP4 PUSH2 0x11C3 JUMP JUMPDEST SWAP6 POP DUP1 NOT DUP5 AND SWAP4 POP DUP1 DUP7 AND DUP5 OR SWAP3 POP POP POP SWAP4 SWAP3 POP POP POP JUMP JUMPDEST PUSH1 0x0 DUP2 SWAP1 POP SWAP2 SWAP1 POP JUMP JUMPDEST PUSH1 0x0 PUSH2 0x1247 PUSH2 0x1242 PUSH2 0x123D DUP5 PUSH2 0xD7F JUMP JUMPDEST PUSH2 0x1222 JUMP JUMPDEST PUSH2 0xD7F JUMP JUMPDEST SWAP1 POP SWAP2 SWAP1 POP JUMP JUMPDEST PUSH1 0x0 DUP2 SWAP1 POP SWAP2 SWAP1 POP JUMP JUMPDEST PUSH2 0x1261 DUP4 PUSH2 0x122C JUMP JUMPDEST PUSH2 0x1275 PUSH2 0x126D DUP3 PUSH2 0x124E JUMP JUMPDEST DUP5 DUP5 SLOAD PUSH2 0x11D0 JUMP JUMPDEST DUP3 SSTORE POP POP POP POP JUMP JUMPDEST PUSH1 0x0 SWAP1 JUMP JUMPDEST PUSH2 0x128A PUSH2 0x127D JUMP JUMPDEST PUSH2 0x1295 DUP2 DUP5 DUP5 PUSH2 0x1258 JUMP JUMPDEST POP POP POP JUMP JUMPDEST JUMPDEST DUP2 DUP2 LT ISZERO PUSH2 0x12B9 JUMPI PUSH2 0x12AE PUSH1 0x0 DUP3 PUSH2 0x1282 JUMP JUMPDEST PUSH1 0x1 DUP2 ADD SWAP1 POP PUSH2 0x129B JUMP JUMPDEST POP POP JUMP JUMPDEST PUSH1 0x1F DUP3 GT ISZERO PUSH2 0x12FE JUMPI PUSH2 0x12CF DUP2 PUSH2 0x119E JUMP JUMPDEST PUSH2 0x12D8 DUP5 PUSH2 0x11B3 JUMP JUMPDEST DUP2 ADD PUSH1 0x20 DUP6 LT ISZERO PUSH2 0x12E7 JUMPI DUP2 SWAP1 POP JUMPDEST PUSH2 0x12FB PUSH2 0x12F3 DUP6 PUSH2 0x11B3 JUMP JUMPDEST DUP4 ADD DUP3 PUSH2 0x129A JUMP JUMPDEST POP POP JUMPDEST POP POP POP JUMP JUMPDEST PUSH1 0x0 DUP3 DUP3 SHR SWAP1 POP SWAP3 SWAP2 POP POP JUMP JUMPDEST PUSH1 0x0 PUSH2 0x1321 PUSH1 0x0 NOT DUP5 PUSH1 0x8 MUL PUSH2 0x1303 JUMP JUMPDEST NOT DUP1 DUP4 AND SWAP2 POP POP SWAP3 SWAP2 POP POP JUMP JUMPDEST PUSH1 0x0 PUSH2 0x133A DUP4 DUP4 PUSH2 0x1310 JUMP JUMPDEST SWAP2 POP DUP3 PUSH1 0x2 MUL DUP3 OR SWAP1 POP SWAP3 SWAP2 POP POP JUMP JUMPDEST PUSH2 0x1353 DUP3 PUSH2 0xDF5 JUMP JUMPDEST PUSH8 0xFFFFFFFFFFFFFFFF DUP2 GT ISZERO PUSH2 0x136C JUMPI PUSH2 0x136B PUSH2 0xF15 JUMP JUMPDEST JUMPDEST PUSH2 0x1376 DUP3 SLOAD PUSH2 0x1101 JUMP JUMPDEST PUSH2 0x1381 DUP3 DUP3 DUP6 PUSH2 0x12BD JUMP JUMPDEST PUSH1 0x0 PUSH1 0x20 SWAP1 POP PUSH1 0x1F DUP4 GT PUSH1 0x1 DUP2 EQ PUSH2 0x13B4 JUMPI PUSH1 0x0 DUP5 ISZERO PUSH2 0x13A2 JUMPI DUP3 DUP8 ADD MLOAD SWAP1 POP JUMPDEST PUSH2 0x13AC DUP6 DUP3 PUSH2 0x132E JUMP JUMPDEST DUP7 SSTORE POP PUSH2 0x1414 JUMP JUMPDEST PUSH1 0x1F NOT DUP5 AND PUSH2 0x13C2 DUP7 PUSH2 0x119E JUMP JUMPDEST PUSH1 0x0 JUMPDEST DUP3 DUP2 LT ISZERO PUSH2 0x13EA JUMPI DUP5 DUP10 ADD MLOAD DUP3 SSTORE PUSH1 0x1 DUP3 ADD SWAP2 POP PUSH1 0x20 DUP6 ADD SWAP5 POP PUSH1 0x20 DUP2 ADD SWAP1 POP PUSH2 0x13C5 JUMP JUMPDEST DUP7 DUP4 LT ISZERO PUSH2 0x1407 JUMPI DUP5 DUP10 ADD MLOAD PUSH2 0x1403 PUSH1 0x1F DUP10 AND DUP3 PUSH2 0x1310 JUMP JUMPDEST DUP4 SSTORE POP JUMPDEST PUSH1 0x1 PUSH1 0x2 DUP9 MUL ADD DUP9 SSTORE POP POP POP JUMPDEST POP POP POP POP POP POP JUMP JUMPDEST PUSH32 0x4E487B7100000000000000000000000000000000000000000000000000000000 PUSH1 0x0 MSTORE PUSH1 0x11 PUSH1 0x4 MSTORE PUSH1 0x24 PUSH1 0x0 REVERT JUMPDEST PUSH1 0x0 PUSH2 0x1456 DUP3 PUSH2 0xD7F JUMP JUMPDEST SWAP2 POP PUSH2 0x1461 DUP4 PUSH2 0xD7F JUMP JUMPDEST SWAP3 POP DUP3 DUP3 ADD SWAP1 POP DUP1 DUP3 GT ISZERO PUSH2 0x1479 JUMPI PUSH2 0x1478 PUSH2 0x141C JUMP JUMPDEST JUMPDEST SWAP3 SWAP2 POP POP JUMP JUMPDEST PUSH1 0x0 PUSH1 0x60 DUP3 ADD SWAP1 POP PUSH2 0x1494 PUSH1 0x0 DUP4 ADD DUP7 PUSH2 0xE94 JUMP JUMPDEST PUSH2 0x14A1 PUSH1 0x20 DUP4 ADD DUP6 PUSH2 0xE85 JUMP JUMPDEST DUP2 DUP2 SUB PUSH1 0x40 DUP4 ADD MSTORE PUSH2 0x14B3 DUP2 DUP5 PUSH2 0xE4C JUMP JUMPDEST SWAP1 POP SWAP5 SWAP4 POP POP POP POP JUMP JUMPDEST PUSH32 0x206F776E65722063616E27742062696400000000000000000000000000000000 PUSH1 0x0 DUP3 ADD MSTORE POP JUMP JUMPDEST PUSH1 0x0 PUSH2 0x14F3 PUSH1 0x10 DUP4 PUSH2 0xE00 JUMP JUMPDEST SWAP2 POP PUSH2 0x14FE DUP3 PUSH2 0x14BD JUMP JUMPDEST PUSH1 0x20 DUP3 ADD SWAP1 POP SWAP2 SWAP1 POP JUMP JUMPDEST PUSH1 0x0 PUSH1 0x20 DUP3 ADD SWAP1 POP DUP2 DUP2 SUB PUSH1 0x0 DUP4 ADD MSTORE PUSH2 0x1522 DUP2 PUSH2 0x14E6 JUMP JUMPDEST SWAP1 POP SWAP2 SWAP1 POP JUMP JUMPDEST PUSH32 0x204E6F7468696E6720746F20506C616365207468652042696420000000000000 PUSH1 0x0 DUP3 ADD MSTORE POP JUMP JUMPDEST PUSH1 0x0 PUSH2 0x155F PUSH1 0x1A DUP4 PUSH2 0xE00 JUMP JUMPDEST SWAP2 POP PUSH2 0x156A DUP3 PUSH2 0x1529 JUMP JUMPDEST PUSH1 0x20 DUP3 ADD SWAP1 POP SWAP2 SWAP1 POP JUMP JUMPDEST PUSH1 0x0 PUSH1 0x20 DUP3 ADD SWAP1 POP DUP2 DUP2 SUB PUSH1 0x0 DUP4 ADD MSTORE PUSH2 0x158E DUP2 PUSH2 0x1552 JUMP JUMPDEST SWAP1 POP SWAP2 SWAP1 POP JUMP JUMPDEST PUSH32 0x20496E6372656173652074686520616D6F756E74206279203120657468657200 PUSH1 0x0 DUP3 ADD MSTORE POP JUMP JUMPDEST PUSH1 0x0 PUSH2 0x15CB PUSH1 0x1F DUP4 PUSH2 0xE00 JUMP JUMPDEST SWAP2 POP PUSH2 0x15D6 DUP3 PUSH2 0x1595 JUMP JUMPDEST PUSH1 0x20 DUP3 ADD SWAP1 POP SWAP2 SWAP1 POP JUMP JUMPDEST PUSH1 0x0 PUSH1 0x20 DUP3 ADD SWAP1 POP DUP2 DUP2 SUB PUSH1 0x0 DUP4 ADD MSTORE PUSH2 0x15FA DUP2 PUSH2 0x15BE JUMP JUMPDEST SWAP1 POP SWAP2 SWAP1 POP JUMP JUMPDEST PUSH1 0x0 PUSH1 0x40 DUP3 ADD SWAP1 POP PUSH2 0x1616 PUSH1 0x0 DUP4 ADD DUP6 PUSH2 0xE94 JUMP JUMPDEST PUSH2 0x1623 PUSH1 0x20 DUP4 ADD DUP5 PUSH2 0xE85 JUMP JUMPDEST SWAP4 SWAP3 POP POP POP JUMP INVALID LOG2 PUSH5 0x6970667358 0x22 SLT KECCAK256 0xDA 0xE0 NOT 0xD1 0xDA 0x24 0xC1 MSTORE8 0xBE 0xC9 DUP14 0x5F PUSH23 0xCCA8FF23E08C25A60D7B378AEBEEFB4A16855364736F6C PUSH4 0x43000812 STOP CALLER "
				},
				"gasEstimates": {
					"creation": {
						"codeDepositCost": "1145600",
						"executionCost": "1187",
						"totalCost": "1146787"
					},
					"external": {
						"CreateItem(uint256,string)": "infinite",
						"cancelAuction(address,uint256)": "infinite",
						"getHighestBid(address,uint256)": "infinite",
						"getWinningBidder(address,uint256)": "infinite",
						"itemDetails(address,uint256)": "infinite",
						"ownershipTransfer(address,uint256)": "673",
						"placeBid(address,uint256)": "infinite"
					}
				},
				"methodIdentifiers": {
					"CreateItem(uint256,string)": "32627af9",
					"cancelAuction(address,uint256)": "859b97fe",
					"getHighestBid(address,uint256)": "8226508d",
					"getWinningBidder(address,uint256)": "7090c36e",
					"itemDetails(address,uint256)": "069ea362",
					"ownershipTransfer(address,uint256)": "6db2a303",
					"placeBid(address,uint256)": "d98b9bb5"
				}
			},
			"storageLayout": {
				"storage": [
					{
						"astId": 21,
						"contract": "Assignment 4 Tokens/final.sol:finaL",
						"label": "itemDetails",
						"offset": 0,
						"slot": "0",
						"type": "t_mapping(t_address,t_mapping(t_uint256,t_struct(itemD)14_storage))"
					}
				],
				"types": {
					"t_address": {
						"encoding": "inplace",
						"label": "address",
						"numberOfBytes": "20"
					},
					"t_mapping(t_address,t_mapping(t_uint256,t_struct(itemD)14_storage))": {
						"encoding": "mapping",
						"key": "t_address",
						"label": "mapping(address => mapping(uint256 => struct finaL.itemD))",
						"numberOfBytes": "32",
						"value": "t_mapping(t_uint256,t_struct(itemD)14_storage)"
					},
					"t_mapping(t_uint256,t_struct(itemD)14_storage)": {
						"encoding": "mapping",
						"key": "t_uint256",
						"label": "mapping(uint256 => struct finaL.itemD)",
						"numberOfBytes": "32",
						"value": "t_struct(itemD)14_storage"
					},
					"t_string_storage": {
						"encoding": "bytes",
						"label": "string",
						"numberOfBytes": "32"
					},
					"t_struct(itemD)14_storage": {
						"encoding": "inplace",
						"label": "struct finaL.itemD",
						"members": [
							{
								"astId": 3,
								"contract": "Assignment 4 Tokens/final.sol:finaL",
								"label": "name",
								"offset": 0,
								"slot": "0",
								"type": "t_string_storage"
							},
							{
								"astId": 5,
								"contract": "Assignment 4 Tokens/final.sol:finaL",
								"label": "lastBid",
								"offset": 0,
								"slot": "1",
								"type": "t_uint256"
							},
							{
								"astId": 7,
								"contract": "Assignment 4 Tokens/final.sol:finaL",
								"label": "highestBid",
								"offset": 0,
								"slot": "2",
								"type": "t_uint256"
							},
							{
								"astId": 9,
								"contract": "Assignment 4 Tokens/final.sol:finaL",
								"label": "highestBider",
								"offset": 0,
								"slot": "3",
								"type": "t_address"
							},
							{
								"astId": 11,
								"contract": "Assignment 4 Tokens/final.sol:finaL",
								"label": "auction_time",
								"offset": 0,
								"slot": "4",
								"type": "t_uint256"
							},
							{
								"astId": 13,
								"contract": "Assignment 4 Tokens/final.sol:finaL",
								"label": "lastHighestBider",
								"offset": 0,
								"slot": "5",
								"type": "t_address"
							}
						],
						"numberOfBytes": "192"
					},
					"t_uint256": {
						"encoding": "inplace",
						"label": "uint256",
						"numberOfBytes": "32"
					}
				}
			},
			"userdoc": {
				"kind": "user",
				"methods": {},
				"version": 1
			}
		}
	}
}