{
	"Assignment 4 Tokens/final.sol": {
		"finaL": {
			"abi": [
				{
					"anonymous": false,
					"inputs": [
						{
							"indexed": false,
							"internalType": "address",
							"name": "_address",
							"type": "address"
						},
						{
							"indexed": false,
							"internalType": "uint256",
							"name": "_bidamount",
							"type": "uint256"
						}
					],
					"name": "Bid",
					"type": "event"
				},
				{
					"anonymous": false,
					"inputs": [
						{
							"indexed": false,
							"internalType": "address",
							"name": "owner",
							"type": "address"
						},
						{
							"indexed": false,
							"internalType": "uint256",
							"name": "id",
							"type": "uint256"
						},
						{
							"indexed": false,
							"internalType": "string",
							"name": "name",
							"type": "string"
						}
					],
					"name": "createItem",
					"type": "event"
				},
				{
					"anonymous": false,
					"inputs": [
						{
							"indexed": false,
							"internalType": "address",
							"name": "_from",
							"type": "address"
						},
						{
							"indexed": false,
							"internalType": "address",
							"name": "_to",
							"type": "address"
						},
						{
							"components": [
								{
									"internalType": "string",
									"name": "name",
									"type": "string"
								},
								{
									"internalType": "uint256",
									"name": "lastBid",
									"type": "uint256"
								},
								{
									"internalType": "uint256",
									"name": "highestBid",
									"type": "uint256"
								},
								{
									"internalType": "address",
									"name": "highestBider",
									"type": "address"
								},
								{
									"internalType": "uint256",
									"name": "auction_time",
									"type": "uint256"
								},
								{
									"internalType": "address",
									"name": "lastHighestBider",
									"type": "address"
								}
							],
							"indexed": false,
							"internalType": "struct finaL.itemD",
							"name": "_item",
							"type": "tuple"
						}
					],
					"name": "transfer",
					"type": "event"
				},
				{
					"inputs": [
						{
							"internalType": "uint256",
							"name": "id",
							"type": "uint256"
						},
						{
							"internalType": "string",
							"name": "_name",
							"type": "string"
						}
					],
					"name": "CreateItem",
					"outputs": [],
					"stateMutability": "nonpayable",
					"type": "function"
				},
				{
					"inputs": [
						{
							"internalType": "address",
							"name": "_address",
							"type": "address"
						},
						{
							"internalType": "uint256",
							"name": "id",
							"type": "uint256"
						}
					],
					"name": "cancelAuction",
					"outputs": [],
					"stateMutability": "nonpayable",
					"type": "function"
				},
				{
					"inputs": [
						{
							"internalType": "address",
							"name": "_address",
							"type": "address"
						},
						{
							"internalType": "uint256",
							"name": "id",
							"type": "uint256"
						}
					],
					"name": "getHighestBid",
					"outputs": [
						{
							"internalType": "uint256",
							"name": "",
							"type": "uint256"
						}
					],
					"stateMutability": "view",
					"type": "function"
				},
				{
					"inputs": [
						{
							"internalType": "address",
							"name": "_address",
							"type": "address"
						},
						{
							"internalType": "uint256",
							"name": "id",
							"type": "uint256"
						}
					],
					"name": "getWinningBidder",
					"outputs": [
						{
							"internalType": "address",
							"name": "",
							"type": "address"
						}
					],
					"stateMutability": "view",
					"type": "function"
				},
				{
					"inputs": [
						{
							"internalType": "address",
							"name": "",
							"type": "address"
						},
						{
							"internalType": "uint256",
							"name": "",
							"type": "uint256"
						}
					],
					"name": "itemDetails",
					"outputs": [
						{
							"internalType": "string",
							"name": "name",
							"type": "string"
						},
						{
							"internalType": "uint256",
							"name": "lastBid",
							"type": "uint256"
						},
						{
							"internalType": "uint256",
							"name": "highestBid",
							"type": "uint256"
						},
						{
							"internalType": "address",
							"name": "highestBider",
							"type": "address"
						},
						{
							"internalType": "uint256",
							"name": "auction_time",
							"type": "uint256"
						},
						{
							"internalType": "address",
							"name": "lastHighestBider",
							"type": "address"
						}
					],
					"stateMutability": "view",
					"type": "function"
				},
				{
					"inputs": [
						{
							"internalType": "address payable",
							"name": "_address",
							"type": "address"
						},
						{
							"internalType": "uint256",
							"name": "id",
							"type": "uint256"
						},
						{
							"internalType": "uint256",
							"name": "id2",
							"type": "uint256"
						}
					],
					"name": "ownershipTransfer",
					"outputs": [],
					"stateMutability": "nonpayable",
					"type": "function"
				},
				{
					"inputs": [
						{
							"internalType": "address",
							"name": "_address",
							"type": "address"
						},
						{
							"internalType": "uint256",
							"name": "id",
							"type": "uint256"
						}
					],
					"name": "placeBid",
					"outputs": [],
					"stateMutability": "payable",
					"type": "function"
				}
			],
			"devdoc": {
				"kind": "dev",
				"methods": {},
				"version": 1
			},
			"evm": {
				"assembly": "    /* \"Assignment 4 Tokens/final.sol\":180:2936  contract finaL  {... */\n  mstore(0x40, 0x80)\n  callvalue\n  dup1\n  iszero\n  tag_1\n  jumpi\n  0x00\n  dup1\n  revert\ntag_1:\n  pop\n  dataSize(sub_0)\n  dup1\n  dataOffset(sub_0)\n  0x00\n  codecopy\n  0x00\n  return\nstop\n\nsub_0: assembly {\n        /* \"Assignment 4 Tokens/final.sol\":180:2936  contract finaL  {... */\n      mstore(0x40, 0x80)\n      jumpi(tag_1, lt(calldatasize, 0x04))\n      shr(0xe0, calldataload(0x00))\n      dup1\n      0x8226508d\n      gt\n      tag_9\n      jumpi\n      dup1\n      0x8226508d\n      eq\n      tag_5\n      jumpi\n      dup1\n      0x859b97fe\n      eq\n      tag_6\n      jumpi\n      dup1\n      0xc8b5555c\n      eq\n      tag_7\n      jumpi\n      dup1\n      0xd98b9bb5\n      eq\n      tag_8\n      jumpi\n      jump(tag_1)\n    tag_9:\n      dup1\n      0x069ea362\n      eq\n      tag_2\n      jumpi\n      dup1\n      0x32627af9\n      eq\n      tag_3\n      jumpi\n      dup1\n      0x7090c36e\n      eq\n      tag_4\n      jumpi\n    tag_1:\n      0x00\n      dup1\n      revert\n        /* \"Assignment 4 Tokens/final.sol\":429:492  mapping(address => mapping(uint256 =>itemD)) public itemDetails */\n    tag_2:\n      callvalue\n      dup1\n      iszero\n      tag_10\n      jumpi\n      0x00\n      dup1\n      revert\n    tag_10:\n      pop\n      tag_11\n      0x04\n      dup1\n      calldatasize\n      sub\n      dup2\n      add\n      swap1\n      tag_12\n      swap2\n      swap1\n      tag_13\n      jump\t// in\n    tag_12:\n      tag_14\n      jump\t// in\n    tag_11:\n      mload(0x40)\n      tag_15\n      swap7\n      swap6\n      swap5\n      swap4\n      swap3\n      swap2\n      swap1\n      tag_16\n      jump\t// in\n    tag_15:\n      mload(0x40)\n      dup1\n      swap2\n      sub\n      swap1\n      return\n        /* \"Assignment 4 Tokens/final.sol\":713:1239  function CreateItem(uint256 id, string memory _name) public {... */\n    tag_3:\n      callvalue\n      dup1\n      iszero\n      tag_17\n      jumpi\n      0x00\n      dup1\n      revert\n    tag_17:\n      pop\n      tag_18\n      0x04\n      dup1\n      calldatasize\n      sub\n      dup2\n      add\n      swap1\n      tag_19\n      swap2\n      swap1\n      tag_20\n      jump\t// in\n    tag_19:\n      tag_21\n      jump\t// in\n    tag_18:\n      stop\n        /* \"Assignment 4 Tokens/final.sol\":2221:2367  function getWinningBidder(address _address,uint256 id)public view returns(address){... */\n    tag_4:\n      callvalue\n      dup1\n      iszero\n      tag_22\n      jumpi\n      0x00\n      dup1\n      revert\n    tag_22:\n      pop\n      tag_23\n      0x04\n      dup1\n      calldatasize\n      sub\n      dup2\n      add\n      swap1\n      tag_24\n      swap2\n      swap1\n      tag_13\n      jump\t// in\n    tag_24:\n      tag_25\n      jump\t// in\n    tag_23:\n      mload(0x40)\n      tag_26\n      swap2\n      swap1\n      tag_27\n      jump\t// in\n    tag_26:\n      mload(0x40)\n      dup1\n      swap2\n      sub\n      swap1\n      return\n        /* \"Assignment 4 Tokens/final.sol\":2070:2213  function getHighestBid(address _address, uint256 id)public view returns(uint256) {... */\n    tag_5:\n      callvalue\n      dup1\n      iszero\n      tag_28\n      jumpi\n      0x00\n      dup1\n      revert\n    tag_28:\n      pop\n      tag_29\n      0x04\n      dup1\n      calldatasize\n      sub\n      dup2\n      add\n      swap1\n      tag_30\n      swap2\n      swap1\n      tag_13\n      jump\t// in\n    tag_30:\n      tag_31\n      jump\t// in\n    tag_29:\n      mload(0x40)\n      tag_32\n      swap2\n      swap1\n      tag_33\n      jump\t// in\n    tag_32:\n      mload(0x40)\n      dup1\n      swap2\n      sub\n      swap1\n      return\n        /* \"Assignment 4 Tokens/final.sol\":2375:2630  function cancelAuction(address _address,uint256 id) public  {... */\n    tag_6:\n      callvalue\n      dup1\n      iszero\n      tag_34\n      jumpi\n      0x00\n      dup1\n      revert\n    tag_34:\n      pop\n      tag_35\n      0x04\n      dup1\n      calldatasize\n      sub\n      dup2\n      add\n      swap1\n      tag_36\n      swap2\n      swap1\n      tag_13\n      jump\t// in\n    tag_36:\n      tag_37\n      jump\t// in\n    tag_35:\n      stop\n        /* \"Assignment 4 Tokens/final.sol\":2638:2933  function ownershipTransfer(address payable  _address,uint256 id, uint256 id2)public {... */\n    tag_7:\n      callvalue\n      dup1\n      iszero\n      tag_38\n      jumpi\n      0x00\n      dup1\n      revert\n    tag_38:\n      pop\n      tag_39\n      0x04\n      dup1\n      calldatasize\n      sub\n      dup2\n      add\n      swap1\n      tag_40\n      swap2\n      swap1\n      tag_41\n      jump\t// in\n    tag_40:\n      tag_42\n      jump\t// in\n    tag_39:\n      stop\n        /* \"Assignment 4 Tokens/final.sol\":1247:2062  function placeBid(address _address,uint256 id)public payable  {... */\n    tag_8:\n      tag_43\n      0x04\n      dup1\n      calldatasize\n      sub\n      dup2\n      add\n      swap1\n      tag_44\n      swap2\n      swap1\n      tag_13\n      jump\t// in\n    tag_44:\n      tag_45\n      jump\t// in\n    tag_43:\n      stop\n        /* \"Assignment 4 Tokens/final.sol\":429:492  mapping(address => mapping(uint256 =>itemD)) public itemDetails */\n    tag_14:\n      mstore(0x20, 0x00)\n      dup2\n      0x00\n      mstore\n      mstore(0x20, keccak256(0x00, 0x40))\n      dup1\n      0x00\n      mstore\n      keccak256(0x00, 0x40)\n      0x00\n      swap2\n      pop\n      swap2\n      pop\n      pop\n      dup1\n      0x00\n      add\n      dup1\n      sload\n      tag_46\n      swap1\n      tag_47\n      jump\t// in\n    tag_46:\n      dup1\n      0x1f\n      add\n      0x20\n      dup1\n      swap2\n      div\n      mul\n      0x20\n      add\n      mload(0x40)\n      swap1\n      dup2\n      add\n      0x40\n      mstore\n      dup1\n      swap3\n      swap2\n      swap1\n      dup2\n      dup2\n      mstore\n      0x20\n      add\n      dup3\n      dup1\n      sload\n      tag_48\n      swap1\n      tag_47\n      jump\t// in\n    tag_48:\n      dup1\n      iszero\n      tag_49\n      jumpi\n      dup1\n      0x1f\n      lt\n      tag_50\n      jumpi\n      0x0100\n      dup1\n      dup4\n      sload\n      div\n      mul\n      dup4\n      mstore\n      swap2\n      0x20\n      add\n      swap2\n      jump(tag_49)\n    tag_50:\n      dup3\n      add\n      swap2\n      swap1\n      0x00\n      mstore\n      keccak256(0x00, 0x20)\n      swap1\n    tag_51:\n      dup2\n      sload\n      dup2\n      mstore\n      swap1\n      0x01\n      add\n      swap1\n      0x20\n      add\n      dup1\n      dup4\n      gt\n      tag_51\n      jumpi\n      dup3\n      swap1\n      sub\n      0x1f\n      and\n      dup3\n      add\n      swap2\n    tag_49:\n      pop\n      pop\n      pop\n      pop\n      pop\n      swap1\n      dup1\n      0x01\n      add\n      sload\n      swap1\n      dup1\n      0x02\n      add\n      sload\n      swap1\n      dup1\n      0x03\n      add\n      0x00\n      swap1\n      sload\n      swap1\n      0x0100\n      exp\n      swap1\n      div\n      0xffffffffffffffffffffffffffffffffffffffff\n      and\n      swap1\n      dup1\n      0x04\n      add\n      sload\n      swap1\n      dup1\n      0x05\n      add\n      0x00\n      swap1\n      sload\n      swap1\n      0x0100\n      exp\n      swap1\n      div\n      0xffffffffffffffffffffffffffffffffffffffff\n      and\n      swap1\n      pop\n      dup7\n      jump\t// out\n        /* \"Assignment 4 Tokens/final.sol\":713:1239  function CreateItem(uint256 id, string memory _name) public {... */\n    tag_21:\n        /* \"Assignment 4 Tokens/final.sol\":814:815  0 */\n      0x00\n        /* \"Assignment 4 Tokens/final.sol\":792:816  msg.sender != address(0) */\n      0xffffffffffffffffffffffffffffffffffffffff\n      and\n        /* \"Assignment 4 Tokens/final.sol\":792:802  msg.sender */\n      caller\n        /* \"Assignment 4 Tokens/final.sol\":792:816  msg.sender != address(0) */\n      0xffffffffffffffffffffffffffffffffffffffff\n      and\n      sub\n        /* \"Assignment 4 Tokens/final.sol\":784:830  require(msg.sender != address(0) ,\"Not Valid\") */\n      tag_53\n      jumpi\n      mload(0x40)\n      0x08c379a000000000000000000000000000000000000000000000000000000000\n      dup2\n      mstore\n      0x04\n      add\n      tag_54\n      swap1\n      tag_55\n      jump\t// in\n    tag_54:\n      mload(0x40)\n      dup1\n      swap2\n      sub\n      swap1\n      revert\n    tag_53:\n        /* \"Assignment 4 Tokens/final.sol\":874:879  _name */\n      dup1\n        /* \"Assignment 4 Tokens/final.sol\":841:852  itemDetails */\n      0x00\n        /* \"Assignment 4 Tokens/final.sol\":841:864  itemDetails[msg.sender] */\n      dup1\n        /* \"Assignment 4 Tokens/final.sol\":853:863  msg.sender */\n      caller\n        /* \"Assignment 4 Tokens/final.sol\":841:864  itemDetails[msg.sender] */\n      0xffffffffffffffffffffffffffffffffffffffff\n      and\n      0xffffffffffffffffffffffffffffffffffffffff\n      and\n      dup2\n      mstore\n      0x20\n      add\n      swap1\n      dup2\n      mstore\n      0x20\n      add\n      0x00\n      keccak256\n        /* \"Assignment 4 Tokens/final.sol\":841:868  itemDetails[msg.sender][id] */\n      0x00\n        /* \"Assignment 4 Tokens/final.sol\":865:867  id */\n      dup5\n        /* \"Assignment 4 Tokens/final.sol\":841:868  itemDetails[msg.sender][id] */\n      dup2\n      mstore\n      0x20\n      add\n      swap1\n      dup2\n      mstore\n      0x20\n      add\n      0x00\n      keccak256\n        /* \"Assignment 4 Tokens/final.sol\":841:873  itemDetails[msg.sender][id].name */\n      0x00\n      add\n        /* \"Assignment 4 Tokens/final.sol\":841:879  itemDetails[msg.sender][id].name=_name */\n      swap1\n      dup2\n      tag_56\n      swap2\n      swap1\n      tag_57\n      jump\t// in\n    tag_56:\n      pop\n        /* \"Assignment 4 Tokens/final.sol\":926:927  0 */\n      0x00\n        /* \"Assignment 4 Tokens/final.sol\":890:901  itemDetails */\n      dup1\n        /* \"Assignment 4 Tokens/final.sol\":890:913  itemDetails[msg.sender] */\n      0x00\n        /* \"Assignment 4 Tokens/final.sol\":902:912  msg.sender */\n      caller\n        /* \"Assignment 4 Tokens/final.sol\":890:913  itemDetails[msg.sender] */\n      0xffffffffffffffffffffffffffffffffffffffff\n      and\n      0xffffffffffffffffffffffffffffffffffffffff\n      and\n      dup2\n      mstore\n      0x20\n      add\n      swap1\n      dup2\n      mstore\n      0x20\n      add\n      0x00\n      keccak256\n        /* \"Assignment 4 Tokens/final.sol\":890:917  itemDetails[msg.sender][id] */\n      0x00\n        /* \"Assignment 4 Tokens/final.sol\":914:916  id */\n      dup5\n        /* \"Assignment 4 Tokens/final.sol\":890:917  itemDetails[msg.sender][id] */\n      dup2\n      mstore\n      0x20\n      add\n      swap1\n      dup2\n      mstore\n      0x20\n      add\n      0x00\n      keccak256\n        /* \"Assignment 4 Tokens/final.sol\":890:925  itemDetails[msg.sender][id].lastBid */\n      0x01\n      add\n        /* \"Assignment 4 Tokens/final.sol\":890:927  itemDetails[msg.sender][id].lastBid=0 */\n      dup2\n      swap1\n      sstore\n      pop\n        /* \"Assignment 4 Tokens/final.sol\":977:978  0 */\n      0x00\n        /* \"Assignment 4 Tokens/final.sol\":938:949  itemDetails */\n      dup1\n        /* \"Assignment 4 Tokens/final.sol\":938:961  itemDetails[msg.sender] */\n      0x00\n        /* \"Assignment 4 Tokens/final.sol\":950:960  msg.sender */\n      caller\n        /* \"Assignment 4 Tokens/final.sol\":938:961  itemDetails[msg.sender] */\n      0xffffffffffffffffffffffffffffffffffffffff\n      and\n      0xffffffffffffffffffffffffffffffffffffffff\n      and\n      dup2\n      mstore\n      0x20\n      add\n      swap1\n      dup2\n      mstore\n      0x20\n      add\n      0x00\n      keccak256\n        /* \"Assignment 4 Tokens/final.sol\":938:965  itemDetails[msg.sender][id] */\n      0x00\n        /* \"Assignment 4 Tokens/final.sol\":962:964  id */\n      dup5\n        /* \"Assignment 4 Tokens/final.sol\":938:965  itemDetails[msg.sender][id] */\n      dup2\n      mstore\n      0x20\n      add\n      swap1\n      dup2\n      mstore\n      0x20\n      add\n      0x00\n      keccak256\n        /* \"Assignment 4 Tokens/final.sol\":938:976  itemDetails[msg.sender][id].highestBid */\n      0x02\n      add\n        /* \"Assignment 4 Tokens/final.sol\":938:978  itemDetails[msg.sender][id].highestBid=0 */\n      dup2\n      swap1\n      sstore\n      pop\n        /* \"Assignment 4 Tokens/final.sol\":1038:1039  0 */\n      0x00\n        /* \"Assignment 4 Tokens/final.sol\":989:1000  itemDetails */\n      dup1\n        /* \"Assignment 4 Tokens/final.sol\":989:1012  itemDetails[msg.sender] */\n      0x00\n        /* \"Assignment 4 Tokens/final.sol\":1001:1011  msg.sender */\n      caller\n        /* \"Assignment 4 Tokens/final.sol\":989:1012  itemDetails[msg.sender] */\n      0xffffffffffffffffffffffffffffffffffffffff\n      and\n      0xffffffffffffffffffffffffffffffffffffffff\n      and\n      dup2\n      mstore\n      0x20\n      add\n      swap1\n      dup2\n      mstore\n      0x20\n      add\n      0x00\n      keccak256\n        /* \"Assignment 4 Tokens/final.sol\":989:1016  itemDetails[msg.sender][id] */\n      0x00\n        /* \"Assignment 4 Tokens/final.sol\":1013:1015  id */\n      dup5\n        /* \"Assignment 4 Tokens/final.sol\":989:1016  itemDetails[msg.sender][id] */\n      dup2\n      mstore\n      0x20\n      add\n      swap1\n      dup2\n      mstore\n      0x20\n      add\n      0x00\n      keccak256\n        /* \"Assignment 4 Tokens/final.sol\":989:1029  itemDetails[msg.sender][id].highestBider */\n      0x03\n      add\n      0x00\n        /* \"Assignment 4 Tokens/final.sol\":989:1040  itemDetails[msg.sender][id].highestBider=address(0) */\n      0x0100\n      exp\n      dup2\n      sload\n      dup2\n      0xffffffffffffffffffffffffffffffffffffffff\n      mul\n      not\n      and\n      swap1\n      dup4\n      0xffffffffffffffffffffffffffffffffffffffff\n      and\n      mul\n      or\n      swap1\n      sstore\n      pop\n        /* \"Assignment 4 Tokens/final.sol\":1105:1106  0 */\n      0x00\n        /* \"Assignment 4 Tokens/final.sol\":1051:1062  itemDetails */\n      dup1\n        /* \"Assignment 4 Tokens/final.sol\":1051:1074  itemDetails[msg.sender] */\n      0x00\n        /* \"Assignment 4 Tokens/final.sol\":1063:1073  msg.sender */\n      caller\n        /* \"Assignment 4 Tokens/final.sol\":1051:1074  itemDetails[msg.sender] */\n      0xffffffffffffffffffffffffffffffffffffffff\n      and\n      0xffffffffffffffffffffffffffffffffffffffff\n      and\n      dup2\n      mstore\n      0x20\n      add\n      swap1\n      dup2\n      mstore\n      0x20\n      add\n      0x00\n      keccak256\n        /* \"Assignment 4 Tokens/final.sol\":1051:1078  itemDetails[msg.sender][id] */\n      0x00\n        /* \"Assignment 4 Tokens/final.sol\":1075:1077  id */\n      dup5\n        /* \"Assignment 4 Tokens/final.sol\":1051:1078  itemDetails[msg.sender][id] */\n      dup2\n      mstore\n      0x20\n      add\n      swap1\n      dup2\n      mstore\n      0x20\n      add\n      0x00\n      keccak256\n        /* \"Assignment 4 Tokens/final.sol\":1051:1095  itemDetails[msg.sender][id].lastHighestBider */\n      0x05\n      add\n      0x00\n        /* \"Assignment 4 Tokens/final.sol\":1051:1107  itemDetails[msg.sender][id].lastHighestBider=address (0) */\n      0x0100\n      exp\n      dup2\n      sload\n      dup2\n      0xffffffffffffffffffffffffffffffffffffffff\n      mul\n      not\n      and\n      swap1\n      dup4\n      0xffffffffffffffffffffffffffffffffffffffff\n      and\n      mul\n      or\n      swap1\n      sstore\n      pop\n        /* \"Assignment 4 Tokens/final.sol\":1177:1181  3600 */\n      0x0e10\n        /* \"Assignment 4 Tokens/final.sol\":1159:1174  block.timestamp */\n      timestamp\n        /* \"Assignment 4 Tokens/final.sol\":1159:1181  block.timestamp + 3600 */\n      tag_58\n      swap2\n      swap1\n      tag_59\n      jump\t// in\n    tag_58:\n        /* \"Assignment 4 Tokens/final.sol\":1118:1129  itemDetails */\n      0x00\n        /* \"Assignment 4 Tokens/final.sol\":1118:1141  itemDetails[msg.sender] */\n      dup1\n        /* \"Assignment 4 Tokens/final.sol\":1130:1140  msg.sender */\n      caller\n        /* \"Assignment 4 Tokens/final.sol\":1118:1141  itemDetails[msg.sender] */\n      0xffffffffffffffffffffffffffffffffffffffff\n      and\n      0xffffffffffffffffffffffffffffffffffffffff\n      and\n      dup2\n      mstore\n      0x20\n      add\n      swap1\n      dup2\n      mstore\n      0x20\n      add\n      0x00\n      keccak256\n        /* \"Assignment 4 Tokens/final.sol\":1118:1145  itemDetails[msg.sender][id] */\n      0x00\n        /* \"Assignment 4 Tokens/final.sol\":1142:1144  id */\n      dup5\n        /* \"Assignment 4 Tokens/final.sol\":1118:1145  itemDetails[msg.sender][id] */\n      dup2\n      mstore\n      0x20\n      add\n      swap1\n      dup2\n      mstore\n      0x20\n      add\n      0x00\n      keccak256\n        /* \"Assignment 4 Tokens/final.sol\":1118:1158  itemDetails[msg.sender][id].auction_time */\n      0x04\n      add\n        /* \"Assignment 4 Tokens/final.sol\":1118:1181  itemDetails[msg.sender][id].auction_time=block.timestamp + 3600 */\n      dup2\n      swap1\n      sstore\n      pop\n        /* \"Assignment 4 Tokens/final.sol\":1197:1231  createItem(msg.sender, id , _name) */\n      0xa7806320b37116843ec008da1594a383d57d02cf004956b72c34754bf6395070\n        /* \"Assignment 4 Tokens/final.sol\":1208:1218  msg.sender */\n      caller\n        /* \"Assignment 4 Tokens/final.sol\":1220:1222  id */\n      dup4\n        /* \"Assignment 4 Tokens/final.sol\":1225:1230  _name */\n      dup4\n        /* \"Assignment 4 Tokens/final.sol\":1197:1231  createItem(msg.sender, id , _name) */\n      mload(0x40)\n      tag_60\n      swap4\n      swap3\n      swap2\n      swap1\n      tag_61\n      jump\t// in\n    tag_60:\n      mload(0x40)\n      dup1\n      swap2\n      sub\n      swap1\n      log1\n        /* \"Assignment 4 Tokens/final.sol\":713:1239  function CreateItem(uint256 id, string memory _name) public {... */\n      pop\n      pop\n      jump\t// out\n        /* \"Assignment 4 Tokens/final.sol\":2221:2367  function getWinningBidder(address _address,uint256 id)public view returns(address){... */\n    tag_25:\n        /* \"Assignment 4 Tokens/final.sol\":2295:2302  address */\n      0x00\n        /* \"Assignment 4 Tokens/final.sol\":2321:2332  itemDetails */\n      dup1\n        /* \"Assignment 4 Tokens/final.sol\":2321:2342  itemDetails[_address] */\n      0x00\n        /* \"Assignment 4 Tokens/final.sol\":2333:2341  _address */\n      dup5\n        /* \"Assignment 4 Tokens/final.sol\":2321:2342  itemDetails[_address] */\n      0xffffffffffffffffffffffffffffffffffffffff\n      and\n      0xffffffffffffffffffffffffffffffffffffffff\n      and\n      dup2\n      mstore\n      0x20\n      add\n      swap1\n      dup2\n      mstore\n      0x20\n      add\n      0x00\n      keccak256\n        /* \"Assignment 4 Tokens/final.sol\":2321:2346  itemDetails[_address][id] */\n      0x00\n        /* \"Assignment 4 Tokens/final.sol\":2343:2345  id */\n      dup4\n        /* \"Assignment 4 Tokens/final.sol\":2321:2346  itemDetails[_address][id] */\n      dup2\n      mstore\n      0x20\n      add\n      swap1\n      dup2\n      mstore\n      0x20\n      add\n      0x00\n      keccak256\n        /* \"Assignment 4 Tokens/final.sol\":2321:2359  itemDetails[_address][id].highestBider */\n      0x03\n      add\n      0x00\n      swap1\n      sload\n      swap1\n      0x0100\n      exp\n      swap1\n      div\n      0xffffffffffffffffffffffffffffffffffffffff\n      and\n        /* \"Assignment 4 Tokens/final.sol\":2314:2359  return itemDetails[_address][id].highestBider */\n      swap1\n      pop\n        /* \"Assignment 4 Tokens/final.sol\":2221:2367  function getWinningBidder(address _address,uint256 id)public view returns(address){... */\n      swap3\n      swap2\n      pop\n      pop\n      jump\t// out\n        /* \"Assignment 4 Tokens/final.sol\":2070:2213  function getHighestBid(address _address, uint256 id)public view returns(uint256) {... */\n    tag_31:\n        /* \"Assignment 4 Tokens/final.sol\":2142:2149  uint256 */\n      0x00\n        /* \"Assignment 4 Tokens/final.sol\":2169:2180  itemDetails */\n      dup1\n        /* \"Assignment 4 Tokens/final.sol\":2169:2190  itemDetails[_address] */\n      0x00\n        /* \"Assignment 4 Tokens/final.sol\":2181:2189  _address */\n      dup5\n        /* \"Assignment 4 Tokens/final.sol\":2169:2190  itemDetails[_address] */\n      0xffffffffffffffffffffffffffffffffffffffff\n      and\n      0xffffffffffffffffffffffffffffffffffffffff\n      and\n      dup2\n      mstore\n      0x20\n      add\n      swap1\n      dup2\n      mstore\n      0x20\n      add\n      0x00\n      keccak256\n        /* \"Assignment 4 Tokens/final.sol\":2169:2194  itemDetails[_address][id] */\n      0x00\n        /* \"Assignment 4 Tokens/final.sol\":2191:2193  id */\n      dup4\n        /* \"Assignment 4 Tokens/final.sol\":2169:2194  itemDetails[_address][id] */\n      dup2\n      mstore\n      0x20\n      add\n      swap1\n      dup2\n      mstore\n      0x20\n      add\n      0x00\n      keccak256\n        /* \"Assignment 4 Tokens/final.sol\":2169:2205  itemDetails[_address][id].highestBid */\n      0x02\n      add\n      sload\n        /* \"Assignment 4 Tokens/final.sol\":2162:2205  return itemDetails[_address][id].highestBid */\n      swap1\n      pop\n        /* \"Assignment 4 Tokens/final.sol\":2070:2213  function getHighestBid(address _address, uint256 id)public view returns(uint256) {... */\n      swap3\n      swap2\n      pop\n      pop\n      jump\t// out\n        /* \"Assignment 4 Tokens/final.sol\":2375:2630  function cancelAuction(address _address,uint256 id) public  {... */\n    tag_37:\n        /* \"Assignment 4 Tokens/final.sol\":2468:2476  _address */\n      dup2\n        /* \"Assignment 4 Tokens/final.sol\":2454:2476  msg.sender == _address */\n      0xffffffffffffffffffffffffffffffffffffffff\n      and\n        /* \"Assignment 4 Tokens/final.sol\":2454:2464  msg.sender */\n      caller\n        /* \"Assignment 4 Tokens/final.sol\":2454:2476  msg.sender == _address */\n      0xffffffffffffffffffffffffffffffffffffffff\n      and\n      eq\n        /* \"Assignment 4 Tokens/final.sol\":2446:2514  require(msg.sender == _address,\" Only Owner can cancel the Auction\") */\n      tag_65\n      jumpi\n      mload(0x40)\n      0x08c379a000000000000000000000000000000000000000000000000000000000\n      dup2\n      mstore\n      0x04\n      add\n      tag_66\n      swap1\n      tag_67\n      jump\t// in\n    tag_66:\n      mload(0x40)\n      dup1\n      swap2\n      sub\n      swap1\n      revert\n    tag_65:\n        /* \"Assignment 4 Tokens/final.sol\":2534:2545  itemDetails */\n      0x00\n        /* \"Assignment 4 Tokens/final.sol\":2534:2555  itemDetails[_address] */\n      dup1\n        /* \"Assignment 4 Tokens/final.sol\":2546:2554  _address */\n      dup4\n        /* \"Assignment 4 Tokens/final.sol\":2534:2555  itemDetails[_address] */\n      0xffffffffffffffffffffffffffffffffffffffff\n      and\n      0xffffffffffffffffffffffffffffffffffffffff\n      and\n      dup2\n      mstore\n      0x20\n      add\n      swap1\n      dup2\n      mstore\n      0x20\n      add\n      0x00\n      keccak256\n        /* \"Assignment 4 Tokens/final.sol\":2534:2559  itemDetails[_address][id] */\n      0x00\n        /* \"Assignment 4 Tokens/final.sol\":2556:2558  id */\n      dup3\n        /* \"Assignment 4 Tokens/final.sol\":2534:2559  itemDetails[_address][id] */\n      dup2\n      mstore\n      0x20\n      add\n      swap1\n      dup2\n      mstore\n      0x20\n      add\n      0x00\n      keccak256\n        /* \"Assignment 4 Tokens/final.sol\":2534:2572  itemDetails[_address][id].highestBider */\n      0x03\n      add\n      0x00\n      swap1\n      sload\n      swap1\n      0x0100\n      exp\n      swap1\n      div\n      0xffffffffffffffffffffffffffffffffffffffff\n      and\n        /* \"Assignment 4 Tokens/final.sol\":2525:2582  payable (itemDetails[_address][id].highestBider).transfer */\n      0xffffffffffffffffffffffffffffffffffffffff\n      and\n        /* \"Assignment 4 Tokens/final.sol\":2525:2620  payable (itemDetails[_address][id].highestBider).transfer(itemDetails[_address][id].highestBid) */\n      0x08fc\n        /* \"Assignment 4 Tokens/final.sol\":2583:2594  itemDetails */\n      0x00\n        /* \"Assignment 4 Tokens/final.sol\":2583:2604  itemDetails[_address] */\n      dup1\n        /* \"Assignment 4 Tokens/final.sol\":2595:2603  _address */\n      dup6\n        /* \"Assignment 4 Tokens/final.sol\":2583:2604  itemDetails[_address] */\n      0xffffffffffffffffffffffffffffffffffffffff\n      and\n      0xffffffffffffffffffffffffffffffffffffffff\n      and\n      dup2\n      mstore\n      0x20\n      add\n      swap1\n      dup2\n      mstore\n      0x20\n      add\n      0x00\n      keccak256\n        /* \"Assignment 4 Tokens/final.sol\":2583:2608  itemDetails[_address][id] */\n      0x00\n        /* \"Assignment 4 Tokens/final.sol\":2605:2607  id */\n      dup5\n        /* \"Assignment 4 Tokens/final.sol\":2583:2608  itemDetails[_address][id] */\n      dup2\n      mstore\n      0x20\n      add\n      swap1\n      dup2\n      mstore\n      0x20\n      add\n      0x00\n      keccak256\n        /* \"Assignment 4 Tokens/final.sol\":2583:2619  itemDetails[_address][id].highestBid */\n      0x02\n      add\n      sload\n        /* \"Assignment 4 Tokens/final.sol\":2525:2620  payable (itemDetails[_address][id].highestBider).transfer(itemDetails[_address][id].highestBid) */\n      swap1\n      dup2\n      iszero\n      mul\n      swap1\n      mload(0x40)\n      0x00\n      mload(0x40)\n      dup1\n      dup4\n      sub\n      dup2\n      dup6\n      dup9\n      dup9\n      call\n      swap4\n      pop\n      pop\n      pop\n      pop\n      iszero\n      dup1\n      iszero\n      tag_69\n      jumpi\n      returndatasize\n      0x00\n      dup1\n      returndatacopy\n      revert(0x00, returndatasize)\n    tag_69:\n      pop\n        /* \"Assignment 4 Tokens/final.sol\":2375:2630  function cancelAuction(address _address,uint256 id) public  {... */\n      pop\n      pop\n      jump\t// out\n        /* \"Assignment 4 Tokens/final.sol\":2638:2933  function ownershipTransfer(address payable  _address,uint256 id, uint256 id2)public {... */\n    tag_42:\n        /* \"Assignment 4 Tokens/final.sol\":2733:2741  _address */\n      dup3\n        /* \"Assignment 4 Tokens/final.sol\":2733:2750  _address.transfer */\n      0xffffffffffffffffffffffffffffffffffffffff\n      and\n        /* \"Assignment 4 Tokens/final.sol\":2733:2788  _address.transfer(itemDetails[_address][id].highestBid) */\n      0x08fc\n        /* \"Assignment 4 Tokens/final.sol\":2751:2762  itemDetails */\n      0x00\n        /* \"Assignment 4 Tokens/final.sol\":2751:2772  itemDetails[_address] */\n      dup1\n        /* \"Assignment 4 Tokens/final.sol\":2763:2771  _address */\n      dup7\n        /* \"Assignment 4 Tokens/final.sol\":2751:2772  itemDetails[_address] */\n      0xffffffffffffffffffffffffffffffffffffffff\n      and\n      0xffffffffffffffffffffffffffffffffffffffff\n      and\n      dup2\n      mstore\n      0x20\n      add\n      swap1\n      dup2\n      mstore\n      0x20\n      add\n      0x00\n      keccak256\n        /* \"Assignment 4 Tokens/final.sol\":2751:2776  itemDetails[_address][id] */\n      0x00\n        /* \"Assignment 4 Tokens/final.sol\":2773:2775  id */\n      dup6\n        /* \"Assignment 4 Tokens/final.sol\":2751:2776  itemDetails[_address][id] */\n      dup2\n      mstore\n      0x20\n      add\n      swap1\n      dup2\n      mstore\n      0x20\n      add\n      0x00\n      keccak256\n        /* \"Assignment 4 Tokens/final.sol\":2751:2787  itemDetails[_address][id].highestBid */\n      0x02\n      add\n      sload\n        /* \"Assignment 4 Tokens/final.sol\":2733:2788  _address.transfer(itemDetails[_address][id].highestBid) */\n      swap1\n      dup2\n      iszero\n      mul\n      swap1\n      mload(0x40)\n      0x00\n      mload(0x40)\n      dup1\n      dup4\n      sub\n      dup2\n      dup6\n      dup9\n      dup9\n      call\n      swap4\n      pop\n      pop\n      pop\n      pop\n      iszero\n      dup1\n      iszero\n      tag_72\n      jumpi\n      returndatasize\n      0x00\n      dup1\n      returndatacopy\n      revert(0x00, returndatasize)\n    tag_72:\n      pop\n        /* \"Assignment 4 Tokens/final.sol\":2857:2868  itemDetails */\n      0x00\n        /* \"Assignment 4 Tokens/final.sol\":2857:2878  itemDetails[_address] */\n      dup1\n        /* \"Assignment 4 Tokens/final.sol\":2869:2877  _address */\n      dup5\n        /* \"Assignment 4 Tokens/final.sol\":2857:2878  itemDetails[_address] */\n      0xffffffffffffffffffffffffffffffffffffffff\n      and\n      0xffffffffffffffffffffffffffffffffffffffff\n      and\n      dup2\n      mstore\n      0x20\n      add\n      swap1\n      dup2\n      mstore\n      0x20\n      add\n      0x00\n      keccak256\n        /* \"Assignment 4 Tokens/final.sol\":2857:2882  itemDetails[_address][id] */\n      0x00\n        /* \"Assignment 4 Tokens/final.sol\":2879:2881  id */\n      dup4\n        /* \"Assignment 4 Tokens/final.sol\":2857:2882  itemDetails[_address][id] */\n      dup2\n      mstore\n      0x20\n      add\n      swap1\n      dup2\n      mstore\n      0x20\n      add\n      0x00\n      keccak256\n        /* \"Assignment 4 Tokens/final.sol\":2799:2810  itemDetails */\n      0x00\n        /* \"Assignment 4 Tokens/final.sol\":2799:2850  itemDetails[itemDetails[_address][id].highestBider] */\n      dup1\n        /* \"Assignment 4 Tokens/final.sol\":2811:2822  itemDetails */\n      dup1\n        /* \"Assignment 4 Tokens/final.sol\":2811:2832  itemDetails[_address] */\n      0x00\n        /* \"Assignment 4 Tokens/final.sol\":2823:2831  _address */\n      dup8\n        /* \"Assignment 4 Tokens/final.sol\":2811:2832  itemDetails[_address] */\n      0xffffffffffffffffffffffffffffffffffffffff\n      and\n      0xffffffffffffffffffffffffffffffffffffffff\n      and\n      dup2\n      mstore\n      0x20\n      add\n      swap1\n      dup2\n      mstore\n      0x20\n      add\n      0x00\n      keccak256\n        /* \"Assignment 4 Tokens/final.sol\":2811:2836  itemDetails[_address][id] */\n      0x00\n        /* \"Assignment 4 Tokens/final.sol\":2833:2835  id */\n      dup7\n        /* \"Assignment 4 Tokens/final.sol\":2811:2836  itemDetails[_address][id] */\n      dup2\n      mstore\n      0x20\n      add\n      swap1\n      dup2\n      mstore\n      0x20\n      add\n      0x00\n      keccak256\n        /* \"Assignment 4 Tokens/final.sol\":2811:2849  itemDetails[_address][id].highestBider */\n      0x03\n      add\n      0x00\n      swap1\n      sload\n      swap1\n      0x0100\n      exp\n      swap1\n      div\n      0xffffffffffffffffffffffffffffffffffffffff\n      and\n        /* \"Assignment 4 Tokens/final.sol\":2799:2850  itemDetails[itemDetails[_address][id].highestBider] */\n      0xffffffffffffffffffffffffffffffffffffffff\n      and\n      0xffffffffffffffffffffffffffffffffffffffff\n      and\n      dup2\n      mstore\n      0x20\n      add\n      swap1\n      dup2\n      mstore\n      0x20\n      add\n      0x00\n      keccak256\n        /* \"Assignment 4 Tokens/final.sol\":2799:2855  itemDetails[itemDetails[_address][id].highestBider][id2] */\n      0x00\n        /* \"Assignment 4 Tokens/final.sol\":2851:2854  id2 */\n      dup4\n        /* \"Assignment 4 Tokens/final.sol\":2799:2855  itemDetails[itemDetails[_address][id].highestBider][id2] */\n      dup2\n      mstore\n      0x20\n      add\n      swap1\n      dup2\n      mstore\n      0x20\n      add\n      0x00\n      keccak256\n        /* \"Assignment 4 Tokens/final.sol\":2799:2882  itemDetails[itemDetails[_address][id].highestBider][id2]= itemDetails[_address][id] */\n      0x00\n      dup3\n      add\n      dup2\n      0x00\n      add\n      swap1\n      dup2\n      tag_73\n      swap2\n      swap1\n      tag_74\n      jump\t// in\n    tag_73:\n      pop\n      0x01\n      dup3\n      add\n      sload\n      dup2\n      0x01\n      add\n      sstore\n      0x02\n      dup3\n      add\n      sload\n      dup2\n      0x02\n      add\n      sstore\n      0x03\n      dup3\n      add\n      0x00\n      swap1\n      sload\n      swap1\n      0x0100\n      exp\n      swap1\n      div\n      0xffffffffffffffffffffffffffffffffffffffff\n      and\n      dup2\n      0x03\n      add\n      exp(0x0100, 0x00)\n      dup2\n      sload\n      dup2\n      0xffffffffffffffffffffffffffffffffffffffff\n      mul\n      not\n      and\n      swap1\n      dup4\n      0xffffffffffffffffffffffffffffffffffffffff\n      and\n      mul\n      or\n      swap1\n      sstore\n      pop\n      0x04\n      dup3\n      add\n      sload\n      dup2\n      0x04\n      add\n      sstore\n      0x05\n      dup3\n      add\n      0x00\n      swap1\n      sload\n      swap1\n      0x0100\n      exp\n      swap1\n      div\n      0xffffffffffffffffffffffffffffffffffffffff\n      and\n      dup2\n      0x05\n      add\n      exp(0x0100, 0x00)\n      dup2\n      sload\n      dup2\n      0xffffffffffffffffffffffffffffffffffffffff\n      mul\n      not\n      and\n      swap1\n      dup4\n      0xffffffffffffffffffffffffffffffffffffffff\n      and\n      mul\n      or\n      swap1\n      sstore\n      pop\n      swap1\n      pop\n      pop\n        /* \"Assignment 4 Tokens/final.sol\":2900:2911  itemDetails */\n      0x00\n        /* \"Assignment 4 Tokens/final.sol\":2900:2921  itemDetails[_address] */\n      dup1\n        /* \"Assignment 4 Tokens/final.sol\":2912:2920  _address */\n      dup5\n        /* \"Assignment 4 Tokens/final.sol\":2900:2921  itemDetails[_address] */\n      0xffffffffffffffffffffffffffffffffffffffff\n      and\n      0xffffffffffffffffffffffffffffffffffffffff\n      and\n      dup2\n      mstore\n      0x20\n      add\n      swap1\n      dup2\n      mstore\n      0x20\n      add\n      0x00\n      keccak256\n        /* \"Assignment 4 Tokens/final.sol\":2900:2925  itemDetails[_address][id] */\n      0x00\n        /* \"Assignment 4 Tokens/final.sol\":2922:2924  id */\n      dup4\n        /* \"Assignment 4 Tokens/final.sol\":2900:2925  itemDetails[_address][id] */\n      dup2\n      mstore\n      0x20\n      add\n      swap1\n      dup2\n      mstore\n      0x20\n      add\n      0x00\n      keccak256\n      0x00\n        /* \"Assignment 4 Tokens/final.sol\":2893:2925  delete itemDetails[_address][id] */\n      dup1\n      dup3\n      add\n      0x00\n      tag_75\n      swap2\n      swap1\n      tag_76\n      jump\t// in\n    tag_75:\n      0x01\n      dup3\n      add\n      0x00\n      swap1\n      sstore\n      0x02\n      dup3\n      add\n      0x00\n      swap1\n      sstore\n      0x03\n      dup3\n      add\n      exp(0x0100, 0x00)\n      dup2\n      sload\n      swap1\n      0xffffffffffffffffffffffffffffffffffffffff\n      mul\n      not\n      and\n      swap1\n      sstore\n      0x04\n      dup3\n      add\n      0x00\n      swap1\n      sstore\n      0x05\n      dup3\n      add\n      exp(0x0100, 0x00)\n      dup2\n      sload\n      swap1\n      0xffffffffffffffffffffffffffffffffffffffff\n      mul\n      not\n      and\n      swap1\n      sstore\n      pop\n      pop\n        /* \"Assignment 4 Tokens/final.sol\":2638:2933  function ownershipTransfer(address payable  _address,uint256 id, uint256 id2)public {... */\n      pop\n      pop\n      pop\n      jump\t// out\n        /* \"Assignment 4 Tokens/final.sol\":1247:2062  function placeBid(address _address,uint256 id)public payable  {... */\n    tag_45:\n        /* \"Assignment 4 Tokens/final.sol\":1433:1448  block.timestamp */\n      timestamp\n        /* \"Assignment 4 Tokens/final.sol\":1392:1403  itemDetails */\n      0x00\n        /* \"Assignment 4 Tokens/final.sol\":1392:1413  itemDetails[_address] */\n      dup1\n        /* \"Assignment 4 Tokens/final.sol\":1404:1412  _address */\n      dup5\n        /* \"Assignment 4 Tokens/final.sol\":1392:1413  itemDetails[_address] */\n      0xffffffffffffffffffffffffffffffffffffffff\n      and\n      0xffffffffffffffffffffffffffffffffffffffff\n      and\n      dup2\n      mstore\n      0x20\n      add\n      swap1\n      dup2\n      mstore\n      0x20\n      add\n      0x00\n      keccak256\n        /* \"Assignment 4 Tokens/final.sol\":1392:1417  itemDetails[_address][id] */\n      0x00\n        /* \"Assignment 4 Tokens/final.sol\":1414:1416  id */\n      dup4\n        /* \"Assignment 4 Tokens/final.sol\":1392:1417  itemDetails[_address][id] */\n      dup2\n      mstore\n      0x20\n      add\n      swap1\n      dup2\n      mstore\n      0x20\n      add\n      0x00\n      keccak256\n        /* \"Assignment 4 Tokens/final.sol\":1392:1430  itemDetails[_address][id].auction_time */\n      0x04\n      add\n      sload\n        /* \"Assignment 4 Tokens/final.sol\":1392:1448  itemDetails[_address][id].auction_time > block.timestamp */\n      gt\n        /* \"Assignment 4 Tokens/final.sol\":1384:1478  require(itemDetails[_address][id].auction_time > block.timestamp,\" Nothing to Place the Bid \") */\n      tag_78\n      jumpi\n      mload(0x40)\n      0x08c379a000000000000000000000000000000000000000000000000000000000\n      dup2\n      mstore\n      0x04\n      add\n      tag_79\n      swap1\n      tag_80\n      jump\t// in\n    tag_79:\n      mload(0x40)\n      dup1\n      swap2\n      sub\n      swap1\n      revert\n    tag_78:\n        /* \"Assignment 4 Tokens/final.sol\":1509:1520  itemDetails */\n      0x00\n        /* \"Assignment 4 Tokens/final.sol\":1509:1530  itemDetails[_address] */\n      dup1\n        /* \"Assignment 4 Tokens/final.sol\":1521:1529  _address */\n      dup4\n        /* \"Assignment 4 Tokens/final.sol\":1509:1530  itemDetails[_address] */\n      0xffffffffffffffffffffffffffffffffffffffff\n      and\n      0xffffffffffffffffffffffffffffffffffffffff\n      and\n      dup2\n      mstore\n      0x20\n      add\n      swap1\n      dup2\n      mstore\n      0x20\n      add\n      0x00\n      keccak256\n        /* \"Assignment 4 Tokens/final.sol\":1509:1534  itemDetails[_address][id] */\n      0x00\n        /* \"Assignment 4 Tokens/final.sol\":1531:1533  id */\n      dup3\n        /* \"Assignment 4 Tokens/final.sol\":1509:1534  itemDetails[_address][id] */\n      dup2\n      mstore\n      0x20\n      add\n      swap1\n      dup2\n      mstore\n      0x20\n      add\n      0x00\n      keccak256\n        /* \"Assignment 4 Tokens/final.sol\":1509:1545  itemDetails[_address][id].highestBid */\n      0x02\n      add\n      sload\n        /* \"Assignment 4 Tokens/final.sol\":1497:1506  msg.value */\n      callvalue\n        /* \"Assignment 4 Tokens/final.sol\":1497:1545  msg.value > itemDetails[_address][id].highestBid */\n      gt\n        /* \"Assignment 4 Tokens/final.sol\":1489:1580  require(msg.value > itemDetails[_address][id].highestBid,\" Increase the amount by 1 ether\") */\n      tag_81\n      jumpi\n      mload(0x40)\n      0x08c379a000000000000000000000000000000000000000000000000000000000\n      dup2\n      mstore\n      0x04\n      add\n      tag_82\n      swap1\n      tag_83\n      jump\t// in\n    tag_82:\n      mload(0x40)\n      dup1\n      swap2\n      sub\n      swap1\n      revert\n    tag_81:\n        /* \"Assignment 4 Tokens/final.sol\":1612:1619  1 ether */\n      0x0de0b6b3a7640000\n        /* \"Assignment 4 Tokens/final.sol\":1599:1608  msg.value */\n      callvalue\n        /* \"Assignment 4 Tokens/final.sol\":1599:1619  msg.value >= 1 ether */\n      lt\n      iszero\n        /* \"Assignment 4 Tokens/final.sol\":1591:1642  require(msg.value >= 1 ether, \"Not a Valid Amount\") */\n      tag_84\n      jumpi\n      mload(0x40)\n      0x08c379a000000000000000000000000000000000000000000000000000000000\n      dup2\n      mstore\n      0x04\n      add\n      tag_85\n      swap1\n      tag_86\n      jump\t// in\n    tag_85:\n      mload(0x40)\n      dup1\n      swap2\n      sub\n      swap1\n      revert\n    tag_84:\n        /* \"Assignment 4 Tokens/final.sol\":1687:1696  msg.value */\n      callvalue\n        /* \"Assignment 4 Tokens/final.sol\":1653:1664  itemDetails */\n      0x00\n        /* \"Assignment 4 Tokens/final.sol\":1653:1674  itemDetails[_address] */\n      dup1\n        /* \"Assignment 4 Tokens/final.sol\":1665:1673  _address */\n      dup5\n        /* \"Assignment 4 Tokens/final.sol\":1653:1674  itemDetails[_address] */\n      0xffffffffffffffffffffffffffffffffffffffff\n      and\n      0xffffffffffffffffffffffffffffffffffffffff\n      and\n      dup2\n      mstore\n      0x20\n      add\n      swap1\n      dup2\n      mstore\n      0x20\n      add\n      0x00\n      keccak256\n        /* \"Assignment 4 Tokens/final.sol\":1653:1678  itemDetails[_address][id] */\n      0x00\n        /* \"Assignment 4 Tokens/final.sol\":1675:1677  id */\n      dup4\n        /* \"Assignment 4 Tokens/final.sol\":1653:1678  itemDetails[_address][id] */\n      dup2\n      mstore\n      0x20\n      add\n      swap1\n      dup2\n      mstore\n      0x20\n      add\n      0x00\n      keccak256\n        /* \"Assignment 4 Tokens/final.sol\":1653:1686  itemDetails[_address][id].lastBid */\n      0x01\n      add\n        /* \"Assignment 4 Tokens/final.sol\":1653:1696  itemDetails[_address][id].lastBid=msg.value */\n      dup2\n      swap1\n      sstore\n      pop\n        /* \"Assignment 4 Tokens/final.sol\":1744:1755  itemDetails */\n      0x00\n        /* \"Assignment 4 Tokens/final.sol\":1744:1765  itemDetails[_address] */\n      dup1\n        /* \"Assignment 4 Tokens/final.sol\":1756:1764  _address */\n      dup4\n        /* \"Assignment 4 Tokens/final.sol\":1744:1765  itemDetails[_address] */\n      0xffffffffffffffffffffffffffffffffffffffff\n      and\n      0xffffffffffffffffffffffffffffffffffffffff\n      and\n      dup2\n      mstore\n      0x20\n      add\n      swap1\n      dup2\n      mstore\n      0x20\n      add\n      0x00\n      keccak256\n        /* \"Assignment 4 Tokens/final.sol\":1744:1769  itemDetails[_address][id] */\n      0x00\n        /* \"Assignment 4 Tokens/final.sol\":1766:1768  id */\n      dup3\n        /* \"Assignment 4 Tokens/final.sol\":1744:1769  itemDetails[_address][id] */\n      dup2\n      mstore\n      0x20\n      add\n      swap1\n      dup2\n      mstore\n      0x20\n      add\n      0x00\n      keccak256\n        /* \"Assignment 4 Tokens/final.sol\":1744:1777  itemDetails[_address][id].lastBid */\n      0x01\n      add\n      sload\n        /* \"Assignment 4 Tokens/final.sol\":1707:1718  itemDetails */\n      0x00\n        /* \"Assignment 4 Tokens/final.sol\":1707:1728  itemDetails[_address] */\n      dup1\n        /* \"Assignment 4 Tokens/final.sol\":1719:1727  _address */\n      dup5\n        /* \"Assignment 4 Tokens/final.sol\":1707:1728  itemDetails[_address] */\n      0xffffffffffffffffffffffffffffffffffffffff\n      and\n      0xffffffffffffffffffffffffffffffffffffffff\n      and\n      dup2\n      mstore\n      0x20\n      add\n      swap1\n      dup2\n      mstore\n      0x20\n      add\n      0x00\n      keccak256\n        /* \"Assignment 4 Tokens/final.sol\":1707:1732  itemDetails[_address][id] */\n      0x00\n        /* \"Assignment 4 Tokens/final.sol\":1729:1731  id */\n      dup4\n        /* \"Assignment 4 Tokens/final.sol\":1707:1732  itemDetails[_address][id] */\n      dup2\n      mstore\n      0x20\n      add\n      swap1\n      dup2\n      mstore\n      0x20\n      add\n      0x00\n      keccak256\n        /* \"Assignment 4 Tokens/final.sol\":1707:1743  itemDetails[_address][id].highestBid */\n      0x02\n      add\n        /* \"Assignment 4 Tokens/final.sol\":1707:1777  itemDetails[_address][id].highestBid=itemDetails[_address][id].lastBid */\n      dup2\n      swap1\n      sstore\n      pop\n        /* \"Assignment 4 Tokens/final.sol\":1831:1841  msg.sender */\n      caller\n        /* \"Assignment 4 Tokens/final.sol\":1788:1799  itemDetails */\n      0x00\n        /* \"Assignment 4 Tokens/final.sol\":1788:1809  itemDetails[_address] */\n      dup1\n        /* \"Assignment 4 Tokens/final.sol\":1800:1808  _address */\n      dup5\n        /* \"Assignment 4 Tokens/final.sol\":1788:1809  itemDetails[_address] */\n      0xffffffffffffffffffffffffffffffffffffffff\n      and\n      0xffffffffffffffffffffffffffffffffffffffff\n      and\n      dup2\n      mstore\n      0x20\n      add\n      swap1\n      dup2\n      mstore\n      0x20\n      add\n      0x00\n      keccak256\n        /* \"Assignment 4 Tokens/final.sol\":1788:1813  itemDetails[_address][id] */\n      0x00\n        /* \"Assignment 4 Tokens/final.sol\":1810:1812  id */\n      dup4\n        /* \"Assignment 4 Tokens/final.sol\":1788:1813  itemDetails[_address][id] */\n      dup2\n      mstore\n      0x20\n      add\n      swap1\n      dup2\n      mstore\n      0x20\n      add\n      0x00\n      keccak256\n        /* \"Assignment 4 Tokens/final.sol\":1788:1830  itemDetails[_address][id].lastHighestBider */\n      0x05\n      add\n      0x00\n        /* \"Assignment 4 Tokens/final.sol\":1788:1841  itemDetails[_address][id].lastHighestBider=msg.sender */\n      0x0100\n      exp\n      dup2\n      sload\n      dup2\n      0xffffffffffffffffffffffffffffffffffffffff\n      mul\n      not\n      and\n      swap1\n      dup4\n      0xffffffffffffffffffffffffffffffffffffffff\n      and\n      mul\n      or\n      swap1\n      sstore\n      pop\n        /* \"Assignment 4 Tokens/final.sol\":1891:1901  msg.sender */\n      caller\n        /* \"Assignment 4 Tokens/final.sol\":1852:1863  itemDetails */\n      0x00\n        /* \"Assignment 4 Tokens/final.sol\":1852:1873  itemDetails[_address] */\n      dup1\n        /* \"Assignment 4 Tokens/final.sol\":1864:1872  _address */\n      dup5\n        /* \"Assignment 4 Tokens/final.sol\":1852:1873  itemDetails[_address] */\n      0xffffffffffffffffffffffffffffffffffffffff\n      and\n      0xffffffffffffffffffffffffffffffffffffffff\n      and\n      dup2\n      mstore\n      0x20\n      add\n      swap1\n      dup2\n      mstore\n      0x20\n      add\n      0x00\n      keccak256\n        /* \"Assignment 4 Tokens/final.sol\":1852:1877  itemDetails[_address][id] */\n      0x00\n        /* \"Assignment 4 Tokens/final.sol\":1874:1876  id */\n      dup4\n        /* \"Assignment 4 Tokens/final.sol\":1852:1877  itemDetails[_address][id] */\n      dup2\n      mstore\n      0x20\n      add\n      swap1\n      dup2\n      mstore\n      0x20\n      add\n      0x00\n      keccak256\n        /* \"Assignment 4 Tokens/final.sol\":1852:1890  itemDetails[_address][id].highestBider */\n      0x03\n      add\n      0x00\n        /* \"Assignment 4 Tokens/final.sol\":1852:1901  itemDetails[_address][id].highestBider=msg.sender */\n      0x0100\n      exp\n      dup2\n      sload\n      dup2\n      0xffffffffffffffffffffffffffffffffffffffff\n      mul\n      not\n      and\n      swap1\n      dup4\n      0xffffffffffffffffffffffffffffffffffffffff\n      and\n      mul\n      or\n      swap1\n      sstore\n      pop\n        /* \"Assignment 4 Tokens/final.sol\":1920:1931  itemDetails */\n      0x00\n        /* \"Assignment 4 Tokens/final.sol\":1920:1941  itemDetails[_address] */\n      dup1\n        /* \"Assignment 4 Tokens/final.sol\":1932:1940  _address */\n      dup4\n        /* \"Assignment 4 Tokens/final.sol\":1920:1941  itemDetails[_address] */\n      0xffffffffffffffffffffffffffffffffffffffff\n      and\n      0xffffffffffffffffffffffffffffffffffffffff\n      and\n      dup2\n      mstore\n      0x20\n      add\n      swap1\n      dup2\n      mstore\n      0x20\n      add\n      0x00\n      keccak256\n        /* \"Assignment 4 Tokens/final.sol\":1920:1945  itemDetails[_address][id] */\n      0x00\n        /* \"Assignment 4 Tokens/final.sol\":1942:1944  id */\n      dup3\n        /* \"Assignment 4 Tokens/final.sol\":1920:1945  itemDetails[_address][id] */\n      dup2\n      mstore\n      0x20\n      add\n      swap1\n      dup2\n      mstore\n      0x20\n      add\n      0x00\n      keccak256\n        /* \"Assignment 4 Tokens/final.sol\":1920:1962  itemDetails[_address][id].lastHighestBider */\n      0x05\n      add\n      0x00\n      swap1\n      sload\n      swap1\n      0x0100\n      exp\n      swap1\n      div\n      0xffffffffffffffffffffffffffffffffffffffff\n      and\n        /* \"Assignment 4 Tokens/final.sol\":1912:1972  payable(itemDetails[_address][id].lastHighestBider).transfer */\n      0xffffffffffffffffffffffffffffffffffffffff\n      and\n        /* \"Assignment 4 Tokens/final.sol\":1912:2010  payable(itemDetails[_address][id].lastHighestBider).transfer(itemDetails[_address][id].highestBid) */\n      0x08fc\n        /* \"Assignment 4 Tokens/final.sol\":1973:1984  itemDetails */\n      0x00\n        /* \"Assignment 4 Tokens/final.sol\":1973:1994  itemDetails[_address] */\n      dup1\n        /* \"Assignment 4 Tokens/final.sol\":1985:1993  _address */\n      dup6\n        /* \"Assignment 4 Tokens/final.sol\":1973:1994  itemDetails[_address] */\n      0xffffffffffffffffffffffffffffffffffffffff\n      and\n      0xffffffffffffffffffffffffffffffffffffffff\n      and\n      dup2\n      mstore\n      0x20\n      add\n      swap1\n      dup2\n      mstore\n      0x20\n      add\n      0x00\n      keccak256\n        /* \"Assignment 4 Tokens/final.sol\":1973:1998  itemDetails[_address][id] */\n      0x00\n        /* \"Assignment 4 Tokens/final.sol\":1995:1997  id */\n      dup5\n        /* \"Assignment 4 Tokens/final.sol\":1973:1998  itemDetails[_address][id] */\n      dup2\n      mstore\n      0x20\n      add\n      swap1\n      dup2\n      mstore\n      0x20\n      add\n      0x00\n      keccak256\n        /* \"Assignment 4 Tokens/final.sol\":1973:2009  itemDetails[_address][id].highestBid */\n      0x02\n      add\n      sload\n        /* \"Assignment 4 Tokens/final.sol\":1912:2010  payable(itemDetails[_address][id].lastHighestBider).transfer(itemDetails[_address][id].highestBid) */\n      swap1\n      dup2\n      iszero\n      mul\n      swap1\n      mload(0x40)\n      0x00\n      mload(0x40)\n      dup1\n      dup4\n      sub\n      dup2\n      dup6\n      dup9\n      dup9\n      call\n      swap4\n      pop\n      pop\n      pop\n      pop\n      iszero\n      dup1\n      iszero\n      tag_88\n      jumpi\n      returndatasize\n      0x00\n      dup1\n      returndatacopy\n      revert(0x00, returndatasize)\n    tag_88:\n      pop\n        /* \"Assignment 4 Tokens/final.sol\":2026:2052  Bid(msg.sender, msg.value) */\n      0xe684a55f31b79eca403df938249029212a5925ec6be8012e099b45bc1019e5d2\n        /* \"Assignment 4 Tokens/final.sol\":2030:2040  msg.sender */\n      caller\n        /* \"Assignment 4 Tokens/final.sol\":2042:2051  msg.value */\n      callvalue\n        /* \"Assignment 4 Tokens/final.sol\":2026:2052  Bid(msg.sender, msg.value) */\n      mload(0x40)\n      tag_89\n      swap3\n      swap2\n      swap1\n      tag_90\n      jump\t// in\n    tag_89:\n      mload(0x40)\n      dup1\n      swap2\n      sub\n      swap1\n      log1\n        /* \"Assignment 4 Tokens/final.sol\":1247:2062  function placeBid(address _address,uint256 id)public payable  {... */\n      pop\n      pop\n      jump\t// out\n    tag_76:\n      pop\n      dup1\n      sload\n      tag_91\n      swap1\n      tag_47\n      jump\t// in\n    tag_91:\n      0x00\n      dup3\n      sstore\n      dup1\n      0x1f\n      lt\n      tag_93\n      jumpi\n      pop\n      jump(tag_92)\n    tag_93:\n      0x1f\n      add\n      0x20\n      swap1\n      div\n      swap1\n      0x00\n      mstore\n      keccak256(0x00, 0x20)\n      swap1\n      dup2\n      add\n      swap1\n      tag_94\n      swap2\n      swap1\n      tag_95\n      jump\t// in\n    tag_94:\n    tag_92:\n      pop\n      jump\t// out\n    tag_95:\n    tag_96:\n      dup1\n      dup3\n      gt\n      iszero\n      tag_97\n      jumpi\n      0x00\n      dup2\n      0x00\n      swap1\n      sstore\n      pop\n      0x01\n      add\n      jump(tag_96)\n    tag_97:\n      pop\n      swap1\n      jump\t// out\n        /* \"#utility.yul\":7:82   */\n    tag_98:\n        /* \"#utility.yul\":40:46   */\n      0x00\n        /* \"#utility.yul\":73:75   */\n      0x40\n        /* \"#utility.yul\":67:76   */\n      mload\n        /* \"#utility.yul\":57:76   */\n      swap1\n      pop\n        /* \"#utility.yul\":7:82   */\n      swap1\n      jump\t// out\n        /* \"#utility.yul\":88:205   */\n    tag_99:\n        /* \"#utility.yul\":197:198   */\n      0x00\n        /* \"#utility.yul\":194:195   */\n      dup1\n        /* \"#utility.yul\":187:199   */\n      revert\n        /* \"#utility.yul\":211:328   */\n    tag_100:\n        /* \"#utility.yul\":320:321   */\n      0x00\n        /* \"#utility.yul\":317:318   */\n      dup1\n        /* \"#utility.yul\":310:322   */\n      revert\n        /* \"#utility.yul\":334:460   */\n    tag_101:\n        /* \"#utility.yul\":371:378   */\n      0x00\n        /* \"#utility.yul\":411:453   */\n      0xffffffffffffffffffffffffffffffffffffffff\n        /* \"#utility.yul\":404:409   */\n      dup3\n        /* \"#utility.yul\":400:454   */\n      and\n        /* \"#utility.yul\":389:454   */\n      swap1\n      pop\n        /* \"#utility.yul\":334:460   */\n      swap2\n      swap1\n      pop\n      jump\t// out\n        /* \"#utility.yul\":466:562   */\n    tag_102:\n        /* \"#utility.yul\":503:510   */\n      0x00\n        /* \"#utility.yul\":532:556   */\n      tag_161\n        /* \"#utility.yul\":550:555   */\n      dup3\n        /* \"#utility.yul\":532:556   */\n      tag_101\n      jump\t// in\n    tag_161:\n        /* \"#utility.yul\":521:556   */\n      swap1\n      pop\n        /* \"#utility.yul\":466:562   */\n      swap2\n      swap1\n      pop\n      jump\t// out\n        /* \"#utility.yul\":568:690   */\n    tag_103:\n        /* \"#utility.yul\":641:665   */\n      tag_163\n        /* \"#utility.yul\":659:664   */\n      dup2\n        /* \"#utility.yul\":641:665   */\n      tag_102\n      jump\t// in\n    tag_163:\n        /* \"#utility.yul\":634:639   */\n      dup2\n        /* \"#utility.yul\":631:666   */\n      eq\n        /* \"#utility.yul\":621:684   */\n      tag_164\n      jumpi\n        /* \"#utility.yul\":680:681   */\n      0x00\n        /* \"#utility.yul\":677:678   */\n      dup1\n        /* \"#utility.yul\":670:682   */\n      revert\n        /* \"#utility.yul\":621:684   */\n    tag_164:\n        /* \"#utility.yul\":568:690   */\n      pop\n      jump\t// out\n        /* \"#utility.yul\":696:835   */\n    tag_104:\n        /* \"#utility.yul\":742:747   */\n      0x00\n        /* \"#utility.yul\":780:786   */\n      dup2\n        /* \"#utility.yul\":767:787   */\n      calldataload\n        /* \"#utility.yul\":758:787   */\n      swap1\n      pop\n        /* \"#utility.yul\":796:829   */\n      tag_166\n        /* \"#utility.yul\":823:828   */\n      dup2\n        /* \"#utility.yul\":796:829   */\n      tag_103\n      jump\t// in\n    tag_166:\n        /* \"#utility.yul\":696:835   */\n      swap3\n      swap2\n      pop\n      pop\n      jump\t// out\n        /* \"#utility.yul\":841:918   */\n    tag_105:\n        /* \"#utility.yul\":878:885   */\n      0x00\n        /* \"#utility.yul\":907:912   */\n      dup2\n        /* \"#utility.yul\":896:912   */\n      swap1\n      pop\n        /* \"#utility.yul\":841:918   */\n      swap2\n      swap1\n      pop\n      jump\t// out\n        /* \"#utility.yul\":924:1046   */\n    tag_106:\n        /* \"#utility.yul\":997:1021   */\n      tag_169\n        /* \"#utility.yul\":1015:1020   */\n      dup2\n        /* \"#utility.yul\":997:1021   */\n      tag_105\n      jump\t// in\n    tag_169:\n        /* \"#utility.yul\":990:995   */\n      dup2\n        /* \"#utility.yul\":987:1022   */\n      eq\n        /* \"#utility.yul\":977:1040   */\n      tag_170\n      jumpi\n        /* \"#utility.yul\":1036:1037   */\n      0x00\n        /* \"#utility.yul\":1033:1034   */\n      dup1\n        /* \"#utility.yul\":1026:1038   */\n      revert\n        /* \"#utility.yul\":977:1040   */\n    tag_170:\n        /* \"#utility.yul\":924:1046   */\n      pop\n      jump\t// out\n        /* \"#utility.yul\":1052:1191   */\n    tag_107:\n        /* \"#utility.yul\":1098:1103   */\n      0x00\n        /* \"#utility.yul\":1136:1142   */\n      dup2\n        /* \"#utility.yul\":1123:1143   */\n      calldataload\n        /* \"#utility.yul\":1114:1143   */\n      swap1\n      pop\n        /* \"#utility.yul\":1152:1185   */\n      tag_172\n        /* \"#utility.yul\":1179:1184   */\n      dup2\n        /* \"#utility.yul\":1152:1185   */\n      tag_106\n      jump\t// in\n    tag_172:\n        /* \"#utility.yul\":1052:1191   */\n      swap3\n      swap2\n      pop\n      pop\n      jump\t// out\n        /* \"#utility.yul\":1197:1671   */\n    tag_13:\n        /* \"#utility.yul\":1265:1271   */\n      0x00\n        /* \"#utility.yul\":1273:1279   */\n      dup1\n        /* \"#utility.yul\":1322:1324   */\n      0x40\n        /* \"#utility.yul\":1310:1319   */\n      dup4\n        /* \"#utility.yul\":1301:1308   */\n      dup6\n        /* \"#utility.yul\":1297:1320   */\n      sub\n        /* \"#utility.yul\":1293:1325   */\n      slt\n        /* \"#utility.yul\":1290:1409   */\n      iszero\n      tag_174\n      jumpi\n        /* \"#utility.yul\":1328:1407   */\n      tag_175\n      tag_99\n      jump\t// in\n    tag_175:\n        /* \"#utility.yul\":1290:1409   */\n    tag_174:\n        /* \"#utility.yul\":1448:1449   */\n      0x00\n        /* \"#utility.yul\":1473:1526   */\n      tag_176\n        /* \"#utility.yul\":1518:1525   */\n      dup6\n        /* \"#utility.yul\":1509:1515   */\n      dup3\n        /* \"#utility.yul\":1498:1507   */\n      dup7\n        /* \"#utility.yul\":1494:1516   */\n      add\n        /* \"#utility.yul\":1473:1526   */\n      tag_104\n      jump\t// in\n    tag_176:\n        /* \"#utility.yul\":1463:1526   */\n      swap3\n      pop\n        /* \"#utility.yul\":1419:1536   */\n      pop\n        /* \"#utility.yul\":1575:1577   */\n      0x20\n        /* \"#utility.yul\":1601:1654   */\n      tag_177\n        /* \"#utility.yul\":1646:1653   */\n      dup6\n        /* \"#utility.yul\":1637:1643   */\n      dup3\n        /* \"#utility.yul\":1626:1635   */\n      dup7\n        /* \"#utility.yul\":1622:1644   */\n      add\n        /* \"#utility.yul\":1601:1654   */\n      tag_107\n      jump\t// in\n    tag_177:\n        /* \"#utility.yul\":1591:1654   */\n      swap2\n      pop\n        /* \"#utility.yul\":1546:1664   */\n      pop\n        /* \"#utility.yul\":1197:1671   */\n      swap3\n      pop\n      swap3\n      swap1\n      pop\n      jump\t// out\n        /* \"#utility.yul\":1677:1776   */\n    tag_108:\n        /* \"#utility.yul\":1729:1735   */\n      0x00\n        /* \"#utility.yul\":1763:1768   */\n      dup2\n        /* \"#utility.yul\":1757:1769   */\n      mload\n        /* \"#utility.yul\":1747:1769   */\n      swap1\n      pop\n        /* \"#utility.yul\":1677:1776   */\n      swap2\n      swap1\n      pop\n      jump\t// out\n        /* \"#utility.yul\":1782:1951   */\n    tag_109:\n        /* \"#utility.yul\":1866:1877   */\n      0x00\n        /* \"#utility.yul\":1900:1906   */\n      dup3\n        /* \"#utility.yul\":1895:1898   */\n      dup3\n        /* \"#utility.yul\":1888:1907   */\n      mstore\n        /* \"#utility.yul\":1940:1944   */\n      0x20\n        /* \"#utility.yul\":1935:1938   */\n      dup3\n        /* \"#utility.yul\":1931:1945   */\n      add\n        /* \"#utility.yul\":1916:1945   */\n      swap1\n      pop\n        /* \"#utility.yul\":1782:1951   */\n      swap3\n      swap2\n      pop\n      pop\n      jump\t// out\n        /* \"#utility.yul\":1957:2203   */\n    tag_110:\n        /* \"#utility.yul\":2038:2039   */\n      0x00\n        /* \"#utility.yul\":2048:2161   */\n    tag_181:\n        /* \"#utility.yul\":2062:2068   */\n      dup4\n        /* \"#utility.yul\":2059:2060   */\n      dup2\n        /* \"#utility.yul\":2056:2069   */\n      lt\n        /* \"#utility.yul\":2048:2161   */\n      iszero\n      tag_183\n      jumpi\n        /* \"#utility.yul\":2147:2148   */\n      dup1\n        /* \"#utility.yul\":2142:2145   */\n      dup3\n        /* \"#utility.yul\":2138:2149   */\n      add\n        /* \"#utility.yul\":2132:2150   */\n      mload\n        /* \"#utility.yul\":2128:2129   */\n      dup2\n        /* \"#utility.yul\":2123:2126   */\n      dup5\n        /* \"#utility.yul\":2119:2130   */\n      add\n        /* \"#utility.yul\":2112:2151   */\n      mstore\n        /* \"#utility.yul\":2084:2086   */\n      0x20\n        /* \"#utility.yul\":2081:2082   */\n      dup2\n        /* \"#utility.yul\":2077:2087   */\n      add\n        /* \"#utility.yul\":2072:2087   */\n      swap1\n      pop\n        /* \"#utility.yul\":2048:2161   */\n      jump(tag_181)\n    tag_183:\n        /* \"#utility.yul\":2195:2196   */\n      0x00\n        /* \"#utility.yul\":2186:2192   */\n      dup5\n        /* \"#utility.yul\":2181:2184   */\n      dup5\n        /* \"#utility.yul\":2177:2193   */\n      add\n        /* \"#utility.yul\":2170:2197   */\n      mstore\n        /* \"#utility.yul\":2019:2203   */\n      pop\n        /* \"#utility.yul\":1957:2203   */\n      pop\n      pop\n      pop\n      jump\t// out\n        /* \"#utility.yul\":2209:2311   */\n    tag_111:\n        /* \"#utility.yul\":2250:2256   */\n      0x00\n        /* \"#utility.yul\":2301:2303   */\n      0x1f\n        /* \"#utility.yul\":2297:2304   */\n      not\n        /* \"#utility.yul\":2292:2294   */\n      0x1f\n        /* \"#utility.yul\":2285:2290   */\n      dup4\n        /* \"#utility.yul\":2281:2295   */\n      add\n        /* \"#utility.yul\":2277:2305   */\n      and\n        /* \"#utility.yul\":2267:2305   */\n      swap1\n      pop\n        /* \"#utility.yul\":2209:2311   */\n      swap2\n      swap1\n      pop\n      jump\t// out\n        /* \"#utility.yul\":2317:2694   */\n    tag_112:\n        /* \"#utility.yul\":2405:2408   */\n      0x00\n        /* \"#utility.yul\":2433:2472   */\n      tag_186\n        /* \"#utility.yul\":2466:2471   */\n      dup3\n        /* \"#utility.yul\":2433:2472   */\n      tag_108\n      jump\t// in\n    tag_186:\n        /* \"#utility.yul\":2488:2559   */\n      tag_187\n        /* \"#utility.yul\":2552:2558   */\n      dup2\n        /* \"#utility.yul\":2547:2550   */\n      dup6\n        /* \"#utility.yul\":2488:2559   */\n      tag_109\n      jump\t// in\n    tag_187:\n        /* \"#utility.yul\":2481:2559   */\n      swap4\n      pop\n        /* \"#utility.yul\":2568:2633   */\n      tag_188\n        /* \"#utility.yul\":2626:2632   */\n      dup2\n        /* \"#utility.yul\":2621:2624   */\n      dup6\n        /* \"#utility.yul\":2614:2618   */\n      0x20\n        /* \"#utility.yul\":2607:2612   */\n      dup7\n        /* \"#utility.yul\":2603:2619   */\n      add\n        /* \"#utility.yul\":2568:2633   */\n      tag_110\n      jump\t// in\n    tag_188:\n        /* \"#utility.yul\":2658:2687   */\n      tag_189\n        /* \"#utility.yul\":2680:2686   */\n      dup2\n        /* \"#utility.yul\":2658:2687   */\n      tag_111\n      jump\t// in\n    tag_189:\n        /* \"#utility.yul\":2653:2656   */\n      dup5\n        /* \"#utility.yul\":2649:2688   */\n      add\n        /* \"#utility.yul\":2642:2688   */\n      swap2\n      pop\n        /* \"#utility.yul\":2409:2694   */\n      pop\n        /* \"#utility.yul\":2317:2694   */\n      swap3\n      swap2\n      pop\n      pop\n      jump\t// out\n        /* \"#utility.yul\":2700:2818   */\n    tag_113:\n        /* \"#utility.yul\":2787:2811   */\n      tag_191\n        /* \"#utility.yul\":2805:2810   */\n      dup2\n        /* \"#utility.yul\":2787:2811   */\n      tag_105\n      jump\t// in\n    tag_191:\n        /* \"#utility.yul\":2782:2785   */\n      dup3\n        /* \"#utility.yul\":2775:2812   */\n      mstore\n        /* \"#utility.yul\":2700:2818   */\n      pop\n      pop\n      jump\t// out\n        /* \"#utility.yul\":2824:2942   */\n    tag_114:\n        /* \"#utility.yul\":2911:2935   */\n      tag_193\n        /* \"#utility.yul\":2929:2934   */\n      dup2\n        /* \"#utility.yul\":2911:2935   */\n      tag_102\n      jump\t// in\n    tag_193:\n        /* \"#utility.yul\":2906:2909   */\n      dup3\n        /* \"#utility.yul\":2899:2936   */\n      mstore\n        /* \"#utility.yul\":2824:2942   */\n      pop\n      pop\n      jump\t// out\n        /* \"#utility.yul\":2948:3814   */\n    tag_16:\n        /* \"#utility.yul\":3201:3205   */\n      0x00\n        /* \"#utility.yul\":3239:3242   */\n      0xc0\n        /* \"#utility.yul\":3228:3237   */\n      dup3\n        /* \"#utility.yul\":3224:3243   */\n      add\n        /* \"#utility.yul\":3216:3243   */\n      swap1\n      pop\n        /* \"#utility.yul\":3289:3298   */\n      dup2\n        /* \"#utility.yul\":3283:3287   */\n      dup2\n        /* \"#utility.yul\":3279:3299   */\n      sub\n        /* \"#utility.yul\":3275:3276   */\n      0x00\n        /* \"#utility.yul\":3264:3273   */\n      dup4\n        /* \"#utility.yul\":3260:3277   */\n      add\n        /* \"#utility.yul\":3253:3300   */\n      mstore\n        /* \"#utility.yul\":3317:3395   */\n      tag_195\n        /* \"#utility.yul\":3390:3394   */\n      dup2\n        /* \"#utility.yul\":3381:3387   */\n      dup10\n        /* \"#utility.yul\":3317:3395   */\n      tag_112\n      jump\t// in\n    tag_195:\n        /* \"#utility.yul\":3309:3395   */\n      swap1\n      pop\n        /* \"#utility.yul\":3405:3477   */\n      tag_196\n        /* \"#utility.yul\":3473:3475   */\n      0x20\n        /* \"#utility.yul\":3462:3471   */\n      dup4\n        /* \"#utility.yul\":3458:3476   */\n      add\n        /* \"#utility.yul\":3449:3455   */\n      dup9\n        /* \"#utility.yul\":3405:3477   */\n      tag_113\n      jump\t// in\n    tag_196:\n        /* \"#utility.yul\":3487:3559   */\n      tag_197\n        /* \"#utility.yul\":3555:3557   */\n      0x40\n        /* \"#utility.yul\":3544:3553   */\n      dup4\n        /* \"#utility.yul\":3540:3558   */\n      add\n        /* \"#utility.yul\":3531:3537   */\n      dup8\n        /* \"#utility.yul\":3487:3559   */\n      tag_113\n      jump\t// in\n    tag_197:\n        /* \"#utility.yul\":3569:3641   */\n      tag_198\n        /* \"#utility.yul\":3637:3639   */\n      0x60\n        /* \"#utility.yul\":3626:3635   */\n      dup4\n        /* \"#utility.yul\":3622:3640   */\n      add\n        /* \"#utility.yul\":3613:3619   */\n      dup7\n        /* \"#utility.yul\":3569:3641   */\n      tag_114\n      jump\t// in\n    tag_198:\n        /* \"#utility.yul\":3651:3724   */\n      tag_199\n        /* \"#utility.yul\":3719:3722   */\n      0x80\n        /* \"#utility.yul\":3708:3717   */\n      dup4\n        /* \"#utility.yul\":3704:3723   */\n      add\n        /* \"#utility.yul\":3695:3701   */\n      dup6\n        /* \"#utility.yul\":3651:3724   */\n      tag_113\n      jump\t// in\n    tag_199:\n        /* \"#utility.yul\":3734:3807   */\n      tag_200\n        /* \"#utility.yul\":3802:3805   */\n      0xa0\n        /* \"#utility.yul\":3791:3800   */\n      dup4\n        /* \"#utility.yul\":3787:3806   */\n      add\n        /* \"#utility.yul\":3778:3784   */\n      dup5\n        /* \"#utility.yul\":3734:3807   */\n      tag_114\n      jump\t// in\n    tag_200:\n        /* \"#utility.yul\":2948:3814   */\n      swap8\n      swap7\n      pop\n      pop\n      pop\n      pop\n      pop\n      pop\n      pop\n      jump\t// out\n        /* \"#utility.yul\":3820:3937   */\n    tag_115:\n        /* \"#utility.yul\":3929:3930   */\n      0x00\n        /* \"#utility.yul\":3926:3927   */\n      dup1\n        /* \"#utility.yul\":3919:3931   */\n      revert\n        /* \"#utility.yul\":3943:4060   */\n    tag_116:\n        /* \"#utility.yul\":4052:4053   */\n      0x00\n        /* \"#utility.yul\":4049:4050   */\n      dup1\n        /* \"#utility.yul\":4042:4054   */\n      revert\n        /* \"#utility.yul\":4066:4246   */\n    tag_117:\n        /* \"#utility.yul\":4114:4191   */\n      0x4e487b7100000000000000000000000000000000000000000000000000000000\n        /* \"#utility.yul\":4111:4112   */\n      0x00\n        /* \"#utility.yul\":4104:4192   */\n      mstore\n        /* \"#utility.yul\":4211:4215   */\n      0x41\n        /* \"#utility.yul\":4208:4209   */\n      0x04\n        /* \"#utility.yul\":4201:4216   */\n      mstore\n        /* \"#utility.yul\":4235:4239   */\n      0x24\n        /* \"#utility.yul\":4232:4233   */\n      0x00\n        /* \"#utility.yul\":4225:4240   */\n      revert\n        /* \"#utility.yul\":4252:4533   */\n    tag_118:\n        /* \"#utility.yul\":4335:4362   */\n      tag_205\n        /* \"#utility.yul\":4357:4361   */\n      dup3\n        /* \"#utility.yul\":4335:4362   */\n      tag_111\n      jump\t// in\n    tag_205:\n        /* \"#utility.yul\":4327:4333   */\n      dup2\n        /* \"#utility.yul\":4323:4363   */\n      add\n        /* \"#utility.yul\":4465:4471   */\n      dup2\n        /* \"#utility.yul\":4453:4463   */\n      dup2\n        /* \"#utility.yul\":4450:4472   */\n      lt\n        /* \"#utility.yul\":4429:4447   */\n      0xffffffffffffffff\n        /* \"#utility.yul\":4417:4427   */\n      dup3\n        /* \"#utility.yul\":4414:4448   */\n      gt\n        /* \"#utility.yul\":4411:4473   */\n      or\n        /* \"#utility.yul\":4408:4496   */\n      iszero\n      tag_206\n      jumpi\n        /* \"#utility.yul\":4476:4494   */\n      tag_207\n      tag_117\n      jump\t// in\n    tag_207:\n        /* \"#utility.yul\":4408:4496   */\n    tag_206:\n        /* \"#utility.yul\":4516:4526   */\n      dup1\n        /* \"#utility.yul\":4512:4514   */\n      0x40\n        /* \"#utility.yul\":4505:4527   */\n      mstore\n        /* \"#utility.yul\":4295:4533   */\n      pop\n        /* \"#utility.yul\":4252:4533   */\n      pop\n      pop\n      jump\t// out\n        /* \"#utility.yul\":4539:4668   */\n    tag_119:\n        /* \"#utility.yul\":4573:4579   */\n      0x00\n        /* \"#utility.yul\":4600:4620   */\n      tag_209\n      tag_98\n      jump\t// in\n    tag_209:\n        /* \"#utility.yul\":4590:4620   */\n      swap1\n      pop\n        /* \"#utility.yul\":4629:4662   */\n      tag_210\n        /* \"#utility.yul\":4657:4661   */\n      dup3\n        /* \"#utility.yul\":4649:4655   */\n      dup3\n        /* \"#utility.yul\":4629:4662   */\n      tag_118\n      jump\t// in\n    tag_210:\n        /* \"#utility.yul\":4539:4668   */\n      swap2\n      swap1\n      pop\n      jump\t// out\n        /* \"#utility.yul\":4674:4982   */\n    tag_120:\n        /* \"#utility.yul\":4736:4740   */\n      0x00\n        /* \"#utility.yul\":4826:4844   */\n      0xffffffffffffffff\n        /* \"#utility.yul\":4818:4824   */\n      dup3\n        /* \"#utility.yul\":4815:4845   */\n      gt\n        /* \"#utility.yul\":4812:4868   */\n      iszero\n      tag_212\n      jumpi\n        /* \"#utility.yul\":4848:4866   */\n      tag_213\n      tag_117\n      jump\t// in\n    tag_213:\n        /* \"#utility.yul\":4812:4868   */\n    tag_212:\n        /* \"#utility.yul\":4886:4915   */\n      tag_214\n        /* \"#utility.yul\":4908:4914   */\n      dup3\n        /* \"#utility.yul\":4886:4915   */\n      tag_111\n      jump\t// in\n    tag_214:\n        /* \"#utility.yul\":4878:4915   */\n      swap1\n      pop\n        /* \"#utility.yul\":4970:4974   */\n      0x20\n        /* \"#utility.yul\":4964:4968   */\n      dup2\n        /* \"#utility.yul\":4960:4975   */\n      add\n        /* \"#utility.yul\":4952:4975   */\n      swap1\n      pop\n        /* \"#utility.yul\":4674:4982   */\n      swap2\n      swap1\n      pop\n      jump\t// out\n        /* \"#utility.yul\":4988:5134   */\n    tag_121:\n        /* \"#utility.yul\":5085:5091   */\n      dup3\n        /* \"#utility.yul\":5080:5083   */\n      dup2\n        /* \"#utility.yul\":5075:5078   */\n      dup4\n        /* \"#utility.yul\":5062:5092   */\n      calldatacopy\n        /* \"#utility.yul\":5126:5127   */\n      0x00\n        /* \"#utility.yul\":5117:5123   */\n      dup4\n        /* \"#utility.yul\":5112:5115   */\n      dup4\n        /* \"#utility.yul\":5108:5124   */\n      add\n        /* \"#utility.yul\":5101:5128   */\n      mstore\n        /* \"#utility.yul\":4988:5134   */\n      pop\n      pop\n      pop\n      jump\t// out\n        /* \"#utility.yul\":5140:5565   */\n    tag_122:\n        /* \"#utility.yul\":5218:5223   */\n      0x00\n        /* \"#utility.yul\":5243:5309   */\n      tag_217\n        /* \"#utility.yul\":5259:5308   */\n      tag_218\n        /* \"#utility.yul\":5301:5307   */\n      dup5\n        /* \"#utility.yul\":5259:5308   */\n      tag_120\n      jump\t// in\n    tag_218:\n        /* \"#utility.yul\":5243:5309   */\n      tag_119\n      jump\t// in\n    tag_217:\n        /* \"#utility.yul\":5234:5309   */\n      swap1\n      pop\n        /* \"#utility.yul\":5332:5338   */\n      dup3\n        /* \"#utility.yul\":5325:5330   */\n      dup2\n        /* \"#utility.yul\":5318:5339   */\n      mstore\n        /* \"#utility.yul\":5370:5374   */\n      0x20\n        /* \"#utility.yul\":5363:5368   */\n      dup2\n        /* \"#utility.yul\":5359:5375   */\n      add\n        /* \"#utility.yul\":5408:5411   */\n      dup5\n        /* \"#utility.yul\":5399:5405   */\n      dup5\n        /* \"#utility.yul\":5394:5397   */\n      dup5\n        /* \"#utility.yul\":5390:5406   */\n      add\n        /* \"#utility.yul\":5387:5412   */\n      gt\n        /* \"#utility.yul\":5384:5496   */\n      iszero\n      tag_219\n      jumpi\n        /* \"#utility.yul\":5415:5494   */\n      tag_220\n      tag_116\n      jump\t// in\n    tag_220:\n        /* \"#utility.yul\":5384:5496   */\n    tag_219:\n        /* \"#utility.yul\":5505:5559   */\n      tag_221\n        /* \"#utility.yul\":5552:5558   */\n      dup5\n        /* \"#utility.yul\":5547:5550   */\n      dup3\n        /* \"#utility.yul\":5542:5545   */\n      dup6\n        /* \"#utility.yul\":5505:5559   */\n      tag_121\n      jump\t// in\n    tag_221:\n        /* \"#utility.yul\":5224:5565   */\n      pop\n        /* \"#utility.yul\":5140:5565   */\n      swap4\n      swap3\n      pop\n      pop\n      pop\n      jump\t// out\n        /* \"#utility.yul\":5585:5925   */\n    tag_123:\n        /* \"#utility.yul\":5641:5646   */\n      0x00\n        /* \"#utility.yul\":5690:5693   */\n      dup3\n        /* \"#utility.yul\":5683:5687   */\n      0x1f\n        /* \"#utility.yul\":5675:5681   */\n      dup4\n        /* \"#utility.yul\":5671:5688   */\n      add\n        /* \"#utility.yul\":5667:5694   */\n      slt\n        /* \"#utility.yul\":5657:5779   */\n      tag_223\n      jumpi\n        /* \"#utility.yul\":5698:5777   */\n      tag_224\n      tag_115\n      jump\t// in\n    tag_224:\n        /* \"#utility.yul\":5657:5779   */\n    tag_223:\n        /* \"#utility.yul\":5815:5821   */\n      dup2\n        /* \"#utility.yul\":5802:5822   */\n      calldataload\n        /* \"#utility.yul\":5840:5919   */\n      tag_225\n        /* \"#utility.yul\":5915:5918   */\n      dup5\n        /* \"#utility.yul\":5907:5913   */\n      dup3\n        /* \"#utility.yul\":5900:5904   */\n      0x20\n        /* \"#utility.yul\":5892:5898   */\n      dup7\n        /* \"#utility.yul\":5888:5905   */\n      add\n        /* \"#utility.yul\":5840:5919   */\n      tag_122\n      jump\t// in\n    tag_225:\n        /* \"#utility.yul\":5831:5919   */\n      swap2\n      pop\n        /* \"#utility.yul\":5647:5925   */\n      pop\n        /* \"#utility.yul\":5585:5925   */\n      swap3\n      swap2\n      pop\n      pop\n      jump\t// out\n        /* \"#utility.yul\":5931:6585   */\n    tag_20:\n        /* \"#utility.yul\":6009:6015   */\n      0x00\n        /* \"#utility.yul\":6017:6023   */\n      dup1\n        /* \"#utility.yul\":6066:6068   */\n      0x40\n        /* \"#utility.yul\":6054:6063   */\n      dup4\n        /* \"#utility.yul\":6045:6052   */\n      dup6\n        /* \"#utility.yul\":6041:6064   */\n      sub\n        /* \"#utility.yul\":6037:6069   */\n      slt\n        /* \"#utility.yul\":6034:6153   */\n      iszero\n      tag_227\n      jumpi\n        /* \"#utility.yul\":6072:6151   */\n      tag_228\n      tag_99\n      jump\t// in\n    tag_228:\n        /* \"#utility.yul\":6034:6153   */\n    tag_227:\n        /* \"#utility.yul\":6192:6193   */\n      0x00\n        /* \"#utility.yul\":6217:6270   */\n      tag_229\n        /* \"#utility.yul\":6262:6269   */\n      dup6\n        /* \"#utility.yul\":6253:6259   */\n      dup3\n        /* \"#utility.yul\":6242:6251   */\n      dup7\n        /* \"#utility.yul\":6238:6260   */\n      add\n        /* \"#utility.yul\":6217:6270   */\n      tag_107\n      jump\t// in\n    tag_229:\n        /* \"#utility.yul\":6207:6270   */\n      swap3\n      pop\n        /* \"#utility.yul\":6163:6280   */\n      pop\n        /* \"#utility.yul\":6347:6349   */\n      0x20\n        /* \"#utility.yul\":6336:6345   */\n      dup4\n        /* \"#utility.yul\":6332:6350   */\n      add\n        /* \"#utility.yul\":6319:6351   */\n      calldataload\n        /* \"#utility.yul\":6378:6396   */\n      0xffffffffffffffff\n        /* \"#utility.yul\":6370:6376   */\n      dup2\n        /* \"#utility.yul\":6367:6397   */\n      gt\n        /* \"#utility.yul\":6364:6481   */\n      iszero\n      tag_230\n      jumpi\n        /* \"#utility.yul\":6400:6479   */\n      tag_231\n      tag_100\n      jump\t// in\n    tag_231:\n        /* \"#utility.yul\":6364:6481   */\n    tag_230:\n        /* \"#utility.yul\":6505:6568   */\n      tag_232\n        /* \"#utility.yul\":6560:6567   */\n      dup6\n        /* \"#utility.yul\":6551:6557   */\n      dup3\n        /* \"#utility.yul\":6540:6549   */\n      dup7\n        /* \"#utility.yul\":6536:6558   */\n      add\n        /* \"#utility.yul\":6505:6568   */\n      tag_123\n      jump\t// in\n    tag_232:\n        /* \"#utility.yul\":6495:6568   */\n      swap2\n      pop\n        /* \"#utility.yul\":6290:6578   */\n      pop\n        /* \"#utility.yul\":5931:6585   */\n      swap3\n      pop\n      swap3\n      swap1\n      pop\n      jump\t// out\n        /* \"#utility.yul\":6591:6813   */\n    tag_27:\n        /* \"#utility.yul\":6684:6688   */\n      0x00\n        /* \"#utility.yul\":6722:6724   */\n      0x20\n        /* \"#utility.yul\":6711:6720   */\n      dup3\n        /* \"#utility.yul\":6707:6725   */\n      add\n        /* \"#utility.yul\":6699:6725   */\n      swap1\n      pop\n        /* \"#utility.yul\":6735:6806   */\n      tag_234\n        /* \"#utility.yul\":6803:6804   */\n      0x00\n        /* \"#utility.yul\":6792:6801   */\n      dup4\n        /* \"#utility.yul\":6788:6805   */\n      add\n        /* \"#utility.yul\":6779:6785   */\n      dup5\n        /* \"#utility.yul\":6735:6806   */\n      tag_114\n      jump\t// in\n    tag_234:\n        /* \"#utility.yul\":6591:6813   */\n      swap3\n      swap2\n      pop\n      pop\n      jump\t// out\n        /* \"#utility.yul\":6819:7041   */\n    tag_33:\n        /* \"#utility.yul\":6912:6916   */\n      0x00\n        /* \"#utility.yul\":6950:6952   */\n      0x20\n        /* \"#utility.yul\":6939:6948   */\n      dup3\n        /* \"#utility.yul\":6935:6953   */\n      add\n        /* \"#utility.yul\":6927:6953   */\n      swap1\n      pop\n        /* \"#utility.yul\":6963:7034   */\n      tag_236\n        /* \"#utility.yul\":7031:7032   */\n      0x00\n        /* \"#utility.yul\":7020:7029   */\n      dup4\n        /* \"#utility.yul\":7016:7033   */\n      add\n        /* \"#utility.yul\":7007:7013   */\n      dup5\n        /* \"#utility.yul\":6963:7034   */\n      tag_113\n      jump\t// in\n    tag_236:\n        /* \"#utility.yul\":6819:7041   */\n      swap3\n      swap2\n      pop\n      pop\n      jump\t// out\n        /* \"#utility.yul\":7047:7151   */\n    tag_124:\n        /* \"#utility.yul\":7092:7099   */\n      0x00\n        /* \"#utility.yul\":7121:7145   */\n      tag_238\n        /* \"#utility.yul\":7139:7144   */\n      dup3\n        /* \"#utility.yul\":7121:7145   */\n      tag_101\n      jump\t// in\n    tag_238:\n        /* \"#utility.yul\":7110:7145   */\n      swap1\n      pop\n        /* \"#utility.yul\":7047:7151   */\n      swap2\n      swap1\n      pop\n      jump\t// out\n        /* \"#utility.yul\":7157:7295   */\n    tag_125:\n        /* \"#utility.yul\":7238:7270   */\n      tag_240\n        /* \"#utility.yul\":7264:7269   */\n      dup2\n        /* \"#utility.yul\":7238:7270   */\n      tag_124\n      jump\t// in\n    tag_240:\n        /* \"#utility.yul\":7231:7236   */\n      dup2\n        /* \"#utility.yul\":7228:7271   */\n      eq\n        /* \"#utility.yul\":7218:7289   */\n      tag_241\n      jumpi\n        /* \"#utility.yul\":7285:7286   */\n      0x00\n        /* \"#utility.yul\":7282:7283   */\n      dup1\n        /* \"#utility.yul\":7275:7287   */\n      revert\n        /* \"#utility.yul\":7218:7289   */\n    tag_241:\n        /* \"#utility.yul\":7157:7295   */\n      pop\n      jump\t// out\n        /* \"#utility.yul\":7301:7456   */\n    tag_126:\n        /* \"#utility.yul\":7355:7360   */\n      0x00\n        /* \"#utility.yul\":7393:7399   */\n      dup2\n        /* \"#utility.yul\":7380:7400   */\n      calldataload\n        /* \"#utility.yul\":7371:7400   */\n      swap1\n      pop\n        /* \"#utility.yul\":7409:7450   */\n      tag_243\n        /* \"#utility.yul\":7444:7449   */\n      dup2\n        /* \"#utility.yul\":7409:7450   */\n      tag_125\n      jump\t// in\n    tag_243:\n        /* \"#utility.yul\":7301:7456   */\n      swap3\n      swap2\n      pop\n      pop\n      jump\t// out\n        /* \"#utility.yul\":7462:8097   */\n    tag_41:\n        /* \"#utility.yul\":7547:7553   */\n      0x00\n        /* \"#utility.yul\":7555:7561   */\n      dup1\n        /* \"#utility.yul\":7563:7569   */\n      0x00\n        /* \"#utility.yul\":7612:7614   */\n      0x60\n        /* \"#utility.yul\":7600:7609   */\n      dup5\n        /* \"#utility.yul\":7591:7598   */\n      dup7\n        /* \"#utility.yul\":7587:7610   */\n      sub\n        /* \"#utility.yul\":7583:7615   */\n      slt\n        /* \"#utility.yul\":7580:7699   */\n      iszero\n      tag_245\n      jumpi\n        /* \"#utility.yul\":7618:7697   */\n      tag_246\n      tag_99\n      jump\t// in\n    tag_246:\n        /* \"#utility.yul\":7580:7699   */\n    tag_245:\n        /* \"#utility.yul\":7738:7739   */\n      0x00\n        /* \"#utility.yul\":7763:7824   */\n      tag_247\n        /* \"#utility.yul\":7816:7823   */\n      dup7\n        /* \"#utility.yul\":7807:7813   */\n      dup3\n        /* \"#utility.yul\":7796:7805   */\n      dup8\n        /* \"#utility.yul\":7792:7814   */\n      add\n        /* \"#utility.yul\":7763:7824   */\n      tag_126\n      jump\t// in\n    tag_247:\n        /* \"#utility.yul\":7753:7824   */\n      swap4\n      pop\n        /* \"#utility.yul\":7709:7834   */\n      pop\n        /* \"#utility.yul\":7873:7875   */\n      0x20\n        /* \"#utility.yul\":7899:7952   */\n      tag_248\n        /* \"#utility.yul\":7944:7951   */\n      dup7\n        /* \"#utility.yul\":7935:7941   */\n      dup3\n        /* \"#utility.yul\":7924:7933   */\n      dup8\n        /* \"#utility.yul\":7920:7942   */\n      add\n        /* \"#utility.yul\":7899:7952   */\n      tag_107\n      jump\t// in\n    tag_248:\n        /* \"#utility.yul\":7889:7952   */\n      swap3\n      pop\n        /* \"#utility.yul\":7844:7962   */\n      pop\n        /* \"#utility.yul\":8001:8003   */\n      0x40\n        /* \"#utility.yul\":8027:8080   */\n      tag_249\n        /* \"#utility.yul\":8072:8079   */\n      dup7\n        /* \"#utility.yul\":8063:8069   */\n      dup3\n        /* \"#utility.yul\":8052:8061   */\n      dup8\n        /* \"#utility.yul\":8048:8070   */\n      add\n        /* \"#utility.yul\":8027:8080   */\n      tag_107\n      jump\t// in\n    tag_249:\n        /* \"#utility.yul\":8017:8080   */\n      swap2\n      pop\n        /* \"#utility.yul\":7972:8090   */\n      pop\n        /* \"#utility.yul\":7462:8097   */\n      swap3\n      pop\n      swap3\n      pop\n      swap3\n      jump\t// out\n        /* \"#utility.yul\":8103:8283   */\n    tag_127:\n        /* \"#utility.yul\":8151:8228   */\n      0x4e487b7100000000000000000000000000000000000000000000000000000000\n        /* \"#utility.yul\":8148:8149   */\n      0x00\n        /* \"#utility.yul\":8141:8229   */\n      mstore\n        /* \"#utility.yul\":8248:8252   */\n      0x22\n        /* \"#utility.yul\":8245:8246   */\n      0x04\n        /* \"#utility.yul\":8238:8253   */\n      mstore\n        /* \"#utility.yul\":8272:8276   */\n      0x24\n        /* \"#utility.yul\":8269:8270   */\n      0x00\n        /* \"#utility.yul\":8262:8277   */\n      revert\n        /* \"#utility.yul\":8289:8609   */\n    tag_47:\n        /* \"#utility.yul\":8333:8339   */\n      0x00\n        /* \"#utility.yul\":8370:8371   */\n      0x02\n        /* \"#utility.yul\":8364:8368   */\n      dup3\n        /* \"#utility.yul\":8360:8372   */\n      div\n        /* \"#utility.yul\":8350:8372   */\n      swap1\n      pop\n        /* \"#utility.yul\":8417:8418   */\n      0x01\n        /* \"#utility.yul\":8411:8415   */\n      dup3\n        /* \"#utility.yul\":8407:8419   */\n      and\n        /* \"#utility.yul\":8438:8456   */\n      dup1\n        /* \"#utility.yul\":8428:8509   */\n      tag_252\n      jumpi\n        /* \"#utility.yul\":8494:8498   */\n      0x7f\n        /* \"#utility.yul\":8486:8492   */\n      dup3\n        /* \"#utility.yul\":8482:8499   */\n      and\n        /* \"#utility.yul\":8472:8499   */\n      swap2\n      pop\n        /* \"#utility.yul\":8428:8509   */\n    tag_252:\n        /* \"#utility.yul\":8556:8558   */\n      0x20\n        /* \"#utility.yul\":8548:8554   */\n      dup3\n        /* \"#utility.yul\":8545:8559   */\n      lt\n        /* \"#utility.yul\":8525:8543   */\n      dup2\n        /* \"#utility.yul\":8522:8560   */\n      sub\n        /* \"#utility.yul\":8519:8603   */\n      tag_253\n      jumpi\n        /* \"#utility.yul\":8575:8593   */\n      tag_254\n      tag_127\n      jump\t// in\n    tag_254:\n        /* \"#utility.yul\":8519:8603   */\n    tag_253:\n        /* \"#utility.yul\":8340:8609   */\n      pop\n        /* \"#utility.yul\":8289:8609   */\n      swap2\n      swap1\n      pop\n      jump\t// out\n        /* \"#utility.yul\":8615:8774   */\n    tag_128:\n        /* \"#utility.yul\":8755:8766   */\n      0x4e6f742056616c69640000000000000000000000000000000000000000000000\n        /* \"#utility.yul\":8751:8752   */\n      0x00\n        /* \"#utility.yul\":8743:8749   */\n      dup3\n        /* \"#utility.yul\":8739:8753   */\n      add\n        /* \"#utility.yul\":8732:8767   */\n      mstore\n        /* \"#utility.yul\":8615:8774   */\n      pop\n      jump\t// out\n        /* \"#utility.yul\":8780:9145   */\n    tag_129:\n        /* \"#utility.yul\":8922:8925   */\n      0x00\n        /* \"#utility.yul\":8943:9009   */\n      tag_257\n        /* \"#utility.yul\":9007:9008   */\n      0x09\n        /* \"#utility.yul\":9002:9005   */\n      dup4\n        /* \"#utility.yul\":8943:9009   */\n      tag_109\n      jump\t// in\n    tag_257:\n        /* \"#utility.yul\":8936:9009   */\n      swap2\n      pop\n        /* \"#utility.yul\":9018:9111   */\n      tag_258\n        /* \"#utility.yul\":9107:9110   */\n      dup3\n        /* \"#utility.yul\":9018:9111   */\n      tag_128\n      jump\t// in\n    tag_258:\n        /* \"#utility.yul\":9136:9138   */\n      0x20\n        /* \"#utility.yul\":9131:9134   */\n      dup3\n        /* \"#utility.yul\":9127:9139   */\n      add\n        /* \"#utility.yul\":9120:9139   */\n      swap1\n      pop\n        /* \"#utility.yul\":8780:9145   */\n      swap2\n      swap1\n      pop\n      jump\t// out\n        /* \"#utility.yul\":9151:9570   */\n    tag_55:\n        /* \"#utility.yul\":9317:9321   */\n      0x00\n        /* \"#utility.yul\":9355:9357   */\n      0x20\n        /* \"#utility.yul\":9344:9353   */\n      dup3\n        /* \"#utility.yul\":9340:9358   */\n      add\n        /* \"#utility.yul\":9332:9358   */\n      swap1\n      pop\n        /* \"#utility.yul\":9404:9413   */\n      dup2\n        /* \"#utility.yul\":9398:9402   */\n      dup2\n        /* \"#utility.yul\":9394:9414   */\n      sub\n        /* \"#utility.yul\":9390:9391   */\n      0x00\n        /* \"#utility.yul\":9379:9388   */\n      dup4\n        /* \"#utility.yul\":9375:9392   */\n      add\n        /* \"#utility.yul\":9368:9415   */\n      mstore\n        /* \"#utility.yul\":9432:9563   */\n      tag_260\n        /* \"#utility.yul\":9558:9562   */\n      dup2\n        /* \"#utility.yul\":9432:9563   */\n      tag_129\n      jump\t// in\n    tag_260:\n        /* \"#utility.yul\":9424:9563   */\n      swap1\n      pop\n        /* \"#utility.yul\":9151:9570   */\n      swap2\n      swap1\n      pop\n      jump\t// out\n        /* \"#utility.yul\":9576:9717   */\n    tag_130:\n        /* \"#utility.yul\":9625:9629   */\n      0x00\n        /* \"#utility.yul\":9648:9651   */\n      dup2\n        /* \"#utility.yul\":9640:9651   */\n      swap1\n      pop\n        /* \"#utility.yul\":9671:9674   */\n      dup2\n        /* \"#utility.yul\":9668:9669   */\n      0x00\n        /* \"#utility.yul\":9661:9675   */\n      mstore\n        /* \"#utility.yul\":9705:9709   */\n      0x20\n        /* \"#utility.yul\":9702:9703   */\n      0x00\n        /* \"#utility.yul\":9692:9710   */\n      keccak256\n        /* \"#utility.yul\":9684:9710   */\n      swap1\n      pop\n        /* \"#utility.yul\":9576:9717   */\n      swap2\n      swap1\n      pop\n      jump\t// out\n        /* \"#utility.yul\":9723:9816   */\n    tag_131:\n        /* \"#utility.yul\":9760:9766   */\n      0x00\n        /* \"#utility.yul\":9807:9809   */\n      0x20\n        /* \"#utility.yul\":9802:9804   */\n      0x1f\n        /* \"#utility.yul\":9795:9800   */\n      dup4\n        /* \"#utility.yul\":9791:9805   */\n      add\n        /* \"#utility.yul\":9787:9810   */\n      div\n        /* \"#utility.yul\":9777:9810   */\n      swap1\n      pop\n        /* \"#utility.yul\":9723:9816   */\n      swap2\n      swap1\n      pop\n      jump\t// out\n        /* \"#utility.yul\":9822:9929   */\n    tag_132:\n        /* \"#utility.yul\":9866:9874   */\n      0x00\n        /* \"#utility.yul\":9916:9921   */\n      dup3\n        /* \"#utility.yul\":9910:9914   */\n      dup3\n        /* \"#utility.yul\":9906:9922   */\n      shl\n        /* \"#utility.yul\":9885:9922   */\n      swap1\n      pop\n        /* \"#utility.yul\":9822:9929   */\n      swap3\n      swap2\n      pop\n      pop\n      jump\t// out\n        /* \"#utility.yul\":9935:10328   */\n    tag_133:\n        /* \"#utility.yul\":10004:10010   */\n      0x00\n        /* \"#utility.yul\":10054:10055   */\n      0x08\n        /* \"#utility.yul\":10042:10052   */\n      dup4\n        /* \"#utility.yul\":10038:10056   */\n      mul\n        /* \"#utility.yul\":10077:10174   */\n      tag_265\n        /* \"#utility.yul\":10107:10173   */\n      0xffffffffffffffffffffffffffffffffffffffffffffffffffffffffffffffff\n        /* \"#utility.yul\":10096:10105   */\n      dup3\n        /* \"#utility.yul\":10077:10174   */\n      tag_132\n      jump\t// in\n    tag_265:\n        /* \"#utility.yul\":10195:10234   */\n      tag_266\n        /* \"#utility.yul\":10225:10233   */\n      dup7\n        /* \"#utility.yul\":10214:10223   */\n      dup4\n        /* \"#utility.yul\":10195:10234   */\n      tag_132\n      jump\t// in\n    tag_266:\n        /* \"#utility.yul\":10183:10234   */\n      swap6\n      pop\n        /* \"#utility.yul\":10267:10271   */\n      dup1\n        /* \"#utility.yul\":10263:10272   */\n      not\n        /* \"#utility.yul\":10256:10261   */\n      dup5\n        /* \"#utility.yul\":10252:10273   */\n      and\n        /* \"#utility.yul\":10243:10273   */\n      swap4\n      pop\n        /* \"#utility.yul\":10316:10320   */\n      dup1\n        /* \"#utility.yul\":10306:10314   */\n      dup7\n        /* \"#utility.yul\":10302:10321   */\n      and\n        /* \"#utility.yul\":10295:10300   */\n      dup5\n        /* \"#utility.yul\":10292:10322   */\n      or\n        /* \"#utility.yul\":10282:10322   */\n      swap3\n      pop\n        /* \"#utility.yul\":10011:10328   */\n      pop\n      pop\n        /* \"#utility.yul\":9935:10328   */\n      swap4\n      swap3\n      pop\n      pop\n      pop\n      jump\t// out\n        /* \"#utility.yul\":10334:10394   */\n    tag_134:\n        /* \"#utility.yul\":10362:10365   */\n      0x00\n        /* \"#utility.yul\":10383:10388   */\n      dup2\n        /* \"#utility.yul\":10376:10388   */\n      swap1\n      pop\n        /* \"#utility.yul\":10334:10394   */\n      swap2\n      swap1\n      pop\n      jump\t// out\n        /* \"#utility.yul\":10400:10542   */\n    tag_135:\n        /* \"#utility.yul\":10450:10459   */\n      0x00\n        /* \"#utility.yul\":10483:10536   */\n      tag_269\n        /* \"#utility.yul\":10501:10535   */\n      tag_270\n        /* \"#utility.yul\":10510:10534   */\n      tag_271\n        /* \"#utility.yul\":10528:10533   */\n      dup5\n        /* \"#utility.yul\":10510:10534   */\n      tag_105\n      jump\t// in\n    tag_271:\n        /* \"#utility.yul\":10501:10535   */\n      tag_134\n      jump\t// in\n    tag_270:\n        /* \"#utility.yul\":10483:10536   */\n      tag_105\n      jump\t// in\n    tag_269:\n        /* \"#utility.yul\":10470:10536   */\n      swap1\n      pop\n        /* \"#utility.yul\":10400:10542   */\n      swap2\n      swap1\n      pop\n      jump\t// out\n        /* \"#utility.yul\":10548:10623   */\n    tag_136:\n        /* \"#utility.yul\":10591:10594   */\n      0x00\n        /* \"#utility.yul\":10612:10617   */\n      dup2\n        /* \"#utility.yul\":10605:10617   */\n      swap1\n      pop\n        /* \"#utility.yul\":10548:10623   */\n      swap2\n      swap1\n      pop\n      jump\t// out\n        /* \"#utility.yul\":10629:10898   */\n    tag_137:\n        /* \"#utility.yul\":10739:10778   */\n      tag_274\n        /* \"#utility.yul\":10770:10777   */\n      dup4\n        /* \"#utility.yul\":10739:10778   */\n      tag_135\n      jump\t// in\n    tag_274:\n        /* \"#utility.yul\":10800:10891   */\n      tag_275\n        /* \"#utility.yul\":10849:10890   */\n      tag_276\n        /* \"#utility.yul\":10873:10889   */\n      dup3\n        /* \"#utility.yul\":10849:10890   */\n      tag_136\n      jump\t// in\n    tag_276:\n        /* \"#utility.yul\":10841:10847   */\n      dup5\n        /* \"#utility.yul\":10834:10838   */\n      dup5\n        /* \"#utility.yul\":10828:10839   */\n      sload\n        /* \"#utility.yul\":10800:10891   */\n      tag_133\n      jump\t// in\n    tag_275:\n        /* \"#utility.yul\":10794:10798   */\n      dup3\n        /* \"#utility.yul\":10787:10892   */\n      sstore\n        /* \"#utility.yul\":10705:10898   */\n      pop\n        /* \"#utility.yul\":10629:10898   */\n      pop\n      pop\n      pop\n      jump\t// out\n        /* \"#utility.yul\":10904:10977   */\n    tag_138:\n        /* \"#utility.yul\":10949:10952   */\n      0x00\n        /* \"#utility.yul\":10904:10977   */\n      swap1\n      jump\t// out\n        /* \"#utility.yul\":10983:11172   */\n    tag_139:\n        /* \"#utility.yul\":11060:11092   */\n      tag_279\n      tag_138\n      jump\t// in\n    tag_279:\n        /* \"#utility.yul\":11101:11166   */\n      tag_280\n        /* \"#utility.yul\":11159:11165   */\n      dup2\n        /* \"#utility.yul\":11151:11157   */\n      dup5\n        /* \"#utility.yul\":11145:11149   */\n      dup5\n        /* \"#utility.yul\":11101:11166   */\n      tag_137\n      jump\t// in\n    tag_280:\n        /* \"#utility.yul\":11036:11172   */\n      pop\n        /* \"#utility.yul\":10983:11172   */\n      pop\n      pop\n      jump\t// out\n        /* \"#utility.yul\":11178:11364   */\n    tag_140:\n        /* \"#utility.yul\":11238:11358   */\n    tag_282:\n        /* \"#utility.yul\":11255:11258   */\n      dup2\n        /* \"#utility.yul\":11248:11253   */\n      dup2\n        /* \"#utility.yul\":11245:11259   */\n      lt\n        /* \"#utility.yul\":11238:11358   */\n      iszero\n      tag_284\n      jumpi\n        /* \"#utility.yul\":11309:11348   */\n      tag_285\n        /* \"#utility.yul\":11346:11347   */\n      0x00\n        /* \"#utility.yul\":11339:11344   */\n      dup3\n        /* \"#utility.yul\":11309:11348   */\n      tag_139\n      jump\t// in\n    tag_285:\n        /* \"#utility.yul\":11282:11283   */\n      0x01\n        /* \"#utility.yul\":11275:11280   */\n      dup2\n        /* \"#utility.yul\":11271:11284   */\n      add\n        /* \"#utility.yul\":11262:11284   */\n      swap1\n      pop\n        /* \"#utility.yul\":11238:11358   */\n      jump(tag_282)\n    tag_284:\n        /* \"#utility.yul\":11178:11364   */\n      pop\n      pop\n      jump\t// out\n        /* \"#utility.yul\":11370:11913   */\n    tag_141:\n        /* \"#utility.yul\":11471:11473   */\n      0x1f\n        /* \"#utility.yul\":11466:11469   */\n      dup3\n        /* \"#utility.yul\":11463:11474   */\n      gt\n        /* \"#utility.yul\":11460:11906   */\n      iszero\n      tag_287\n      jumpi\n        /* \"#utility.yul\":11505:11543   */\n      tag_288\n        /* \"#utility.yul\":11537:11542   */\n      dup2\n        /* \"#utility.yul\":11505:11543   */\n      tag_130\n      jump\t// in\n    tag_288:\n        /* \"#utility.yul\":11589:11618   */\n      tag_289\n        /* \"#utility.yul\":11607:11617   */\n      dup5\n        /* \"#utility.yul\":11589:11618   */\n      tag_131\n      jump\t// in\n    tag_289:\n        /* \"#utility.yul\":11579:11587   */\n      dup2\n        /* \"#utility.yul\":11575:11619   */\n      add\n        /* \"#utility.yul\":11772:11774   */\n      0x20\n        /* \"#utility.yul\":11760:11770   */\n      dup6\n        /* \"#utility.yul\":11757:11775   */\n      lt\n        /* \"#utility.yul\":11754:11803   */\n      iszero\n      tag_290\n      jumpi\n        /* \"#utility.yul\":11793:11801   */\n      dup2\n        /* \"#utility.yul\":11778:11801   */\n      swap1\n      pop\n        /* \"#utility.yul\":11754:11803   */\n    tag_290:\n        /* \"#utility.yul\":11816:11896   */\n      tag_291\n        /* \"#utility.yul\":11872:11894   */\n      tag_292\n        /* \"#utility.yul\":11890:11893   */\n      dup6\n        /* \"#utility.yul\":11872:11894   */\n      tag_131\n      jump\t// in\n    tag_292:\n        /* \"#utility.yul\":11862:11870   */\n      dup4\n        /* \"#utility.yul\":11858:11895   */\n      add\n        /* \"#utility.yul\":11845:11856   */\n      dup3\n        /* \"#utility.yul\":11816:11896   */\n      tag_140\n      jump\t// in\n    tag_291:\n        /* \"#utility.yul\":11475:11906   */\n      pop\n      pop\n        /* \"#utility.yul\":11460:11906   */\n    tag_287:\n        /* \"#utility.yul\":11370:11913   */\n      pop\n      pop\n      pop\n      jump\t// out\n        /* \"#utility.yul\":11919:12036   */\n    tag_142:\n        /* \"#utility.yul\":11973:11981   */\n      0x00\n        /* \"#utility.yul\":12023:12028   */\n      dup3\n        /* \"#utility.yul\":12017:12021   */\n      dup3\n        /* \"#utility.yul\":12013:12029   */\n      shr\n        /* \"#utility.yul\":11992:12029   */\n      swap1\n      pop\n        /* \"#utility.yul\":11919:12036   */\n      swap3\n      swap2\n      pop\n      pop\n      jump\t// out\n        /* \"#utility.yul\":12042:12211   */\n    tag_143:\n        /* \"#utility.yul\":12086:12092   */\n      0x00\n        /* \"#utility.yul\":12119:12170   */\n      tag_295\n        /* \"#utility.yul\":12167:12168   */\n      0x00\n        /* \"#utility.yul\":12163:12169   */\n      not\n        /* \"#utility.yul\":12155:12160   */\n      dup5\n        /* \"#utility.yul\":12152:12153   */\n      0x08\n        /* \"#utility.yul\":12148:12161   */\n      mul\n        /* \"#utility.yul\":12119:12170   */\n      tag_142\n      jump\t// in\n    tag_295:\n        /* \"#utility.yul\":12115:12171   */\n      not\n        /* \"#utility.yul\":12200:12204   */\n      dup1\n        /* \"#utility.yul\":12194:12198   */\n      dup4\n        /* \"#utility.yul\":12190:12205   */\n      and\n        /* \"#utility.yul\":12180:12205   */\n      swap2\n      pop\n        /* \"#utility.yul\":12093:12211   */\n      pop\n        /* \"#utility.yul\":12042:12211   */\n      swap3\n      swap2\n      pop\n      pop\n      jump\t// out\n        /* \"#utility.yul\":12216:12511   */\n    tag_144:\n        /* \"#utility.yul\":12292:12296   */\n      0x00\n        /* \"#utility.yul\":12438:12467   */\n      tag_297\n        /* \"#utility.yul\":12463:12466   */\n      dup4\n        /* \"#utility.yul\":12457:12461   */\n      dup4\n        /* \"#utility.yul\":12438:12467   */\n      tag_143\n      jump\t// in\n    tag_297:\n        /* \"#utility.yul\":12430:12467   */\n      swap2\n      pop\n        /* \"#utility.yul\":12500:12503   */\n      dup3\n        /* \"#utility.yul\":12497:12498   */\n      0x02\n        /* \"#utility.yul\":12493:12504   */\n      mul\n        /* \"#utility.yul\":12487:12491   */\n      dup3\n        /* \"#utility.yul\":12484:12505   */\n      or\n        /* \"#utility.yul\":12476:12505   */\n      swap1\n      pop\n        /* \"#utility.yul\":12216:12511   */\n      swap3\n      swap2\n      pop\n      pop\n      jump\t// out\n        /* \"#utility.yul\":12516:13911   */\n    tag_57:\n        /* \"#utility.yul\":12633:12670   */\n      tag_299\n        /* \"#utility.yul\":12666:12669   */\n      dup3\n        /* \"#utility.yul\":12633:12670   */\n      tag_108\n      jump\t// in\n    tag_299:\n        /* \"#utility.yul\":12735:12753   */\n      0xffffffffffffffff\n        /* \"#utility.yul\":12727:12733   */\n      dup2\n        /* \"#utility.yul\":12724:12754   */\n      gt\n        /* \"#utility.yul\":12721:12777   */\n      iszero\n      tag_300\n      jumpi\n        /* \"#utility.yul\":12757:12775   */\n      tag_301\n      tag_117\n      jump\t// in\n    tag_301:\n        /* \"#utility.yul\":12721:12777   */\n    tag_300:\n        /* \"#utility.yul\":12801:12839   */\n      tag_302\n        /* \"#utility.yul\":12833:12837   */\n      dup3\n        /* \"#utility.yul\":12827:12838   */\n      sload\n        /* \"#utility.yul\":12801:12839   */\n      tag_47\n      jump\t// in\n    tag_302:\n        /* \"#utility.yul\":12886:12953   */\n      tag_303\n        /* \"#utility.yul\":12946:12952   */\n      dup3\n        /* \"#utility.yul\":12938:12944   */\n      dup3\n        /* \"#utility.yul\":12932:12936   */\n      dup6\n        /* \"#utility.yul\":12886:12953   */\n      tag_141\n      jump\t// in\n    tag_303:\n        /* \"#utility.yul\":12980:12981   */\n      0x00\n        /* \"#utility.yul\":13004:13008   */\n      0x20\n        /* \"#utility.yul\":12991:13008   */\n      swap1\n      pop\n        /* \"#utility.yul\":13036:13038   */\n      0x1f\n        /* \"#utility.yul\":13028:13034   */\n      dup4\n        /* \"#utility.yul\":13025:13039   */\n      gt\n        /* \"#utility.yul\":13053:13054   */\n      0x01\n        /* \"#utility.yul\":13048:13666   */\n      dup2\n      eq\n      tag_305\n      jumpi\n        /* \"#utility.yul\":13710:13711   */\n      0x00\n        /* \"#utility.yul\":13727:13733   */\n      dup5\n        /* \"#utility.yul\":13724:13801   */\n      iszero\n      tag_306\n      jumpi\n        /* \"#utility.yul\":13776:13785   */\n      dup3\n        /* \"#utility.yul\":13771:13774   */\n      dup8\n        /* \"#utility.yul\":13767:13786   */\n      add\n        /* \"#utility.yul\":13761:13787   */\n      mload\n        /* \"#utility.yul\":13752:13787   */\n      swap1\n      pop\n        /* \"#utility.yul\":13724:13801   */\n    tag_306:\n        /* \"#utility.yul\":13827:13894   */\n      tag_307\n        /* \"#utility.yul\":13887:13893   */\n      dup6\n        /* \"#utility.yul\":13880:13885   */\n      dup3\n        /* \"#utility.yul\":13827:13894   */\n      tag_144\n      jump\t// in\n    tag_307:\n        /* \"#utility.yul\":13821:13825   */\n      dup7\n        /* \"#utility.yul\":13814:13895   */\n      sstore\n        /* \"#utility.yul\":13683:13905   */\n      pop\n        /* \"#utility.yul\":13018:13905   */\n      jump(tag_304)\n        /* \"#utility.yul\":13048:13666   */\n    tag_305:\n        /* \"#utility.yul\":13100:13104   */\n      0x1f\n        /* \"#utility.yul\":13096:13105   */\n      not\n        /* \"#utility.yul\":13088:13094   */\n      dup5\n        /* \"#utility.yul\":13084:13106   */\n      and\n        /* \"#utility.yul\":13134:13171   */\n      tag_308\n        /* \"#utility.yul\":13166:13170   */\n      dup7\n        /* \"#utility.yul\":13134:13171   */\n      tag_130\n      jump\t// in\n    tag_308:\n        /* \"#utility.yul\":13193:13194   */\n      0x00\n        /* \"#utility.yul\":13207:13415   */\n    tag_309:\n        /* \"#utility.yul\":13221:13228   */\n      dup3\n        /* \"#utility.yul\":13218:13219   */\n      dup2\n        /* \"#utility.yul\":13215:13229   */\n      lt\n        /* \"#utility.yul\":13207:13415   */\n      iszero\n      tag_311\n      jumpi\n        /* \"#utility.yul\":13300:13309   */\n      dup5\n        /* \"#utility.yul\":13295:13298   */\n      dup10\n        /* \"#utility.yul\":13291:13310   */\n      add\n        /* \"#utility.yul\":13285:13311   */\n      mload\n        /* \"#utility.yul\":13277:13283   */\n      dup3\n        /* \"#utility.yul\":13270:13312   */\n      sstore\n        /* \"#utility.yul\":13351:13352   */\n      0x01\n        /* \"#utility.yul\":13343:13349   */\n      dup3\n        /* \"#utility.yul\":13339:13353   */\n      add\n        /* \"#utility.yul\":13329:13353   */\n      swap2\n      pop\n        /* \"#utility.yul\":13398:13400   */\n      0x20\n        /* \"#utility.yul\":13387:13396   */\n      dup6\n        /* \"#utility.yul\":13383:13401   */\n      add\n        /* \"#utility.yul\":13370:13401   */\n      swap5\n      pop\n        /* \"#utility.yul\":13244:13248   */\n      0x20\n        /* \"#utility.yul\":13241:13242   */\n      dup2\n        /* \"#utility.yul\":13237:13249   */\n      add\n        /* \"#utility.yul\":13232:13249   */\n      swap1\n      pop\n        /* \"#utility.yul\":13207:13415   */\n      jump(tag_309)\n    tag_311:\n        /* \"#utility.yul\":13443:13449   */\n      dup7\n        /* \"#utility.yul\":13434:13441   */\n      dup4\n        /* \"#utility.yul\":13431:13450   */\n      lt\n        /* \"#utility.yul\":13428:13607   */\n      iszero\n      tag_312\n      jumpi\n        /* \"#utility.yul\":13501:13510   */\n      dup5\n        /* \"#utility.yul\":13496:13499   */\n      dup10\n        /* \"#utility.yul\":13492:13511   */\n      add\n        /* \"#utility.yul\":13486:13512   */\n      mload\n        /* \"#utility.yul\":13544:13592   */\n      tag_313\n        /* \"#utility.yul\":13586:13590   */\n      0x1f\n        /* \"#utility.yul\":13578:13584   */\n      dup10\n        /* \"#utility.yul\":13574:13591   */\n      and\n        /* \"#utility.yul\":13563:13572   */\n      dup3\n        /* \"#utility.yul\":13544:13592   */\n      tag_143\n      jump\t// in\n    tag_313:\n        /* \"#utility.yul\":13536:13542   */\n      dup4\n        /* \"#utility.yul\":13529:13593   */\n      sstore\n        /* \"#utility.yul\":13451:13607   */\n      pop\n        /* \"#utility.yul\":13428:13607   */\n    tag_312:\n        /* \"#utility.yul\":13653:13654   */\n      0x01\n        /* \"#utility.yul\":13649:13650   */\n      0x02\n        /* \"#utility.yul\":13641:13647   */\n      dup9\n        /* \"#utility.yul\":13637:13651   */\n      mul\n        /* \"#utility.yul\":13633:13655   */\n      add\n        /* \"#utility.yul\":13627:13631   */\n      dup9\n        /* \"#utility.yul\":13620:13656   */\n      sstore\n        /* \"#utility.yul\":13055:13666   */\n      pop\n      pop\n      pop\n        /* \"#utility.yul\":13018:13905   */\n    tag_304:\n      pop\n        /* \"#utility.yul\":12608:13911   */\n      pop\n      pop\n      pop\n        /* \"#utility.yul\":12516:13911   */\n      pop\n      pop\n      jump\t// out\n        /* \"#utility.yul\":13917:14097   */\n    tag_145:\n        /* \"#utility.yul\":13965:14042   */\n      0x4e487b7100000000000000000000000000000000000000000000000000000000\n        /* \"#utility.yul\":13962:13963   */\n      0x00\n        /* \"#utility.yul\":13955:14043   */\n      mstore\n        /* \"#utility.yul\":14062:14066   */\n      0x11\n        /* \"#utility.yul\":14059:14060   */\n      0x04\n        /* \"#utility.yul\":14052:14067   */\n      mstore\n        /* \"#utility.yul\":14086:14090   */\n      0x24\n        /* \"#utility.yul\":14083:14084   */\n      0x00\n        /* \"#utility.yul\":14076:14091   */\n      revert\n        /* \"#utility.yul\":14103:14294   */\n    tag_59:\n        /* \"#utility.yul\":14143:14146   */\n      0x00\n        /* \"#utility.yul\":14162:14182   */\n      tag_316\n        /* \"#utility.yul\":14180:14181   */\n      dup3\n        /* \"#utility.yul\":14162:14182   */\n      tag_105\n      jump\t// in\n    tag_316:\n        /* \"#utility.yul\":14157:14182   */\n      swap2\n      pop\n        /* \"#utility.yul\":14196:14216   */\n      tag_317\n        /* \"#utility.yul\":14214:14215   */\n      dup4\n        /* \"#utility.yul\":14196:14216   */\n      tag_105\n      jump\t// in\n    tag_317:\n        /* \"#utility.yul\":14191:14216   */\n      swap3\n      pop\n        /* \"#utility.yul\":14239:14240   */\n      dup3\n        /* \"#utility.yul\":14236:14237   */\n      dup3\n        /* \"#utility.yul\":14232:14241   */\n      add\n        /* \"#utility.yul\":14225:14241   */\n      swap1\n      pop\n        /* \"#utility.yul\":14260:14263   */\n      dup1\n        /* \"#utility.yul\":14257:14258   */\n      dup3\n        /* \"#utility.yul\":14254:14264   */\n      gt\n        /* \"#utility.yul\":14251:14287   */\n      iszero\n      tag_318\n      jumpi\n        /* \"#utility.yul\":14267:14285   */\n      tag_319\n      tag_145\n      jump\t// in\n    tag_319:\n        /* \"#utility.yul\":14251:14287   */\n    tag_318:\n        /* \"#utility.yul\":14103:14294   */\n      swap3\n      swap2\n      pop\n      pop\n      jump\t// out\n        /* \"#utility.yul\":14300:14833   */\n    tag_61:\n        /* \"#utility.yul\":14469:14473   */\n      0x00\n        /* \"#utility.yul\":14507:14509   */\n      0x60\n        /* \"#utility.yul\":14496:14505   */\n      dup3\n        /* \"#utility.yul\":14492:14510   */\n      add\n        /* \"#utility.yul\":14484:14510   */\n      swap1\n      pop\n        /* \"#utility.yul\":14520:14591   */\n      tag_321\n        /* \"#utility.yul\":14588:14589   */\n      0x00\n        /* \"#utility.yul\":14577:14586   */\n      dup4\n        /* \"#utility.yul\":14573:14590   */\n      add\n        /* \"#utility.yul\":14564:14570   */\n      dup7\n        /* \"#utility.yul\":14520:14591   */\n      tag_114\n      jump\t// in\n    tag_321:\n        /* \"#utility.yul\":14601:14673   */\n      tag_322\n        /* \"#utility.yul\":14669:14671   */\n      0x20\n        /* \"#utility.yul\":14658:14667   */\n      dup4\n        /* \"#utility.yul\":14654:14672   */\n      add\n        /* \"#utility.yul\":14645:14651   */\n      dup6\n        /* \"#utility.yul\":14601:14673   */\n      tag_113\n      jump\t// in\n    tag_322:\n        /* \"#utility.yul\":14720:14729   */\n      dup2\n        /* \"#utility.yul\":14714:14718   */\n      dup2\n        /* \"#utility.yul\":14710:14730   */\n      sub\n        /* \"#utility.yul\":14705:14707   */\n      0x40\n        /* \"#utility.yul\":14694:14703   */\n      dup4\n        /* \"#utility.yul\":14690:14708   */\n      add\n        /* \"#utility.yul\":14683:14731   */\n      mstore\n        /* \"#utility.yul\":14748:14826   */\n      tag_323\n        /* \"#utility.yul\":14821:14825   */\n      dup2\n        /* \"#utility.yul\":14812:14818   */\n      dup5\n        /* \"#utility.yul\":14748:14826   */\n      tag_112\n      jump\t// in\n    tag_323:\n        /* \"#utility.yul\":14740:14826   */\n      swap1\n      pop\n        /* \"#utility.yul\":14300:14833   */\n      swap5\n      swap4\n      pop\n      pop\n      pop\n      pop\n      jump\t// out\n        /* \"#utility.yul\":14839:15060   */\n    tag_146:\n        /* \"#utility.yul\":14979:15013   */\n      0x204f6e6c79204f776e65722063616e2063616e63656c20746865204175637469\n        /* \"#utility.yul\":14975:14976   */\n      0x00\n        /* \"#utility.yul\":14967:14973   */\n      dup3\n        /* \"#utility.yul\":14963:14977   */\n      add\n        /* \"#utility.yul\":14956:15014   */\n      mstore\n        /* \"#utility.yul\":15048:15052   */\n      0x6f6e000000000000000000000000000000000000000000000000000000000000\n        /* \"#utility.yul\":15043:15045   */\n      0x20\n        /* \"#utility.yul\":15035:15041   */\n      dup3\n        /* \"#utility.yul\":15031:15046   */\n      add\n        /* \"#utility.yul\":15024:15053   */\n      mstore\n        /* \"#utility.yul\":14839:15060   */\n      pop\n      jump\t// out\n        /* \"#utility.yul\":15066:15432   */\n    tag_147:\n        /* \"#utility.yul\":15208:15211   */\n      0x00\n        /* \"#utility.yul\":15229:15296   */\n      tag_326\n        /* \"#utility.yul\":15293:15295   */\n      0x22\n        /* \"#utility.yul\":15288:15291   */\n      dup4\n        /* \"#utility.yul\":15229:15296   */\n      tag_109\n      jump\t// in\n    tag_326:\n        /* \"#utility.yul\":15222:15296   */\n      swap2\n      pop\n        /* \"#utility.yul\":15305:15398   */\n      tag_327\n        /* \"#utility.yul\":15394:15397   */\n      dup3\n        /* \"#utility.yul\":15305:15398   */\n      tag_146\n      jump\t// in\n    tag_327:\n        /* \"#utility.yul\":15423:15425   */\n      0x40\n        /* \"#utility.yul\":15418:15421   */\n      dup3\n        /* \"#utility.yul\":15414:15426   */\n      add\n        /* \"#utility.yul\":15407:15426   */\n      swap1\n      pop\n        /* \"#utility.yul\":15066:15432   */\n      swap2\n      swap1\n      pop\n      jump\t// out\n        /* \"#utility.yul\":15438:15857   */\n    tag_67:\n        /* \"#utility.yul\":15604:15608   */\n      0x00\n        /* \"#utility.yul\":15642:15644   */\n      0x20\n        /* \"#utility.yul\":15631:15640   */\n      dup3\n        /* \"#utility.yul\":15627:15645   */\n      add\n        /* \"#utility.yul\":15619:15645   */\n      swap1\n      pop\n        /* \"#utility.yul\":15691:15700   */\n      dup2\n        /* \"#utility.yul\":15685:15689   */\n      dup2\n        /* \"#utility.yul\":15681:15701   */\n      sub\n        /* \"#utility.yul\":15677:15678   */\n      0x00\n        /* \"#utility.yul\":15666:15675   */\n      dup4\n        /* \"#utility.yul\":15662:15679   */\n      add\n        /* \"#utility.yul\":15655:15702   */\n      mstore\n        /* \"#utility.yul\":15719:15850   */\n      tag_329\n        /* \"#utility.yul\":15845:15849   */\n      dup2\n        /* \"#utility.yul\":15719:15850   */\n      tag_147\n      jump\t// in\n    tag_329:\n        /* \"#utility.yul\":15711:15850   */\n      swap1\n      pop\n        /* \"#utility.yul\":15438:15857   */\n      swap2\n      swap1\n      pop\n      jump\t// out\n        /* \"#utility.yul\":15863:16012   */\n    tag_148:\n        /* \"#utility.yul\":15912:15918   */\n      0x00\n        /* \"#utility.yul\":15946:15951   */\n      dup2\n        /* \"#utility.yul\":15940:15952   */\n      sload\n        /* \"#utility.yul\":15930:15952   */\n      swap1\n      pop\n        /* \"#utility.yul\":15972:16005   */\n      tag_331\n        /* \"#utility.yul\":15998:16004   */\n      dup2\n        /* \"#utility.yul\":15972:16005   */\n      tag_47\n      jump\t// in\n    tag_331:\n        /* \"#utility.yul\":15962:16005   */\n      swap1\n      pop\n        /* \"#utility.yul\":15863:16012   */\n      swap2\n      swap1\n      pop\n      jump\t// out\n        /* \"#utility.yul\":16018:17469   */\n    tag_74:\n        /* \"#utility.yul\":16129:16132   */\n      dup2\n        /* \"#utility.yul\":16123:16127   */\n      dup2\n        /* \"#utility.yul\":16120:16133   */\n      sub\n        /* \"#utility.yul\":16117:16143   */\n      tag_333\n      jumpi\n        /* \"#utility.yul\":16136:16141   */\n      pop\n      pop\n      jump(tag_332)\n        /* \"#utility.yul\":16117:16143   */\n    tag_333:\n        /* \"#utility.yul\":16167:16201   */\n      tag_334\n        /* \"#utility.yul\":16197:16200   */\n      dup3\n        /* \"#utility.yul\":16167:16201   */\n      tag_148\n      jump\t// in\n    tag_334:\n        /* \"#utility.yul\":16266:16284   */\n      0xffffffffffffffff\n        /* \"#utility.yul\":16258:16264   */\n      dup2\n        /* \"#utility.yul\":16255:16285   */\n      gt\n        /* \"#utility.yul\":16252:16308   */\n      iszero\n      tag_335\n      jumpi\n        /* \"#utility.yul\":16288:16306   */\n      tag_336\n      tag_117\n      jump\t// in\n    tag_336:\n        /* \"#utility.yul\":16252:16308   */\n    tag_335:\n        /* \"#utility.yul\":16332:16370   */\n      tag_337\n        /* \"#utility.yul\":16364:16368   */\n      dup3\n        /* \"#utility.yul\":16358:16369   */\n      sload\n        /* \"#utility.yul\":16332:16370   */\n      tag_47\n      jump\t// in\n    tag_337:\n        /* \"#utility.yul\":16417:16484   */\n      tag_338\n        /* \"#utility.yul\":16477:16483   */\n      dup3\n        /* \"#utility.yul\":16469:16475   */\n      dup3\n        /* \"#utility.yul\":16463:16467   */\n      dup6\n        /* \"#utility.yul\":16417:16484   */\n      tag_141\n      jump\t// in\n    tag_338:\n        /* \"#utility.yul\":16511:16512   */\n      0x00\n        /* \"#utility.yul\":16540:16542   */\n      0x1f\n        /* \"#utility.yul\":16532:16538   */\n      dup4\n        /* \"#utility.yul\":16529:16543   */\n      gt\n        /* \"#utility.yul\":16557:16558   */\n      0x01\n        /* \"#utility.yul\":16552:17224   */\n      dup2\n      eq\n      tag_340\n      jumpi\n        /* \"#utility.yul\":17268:17269   */\n      0x00\n        /* \"#utility.yul\":17285:17291   */\n      dup5\n        /* \"#utility.yul\":17282:17359   */\n      iszero\n      tag_341\n      jumpi\n        /* \"#utility.yul\":17334:17343   */\n      dup3\n        /* \"#utility.yul\":17329:17332   */\n      dup8\n        /* \"#utility.yul\":17325:17344   */\n      add\n        /* \"#utility.yul\":17319:17345   */\n      sload\n        /* \"#utility.yul\":17310:17345   */\n      swap1\n      pop\n        /* \"#utility.yul\":17282:17359   */\n    tag_341:\n        /* \"#utility.yul\":17385:17452   */\n      tag_342\n        /* \"#utility.yul\":17445:17451   */\n      dup6\n        /* \"#utility.yul\":17438:17443   */\n      dup3\n        /* \"#utility.yul\":17385:17452   */\n      tag_144\n      jump\t// in\n    tag_342:\n        /* \"#utility.yul\":17379:17383   */\n      dup7\n        /* \"#utility.yul\":17372:17453   */\n      sstore\n        /* \"#utility.yul\":17241:17463   */\n      pop\n        /* \"#utility.yul\":16522:17463   */\n      jump(tag_339)\n        /* \"#utility.yul\":16552:17224   */\n    tag_340:\n        /* \"#utility.yul\":16604:16608   */\n      0x1f\n        /* \"#utility.yul\":16600:16609   */\n      not\n        /* \"#utility.yul\":16592:16598   */\n      dup5\n        /* \"#utility.yul\":16588:16610   */\n      and\n        /* \"#utility.yul\":16630:16666   */\n      tag_343\n        /* \"#utility.yul\":16662:16665   */\n      dup8\n        /* \"#utility.yul\":16630:16666   */\n      tag_130\n      jump\t// in\n    tag_343:\n        /* \"#utility.yul\":16623:16666   */\n      swap7\n      pop\n        /* \"#utility.yul\":16693:16730   */\n      tag_344\n        /* \"#utility.yul\":16725:16729   */\n      dup7\n        /* \"#utility.yul\":16693:16730   */\n      tag_130\n      jump\t// in\n    tag_344:\n        /* \"#utility.yul\":16752:16753   */\n      0x00\n        /* \"#utility.yul\":16766:16973   */\n    tag_345:\n        /* \"#utility.yul\":16780:16787   */\n      dup3\n        /* \"#utility.yul\":16777:16778   */\n      dup2\n        /* \"#utility.yul\":16774:16788   */\n      lt\n        /* \"#utility.yul\":16766:16973   */\n      iszero\n      tag_347\n      jumpi\n        /* \"#utility.yul\":16859:16868   */\n      dup5\n        /* \"#utility.yul\":16854:16857   */\n      dup10\n        /* \"#utility.yul\":16850:16869   */\n      add\n        /* \"#utility.yul\":16844:16870   */\n      sload\n        /* \"#utility.yul\":16836:16842   */\n      dup3\n        /* \"#utility.yul\":16829:16871   */\n      sstore\n        /* \"#utility.yul\":16910:16911   */\n      0x01\n        /* \"#utility.yul\":16902:16908   */\n      dup3\n        /* \"#utility.yul\":16898:16912   */\n      add\n        /* \"#utility.yul\":16888:16912   */\n      swap2\n      pop\n        /* \"#utility.yul\":16957:16958   */\n      0x01\n        /* \"#utility.yul\":16946:16955   */\n      dup6\n        /* \"#utility.yul\":16942:16959   */\n      add\n        /* \"#utility.yul\":16929:16959   */\n      swap5\n      pop\n        /* \"#utility.yul\":16803:16807   */\n      0x20\n        /* \"#utility.yul\":16800:16801   */\n      dup2\n        /* \"#utility.yul\":16796:16808   */\n      add\n        /* \"#utility.yul\":16791:16808   */\n      swap1\n      pop\n        /* \"#utility.yul\":16766:16973   */\n      jump(tag_345)\n    tag_347:\n        /* \"#utility.yul\":17001:17007   */\n      dup7\n        /* \"#utility.yul\":16992:16999   */\n      dup4\n        /* \"#utility.yul\":16989:17008   */\n      lt\n        /* \"#utility.yul\":16986:17165   */\n      iszero\n      tag_348\n      jumpi\n        /* \"#utility.yul\":17059:17068   */\n      dup5\n        /* \"#utility.yul\":17054:17057   */\n      dup10\n        /* \"#utility.yul\":17050:17069   */\n      add\n        /* \"#utility.yul\":17044:17070   */\n      sload\n        /* \"#utility.yul\":17102:17150   */\n      tag_349\n        /* \"#utility.yul\":17144:17148   */\n      0x1f\n        /* \"#utility.yul\":17136:17142   */\n      dup10\n        /* \"#utility.yul\":17132:17149   */\n      and\n        /* \"#utility.yul\":17121:17130   */\n      dup3\n        /* \"#utility.yul\":17102:17150   */\n      tag_143\n      jump\t// in\n    tag_349:\n        /* \"#utility.yul\":17094:17100   */\n      dup4\n        /* \"#utility.yul\":17087:17151   */\n      sstore\n        /* \"#utility.yul\":17009:17165   */\n      pop\n        /* \"#utility.yul\":16986:17165   */\n    tag_348:\n        /* \"#utility.yul\":17211:17212   */\n      0x01\n        /* \"#utility.yul\":17207:17208   */\n      0x02\n        /* \"#utility.yul\":17199:17205   */\n      dup9\n        /* \"#utility.yul\":17195:17209   */\n      mul\n        /* \"#utility.yul\":17191:17213   */\n      add\n        /* \"#utility.yul\":17185:17189   */\n      dup9\n        /* \"#utility.yul\":17178:17214   */\n      sstore\n        /* \"#utility.yul\":16559:17224   */\n      pop\n      pop\n      pop\n        /* \"#utility.yul\":16522:17463   */\n    tag_339:\n      pop\n        /* \"#utility.yul\":16107:17469   */\n      pop\n      pop\n      pop\n        /* \"#utility.yul\":16018:17469   */\n      pop\n      pop\n    tag_332:\n      jump\t// out\n        /* \"#utility.yul\":17475:17651   */\n    tag_149:\n        /* \"#utility.yul\":17615:17643   */\n      0x204e6f7468696e6720746f20506c616365207468652042696420000000000000\n        /* \"#utility.yul\":17611:17612   */\n      0x00\n        /* \"#utility.yul\":17603:17609   */\n      dup3\n        /* \"#utility.yul\":17599:17613   */\n      add\n        /* \"#utility.yul\":17592:17644   */\n      mstore\n        /* \"#utility.yul\":17475:17651   */\n      pop\n      jump\t// out\n        /* \"#utility.yul\":17657:18023   */\n    tag_150:\n        /* \"#utility.yul\":17799:17802   */\n      0x00\n        /* \"#utility.yul\":17820:17887   */\n      tag_352\n        /* \"#utility.yul\":17884:17886   */\n      0x1a\n        /* \"#utility.yul\":17879:17882   */\n      dup4\n        /* \"#utility.yul\":17820:17887   */\n      tag_109\n      jump\t// in\n    tag_352:\n        /* \"#utility.yul\":17813:17887   */\n      swap2\n      pop\n        /* \"#utility.yul\":17896:17989   */\n      tag_353\n        /* \"#utility.yul\":17985:17988   */\n      dup3\n        /* \"#utility.yul\":17896:17989   */\n      tag_149\n      jump\t// in\n    tag_353:\n        /* \"#utility.yul\":18014:18016   */\n      0x20\n        /* \"#utility.yul\":18009:18012   */\n      dup3\n        /* \"#utility.yul\":18005:18017   */\n      add\n        /* \"#utility.yul\":17998:18017   */\n      swap1\n      pop\n        /* \"#utility.yul\":17657:18023   */\n      swap2\n      swap1\n      pop\n      jump\t// out\n        /* \"#utility.yul\":18029:18448   */\n    tag_80:\n        /* \"#utility.yul\":18195:18199   */\n      0x00\n        /* \"#utility.yul\":18233:18235   */\n      0x20\n        /* \"#utility.yul\":18222:18231   */\n      dup3\n        /* \"#utility.yul\":18218:18236   */\n      add\n        /* \"#utility.yul\":18210:18236   */\n      swap1\n      pop\n        /* \"#utility.yul\":18282:18291   */\n      dup2\n        /* \"#utility.yul\":18276:18280   */\n      dup2\n        /* \"#utility.yul\":18272:18292   */\n      sub\n        /* \"#utility.yul\":18268:18269   */\n      0x00\n        /* \"#utility.yul\":18257:18266   */\n      dup4\n        /* \"#utility.yul\":18253:18270   */\n      add\n        /* \"#utility.yul\":18246:18293   */\n      mstore\n        /* \"#utility.yul\":18310:18441   */\n      tag_355\n        /* \"#utility.yul\":18436:18440   */\n      dup2\n        /* \"#utility.yul\":18310:18441   */\n      tag_150\n      jump\t// in\n    tag_355:\n        /* \"#utility.yul\":18302:18441   */\n      swap1\n      pop\n        /* \"#utility.yul\":18029:18448   */\n      swap2\n      swap1\n      pop\n      jump\t// out\n        /* \"#utility.yul\":18454:18635   */\n    tag_151:\n        /* \"#utility.yul\":18594:18627   */\n      0x20496e6372656173652074686520616d6f756e74206279203120657468657200\n        /* \"#utility.yul\":18590:18591   */\n      0x00\n        /* \"#utility.yul\":18582:18588   */\n      dup3\n        /* \"#utility.yul\":18578:18592   */\n      add\n        /* \"#utility.yul\":18571:18628   */\n      mstore\n        /* \"#utility.yul\":18454:18635   */\n      pop\n      jump\t// out\n        /* \"#utility.yul\":18641:19007   */\n    tag_152:\n        /* \"#utility.yul\":18783:18786   */\n      0x00\n        /* \"#utility.yul\":18804:18871   */\n      tag_358\n        /* \"#utility.yul\":18868:18870   */\n      0x1f\n        /* \"#utility.yul\":18863:18866   */\n      dup4\n        /* \"#utility.yul\":18804:18871   */\n      tag_109\n      jump\t// in\n    tag_358:\n        /* \"#utility.yul\":18797:18871   */\n      swap2\n      pop\n        /* \"#utility.yul\":18880:18973   */\n      tag_359\n        /* \"#utility.yul\":18969:18972   */\n      dup3\n        /* \"#utility.yul\":18880:18973   */\n      tag_151\n      jump\t// in\n    tag_359:\n        /* \"#utility.yul\":18998:19000   */\n      0x20\n        /* \"#utility.yul\":18993:18996   */\n      dup3\n        /* \"#utility.yul\":18989:19001   */\n      add\n        /* \"#utility.yul\":18982:19001   */\n      swap1\n      pop\n        /* \"#utility.yul\":18641:19007   */\n      swap2\n      swap1\n      pop\n      jump\t// out\n        /* \"#utility.yul\":19013:19432   */\n    tag_83:\n        /* \"#utility.yul\":19179:19183   */\n      0x00\n        /* \"#utility.yul\":19217:19219   */\n      0x20\n        /* \"#utility.yul\":19206:19215   */\n      dup3\n        /* \"#utility.yul\":19202:19220   */\n      add\n        /* \"#utility.yul\":19194:19220   */\n      swap1\n      pop\n        /* \"#utility.yul\":19266:19275   */\n      dup2\n        /* \"#utility.yul\":19260:19264   */\n      dup2\n        /* \"#utility.yul\":19256:19276   */\n      sub\n        /* \"#utility.yul\":19252:19253   */\n      0x00\n        /* \"#utility.yul\":19241:19250   */\n      dup4\n        /* \"#utility.yul\":19237:19254   */\n      add\n        /* \"#utility.yul\":19230:19277   */\n      mstore\n        /* \"#utility.yul\":19294:19425   */\n      tag_361\n        /* \"#utility.yul\":19420:19424   */\n      dup2\n        /* \"#utility.yul\":19294:19425   */\n      tag_152\n      jump\t// in\n    tag_361:\n        /* \"#utility.yul\":19286:19425   */\n      swap1\n      pop\n        /* \"#utility.yul\":19013:19432   */\n      swap2\n      swap1\n      pop\n      jump\t// out\n        /* \"#utility.yul\":19438:19606   */\n    tag_153:\n        /* \"#utility.yul\":19578:19598   */\n      0x4e6f7420612056616c696420416d6f756e740000000000000000000000000000\n        /* \"#utility.yul\":19574:19575   */\n      0x00\n        /* \"#utility.yul\":19566:19572   */\n      dup3\n        /* \"#utility.yul\":19562:19576   */\n      add\n        /* \"#utility.yul\":19555:19599   */\n      mstore\n        /* \"#utility.yul\":19438:19606   */\n      pop\n      jump\t// out\n        /* \"#utility.yul\":19612:19978   */\n    tag_154:\n        /* \"#utility.yul\":19754:19757   */\n      0x00\n        /* \"#utility.yul\":19775:19842   */\n      tag_364\n        /* \"#utility.yul\":19839:19841   */\n      0x12\n        /* \"#utility.yul\":19834:19837   */\n      dup4\n        /* \"#utility.yul\":19775:19842   */\n      tag_109\n      jump\t// in\n    tag_364:\n        /* \"#utility.yul\":19768:19842   */\n      swap2\n      pop\n        /* \"#utility.yul\":19851:19944   */\n      tag_365\n        /* \"#utility.yul\":19940:19943   */\n      dup3\n        /* \"#utility.yul\":19851:19944   */\n      tag_153\n      jump\t// in\n    tag_365:\n        /* \"#utility.yul\":19969:19971   */\n      0x20\n        /* \"#utility.yul\":19964:19967   */\n      dup3\n        /* \"#utility.yul\":19960:19972   */\n      add\n        /* \"#utility.yul\":19953:19972   */\n      swap1\n      pop\n        /* \"#utility.yul\":19612:19978   */\n      swap2\n      swap1\n      pop\n      jump\t// out\n        /* \"#utility.yul\":19984:20403   */\n    tag_86:\n        /* \"#utility.yul\":20150:20154   */\n      0x00\n        /* \"#utility.yul\":20188:20190   */\n      0x20\n        /* \"#utility.yul\":20177:20186   */\n      dup3\n        /* \"#utility.yul\":20173:20191   */\n      add\n        /* \"#utility.yul\":20165:20191   */\n      swap1\n      pop\n        /* \"#utility.yul\":20237:20246   */\n      dup2\n        /* \"#utility.yul\":20231:20235   */\n      dup2\n        /* \"#utility.yul\":20227:20247   */\n      sub\n        /* \"#utility.yul\":20223:20224   */\n      0x00\n        /* \"#utility.yul\":20212:20221   */\n      dup4\n        /* \"#utility.yul\":20208:20225   */\n      add\n        /* \"#utility.yul\":20201:20248   */\n      mstore\n        /* \"#utility.yul\":20265:20396   */\n      tag_367\n        /* \"#utility.yul\":20391:20395   */\n      dup2\n        /* \"#utility.yul\":20265:20396   */\n      tag_154\n      jump\t// in\n    tag_367:\n        /* \"#utility.yul\":20257:20396   */\n      swap1\n      pop\n        /* \"#utility.yul\":19984:20403   */\n      swap2\n      swap1\n      pop\n      jump\t// out\n        /* \"#utility.yul\":20409:20741   */\n    tag_90:\n        /* \"#utility.yul\":20530:20534   */\n      0x00\n        /* \"#utility.yul\":20568:20570   */\n      0x40\n        /* \"#utility.yul\":20557:20566   */\n      dup3\n        /* \"#utility.yul\":20553:20571   */\n      add\n        /* \"#utility.yul\":20545:20571   */\n      swap1\n      pop\n        /* \"#utility.yul\":20581:20652   */\n      tag_369\n        /* \"#utility.yul\":20649:20650   */\n      0x00\n        /* \"#utility.yul\":20638:20647   */\n      dup4\n        /* \"#utility.yul\":20634:20651   */\n      add\n        /* \"#utility.yul\":20625:20631   */\n      dup6\n        /* \"#utility.yul\":20581:20652   */\n      tag_114\n      jump\t// in\n    tag_369:\n        /* \"#utility.yul\":20662:20734   */\n      tag_370\n        /* \"#utility.yul\":20730:20732   */\n      0x20\n        /* \"#utility.yul\":20719:20728   */\n      dup4\n        /* \"#utility.yul\":20715:20733   */\n      add\n        /* \"#utility.yul\":20706:20712   */\n      dup5\n        /* \"#utility.yul\":20662:20734   */\n      tag_113\n      jump\t// in\n    tag_370:\n        /* \"#utility.yul\":20409:20741   */\n      swap4\n      swap3\n      pop\n      pop\n      pop\n      jump\t// out\n\n    auxdata: 0xa2646970667358221220310659fbd4d72de9f8d88bcc450eb57bbee12bdd887570c8f53e0583fba943a164736f6c63430008120033\n}\n",
				"bytecode": {
					"linkReferences": {},
					"object": "608060405234801561001057600080fd5b50611c9e806100206000396000f3fe6080604052600436106100705760003560e01c80638226508d1161004e5780638226508d1461011d578063859b97fe1461015a578063c8b5555c14610183578063d98b9bb5146101ac57610070565b8063069ea3621461007557806332627af9146100b75780637090c36e146100e0575b600080fd5b34801561008157600080fd5b5061009c600480360381019061009791906111d2565b6101c8565b6040516100ae969594939291906112c0565b60405180910390f35b3480156100c357600080fd5b506100de60048036038101906100d9919061145d565b6102d9565b005b3480156100ec57600080fd5b50610107600480360381019061010291906111d2565b61061f565b60405161011491906114b9565b60405180910390f35b34801561012957600080fd5b50610144600480360381019061013f91906111d2565b61069c565b60405161015191906114d4565b60405180910390f35b34801561016657600080fd5b50610181600480360381019061017c91906111d2565b6106f9565b005b34801561018f57600080fd5b506101aa60048036038101906101a5919061152d565b610876565b005b6101c660048036038101906101c191906111d2565b610bf0565b005b6000602052816000526040600020602052806000526040600020600091509150508060000180546101f8906115af565b80601f0160208091040260200160405190810160405280929190818152602001828054610224906115af565b80156102715780601f1061024657610100808354040283529160200191610271565b820191906000526020600020905b81548152906001019060200180831161025457829003601f168201915b5050505050908060010154908060020154908060030160009054906101000a900473ffffffffffffffffffffffffffffffffffffffff16908060040154908060050160009054906101000a900473ffffffffffffffffffffffffffffffffffffffff16905086565b600073ffffffffffffffffffffffffffffffffffffffff163373ffffffffffffffffffffffffffffffffffffffff1603610348576040517f08c379a000000000000000000000000000000000000000000000000000000000815260040161033f9061162c565b60405180910390fd5b806000803373ffffffffffffffffffffffffffffffffffffffff1673ffffffffffffffffffffffffffffffffffffffff168152602001908152602001600020600084815260200190815260200160002060000190816103a791906117f8565b5060008060003373ffffffffffffffffffffffffffffffffffffffff1673ffffffffffffffffffffffffffffffffffffffff16815260200190815260200160002060008481526020019081526020016000206001018190555060008060003373ffffffffffffffffffffffffffffffffffffffff1673ffffffffffffffffffffffffffffffffffffffff16815260200190815260200160002060008481526020019081526020016000206002018190555060008060003373ffffffffffffffffffffffffffffffffffffffff1673ffffffffffffffffffffffffffffffffffffffff168152602001908152602001600020600084815260200190815260200160002060030160006101000a81548173ffffffffffffffffffffffffffffffffffffffff021916908373ffffffffffffffffffffffffffffffffffffffff16021790555060008060003373ffffffffffffffffffffffffffffffffffffffff1673ffffffffffffffffffffffffffffffffffffffff168152602001908152602001600020600084815260200190815260200160002060050160006101000a81548173ffffffffffffffffffffffffffffffffffffffff021916908373ffffffffffffffffffffffffffffffffffffffff160217905550610e104261058a91906118f9565b6000803373ffffffffffffffffffffffffffffffffffffffff1673ffffffffffffffffffffffffffffffffffffffff1681526020019081526020016000206000848152602001908152602001600020600401819055507fa7806320b37116843ec008da1594a383d57d02cf004956b72c34754bf63950703383836040516106139392919061192d565b60405180910390a15050565b60008060008473ffffffffffffffffffffffffffffffffffffffff1673ffffffffffffffffffffffffffffffffffffffff168152602001908152602001600020600083815260200190815260200160002060030160009054906101000a900473ffffffffffffffffffffffffffffffffffffffff16905092915050565b60008060008473ffffffffffffffffffffffffffffffffffffffff1673ffffffffffffffffffffffffffffffffffffffff168152602001908152602001600020600083815260200190815260200160002060020154905092915050565b8173ffffffffffffffffffffffffffffffffffffffff163373ffffffffffffffffffffffffffffffffffffffff1614610767576040517f08c379a000000000000000000000000000000000000000000000000000000000815260040161075e906119dd565b60405180910390fd5b6000808373ffffffffffffffffffffffffffffffffffffffff1673ffffffffffffffffffffffffffffffffffffffff168152602001908152602001600020600082815260200190815260200160002060030160009054906101000a900473ffffffffffffffffffffffffffffffffffffffff1673ffffffffffffffffffffffffffffffffffffffff166108fc6000808573ffffffffffffffffffffffffffffffffffffffff1673ffffffffffffffffffffffffffffffffffffffff1681526020019081526020016000206000848152602001908152602001600020600201549081150290604051600060405180830381858888f19350505050158015610871573d6000803e3d6000fd5b505050565b8273ffffffffffffffffffffffffffffffffffffffff166108fc6000808673ffffffffffffffffffffffffffffffffffffffff1673ffffffffffffffffffffffffffffffffffffffff1681526020019081526020016000206000858152602001908152602001600020600201549081150290604051600060405180830381858888f1935050505015801561090e573d6000803e3d6000fd5b506000808473ffffffffffffffffffffffffffffffffffffffff1673ffffffffffffffffffffffffffffffffffffffff16815260200190815260200160002060008381526020019081526020016000206000808060008773ffffffffffffffffffffffffffffffffffffffff1673ffffffffffffffffffffffffffffffffffffffff168152602001908152602001600020600086815260200190815260200160002060030160009054906101000a900473ffffffffffffffffffffffffffffffffffffffff1673ffffffffffffffffffffffffffffffffffffffff1673ffffffffffffffffffffffffffffffffffffffff168152602001908152602001600020600083815260200190815260200160002060008201816000019081610a339190611a13565b5060018201548160010155600282015481600201556003820160009054906101000a900473ffffffffffffffffffffffffffffffffffffffff168160030160006101000a81548173ffffffffffffffffffffffffffffffffffffffff021916908373ffffffffffffffffffffffffffffffffffffffff160217905550600482015481600401556005820160009054906101000a900473ffffffffffffffffffffffffffffffffffffffff168160050160006101000a81548173ffffffffffffffffffffffffffffffffffffffff021916908373ffffffffffffffffffffffffffffffffffffffff1602179055509050506000808473ffffffffffffffffffffffffffffffffffffffff1673ffffffffffffffffffffffffffffffffffffffff168152602001908152602001600020600083815260200190815260200160002060008082016000610b8391906110cd565b600182016000905560028201600090556003820160006101000a81549073ffffffffffffffffffffffffffffffffffffffff021916905560048201600090556005820160006101000a81549073ffffffffffffffffffffffffffffffffffffffff02191690555050505050565b426000808473ffffffffffffffffffffffffffffffffffffffff1673ffffffffffffffffffffffffffffffffffffffff16815260200190815260200160002060008381526020019081526020016000206004015411610c84576040517f08c379a0000000000000000000000000000000000000000000000000000000008152600401610c7b90611b47565b60405180910390fd5b6000808373ffffffffffffffffffffffffffffffffffffffff1673ffffffffffffffffffffffffffffffffffffffff1681526020019081526020016000206000828152602001908152602001600020600201543411610d18576040517f08c379a0000000000000000000000000000000000000000000000000000000008152600401610d0f90611bb3565b60405180910390fd5b670de0b6b3a7640000341015610d63576040517f08c379a0000000000000000000000000000000000000000000000000000000008152600401610d5a90611c1f565b60405180910390fd5b346000808473ffffffffffffffffffffffffffffffffffffffff1673ffffffffffffffffffffffffffffffffffffffff1681526020019081526020016000206000838152602001908152602001600020600101819055506000808373ffffffffffffffffffffffffffffffffffffffff1673ffffffffffffffffffffffffffffffffffffffff1681526020019081526020016000206000828152602001908152602001600020600101546000808473ffffffffffffffffffffffffffffffffffffffff1673ffffffffffffffffffffffffffffffffffffffff168152602001908152602001600020600083815260200190815260200160002060020181905550336000808473ffffffffffffffffffffffffffffffffffffffff1673ffffffffffffffffffffffffffffffffffffffff168152602001908152602001600020600083815260200190815260200160002060050160006101000a81548173ffffffffffffffffffffffffffffffffffffffff021916908373ffffffffffffffffffffffffffffffffffffffff160217905550336000808473ffffffffffffffffffffffffffffffffffffffff1673ffffffffffffffffffffffffffffffffffffffff168152602001908152602001600020600083815260200190815260200160002060030160006101000a81548173ffffffffffffffffffffffffffffffffffffffff021916908373ffffffffffffffffffffffffffffffffffffffff1602179055506000808373ffffffffffffffffffffffffffffffffffffffff1673ffffffffffffffffffffffffffffffffffffffff168152602001908152602001600020600082815260200190815260200160002060050160009054906101000a900473ffffffffffffffffffffffffffffffffffffffff1673ffffffffffffffffffffffffffffffffffffffff166108fc6000808573ffffffffffffffffffffffffffffffffffffffff1673ffffffffffffffffffffffffffffffffffffffff1681526020019081526020016000206000848152602001908152602001600020600201549081150290604051600060405180830381858888f1935050505015801561108f573d6000803e3d6000fd5b507fe684a55f31b79eca403df938249029212a5925ec6be8012e099b45bc1019e5d233346040516110c1929190611c3f565b60405180910390a15050565b5080546110d9906115af565b6000825580601f106110eb575061110a565b601f016020900490600052602060002090810190611109919061110d565b5b50565b5b8082111561112657600081600090555060010161110e565b5090565b6000604051905090565b600080fd5b600080fd5b600073ffffffffffffffffffffffffffffffffffffffff82169050919050565b60006111698261113e565b9050919050565b6111798161115e565b811461118457600080fd5b50565b60008135905061119681611170565b92915050565b6000819050919050565b6111af8161119c565b81146111ba57600080fd5b50565b6000813590506111cc816111a6565b92915050565b600080604083850312156111e9576111e8611134565b5b60006111f785828601611187565b9250506020611208858286016111bd565b9150509250929050565b600081519050919050565b600082825260208201905092915050565b60005b8381101561124c578082015181840152602081019050611231565b60008484015250505050565b6000601f19601f8301169050919050565b600061127482611212565b61127e818561121d565b935061128e81856020860161122e565b61129781611258565b840191505092915050565b6112ab8161119c565b82525050565b6112ba8161115e565b82525050565b600060c08201905081810360008301526112da8189611269565b90506112e960208301886112a2565b6112f660408301876112a2565b61130360608301866112b1565b61131060808301856112a2565b61131d60a08301846112b1565b979650505050505050565b600080fd5b600080fd5b7f4e487b7100000000000000000000000000000000000000000000000000000000600052604160045260246000fd5b61136a82611258565b810181811067ffffffffffffffff8211171561138957611388611332565b5b80604052505050565b600061139c61112a565b90506113a88282611361565b919050565b600067ffffffffffffffff8211156113c8576113c7611332565b5b6113d182611258565b9050602081019050919050565b82818337600083830152505050565b60006114006113fb846113ad565b611392565b90508281526020810184848401111561141c5761141b61132d565b5b6114278482856113de565b509392505050565b600082601f83011261144457611443611328565b5b81356114548482602086016113ed565b91505092915050565b6000806040838503121561147457611473611134565b5b6000611482858286016111bd565b925050602083013567ffffffffffffffff8111156114a3576114a2611139565b5b6114af8582860161142f565b9150509250929050565b60006020820190506114ce60008301846112b1565b92915050565b60006020820190506114e960008301846112a2565b92915050565b60006114fa8261113e565b9050919050565b61150a816114ef565b811461151557600080fd5b50565b60008135905061152781611501565b92915050565b60008060006060848603121561154657611545611134565b5b600061155486828701611518565b9350506020611565868287016111bd565b9250506040611576868287016111bd565b9150509250925092565b7f4e487b7100000000000000000000000000000000000000000000000000000000600052602260045260246000fd5b600060028204905060018216806115c757607f821691505b6020821081036115da576115d9611580565b5b50919050565b7f4e6f742056616c69640000000000000000000000000000000000000000000000600082015250565b600061161660098361121d565b9150611621826115e0565b602082019050919050565b6000602082019050818103600083015261164581611609565b9050919050565b60008190508160005260206000209050919050565b60006020601f8301049050919050565b600082821b905092915050565b6000600883026116ae7fffffffffffffffffffffffffffffffffffffffffffffffffffffffffffffffff82611671565b6116b88683611671565b95508019841693508086168417925050509392505050565b6000819050919050565b60006116f56116f06116eb8461119c565b6116d0565b61119c565b9050919050565b6000819050919050565b61170f836116da565b61172361171b826116fc565b84845461167e565b825550505050565b600090565b61173861172b565b611743818484611706565b505050565b5b818110156117675761175c600082611730565b600181019050611749565b5050565b601f8211156117ac5761177d8161164c565b61178684611661565b81016020851015611795578190505b6117a96117a185611661565b830182611748565b50505b505050565b600082821c905092915050565b60006117cf600019846008026117b1565b1980831691505092915050565b60006117e883836117be565b9150826002028217905092915050565b61180182611212565b67ffffffffffffffff81111561181a57611819611332565b5b61182482546115af565b61182f82828561176b565b600060209050601f8311600181146118625760008415611850578287015190505b61185a85826117dc565b8655506118c2565b601f1984166118708661164c565b60005b8281101561189857848901518255600182019150602085019450602081019050611873565b868310156118b557848901516118b1601f8916826117be565b8355505b6001600288020188555050505b505050505050565b7f4e487b7100000000000000000000000000000000000000000000000000000000600052601160045260246000fd5b60006119048261119c565b915061190f8361119c565b9250828201905080821115611927576119266118ca565b5b92915050565b600060608201905061194260008301866112b1565b61194f60208301856112a2565b81810360408301526119618184611269565b9050949350505050565b7f204f6e6c79204f776e65722063616e2063616e63656c2074686520417563746960008201527f6f6e000000000000000000000000000000000000000000000000000000000000602082015250565b60006119c760228361121d565b91506119d28261196b565b604082019050919050565b600060208201905081810360008301526119f6816119ba565b9050919050565b600081549050611a0c816115af565b9050919050565b818103611a21575050611af9565b611a2a826119fd565b67ffffffffffffffff811115611a4357611a42611332565b5b611a4d82546115af565b611a5882828561176b565b6000601f831160018114611a875760008415611a75578287015490505b611a7f85826117dc565b865550611af2565b601f198416611a958761164c565b9650611aa08661164c565b60005b82811015611ac857848901548255600182019150600185019450602081019050611aa3565b86831015611ae55784890154611ae1601f8916826117be565b8355505b6001600288020188555050505b5050505050505b565b7f204e6f7468696e6720746f20506c616365207468652042696420000000000000600082015250565b6000611b31601a8361121d565b9150611b3c82611afb565b602082019050919050565b60006020820190508181036000830152611b6081611b24565b9050919050565b7f20496e6372656173652074686520616d6f756e74206279203120657468657200600082015250565b6000611b9d601f8361121d565b9150611ba882611b67565b602082019050919050565b60006020820190508181036000830152611bcc81611b90565b9050919050565b7f4e6f7420612056616c696420416d6f756e740000000000000000000000000000600082015250565b6000611c0960128361121d565b9150611c1482611bd3565b602082019050919050565b60006020820190508181036000830152611c3881611bfc565b9050919050565b6000604082019050611c5460008301856112b1565b611c6160208301846112a2565b939250505056fea2646970667358221220310659fbd4d72de9f8d88bcc450eb57bbee12bdd887570c8f53e0583fba943a164736f6c63430008120033",
					"opcodes": "PUSH1 0x80 PUSH1 0x40 MSTORE CALLVALUE DUP1 ISZERO PUSH2 0x10 JUMPI PUSH1 0x0 DUP1 REVERT JUMPDEST POP PUSH2 0x1C9E DUP1 PUSH2 0x20 PUSH1 0x0 CODECOPY PUSH1 0x0 RETURN INVALID PUSH1 0x80 PUSH1 0x40 MSTORE PUSH1 0x4 CALLDATASIZE LT PUSH2 0x70 JUMPI PUSH1 0x0 CALLDATALOAD PUSH1 0xE0 SHR DUP1 PUSH4 0x8226508D GT PUSH2 0x4E JUMPI DUP1 PUSH4 0x8226508D EQ PUSH2 0x11D JUMPI DUP1 PUSH4 0x859B97FE EQ PUSH2 0x15A JUMPI DUP1 PUSH4 0xC8B5555C EQ PUSH2 0x183 JUMPI DUP1 PUSH4 0xD98B9BB5 EQ PUSH2 0x1AC JUMPI PUSH2 0x70 JUMP JUMPDEST DUP1 PUSH4 0x69EA362 EQ PUSH2 0x75 JUMPI DUP1 PUSH4 0x32627AF9 EQ PUSH2 0xB7 JUMPI DUP1 PUSH4 0x7090C36E EQ PUSH2 0xE0 JUMPI JUMPDEST PUSH1 0x0 DUP1 REVERT JUMPDEST CALLVALUE DUP1 ISZERO PUSH2 0x81 JUMPI PUSH1 0x0 DUP1 REVERT JUMPDEST POP PUSH2 0x9C PUSH1 0x4 DUP1 CALLDATASIZE SUB DUP2 ADD SWAP1 PUSH2 0x97 SWAP2 SWAP1 PUSH2 0x11D2 JUMP JUMPDEST PUSH2 0x1C8 JUMP JUMPDEST PUSH1 0x40 MLOAD PUSH2 0xAE SWAP7 SWAP6 SWAP5 SWAP4 SWAP3 SWAP2 SWAP1 PUSH2 0x12C0 JUMP JUMPDEST PUSH1 0x40 MLOAD DUP1 SWAP2 SUB SWAP1 RETURN JUMPDEST CALLVALUE DUP1 ISZERO PUSH2 0xC3 JUMPI PUSH1 0x0 DUP1 REVERT JUMPDEST POP PUSH2 0xDE PUSH1 0x4 DUP1 CALLDATASIZE SUB DUP2 ADD SWAP1 PUSH2 0xD9 SWAP2 SWAP1 PUSH2 0x145D JUMP JUMPDEST PUSH2 0x2D9 JUMP JUMPDEST STOP JUMPDEST CALLVALUE DUP1 ISZERO PUSH2 0xEC JUMPI PUSH1 0x0 DUP1 REVERT JUMPDEST POP PUSH2 0x107 PUSH1 0x4 DUP1 CALLDATASIZE SUB DUP2 ADD SWAP1 PUSH2 0x102 SWAP2 SWAP1 PUSH2 0x11D2 JUMP JUMPDEST PUSH2 0x61F JUMP JUMPDEST PUSH1 0x40 MLOAD PUSH2 0x114 SWAP2 SWAP1 PUSH2 0x14B9 JUMP JUMPDEST PUSH1 0x40 MLOAD DUP1 SWAP2 SUB SWAP1 RETURN JUMPDEST CALLVALUE DUP1 ISZERO PUSH2 0x129 JUMPI PUSH1 0x0 DUP1 REVERT JUMPDEST POP PUSH2 0x144 PUSH1 0x4 DUP1 CALLDATASIZE SUB DUP2 ADD SWAP1 PUSH2 0x13F SWAP2 SWAP1 PUSH2 0x11D2 JUMP JUMPDEST PUSH2 0x69C JUMP JUMPDEST PUSH1 0x40 MLOAD PUSH2 0x151 SWAP2 SWAP1 PUSH2 0x14D4 JUMP JUMPDEST PUSH1 0x40 MLOAD DUP1 SWAP2 SUB SWAP1 RETURN JUMPDEST CALLVALUE DUP1 ISZERO PUSH2 0x166 JUMPI PUSH1 0x0 DUP1 REVERT JUMPDEST POP PUSH2 0x181 PUSH1 0x4 DUP1 CALLDATASIZE SUB DUP2 ADD SWAP1 PUSH2 0x17C SWAP2 SWAP1 PUSH2 0x11D2 JUMP JUMPDEST PUSH2 0x6F9 JUMP JUMPDEST STOP JUMPDEST CALLVALUE DUP1 ISZERO PUSH2 0x18F JUMPI PUSH1 0x0 DUP1 REVERT JUMPDEST POP PUSH2 0x1AA PUSH1 0x4 DUP1 CALLDATASIZE SUB DUP2 ADD SWAP1 PUSH2 0x1A5 SWAP2 SWAP1 PUSH2 0x152D JUMP JUMPDEST PUSH2 0x876 JUMP JUMPDEST STOP JUMPDEST PUSH2 0x1C6 PUSH1 0x4 DUP1 CALLDATASIZE SUB DUP2 ADD SWAP1 PUSH2 0x1C1 SWAP2 SWAP1 PUSH2 0x11D2 JUMP JUMPDEST PUSH2 0xBF0 JUMP JUMPDEST STOP JUMPDEST PUSH1 0x0 PUSH1 0x20 MSTORE DUP2 PUSH1 0x0 MSTORE PUSH1 0x40 PUSH1 0x0 KECCAK256 PUSH1 0x20 MSTORE DUP1 PUSH1 0x0 MSTORE PUSH1 0x40 PUSH1 0x0 KECCAK256 PUSH1 0x0 SWAP2 POP SWAP2 POP POP DUP1 PUSH1 0x0 ADD DUP1 SLOAD PUSH2 0x1F8 SWAP1 PUSH2 0x15AF JUMP JUMPDEST DUP1 PUSH1 0x1F ADD PUSH1 0x20 DUP1 SWAP2 DIV MUL PUSH1 0x20 ADD PUSH1 0x40 MLOAD SWAP1 DUP2 ADD PUSH1 0x40 MSTORE DUP1 SWAP3 SWAP2 SWAP1 DUP2 DUP2 MSTORE PUSH1 0x20 ADD DUP3 DUP1 SLOAD PUSH2 0x224 SWAP1 PUSH2 0x15AF JUMP JUMPDEST DUP1 ISZERO PUSH2 0x271 JUMPI DUP1 PUSH1 0x1F LT PUSH2 0x246 JUMPI PUSH2 0x100 DUP1 DUP4 SLOAD DIV MUL DUP4 MSTORE SWAP2 PUSH1 0x20 ADD SWAP2 PUSH2 0x271 JUMP JUMPDEST DUP3 ADD SWAP2 SWAP1 PUSH1 0x0 MSTORE PUSH1 0x20 PUSH1 0x0 KECCAK256 SWAP1 JUMPDEST DUP2 SLOAD DUP2 MSTORE SWAP1 PUSH1 0x1 ADD SWAP1 PUSH1 0x20 ADD DUP1 DUP4 GT PUSH2 0x254 JUMPI DUP3 SWAP1 SUB PUSH1 0x1F AND DUP3 ADD SWAP2 JUMPDEST POP POP POP POP POP SWAP1 DUP1 PUSH1 0x1 ADD SLOAD SWAP1 DUP1 PUSH1 0x2 ADD SLOAD SWAP1 DUP1 PUSH1 0x3 ADD PUSH1 0x0 SWAP1 SLOAD SWAP1 PUSH2 0x100 EXP SWAP1 DIV PUSH20 0xFFFFFFFFFFFFFFFFFFFFFFFFFFFFFFFFFFFFFFFF AND SWAP1 DUP1 PUSH1 0x4 ADD SLOAD SWAP1 DUP1 PUSH1 0x5 ADD PUSH1 0x0 SWAP1 SLOAD SWAP1 PUSH2 0x100 EXP SWAP1 DIV PUSH20 0xFFFFFFFFFFFFFFFFFFFFFFFFFFFFFFFFFFFFFFFF AND SWAP1 POP DUP7 JUMP JUMPDEST PUSH1 0x0 PUSH20 0xFFFFFFFFFFFFFFFFFFFFFFFFFFFFFFFFFFFFFFFF AND CALLER PUSH20 0xFFFFFFFFFFFFFFFFFFFFFFFFFFFFFFFFFFFFFFFF AND SUB PUSH2 0x348 JUMPI PUSH1 0x40 MLOAD PUSH32 0x8C379A000000000000000000000000000000000000000000000000000000000 DUP2 MSTORE PUSH1 0x4 ADD PUSH2 0x33F SWAP1 PUSH2 0x162C JUMP JUMPDEST PUSH1 0x40 MLOAD DUP1 SWAP2 SUB SWAP1 REVERT JUMPDEST DUP1 PUSH1 0x0 DUP1 CALLER PUSH20 0xFFFFFFFFFFFFFFFFFFFFFFFFFFFFFFFFFFFFFFFF AND PUSH20 0xFFFFFFFFFFFFFFFFFFFFFFFFFFFFFFFFFFFFFFFF AND DUP2 MSTORE PUSH1 0x20 ADD SWAP1 DUP2 MSTORE PUSH1 0x20 ADD PUSH1 0x0 KECCAK256 PUSH1 0x0 DUP5 DUP2 MSTORE PUSH1 0x20 ADD SWAP1 DUP2 MSTORE PUSH1 0x20 ADD PUSH1 0x0 KECCAK256 PUSH1 0x0 ADD SWAP1 DUP2 PUSH2 0x3A7 SWAP2 SWAP1 PUSH2 0x17F8 JUMP JUMPDEST POP PUSH1 0x0 DUP1 PUSH1 0x0 CALLER PUSH20 0xFFFFFFFFFFFFFFFFFFFFFFFFFFFFFFFFFFFFFFFF AND PUSH20 0xFFFFFFFFFFFFFFFFFFFFFFFFFFFFFFFFFFFFFFFF AND DUP2 MSTORE PUSH1 0x20 ADD SWAP1 DUP2 MSTORE PUSH1 0x20 ADD PUSH1 0x0 KECCAK256 PUSH1 0x0 DUP5 DUP2 MSTORE PUSH1 0x20 ADD SWAP1 DUP2 MSTORE PUSH1 0x20 ADD PUSH1 0x0 KECCAK256 PUSH1 0x1 ADD DUP2 SWAP1 SSTORE POP PUSH1 0x0 DUP1 PUSH1 0x0 CALLER PUSH20 0xFFFFFFFFFFFFFFFFFFFFFFFFFFFFFFFFFFFFFFFF AND PUSH20 0xFFFFFFFFFFFFFFFFFFFFFFFFFFFFFFFFFFFFFFFF AND DUP2 MSTORE PUSH1 0x20 ADD SWAP1 DUP2 MSTORE PUSH1 0x20 ADD PUSH1 0x0 KECCAK256 PUSH1 0x0 DUP5 DUP2 MSTORE PUSH1 0x20 ADD SWAP1 DUP2 MSTORE PUSH1 0x20 ADD PUSH1 0x0 KECCAK256 PUSH1 0x2 ADD DUP2 SWAP1 SSTORE POP PUSH1 0x0 DUP1 PUSH1 0x0 CALLER PUSH20 0xFFFFFFFFFFFFFFFFFFFFFFFFFFFFFFFFFFFFFFFF AND PUSH20 0xFFFFFFFFFFFFFFFFFFFFFFFFFFFFFFFFFFFFFFFF AND DUP2 MSTORE PUSH1 0x20 ADD SWAP1 DUP2 MSTORE PUSH1 0x20 ADD PUSH1 0x0 KECCAK256 PUSH1 0x0 DUP5 DUP2 MSTORE PUSH1 0x20 ADD SWAP1 DUP2 MSTORE PUSH1 0x20 ADD PUSH1 0x0 KECCAK256 PUSH1 0x3 ADD PUSH1 0x0 PUSH2 0x100 EXP DUP2 SLOAD DUP2 PUSH20 0xFFFFFFFFFFFFFFFFFFFFFFFFFFFFFFFFFFFFFFFF MUL NOT AND SWAP1 DUP4 PUSH20 0xFFFFFFFFFFFFFFFFFFFFFFFFFFFFFFFFFFFFFFFF AND MUL OR SWAP1 SSTORE POP PUSH1 0x0 DUP1 PUSH1 0x0 CALLER PUSH20 0xFFFFFFFFFFFFFFFFFFFFFFFFFFFFFFFFFFFFFFFF AND PUSH20 0xFFFFFFFFFFFFFFFFFFFFFFFFFFFFFFFFFFFFFFFF AND DUP2 MSTORE PUSH1 0x20 ADD SWAP1 DUP2 MSTORE PUSH1 0x20 ADD PUSH1 0x0 KECCAK256 PUSH1 0x0 DUP5 DUP2 MSTORE PUSH1 0x20 ADD SWAP1 DUP2 MSTORE PUSH1 0x20 ADD PUSH1 0x0 KECCAK256 PUSH1 0x5 ADD PUSH1 0x0 PUSH2 0x100 EXP DUP2 SLOAD DUP2 PUSH20 0xFFFFFFFFFFFFFFFFFFFFFFFFFFFFFFFFFFFFFFFF MUL NOT AND SWAP1 DUP4 PUSH20 0xFFFFFFFFFFFFFFFFFFFFFFFFFFFFFFFFFFFFFFFF AND MUL OR SWAP1 SSTORE POP PUSH2 0xE10 TIMESTAMP PUSH2 0x58A SWAP2 SWAP1 PUSH2 0x18F9 JUMP JUMPDEST PUSH1 0x0 DUP1 CALLER PUSH20 0xFFFFFFFFFFFFFFFFFFFFFFFFFFFFFFFFFFFFFFFF AND PUSH20 0xFFFFFFFFFFFFFFFFFFFFFFFFFFFFFFFFFFFFFFFF AND DUP2 MSTORE PUSH1 0x20 ADD SWAP1 DUP2 MSTORE PUSH1 0x20 ADD PUSH1 0x0 KECCAK256 PUSH1 0x0 DUP5 DUP2 MSTORE PUSH1 0x20 ADD SWAP1 DUP2 MSTORE PUSH1 0x20 ADD PUSH1 0x0 KECCAK256 PUSH1 0x4 ADD DUP2 SWAP1 SSTORE POP PUSH32 0xA7806320B37116843EC008DA1594A383D57D02CF004956B72C34754BF6395070 CALLER DUP4 DUP4 PUSH1 0x40 MLOAD PUSH2 0x613 SWAP4 SWAP3 SWAP2 SWAP1 PUSH2 0x192D JUMP JUMPDEST PUSH1 0x40 MLOAD DUP1 SWAP2 SUB SWAP1 LOG1 POP POP JUMP JUMPDEST PUSH1 0x0 DUP1 PUSH1 0x0 DUP5 PUSH20 0xFFFFFFFFFFFFFFFFFFFFFFFFFFFFFFFFFFFFFFFF AND PUSH20 0xFFFFFFFFFFFFFFFFFFFFFFFFFFFFFFFFFFFFFFFF AND DUP2 MSTORE PUSH1 0x20 ADD SWAP1 DUP2 MSTORE PUSH1 0x20 ADD PUSH1 0x0 KECCAK256 PUSH1 0x0 DUP4 DUP2 MSTORE PUSH1 0x20 ADD SWAP1 DUP2 MSTORE PUSH1 0x20 ADD PUSH1 0x0 KECCAK256 PUSH1 0x3 ADD PUSH1 0x0 SWAP1 SLOAD SWAP1 PUSH2 0x100 EXP SWAP1 DIV PUSH20 0xFFFFFFFFFFFFFFFFFFFFFFFFFFFFFFFFFFFFFFFF AND SWAP1 POP SWAP3 SWAP2 POP POP JUMP JUMPDEST PUSH1 0x0 DUP1 PUSH1 0x0 DUP5 PUSH20 0xFFFFFFFFFFFFFFFFFFFFFFFFFFFFFFFFFFFFFFFF AND PUSH20 0xFFFFFFFFFFFFFFFFFFFFFFFFFFFFFFFFFFFFFFFF AND DUP2 MSTORE PUSH1 0x20 ADD SWAP1 DUP2 MSTORE PUSH1 0x20 ADD PUSH1 0x0 KECCAK256 PUSH1 0x0 DUP4 DUP2 MSTORE PUSH1 0x20 ADD SWAP1 DUP2 MSTORE PUSH1 0x20 ADD PUSH1 0x0 KECCAK256 PUSH1 0x2 ADD SLOAD SWAP1 POP SWAP3 SWAP2 POP POP JUMP JUMPDEST DUP2 PUSH20 0xFFFFFFFFFFFFFFFFFFFFFFFFFFFFFFFFFFFFFFFF AND CALLER PUSH20 0xFFFFFFFFFFFFFFFFFFFFFFFFFFFFFFFFFFFFFFFF AND EQ PUSH2 0x767 JUMPI PUSH1 0x40 MLOAD PUSH32 0x8C379A000000000000000000000000000000000000000000000000000000000 DUP2 MSTORE PUSH1 0x4 ADD PUSH2 0x75E SWAP1 PUSH2 0x19DD JUMP JUMPDEST PUSH1 0x40 MLOAD DUP1 SWAP2 SUB SWAP1 REVERT JUMPDEST PUSH1 0x0 DUP1 DUP4 PUSH20 0xFFFFFFFFFFFFFFFFFFFFFFFFFFFFFFFFFFFFFFFF AND PUSH20 0xFFFFFFFFFFFFFFFFFFFFFFFFFFFFFFFFFFFFFFFF AND DUP2 MSTORE PUSH1 0x20 ADD SWAP1 DUP2 MSTORE PUSH1 0x20 ADD PUSH1 0x0 KECCAK256 PUSH1 0x0 DUP3 DUP2 MSTORE PUSH1 0x20 ADD SWAP1 DUP2 MSTORE PUSH1 0x20 ADD PUSH1 0x0 KECCAK256 PUSH1 0x3 ADD PUSH1 0x0 SWAP1 SLOAD SWAP1 PUSH2 0x100 EXP SWAP1 DIV PUSH20 0xFFFFFFFFFFFFFFFFFFFFFFFFFFFFFFFFFFFFFFFF AND PUSH20 0xFFFFFFFFFFFFFFFFFFFFFFFFFFFFFFFFFFFFFFFF AND PUSH2 0x8FC PUSH1 0x0 DUP1 DUP6 PUSH20 0xFFFFFFFFFFFFFFFFFFFFFFFFFFFFFFFFFFFFFFFF AND PUSH20 0xFFFFFFFFFFFFFFFFFFFFFFFFFFFFFFFFFFFFFFFF AND DUP2 MSTORE PUSH1 0x20 ADD SWAP1 DUP2 MSTORE PUSH1 0x20 ADD PUSH1 0x0 KECCAK256 PUSH1 0x0 DUP5 DUP2 MSTORE PUSH1 0x20 ADD SWAP1 DUP2 MSTORE PUSH1 0x20 ADD PUSH1 0x0 KECCAK256 PUSH1 0x2 ADD SLOAD SWAP1 DUP2 ISZERO MUL SWAP1 PUSH1 0x40 MLOAD PUSH1 0x0 PUSH1 0x40 MLOAD DUP1 DUP4 SUB DUP2 DUP6 DUP9 DUP9 CALL SWAP4 POP POP POP POP ISZERO DUP1 ISZERO PUSH2 0x871 JUMPI RETURNDATASIZE PUSH1 0x0 DUP1 RETURNDATACOPY RETURNDATASIZE PUSH1 0x0 REVERT JUMPDEST POP POP POP JUMP JUMPDEST DUP3 PUSH20 0xFFFFFFFFFFFFFFFFFFFFFFFFFFFFFFFFFFFFFFFF AND PUSH2 0x8FC PUSH1 0x0 DUP1 DUP7 PUSH20 0xFFFFFFFFFFFFFFFFFFFFFFFFFFFFFFFFFFFFFFFF AND PUSH20 0xFFFFFFFFFFFFFFFFFFFFFFFFFFFFFFFFFFFFFFFF AND DUP2 MSTORE PUSH1 0x20 ADD SWAP1 DUP2 MSTORE PUSH1 0x20 ADD PUSH1 0x0 KECCAK256 PUSH1 0x0 DUP6 DUP2 MSTORE PUSH1 0x20 ADD SWAP1 DUP2 MSTORE PUSH1 0x20 ADD PUSH1 0x0 KECCAK256 PUSH1 0x2 ADD SLOAD SWAP1 DUP2 ISZERO MUL SWAP1 PUSH1 0x40 MLOAD PUSH1 0x0 PUSH1 0x40 MLOAD DUP1 DUP4 SUB DUP2 DUP6 DUP9 DUP9 CALL SWAP4 POP POP POP POP ISZERO DUP1 ISZERO PUSH2 0x90E JUMPI RETURNDATASIZE PUSH1 0x0 DUP1 RETURNDATACOPY RETURNDATASIZE PUSH1 0x0 REVERT JUMPDEST POP PUSH1 0x0 DUP1 DUP5 PUSH20 0xFFFFFFFFFFFFFFFFFFFFFFFFFFFFFFFFFFFFFFFF AND PUSH20 0xFFFFFFFFFFFFFFFFFFFFFFFFFFFFFFFFFFFFFFFF AND DUP2 MSTORE PUSH1 0x20 ADD SWAP1 DUP2 MSTORE PUSH1 0x20 ADD PUSH1 0x0 KECCAK256 PUSH1 0x0 DUP4 DUP2 MSTORE PUSH1 0x20 ADD SWAP1 DUP2 MSTORE PUSH1 0x20 ADD PUSH1 0x0 KECCAK256 PUSH1 0x0 DUP1 DUP1 PUSH1 0x0 DUP8 PUSH20 0xFFFFFFFFFFFFFFFFFFFFFFFFFFFFFFFFFFFFFFFF AND PUSH20 0xFFFFFFFFFFFFFFFFFFFFFFFFFFFFFFFFFFFFFFFF AND DUP2 MSTORE PUSH1 0x20 ADD SWAP1 DUP2 MSTORE PUSH1 0x20 ADD PUSH1 0x0 KECCAK256 PUSH1 0x0 DUP7 DUP2 MSTORE PUSH1 0x20 ADD SWAP1 DUP2 MSTORE PUSH1 0x20 ADD PUSH1 0x0 KECCAK256 PUSH1 0x3 ADD PUSH1 0x0 SWAP1 SLOAD SWAP1 PUSH2 0x100 EXP SWAP1 DIV PUSH20 0xFFFFFFFFFFFFFFFFFFFFFFFFFFFFFFFFFFFFFFFF AND PUSH20 0xFFFFFFFFFFFFFFFFFFFFFFFFFFFFFFFFFFFFFFFF AND PUSH20 0xFFFFFFFFFFFFFFFFFFFFFFFFFFFFFFFFFFFFFFFF AND DUP2 MSTORE PUSH1 0x20 ADD SWAP1 DUP2 MSTORE PUSH1 0x20 ADD PUSH1 0x0 KECCAK256 PUSH1 0x0 DUP4 DUP2 MSTORE PUSH1 0x20 ADD SWAP1 DUP2 MSTORE PUSH1 0x20 ADD PUSH1 0x0 KECCAK256 PUSH1 0x0 DUP3 ADD DUP2 PUSH1 0x0 ADD SWAP1 DUP2 PUSH2 0xA33 SWAP2 SWAP1 PUSH2 0x1A13 JUMP JUMPDEST POP PUSH1 0x1 DUP3 ADD SLOAD DUP2 PUSH1 0x1 ADD SSTORE PUSH1 0x2 DUP3 ADD SLOAD DUP2 PUSH1 0x2 ADD SSTORE PUSH1 0x3 DUP3 ADD PUSH1 0x0 SWAP1 SLOAD SWAP1 PUSH2 0x100 EXP SWAP1 DIV PUSH20 0xFFFFFFFFFFFFFFFFFFFFFFFFFFFFFFFFFFFFFFFF AND DUP2 PUSH1 0x3 ADD PUSH1 0x0 PUSH2 0x100 EXP DUP2 SLOAD DUP2 PUSH20 0xFFFFFFFFFFFFFFFFFFFFFFFFFFFFFFFFFFFFFFFF MUL NOT AND SWAP1 DUP4 PUSH20 0xFFFFFFFFFFFFFFFFFFFFFFFFFFFFFFFFFFFFFFFF AND MUL OR SWAP1 SSTORE POP PUSH1 0x4 DUP3 ADD SLOAD DUP2 PUSH1 0x4 ADD SSTORE PUSH1 0x5 DUP3 ADD PUSH1 0x0 SWAP1 SLOAD SWAP1 PUSH2 0x100 EXP SWAP1 DIV PUSH20 0xFFFFFFFFFFFFFFFFFFFFFFFFFFFFFFFFFFFFFFFF AND DUP2 PUSH1 0x5 ADD PUSH1 0x0 PUSH2 0x100 EXP DUP2 SLOAD DUP2 PUSH20 0xFFFFFFFFFFFFFFFFFFFFFFFFFFFFFFFFFFFFFFFF MUL NOT AND SWAP1 DUP4 PUSH20 0xFFFFFFFFFFFFFFFFFFFFFFFFFFFFFFFFFFFFFFFF AND MUL OR SWAP1 SSTORE POP SWAP1 POP POP PUSH1 0x0 DUP1 DUP5 PUSH20 0xFFFFFFFFFFFFFFFFFFFFFFFFFFFFFFFFFFFFFFFF AND PUSH20 0xFFFFFFFFFFFFFFFFFFFFFFFFFFFFFFFFFFFFFFFF AND DUP2 MSTORE PUSH1 0x20 ADD SWAP1 DUP2 MSTORE PUSH1 0x20 ADD PUSH1 0x0 KECCAK256 PUSH1 0x0 DUP4 DUP2 MSTORE PUSH1 0x20 ADD SWAP1 DUP2 MSTORE PUSH1 0x20 ADD PUSH1 0x0 KECCAK256 PUSH1 0x0 DUP1 DUP3 ADD PUSH1 0x0 PUSH2 0xB83 SWAP2 SWAP1 PUSH2 0x10CD JUMP JUMPDEST PUSH1 0x1 DUP3 ADD PUSH1 0x0 SWAP1 SSTORE PUSH1 0x2 DUP3 ADD PUSH1 0x0 SWAP1 SSTORE PUSH1 0x3 DUP3 ADD PUSH1 0x0 PUSH2 0x100 EXP DUP2 SLOAD SWAP1 PUSH20 0xFFFFFFFFFFFFFFFFFFFFFFFFFFFFFFFFFFFFFFFF MUL NOT AND SWAP1 SSTORE PUSH1 0x4 DUP3 ADD PUSH1 0x0 SWAP1 SSTORE PUSH1 0x5 DUP3 ADD PUSH1 0x0 PUSH2 0x100 EXP DUP2 SLOAD SWAP1 PUSH20 0xFFFFFFFFFFFFFFFFFFFFFFFFFFFFFFFFFFFFFFFF MUL NOT AND SWAP1 SSTORE POP POP POP POP POP JUMP JUMPDEST TIMESTAMP PUSH1 0x0 DUP1 DUP5 PUSH20 0xFFFFFFFFFFFFFFFFFFFFFFFFFFFFFFFFFFFFFFFF AND PUSH20 0xFFFFFFFFFFFFFFFFFFFFFFFFFFFFFFFFFFFFFFFF AND DUP2 MSTORE PUSH1 0x20 ADD SWAP1 DUP2 MSTORE PUSH1 0x20 ADD PUSH1 0x0 KECCAK256 PUSH1 0x0 DUP4 DUP2 MSTORE PUSH1 0x20 ADD SWAP1 DUP2 MSTORE PUSH1 0x20 ADD PUSH1 0x0 KECCAK256 PUSH1 0x4 ADD SLOAD GT PUSH2 0xC84 JUMPI PUSH1 0x40 MLOAD PUSH32 0x8C379A000000000000000000000000000000000000000000000000000000000 DUP2 MSTORE PUSH1 0x4 ADD PUSH2 0xC7B SWAP1 PUSH2 0x1B47 JUMP JUMPDEST PUSH1 0x40 MLOAD DUP1 SWAP2 SUB SWAP1 REVERT JUMPDEST PUSH1 0x0 DUP1 DUP4 PUSH20 0xFFFFFFFFFFFFFFFFFFFFFFFFFFFFFFFFFFFFFFFF AND PUSH20 0xFFFFFFFFFFFFFFFFFFFFFFFFFFFFFFFFFFFFFFFF AND DUP2 MSTORE PUSH1 0x20 ADD SWAP1 DUP2 MSTORE PUSH1 0x20 ADD PUSH1 0x0 KECCAK256 PUSH1 0x0 DUP3 DUP2 MSTORE PUSH1 0x20 ADD SWAP1 DUP2 MSTORE PUSH1 0x20 ADD PUSH1 0x0 KECCAK256 PUSH1 0x2 ADD SLOAD CALLVALUE GT PUSH2 0xD18 JUMPI PUSH1 0x40 MLOAD PUSH32 0x8C379A000000000000000000000000000000000000000000000000000000000 DUP2 MSTORE PUSH1 0x4 ADD PUSH2 0xD0F SWAP1 PUSH2 0x1BB3 JUMP JUMPDEST PUSH1 0x40 MLOAD DUP1 SWAP2 SUB SWAP1 REVERT JUMPDEST PUSH8 0xDE0B6B3A7640000 CALLVALUE LT ISZERO PUSH2 0xD63 JUMPI PUSH1 0x40 MLOAD PUSH32 0x8C379A000000000000000000000000000000000000000000000000000000000 DUP2 MSTORE PUSH1 0x4 ADD PUSH2 0xD5A SWAP1 PUSH2 0x1C1F JUMP JUMPDEST PUSH1 0x40 MLOAD DUP1 SWAP2 SUB SWAP1 REVERT JUMPDEST CALLVALUE PUSH1 0x0 DUP1 DUP5 PUSH20 0xFFFFFFFFFFFFFFFFFFFFFFFFFFFFFFFFFFFFFFFF AND PUSH20 0xFFFFFFFFFFFFFFFFFFFFFFFFFFFFFFFFFFFFFFFF AND DUP2 MSTORE PUSH1 0x20 ADD SWAP1 DUP2 MSTORE PUSH1 0x20 ADD PUSH1 0x0 KECCAK256 PUSH1 0x0 DUP4 DUP2 MSTORE PUSH1 0x20 ADD SWAP1 DUP2 MSTORE PUSH1 0x20 ADD PUSH1 0x0 KECCAK256 PUSH1 0x1 ADD DUP2 SWAP1 SSTORE POP PUSH1 0x0 DUP1 DUP4 PUSH20 0xFFFFFFFFFFFFFFFFFFFFFFFFFFFFFFFFFFFFFFFF AND PUSH20 0xFFFFFFFFFFFFFFFFFFFFFFFFFFFFFFFFFFFFFFFF AND DUP2 MSTORE PUSH1 0x20 ADD SWAP1 DUP2 MSTORE PUSH1 0x20 ADD PUSH1 0x0 KECCAK256 PUSH1 0x0 DUP3 DUP2 MSTORE PUSH1 0x20 ADD SWAP1 DUP2 MSTORE PUSH1 0x20 ADD PUSH1 0x0 KECCAK256 PUSH1 0x1 ADD SLOAD PUSH1 0x0 DUP1 DUP5 PUSH20 0xFFFFFFFFFFFFFFFFFFFFFFFFFFFFFFFFFFFFFFFF AND PUSH20 0xFFFFFFFFFFFFFFFFFFFFFFFFFFFFFFFFFFFFFFFF AND DUP2 MSTORE PUSH1 0x20 ADD SWAP1 DUP2 MSTORE PUSH1 0x20 ADD PUSH1 0x0 KECCAK256 PUSH1 0x0 DUP4 DUP2 MSTORE PUSH1 0x20 ADD SWAP1 DUP2 MSTORE PUSH1 0x20 ADD PUSH1 0x0 KECCAK256 PUSH1 0x2 ADD DUP2 SWAP1 SSTORE POP CALLER PUSH1 0x0 DUP1 DUP5 PUSH20 0xFFFFFFFFFFFFFFFFFFFFFFFFFFFFFFFFFFFFFFFF AND PUSH20 0xFFFFFFFFFFFFFFFFFFFFFFFFFFFFFFFFFFFFFFFF AND DUP2 MSTORE PUSH1 0x20 ADD SWAP1 DUP2 MSTORE PUSH1 0x20 ADD PUSH1 0x0 KECCAK256 PUSH1 0x0 DUP4 DUP2 MSTORE PUSH1 0x20 ADD SWAP1 DUP2 MSTORE PUSH1 0x20 ADD PUSH1 0x0 KECCAK256 PUSH1 0x5 ADD PUSH1 0x0 PUSH2 0x100 EXP DUP2 SLOAD DUP2 PUSH20 0xFFFFFFFFFFFFFFFFFFFFFFFFFFFFFFFFFFFFFFFF MUL NOT AND SWAP1 DUP4 PUSH20 0xFFFFFFFFFFFFFFFFFFFFFFFFFFFFFFFFFFFFFFFF AND MUL OR SWAP1 SSTORE POP CALLER PUSH1 0x0 DUP1 DUP5 PUSH20 0xFFFFFFFFFFFFFFFFFFFFFFFFFFFFFFFFFFFFFFFF AND PUSH20 0xFFFFFFFFFFFFFFFFFFFFFFFFFFFFFFFFFFFFFFFF AND DUP2 MSTORE PUSH1 0x20 ADD SWAP1 DUP2 MSTORE PUSH1 0x20 ADD PUSH1 0x0 KECCAK256 PUSH1 0x0 DUP4 DUP2 MSTORE PUSH1 0x20 ADD SWAP1 DUP2 MSTORE PUSH1 0x20 ADD PUSH1 0x0 KECCAK256 PUSH1 0x3 ADD PUSH1 0x0 PUSH2 0x100 EXP DUP2 SLOAD DUP2 PUSH20 0xFFFFFFFFFFFFFFFFFFFFFFFFFFFFFFFFFFFFFFFF MUL NOT AND SWAP1 DUP4 PUSH20 0xFFFFFFFFFFFFFFFFFFFFFFFFFFFFFFFFFFFFFFFF AND MUL OR SWAP1 SSTORE POP PUSH1 0x0 DUP1 DUP4 PUSH20 0xFFFFFFFFFFFFFFFFFFFFFFFFFFFFFFFFFFFFFFFF AND PUSH20 0xFFFFFFFFFFFFFFFFFFFFFFFFFFFFFFFFFFFFFFFF AND DUP2 MSTORE PUSH1 0x20 ADD SWAP1 DUP2 MSTORE PUSH1 0x20 ADD PUSH1 0x0 KECCAK256 PUSH1 0x0 DUP3 DUP2 MSTORE PUSH1 0x20 ADD SWAP1 DUP2 MSTORE PUSH1 0x20 ADD PUSH1 0x0 KECCAK256 PUSH1 0x5 ADD PUSH1 0x0 SWAP1 SLOAD SWAP1 PUSH2 0x100 EXP SWAP1 DIV PUSH20 0xFFFFFFFFFFFFFFFFFFFFFFFFFFFFFFFFFFFFFFFF AND PUSH20 0xFFFFFFFFFFFFFFFFFFFFFFFFFFFFFFFFFFFFFFFF AND PUSH2 0x8FC PUSH1 0x0 DUP1 DUP6 PUSH20 0xFFFFFFFFFFFFFFFFFFFFFFFFFFFFFFFFFFFFFFFF AND PUSH20 0xFFFFFFFFFFFFFFFFFFFFFFFFFFFFFFFFFFFFFFFF AND DUP2 MSTORE PUSH1 0x20 ADD SWAP1 DUP2 MSTORE PUSH1 0x20 ADD PUSH1 0x0 KECCAK256 PUSH1 0x0 DUP5 DUP2 MSTORE PUSH1 0x20 ADD SWAP1 DUP2 MSTORE PUSH1 0x20 ADD PUSH1 0x0 KECCAK256 PUSH1 0x2 ADD SLOAD SWAP1 DUP2 ISZERO MUL SWAP1 PUSH1 0x40 MLOAD PUSH1 0x0 PUSH1 0x40 MLOAD DUP1 DUP4 SUB DUP2 DUP6 DUP9 DUP9 CALL SWAP4 POP POP POP POP ISZERO DUP1 ISZERO PUSH2 0x108F JUMPI RETURNDATASIZE PUSH1 0x0 DUP1 RETURNDATACOPY RETURNDATASIZE PUSH1 0x0 REVERT JUMPDEST POP PUSH32 0xE684A55F31B79ECA403DF938249029212A5925EC6BE8012E099B45BC1019E5D2 CALLER CALLVALUE PUSH1 0x40 MLOAD PUSH2 0x10C1 SWAP3 SWAP2 SWAP1 PUSH2 0x1C3F JUMP JUMPDEST PUSH1 0x40 MLOAD DUP1 SWAP2 SUB SWAP1 LOG1 POP POP JUMP JUMPDEST POP DUP1 SLOAD PUSH2 0x10D9 SWAP1 PUSH2 0x15AF JUMP JUMPDEST PUSH1 0x0 DUP3 SSTORE DUP1 PUSH1 0x1F LT PUSH2 0x10EB JUMPI POP PUSH2 0x110A JUMP JUMPDEST PUSH1 0x1F ADD PUSH1 0x20 SWAP1 DIV SWAP1 PUSH1 0x0 MSTORE PUSH1 0x20 PUSH1 0x0 KECCAK256 SWAP1 DUP2 ADD SWAP1 PUSH2 0x1109 SWAP2 SWAP1 PUSH2 0x110D JUMP JUMPDEST JUMPDEST POP JUMP JUMPDEST JUMPDEST DUP1 DUP3 GT ISZERO PUSH2 0x1126 JUMPI PUSH1 0x0 DUP2 PUSH1 0x0 SWAP1 SSTORE POP PUSH1 0x1 ADD PUSH2 0x110E JUMP JUMPDEST POP SWAP1 JUMP JUMPDEST PUSH1 0x0 PUSH1 0x40 MLOAD SWAP1 POP SWAP1 JUMP JUMPDEST PUSH1 0x0 DUP1 REVERT JUMPDEST PUSH1 0x0 DUP1 REVERT JUMPDEST PUSH1 0x0 PUSH20 0xFFFFFFFFFFFFFFFFFFFFFFFFFFFFFFFFFFFFFFFF DUP3 AND SWAP1 POP SWAP2 SWAP1 POP JUMP JUMPDEST PUSH1 0x0 PUSH2 0x1169 DUP3 PUSH2 0x113E JUMP JUMPDEST SWAP1 POP SWAP2 SWAP1 POP JUMP JUMPDEST PUSH2 0x1179 DUP2 PUSH2 0x115E JUMP JUMPDEST DUP2 EQ PUSH2 0x1184 JUMPI PUSH1 0x0 DUP1 REVERT JUMPDEST POP JUMP JUMPDEST PUSH1 0x0 DUP2 CALLDATALOAD SWAP1 POP PUSH2 0x1196 DUP2 PUSH2 0x1170 JUMP JUMPDEST SWAP3 SWAP2 POP POP JUMP JUMPDEST PUSH1 0x0 DUP2 SWAP1 POP SWAP2 SWAP1 POP JUMP JUMPDEST PUSH2 0x11AF DUP2 PUSH2 0x119C JUMP JUMPDEST DUP2 EQ PUSH2 0x11BA JUMPI PUSH1 0x0 DUP1 REVERT JUMPDEST POP JUMP JUMPDEST PUSH1 0x0 DUP2 CALLDATALOAD SWAP1 POP PUSH2 0x11CC DUP2 PUSH2 0x11A6 JUMP JUMPDEST SWAP3 SWAP2 POP POP JUMP JUMPDEST PUSH1 0x0 DUP1 PUSH1 0x40 DUP4 DUP6 SUB SLT ISZERO PUSH2 0x11E9 JUMPI PUSH2 0x11E8 PUSH2 0x1134 JUMP JUMPDEST JUMPDEST PUSH1 0x0 PUSH2 0x11F7 DUP6 DUP3 DUP7 ADD PUSH2 0x1187 JUMP JUMPDEST SWAP3 POP POP PUSH1 0x20 PUSH2 0x1208 DUP6 DUP3 DUP7 ADD PUSH2 0x11BD JUMP JUMPDEST SWAP2 POP POP SWAP3 POP SWAP3 SWAP1 POP JUMP JUMPDEST PUSH1 0x0 DUP2 MLOAD SWAP1 POP SWAP2 SWAP1 POP JUMP JUMPDEST PUSH1 0x0 DUP3 DUP3 MSTORE PUSH1 0x20 DUP3 ADD SWAP1 POP SWAP3 SWAP2 POP POP JUMP JUMPDEST PUSH1 0x0 JUMPDEST DUP4 DUP2 LT ISZERO PUSH2 0x124C JUMPI DUP1 DUP3 ADD MLOAD DUP2 DUP5 ADD MSTORE PUSH1 0x20 DUP2 ADD SWAP1 POP PUSH2 0x1231 JUMP JUMPDEST PUSH1 0x0 DUP5 DUP5 ADD MSTORE POP POP POP POP JUMP JUMPDEST PUSH1 0x0 PUSH1 0x1F NOT PUSH1 0x1F DUP4 ADD AND SWAP1 POP SWAP2 SWAP1 POP JUMP JUMPDEST PUSH1 0x0 PUSH2 0x1274 DUP3 PUSH2 0x1212 JUMP JUMPDEST PUSH2 0x127E DUP2 DUP6 PUSH2 0x121D JUMP JUMPDEST SWAP4 POP PUSH2 0x128E DUP2 DUP6 PUSH1 0x20 DUP7 ADD PUSH2 0x122E JUMP JUMPDEST PUSH2 0x1297 DUP2 PUSH2 0x1258 JUMP JUMPDEST DUP5 ADD SWAP2 POP POP SWAP3 SWAP2 POP POP JUMP JUMPDEST PUSH2 0x12AB DUP2 PUSH2 0x119C JUMP JUMPDEST DUP3 MSTORE POP POP JUMP JUMPDEST PUSH2 0x12BA DUP2 PUSH2 0x115E JUMP JUMPDEST DUP3 MSTORE POP POP JUMP JUMPDEST PUSH1 0x0 PUSH1 0xC0 DUP3 ADD SWAP1 POP DUP2 DUP2 SUB PUSH1 0x0 DUP4 ADD MSTORE PUSH2 0x12DA DUP2 DUP10 PUSH2 0x1269 JUMP JUMPDEST SWAP1 POP PUSH2 0x12E9 PUSH1 0x20 DUP4 ADD DUP9 PUSH2 0x12A2 JUMP JUMPDEST PUSH2 0x12F6 PUSH1 0x40 DUP4 ADD DUP8 PUSH2 0x12A2 JUMP JUMPDEST PUSH2 0x1303 PUSH1 0x60 DUP4 ADD DUP7 PUSH2 0x12B1 JUMP JUMPDEST PUSH2 0x1310 PUSH1 0x80 DUP4 ADD DUP6 PUSH2 0x12A2 JUMP JUMPDEST PUSH2 0x131D PUSH1 0xA0 DUP4 ADD DUP5 PUSH2 0x12B1 JUMP JUMPDEST SWAP8 SWAP7 POP POP POP POP POP POP POP JUMP JUMPDEST PUSH1 0x0 DUP1 REVERT JUMPDEST PUSH1 0x0 DUP1 REVERT JUMPDEST PUSH32 0x4E487B7100000000000000000000000000000000000000000000000000000000 PUSH1 0x0 MSTORE PUSH1 0x41 PUSH1 0x4 MSTORE PUSH1 0x24 PUSH1 0x0 REVERT JUMPDEST PUSH2 0x136A DUP3 PUSH2 0x1258 JUMP JUMPDEST DUP2 ADD DUP2 DUP2 LT PUSH8 0xFFFFFFFFFFFFFFFF DUP3 GT OR ISZERO PUSH2 0x1389 JUMPI PUSH2 0x1388 PUSH2 0x1332 JUMP JUMPDEST JUMPDEST DUP1 PUSH1 0x40 MSTORE POP POP POP JUMP JUMPDEST PUSH1 0x0 PUSH2 0x139C PUSH2 0x112A JUMP JUMPDEST SWAP1 POP PUSH2 0x13A8 DUP3 DUP3 PUSH2 0x1361 JUMP JUMPDEST SWAP2 SWAP1 POP JUMP JUMPDEST PUSH1 0x0 PUSH8 0xFFFFFFFFFFFFFFFF DUP3 GT ISZERO PUSH2 0x13C8 JUMPI PUSH2 0x13C7 PUSH2 0x1332 JUMP JUMPDEST JUMPDEST PUSH2 0x13D1 DUP3 PUSH2 0x1258 JUMP JUMPDEST SWAP1 POP PUSH1 0x20 DUP2 ADD SWAP1 POP SWAP2 SWAP1 POP JUMP JUMPDEST DUP3 DUP2 DUP4 CALLDATACOPY PUSH1 0x0 DUP4 DUP4 ADD MSTORE POP POP POP JUMP JUMPDEST PUSH1 0x0 PUSH2 0x1400 PUSH2 0x13FB DUP5 PUSH2 0x13AD JUMP JUMPDEST PUSH2 0x1392 JUMP JUMPDEST SWAP1 POP DUP3 DUP2 MSTORE PUSH1 0x20 DUP2 ADD DUP5 DUP5 DUP5 ADD GT ISZERO PUSH2 0x141C JUMPI PUSH2 0x141B PUSH2 0x132D JUMP JUMPDEST JUMPDEST PUSH2 0x1427 DUP5 DUP3 DUP6 PUSH2 0x13DE JUMP JUMPDEST POP SWAP4 SWAP3 POP POP POP JUMP JUMPDEST PUSH1 0x0 DUP3 PUSH1 0x1F DUP4 ADD SLT PUSH2 0x1444 JUMPI PUSH2 0x1443 PUSH2 0x1328 JUMP JUMPDEST JUMPDEST DUP2 CALLDATALOAD PUSH2 0x1454 DUP5 DUP3 PUSH1 0x20 DUP7 ADD PUSH2 0x13ED JUMP JUMPDEST SWAP2 POP POP SWAP3 SWAP2 POP POP JUMP JUMPDEST PUSH1 0x0 DUP1 PUSH1 0x40 DUP4 DUP6 SUB SLT ISZERO PUSH2 0x1474 JUMPI PUSH2 0x1473 PUSH2 0x1134 JUMP JUMPDEST JUMPDEST PUSH1 0x0 PUSH2 0x1482 DUP6 DUP3 DUP7 ADD PUSH2 0x11BD JUMP JUMPDEST SWAP3 POP POP PUSH1 0x20 DUP4 ADD CALLDATALOAD PUSH8 0xFFFFFFFFFFFFFFFF DUP2 GT ISZERO PUSH2 0x14A3 JUMPI PUSH2 0x14A2 PUSH2 0x1139 JUMP JUMPDEST JUMPDEST PUSH2 0x14AF DUP6 DUP3 DUP7 ADD PUSH2 0x142F JUMP JUMPDEST SWAP2 POP POP SWAP3 POP SWAP3 SWAP1 POP JUMP JUMPDEST PUSH1 0x0 PUSH1 0x20 DUP3 ADD SWAP1 POP PUSH2 0x14CE PUSH1 0x0 DUP4 ADD DUP5 PUSH2 0x12B1 JUMP JUMPDEST SWAP3 SWAP2 POP POP JUMP JUMPDEST PUSH1 0x0 PUSH1 0x20 DUP3 ADD SWAP1 POP PUSH2 0x14E9 PUSH1 0x0 DUP4 ADD DUP5 PUSH2 0x12A2 JUMP JUMPDEST SWAP3 SWAP2 POP POP JUMP JUMPDEST PUSH1 0x0 PUSH2 0x14FA DUP3 PUSH2 0x113E JUMP JUMPDEST SWAP1 POP SWAP2 SWAP1 POP JUMP JUMPDEST PUSH2 0x150A DUP2 PUSH2 0x14EF JUMP JUMPDEST DUP2 EQ PUSH2 0x1515 JUMPI PUSH1 0x0 DUP1 REVERT JUMPDEST POP JUMP JUMPDEST PUSH1 0x0 DUP2 CALLDATALOAD SWAP1 POP PUSH2 0x1527 DUP2 PUSH2 0x1501 JUMP JUMPDEST SWAP3 SWAP2 POP POP JUMP JUMPDEST PUSH1 0x0 DUP1 PUSH1 0x0 PUSH1 0x60 DUP5 DUP7 SUB SLT ISZERO PUSH2 0x1546 JUMPI PUSH2 0x1545 PUSH2 0x1134 JUMP JUMPDEST JUMPDEST PUSH1 0x0 PUSH2 0x1554 DUP7 DUP3 DUP8 ADD PUSH2 0x1518 JUMP JUMPDEST SWAP4 POP POP PUSH1 0x20 PUSH2 0x1565 DUP7 DUP3 DUP8 ADD PUSH2 0x11BD JUMP JUMPDEST SWAP3 POP POP PUSH1 0x40 PUSH2 0x1576 DUP7 DUP3 DUP8 ADD PUSH2 0x11BD JUMP JUMPDEST SWAP2 POP POP SWAP3 POP SWAP3 POP SWAP3 JUMP JUMPDEST PUSH32 0x4E487B7100000000000000000000000000000000000000000000000000000000 PUSH1 0x0 MSTORE PUSH1 0x22 PUSH1 0x4 MSTORE PUSH1 0x24 PUSH1 0x0 REVERT JUMPDEST PUSH1 0x0 PUSH1 0x2 DUP3 DIV SWAP1 POP PUSH1 0x1 DUP3 AND DUP1 PUSH2 0x15C7 JUMPI PUSH1 0x7F DUP3 AND SWAP2 POP JUMPDEST PUSH1 0x20 DUP3 LT DUP2 SUB PUSH2 0x15DA JUMPI PUSH2 0x15D9 PUSH2 0x1580 JUMP JUMPDEST JUMPDEST POP SWAP2 SWAP1 POP JUMP JUMPDEST PUSH32 0x4E6F742056616C69640000000000000000000000000000000000000000000000 PUSH1 0x0 DUP3 ADD MSTORE POP JUMP JUMPDEST PUSH1 0x0 PUSH2 0x1616 PUSH1 0x9 DUP4 PUSH2 0x121D JUMP JUMPDEST SWAP2 POP PUSH2 0x1621 DUP3 PUSH2 0x15E0 JUMP JUMPDEST PUSH1 0x20 DUP3 ADD SWAP1 POP SWAP2 SWAP1 POP JUMP JUMPDEST PUSH1 0x0 PUSH1 0x20 DUP3 ADD SWAP1 POP DUP2 DUP2 SUB PUSH1 0x0 DUP4 ADD MSTORE PUSH2 0x1645 DUP2 PUSH2 0x1609 JUMP JUMPDEST SWAP1 POP SWAP2 SWAP1 POP JUMP JUMPDEST PUSH1 0x0 DUP2 SWAP1 POP DUP2 PUSH1 0x0 MSTORE PUSH1 0x20 PUSH1 0x0 KECCAK256 SWAP1 POP SWAP2 SWAP1 POP JUMP JUMPDEST PUSH1 0x0 PUSH1 0x20 PUSH1 0x1F DUP4 ADD DIV SWAP1 POP SWAP2 SWAP1 POP JUMP JUMPDEST PUSH1 0x0 DUP3 DUP3 SHL SWAP1 POP SWAP3 SWAP2 POP POP JUMP JUMPDEST PUSH1 0x0 PUSH1 0x8 DUP4 MUL PUSH2 0x16AE PUSH32 0xFFFFFFFFFFFFFFFFFFFFFFFFFFFFFFFFFFFFFFFFFFFFFFFFFFFFFFFFFFFFFFFF DUP3 PUSH2 0x1671 JUMP JUMPDEST PUSH2 0x16B8 DUP7 DUP4 PUSH2 0x1671 JUMP JUMPDEST SWAP6 POP DUP1 NOT DUP5 AND SWAP4 POP DUP1 DUP7 AND DUP5 OR SWAP3 POP POP POP SWAP4 SWAP3 POP POP POP JUMP JUMPDEST PUSH1 0x0 DUP2 SWAP1 POP SWAP2 SWAP1 POP JUMP JUMPDEST PUSH1 0x0 PUSH2 0x16F5 PUSH2 0x16F0 PUSH2 0x16EB DUP5 PUSH2 0x119C JUMP JUMPDEST PUSH2 0x16D0 JUMP JUMPDEST PUSH2 0x119C JUMP JUMPDEST SWAP1 POP SWAP2 SWAP1 POP JUMP JUMPDEST PUSH1 0x0 DUP2 SWAP1 POP SWAP2 SWAP1 POP JUMP JUMPDEST PUSH2 0x170F DUP4 PUSH2 0x16DA JUMP JUMPDEST PUSH2 0x1723 PUSH2 0x171B DUP3 PUSH2 0x16FC JUMP JUMPDEST DUP5 DUP5 SLOAD PUSH2 0x167E JUMP JUMPDEST DUP3 SSTORE POP POP POP POP JUMP JUMPDEST PUSH1 0x0 SWAP1 JUMP JUMPDEST PUSH2 0x1738 PUSH2 0x172B JUMP JUMPDEST PUSH2 0x1743 DUP2 DUP5 DUP5 PUSH2 0x1706 JUMP JUMPDEST POP POP POP JUMP JUMPDEST JUMPDEST DUP2 DUP2 LT ISZERO PUSH2 0x1767 JUMPI PUSH2 0x175C PUSH1 0x0 DUP3 PUSH2 0x1730 JUMP JUMPDEST PUSH1 0x1 DUP2 ADD SWAP1 POP PUSH2 0x1749 JUMP JUMPDEST POP POP JUMP JUMPDEST PUSH1 0x1F DUP3 GT ISZERO PUSH2 0x17AC JUMPI PUSH2 0x177D DUP2 PUSH2 0x164C JUMP JUMPDEST PUSH2 0x1786 DUP5 PUSH2 0x1661 JUMP JUMPDEST DUP2 ADD PUSH1 0x20 DUP6 LT ISZERO PUSH2 0x1795 JUMPI DUP2 SWAP1 POP JUMPDEST PUSH2 0x17A9 PUSH2 0x17A1 DUP6 PUSH2 0x1661 JUMP JUMPDEST DUP4 ADD DUP3 PUSH2 0x1748 JUMP JUMPDEST POP POP JUMPDEST POP POP POP JUMP JUMPDEST PUSH1 0x0 DUP3 DUP3 SHR SWAP1 POP SWAP3 SWAP2 POP POP JUMP JUMPDEST PUSH1 0x0 PUSH2 0x17CF PUSH1 0x0 NOT DUP5 PUSH1 0x8 MUL PUSH2 0x17B1 JUMP JUMPDEST NOT DUP1 DUP4 AND SWAP2 POP POP SWAP3 SWAP2 POP POP JUMP JUMPDEST PUSH1 0x0 PUSH2 0x17E8 DUP4 DUP4 PUSH2 0x17BE JUMP JUMPDEST SWAP2 POP DUP3 PUSH1 0x2 MUL DUP3 OR SWAP1 POP SWAP3 SWAP2 POP POP JUMP JUMPDEST PUSH2 0x1801 DUP3 PUSH2 0x1212 JUMP JUMPDEST PUSH8 0xFFFFFFFFFFFFFFFF DUP2 GT ISZERO PUSH2 0x181A JUMPI PUSH2 0x1819 PUSH2 0x1332 JUMP JUMPDEST JUMPDEST PUSH2 0x1824 DUP3 SLOAD PUSH2 0x15AF JUMP JUMPDEST PUSH2 0x182F DUP3 DUP3 DUP6 PUSH2 0x176B JUMP JUMPDEST PUSH1 0x0 PUSH1 0x20 SWAP1 POP PUSH1 0x1F DUP4 GT PUSH1 0x1 DUP2 EQ PUSH2 0x1862 JUMPI PUSH1 0x0 DUP5 ISZERO PUSH2 0x1850 JUMPI DUP3 DUP8 ADD MLOAD SWAP1 POP JUMPDEST PUSH2 0x185A DUP6 DUP3 PUSH2 0x17DC JUMP JUMPDEST DUP7 SSTORE POP PUSH2 0x18C2 JUMP JUMPDEST PUSH1 0x1F NOT DUP5 AND PUSH2 0x1870 DUP7 PUSH2 0x164C JUMP JUMPDEST PUSH1 0x0 JUMPDEST DUP3 DUP2 LT ISZERO PUSH2 0x1898 JUMPI DUP5 DUP10 ADD MLOAD DUP3 SSTORE PUSH1 0x1 DUP3 ADD SWAP2 POP PUSH1 0x20 DUP6 ADD SWAP5 POP PUSH1 0x20 DUP2 ADD SWAP1 POP PUSH2 0x1873 JUMP JUMPDEST DUP7 DUP4 LT ISZERO PUSH2 0x18B5 JUMPI DUP5 DUP10 ADD MLOAD PUSH2 0x18B1 PUSH1 0x1F DUP10 AND DUP3 PUSH2 0x17BE JUMP JUMPDEST DUP4 SSTORE POP JUMPDEST PUSH1 0x1 PUSH1 0x2 DUP9 MUL ADD DUP9 SSTORE POP POP POP JUMPDEST POP POP POP POP POP POP JUMP JUMPDEST PUSH32 0x4E487B7100000000000000000000000000000000000000000000000000000000 PUSH1 0x0 MSTORE PUSH1 0x11 PUSH1 0x4 MSTORE PUSH1 0x24 PUSH1 0x0 REVERT JUMPDEST PUSH1 0x0 PUSH2 0x1904 DUP3 PUSH2 0x119C JUMP JUMPDEST SWAP2 POP PUSH2 0x190F DUP4 PUSH2 0x119C JUMP JUMPDEST SWAP3 POP DUP3 DUP3 ADD SWAP1 POP DUP1 DUP3 GT ISZERO PUSH2 0x1927 JUMPI PUSH2 0x1926 PUSH2 0x18CA JUMP JUMPDEST JUMPDEST SWAP3 SWAP2 POP POP JUMP JUMPDEST PUSH1 0x0 PUSH1 0x60 DUP3 ADD SWAP1 POP PUSH2 0x1942 PUSH1 0x0 DUP4 ADD DUP7 PUSH2 0x12B1 JUMP JUMPDEST PUSH2 0x194F PUSH1 0x20 DUP4 ADD DUP6 PUSH2 0x12A2 JUMP JUMPDEST DUP2 DUP2 SUB PUSH1 0x40 DUP4 ADD MSTORE PUSH2 0x1961 DUP2 DUP5 PUSH2 0x1269 JUMP JUMPDEST SWAP1 POP SWAP5 SWAP4 POP POP POP POP JUMP JUMPDEST PUSH32 0x204F6E6C79204F776E65722063616E2063616E63656C20746865204175637469 PUSH1 0x0 DUP3 ADD MSTORE PUSH32 0x6F6E000000000000000000000000000000000000000000000000000000000000 PUSH1 0x20 DUP3 ADD MSTORE POP JUMP JUMPDEST PUSH1 0x0 PUSH2 0x19C7 PUSH1 0x22 DUP4 PUSH2 0x121D JUMP JUMPDEST SWAP2 POP PUSH2 0x19D2 DUP3 PUSH2 0x196B JUMP JUMPDEST PUSH1 0x40 DUP3 ADD SWAP1 POP SWAP2 SWAP1 POP JUMP JUMPDEST PUSH1 0x0 PUSH1 0x20 DUP3 ADD SWAP1 POP DUP2 DUP2 SUB PUSH1 0x0 DUP4 ADD MSTORE PUSH2 0x19F6 DUP2 PUSH2 0x19BA JUMP JUMPDEST SWAP1 POP SWAP2 SWAP1 POP JUMP JUMPDEST PUSH1 0x0 DUP2 SLOAD SWAP1 POP PUSH2 0x1A0C DUP2 PUSH2 0x15AF JUMP JUMPDEST SWAP1 POP SWAP2 SWAP1 POP JUMP JUMPDEST DUP2 DUP2 SUB PUSH2 0x1A21 JUMPI POP POP PUSH2 0x1AF9 JUMP JUMPDEST PUSH2 0x1A2A DUP3 PUSH2 0x19FD JUMP JUMPDEST PUSH8 0xFFFFFFFFFFFFFFFF DUP2 GT ISZERO PUSH2 0x1A43 JUMPI PUSH2 0x1A42 PUSH2 0x1332 JUMP JUMPDEST JUMPDEST PUSH2 0x1A4D DUP3 SLOAD PUSH2 0x15AF JUMP JUMPDEST PUSH2 0x1A58 DUP3 DUP3 DUP6 PUSH2 0x176B JUMP JUMPDEST PUSH1 0x0 PUSH1 0x1F DUP4 GT PUSH1 0x1 DUP2 EQ PUSH2 0x1A87 JUMPI PUSH1 0x0 DUP5 ISZERO PUSH2 0x1A75 JUMPI DUP3 DUP8 ADD SLOAD SWAP1 POP JUMPDEST PUSH2 0x1A7F DUP6 DUP3 PUSH2 0x17DC JUMP JUMPDEST DUP7 SSTORE POP PUSH2 0x1AF2 JUMP JUMPDEST PUSH1 0x1F NOT DUP5 AND PUSH2 0x1A95 DUP8 PUSH2 0x164C JUMP JUMPDEST SWAP7 POP PUSH2 0x1AA0 DUP7 PUSH2 0x164C JUMP JUMPDEST PUSH1 0x0 JUMPDEST DUP3 DUP2 LT ISZERO PUSH2 0x1AC8 JUMPI DUP5 DUP10 ADD SLOAD DUP3 SSTORE PUSH1 0x1 DUP3 ADD SWAP2 POP PUSH1 0x1 DUP6 ADD SWAP5 POP PUSH1 0x20 DUP2 ADD SWAP1 POP PUSH2 0x1AA3 JUMP JUMPDEST DUP7 DUP4 LT ISZERO PUSH2 0x1AE5 JUMPI DUP5 DUP10 ADD SLOAD PUSH2 0x1AE1 PUSH1 0x1F DUP10 AND DUP3 PUSH2 0x17BE JUMP JUMPDEST DUP4 SSTORE POP JUMPDEST PUSH1 0x1 PUSH1 0x2 DUP9 MUL ADD DUP9 SSTORE POP POP POP JUMPDEST POP POP POP POP POP POP JUMPDEST JUMP JUMPDEST PUSH32 0x204E6F7468696E6720746F20506C616365207468652042696420000000000000 PUSH1 0x0 DUP3 ADD MSTORE POP JUMP JUMPDEST PUSH1 0x0 PUSH2 0x1B31 PUSH1 0x1A DUP4 PUSH2 0x121D JUMP JUMPDEST SWAP2 POP PUSH2 0x1B3C DUP3 PUSH2 0x1AFB JUMP JUMPDEST PUSH1 0x20 DUP3 ADD SWAP1 POP SWAP2 SWAP1 POP JUMP JUMPDEST PUSH1 0x0 PUSH1 0x20 DUP3 ADD SWAP1 POP DUP2 DUP2 SUB PUSH1 0x0 DUP4 ADD MSTORE PUSH2 0x1B60 DUP2 PUSH2 0x1B24 JUMP JUMPDEST SWAP1 POP SWAP2 SWAP1 POP JUMP JUMPDEST PUSH32 0x20496E6372656173652074686520616D6F756E74206279203120657468657200 PUSH1 0x0 DUP3 ADD MSTORE POP JUMP JUMPDEST PUSH1 0x0 PUSH2 0x1B9D PUSH1 0x1F DUP4 PUSH2 0x121D JUMP JUMPDEST SWAP2 POP PUSH2 0x1BA8 DUP3 PUSH2 0x1B67 JUMP JUMPDEST PUSH1 0x20 DUP3 ADD SWAP1 POP SWAP2 SWAP1 POP JUMP JUMPDEST PUSH1 0x0 PUSH1 0x20 DUP3 ADD SWAP1 POP DUP2 DUP2 SUB PUSH1 0x0 DUP4 ADD MSTORE PUSH2 0x1BCC DUP2 PUSH2 0x1B90 JUMP JUMPDEST SWAP1 POP SWAP2 SWAP1 POP JUMP JUMPDEST PUSH32 0x4E6F7420612056616C696420416D6F756E740000000000000000000000000000 PUSH1 0x0 DUP3 ADD MSTORE POP JUMP JUMPDEST PUSH1 0x0 PUSH2 0x1C09 PUSH1 0x12 DUP4 PUSH2 0x121D JUMP JUMPDEST SWAP2 POP PUSH2 0x1C14 DUP3 PUSH2 0x1BD3 JUMP JUMPDEST PUSH1 0x20 DUP3 ADD SWAP1 POP SWAP2 SWAP1 POP JUMP JUMPDEST PUSH1 0x0 PUSH1 0x20 DUP3 ADD SWAP1 POP DUP2 DUP2 SUB PUSH1 0x0 DUP4 ADD MSTORE PUSH2 0x1C38 DUP2 PUSH2 0x1BFC JUMP JUMPDEST SWAP1 POP SWAP2 SWAP1 POP JUMP JUMPDEST PUSH1 0x0 PUSH1 0x40 DUP3 ADD SWAP1 POP PUSH2 0x1C54 PUSH1 0x0 DUP4 ADD DUP6 PUSH2 0x12B1 JUMP JUMPDEST PUSH2 0x1C61 PUSH1 0x20 DUP4 ADD DUP5 PUSH2 0x12A2 JUMP JUMPDEST SWAP4 SWAP3 POP POP POP JUMP INVALID LOG2 PUSH5 0x6970667358 0x22 SLT KECCAK256 BALANCE MOD MSIZE 0xFB 0xD4 0xD7 0x2D 0xE9 0xF8 0xD8 DUP12 0xCC GASLIMIT 0xE 0xB5 PUSH28 0xBEE12BDD887570C8F53E0583FBA943A164736F6C6343000812003300 "
				},
				"gasEstimates": {
					"creation": {
						"codeDepositCost": "1465200",
						"executionCost": "1527",
						"totalCost": "1466727"
					},
					"external": {
						"CreateItem(uint256,string)": "infinite",
						"cancelAuction(address,uint256)": "infinite",
						"getHighestBid(address,uint256)": "infinite",
						"getWinningBidder(address,uint256)": "infinite",
						"itemDetails(address,uint256)": "infinite",
						"ownershipTransfer(address,uint256,uint256)": "infinite",
						"placeBid(address,uint256)": "infinite"
					}
				},
				"methodIdentifiers": {
					"CreateItem(uint256,string)": "32627af9",
					"cancelAuction(address,uint256)": "859b97fe",
					"getHighestBid(address,uint256)": "8226508d",
					"getWinningBidder(address,uint256)": "7090c36e",
					"itemDetails(address,uint256)": "069ea362",
					"ownershipTransfer(address,uint256,uint256)": "c8b5555c",
					"placeBid(address,uint256)": "d98b9bb5"
				}
			},
			"storageLayout": {
				"storage": [
					{
						"astId": 157,
						"contract": "Assignment 4 Tokens/final.sol:finaL",
						"label": "itemDetails",
						"offset": 0,
						"slot": "0",
						"type": "t_mapping(t_address,t_mapping(t_uint256,t_struct(itemD)150_storage))"
					}
				],
				"types": {
					"t_address": {
						"encoding": "inplace",
						"label": "address",
						"numberOfBytes": "20"
					},
					"t_mapping(t_address,t_mapping(t_uint256,t_struct(itemD)150_storage))": {
						"encoding": "mapping",
						"key": "t_address",
						"label": "mapping(address => mapping(uint256 => struct finaL.itemD))",
						"numberOfBytes": "32",
						"value": "t_mapping(t_uint256,t_struct(itemD)150_storage)"
					},
					"t_mapping(t_uint256,t_struct(itemD)150_storage)": {
						"encoding": "mapping",
						"key": "t_uint256",
						"label": "mapping(uint256 => struct finaL.itemD)",
						"numberOfBytes": "32",
						"value": "t_struct(itemD)150_storage"
					},
					"t_string_storage": {
						"encoding": "bytes",
						"label": "string",
						"numberOfBytes": "32"
					},
					"t_struct(itemD)150_storage": {
						"encoding": "inplace",
						"label": "struct finaL.itemD",
						"members": [
							{
								"astId": 139,
								"contract": "Assignment 4 Tokens/final.sol:finaL",
								"label": "name",
								"offset": 0,
								"slot": "0",
								"type": "t_string_storage"
							},
							{
								"astId": 141,
								"contract": "Assignment 4 Tokens/final.sol:finaL",
								"label": "lastBid",
								"offset": 0,
								"slot": "1",
								"type": "t_uint256"
							},
							{
								"astId": 143,
								"contract": "Assignment 4 Tokens/final.sol:finaL",
								"label": "highestBid",
								"offset": 0,
								"slot": "2",
								"type": "t_uint256"
							},
							{
								"astId": 145,
								"contract": "Assignment 4 Tokens/final.sol:finaL",
								"label": "highestBider",
								"offset": 0,
								"slot": "3",
								"type": "t_address"
							},
							{
								"astId": 147,
								"contract": "Assignment 4 Tokens/final.sol:finaL",
								"label": "auction_time",
								"offset": 0,
								"slot": "4",
								"type": "t_uint256"
							},
							{
								"astId": 149,
								"contract": "Assignment 4 Tokens/final.sol:finaL",
								"label": "lastHighestBider",
								"offset": 0,
								"slot": "5",
								"type": "t_address"
							}
						],
						"numberOfBytes": "192"
					},
					"t_uint256": {
						"encoding": "inplace",
						"label": "uint256",
						"numberOfBytes": "32"
					}
				}
			},
			"userdoc": {
				"kind": "user",
				"methods": {},
				"version": 1
			}
		}
	}
}