{
	"Practice tokens/Auction.sol": {
		"finaL": {
			"abi": [
				{
					"anonymous": false,
					"inputs": [
						{
							"indexed": false,
							"internalType": "address",
							"name": "_address",
							"type": "address"
						},
						{
							"indexed": false,
							"internalType": "uint256",
							"name": "_bidamount",
							"type": "uint256"
						}
					],
					"name": "Bid",
					"type": "event"
				},
				{
					"anonymous": false,
					"inputs": [
						{
							"indexed": false,
							"internalType": "address",
							"name": "owner",
							"type": "address"
						},
						{
							"indexed": false,
							"internalType": "uint256",
							"name": "id",
							"type": "uint256"
						},
						{
							"indexed": false,
							"internalType": "string",
							"name": "name",
							"type": "string"
						}
					],
					"name": "createItem",
					"type": "event"
				},
				{
					"anonymous": false,
					"inputs": [
						{
							"indexed": false,
							"internalType": "address",
							"name": "_from",
							"type": "address"
						},
						{
							"indexed": false,
							"internalType": "address",
							"name": "_to",
							"type": "address"
						},
						{
							"components": [
								{
									"internalType": "string",
									"name": "name",
									"type": "string"
								},
								{
									"internalType": "address",
									"name": "owner",
									"type": "address"
								},
								{
									"internalType": "uint256",
									"name": "lastBid",
									"type": "uint256"
								},
								{
									"internalType": "uint256",
									"name": "highestBid",
									"type": "uint256"
								},
								{
									"internalType": "address",
									"name": "highestBider",
									"type": "address"
								},
								{
									"internalType": "uint256",
									"name": "auction_time",
									"type": "uint256"
								},
								{
									"internalType": "address",
									"name": "lastHighestBider",
									"type": "address"
								}
							],
							"indexed": false,
							"internalType": "struct finaL.itemD",
							"name": "_item",
							"type": "tuple"
						}
					],
					"name": "transfer",
					"type": "event"
				},
				{
					"inputs": [
						{
							"internalType": "string",
							"name": "_name",
							"type": "string"
						}
					],
					"name": "CreateItem",
					"outputs": [],
					"stateMutability": "nonpayable",
					"type": "function"
				},
				{
					"inputs": [
						{
							"internalType": "uint256",
							"name": "id",
							"type": "uint256"
						}
					],
					"name": "auctionEnd",
					"outputs": [],
					"stateMutability": "payable",
					"type": "function"
				},
				{
					"inputs": [
						{
							"internalType": "uint256",
							"name": "id",
							"type": "uint256"
						}
					],
					"name": "cancelAuction",
					"outputs": [],
					"stateMutability": "nonpayable",
					"type": "function"
				},
				{
					"inputs": [
						{
							"internalType": "uint256",
							"name": "id",
							"type": "uint256"
						}
					],
					"name": "getHighestBid",
					"outputs": [
						{
							"internalType": "uint256",
							"name": "",
							"type": "uint256"
						}
					],
					"stateMutability": "view",
					"type": "function"
				},
				{
					"inputs": [
						{
							"internalType": "uint256",
							"name": "id",
							"type": "uint256"
						}
					],
					"name": "getWinningBidder",
					"outputs": [
						{
							"internalType": "address",
							"name": "",
							"type": "address"
						}
					],
					"stateMutability": "view",
					"type": "function"
				},
				{
					"inputs": [
						{
							"internalType": "uint256",
							"name": "",
							"type": "uint256"
						}
					],
					"name": "itemDetails",
					"outputs": [
						{
							"internalType": "string",
							"name": "name",
							"type": "string"
						},
						{
							"internalType": "address",
							"name": "owner",
							"type": "address"
						},
						{
							"internalType": "uint256",
							"name": "lastBid",
							"type": "uint256"
						},
						{
							"internalType": "uint256",
							"name": "highestBid",
							"type": "uint256"
						},
						{
							"internalType": "address",
							"name": "highestBider",
							"type": "address"
						},
						{
							"internalType": "uint256",
							"name": "auction_time",
							"type": "uint256"
						},
						{
							"internalType": "address",
							"name": "lastHighestBider",
							"type": "address"
						}
					],
					"stateMutability": "view",
					"type": "function"
				},
				{
					"inputs": [
						{
							"internalType": "uint256",
							"name": "id",
							"type": "uint256"
						}
					],
					"name": "placeBid",
					"outputs": [],
					"stateMutability": "payable",
					"type": "function"
				}
			],
			"devdoc": {
				"kind": "dev",
				"methods": {},
				"version": 1
			},
			"evm": {
				"assembly": "    /* \"Practice tokens/Auction.sol\":182:2872  contract finaL  {... */\n  mstore(0x40, 0x80)\n    /* \"Practice tokens/Auction.sol\":448:449  1 */\n  0x01\n    /* \"Practice tokens/Auction.sol\":435:449  uint itemID =1 */\n  0x00\n  sstore\n    /* \"Practice tokens/Auction.sol\":182:2872  contract finaL  {... */\n  callvalue\n  dup1\n  iszero\n  tag_1\n  jumpi\n  0x00\n  dup1\n  revert\ntag_1:\n  pop\n  dataSize(sub_0)\n  dup1\n  dataOffset(sub_0)\n  0x00\n  codecopy\n  0x00\n  return\nstop\n\nsub_0: assembly {\n        /* \"Practice tokens/Auction.sol\":182:2872  contract finaL  {... */\n      mstore(0x40, 0x80)\n      jumpi(tag_1, lt(calldatasize, 0x04))\n      shr(0xe0, calldataload(0x00))\n      dup1\n      0x6c7be44b\n      gt\n      tag_9\n      jumpi\n      dup1\n      0x6c7be44b\n      eq\n      tag_5\n      jumpi\n      dup1\n      0x8f288644\n      eq\n      tag_6\n      jumpi\n      dup1\n      0x96b5a755\n      eq\n      tag_7\n      jumpi\n      dup1\n      0x9979ef45\n      eq\n      tag_8\n      jumpi\n      jump(tag_1)\n    tag_9:\n      dup1\n      0x1fb4e3f0\n      eq\n      tag_2\n      jumpi\n      dup1\n      0x2fa23689\n      eq\n      tag_3\n      jumpi\n      dup1\n      0x32246e9f\n      eq\n      tag_4\n      jumpi\n    tag_1:\n      0x00\n      dup1\n      revert\n        /* \"Practice tokens/Auction.sol\":482:523  mapping(uint => itemD) public itemDetails */\n    tag_2:\n      callvalue\n      dup1\n      iszero\n      tag_10\n      jumpi\n      0x00\n      dup1\n      revert\n    tag_10:\n      pop\n      tag_11\n      0x04\n      dup1\n      calldatasize\n      sub\n      dup2\n      add\n      swap1\n      tag_12\n      swap2\n      swap1\n      tag_13\n      jump\t// in\n    tag_12:\n      tag_14\n      jump\t// in\n    tag_11:\n      mload(0x40)\n      tag_15\n      swap8\n      swap7\n      swap6\n      swap5\n      swap4\n      swap3\n      swap2\n      swap1\n      tag_16\n      jump\t// in\n    tag_15:\n      mload(0x40)\n      dup1\n      swap2\n      sub\n      swap1\n      return\n        /* \"Practice tokens/Auction.sol\":2074:2194  function getWinningBidder(uint256 id) public view returns(address){... */\n    tag_3:\n      callvalue\n      dup1\n      iszero\n      tag_17\n      jumpi\n      0x00\n      dup1\n      revert\n    tag_17:\n      pop\n      tag_18\n      0x04\n      dup1\n      calldatasize\n      sub\n      dup2\n      add\n      swap1\n      tag_19\n      swap2\n      swap1\n      tag_13\n      jump\t// in\n    tag_19:\n      tag_20\n      jump\t// in\n    tag_18:\n      mload(0x40)\n      tag_21\n      swap2\n      swap1\n      tag_22\n      jump\t// in\n    tag_21:\n      mload(0x40)\n      dup1\n      swap2\n      sub\n      swap1\n      return\n        /* \"Practice tokens/Auction.sol\":2475:2867  function auctionEnd(uint256 id) public payable {... */\n    tag_4:\n      tag_23\n      0x04\n      dup1\n      calldatasize\n      sub\n      dup2\n      add\n      swap1\n      tag_24\n      swap2\n      swap1\n      tag_13\n      jump\t// in\n    tag_24:\n      tag_25\n      jump\t// in\n    tag_23:\n      stop\n        /* \"Practice tokens/Auction.sol\":744:1282  function CreateItem( string memory _name) public {... */\n    tag_5:\n      callvalue\n      dup1\n      iszero\n      tag_26\n      jumpi\n      0x00\n      dup1\n      revert\n    tag_26:\n      pop\n      tag_27\n      0x04\n      dup1\n      calldatasize\n      sub\n      dup2\n      add\n      swap1\n      tag_28\n      swap2\n      swap1\n      tag_29\n      jump\t// in\n    tag_28:\n      tag_30\n      jump\t// in\n    tag_27:\n      stop\n        /* \"Practice tokens/Auction.sol\":1949:2066  function getHighestBid( uint256 id) public view returns(uint256) {... */\n    tag_6:\n      callvalue\n      dup1\n      iszero\n      tag_31\n      jumpi\n      0x00\n      dup1\n      revert\n    tag_31:\n      pop\n      tag_32\n      0x04\n      dup1\n      calldatasize\n      sub\n      dup2\n      add\n      swap1\n      tag_33\n      swap2\n      swap1\n      tag_13\n      jump\t// in\n    tag_33:\n      tag_34\n      jump\t// in\n    tag_32:\n      mload(0x40)\n      tag_35\n      swap2\n      swap1\n      tag_36\n      jump\t// in\n    tag_35:\n      mload(0x40)\n      dup1\n      swap2\n      sub\n      swap1\n      return\n        /* \"Practice tokens/Auction.sol\":2202:2467  function cancelAuction( uint256 id) public  {... */\n    tag_7:\n      callvalue\n      dup1\n      iszero\n      tag_37\n      jumpi\n      0x00\n      dup1\n      revert\n    tag_37:\n      pop\n      tag_38\n      0x04\n      dup1\n      calldatasize\n      sub\n      dup2\n      add\n      swap1\n      tag_39\n      swap2\n      swap1\n      tag_13\n      jump\t// in\n    tag_39:\n      tag_40\n      jump\t// in\n    tag_38:\n      stop\n        /* \"Practice tokens/Auction.sol\":1290:1941  function placeBid(uint256 id) public payable  {... */\n    tag_8:\n      tag_41\n      0x04\n      dup1\n      calldatasize\n      sub\n      dup2\n      add\n      swap1\n      tag_42\n      swap2\n      swap1\n      tag_13\n      jump\t// in\n    tag_42:\n      tag_43\n      jump\t// in\n    tag_41:\n      stop\n        /* \"Practice tokens/Auction.sol\":482:523  mapping(uint => itemD) public itemDetails */\n    tag_14:\n      mstore(0x20, 0x01)\n      dup1\n      0x00\n      mstore\n      keccak256(0x00, 0x40)\n      0x00\n      swap2\n      pop\n      swap1\n      pop\n      dup1\n      0x00\n      add\n      dup1\n      sload\n      tag_44\n      swap1\n      tag_45\n      jump\t// in\n    tag_44:\n      dup1\n      0x1f\n      add\n      0x20\n      dup1\n      swap2\n      div\n      mul\n      0x20\n      add\n      mload(0x40)\n      swap1\n      dup2\n      add\n      0x40\n      mstore\n      dup1\n      swap3\n      swap2\n      swap1\n      dup2\n      dup2\n      mstore\n      0x20\n      add\n      dup3\n      dup1\n      sload\n      tag_46\n      swap1\n      tag_45\n      jump\t// in\n    tag_46:\n      dup1\n      iszero\n      tag_47\n      jumpi\n      dup1\n      0x1f\n      lt\n      tag_48\n      jumpi\n      0x0100\n      dup1\n      dup4\n      sload\n      div\n      mul\n      dup4\n      mstore\n      swap2\n      0x20\n      add\n      swap2\n      jump(tag_47)\n    tag_48:\n      dup3\n      add\n      swap2\n      swap1\n      0x00\n      mstore\n      keccak256(0x00, 0x20)\n      swap1\n    tag_49:\n      dup2\n      sload\n      dup2\n      mstore\n      swap1\n      0x01\n      add\n      swap1\n      0x20\n      add\n      dup1\n      dup4\n      gt\n      tag_49\n      jumpi\n      dup3\n      swap1\n      sub\n      0x1f\n      and\n      dup3\n      add\n      swap2\n    tag_47:\n      pop\n      pop\n      pop\n      pop\n      pop\n      swap1\n      dup1\n      0x01\n      add\n      0x00\n      swap1\n      sload\n      swap1\n      0x0100\n      exp\n      swap1\n      div\n      0xffffffffffffffffffffffffffffffffffffffff\n      and\n      swap1\n      dup1\n      0x02\n      add\n      sload\n      swap1\n      dup1\n      0x03\n      add\n      sload\n      swap1\n      dup1\n      0x04\n      add\n      0x00\n      swap1\n      sload\n      swap1\n      0x0100\n      exp\n      swap1\n      div\n      0xffffffffffffffffffffffffffffffffffffffff\n      and\n      swap1\n      dup1\n      0x05\n      add\n      sload\n      swap1\n      dup1\n      0x06\n      add\n      0x00\n      swap1\n      sload\n      swap1\n      0x0100\n      exp\n      swap1\n      div\n      0xffffffffffffffffffffffffffffffffffffffff\n      and\n      swap1\n      pop\n      dup8\n      jump\t// out\n        /* \"Practice tokens/Auction.sol\":2074:2194  function getWinningBidder(uint256 id) public view returns(address){... */\n    tag_20:\n        /* \"Practice tokens/Auction.sol\":2132:2139  address */\n      0x00\n        /* \"Practice tokens/Auction.sol\":2158:2169  itemDetails */\n      0x01\n        /* \"Practice tokens/Auction.sol\":2158:2173  itemDetails[id] */\n      0x00\n        /* \"Practice tokens/Auction.sol\":2170:2172  id */\n      dup4\n        /* \"Practice tokens/Auction.sol\":2158:2173  itemDetails[id] */\n      dup2\n      mstore\n      0x20\n      add\n      swap1\n      dup2\n      mstore\n      0x20\n      add\n      0x00\n      keccak256\n        /* \"Practice tokens/Auction.sol\":2158:2186  itemDetails[id].highestBider */\n      0x04\n      add\n      0x00\n      swap1\n      sload\n      swap1\n      0x0100\n      exp\n      swap1\n      div\n      0xffffffffffffffffffffffffffffffffffffffff\n      and\n        /* \"Practice tokens/Auction.sol\":2151:2186  return itemDetails[id].highestBider */\n      swap1\n      pop\n        /* \"Practice tokens/Auction.sol\":2074:2194  function getWinningBidder(uint256 id) public view returns(address){... */\n      swap2\n      swap1\n      pop\n      jump\t// out\n        /* \"Practice tokens/Auction.sol\":2475:2867  function auctionEnd(uint256 id) public payable {... */\n    tag_25:\n        /* \"Practice tokens/Auction.sol\":2559:2570  itemDetails */\n      0x01\n        /* \"Practice tokens/Auction.sol\":2559:2574  itemDetails[id] */\n      0x00\n        /* \"Practice tokens/Auction.sol\":2571:2573  id */\n      dup3\n        /* \"Practice tokens/Auction.sol\":2559:2574  itemDetails[id] */\n      dup2\n      mstore\n      0x20\n      add\n      swap1\n      dup2\n      mstore\n      0x20\n      add\n      0x00\n      keccak256\n        /* \"Practice tokens/Auction.sol\":2559:2587  itemDetails[id].auction_time */\n      0x05\n      add\n      sload\n        /* \"Practice tokens/Auction.sol\":2541:2556  block.timestamp */\n      timestamp\n        /* \"Practice tokens/Auction.sol\":2541:2587  block.timestamp > itemDetails[id].auction_time */\n      gt\n        /* \"Practice tokens/Auction.sol\":2533:2588  require(block.timestamp > itemDetails[id].auction_time) */\n      tag_52\n      jumpi\n      0x00\n      dup1\n      revert\n    tag_52:\n        /* \"Practice tokens/Auction.sol\":2621:2632  itemDetails */\n      0x01\n        /* \"Practice tokens/Auction.sol\":2621:2636  itemDetails[id] */\n      0x00\n        /* \"Practice tokens/Auction.sol\":2633:2635  id */\n      dup3\n        /* \"Practice tokens/Auction.sol\":2621:2636  itemDetails[id] */\n      dup2\n      mstore\n      0x20\n      add\n      swap1\n      dup2\n      mstore\n      0x20\n      add\n      0x00\n      keccak256\n        /* \"Practice tokens/Auction.sol\":2621:2642  itemDetails[id].owner */\n      0x01\n      add\n      0x00\n      swap1\n      sload\n      swap1\n      0x0100\n      exp\n      swap1\n      div\n      0xffffffffffffffffffffffffffffffffffffffff\n      and\n        /* \"Practice tokens/Auction.sol\":2607:2642  msg.sender == itemDetails[id].owner */\n      0xffffffffffffffffffffffffffffffffffffffff\n      and\n        /* \"Practice tokens/Auction.sol\":2607:2617  msg.sender */\n      caller\n        /* \"Practice tokens/Auction.sol\":2607:2642  msg.sender == itemDetails[id].owner */\n      0xffffffffffffffffffffffffffffffffffffffff\n      and\n      eq\n        /* \"Practice tokens/Auction.sol\":2599:2686  require(msg.sender == itemDetails[id].owner, \" Onle The owner of the Item can access.\") */\n      tag_53\n      jumpi\n      mload(0x40)\n      0x08c379a000000000000000000000000000000000000000000000000000000000\n      dup2\n      mstore\n      0x04\n      add\n      tag_54\n      swap1\n      tag_55\n      jump\t// in\n    tag_54:\n      mload(0x40)\n      dup1\n      swap2\n      sub\n      swap1\n      revert\n    tag_53:\n        /* \"Practice tokens/Auction.sol\":2705:2716  itemDetails */\n      0x01\n        /* \"Practice tokens/Auction.sol\":2705:2720  itemDetails[id] */\n      0x00\n        /* \"Practice tokens/Auction.sol\":2717:2719  id */\n      dup3\n        /* \"Practice tokens/Auction.sol\":2705:2720  itemDetails[id] */\n      dup2\n      mstore\n      0x20\n      add\n      swap1\n      dup2\n      mstore\n      0x20\n      add\n      0x00\n      keccak256\n        /* \"Practice tokens/Auction.sol\":2705:2726  itemDetails[id].owner */\n      0x01\n      add\n      0x00\n      swap1\n      sload\n      swap1\n      0x0100\n      exp\n      swap1\n      div\n      0xffffffffffffffffffffffffffffffffffffffff\n      and\n        /* \"Practice tokens/Auction.sol\":2697:2736  payable(itemDetails[id].owner).transfer */\n      0xffffffffffffffffffffffffffffffffffffffff\n      and\n        /* \"Practice tokens/Auction.sol\":2697:2764  payable(itemDetails[id].owner).transfer(itemDetails[id].highestBid) */\n      0x08fc\n        /* \"Practice tokens/Auction.sol\":2737:2748  itemDetails */\n      0x01\n        /* \"Practice tokens/Auction.sol\":2737:2752  itemDetails[id] */\n      0x00\n        /* \"Practice tokens/Auction.sol\":2749:2751  id */\n      dup5\n        /* \"Practice tokens/Auction.sol\":2737:2752  itemDetails[id] */\n      dup2\n      mstore\n      0x20\n      add\n      swap1\n      dup2\n      mstore\n      0x20\n      add\n      0x00\n      keccak256\n        /* \"Practice tokens/Auction.sol\":2737:2763  itemDetails[id].highestBid */\n      0x03\n      add\n      sload\n        /* \"Practice tokens/Auction.sol\":2697:2764  payable(itemDetails[id].owner).transfer(itemDetails[id].highestBid) */\n      swap1\n      dup2\n      iszero\n      mul\n      swap1\n      mload(0x40)\n      0x00\n      mload(0x40)\n      dup1\n      dup4\n      sub\n      dup2\n      dup6\n      dup9\n      dup9\n      call\n      swap4\n      pop\n      pop\n      pop\n      pop\n      iszero\n      dup1\n      iszero\n      tag_57\n      jumpi\n      returndatasize\n      0x00\n      dup1\n      returndatacopy\n      revert(0x00, returndatasize)\n    tag_57:\n      pop\n        /* \"Practice tokens/Auction.sol\":2798:2809  itemDetails */\n      0x01\n        /* \"Practice tokens/Auction.sol\":2798:2813  itemDetails[id] */\n      0x00\n        /* \"Practice tokens/Auction.sol\":2810:2812  id */\n      dup3\n        /* \"Practice tokens/Auction.sol\":2798:2813  itemDetails[id] */\n      dup2\n      mstore\n      0x20\n      add\n      swap1\n      dup2\n      mstore\n      0x20\n      add\n      0x00\n      keccak256\n        /* \"Practice tokens/Auction.sol\":2798:2826  itemDetails[id].highestBider */\n      0x04\n      add\n      0x00\n      swap1\n      sload\n      swap1\n      0x0100\n      exp\n      swap1\n      div\n      0xffffffffffffffffffffffffffffffffffffffff\n      and\n        /* \"Practice tokens/Auction.sol\":2775:2786  itemDetails */\n      0x01\n        /* \"Practice tokens/Auction.sol\":2775:2790  itemDetails[id] */\n      0x00\n        /* \"Practice tokens/Auction.sol\":2787:2789  id */\n      dup4\n        /* \"Practice tokens/Auction.sol\":2775:2790  itemDetails[id] */\n      dup2\n      mstore\n      0x20\n      add\n      swap1\n      dup2\n      mstore\n      0x20\n      add\n      0x00\n      keccak256\n        /* \"Practice tokens/Auction.sol\":2775:2796  itemDetails[id].owner */\n      0x01\n      add\n      0x00\n        /* \"Practice tokens/Auction.sol\":2775:2826  itemDetails[id].owner= itemDetails[id].highestBider */\n      0x0100\n      exp\n      dup2\n      sload\n      dup2\n      0xffffffffffffffffffffffffffffffffffffffff\n      mul\n      not\n      and\n      swap1\n      dup4\n      0xffffffffffffffffffffffffffffffffffffffff\n      and\n      mul\n      or\n      swap1\n      sstore\n      pop\n        /* \"Practice tokens/Auction.sol\":2844:2855  itemDetails */\n      0x01\n        /* \"Practice tokens/Auction.sol\":2844:2859  itemDetails[id] */\n      0x00\n        /* \"Practice tokens/Auction.sol\":2856:2858  id */\n      dup3\n        /* \"Practice tokens/Auction.sol\":2844:2859  itemDetails[id] */\n      dup2\n      mstore\n      0x20\n      add\n      swap1\n      dup2\n      mstore\n      0x20\n      add\n      0x00\n      keccak256\n      0x00\n        /* \"Practice tokens/Auction.sol\":2837:2859  delete itemDetails[id] */\n      dup1\n      dup3\n      add\n      0x00\n      tag_58\n      swap2\n      swap1\n      tag_59\n      jump\t// in\n    tag_58:\n      0x01\n      dup3\n      add\n      exp(0x0100, 0x00)\n      dup2\n      sload\n      swap1\n      0xffffffffffffffffffffffffffffffffffffffff\n      mul\n      not\n      and\n      swap1\n      sstore\n      0x02\n      dup3\n      add\n      0x00\n      swap1\n      sstore\n      0x03\n      dup3\n      add\n      0x00\n      swap1\n      sstore\n      0x04\n      dup3\n      add\n      exp(0x0100, 0x00)\n      dup2\n      sload\n      swap1\n      0xffffffffffffffffffffffffffffffffffffffff\n      mul\n      not\n      and\n      swap1\n      sstore\n      0x05\n      dup3\n      add\n      0x00\n      swap1\n      sstore\n      0x06\n      dup3\n      add\n      exp(0x0100, 0x00)\n      dup2\n      sload\n      swap1\n      0xffffffffffffffffffffffffffffffffffffffff\n      mul\n      not\n      and\n      swap1\n      sstore\n      pop\n      pop\n        /* \"Practice tokens/Auction.sol\":2475:2867  function auctionEnd(uint256 id) public payable {... */\n      pop\n      jump\t// out\n        /* \"Practice tokens/Auction.sol\":744:1282  function CreateItem( string memory _name) public {... */\n    tag_30:\n        /* \"Practice tokens/Auction.sol\":834:835  0 */\n      0x00\n        /* \"Practice tokens/Auction.sol\":812:836  msg.sender != address(0) */\n      0xffffffffffffffffffffffffffffffffffffffff\n      and\n        /* \"Practice tokens/Auction.sol\":812:822  msg.sender */\n      caller\n        /* \"Practice tokens/Auction.sol\":812:836  msg.sender != address(0) */\n      0xffffffffffffffffffffffffffffffffffffffff\n      and\n      sub\n        /* \"Practice tokens/Auction.sol\":804:850  require(msg.sender != address(0) ,\"Not Valid\") */\n      tag_61\n      jumpi\n      mload(0x40)\n      0x08c379a000000000000000000000000000000000000000000000000000000000\n      dup2\n      mstore\n      0x04\n      add\n      tag_62\n      swap1\n      tag_63\n      jump\t// in\n    tag_62:\n      mload(0x40)\n      dup1\n      swap2\n      sub\n      swap1\n      revert\n    tag_61:\n        /* \"Practice tokens/Auction.sol\":886:891  _name */\n      dup1\n        /* \"Practice tokens/Auction.sol\":861:872  itemDetails */\n      0x01\n        /* \"Practice tokens/Auction.sol\":861:880  itemDetails[itemID] */\n      0x00\n        /* \"Practice tokens/Auction.sol\":873:879  itemID */\n      dup1\n      sload\n        /* \"Practice tokens/Auction.sol\":861:880  itemDetails[itemID] */\n      dup2\n      mstore\n      0x20\n      add\n      swap1\n      dup2\n      mstore\n      0x20\n      add\n      0x00\n      keccak256\n        /* \"Practice tokens/Auction.sol\":861:885  itemDetails[itemID].name */\n      0x00\n      add\n        /* \"Practice tokens/Auction.sol\":861:891  itemDetails[itemID].name=_name */\n      swap1\n      dup2\n      tag_64\n      swap2\n      swap1\n      tag_65\n      jump\t// in\n    tag_64:\n      pop\n        /* \"Practice tokens/Auction.sol\":928:938  msg.sender */\n      caller\n        /* \"Practice tokens/Auction.sol\":902:913  itemDetails */\n      0x01\n        /* \"Practice tokens/Auction.sol\":902:921  itemDetails[itemID] */\n      0x00\n        /* \"Practice tokens/Auction.sol\":914:920  itemID */\n      dup1\n      sload\n        /* \"Practice tokens/Auction.sol\":902:921  itemDetails[itemID] */\n      dup2\n      mstore\n      0x20\n      add\n      swap1\n      dup2\n      mstore\n      0x20\n      add\n      0x00\n      keccak256\n        /* \"Practice tokens/Auction.sol\":902:927  itemDetails[itemID].owner */\n      0x01\n      add\n      0x00\n        /* \"Practice tokens/Auction.sol\":902:938  itemDetails[itemID].owner=msg.sender */\n      0x0100\n      exp\n      dup2\n      sload\n      dup2\n      0xffffffffffffffffffffffffffffffffffffffff\n      mul\n      not\n      and\n      swap1\n      dup4\n      0xffffffffffffffffffffffffffffffffffffffff\n      and\n      mul\n      or\n      swap1\n      sstore\n      pop\n        /* \"Practice tokens/Auction.sol\":977:978  0 */\n      0x00\n        /* \"Practice tokens/Auction.sol\":949:960  itemDetails */\n      0x01\n        /* \"Practice tokens/Auction.sol\":949:968  itemDetails[itemID] */\n      0x00\n        /* \"Practice tokens/Auction.sol\":961:967  itemID */\n      dup1\n      sload\n        /* \"Practice tokens/Auction.sol\":949:968  itemDetails[itemID] */\n      dup2\n      mstore\n      0x20\n      add\n      swap1\n      dup2\n      mstore\n      0x20\n      add\n      0x00\n      keccak256\n        /* \"Practice tokens/Auction.sol\":949:976  itemDetails[itemID].lastBid */\n      0x02\n      add\n        /* \"Practice tokens/Auction.sol\":949:978  itemDetails[itemID].lastBid=0 */\n      dup2\n      swap1\n      sstore\n      pop\n        /* \"Practice tokens/Auction.sol\":1020:1021  0 */\n      0x00\n        /* \"Practice tokens/Auction.sol\":989:1000  itemDetails */\n      0x01\n        /* \"Practice tokens/Auction.sol\":989:1008  itemDetails[itemID] */\n      0x00\n        /* \"Practice tokens/Auction.sol\":1001:1007  itemID */\n      dup1\n      sload\n        /* \"Practice tokens/Auction.sol\":989:1008  itemDetails[itemID] */\n      dup2\n      mstore\n      0x20\n      add\n      swap1\n      dup2\n      mstore\n      0x20\n      add\n      0x00\n      keccak256\n        /* \"Practice tokens/Auction.sol\":989:1019  itemDetails[itemID].highestBid */\n      0x03\n      add\n        /* \"Practice tokens/Auction.sol\":989:1021  itemDetails[itemID].highestBid=0 */\n      dup2\n      swap1\n      sstore\n      pop\n        /* \"Practice tokens/Auction.sol\":1073:1074  0 */\n      0x00\n        /* \"Practice tokens/Auction.sol\":1032:1043  itemDetails */\n      0x01\n        /* \"Practice tokens/Auction.sol\":1032:1051  itemDetails[itemID] */\n      0x00\n        /* \"Practice tokens/Auction.sol\":1044:1050  itemID */\n      dup1\n      sload\n        /* \"Practice tokens/Auction.sol\":1032:1051  itemDetails[itemID] */\n      dup2\n      mstore\n      0x20\n      add\n      swap1\n      dup2\n      mstore\n      0x20\n      add\n      0x00\n      keccak256\n        /* \"Practice tokens/Auction.sol\":1032:1064  itemDetails[itemID].highestBider */\n      0x04\n      add\n      0x00\n        /* \"Practice tokens/Auction.sol\":1032:1075  itemDetails[itemID].highestBider=address(0) */\n      0x0100\n      exp\n      dup2\n      sload\n      dup2\n      0xffffffffffffffffffffffffffffffffffffffff\n      mul\n      not\n      and\n      swap1\n      dup4\n      0xffffffffffffffffffffffffffffffffffffffff\n      and\n      mul\n      or\n      swap1\n      sstore\n      pop\n        /* \"Practice tokens/Auction.sol\":1132:1133  0 */\n      0x00\n        /* \"Practice tokens/Auction.sol\":1086:1097  itemDetails */\n      0x01\n        /* \"Practice tokens/Auction.sol\":1086:1105  itemDetails[itemID] */\n      0x00\n        /* \"Practice tokens/Auction.sol\":1098:1104  itemID */\n      dup1\n      sload\n        /* \"Practice tokens/Auction.sol\":1086:1105  itemDetails[itemID] */\n      dup2\n      mstore\n      0x20\n      add\n      swap1\n      dup2\n      mstore\n      0x20\n      add\n      0x00\n      keccak256\n        /* \"Practice tokens/Auction.sol\":1086:1122  itemDetails[itemID].lastHighestBider */\n      0x06\n      add\n      0x00\n        /* \"Practice tokens/Auction.sol\":1086:1134  itemDetails[itemID].lastHighestBider=address (0) */\n      0x0100\n      exp\n      dup2\n      sload\n      dup2\n      0xffffffffffffffffffffffffffffffffffffffff\n      mul\n      not\n      and\n      swap1\n      dup4\n      0xffffffffffffffffffffffffffffffffffffffff\n      and\n      mul\n      or\n      swap1\n      sstore\n      pop\n        /* \"Practice tokens/Auction.sol\":1196:1200  3600 */\n      0x0e10\n        /* \"Practice tokens/Auction.sol\":1178:1193  block.timestamp */\n      timestamp\n        /* \"Practice tokens/Auction.sol\":1178:1200  block.timestamp + 3600 */\n      tag_66\n      swap2\n      swap1\n      tag_67\n      jump\t// in\n    tag_66:\n        /* \"Practice tokens/Auction.sol\":1145:1156  itemDetails */\n      0x01\n        /* \"Practice tokens/Auction.sol\":1145:1164  itemDetails[itemID] */\n      0x00\n        /* \"Practice tokens/Auction.sol\":1157:1163  itemID */\n      dup1\n      sload\n        /* \"Practice tokens/Auction.sol\":1145:1164  itemDetails[itemID] */\n      dup2\n      mstore\n      0x20\n      add\n      swap1\n      dup2\n      mstore\n      0x20\n      add\n      0x00\n      keccak256\n        /* \"Practice tokens/Auction.sol\":1145:1177  itemDetails[itemID].auction_time */\n      0x05\n      add\n        /* \"Practice tokens/Auction.sol\":1145:1200  itemDetails[itemID].auction_time=block.timestamp + 3600 */\n      dup2\n      swap1\n      sstore\n      pop\n        /* \"Practice tokens/Auction.sol\":1216:1254  createItem(msg.sender, itemID , _name) */\n      0xa7806320b37116843ec008da1594a383d57d02cf004956b72c34754bf6395070\n        /* \"Practice tokens/Auction.sol\":1227:1237  msg.sender */\n      caller\n        /* \"Practice tokens/Auction.sol\":1239:1245  itemID */\n      sload(0x00)\n        /* \"Practice tokens/Auction.sol\":1248:1253  _name */\n      dup4\n        /* \"Practice tokens/Auction.sol\":1216:1254  createItem(msg.sender, itemID , _name) */\n      mload(0x40)\n      tag_68\n      swap4\n      swap3\n      swap2\n      swap1\n      tag_69\n      jump\t// in\n    tag_68:\n      mload(0x40)\n      dup1\n      swap2\n      sub\n      swap1\n      log1\n        /* \"Practice tokens/Auction.sol\":1273:1274  1 */\n      0x01\n        /* \"Practice tokens/Auction.sol\":1265:1271  itemID */\n      0x00\n      dup1\n        /* \"Practice tokens/Auction.sol\":1265:1274  itemID+=1 */\n      dup3\n      dup3\n      sload\n      tag_70\n      swap2\n      swap1\n      tag_67\n      jump\t// in\n    tag_70:\n      swap3\n      pop\n      pop\n      dup2\n      swap1\n      sstore\n      pop\n        /* \"Practice tokens/Auction.sol\":744:1282  function CreateItem( string memory _name) public {... */\n      pop\n      jump\t// out\n        /* \"Practice tokens/Auction.sol\":1949:2066  function getHighestBid( uint256 id) public view returns(uint256) {... */\n    tag_34:\n        /* \"Practice tokens/Auction.sol\":2005:2012  uint256 */\n      0x00\n        /* \"Practice tokens/Auction.sol\":2032:2043  itemDetails */\n      0x01\n        /* \"Practice tokens/Auction.sol\":2032:2047  itemDetails[id] */\n      0x00\n        /* \"Practice tokens/Auction.sol\":2044:2046  id */\n      dup4\n        /* \"Practice tokens/Auction.sol\":2032:2047  itemDetails[id] */\n      dup2\n      mstore\n      0x20\n      add\n      swap1\n      dup2\n      mstore\n      0x20\n      add\n      0x00\n      keccak256\n        /* \"Practice tokens/Auction.sol\":2032:2058  itemDetails[id].highestBid */\n      0x03\n      add\n      sload\n        /* \"Practice tokens/Auction.sol\":2025:2058  return itemDetails[id].highestBid */\n      swap1\n      pop\n        /* \"Practice tokens/Auction.sol\":1949:2066  function getHighestBid( uint256 id) public view returns(uint256) {... */\n      swap2\n      swap1\n      pop\n      jump\t// out\n        /* \"Practice tokens/Auction.sol\":2202:2467  function cancelAuction( uint256 id) public  {... */\n    tag_40:\n        /* \"Practice tokens/Auction.sol\":2279:2290  itemDetails */\n      0x01\n        /* \"Practice tokens/Auction.sol\":2279:2294  itemDetails[id] */\n      0x00\n        /* \"Practice tokens/Auction.sol\":2291:2293  id */\n      dup3\n        /* \"Practice tokens/Auction.sol\":2279:2294  itemDetails[id] */\n      dup2\n      mstore\n      0x20\n      add\n      swap1\n      dup2\n      mstore\n      0x20\n      add\n      0x00\n      keccak256\n        /* \"Practice tokens/Auction.sol\":2279:2300  itemDetails[id].owner */\n      0x01\n      add\n      0x00\n      swap1\n      sload\n      swap1\n      0x0100\n      exp\n      swap1\n      div\n      0xffffffffffffffffffffffffffffffffffffffff\n      and\n        /* \"Practice tokens/Auction.sol\":2265:2300  msg.sender == itemDetails[id].owner */\n      0xffffffffffffffffffffffffffffffffffffffff\n      and\n        /* \"Practice tokens/Auction.sol\":2265:2275  msg.sender */\n      caller\n        /* \"Practice tokens/Auction.sol\":2265:2300  msg.sender == itemDetails[id].owner */\n      0xffffffffffffffffffffffffffffffffffffffff\n      and\n      eq\n        /* \"Practice tokens/Auction.sol\":2257:2338  require(msg.sender == itemDetails[id].owner,\" Only Owner can cancel the Auction\") */\n      tag_73\n      jumpi\n      mload(0x40)\n      0x08c379a000000000000000000000000000000000000000000000000000000000\n      dup2\n      mstore\n      0x04\n      add\n      tag_74\n      swap1\n      tag_75\n      jump\t// in\n    tag_74:\n      mload(0x40)\n      dup1\n      swap2\n      sub\n      swap1\n      revert\n    tag_73:\n        /* \"Practice tokens/Auction.sol\":2358:2369  itemDetails */\n      0x01\n        /* \"Practice tokens/Auction.sol\":2358:2373  itemDetails[id] */\n      0x00\n        /* \"Practice tokens/Auction.sol\":2370:2372  id */\n      dup3\n        /* \"Practice tokens/Auction.sol\":2358:2373  itemDetails[id] */\n      dup2\n      mstore\n      0x20\n      add\n      swap1\n      dup2\n      mstore\n      0x20\n      add\n      0x00\n      keccak256\n        /* \"Practice tokens/Auction.sol\":2358:2386  itemDetails[id].highestBider */\n      0x04\n      add\n      0x00\n      swap1\n      sload\n      swap1\n      0x0100\n      exp\n      swap1\n      div\n      0xffffffffffffffffffffffffffffffffffffffff\n      and\n        /* \"Practice tokens/Auction.sol\":2349:2396  payable (itemDetails[id].highestBider).transfer */\n      0xffffffffffffffffffffffffffffffffffffffff\n      and\n        /* \"Practice tokens/Auction.sol\":2349:2424  payable (itemDetails[id].highestBider).transfer(itemDetails[id].highestBid) */\n      0x08fc\n        /* \"Practice tokens/Auction.sol\":2397:2408  itemDetails */\n      0x01\n        /* \"Practice tokens/Auction.sol\":2397:2412  itemDetails[id] */\n      0x00\n        /* \"Practice tokens/Auction.sol\":2409:2411  id */\n      dup5\n        /* \"Practice tokens/Auction.sol\":2397:2412  itemDetails[id] */\n      dup2\n      mstore\n      0x20\n      add\n      swap1\n      dup2\n      mstore\n      0x20\n      add\n      0x00\n      keccak256\n        /* \"Practice tokens/Auction.sol\":2397:2423  itemDetails[id].highestBid */\n      0x03\n      add\n      sload\n        /* \"Practice tokens/Auction.sol\":2349:2424  payable (itemDetails[id].highestBider).transfer(itemDetails[id].highestBid) */\n      swap1\n      dup2\n      iszero\n      mul\n      swap1\n      mload(0x40)\n      0x00\n      mload(0x40)\n      dup1\n      dup4\n      sub\n      dup2\n      dup6\n      dup9\n      dup9\n      call\n      swap4\n      pop\n      pop\n      pop\n      pop\n      iszero\n      dup1\n      iszero\n      tag_77\n      jumpi\n      returndatasize\n      0x00\n      dup1\n      returndatacopy\n      revert(0x00, returndatasize)\n    tag_77:\n      pop\n        /* \"Practice tokens/Auction.sol\":2442:2453  itemDetails */\n      0x01\n        /* \"Practice tokens/Auction.sol\":2442:2457  itemDetails[id] */\n      0x00\n        /* \"Practice tokens/Auction.sol\":2454:2456  id */\n      dup3\n        /* \"Practice tokens/Auction.sol\":2442:2457  itemDetails[id] */\n      dup2\n      mstore\n      0x20\n      add\n      swap1\n      dup2\n      mstore\n      0x20\n      add\n      0x00\n      keccak256\n      0x00\n        /* \"Practice tokens/Auction.sol\":2435:2457  delete itemDetails[id] */\n      dup1\n      dup3\n      add\n      0x00\n      tag_78\n      swap2\n      swap1\n      tag_59\n      jump\t// in\n    tag_78:\n      0x01\n      dup3\n      add\n      exp(0x0100, 0x00)\n      dup2\n      sload\n      swap1\n      0xffffffffffffffffffffffffffffffffffffffff\n      mul\n      not\n      and\n      swap1\n      sstore\n      0x02\n      dup3\n      add\n      0x00\n      swap1\n      sstore\n      0x03\n      dup3\n      add\n      0x00\n      swap1\n      sstore\n      0x04\n      dup3\n      add\n      exp(0x0100, 0x00)\n      dup2\n      sload\n      swap1\n      0xffffffffffffffffffffffffffffffffffffffff\n      mul\n      not\n      and\n      swap1\n      sstore\n      0x05\n      dup3\n      add\n      0x00\n      swap1\n      sstore\n      0x06\n      dup3\n      add\n      exp(0x0100, 0x00)\n      dup2\n      sload\n      swap1\n      0xffffffffffffffffffffffffffffffffffffffff\n      mul\n      not\n      and\n      swap1\n      sstore\n      pop\n      pop\n        /* \"Practice tokens/Auction.sol\":2202:2467  function cancelAuction( uint256 id) public  {... */\n      pop\n      jump\t// out\n        /* \"Practice tokens/Auction.sol\":1290:1941  function placeBid(uint256 id) public payable  {... */\n    tag_43:\n        /* \"Practice tokens/Auction.sol\":1380:1390  msg.sender */\n      caller\n        /* \"Practice tokens/Auction.sol\":1355:1390  itemDetails[id].owner != msg.sender */\n      0xffffffffffffffffffffffffffffffffffffffff\n      and\n        /* \"Practice tokens/Auction.sol\":1355:1366  itemDetails */\n      0x01\n        /* \"Practice tokens/Auction.sol\":1355:1370  itemDetails[id] */\n      0x00\n        /* \"Practice tokens/Auction.sol\":1367:1369  id */\n      dup4\n        /* \"Practice tokens/Auction.sol\":1355:1370  itemDetails[id] */\n      dup2\n      mstore\n      0x20\n      add\n      swap1\n      dup2\n      mstore\n      0x20\n      add\n      0x00\n      keccak256\n        /* \"Practice tokens/Auction.sol\":1355:1376  itemDetails[id].owner */\n      0x01\n      add\n      0x00\n      swap1\n      sload\n      swap1\n      0x0100\n      exp\n      swap1\n      div\n      0xffffffffffffffffffffffffffffffffffffffff\n      and\n        /* \"Practice tokens/Auction.sol\":1355:1390  itemDetails[id].owner != msg.sender */\n      0xffffffffffffffffffffffffffffffffffffffff\n      and\n      sub\n        /* \"Practice tokens/Auction.sol\":1347:1410  require(itemDetails[id].owner != msg.sender,\" owner can't bid\") */\n      tag_80\n      jumpi\n      mload(0x40)\n      0x08c379a000000000000000000000000000000000000000000000000000000000\n      dup2\n      mstore\n      0x04\n      add\n      tag_81\n      swap1\n      tag_82\n      jump\t// in\n    tag_81:\n      mload(0x40)\n      dup1\n      swap2\n      sub\n      swap1\n      revert\n    tag_80:\n        /* \"Practice tokens/Auction.sol\":1460:1475  block.timestamp */\n      timestamp\n        /* \"Practice tokens/Auction.sol\":1429:1440  itemDetails */\n      0x01\n        /* \"Practice tokens/Auction.sol\":1429:1444  itemDetails[id] */\n      0x00\n        /* \"Practice tokens/Auction.sol\":1441:1443  id */\n      dup4\n        /* \"Practice tokens/Auction.sol\":1429:1444  itemDetails[id] */\n      dup2\n      mstore\n      0x20\n      add\n      swap1\n      dup2\n      mstore\n      0x20\n      add\n      0x00\n      keccak256\n        /* \"Practice tokens/Auction.sol\":1429:1457  itemDetails[id].auction_time */\n      0x05\n      add\n      sload\n        /* \"Practice tokens/Auction.sol\":1429:1475  itemDetails[id].auction_time > block.timestamp */\n      gt\n        /* \"Practice tokens/Auction.sol\":1421:1494  require(itemDetails[id].auction_time > block.timestamp,\"not started yet\") */\n      tag_83\n      jumpi\n      mload(0x40)\n      0x08c379a000000000000000000000000000000000000000000000000000000000\n      dup2\n      mstore\n      0x04\n      add\n      tag_84\n      swap1\n      tag_85\n      jump\t// in\n    tag_84:\n      mload(0x40)\n      dup1\n      swap2\n      sub\n      swap1\n      revert\n    tag_83:\n        /* \"Practice tokens/Auction.sol\":1526:1537  itemDetails */\n      0x01\n        /* \"Practice tokens/Auction.sol\":1526:1541  itemDetails[id] */\n      0x00\n        /* \"Practice tokens/Auction.sol\":1538:1540  id */\n      dup3\n        /* \"Practice tokens/Auction.sol\":1526:1541  itemDetails[id] */\n      dup2\n      mstore\n      0x20\n      add\n      swap1\n      dup2\n      mstore\n      0x20\n      add\n      0x00\n      keccak256\n        /* \"Practice tokens/Auction.sol\":1526:1549  itemDetails[id].lastBid */\n      0x02\n      add\n      sload\n        /* \"Practice tokens/Auction.sol\":1513:1522  msg.value */\n      callvalue\n        /* \"Practice tokens/Auction.sol\":1513:1549  msg.value >= itemDetails[id].lastBid */\n      lt\n      iszero\n        /* \"Practice tokens/Auction.sol\":1505:1573  require(msg.value >= itemDetails[id].lastBid, \"Increase the Amount\") */\n      tag_86\n      jumpi\n      mload(0x40)\n      0x08c379a000000000000000000000000000000000000000000000000000000000\n      dup2\n      mstore\n      0x04\n      add\n      tag_87\n      swap1\n      tag_88\n      jump\t// in\n    tag_87:\n      mload(0x40)\n      dup1\n      swap2\n      sub\n      swap1\n      revert\n    tag_86:\n        /* \"Practice tokens/Auction.sol\":1608:1619  itemDetails */\n      0x01\n        /* \"Practice tokens/Auction.sol\":1608:1623  itemDetails[id] */\n      0x00\n        /* \"Practice tokens/Auction.sol\":1620:1622  id */\n      dup3\n        /* \"Practice tokens/Auction.sol\":1608:1623  itemDetails[id] */\n      dup2\n      mstore\n      0x20\n      add\n      swap1\n      dup2\n      mstore\n      0x20\n      add\n      0x00\n      keccak256\n        /* \"Practice tokens/Auction.sol\":1608:1634  itemDetails[id].highestBid */\n      0x03\n      add\n      sload\n        /* \"Practice tokens/Auction.sol\":1584:1595  itemDetails */\n      0x01\n        /* \"Practice tokens/Auction.sol\":1584:1599  itemDetails[id] */\n      0x00\n        /* \"Practice tokens/Auction.sol\":1596:1598  id */\n      dup4\n        /* \"Practice tokens/Auction.sol\":1584:1599  itemDetails[id] */\n      dup2\n      mstore\n      0x20\n      add\n      swap1\n      dup2\n      mstore\n      0x20\n      add\n      0x00\n      keccak256\n        /* \"Practice tokens/Auction.sol\":1584:1607  itemDetails[id].lastBid */\n      0x02\n      add\n        /* \"Practice tokens/Auction.sol\":1584:1634  itemDetails[id].lastBid=itemDetails[id].highestBid */\n      dup2\n      swap1\n      sstore\n      pop\n        /* \"Practice tokens/Auction.sol\":1678:1689  itemDetails */\n      0x01\n        /* \"Practice tokens/Auction.sol\":1678:1693  itemDetails[id] */\n      0x00\n        /* \"Practice tokens/Auction.sol\":1690:1692  id */\n      dup3\n        /* \"Practice tokens/Auction.sol\":1678:1693  itemDetails[id] */\n      dup2\n      mstore\n      0x20\n      add\n      swap1\n      dup2\n      mstore\n      0x20\n      add\n      0x00\n      keccak256\n        /* \"Practice tokens/Auction.sol\":1678:1706  itemDetails[id].highestBider */\n      0x04\n      add\n      0x00\n      swap1\n      sload\n      swap1\n      0x0100\n      exp\n      swap1\n      div\n      0xffffffffffffffffffffffffffffffffffffffff\n      and\n        /* \"Practice tokens/Auction.sol\":1645:1656  itemDetails */\n      0x01\n        /* \"Practice tokens/Auction.sol\":1645:1660  itemDetails[id] */\n      0x00\n        /* \"Practice tokens/Auction.sol\":1657:1659  id */\n      dup4\n        /* \"Practice tokens/Auction.sol\":1645:1660  itemDetails[id] */\n      dup2\n      mstore\n      0x20\n      add\n      swap1\n      dup2\n      mstore\n      0x20\n      add\n      0x00\n      keccak256\n        /* \"Practice tokens/Auction.sol\":1645:1677  itemDetails[id].lastHighestBider */\n      0x06\n      add\n      0x00\n        /* \"Practice tokens/Auction.sol\":1645:1706  itemDetails[id].lastHighestBider=itemDetails[id].highestBider */\n      0x0100\n      exp\n      dup2\n      sload\n      dup2\n      0xffffffffffffffffffffffffffffffffffffffff\n      mul\n      not\n      and\n      swap1\n      dup4\n      0xffffffffffffffffffffffffffffffffffffffff\n      and\n      mul\n      or\n      swap1\n      sstore\n      pop\n        /* \"Practice tokens/Auction.sol\":1744:1753  msg.value */\n      callvalue\n        /* \"Practice tokens/Auction.sol\":1717:1728  itemDetails */\n      0x01\n        /* \"Practice tokens/Auction.sol\":1717:1732  itemDetails[id] */\n      0x00\n        /* \"Practice tokens/Auction.sol\":1729:1731  id */\n      dup4\n        /* \"Practice tokens/Auction.sol\":1717:1732  itemDetails[id] */\n      dup2\n      mstore\n      0x20\n      add\n      swap1\n      dup2\n      mstore\n      0x20\n      add\n      0x00\n      keccak256\n        /* \"Practice tokens/Auction.sol\":1717:1743  itemDetails[id].highestBid */\n      0x03\n      add\n        /* \"Practice tokens/Auction.sol\":1717:1753  itemDetails[id].highestBid=msg.value */\n      dup2\n      swap1\n      sstore\n      pop\n        /* \"Practice tokens/Auction.sol\":1793:1803  msg.sender */\n      caller\n        /* \"Practice tokens/Auction.sol\":1764:1775  itemDetails */\n      0x01\n        /* \"Practice tokens/Auction.sol\":1764:1779  itemDetails[id] */\n      0x00\n        /* \"Practice tokens/Auction.sol\":1776:1778  id */\n      dup4\n        /* \"Practice tokens/Auction.sol\":1764:1779  itemDetails[id] */\n      dup2\n      mstore\n      0x20\n      add\n      swap1\n      dup2\n      mstore\n      0x20\n      add\n      0x00\n      keccak256\n        /* \"Practice tokens/Auction.sol\":1764:1792  itemDetails[id].highestBider */\n      0x04\n      add\n      0x00\n        /* \"Practice tokens/Auction.sol\":1764:1803  itemDetails[id].highestBider=msg.sender */\n      0x0100\n      exp\n      dup2\n      sload\n      dup2\n      0xffffffffffffffffffffffffffffffffffffffff\n      mul\n      not\n      and\n      swap1\n      dup4\n      0xffffffffffffffffffffffffffffffffffffffff\n      and\n      mul\n      or\n      swap1\n      sstore\n      pop\n        /* \"Practice tokens/Auction.sol\":1822:1833  itemDetails */\n      0x01\n        /* \"Practice tokens/Auction.sol\":1822:1837  itemDetails[id] */\n      0x00\n        /* \"Practice tokens/Auction.sol\":1834:1836  id */\n      dup3\n        /* \"Practice tokens/Auction.sol\":1822:1837  itemDetails[id] */\n      dup2\n      mstore\n      0x20\n      add\n      swap1\n      dup2\n      mstore\n      0x20\n      add\n      0x00\n      keccak256\n        /* \"Practice tokens/Auction.sol\":1822:1854  itemDetails[id].lastHighestBider */\n      0x06\n      add\n      0x00\n      swap1\n      sload\n      swap1\n      0x0100\n      exp\n      swap1\n      div\n      0xffffffffffffffffffffffffffffffffffffffff\n      and\n        /* \"Practice tokens/Auction.sol\":1814:1864  payable(itemDetails[id].lastHighestBider).transfer */\n      0xffffffffffffffffffffffffffffffffffffffff\n      and\n        /* \"Practice tokens/Auction.sol\":1814:1889  payable(itemDetails[id].lastHighestBider).transfer(itemDetails[id].lastBid) */\n      0x08fc\n        /* \"Practice tokens/Auction.sol\":1865:1876  itemDetails */\n      0x01\n        /* \"Practice tokens/Auction.sol\":1865:1880  itemDetails[id] */\n      0x00\n        /* \"Practice tokens/Auction.sol\":1877:1879  id */\n      dup5\n        /* \"Practice tokens/Auction.sol\":1865:1880  itemDetails[id] */\n      dup2\n      mstore\n      0x20\n      add\n      swap1\n      dup2\n      mstore\n      0x20\n      add\n      0x00\n      keccak256\n        /* \"Practice tokens/Auction.sol\":1865:1888  itemDetails[id].lastBid */\n      0x02\n      add\n      sload\n        /* \"Practice tokens/Auction.sol\":1814:1889  payable(itemDetails[id].lastHighestBider).transfer(itemDetails[id].lastBid) */\n      swap1\n      dup2\n      iszero\n      mul\n      swap1\n      mload(0x40)\n      0x00\n      mload(0x40)\n      dup1\n      dup4\n      sub\n      dup2\n      dup6\n      dup9\n      dup9\n      call\n      swap4\n      pop\n      pop\n      pop\n      pop\n      iszero\n      dup1\n      iszero\n      tag_90\n      jumpi\n      returndatasize\n      0x00\n      dup1\n      returndatacopy\n      revert(0x00, returndatasize)\n    tag_90:\n      pop\n        /* \"Practice tokens/Auction.sol\":1905:1931  Bid(msg.sender, msg.value) */\n      0xe684a55f31b79eca403df938249029212a5925ec6be8012e099b45bc1019e5d2\n        /* \"Practice tokens/Auction.sol\":1909:1919  msg.sender */\n      caller\n        /* \"Practice tokens/Auction.sol\":1921:1930  msg.value */\n      callvalue\n        /* \"Practice tokens/Auction.sol\":1905:1931  Bid(msg.sender, msg.value) */\n      mload(0x40)\n      tag_91\n      swap3\n      swap2\n      swap1\n      tag_92\n      jump\t// in\n    tag_91:\n      mload(0x40)\n      dup1\n      swap2\n      sub\n      swap1\n      log1\n        /* \"Practice tokens/Auction.sol\":1290:1941  function placeBid(uint256 id) public payable  {... */\n      pop\n      jump\t// out\n    tag_59:\n      pop\n      dup1\n      sload\n      tag_93\n      swap1\n      tag_45\n      jump\t// in\n    tag_93:\n      0x00\n      dup3\n      sstore\n      dup1\n      0x1f\n      lt\n      tag_95\n      jumpi\n      pop\n      jump(tag_94)\n    tag_95:\n      0x1f\n      add\n      0x20\n      swap1\n      div\n      swap1\n      0x00\n      mstore\n      keccak256(0x00, 0x20)\n      swap1\n      dup2\n      add\n      swap1\n      tag_96\n      swap2\n      swap1\n      tag_97\n      jump\t// in\n    tag_96:\n    tag_94:\n      pop\n      jump\t// out\n    tag_97:\n    tag_98:\n      dup1\n      dup3\n      gt\n      iszero\n      tag_99\n      jumpi\n      0x00\n      dup2\n      0x00\n      swap1\n      sstore\n      pop\n      0x01\n      add\n      jump(tag_98)\n    tag_99:\n      pop\n      swap1\n      jump\t// out\n        /* \"#utility.yul\":7:82   */\n    tag_100:\n        /* \"#utility.yul\":40:46   */\n      0x00\n        /* \"#utility.yul\":73:75   */\n      0x40\n        /* \"#utility.yul\":67:76   */\n      mload\n        /* \"#utility.yul\":57:76   */\n      swap1\n      pop\n        /* \"#utility.yul\":7:82   */\n      swap1\n      jump\t// out\n        /* \"#utility.yul\":88:205   */\n    tag_101:\n        /* \"#utility.yul\":197:198   */\n      0x00\n        /* \"#utility.yul\":194:195   */\n      dup1\n        /* \"#utility.yul\":187:199   */\n      revert\n        /* \"#utility.yul\":211:328   */\n    tag_102:\n        /* \"#utility.yul\":320:321   */\n      0x00\n        /* \"#utility.yul\":317:318   */\n      dup1\n        /* \"#utility.yul\":310:322   */\n      revert\n        /* \"#utility.yul\":334:411   */\n    tag_103:\n        /* \"#utility.yul\":371:378   */\n      0x00\n        /* \"#utility.yul\":400:405   */\n      dup2\n        /* \"#utility.yul\":389:405   */\n      swap1\n      pop\n        /* \"#utility.yul\":334:411   */\n      swap2\n      swap1\n      pop\n      jump\t// out\n        /* \"#utility.yul\":417:539   */\n    tag_104:\n        /* \"#utility.yul\":490:514   */\n      tag_159\n        /* \"#utility.yul\":508:513   */\n      dup2\n        /* \"#utility.yul\":490:514   */\n      tag_103\n      jump\t// in\n    tag_159:\n        /* \"#utility.yul\":483:488   */\n      dup2\n        /* \"#utility.yul\":480:515   */\n      eq\n        /* \"#utility.yul\":470:533   */\n      tag_160\n      jumpi\n        /* \"#utility.yul\":529:530   */\n      0x00\n        /* \"#utility.yul\":526:527   */\n      dup1\n        /* \"#utility.yul\":519:531   */\n      revert\n        /* \"#utility.yul\":470:533   */\n    tag_160:\n        /* \"#utility.yul\":417:539   */\n      pop\n      jump\t// out\n        /* \"#utility.yul\":545:684   */\n    tag_105:\n        /* \"#utility.yul\":591:596   */\n      0x00\n        /* \"#utility.yul\":629:635   */\n      dup2\n        /* \"#utility.yul\":616:636   */\n      calldataload\n        /* \"#utility.yul\":607:636   */\n      swap1\n      pop\n        /* \"#utility.yul\":645:678   */\n      tag_162\n        /* \"#utility.yul\":672:677   */\n      dup2\n        /* \"#utility.yul\":645:678   */\n      tag_104\n      jump\t// in\n    tag_162:\n        /* \"#utility.yul\":545:684   */\n      swap3\n      swap2\n      pop\n      pop\n      jump\t// out\n        /* \"#utility.yul\":690:1019   */\n    tag_13:\n        /* \"#utility.yul\":749:755   */\n      0x00\n        /* \"#utility.yul\":798:800   */\n      0x20\n        /* \"#utility.yul\":786:795   */\n      dup3\n        /* \"#utility.yul\":777:784   */\n      dup5\n        /* \"#utility.yul\":773:796   */\n      sub\n        /* \"#utility.yul\":769:801   */\n      slt\n        /* \"#utility.yul\":766:885   */\n      iszero\n      tag_164\n      jumpi\n        /* \"#utility.yul\":804:883   */\n      tag_165\n      tag_101\n      jump\t// in\n    tag_165:\n        /* \"#utility.yul\":766:885   */\n    tag_164:\n        /* \"#utility.yul\":924:925   */\n      0x00\n        /* \"#utility.yul\":949:1002   */\n      tag_166\n        /* \"#utility.yul\":994:1001   */\n      dup5\n        /* \"#utility.yul\":985:991   */\n      dup3\n        /* \"#utility.yul\":974:983   */\n      dup6\n        /* \"#utility.yul\":970:992   */\n      add\n        /* \"#utility.yul\":949:1002   */\n      tag_105\n      jump\t// in\n    tag_166:\n        /* \"#utility.yul\":939:1002   */\n      swap2\n      pop\n        /* \"#utility.yul\":895:1012   */\n      pop\n        /* \"#utility.yul\":690:1019   */\n      swap3\n      swap2\n      pop\n      pop\n      jump\t// out\n        /* \"#utility.yul\":1025:1124   */\n    tag_106:\n        /* \"#utility.yul\":1077:1083   */\n      0x00\n        /* \"#utility.yul\":1111:1116   */\n      dup2\n        /* \"#utility.yul\":1105:1117   */\n      mload\n        /* \"#utility.yul\":1095:1117   */\n      swap1\n      pop\n        /* \"#utility.yul\":1025:1124   */\n      swap2\n      swap1\n      pop\n      jump\t// out\n        /* \"#utility.yul\":1130:1299   */\n    tag_107:\n        /* \"#utility.yul\":1214:1225   */\n      0x00\n        /* \"#utility.yul\":1248:1254   */\n      dup3\n        /* \"#utility.yul\":1243:1246   */\n      dup3\n        /* \"#utility.yul\":1236:1255   */\n      mstore\n        /* \"#utility.yul\":1288:1292   */\n      0x20\n        /* \"#utility.yul\":1283:1286   */\n      dup3\n        /* \"#utility.yul\":1279:1293   */\n      add\n        /* \"#utility.yul\":1264:1293   */\n      swap1\n      pop\n        /* \"#utility.yul\":1130:1299   */\n      swap3\n      swap2\n      pop\n      pop\n      jump\t// out\n        /* \"#utility.yul\":1305:1551   */\n    tag_108:\n        /* \"#utility.yul\":1386:1387   */\n      0x00\n        /* \"#utility.yul\":1396:1509   */\n    tag_170:\n        /* \"#utility.yul\":1410:1416   */\n      dup4\n        /* \"#utility.yul\":1407:1408   */\n      dup2\n        /* \"#utility.yul\":1404:1417   */\n      lt\n        /* \"#utility.yul\":1396:1509   */\n      iszero\n      tag_172\n      jumpi\n        /* \"#utility.yul\":1495:1496   */\n      dup1\n        /* \"#utility.yul\":1490:1493   */\n      dup3\n        /* \"#utility.yul\":1486:1497   */\n      add\n        /* \"#utility.yul\":1480:1498   */\n      mload\n        /* \"#utility.yul\":1476:1477   */\n      dup2\n        /* \"#utility.yul\":1471:1474   */\n      dup5\n        /* \"#utility.yul\":1467:1478   */\n      add\n        /* \"#utility.yul\":1460:1499   */\n      mstore\n        /* \"#utility.yul\":1432:1434   */\n      0x20\n        /* \"#utility.yul\":1429:1430   */\n      dup2\n        /* \"#utility.yul\":1425:1435   */\n      add\n        /* \"#utility.yul\":1420:1435   */\n      swap1\n      pop\n        /* \"#utility.yul\":1396:1509   */\n      jump(tag_170)\n    tag_172:\n        /* \"#utility.yul\":1543:1544   */\n      0x00\n        /* \"#utility.yul\":1534:1540   */\n      dup5\n        /* \"#utility.yul\":1529:1532   */\n      dup5\n        /* \"#utility.yul\":1525:1541   */\n      add\n        /* \"#utility.yul\":1518:1545   */\n      mstore\n        /* \"#utility.yul\":1367:1551   */\n      pop\n        /* \"#utility.yul\":1305:1551   */\n      pop\n      pop\n      pop\n      jump\t// out\n        /* \"#utility.yul\":1557:1659   */\n    tag_109:\n        /* \"#utility.yul\":1598:1604   */\n      0x00\n        /* \"#utility.yul\":1649:1651   */\n      0x1f\n        /* \"#utility.yul\":1645:1652   */\n      not\n        /* \"#utility.yul\":1640:1642   */\n      0x1f\n        /* \"#utility.yul\":1633:1638   */\n      dup4\n        /* \"#utility.yul\":1629:1643   */\n      add\n        /* \"#utility.yul\":1625:1653   */\n      and\n        /* \"#utility.yul\":1615:1653   */\n      swap1\n      pop\n        /* \"#utility.yul\":1557:1659   */\n      swap2\n      swap1\n      pop\n      jump\t// out\n        /* \"#utility.yul\":1665:2042   */\n    tag_110:\n        /* \"#utility.yul\":1753:1756   */\n      0x00\n        /* \"#utility.yul\":1781:1820   */\n      tag_175\n        /* \"#utility.yul\":1814:1819   */\n      dup3\n        /* \"#utility.yul\":1781:1820   */\n      tag_106\n      jump\t// in\n    tag_175:\n        /* \"#utility.yul\":1836:1907   */\n      tag_176\n        /* \"#utility.yul\":1900:1906   */\n      dup2\n        /* \"#utility.yul\":1895:1898   */\n      dup6\n        /* \"#utility.yul\":1836:1907   */\n      tag_107\n      jump\t// in\n    tag_176:\n        /* \"#utility.yul\":1829:1907   */\n      swap4\n      pop\n        /* \"#utility.yul\":1916:1981   */\n      tag_177\n        /* \"#utility.yul\":1974:1980   */\n      dup2\n        /* \"#utility.yul\":1969:1972   */\n      dup6\n        /* \"#utility.yul\":1962:1966   */\n      0x20\n        /* \"#utility.yul\":1955:1960   */\n      dup7\n        /* \"#utility.yul\":1951:1967   */\n      add\n        /* \"#utility.yul\":1916:1981   */\n      tag_108\n      jump\t// in\n    tag_177:\n        /* \"#utility.yul\":2006:2035   */\n      tag_178\n        /* \"#utility.yul\":2028:2034   */\n      dup2\n        /* \"#utility.yul\":2006:2035   */\n      tag_109\n      jump\t// in\n    tag_178:\n        /* \"#utility.yul\":2001:2004   */\n      dup5\n        /* \"#utility.yul\":1997:2036   */\n      add\n        /* \"#utility.yul\":1990:2036   */\n      swap2\n      pop\n        /* \"#utility.yul\":1757:2042   */\n      pop\n        /* \"#utility.yul\":1665:2042   */\n      swap3\n      swap2\n      pop\n      pop\n      jump\t// out\n        /* \"#utility.yul\":2048:2174   */\n    tag_111:\n        /* \"#utility.yul\":2085:2092   */\n      0x00\n        /* \"#utility.yul\":2125:2167   */\n      0xffffffffffffffffffffffffffffffffffffffff\n        /* \"#utility.yul\":2118:2123   */\n      dup3\n        /* \"#utility.yul\":2114:2168   */\n      and\n        /* \"#utility.yul\":2103:2168   */\n      swap1\n      pop\n        /* \"#utility.yul\":2048:2174   */\n      swap2\n      swap1\n      pop\n      jump\t// out\n        /* \"#utility.yul\":2180:2276   */\n    tag_112:\n        /* \"#utility.yul\":2217:2224   */\n      0x00\n        /* \"#utility.yul\":2246:2270   */\n      tag_181\n        /* \"#utility.yul\":2264:2269   */\n      dup3\n        /* \"#utility.yul\":2246:2270   */\n      tag_111\n      jump\t// in\n    tag_181:\n        /* \"#utility.yul\":2235:2270   */\n      swap1\n      pop\n        /* \"#utility.yul\":2180:2276   */\n      swap2\n      swap1\n      pop\n      jump\t// out\n        /* \"#utility.yul\":2282:2400   */\n    tag_113:\n        /* \"#utility.yul\":2369:2393   */\n      tag_183\n        /* \"#utility.yul\":2387:2392   */\n      dup2\n        /* \"#utility.yul\":2369:2393   */\n      tag_112\n      jump\t// in\n    tag_183:\n        /* \"#utility.yul\":2364:2367   */\n      dup3\n        /* \"#utility.yul\":2357:2394   */\n      mstore\n        /* \"#utility.yul\":2282:2400   */\n      pop\n      pop\n      jump\t// out\n        /* \"#utility.yul\":2406:2524   */\n    tag_114:\n        /* \"#utility.yul\":2493:2517   */\n      tag_185\n        /* \"#utility.yul\":2511:2516   */\n      dup2\n        /* \"#utility.yul\":2493:2517   */\n      tag_103\n      jump\t// in\n    tag_185:\n        /* \"#utility.yul\":2488:2491   */\n      dup3\n        /* \"#utility.yul\":2481:2518   */\n      mstore\n        /* \"#utility.yul\":2406:2524   */\n      pop\n      pop\n      jump\t// out\n        /* \"#utility.yul\":2530:3507   */\n    tag_16:\n        /* \"#utility.yul\":2811:2815   */\n      0x00\n        /* \"#utility.yul\":2849:2852   */\n      0xe0\n        /* \"#utility.yul\":2838:2847   */\n      dup3\n        /* \"#utility.yul\":2834:2853   */\n      add\n        /* \"#utility.yul\":2826:2853   */\n      swap1\n      pop\n        /* \"#utility.yul\":2899:2908   */\n      dup2\n        /* \"#utility.yul\":2893:2897   */\n      dup2\n        /* \"#utility.yul\":2889:2909   */\n      sub\n        /* \"#utility.yul\":2885:2886   */\n      0x00\n        /* \"#utility.yul\":2874:2883   */\n      dup4\n        /* \"#utility.yul\":2870:2887   */\n      add\n        /* \"#utility.yul\":2863:2910   */\n      mstore\n        /* \"#utility.yul\":2927:3005   */\n      tag_187\n        /* \"#utility.yul\":3000:3004   */\n      dup2\n        /* \"#utility.yul\":2991:2997   */\n      dup11\n        /* \"#utility.yul\":2927:3005   */\n      tag_110\n      jump\t// in\n    tag_187:\n        /* \"#utility.yul\":2919:3005   */\n      swap1\n      pop\n        /* \"#utility.yul\":3015:3087   */\n      tag_188\n        /* \"#utility.yul\":3083:3085   */\n      0x20\n        /* \"#utility.yul\":3072:3081   */\n      dup4\n        /* \"#utility.yul\":3068:3086   */\n      add\n        /* \"#utility.yul\":3059:3065   */\n      dup10\n        /* \"#utility.yul\":3015:3087   */\n      tag_113\n      jump\t// in\n    tag_188:\n        /* \"#utility.yul\":3097:3169   */\n      tag_189\n        /* \"#utility.yul\":3165:3167   */\n      0x40\n        /* \"#utility.yul\":3154:3163   */\n      dup4\n        /* \"#utility.yul\":3150:3168   */\n      add\n        /* \"#utility.yul\":3141:3147   */\n      dup9\n        /* \"#utility.yul\":3097:3169   */\n      tag_114\n      jump\t// in\n    tag_189:\n        /* \"#utility.yul\":3179:3251   */\n      tag_190\n        /* \"#utility.yul\":3247:3249   */\n      0x60\n        /* \"#utility.yul\":3236:3245   */\n      dup4\n        /* \"#utility.yul\":3232:3250   */\n      add\n        /* \"#utility.yul\":3223:3229   */\n      dup8\n        /* \"#utility.yul\":3179:3251   */\n      tag_114\n      jump\t// in\n    tag_190:\n        /* \"#utility.yul\":3261:3334   */\n      tag_191\n        /* \"#utility.yul\":3329:3332   */\n      0x80\n        /* \"#utility.yul\":3318:3327   */\n      dup4\n        /* \"#utility.yul\":3314:3333   */\n      add\n        /* \"#utility.yul\":3305:3311   */\n      dup7\n        /* \"#utility.yul\":3261:3334   */\n      tag_113\n      jump\t// in\n    tag_191:\n        /* \"#utility.yul\":3344:3417   */\n      tag_192\n        /* \"#utility.yul\":3412:3415   */\n      0xa0\n        /* \"#utility.yul\":3401:3410   */\n      dup4\n        /* \"#utility.yul\":3397:3416   */\n      add\n        /* \"#utility.yul\":3388:3394   */\n      dup6\n        /* \"#utility.yul\":3344:3417   */\n      tag_114\n      jump\t// in\n    tag_192:\n        /* \"#utility.yul\":3427:3500   */\n      tag_193\n        /* \"#utility.yul\":3495:3498   */\n      0xc0\n        /* \"#utility.yul\":3484:3493   */\n      dup4\n        /* \"#utility.yul\":3480:3499   */\n      add\n        /* \"#utility.yul\":3471:3477   */\n      dup5\n        /* \"#utility.yul\":3427:3500   */\n      tag_113\n      jump\t// in\n    tag_193:\n        /* \"#utility.yul\":2530:3507   */\n      swap9\n      swap8\n      pop\n      pop\n      pop\n      pop\n      pop\n      pop\n      pop\n      pop\n      jump\t// out\n        /* \"#utility.yul\":3513:3735   */\n    tag_22:\n        /* \"#utility.yul\":3606:3610   */\n      0x00\n        /* \"#utility.yul\":3644:3646   */\n      0x20\n        /* \"#utility.yul\":3633:3642   */\n      dup3\n        /* \"#utility.yul\":3629:3647   */\n      add\n        /* \"#utility.yul\":3621:3647   */\n      swap1\n      pop\n        /* \"#utility.yul\":3657:3728   */\n      tag_195\n        /* \"#utility.yul\":3725:3726   */\n      0x00\n        /* \"#utility.yul\":3714:3723   */\n      dup4\n        /* \"#utility.yul\":3710:3727   */\n      add\n        /* \"#utility.yul\":3701:3707   */\n      dup5\n        /* \"#utility.yul\":3657:3728   */\n      tag_113\n      jump\t// in\n    tag_195:\n        /* \"#utility.yul\":3513:3735   */\n      swap3\n      swap2\n      pop\n      pop\n      jump\t// out\n        /* \"#utility.yul\":3741:3858   */\n    tag_115:\n        /* \"#utility.yul\":3850:3851   */\n      0x00\n        /* \"#utility.yul\":3847:3848   */\n      dup1\n        /* \"#utility.yul\":3840:3852   */\n      revert\n        /* \"#utility.yul\":3864:3981   */\n    tag_116:\n        /* \"#utility.yul\":3973:3974   */\n      0x00\n        /* \"#utility.yul\":3970:3971   */\n      dup1\n        /* \"#utility.yul\":3963:3975   */\n      revert\n        /* \"#utility.yul\":3987:4167   */\n    tag_117:\n        /* \"#utility.yul\":4035:4112   */\n      0x4e487b7100000000000000000000000000000000000000000000000000000000\n        /* \"#utility.yul\":4032:4033   */\n      0x00\n        /* \"#utility.yul\":4025:4113   */\n      mstore\n        /* \"#utility.yul\":4132:4136   */\n      0x41\n        /* \"#utility.yul\":4129:4130   */\n      0x04\n        /* \"#utility.yul\":4122:4137   */\n      mstore\n        /* \"#utility.yul\":4156:4160   */\n      0x24\n        /* \"#utility.yul\":4153:4154   */\n      0x00\n        /* \"#utility.yul\":4146:4161   */\n      revert\n        /* \"#utility.yul\":4173:4454   */\n    tag_118:\n        /* \"#utility.yul\":4256:4283   */\n      tag_200\n        /* \"#utility.yul\":4278:4282   */\n      dup3\n        /* \"#utility.yul\":4256:4283   */\n      tag_109\n      jump\t// in\n    tag_200:\n        /* \"#utility.yul\":4248:4254   */\n      dup2\n        /* \"#utility.yul\":4244:4284   */\n      add\n        /* \"#utility.yul\":4386:4392   */\n      dup2\n        /* \"#utility.yul\":4374:4384   */\n      dup2\n        /* \"#utility.yul\":4371:4393   */\n      lt\n        /* \"#utility.yul\":4350:4368   */\n      0xffffffffffffffff\n        /* \"#utility.yul\":4338:4348   */\n      dup3\n        /* \"#utility.yul\":4335:4369   */\n      gt\n        /* \"#utility.yul\":4332:4394   */\n      or\n        /* \"#utility.yul\":4329:4417   */\n      iszero\n      tag_201\n      jumpi\n        /* \"#utility.yul\":4397:4415   */\n      tag_202\n      tag_117\n      jump\t// in\n    tag_202:\n        /* \"#utility.yul\":4329:4417   */\n    tag_201:\n        /* \"#utility.yul\":4437:4447   */\n      dup1\n        /* \"#utility.yul\":4433:4435   */\n      0x40\n        /* \"#utility.yul\":4426:4448   */\n      mstore\n        /* \"#utility.yul\":4216:4454   */\n      pop\n        /* \"#utility.yul\":4173:4454   */\n      pop\n      pop\n      jump\t// out\n        /* \"#utility.yul\":4460:4589   */\n    tag_119:\n        /* \"#utility.yul\":4494:4500   */\n      0x00\n        /* \"#utility.yul\":4521:4541   */\n      tag_204\n      tag_100\n      jump\t// in\n    tag_204:\n        /* \"#utility.yul\":4511:4541   */\n      swap1\n      pop\n        /* \"#utility.yul\":4550:4583   */\n      tag_205\n        /* \"#utility.yul\":4578:4582   */\n      dup3\n        /* \"#utility.yul\":4570:4576   */\n      dup3\n        /* \"#utility.yul\":4550:4583   */\n      tag_118\n      jump\t// in\n    tag_205:\n        /* \"#utility.yul\":4460:4589   */\n      swap2\n      swap1\n      pop\n      jump\t// out\n        /* \"#utility.yul\":4595:4903   */\n    tag_120:\n        /* \"#utility.yul\":4657:4661   */\n      0x00\n        /* \"#utility.yul\":4747:4765   */\n      0xffffffffffffffff\n        /* \"#utility.yul\":4739:4745   */\n      dup3\n        /* \"#utility.yul\":4736:4766   */\n      gt\n        /* \"#utility.yul\":4733:4789   */\n      iszero\n      tag_207\n      jumpi\n        /* \"#utility.yul\":4769:4787   */\n      tag_208\n      tag_117\n      jump\t// in\n    tag_208:\n        /* \"#utility.yul\":4733:4789   */\n    tag_207:\n        /* \"#utility.yul\":4807:4836   */\n      tag_209\n        /* \"#utility.yul\":4829:4835   */\n      dup3\n        /* \"#utility.yul\":4807:4836   */\n      tag_109\n      jump\t// in\n    tag_209:\n        /* \"#utility.yul\":4799:4836   */\n      swap1\n      pop\n        /* \"#utility.yul\":4891:4895   */\n      0x20\n        /* \"#utility.yul\":4885:4889   */\n      dup2\n        /* \"#utility.yul\":4881:4896   */\n      add\n        /* \"#utility.yul\":4873:4896   */\n      swap1\n      pop\n        /* \"#utility.yul\":4595:4903   */\n      swap2\n      swap1\n      pop\n      jump\t// out\n        /* \"#utility.yul\":4909:5055   */\n    tag_121:\n        /* \"#utility.yul\":5006:5012   */\n      dup3\n        /* \"#utility.yul\":5001:5004   */\n      dup2\n        /* \"#utility.yul\":4996:4999   */\n      dup4\n        /* \"#utility.yul\":4983:5013   */\n      calldatacopy\n        /* \"#utility.yul\":5047:5048   */\n      0x00\n        /* \"#utility.yul\":5038:5044   */\n      dup4\n        /* \"#utility.yul\":5033:5036   */\n      dup4\n        /* \"#utility.yul\":5029:5045   */\n      add\n        /* \"#utility.yul\":5022:5049   */\n      mstore\n        /* \"#utility.yul\":4909:5055   */\n      pop\n      pop\n      pop\n      jump\t// out\n        /* \"#utility.yul\":5061:5486   */\n    tag_122:\n        /* \"#utility.yul\":5139:5144   */\n      0x00\n        /* \"#utility.yul\":5164:5230   */\n      tag_212\n        /* \"#utility.yul\":5180:5229   */\n      tag_213\n        /* \"#utility.yul\":5222:5228   */\n      dup5\n        /* \"#utility.yul\":5180:5229   */\n      tag_120\n      jump\t// in\n    tag_213:\n        /* \"#utility.yul\":5164:5230   */\n      tag_119\n      jump\t// in\n    tag_212:\n        /* \"#utility.yul\":5155:5230   */\n      swap1\n      pop\n        /* \"#utility.yul\":5253:5259   */\n      dup3\n        /* \"#utility.yul\":5246:5251   */\n      dup2\n        /* \"#utility.yul\":5239:5260   */\n      mstore\n        /* \"#utility.yul\":5291:5295   */\n      0x20\n        /* \"#utility.yul\":5284:5289   */\n      dup2\n        /* \"#utility.yul\":5280:5296   */\n      add\n        /* \"#utility.yul\":5329:5332   */\n      dup5\n        /* \"#utility.yul\":5320:5326   */\n      dup5\n        /* \"#utility.yul\":5315:5318   */\n      dup5\n        /* \"#utility.yul\":5311:5327   */\n      add\n        /* \"#utility.yul\":5308:5333   */\n      gt\n        /* \"#utility.yul\":5305:5417   */\n      iszero\n      tag_214\n      jumpi\n        /* \"#utility.yul\":5336:5415   */\n      tag_215\n      tag_116\n      jump\t// in\n    tag_215:\n        /* \"#utility.yul\":5305:5417   */\n    tag_214:\n        /* \"#utility.yul\":5426:5480   */\n      tag_216\n        /* \"#utility.yul\":5473:5479   */\n      dup5\n        /* \"#utility.yul\":5468:5471   */\n      dup3\n        /* \"#utility.yul\":5463:5466   */\n      dup6\n        /* \"#utility.yul\":5426:5480   */\n      tag_121\n      jump\t// in\n    tag_216:\n        /* \"#utility.yul\":5145:5486   */\n      pop\n        /* \"#utility.yul\":5061:5486   */\n      swap4\n      swap3\n      pop\n      pop\n      pop\n      jump\t// out\n        /* \"#utility.yul\":5506:5846   */\n    tag_123:\n        /* \"#utility.yul\":5562:5567   */\n      0x00\n        /* \"#utility.yul\":5611:5614   */\n      dup3\n        /* \"#utility.yul\":5604:5608   */\n      0x1f\n        /* \"#utility.yul\":5596:5602   */\n      dup4\n        /* \"#utility.yul\":5592:5609   */\n      add\n        /* \"#utility.yul\":5588:5615   */\n      slt\n        /* \"#utility.yul\":5578:5700   */\n      tag_218\n      jumpi\n        /* \"#utility.yul\":5619:5698   */\n      tag_219\n      tag_115\n      jump\t// in\n    tag_219:\n        /* \"#utility.yul\":5578:5700   */\n    tag_218:\n        /* \"#utility.yul\":5736:5742   */\n      dup2\n        /* \"#utility.yul\":5723:5743   */\n      calldataload\n        /* \"#utility.yul\":5761:5840   */\n      tag_220\n        /* \"#utility.yul\":5836:5839   */\n      dup5\n        /* \"#utility.yul\":5828:5834   */\n      dup3\n        /* \"#utility.yul\":5821:5825   */\n      0x20\n        /* \"#utility.yul\":5813:5819   */\n      dup7\n        /* \"#utility.yul\":5809:5826   */\n      add\n        /* \"#utility.yul\":5761:5840   */\n      tag_122\n      jump\t// in\n    tag_220:\n        /* \"#utility.yul\":5752:5840   */\n      swap2\n      pop\n        /* \"#utility.yul\":5568:5846   */\n      pop\n        /* \"#utility.yul\":5506:5846   */\n      swap3\n      swap2\n      pop\n      pop\n      jump\t// out\n        /* \"#utility.yul\":5852:6361   */\n    tag_29:\n        /* \"#utility.yul\":5921:5927   */\n      0x00\n        /* \"#utility.yul\":5970:5972   */\n      0x20\n        /* \"#utility.yul\":5958:5967   */\n      dup3\n        /* \"#utility.yul\":5949:5956   */\n      dup5\n        /* \"#utility.yul\":5945:5968   */\n      sub\n        /* \"#utility.yul\":5941:5973   */\n      slt\n        /* \"#utility.yul\":5938:6057   */\n      iszero\n      tag_222\n      jumpi\n        /* \"#utility.yul\":5976:6055   */\n      tag_223\n      tag_101\n      jump\t// in\n    tag_223:\n        /* \"#utility.yul\":5938:6057   */\n    tag_222:\n        /* \"#utility.yul\":6124:6125   */\n      0x00\n        /* \"#utility.yul\":6113:6122   */\n      dup3\n        /* \"#utility.yul\":6109:6126   */\n      add\n        /* \"#utility.yul\":6096:6127   */\n      calldataload\n        /* \"#utility.yul\":6154:6172   */\n      0xffffffffffffffff\n        /* \"#utility.yul\":6146:6152   */\n      dup2\n        /* \"#utility.yul\":6143:6173   */\n      gt\n        /* \"#utility.yul\":6140:6257   */\n      iszero\n      tag_224\n      jumpi\n        /* \"#utility.yul\":6176:6255   */\n      tag_225\n      tag_102\n      jump\t// in\n    tag_225:\n        /* \"#utility.yul\":6140:6257   */\n    tag_224:\n        /* \"#utility.yul\":6281:6344   */\n      tag_226\n        /* \"#utility.yul\":6336:6343   */\n      dup5\n        /* \"#utility.yul\":6327:6333   */\n      dup3\n        /* \"#utility.yul\":6316:6325   */\n      dup6\n        /* \"#utility.yul\":6312:6334   */\n      add\n        /* \"#utility.yul\":6281:6344   */\n      tag_123\n      jump\t// in\n    tag_226:\n        /* \"#utility.yul\":6271:6344   */\n      swap2\n      pop\n        /* \"#utility.yul\":6067:6354   */\n      pop\n        /* \"#utility.yul\":5852:6361   */\n      swap3\n      swap2\n      pop\n      pop\n      jump\t// out\n        /* \"#utility.yul\":6367:6589   */\n    tag_36:\n        /* \"#utility.yul\":6460:6464   */\n      0x00\n        /* \"#utility.yul\":6498:6500   */\n      0x20\n        /* \"#utility.yul\":6487:6496   */\n      dup3\n        /* \"#utility.yul\":6483:6501   */\n      add\n        /* \"#utility.yul\":6475:6501   */\n      swap1\n      pop\n        /* \"#utility.yul\":6511:6582   */\n      tag_228\n        /* \"#utility.yul\":6579:6580   */\n      0x00\n        /* \"#utility.yul\":6568:6577   */\n      dup4\n        /* \"#utility.yul\":6564:6581   */\n      add\n        /* \"#utility.yul\":6555:6561   */\n      dup5\n        /* \"#utility.yul\":6511:6582   */\n      tag_114\n      jump\t// in\n    tag_228:\n        /* \"#utility.yul\":6367:6589   */\n      swap3\n      swap2\n      pop\n      pop\n      jump\t// out\n        /* \"#utility.yul\":6595:6775   */\n    tag_124:\n        /* \"#utility.yul\":6643:6720   */\n      0x4e487b7100000000000000000000000000000000000000000000000000000000\n        /* \"#utility.yul\":6640:6641   */\n      0x00\n        /* \"#utility.yul\":6633:6721   */\n      mstore\n        /* \"#utility.yul\":6740:6744   */\n      0x22\n        /* \"#utility.yul\":6737:6738   */\n      0x04\n        /* \"#utility.yul\":6730:6745   */\n      mstore\n        /* \"#utility.yul\":6764:6768   */\n      0x24\n        /* \"#utility.yul\":6761:6762   */\n      0x00\n        /* \"#utility.yul\":6754:6769   */\n      revert\n        /* \"#utility.yul\":6781:7101   */\n    tag_45:\n        /* \"#utility.yul\":6825:6831   */\n      0x00\n        /* \"#utility.yul\":6862:6863   */\n      0x02\n        /* \"#utility.yul\":6856:6860   */\n      dup3\n        /* \"#utility.yul\":6852:6864   */\n      div\n        /* \"#utility.yul\":6842:6864   */\n      swap1\n      pop\n        /* \"#utility.yul\":6909:6910   */\n      0x01\n        /* \"#utility.yul\":6903:6907   */\n      dup3\n        /* \"#utility.yul\":6899:6911   */\n      and\n        /* \"#utility.yul\":6930:6948   */\n      dup1\n        /* \"#utility.yul\":6920:7001   */\n      tag_231\n      jumpi\n        /* \"#utility.yul\":6986:6990   */\n      0x7f\n        /* \"#utility.yul\":6978:6984   */\n      dup3\n        /* \"#utility.yul\":6974:6991   */\n      and\n        /* \"#utility.yul\":6964:6991   */\n      swap2\n      pop\n        /* \"#utility.yul\":6920:7001   */\n    tag_231:\n        /* \"#utility.yul\":7048:7050   */\n      0x20\n        /* \"#utility.yul\":7040:7046   */\n      dup3\n        /* \"#utility.yul\":7037:7051   */\n      lt\n        /* \"#utility.yul\":7017:7035   */\n      dup2\n        /* \"#utility.yul\":7014:7052   */\n      sub\n        /* \"#utility.yul\":7011:7095   */\n      tag_232\n      jumpi\n        /* \"#utility.yul\":7067:7085   */\n      tag_233\n      tag_124\n      jump\t// in\n    tag_233:\n        /* \"#utility.yul\":7011:7095   */\n    tag_232:\n        /* \"#utility.yul\":6832:7101   */\n      pop\n        /* \"#utility.yul\":6781:7101   */\n      swap2\n      swap1\n      pop\n      jump\t// out\n        /* \"#utility.yul\":7107:7333   */\n    tag_125:\n        /* \"#utility.yul\":7247:7281   */\n      0x204f6e6c6520546865206f776e6572206f6620746865204974656d2063616e20\n        /* \"#utility.yul\":7243:7244   */\n      0x00\n        /* \"#utility.yul\":7235:7241   */\n      dup3\n        /* \"#utility.yul\":7231:7245   */\n      add\n        /* \"#utility.yul\":7224:7282   */\n      mstore\n        /* \"#utility.yul\":7316:7325   */\n      0x6163636573732e00000000000000000000000000000000000000000000000000\n        /* \"#utility.yul\":7311:7313   */\n      0x20\n        /* \"#utility.yul\":7303:7309   */\n      dup3\n        /* \"#utility.yul\":7299:7314   */\n      add\n        /* \"#utility.yul\":7292:7326   */\n      mstore\n        /* \"#utility.yul\":7107:7333   */\n      pop\n      jump\t// out\n        /* \"#utility.yul\":7339:7705   */\n    tag_126:\n        /* \"#utility.yul\":7481:7484   */\n      0x00\n        /* \"#utility.yul\":7502:7569   */\n      tag_236\n        /* \"#utility.yul\":7566:7568   */\n      0x27\n        /* \"#utility.yul\":7561:7564   */\n      dup4\n        /* \"#utility.yul\":7502:7569   */\n      tag_107\n      jump\t// in\n    tag_236:\n        /* \"#utility.yul\":7495:7569   */\n      swap2\n      pop\n        /* \"#utility.yul\":7578:7671   */\n      tag_237\n        /* \"#utility.yul\":7667:7670   */\n      dup3\n        /* \"#utility.yul\":7578:7671   */\n      tag_125\n      jump\t// in\n    tag_237:\n        /* \"#utility.yul\":7696:7698   */\n      0x40\n        /* \"#utility.yul\":7691:7694   */\n      dup3\n        /* \"#utility.yul\":7687:7699   */\n      add\n        /* \"#utility.yul\":7680:7699   */\n      swap1\n      pop\n        /* \"#utility.yul\":7339:7705   */\n      swap2\n      swap1\n      pop\n      jump\t// out\n        /* \"#utility.yul\":7711:8130   */\n    tag_55:\n        /* \"#utility.yul\":7877:7881   */\n      0x00\n        /* \"#utility.yul\":7915:7917   */\n      0x20\n        /* \"#utility.yul\":7904:7913   */\n      dup3\n        /* \"#utility.yul\":7900:7918   */\n      add\n        /* \"#utility.yul\":7892:7918   */\n      swap1\n      pop\n        /* \"#utility.yul\":7964:7973   */\n      dup2\n        /* \"#utility.yul\":7958:7962   */\n      dup2\n        /* \"#utility.yul\":7954:7974   */\n      sub\n        /* \"#utility.yul\":7950:7951   */\n      0x00\n        /* \"#utility.yul\":7939:7948   */\n      dup4\n        /* \"#utility.yul\":7935:7952   */\n      add\n        /* \"#utility.yul\":7928:7975   */\n      mstore\n        /* \"#utility.yul\":7992:8123   */\n      tag_239\n        /* \"#utility.yul\":8118:8122   */\n      dup2\n        /* \"#utility.yul\":7992:8123   */\n      tag_126\n      jump\t// in\n    tag_239:\n        /* \"#utility.yul\":7984:8123   */\n      swap1\n      pop\n        /* \"#utility.yul\":7711:8130   */\n      swap2\n      swap1\n      pop\n      jump\t// out\n        /* \"#utility.yul\":8136:8295   */\n    tag_127:\n        /* \"#utility.yul\":8276:8287   */\n      0x4e6f742056616c69640000000000000000000000000000000000000000000000\n        /* \"#utility.yul\":8272:8273   */\n      0x00\n        /* \"#utility.yul\":8264:8270   */\n      dup3\n        /* \"#utility.yul\":8260:8274   */\n      add\n        /* \"#utility.yul\":8253:8288   */\n      mstore\n        /* \"#utility.yul\":8136:8295   */\n      pop\n      jump\t// out\n        /* \"#utility.yul\":8301:8666   */\n    tag_128:\n        /* \"#utility.yul\":8443:8446   */\n      0x00\n        /* \"#utility.yul\":8464:8530   */\n      tag_242\n        /* \"#utility.yul\":8528:8529   */\n      0x09\n        /* \"#utility.yul\":8523:8526   */\n      dup4\n        /* \"#utility.yul\":8464:8530   */\n      tag_107\n      jump\t// in\n    tag_242:\n        /* \"#utility.yul\":8457:8530   */\n      swap2\n      pop\n        /* \"#utility.yul\":8539:8632   */\n      tag_243\n        /* \"#utility.yul\":8628:8631   */\n      dup3\n        /* \"#utility.yul\":8539:8632   */\n      tag_127\n      jump\t// in\n    tag_243:\n        /* \"#utility.yul\":8657:8659   */\n      0x20\n        /* \"#utility.yul\":8652:8655   */\n      dup3\n        /* \"#utility.yul\":8648:8660   */\n      add\n        /* \"#utility.yul\":8641:8660   */\n      swap1\n      pop\n        /* \"#utility.yul\":8301:8666   */\n      swap2\n      swap1\n      pop\n      jump\t// out\n        /* \"#utility.yul\":8672:9091   */\n    tag_63:\n        /* \"#utility.yul\":8838:8842   */\n      0x00\n        /* \"#utility.yul\":8876:8878   */\n      0x20\n        /* \"#utility.yul\":8865:8874   */\n      dup3\n        /* \"#utility.yul\":8861:8879   */\n      add\n        /* \"#utility.yul\":8853:8879   */\n      swap1\n      pop\n        /* \"#utility.yul\":8925:8934   */\n      dup2\n        /* \"#utility.yul\":8919:8923   */\n      dup2\n        /* \"#utility.yul\":8915:8935   */\n      sub\n        /* \"#utility.yul\":8911:8912   */\n      0x00\n        /* \"#utility.yul\":8900:8909   */\n      dup4\n        /* \"#utility.yul\":8896:8913   */\n      add\n        /* \"#utility.yul\":8889:8936   */\n      mstore\n        /* \"#utility.yul\":8953:9084   */\n      tag_245\n        /* \"#utility.yul\":9079:9083   */\n      dup2\n        /* \"#utility.yul\":8953:9084   */\n      tag_128\n      jump\t// in\n    tag_245:\n        /* \"#utility.yul\":8945:9084   */\n      swap1\n      pop\n        /* \"#utility.yul\":8672:9091   */\n      swap2\n      swap1\n      pop\n      jump\t// out\n        /* \"#utility.yul\":9097:9238   */\n    tag_129:\n        /* \"#utility.yul\":9146:9150   */\n      0x00\n        /* \"#utility.yul\":9169:9172   */\n      dup2\n        /* \"#utility.yul\":9161:9172   */\n      swap1\n      pop\n        /* \"#utility.yul\":9192:9195   */\n      dup2\n        /* \"#utility.yul\":9189:9190   */\n      0x00\n        /* \"#utility.yul\":9182:9196   */\n      mstore\n        /* \"#utility.yul\":9226:9230   */\n      0x20\n        /* \"#utility.yul\":9223:9224   */\n      0x00\n        /* \"#utility.yul\":9213:9231   */\n      keccak256\n        /* \"#utility.yul\":9205:9231   */\n      swap1\n      pop\n        /* \"#utility.yul\":9097:9238   */\n      swap2\n      swap1\n      pop\n      jump\t// out\n        /* \"#utility.yul\":9244:9337   */\n    tag_130:\n        /* \"#utility.yul\":9281:9287   */\n      0x00\n        /* \"#utility.yul\":9328:9330   */\n      0x20\n        /* \"#utility.yul\":9323:9325   */\n      0x1f\n        /* \"#utility.yul\":9316:9321   */\n      dup4\n        /* \"#utility.yul\":9312:9326   */\n      add\n        /* \"#utility.yul\":9308:9331   */\n      div\n        /* \"#utility.yul\":9298:9331   */\n      swap1\n      pop\n        /* \"#utility.yul\":9244:9337   */\n      swap2\n      swap1\n      pop\n      jump\t// out\n        /* \"#utility.yul\":9343:9450   */\n    tag_131:\n        /* \"#utility.yul\":9387:9395   */\n      0x00\n        /* \"#utility.yul\":9437:9442   */\n      dup3\n        /* \"#utility.yul\":9431:9435   */\n      dup3\n        /* \"#utility.yul\":9427:9443   */\n      shl\n        /* \"#utility.yul\":9406:9443   */\n      swap1\n      pop\n        /* \"#utility.yul\":9343:9450   */\n      swap3\n      swap2\n      pop\n      pop\n      jump\t// out\n        /* \"#utility.yul\":9456:9849   */\n    tag_132:\n        /* \"#utility.yul\":9525:9531   */\n      0x00\n        /* \"#utility.yul\":9575:9576   */\n      0x08\n        /* \"#utility.yul\":9563:9573   */\n      dup4\n        /* \"#utility.yul\":9559:9577   */\n      mul\n        /* \"#utility.yul\":9598:9695   */\n      tag_250\n        /* \"#utility.yul\":9628:9694   */\n      0xffffffffffffffffffffffffffffffffffffffffffffffffffffffffffffffff\n        /* \"#utility.yul\":9617:9626   */\n      dup3\n        /* \"#utility.yul\":9598:9695   */\n      tag_131\n      jump\t// in\n    tag_250:\n        /* \"#utility.yul\":9716:9755   */\n      tag_251\n        /* \"#utility.yul\":9746:9754   */\n      dup7\n        /* \"#utility.yul\":9735:9744   */\n      dup4\n        /* \"#utility.yul\":9716:9755   */\n      tag_131\n      jump\t// in\n    tag_251:\n        /* \"#utility.yul\":9704:9755   */\n      swap6\n      pop\n        /* \"#utility.yul\":9788:9792   */\n      dup1\n        /* \"#utility.yul\":9784:9793   */\n      not\n        /* \"#utility.yul\":9777:9782   */\n      dup5\n        /* \"#utility.yul\":9773:9794   */\n      and\n        /* \"#utility.yul\":9764:9794   */\n      swap4\n      pop\n        /* \"#utility.yul\":9837:9841   */\n      dup1\n        /* \"#utility.yul\":9827:9835   */\n      dup7\n        /* \"#utility.yul\":9823:9842   */\n      and\n        /* \"#utility.yul\":9816:9821   */\n      dup5\n        /* \"#utility.yul\":9813:9843   */\n      or\n        /* \"#utility.yul\":9803:9843   */\n      swap3\n      pop\n        /* \"#utility.yul\":9532:9849   */\n      pop\n      pop\n        /* \"#utility.yul\":9456:9849   */\n      swap4\n      swap3\n      pop\n      pop\n      pop\n      jump\t// out\n        /* \"#utility.yul\":9855:9915   */\n    tag_133:\n        /* \"#utility.yul\":9883:9886   */\n      0x00\n        /* \"#utility.yul\":9904:9909   */\n      dup2\n        /* \"#utility.yul\":9897:9909   */\n      swap1\n      pop\n        /* \"#utility.yul\":9855:9915   */\n      swap2\n      swap1\n      pop\n      jump\t// out\n        /* \"#utility.yul\":9921:10063   */\n    tag_134:\n        /* \"#utility.yul\":9971:9980   */\n      0x00\n        /* \"#utility.yul\":10004:10057   */\n      tag_254\n        /* \"#utility.yul\":10022:10056   */\n      tag_255\n        /* \"#utility.yul\":10031:10055   */\n      tag_256\n        /* \"#utility.yul\":10049:10054   */\n      dup5\n        /* \"#utility.yul\":10031:10055   */\n      tag_103\n      jump\t// in\n    tag_256:\n        /* \"#utility.yul\":10022:10056   */\n      tag_133\n      jump\t// in\n    tag_255:\n        /* \"#utility.yul\":10004:10057   */\n      tag_103\n      jump\t// in\n    tag_254:\n        /* \"#utility.yul\":9991:10057   */\n      swap1\n      pop\n        /* \"#utility.yul\":9921:10063   */\n      swap2\n      swap1\n      pop\n      jump\t// out\n        /* \"#utility.yul\":10069:10144   */\n    tag_135:\n        /* \"#utility.yul\":10112:10115   */\n      0x00\n        /* \"#utility.yul\":10133:10138   */\n      dup2\n        /* \"#utility.yul\":10126:10138   */\n      swap1\n      pop\n        /* \"#utility.yul\":10069:10144   */\n      swap2\n      swap1\n      pop\n      jump\t// out\n        /* \"#utility.yul\":10150:10419   */\n    tag_136:\n        /* \"#utility.yul\":10260:10299   */\n      tag_259\n        /* \"#utility.yul\":10291:10298   */\n      dup4\n        /* \"#utility.yul\":10260:10299   */\n      tag_134\n      jump\t// in\n    tag_259:\n        /* \"#utility.yul\":10321:10412   */\n      tag_260\n        /* \"#utility.yul\":10370:10411   */\n      tag_261\n        /* \"#utility.yul\":10394:10410   */\n      dup3\n        /* \"#utility.yul\":10370:10411   */\n      tag_135\n      jump\t// in\n    tag_261:\n        /* \"#utility.yul\":10362:10368   */\n      dup5\n        /* \"#utility.yul\":10355:10359   */\n      dup5\n        /* \"#utility.yul\":10349:10360   */\n      sload\n        /* \"#utility.yul\":10321:10412   */\n      tag_132\n      jump\t// in\n    tag_260:\n        /* \"#utility.yul\":10315:10319   */\n      dup3\n        /* \"#utility.yul\":10308:10413   */\n      sstore\n        /* \"#utility.yul\":10226:10419   */\n      pop\n        /* \"#utility.yul\":10150:10419   */\n      pop\n      pop\n      pop\n      jump\t// out\n        /* \"#utility.yul\":10425:10498   */\n    tag_137:\n        /* \"#utility.yul\":10470:10473   */\n      0x00\n        /* \"#utility.yul\":10425:10498   */\n      swap1\n      jump\t// out\n        /* \"#utility.yul\":10504:10693   */\n    tag_138:\n        /* \"#utility.yul\":10581:10613   */\n      tag_264\n      tag_137\n      jump\t// in\n    tag_264:\n        /* \"#utility.yul\":10622:10687   */\n      tag_265\n        /* \"#utility.yul\":10680:10686   */\n      dup2\n        /* \"#utility.yul\":10672:10678   */\n      dup5\n        /* \"#utility.yul\":10666:10670   */\n      dup5\n        /* \"#utility.yul\":10622:10687   */\n      tag_136\n      jump\t// in\n    tag_265:\n        /* \"#utility.yul\":10557:10693   */\n      pop\n        /* \"#utility.yul\":10504:10693   */\n      pop\n      pop\n      jump\t// out\n        /* \"#utility.yul\":10699:10885   */\n    tag_139:\n        /* \"#utility.yul\":10759:10879   */\n    tag_267:\n        /* \"#utility.yul\":10776:10779   */\n      dup2\n        /* \"#utility.yul\":10769:10774   */\n      dup2\n        /* \"#utility.yul\":10766:10780   */\n      lt\n        /* \"#utility.yul\":10759:10879   */\n      iszero\n      tag_269\n      jumpi\n        /* \"#utility.yul\":10830:10869   */\n      tag_270\n        /* \"#utility.yul\":10867:10868   */\n      0x00\n        /* \"#utility.yul\":10860:10865   */\n      dup3\n        /* \"#utility.yul\":10830:10869   */\n      tag_138\n      jump\t// in\n    tag_270:\n        /* \"#utility.yul\":10803:10804   */\n      0x01\n        /* \"#utility.yul\":10796:10801   */\n      dup2\n        /* \"#utility.yul\":10792:10805   */\n      add\n        /* \"#utility.yul\":10783:10805   */\n      swap1\n      pop\n        /* \"#utility.yul\":10759:10879   */\n      jump(tag_267)\n    tag_269:\n        /* \"#utility.yul\":10699:10885   */\n      pop\n      pop\n      jump\t// out\n        /* \"#utility.yul\":10891:11434   */\n    tag_140:\n        /* \"#utility.yul\":10992:10994   */\n      0x1f\n        /* \"#utility.yul\":10987:10990   */\n      dup3\n        /* \"#utility.yul\":10984:10995   */\n      gt\n        /* \"#utility.yul\":10981:11427   */\n      iszero\n      tag_272\n      jumpi\n        /* \"#utility.yul\":11026:11064   */\n      tag_273\n        /* \"#utility.yul\":11058:11063   */\n      dup2\n        /* \"#utility.yul\":11026:11064   */\n      tag_129\n      jump\t// in\n    tag_273:\n        /* \"#utility.yul\":11110:11139   */\n      tag_274\n        /* \"#utility.yul\":11128:11138   */\n      dup5\n        /* \"#utility.yul\":11110:11139   */\n      tag_130\n      jump\t// in\n    tag_274:\n        /* \"#utility.yul\":11100:11108   */\n      dup2\n        /* \"#utility.yul\":11096:11140   */\n      add\n        /* \"#utility.yul\":11293:11295   */\n      0x20\n        /* \"#utility.yul\":11281:11291   */\n      dup6\n        /* \"#utility.yul\":11278:11296   */\n      lt\n        /* \"#utility.yul\":11275:11324   */\n      iszero\n      tag_275\n      jumpi\n        /* \"#utility.yul\":11314:11322   */\n      dup2\n        /* \"#utility.yul\":11299:11322   */\n      swap1\n      pop\n        /* \"#utility.yul\":11275:11324   */\n    tag_275:\n        /* \"#utility.yul\":11337:11417   */\n      tag_276\n        /* \"#utility.yul\":11393:11415   */\n      tag_277\n        /* \"#utility.yul\":11411:11414   */\n      dup6\n        /* \"#utility.yul\":11393:11415   */\n      tag_130\n      jump\t// in\n    tag_277:\n        /* \"#utility.yul\":11383:11391   */\n      dup4\n        /* \"#utility.yul\":11379:11416   */\n      add\n        /* \"#utility.yul\":11366:11377   */\n      dup3\n        /* \"#utility.yul\":11337:11417   */\n      tag_139\n      jump\t// in\n    tag_276:\n        /* \"#utility.yul\":10996:11427   */\n      pop\n      pop\n        /* \"#utility.yul\":10981:11427   */\n    tag_272:\n        /* \"#utility.yul\":10891:11434   */\n      pop\n      pop\n      pop\n      jump\t// out\n        /* \"#utility.yul\":11440:11557   */\n    tag_141:\n        /* \"#utility.yul\":11494:11502   */\n      0x00\n        /* \"#utility.yul\":11544:11549   */\n      dup3\n        /* \"#utility.yul\":11538:11542   */\n      dup3\n        /* \"#utility.yul\":11534:11550   */\n      shr\n        /* \"#utility.yul\":11513:11550   */\n      swap1\n      pop\n        /* \"#utility.yul\":11440:11557   */\n      swap3\n      swap2\n      pop\n      pop\n      jump\t// out\n        /* \"#utility.yul\":11563:11732   */\n    tag_142:\n        /* \"#utility.yul\":11607:11613   */\n      0x00\n        /* \"#utility.yul\":11640:11691   */\n      tag_280\n        /* \"#utility.yul\":11688:11689   */\n      0x00\n        /* \"#utility.yul\":11684:11690   */\n      not\n        /* \"#utility.yul\":11676:11681   */\n      dup5\n        /* \"#utility.yul\":11673:11674   */\n      0x08\n        /* \"#utility.yul\":11669:11682   */\n      mul\n        /* \"#utility.yul\":11640:11691   */\n      tag_141\n      jump\t// in\n    tag_280:\n        /* \"#utility.yul\":11636:11692   */\n      not\n        /* \"#utility.yul\":11721:11725   */\n      dup1\n        /* \"#utility.yul\":11715:11719   */\n      dup4\n        /* \"#utility.yul\":11711:11726   */\n      and\n        /* \"#utility.yul\":11701:11726   */\n      swap2\n      pop\n        /* \"#utility.yul\":11614:11732   */\n      pop\n        /* \"#utility.yul\":11563:11732   */\n      swap3\n      swap2\n      pop\n      pop\n      jump\t// out\n        /* \"#utility.yul\":11737:12032   */\n    tag_143:\n        /* \"#utility.yul\":11813:11817   */\n      0x00\n        /* \"#utility.yul\":11959:11988   */\n      tag_282\n        /* \"#utility.yul\":11984:11987   */\n      dup4\n        /* \"#utility.yul\":11978:11982   */\n      dup4\n        /* \"#utility.yul\":11959:11988   */\n      tag_142\n      jump\t// in\n    tag_282:\n        /* \"#utility.yul\":11951:11988   */\n      swap2\n      pop\n        /* \"#utility.yul\":12021:12024   */\n      dup3\n        /* \"#utility.yul\":12018:12019   */\n      0x02\n        /* \"#utility.yul\":12014:12025   */\n      mul\n        /* \"#utility.yul\":12008:12012   */\n      dup3\n        /* \"#utility.yul\":12005:12026   */\n      or\n        /* \"#utility.yul\":11997:12026   */\n      swap1\n      pop\n        /* \"#utility.yul\":11737:12032   */\n      swap3\n      swap2\n      pop\n      pop\n      jump\t// out\n        /* \"#utility.yul\":12037:13432   */\n    tag_65:\n        /* \"#utility.yul\":12154:12191   */\n      tag_284\n        /* \"#utility.yul\":12187:12190   */\n      dup3\n        /* \"#utility.yul\":12154:12191   */\n      tag_106\n      jump\t// in\n    tag_284:\n        /* \"#utility.yul\":12256:12274   */\n      0xffffffffffffffff\n        /* \"#utility.yul\":12248:12254   */\n      dup2\n        /* \"#utility.yul\":12245:12275   */\n      gt\n        /* \"#utility.yul\":12242:12298   */\n      iszero\n      tag_285\n      jumpi\n        /* \"#utility.yul\":12278:12296   */\n      tag_286\n      tag_117\n      jump\t// in\n    tag_286:\n        /* \"#utility.yul\":12242:12298   */\n    tag_285:\n        /* \"#utility.yul\":12322:12360   */\n      tag_287\n        /* \"#utility.yul\":12354:12358   */\n      dup3\n        /* \"#utility.yul\":12348:12359   */\n      sload\n        /* \"#utility.yul\":12322:12360   */\n      tag_45\n      jump\t// in\n    tag_287:\n        /* \"#utility.yul\":12407:12474   */\n      tag_288\n        /* \"#utility.yul\":12467:12473   */\n      dup3\n        /* \"#utility.yul\":12459:12465   */\n      dup3\n        /* \"#utility.yul\":12453:12457   */\n      dup6\n        /* \"#utility.yul\":12407:12474   */\n      tag_140\n      jump\t// in\n    tag_288:\n        /* \"#utility.yul\":12501:12502   */\n      0x00\n        /* \"#utility.yul\":12525:12529   */\n      0x20\n        /* \"#utility.yul\":12512:12529   */\n      swap1\n      pop\n        /* \"#utility.yul\":12557:12559   */\n      0x1f\n        /* \"#utility.yul\":12549:12555   */\n      dup4\n        /* \"#utility.yul\":12546:12560   */\n      gt\n        /* \"#utility.yul\":12574:12575   */\n      0x01\n        /* \"#utility.yul\":12569:13187   */\n      dup2\n      eq\n      tag_290\n      jumpi\n        /* \"#utility.yul\":13231:13232   */\n      0x00\n        /* \"#utility.yul\":13248:13254   */\n      dup5\n        /* \"#utility.yul\":13245:13322   */\n      iszero\n      tag_291\n      jumpi\n        /* \"#utility.yul\":13297:13306   */\n      dup3\n        /* \"#utility.yul\":13292:13295   */\n      dup8\n        /* \"#utility.yul\":13288:13307   */\n      add\n        /* \"#utility.yul\":13282:13308   */\n      mload\n        /* \"#utility.yul\":13273:13308   */\n      swap1\n      pop\n        /* \"#utility.yul\":13245:13322   */\n    tag_291:\n        /* \"#utility.yul\":13348:13415   */\n      tag_292\n        /* \"#utility.yul\":13408:13414   */\n      dup6\n        /* \"#utility.yul\":13401:13406   */\n      dup3\n        /* \"#utility.yul\":13348:13415   */\n      tag_143\n      jump\t// in\n    tag_292:\n        /* \"#utility.yul\":13342:13346   */\n      dup7\n        /* \"#utility.yul\":13335:13416   */\n      sstore\n        /* \"#utility.yul\":13204:13426   */\n      pop\n        /* \"#utility.yul\":12539:13426   */\n      jump(tag_289)\n        /* \"#utility.yul\":12569:13187   */\n    tag_290:\n        /* \"#utility.yul\":12621:12625   */\n      0x1f\n        /* \"#utility.yul\":12617:12626   */\n      not\n        /* \"#utility.yul\":12609:12615   */\n      dup5\n        /* \"#utility.yul\":12605:12627   */\n      and\n        /* \"#utility.yul\":12655:12692   */\n      tag_293\n        /* \"#utility.yul\":12687:12691   */\n      dup7\n        /* \"#utility.yul\":12655:12692   */\n      tag_129\n      jump\t// in\n    tag_293:\n        /* \"#utility.yul\":12714:12715   */\n      0x00\n        /* \"#utility.yul\":12728:12936   */\n    tag_294:\n        /* \"#utility.yul\":12742:12749   */\n      dup3\n        /* \"#utility.yul\":12739:12740   */\n      dup2\n        /* \"#utility.yul\":12736:12750   */\n      lt\n        /* \"#utility.yul\":12728:12936   */\n      iszero\n      tag_296\n      jumpi\n        /* \"#utility.yul\":12821:12830   */\n      dup5\n        /* \"#utility.yul\":12816:12819   */\n      dup10\n        /* \"#utility.yul\":12812:12831   */\n      add\n        /* \"#utility.yul\":12806:12832   */\n      mload\n        /* \"#utility.yul\":12798:12804   */\n      dup3\n        /* \"#utility.yul\":12791:12833   */\n      sstore\n        /* \"#utility.yul\":12872:12873   */\n      0x01\n        /* \"#utility.yul\":12864:12870   */\n      dup3\n        /* \"#utility.yul\":12860:12874   */\n      add\n        /* \"#utility.yul\":12850:12874   */\n      swap2\n      pop\n        /* \"#utility.yul\":12919:12921   */\n      0x20\n        /* \"#utility.yul\":12908:12917   */\n      dup6\n        /* \"#utility.yul\":12904:12922   */\n      add\n        /* \"#utility.yul\":12891:12922   */\n      swap5\n      pop\n        /* \"#utility.yul\":12765:12769   */\n      0x20\n        /* \"#utility.yul\":12762:12763   */\n      dup2\n        /* \"#utility.yul\":12758:12770   */\n      add\n        /* \"#utility.yul\":12753:12770   */\n      swap1\n      pop\n        /* \"#utility.yul\":12728:12936   */\n      jump(tag_294)\n    tag_296:\n        /* \"#utility.yul\":12964:12970   */\n      dup7\n        /* \"#utility.yul\":12955:12962   */\n      dup4\n        /* \"#utility.yul\":12952:12971   */\n      lt\n        /* \"#utility.yul\":12949:13128   */\n      iszero\n      tag_297\n      jumpi\n        /* \"#utility.yul\":13022:13031   */\n      dup5\n        /* \"#utility.yul\":13017:13020   */\n      dup10\n        /* \"#utility.yul\":13013:13032   */\n      add\n        /* \"#utility.yul\":13007:13033   */\n      mload\n        /* \"#utility.yul\":13065:13113   */\n      tag_298\n        /* \"#utility.yul\":13107:13111   */\n      0x1f\n        /* \"#utility.yul\":13099:13105   */\n      dup10\n        /* \"#utility.yul\":13095:13112   */\n      and\n        /* \"#utility.yul\":13084:13093   */\n      dup3\n        /* \"#utility.yul\":13065:13113   */\n      tag_142\n      jump\t// in\n    tag_298:\n        /* \"#utility.yul\":13057:13063   */\n      dup4\n        /* \"#utility.yul\":13050:13114   */\n      sstore\n        /* \"#utility.yul\":12972:13128   */\n      pop\n        /* \"#utility.yul\":12949:13128   */\n    tag_297:\n        /* \"#utility.yul\":13174:13175   */\n      0x01\n        /* \"#utility.yul\":13170:13171   */\n      0x02\n        /* \"#utility.yul\":13162:13168   */\n      dup9\n        /* \"#utility.yul\":13158:13172   */\n      mul\n        /* \"#utility.yul\":13154:13176   */\n      add\n        /* \"#utility.yul\":13148:13152   */\n      dup9\n        /* \"#utility.yul\":13141:13177   */\n      sstore\n        /* \"#utility.yul\":12576:13187   */\n      pop\n      pop\n      pop\n        /* \"#utility.yul\":12539:13426   */\n    tag_289:\n      pop\n        /* \"#utility.yul\":12129:13432   */\n      pop\n      pop\n      pop\n        /* \"#utility.yul\":12037:13432   */\n      pop\n      pop\n      jump\t// out\n        /* \"#utility.yul\":13438:13618   */\n    tag_144:\n        /* \"#utility.yul\":13486:13563   */\n      0x4e487b7100000000000000000000000000000000000000000000000000000000\n        /* \"#utility.yul\":13483:13484   */\n      0x00\n        /* \"#utility.yul\":13476:13564   */\n      mstore\n        /* \"#utility.yul\":13583:13587   */\n      0x11\n        /* \"#utility.yul\":13580:13581   */\n      0x04\n        /* \"#utility.yul\":13573:13588   */\n      mstore\n        /* \"#utility.yul\":13607:13611   */\n      0x24\n        /* \"#utility.yul\":13604:13605   */\n      0x00\n        /* \"#utility.yul\":13597:13612   */\n      revert\n        /* \"#utility.yul\":13624:13815   */\n    tag_67:\n        /* \"#utility.yul\":13664:13667   */\n      0x00\n        /* \"#utility.yul\":13683:13703   */\n      tag_301\n        /* \"#utility.yul\":13701:13702   */\n      dup3\n        /* \"#utility.yul\":13683:13703   */\n      tag_103\n      jump\t// in\n    tag_301:\n        /* \"#utility.yul\":13678:13703   */\n      swap2\n      pop\n        /* \"#utility.yul\":13717:13737   */\n      tag_302\n        /* \"#utility.yul\":13735:13736   */\n      dup4\n        /* \"#utility.yul\":13717:13737   */\n      tag_103\n      jump\t// in\n    tag_302:\n        /* \"#utility.yul\":13712:13737   */\n      swap3\n      pop\n        /* \"#utility.yul\":13760:13761   */\n      dup3\n        /* \"#utility.yul\":13757:13758   */\n      dup3\n        /* \"#utility.yul\":13753:13762   */\n      add\n        /* \"#utility.yul\":13746:13762   */\n      swap1\n      pop\n        /* \"#utility.yul\":13781:13784   */\n      dup1\n        /* \"#utility.yul\":13778:13779   */\n      dup3\n        /* \"#utility.yul\":13775:13785   */\n      gt\n        /* \"#utility.yul\":13772:13808   */\n      iszero\n      tag_303\n      jumpi\n        /* \"#utility.yul\":13788:13806   */\n      tag_304\n      tag_144\n      jump\t// in\n    tag_304:\n        /* \"#utility.yul\":13772:13808   */\n    tag_303:\n        /* \"#utility.yul\":13624:13815   */\n      swap3\n      swap2\n      pop\n      pop\n      jump\t// out\n        /* \"#utility.yul\":13821:14354   */\n    tag_69:\n        /* \"#utility.yul\":13990:13994   */\n      0x00\n        /* \"#utility.yul\":14028:14030   */\n      0x60\n        /* \"#utility.yul\":14017:14026   */\n      dup3\n        /* \"#utility.yul\":14013:14031   */\n      add\n        /* \"#utility.yul\":14005:14031   */\n      swap1\n      pop\n        /* \"#utility.yul\":14041:14112   */\n      tag_306\n        /* \"#utility.yul\":14109:14110   */\n      0x00\n        /* \"#utility.yul\":14098:14107   */\n      dup4\n        /* \"#utility.yul\":14094:14111   */\n      add\n        /* \"#utility.yul\":14085:14091   */\n      dup7\n        /* \"#utility.yul\":14041:14112   */\n      tag_113\n      jump\t// in\n    tag_306:\n        /* \"#utility.yul\":14122:14194   */\n      tag_307\n        /* \"#utility.yul\":14190:14192   */\n      0x20\n        /* \"#utility.yul\":14179:14188   */\n      dup4\n        /* \"#utility.yul\":14175:14193   */\n      add\n        /* \"#utility.yul\":14166:14172   */\n      dup6\n        /* \"#utility.yul\":14122:14194   */\n      tag_114\n      jump\t// in\n    tag_307:\n        /* \"#utility.yul\":14241:14250   */\n      dup2\n        /* \"#utility.yul\":14235:14239   */\n      dup2\n        /* \"#utility.yul\":14231:14251   */\n      sub\n        /* \"#utility.yul\":14226:14228   */\n      0x40\n        /* \"#utility.yul\":14215:14224   */\n      dup4\n        /* \"#utility.yul\":14211:14229   */\n      add\n        /* \"#utility.yul\":14204:14252   */\n      mstore\n        /* \"#utility.yul\":14269:14347   */\n      tag_308\n        /* \"#utility.yul\":14342:14346   */\n      dup2\n        /* \"#utility.yul\":14333:14339   */\n      dup5\n        /* \"#utility.yul\":14269:14347   */\n      tag_110\n      jump\t// in\n    tag_308:\n        /* \"#utility.yul\":14261:14347   */\n      swap1\n      pop\n        /* \"#utility.yul\":13821:14354   */\n      swap5\n      swap4\n      pop\n      pop\n      pop\n      pop\n      jump\t// out\n        /* \"#utility.yul\":14360:14581   */\n    tag_145:\n        /* \"#utility.yul\":14500:14534   */\n      0x204f6e6c79204f776e65722063616e2063616e63656c20746865204175637469\n        /* \"#utility.yul\":14496:14497   */\n      0x00\n        /* \"#utility.yul\":14488:14494   */\n      dup3\n        /* \"#utility.yul\":14484:14498   */\n      add\n        /* \"#utility.yul\":14477:14535   */\n      mstore\n        /* \"#utility.yul\":14569:14573   */\n      0x6f6e000000000000000000000000000000000000000000000000000000000000\n        /* \"#utility.yul\":14564:14566   */\n      0x20\n        /* \"#utility.yul\":14556:14562   */\n      dup3\n        /* \"#utility.yul\":14552:14567   */\n      add\n        /* \"#utility.yul\":14545:14574   */\n      mstore\n        /* \"#utility.yul\":14360:14581   */\n      pop\n      jump\t// out\n        /* \"#utility.yul\":14587:14953   */\n    tag_146:\n        /* \"#utility.yul\":14729:14732   */\n      0x00\n        /* \"#utility.yul\":14750:14817   */\n      tag_311\n        /* \"#utility.yul\":14814:14816   */\n      0x22\n        /* \"#utility.yul\":14809:14812   */\n      dup4\n        /* \"#utility.yul\":14750:14817   */\n      tag_107\n      jump\t// in\n    tag_311:\n        /* \"#utility.yul\":14743:14817   */\n      swap2\n      pop\n        /* \"#utility.yul\":14826:14919   */\n      tag_312\n        /* \"#utility.yul\":14915:14918   */\n      dup3\n        /* \"#utility.yul\":14826:14919   */\n      tag_145\n      jump\t// in\n    tag_312:\n        /* \"#utility.yul\":14944:14946   */\n      0x40\n        /* \"#utility.yul\":14939:14942   */\n      dup3\n        /* \"#utility.yul\":14935:14947   */\n      add\n        /* \"#utility.yul\":14928:14947   */\n      swap1\n      pop\n        /* \"#utility.yul\":14587:14953   */\n      swap2\n      swap1\n      pop\n      jump\t// out\n        /* \"#utility.yul\":14959:15378   */\n    tag_75:\n        /* \"#utility.yul\":15125:15129   */\n      0x00\n        /* \"#utility.yul\":15163:15165   */\n      0x20\n        /* \"#utility.yul\":15152:15161   */\n      dup3\n        /* \"#utility.yul\":15148:15166   */\n      add\n        /* \"#utility.yul\":15140:15166   */\n      swap1\n      pop\n        /* \"#utility.yul\":15212:15221   */\n      dup2\n        /* \"#utility.yul\":15206:15210   */\n      dup2\n        /* \"#utility.yul\":15202:15222   */\n      sub\n        /* \"#utility.yul\":15198:15199   */\n      0x00\n        /* \"#utility.yul\":15187:15196   */\n      dup4\n        /* \"#utility.yul\":15183:15200   */\n      add\n        /* \"#utility.yul\":15176:15223   */\n      mstore\n        /* \"#utility.yul\":15240:15371   */\n      tag_314\n        /* \"#utility.yul\":15366:15370   */\n      dup2\n        /* \"#utility.yul\":15240:15371   */\n      tag_146\n      jump\t// in\n    tag_314:\n        /* \"#utility.yul\":15232:15371   */\n      swap1\n      pop\n        /* \"#utility.yul\":14959:15378   */\n      swap2\n      swap1\n      pop\n      jump\t// out\n        /* \"#utility.yul\":15384:15550   */\n    tag_147:\n        /* \"#utility.yul\":15524:15542   */\n      0x206f776e65722063616e27742062696400000000000000000000000000000000\n        /* \"#utility.yul\":15520:15521   */\n      0x00\n        /* \"#utility.yul\":15512:15518   */\n      dup3\n        /* \"#utility.yul\":15508:15522   */\n      add\n        /* \"#utility.yul\":15501:15543   */\n      mstore\n        /* \"#utility.yul\":15384:15550   */\n      pop\n      jump\t// out\n        /* \"#utility.yul\":15556:15922   */\n    tag_148:\n        /* \"#utility.yul\":15698:15701   */\n      0x00\n        /* \"#utility.yul\":15719:15786   */\n      tag_317\n        /* \"#utility.yul\":15783:15785   */\n      0x10\n        /* \"#utility.yul\":15778:15781   */\n      dup4\n        /* \"#utility.yul\":15719:15786   */\n      tag_107\n      jump\t// in\n    tag_317:\n        /* \"#utility.yul\":15712:15786   */\n      swap2\n      pop\n        /* \"#utility.yul\":15795:15888   */\n      tag_318\n        /* \"#utility.yul\":15884:15887   */\n      dup3\n        /* \"#utility.yul\":15795:15888   */\n      tag_147\n      jump\t// in\n    tag_318:\n        /* \"#utility.yul\":15913:15915   */\n      0x20\n        /* \"#utility.yul\":15908:15911   */\n      dup3\n        /* \"#utility.yul\":15904:15916   */\n      add\n        /* \"#utility.yul\":15897:15916   */\n      swap1\n      pop\n        /* \"#utility.yul\":15556:15922   */\n      swap2\n      swap1\n      pop\n      jump\t// out\n        /* \"#utility.yul\":15928:16347   */\n    tag_82:\n        /* \"#utility.yul\":16094:16098   */\n      0x00\n        /* \"#utility.yul\":16132:16134   */\n      0x20\n        /* \"#utility.yul\":16121:16130   */\n      dup3\n        /* \"#utility.yul\":16117:16135   */\n      add\n        /* \"#utility.yul\":16109:16135   */\n      swap1\n      pop\n        /* \"#utility.yul\":16181:16190   */\n      dup2\n        /* \"#utility.yul\":16175:16179   */\n      dup2\n        /* \"#utility.yul\":16171:16191   */\n      sub\n        /* \"#utility.yul\":16167:16168   */\n      0x00\n        /* \"#utility.yul\":16156:16165   */\n      dup4\n        /* \"#utility.yul\":16152:16169   */\n      add\n        /* \"#utility.yul\":16145:16192   */\n      mstore\n        /* \"#utility.yul\":16209:16340   */\n      tag_320\n        /* \"#utility.yul\":16335:16339   */\n      dup2\n        /* \"#utility.yul\":16209:16340   */\n      tag_148\n      jump\t// in\n    tag_320:\n        /* \"#utility.yul\":16201:16340   */\n      swap1\n      pop\n        /* \"#utility.yul\":15928:16347   */\n      swap2\n      swap1\n      pop\n      jump\t// out\n        /* \"#utility.yul\":16353:16518   */\n    tag_149:\n        /* \"#utility.yul\":16493:16510   */\n      0x6e6f742073746172746564207965740000000000000000000000000000000000\n        /* \"#utility.yul\":16489:16490   */\n      0x00\n        /* \"#utility.yul\":16481:16487   */\n      dup3\n        /* \"#utility.yul\":16477:16491   */\n      add\n        /* \"#utility.yul\":16470:16511   */\n      mstore\n        /* \"#utility.yul\":16353:16518   */\n      pop\n      jump\t// out\n        /* \"#utility.yul\":16524:16890   */\n    tag_150:\n        /* \"#utility.yul\":16666:16669   */\n      0x00\n        /* \"#utility.yul\":16687:16754   */\n      tag_323\n        /* \"#utility.yul\":16751:16753   */\n      0x0f\n        /* \"#utility.yul\":16746:16749   */\n      dup4\n        /* \"#utility.yul\":16687:16754   */\n      tag_107\n      jump\t// in\n    tag_323:\n        /* \"#utility.yul\":16680:16754   */\n      swap2\n      pop\n        /* \"#utility.yul\":16763:16856   */\n      tag_324\n        /* \"#utility.yul\":16852:16855   */\n      dup3\n        /* \"#utility.yul\":16763:16856   */\n      tag_149\n      jump\t// in\n    tag_324:\n        /* \"#utility.yul\":16881:16883   */\n      0x20\n        /* \"#utility.yul\":16876:16879   */\n      dup3\n        /* \"#utility.yul\":16872:16884   */\n      add\n        /* \"#utility.yul\":16865:16884   */\n      swap1\n      pop\n        /* \"#utility.yul\":16524:16890   */\n      swap2\n      swap1\n      pop\n      jump\t// out\n        /* \"#utility.yul\":16896:17315   */\n    tag_85:\n        /* \"#utility.yul\":17062:17066   */\n      0x00\n        /* \"#utility.yul\":17100:17102   */\n      0x20\n        /* \"#utility.yul\":17089:17098   */\n      dup3\n        /* \"#utility.yul\":17085:17103   */\n      add\n        /* \"#utility.yul\":17077:17103   */\n      swap1\n      pop\n        /* \"#utility.yul\":17149:17158   */\n      dup2\n        /* \"#utility.yul\":17143:17147   */\n      dup2\n        /* \"#utility.yul\":17139:17159   */\n      sub\n        /* \"#utility.yul\":17135:17136   */\n      0x00\n        /* \"#utility.yul\":17124:17133   */\n      dup4\n        /* \"#utility.yul\":17120:17137   */\n      add\n        /* \"#utility.yul\":17113:17160   */\n      mstore\n        /* \"#utility.yul\":17177:17308   */\n      tag_326\n        /* \"#utility.yul\":17303:17307   */\n      dup2\n        /* \"#utility.yul\":17177:17308   */\n      tag_150\n      jump\t// in\n    tag_326:\n        /* \"#utility.yul\":17169:17308   */\n      swap1\n      pop\n        /* \"#utility.yul\":16896:17315   */\n      swap2\n      swap1\n      pop\n      jump\t// out\n        /* \"#utility.yul\":17321:17490   */\n    tag_151:\n        /* \"#utility.yul\":17461:17482   */\n      0x496e6372656173652074686520416d6f756e7400000000000000000000000000\n        /* \"#utility.yul\":17457:17458   */\n      0x00\n        /* \"#utility.yul\":17449:17455   */\n      dup3\n        /* \"#utility.yul\":17445:17459   */\n      add\n        /* \"#utility.yul\":17438:17483   */\n      mstore\n        /* \"#utility.yul\":17321:17490   */\n      pop\n      jump\t// out\n        /* \"#utility.yul\":17496:17862   */\n    tag_152:\n        /* \"#utility.yul\":17638:17641   */\n      0x00\n        /* \"#utility.yul\":17659:17726   */\n      tag_329\n        /* \"#utility.yul\":17723:17725   */\n      0x13\n        /* \"#utility.yul\":17718:17721   */\n      dup4\n        /* \"#utility.yul\":17659:17726   */\n      tag_107\n      jump\t// in\n    tag_329:\n        /* \"#utility.yul\":17652:17726   */\n      swap2\n      pop\n        /* \"#utility.yul\":17735:17828   */\n      tag_330\n        /* \"#utility.yul\":17824:17827   */\n      dup3\n        /* \"#utility.yul\":17735:17828   */\n      tag_151\n      jump\t// in\n    tag_330:\n        /* \"#utility.yul\":17853:17855   */\n      0x20\n        /* \"#utility.yul\":17848:17851   */\n      dup3\n        /* \"#utility.yul\":17844:17856   */\n      add\n        /* \"#utility.yul\":17837:17856   */\n      swap1\n      pop\n        /* \"#utility.yul\":17496:17862   */\n      swap2\n      swap1\n      pop\n      jump\t// out\n        /* \"#utility.yul\":17868:18287   */\n    tag_88:\n        /* \"#utility.yul\":18034:18038   */\n      0x00\n        /* \"#utility.yul\":18072:18074   */\n      0x20\n        /* \"#utility.yul\":18061:18070   */\n      dup3\n        /* \"#utility.yul\":18057:18075   */\n      add\n        /* \"#utility.yul\":18049:18075   */\n      swap1\n      pop\n        /* \"#utility.yul\":18121:18130   */\n      dup2\n        /* \"#utility.yul\":18115:18119   */\n      dup2\n        /* \"#utility.yul\":18111:18131   */\n      sub\n        /* \"#utility.yul\":18107:18108   */\n      0x00\n        /* \"#utility.yul\":18096:18105   */\n      dup4\n        /* \"#utility.yul\":18092:18109   */\n      add\n        /* \"#utility.yul\":18085:18132   */\n      mstore\n        /* \"#utility.yul\":18149:18280   */\n      tag_332\n        /* \"#utility.yul\":18275:18279   */\n      dup2\n        /* \"#utility.yul\":18149:18280   */\n      tag_152\n      jump\t// in\n    tag_332:\n        /* \"#utility.yul\":18141:18280   */\n      swap1\n      pop\n        /* \"#utility.yul\":17868:18287   */\n      swap2\n      swap1\n      pop\n      jump\t// out\n        /* \"#utility.yul\":18293:18625   */\n    tag_92:\n        /* \"#utility.yul\":18414:18418   */\n      0x00\n        /* \"#utility.yul\":18452:18454   */\n      0x40\n        /* \"#utility.yul\":18441:18450   */\n      dup3\n        /* \"#utility.yul\":18437:18455   */\n      add\n        /* \"#utility.yul\":18429:18455   */\n      swap1\n      pop\n        /* \"#utility.yul\":18465:18536   */\n      tag_334\n        /* \"#utility.yul\":18533:18534   */\n      0x00\n        /* \"#utility.yul\":18522:18531   */\n      dup4\n        /* \"#utility.yul\":18518:18535   */\n      add\n        /* \"#utility.yul\":18509:18515   */\n      dup6\n        /* \"#utility.yul\":18465:18536   */\n      tag_113\n      jump\t// in\n    tag_334:\n        /* \"#utility.yul\":18546:18618   */\n      tag_335\n        /* \"#utility.yul\":18614:18616   */\n      0x20\n        /* \"#utility.yul\":18603:18612   */\n      dup4\n        /* \"#utility.yul\":18599:18617   */\n      add\n        /* \"#utility.yul\":18590:18596   */\n      dup5\n        /* \"#utility.yul\":18546:18618   */\n      tag_114\n      jump\t// in\n    tag_335:\n        /* \"#utility.yul\":18293:18625   */\n      swap4\n      swap3\n      pop\n      pop\n      pop\n      jump\t// out\n\n    auxdata: 0xa26469706673582212208ab68956365633b94354039bee8d13a8a6e3f95ebd773e042237c4973a14ec1064736f6c63430008120033\n}\n",
				"bytecode": {
					"linkReferences": {},
					"object": "6080604052600160005534801561001557600080fd5b50611801806100256000396000f3fe6080604052600436106100705760003560e01c80636c7be44b1161004e5780636c7be44b146101115780638f2886441461013a57806396b5a755146101775780639979ef45146101a057610070565b80631fb4e3f0146100755780632fa23689146100b857806332246e9f146100f5575b600080fd5b34801561008157600080fd5b5061009c60048036038101906100979190610e18565b6101bc565b6040516100af9796959493929190610f25565b60405180910390f35b3480156100c457600080fd5b506100df60048036038101906100da9190610e18565b6102e6565b6040516100ec9190610f9b565b60405180910390f35b61010f600480360381019061010a9190610e18565b610326565b005b34801561011d57600080fd5b50610138600480360381019061013391906110eb565b6105c0565b005b34801561014657600080fd5b50610161600480360381019061015c9190610e18565b610814565b60405161016e9190611134565b60405180910390f35b34801561018357600080fd5b5061019e60048036038101906101999190610e18565b610834565b005b6101ba60048036038101906101b59190610e18565b610a21565b005b60016020528060005260406000206000915090508060000180546101df9061117e565b80601f016020809104026020016040519081016040528092919081815260200182805461020b9061117e565b80156102585780601f1061022d57610100808354040283529160200191610258565b820191906000526020600020905b81548152906001019060200180831161023b57829003601f168201915b5050505050908060010160009054906101000a900473ffffffffffffffffffffffffffffffffffffffff16908060020154908060030154908060040160009054906101000a900473ffffffffffffffffffffffffffffffffffffffff16908060050154908060060160009054906101000a900473ffffffffffffffffffffffffffffffffffffffff16905087565b60006001600083815260200190815260200160002060040160009054906101000a900473ffffffffffffffffffffffffffffffffffffffff169050919050565b6001600082815260200190815260200160002060050154421161034857600080fd5b6001600082815260200190815260200160002060010160009054906101000a900473ffffffffffffffffffffffffffffffffffffffff1673ffffffffffffffffffffffffffffffffffffffff163373ffffffffffffffffffffffffffffffffffffffff16146103ec576040517f08c379a00000000000000000000000000000000000000000000000000000000081526004016103e390611221565b60405180910390fd5b6001600082815260200190815260200160002060010160009054906101000a900473ffffffffffffffffffffffffffffffffffffffff1673ffffffffffffffffffffffffffffffffffffffff166108fc60016000848152602001908152602001600020600301549081150290604051600060405180830381858888f1935050505015801561047e573d6000803e3d6000fd5b506001600082815260200190815260200160002060040160009054906101000a900473ffffffffffffffffffffffffffffffffffffffff166001600083815260200190815260200160002060010160006101000a81548173ffffffffffffffffffffffffffffffffffffffff021916908373ffffffffffffffffffffffffffffffffffffffff160217905550600160008281526020019081526020016000206000808201600061052e9190610d71565b6001820160006101000a81549073ffffffffffffffffffffffffffffffffffffffff0219169055600282016000905560038201600090556004820160006101000a81549073ffffffffffffffffffffffffffffffffffffffff021916905560058201600090556006820160006101000a81549073ffffffffffffffffffffffffffffffffffffffff0219169055505050565b600073ffffffffffffffffffffffffffffffffffffffff163373ffffffffffffffffffffffffffffffffffffffff160361062f576040517f08c379a00000000000000000000000000000000000000000000000000000000081526004016106269061128d565b60405180910390fd5b80600160008054815260200190815260200160002060000190816106539190611459565b5033600160008054815260200190815260200160002060010160006101000a81548173ffffffffffffffffffffffffffffffffffffffff021916908373ffffffffffffffffffffffffffffffffffffffff160217905550600060016000805481526020019081526020016000206002018190555060006001600080548152602001908152602001600020600301819055506000600160008054815260200190815260200160002060040160006101000a81548173ffffffffffffffffffffffffffffffffffffffff021916908373ffffffffffffffffffffffffffffffffffffffff1602179055506000600160008054815260200190815260200160002060060160006101000a81548173ffffffffffffffffffffffffffffffffffffffff021916908373ffffffffffffffffffffffffffffffffffffffff160217905550610e10426107a0919061155a565b6001600080548152602001908152602001600020600501819055507fa7806320b37116843ec008da1594a383d57d02cf004956b72c34754bf639507033600054836040516107f09392919061158e565b60405180910390a1600160008082825461080a919061155a565b9250508190555050565b600060016000838152602001908152602001600020600301549050919050565b6001600082815260200190815260200160002060010160009054906101000a900473ffffffffffffffffffffffffffffffffffffffff1673ffffffffffffffffffffffffffffffffffffffff163373ffffffffffffffffffffffffffffffffffffffff16146108d8576040517f08c379a00000000000000000000000000000000000000000000000000000000081526004016108cf9061163e565b60405180910390fd5b6001600082815260200190815260200160002060040160009054906101000a900473ffffffffffffffffffffffffffffffffffffffff1673ffffffffffffffffffffffffffffffffffffffff166108fc60016000848152602001908152602001600020600301549081150290604051600060405180830381858888f1935050505015801561096a573d6000803e3d6000fd5b50600160008281526020019081526020016000206000808201600061098f9190610d71565b6001820160006101000a81549073ffffffffffffffffffffffffffffffffffffffff0219169055600282016000905560038201600090556004820160006101000a81549073ffffffffffffffffffffffffffffffffffffffff021916905560058201600090556006820160006101000a81549073ffffffffffffffffffffffffffffffffffffffff0219169055505050565b3373ffffffffffffffffffffffffffffffffffffffff166001600083815260200190815260200160002060010160009054906101000a900473ffffffffffffffffffffffffffffffffffffffff1673ffffffffffffffffffffffffffffffffffffffff1603610ac5576040517f08c379a0000000000000000000000000000000000000000000000000000000008152600401610abc906116aa565b60405180910390fd5b42600160008381526020019081526020016000206005015411610b1d576040517f08c379a0000000000000000000000000000000000000000000000000000000008152600401610b1490611716565b60405180910390fd5b6001600082815260200190815260200160002060020154341015610b76576040517f08c379a0000000000000000000000000000000000000000000000000000000008152600401610b6d90611782565b60405180910390fd5b600160008281526020019081526020016000206003015460016000838152602001908152602001600020600201819055506001600082815260200190815260200160002060040160009054906101000a900473ffffffffffffffffffffffffffffffffffffffff166001600083815260200190815260200160002060060160006101000a81548173ffffffffffffffffffffffffffffffffffffffff021916908373ffffffffffffffffffffffffffffffffffffffff160217905550346001600083815260200190815260200160002060030181905550336001600083815260200190815260200160002060040160006101000a81548173ffffffffffffffffffffffffffffffffffffffff021916908373ffffffffffffffffffffffffffffffffffffffff1602179055506001600082815260200190815260200160002060060160009054906101000a900473ffffffffffffffffffffffffffffffffffffffff1673ffffffffffffffffffffffffffffffffffffffff166108fc60016000848152602001908152602001600020600201549081150290604051600060405180830381858888f19350505050158015610d34573d6000803e3d6000fd5b507fe684a55f31b79eca403df938249029212a5925ec6be8012e099b45bc1019e5d23334604051610d669291906117a2565b60405180910390a150565b508054610d7d9061117e565b6000825580601f10610d8f5750610dae565b601f016020900490600052602060002090810190610dad9190610db1565b5b50565b5b80821115610dca576000816000905550600101610db2565b5090565b6000604051905090565b600080fd5b600080fd5b6000819050919050565b610df581610de2565b8114610e0057600080fd5b50565b600081359050610e1281610dec565b92915050565b600060208284031215610e2e57610e2d610dd8565b5b6000610e3c84828501610e03565b91505092915050565b600081519050919050565b600082825260208201905092915050565b60005b83811015610e7f578082015181840152602081019050610e64565b60008484015250505050565b6000601f19601f8301169050919050565b6000610ea782610e45565b610eb18185610e50565b9350610ec1818560208601610e61565b610eca81610e8b565b840191505092915050565b600073ffffffffffffffffffffffffffffffffffffffff82169050919050565b6000610f0082610ed5565b9050919050565b610f1081610ef5565b82525050565b610f1f81610de2565b82525050565b600060e0820190508181036000830152610f3f818a610e9c565b9050610f4e6020830189610f07565b610f5b6040830188610f16565b610f686060830187610f16565b610f756080830186610f07565b610f8260a0830185610f16565b610f8f60c0830184610f07565b98975050505050505050565b6000602082019050610fb06000830184610f07565b92915050565b600080fd5b600080fd5b7f4e487b7100000000000000000000000000000000000000000000000000000000600052604160045260246000fd5b610ff882610e8b565b810181811067ffffffffffffffff8211171561101757611016610fc0565b5b80604052505050565b600061102a610dce565b90506110368282610fef565b919050565b600067ffffffffffffffff82111561105657611055610fc0565b5b61105f82610e8b565b9050602081019050919050565b82818337600083830152505050565b600061108e6110898461103b565b611020565b9050828152602081018484840111156110aa576110a9610fbb565b5b6110b584828561106c565b509392505050565b600082601f8301126110d2576110d1610fb6565b5b81356110e284826020860161107b565b91505092915050565b60006020828403121561110157611100610dd8565b5b600082013567ffffffffffffffff81111561111f5761111e610ddd565b5b61112b848285016110bd565b91505092915050565b60006020820190506111496000830184610f16565b92915050565b7f4e487b7100000000000000000000000000000000000000000000000000000000600052602260045260246000fd5b6000600282049050600182168061119657607f821691505b6020821081036111a9576111a861114f565b5b50919050565b7f204f6e6c6520546865206f776e6572206f6620746865204974656d2063616e2060008201527f6163636573732e00000000000000000000000000000000000000000000000000602082015250565b600061120b602783610e50565b9150611216826111af565b604082019050919050565b6000602082019050818103600083015261123a816111fe565b9050919050565b7f4e6f742056616c69640000000000000000000000000000000000000000000000600082015250565b6000611277600983610e50565b915061128282611241565b602082019050919050565b600060208201905081810360008301526112a68161126a565b9050919050565b60008190508160005260206000209050919050565b60006020601f8301049050919050565b600082821b905092915050565b60006008830261130f7fffffffffffffffffffffffffffffffffffffffffffffffffffffffffffffffff826112d2565b61131986836112d2565b95508019841693508086168417925050509392505050565b6000819050919050565b600061135661135161134c84610de2565b611331565b610de2565b9050919050565b6000819050919050565b6113708361133b565b61138461137c8261135d565b8484546112df565b825550505050565b600090565b61139961138c565b6113a4818484611367565b505050565b5b818110156113c8576113bd600082611391565b6001810190506113aa565b5050565b601f82111561140d576113de816112ad565b6113e7846112c2565b810160208510156113f6578190505b61140a611402856112c2565b8301826113a9565b50505b505050565b600082821c905092915050565b600061143060001984600802611412565b1980831691505092915050565b6000611449838361141f565b9150826002028217905092915050565b61146282610e45565b67ffffffffffffffff81111561147b5761147a610fc0565b5b611485825461117e565b6114908282856113cc565b600060209050601f8311600181146114c357600084156114b1578287015190505b6114bb858261143d565b865550611523565b601f1984166114d1866112ad565b60005b828110156114f9578489015182556001820191506020850194506020810190506114d4565b868310156115165784890151611512601f89168261141f565b8355505b6001600288020188555050505b505050505050565b7f4e487b7100000000000000000000000000000000000000000000000000000000600052601160045260246000fd5b600061156582610de2565b915061157083610de2565b92508282019050808211156115885761158761152b565b5b92915050565b60006060820190506115a36000830186610f07565b6115b06020830185610f16565b81810360408301526115c28184610e9c565b9050949350505050565b7f204f6e6c79204f776e65722063616e2063616e63656c2074686520417563746960008201527f6f6e000000000000000000000000000000000000000000000000000000000000602082015250565b6000611628602283610e50565b9150611633826115cc565b604082019050919050565b600060208201905081810360008301526116578161161b565b9050919050565b7f206f776e65722063616e27742062696400000000000000000000000000000000600082015250565b6000611694601083610e50565b915061169f8261165e565b602082019050919050565b600060208201905081810360008301526116c381611687565b9050919050565b7f6e6f742073746172746564207965740000000000000000000000000000000000600082015250565b6000611700600f83610e50565b915061170b826116ca565b602082019050919050565b6000602082019050818103600083015261172f816116f3565b9050919050565b7f496e6372656173652074686520416d6f756e7400000000000000000000000000600082015250565b600061176c601383610e50565b915061177782611736565b602082019050919050565b6000602082019050818103600083015261179b8161175f565b9050919050565b60006040820190506117b76000830185610f07565b6117c46020830184610f16565b939250505056fea26469706673582212208ab68956365633b94354039bee8d13a8a6e3f95ebd773e042237c4973a14ec1064736f6c63430008120033",
					"opcodes": "PUSH1 0x80 PUSH1 0x40 MSTORE PUSH1 0x1 PUSH1 0x0 SSTORE CALLVALUE DUP1 ISZERO PUSH2 0x15 JUMPI PUSH1 0x0 DUP1 REVERT JUMPDEST POP PUSH2 0x1801 DUP1 PUSH2 0x25 PUSH1 0x0 CODECOPY PUSH1 0x0 RETURN INVALID PUSH1 0x80 PUSH1 0x40 MSTORE PUSH1 0x4 CALLDATASIZE LT PUSH2 0x70 JUMPI PUSH1 0x0 CALLDATALOAD PUSH1 0xE0 SHR DUP1 PUSH4 0x6C7BE44B GT PUSH2 0x4E JUMPI DUP1 PUSH4 0x6C7BE44B EQ PUSH2 0x111 JUMPI DUP1 PUSH4 0x8F288644 EQ PUSH2 0x13A JUMPI DUP1 PUSH4 0x96B5A755 EQ PUSH2 0x177 JUMPI DUP1 PUSH4 0x9979EF45 EQ PUSH2 0x1A0 JUMPI PUSH2 0x70 JUMP JUMPDEST DUP1 PUSH4 0x1FB4E3F0 EQ PUSH2 0x75 JUMPI DUP1 PUSH4 0x2FA23689 EQ PUSH2 0xB8 JUMPI DUP1 PUSH4 0x32246E9F EQ PUSH2 0xF5 JUMPI JUMPDEST PUSH1 0x0 DUP1 REVERT JUMPDEST CALLVALUE DUP1 ISZERO PUSH2 0x81 JUMPI PUSH1 0x0 DUP1 REVERT JUMPDEST POP PUSH2 0x9C PUSH1 0x4 DUP1 CALLDATASIZE SUB DUP2 ADD SWAP1 PUSH2 0x97 SWAP2 SWAP1 PUSH2 0xE18 JUMP JUMPDEST PUSH2 0x1BC JUMP JUMPDEST PUSH1 0x40 MLOAD PUSH2 0xAF SWAP8 SWAP7 SWAP6 SWAP5 SWAP4 SWAP3 SWAP2 SWAP1 PUSH2 0xF25 JUMP JUMPDEST PUSH1 0x40 MLOAD DUP1 SWAP2 SUB SWAP1 RETURN JUMPDEST CALLVALUE DUP1 ISZERO PUSH2 0xC4 JUMPI PUSH1 0x0 DUP1 REVERT JUMPDEST POP PUSH2 0xDF PUSH1 0x4 DUP1 CALLDATASIZE SUB DUP2 ADD SWAP1 PUSH2 0xDA SWAP2 SWAP1 PUSH2 0xE18 JUMP JUMPDEST PUSH2 0x2E6 JUMP JUMPDEST PUSH1 0x40 MLOAD PUSH2 0xEC SWAP2 SWAP1 PUSH2 0xF9B JUMP JUMPDEST PUSH1 0x40 MLOAD DUP1 SWAP2 SUB SWAP1 RETURN JUMPDEST PUSH2 0x10F PUSH1 0x4 DUP1 CALLDATASIZE SUB DUP2 ADD SWAP1 PUSH2 0x10A SWAP2 SWAP1 PUSH2 0xE18 JUMP JUMPDEST PUSH2 0x326 JUMP JUMPDEST STOP JUMPDEST CALLVALUE DUP1 ISZERO PUSH2 0x11D JUMPI PUSH1 0x0 DUP1 REVERT JUMPDEST POP PUSH2 0x138 PUSH1 0x4 DUP1 CALLDATASIZE SUB DUP2 ADD SWAP1 PUSH2 0x133 SWAP2 SWAP1 PUSH2 0x10EB JUMP JUMPDEST PUSH2 0x5C0 JUMP JUMPDEST STOP JUMPDEST CALLVALUE DUP1 ISZERO PUSH2 0x146 JUMPI PUSH1 0x0 DUP1 REVERT JUMPDEST POP PUSH2 0x161 PUSH1 0x4 DUP1 CALLDATASIZE SUB DUP2 ADD SWAP1 PUSH2 0x15C SWAP2 SWAP1 PUSH2 0xE18 JUMP JUMPDEST PUSH2 0x814 JUMP JUMPDEST PUSH1 0x40 MLOAD PUSH2 0x16E SWAP2 SWAP1 PUSH2 0x1134 JUMP JUMPDEST PUSH1 0x40 MLOAD DUP1 SWAP2 SUB SWAP1 RETURN JUMPDEST CALLVALUE DUP1 ISZERO PUSH2 0x183 JUMPI PUSH1 0x0 DUP1 REVERT JUMPDEST POP PUSH2 0x19E PUSH1 0x4 DUP1 CALLDATASIZE SUB DUP2 ADD SWAP1 PUSH2 0x199 SWAP2 SWAP1 PUSH2 0xE18 JUMP JUMPDEST PUSH2 0x834 JUMP JUMPDEST STOP JUMPDEST PUSH2 0x1BA PUSH1 0x4 DUP1 CALLDATASIZE SUB DUP2 ADD SWAP1 PUSH2 0x1B5 SWAP2 SWAP1 PUSH2 0xE18 JUMP JUMPDEST PUSH2 0xA21 JUMP JUMPDEST STOP JUMPDEST PUSH1 0x1 PUSH1 0x20 MSTORE DUP1 PUSH1 0x0 MSTORE PUSH1 0x40 PUSH1 0x0 KECCAK256 PUSH1 0x0 SWAP2 POP SWAP1 POP DUP1 PUSH1 0x0 ADD DUP1 SLOAD PUSH2 0x1DF SWAP1 PUSH2 0x117E JUMP JUMPDEST DUP1 PUSH1 0x1F ADD PUSH1 0x20 DUP1 SWAP2 DIV MUL PUSH1 0x20 ADD PUSH1 0x40 MLOAD SWAP1 DUP2 ADD PUSH1 0x40 MSTORE DUP1 SWAP3 SWAP2 SWAP1 DUP2 DUP2 MSTORE PUSH1 0x20 ADD DUP3 DUP1 SLOAD PUSH2 0x20B SWAP1 PUSH2 0x117E JUMP JUMPDEST DUP1 ISZERO PUSH2 0x258 JUMPI DUP1 PUSH1 0x1F LT PUSH2 0x22D JUMPI PUSH2 0x100 DUP1 DUP4 SLOAD DIV MUL DUP4 MSTORE SWAP2 PUSH1 0x20 ADD SWAP2 PUSH2 0x258 JUMP JUMPDEST DUP3 ADD SWAP2 SWAP1 PUSH1 0x0 MSTORE PUSH1 0x20 PUSH1 0x0 KECCAK256 SWAP1 JUMPDEST DUP2 SLOAD DUP2 MSTORE SWAP1 PUSH1 0x1 ADD SWAP1 PUSH1 0x20 ADD DUP1 DUP4 GT PUSH2 0x23B JUMPI DUP3 SWAP1 SUB PUSH1 0x1F AND DUP3 ADD SWAP2 JUMPDEST POP POP POP POP POP SWAP1 DUP1 PUSH1 0x1 ADD PUSH1 0x0 SWAP1 SLOAD SWAP1 PUSH2 0x100 EXP SWAP1 DIV PUSH20 0xFFFFFFFFFFFFFFFFFFFFFFFFFFFFFFFFFFFFFFFF AND SWAP1 DUP1 PUSH1 0x2 ADD SLOAD SWAP1 DUP1 PUSH1 0x3 ADD SLOAD SWAP1 DUP1 PUSH1 0x4 ADD PUSH1 0x0 SWAP1 SLOAD SWAP1 PUSH2 0x100 EXP SWAP1 DIV PUSH20 0xFFFFFFFFFFFFFFFFFFFFFFFFFFFFFFFFFFFFFFFF AND SWAP1 DUP1 PUSH1 0x5 ADD SLOAD SWAP1 DUP1 PUSH1 0x6 ADD PUSH1 0x0 SWAP1 SLOAD SWAP1 PUSH2 0x100 EXP SWAP1 DIV PUSH20 0xFFFFFFFFFFFFFFFFFFFFFFFFFFFFFFFFFFFFFFFF AND SWAP1 POP DUP8 JUMP JUMPDEST PUSH1 0x0 PUSH1 0x1 PUSH1 0x0 DUP4 DUP2 MSTORE PUSH1 0x20 ADD SWAP1 DUP2 MSTORE PUSH1 0x20 ADD PUSH1 0x0 KECCAK256 PUSH1 0x4 ADD PUSH1 0x0 SWAP1 SLOAD SWAP1 PUSH2 0x100 EXP SWAP1 DIV PUSH20 0xFFFFFFFFFFFFFFFFFFFFFFFFFFFFFFFFFFFFFFFF AND SWAP1 POP SWAP2 SWAP1 POP JUMP JUMPDEST PUSH1 0x1 PUSH1 0x0 DUP3 DUP2 MSTORE PUSH1 0x20 ADD SWAP1 DUP2 MSTORE PUSH1 0x20 ADD PUSH1 0x0 KECCAK256 PUSH1 0x5 ADD SLOAD TIMESTAMP GT PUSH2 0x348 JUMPI PUSH1 0x0 DUP1 REVERT JUMPDEST PUSH1 0x1 PUSH1 0x0 DUP3 DUP2 MSTORE PUSH1 0x20 ADD SWAP1 DUP2 MSTORE PUSH1 0x20 ADD PUSH1 0x0 KECCAK256 PUSH1 0x1 ADD PUSH1 0x0 SWAP1 SLOAD SWAP1 PUSH2 0x100 EXP SWAP1 DIV PUSH20 0xFFFFFFFFFFFFFFFFFFFFFFFFFFFFFFFFFFFFFFFF AND PUSH20 0xFFFFFFFFFFFFFFFFFFFFFFFFFFFFFFFFFFFFFFFF AND CALLER PUSH20 0xFFFFFFFFFFFFFFFFFFFFFFFFFFFFFFFFFFFFFFFF AND EQ PUSH2 0x3EC JUMPI PUSH1 0x40 MLOAD PUSH32 0x8C379A000000000000000000000000000000000000000000000000000000000 DUP2 MSTORE PUSH1 0x4 ADD PUSH2 0x3E3 SWAP1 PUSH2 0x1221 JUMP JUMPDEST PUSH1 0x40 MLOAD DUP1 SWAP2 SUB SWAP1 REVERT JUMPDEST PUSH1 0x1 PUSH1 0x0 DUP3 DUP2 MSTORE PUSH1 0x20 ADD SWAP1 DUP2 MSTORE PUSH1 0x20 ADD PUSH1 0x0 KECCAK256 PUSH1 0x1 ADD PUSH1 0x0 SWAP1 SLOAD SWAP1 PUSH2 0x100 EXP SWAP1 DIV PUSH20 0xFFFFFFFFFFFFFFFFFFFFFFFFFFFFFFFFFFFFFFFF AND PUSH20 0xFFFFFFFFFFFFFFFFFFFFFFFFFFFFFFFFFFFFFFFF AND PUSH2 0x8FC PUSH1 0x1 PUSH1 0x0 DUP5 DUP2 MSTORE PUSH1 0x20 ADD SWAP1 DUP2 MSTORE PUSH1 0x20 ADD PUSH1 0x0 KECCAK256 PUSH1 0x3 ADD SLOAD SWAP1 DUP2 ISZERO MUL SWAP1 PUSH1 0x40 MLOAD PUSH1 0x0 PUSH1 0x40 MLOAD DUP1 DUP4 SUB DUP2 DUP6 DUP9 DUP9 CALL SWAP4 POP POP POP POP ISZERO DUP1 ISZERO PUSH2 0x47E JUMPI RETURNDATASIZE PUSH1 0x0 DUP1 RETURNDATACOPY RETURNDATASIZE PUSH1 0x0 REVERT JUMPDEST POP PUSH1 0x1 PUSH1 0x0 DUP3 DUP2 MSTORE PUSH1 0x20 ADD SWAP1 DUP2 MSTORE PUSH1 0x20 ADD PUSH1 0x0 KECCAK256 PUSH1 0x4 ADD PUSH1 0x0 SWAP1 SLOAD SWAP1 PUSH2 0x100 EXP SWAP1 DIV PUSH20 0xFFFFFFFFFFFFFFFFFFFFFFFFFFFFFFFFFFFFFFFF AND PUSH1 0x1 PUSH1 0x0 DUP4 DUP2 MSTORE PUSH1 0x20 ADD SWAP1 DUP2 MSTORE PUSH1 0x20 ADD PUSH1 0x0 KECCAK256 PUSH1 0x1 ADD PUSH1 0x0 PUSH2 0x100 EXP DUP2 SLOAD DUP2 PUSH20 0xFFFFFFFFFFFFFFFFFFFFFFFFFFFFFFFFFFFFFFFF MUL NOT AND SWAP1 DUP4 PUSH20 0xFFFFFFFFFFFFFFFFFFFFFFFFFFFFFFFFFFFFFFFF AND MUL OR SWAP1 SSTORE POP PUSH1 0x1 PUSH1 0x0 DUP3 DUP2 MSTORE PUSH1 0x20 ADD SWAP1 DUP2 MSTORE PUSH1 0x20 ADD PUSH1 0x0 KECCAK256 PUSH1 0x0 DUP1 DUP3 ADD PUSH1 0x0 PUSH2 0x52E SWAP2 SWAP1 PUSH2 0xD71 JUMP JUMPDEST PUSH1 0x1 DUP3 ADD PUSH1 0x0 PUSH2 0x100 EXP DUP2 SLOAD SWAP1 PUSH20 0xFFFFFFFFFFFFFFFFFFFFFFFFFFFFFFFFFFFFFFFF MUL NOT AND SWAP1 SSTORE PUSH1 0x2 DUP3 ADD PUSH1 0x0 SWAP1 SSTORE PUSH1 0x3 DUP3 ADD PUSH1 0x0 SWAP1 SSTORE PUSH1 0x4 DUP3 ADD PUSH1 0x0 PUSH2 0x100 EXP DUP2 SLOAD SWAP1 PUSH20 0xFFFFFFFFFFFFFFFFFFFFFFFFFFFFFFFFFFFFFFFF MUL NOT AND SWAP1 SSTORE PUSH1 0x5 DUP3 ADD PUSH1 0x0 SWAP1 SSTORE PUSH1 0x6 DUP3 ADD PUSH1 0x0 PUSH2 0x100 EXP DUP2 SLOAD SWAP1 PUSH20 0xFFFFFFFFFFFFFFFFFFFFFFFFFFFFFFFFFFFFFFFF MUL NOT AND SWAP1 SSTORE POP POP POP JUMP JUMPDEST PUSH1 0x0 PUSH20 0xFFFFFFFFFFFFFFFFFFFFFFFFFFFFFFFFFFFFFFFF AND CALLER PUSH20 0xFFFFFFFFFFFFFFFFFFFFFFFFFFFFFFFFFFFFFFFF AND SUB PUSH2 0x62F JUMPI PUSH1 0x40 MLOAD PUSH32 0x8C379A000000000000000000000000000000000000000000000000000000000 DUP2 MSTORE PUSH1 0x4 ADD PUSH2 0x626 SWAP1 PUSH2 0x128D JUMP JUMPDEST PUSH1 0x40 MLOAD DUP1 SWAP2 SUB SWAP1 REVERT JUMPDEST DUP1 PUSH1 0x1 PUSH1 0x0 DUP1 SLOAD DUP2 MSTORE PUSH1 0x20 ADD SWAP1 DUP2 MSTORE PUSH1 0x20 ADD PUSH1 0x0 KECCAK256 PUSH1 0x0 ADD SWAP1 DUP2 PUSH2 0x653 SWAP2 SWAP1 PUSH2 0x1459 JUMP JUMPDEST POP CALLER PUSH1 0x1 PUSH1 0x0 DUP1 SLOAD DUP2 MSTORE PUSH1 0x20 ADD SWAP1 DUP2 MSTORE PUSH1 0x20 ADD PUSH1 0x0 KECCAK256 PUSH1 0x1 ADD PUSH1 0x0 PUSH2 0x100 EXP DUP2 SLOAD DUP2 PUSH20 0xFFFFFFFFFFFFFFFFFFFFFFFFFFFFFFFFFFFFFFFF MUL NOT AND SWAP1 DUP4 PUSH20 0xFFFFFFFFFFFFFFFFFFFFFFFFFFFFFFFFFFFFFFFF AND MUL OR SWAP1 SSTORE POP PUSH1 0x0 PUSH1 0x1 PUSH1 0x0 DUP1 SLOAD DUP2 MSTORE PUSH1 0x20 ADD SWAP1 DUP2 MSTORE PUSH1 0x20 ADD PUSH1 0x0 KECCAK256 PUSH1 0x2 ADD DUP2 SWAP1 SSTORE POP PUSH1 0x0 PUSH1 0x1 PUSH1 0x0 DUP1 SLOAD DUP2 MSTORE PUSH1 0x20 ADD SWAP1 DUP2 MSTORE PUSH1 0x20 ADD PUSH1 0x0 KECCAK256 PUSH1 0x3 ADD DUP2 SWAP1 SSTORE POP PUSH1 0x0 PUSH1 0x1 PUSH1 0x0 DUP1 SLOAD DUP2 MSTORE PUSH1 0x20 ADD SWAP1 DUP2 MSTORE PUSH1 0x20 ADD PUSH1 0x0 KECCAK256 PUSH1 0x4 ADD PUSH1 0x0 PUSH2 0x100 EXP DUP2 SLOAD DUP2 PUSH20 0xFFFFFFFFFFFFFFFFFFFFFFFFFFFFFFFFFFFFFFFF MUL NOT AND SWAP1 DUP4 PUSH20 0xFFFFFFFFFFFFFFFFFFFFFFFFFFFFFFFFFFFFFFFF AND MUL OR SWAP1 SSTORE POP PUSH1 0x0 PUSH1 0x1 PUSH1 0x0 DUP1 SLOAD DUP2 MSTORE PUSH1 0x20 ADD SWAP1 DUP2 MSTORE PUSH1 0x20 ADD PUSH1 0x0 KECCAK256 PUSH1 0x6 ADD PUSH1 0x0 PUSH2 0x100 EXP DUP2 SLOAD DUP2 PUSH20 0xFFFFFFFFFFFFFFFFFFFFFFFFFFFFFFFFFFFFFFFF MUL NOT AND SWAP1 DUP4 PUSH20 0xFFFFFFFFFFFFFFFFFFFFFFFFFFFFFFFFFFFFFFFF AND MUL OR SWAP1 SSTORE POP PUSH2 0xE10 TIMESTAMP PUSH2 0x7A0 SWAP2 SWAP1 PUSH2 0x155A JUMP JUMPDEST PUSH1 0x1 PUSH1 0x0 DUP1 SLOAD DUP2 MSTORE PUSH1 0x20 ADD SWAP1 DUP2 MSTORE PUSH1 0x20 ADD PUSH1 0x0 KECCAK256 PUSH1 0x5 ADD DUP2 SWAP1 SSTORE POP PUSH32 0xA7806320B37116843EC008DA1594A383D57D02CF004956B72C34754BF6395070 CALLER PUSH1 0x0 SLOAD DUP4 PUSH1 0x40 MLOAD PUSH2 0x7F0 SWAP4 SWAP3 SWAP2 SWAP1 PUSH2 0x158E JUMP JUMPDEST PUSH1 0x40 MLOAD DUP1 SWAP2 SUB SWAP1 LOG1 PUSH1 0x1 PUSH1 0x0 DUP1 DUP3 DUP3 SLOAD PUSH2 0x80A SWAP2 SWAP1 PUSH2 0x155A JUMP JUMPDEST SWAP3 POP POP DUP2 SWAP1 SSTORE POP POP JUMP JUMPDEST PUSH1 0x0 PUSH1 0x1 PUSH1 0x0 DUP4 DUP2 MSTORE PUSH1 0x20 ADD SWAP1 DUP2 MSTORE PUSH1 0x20 ADD PUSH1 0x0 KECCAK256 PUSH1 0x3 ADD SLOAD SWAP1 POP SWAP2 SWAP1 POP JUMP JUMPDEST PUSH1 0x1 PUSH1 0x0 DUP3 DUP2 MSTORE PUSH1 0x20 ADD SWAP1 DUP2 MSTORE PUSH1 0x20 ADD PUSH1 0x0 KECCAK256 PUSH1 0x1 ADD PUSH1 0x0 SWAP1 SLOAD SWAP1 PUSH2 0x100 EXP SWAP1 DIV PUSH20 0xFFFFFFFFFFFFFFFFFFFFFFFFFFFFFFFFFFFFFFFF AND PUSH20 0xFFFFFFFFFFFFFFFFFFFFFFFFFFFFFFFFFFFFFFFF AND CALLER PUSH20 0xFFFFFFFFFFFFFFFFFFFFFFFFFFFFFFFFFFFFFFFF AND EQ PUSH2 0x8D8 JUMPI PUSH1 0x40 MLOAD PUSH32 0x8C379A000000000000000000000000000000000000000000000000000000000 DUP2 MSTORE PUSH1 0x4 ADD PUSH2 0x8CF SWAP1 PUSH2 0x163E JUMP JUMPDEST PUSH1 0x40 MLOAD DUP1 SWAP2 SUB SWAP1 REVERT JUMPDEST PUSH1 0x1 PUSH1 0x0 DUP3 DUP2 MSTORE PUSH1 0x20 ADD SWAP1 DUP2 MSTORE PUSH1 0x20 ADD PUSH1 0x0 KECCAK256 PUSH1 0x4 ADD PUSH1 0x0 SWAP1 SLOAD SWAP1 PUSH2 0x100 EXP SWAP1 DIV PUSH20 0xFFFFFFFFFFFFFFFFFFFFFFFFFFFFFFFFFFFFFFFF AND PUSH20 0xFFFFFFFFFFFFFFFFFFFFFFFFFFFFFFFFFFFFFFFF AND PUSH2 0x8FC PUSH1 0x1 PUSH1 0x0 DUP5 DUP2 MSTORE PUSH1 0x20 ADD SWAP1 DUP2 MSTORE PUSH1 0x20 ADD PUSH1 0x0 KECCAK256 PUSH1 0x3 ADD SLOAD SWAP1 DUP2 ISZERO MUL SWAP1 PUSH1 0x40 MLOAD PUSH1 0x0 PUSH1 0x40 MLOAD DUP1 DUP4 SUB DUP2 DUP6 DUP9 DUP9 CALL SWAP4 POP POP POP POP ISZERO DUP1 ISZERO PUSH2 0x96A JUMPI RETURNDATASIZE PUSH1 0x0 DUP1 RETURNDATACOPY RETURNDATASIZE PUSH1 0x0 REVERT JUMPDEST POP PUSH1 0x1 PUSH1 0x0 DUP3 DUP2 MSTORE PUSH1 0x20 ADD SWAP1 DUP2 MSTORE PUSH1 0x20 ADD PUSH1 0x0 KECCAK256 PUSH1 0x0 DUP1 DUP3 ADD PUSH1 0x0 PUSH2 0x98F SWAP2 SWAP1 PUSH2 0xD71 JUMP JUMPDEST PUSH1 0x1 DUP3 ADD PUSH1 0x0 PUSH2 0x100 EXP DUP2 SLOAD SWAP1 PUSH20 0xFFFFFFFFFFFFFFFFFFFFFFFFFFFFFFFFFFFFFFFF MUL NOT AND SWAP1 SSTORE PUSH1 0x2 DUP3 ADD PUSH1 0x0 SWAP1 SSTORE PUSH1 0x3 DUP3 ADD PUSH1 0x0 SWAP1 SSTORE PUSH1 0x4 DUP3 ADD PUSH1 0x0 PUSH2 0x100 EXP DUP2 SLOAD SWAP1 PUSH20 0xFFFFFFFFFFFFFFFFFFFFFFFFFFFFFFFFFFFFFFFF MUL NOT AND SWAP1 SSTORE PUSH1 0x5 DUP3 ADD PUSH1 0x0 SWAP1 SSTORE PUSH1 0x6 DUP3 ADD PUSH1 0x0 PUSH2 0x100 EXP DUP2 SLOAD SWAP1 PUSH20 0xFFFFFFFFFFFFFFFFFFFFFFFFFFFFFFFFFFFFFFFF MUL NOT AND SWAP1 SSTORE POP POP POP JUMP JUMPDEST CALLER PUSH20 0xFFFFFFFFFFFFFFFFFFFFFFFFFFFFFFFFFFFFFFFF AND PUSH1 0x1 PUSH1 0x0 DUP4 DUP2 MSTORE PUSH1 0x20 ADD SWAP1 DUP2 MSTORE PUSH1 0x20 ADD PUSH1 0x0 KECCAK256 PUSH1 0x1 ADD PUSH1 0x0 SWAP1 SLOAD SWAP1 PUSH2 0x100 EXP SWAP1 DIV PUSH20 0xFFFFFFFFFFFFFFFFFFFFFFFFFFFFFFFFFFFFFFFF AND PUSH20 0xFFFFFFFFFFFFFFFFFFFFFFFFFFFFFFFFFFFFFFFF AND SUB PUSH2 0xAC5 JUMPI PUSH1 0x40 MLOAD PUSH32 0x8C379A000000000000000000000000000000000000000000000000000000000 DUP2 MSTORE PUSH1 0x4 ADD PUSH2 0xABC SWAP1 PUSH2 0x16AA JUMP JUMPDEST PUSH1 0x40 MLOAD DUP1 SWAP2 SUB SWAP1 REVERT JUMPDEST TIMESTAMP PUSH1 0x1 PUSH1 0x0 DUP4 DUP2 MSTORE PUSH1 0x20 ADD SWAP1 DUP2 MSTORE PUSH1 0x20 ADD PUSH1 0x0 KECCAK256 PUSH1 0x5 ADD SLOAD GT PUSH2 0xB1D JUMPI PUSH1 0x40 MLOAD PUSH32 0x8C379A000000000000000000000000000000000000000000000000000000000 DUP2 MSTORE PUSH1 0x4 ADD PUSH2 0xB14 SWAP1 PUSH2 0x1716 JUMP JUMPDEST PUSH1 0x40 MLOAD DUP1 SWAP2 SUB SWAP1 REVERT JUMPDEST PUSH1 0x1 PUSH1 0x0 DUP3 DUP2 MSTORE PUSH1 0x20 ADD SWAP1 DUP2 MSTORE PUSH1 0x20 ADD PUSH1 0x0 KECCAK256 PUSH1 0x2 ADD SLOAD CALLVALUE LT ISZERO PUSH2 0xB76 JUMPI PUSH1 0x40 MLOAD PUSH32 0x8C379A000000000000000000000000000000000000000000000000000000000 DUP2 MSTORE PUSH1 0x4 ADD PUSH2 0xB6D SWAP1 PUSH2 0x1782 JUMP JUMPDEST PUSH1 0x40 MLOAD DUP1 SWAP2 SUB SWAP1 REVERT JUMPDEST PUSH1 0x1 PUSH1 0x0 DUP3 DUP2 MSTORE PUSH1 0x20 ADD SWAP1 DUP2 MSTORE PUSH1 0x20 ADD PUSH1 0x0 KECCAK256 PUSH1 0x3 ADD SLOAD PUSH1 0x1 PUSH1 0x0 DUP4 DUP2 MSTORE PUSH1 0x20 ADD SWAP1 DUP2 MSTORE PUSH1 0x20 ADD PUSH1 0x0 KECCAK256 PUSH1 0x2 ADD DUP2 SWAP1 SSTORE POP PUSH1 0x1 PUSH1 0x0 DUP3 DUP2 MSTORE PUSH1 0x20 ADD SWAP1 DUP2 MSTORE PUSH1 0x20 ADD PUSH1 0x0 KECCAK256 PUSH1 0x4 ADD PUSH1 0x0 SWAP1 SLOAD SWAP1 PUSH2 0x100 EXP SWAP1 DIV PUSH20 0xFFFFFFFFFFFFFFFFFFFFFFFFFFFFFFFFFFFFFFFF AND PUSH1 0x1 PUSH1 0x0 DUP4 DUP2 MSTORE PUSH1 0x20 ADD SWAP1 DUP2 MSTORE PUSH1 0x20 ADD PUSH1 0x0 KECCAK256 PUSH1 0x6 ADD PUSH1 0x0 PUSH2 0x100 EXP DUP2 SLOAD DUP2 PUSH20 0xFFFFFFFFFFFFFFFFFFFFFFFFFFFFFFFFFFFFFFFF MUL NOT AND SWAP1 DUP4 PUSH20 0xFFFFFFFFFFFFFFFFFFFFFFFFFFFFFFFFFFFFFFFF AND MUL OR SWAP1 SSTORE POP CALLVALUE PUSH1 0x1 PUSH1 0x0 DUP4 DUP2 MSTORE PUSH1 0x20 ADD SWAP1 DUP2 MSTORE PUSH1 0x20 ADD PUSH1 0x0 KECCAK256 PUSH1 0x3 ADD DUP2 SWAP1 SSTORE POP CALLER PUSH1 0x1 PUSH1 0x0 DUP4 DUP2 MSTORE PUSH1 0x20 ADD SWAP1 DUP2 MSTORE PUSH1 0x20 ADD PUSH1 0x0 KECCAK256 PUSH1 0x4 ADD PUSH1 0x0 PUSH2 0x100 EXP DUP2 SLOAD DUP2 PUSH20 0xFFFFFFFFFFFFFFFFFFFFFFFFFFFFFFFFFFFFFFFF MUL NOT AND SWAP1 DUP4 PUSH20 0xFFFFFFFFFFFFFFFFFFFFFFFFFFFFFFFFFFFFFFFF AND MUL OR SWAP1 SSTORE POP PUSH1 0x1 PUSH1 0x0 DUP3 DUP2 MSTORE PUSH1 0x20 ADD SWAP1 DUP2 MSTORE PUSH1 0x20 ADD PUSH1 0x0 KECCAK256 PUSH1 0x6 ADD PUSH1 0x0 SWAP1 SLOAD SWAP1 PUSH2 0x100 EXP SWAP1 DIV PUSH20 0xFFFFFFFFFFFFFFFFFFFFFFFFFFFFFFFFFFFFFFFF AND PUSH20 0xFFFFFFFFFFFFFFFFFFFFFFFFFFFFFFFFFFFFFFFF AND PUSH2 0x8FC PUSH1 0x1 PUSH1 0x0 DUP5 DUP2 MSTORE PUSH1 0x20 ADD SWAP1 DUP2 MSTORE PUSH1 0x20 ADD PUSH1 0x0 KECCAK256 PUSH1 0x2 ADD SLOAD SWAP1 DUP2 ISZERO MUL SWAP1 PUSH1 0x40 MLOAD PUSH1 0x0 PUSH1 0x40 MLOAD DUP1 DUP4 SUB DUP2 DUP6 DUP9 DUP9 CALL SWAP4 POP POP POP POP ISZERO DUP1 ISZERO PUSH2 0xD34 JUMPI RETURNDATASIZE PUSH1 0x0 DUP1 RETURNDATACOPY RETURNDATASIZE PUSH1 0x0 REVERT JUMPDEST POP PUSH32 0xE684A55F31B79ECA403DF938249029212A5925EC6BE8012E099B45BC1019E5D2 CALLER CALLVALUE PUSH1 0x40 MLOAD PUSH2 0xD66 SWAP3 SWAP2 SWAP1 PUSH2 0x17A2 JUMP JUMPDEST PUSH1 0x40 MLOAD DUP1 SWAP2 SUB SWAP1 LOG1 POP JUMP JUMPDEST POP DUP1 SLOAD PUSH2 0xD7D SWAP1 PUSH2 0x117E JUMP JUMPDEST PUSH1 0x0 DUP3 SSTORE DUP1 PUSH1 0x1F LT PUSH2 0xD8F JUMPI POP PUSH2 0xDAE JUMP JUMPDEST PUSH1 0x1F ADD PUSH1 0x20 SWAP1 DIV SWAP1 PUSH1 0x0 MSTORE PUSH1 0x20 PUSH1 0x0 KECCAK256 SWAP1 DUP2 ADD SWAP1 PUSH2 0xDAD SWAP2 SWAP1 PUSH2 0xDB1 JUMP JUMPDEST JUMPDEST POP JUMP JUMPDEST JUMPDEST DUP1 DUP3 GT ISZERO PUSH2 0xDCA JUMPI PUSH1 0x0 DUP2 PUSH1 0x0 SWAP1 SSTORE POP PUSH1 0x1 ADD PUSH2 0xDB2 JUMP JUMPDEST POP SWAP1 JUMP JUMPDEST PUSH1 0x0 PUSH1 0x40 MLOAD SWAP1 POP SWAP1 JUMP JUMPDEST PUSH1 0x0 DUP1 REVERT JUMPDEST PUSH1 0x0 DUP1 REVERT JUMPDEST PUSH1 0x0 DUP2 SWAP1 POP SWAP2 SWAP1 POP JUMP JUMPDEST PUSH2 0xDF5 DUP2 PUSH2 0xDE2 JUMP JUMPDEST DUP2 EQ PUSH2 0xE00 JUMPI PUSH1 0x0 DUP1 REVERT JUMPDEST POP JUMP JUMPDEST PUSH1 0x0 DUP2 CALLDATALOAD SWAP1 POP PUSH2 0xE12 DUP2 PUSH2 0xDEC JUMP JUMPDEST SWAP3 SWAP2 POP POP JUMP JUMPDEST PUSH1 0x0 PUSH1 0x20 DUP3 DUP5 SUB SLT ISZERO PUSH2 0xE2E JUMPI PUSH2 0xE2D PUSH2 0xDD8 JUMP JUMPDEST JUMPDEST PUSH1 0x0 PUSH2 0xE3C DUP5 DUP3 DUP6 ADD PUSH2 0xE03 JUMP JUMPDEST SWAP2 POP POP SWAP3 SWAP2 POP POP JUMP JUMPDEST PUSH1 0x0 DUP2 MLOAD SWAP1 POP SWAP2 SWAP1 POP JUMP JUMPDEST PUSH1 0x0 DUP3 DUP3 MSTORE PUSH1 0x20 DUP3 ADD SWAP1 POP SWAP3 SWAP2 POP POP JUMP JUMPDEST PUSH1 0x0 JUMPDEST DUP4 DUP2 LT ISZERO PUSH2 0xE7F JUMPI DUP1 DUP3 ADD MLOAD DUP2 DUP5 ADD MSTORE PUSH1 0x20 DUP2 ADD SWAP1 POP PUSH2 0xE64 JUMP JUMPDEST PUSH1 0x0 DUP5 DUP5 ADD MSTORE POP POP POP POP JUMP JUMPDEST PUSH1 0x0 PUSH1 0x1F NOT PUSH1 0x1F DUP4 ADD AND SWAP1 POP SWAP2 SWAP1 POP JUMP JUMPDEST PUSH1 0x0 PUSH2 0xEA7 DUP3 PUSH2 0xE45 JUMP JUMPDEST PUSH2 0xEB1 DUP2 DUP6 PUSH2 0xE50 JUMP JUMPDEST SWAP4 POP PUSH2 0xEC1 DUP2 DUP6 PUSH1 0x20 DUP7 ADD PUSH2 0xE61 JUMP JUMPDEST PUSH2 0xECA DUP2 PUSH2 0xE8B JUMP JUMPDEST DUP5 ADD SWAP2 POP POP SWAP3 SWAP2 POP POP JUMP JUMPDEST PUSH1 0x0 PUSH20 0xFFFFFFFFFFFFFFFFFFFFFFFFFFFFFFFFFFFFFFFF DUP3 AND SWAP1 POP SWAP2 SWAP1 POP JUMP JUMPDEST PUSH1 0x0 PUSH2 0xF00 DUP3 PUSH2 0xED5 JUMP JUMPDEST SWAP1 POP SWAP2 SWAP1 POP JUMP JUMPDEST PUSH2 0xF10 DUP2 PUSH2 0xEF5 JUMP JUMPDEST DUP3 MSTORE POP POP JUMP JUMPDEST PUSH2 0xF1F DUP2 PUSH2 0xDE2 JUMP JUMPDEST DUP3 MSTORE POP POP JUMP JUMPDEST PUSH1 0x0 PUSH1 0xE0 DUP3 ADD SWAP1 POP DUP2 DUP2 SUB PUSH1 0x0 DUP4 ADD MSTORE PUSH2 0xF3F DUP2 DUP11 PUSH2 0xE9C JUMP JUMPDEST SWAP1 POP PUSH2 0xF4E PUSH1 0x20 DUP4 ADD DUP10 PUSH2 0xF07 JUMP JUMPDEST PUSH2 0xF5B PUSH1 0x40 DUP4 ADD DUP9 PUSH2 0xF16 JUMP JUMPDEST PUSH2 0xF68 PUSH1 0x60 DUP4 ADD DUP8 PUSH2 0xF16 JUMP JUMPDEST PUSH2 0xF75 PUSH1 0x80 DUP4 ADD DUP7 PUSH2 0xF07 JUMP JUMPDEST PUSH2 0xF82 PUSH1 0xA0 DUP4 ADD DUP6 PUSH2 0xF16 JUMP JUMPDEST PUSH2 0xF8F PUSH1 0xC0 DUP4 ADD DUP5 PUSH2 0xF07 JUMP JUMPDEST SWAP9 SWAP8 POP POP POP POP POP POP POP POP JUMP JUMPDEST PUSH1 0x0 PUSH1 0x20 DUP3 ADD SWAP1 POP PUSH2 0xFB0 PUSH1 0x0 DUP4 ADD DUP5 PUSH2 0xF07 JUMP JUMPDEST SWAP3 SWAP2 POP POP JUMP JUMPDEST PUSH1 0x0 DUP1 REVERT JUMPDEST PUSH1 0x0 DUP1 REVERT JUMPDEST PUSH32 0x4E487B7100000000000000000000000000000000000000000000000000000000 PUSH1 0x0 MSTORE PUSH1 0x41 PUSH1 0x4 MSTORE PUSH1 0x24 PUSH1 0x0 REVERT JUMPDEST PUSH2 0xFF8 DUP3 PUSH2 0xE8B JUMP JUMPDEST DUP2 ADD DUP2 DUP2 LT PUSH8 0xFFFFFFFFFFFFFFFF DUP3 GT OR ISZERO PUSH2 0x1017 JUMPI PUSH2 0x1016 PUSH2 0xFC0 JUMP JUMPDEST JUMPDEST DUP1 PUSH1 0x40 MSTORE POP POP POP JUMP JUMPDEST PUSH1 0x0 PUSH2 0x102A PUSH2 0xDCE JUMP JUMPDEST SWAP1 POP PUSH2 0x1036 DUP3 DUP3 PUSH2 0xFEF JUMP JUMPDEST SWAP2 SWAP1 POP JUMP JUMPDEST PUSH1 0x0 PUSH8 0xFFFFFFFFFFFFFFFF DUP3 GT ISZERO PUSH2 0x1056 JUMPI PUSH2 0x1055 PUSH2 0xFC0 JUMP JUMPDEST JUMPDEST PUSH2 0x105F DUP3 PUSH2 0xE8B JUMP JUMPDEST SWAP1 POP PUSH1 0x20 DUP2 ADD SWAP1 POP SWAP2 SWAP1 POP JUMP JUMPDEST DUP3 DUP2 DUP4 CALLDATACOPY PUSH1 0x0 DUP4 DUP4 ADD MSTORE POP POP POP JUMP JUMPDEST PUSH1 0x0 PUSH2 0x108E PUSH2 0x1089 DUP5 PUSH2 0x103B JUMP JUMPDEST PUSH2 0x1020 JUMP JUMPDEST SWAP1 POP DUP3 DUP2 MSTORE PUSH1 0x20 DUP2 ADD DUP5 DUP5 DUP5 ADD GT ISZERO PUSH2 0x10AA JUMPI PUSH2 0x10A9 PUSH2 0xFBB JUMP JUMPDEST JUMPDEST PUSH2 0x10B5 DUP5 DUP3 DUP6 PUSH2 0x106C JUMP JUMPDEST POP SWAP4 SWAP3 POP POP POP JUMP JUMPDEST PUSH1 0x0 DUP3 PUSH1 0x1F DUP4 ADD SLT PUSH2 0x10D2 JUMPI PUSH2 0x10D1 PUSH2 0xFB6 JUMP JUMPDEST JUMPDEST DUP2 CALLDATALOAD PUSH2 0x10E2 DUP5 DUP3 PUSH1 0x20 DUP7 ADD PUSH2 0x107B JUMP JUMPDEST SWAP2 POP POP SWAP3 SWAP2 POP POP JUMP JUMPDEST PUSH1 0x0 PUSH1 0x20 DUP3 DUP5 SUB SLT ISZERO PUSH2 0x1101 JUMPI PUSH2 0x1100 PUSH2 0xDD8 JUMP JUMPDEST JUMPDEST PUSH1 0x0 DUP3 ADD CALLDATALOAD PUSH8 0xFFFFFFFFFFFFFFFF DUP2 GT ISZERO PUSH2 0x111F JUMPI PUSH2 0x111E PUSH2 0xDDD JUMP JUMPDEST JUMPDEST PUSH2 0x112B DUP5 DUP3 DUP6 ADD PUSH2 0x10BD JUMP JUMPDEST SWAP2 POP POP SWAP3 SWAP2 POP POP JUMP JUMPDEST PUSH1 0x0 PUSH1 0x20 DUP3 ADD SWAP1 POP PUSH2 0x1149 PUSH1 0x0 DUP4 ADD DUP5 PUSH2 0xF16 JUMP JUMPDEST SWAP3 SWAP2 POP POP JUMP JUMPDEST PUSH32 0x4E487B7100000000000000000000000000000000000000000000000000000000 PUSH1 0x0 MSTORE PUSH1 0x22 PUSH1 0x4 MSTORE PUSH1 0x24 PUSH1 0x0 REVERT JUMPDEST PUSH1 0x0 PUSH1 0x2 DUP3 DIV SWAP1 POP PUSH1 0x1 DUP3 AND DUP1 PUSH2 0x1196 JUMPI PUSH1 0x7F DUP3 AND SWAP2 POP JUMPDEST PUSH1 0x20 DUP3 LT DUP2 SUB PUSH2 0x11A9 JUMPI PUSH2 0x11A8 PUSH2 0x114F JUMP JUMPDEST JUMPDEST POP SWAP2 SWAP1 POP JUMP JUMPDEST PUSH32 0x204F6E6C6520546865206F776E6572206F6620746865204974656D2063616E20 PUSH1 0x0 DUP3 ADD MSTORE PUSH32 0x6163636573732E00000000000000000000000000000000000000000000000000 PUSH1 0x20 DUP3 ADD MSTORE POP JUMP JUMPDEST PUSH1 0x0 PUSH2 0x120B PUSH1 0x27 DUP4 PUSH2 0xE50 JUMP JUMPDEST SWAP2 POP PUSH2 0x1216 DUP3 PUSH2 0x11AF JUMP JUMPDEST PUSH1 0x40 DUP3 ADD SWAP1 POP SWAP2 SWAP1 POP JUMP JUMPDEST PUSH1 0x0 PUSH1 0x20 DUP3 ADD SWAP1 POP DUP2 DUP2 SUB PUSH1 0x0 DUP4 ADD MSTORE PUSH2 0x123A DUP2 PUSH2 0x11FE JUMP JUMPDEST SWAP1 POP SWAP2 SWAP1 POP JUMP JUMPDEST PUSH32 0x4E6F742056616C69640000000000000000000000000000000000000000000000 PUSH1 0x0 DUP3 ADD MSTORE POP JUMP JUMPDEST PUSH1 0x0 PUSH2 0x1277 PUSH1 0x9 DUP4 PUSH2 0xE50 JUMP JUMPDEST SWAP2 POP PUSH2 0x1282 DUP3 PUSH2 0x1241 JUMP JUMPDEST PUSH1 0x20 DUP3 ADD SWAP1 POP SWAP2 SWAP1 POP JUMP JUMPDEST PUSH1 0x0 PUSH1 0x20 DUP3 ADD SWAP1 POP DUP2 DUP2 SUB PUSH1 0x0 DUP4 ADD MSTORE PUSH2 0x12A6 DUP2 PUSH2 0x126A JUMP JUMPDEST SWAP1 POP SWAP2 SWAP1 POP JUMP JUMPDEST PUSH1 0x0 DUP2 SWAP1 POP DUP2 PUSH1 0x0 MSTORE PUSH1 0x20 PUSH1 0x0 KECCAK256 SWAP1 POP SWAP2 SWAP1 POP JUMP JUMPDEST PUSH1 0x0 PUSH1 0x20 PUSH1 0x1F DUP4 ADD DIV SWAP1 POP SWAP2 SWAP1 POP JUMP JUMPDEST PUSH1 0x0 DUP3 DUP3 SHL SWAP1 POP SWAP3 SWAP2 POP POP JUMP JUMPDEST PUSH1 0x0 PUSH1 0x8 DUP4 MUL PUSH2 0x130F PUSH32 0xFFFFFFFFFFFFFFFFFFFFFFFFFFFFFFFFFFFFFFFFFFFFFFFFFFFFFFFFFFFFFFFF DUP3 PUSH2 0x12D2 JUMP JUMPDEST PUSH2 0x1319 DUP7 DUP4 PUSH2 0x12D2 JUMP JUMPDEST SWAP6 POP DUP1 NOT DUP5 AND SWAP4 POP DUP1 DUP7 AND DUP5 OR SWAP3 POP POP POP SWAP4 SWAP3 POP POP POP JUMP JUMPDEST PUSH1 0x0 DUP2 SWAP1 POP SWAP2 SWAP1 POP JUMP JUMPDEST PUSH1 0x0 PUSH2 0x1356 PUSH2 0x1351 PUSH2 0x134C DUP5 PUSH2 0xDE2 JUMP JUMPDEST PUSH2 0x1331 JUMP JUMPDEST PUSH2 0xDE2 JUMP JUMPDEST SWAP1 POP SWAP2 SWAP1 POP JUMP JUMPDEST PUSH1 0x0 DUP2 SWAP1 POP SWAP2 SWAP1 POP JUMP JUMPDEST PUSH2 0x1370 DUP4 PUSH2 0x133B JUMP JUMPDEST PUSH2 0x1384 PUSH2 0x137C DUP3 PUSH2 0x135D JUMP JUMPDEST DUP5 DUP5 SLOAD PUSH2 0x12DF JUMP JUMPDEST DUP3 SSTORE POP POP POP POP JUMP JUMPDEST PUSH1 0x0 SWAP1 JUMP JUMPDEST PUSH2 0x1399 PUSH2 0x138C JUMP JUMPDEST PUSH2 0x13A4 DUP2 DUP5 DUP5 PUSH2 0x1367 JUMP JUMPDEST POP POP POP JUMP JUMPDEST JUMPDEST DUP2 DUP2 LT ISZERO PUSH2 0x13C8 JUMPI PUSH2 0x13BD PUSH1 0x0 DUP3 PUSH2 0x1391 JUMP JUMPDEST PUSH1 0x1 DUP2 ADD SWAP1 POP PUSH2 0x13AA JUMP JUMPDEST POP POP JUMP JUMPDEST PUSH1 0x1F DUP3 GT ISZERO PUSH2 0x140D JUMPI PUSH2 0x13DE DUP2 PUSH2 0x12AD JUMP JUMPDEST PUSH2 0x13E7 DUP5 PUSH2 0x12C2 JUMP JUMPDEST DUP2 ADD PUSH1 0x20 DUP6 LT ISZERO PUSH2 0x13F6 JUMPI DUP2 SWAP1 POP JUMPDEST PUSH2 0x140A PUSH2 0x1402 DUP6 PUSH2 0x12C2 JUMP JUMPDEST DUP4 ADD DUP3 PUSH2 0x13A9 JUMP JUMPDEST POP POP JUMPDEST POP POP POP JUMP JUMPDEST PUSH1 0x0 DUP3 DUP3 SHR SWAP1 POP SWAP3 SWAP2 POP POP JUMP JUMPDEST PUSH1 0x0 PUSH2 0x1430 PUSH1 0x0 NOT DUP5 PUSH1 0x8 MUL PUSH2 0x1412 JUMP JUMPDEST NOT DUP1 DUP4 AND SWAP2 POP POP SWAP3 SWAP2 POP POP JUMP JUMPDEST PUSH1 0x0 PUSH2 0x1449 DUP4 DUP4 PUSH2 0x141F JUMP JUMPDEST SWAP2 POP DUP3 PUSH1 0x2 MUL DUP3 OR SWAP1 POP SWAP3 SWAP2 POP POP JUMP JUMPDEST PUSH2 0x1462 DUP3 PUSH2 0xE45 JUMP JUMPDEST PUSH8 0xFFFFFFFFFFFFFFFF DUP2 GT ISZERO PUSH2 0x147B JUMPI PUSH2 0x147A PUSH2 0xFC0 JUMP JUMPDEST JUMPDEST PUSH2 0x1485 DUP3 SLOAD PUSH2 0x117E JUMP JUMPDEST PUSH2 0x1490 DUP3 DUP3 DUP6 PUSH2 0x13CC JUMP JUMPDEST PUSH1 0x0 PUSH1 0x20 SWAP1 POP PUSH1 0x1F DUP4 GT PUSH1 0x1 DUP2 EQ PUSH2 0x14C3 JUMPI PUSH1 0x0 DUP5 ISZERO PUSH2 0x14B1 JUMPI DUP3 DUP8 ADD MLOAD SWAP1 POP JUMPDEST PUSH2 0x14BB DUP6 DUP3 PUSH2 0x143D JUMP JUMPDEST DUP7 SSTORE POP PUSH2 0x1523 JUMP JUMPDEST PUSH1 0x1F NOT DUP5 AND PUSH2 0x14D1 DUP7 PUSH2 0x12AD JUMP JUMPDEST PUSH1 0x0 JUMPDEST DUP3 DUP2 LT ISZERO PUSH2 0x14F9 JUMPI DUP5 DUP10 ADD MLOAD DUP3 SSTORE PUSH1 0x1 DUP3 ADD SWAP2 POP PUSH1 0x20 DUP6 ADD SWAP5 POP PUSH1 0x20 DUP2 ADD SWAP1 POP PUSH2 0x14D4 JUMP JUMPDEST DUP7 DUP4 LT ISZERO PUSH2 0x1516 JUMPI DUP5 DUP10 ADD MLOAD PUSH2 0x1512 PUSH1 0x1F DUP10 AND DUP3 PUSH2 0x141F JUMP JUMPDEST DUP4 SSTORE POP JUMPDEST PUSH1 0x1 PUSH1 0x2 DUP9 MUL ADD DUP9 SSTORE POP POP POP JUMPDEST POP POP POP POP POP POP JUMP JUMPDEST PUSH32 0x4E487B7100000000000000000000000000000000000000000000000000000000 PUSH1 0x0 MSTORE PUSH1 0x11 PUSH1 0x4 MSTORE PUSH1 0x24 PUSH1 0x0 REVERT JUMPDEST PUSH1 0x0 PUSH2 0x1565 DUP3 PUSH2 0xDE2 JUMP JUMPDEST SWAP2 POP PUSH2 0x1570 DUP4 PUSH2 0xDE2 JUMP JUMPDEST SWAP3 POP DUP3 DUP3 ADD SWAP1 POP DUP1 DUP3 GT ISZERO PUSH2 0x1588 JUMPI PUSH2 0x1587 PUSH2 0x152B JUMP JUMPDEST JUMPDEST SWAP3 SWAP2 POP POP JUMP JUMPDEST PUSH1 0x0 PUSH1 0x60 DUP3 ADD SWAP1 POP PUSH2 0x15A3 PUSH1 0x0 DUP4 ADD DUP7 PUSH2 0xF07 JUMP JUMPDEST PUSH2 0x15B0 PUSH1 0x20 DUP4 ADD DUP6 PUSH2 0xF16 JUMP JUMPDEST DUP2 DUP2 SUB PUSH1 0x40 DUP4 ADD MSTORE PUSH2 0x15C2 DUP2 DUP5 PUSH2 0xE9C JUMP JUMPDEST SWAP1 POP SWAP5 SWAP4 POP POP POP POP JUMP JUMPDEST PUSH32 0x204F6E6C79204F776E65722063616E2063616E63656C20746865204175637469 PUSH1 0x0 DUP3 ADD MSTORE PUSH32 0x6F6E000000000000000000000000000000000000000000000000000000000000 PUSH1 0x20 DUP3 ADD MSTORE POP JUMP JUMPDEST PUSH1 0x0 PUSH2 0x1628 PUSH1 0x22 DUP4 PUSH2 0xE50 JUMP JUMPDEST SWAP2 POP PUSH2 0x1633 DUP3 PUSH2 0x15CC JUMP JUMPDEST PUSH1 0x40 DUP3 ADD SWAP1 POP SWAP2 SWAP1 POP JUMP JUMPDEST PUSH1 0x0 PUSH1 0x20 DUP3 ADD SWAP1 POP DUP2 DUP2 SUB PUSH1 0x0 DUP4 ADD MSTORE PUSH2 0x1657 DUP2 PUSH2 0x161B JUMP JUMPDEST SWAP1 POP SWAP2 SWAP1 POP JUMP JUMPDEST PUSH32 0x206F776E65722063616E27742062696400000000000000000000000000000000 PUSH1 0x0 DUP3 ADD MSTORE POP JUMP JUMPDEST PUSH1 0x0 PUSH2 0x1694 PUSH1 0x10 DUP4 PUSH2 0xE50 JUMP JUMPDEST SWAP2 POP PUSH2 0x169F DUP3 PUSH2 0x165E JUMP JUMPDEST PUSH1 0x20 DUP3 ADD SWAP1 POP SWAP2 SWAP1 POP JUMP JUMPDEST PUSH1 0x0 PUSH1 0x20 DUP3 ADD SWAP1 POP DUP2 DUP2 SUB PUSH1 0x0 DUP4 ADD MSTORE PUSH2 0x16C3 DUP2 PUSH2 0x1687 JUMP JUMPDEST SWAP1 POP SWAP2 SWAP1 POP JUMP JUMPDEST PUSH32 0x6E6F742073746172746564207965740000000000000000000000000000000000 PUSH1 0x0 DUP3 ADD MSTORE POP JUMP JUMPDEST PUSH1 0x0 PUSH2 0x1700 PUSH1 0xF DUP4 PUSH2 0xE50 JUMP JUMPDEST SWAP2 POP PUSH2 0x170B DUP3 PUSH2 0x16CA JUMP JUMPDEST PUSH1 0x20 DUP3 ADD SWAP1 POP SWAP2 SWAP1 POP JUMP JUMPDEST PUSH1 0x0 PUSH1 0x20 DUP3 ADD SWAP1 POP DUP2 DUP2 SUB PUSH1 0x0 DUP4 ADD MSTORE PUSH2 0x172F DUP2 PUSH2 0x16F3 JUMP JUMPDEST SWAP1 POP SWAP2 SWAP1 POP JUMP JUMPDEST PUSH32 0x496E6372656173652074686520416D6F756E7400000000000000000000000000 PUSH1 0x0 DUP3 ADD MSTORE POP JUMP JUMPDEST PUSH1 0x0 PUSH2 0x176C PUSH1 0x13 DUP4 PUSH2 0xE50 JUMP JUMPDEST SWAP2 POP PUSH2 0x1777 DUP3 PUSH2 0x1736 JUMP JUMPDEST PUSH1 0x20 DUP3 ADD SWAP1 POP SWAP2 SWAP1 POP JUMP JUMPDEST PUSH1 0x0 PUSH1 0x20 DUP3 ADD SWAP1 POP DUP2 DUP2 SUB PUSH1 0x0 DUP4 ADD MSTORE PUSH2 0x179B DUP2 PUSH2 0x175F JUMP JUMPDEST SWAP1 POP SWAP2 SWAP1 POP JUMP JUMPDEST PUSH1 0x0 PUSH1 0x40 DUP3 ADD SWAP1 POP PUSH2 0x17B7 PUSH1 0x0 DUP4 ADD DUP6 PUSH2 0xF07 JUMP JUMPDEST PUSH2 0x17C4 PUSH1 0x20 DUP4 ADD DUP5 PUSH2 0xF16 JUMP JUMPDEST SWAP4 SWAP3 POP POP POP JUMP INVALID LOG2 PUSH5 0x6970667358 0x22 SLT KECCAK256 DUP11 0xB6 DUP10 JUMP CALLDATASIZE JUMP CALLER 0xB9 NUMBER SLOAD SUB SWAP12 0xEE DUP14 SGT 0xA8 0xA6 0xE3 0xF9 0x5E 0xBD PUSH24 0x3E042237C4973A14EC1064736F6C63430008120033000000 "
				},
				"gasEstimates": {
					"creation": {
						"codeDepositCost": "1229000",
						"executionCost": "23387",
						"totalCost": "1252387"
					},
					"external": {
						"CreateItem(string)": "infinite",
						"auctionEnd(uint256)": "infinite",
						"cancelAuction(uint256)": "infinite",
						"getHighestBid(uint256)": "infinite",
						"getWinningBidder(uint256)": "2894",
						"itemDetails(uint256)": "infinite",
						"placeBid(uint256)": "infinite"
					}
				},
				"methodIdentifiers": {
					"CreateItem(string)": "6c7be44b",
					"auctionEnd(uint256)": "32246e9f",
					"cancelAuction(uint256)": "96b5a755",
					"getHighestBid(uint256)": "8f288644",
					"getWinningBidder(uint256)": "2fa23689",
					"itemDetails(uint256)": "1fb4e3f0",
					"placeBid(uint256)": "9979ef45"
				}
			},
			"storageLayout": {
				"storage": [
					{
						"astId": 290,
						"contract": "Practice tokens/Auction.sol:finaL",
						"label": "itemID",
						"offset": 0,
						"slot": "0",
						"type": "t_uint256"
					},
					{
						"astId": 295,
						"contract": "Practice tokens/Auction.sol:finaL",
						"label": "itemDetails",
						"offset": 0,
						"slot": "1",
						"type": "t_mapping(t_uint256,t_struct(itemD)287_storage)"
					}
				],
				"types": {
					"t_address": {
						"encoding": "inplace",
						"label": "address",
						"numberOfBytes": "20"
					},
					"t_mapping(t_uint256,t_struct(itemD)287_storage)": {
						"encoding": "mapping",
						"key": "t_uint256",
						"label": "mapping(uint256 => struct finaL.itemD)",
						"numberOfBytes": "32",
						"value": "t_struct(itemD)287_storage"
					},
					"t_string_storage": {
						"encoding": "bytes",
						"label": "string",
						"numberOfBytes": "32"
					},
					"t_struct(itemD)287_storage": {
						"encoding": "inplace",
						"label": "struct finaL.itemD",
						"members": [
							{
								"astId": 274,
								"contract": "Practice tokens/Auction.sol:finaL",
								"label": "name",
								"offset": 0,
								"slot": "0",
								"type": "t_string_storage"
							},
							{
								"astId": 276,
								"contract": "Practice tokens/Auction.sol:finaL",
								"label": "owner",
								"offset": 0,
								"slot": "1",
								"type": "t_address"
							},
							{
								"astId": 278,
								"contract": "Practice tokens/Auction.sol:finaL",
								"label": "lastBid",
								"offset": 0,
								"slot": "2",
								"type": "t_uint256"
							},
							{
								"astId": 280,
								"contract": "Practice tokens/Auction.sol:finaL",
								"label": "highestBid",
								"offset": 0,
								"slot": "3",
								"type": "t_uint256"
							},
							{
								"astId": 282,
								"contract": "Practice tokens/Auction.sol:finaL",
								"label": "highestBider",
								"offset": 0,
								"slot": "4",
								"type": "t_address"
							},
							{
								"astId": 284,
								"contract": "Practice tokens/Auction.sol:finaL",
								"label": "auction_time",
								"offset": 0,
								"slot": "5",
								"type": "t_uint256"
							},
							{
								"astId": 286,
								"contract": "Practice tokens/Auction.sol:finaL",
								"label": "lastHighestBider",
								"offset": 0,
								"slot": "6",
								"type": "t_address"
							}
						],
						"numberOfBytes": "224"
					},
					"t_uint256": {
						"encoding": "inplace",
						"label": "uint256",
						"numberOfBytes": "32"
					}
				}
			},
			"userdoc": {
				"kind": "user",
				"methods": {},
				"version": 1
			}
		}
	}
}