{
	"Practice tokens/Assignment7.sol": {
		"CrowdFunding": {
			"abi": [
				{
					"inputs": [
						{
							"internalType": "uint256",
							"name": "_id",
							"type": "uint256"
						},
						{
							"internalType": "uint256",
							"name": "_amount",
							"type": "uint256"
						}
					],
					"name": "conditionNotMet",
					"outputs": [],
					"stateMutability": "nonpayable",
					"type": "function"
				},
				{
					"inputs": [
						{
							"internalType": "uint256",
							"name": "_id",
							"type": "uint256"
						}
					],
					"name": "contribute",
					"outputs": [],
					"stateMutability": "payable",
					"type": "function"
				},
				{
					"inputs": [
						{
							"internalType": "uint256",
							"name": "_id",
							"type": "uint256"
						},
						{
							"internalType": "string",
							"name": "_name",
							"type": "string"
						},
						{
							"internalType": "string",
							"name": "_description",
							"type": "string"
						},
						{
							"internalType": "uint256",
							"name": "_funding_goal",
							"type": "uint256"
						},
						{
							"internalType": "uint256",
							"name": "_deadline",
							"type": "uint256"
						}
					],
					"name": "setProjectDetails",
					"outputs": [],
					"stateMutability": "nonpayable",
					"type": "function"
				},
				{
					"inputs": [
						{
							"internalType": "uint256",
							"name": "",
							"type": "uint256"
						}
					],
					"name": "userProjects",
					"outputs": [
						{
							"internalType": "string",
							"name": "name",
							"type": "string"
						},
						{
							"internalType": "string",
							"name": "description",
							"type": "string"
						},
						{
							"internalType": "uint256",
							"name": "funding_goal",
							"type": "uint256"
						},
						{
							"internalType": "uint256",
							"name": "deadline",
							"type": "uint256"
						},
						{
							"internalType": "uint256",
							"name": "funding",
							"type": "uint256"
						}
					],
					"stateMutability": "view",
					"type": "function"
				}
			],
			"devdoc": {
				"kind": "dev",
				"methods": {},
				"version": 1
			},
			"evm": {
				"assembly": "    /* \"Practice tokens/Assignment7.sol\":57:919  contract CrowdFunding {... */\n  mstore(0x40, 0x80)\n  callvalue\n  dup1\n  iszero\n  tag_1\n  jumpi\n  0x00\n  dup1\n  revert\ntag_1:\n  pop\n  dataSize(sub_0)\n  dup1\n  dataOffset(sub_0)\n  0x00\n  codecopy\n  0x00\n  return\nstop\n\nsub_0: assembly {\n        /* \"Practice tokens/Assignment7.sol\":57:919  contract CrowdFunding {... */\n      mstore(0x40, 0x80)\n      jumpi(tag_1, lt(calldatasize, 0x04))\n      shr(0xe0, calldataload(0x00))\n      dup1\n      0x33b8c62a\n      eq\n      tag_2\n      jumpi\n      dup1\n      0xc1cbbca7\n      eq\n      tag_3\n      jumpi\n      dup1\n      0xd615bfa4\n      eq\n      tag_4\n      jumpi\n      dup1\n      0xec939ae4\n      eq\n      tag_5\n      jumpi\n    tag_1:\n      0x00\n      dup1\n      revert\n        /* \"Practice tokens/Assignment7.sol\":310:364  mapping(uint256 => projectDetails) public userProjects */\n    tag_2:\n      callvalue\n      dup1\n      iszero\n      tag_6\n      jumpi\n      0x00\n      dup1\n      revert\n    tag_6:\n      pop\n      tag_7\n      0x04\n      dup1\n      calldatasize\n      sub\n      dup2\n      add\n      swap1\n      tag_8\n      swap2\n      swap1\n      tag_9\n      jump\t// in\n    tag_8:\n      tag_10\n      jump\t// in\n    tag_7:\n      mload(0x40)\n      tag_11\n      swap6\n      swap5\n      swap4\n      swap3\n      swap2\n      swap1\n      tag_12\n      jump\t// in\n    tag_11:\n      mload(0x40)\n      dup1\n      swap2\n      sub\n      swap1\n      return\n        /* \"Practice tokens/Assignment7.sol\":739:838  function contribute(uint _id) public payable {... */\n    tag_3:\n      tag_13\n      0x04\n      dup1\n      calldatasize\n      sub\n      dup2\n      add\n      swap1\n      tag_14\n      swap2\n      swap1\n      tag_9\n      jump\t// in\n    tag_14:\n      tag_15\n      jump\t// in\n    tag_13:\n      stop\n        /* \"Practice tokens/Assignment7.sol\":844:916  function conditionNotMet(uint _id, uint _amount) public {... */\n    tag_4:\n      callvalue\n      dup1\n      iszero\n      tag_16\n      jumpi\n      0x00\n      dup1\n      revert\n    tag_16:\n      pop\n      tag_17\n      0x04\n      dup1\n      calldatasize\n      sub\n      dup2\n      add\n      swap1\n      tag_18\n      swap2\n      swap1\n      tag_19\n      jump\t// in\n    tag_18:\n      tag_20\n      jump\t// in\n    tag_17:\n      stop\n        /* \"Practice tokens/Assignment7.sol\":372:733  function setProjectDetails( uint256 _id, string memory _name,string memory _description,uint256 _funding_goal, uint256 _deadline ) public {... */\n    tag_5:\n      callvalue\n      dup1\n      iszero\n      tag_21\n      jumpi\n      0x00\n      dup1\n      revert\n    tag_21:\n      pop\n      tag_22\n      0x04\n      dup1\n      calldatasize\n      sub\n      dup2\n      add\n      swap1\n      tag_23\n      swap2\n      swap1\n      tag_24\n      jump\t// in\n    tag_23:\n      tag_25\n      jump\t// in\n    tag_22:\n      stop\n        /* \"Practice tokens/Assignment7.sol\":310:364  mapping(uint256 => projectDetails) public userProjects */\n    tag_10:\n      mstore(0x20, 0x02)\n      dup1\n      0x00\n      mstore\n      keccak256(0x00, 0x40)\n      0x00\n      swap2\n      pop\n      swap1\n      pop\n      dup1\n      0x00\n      add\n      dup1\n      sload\n      tag_26\n      swap1\n      tag_27\n      jump\t// in\n    tag_26:\n      dup1\n      0x1f\n      add\n      0x20\n      dup1\n      swap2\n      div\n      mul\n      0x20\n      add\n      mload(0x40)\n      swap1\n      dup2\n      add\n      0x40\n      mstore\n      dup1\n      swap3\n      swap2\n      swap1\n      dup2\n      dup2\n      mstore\n      0x20\n      add\n      dup3\n      dup1\n      sload\n      tag_28\n      swap1\n      tag_27\n      jump\t// in\n    tag_28:\n      dup1\n      iszero\n      tag_29\n      jumpi\n      dup1\n      0x1f\n      lt\n      tag_30\n      jumpi\n      0x0100\n      dup1\n      dup4\n      sload\n      div\n      mul\n      dup4\n      mstore\n      swap2\n      0x20\n      add\n      swap2\n      jump(tag_29)\n    tag_30:\n      dup3\n      add\n      swap2\n      swap1\n      0x00\n      mstore\n      keccak256(0x00, 0x20)\n      swap1\n    tag_31:\n      dup2\n      sload\n      dup2\n      mstore\n      swap1\n      0x01\n      add\n      swap1\n      0x20\n      add\n      dup1\n      dup4\n      gt\n      tag_31\n      jumpi\n      dup3\n      swap1\n      sub\n      0x1f\n      and\n      dup3\n      add\n      swap2\n    tag_29:\n      pop\n      pop\n      pop\n      pop\n      pop\n      swap1\n      dup1\n      0x01\n      add\n      dup1\n      sload\n      tag_32\n      swap1\n      tag_27\n      jump\t// in\n    tag_32:\n      dup1\n      0x1f\n      add\n      0x20\n      dup1\n      swap2\n      div\n      mul\n      0x20\n      add\n      mload(0x40)\n      swap1\n      dup2\n      add\n      0x40\n      mstore\n      dup1\n      swap3\n      swap2\n      swap1\n      dup2\n      dup2\n      mstore\n      0x20\n      add\n      dup3\n      dup1\n      sload\n      tag_33\n      swap1\n      tag_27\n      jump\t// in\n    tag_33:\n      dup1\n      iszero\n      tag_34\n      jumpi\n      dup1\n      0x1f\n      lt\n      tag_35\n      jumpi\n      0x0100\n      dup1\n      dup4\n      sload\n      div\n      mul\n      dup4\n      mstore\n      swap2\n      0x20\n      add\n      swap2\n      jump(tag_34)\n    tag_35:\n      dup3\n      add\n      swap2\n      swap1\n      0x00\n      mstore\n      keccak256(0x00, 0x20)\n      swap1\n    tag_36:\n      dup2\n      sload\n      dup2\n      mstore\n      swap1\n      0x01\n      add\n      swap1\n      0x20\n      add\n      dup1\n      dup4\n      gt\n      tag_36\n      jumpi\n      dup3\n      swap1\n      sub\n      0x1f\n      and\n      dup3\n      add\n      swap2\n    tag_34:\n      pop\n      pop\n      pop\n      pop\n      pop\n      swap1\n      dup1\n      0x02\n      add\n      sload\n      swap1\n      dup1\n      0x03\n      add\n      sload\n      swap1\n      dup1\n      0x04\n      add\n      sload\n      swap1\n      pop\n      dup6\n      jump\t// out\n        /* \"Practice tokens/Assignment7.sol\":739:838  function contribute(uint _id) public payable {... */\n    tag_15:\n        /* \"Practice tokens/Assignment7.sol\":822:831  msg.value */\n      callvalue\n        /* \"Practice tokens/Assignment7.sol\":794:806  userProjects */\n      0x02\n        /* \"Practice tokens/Assignment7.sol\":794:811  userProjects[_id] */\n      0x00\n        /* \"Practice tokens/Assignment7.sol\":807:810  _id */\n      dup4\n        /* \"Practice tokens/Assignment7.sol\":794:811  userProjects[_id] */\n      dup2\n      mstore\n      0x20\n      add\n      swap1\n      dup2\n      mstore\n      0x20\n      add\n      0x00\n      keccak256\n        /* \"Practice tokens/Assignment7.sol\":794:819  userProjects[_id].funding */\n      0x04\n      add\n        /* \"Practice tokens/Assignment7.sol\":794:831  userProjects[_id].funding = msg.value */\n      dup2\n      swap1\n      sstore\n      pop\n        /* \"Practice tokens/Assignment7.sol\":739:838  function contribute(uint _id) public payable {... */\n      pop\n      jump\t// out\n        /* \"Practice tokens/Assignment7.sol\":844:916  function conditionNotMet(uint _id, uint _amount) public {... */\n    tag_20:\n      pop\n      pop\n      jump\t// out\n        /* \"Practice tokens/Assignment7.sol\":372:733  function setProjectDetails( uint256 _id, string memory _name,string memory _description,uint256 _funding_goal, uint256 _deadline ) public {... */\n    tag_25:\n        /* \"Practice tokens/Assignment7.sol\":545:550  _name */\n      dup4\n        /* \"Practice tokens/Assignment7.sol\":520:532  userProjects */\n      0x02\n        /* \"Practice tokens/Assignment7.sol\":520:537  userProjects[_id] */\n      0x00\n        /* \"Practice tokens/Assignment7.sol\":533:536  _id */\n      dup8\n        /* \"Practice tokens/Assignment7.sol\":520:537  userProjects[_id] */\n      dup2\n      mstore\n      0x20\n      add\n      swap1\n      dup2\n      mstore\n      0x20\n      add\n      0x00\n      keccak256\n        /* \"Practice tokens/Assignment7.sol\":520:542  userProjects[_id].name */\n      0x00\n      add\n        /* \"Practice tokens/Assignment7.sol\":520:550  userProjects[_id].name = _name */\n      swap1\n      dup2\n      tag_40\n      swap2\n      swap1\n      tag_41\n      jump\t// in\n    tag_40:\n      pop\n        /* \"Practice tokens/Assignment7.sol\":592:604  _description */\n      dup3\n        /* \"Practice tokens/Assignment7.sol\":560:572  userProjects */\n      0x02\n        /* \"Practice tokens/Assignment7.sol\":560:577  userProjects[_id] */\n      0x00\n        /* \"Practice tokens/Assignment7.sol\":573:576  _id */\n      dup8\n        /* \"Practice tokens/Assignment7.sol\":560:577  userProjects[_id] */\n      dup2\n      mstore\n      0x20\n      add\n      swap1\n      dup2\n      mstore\n      0x20\n      add\n      0x00\n      keccak256\n        /* \"Practice tokens/Assignment7.sol\":560:589  userProjects[_id].description */\n      0x01\n      add\n        /* \"Practice tokens/Assignment7.sol\":560:604  userProjects[_id].description = _description */\n      swap1\n      dup2\n      tag_42\n      swap2\n      swap1\n      tag_41\n      jump\t// in\n    tag_42:\n      pop\n        /* \"Practice tokens/Assignment7.sol\":647:660  _funding_goal */\n      dup2\n        /* \"Practice tokens/Assignment7.sol\":614:626  userProjects */\n      0x02\n        /* \"Practice tokens/Assignment7.sol\":614:631  userProjects[_id] */\n      0x00\n        /* \"Practice tokens/Assignment7.sol\":627:630  _id */\n      dup8\n        /* \"Practice tokens/Assignment7.sol\":614:631  userProjects[_id] */\n      dup2\n      mstore\n      0x20\n      add\n      swap1\n      dup2\n      mstore\n      0x20\n      add\n      0x00\n      keccak256\n        /* \"Practice tokens/Assignment7.sol\":614:644  userProjects[_id].funding_goal */\n      0x02\n      add\n        /* \"Practice tokens/Assignment7.sol\":614:660  userProjects[_id].funding_goal = _funding_goal */\n      dup2\n      swap1\n      sstore\n      pop\n        /* \"Practice tokens/Assignment7.sol\":717:726  _deadline */\n      dup1\n        /* \"Practice tokens/Assignment7.sol\":699:714  block.timestamp */\n      timestamp\n        /* \"Practice tokens/Assignment7.sol\":699:726  block.timestamp + _deadline */\n      tag_43\n      swap2\n      swap1\n      tag_44\n      jump\t// in\n    tag_43:\n        /* \"Practice tokens/Assignment7.sol\":670:682  userProjects */\n      0x02\n        /* \"Practice tokens/Assignment7.sol\":670:687  userProjects[_id] */\n      0x00\n        /* \"Practice tokens/Assignment7.sol\":683:686  _id */\n      dup8\n        /* \"Practice tokens/Assignment7.sol\":670:687  userProjects[_id] */\n      dup2\n      mstore\n      0x20\n      add\n      swap1\n      dup2\n      mstore\n      0x20\n      add\n      0x00\n      keccak256\n        /* \"Practice tokens/Assignment7.sol\":670:696  userProjects[_id].deadline */\n      0x03\n      add\n        /* \"Practice tokens/Assignment7.sol\":670:726  userProjects[_id].deadline = block.timestamp + _deadline */\n      dup2\n      swap1\n      sstore\n      pop\n        /* \"Practice tokens/Assignment7.sol\":372:733  function setProjectDetails( uint256 _id, string memory _name,string memory _description,uint256 _funding_goal, uint256 _deadline ) public {... */\n      pop\n      pop\n      pop\n      pop\n      pop\n      jump\t// out\n        /* \"#utility.yul\":7:82   */\n    tag_45:\n        /* \"#utility.yul\":40:46   */\n      0x00\n        /* \"#utility.yul\":73:75   */\n      0x40\n        /* \"#utility.yul\":67:76   */\n      mload\n        /* \"#utility.yul\":57:76   */\n      swap1\n      pop\n        /* \"#utility.yul\":7:82   */\n      swap1\n      jump\t// out\n        /* \"#utility.yul\":88:205   */\n    tag_46:\n        /* \"#utility.yul\":197:198   */\n      0x00\n        /* \"#utility.yul\":194:195   */\n      dup1\n        /* \"#utility.yul\":187:199   */\n      revert\n        /* \"#utility.yul\":211:328   */\n    tag_47:\n        /* \"#utility.yul\":320:321   */\n      0x00\n        /* \"#utility.yul\":317:318   */\n      dup1\n        /* \"#utility.yul\":310:322   */\n      revert\n        /* \"#utility.yul\":334:411   */\n    tag_48:\n        /* \"#utility.yul\":371:378   */\n      0x00\n        /* \"#utility.yul\":400:405   */\n      dup2\n        /* \"#utility.yul\":389:405   */\n      swap1\n      pop\n        /* \"#utility.yul\":334:411   */\n      swap2\n      swap1\n      pop\n      jump\t// out\n        /* \"#utility.yul\":417:539   */\n    tag_49:\n        /* \"#utility.yul\":490:514   */\n      tag_89\n        /* \"#utility.yul\":508:513   */\n      dup2\n        /* \"#utility.yul\":490:514   */\n      tag_48\n      jump\t// in\n    tag_89:\n        /* \"#utility.yul\":483:488   */\n      dup2\n        /* \"#utility.yul\":480:515   */\n      eq\n        /* \"#utility.yul\":470:533   */\n      tag_90\n      jumpi\n        /* \"#utility.yul\":529:530   */\n      0x00\n        /* \"#utility.yul\":526:527   */\n      dup1\n        /* \"#utility.yul\":519:531   */\n      revert\n        /* \"#utility.yul\":470:533   */\n    tag_90:\n        /* \"#utility.yul\":417:539   */\n      pop\n      jump\t// out\n        /* \"#utility.yul\":545:684   */\n    tag_50:\n        /* \"#utility.yul\":591:596   */\n      0x00\n        /* \"#utility.yul\":629:635   */\n      dup2\n        /* \"#utility.yul\":616:636   */\n      calldataload\n        /* \"#utility.yul\":607:636   */\n      swap1\n      pop\n        /* \"#utility.yul\":645:678   */\n      tag_92\n        /* \"#utility.yul\":672:677   */\n      dup2\n        /* \"#utility.yul\":645:678   */\n      tag_49\n      jump\t// in\n    tag_92:\n        /* \"#utility.yul\":545:684   */\n      swap3\n      swap2\n      pop\n      pop\n      jump\t// out\n        /* \"#utility.yul\":690:1019   */\n    tag_9:\n        /* \"#utility.yul\":749:755   */\n      0x00\n        /* \"#utility.yul\":798:800   */\n      0x20\n        /* \"#utility.yul\":786:795   */\n      dup3\n        /* \"#utility.yul\":777:784   */\n      dup5\n        /* \"#utility.yul\":773:796   */\n      sub\n        /* \"#utility.yul\":769:801   */\n      slt\n        /* \"#utility.yul\":766:885   */\n      iszero\n      tag_94\n      jumpi\n        /* \"#utility.yul\":804:883   */\n      tag_95\n      tag_46\n      jump\t// in\n    tag_95:\n        /* \"#utility.yul\":766:885   */\n    tag_94:\n        /* \"#utility.yul\":924:925   */\n      0x00\n        /* \"#utility.yul\":949:1002   */\n      tag_96\n        /* \"#utility.yul\":994:1001   */\n      dup5\n        /* \"#utility.yul\":985:991   */\n      dup3\n        /* \"#utility.yul\":974:983   */\n      dup6\n        /* \"#utility.yul\":970:992   */\n      add\n        /* \"#utility.yul\":949:1002   */\n      tag_50\n      jump\t// in\n    tag_96:\n        /* \"#utility.yul\":939:1002   */\n      swap2\n      pop\n        /* \"#utility.yul\":895:1012   */\n      pop\n        /* \"#utility.yul\":690:1019   */\n      swap3\n      swap2\n      pop\n      pop\n      jump\t// out\n        /* \"#utility.yul\":1025:1124   */\n    tag_51:\n        /* \"#utility.yul\":1077:1083   */\n      0x00\n        /* \"#utility.yul\":1111:1116   */\n      dup2\n        /* \"#utility.yul\":1105:1117   */\n      mload\n        /* \"#utility.yul\":1095:1117   */\n      swap1\n      pop\n        /* \"#utility.yul\":1025:1124   */\n      swap2\n      swap1\n      pop\n      jump\t// out\n        /* \"#utility.yul\":1130:1299   */\n    tag_52:\n        /* \"#utility.yul\":1214:1225   */\n      0x00\n        /* \"#utility.yul\":1248:1254   */\n      dup3\n        /* \"#utility.yul\":1243:1246   */\n      dup3\n        /* \"#utility.yul\":1236:1255   */\n      mstore\n        /* \"#utility.yul\":1288:1292   */\n      0x20\n        /* \"#utility.yul\":1283:1286   */\n      dup3\n        /* \"#utility.yul\":1279:1293   */\n      add\n        /* \"#utility.yul\":1264:1293   */\n      swap1\n      pop\n        /* \"#utility.yul\":1130:1299   */\n      swap3\n      swap2\n      pop\n      pop\n      jump\t// out\n        /* \"#utility.yul\":1305:1551   */\n    tag_53:\n        /* \"#utility.yul\":1386:1387   */\n      0x00\n        /* \"#utility.yul\":1396:1509   */\n    tag_100:\n        /* \"#utility.yul\":1410:1416   */\n      dup4\n        /* \"#utility.yul\":1407:1408   */\n      dup2\n        /* \"#utility.yul\":1404:1417   */\n      lt\n        /* \"#utility.yul\":1396:1509   */\n      iszero\n      tag_102\n      jumpi\n        /* \"#utility.yul\":1495:1496   */\n      dup1\n        /* \"#utility.yul\":1490:1493   */\n      dup3\n        /* \"#utility.yul\":1486:1497   */\n      add\n        /* \"#utility.yul\":1480:1498   */\n      mload\n        /* \"#utility.yul\":1476:1477   */\n      dup2\n        /* \"#utility.yul\":1471:1474   */\n      dup5\n        /* \"#utility.yul\":1467:1478   */\n      add\n        /* \"#utility.yul\":1460:1499   */\n      mstore\n        /* \"#utility.yul\":1432:1434   */\n      0x20\n        /* \"#utility.yul\":1429:1430   */\n      dup2\n        /* \"#utility.yul\":1425:1435   */\n      add\n        /* \"#utility.yul\":1420:1435   */\n      swap1\n      pop\n        /* \"#utility.yul\":1396:1509   */\n      jump(tag_100)\n    tag_102:\n        /* \"#utility.yul\":1543:1544   */\n      0x00\n        /* \"#utility.yul\":1534:1540   */\n      dup5\n        /* \"#utility.yul\":1529:1532   */\n      dup5\n        /* \"#utility.yul\":1525:1541   */\n      add\n        /* \"#utility.yul\":1518:1545   */\n      mstore\n        /* \"#utility.yul\":1367:1551   */\n      pop\n        /* \"#utility.yul\":1305:1551   */\n      pop\n      pop\n      pop\n      jump\t// out\n        /* \"#utility.yul\":1557:1659   */\n    tag_54:\n        /* \"#utility.yul\":1598:1604   */\n      0x00\n        /* \"#utility.yul\":1649:1651   */\n      0x1f\n        /* \"#utility.yul\":1645:1652   */\n      not\n        /* \"#utility.yul\":1640:1642   */\n      0x1f\n        /* \"#utility.yul\":1633:1638   */\n      dup4\n        /* \"#utility.yul\":1629:1643   */\n      add\n        /* \"#utility.yul\":1625:1653   */\n      and\n        /* \"#utility.yul\":1615:1653   */\n      swap1\n      pop\n        /* \"#utility.yul\":1557:1659   */\n      swap2\n      swap1\n      pop\n      jump\t// out\n        /* \"#utility.yul\":1665:2042   */\n    tag_55:\n        /* \"#utility.yul\":1753:1756   */\n      0x00\n        /* \"#utility.yul\":1781:1820   */\n      tag_105\n        /* \"#utility.yul\":1814:1819   */\n      dup3\n        /* \"#utility.yul\":1781:1820   */\n      tag_51\n      jump\t// in\n    tag_105:\n        /* \"#utility.yul\":1836:1907   */\n      tag_106\n        /* \"#utility.yul\":1900:1906   */\n      dup2\n        /* \"#utility.yul\":1895:1898   */\n      dup6\n        /* \"#utility.yul\":1836:1907   */\n      tag_52\n      jump\t// in\n    tag_106:\n        /* \"#utility.yul\":1829:1907   */\n      swap4\n      pop\n        /* \"#utility.yul\":1916:1981   */\n      tag_107\n        /* \"#utility.yul\":1974:1980   */\n      dup2\n        /* \"#utility.yul\":1969:1972   */\n      dup6\n        /* \"#utility.yul\":1962:1966   */\n      0x20\n        /* \"#utility.yul\":1955:1960   */\n      dup7\n        /* \"#utility.yul\":1951:1967   */\n      add\n        /* \"#utility.yul\":1916:1981   */\n      tag_53\n      jump\t// in\n    tag_107:\n        /* \"#utility.yul\":2006:2035   */\n      tag_108\n        /* \"#utility.yul\":2028:2034   */\n      dup2\n        /* \"#utility.yul\":2006:2035   */\n      tag_54\n      jump\t// in\n    tag_108:\n        /* \"#utility.yul\":2001:2004   */\n      dup5\n        /* \"#utility.yul\":1997:2036   */\n      add\n        /* \"#utility.yul\":1990:2036   */\n      swap2\n      pop\n        /* \"#utility.yul\":1757:2042   */\n      pop\n        /* \"#utility.yul\":1665:2042   */\n      swap3\n      swap2\n      pop\n      pop\n      jump\t// out\n        /* \"#utility.yul\":2048:2166   */\n    tag_56:\n        /* \"#utility.yul\":2135:2159   */\n      tag_110\n        /* \"#utility.yul\":2153:2158   */\n      dup2\n        /* \"#utility.yul\":2135:2159   */\n      tag_48\n      jump\t// in\n    tag_110:\n        /* \"#utility.yul\":2130:2133   */\n      dup3\n        /* \"#utility.yul\":2123:2160   */\n      mstore\n        /* \"#utility.yul\":2048:2166   */\n      pop\n      pop\n      jump\t// out\n        /* \"#utility.yul\":2172:3018   */\n    tag_12:\n        /* \"#utility.yul\":2417:2421   */\n      0x00\n        /* \"#utility.yul\":2455:2458   */\n      0xa0\n        /* \"#utility.yul\":2444:2453   */\n      dup3\n        /* \"#utility.yul\":2440:2459   */\n      add\n        /* \"#utility.yul\":2432:2459   */\n      swap1\n      pop\n        /* \"#utility.yul\":2505:2514   */\n      dup2\n        /* \"#utility.yul\":2499:2503   */\n      dup2\n        /* \"#utility.yul\":2495:2515   */\n      sub\n        /* \"#utility.yul\":2491:2492   */\n      0x00\n        /* \"#utility.yul\":2480:2489   */\n      dup4\n        /* \"#utility.yul\":2476:2493   */\n      add\n        /* \"#utility.yul\":2469:2516   */\n      mstore\n        /* \"#utility.yul\":2533:2611   */\n      tag_112\n        /* \"#utility.yul\":2606:2610   */\n      dup2\n        /* \"#utility.yul\":2597:2603   */\n      dup9\n        /* \"#utility.yul\":2533:2611   */\n      tag_55\n      jump\t// in\n    tag_112:\n        /* \"#utility.yul\":2525:2611   */\n      swap1\n      pop\n        /* \"#utility.yul\":2658:2667   */\n      dup2\n        /* \"#utility.yul\":2652:2656   */\n      dup2\n        /* \"#utility.yul\":2648:2668   */\n      sub\n        /* \"#utility.yul\":2643:2645   */\n      0x20\n        /* \"#utility.yul\":2632:2641   */\n      dup4\n        /* \"#utility.yul\":2628:2646   */\n      add\n        /* \"#utility.yul\":2621:2669   */\n      mstore\n        /* \"#utility.yul\":2686:2764   */\n      tag_113\n        /* \"#utility.yul\":2759:2763   */\n      dup2\n        /* \"#utility.yul\":2750:2756   */\n      dup8\n        /* \"#utility.yul\":2686:2764   */\n      tag_55\n      jump\t// in\n    tag_113:\n        /* \"#utility.yul\":2678:2764   */\n      swap1\n      pop\n        /* \"#utility.yul\":2774:2846   */\n      tag_114\n        /* \"#utility.yul\":2842:2844   */\n      0x40\n        /* \"#utility.yul\":2831:2840   */\n      dup4\n        /* \"#utility.yul\":2827:2845   */\n      add\n        /* \"#utility.yul\":2818:2824   */\n      dup7\n        /* \"#utility.yul\":2774:2846   */\n      tag_56\n      jump\t// in\n    tag_114:\n        /* \"#utility.yul\":2856:2928   */\n      tag_115\n        /* \"#utility.yul\":2924:2926   */\n      0x60\n        /* \"#utility.yul\":2913:2922   */\n      dup4\n        /* \"#utility.yul\":2909:2927   */\n      add\n        /* \"#utility.yul\":2900:2906   */\n      dup6\n        /* \"#utility.yul\":2856:2928   */\n      tag_56\n      jump\t// in\n    tag_115:\n        /* \"#utility.yul\":2938:3011   */\n      tag_116\n        /* \"#utility.yul\":3006:3009   */\n      0x80\n        /* \"#utility.yul\":2995:3004   */\n      dup4\n        /* \"#utility.yul\":2991:3010   */\n      add\n        /* \"#utility.yul\":2982:2988   */\n      dup5\n        /* \"#utility.yul\":2938:3011   */\n      tag_56\n      jump\t// in\n    tag_116:\n        /* \"#utility.yul\":2172:3018   */\n      swap7\n      swap6\n      pop\n      pop\n      pop\n      pop\n      pop\n      pop\n      jump\t// out\n        /* \"#utility.yul\":3024:3498   */\n    tag_19:\n        /* \"#utility.yul\":3092:3098   */\n      0x00\n        /* \"#utility.yul\":3100:3106   */\n      dup1\n        /* \"#utility.yul\":3149:3151   */\n      0x40\n        /* \"#utility.yul\":3137:3146   */\n      dup4\n        /* \"#utility.yul\":3128:3135   */\n      dup6\n        /* \"#utility.yul\":3124:3147   */\n      sub\n        /* \"#utility.yul\":3120:3152   */\n      slt\n        /* \"#utility.yul\":3117:3236   */\n      iszero\n      tag_118\n      jumpi\n        /* \"#utility.yul\":3155:3234   */\n      tag_119\n      tag_46\n      jump\t// in\n    tag_119:\n        /* \"#utility.yul\":3117:3236   */\n    tag_118:\n        /* \"#utility.yul\":3275:3276   */\n      0x00\n        /* \"#utility.yul\":3300:3353   */\n      tag_120\n        /* \"#utility.yul\":3345:3352   */\n      dup6\n        /* \"#utility.yul\":3336:3342   */\n      dup3\n        /* \"#utility.yul\":3325:3334   */\n      dup7\n        /* \"#utility.yul\":3321:3343   */\n      add\n        /* \"#utility.yul\":3300:3353   */\n      tag_50\n      jump\t// in\n    tag_120:\n        /* \"#utility.yul\":3290:3353   */\n      swap3\n      pop\n        /* \"#utility.yul\":3246:3363   */\n      pop\n        /* \"#utility.yul\":3402:3404   */\n      0x20\n        /* \"#utility.yul\":3428:3481   */\n      tag_121\n        /* \"#utility.yul\":3473:3480   */\n      dup6\n        /* \"#utility.yul\":3464:3470   */\n      dup3\n        /* \"#utility.yul\":3453:3462   */\n      dup7\n        /* \"#utility.yul\":3449:3471   */\n      add\n        /* \"#utility.yul\":3428:3481   */\n      tag_50\n      jump\t// in\n    tag_121:\n        /* \"#utility.yul\":3418:3481   */\n      swap2\n      pop\n        /* \"#utility.yul\":3373:3491   */\n      pop\n        /* \"#utility.yul\":3024:3498   */\n      swap3\n      pop\n      swap3\n      swap1\n      pop\n      jump\t// out\n        /* \"#utility.yul\":3504:3621   */\n    tag_57:\n        /* \"#utility.yul\":3613:3614   */\n      0x00\n        /* \"#utility.yul\":3610:3611   */\n      dup1\n        /* \"#utility.yul\":3603:3615   */\n      revert\n        /* \"#utility.yul\":3627:3744   */\n    tag_58:\n        /* \"#utility.yul\":3736:3737   */\n      0x00\n        /* \"#utility.yul\":3733:3734   */\n      dup1\n        /* \"#utility.yul\":3726:3738   */\n      revert\n        /* \"#utility.yul\":3750:3930   */\n    tag_59:\n        /* \"#utility.yul\":3798:3875   */\n      0x4e487b7100000000000000000000000000000000000000000000000000000000\n        /* \"#utility.yul\":3795:3796   */\n      0x00\n        /* \"#utility.yul\":3788:3876   */\n      mstore\n        /* \"#utility.yul\":3895:3899   */\n      0x41\n        /* \"#utility.yul\":3892:3893   */\n      0x04\n        /* \"#utility.yul\":3885:3900   */\n      mstore\n        /* \"#utility.yul\":3919:3923   */\n      0x24\n        /* \"#utility.yul\":3916:3917   */\n      0x00\n        /* \"#utility.yul\":3909:3924   */\n      revert\n        /* \"#utility.yul\":3936:4217   */\n    tag_60:\n        /* \"#utility.yul\":4019:4046   */\n      tag_126\n        /* \"#utility.yul\":4041:4045   */\n      dup3\n        /* \"#utility.yul\":4019:4046   */\n      tag_54\n      jump\t// in\n    tag_126:\n        /* \"#utility.yul\":4011:4017   */\n      dup2\n        /* \"#utility.yul\":4007:4047   */\n      add\n        /* \"#utility.yul\":4149:4155   */\n      dup2\n        /* \"#utility.yul\":4137:4147   */\n      dup2\n        /* \"#utility.yul\":4134:4156   */\n      lt\n        /* \"#utility.yul\":4113:4131   */\n      0xffffffffffffffff\n        /* \"#utility.yul\":4101:4111   */\n      dup3\n        /* \"#utility.yul\":4098:4132   */\n      gt\n        /* \"#utility.yul\":4095:4157   */\n      or\n        /* \"#utility.yul\":4092:4180   */\n      iszero\n      tag_127\n      jumpi\n        /* \"#utility.yul\":4160:4178   */\n      tag_128\n      tag_59\n      jump\t// in\n    tag_128:\n        /* \"#utility.yul\":4092:4180   */\n    tag_127:\n        /* \"#utility.yul\":4200:4210   */\n      dup1\n        /* \"#utility.yul\":4196:4198   */\n      0x40\n        /* \"#utility.yul\":4189:4211   */\n      mstore\n        /* \"#utility.yul\":3979:4217   */\n      pop\n        /* \"#utility.yul\":3936:4217   */\n      pop\n      pop\n      jump\t// out\n        /* \"#utility.yul\":4223:4352   */\n    tag_61:\n        /* \"#utility.yul\":4257:4263   */\n      0x00\n        /* \"#utility.yul\":4284:4304   */\n      tag_130\n      tag_45\n      jump\t// in\n    tag_130:\n        /* \"#utility.yul\":4274:4304   */\n      swap1\n      pop\n        /* \"#utility.yul\":4313:4346   */\n      tag_131\n        /* \"#utility.yul\":4341:4345   */\n      dup3\n        /* \"#utility.yul\":4333:4339   */\n      dup3\n        /* \"#utility.yul\":4313:4346   */\n      tag_60\n      jump\t// in\n    tag_131:\n        /* \"#utility.yul\":4223:4352   */\n      swap2\n      swap1\n      pop\n      jump\t// out\n        /* \"#utility.yul\":4358:4666   */\n    tag_62:\n        /* \"#utility.yul\":4420:4424   */\n      0x00\n        /* \"#utility.yul\":4510:4528   */\n      0xffffffffffffffff\n        /* \"#utility.yul\":4502:4508   */\n      dup3\n        /* \"#utility.yul\":4499:4529   */\n      gt\n        /* \"#utility.yul\":4496:4552   */\n      iszero\n      tag_133\n      jumpi\n        /* \"#utility.yul\":4532:4550   */\n      tag_134\n      tag_59\n      jump\t// in\n    tag_134:\n        /* \"#utility.yul\":4496:4552   */\n    tag_133:\n        /* \"#utility.yul\":4570:4599   */\n      tag_135\n        /* \"#utility.yul\":4592:4598   */\n      dup3\n        /* \"#utility.yul\":4570:4599   */\n      tag_54\n      jump\t// in\n    tag_135:\n        /* \"#utility.yul\":4562:4599   */\n      swap1\n      pop\n        /* \"#utility.yul\":4654:4658   */\n      0x20\n        /* \"#utility.yul\":4648:4652   */\n      dup2\n        /* \"#utility.yul\":4644:4659   */\n      add\n        /* \"#utility.yul\":4636:4659   */\n      swap1\n      pop\n        /* \"#utility.yul\":4358:4666   */\n      swap2\n      swap1\n      pop\n      jump\t// out\n        /* \"#utility.yul\":4672:4818   */\n    tag_63:\n        /* \"#utility.yul\":4769:4775   */\n      dup3\n        /* \"#utility.yul\":4764:4767   */\n      dup2\n        /* \"#utility.yul\":4759:4762   */\n      dup4\n        /* \"#utility.yul\":4746:4776   */\n      calldatacopy\n        /* \"#utility.yul\":4810:4811   */\n      0x00\n        /* \"#utility.yul\":4801:4807   */\n      dup4\n        /* \"#utility.yul\":4796:4799   */\n      dup4\n        /* \"#utility.yul\":4792:4808   */\n      add\n        /* \"#utility.yul\":4785:4812   */\n      mstore\n        /* \"#utility.yul\":4672:4818   */\n      pop\n      pop\n      pop\n      jump\t// out\n        /* \"#utility.yul\":4824:5249   */\n    tag_64:\n        /* \"#utility.yul\":4902:4907   */\n      0x00\n        /* \"#utility.yul\":4927:4993   */\n      tag_138\n        /* \"#utility.yul\":4943:4992   */\n      tag_139\n        /* \"#utility.yul\":4985:4991   */\n      dup5\n        /* \"#utility.yul\":4943:4992   */\n      tag_62\n      jump\t// in\n    tag_139:\n        /* \"#utility.yul\":4927:4993   */\n      tag_61\n      jump\t// in\n    tag_138:\n        /* \"#utility.yul\":4918:4993   */\n      swap1\n      pop\n        /* \"#utility.yul\":5016:5022   */\n      dup3\n        /* \"#utility.yul\":5009:5014   */\n      dup2\n        /* \"#utility.yul\":5002:5023   */\n      mstore\n        /* \"#utility.yul\":5054:5058   */\n      0x20\n        /* \"#utility.yul\":5047:5052   */\n      dup2\n        /* \"#utility.yul\":5043:5059   */\n      add\n        /* \"#utility.yul\":5092:5095   */\n      dup5\n        /* \"#utility.yul\":5083:5089   */\n      dup5\n        /* \"#utility.yul\":5078:5081   */\n      dup5\n        /* \"#utility.yul\":5074:5090   */\n      add\n        /* \"#utility.yul\":5071:5096   */\n      gt\n        /* \"#utility.yul\":5068:5180   */\n      iszero\n      tag_140\n      jumpi\n        /* \"#utility.yul\":5099:5178   */\n      tag_141\n      tag_58\n      jump\t// in\n    tag_141:\n        /* \"#utility.yul\":5068:5180   */\n    tag_140:\n        /* \"#utility.yul\":5189:5243   */\n      tag_142\n        /* \"#utility.yul\":5236:5242   */\n      dup5\n        /* \"#utility.yul\":5231:5234   */\n      dup3\n        /* \"#utility.yul\":5226:5229   */\n      dup6\n        /* \"#utility.yul\":5189:5243   */\n      tag_63\n      jump\t// in\n    tag_142:\n        /* \"#utility.yul\":4908:5249   */\n      pop\n        /* \"#utility.yul\":4824:5249   */\n      swap4\n      swap3\n      pop\n      pop\n      pop\n      jump\t// out\n        /* \"#utility.yul\":5269:5609   */\n    tag_65:\n        /* \"#utility.yul\":5325:5330   */\n      0x00\n        /* \"#utility.yul\":5374:5377   */\n      dup3\n        /* \"#utility.yul\":5367:5371   */\n      0x1f\n        /* \"#utility.yul\":5359:5365   */\n      dup4\n        /* \"#utility.yul\":5355:5372   */\n      add\n        /* \"#utility.yul\":5351:5378   */\n      slt\n        /* \"#utility.yul\":5341:5463   */\n      tag_144\n      jumpi\n        /* \"#utility.yul\":5382:5461   */\n      tag_145\n      tag_57\n      jump\t// in\n    tag_145:\n        /* \"#utility.yul\":5341:5463   */\n    tag_144:\n        /* \"#utility.yul\":5499:5505   */\n      dup2\n        /* \"#utility.yul\":5486:5506   */\n      calldataload\n        /* \"#utility.yul\":5524:5603   */\n      tag_146\n        /* \"#utility.yul\":5599:5602   */\n      dup5\n        /* \"#utility.yul\":5591:5597   */\n      dup3\n        /* \"#utility.yul\":5584:5588   */\n      0x20\n        /* \"#utility.yul\":5576:5582   */\n      dup7\n        /* \"#utility.yul\":5572:5589   */\n      add\n        /* \"#utility.yul\":5524:5603   */\n      tag_64\n      jump\t// in\n    tag_146:\n        /* \"#utility.yul\":5515:5603   */\n      swap2\n      pop\n        /* \"#utility.yul\":5331:5609   */\n      pop\n        /* \"#utility.yul\":5269:5609   */\n      swap3\n      swap2\n      pop\n      pop\n      jump\t// out\n        /* \"#utility.yul\":5615:6886   */\n    tag_24:\n        /* \"#utility.yul\":5730:5736   */\n      0x00\n        /* \"#utility.yul\":5738:5744   */\n      dup1\n        /* \"#utility.yul\":5746:5752   */\n      0x00\n        /* \"#utility.yul\":5754:5760   */\n      dup1\n        /* \"#utility.yul\":5762:5768   */\n      0x00\n        /* \"#utility.yul\":5811:5814   */\n      0xa0\n        /* \"#utility.yul\":5799:5808   */\n      dup7\n        /* \"#utility.yul\":5790:5797   */\n      dup9\n        /* \"#utility.yul\":5786:5809   */\n      sub\n        /* \"#utility.yul\":5782:5815   */\n      slt\n        /* \"#utility.yul\":5779:5899   */\n      iszero\n      tag_148\n      jumpi\n        /* \"#utility.yul\":5818:5897   */\n      tag_149\n      tag_46\n      jump\t// in\n    tag_149:\n        /* \"#utility.yul\":5779:5899   */\n    tag_148:\n        /* \"#utility.yul\":5938:5939   */\n      0x00\n        /* \"#utility.yul\":5963:6016   */\n      tag_150\n        /* \"#utility.yul\":6008:6015   */\n      dup9\n        /* \"#utility.yul\":5999:6005   */\n      dup3\n        /* \"#utility.yul\":5988:5997   */\n      dup10\n        /* \"#utility.yul\":5984:6006   */\n      add\n        /* \"#utility.yul\":5963:6016   */\n      tag_50\n      jump\t// in\n    tag_150:\n        /* \"#utility.yul\":5953:6016   */\n      swap6\n      pop\n        /* \"#utility.yul\":5909:6026   */\n      pop\n        /* \"#utility.yul\":6093:6095   */\n      0x20\n        /* \"#utility.yul\":6082:6091   */\n      dup7\n        /* \"#utility.yul\":6078:6096   */\n      add\n        /* \"#utility.yul\":6065:6097   */\n      calldataload\n        /* \"#utility.yul\":6124:6142   */\n      0xffffffffffffffff\n        /* \"#utility.yul\":6116:6122   */\n      dup2\n        /* \"#utility.yul\":6113:6143   */\n      gt\n        /* \"#utility.yul\":6110:6227   */\n      iszero\n      tag_151\n      jumpi\n        /* \"#utility.yul\":6146:6225   */\n      tag_152\n      tag_47\n      jump\t// in\n    tag_152:\n        /* \"#utility.yul\":6110:6227   */\n    tag_151:\n        /* \"#utility.yul\":6251:6314   */\n      tag_153\n        /* \"#utility.yul\":6306:6313   */\n      dup9\n        /* \"#utility.yul\":6297:6303   */\n      dup3\n        /* \"#utility.yul\":6286:6295   */\n      dup10\n        /* \"#utility.yul\":6282:6304   */\n      add\n        /* \"#utility.yul\":6251:6314   */\n      tag_65\n      jump\t// in\n    tag_153:\n        /* \"#utility.yul\":6241:6314   */\n      swap5\n      pop\n        /* \"#utility.yul\":6036:6324   */\n      pop\n        /* \"#utility.yul\":6391:6393   */\n      0x40\n        /* \"#utility.yul\":6380:6389   */\n      dup7\n        /* \"#utility.yul\":6376:6394   */\n      add\n        /* \"#utility.yul\":6363:6395   */\n      calldataload\n        /* \"#utility.yul\":6422:6440   */\n      0xffffffffffffffff\n        /* \"#utility.yul\":6414:6420   */\n      dup2\n        /* \"#utility.yul\":6411:6441   */\n      gt\n        /* \"#utility.yul\":6408:6525   */\n      iszero\n      tag_154\n      jumpi\n        /* \"#utility.yul\":6444:6523   */\n      tag_155\n      tag_47\n      jump\t// in\n    tag_155:\n        /* \"#utility.yul\":6408:6525   */\n    tag_154:\n        /* \"#utility.yul\":6549:6612   */\n      tag_156\n        /* \"#utility.yul\":6604:6611   */\n      dup9\n        /* \"#utility.yul\":6595:6601   */\n      dup3\n        /* \"#utility.yul\":6584:6593   */\n      dup10\n        /* \"#utility.yul\":6580:6602   */\n      add\n        /* \"#utility.yul\":6549:6612   */\n      tag_65\n      jump\t// in\n    tag_156:\n        /* \"#utility.yul\":6539:6612   */\n      swap4\n      pop\n        /* \"#utility.yul\":6334:6622   */\n      pop\n        /* \"#utility.yul\":6661:6663   */\n      0x60\n        /* \"#utility.yul\":6687:6740   */\n      tag_157\n        /* \"#utility.yul\":6732:6739   */\n      dup9\n        /* \"#utility.yul\":6723:6729   */\n      dup3\n        /* \"#utility.yul\":6712:6721   */\n      dup10\n        /* \"#utility.yul\":6708:6730   */\n      add\n        /* \"#utility.yul\":6687:6740   */\n      tag_50\n      jump\t// in\n    tag_157:\n        /* \"#utility.yul\":6677:6740   */\n      swap3\n      pop\n        /* \"#utility.yul\":6632:6750   */\n      pop\n        /* \"#utility.yul\":6789:6792   */\n      0x80\n        /* \"#utility.yul\":6816:6869   */\n      tag_158\n        /* \"#utility.yul\":6861:6868   */\n      dup9\n        /* \"#utility.yul\":6852:6858   */\n      dup3\n        /* \"#utility.yul\":6841:6850   */\n      dup10\n        /* \"#utility.yul\":6837:6859   */\n      add\n        /* \"#utility.yul\":6816:6869   */\n      tag_50\n      jump\t// in\n    tag_158:\n        /* \"#utility.yul\":6806:6869   */\n      swap2\n      pop\n        /* \"#utility.yul\":6760:6879   */\n      pop\n        /* \"#utility.yul\":5615:6886   */\n      swap3\n      swap6\n      pop\n      swap3\n      swap6\n      swap1\n      swap4\n      pop\n      jump\t// out\n        /* \"#utility.yul\":6892:7072   */\n    tag_66:\n        /* \"#utility.yul\":6940:7017   */\n      0x4e487b7100000000000000000000000000000000000000000000000000000000\n        /* \"#utility.yul\":6937:6938   */\n      0x00\n        /* \"#utility.yul\":6930:7018   */\n      mstore\n        /* \"#utility.yul\":7037:7041   */\n      0x22\n        /* \"#utility.yul\":7034:7035   */\n      0x04\n        /* \"#utility.yul\":7027:7042   */\n      mstore\n        /* \"#utility.yul\":7061:7065   */\n      0x24\n        /* \"#utility.yul\":7058:7059   */\n      0x00\n        /* \"#utility.yul\":7051:7066   */\n      revert\n        /* \"#utility.yul\":7078:7398   */\n    tag_27:\n        /* \"#utility.yul\":7122:7128   */\n      0x00\n        /* \"#utility.yul\":7159:7160   */\n      0x02\n        /* \"#utility.yul\":7153:7157   */\n      dup3\n        /* \"#utility.yul\":7149:7161   */\n      div\n        /* \"#utility.yul\":7139:7161   */\n      swap1\n      pop\n        /* \"#utility.yul\":7206:7207   */\n      0x01\n        /* \"#utility.yul\":7200:7204   */\n      dup3\n        /* \"#utility.yul\":7196:7208   */\n      and\n        /* \"#utility.yul\":7227:7245   */\n      dup1\n        /* \"#utility.yul\":7217:7298   */\n      tag_161\n      jumpi\n        /* \"#utility.yul\":7283:7287   */\n      0x7f\n        /* \"#utility.yul\":7275:7281   */\n      dup3\n        /* \"#utility.yul\":7271:7288   */\n      and\n        /* \"#utility.yul\":7261:7288   */\n      swap2\n      pop\n        /* \"#utility.yul\":7217:7298   */\n    tag_161:\n        /* \"#utility.yul\":7345:7347   */\n      0x20\n        /* \"#utility.yul\":7337:7343   */\n      dup3\n        /* \"#utility.yul\":7334:7348   */\n      lt\n        /* \"#utility.yul\":7314:7332   */\n      dup2\n        /* \"#utility.yul\":7311:7349   */\n      sub\n        /* \"#utility.yul\":7308:7392   */\n      tag_162\n      jumpi\n        /* \"#utility.yul\":7364:7382   */\n      tag_163\n      tag_66\n      jump\t// in\n    tag_163:\n        /* \"#utility.yul\":7308:7392   */\n    tag_162:\n        /* \"#utility.yul\":7129:7398   */\n      pop\n        /* \"#utility.yul\":7078:7398   */\n      swap2\n      swap1\n      pop\n      jump\t// out\n        /* \"#utility.yul\":7404:7545   */\n    tag_67:\n        /* \"#utility.yul\":7453:7457   */\n      0x00\n        /* \"#utility.yul\":7476:7479   */\n      dup2\n        /* \"#utility.yul\":7468:7479   */\n      swap1\n      pop\n        /* \"#utility.yul\":7499:7502   */\n      dup2\n        /* \"#utility.yul\":7496:7497   */\n      0x00\n        /* \"#utility.yul\":7489:7503   */\n      mstore\n        /* \"#utility.yul\":7533:7537   */\n      0x20\n        /* \"#utility.yul\":7530:7531   */\n      0x00\n        /* \"#utility.yul\":7520:7538   */\n      keccak256\n        /* \"#utility.yul\":7512:7538   */\n      swap1\n      pop\n        /* \"#utility.yul\":7404:7545   */\n      swap2\n      swap1\n      pop\n      jump\t// out\n        /* \"#utility.yul\":7551:7644   */\n    tag_68:\n        /* \"#utility.yul\":7588:7594   */\n      0x00\n        /* \"#utility.yul\":7635:7637   */\n      0x20\n        /* \"#utility.yul\":7630:7632   */\n      0x1f\n        /* \"#utility.yul\":7623:7628   */\n      dup4\n        /* \"#utility.yul\":7619:7633   */\n      add\n        /* \"#utility.yul\":7615:7638   */\n      div\n        /* \"#utility.yul\":7605:7638   */\n      swap1\n      pop\n        /* \"#utility.yul\":7551:7644   */\n      swap2\n      swap1\n      pop\n      jump\t// out\n        /* \"#utility.yul\":7650:7757   */\n    tag_69:\n        /* \"#utility.yul\":7694:7702   */\n      0x00\n        /* \"#utility.yul\":7744:7749   */\n      dup3\n        /* \"#utility.yul\":7738:7742   */\n      dup3\n        /* \"#utility.yul\":7734:7750   */\n      shl\n        /* \"#utility.yul\":7713:7750   */\n      swap1\n      pop\n        /* \"#utility.yul\":7650:7757   */\n      swap3\n      swap2\n      pop\n      pop\n      jump\t// out\n        /* \"#utility.yul\":7763:8156   */\n    tag_70:\n        /* \"#utility.yul\":7832:7838   */\n      0x00\n        /* \"#utility.yul\":7882:7883   */\n      0x08\n        /* \"#utility.yul\":7870:7880   */\n      dup4\n        /* \"#utility.yul\":7866:7884   */\n      mul\n        /* \"#utility.yul\":7905:8002   */\n      tag_168\n        /* \"#utility.yul\":7935:8001   */\n      0xffffffffffffffffffffffffffffffffffffffffffffffffffffffffffffffff\n        /* \"#utility.yul\":7924:7933   */\n      dup3\n        /* \"#utility.yul\":7905:8002   */\n      tag_69\n      jump\t// in\n    tag_168:\n        /* \"#utility.yul\":8023:8062   */\n      tag_169\n        /* \"#utility.yul\":8053:8061   */\n      dup7\n        /* \"#utility.yul\":8042:8051   */\n      dup4\n        /* \"#utility.yul\":8023:8062   */\n      tag_69\n      jump\t// in\n    tag_169:\n        /* \"#utility.yul\":8011:8062   */\n      swap6\n      pop\n        /* \"#utility.yul\":8095:8099   */\n      dup1\n        /* \"#utility.yul\":8091:8100   */\n      not\n        /* \"#utility.yul\":8084:8089   */\n      dup5\n        /* \"#utility.yul\":8080:8101   */\n      and\n        /* \"#utility.yul\":8071:8101   */\n      swap4\n      pop\n        /* \"#utility.yul\":8144:8148   */\n      dup1\n        /* \"#utility.yul\":8134:8142   */\n      dup7\n        /* \"#utility.yul\":8130:8149   */\n      and\n        /* \"#utility.yul\":8123:8128   */\n      dup5\n        /* \"#utility.yul\":8120:8150   */\n      or\n        /* \"#utility.yul\":8110:8150   */\n      swap3\n      pop\n        /* \"#utility.yul\":7839:8156   */\n      pop\n      pop\n        /* \"#utility.yul\":7763:8156   */\n      swap4\n      swap3\n      pop\n      pop\n      pop\n      jump\t// out\n        /* \"#utility.yul\":8162:8222   */\n    tag_71:\n        /* \"#utility.yul\":8190:8193   */\n      0x00\n        /* \"#utility.yul\":8211:8216   */\n      dup2\n        /* \"#utility.yul\":8204:8216   */\n      swap1\n      pop\n        /* \"#utility.yul\":8162:8222   */\n      swap2\n      swap1\n      pop\n      jump\t// out\n        /* \"#utility.yul\":8228:8370   */\n    tag_72:\n        /* \"#utility.yul\":8278:8287   */\n      0x00\n        /* \"#utility.yul\":8311:8364   */\n      tag_172\n        /* \"#utility.yul\":8329:8363   */\n      tag_173\n        /* \"#utility.yul\":8338:8362   */\n      tag_174\n        /* \"#utility.yul\":8356:8361   */\n      dup5\n        /* \"#utility.yul\":8338:8362   */\n      tag_48\n      jump\t// in\n    tag_174:\n        /* \"#utility.yul\":8329:8363   */\n      tag_71\n      jump\t// in\n    tag_173:\n        /* \"#utility.yul\":8311:8364   */\n      tag_48\n      jump\t// in\n    tag_172:\n        /* \"#utility.yul\":8298:8364   */\n      swap1\n      pop\n        /* \"#utility.yul\":8228:8370   */\n      swap2\n      swap1\n      pop\n      jump\t// out\n        /* \"#utility.yul\":8376:8451   */\n    tag_73:\n        /* \"#utility.yul\":8419:8422   */\n      0x00\n        /* \"#utility.yul\":8440:8445   */\n      dup2\n        /* \"#utility.yul\":8433:8445   */\n      swap1\n      pop\n        /* \"#utility.yul\":8376:8451   */\n      swap2\n      swap1\n      pop\n      jump\t// out\n        /* \"#utility.yul\":8457:8726   */\n    tag_74:\n        /* \"#utility.yul\":8567:8606   */\n      tag_177\n        /* \"#utility.yul\":8598:8605   */\n      dup4\n        /* \"#utility.yul\":8567:8606   */\n      tag_72\n      jump\t// in\n    tag_177:\n        /* \"#utility.yul\":8628:8719   */\n      tag_178\n        /* \"#utility.yul\":8677:8718   */\n      tag_179\n        /* \"#utility.yul\":8701:8717   */\n      dup3\n        /* \"#utility.yul\":8677:8718   */\n      tag_73\n      jump\t// in\n    tag_179:\n        /* \"#utility.yul\":8669:8675   */\n      dup5\n        /* \"#utility.yul\":8662:8666   */\n      dup5\n        /* \"#utility.yul\":8656:8667   */\n      sload\n        /* \"#utility.yul\":8628:8719   */\n      tag_70\n      jump\t// in\n    tag_178:\n        /* \"#utility.yul\":8622:8626   */\n      dup3\n        /* \"#utility.yul\":8615:8720   */\n      sstore\n        /* \"#utility.yul\":8533:8726   */\n      pop\n        /* \"#utility.yul\":8457:8726   */\n      pop\n      pop\n      pop\n      jump\t// out\n        /* \"#utility.yul\":8732:8805   */\n    tag_75:\n        /* \"#utility.yul\":8777:8780   */\n      0x00\n        /* \"#utility.yul\":8732:8805   */\n      swap1\n      jump\t// out\n        /* \"#utility.yul\":8811:9000   */\n    tag_76:\n        /* \"#utility.yul\":8888:8920   */\n      tag_182\n      tag_75\n      jump\t// in\n    tag_182:\n        /* \"#utility.yul\":8929:8994   */\n      tag_183\n        /* \"#utility.yul\":8987:8993   */\n      dup2\n        /* \"#utility.yul\":8979:8985   */\n      dup5\n        /* \"#utility.yul\":8973:8977   */\n      dup5\n        /* \"#utility.yul\":8929:8994   */\n      tag_74\n      jump\t// in\n    tag_183:\n        /* \"#utility.yul\":8864:9000   */\n      pop\n        /* \"#utility.yul\":8811:9000   */\n      pop\n      pop\n      jump\t// out\n        /* \"#utility.yul\":9006:9192   */\n    tag_77:\n        /* \"#utility.yul\":9066:9186   */\n    tag_185:\n        /* \"#utility.yul\":9083:9086   */\n      dup2\n        /* \"#utility.yul\":9076:9081   */\n      dup2\n        /* \"#utility.yul\":9073:9087   */\n      lt\n        /* \"#utility.yul\":9066:9186   */\n      iszero\n      tag_187\n      jumpi\n        /* \"#utility.yul\":9137:9176   */\n      tag_188\n        /* \"#utility.yul\":9174:9175   */\n      0x00\n        /* \"#utility.yul\":9167:9172   */\n      dup3\n        /* \"#utility.yul\":9137:9176   */\n      tag_76\n      jump\t// in\n    tag_188:\n        /* \"#utility.yul\":9110:9111   */\n      0x01\n        /* \"#utility.yul\":9103:9108   */\n      dup2\n        /* \"#utility.yul\":9099:9112   */\n      add\n        /* \"#utility.yul\":9090:9112   */\n      swap1\n      pop\n        /* \"#utility.yul\":9066:9186   */\n      jump(tag_185)\n    tag_187:\n        /* \"#utility.yul\":9006:9192   */\n      pop\n      pop\n      jump\t// out\n        /* \"#utility.yul\":9198:9741   */\n    tag_78:\n        /* \"#utility.yul\":9299:9301   */\n      0x1f\n        /* \"#utility.yul\":9294:9297   */\n      dup3\n        /* \"#utility.yul\":9291:9302   */\n      gt\n        /* \"#utility.yul\":9288:9734   */\n      iszero\n      tag_190\n      jumpi\n        /* \"#utility.yul\":9333:9371   */\n      tag_191\n        /* \"#utility.yul\":9365:9370   */\n      dup2\n        /* \"#utility.yul\":9333:9371   */\n      tag_67\n      jump\t// in\n    tag_191:\n        /* \"#utility.yul\":9417:9446   */\n      tag_192\n        /* \"#utility.yul\":9435:9445   */\n      dup5\n        /* \"#utility.yul\":9417:9446   */\n      tag_68\n      jump\t// in\n    tag_192:\n        /* \"#utility.yul\":9407:9415   */\n      dup2\n        /* \"#utility.yul\":9403:9447   */\n      add\n        /* \"#utility.yul\":9600:9602   */\n      0x20\n        /* \"#utility.yul\":9588:9598   */\n      dup6\n        /* \"#utility.yul\":9585:9603   */\n      lt\n        /* \"#utility.yul\":9582:9631   */\n      iszero\n      tag_193\n      jumpi\n        /* \"#utility.yul\":9621:9629   */\n      dup2\n        /* \"#utility.yul\":9606:9629   */\n      swap1\n      pop\n        /* \"#utility.yul\":9582:9631   */\n    tag_193:\n        /* \"#utility.yul\":9644:9724   */\n      tag_194\n        /* \"#utility.yul\":9700:9722   */\n      tag_195\n        /* \"#utility.yul\":9718:9721   */\n      dup6\n        /* \"#utility.yul\":9700:9722   */\n      tag_68\n      jump\t// in\n    tag_195:\n        /* \"#utility.yul\":9690:9698   */\n      dup4\n        /* \"#utility.yul\":9686:9723   */\n      add\n        /* \"#utility.yul\":9673:9684   */\n      dup3\n        /* \"#utility.yul\":9644:9724   */\n      tag_77\n      jump\t// in\n    tag_194:\n        /* \"#utility.yul\":9303:9734   */\n      pop\n      pop\n        /* \"#utility.yul\":9288:9734   */\n    tag_190:\n        /* \"#utility.yul\":9198:9741   */\n      pop\n      pop\n      pop\n      jump\t// out\n        /* \"#utility.yul\":9747:9864   */\n    tag_79:\n        /* \"#utility.yul\":9801:9809   */\n      0x00\n        /* \"#utility.yul\":9851:9856   */\n      dup3\n        /* \"#utility.yul\":9845:9849   */\n      dup3\n        /* \"#utility.yul\":9841:9857   */\n      shr\n        /* \"#utility.yul\":9820:9857   */\n      swap1\n      pop\n        /* \"#utility.yul\":9747:9864   */\n      swap3\n      swap2\n      pop\n      pop\n      jump\t// out\n        /* \"#utility.yul\":9870:10039   */\n    tag_80:\n        /* \"#utility.yul\":9914:9920   */\n      0x00\n        /* \"#utility.yul\":9947:9998   */\n      tag_198\n        /* \"#utility.yul\":9995:9996   */\n      0x00\n        /* \"#utility.yul\":9991:9997   */\n      not\n        /* \"#utility.yul\":9983:9988   */\n      dup5\n        /* \"#utility.yul\":9980:9981   */\n      0x08\n        /* \"#utility.yul\":9976:9989   */\n      mul\n        /* \"#utility.yul\":9947:9998   */\n      tag_79\n      jump\t// in\n    tag_198:\n        /* \"#utility.yul\":9943:9999   */\n      not\n        /* \"#utility.yul\":10028:10032   */\n      dup1\n        /* \"#utility.yul\":10022:10026   */\n      dup4\n        /* \"#utility.yul\":10018:10033   */\n      and\n        /* \"#utility.yul\":10008:10033   */\n      swap2\n      pop\n        /* \"#utility.yul\":9921:10039   */\n      pop\n        /* \"#utility.yul\":9870:10039   */\n      swap3\n      swap2\n      pop\n      pop\n      jump\t// out\n        /* \"#utility.yul\":10044:10339   */\n    tag_81:\n        /* \"#utility.yul\":10120:10124   */\n      0x00\n        /* \"#utility.yul\":10266:10295   */\n      tag_200\n        /* \"#utility.yul\":10291:10294   */\n      dup4\n        /* \"#utility.yul\":10285:10289   */\n      dup4\n        /* \"#utility.yul\":10266:10295   */\n      tag_80\n      jump\t// in\n    tag_200:\n        /* \"#utility.yul\":10258:10295   */\n      swap2\n      pop\n        /* \"#utility.yul\":10328:10331   */\n      dup3\n        /* \"#utility.yul\":10325:10326   */\n      0x02\n        /* \"#utility.yul\":10321:10332   */\n      mul\n        /* \"#utility.yul\":10315:10319   */\n      dup3\n        /* \"#utility.yul\":10312:10333   */\n      or\n        /* \"#utility.yul\":10304:10333   */\n      swap1\n      pop\n        /* \"#utility.yul\":10044:10339   */\n      swap3\n      swap2\n      pop\n      pop\n      jump\t// out\n        /* \"#utility.yul\":10344:11739   */\n    tag_41:\n        /* \"#utility.yul\":10461:10498   */\n      tag_202\n        /* \"#utility.yul\":10494:10497   */\n      dup3\n        /* \"#utility.yul\":10461:10498   */\n      tag_51\n      jump\t// in\n    tag_202:\n        /* \"#utility.yul\":10563:10581   */\n      0xffffffffffffffff\n        /* \"#utility.yul\":10555:10561   */\n      dup2\n        /* \"#utility.yul\":10552:10582   */\n      gt\n        /* \"#utility.yul\":10549:10605   */\n      iszero\n      tag_203\n      jumpi\n        /* \"#utility.yul\":10585:10603   */\n      tag_204\n      tag_59\n      jump\t// in\n    tag_204:\n        /* \"#utility.yul\":10549:10605   */\n    tag_203:\n        /* \"#utility.yul\":10629:10667   */\n      tag_205\n        /* \"#utility.yul\":10661:10665   */\n      dup3\n        /* \"#utility.yul\":10655:10666   */\n      sload\n        /* \"#utility.yul\":10629:10667   */\n      tag_27\n      jump\t// in\n    tag_205:\n        /* \"#utility.yul\":10714:10781   */\n      tag_206\n        /* \"#utility.yul\":10774:10780   */\n      dup3\n        /* \"#utility.yul\":10766:10772   */\n      dup3\n        /* \"#utility.yul\":10760:10764   */\n      dup6\n        /* \"#utility.yul\":10714:10781   */\n      tag_78\n      jump\t// in\n    tag_206:\n        /* \"#utility.yul\":10808:10809   */\n      0x00\n        /* \"#utility.yul\":10832:10836   */\n      0x20\n        /* \"#utility.yul\":10819:10836   */\n      swap1\n      pop\n        /* \"#utility.yul\":10864:10866   */\n      0x1f\n        /* \"#utility.yul\":10856:10862   */\n      dup4\n        /* \"#utility.yul\":10853:10867   */\n      gt\n        /* \"#utility.yul\":10881:10882   */\n      0x01\n        /* \"#utility.yul\":10876:11494   */\n      dup2\n      eq\n      tag_208\n      jumpi\n        /* \"#utility.yul\":11538:11539   */\n      0x00\n        /* \"#utility.yul\":11555:11561   */\n      dup5\n        /* \"#utility.yul\":11552:11629   */\n      iszero\n      tag_209\n      jumpi\n        /* \"#utility.yul\":11604:11613   */\n      dup3\n        /* \"#utility.yul\":11599:11602   */\n      dup8\n        /* \"#utility.yul\":11595:11614   */\n      add\n        /* \"#utility.yul\":11589:11615   */\n      mload\n        /* \"#utility.yul\":11580:11615   */\n      swap1\n      pop\n        /* \"#utility.yul\":11552:11629   */\n    tag_209:\n        /* \"#utility.yul\":11655:11722   */\n      tag_210\n        /* \"#utility.yul\":11715:11721   */\n      dup6\n        /* \"#utility.yul\":11708:11713   */\n      dup3\n        /* \"#utility.yul\":11655:11722   */\n      tag_81\n      jump\t// in\n    tag_210:\n        /* \"#utility.yul\":11649:11653   */\n      dup7\n        /* \"#utility.yul\":11642:11723   */\n      sstore\n        /* \"#utility.yul\":11511:11733   */\n      pop\n        /* \"#utility.yul\":10846:11733   */\n      jump(tag_207)\n        /* \"#utility.yul\":10876:11494   */\n    tag_208:\n        /* \"#utility.yul\":10928:10932   */\n      0x1f\n        /* \"#utility.yul\":10924:10933   */\n      not\n        /* \"#utility.yul\":10916:10922   */\n      dup5\n        /* \"#utility.yul\":10912:10934   */\n      and\n        /* \"#utility.yul\":10962:10999   */\n      tag_211\n        /* \"#utility.yul\":10994:10998   */\n      dup7\n        /* \"#utility.yul\":10962:10999   */\n      tag_67\n      jump\t// in\n    tag_211:\n        /* \"#utility.yul\":11021:11022   */\n      0x00\n        /* \"#utility.yul\":11035:11243   */\n    tag_212:\n        /* \"#utility.yul\":11049:11056   */\n      dup3\n        /* \"#utility.yul\":11046:11047   */\n      dup2\n        /* \"#utility.yul\":11043:11057   */\n      lt\n        /* \"#utility.yul\":11035:11243   */\n      iszero\n      tag_214\n      jumpi\n        /* \"#utility.yul\":11128:11137   */\n      dup5\n        /* \"#utility.yul\":11123:11126   */\n      dup10\n        /* \"#utility.yul\":11119:11138   */\n      add\n        /* \"#utility.yul\":11113:11139   */\n      mload\n        /* \"#utility.yul\":11105:11111   */\n      dup3\n        /* \"#utility.yul\":11098:11140   */\n      sstore\n        /* \"#utility.yul\":11179:11180   */\n      0x01\n        /* \"#utility.yul\":11171:11177   */\n      dup3\n        /* \"#utility.yul\":11167:11181   */\n      add\n        /* \"#utility.yul\":11157:11181   */\n      swap2\n      pop\n        /* \"#utility.yul\":11226:11228   */\n      0x20\n        /* \"#utility.yul\":11215:11224   */\n      dup6\n        /* \"#utility.yul\":11211:11229   */\n      add\n        /* \"#utility.yul\":11198:11229   */\n      swap5\n      pop\n        /* \"#utility.yul\":11072:11076   */\n      0x20\n        /* \"#utility.yul\":11069:11070   */\n      dup2\n        /* \"#utility.yul\":11065:11077   */\n      add\n        /* \"#utility.yul\":11060:11077   */\n      swap1\n      pop\n        /* \"#utility.yul\":11035:11243   */\n      jump(tag_212)\n    tag_214:\n        /* \"#utility.yul\":11271:11277   */\n      dup7\n        /* \"#utility.yul\":11262:11269   */\n      dup4\n        /* \"#utility.yul\":11259:11278   */\n      lt\n        /* \"#utility.yul\":11256:11435   */\n      iszero\n      tag_215\n      jumpi\n        /* \"#utility.yul\":11329:11338   */\n      dup5\n        /* \"#utility.yul\":11324:11327   */\n      dup10\n        /* \"#utility.yul\":11320:11339   */\n      add\n        /* \"#utility.yul\":11314:11340   */\n      mload\n        /* \"#utility.yul\":11372:11420   */\n      tag_216\n        /* \"#utility.yul\":11414:11418   */\n      0x1f\n        /* \"#utility.yul\":11406:11412   */\n      dup10\n        /* \"#utility.yul\":11402:11419   */\n      and\n        /* \"#utility.yul\":11391:11400   */\n      dup3\n        /* \"#utility.yul\":11372:11420   */\n      tag_80\n      jump\t// in\n    tag_216:\n        /* \"#utility.yul\":11364:11370   */\n      dup4\n        /* \"#utility.yul\":11357:11421   */\n      sstore\n        /* \"#utility.yul\":11279:11435   */\n      pop\n        /* \"#utility.yul\":11256:11435   */\n    tag_215:\n        /* \"#utility.yul\":11481:11482   */\n      0x01\n        /* \"#utility.yul\":11477:11478   */\n      0x02\n        /* \"#utility.yul\":11469:11475   */\n      dup9\n        /* \"#utility.yul\":11465:11479   */\n      mul\n        /* \"#utility.yul\":11461:11483   */\n      add\n        /* \"#utility.yul\":11455:11459   */\n      dup9\n        /* \"#utility.yul\":11448:11484   */\n      sstore\n        /* \"#utility.yul\":10883:11494   */\n      pop\n      pop\n      pop\n        /* \"#utility.yul\":10846:11733   */\n    tag_207:\n      pop\n        /* \"#utility.yul\":10436:11739   */\n      pop\n      pop\n      pop\n        /* \"#utility.yul\":10344:11739   */\n      pop\n      pop\n      jump\t// out\n        /* \"#utility.yul\":11745:11925   */\n    tag_82:\n        /* \"#utility.yul\":11793:11870   */\n      0x4e487b7100000000000000000000000000000000000000000000000000000000\n        /* \"#utility.yul\":11790:11791   */\n      0x00\n        /* \"#utility.yul\":11783:11871   */\n      mstore\n        /* \"#utility.yul\":11890:11894   */\n      0x11\n        /* \"#utility.yul\":11887:11888   */\n      0x04\n        /* \"#utility.yul\":11880:11895   */\n      mstore\n        /* \"#utility.yul\":11914:11918   */\n      0x24\n        /* \"#utility.yul\":11911:11912   */\n      0x00\n        /* \"#utility.yul\":11904:11919   */\n      revert\n        /* \"#utility.yul\":11931:12122   */\n    tag_44:\n        /* \"#utility.yul\":11971:11974   */\n      0x00\n        /* \"#utility.yul\":11990:12010   */\n      tag_219\n        /* \"#utility.yul\":12008:12009   */\n      dup3\n        /* \"#utility.yul\":11990:12010   */\n      tag_48\n      jump\t// in\n    tag_219:\n        /* \"#utility.yul\":11985:12010   */\n      swap2\n      pop\n        /* \"#utility.yul\":12024:12044   */\n      tag_220\n        /* \"#utility.yul\":12042:12043   */\n      dup4\n        /* \"#utility.yul\":12024:12044   */\n      tag_48\n      jump\t// in\n    tag_220:\n        /* \"#utility.yul\":12019:12044   */\n      swap3\n      pop\n        /* \"#utility.yul\":12067:12068   */\n      dup3\n        /* \"#utility.yul\":12064:12065   */\n      dup3\n        /* \"#utility.yul\":12060:12069   */\n      add\n        /* \"#utility.yul\":12053:12069   */\n      swap1\n      pop\n        /* \"#utility.yul\":12088:12091   */\n      dup1\n        /* \"#utility.yul\":12085:12086   */\n      dup3\n        /* \"#utility.yul\":12082:12092   */\n      gt\n        /* \"#utility.yul\":12079:12115   */\n      iszero\n      tag_221\n      jumpi\n        /* \"#utility.yul\":12095:12113   */\n      tag_222\n      tag_82\n      jump\t// in\n    tag_222:\n        /* \"#utility.yul\":12079:12115   */\n    tag_221:\n        /* \"#utility.yul\":11931:12122   */\n      swap3\n      swap2\n      pop\n      pop\n      jump\t// out\n\n    auxdata: 0xa2646970667358221220ac5ecbc78bcc468b9305b569fb4a98f91336c4983ec21d9f419fad31c0d65ccc64736f6c63430008120033\n}\n",
				"bytecode": {
					"linkReferences": {},
					"object": "608060405234801561001057600080fd5b50610a01806100206000396000f3fe60806040526004361061003f5760003560e01c806333b8c62a14610044578063c1cbbca714610085578063d615bfa4146100a1578063ec939ae4146100ca575b600080fd5b34801561005057600080fd5b5061006b60048036038101906100669190610335565b6100f3565b60405161007c959493929190610401565b60405180910390f35b61009f600480360381019061009a9190610335565b610239565b005b3480156100ad57600080fd5b506100c860048036038101906100c39190610462565b610257565b005b3480156100d657600080fd5b506100f160048036038101906100ec91906105d7565b61025b565b005b6002602052806000526040600020600091509050806000018054610116906106b9565b80601f0160208091040260200160405190810160405280929190818152602001828054610142906106b9565b801561018f5780601f106101645761010080835404028352916020019161018f565b820191906000526020600020905b81548152906001019060200180831161017257829003601f168201915b5050505050908060010180546101a4906106b9565b80601f01602080910402602001604051908101604052809291908181526020018280546101d0906106b9565b801561021d5780601f106101f25761010080835404028352916020019161021d565b820191906000526020600020905b81548152906001019060200180831161020057829003601f168201915b5050505050908060020154908060030154908060040154905085565b34600260008381526020019081526020016000206004018190555050565b5050565b8360026000878152602001908152602001600020600001908161027e9190610896565b50826002600087815260200190815260200160002060010190816102a29190610896565b5081600260008781526020019081526020016000206002018190555080426102ca9190610997565b60026000878152602001908152602001600020600301819055505050505050565b6000604051905090565b600080fd5b600080fd5b6000819050919050565b610312816102ff565b811461031d57600080fd5b50565b60008135905061032f81610309565b92915050565b60006020828403121561034b5761034a6102f5565b5b600061035984828501610320565b91505092915050565b600081519050919050565b600082825260208201905092915050565b60005b8381101561039c578082015181840152602081019050610381565b60008484015250505050565b6000601f19601f8301169050919050565b60006103c482610362565b6103ce818561036d565b93506103de81856020860161037e565b6103e7816103a8565b840191505092915050565b6103fb816102ff565b82525050565b600060a082019050818103600083015261041b81886103b9565b9050818103602083015261042f81876103b9565b905061043e60408301866103f2565b61044b60608301856103f2565b61045860808301846103f2565b9695505050505050565b60008060408385031215610479576104786102f5565b5b600061048785828601610320565b925050602061049885828601610320565b9150509250929050565b600080fd5b600080fd5b7f4e487b7100000000000000000000000000000000000000000000000000000000600052604160045260246000fd5b6104e4826103a8565b810181811067ffffffffffffffff82111715610503576105026104ac565b5b80604052505050565b60006105166102eb565b905061052282826104db565b919050565b600067ffffffffffffffff821115610542576105416104ac565b5b61054b826103a8565b9050602081019050919050565b82818337600083830152505050565b600061057a61057584610527565b61050c565b905082815260208101848484011115610596576105956104a7565b5b6105a1848285610558565b509392505050565b600082601f8301126105be576105bd6104a2565b5b81356105ce848260208601610567565b91505092915050565b600080600080600060a086880312156105f3576105f26102f5565b5b600061060188828901610320565b955050602086013567ffffffffffffffff811115610622576106216102fa565b5b61062e888289016105a9565b945050604086013567ffffffffffffffff81111561064f5761064e6102fa565b5b61065b888289016105a9565b935050606061066c88828901610320565b925050608061067d88828901610320565b9150509295509295909350565b7f4e487b7100000000000000000000000000000000000000000000000000000000600052602260045260246000fd5b600060028204905060018216806106d157607f821691505b6020821081036106e4576106e361068a565b5b50919050565b60008190508160005260206000209050919050565b60006020601f8301049050919050565b600082821b905092915050565b60006008830261074c7fffffffffffffffffffffffffffffffffffffffffffffffffffffffffffffffff8261070f565b610756868361070f565b95508019841693508086168417925050509392505050565b6000819050919050565b600061079361078e610789846102ff565b61076e565b6102ff565b9050919050565b6000819050919050565b6107ad83610778565b6107c16107b98261079a565b84845461071c565b825550505050565b600090565b6107d66107c9565b6107e18184846107a4565b505050565b5b81811015610805576107fa6000826107ce565b6001810190506107e7565b5050565b601f82111561084a5761081b816106ea565b610824846106ff565b81016020851015610833578190505b61084761083f856106ff565b8301826107e6565b50505b505050565b600082821c905092915050565b600061086d6000198460080261084f565b1980831691505092915050565b6000610886838361085c565b9150826002028217905092915050565b61089f82610362565b67ffffffffffffffff8111156108b8576108b76104ac565b5b6108c282546106b9565b6108cd828285610809565b600060209050601f83116001811461090057600084156108ee578287015190505b6108f8858261087a565b865550610960565b601f19841661090e866106ea565b60005b8281101561093657848901518255600182019150602085019450602081019050610911565b86831015610953578489015161094f601f89168261085c565b8355505b6001600288020188555050505b505050505050565b7f4e487b7100000000000000000000000000000000000000000000000000000000600052601160045260246000fd5b60006109a2826102ff565b91506109ad836102ff565b92508282019050808211156109c5576109c4610968565b5b9291505056fea2646970667358221220ac5ecbc78bcc468b9305b569fb4a98f91336c4983ec21d9f419fad31c0d65ccc64736f6c63430008120033",
					"opcodes": "PUSH1 0x80 PUSH1 0x40 MSTORE CALLVALUE DUP1 ISZERO PUSH2 0x10 JUMPI PUSH1 0x0 DUP1 REVERT JUMPDEST POP PUSH2 0xA01 DUP1 PUSH2 0x20 PUSH1 0x0 CODECOPY PUSH1 0x0 RETURN INVALID PUSH1 0x80 PUSH1 0x40 MSTORE PUSH1 0x4 CALLDATASIZE LT PUSH2 0x3F JUMPI PUSH1 0x0 CALLDATALOAD PUSH1 0xE0 SHR DUP1 PUSH4 0x33B8C62A EQ PUSH2 0x44 JUMPI DUP1 PUSH4 0xC1CBBCA7 EQ PUSH2 0x85 JUMPI DUP1 PUSH4 0xD615BFA4 EQ PUSH2 0xA1 JUMPI DUP1 PUSH4 0xEC939AE4 EQ PUSH2 0xCA JUMPI JUMPDEST PUSH1 0x0 DUP1 REVERT JUMPDEST CALLVALUE DUP1 ISZERO PUSH2 0x50 JUMPI PUSH1 0x0 DUP1 REVERT JUMPDEST POP PUSH2 0x6B PUSH1 0x4 DUP1 CALLDATASIZE SUB DUP2 ADD SWAP1 PUSH2 0x66 SWAP2 SWAP1 PUSH2 0x335 JUMP JUMPDEST PUSH2 0xF3 JUMP JUMPDEST PUSH1 0x40 MLOAD PUSH2 0x7C SWAP6 SWAP5 SWAP4 SWAP3 SWAP2 SWAP1 PUSH2 0x401 JUMP JUMPDEST PUSH1 0x40 MLOAD DUP1 SWAP2 SUB SWAP1 RETURN JUMPDEST PUSH2 0x9F PUSH1 0x4 DUP1 CALLDATASIZE SUB DUP2 ADD SWAP1 PUSH2 0x9A SWAP2 SWAP1 PUSH2 0x335 JUMP JUMPDEST PUSH2 0x239 JUMP JUMPDEST STOP JUMPDEST CALLVALUE DUP1 ISZERO PUSH2 0xAD JUMPI PUSH1 0x0 DUP1 REVERT JUMPDEST POP PUSH2 0xC8 PUSH1 0x4 DUP1 CALLDATASIZE SUB DUP2 ADD SWAP1 PUSH2 0xC3 SWAP2 SWAP1 PUSH2 0x462 JUMP JUMPDEST PUSH2 0x257 JUMP JUMPDEST STOP JUMPDEST CALLVALUE DUP1 ISZERO PUSH2 0xD6 JUMPI PUSH1 0x0 DUP1 REVERT JUMPDEST POP PUSH2 0xF1 PUSH1 0x4 DUP1 CALLDATASIZE SUB DUP2 ADD SWAP1 PUSH2 0xEC SWAP2 SWAP1 PUSH2 0x5D7 JUMP JUMPDEST PUSH2 0x25B JUMP JUMPDEST STOP JUMPDEST PUSH1 0x2 PUSH1 0x20 MSTORE DUP1 PUSH1 0x0 MSTORE PUSH1 0x40 PUSH1 0x0 KECCAK256 PUSH1 0x0 SWAP2 POP SWAP1 POP DUP1 PUSH1 0x0 ADD DUP1 SLOAD PUSH2 0x116 SWAP1 PUSH2 0x6B9 JUMP JUMPDEST DUP1 PUSH1 0x1F ADD PUSH1 0x20 DUP1 SWAP2 DIV MUL PUSH1 0x20 ADD PUSH1 0x40 MLOAD SWAP1 DUP2 ADD PUSH1 0x40 MSTORE DUP1 SWAP3 SWAP2 SWAP1 DUP2 DUP2 MSTORE PUSH1 0x20 ADD DUP3 DUP1 SLOAD PUSH2 0x142 SWAP1 PUSH2 0x6B9 JUMP JUMPDEST DUP1 ISZERO PUSH2 0x18F JUMPI DUP1 PUSH1 0x1F LT PUSH2 0x164 JUMPI PUSH2 0x100 DUP1 DUP4 SLOAD DIV MUL DUP4 MSTORE SWAP2 PUSH1 0x20 ADD SWAP2 PUSH2 0x18F JUMP JUMPDEST DUP3 ADD SWAP2 SWAP1 PUSH1 0x0 MSTORE PUSH1 0x20 PUSH1 0x0 KECCAK256 SWAP1 JUMPDEST DUP2 SLOAD DUP2 MSTORE SWAP1 PUSH1 0x1 ADD SWAP1 PUSH1 0x20 ADD DUP1 DUP4 GT PUSH2 0x172 JUMPI DUP3 SWAP1 SUB PUSH1 0x1F AND DUP3 ADD SWAP2 JUMPDEST POP POP POP POP POP SWAP1 DUP1 PUSH1 0x1 ADD DUP1 SLOAD PUSH2 0x1A4 SWAP1 PUSH2 0x6B9 JUMP JUMPDEST DUP1 PUSH1 0x1F ADD PUSH1 0x20 DUP1 SWAP2 DIV MUL PUSH1 0x20 ADD PUSH1 0x40 MLOAD SWAP1 DUP2 ADD PUSH1 0x40 MSTORE DUP1 SWAP3 SWAP2 SWAP1 DUP2 DUP2 MSTORE PUSH1 0x20 ADD DUP3 DUP1 SLOAD PUSH2 0x1D0 SWAP1 PUSH2 0x6B9 JUMP JUMPDEST DUP1 ISZERO PUSH2 0x21D JUMPI DUP1 PUSH1 0x1F LT PUSH2 0x1F2 JUMPI PUSH2 0x100 DUP1 DUP4 SLOAD DIV MUL DUP4 MSTORE SWAP2 PUSH1 0x20 ADD SWAP2 PUSH2 0x21D JUMP JUMPDEST DUP3 ADD SWAP2 SWAP1 PUSH1 0x0 MSTORE PUSH1 0x20 PUSH1 0x0 KECCAK256 SWAP1 JUMPDEST DUP2 SLOAD DUP2 MSTORE SWAP1 PUSH1 0x1 ADD SWAP1 PUSH1 0x20 ADD DUP1 DUP4 GT PUSH2 0x200 JUMPI DUP3 SWAP1 SUB PUSH1 0x1F AND DUP3 ADD SWAP2 JUMPDEST POP POP POP POP POP SWAP1 DUP1 PUSH1 0x2 ADD SLOAD SWAP1 DUP1 PUSH1 0x3 ADD SLOAD SWAP1 DUP1 PUSH1 0x4 ADD SLOAD SWAP1 POP DUP6 JUMP JUMPDEST CALLVALUE PUSH1 0x2 PUSH1 0x0 DUP4 DUP2 MSTORE PUSH1 0x20 ADD SWAP1 DUP2 MSTORE PUSH1 0x20 ADD PUSH1 0x0 KECCAK256 PUSH1 0x4 ADD DUP2 SWAP1 SSTORE POP POP JUMP JUMPDEST POP POP JUMP JUMPDEST DUP4 PUSH1 0x2 PUSH1 0x0 DUP8 DUP2 MSTORE PUSH1 0x20 ADD SWAP1 DUP2 MSTORE PUSH1 0x20 ADD PUSH1 0x0 KECCAK256 PUSH1 0x0 ADD SWAP1 DUP2 PUSH2 0x27E SWAP2 SWAP1 PUSH2 0x896 JUMP JUMPDEST POP DUP3 PUSH1 0x2 PUSH1 0x0 DUP8 DUP2 MSTORE PUSH1 0x20 ADD SWAP1 DUP2 MSTORE PUSH1 0x20 ADD PUSH1 0x0 KECCAK256 PUSH1 0x1 ADD SWAP1 DUP2 PUSH2 0x2A2 SWAP2 SWAP1 PUSH2 0x896 JUMP JUMPDEST POP DUP2 PUSH1 0x2 PUSH1 0x0 DUP8 DUP2 MSTORE PUSH1 0x20 ADD SWAP1 DUP2 MSTORE PUSH1 0x20 ADD PUSH1 0x0 KECCAK256 PUSH1 0x2 ADD DUP2 SWAP1 SSTORE POP DUP1 TIMESTAMP PUSH2 0x2CA SWAP2 SWAP1 PUSH2 0x997 JUMP JUMPDEST PUSH1 0x2 PUSH1 0x0 DUP8 DUP2 MSTORE PUSH1 0x20 ADD SWAP1 DUP2 MSTORE PUSH1 0x20 ADD PUSH1 0x0 KECCAK256 PUSH1 0x3 ADD DUP2 SWAP1 SSTORE POP POP POP POP POP POP JUMP JUMPDEST PUSH1 0x0 PUSH1 0x40 MLOAD SWAP1 POP SWAP1 JUMP JUMPDEST PUSH1 0x0 DUP1 REVERT JUMPDEST PUSH1 0x0 DUP1 REVERT JUMPDEST PUSH1 0x0 DUP2 SWAP1 POP SWAP2 SWAP1 POP JUMP JUMPDEST PUSH2 0x312 DUP2 PUSH2 0x2FF JUMP JUMPDEST DUP2 EQ PUSH2 0x31D JUMPI PUSH1 0x0 DUP1 REVERT JUMPDEST POP JUMP JUMPDEST PUSH1 0x0 DUP2 CALLDATALOAD SWAP1 POP PUSH2 0x32F DUP2 PUSH2 0x309 JUMP JUMPDEST SWAP3 SWAP2 POP POP JUMP JUMPDEST PUSH1 0x0 PUSH1 0x20 DUP3 DUP5 SUB SLT ISZERO PUSH2 0x34B JUMPI PUSH2 0x34A PUSH2 0x2F5 JUMP JUMPDEST JUMPDEST PUSH1 0x0 PUSH2 0x359 DUP5 DUP3 DUP6 ADD PUSH2 0x320 JUMP JUMPDEST SWAP2 POP POP SWAP3 SWAP2 POP POP JUMP JUMPDEST PUSH1 0x0 DUP2 MLOAD SWAP1 POP SWAP2 SWAP1 POP JUMP JUMPDEST PUSH1 0x0 DUP3 DUP3 MSTORE PUSH1 0x20 DUP3 ADD SWAP1 POP SWAP3 SWAP2 POP POP JUMP JUMPDEST PUSH1 0x0 JUMPDEST DUP4 DUP2 LT ISZERO PUSH2 0x39C JUMPI DUP1 DUP3 ADD MLOAD DUP2 DUP5 ADD MSTORE PUSH1 0x20 DUP2 ADD SWAP1 POP PUSH2 0x381 JUMP JUMPDEST PUSH1 0x0 DUP5 DUP5 ADD MSTORE POP POP POP POP JUMP JUMPDEST PUSH1 0x0 PUSH1 0x1F NOT PUSH1 0x1F DUP4 ADD AND SWAP1 POP SWAP2 SWAP1 POP JUMP JUMPDEST PUSH1 0x0 PUSH2 0x3C4 DUP3 PUSH2 0x362 JUMP JUMPDEST PUSH2 0x3CE DUP2 DUP6 PUSH2 0x36D JUMP JUMPDEST SWAP4 POP PUSH2 0x3DE DUP2 DUP6 PUSH1 0x20 DUP7 ADD PUSH2 0x37E JUMP JUMPDEST PUSH2 0x3E7 DUP2 PUSH2 0x3A8 JUMP JUMPDEST DUP5 ADD SWAP2 POP POP SWAP3 SWAP2 POP POP JUMP JUMPDEST PUSH2 0x3FB DUP2 PUSH2 0x2FF JUMP JUMPDEST DUP3 MSTORE POP POP JUMP JUMPDEST PUSH1 0x0 PUSH1 0xA0 DUP3 ADD SWAP1 POP DUP2 DUP2 SUB PUSH1 0x0 DUP4 ADD MSTORE PUSH2 0x41B DUP2 DUP9 PUSH2 0x3B9 JUMP JUMPDEST SWAP1 POP DUP2 DUP2 SUB PUSH1 0x20 DUP4 ADD MSTORE PUSH2 0x42F DUP2 DUP8 PUSH2 0x3B9 JUMP JUMPDEST SWAP1 POP PUSH2 0x43E PUSH1 0x40 DUP4 ADD DUP7 PUSH2 0x3F2 JUMP JUMPDEST PUSH2 0x44B PUSH1 0x60 DUP4 ADD DUP6 PUSH2 0x3F2 JUMP JUMPDEST PUSH2 0x458 PUSH1 0x80 DUP4 ADD DUP5 PUSH2 0x3F2 JUMP JUMPDEST SWAP7 SWAP6 POP POP POP POP POP POP JUMP JUMPDEST PUSH1 0x0 DUP1 PUSH1 0x40 DUP4 DUP6 SUB SLT ISZERO PUSH2 0x479 JUMPI PUSH2 0x478 PUSH2 0x2F5 JUMP JUMPDEST JUMPDEST PUSH1 0x0 PUSH2 0x487 DUP6 DUP3 DUP7 ADD PUSH2 0x320 JUMP JUMPDEST SWAP3 POP POP PUSH1 0x20 PUSH2 0x498 DUP6 DUP3 DUP7 ADD PUSH2 0x320 JUMP JUMPDEST SWAP2 POP POP SWAP3 POP SWAP3 SWAP1 POP JUMP JUMPDEST PUSH1 0x0 DUP1 REVERT JUMPDEST PUSH1 0x0 DUP1 REVERT JUMPDEST PUSH32 0x4E487B7100000000000000000000000000000000000000000000000000000000 PUSH1 0x0 MSTORE PUSH1 0x41 PUSH1 0x4 MSTORE PUSH1 0x24 PUSH1 0x0 REVERT JUMPDEST PUSH2 0x4E4 DUP3 PUSH2 0x3A8 JUMP JUMPDEST DUP2 ADD DUP2 DUP2 LT PUSH8 0xFFFFFFFFFFFFFFFF DUP3 GT OR ISZERO PUSH2 0x503 JUMPI PUSH2 0x502 PUSH2 0x4AC JUMP JUMPDEST JUMPDEST DUP1 PUSH1 0x40 MSTORE POP POP POP JUMP JUMPDEST PUSH1 0x0 PUSH2 0x516 PUSH2 0x2EB JUMP JUMPDEST SWAP1 POP PUSH2 0x522 DUP3 DUP3 PUSH2 0x4DB JUMP JUMPDEST SWAP2 SWAP1 POP JUMP JUMPDEST PUSH1 0x0 PUSH8 0xFFFFFFFFFFFFFFFF DUP3 GT ISZERO PUSH2 0x542 JUMPI PUSH2 0x541 PUSH2 0x4AC JUMP JUMPDEST JUMPDEST PUSH2 0x54B DUP3 PUSH2 0x3A8 JUMP JUMPDEST SWAP1 POP PUSH1 0x20 DUP2 ADD SWAP1 POP SWAP2 SWAP1 POP JUMP JUMPDEST DUP3 DUP2 DUP4 CALLDATACOPY PUSH1 0x0 DUP4 DUP4 ADD MSTORE POP POP POP JUMP JUMPDEST PUSH1 0x0 PUSH2 0x57A PUSH2 0x575 DUP5 PUSH2 0x527 JUMP JUMPDEST PUSH2 0x50C JUMP JUMPDEST SWAP1 POP DUP3 DUP2 MSTORE PUSH1 0x20 DUP2 ADD DUP5 DUP5 DUP5 ADD GT ISZERO PUSH2 0x596 JUMPI PUSH2 0x595 PUSH2 0x4A7 JUMP JUMPDEST JUMPDEST PUSH2 0x5A1 DUP5 DUP3 DUP6 PUSH2 0x558 JUMP JUMPDEST POP SWAP4 SWAP3 POP POP POP JUMP JUMPDEST PUSH1 0x0 DUP3 PUSH1 0x1F DUP4 ADD SLT PUSH2 0x5BE JUMPI PUSH2 0x5BD PUSH2 0x4A2 JUMP JUMPDEST JUMPDEST DUP2 CALLDATALOAD PUSH2 0x5CE DUP5 DUP3 PUSH1 0x20 DUP7 ADD PUSH2 0x567 JUMP JUMPDEST SWAP2 POP POP SWAP3 SWAP2 POP POP JUMP JUMPDEST PUSH1 0x0 DUP1 PUSH1 0x0 DUP1 PUSH1 0x0 PUSH1 0xA0 DUP7 DUP9 SUB SLT ISZERO PUSH2 0x5F3 JUMPI PUSH2 0x5F2 PUSH2 0x2F5 JUMP JUMPDEST JUMPDEST PUSH1 0x0 PUSH2 0x601 DUP9 DUP3 DUP10 ADD PUSH2 0x320 JUMP JUMPDEST SWAP6 POP POP PUSH1 0x20 DUP7 ADD CALLDATALOAD PUSH8 0xFFFFFFFFFFFFFFFF DUP2 GT ISZERO PUSH2 0x622 JUMPI PUSH2 0x621 PUSH2 0x2FA JUMP JUMPDEST JUMPDEST PUSH2 0x62E DUP9 DUP3 DUP10 ADD PUSH2 0x5A9 JUMP JUMPDEST SWAP5 POP POP PUSH1 0x40 DUP7 ADD CALLDATALOAD PUSH8 0xFFFFFFFFFFFFFFFF DUP2 GT ISZERO PUSH2 0x64F JUMPI PUSH2 0x64E PUSH2 0x2FA JUMP JUMPDEST JUMPDEST PUSH2 0x65B DUP9 DUP3 DUP10 ADD PUSH2 0x5A9 JUMP JUMPDEST SWAP4 POP POP PUSH1 0x60 PUSH2 0x66C DUP9 DUP3 DUP10 ADD PUSH2 0x320 JUMP JUMPDEST SWAP3 POP POP PUSH1 0x80 PUSH2 0x67D DUP9 DUP3 DUP10 ADD PUSH2 0x320 JUMP JUMPDEST SWAP2 POP POP SWAP3 SWAP6 POP SWAP3 SWAP6 SWAP1 SWAP4 POP JUMP JUMPDEST PUSH32 0x4E487B7100000000000000000000000000000000000000000000000000000000 PUSH1 0x0 MSTORE PUSH1 0x22 PUSH1 0x4 MSTORE PUSH1 0x24 PUSH1 0x0 REVERT JUMPDEST PUSH1 0x0 PUSH1 0x2 DUP3 DIV SWAP1 POP PUSH1 0x1 DUP3 AND DUP1 PUSH2 0x6D1 JUMPI PUSH1 0x7F DUP3 AND SWAP2 POP JUMPDEST PUSH1 0x20 DUP3 LT DUP2 SUB PUSH2 0x6E4 JUMPI PUSH2 0x6E3 PUSH2 0x68A JUMP JUMPDEST JUMPDEST POP SWAP2 SWAP1 POP JUMP JUMPDEST PUSH1 0x0 DUP2 SWAP1 POP DUP2 PUSH1 0x0 MSTORE PUSH1 0x20 PUSH1 0x0 KECCAK256 SWAP1 POP SWAP2 SWAP1 POP JUMP JUMPDEST PUSH1 0x0 PUSH1 0x20 PUSH1 0x1F DUP4 ADD DIV SWAP1 POP SWAP2 SWAP1 POP JUMP JUMPDEST PUSH1 0x0 DUP3 DUP3 SHL SWAP1 POP SWAP3 SWAP2 POP POP JUMP JUMPDEST PUSH1 0x0 PUSH1 0x8 DUP4 MUL PUSH2 0x74C PUSH32 0xFFFFFFFFFFFFFFFFFFFFFFFFFFFFFFFFFFFFFFFFFFFFFFFFFFFFFFFFFFFFFFFF DUP3 PUSH2 0x70F JUMP JUMPDEST PUSH2 0x756 DUP7 DUP4 PUSH2 0x70F JUMP JUMPDEST SWAP6 POP DUP1 NOT DUP5 AND SWAP4 POP DUP1 DUP7 AND DUP5 OR SWAP3 POP POP POP SWAP4 SWAP3 POP POP POP JUMP JUMPDEST PUSH1 0x0 DUP2 SWAP1 POP SWAP2 SWAP1 POP JUMP JUMPDEST PUSH1 0x0 PUSH2 0x793 PUSH2 0x78E PUSH2 0x789 DUP5 PUSH2 0x2FF JUMP JUMPDEST PUSH2 0x76E JUMP JUMPDEST PUSH2 0x2FF JUMP JUMPDEST SWAP1 POP SWAP2 SWAP1 POP JUMP JUMPDEST PUSH1 0x0 DUP2 SWAP1 POP SWAP2 SWAP1 POP JUMP JUMPDEST PUSH2 0x7AD DUP4 PUSH2 0x778 JUMP JUMPDEST PUSH2 0x7C1 PUSH2 0x7B9 DUP3 PUSH2 0x79A JUMP JUMPDEST DUP5 DUP5 SLOAD PUSH2 0x71C JUMP JUMPDEST DUP3 SSTORE POP POP POP POP JUMP JUMPDEST PUSH1 0x0 SWAP1 JUMP JUMPDEST PUSH2 0x7D6 PUSH2 0x7C9 JUMP JUMPDEST PUSH2 0x7E1 DUP2 DUP5 DUP5 PUSH2 0x7A4 JUMP JUMPDEST POP POP POP JUMP JUMPDEST JUMPDEST DUP2 DUP2 LT ISZERO PUSH2 0x805 JUMPI PUSH2 0x7FA PUSH1 0x0 DUP3 PUSH2 0x7CE JUMP JUMPDEST PUSH1 0x1 DUP2 ADD SWAP1 POP PUSH2 0x7E7 JUMP JUMPDEST POP POP JUMP JUMPDEST PUSH1 0x1F DUP3 GT ISZERO PUSH2 0x84A JUMPI PUSH2 0x81B DUP2 PUSH2 0x6EA JUMP JUMPDEST PUSH2 0x824 DUP5 PUSH2 0x6FF JUMP JUMPDEST DUP2 ADD PUSH1 0x20 DUP6 LT ISZERO PUSH2 0x833 JUMPI DUP2 SWAP1 POP JUMPDEST PUSH2 0x847 PUSH2 0x83F DUP6 PUSH2 0x6FF JUMP JUMPDEST DUP4 ADD DUP3 PUSH2 0x7E6 JUMP JUMPDEST POP POP JUMPDEST POP POP POP JUMP JUMPDEST PUSH1 0x0 DUP3 DUP3 SHR SWAP1 POP SWAP3 SWAP2 POP POP JUMP JUMPDEST PUSH1 0x0 PUSH2 0x86D PUSH1 0x0 NOT DUP5 PUSH1 0x8 MUL PUSH2 0x84F JUMP JUMPDEST NOT DUP1 DUP4 AND SWAP2 POP POP SWAP3 SWAP2 POP POP JUMP JUMPDEST PUSH1 0x0 PUSH2 0x886 DUP4 DUP4 PUSH2 0x85C JUMP JUMPDEST SWAP2 POP DUP3 PUSH1 0x2 MUL DUP3 OR SWAP1 POP SWAP3 SWAP2 POP POP JUMP JUMPDEST PUSH2 0x89F DUP3 PUSH2 0x362 JUMP JUMPDEST PUSH8 0xFFFFFFFFFFFFFFFF DUP2 GT ISZERO PUSH2 0x8B8 JUMPI PUSH2 0x8B7 PUSH2 0x4AC JUMP JUMPDEST JUMPDEST PUSH2 0x8C2 DUP3 SLOAD PUSH2 0x6B9 JUMP JUMPDEST PUSH2 0x8CD DUP3 DUP3 DUP6 PUSH2 0x809 JUMP JUMPDEST PUSH1 0x0 PUSH1 0x20 SWAP1 POP PUSH1 0x1F DUP4 GT PUSH1 0x1 DUP2 EQ PUSH2 0x900 JUMPI PUSH1 0x0 DUP5 ISZERO PUSH2 0x8EE JUMPI DUP3 DUP8 ADD MLOAD SWAP1 POP JUMPDEST PUSH2 0x8F8 DUP6 DUP3 PUSH2 0x87A JUMP JUMPDEST DUP7 SSTORE POP PUSH2 0x960 JUMP JUMPDEST PUSH1 0x1F NOT DUP5 AND PUSH2 0x90E DUP7 PUSH2 0x6EA JUMP JUMPDEST PUSH1 0x0 JUMPDEST DUP3 DUP2 LT ISZERO PUSH2 0x936 JUMPI DUP5 DUP10 ADD MLOAD DUP3 SSTORE PUSH1 0x1 DUP3 ADD SWAP2 POP PUSH1 0x20 DUP6 ADD SWAP5 POP PUSH1 0x20 DUP2 ADD SWAP1 POP PUSH2 0x911 JUMP JUMPDEST DUP7 DUP4 LT ISZERO PUSH2 0x953 JUMPI DUP5 DUP10 ADD MLOAD PUSH2 0x94F PUSH1 0x1F DUP10 AND DUP3 PUSH2 0x85C JUMP JUMPDEST DUP4 SSTORE POP JUMPDEST PUSH1 0x1 PUSH1 0x2 DUP9 MUL ADD DUP9 SSTORE POP POP POP JUMPDEST POP POP POP POP POP POP JUMP JUMPDEST PUSH32 0x4E487B7100000000000000000000000000000000000000000000000000000000 PUSH1 0x0 MSTORE PUSH1 0x11 PUSH1 0x4 MSTORE PUSH1 0x24 PUSH1 0x0 REVERT JUMPDEST PUSH1 0x0 PUSH2 0x9A2 DUP3 PUSH2 0x2FF JUMP JUMPDEST SWAP2 POP PUSH2 0x9AD DUP4 PUSH2 0x2FF JUMP JUMPDEST SWAP3 POP DUP3 DUP3 ADD SWAP1 POP DUP1 DUP3 GT ISZERO PUSH2 0x9C5 JUMPI PUSH2 0x9C4 PUSH2 0x968 JUMP JUMPDEST JUMPDEST SWAP3 SWAP2 POP POP JUMP INVALID LOG2 PUSH5 0x6970667358 0x22 SLT KECCAK256 0xAC 0x5E 0xCB 0xC7 DUP12 0xCC CHAINID DUP12 SWAP4 SDIV 0xB5 PUSH10 0xFB4A98F91336C4983EC2 SAR SWAP16 COINBASE SWAP16 0xAD BALANCE 0xC0 0xD6 0x5C 0xCC PUSH5 0x736F6C6343 STOP ADDMOD SLT STOP CALLER "
				},
				"gasEstimates": {
					"creation": {
						"codeDepositCost": "512200",
						"executionCost": "549",
						"totalCost": "512749"
					},
					"external": {
						"conditionNotMet(uint256,uint256)": "infinite",
						"contribute(uint256)": "22579",
						"setProjectDetails(uint256,string,string,uint256,uint256)": "infinite",
						"userProjects(uint256)": "infinite"
					}
				},
				"methodIdentifiers": {
					"conditionNotMet(uint256,uint256)": "d615bfa4",
					"contribute(uint256)": "c1cbbca7",
					"setProjectDetails(uint256,string,string,uint256,uint256)": "ec939ae4",
					"userProjects(uint256)": "33b8c62a"
				}
			},
			"storageLayout": {
				"storage": [
					{
						"astId": 14,
						"contract": "Practice tokens/Assignment7.sol:CrowdFunding",
						"label": "id",
						"offset": 0,
						"slot": "0",
						"type": "t_uint256"
					},
					{
						"astId": 18,
						"contract": "Practice tokens/Assignment7.sol:CrowdFunding",
						"label": "project",
						"offset": 0,
						"slot": "1",
						"type": "t_array(t_struct(projectDetails)12_storage)dyn_storage"
					},
					{
						"astId": 23,
						"contract": "Practice tokens/Assignment7.sol:CrowdFunding",
						"label": "userProjects",
						"offset": 0,
						"slot": "2",
						"type": "t_mapping(t_uint256,t_struct(projectDetails)12_storage)"
					}
				],
				"types": {
					"t_array(t_struct(projectDetails)12_storage)dyn_storage": {
						"base": "t_struct(projectDetails)12_storage",
						"encoding": "dynamic_array",
						"label": "struct CrowdFunding.projectDetails[]",
						"numberOfBytes": "32"
					},
					"t_mapping(t_uint256,t_struct(projectDetails)12_storage)": {
						"encoding": "mapping",
						"key": "t_uint256",
						"label": "mapping(uint256 => struct CrowdFunding.projectDetails)",
						"numberOfBytes": "32",
						"value": "t_struct(projectDetails)12_storage"
					},
					"t_string_storage": {
						"encoding": "bytes",
						"label": "string",
						"numberOfBytes": "32"
					},
					"t_struct(projectDetails)12_storage": {
						"encoding": "inplace",
						"label": "struct CrowdFunding.projectDetails",
						"members": [
							{
								"astId": 3,
								"contract": "Practice tokens/Assignment7.sol:CrowdFunding",
								"label": "name",
								"offset": 0,
								"slot": "0",
								"type": "t_string_storage"
							},
							{
								"astId": 5,
								"contract": "Practice tokens/Assignment7.sol:CrowdFunding",
								"label": "description",
								"offset": 0,
								"slot": "1",
								"type": "t_string_storage"
							},
							{
								"astId": 7,
								"contract": "Practice tokens/Assignment7.sol:CrowdFunding",
								"label": "funding_goal",
								"offset": 0,
								"slot": "2",
								"type": "t_uint256"
							},
							{
								"astId": 9,
								"contract": "Practice tokens/Assignment7.sol:CrowdFunding",
								"label": "deadline",
								"offset": 0,
								"slot": "3",
								"type": "t_uint256"
							},
							{
								"astId": 11,
								"contract": "Practice tokens/Assignment7.sol:CrowdFunding",
								"label": "funding",
								"offset": 0,
								"slot": "4",
								"type": "t_uint256"
							}
						],
						"numberOfBytes": "160"
					},
					"t_uint256": {
						"encoding": "inplace",
						"label": "uint256",
						"numberOfBytes": "32"
					}
				}
			},
			"userdoc": {
				"kind": "user",
				"methods": {},
				"version": 1
			}
		}
	}
}