{
	"Practice tokens/Assignment7.sol": {
		"CrowdFunding": {
			"abi": [
				{
					"inputs": [
						{
							"internalType": "uint256",
							"name": "_id",
							"type": "uint256"
						}
					],
					"name": "conditionNotMet",
					"outputs": [],
					"stateMutability": "nonpayable",
					"type": "function"
				},
				{
					"inputs": [
						{
							"internalType": "uint256",
							"name": "_id",
							"type": "uint256"
						}
					],
					"name": "contribute",
					"outputs": [],
					"stateMutability": "payable",
					"type": "function"
				},
				{
					"inputs": [
						{
							"internalType": "uint256",
							"name": "_id",
							"type": "uint256"
						}
					],
					"name": "fundingComplete",
					"outputs": [],
					"stateMutability": "payable",
					"type": "function"
				},
				{
					"inputs": [
						{
							"internalType": "uint256",
							"name": "_id",
							"type": "uint256"
						}
					],
					"name": "refundCancel",
					"outputs": [],
					"stateMutability": "payable",
					"type": "function"
				},
				{
					"inputs": [
						{
							"internalType": "uint256",
							"name": "_id",
							"type": "uint256"
						},
						{
							"internalType": "string",
							"name": "_name",
							"type": "string"
						},
						{
							"internalType": "string",
							"name": "_description",
							"type": "string"
						},
						{
							"internalType": "uint256",
							"name": "_funding_goal",
							"type": "uint256"
						},
						{
							"internalType": "uint256",
							"name": "_deadline",
							"type": "uint256"
						}
					],
					"name": "setProjectDetails",
					"outputs": [],
					"stateMutability": "nonpayable",
					"type": "function"
				},
				{
					"inputs": [
						{
							"internalType": "uint256",
							"name": "",
							"type": "uint256"
						}
					],
					"name": "userProjects",
					"outputs": [
						{
							"internalType": "string",
							"name": "name",
							"type": "string"
						},
						{
							"internalType": "string",
							"name": "description",
							"type": "string"
						},
						{
							"internalType": "uint256",
							"name": "funding_goal",
							"type": "uint256"
						},
						{
							"internalType": "uint256",
							"name": "deadline",
							"type": "uint256"
						},
						{
							"internalType": "uint256",
							"name": "recievedAmount",
							"type": "uint256"
						},
						{
							"internalType": "address",
							"name": "_owner",
							"type": "address"
						}
					],
					"stateMutability": "view",
					"type": "function"
				}
			],
			"devdoc": {
				"kind": "dev",
				"methods": {},
				"version": 1
			},
			"evm": {
				"assembly": "    /* \"Practice tokens/Assignment7.sol\":57:2571  contract CrowdFunding {... */\n  mstore(0x40, 0x80)\n  callvalue\n  dup1\n  iszero\n  tag_1\n  jumpi\n  0x00\n  dup1\n  revert\ntag_1:\n  pop\n  dataSize(sub_0)\n  dup1\n  dataOffset(sub_0)\n  0x00\n  codecopy\n  0x00\n  return\nstop\n\nsub_0: assembly {\n        /* \"Practice tokens/Assignment7.sol\":57:2571  contract CrowdFunding {... */\n      mstore(0x40, 0x80)\n      jumpi(tag_1, lt(calldatasize, 0x04))\n      shr(0xe0, calldataload(0x00))\n      dup1\n      0x33b8c62a\n      eq\n      tag_2\n      jumpi\n      dup1\n      0x38e22afc\n      eq\n      tag_3\n      jumpi\n      dup1\n      0x9ea5cb11\n      eq\n      tag_4\n      jumpi\n      dup1\n      0xc1cbbca7\n      eq\n      tag_5\n      jumpi\n      dup1\n      0xd6734822\n      eq\n      tag_6\n      jumpi\n      dup1\n      0xec939ae4\n      eq\n      tag_7\n      jumpi\n    tag_1:\n      0x00\n      dup1\n      revert\n        /* \"Practice tokens/Assignment7.sol\":431:485  mapping(uint256 => projectDetails) public userProjects */\n    tag_2:\n      callvalue\n      dup1\n      iszero\n      tag_8\n      jumpi\n      0x00\n      dup1\n      revert\n    tag_8:\n      pop\n      tag_9\n      0x04\n      dup1\n      calldatasize\n      sub\n      dup2\n      add\n      swap1\n      tag_10\n      swap2\n      swap1\n      tag_11\n      jump\t// in\n    tag_10:\n      tag_12\n      jump\t// in\n    tag_9:\n      mload(0x40)\n      tag_13\n      swap7\n      swap6\n      swap5\n      swap4\n      swap3\n      swap2\n      swap1\n      tag_14\n      jump\t// in\n    tag_13:\n      mload(0x40)\n      dup1\n      swap2\n      sub\n      swap1\n      return\n        /* \"Practice tokens/Assignment7.sol\":1916:2219  function fundingComplete(uint _id) public payable{... */\n    tag_3:\n      tag_15\n      0x04\n      dup1\n      calldatasize\n      sub\n      dup2\n      add\n      swap1\n      tag_16\n      swap2\n      swap1\n      tag_11\n      jump\t// in\n    tag_16:\n      tag_17\n      jump\t// in\n    tag_15:\n      stop\n        /* \"Practice tokens/Assignment7.sol\":1465:1910  function conditionNotMet(uint _id) public  {... */\n    tag_4:\n      callvalue\n      dup1\n      iszero\n      tag_18\n      jumpi\n      0x00\n      dup1\n      revert\n    tag_18:\n      pop\n      tag_19\n      0x04\n      dup1\n      calldatasize\n      sub\n      dup2\n      add\n      swap1\n      tag_20\n      swap2\n      swap1\n      tag_11\n      jump\t// in\n    tag_20:\n      tag_21\n      jump\t// in\n    tag_19:\n      stop\n        /* \"Practice tokens/Assignment7.sol\":956:1459  function contribute(uint _id) public payable {... */\n    tag_5:\n      tag_22\n      0x04\n      dup1\n      calldatasize\n      sub\n      dup2\n      add\n      swap1\n      tag_23\n      swap2\n      swap1\n      tag_11\n      jump\t// in\n    tag_23:\n      tag_24\n      jump\t// in\n    tag_22:\n      stop\n        /* \"Practice tokens/Assignment7.sol\":2225:2569  function refundCancel(uint _id) public  payable {... */\n    tag_6:\n      tag_25\n      0x04\n      dup1\n      calldatasize\n      sub\n      dup2\n      add\n      swap1\n      tag_26\n      swap2\n      swap1\n      tag_11\n      jump\t// in\n    tag_26:\n      tag_27\n      jump\t// in\n    tag_25:\n      stop\n        /* \"Practice tokens/Assignment7.sol\":497:950  function setProjectDetails( uint256 _id, string memory _name,string memory _description,uint256 _funding_goal, uint256 _deadline ) public {... */\n    tag_7:\n      callvalue\n      dup1\n      iszero\n      tag_28\n      jumpi\n      0x00\n      dup1\n      revert\n    tag_28:\n      pop\n      tag_29\n      0x04\n      dup1\n      calldatasize\n      sub\n      dup2\n      add\n      swap1\n      tag_30\n      swap2\n      swap1\n      tag_31\n      jump\t// in\n    tag_30:\n      tag_32\n      jump\t// in\n    tag_29:\n      stop\n        /* \"Practice tokens/Assignment7.sol\":431:485  mapping(uint256 => projectDetails) public userProjects */\n    tag_12:\n      mstore(0x20, 0x01)\n      dup1\n      0x00\n      mstore\n      keccak256(0x00, 0x40)\n      0x00\n      swap2\n      pop\n      swap1\n      pop\n      dup1\n      0x00\n      add\n      dup1\n      sload\n      tag_33\n      swap1\n      tag_34\n      jump\t// in\n    tag_33:\n      dup1\n      0x1f\n      add\n      0x20\n      dup1\n      swap2\n      div\n      mul\n      0x20\n      add\n      mload(0x40)\n      swap1\n      dup2\n      add\n      0x40\n      mstore\n      dup1\n      swap3\n      swap2\n      swap1\n      dup2\n      dup2\n      mstore\n      0x20\n      add\n      dup3\n      dup1\n      sload\n      tag_35\n      swap1\n      tag_34\n      jump\t// in\n    tag_35:\n      dup1\n      iszero\n      tag_36\n      jumpi\n      dup1\n      0x1f\n      lt\n      tag_37\n      jumpi\n      0x0100\n      dup1\n      dup4\n      sload\n      div\n      mul\n      dup4\n      mstore\n      swap2\n      0x20\n      add\n      swap2\n      jump(tag_36)\n    tag_37:\n      dup3\n      add\n      swap2\n      swap1\n      0x00\n      mstore\n      keccak256(0x00, 0x20)\n      swap1\n    tag_38:\n      dup2\n      sload\n      dup2\n      mstore\n      swap1\n      0x01\n      add\n      swap1\n      0x20\n      add\n      dup1\n      dup4\n      gt\n      tag_38\n      jumpi\n      dup3\n      swap1\n      sub\n      0x1f\n      and\n      dup3\n      add\n      swap2\n    tag_36:\n      pop\n      pop\n      pop\n      pop\n      pop\n      swap1\n      dup1\n      0x01\n      add\n      dup1\n      sload\n      tag_39\n      swap1\n      tag_34\n      jump\t// in\n    tag_39:\n      dup1\n      0x1f\n      add\n      0x20\n      dup1\n      swap2\n      div\n      mul\n      0x20\n      add\n      mload(0x40)\n      swap1\n      dup2\n      add\n      0x40\n      mstore\n      dup1\n      swap3\n      swap2\n      swap1\n      dup2\n      dup2\n      mstore\n      0x20\n      add\n      dup3\n      dup1\n      sload\n      tag_40\n      swap1\n      tag_34\n      jump\t// in\n    tag_40:\n      dup1\n      iszero\n      tag_41\n      jumpi\n      dup1\n      0x1f\n      lt\n      tag_42\n      jumpi\n      0x0100\n      dup1\n      dup4\n      sload\n      div\n      mul\n      dup4\n      mstore\n      swap2\n      0x20\n      add\n      swap2\n      jump(tag_41)\n    tag_42:\n      dup3\n      add\n      swap2\n      swap1\n      0x00\n      mstore\n      keccak256(0x00, 0x20)\n      swap1\n    tag_43:\n      dup2\n      sload\n      dup2\n      mstore\n      swap1\n      0x01\n      add\n      swap1\n      0x20\n      add\n      dup1\n      dup4\n      gt\n      tag_43\n      jumpi\n      dup3\n      swap1\n      sub\n      0x1f\n      and\n      dup3\n      add\n      swap2\n    tag_41:\n      pop\n      pop\n      pop\n      pop\n      pop\n      swap1\n      dup1\n      0x02\n      add\n      sload\n      swap1\n      dup1\n      0x03\n      add\n      sload\n      swap1\n      dup1\n      0x04\n      add\n      sload\n      swap1\n      dup1\n      0x05\n      add\n      0x00\n      swap1\n      sload\n      swap1\n      0x0100\n      exp\n      swap1\n      div\n      0xffffffffffffffffffffffffffffffffffffffff\n      and\n      swap1\n      pop\n      dup7\n      jump\t// out\n        /* \"Practice tokens/Assignment7.sol\":1916:2219  function fundingComplete(uint _id) public payable{... */\n    tag_17:\n        /* \"Practice tokens/Assignment7.sol\":1997:2009  userProjects */\n      0x01\n        /* \"Practice tokens/Assignment7.sol\":1997:2014  userProjects[_id] */\n      0x00\n        /* \"Practice tokens/Assignment7.sol\":2010:2013  _id */\n      dup3\n        /* \"Practice tokens/Assignment7.sol\":1997:2014  userProjects[_id] */\n      dup2\n      mstore\n      0x20\n      add\n      swap1\n      dup2\n      mstore\n      0x20\n      add\n      0x00\n      keccak256\n        /* \"Practice tokens/Assignment7.sol\":1997:2021  userProjects[_id]._owner */\n      0x05\n      add\n      0x00\n      swap1\n      sload\n      swap1\n      0x0100\n      exp\n      swap1\n      div\n      0xffffffffffffffffffffffffffffffffffffffff\n      and\n        /* \"Practice tokens/Assignment7.sol\":1983:2021  msg.sender == userProjects[_id]._owner */\n      0xffffffffffffffffffffffffffffffffffffffff\n      and\n        /* \"Practice tokens/Assignment7.sol\":1983:1993  msg.sender */\n      caller\n        /* \"Practice tokens/Assignment7.sol\":1983:2021  msg.sender == userProjects[_id]._owner */\n      0xffffffffffffffffffffffffffffffffffffffff\n      and\n      eq\n        /* \"Practice tokens/Assignment7.sol\":1975:2050  require(msg.sender == userProjects[_id]._owner,\" Only Owner can widthdraw\") */\n      tag_45\n      jumpi\n      mload(0x40)\n      0x08c379a000000000000000000000000000000000000000000000000000000000\n      dup2\n      mstore\n      0x04\n      add\n      tag_46\n      swap1\n      tag_47\n      jump\t// in\n    tag_46:\n      mload(0x40)\n      dup1\n      swap2\n      sub\n      swap1\n      revert\n    tag_45:\n        /* \"Practice tokens/Assignment7.sol\":2064:2070  uint i */\n      0x00\n        /* \"Practice tokens/Assignment7.sol\":2060:2213  for(uint i=0; i < userProjects[_id].balance.length;i++){... */\n    tag_48:\n        /* \"Practice tokens/Assignment7.sol\":2078:2090  userProjects */\n      0x01\n        /* \"Practice tokens/Assignment7.sol\":2078:2095  userProjects[_id] */\n      0x00\n        /* \"Practice tokens/Assignment7.sol\":2091:2094  _id */\n      dup4\n        /* \"Practice tokens/Assignment7.sol\":2078:2095  userProjects[_id] */\n      dup2\n      mstore\n      0x20\n      add\n      swap1\n      dup2\n      mstore\n      0x20\n      add\n      0x00\n      keccak256\n        /* \"Practice tokens/Assignment7.sol\":2078:2103  userProjects[_id].balance */\n      0x06\n      add\n        /* \"Practice tokens/Assignment7.sol\":2078:2110  userProjects[_id].balance.length */\n      dup1\n      sload\n      swap1\n      pop\n        /* \"Practice tokens/Assignment7.sol\":2074:2075  i */\n      dup2\n        /* \"Practice tokens/Assignment7.sol\":2074:2110  i < userProjects[_id].balance.length */\n      lt\n        /* \"Practice tokens/Assignment7.sol\":2060:2213  for(uint i=0; i < userProjects[_id].balance.length;i++){... */\n      iszero\n      tag_49\n      jumpi\n        /* \"Practice tokens/Assignment7.sol\":2133:2145  userProjects */\n      0x01\n        /* \"Practice tokens/Assignment7.sol\":2133:2150  userProjects[_id] */\n      0x00\n        /* \"Practice tokens/Assignment7.sol\":2146:2149  _id */\n      dup4\n        /* \"Practice tokens/Assignment7.sol\":2133:2150  userProjects[_id] */\n      dup2\n      mstore\n      0x20\n      add\n      swap1\n      dup2\n      mstore\n      0x20\n      add\n      0x00\n      keccak256\n        /* \"Practice tokens/Assignment7.sol\":2133:2157  userProjects[_id]._owner */\n      0x05\n      add\n      0x00\n      swap1\n      sload\n      swap1\n      0x0100\n      exp\n      swap1\n      div\n      0xffffffffffffffffffffffffffffffffffffffff\n      and\n        /* \"Practice tokens/Assignment7.sol\":2125:2167  payable(userProjects[_id]._owner).transfer */\n      0xffffffffffffffffffffffffffffffffffffffff\n      and\n        /* \"Practice tokens/Assignment7.sol\":2125:2206  payable(userProjects[_id]._owner).transfer(userProjects[_id].balance[i]._balance) */\n      0x08fc\n        /* \"Practice tokens/Assignment7.sol\":2168:2180  userProjects */\n      0x01\n        /* \"Practice tokens/Assignment7.sol\":2168:2185  userProjects[_id] */\n      0x00\n        /* \"Practice tokens/Assignment7.sol\":2181:2184  _id */\n      dup6\n        /* \"Practice tokens/Assignment7.sol\":2168:2185  userProjects[_id] */\n      dup2\n      mstore\n      0x20\n      add\n      swap1\n      dup2\n      mstore\n      0x20\n      add\n      0x00\n      keccak256\n        /* \"Practice tokens/Assignment7.sol\":2168:2193  userProjects[_id].balance */\n      0x06\n      add\n        /* \"Practice tokens/Assignment7.sol\":2194:2195  i */\n      dup4\n        /* \"Practice tokens/Assignment7.sol\":2168:2196  userProjects[_id].balance[i] */\n      dup2\n      sload\n      dup2\n      lt\n      tag_51\n      jumpi\n      tag_52\n      tag_53\n      jump\t// in\n    tag_52:\n    tag_51:\n      swap1\n      0x00\n      mstore\n      keccak256(0x00, 0x20)\n      swap1\n      0x02\n      mul\n      add\n        /* \"Practice tokens/Assignment7.sol\":2168:2205  userProjects[_id].balance[i]._balance */\n      0x01\n      add\n      sload\n        /* \"Practice tokens/Assignment7.sol\":2125:2206  payable(userProjects[_id]._owner).transfer(userProjects[_id].balance[i]._balance) */\n      swap1\n      dup2\n      iszero\n      mul\n      swap1\n      mload(0x40)\n      0x00\n      mload(0x40)\n      dup1\n      dup4\n      sub\n      dup2\n      dup6\n      dup9\n      dup9\n      call\n      swap4\n      pop\n      pop\n      pop\n      pop\n      iszero\n      dup1\n      iszero\n      tag_56\n      jumpi\n      returndatasize\n      0x00\n      dup1\n      returndatacopy\n      revert(0x00, returndatasize)\n    tag_56:\n      pop\n        /* \"Practice tokens/Assignment7.sol\":2111:2114  i++ */\n      dup1\n      dup1\n      tag_57\n      swap1\n      tag_58\n      jump\t// in\n    tag_57:\n      swap2\n      pop\n      pop\n        /* \"Practice tokens/Assignment7.sol\":2060:2213  for(uint i=0; i < userProjects[_id].balance.length;i++){... */\n      jump(tag_48)\n    tag_49:\n      pop\n        /* \"Practice tokens/Assignment7.sol\":1916:2219  function fundingComplete(uint _id) public payable{... */\n      pop\n      jump\t// out\n        /* \"Practice tokens/Assignment7.sol\":1465:1910  function conditionNotMet(uint _id) public  {... */\n    tag_21:\n        /* \"Practice tokens/Assignment7.sol\":1554:1564  msg.sender */\n      caller\n        /* \"Practice tokens/Assignment7.sol\":1526:1564  userProjects[_id]._owner == msg.sender */\n      0xffffffffffffffffffffffffffffffffffffffff\n      and\n        /* \"Practice tokens/Assignment7.sol\":1526:1538  userProjects */\n      0x01\n        /* \"Practice tokens/Assignment7.sol\":1526:1543  userProjects[_id] */\n      0x00\n        /* \"Practice tokens/Assignment7.sol\":1539:1542  _id */\n      dup4\n        /* \"Practice tokens/Assignment7.sol\":1526:1543  userProjects[_id] */\n      dup2\n      mstore\n      0x20\n      add\n      swap1\n      dup2\n      mstore\n      0x20\n      add\n      0x00\n      keccak256\n        /* \"Practice tokens/Assignment7.sol\":1526:1550  userProjects[_id]._owner */\n      0x05\n      add\n      0x00\n      swap1\n      sload\n      swap1\n      0x0100\n      exp\n      swap1\n      div\n      0xffffffffffffffffffffffffffffffffffffffff\n      and\n        /* \"Practice tokens/Assignment7.sol\":1526:1564  userProjects[_id]._owner == msg.sender */\n      0xffffffffffffffffffffffffffffffffffffffff\n      and\n      eq\n        /* \"Practice tokens/Assignment7.sol\":1518:1584  require(userProjects[_id]._owner == msg.sender, \"only can refund\") */\n      tag_60\n      jumpi\n      mload(0x40)\n      0x08c379a000000000000000000000000000000000000000000000000000000000\n      dup2\n      mstore\n      0x04\n      add\n      tag_61\n      swap1\n      tag_62\n      jump\t// in\n    tag_61:\n      mload(0x40)\n      dup1\n      swap2\n      sub\n      swap1\n      revert\n    tag_60:\n        /* \"Practice tokens/Assignment7.sol\":1621:1633  userProjects */\n      0x01\n        /* \"Practice tokens/Assignment7.sol\":1621:1638  userProjects[_id] */\n      0x00\n        /* \"Practice tokens/Assignment7.sol\":1634:1637  _id */\n      dup3\n        /* \"Practice tokens/Assignment7.sol\":1621:1638  userProjects[_id] */\n      dup2\n      mstore\n      0x20\n      add\n      swap1\n      dup2\n      mstore\n      0x20\n      add\n      0x00\n      keccak256\n        /* \"Practice tokens/Assignment7.sol\":1621:1647  userProjects[_id].deadline */\n      0x03\n      add\n      sload\n        /* \"Practice tokens/Assignment7.sol\":1602:1617  block.timestamp */\n      timestamp\n        /* \"Practice tokens/Assignment7.sol\":1602:1647  block.timestamp >= userProjects[_id].deadline */\n      lt\n      iszero\n        /* \"Practice tokens/Assignment7.sol\":1594:1691  require(block.timestamp >= userProjects[_id].deadline,\" Still have some time left for funding \" ) */\n      tag_63\n      jumpi\n      mload(0x40)\n      0x08c379a000000000000000000000000000000000000000000000000000000000\n      dup2\n      mstore\n      0x04\n      add\n      tag_64\n      swap1\n      tag_65\n      jump\t// in\n    tag_64:\n      mload(0x40)\n      dup1\n      swap2\n      sub\n      swap1\n      revert\n    tag_63:\n        /* \"Practice tokens/Assignment7.sol\":1705:1711  uint i */\n      0x00\n        /* \"Practice tokens/Assignment7.sol\":1701:1870  for(uint i=0; i< userProjects[_id].balance.length;i++){... */\n    tag_66:\n        /* \"Practice tokens/Assignment7.sol\":1718:1730  userProjects */\n      0x01\n        /* \"Practice tokens/Assignment7.sol\":1718:1735  userProjects[_id] */\n      0x00\n        /* \"Practice tokens/Assignment7.sol\":1731:1734  _id */\n      dup4\n        /* \"Practice tokens/Assignment7.sol\":1718:1735  userProjects[_id] */\n      dup2\n      mstore\n      0x20\n      add\n      swap1\n      dup2\n      mstore\n      0x20\n      add\n      0x00\n      keccak256\n        /* \"Practice tokens/Assignment7.sol\":1718:1743  userProjects[_id].balance */\n      0x06\n      add\n        /* \"Practice tokens/Assignment7.sol\":1718:1750  userProjects[_id].balance.length */\n      dup1\n      sload\n      swap1\n      pop\n        /* \"Practice tokens/Assignment7.sol\":1715:1716  i */\n      dup2\n        /* \"Practice tokens/Assignment7.sol\":1715:1750  i< userProjects[_id].balance.length */\n      lt\n        /* \"Practice tokens/Assignment7.sol\":1701:1870  for(uint i=0; i< userProjects[_id].balance.length;i++){... */\n      iszero\n      tag_67\n      jumpi\n        /* \"Practice tokens/Assignment7.sol\":1773:1785  userProjects */\n      0x01\n        /* \"Practice tokens/Assignment7.sol\":1773:1790  userProjects[_id] */\n      0x00\n        /* \"Practice tokens/Assignment7.sol\":1786:1789  _id */\n      dup4\n        /* \"Practice tokens/Assignment7.sol\":1773:1790  userProjects[_id] */\n      dup2\n      mstore\n      0x20\n      add\n      swap1\n      dup2\n      mstore\n      0x20\n      add\n      0x00\n      keccak256\n        /* \"Practice tokens/Assignment7.sol\":1773:1798  userProjects[_id].balance */\n      0x06\n      add\n        /* \"Practice tokens/Assignment7.sol\":1799:1800  i */\n      dup2\n        /* \"Practice tokens/Assignment7.sol\":1773:1801  userProjects[_id].balance[i] */\n      dup2\n      sload\n      dup2\n      lt\n      tag_69\n      jumpi\n      tag_70\n      tag_53\n      jump\t// in\n    tag_70:\n    tag_69:\n      swap1\n      0x00\n      mstore\n      keccak256(0x00, 0x20)\n      swap1\n      0x02\n      mul\n      add\n        /* \"Practice tokens/Assignment7.sol\":1773:1810  userProjects[_id].balance[i]._address */\n      0x00\n      add\n      0x00\n      swap1\n      sload\n      swap1\n      0x0100\n      exp\n      swap1\n      div\n      0xffffffffffffffffffffffffffffffffffffffff\n      and\n        /* \"Practice tokens/Assignment7.sol\":1765:1820  payable(userProjects[_id].balance[i]._address).transfer */\n      0xffffffffffffffffffffffffffffffffffffffff\n      and\n        /* \"Practice tokens/Assignment7.sol\":1765:1859  payable(userProjects[_id].balance[i]._address).transfer(userProjects[_id].balance[i]._balance) */\n      0x08fc\n        /* \"Practice tokens/Assignment7.sol\":1821:1833  userProjects */\n      0x01\n        /* \"Practice tokens/Assignment7.sol\":1821:1838  userProjects[_id] */\n      0x00\n        /* \"Practice tokens/Assignment7.sol\":1834:1837  _id */\n      dup6\n        /* \"Practice tokens/Assignment7.sol\":1821:1838  userProjects[_id] */\n      dup2\n      mstore\n      0x20\n      add\n      swap1\n      dup2\n      mstore\n      0x20\n      add\n      0x00\n      keccak256\n        /* \"Practice tokens/Assignment7.sol\":1821:1846  userProjects[_id].balance */\n      0x06\n      add\n        /* \"Practice tokens/Assignment7.sol\":1847:1848  i */\n      dup4\n        /* \"Practice tokens/Assignment7.sol\":1821:1849  userProjects[_id].balance[i] */\n      dup2\n      sload\n      dup2\n      lt\n      tag_72\n      jumpi\n      tag_73\n      tag_53\n      jump\t// in\n    tag_73:\n    tag_72:\n      swap1\n      0x00\n      mstore\n      keccak256(0x00, 0x20)\n      swap1\n      0x02\n      mul\n      add\n        /* \"Practice tokens/Assignment7.sol\":1821:1858  userProjects[_id].balance[i]._balance */\n      0x01\n      add\n      sload\n        /* \"Practice tokens/Assignment7.sol\":1765:1859  payable(userProjects[_id].balance[i]._address).transfer(userProjects[_id].balance[i]._balance) */\n      swap1\n      dup2\n      iszero\n      mul\n      swap1\n      mload(0x40)\n      0x00\n      mload(0x40)\n      dup1\n      dup4\n      sub\n      dup2\n      dup6\n      dup9\n      dup9\n      call\n      swap4\n      pop\n      pop\n      pop\n      pop\n      iszero\n      dup1\n      iszero\n      tag_76\n      jumpi\n      returndatasize\n      0x00\n      dup1\n      returndatacopy\n      revert(0x00, returndatasize)\n    tag_76:\n      pop\n        /* \"Practice tokens/Assignment7.sol\":1751:1754  i++ */\n      dup1\n      dup1\n      tag_77\n      swap1\n      tag_58\n      jump\t// in\n    tag_77:\n      swap2\n      pop\n      pop\n        /* \"Practice tokens/Assignment7.sol\":1701:1870  for(uint i=0; i< userProjects[_id].balance.length;i++){... */\n      jump(tag_66)\n    tag_67:\n      pop\n        /* \"Practice tokens/Assignment7.sol\":1886:1898  userProjects */\n      0x01\n        /* \"Practice tokens/Assignment7.sol\":1886:1903  userProjects[_id] */\n      0x00\n        /* \"Practice tokens/Assignment7.sol\":1899:1902  _id */\n      dup3\n        /* \"Practice tokens/Assignment7.sol\":1886:1903  userProjects[_id] */\n      dup2\n      mstore\n      0x20\n      add\n      swap1\n      dup2\n      mstore\n      0x20\n      add\n      0x00\n      keccak256\n      0x00\n        /* \"Practice tokens/Assignment7.sol\":1879:1903  delete userProjects[_id] */\n      dup1\n      dup3\n      add\n      0x00\n      tag_78\n      swap2\n      swap1\n      tag_79\n      jump\t// in\n    tag_78:\n      0x01\n      dup3\n      add\n      0x00\n      tag_80\n      swap2\n      swap1\n      tag_79\n      jump\t// in\n    tag_80:\n      0x02\n      dup3\n      add\n      0x00\n      swap1\n      sstore\n      0x03\n      dup3\n      add\n      0x00\n      swap1\n      sstore\n      0x04\n      dup3\n      add\n      0x00\n      swap1\n      sstore\n      0x05\n      dup3\n      add\n      exp(0x0100, 0x00)\n      dup2\n      sload\n      swap1\n      0xffffffffffffffffffffffffffffffffffffffff\n      mul\n      not\n      and\n      swap1\n      sstore\n      0x06\n      dup3\n      add\n      0x00\n      tag_81\n      swap2\n      swap1\n      tag_82\n      jump\t// in\n    tag_81:\n      pop\n      pop\n        /* \"Practice tokens/Assignment7.sol\":1465:1910  function conditionNotMet(uint _id) public  {... */\n      pop\n      jump\t// out\n        /* \"Practice tokens/Assignment7.sol\":956:1459  function contribute(uint _id) public payable {... */\n    tag_24:\n        /* \"Practice tokens/Assignment7.sol\":1033:1045  userProjects */\n      0x01\n        /* \"Practice tokens/Assignment7.sol\":1033:1050  userProjects[_id] */\n      0x00\n        /* \"Practice tokens/Assignment7.sol\":1046:1049  _id */\n      dup3\n        /* \"Practice tokens/Assignment7.sol\":1033:1050  userProjects[_id] */\n      dup2\n      mstore\n      0x20\n      add\n      swap1\n      dup2\n      mstore\n      0x20\n      add\n      0x00\n      keccak256\n        /* \"Practice tokens/Assignment7.sol\":1033:1057  userProjects[_id]._owner */\n      0x05\n      add\n      0x00\n      swap1\n      sload\n      swap1\n      0x0100\n      exp\n      swap1\n      div\n      0xffffffffffffffffffffffffffffffffffffffff\n      and\n        /* \"Practice tokens/Assignment7.sol\":1019:1057  msg.sender != userProjects[_id]._owner */\n      0xffffffffffffffffffffffffffffffffffffffff\n      and\n        /* \"Practice tokens/Assignment7.sol\":1019:1029  msg.sender */\n      caller\n        /* \"Practice tokens/Assignment7.sol\":1019:1057  msg.sender != userProjects[_id]._owner */\n      0xffffffffffffffffffffffffffffffffffffffff\n      and\n      sub\n        /* \"Practice tokens/Assignment7.sol\":1011:1084  require(msg.sender != userProjects[_id]._owner,\" Owner can't contribute\") */\n      tag_84\n      jumpi\n      mload(0x40)\n      0x08c379a000000000000000000000000000000000000000000000000000000000\n      dup2\n      mstore\n      0x04\n      add\n      tag_85\n      swap1\n      tag_86\n      jump\t// in\n    tag_85:\n      mload(0x40)\n      dup1\n      swap2\n      sub\n      swap1\n      revert\n    tag_84:\n        /* \"Practice tokens/Assignment7.sol\":1114:1126  userProjects */\n      0x01\n        /* \"Practice tokens/Assignment7.sol\":1114:1131  userProjects[_id] */\n      0x00\n        /* \"Practice tokens/Assignment7.sol\":1127:1130  _id */\n      dup3\n        /* \"Practice tokens/Assignment7.sol\":1114:1131  userProjects[_id] */\n      dup2\n      mstore\n      0x20\n      add\n      swap1\n      dup2\n      mstore\n      0x20\n      add\n      0x00\n      keccak256\n        /* \"Practice tokens/Assignment7.sol\":1114:1144  userProjects[_id].funding_goal */\n      0x02\n      add\n      sload\n        /* \"Practice tokens/Assignment7.sol\":1102:1111  msg.value */\n      callvalue\n        /* \"Practice tokens/Assignment7.sol\":1102:1144  msg.value < userProjects[_id].funding_goal */\n      lt\n        /* \"Practice tokens/Assignment7.sol\":1094:1190  require(msg.value < userProjects[_id].funding_goal,\"Amount can not be greater than goal amount\") */\n      tag_87\n      jumpi\n      mload(0x40)\n      0x08c379a000000000000000000000000000000000000000000000000000000000\n      dup2\n      mstore\n      0x04\n      add\n      tag_88\n      swap1\n      tag_89\n      jump\t// in\n    tag_88:\n      mload(0x40)\n      dup1\n      swap2\n      sub\n      swap1\n      revert\n    tag_87:\n        /* \"Practice tokens/Assignment7.sol\":1256:1268  userProjects */\n      0x01\n        /* \"Practice tokens/Assignment7.sol\":1256:1273  userProjects[_id] */\n      0x00\n        /* \"Practice tokens/Assignment7.sol\":1269:1272  _id */\n      dup3\n        /* \"Practice tokens/Assignment7.sol\":1256:1273  userProjects[_id] */\n      dup2\n      mstore\n      0x20\n      add\n      swap1\n      dup2\n      mstore\n      0x20\n      add\n      0x00\n      keccak256\n        /* \"Practice tokens/Assignment7.sol\":1256:1286  userProjects[_id].funding_goal */\n      0x02\n      add\n      sload\n        /* \"Practice tokens/Assignment7.sol\":1244:1253  msg.value */\n      callvalue\n        /* \"Practice tokens/Assignment7.sol\":1209:1221  userProjects */\n      0x01\n        /* \"Practice tokens/Assignment7.sol\":1209:1226  userProjects[_id] */\n      0x00\n        /* \"Practice tokens/Assignment7.sol\":1222:1225  _id */\n      dup5\n        /* \"Practice tokens/Assignment7.sol\":1209:1226  userProjects[_id] */\n      dup2\n      mstore\n      0x20\n      add\n      swap1\n      dup2\n      mstore\n      0x20\n      add\n      0x00\n      keccak256\n        /* \"Practice tokens/Assignment7.sol\":1209:1241  userProjects[_id].recievedAmount */\n      0x04\n      add\n      sload\n        /* \"Practice tokens/Assignment7.sol\":1209:1253  userProjects[_id].recievedAmount + msg.value */\n      tag_90\n      swap2\n      swap1\n      tag_91\n      jump\t// in\n    tag_90:\n        /* \"Practice tokens/Assignment7.sol\":1209:1286  userProjects[_id].recievedAmount + msg.value < userProjects[_id].funding_goal */\n      lt\n        /* \"Practice tokens/Assignment7.sol\":1200:1287  require( userProjects[_id].recievedAmount + msg.value < userProjects[_id].funding_goal) */\n      tag_92\n      jumpi\n      0x00\n      dup1\n      revert\n    tag_92:\n        /* \"Practice tokens/Assignment7.sol\":1297:1309  userProjects */\n      0x01\n        /* \"Practice tokens/Assignment7.sol\":1297:1314  userProjects[_id] */\n      0x00\n        /* \"Practice tokens/Assignment7.sol\":1310:1313  _id */\n      dup3\n        /* \"Practice tokens/Assignment7.sol\":1297:1314  userProjects[_id] */\n      dup2\n      mstore\n      0x20\n      add\n      swap1\n      dup2\n      mstore\n      0x20\n      add\n      0x00\n      keccak256\n        /* \"Practice tokens/Assignment7.sol\":1297:1322  userProjects[_id].balance */\n      0x06\n      add\n        /* \"Practice tokens/Assignment7.sol\":1328:1361  userbalance(msg.sender,msg.value) */\n      mload(0x40)\n      dup1\n      0x40\n      add\n      0x40\n      mstore\n      dup1\n        /* \"Practice tokens/Assignment7.sol\":1340:1350  msg.sender */\n      caller\n        /* \"Practice tokens/Assignment7.sol\":1328:1361  userbalance(msg.sender,msg.value) */\n      0xffffffffffffffffffffffffffffffffffffffff\n      and\n      dup2\n      mstore\n      0x20\n      add\n        /* \"Practice tokens/Assignment7.sol\":1351:1360  msg.value */\n      callvalue\n        /* \"Practice tokens/Assignment7.sol\":1328:1361  userbalance(msg.sender,msg.value) */\n      dup2\n      mstore\n      pop\n        /* \"Practice tokens/Assignment7.sol\":1297:1362  userProjects[_id].balance.push(userbalance(msg.sender,msg.value)) */\n      swap1\n      dup1\n      0x01\n      dup2\n      sload\n      add\n      dup1\n      dup3\n      sstore\n      dup1\n      swap2\n      pop\n      pop\n      0x01\n      swap1\n      sub\n      swap1\n      0x00\n      mstore\n      keccak256(0x00, 0x20)\n      swap1\n      0x02\n      mul\n      add\n      0x00\n      swap1\n      swap2\n      swap1\n      swap2\n      swap1\n      swap2\n      pop\n      0x00\n      dup3\n      add\n      mload\n      dup2\n      0x00\n      add\n      exp(0x0100, 0x00)\n      dup2\n      sload\n      dup2\n      0xffffffffffffffffffffffffffffffffffffffff\n      mul\n      not\n      and\n      swap1\n      dup4\n      0xffffffffffffffffffffffffffffffffffffffff\n      and\n      mul\n      or\n      swap1\n      sstore\n      pop\n      0x20\n      dup3\n      add\n      mload\n      dup2\n      0x01\n      add\n      sstore\n      pop\n      pop\n        /* \"Practice tokens/Assignment7.sol\":1442:1451  msg.value */\n      callvalue\n        /* \"Practice tokens/Assignment7.sol\":1407:1419  userProjects */\n      0x01\n        /* \"Practice tokens/Assignment7.sol\":1407:1424  userProjects[_id] */\n      0x00\n        /* \"Practice tokens/Assignment7.sol\":1420:1423  _id */\n      dup4\n        /* \"Practice tokens/Assignment7.sol\":1407:1424  userProjects[_id] */\n      dup2\n      mstore\n      0x20\n      add\n      swap1\n      dup2\n      mstore\n      0x20\n      add\n      0x00\n      keccak256\n        /* \"Practice tokens/Assignment7.sol\":1407:1439  userProjects[_id].recievedAmount */\n      0x04\n      add\n      sload\n        /* \"Practice tokens/Assignment7.sol\":1407:1451  userProjects[_id].recievedAmount + msg.value */\n      tag_94\n      swap2\n      swap1\n      tag_91\n      jump\t// in\n    tag_94:\n        /* \"Practice tokens/Assignment7.sol\":1372:1384  userProjects */\n      0x01\n        /* \"Practice tokens/Assignment7.sol\":1372:1389  userProjects[_id] */\n      0x00\n        /* \"Practice tokens/Assignment7.sol\":1385:1388  _id */\n      dup4\n        /* \"Practice tokens/Assignment7.sol\":1372:1389  userProjects[_id] */\n      dup2\n      mstore\n      0x20\n      add\n      swap1\n      dup2\n      mstore\n      0x20\n      add\n      0x00\n      keccak256\n        /* \"Practice tokens/Assignment7.sol\":1372:1404  userProjects[_id].recievedAmount */\n      0x04\n      add\n        /* \"Practice tokens/Assignment7.sol\":1372:1451  userProjects[_id].recievedAmount = userProjects[_id].recievedAmount + msg.value */\n      dup2\n      swap1\n      sstore\n      pop\n        /* \"Practice tokens/Assignment7.sol\":956:1459  function contribute(uint _id) public payable {... */\n      pop\n      jump\t// out\n        /* \"Practice tokens/Assignment7.sol\":2225:2569  function refundCancel(uint _id) public  payable {... */\n    tag_27:\n        /* \"Practice tokens/Assignment7.sol\":2320:2330  msg.sender */\n      caller\n        /* \"Practice tokens/Assignment7.sol\":2292:2330  userProjects[_id]._owner == msg.sender */\n      0xffffffffffffffffffffffffffffffffffffffff\n      and\n        /* \"Practice tokens/Assignment7.sol\":2292:2304  userProjects */\n      0x01\n        /* \"Practice tokens/Assignment7.sol\":2292:2309  userProjects[_id] */\n      0x00\n        /* \"Practice tokens/Assignment7.sol\":2305:2308  _id */\n      dup4\n        /* \"Practice tokens/Assignment7.sol\":2292:2309  userProjects[_id] */\n      dup2\n      mstore\n      0x20\n      add\n      swap1\n      dup2\n      mstore\n      0x20\n      add\n      0x00\n      keccak256\n        /* \"Practice tokens/Assignment7.sol\":2292:2316  userProjects[_id]._owner */\n      0x05\n      add\n      0x00\n      swap1\n      sload\n      swap1\n      0x0100\n      exp\n      swap1\n      div\n      0xffffffffffffffffffffffffffffffffffffffff\n      and\n        /* \"Practice tokens/Assignment7.sol\":2292:2330  userProjects[_id]._owner == msg.sender */\n      0xffffffffffffffffffffffffffffffffffffffff\n      and\n      eq\n        /* \"Practice tokens/Assignment7.sol\":2284:2350  require(userProjects[_id]._owner == msg.sender, \"only can refund\") */\n      tag_96\n      jumpi\n      mload(0x40)\n      0x08c379a000000000000000000000000000000000000000000000000000000000\n      dup2\n      mstore\n      0x04\n      add\n      tag_97\n      swap1\n      tag_62\n      jump\t// in\n    tag_97:\n      mload(0x40)\n      dup1\n      swap2\n      sub\n      swap1\n      revert\n    tag_96:\n        /* \"Practice tokens/Assignment7.sol\":2364:2370  uint i */\n      0x00\n        /* \"Practice tokens/Assignment7.sol\":2360:2529  for(uint i=0; i< userProjects[_id].balance.length;i++){... */\n    tag_98:\n        /* \"Practice tokens/Assignment7.sol\":2377:2389  userProjects */\n      0x01\n        /* \"Practice tokens/Assignment7.sol\":2377:2394  userProjects[_id] */\n      0x00\n        /* \"Practice tokens/Assignment7.sol\":2390:2393  _id */\n      dup4\n        /* \"Practice tokens/Assignment7.sol\":2377:2394  userProjects[_id] */\n      dup2\n      mstore\n      0x20\n      add\n      swap1\n      dup2\n      mstore\n      0x20\n      add\n      0x00\n      keccak256\n        /* \"Practice tokens/Assignment7.sol\":2377:2402  userProjects[_id].balance */\n      0x06\n      add\n        /* \"Practice tokens/Assignment7.sol\":2377:2409  userProjects[_id].balance.length */\n      dup1\n      sload\n      swap1\n      pop\n        /* \"Practice tokens/Assignment7.sol\":2374:2375  i */\n      dup2\n        /* \"Practice tokens/Assignment7.sol\":2374:2409  i< userProjects[_id].balance.length */\n      lt\n        /* \"Practice tokens/Assignment7.sol\":2360:2529  for(uint i=0; i< userProjects[_id].balance.length;i++){... */\n      iszero\n      tag_99\n      jumpi\n        /* \"Practice tokens/Assignment7.sol\":2432:2444  userProjects */\n      0x01\n        /* \"Practice tokens/Assignment7.sol\":2432:2449  userProjects[_id] */\n      0x00\n        /* \"Practice tokens/Assignment7.sol\":2445:2448  _id */\n      dup4\n        /* \"Practice tokens/Assignment7.sol\":2432:2449  userProjects[_id] */\n      dup2\n      mstore\n      0x20\n      add\n      swap1\n      dup2\n      mstore\n      0x20\n      add\n      0x00\n      keccak256\n        /* \"Practice tokens/Assignment7.sol\":2432:2457  userProjects[_id].balance */\n      0x06\n      add\n        /* \"Practice tokens/Assignment7.sol\":2458:2459  i */\n      dup2\n        /* \"Practice tokens/Assignment7.sol\":2432:2460  userProjects[_id].balance[i] */\n      dup2\n      sload\n      dup2\n      lt\n      tag_101\n      jumpi\n      tag_102\n      tag_53\n      jump\t// in\n    tag_102:\n    tag_101:\n      swap1\n      0x00\n      mstore\n      keccak256(0x00, 0x20)\n      swap1\n      0x02\n      mul\n      add\n        /* \"Practice tokens/Assignment7.sol\":2432:2469  userProjects[_id].balance[i]._address */\n      0x00\n      add\n      0x00\n      swap1\n      sload\n      swap1\n      0x0100\n      exp\n      swap1\n      div\n      0xffffffffffffffffffffffffffffffffffffffff\n      and\n        /* \"Practice tokens/Assignment7.sol\":2424:2479  payable(userProjects[_id].balance[i]._address).transfer */\n      0xffffffffffffffffffffffffffffffffffffffff\n      and\n        /* \"Practice tokens/Assignment7.sol\":2424:2518  payable(userProjects[_id].balance[i]._address).transfer(userProjects[_id].balance[i]._balance) */\n      0x08fc\n        /* \"Practice tokens/Assignment7.sol\":2480:2492  userProjects */\n      0x01\n        /* \"Practice tokens/Assignment7.sol\":2480:2497  userProjects[_id] */\n      0x00\n        /* \"Practice tokens/Assignment7.sol\":2493:2496  _id */\n      dup6\n        /* \"Practice tokens/Assignment7.sol\":2480:2497  userProjects[_id] */\n      dup2\n      mstore\n      0x20\n      add\n      swap1\n      dup2\n      mstore\n      0x20\n      add\n      0x00\n      keccak256\n        /* \"Practice tokens/Assignment7.sol\":2480:2505  userProjects[_id].balance */\n      0x06\n      add\n        /* \"Practice tokens/Assignment7.sol\":2506:2507  i */\n      dup4\n        /* \"Practice tokens/Assignment7.sol\":2480:2508  userProjects[_id].balance[i] */\n      dup2\n      sload\n      dup2\n      lt\n      tag_104\n      jumpi\n      tag_105\n      tag_53\n      jump\t// in\n    tag_105:\n    tag_104:\n      swap1\n      0x00\n      mstore\n      keccak256(0x00, 0x20)\n      swap1\n      0x02\n      mul\n      add\n        /* \"Practice tokens/Assignment7.sol\":2480:2517  userProjects[_id].balance[i]._balance */\n      0x01\n      add\n      sload\n        /* \"Practice tokens/Assignment7.sol\":2424:2518  payable(userProjects[_id].balance[i]._address).transfer(userProjects[_id].balance[i]._balance) */\n      swap1\n      dup2\n      iszero\n      mul\n      swap1\n      mload(0x40)\n      0x00\n      mload(0x40)\n      dup1\n      dup4\n      sub\n      dup2\n      dup6\n      dup9\n      dup9\n      call\n      swap4\n      pop\n      pop\n      pop\n      pop\n      iszero\n      dup1\n      iszero\n      tag_108\n      jumpi\n      returndatasize\n      0x00\n      dup1\n      returndatacopy\n      revert(0x00, returndatasize)\n    tag_108:\n      pop\n        /* \"Practice tokens/Assignment7.sol\":2410:2413  i++ */\n      dup1\n      dup1\n      tag_109\n      swap1\n      tag_58\n      jump\t// in\n    tag_109:\n      swap2\n      pop\n      pop\n        /* \"Practice tokens/Assignment7.sol\":2360:2529  for(uint i=0; i< userProjects[_id].balance.length;i++){... */\n      jump(tag_98)\n    tag_99:\n      pop\n        /* \"Practice tokens/Assignment7.sol\":2545:2557  userProjects */\n      0x01\n        /* \"Practice tokens/Assignment7.sol\":2545:2562  userProjects[_id] */\n      0x00\n        /* \"Practice tokens/Assignment7.sol\":2558:2561  _id */\n      dup3\n        /* \"Practice tokens/Assignment7.sol\":2545:2562  userProjects[_id] */\n      dup2\n      mstore\n      0x20\n      add\n      swap1\n      dup2\n      mstore\n      0x20\n      add\n      0x00\n      keccak256\n      0x00\n        /* \"Practice tokens/Assignment7.sol\":2538:2562  delete userProjects[_id] */\n      dup1\n      dup3\n      add\n      0x00\n      tag_110\n      swap2\n      swap1\n      tag_79\n      jump\t// in\n    tag_110:\n      0x01\n      dup3\n      add\n      0x00\n      tag_111\n      swap2\n      swap1\n      tag_79\n      jump\t// in\n    tag_111:\n      0x02\n      dup3\n      add\n      0x00\n      swap1\n      sstore\n      0x03\n      dup3\n      add\n      0x00\n      swap1\n      sstore\n      0x04\n      dup3\n      add\n      0x00\n      swap1\n      sstore\n      0x05\n      dup3\n      add\n      exp(0x0100, 0x00)\n      dup2\n      sload\n      swap1\n      0xffffffffffffffffffffffffffffffffffffffff\n      mul\n      not\n      and\n      swap1\n      sstore\n      0x06\n      dup3\n      add\n      0x00\n      tag_112\n      swap2\n      swap1\n      tag_82\n      jump\t// in\n    tag_112:\n      pop\n      pop\n        /* \"Practice tokens/Assignment7.sol\":2225:2569  function refundCancel(uint _id) public  payable {... */\n      pop\n      jump\t// out\n        /* \"Practice tokens/Assignment7.sol\":497:950  function setProjectDetails( uint256 _id, string memory _name,string memory _description,uint256 _funding_goal, uint256 _deadline ) public {... */\n    tag_32:\n        /* \"Practice tokens/Assignment7.sol\":670:675  _name */\n      dup4\n        /* \"Practice tokens/Assignment7.sol\":645:657  userProjects */\n      0x01\n        /* \"Practice tokens/Assignment7.sol\":645:662  userProjects[_id] */\n      0x00\n        /* \"Practice tokens/Assignment7.sol\":658:661  _id */\n      dup8\n        /* \"Practice tokens/Assignment7.sol\":645:662  userProjects[_id] */\n      dup2\n      mstore\n      0x20\n      add\n      swap1\n      dup2\n      mstore\n      0x20\n      add\n      0x00\n      keccak256\n        /* \"Practice tokens/Assignment7.sol\":645:667  userProjects[_id].name */\n      0x00\n      add\n        /* \"Practice tokens/Assignment7.sol\":645:675  userProjects[_id].name = _name */\n      swap1\n      dup2\n      tag_114\n      swap2\n      swap1\n      tag_115\n      jump\t// in\n    tag_114:\n      pop\n        /* \"Practice tokens/Assignment7.sol\":717:729  _description */\n      dup3\n        /* \"Practice tokens/Assignment7.sol\":685:697  userProjects */\n      0x01\n        /* \"Practice tokens/Assignment7.sol\":685:702  userProjects[_id] */\n      0x00\n        /* \"Practice tokens/Assignment7.sol\":698:701  _id */\n      dup8\n        /* \"Practice tokens/Assignment7.sol\":685:702  userProjects[_id] */\n      dup2\n      mstore\n      0x20\n      add\n      swap1\n      dup2\n      mstore\n      0x20\n      add\n      0x00\n      keccak256\n        /* \"Practice tokens/Assignment7.sol\":685:714  userProjects[_id].description */\n      0x01\n      add\n        /* \"Practice tokens/Assignment7.sol\":685:729  userProjects[_id].description = _description */\n      swap1\n      dup2\n      tag_116\n      swap2\n      swap1\n      tag_115\n      jump\t// in\n    tag_116:\n      pop\n        /* \"Practice tokens/Assignment7.sol\":772:785  _funding_goal */\n      dup2\n        /* \"Practice tokens/Assignment7.sol\":739:751  userProjects */\n      0x01\n        /* \"Practice tokens/Assignment7.sol\":739:756  userProjects[_id] */\n      0x00\n        /* \"Practice tokens/Assignment7.sol\":752:755  _id */\n      dup8\n        /* \"Practice tokens/Assignment7.sol\":739:756  userProjects[_id] */\n      dup2\n      mstore\n      0x20\n      add\n      swap1\n      dup2\n      mstore\n      0x20\n      add\n      0x00\n      keccak256\n        /* \"Practice tokens/Assignment7.sol\":739:769  userProjects[_id].funding_goal */\n      0x02\n      add\n        /* \"Practice tokens/Assignment7.sol\":739:785  userProjects[_id].funding_goal = _funding_goal */\n      dup2\n      swap1\n      sstore\n      pop\n        /* \"Practice tokens/Assignment7.sol\":822:832  msg.sender */\n      caller\n        /* \"Practice tokens/Assignment7.sol\":795:807  userProjects */\n      0x01\n        /* \"Practice tokens/Assignment7.sol\":795:812  userProjects[_id] */\n      0x00\n        /* \"Practice tokens/Assignment7.sol\":808:811  _id */\n      dup8\n        /* \"Practice tokens/Assignment7.sol\":795:812  userProjects[_id] */\n      dup2\n      mstore\n      0x20\n      add\n      swap1\n      dup2\n      mstore\n      0x20\n      add\n      0x00\n      keccak256\n        /* \"Practice tokens/Assignment7.sol\":795:819  userProjects[_id]._owner */\n      0x05\n      add\n      0x00\n        /* \"Practice tokens/Assignment7.sol\":795:832  userProjects[_id]._owner = msg.sender */\n      0x0100\n      exp\n      dup2\n      sload\n      dup2\n      0xffffffffffffffffffffffffffffffffffffffff\n      mul\n      not\n      and\n      swap1\n      dup4\n      0xffffffffffffffffffffffffffffffffffffffff\n      and\n      mul\n      or\n      swap1\n      sstore\n      pop\n        /* \"Practice tokens/Assignment7.sol\":876:877  0 */\n      0x00\n        /* \"Practice tokens/Assignment7.sol\":842:854  userProjects */\n      0x01\n        /* \"Practice tokens/Assignment7.sol\":842:859  userProjects[_id] */\n      0x00\n        /* \"Practice tokens/Assignment7.sol\":855:858  _id */\n      dup8\n        /* \"Practice tokens/Assignment7.sol\":842:859  userProjects[_id] */\n      dup2\n      mstore\n      0x20\n      add\n      swap1\n      dup2\n      mstore\n      0x20\n      add\n      0x00\n      keccak256\n        /* \"Practice tokens/Assignment7.sol\":842:874  userProjects[_id].recievedAmount */\n      0x04\n      add\n        /* \"Practice tokens/Assignment7.sol\":842:877  userProjects[_id].recievedAmount =0 */\n      dup2\n      swap1\n      sstore\n      pop\n        /* \"Practice tokens/Assignment7.sol\":934:943  _deadline */\n      dup1\n        /* \"Practice tokens/Assignment7.sol\":916:931  block.timestamp */\n      timestamp\n        /* \"Practice tokens/Assignment7.sol\":916:943  block.timestamp + _deadline */\n      tag_117\n      swap2\n      swap1\n      tag_91\n      jump\t// in\n    tag_117:\n        /* \"Practice tokens/Assignment7.sol\":887:899  userProjects */\n      0x01\n        /* \"Practice tokens/Assignment7.sol\":887:904  userProjects[_id] */\n      0x00\n        /* \"Practice tokens/Assignment7.sol\":900:903  _id */\n      dup8\n        /* \"Practice tokens/Assignment7.sol\":887:904  userProjects[_id] */\n      dup2\n      mstore\n      0x20\n      add\n      swap1\n      dup2\n      mstore\n      0x20\n      add\n      0x00\n      keccak256\n        /* \"Practice tokens/Assignment7.sol\":887:913  userProjects[_id].deadline */\n      0x03\n      add\n        /* \"Practice tokens/Assignment7.sol\":887:943  userProjects[_id].deadline = block.timestamp + _deadline */\n      dup2\n      swap1\n      sstore\n      pop\n        /* \"Practice tokens/Assignment7.sol\":497:950  function setProjectDetails( uint256 _id, string memory _name,string memory _description,uint256 _funding_goal, uint256 _deadline ) public {... */\n      pop\n      pop\n      pop\n      pop\n      pop\n      jump\t// out\n    tag_79:\n      pop\n      dup1\n      sload\n      tag_118\n      swap1\n      tag_34\n      jump\t// in\n    tag_118:\n      0x00\n      dup3\n      sstore\n      dup1\n      0x1f\n      lt\n      tag_120\n      jumpi\n      pop\n      jump(tag_119)\n    tag_120:\n      0x1f\n      add\n      0x20\n      swap1\n      div\n      swap1\n      0x00\n      mstore\n      keccak256(0x00, 0x20)\n      swap1\n      dup2\n      add\n      swap1\n      tag_121\n      swap2\n      swap1\n      tag_122\n      jump\t// in\n    tag_121:\n    tag_119:\n      pop\n      jump\t// out\n    tag_82:\n      pop\n      dup1\n      sload\n      0x00\n      dup3\n      sstore\n      0x02\n      mul\n      swap1\n      0x00\n      mstore\n      keccak256(0x00, 0x20)\n      swap1\n      dup2\n      add\n      swap1\n      tag_124\n      swap2\n      swap1\n      tag_125\n      jump\t// in\n    tag_124:\n      pop\n      jump\t// out\n    tag_122:\n    tag_126:\n      dup1\n      dup3\n      gt\n      iszero\n      tag_127\n      jumpi\n      0x00\n      dup2\n      0x00\n      swap1\n      sstore\n      pop\n      0x01\n      add\n      jump(tag_126)\n    tag_127:\n      pop\n      swap1\n      jump\t// out\n    tag_125:\n    tag_128:\n      dup1\n      dup3\n      gt\n      iszero\n      tag_129\n      jumpi\n      0x00\n      dup1\n      dup3\n      add\n      exp(0x0100, 0x00)\n      dup2\n      sload\n      swap1\n      0xffffffffffffffffffffffffffffffffffffffff\n      mul\n      not\n      and\n      swap1\n      sstore\n      0x01\n      dup3\n      add\n      0x00\n      swap1\n      sstore\n      pop\n      0x02\n      add\n      jump(tag_128)\n    tag_129:\n      pop\n      swap1\n      jump\t// out\n        /* \"#utility.yul\":7:82   */\n    tag_130:\n        /* \"#utility.yul\":40:46   */\n      0x00\n        /* \"#utility.yul\":73:75   */\n      0x40\n        /* \"#utility.yul\":67:76   */\n      mload\n        /* \"#utility.yul\":57:76   */\n      swap1\n      pop\n        /* \"#utility.yul\":7:82   */\n      swap1\n      jump\t// out\n        /* \"#utility.yul\":88:205   */\n    tag_131:\n        /* \"#utility.yul\":197:198   */\n      0x00\n        /* \"#utility.yul\":194:195   */\n      dup1\n        /* \"#utility.yul\":187:199   */\n      revert\n        /* \"#utility.yul\":211:328   */\n    tag_132:\n        /* \"#utility.yul\":320:321   */\n      0x00\n        /* \"#utility.yul\":317:318   */\n      dup1\n        /* \"#utility.yul\":310:322   */\n      revert\n        /* \"#utility.yul\":334:411   */\n    tag_133:\n        /* \"#utility.yul\":371:378   */\n      0x00\n        /* \"#utility.yul\":400:405   */\n      dup2\n        /* \"#utility.yul\":389:405   */\n      swap1\n      pop\n        /* \"#utility.yul\":334:411   */\n      swap2\n      swap1\n      pop\n      jump\t// out\n        /* \"#utility.yul\":417:539   */\n    tag_134:\n        /* \"#utility.yul\":490:514   */\n      tag_187\n        /* \"#utility.yul\":508:513   */\n      dup2\n        /* \"#utility.yul\":490:514   */\n      tag_133\n      jump\t// in\n    tag_187:\n        /* \"#utility.yul\":483:488   */\n      dup2\n        /* \"#utility.yul\":480:515   */\n      eq\n        /* \"#utility.yul\":470:533   */\n      tag_188\n      jumpi\n        /* \"#utility.yul\":529:530   */\n      0x00\n        /* \"#utility.yul\":526:527   */\n      dup1\n        /* \"#utility.yul\":519:531   */\n      revert\n        /* \"#utility.yul\":470:533   */\n    tag_188:\n        /* \"#utility.yul\":417:539   */\n      pop\n      jump\t// out\n        /* \"#utility.yul\":545:684   */\n    tag_135:\n        /* \"#utility.yul\":591:596   */\n      0x00\n        /* \"#utility.yul\":629:635   */\n      dup2\n        /* \"#utility.yul\":616:636   */\n      calldataload\n        /* \"#utility.yul\":607:636   */\n      swap1\n      pop\n        /* \"#utility.yul\":645:678   */\n      tag_190\n        /* \"#utility.yul\":672:677   */\n      dup2\n        /* \"#utility.yul\":645:678   */\n      tag_134\n      jump\t// in\n    tag_190:\n        /* \"#utility.yul\":545:684   */\n      swap3\n      swap2\n      pop\n      pop\n      jump\t// out\n        /* \"#utility.yul\":690:1019   */\n    tag_11:\n        /* \"#utility.yul\":749:755   */\n      0x00\n        /* \"#utility.yul\":798:800   */\n      0x20\n        /* \"#utility.yul\":786:795   */\n      dup3\n        /* \"#utility.yul\":777:784   */\n      dup5\n        /* \"#utility.yul\":773:796   */\n      sub\n        /* \"#utility.yul\":769:801   */\n      slt\n        /* \"#utility.yul\":766:885   */\n      iszero\n      tag_192\n      jumpi\n        /* \"#utility.yul\":804:883   */\n      tag_193\n      tag_131\n      jump\t// in\n    tag_193:\n        /* \"#utility.yul\":766:885   */\n    tag_192:\n        /* \"#utility.yul\":924:925   */\n      0x00\n        /* \"#utility.yul\":949:1002   */\n      tag_194\n        /* \"#utility.yul\":994:1001   */\n      dup5\n        /* \"#utility.yul\":985:991   */\n      dup3\n        /* \"#utility.yul\":974:983   */\n      dup6\n        /* \"#utility.yul\":970:992   */\n      add\n        /* \"#utility.yul\":949:1002   */\n      tag_135\n      jump\t// in\n    tag_194:\n        /* \"#utility.yul\":939:1002   */\n      swap2\n      pop\n        /* \"#utility.yul\":895:1012   */\n      pop\n        /* \"#utility.yul\":690:1019   */\n      swap3\n      swap2\n      pop\n      pop\n      jump\t// out\n        /* \"#utility.yul\":1025:1124   */\n    tag_136:\n        /* \"#utility.yul\":1077:1083   */\n      0x00\n        /* \"#utility.yul\":1111:1116   */\n      dup2\n        /* \"#utility.yul\":1105:1117   */\n      mload\n        /* \"#utility.yul\":1095:1117   */\n      swap1\n      pop\n        /* \"#utility.yul\":1025:1124   */\n      swap2\n      swap1\n      pop\n      jump\t// out\n        /* \"#utility.yul\":1130:1299   */\n    tag_137:\n        /* \"#utility.yul\":1214:1225   */\n      0x00\n        /* \"#utility.yul\":1248:1254   */\n      dup3\n        /* \"#utility.yul\":1243:1246   */\n      dup3\n        /* \"#utility.yul\":1236:1255   */\n      mstore\n        /* \"#utility.yul\":1288:1292   */\n      0x20\n        /* \"#utility.yul\":1283:1286   */\n      dup3\n        /* \"#utility.yul\":1279:1293   */\n      add\n        /* \"#utility.yul\":1264:1293   */\n      swap1\n      pop\n        /* \"#utility.yul\":1130:1299   */\n      swap3\n      swap2\n      pop\n      pop\n      jump\t// out\n        /* \"#utility.yul\":1305:1551   */\n    tag_138:\n        /* \"#utility.yul\":1386:1387   */\n      0x00\n        /* \"#utility.yul\":1396:1509   */\n    tag_198:\n        /* \"#utility.yul\":1410:1416   */\n      dup4\n        /* \"#utility.yul\":1407:1408   */\n      dup2\n        /* \"#utility.yul\":1404:1417   */\n      lt\n        /* \"#utility.yul\":1396:1509   */\n      iszero\n      tag_200\n      jumpi\n        /* \"#utility.yul\":1495:1496   */\n      dup1\n        /* \"#utility.yul\":1490:1493   */\n      dup3\n        /* \"#utility.yul\":1486:1497   */\n      add\n        /* \"#utility.yul\":1480:1498   */\n      mload\n        /* \"#utility.yul\":1476:1477   */\n      dup2\n        /* \"#utility.yul\":1471:1474   */\n      dup5\n        /* \"#utility.yul\":1467:1478   */\n      add\n        /* \"#utility.yul\":1460:1499   */\n      mstore\n        /* \"#utility.yul\":1432:1434   */\n      0x20\n        /* \"#utility.yul\":1429:1430   */\n      dup2\n        /* \"#utility.yul\":1425:1435   */\n      add\n        /* \"#utility.yul\":1420:1435   */\n      swap1\n      pop\n        /* \"#utility.yul\":1396:1509   */\n      jump(tag_198)\n    tag_200:\n        /* \"#utility.yul\":1543:1544   */\n      0x00\n        /* \"#utility.yul\":1534:1540   */\n      dup5\n        /* \"#utility.yul\":1529:1532   */\n      dup5\n        /* \"#utility.yul\":1525:1541   */\n      add\n        /* \"#utility.yul\":1518:1545   */\n      mstore\n        /* \"#utility.yul\":1367:1551   */\n      pop\n        /* \"#utility.yul\":1305:1551   */\n      pop\n      pop\n      pop\n      jump\t// out\n        /* \"#utility.yul\":1557:1659   */\n    tag_139:\n        /* \"#utility.yul\":1598:1604   */\n      0x00\n        /* \"#utility.yul\":1649:1651   */\n      0x1f\n        /* \"#utility.yul\":1645:1652   */\n      not\n        /* \"#utility.yul\":1640:1642   */\n      0x1f\n        /* \"#utility.yul\":1633:1638   */\n      dup4\n        /* \"#utility.yul\":1629:1643   */\n      add\n        /* \"#utility.yul\":1625:1653   */\n      and\n        /* \"#utility.yul\":1615:1653   */\n      swap1\n      pop\n        /* \"#utility.yul\":1557:1659   */\n      swap2\n      swap1\n      pop\n      jump\t// out\n        /* \"#utility.yul\":1665:2042   */\n    tag_140:\n        /* \"#utility.yul\":1753:1756   */\n      0x00\n        /* \"#utility.yul\":1781:1820   */\n      tag_203\n        /* \"#utility.yul\":1814:1819   */\n      dup3\n        /* \"#utility.yul\":1781:1820   */\n      tag_136\n      jump\t// in\n    tag_203:\n        /* \"#utility.yul\":1836:1907   */\n      tag_204\n        /* \"#utility.yul\":1900:1906   */\n      dup2\n        /* \"#utility.yul\":1895:1898   */\n      dup6\n        /* \"#utility.yul\":1836:1907   */\n      tag_137\n      jump\t// in\n    tag_204:\n        /* \"#utility.yul\":1829:1907   */\n      swap4\n      pop\n        /* \"#utility.yul\":1916:1981   */\n      tag_205\n        /* \"#utility.yul\":1974:1980   */\n      dup2\n        /* \"#utility.yul\":1969:1972   */\n      dup6\n        /* \"#utility.yul\":1962:1966   */\n      0x20\n        /* \"#utility.yul\":1955:1960   */\n      dup7\n        /* \"#utility.yul\":1951:1967   */\n      add\n        /* \"#utility.yul\":1916:1981   */\n      tag_138\n      jump\t// in\n    tag_205:\n        /* \"#utility.yul\":2006:2035   */\n      tag_206\n        /* \"#utility.yul\":2028:2034   */\n      dup2\n        /* \"#utility.yul\":2006:2035   */\n      tag_139\n      jump\t// in\n    tag_206:\n        /* \"#utility.yul\":2001:2004   */\n      dup5\n        /* \"#utility.yul\":1997:2036   */\n      add\n        /* \"#utility.yul\":1990:2036   */\n      swap2\n      pop\n        /* \"#utility.yul\":1757:2042   */\n      pop\n        /* \"#utility.yul\":1665:2042   */\n      swap3\n      swap2\n      pop\n      pop\n      jump\t// out\n        /* \"#utility.yul\":2048:2166   */\n    tag_141:\n        /* \"#utility.yul\":2135:2159   */\n      tag_208\n        /* \"#utility.yul\":2153:2158   */\n      dup2\n        /* \"#utility.yul\":2135:2159   */\n      tag_133\n      jump\t// in\n    tag_208:\n        /* \"#utility.yul\":2130:2133   */\n      dup3\n        /* \"#utility.yul\":2123:2160   */\n      mstore\n        /* \"#utility.yul\":2048:2166   */\n      pop\n      pop\n      jump\t// out\n        /* \"#utility.yul\":2172:2298   */\n    tag_142:\n        /* \"#utility.yul\":2209:2216   */\n      0x00\n        /* \"#utility.yul\":2249:2291   */\n      0xffffffffffffffffffffffffffffffffffffffff\n        /* \"#utility.yul\":2242:2247   */\n      dup3\n        /* \"#utility.yul\":2238:2292   */\n      and\n        /* \"#utility.yul\":2227:2292   */\n      swap1\n      pop\n        /* \"#utility.yul\":2172:2298   */\n      swap2\n      swap1\n      pop\n      jump\t// out\n        /* \"#utility.yul\":2304:2400   */\n    tag_143:\n        /* \"#utility.yul\":2341:2348   */\n      0x00\n        /* \"#utility.yul\":2370:2394   */\n      tag_211\n        /* \"#utility.yul\":2388:2393   */\n      dup3\n        /* \"#utility.yul\":2370:2394   */\n      tag_142\n      jump\t// in\n    tag_211:\n        /* \"#utility.yul\":2359:2394   */\n      swap1\n      pop\n        /* \"#utility.yul\":2304:2400   */\n      swap2\n      swap1\n      pop\n      jump\t// out\n        /* \"#utility.yul\":2406:2524   */\n    tag_144:\n        /* \"#utility.yul\":2493:2517   */\n      tag_213\n        /* \"#utility.yul\":2511:2516   */\n      dup2\n        /* \"#utility.yul\":2493:2517   */\n      tag_143\n      jump\t// in\n    tag_213:\n        /* \"#utility.yul\":2488:2491   */\n      dup3\n        /* \"#utility.yul\":2481:2518   */\n      mstore\n        /* \"#utility.yul\":2406:2524   */\n      pop\n      pop\n      jump\t// out\n        /* \"#utility.yul\":2530:3487   */\n    tag_14:\n        /* \"#utility.yul\":2803:2807   */\n      0x00\n        /* \"#utility.yul\":2841:2844   */\n      0xc0\n        /* \"#utility.yul\":2830:2839   */\n      dup3\n        /* \"#utility.yul\":2826:2845   */\n      add\n        /* \"#utility.yul\":2818:2845   */\n      swap1\n      pop\n        /* \"#utility.yul\":2891:2900   */\n      dup2\n        /* \"#utility.yul\":2885:2889   */\n      dup2\n        /* \"#utility.yul\":2881:2901   */\n      sub\n        /* \"#utility.yul\":2877:2878   */\n      0x00\n        /* \"#utility.yul\":2866:2875   */\n      dup4\n        /* \"#utility.yul\":2862:2879   */\n      add\n        /* \"#utility.yul\":2855:2902   */\n      mstore\n        /* \"#utility.yul\":2919:2997   */\n      tag_215\n        /* \"#utility.yul\":2992:2996   */\n      dup2\n        /* \"#utility.yul\":2983:2989   */\n      dup10\n        /* \"#utility.yul\":2919:2997   */\n      tag_140\n      jump\t// in\n    tag_215:\n        /* \"#utility.yul\":2911:2997   */\n      swap1\n      pop\n        /* \"#utility.yul\":3044:3053   */\n      dup2\n        /* \"#utility.yul\":3038:3042   */\n      dup2\n        /* \"#utility.yul\":3034:3054   */\n      sub\n        /* \"#utility.yul\":3029:3031   */\n      0x20\n        /* \"#utility.yul\":3018:3027   */\n      dup4\n        /* \"#utility.yul\":3014:3032   */\n      add\n        /* \"#utility.yul\":3007:3055   */\n      mstore\n        /* \"#utility.yul\":3072:3150   */\n      tag_216\n        /* \"#utility.yul\":3145:3149   */\n      dup2\n        /* \"#utility.yul\":3136:3142   */\n      dup9\n        /* \"#utility.yul\":3072:3150   */\n      tag_140\n      jump\t// in\n    tag_216:\n        /* \"#utility.yul\":3064:3150   */\n      swap1\n      pop\n        /* \"#utility.yul\":3160:3232   */\n      tag_217\n        /* \"#utility.yul\":3228:3230   */\n      0x40\n        /* \"#utility.yul\":3217:3226   */\n      dup4\n        /* \"#utility.yul\":3213:3231   */\n      add\n        /* \"#utility.yul\":3204:3210   */\n      dup8\n        /* \"#utility.yul\":3160:3232   */\n      tag_141\n      jump\t// in\n    tag_217:\n        /* \"#utility.yul\":3242:3314   */\n      tag_218\n        /* \"#utility.yul\":3310:3312   */\n      0x60\n        /* \"#utility.yul\":3299:3308   */\n      dup4\n        /* \"#utility.yul\":3295:3313   */\n      add\n        /* \"#utility.yul\":3286:3292   */\n      dup7\n        /* \"#utility.yul\":3242:3314   */\n      tag_141\n      jump\t// in\n    tag_218:\n        /* \"#utility.yul\":3324:3397   */\n      tag_219\n        /* \"#utility.yul\":3392:3395   */\n      0x80\n        /* \"#utility.yul\":3381:3390   */\n      dup4\n        /* \"#utility.yul\":3377:3396   */\n      add\n        /* \"#utility.yul\":3368:3374   */\n      dup6\n        /* \"#utility.yul\":3324:3397   */\n      tag_141\n      jump\t// in\n    tag_219:\n        /* \"#utility.yul\":3407:3480   */\n      tag_220\n        /* \"#utility.yul\":3475:3478   */\n      0xa0\n        /* \"#utility.yul\":3464:3473   */\n      dup4\n        /* \"#utility.yul\":3460:3479   */\n      add\n        /* \"#utility.yul\":3451:3457   */\n      dup5\n        /* \"#utility.yul\":3407:3480   */\n      tag_144\n      jump\t// in\n    tag_220:\n        /* \"#utility.yul\":2530:3487   */\n      swap8\n      swap7\n      pop\n      pop\n      pop\n      pop\n      pop\n      pop\n      pop\n      jump\t// out\n        /* \"#utility.yul\":3493:3610   */\n    tag_145:\n        /* \"#utility.yul\":3602:3603   */\n      0x00\n        /* \"#utility.yul\":3599:3600   */\n      dup1\n        /* \"#utility.yul\":3592:3604   */\n      revert\n        /* \"#utility.yul\":3616:3733   */\n    tag_146:\n        /* \"#utility.yul\":3725:3726   */\n      0x00\n        /* \"#utility.yul\":3722:3723   */\n      dup1\n        /* \"#utility.yul\":3715:3727   */\n      revert\n        /* \"#utility.yul\":3739:3919   */\n    tag_147:\n        /* \"#utility.yul\":3787:3864   */\n      0x4e487b7100000000000000000000000000000000000000000000000000000000\n        /* \"#utility.yul\":3784:3785   */\n      0x00\n        /* \"#utility.yul\":3777:3865   */\n      mstore\n        /* \"#utility.yul\":3884:3888   */\n      0x41\n        /* \"#utility.yul\":3881:3882   */\n      0x04\n        /* \"#utility.yul\":3874:3889   */\n      mstore\n        /* \"#utility.yul\":3908:3912   */\n      0x24\n        /* \"#utility.yul\":3905:3906   */\n      0x00\n        /* \"#utility.yul\":3898:3913   */\n      revert\n        /* \"#utility.yul\":3925:4206   */\n    tag_148:\n        /* \"#utility.yul\":4008:4035   */\n      tag_225\n        /* \"#utility.yul\":4030:4034   */\n      dup3\n        /* \"#utility.yul\":4008:4035   */\n      tag_139\n      jump\t// in\n    tag_225:\n        /* \"#utility.yul\":4000:4006   */\n      dup2\n        /* \"#utility.yul\":3996:4036   */\n      add\n        /* \"#utility.yul\":4138:4144   */\n      dup2\n        /* \"#utility.yul\":4126:4136   */\n      dup2\n        /* \"#utility.yul\":4123:4145   */\n      lt\n        /* \"#utility.yul\":4102:4120   */\n      0xffffffffffffffff\n        /* \"#utility.yul\":4090:4100   */\n      dup3\n        /* \"#utility.yul\":4087:4121   */\n      gt\n        /* \"#utility.yul\":4084:4146   */\n      or\n        /* \"#utility.yul\":4081:4169   */\n      iszero\n      tag_226\n      jumpi\n        /* \"#utility.yul\":4149:4167   */\n      tag_227\n      tag_147\n      jump\t// in\n    tag_227:\n        /* \"#utility.yul\":4081:4169   */\n    tag_226:\n        /* \"#utility.yul\":4189:4199   */\n      dup1\n        /* \"#utility.yul\":4185:4187   */\n      0x40\n        /* \"#utility.yul\":4178:4200   */\n      mstore\n        /* \"#utility.yul\":3968:4206   */\n      pop\n        /* \"#utility.yul\":3925:4206   */\n      pop\n      pop\n      jump\t// out\n        /* \"#utility.yul\":4212:4341   */\n    tag_149:\n        /* \"#utility.yul\":4246:4252   */\n      0x00\n        /* \"#utility.yul\":4273:4293   */\n      tag_229\n      tag_130\n      jump\t// in\n    tag_229:\n        /* \"#utility.yul\":4263:4293   */\n      swap1\n      pop\n        /* \"#utility.yul\":4302:4335   */\n      tag_230\n        /* \"#utility.yul\":4330:4334   */\n      dup3\n        /* \"#utility.yul\":4322:4328   */\n      dup3\n        /* \"#utility.yul\":4302:4335   */\n      tag_148\n      jump\t// in\n    tag_230:\n        /* \"#utility.yul\":4212:4341   */\n      swap2\n      swap1\n      pop\n      jump\t// out\n        /* \"#utility.yul\":4347:4655   */\n    tag_150:\n        /* \"#utility.yul\":4409:4413   */\n      0x00\n        /* \"#utility.yul\":4499:4517   */\n      0xffffffffffffffff\n        /* \"#utility.yul\":4491:4497   */\n      dup3\n        /* \"#utility.yul\":4488:4518   */\n      gt\n        /* \"#utility.yul\":4485:4541   */\n      iszero\n      tag_232\n      jumpi\n        /* \"#utility.yul\":4521:4539   */\n      tag_233\n      tag_147\n      jump\t// in\n    tag_233:\n        /* \"#utility.yul\":4485:4541   */\n    tag_232:\n        /* \"#utility.yul\":4559:4588   */\n      tag_234\n        /* \"#utility.yul\":4581:4587   */\n      dup3\n        /* \"#utility.yul\":4559:4588   */\n      tag_139\n      jump\t// in\n    tag_234:\n        /* \"#utility.yul\":4551:4588   */\n      swap1\n      pop\n        /* \"#utility.yul\":4643:4647   */\n      0x20\n        /* \"#utility.yul\":4637:4641   */\n      dup2\n        /* \"#utility.yul\":4633:4648   */\n      add\n        /* \"#utility.yul\":4625:4648   */\n      swap1\n      pop\n        /* \"#utility.yul\":4347:4655   */\n      swap2\n      swap1\n      pop\n      jump\t// out\n        /* \"#utility.yul\":4661:4807   */\n    tag_151:\n        /* \"#utility.yul\":4758:4764   */\n      dup3\n        /* \"#utility.yul\":4753:4756   */\n      dup2\n        /* \"#utility.yul\":4748:4751   */\n      dup4\n        /* \"#utility.yul\":4735:4765   */\n      calldatacopy\n        /* \"#utility.yul\":4799:4800   */\n      0x00\n        /* \"#utility.yul\":4790:4796   */\n      dup4\n        /* \"#utility.yul\":4785:4788   */\n      dup4\n        /* \"#utility.yul\":4781:4797   */\n      add\n        /* \"#utility.yul\":4774:4801   */\n      mstore\n        /* \"#utility.yul\":4661:4807   */\n      pop\n      pop\n      pop\n      jump\t// out\n        /* \"#utility.yul\":4813:5238   */\n    tag_152:\n        /* \"#utility.yul\":4891:4896   */\n      0x00\n        /* \"#utility.yul\":4916:4982   */\n      tag_237\n        /* \"#utility.yul\":4932:4981   */\n      tag_238\n        /* \"#utility.yul\":4974:4980   */\n      dup5\n        /* \"#utility.yul\":4932:4981   */\n      tag_150\n      jump\t// in\n    tag_238:\n        /* \"#utility.yul\":4916:4982   */\n      tag_149\n      jump\t// in\n    tag_237:\n        /* \"#utility.yul\":4907:4982   */\n      swap1\n      pop\n        /* \"#utility.yul\":5005:5011   */\n      dup3\n        /* \"#utility.yul\":4998:5003   */\n      dup2\n        /* \"#utility.yul\":4991:5012   */\n      mstore\n        /* \"#utility.yul\":5043:5047   */\n      0x20\n        /* \"#utility.yul\":5036:5041   */\n      dup2\n        /* \"#utility.yul\":5032:5048   */\n      add\n        /* \"#utility.yul\":5081:5084   */\n      dup5\n        /* \"#utility.yul\":5072:5078   */\n      dup5\n        /* \"#utility.yul\":5067:5070   */\n      dup5\n        /* \"#utility.yul\":5063:5079   */\n      add\n        /* \"#utility.yul\":5060:5085   */\n      gt\n        /* \"#utility.yul\":5057:5169   */\n      iszero\n      tag_239\n      jumpi\n        /* \"#utility.yul\":5088:5167   */\n      tag_240\n      tag_146\n      jump\t// in\n    tag_240:\n        /* \"#utility.yul\":5057:5169   */\n    tag_239:\n        /* \"#utility.yul\":5178:5232   */\n      tag_241\n        /* \"#utility.yul\":5225:5231   */\n      dup5\n        /* \"#utility.yul\":5220:5223   */\n      dup3\n        /* \"#utility.yul\":5215:5218   */\n      dup6\n        /* \"#utility.yul\":5178:5232   */\n      tag_151\n      jump\t// in\n    tag_241:\n        /* \"#utility.yul\":4897:5238   */\n      pop\n        /* \"#utility.yul\":4813:5238   */\n      swap4\n      swap3\n      pop\n      pop\n      pop\n      jump\t// out\n        /* \"#utility.yul\":5258:5598   */\n    tag_153:\n        /* \"#utility.yul\":5314:5319   */\n      0x00\n        /* \"#utility.yul\":5363:5366   */\n      dup3\n        /* \"#utility.yul\":5356:5360   */\n      0x1f\n        /* \"#utility.yul\":5348:5354   */\n      dup4\n        /* \"#utility.yul\":5344:5361   */\n      add\n        /* \"#utility.yul\":5340:5367   */\n      slt\n        /* \"#utility.yul\":5330:5452   */\n      tag_243\n      jumpi\n        /* \"#utility.yul\":5371:5450   */\n      tag_244\n      tag_145\n      jump\t// in\n    tag_244:\n        /* \"#utility.yul\":5330:5452   */\n    tag_243:\n        /* \"#utility.yul\":5488:5494   */\n      dup2\n        /* \"#utility.yul\":5475:5495   */\n      calldataload\n        /* \"#utility.yul\":5513:5592   */\n      tag_245\n        /* \"#utility.yul\":5588:5591   */\n      dup5\n        /* \"#utility.yul\":5580:5586   */\n      dup3\n        /* \"#utility.yul\":5573:5577   */\n      0x20\n        /* \"#utility.yul\":5565:5571   */\n      dup7\n        /* \"#utility.yul\":5561:5578   */\n      add\n        /* \"#utility.yul\":5513:5592   */\n      tag_152\n      jump\t// in\n    tag_245:\n        /* \"#utility.yul\":5504:5592   */\n      swap2\n      pop\n        /* \"#utility.yul\":5320:5598   */\n      pop\n        /* \"#utility.yul\":5258:5598   */\n      swap3\n      swap2\n      pop\n      pop\n      jump\t// out\n        /* \"#utility.yul\":5604:6875   */\n    tag_31:\n        /* \"#utility.yul\":5719:5725   */\n      0x00\n        /* \"#utility.yul\":5727:5733   */\n      dup1\n        /* \"#utility.yul\":5735:5741   */\n      0x00\n        /* \"#utility.yul\":5743:5749   */\n      dup1\n        /* \"#utility.yul\":5751:5757   */\n      0x00\n        /* \"#utility.yul\":5800:5803   */\n      0xa0\n        /* \"#utility.yul\":5788:5797   */\n      dup7\n        /* \"#utility.yul\":5779:5786   */\n      dup9\n        /* \"#utility.yul\":5775:5798   */\n      sub\n        /* \"#utility.yul\":5771:5804   */\n      slt\n        /* \"#utility.yul\":5768:5888   */\n      iszero\n      tag_247\n      jumpi\n        /* \"#utility.yul\":5807:5886   */\n      tag_248\n      tag_131\n      jump\t// in\n    tag_248:\n        /* \"#utility.yul\":5768:5888   */\n    tag_247:\n        /* \"#utility.yul\":5927:5928   */\n      0x00\n        /* \"#utility.yul\":5952:6005   */\n      tag_249\n        /* \"#utility.yul\":5997:6004   */\n      dup9\n        /* \"#utility.yul\":5988:5994   */\n      dup3\n        /* \"#utility.yul\":5977:5986   */\n      dup10\n        /* \"#utility.yul\":5973:5995   */\n      add\n        /* \"#utility.yul\":5952:6005   */\n      tag_135\n      jump\t// in\n    tag_249:\n        /* \"#utility.yul\":5942:6005   */\n      swap6\n      pop\n        /* \"#utility.yul\":5898:6015   */\n      pop\n        /* \"#utility.yul\":6082:6084   */\n      0x20\n        /* \"#utility.yul\":6071:6080   */\n      dup7\n        /* \"#utility.yul\":6067:6085   */\n      add\n        /* \"#utility.yul\":6054:6086   */\n      calldataload\n        /* \"#utility.yul\":6113:6131   */\n      0xffffffffffffffff\n        /* \"#utility.yul\":6105:6111   */\n      dup2\n        /* \"#utility.yul\":6102:6132   */\n      gt\n        /* \"#utility.yul\":6099:6216   */\n      iszero\n      tag_250\n      jumpi\n        /* \"#utility.yul\":6135:6214   */\n      tag_251\n      tag_132\n      jump\t// in\n    tag_251:\n        /* \"#utility.yul\":6099:6216   */\n    tag_250:\n        /* \"#utility.yul\":6240:6303   */\n      tag_252\n        /* \"#utility.yul\":6295:6302   */\n      dup9\n        /* \"#utility.yul\":6286:6292   */\n      dup3\n        /* \"#utility.yul\":6275:6284   */\n      dup10\n        /* \"#utility.yul\":6271:6293   */\n      add\n        /* \"#utility.yul\":6240:6303   */\n      tag_153\n      jump\t// in\n    tag_252:\n        /* \"#utility.yul\":6230:6303   */\n      swap5\n      pop\n        /* \"#utility.yul\":6025:6313   */\n      pop\n        /* \"#utility.yul\":6380:6382   */\n      0x40\n        /* \"#utility.yul\":6369:6378   */\n      dup7\n        /* \"#utility.yul\":6365:6383   */\n      add\n        /* \"#utility.yul\":6352:6384   */\n      calldataload\n        /* \"#utility.yul\":6411:6429   */\n      0xffffffffffffffff\n        /* \"#utility.yul\":6403:6409   */\n      dup2\n        /* \"#utility.yul\":6400:6430   */\n      gt\n        /* \"#utility.yul\":6397:6514   */\n      iszero\n      tag_253\n      jumpi\n        /* \"#utility.yul\":6433:6512   */\n      tag_254\n      tag_132\n      jump\t// in\n    tag_254:\n        /* \"#utility.yul\":6397:6514   */\n    tag_253:\n        /* \"#utility.yul\":6538:6601   */\n      tag_255\n        /* \"#utility.yul\":6593:6600   */\n      dup9\n        /* \"#utility.yul\":6584:6590   */\n      dup3\n        /* \"#utility.yul\":6573:6582   */\n      dup10\n        /* \"#utility.yul\":6569:6591   */\n      add\n        /* \"#utility.yul\":6538:6601   */\n      tag_153\n      jump\t// in\n    tag_255:\n        /* \"#utility.yul\":6528:6601   */\n      swap4\n      pop\n        /* \"#utility.yul\":6323:6611   */\n      pop\n        /* \"#utility.yul\":6650:6652   */\n      0x60\n        /* \"#utility.yul\":6676:6729   */\n      tag_256\n        /* \"#utility.yul\":6721:6728   */\n      dup9\n        /* \"#utility.yul\":6712:6718   */\n      dup3\n        /* \"#utility.yul\":6701:6710   */\n      dup10\n        /* \"#utility.yul\":6697:6719   */\n      add\n        /* \"#utility.yul\":6676:6729   */\n      tag_135\n      jump\t// in\n    tag_256:\n        /* \"#utility.yul\":6666:6729   */\n      swap3\n      pop\n        /* \"#utility.yul\":6621:6739   */\n      pop\n        /* \"#utility.yul\":6778:6781   */\n      0x80\n        /* \"#utility.yul\":6805:6858   */\n      tag_257\n        /* \"#utility.yul\":6850:6857   */\n      dup9\n        /* \"#utility.yul\":6841:6847   */\n      dup3\n        /* \"#utility.yul\":6830:6839   */\n      dup10\n        /* \"#utility.yul\":6826:6848   */\n      add\n        /* \"#utility.yul\":6805:6858   */\n      tag_135\n      jump\t// in\n    tag_257:\n        /* \"#utility.yul\":6795:6858   */\n      swap2\n      pop\n        /* \"#utility.yul\":6749:6868   */\n      pop\n        /* \"#utility.yul\":5604:6875   */\n      swap3\n      swap6\n      pop\n      swap3\n      swap6\n      swap1\n      swap4\n      pop\n      jump\t// out\n        /* \"#utility.yul\":6881:7061   */\n    tag_154:\n        /* \"#utility.yul\":6929:7006   */\n      0x4e487b7100000000000000000000000000000000000000000000000000000000\n        /* \"#utility.yul\":6926:6927   */\n      0x00\n        /* \"#utility.yul\":6919:7007   */\n      mstore\n        /* \"#utility.yul\":7026:7030   */\n      0x22\n        /* \"#utility.yul\":7023:7024   */\n      0x04\n        /* \"#utility.yul\":7016:7031   */\n      mstore\n        /* \"#utility.yul\":7050:7054   */\n      0x24\n        /* \"#utility.yul\":7047:7048   */\n      0x00\n        /* \"#utility.yul\":7040:7055   */\n      revert\n        /* \"#utility.yul\":7067:7387   */\n    tag_34:\n        /* \"#utility.yul\":7111:7117   */\n      0x00\n        /* \"#utility.yul\":7148:7149   */\n      0x02\n        /* \"#utility.yul\":7142:7146   */\n      dup3\n        /* \"#utility.yul\":7138:7150   */\n      div\n        /* \"#utility.yul\":7128:7150   */\n      swap1\n      pop\n        /* \"#utility.yul\":7195:7196   */\n      0x01\n        /* \"#utility.yul\":7189:7193   */\n      dup3\n        /* \"#utility.yul\":7185:7197   */\n      and\n        /* \"#utility.yul\":7216:7234   */\n      dup1\n        /* \"#utility.yul\":7206:7287   */\n      tag_260\n      jumpi\n        /* \"#utility.yul\":7272:7276   */\n      0x7f\n        /* \"#utility.yul\":7264:7270   */\n      dup3\n        /* \"#utility.yul\":7260:7277   */\n      and\n        /* \"#utility.yul\":7250:7277   */\n      swap2\n      pop\n        /* \"#utility.yul\":7206:7287   */\n    tag_260:\n        /* \"#utility.yul\":7334:7336   */\n      0x20\n        /* \"#utility.yul\":7326:7332   */\n      dup3\n        /* \"#utility.yul\":7323:7337   */\n      lt\n        /* \"#utility.yul\":7303:7321   */\n      dup2\n        /* \"#utility.yul\":7300:7338   */\n      sub\n        /* \"#utility.yul\":7297:7381   */\n      tag_261\n      jumpi\n        /* \"#utility.yul\":7353:7371   */\n      tag_262\n      tag_154\n      jump\t// in\n    tag_262:\n        /* \"#utility.yul\":7297:7381   */\n    tag_261:\n        /* \"#utility.yul\":7118:7387   */\n      pop\n        /* \"#utility.yul\":7067:7387   */\n      swap2\n      swap1\n      pop\n      jump\t// out\n        /* \"#utility.yul\":7393:7568   */\n    tag_155:\n        /* \"#utility.yul\":7533:7560   */\n      0x204f6e6c79204f776e65722063616e2077696474686472617700000000000000\n        /* \"#utility.yul\":7529:7530   */\n      0x00\n        /* \"#utility.yul\":7521:7527   */\n      dup3\n        /* \"#utility.yul\":7517:7531   */\n      add\n        /* \"#utility.yul\":7510:7561   */\n      mstore\n        /* \"#utility.yul\":7393:7568   */\n      pop\n      jump\t// out\n        /* \"#utility.yul\":7574:7940   */\n    tag_156:\n        /* \"#utility.yul\":7716:7719   */\n      0x00\n        /* \"#utility.yul\":7737:7804   */\n      tag_265\n        /* \"#utility.yul\":7801:7803   */\n      0x19\n        /* \"#utility.yul\":7796:7799   */\n      dup4\n        /* \"#utility.yul\":7737:7804   */\n      tag_137\n      jump\t// in\n    tag_265:\n        /* \"#utility.yul\":7730:7804   */\n      swap2\n      pop\n        /* \"#utility.yul\":7813:7906   */\n      tag_266\n        /* \"#utility.yul\":7902:7905   */\n      dup3\n        /* \"#utility.yul\":7813:7906   */\n      tag_155\n      jump\t// in\n    tag_266:\n        /* \"#utility.yul\":7931:7933   */\n      0x20\n        /* \"#utility.yul\":7926:7929   */\n      dup3\n        /* \"#utility.yul\":7922:7934   */\n      add\n        /* \"#utility.yul\":7915:7934   */\n      swap1\n      pop\n        /* \"#utility.yul\":7574:7940   */\n      swap2\n      swap1\n      pop\n      jump\t// out\n        /* \"#utility.yul\":7946:8365   */\n    tag_47:\n        /* \"#utility.yul\":8112:8116   */\n      0x00\n        /* \"#utility.yul\":8150:8152   */\n      0x20\n        /* \"#utility.yul\":8139:8148   */\n      dup3\n        /* \"#utility.yul\":8135:8153   */\n      add\n        /* \"#utility.yul\":8127:8153   */\n      swap1\n      pop\n        /* \"#utility.yul\":8199:8208   */\n      dup2\n        /* \"#utility.yul\":8193:8197   */\n      dup2\n        /* \"#utility.yul\":8189:8209   */\n      sub\n        /* \"#utility.yul\":8185:8186   */\n      0x00\n        /* \"#utility.yul\":8174:8183   */\n      dup4\n        /* \"#utility.yul\":8170:8187   */\n      add\n        /* \"#utility.yul\":8163:8210   */\n      mstore\n        /* \"#utility.yul\":8227:8358   */\n      tag_268\n        /* \"#utility.yul\":8353:8357   */\n      dup2\n        /* \"#utility.yul\":8227:8358   */\n      tag_156\n      jump\t// in\n    tag_268:\n        /* \"#utility.yul\":8219:8358   */\n      swap1\n      pop\n        /* \"#utility.yul\":7946:8365   */\n      swap2\n      swap1\n      pop\n      jump\t// out\n        /* \"#utility.yul\":8371:8551   */\n    tag_53:\n        /* \"#utility.yul\":8419:8496   */\n      0x4e487b7100000000000000000000000000000000000000000000000000000000\n        /* \"#utility.yul\":8416:8417   */\n      0x00\n        /* \"#utility.yul\":8409:8497   */\n      mstore\n        /* \"#utility.yul\":8516:8520   */\n      0x32\n        /* \"#utility.yul\":8513:8514   */\n      0x04\n        /* \"#utility.yul\":8506:8521   */\n      mstore\n        /* \"#utility.yul\":8540:8544   */\n      0x24\n        /* \"#utility.yul\":8537:8538   */\n      0x00\n        /* \"#utility.yul\":8530:8545   */\n      revert\n        /* \"#utility.yul\":8557:8737   */\n    tag_157:\n        /* \"#utility.yul\":8605:8682   */\n      0x4e487b7100000000000000000000000000000000000000000000000000000000\n        /* \"#utility.yul\":8602:8603   */\n      0x00\n        /* \"#utility.yul\":8595:8683   */\n      mstore\n        /* \"#utility.yul\":8702:8706   */\n      0x11\n        /* \"#utility.yul\":8699:8700   */\n      0x04\n        /* \"#utility.yul\":8692:8707   */\n      mstore\n        /* \"#utility.yul\":8726:8730   */\n      0x24\n        /* \"#utility.yul\":8723:8724   */\n      0x00\n        /* \"#utility.yul\":8716:8731   */\n      revert\n        /* \"#utility.yul\":8743:8976   */\n    tag_58:\n        /* \"#utility.yul\":8782:8785   */\n      0x00\n        /* \"#utility.yul\":8805:8829   */\n      tag_272\n        /* \"#utility.yul\":8823:8828   */\n      dup3\n        /* \"#utility.yul\":8805:8829   */\n      tag_133\n      jump\t// in\n    tag_272:\n        /* \"#utility.yul\":8796:8829   */\n      swap2\n      pop\n        /* \"#utility.yul\":8851:8917   */\n      0xffffffffffffffffffffffffffffffffffffffffffffffffffffffffffffffff\n        /* \"#utility.yul\":8844:8849   */\n      dup3\n        /* \"#utility.yul\":8841:8918   */\n      sub\n        /* \"#utility.yul\":8838:8941   */\n      tag_273\n      jumpi\n        /* \"#utility.yul\":8921:8939   */\n      tag_274\n      tag_157\n      jump\t// in\n    tag_274:\n        /* \"#utility.yul\":8838:8941   */\n    tag_273:\n        /* \"#utility.yul\":8968:8969   */\n      0x01\n        /* \"#utility.yul\":8961:8966   */\n      dup3\n        /* \"#utility.yul\":8957:8970   */\n      add\n        /* \"#utility.yul\":8950:8970   */\n      swap1\n      pop\n        /* \"#utility.yul\":8743:8976   */\n      swap2\n      swap1\n      pop\n      jump\t// out\n        /* \"#utility.yul\":8982:9147   */\n    tag_158:\n        /* \"#utility.yul\":9122:9139   */\n      0x6f6e6c792063616e20726566756e640000000000000000000000000000000000\n        /* \"#utility.yul\":9118:9119   */\n      0x00\n        /* \"#utility.yul\":9110:9116   */\n      dup3\n        /* \"#utility.yul\":9106:9120   */\n      add\n        /* \"#utility.yul\":9099:9140   */\n      mstore\n        /* \"#utility.yul\":8982:9147   */\n      pop\n      jump\t// out\n        /* \"#utility.yul\":9153:9519   */\n    tag_159:\n        /* \"#utility.yul\":9295:9298   */\n      0x00\n        /* \"#utility.yul\":9316:9383   */\n      tag_277\n        /* \"#utility.yul\":9380:9382   */\n      0x0f\n        /* \"#utility.yul\":9375:9378   */\n      dup4\n        /* \"#utility.yul\":9316:9383   */\n      tag_137\n      jump\t// in\n    tag_277:\n        /* \"#utility.yul\":9309:9383   */\n      swap2\n      pop\n        /* \"#utility.yul\":9392:9485   */\n      tag_278\n        /* \"#utility.yul\":9481:9484   */\n      dup3\n        /* \"#utility.yul\":9392:9485   */\n      tag_158\n      jump\t// in\n    tag_278:\n        /* \"#utility.yul\":9510:9512   */\n      0x20\n        /* \"#utility.yul\":9505:9508   */\n      dup3\n        /* \"#utility.yul\":9501:9513   */\n      add\n        /* \"#utility.yul\":9494:9513   */\n      swap1\n      pop\n        /* \"#utility.yul\":9153:9519   */\n      swap2\n      swap1\n      pop\n      jump\t// out\n        /* \"#utility.yul\":9525:9944   */\n    tag_62:\n        /* \"#utility.yul\":9691:9695   */\n      0x00\n        /* \"#utility.yul\":9729:9731   */\n      0x20\n        /* \"#utility.yul\":9718:9727   */\n      dup3\n        /* \"#utility.yul\":9714:9732   */\n      add\n        /* \"#utility.yul\":9706:9732   */\n      swap1\n      pop\n        /* \"#utility.yul\":9778:9787   */\n      dup2\n        /* \"#utility.yul\":9772:9776   */\n      dup2\n        /* \"#utility.yul\":9768:9788   */\n      sub\n        /* \"#utility.yul\":9764:9765   */\n      0x00\n        /* \"#utility.yul\":9753:9762   */\n      dup4\n        /* \"#utility.yul\":9749:9766   */\n      add\n        /* \"#utility.yul\":9742:9789   */\n      mstore\n        /* \"#utility.yul\":9806:9937   */\n      tag_280\n        /* \"#utility.yul\":9932:9936   */\n      dup2\n        /* \"#utility.yul\":9806:9937   */\n      tag_159\n      jump\t// in\n    tag_280:\n        /* \"#utility.yul\":9798:9937   */\n      swap1\n      pop\n        /* \"#utility.yul\":9525:9944   */\n      swap2\n      swap1\n      pop\n      jump\t// out\n        /* \"#utility.yul\":9950:10176   */\n    tag_160:\n        /* \"#utility.yul\":10090:10124   */\n      0x205374696c6c206861766520736f6d652074696d65206c65667420666f722066\n        /* \"#utility.yul\":10086:10087   */\n      0x00\n        /* \"#utility.yul\":10078:10084   */\n      dup3\n        /* \"#utility.yul\":10074:10088   */\n      add\n        /* \"#utility.yul\":10067:10125   */\n      mstore\n        /* \"#utility.yul\":10159:10168   */\n      0x756e64696e672000000000000000000000000000000000000000000000000000\n        /* \"#utility.yul\":10154:10156   */\n      0x20\n        /* \"#utility.yul\":10146:10152   */\n      dup3\n        /* \"#utility.yul\":10142:10157   */\n      add\n        /* \"#utility.yul\":10135:10169   */\n      mstore\n        /* \"#utility.yul\":9950:10176   */\n      pop\n      jump\t// out\n        /* \"#utility.yul\":10182:10548   */\n    tag_161:\n        /* \"#utility.yul\":10324:10327   */\n      0x00\n        /* \"#utility.yul\":10345:10412   */\n      tag_283\n        /* \"#utility.yul\":10409:10411   */\n      0x27\n        /* \"#utility.yul\":10404:10407   */\n      dup4\n        /* \"#utility.yul\":10345:10412   */\n      tag_137\n      jump\t// in\n    tag_283:\n        /* \"#utility.yul\":10338:10412   */\n      swap2\n      pop\n        /* \"#utility.yul\":10421:10514   */\n      tag_284\n        /* \"#utility.yul\":10510:10513   */\n      dup3\n        /* \"#utility.yul\":10421:10514   */\n      tag_160\n      jump\t// in\n    tag_284:\n        /* \"#utility.yul\":10539:10541   */\n      0x40\n        /* \"#utility.yul\":10534:10537   */\n      dup3\n        /* \"#utility.yul\":10530:10542   */\n      add\n        /* \"#utility.yul\":10523:10542   */\n      swap1\n      pop\n        /* \"#utility.yul\":10182:10548   */\n      swap2\n      swap1\n      pop\n      jump\t// out\n        /* \"#utility.yul\":10554:10973   */\n    tag_65:\n        /* \"#utility.yul\":10720:10724   */\n      0x00\n        /* \"#utility.yul\":10758:10760   */\n      0x20\n        /* \"#utility.yul\":10747:10756   */\n      dup3\n        /* \"#utility.yul\":10743:10761   */\n      add\n        /* \"#utility.yul\":10735:10761   */\n      swap1\n      pop\n        /* \"#utility.yul\":10807:10816   */\n      dup2\n        /* \"#utility.yul\":10801:10805   */\n      dup2\n        /* \"#utility.yul\":10797:10817   */\n      sub\n        /* \"#utility.yul\":10793:10794   */\n      0x00\n        /* \"#utility.yul\":10782:10791   */\n      dup4\n        /* \"#utility.yul\":10778:10795   */\n      add\n        /* \"#utility.yul\":10771:10818   */\n      mstore\n        /* \"#utility.yul\":10835:10966   */\n      tag_286\n        /* \"#utility.yul\":10961:10965   */\n      dup2\n        /* \"#utility.yul\":10835:10966   */\n      tag_161\n      jump\t// in\n    tag_286:\n        /* \"#utility.yul\":10827:10966   */\n      swap1\n      pop\n        /* \"#utility.yul\":10554:10973   */\n      swap2\n      swap1\n      pop\n      jump\t// out\n        /* \"#utility.yul\":10979:11152   */\n    tag_162:\n        /* \"#utility.yul\":11119:11144   */\n      0x204f776e65722063616e277420636f6e74726962757465000000000000000000\n        /* \"#utility.yul\":11115:11116   */\n      0x00\n        /* \"#utility.yul\":11107:11113   */\n      dup3\n        /* \"#utility.yul\":11103:11117   */\n      add\n        /* \"#utility.yul\":11096:11145   */\n      mstore\n        /* \"#utility.yul\":10979:11152   */\n      pop\n      jump\t// out\n        /* \"#utility.yul\":11158:11524   */\n    tag_163:\n        /* \"#utility.yul\":11300:11303   */\n      0x00\n        /* \"#utility.yul\":11321:11388   */\n      tag_289\n        /* \"#utility.yul\":11385:11387   */\n      0x17\n        /* \"#utility.yul\":11380:11383   */\n      dup4\n        /* \"#utility.yul\":11321:11388   */\n      tag_137\n      jump\t// in\n    tag_289:\n        /* \"#utility.yul\":11314:11388   */\n      swap2\n      pop\n        /* \"#utility.yul\":11397:11490   */\n      tag_290\n        /* \"#utility.yul\":11486:11489   */\n      dup3\n        /* \"#utility.yul\":11397:11490   */\n      tag_162\n      jump\t// in\n    tag_290:\n        /* \"#utility.yul\":11515:11517   */\n      0x20\n        /* \"#utility.yul\":11510:11513   */\n      dup3\n        /* \"#utility.yul\":11506:11518   */\n      add\n        /* \"#utility.yul\":11499:11518   */\n      swap1\n      pop\n        /* \"#utility.yul\":11158:11524   */\n      swap2\n      swap1\n      pop\n      jump\t// out\n        /* \"#utility.yul\":11530:11949   */\n    tag_86:\n        /* \"#utility.yul\":11696:11700   */\n      0x00\n        /* \"#utility.yul\":11734:11736   */\n      0x20\n        /* \"#utility.yul\":11723:11732   */\n      dup3\n        /* \"#utility.yul\":11719:11737   */\n      add\n        /* \"#utility.yul\":11711:11737   */\n      swap1\n      pop\n        /* \"#utility.yul\":11783:11792   */\n      dup2\n        /* \"#utility.yul\":11777:11781   */\n      dup2\n        /* \"#utility.yul\":11773:11793   */\n      sub\n        /* \"#utility.yul\":11769:11770   */\n      0x00\n        /* \"#utility.yul\":11758:11767   */\n      dup4\n        /* \"#utility.yul\":11754:11771   */\n      add\n        /* \"#utility.yul\":11747:11794   */\n      mstore\n        /* \"#utility.yul\":11811:11942   */\n      tag_292\n        /* \"#utility.yul\":11937:11941   */\n      dup2\n        /* \"#utility.yul\":11811:11942   */\n      tag_163\n      jump\t// in\n    tag_292:\n        /* \"#utility.yul\":11803:11942   */\n      swap1\n      pop\n        /* \"#utility.yul\":11530:11949   */\n      swap2\n      swap1\n      pop\n      jump\t// out\n        /* \"#utility.yul\":11955:12184   */\n    tag_164:\n        /* \"#utility.yul\":12095:12129   */\n      0x416d6f756e742063616e206e6f742062652067726561746572207468616e2067\n        /* \"#utility.yul\":12091:12092   */\n      0x00\n        /* \"#utility.yul\":12083:12089   */\n      dup3\n        /* \"#utility.yul\":12079:12093   */\n      add\n        /* \"#utility.yul\":12072:12130   */\n      mstore\n        /* \"#utility.yul\":12164:12176   */\n      0x6f616c20616d6f756e7400000000000000000000000000000000000000000000\n        /* \"#utility.yul\":12159:12161   */\n      0x20\n        /* \"#utility.yul\":12151:12157   */\n      dup3\n        /* \"#utility.yul\":12147:12162   */\n      add\n        /* \"#utility.yul\":12140:12177   */\n      mstore\n        /* \"#utility.yul\":11955:12184   */\n      pop\n      jump\t// out\n        /* \"#utility.yul\":12190:12556   */\n    tag_165:\n        /* \"#utility.yul\":12332:12335   */\n      0x00\n        /* \"#utility.yul\":12353:12420   */\n      tag_295\n        /* \"#utility.yul\":12417:12419   */\n      0x2a\n        /* \"#utility.yul\":12412:12415   */\n      dup4\n        /* \"#utility.yul\":12353:12420   */\n      tag_137\n      jump\t// in\n    tag_295:\n        /* \"#utility.yul\":12346:12420   */\n      swap2\n      pop\n        /* \"#utility.yul\":12429:12522   */\n      tag_296\n        /* \"#utility.yul\":12518:12521   */\n      dup3\n        /* \"#utility.yul\":12429:12522   */\n      tag_164\n      jump\t// in\n    tag_296:\n        /* \"#utility.yul\":12547:12549   */\n      0x40\n        /* \"#utility.yul\":12542:12545   */\n      dup3\n        /* \"#utility.yul\":12538:12550   */\n      add\n        /* \"#utility.yul\":12531:12550   */\n      swap1\n      pop\n        /* \"#utility.yul\":12190:12556   */\n      swap2\n      swap1\n      pop\n      jump\t// out\n        /* \"#utility.yul\":12562:12981   */\n    tag_89:\n        /* \"#utility.yul\":12728:12732   */\n      0x00\n        /* \"#utility.yul\":12766:12768   */\n      0x20\n        /* \"#utility.yul\":12755:12764   */\n      dup3\n        /* \"#utility.yul\":12751:12769   */\n      add\n        /* \"#utility.yul\":12743:12769   */\n      swap1\n      pop\n        /* \"#utility.yul\":12815:12824   */\n      dup2\n        /* \"#utility.yul\":12809:12813   */\n      dup2\n        /* \"#utility.yul\":12805:12825   */\n      sub\n        /* \"#utility.yul\":12801:12802   */\n      0x00\n        /* \"#utility.yul\":12790:12799   */\n      dup4\n        /* \"#utility.yul\":12786:12803   */\n      add\n        /* \"#utility.yul\":12779:12826   */\n      mstore\n        /* \"#utility.yul\":12843:12974   */\n      tag_298\n        /* \"#utility.yul\":12969:12973   */\n      dup2\n        /* \"#utility.yul\":12843:12974   */\n      tag_165\n      jump\t// in\n    tag_298:\n        /* \"#utility.yul\":12835:12974   */\n      swap1\n      pop\n        /* \"#utility.yul\":12562:12981   */\n      swap2\n      swap1\n      pop\n      jump\t// out\n        /* \"#utility.yul\":12987:13178   */\n    tag_91:\n        /* \"#utility.yul\":13027:13030   */\n      0x00\n        /* \"#utility.yul\":13046:13066   */\n      tag_300\n        /* \"#utility.yul\":13064:13065   */\n      dup3\n        /* \"#utility.yul\":13046:13066   */\n      tag_133\n      jump\t// in\n    tag_300:\n        /* \"#utility.yul\":13041:13066   */\n      swap2\n      pop\n        /* \"#utility.yul\":13080:13100   */\n      tag_301\n        /* \"#utility.yul\":13098:13099   */\n      dup4\n        /* \"#utility.yul\":13080:13100   */\n      tag_133\n      jump\t// in\n    tag_301:\n        /* \"#utility.yul\":13075:13100   */\n      swap3\n      pop\n        /* \"#utility.yul\":13123:13124   */\n      dup3\n        /* \"#utility.yul\":13120:13121   */\n      dup3\n        /* \"#utility.yul\":13116:13125   */\n      add\n        /* \"#utility.yul\":13109:13125   */\n      swap1\n      pop\n        /* \"#utility.yul\":13144:13147   */\n      dup1\n        /* \"#utility.yul\":13141:13142   */\n      dup3\n        /* \"#utility.yul\":13138:13148   */\n      gt\n        /* \"#utility.yul\":13135:13171   */\n      iszero\n      tag_302\n      jumpi\n        /* \"#utility.yul\":13151:13169   */\n      tag_303\n      tag_157\n      jump\t// in\n    tag_303:\n        /* \"#utility.yul\":13135:13171   */\n    tag_302:\n        /* \"#utility.yul\":12987:13178   */\n      swap3\n      swap2\n      pop\n      pop\n      jump\t// out\n        /* \"#utility.yul\":13184:13325   */\n    tag_166:\n        /* \"#utility.yul\":13233:13237   */\n      0x00\n        /* \"#utility.yul\":13256:13259   */\n      dup2\n        /* \"#utility.yul\":13248:13259   */\n      swap1\n      pop\n        /* \"#utility.yul\":13279:13282   */\n      dup2\n        /* \"#utility.yul\":13276:13277   */\n      0x00\n        /* \"#utility.yul\":13269:13283   */\n      mstore\n        /* \"#utility.yul\":13313:13317   */\n      0x20\n        /* \"#utility.yul\":13310:13311   */\n      0x00\n        /* \"#utility.yul\":13300:13318   */\n      keccak256\n        /* \"#utility.yul\":13292:13318   */\n      swap1\n      pop\n        /* \"#utility.yul\":13184:13325   */\n      swap2\n      swap1\n      pop\n      jump\t// out\n        /* \"#utility.yul\":13331:13424   */\n    tag_167:\n        /* \"#utility.yul\":13368:13374   */\n      0x00\n        /* \"#utility.yul\":13415:13417   */\n      0x20\n        /* \"#utility.yul\":13410:13412   */\n      0x1f\n        /* \"#utility.yul\":13403:13408   */\n      dup4\n        /* \"#utility.yul\":13399:13413   */\n      add\n        /* \"#utility.yul\":13395:13418   */\n      div\n        /* \"#utility.yul\":13385:13418   */\n      swap1\n      pop\n        /* \"#utility.yul\":13331:13424   */\n      swap2\n      swap1\n      pop\n      jump\t// out\n        /* \"#utility.yul\":13430:13537   */\n    tag_168:\n        /* \"#utility.yul\":13474:13482   */\n      0x00\n        /* \"#utility.yul\":13524:13529   */\n      dup3\n        /* \"#utility.yul\":13518:13522   */\n      dup3\n        /* \"#utility.yul\":13514:13530   */\n      shl\n        /* \"#utility.yul\":13493:13530   */\n      swap1\n      pop\n        /* \"#utility.yul\":13430:13537   */\n      swap3\n      swap2\n      pop\n      pop\n      jump\t// out\n        /* \"#utility.yul\":13543:13936   */\n    tag_169:\n        /* \"#utility.yul\":13612:13618   */\n      0x00\n        /* \"#utility.yul\":13662:13663   */\n      0x08\n        /* \"#utility.yul\":13650:13660   */\n      dup4\n        /* \"#utility.yul\":13646:13664   */\n      mul\n        /* \"#utility.yul\":13685:13782   */\n      tag_308\n        /* \"#utility.yul\":13715:13781   */\n      0xffffffffffffffffffffffffffffffffffffffffffffffffffffffffffffffff\n        /* \"#utility.yul\":13704:13713   */\n      dup3\n        /* \"#utility.yul\":13685:13782   */\n      tag_168\n      jump\t// in\n    tag_308:\n        /* \"#utility.yul\":13803:13842   */\n      tag_309\n        /* \"#utility.yul\":13833:13841   */\n      dup7\n        /* \"#utility.yul\":13822:13831   */\n      dup4\n        /* \"#utility.yul\":13803:13842   */\n      tag_168\n      jump\t// in\n    tag_309:\n        /* \"#utility.yul\":13791:13842   */\n      swap6\n      pop\n        /* \"#utility.yul\":13875:13879   */\n      dup1\n        /* \"#utility.yul\":13871:13880   */\n      not\n        /* \"#utility.yul\":13864:13869   */\n      dup5\n        /* \"#utility.yul\":13860:13881   */\n      and\n        /* \"#utility.yul\":13851:13881   */\n      swap4\n      pop\n        /* \"#utility.yul\":13924:13928   */\n      dup1\n        /* \"#utility.yul\":13914:13922   */\n      dup7\n        /* \"#utility.yul\":13910:13929   */\n      and\n        /* \"#utility.yul\":13903:13908   */\n      dup5\n        /* \"#utility.yul\":13900:13930   */\n      or\n        /* \"#utility.yul\":13890:13930   */\n      swap3\n      pop\n        /* \"#utility.yul\":13619:13936   */\n      pop\n      pop\n        /* \"#utility.yul\":13543:13936   */\n      swap4\n      swap3\n      pop\n      pop\n      pop\n      jump\t// out\n        /* \"#utility.yul\":13942:14002   */\n    tag_170:\n        /* \"#utility.yul\":13970:13973   */\n      0x00\n        /* \"#utility.yul\":13991:13996   */\n      dup2\n        /* \"#utility.yul\":13984:13996   */\n      swap1\n      pop\n        /* \"#utility.yul\":13942:14002   */\n      swap2\n      swap1\n      pop\n      jump\t// out\n        /* \"#utility.yul\":14008:14150   */\n    tag_171:\n        /* \"#utility.yul\":14058:14067   */\n      0x00\n        /* \"#utility.yul\":14091:14144   */\n      tag_312\n        /* \"#utility.yul\":14109:14143   */\n      tag_313\n        /* \"#utility.yul\":14118:14142   */\n      tag_314\n        /* \"#utility.yul\":14136:14141   */\n      dup5\n        /* \"#utility.yul\":14118:14142   */\n      tag_133\n      jump\t// in\n    tag_314:\n        /* \"#utility.yul\":14109:14143   */\n      tag_170\n      jump\t// in\n    tag_313:\n        /* \"#utility.yul\":14091:14144   */\n      tag_133\n      jump\t// in\n    tag_312:\n        /* \"#utility.yul\":14078:14144   */\n      swap1\n      pop\n        /* \"#utility.yul\":14008:14150   */\n      swap2\n      swap1\n      pop\n      jump\t// out\n        /* \"#utility.yul\":14156:14231   */\n    tag_172:\n        /* \"#utility.yul\":14199:14202   */\n      0x00\n        /* \"#utility.yul\":14220:14225   */\n      dup2\n        /* \"#utility.yul\":14213:14225   */\n      swap1\n      pop\n        /* \"#utility.yul\":14156:14231   */\n      swap2\n      swap1\n      pop\n      jump\t// out\n        /* \"#utility.yul\":14237:14506   */\n    tag_173:\n        /* \"#utility.yul\":14347:14386   */\n      tag_317\n        /* \"#utility.yul\":14378:14385   */\n      dup4\n        /* \"#utility.yul\":14347:14386   */\n      tag_171\n      jump\t// in\n    tag_317:\n        /* \"#utility.yul\":14408:14499   */\n      tag_318\n        /* \"#utility.yul\":14457:14498   */\n      tag_319\n        /* \"#utility.yul\":14481:14497   */\n      dup3\n        /* \"#utility.yul\":14457:14498   */\n      tag_172\n      jump\t// in\n    tag_319:\n        /* \"#utility.yul\":14449:14455   */\n      dup5\n        /* \"#utility.yul\":14442:14446   */\n      dup5\n        /* \"#utility.yul\":14436:14447   */\n      sload\n        /* \"#utility.yul\":14408:14499   */\n      tag_169\n      jump\t// in\n    tag_318:\n        /* \"#utility.yul\":14402:14406   */\n      dup3\n        /* \"#utility.yul\":14395:14500   */\n      sstore\n        /* \"#utility.yul\":14313:14506   */\n      pop\n        /* \"#utility.yul\":14237:14506   */\n      pop\n      pop\n      pop\n      jump\t// out\n        /* \"#utility.yul\":14512:14585   */\n    tag_174:\n        /* \"#utility.yul\":14557:14560   */\n      0x00\n        /* \"#utility.yul\":14512:14585   */\n      swap1\n      jump\t// out\n        /* \"#utility.yul\":14591:14780   */\n    tag_175:\n        /* \"#utility.yul\":14668:14700   */\n      tag_322\n      tag_174\n      jump\t// in\n    tag_322:\n        /* \"#utility.yul\":14709:14774   */\n      tag_323\n        /* \"#utility.yul\":14767:14773   */\n      dup2\n        /* \"#utility.yul\":14759:14765   */\n      dup5\n        /* \"#utility.yul\":14753:14757   */\n      dup5\n        /* \"#utility.yul\":14709:14774   */\n      tag_173\n      jump\t// in\n    tag_323:\n        /* \"#utility.yul\":14644:14780   */\n      pop\n        /* \"#utility.yul\":14591:14780   */\n      pop\n      pop\n      jump\t// out\n        /* \"#utility.yul\":14786:14972   */\n    tag_176:\n        /* \"#utility.yul\":14846:14966   */\n    tag_325:\n        /* \"#utility.yul\":14863:14866   */\n      dup2\n        /* \"#utility.yul\":14856:14861   */\n      dup2\n        /* \"#utility.yul\":14853:14867   */\n      lt\n        /* \"#utility.yul\":14846:14966   */\n      iszero\n      tag_327\n      jumpi\n        /* \"#utility.yul\":14917:14956   */\n      tag_328\n        /* \"#utility.yul\":14954:14955   */\n      0x00\n        /* \"#utility.yul\":14947:14952   */\n      dup3\n        /* \"#utility.yul\":14917:14956   */\n      tag_175\n      jump\t// in\n    tag_328:\n        /* \"#utility.yul\":14890:14891   */\n      0x01\n        /* \"#utility.yul\":14883:14888   */\n      dup2\n        /* \"#utility.yul\":14879:14892   */\n      add\n        /* \"#utility.yul\":14870:14892   */\n      swap1\n      pop\n        /* \"#utility.yul\":14846:14966   */\n      jump(tag_325)\n    tag_327:\n        /* \"#utility.yul\":14786:14972   */\n      pop\n      pop\n      jump\t// out\n        /* \"#utility.yul\":14978:15521   */\n    tag_177:\n        /* \"#utility.yul\":15079:15081   */\n      0x1f\n        /* \"#utility.yul\":15074:15077   */\n      dup3\n        /* \"#utility.yul\":15071:15082   */\n      gt\n        /* \"#utility.yul\":15068:15514   */\n      iszero\n      tag_330\n      jumpi\n        /* \"#utility.yul\":15113:15151   */\n      tag_331\n        /* \"#utility.yul\":15145:15150   */\n      dup2\n        /* \"#utility.yul\":15113:15151   */\n      tag_166\n      jump\t// in\n    tag_331:\n        /* \"#utility.yul\":15197:15226   */\n      tag_332\n        /* \"#utility.yul\":15215:15225   */\n      dup5\n        /* \"#utility.yul\":15197:15226   */\n      tag_167\n      jump\t// in\n    tag_332:\n        /* \"#utility.yul\":15187:15195   */\n      dup2\n        /* \"#utility.yul\":15183:15227   */\n      add\n        /* \"#utility.yul\":15380:15382   */\n      0x20\n        /* \"#utility.yul\":15368:15378   */\n      dup6\n        /* \"#utility.yul\":15365:15383   */\n      lt\n        /* \"#utility.yul\":15362:15411   */\n      iszero\n      tag_333\n      jumpi\n        /* \"#utility.yul\":15401:15409   */\n      dup2\n        /* \"#utility.yul\":15386:15409   */\n      swap1\n      pop\n        /* \"#utility.yul\":15362:15411   */\n    tag_333:\n        /* \"#utility.yul\":15424:15504   */\n      tag_334\n        /* \"#utility.yul\":15480:15502   */\n      tag_335\n        /* \"#utility.yul\":15498:15501   */\n      dup6\n        /* \"#utility.yul\":15480:15502   */\n      tag_167\n      jump\t// in\n    tag_335:\n        /* \"#utility.yul\":15470:15478   */\n      dup4\n        /* \"#utility.yul\":15466:15503   */\n      add\n        /* \"#utility.yul\":15453:15464   */\n      dup3\n        /* \"#utility.yul\":15424:15504   */\n      tag_176\n      jump\t// in\n    tag_334:\n        /* \"#utility.yul\":15083:15514   */\n      pop\n      pop\n        /* \"#utility.yul\":15068:15514   */\n    tag_330:\n        /* \"#utility.yul\":14978:15521   */\n      pop\n      pop\n      pop\n      jump\t// out\n        /* \"#utility.yul\":15527:15644   */\n    tag_178:\n        /* \"#utility.yul\":15581:15589   */\n      0x00\n        /* \"#utility.yul\":15631:15636   */\n      dup3\n        /* \"#utility.yul\":15625:15629   */\n      dup3\n        /* \"#utility.yul\":15621:15637   */\n      shr\n        /* \"#utility.yul\":15600:15637   */\n      swap1\n      pop\n        /* \"#utility.yul\":15527:15644   */\n      swap3\n      swap2\n      pop\n      pop\n      jump\t// out\n        /* \"#utility.yul\":15650:15819   */\n    tag_179:\n        /* \"#utility.yul\":15694:15700   */\n      0x00\n        /* \"#utility.yul\":15727:15778   */\n      tag_338\n        /* \"#utility.yul\":15775:15776   */\n      0x00\n        /* \"#utility.yul\":15771:15777   */\n      not\n        /* \"#utility.yul\":15763:15768   */\n      dup5\n        /* \"#utility.yul\":15760:15761   */\n      0x08\n        /* \"#utility.yul\":15756:15769   */\n      mul\n        /* \"#utility.yul\":15727:15778   */\n      tag_178\n      jump\t// in\n    tag_338:\n        /* \"#utility.yul\":15723:15779   */\n      not\n        /* \"#utility.yul\":15808:15812   */\n      dup1\n        /* \"#utility.yul\":15802:15806   */\n      dup4\n        /* \"#utility.yul\":15798:15813   */\n      and\n        /* \"#utility.yul\":15788:15813   */\n      swap2\n      pop\n        /* \"#utility.yul\":15701:15819   */\n      pop\n        /* \"#utility.yul\":15650:15819   */\n      swap3\n      swap2\n      pop\n      pop\n      jump\t// out\n        /* \"#utility.yul\":15824:16119   */\n    tag_180:\n        /* \"#utility.yul\":15900:15904   */\n      0x00\n        /* \"#utility.yul\":16046:16075   */\n      tag_340\n        /* \"#utility.yul\":16071:16074   */\n      dup4\n        /* \"#utility.yul\":16065:16069   */\n      dup4\n        /* \"#utility.yul\":16046:16075   */\n      tag_179\n      jump\t// in\n    tag_340:\n        /* \"#utility.yul\":16038:16075   */\n      swap2\n      pop\n        /* \"#utility.yul\":16108:16111   */\n      dup3\n        /* \"#utility.yul\":16105:16106   */\n      0x02\n        /* \"#utility.yul\":16101:16112   */\n      mul\n        /* \"#utility.yul\":16095:16099   */\n      dup3\n        /* \"#utility.yul\":16092:16113   */\n      or\n        /* \"#utility.yul\":16084:16113   */\n      swap1\n      pop\n        /* \"#utility.yul\":15824:16119   */\n      swap3\n      swap2\n      pop\n      pop\n      jump\t// out\n        /* \"#utility.yul\":16124:17519   */\n    tag_115:\n        /* \"#utility.yul\":16241:16278   */\n      tag_342\n        /* \"#utility.yul\":16274:16277   */\n      dup3\n        /* \"#utility.yul\":16241:16278   */\n      tag_136\n      jump\t// in\n    tag_342:\n        /* \"#utility.yul\":16343:16361   */\n      0xffffffffffffffff\n        /* \"#utility.yul\":16335:16341   */\n      dup2\n        /* \"#utility.yul\":16332:16362   */\n      gt\n        /* \"#utility.yul\":16329:16385   */\n      iszero\n      tag_343\n      jumpi\n        /* \"#utility.yul\":16365:16383   */\n      tag_344\n      tag_147\n      jump\t// in\n    tag_344:\n        /* \"#utility.yul\":16329:16385   */\n    tag_343:\n        /* \"#utility.yul\":16409:16447   */\n      tag_345\n        /* \"#utility.yul\":16441:16445   */\n      dup3\n        /* \"#utility.yul\":16435:16446   */\n      sload\n        /* \"#utility.yul\":16409:16447   */\n      tag_34\n      jump\t// in\n    tag_345:\n        /* \"#utility.yul\":16494:16561   */\n      tag_346\n        /* \"#utility.yul\":16554:16560   */\n      dup3\n        /* \"#utility.yul\":16546:16552   */\n      dup3\n        /* \"#utility.yul\":16540:16544   */\n      dup6\n        /* \"#utility.yul\":16494:16561   */\n      tag_177\n      jump\t// in\n    tag_346:\n        /* \"#utility.yul\":16588:16589   */\n      0x00\n        /* \"#utility.yul\":16612:16616   */\n      0x20\n        /* \"#utility.yul\":16599:16616   */\n      swap1\n      pop\n        /* \"#utility.yul\":16644:16646   */\n      0x1f\n        /* \"#utility.yul\":16636:16642   */\n      dup4\n        /* \"#utility.yul\":16633:16647   */\n      gt\n        /* \"#utility.yul\":16661:16662   */\n      0x01\n        /* \"#utility.yul\":16656:17274   */\n      dup2\n      eq\n      tag_348\n      jumpi\n        /* \"#utility.yul\":17318:17319   */\n      0x00\n        /* \"#utility.yul\":17335:17341   */\n      dup5\n        /* \"#utility.yul\":17332:17409   */\n      iszero\n      tag_349\n      jumpi\n        /* \"#utility.yul\":17384:17393   */\n      dup3\n        /* \"#utility.yul\":17379:17382   */\n      dup8\n        /* \"#utility.yul\":17375:17394   */\n      add\n        /* \"#utility.yul\":17369:17395   */\n      mload\n        /* \"#utility.yul\":17360:17395   */\n      swap1\n      pop\n        /* \"#utility.yul\":17332:17409   */\n    tag_349:\n        /* \"#utility.yul\":17435:17502   */\n      tag_350\n        /* \"#utility.yul\":17495:17501   */\n      dup6\n        /* \"#utility.yul\":17488:17493   */\n      dup3\n        /* \"#utility.yul\":17435:17502   */\n      tag_180\n      jump\t// in\n    tag_350:\n        /* \"#utility.yul\":17429:17433   */\n      dup7\n        /* \"#utility.yul\":17422:17503   */\n      sstore\n        /* \"#utility.yul\":17291:17513   */\n      pop\n        /* \"#utility.yul\":16626:17513   */\n      jump(tag_347)\n        /* \"#utility.yul\":16656:17274   */\n    tag_348:\n        /* \"#utility.yul\":16708:16712   */\n      0x1f\n        /* \"#utility.yul\":16704:16713   */\n      not\n        /* \"#utility.yul\":16696:16702   */\n      dup5\n        /* \"#utility.yul\":16692:16714   */\n      and\n        /* \"#utility.yul\":16742:16779   */\n      tag_351\n        /* \"#utility.yul\":16774:16778   */\n      dup7\n        /* \"#utility.yul\":16742:16779   */\n      tag_166\n      jump\t// in\n    tag_351:\n        /* \"#utility.yul\":16801:16802   */\n      0x00\n        /* \"#utility.yul\":16815:17023   */\n    tag_352:\n        /* \"#utility.yul\":16829:16836   */\n      dup3\n        /* \"#utility.yul\":16826:16827   */\n      dup2\n        /* \"#utility.yul\":16823:16837   */\n      lt\n        /* \"#utility.yul\":16815:17023   */\n      iszero\n      tag_354\n      jumpi\n        /* \"#utility.yul\":16908:16917   */\n      dup5\n        /* \"#utility.yul\":16903:16906   */\n      dup10\n        /* \"#utility.yul\":16899:16918   */\n      add\n        /* \"#utility.yul\":16893:16919   */\n      mload\n        /* \"#utility.yul\":16885:16891   */\n      dup3\n        /* \"#utility.yul\":16878:16920   */\n      sstore\n        /* \"#utility.yul\":16959:16960   */\n      0x01\n        /* \"#utility.yul\":16951:16957   */\n      dup3\n        /* \"#utility.yul\":16947:16961   */\n      add\n        /* \"#utility.yul\":16937:16961   */\n      swap2\n      pop\n        /* \"#utility.yul\":17006:17008   */\n      0x20\n        /* \"#utility.yul\":16995:17004   */\n      dup6\n        /* \"#utility.yul\":16991:17009   */\n      add\n        /* \"#utility.yul\":16978:17009   */\n      swap5\n      pop\n        /* \"#utility.yul\":16852:16856   */\n      0x20\n        /* \"#utility.yul\":16849:16850   */\n      dup2\n        /* \"#utility.yul\":16845:16857   */\n      add\n        /* \"#utility.yul\":16840:16857   */\n      swap1\n      pop\n        /* \"#utility.yul\":16815:17023   */\n      jump(tag_352)\n    tag_354:\n        /* \"#utility.yul\":17051:17057   */\n      dup7\n        /* \"#utility.yul\":17042:17049   */\n      dup4\n        /* \"#utility.yul\":17039:17058   */\n      lt\n        /* \"#utility.yul\":17036:17215   */\n      iszero\n      tag_355\n      jumpi\n        /* \"#utility.yul\":17109:17118   */\n      dup5\n        /* \"#utility.yul\":17104:17107   */\n      dup10\n        /* \"#utility.yul\":17100:17119   */\n      add\n        /* \"#utility.yul\":17094:17120   */\n      mload\n        /* \"#utility.yul\":17152:17200   */\n      tag_356\n        /* \"#utility.yul\":17194:17198   */\n      0x1f\n        /* \"#utility.yul\":17186:17192   */\n      dup10\n        /* \"#utility.yul\":17182:17199   */\n      and\n        /* \"#utility.yul\":17171:17180   */\n      dup3\n        /* \"#utility.yul\":17152:17200   */\n      tag_179\n      jump\t// in\n    tag_356:\n        /* \"#utility.yul\":17144:17150   */\n      dup4\n        /* \"#utility.yul\":17137:17201   */\n      sstore\n        /* \"#utility.yul\":17059:17215   */\n      pop\n        /* \"#utility.yul\":17036:17215   */\n    tag_355:\n        /* \"#utility.yul\":17261:17262   */\n      0x01\n        /* \"#utility.yul\":17257:17258   */\n      0x02\n        /* \"#utility.yul\":17249:17255   */\n      dup9\n        /* \"#utility.yul\":17245:17259   */\n      mul\n        /* \"#utility.yul\":17241:17263   */\n      add\n        /* \"#utility.yul\":17235:17239   */\n      dup9\n        /* \"#utility.yul\":17228:17264   */\n      sstore\n        /* \"#utility.yul\":16663:17274   */\n      pop\n      pop\n      pop\n        /* \"#utility.yul\":16626:17513   */\n    tag_347:\n      pop\n        /* \"#utility.yul\":16216:17519   */\n      pop\n      pop\n      pop\n        /* \"#utility.yul\":16124:17519   */\n      pop\n      pop\n      jump\t// out\n\n    auxdata: 0xa26469706673582212204758d98e1e1ed732542b21e7fd5a8d84ca34e74f9d5aada4c35b56fd80e1c3f464736f6c63430008120033\n}\n",
				"bytecode": {
					"linkReferences": {},
					"object": "608060405234801561001057600080fd5b5061171d806100206000396000f3fe6080604052600436106100555760003560e01c806333b8c62a1461005a57806338e22afc1461009c5780639ea5cb11146100b8578063c1cbbca7146100e1578063d6734822146100fd578063ec939ae414610119575b600080fd5b34801561006657600080fd5b50610081600480360381019061007c9190610d63565b610142565b60405161009396959493929190610e70565b60405180910390f35b6100b660048036038101906100b19190610d63565b6102ae565b005b3480156100c457600080fd5b506100df60048036038101906100da9190610d63565b610443565b005b6100fb60048036038101906100f69190610d63565b6106d9565b005b61011760048036038101906101129190610d63565b610914565b005b34801561012557600080fd5b50610140600480360381019061013b9190611014565b610b51565b005b6001602052806000526040600020600091509050806000018054610165906110f6565b80601f0160208091040260200160405190810160405280929190818152602001828054610191906110f6565b80156101de5780601f106101b3576101008083540402835291602001916101de565b820191906000526020600020905b8154815290600101906020018083116101c157829003601f168201915b5050505050908060010180546101f3906110f6565b80601f016020809104026020016040519081016040528092919081815260200182805461021f906110f6565b801561026c5780601f106102415761010080835404028352916020019161026c565b820191906000526020600020905b81548152906001019060200180831161024f57829003601f168201915b5050505050908060020154908060030154908060040154908060050160009054906101000a900473ffffffffffffffffffffffffffffffffffffffff16905086565b6001600082815260200190815260200160002060050160009054906101000a900473ffffffffffffffffffffffffffffffffffffffff1673ffffffffffffffffffffffffffffffffffffffff163373ffffffffffffffffffffffffffffffffffffffff1614610352576040517f08c379a000000000000000000000000000000000000000000000000000000000815260040161034990611173565b60405180910390fd5b60005b600160008381526020019081526020016000206006018054905081101561043f576001600083815260200190815260200160002060050160009054906101000a900473ffffffffffffffffffffffffffffffffffffffff1673ffffffffffffffffffffffffffffffffffffffff166108fc6001600085815260200190815260200160002060060183815481106103ee576103ed611193565b5b9060005260206000209060020201600101549081150290604051600060405180830381858888f1935050505015801561042b573d6000803e3d6000fd5b508080610437906111f1565b915050610355565b5050565b3373ffffffffffffffffffffffffffffffffffffffff166001600083815260200190815260200160002060050160009054906101000a900473ffffffffffffffffffffffffffffffffffffffff1673ffffffffffffffffffffffffffffffffffffffff16146104e7576040517f08c379a00000000000000000000000000000000000000000000000000000000081526004016104de90611285565b60405180910390fd5b6001600082815260200190815260200160002060030154421015610540576040517f08c379a000000000000000000000000000000000000000000000000000000000815260040161053790611317565b60405180910390fd5b60005b60016000838152602001908152602001600020600601805490508110156106505760016000838152602001908152602001600020600601818154811061058c5761058b611193565b5b906000526020600020906002020160000160009054906101000a900473ffffffffffffffffffffffffffffffffffffffff1673ffffffffffffffffffffffffffffffffffffffff166108fc6001600085815260200190815260200160002060060183815481106105ff576105fe611193565b5b9060005260206000209060020201600101549081150290604051600060405180830381858888f1935050505015801561063c573d6000803e3d6000fd5b508080610648906111f1565b915050610543565b5060016000828152602001908152602001600020600080820160006106759190610c52565b6001820160006106859190610c52565b6002820160009055600382016000905560048201600090556005820160006101000a81549073ffffffffffffffffffffffffffffffffffffffff02191690556006820160006106d49190610c92565b505050565b6001600082815260200190815260200160002060050160009054906101000a900473ffffffffffffffffffffffffffffffffffffffff1673ffffffffffffffffffffffffffffffffffffffff163373ffffffffffffffffffffffffffffffffffffffff160361077d576040517f08c379a000000000000000000000000000000000000000000000000000000000815260040161077490611383565b60405180910390fd5b600160008281526020019081526020016000206002015434106107d5576040517f08c379a00000000000000000000000000000000000000000000000000000000081526004016107cc90611415565b60405180910390fd5b600160008281526020019081526020016000206002015434600160008481526020019081526020016000206004015461080e9190611435565b1061081857600080fd5b6001600082815260200190815260200160002060060160405180604001604052803373ffffffffffffffffffffffffffffffffffffffff16815260200134815250908060018154018082558091505060019003906000526020600020906002020160009091909190915060008201518160000160006101000a81548173ffffffffffffffffffffffffffffffffffffffff021916908373ffffffffffffffffffffffffffffffffffffffff1602179055506020820151816001015550503460016000838152602001908152602001600020600401546108f79190611435565b600160008381526020019081526020016000206004018190555050565b3373ffffffffffffffffffffffffffffffffffffffff166001600083815260200190815260200160002060050160009054906101000a900473ffffffffffffffffffffffffffffffffffffffff1673ffffffffffffffffffffffffffffffffffffffff16146109b8576040517f08c379a00000000000000000000000000000000000000000000000000000000081526004016109af90611285565b60405180910390fd5b60005b6001600083815260200190815260200160002060060180549050811015610ac857600160008381526020019081526020016000206006018181548110610a0457610a03611193565b5b906000526020600020906002020160000160009054906101000a900473ffffffffffffffffffffffffffffffffffffffff1673ffffffffffffffffffffffffffffffffffffffff166108fc600160008581526020019081526020016000206006018381548110610a7757610a76611193565b5b9060005260206000209060020201600101549081150290604051600060405180830381858888f19350505050158015610ab4573d6000803e3d6000fd5b508080610ac0906111f1565b9150506109bb565b506001600082815260200190815260200160002060008082016000610aed9190610c52565b600182016000610afd9190610c52565b6002820160009055600382016000905560048201600090556005820160006101000a81549073ffffffffffffffffffffffffffffffffffffffff0219169055600682016000610b4c9190610c92565b505050565b83600160008781526020019081526020016000206000019081610b749190611615565b5082600160008781526020019081526020016000206001019081610b989190611615565b50816001600087815260200190815260200160002060020181905550336001600087815260200190815260200160002060050160006101000a81548173ffffffffffffffffffffffffffffffffffffffff021916908373ffffffffffffffffffffffffffffffffffffffff160217905550600060016000878152602001908152602001600020600401819055508042610c319190611435565b60016000878152602001908152602001600020600301819055505050505050565b508054610c5e906110f6565b6000825580601f10610c705750610c8f565b601f016020900490600052602060002090810190610c8e9190610cb6565b5b50565b5080546000825560020290600052602060002090810190610cb39190610cd3565b50565b5b80821115610ccf576000816000905550600101610cb7565b5090565b5b80821115610d1557600080820160006101000a81549073ffffffffffffffffffffffffffffffffffffffff0219169055600182016000905550600201610cd4565b5090565b6000604051905090565b600080fd5b600080fd5b6000819050919050565b610d4081610d2d565b8114610d4b57600080fd5b50565b600081359050610d5d81610d37565b92915050565b600060208284031215610d7957610d78610d23565b5b6000610d8784828501610d4e565b91505092915050565b600081519050919050565b600082825260208201905092915050565b60005b83811015610dca578082015181840152602081019050610daf565b60008484015250505050565b6000601f19601f8301169050919050565b6000610df282610d90565b610dfc8185610d9b565b9350610e0c818560208601610dac565b610e1581610dd6565b840191505092915050565b610e2981610d2d565b82525050565b600073ffffffffffffffffffffffffffffffffffffffff82169050919050565b6000610e5a82610e2f565b9050919050565b610e6a81610e4f565b82525050565b600060c0820190508181036000830152610e8a8189610de7565b90508181036020830152610e9e8188610de7565b9050610ead6040830187610e20565b610eba6060830186610e20565b610ec76080830185610e20565b610ed460a0830184610e61565b979650505050505050565b600080fd5b600080fd5b7f4e487b7100000000000000000000000000000000000000000000000000000000600052604160045260246000fd5b610f2182610dd6565b810181811067ffffffffffffffff82111715610f4057610f3f610ee9565b5b80604052505050565b6000610f53610d19565b9050610f5f8282610f18565b919050565b600067ffffffffffffffff821115610f7f57610f7e610ee9565b5b610f8882610dd6565b9050602081019050919050565b82818337600083830152505050565b6000610fb7610fb284610f64565b610f49565b905082815260208101848484011115610fd357610fd2610ee4565b5b610fde848285610f95565b509392505050565b600082601f830112610ffb57610ffa610edf565b5b813561100b848260208601610fa4565b91505092915050565b600080600080600060a086880312156110305761102f610d23565b5b600061103e88828901610d4e565b955050602086013567ffffffffffffffff81111561105f5761105e610d28565b5b61106b88828901610fe6565b945050604086013567ffffffffffffffff81111561108c5761108b610d28565b5b61109888828901610fe6565b93505060606110a988828901610d4e565b92505060806110ba88828901610d4e565b9150509295509295909350565b7f4e487b7100000000000000000000000000000000000000000000000000000000600052602260045260246000fd5b6000600282049050600182168061110e57607f821691505b602082108103611121576111206110c7565b5b50919050565b7f204f6e6c79204f776e65722063616e2077696474686472617700000000000000600082015250565b600061115d601983610d9b565b915061116882611127565b602082019050919050565b6000602082019050818103600083015261118c81611150565b9050919050565b7f4e487b7100000000000000000000000000000000000000000000000000000000600052603260045260246000fd5b7f4e487b7100000000000000000000000000000000000000000000000000000000600052601160045260246000fd5b60006111fc82610d2d565b91507fffffffffffffffffffffffffffffffffffffffffffffffffffffffffffffffff820361122e5761122d6111c2565b5b600182019050919050565b7f6f6e6c792063616e20726566756e640000000000000000000000000000000000600082015250565b600061126f600f83610d9b565b915061127a82611239565b602082019050919050565b6000602082019050818103600083015261129e81611262565b9050919050565b7f205374696c6c206861766520736f6d652074696d65206c65667420666f72206660008201527f756e64696e672000000000000000000000000000000000000000000000000000602082015250565b6000611301602783610d9b565b915061130c826112a5565b604082019050919050565b60006020820190508181036000830152611330816112f4565b9050919050565b7f204f776e65722063616e277420636f6e74726962757465000000000000000000600082015250565b600061136d601783610d9b565b915061137882611337565b602082019050919050565b6000602082019050818103600083015261139c81611360565b9050919050565b7f416d6f756e742063616e206e6f742062652067726561746572207468616e206760008201527f6f616c20616d6f756e7400000000000000000000000000000000000000000000602082015250565b60006113ff602a83610d9b565b915061140a826113a3565b604082019050919050565b6000602082019050818103600083015261142e816113f2565b9050919050565b600061144082610d2d565b915061144b83610d2d565b9250828201905080821115611463576114626111c2565b5b92915050565b60008190508160005260206000209050919050565b60006020601f8301049050919050565b600082821b905092915050565b6000600883026114cb7fffffffffffffffffffffffffffffffffffffffffffffffffffffffffffffffff8261148e565b6114d5868361148e565b95508019841693508086168417925050509392505050565b6000819050919050565b600061151261150d61150884610d2d565b6114ed565b610d2d565b9050919050565b6000819050919050565b61152c836114f7565b61154061153882611519565b84845461149b565b825550505050565b600090565b611555611548565b611560818484611523565b505050565b5b818110156115845761157960008261154d565b600181019050611566565b5050565b601f8211156115c95761159a81611469565b6115a38461147e565b810160208510156115b2578190505b6115c66115be8561147e565b830182611565565b50505b505050565b600082821c905092915050565b60006115ec600019846008026115ce565b1980831691505092915050565b600061160583836115db565b9150826002028217905092915050565b61161e82610d90565b67ffffffffffffffff81111561163757611636610ee9565b5b61164182546110f6565b61164c828285611588565b600060209050601f83116001811461167f576000841561166d578287015190505b61167785826115f9565b8655506116df565b601f19841661168d86611469565b60005b828110156116b557848901518255600182019150602085019450602081019050611690565b868310156116d257848901516116ce601f8916826115db565b8355505b6001600288020188555050505b50505050505056fea26469706673582212204758d98e1e1ed732542b21e7fd5a8d84ca34e74f9d5aada4c35b56fd80e1c3f464736f6c63430008120033",
					"opcodes": "PUSH1 0x80 PUSH1 0x40 MSTORE CALLVALUE DUP1 ISZERO PUSH2 0x10 JUMPI PUSH1 0x0 DUP1 REVERT JUMPDEST POP PUSH2 0x171D DUP1 PUSH2 0x20 PUSH1 0x0 CODECOPY PUSH1 0x0 RETURN INVALID PUSH1 0x80 PUSH1 0x40 MSTORE PUSH1 0x4 CALLDATASIZE LT PUSH2 0x55 JUMPI PUSH1 0x0 CALLDATALOAD PUSH1 0xE0 SHR DUP1 PUSH4 0x33B8C62A EQ PUSH2 0x5A JUMPI DUP1 PUSH4 0x38E22AFC EQ PUSH2 0x9C JUMPI DUP1 PUSH4 0x9EA5CB11 EQ PUSH2 0xB8 JUMPI DUP1 PUSH4 0xC1CBBCA7 EQ PUSH2 0xE1 JUMPI DUP1 PUSH4 0xD6734822 EQ PUSH2 0xFD JUMPI DUP1 PUSH4 0xEC939AE4 EQ PUSH2 0x119 JUMPI JUMPDEST PUSH1 0x0 DUP1 REVERT JUMPDEST CALLVALUE DUP1 ISZERO PUSH2 0x66 JUMPI PUSH1 0x0 DUP1 REVERT JUMPDEST POP PUSH2 0x81 PUSH1 0x4 DUP1 CALLDATASIZE SUB DUP2 ADD SWAP1 PUSH2 0x7C SWAP2 SWAP1 PUSH2 0xD63 JUMP JUMPDEST PUSH2 0x142 JUMP JUMPDEST PUSH1 0x40 MLOAD PUSH2 0x93 SWAP7 SWAP6 SWAP5 SWAP4 SWAP3 SWAP2 SWAP1 PUSH2 0xE70 JUMP JUMPDEST PUSH1 0x40 MLOAD DUP1 SWAP2 SUB SWAP1 RETURN JUMPDEST PUSH2 0xB6 PUSH1 0x4 DUP1 CALLDATASIZE SUB DUP2 ADD SWAP1 PUSH2 0xB1 SWAP2 SWAP1 PUSH2 0xD63 JUMP JUMPDEST PUSH2 0x2AE JUMP JUMPDEST STOP JUMPDEST CALLVALUE DUP1 ISZERO PUSH2 0xC4 JUMPI PUSH1 0x0 DUP1 REVERT JUMPDEST POP PUSH2 0xDF PUSH1 0x4 DUP1 CALLDATASIZE SUB DUP2 ADD SWAP1 PUSH2 0xDA SWAP2 SWAP1 PUSH2 0xD63 JUMP JUMPDEST PUSH2 0x443 JUMP JUMPDEST STOP JUMPDEST PUSH2 0xFB PUSH1 0x4 DUP1 CALLDATASIZE SUB DUP2 ADD SWAP1 PUSH2 0xF6 SWAP2 SWAP1 PUSH2 0xD63 JUMP JUMPDEST PUSH2 0x6D9 JUMP JUMPDEST STOP JUMPDEST PUSH2 0x117 PUSH1 0x4 DUP1 CALLDATASIZE SUB DUP2 ADD SWAP1 PUSH2 0x112 SWAP2 SWAP1 PUSH2 0xD63 JUMP JUMPDEST PUSH2 0x914 JUMP JUMPDEST STOP JUMPDEST CALLVALUE DUP1 ISZERO PUSH2 0x125 JUMPI PUSH1 0x0 DUP1 REVERT JUMPDEST POP PUSH2 0x140 PUSH1 0x4 DUP1 CALLDATASIZE SUB DUP2 ADD SWAP1 PUSH2 0x13B SWAP2 SWAP1 PUSH2 0x1014 JUMP JUMPDEST PUSH2 0xB51 JUMP JUMPDEST STOP JUMPDEST PUSH1 0x1 PUSH1 0x20 MSTORE DUP1 PUSH1 0x0 MSTORE PUSH1 0x40 PUSH1 0x0 KECCAK256 PUSH1 0x0 SWAP2 POP SWAP1 POP DUP1 PUSH1 0x0 ADD DUP1 SLOAD PUSH2 0x165 SWAP1 PUSH2 0x10F6 JUMP JUMPDEST DUP1 PUSH1 0x1F ADD PUSH1 0x20 DUP1 SWAP2 DIV MUL PUSH1 0x20 ADD PUSH1 0x40 MLOAD SWAP1 DUP2 ADD PUSH1 0x40 MSTORE DUP1 SWAP3 SWAP2 SWAP1 DUP2 DUP2 MSTORE PUSH1 0x20 ADD DUP3 DUP1 SLOAD PUSH2 0x191 SWAP1 PUSH2 0x10F6 JUMP JUMPDEST DUP1 ISZERO PUSH2 0x1DE JUMPI DUP1 PUSH1 0x1F LT PUSH2 0x1B3 JUMPI PUSH2 0x100 DUP1 DUP4 SLOAD DIV MUL DUP4 MSTORE SWAP2 PUSH1 0x20 ADD SWAP2 PUSH2 0x1DE JUMP JUMPDEST DUP3 ADD SWAP2 SWAP1 PUSH1 0x0 MSTORE PUSH1 0x20 PUSH1 0x0 KECCAK256 SWAP1 JUMPDEST DUP2 SLOAD DUP2 MSTORE SWAP1 PUSH1 0x1 ADD SWAP1 PUSH1 0x20 ADD DUP1 DUP4 GT PUSH2 0x1C1 JUMPI DUP3 SWAP1 SUB PUSH1 0x1F AND DUP3 ADD SWAP2 JUMPDEST POP POP POP POP POP SWAP1 DUP1 PUSH1 0x1 ADD DUP1 SLOAD PUSH2 0x1F3 SWAP1 PUSH2 0x10F6 JUMP JUMPDEST DUP1 PUSH1 0x1F ADD PUSH1 0x20 DUP1 SWAP2 DIV MUL PUSH1 0x20 ADD PUSH1 0x40 MLOAD SWAP1 DUP2 ADD PUSH1 0x40 MSTORE DUP1 SWAP3 SWAP2 SWAP1 DUP2 DUP2 MSTORE PUSH1 0x20 ADD DUP3 DUP1 SLOAD PUSH2 0x21F SWAP1 PUSH2 0x10F6 JUMP JUMPDEST DUP1 ISZERO PUSH2 0x26C JUMPI DUP1 PUSH1 0x1F LT PUSH2 0x241 JUMPI PUSH2 0x100 DUP1 DUP4 SLOAD DIV MUL DUP4 MSTORE SWAP2 PUSH1 0x20 ADD SWAP2 PUSH2 0x26C JUMP JUMPDEST DUP3 ADD SWAP2 SWAP1 PUSH1 0x0 MSTORE PUSH1 0x20 PUSH1 0x0 KECCAK256 SWAP1 JUMPDEST DUP2 SLOAD DUP2 MSTORE SWAP1 PUSH1 0x1 ADD SWAP1 PUSH1 0x20 ADD DUP1 DUP4 GT PUSH2 0x24F JUMPI DUP3 SWAP1 SUB PUSH1 0x1F AND DUP3 ADD SWAP2 JUMPDEST POP POP POP POP POP SWAP1 DUP1 PUSH1 0x2 ADD SLOAD SWAP1 DUP1 PUSH1 0x3 ADD SLOAD SWAP1 DUP1 PUSH1 0x4 ADD SLOAD SWAP1 DUP1 PUSH1 0x5 ADD PUSH1 0x0 SWAP1 SLOAD SWAP1 PUSH2 0x100 EXP SWAP1 DIV PUSH20 0xFFFFFFFFFFFFFFFFFFFFFFFFFFFFFFFFFFFFFFFF AND SWAP1 POP DUP7 JUMP JUMPDEST PUSH1 0x1 PUSH1 0x0 DUP3 DUP2 MSTORE PUSH1 0x20 ADD SWAP1 DUP2 MSTORE PUSH1 0x20 ADD PUSH1 0x0 KECCAK256 PUSH1 0x5 ADD PUSH1 0x0 SWAP1 SLOAD SWAP1 PUSH2 0x100 EXP SWAP1 DIV PUSH20 0xFFFFFFFFFFFFFFFFFFFFFFFFFFFFFFFFFFFFFFFF AND PUSH20 0xFFFFFFFFFFFFFFFFFFFFFFFFFFFFFFFFFFFFFFFF AND CALLER PUSH20 0xFFFFFFFFFFFFFFFFFFFFFFFFFFFFFFFFFFFFFFFF AND EQ PUSH2 0x352 JUMPI PUSH1 0x40 MLOAD PUSH32 0x8C379A000000000000000000000000000000000000000000000000000000000 DUP2 MSTORE PUSH1 0x4 ADD PUSH2 0x349 SWAP1 PUSH2 0x1173 JUMP JUMPDEST PUSH1 0x40 MLOAD DUP1 SWAP2 SUB SWAP1 REVERT JUMPDEST PUSH1 0x0 JUMPDEST PUSH1 0x1 PUSH1 0x0 DUP4 DUP2 MSTORE PUSH1 0x20 ADD SWAP1 DUP2 MSTORE PUSH1 0x20 ADD PUSH1 0x0 KECCAK256 PUSH1 0x6 ADD DUP1 SLOAD SWAP1 POP DUP2 LT ISZERO PUSH2 0x43F JUMPI PUSH1 0x1 PUSH1 0x0 DUP4 DUP2 MSTORE PUSH1 0x20 ADD SWAP1 DUP2 MSTORE PUSH1 0x20 ADD PUSH1 0x0 KECCAK256 PUSH1 0x5 ADD PUSH1 0x0 SWAP1 SLOAD SWAP1 PUSH2 0x100 EXP SWAP1 DIV PUSH20 0xFFFFFFFFFFFFFFFFFFFFFFFFFFFFFFFFFFFFFFFF AND PUSH20 0xFFFFFFFFFFFFFFFFFFFFFFFFFFFFFFFFFFFFFFFF AND PUSH2 0x8FC PUSH1 0x1 PUSH1 0x0 DUP6 DUP2 MSTORE PUSH1 0x20 ADD SWAP1 DUP2 MSTORE PUSH1 0x20 ADD PUSH1 0x0 KECCAK256 PUSH1 0x6 ADD DUP4 DUP2 SLOAD DUP2 LT PUSH2 0x3EE JUMPI PUSH2 0x3ED PUSH2 0x1193 JUMP JUMPDEST JUMPDEST SWAP1 PUSH1 0x0 MSTORE PUSH1 0x20 PUSH1 0x0 KECCAK256 SWAP1 PUSH1 0x2 MUL ADD PUSH1 0x1 ADD SLOAD SWAP1 DUP2 ISZERO MUL SWAP1 PUSH1 0x40 MLOAD PUSH1 0x0 PUSH1 0x40 MLOAD DUP1 DUP4 SUB DUP2 DUP6 DUP9 DUP9 CALL SWAP4 POP POP POP POP ISZERO DUP1 ISZERO PUSH2 0x42B JUMPI RETURNDATASIZE PUSH1 0x0 DUP1 RETURNDATACOPY RETURNDATASIZE PUSH1 0x0 REVERT JUMPDEST POP DUP1 DUP1 PUSH2 0x437 SWAP1 PUSH2 0x11F1 JUMP JUMPDEST SWAP2 POP POP PUSH2 0x355 JUMP JUMPDEST POP POP JUMP JUMPDEST CALLER PUSH20 0xFFFFFFFFFFFFFFFFFFFFFFFFFFFFFFFFFFFFFFFF AND PUSH1 0x1 PUSH1 0x0 DUP4 DUP2 MSTORE PUSH1 0x20 ADD SWAP1 DUP2 MSTORE PUSH1 0x20 ADD PUSH1 0x0 KECCAK256 PUSH1 0x5 ADD PUSH1 0x0 SWAP1 SLOAD SWAP1 PUSH2 0x100 EXP SWAP1 DIV PUSH20 0xFFFFFFFFFFFFFFFFFFFFFFFFFFFFFFFFFFFFFFFF AND PUSH20 0xFFFFFFFFFFFFFFFFFFFFFFFFFFFFFFFFFFFFFFFF AND EQ PUSH2 0x4E7 JUMPI PUSH1 0x40 MLOAD PUSH32 0x8C379A000000000000000000000000000000000000000000000000000000000 DUP2 MSTORE PUSH1 0x4 ADD PUSH2 0x4DE SWAP1 PUSH2 0x1285 JUMP JUMPDEST PUSH1 0x40 MLOAD DUP1 SWAP2 SUB SWAP1 REVERT JUMPDEST PUSH1 0x1 PUSH1 0x0 DUP3 DUP2 MSTORE PUSH1 0x20 ADD SWAP1 DUP2 MSTORE PUSH1 0x20 ADD PUSH1 0x0 KECCAK256 PUSH1 0x3 ADD SLOAD TIMESTAMP LT ISZERO PUSH2 0x540 JUMPI PUSH1 0x40 MLOAD PUSH32 0x8C379A000000000000000000000000000000000000000000000000000000000 DUP2 MSTORE PUSH1 0x4 ADD PUSH2 0x537 SWAP1 PUSH2 0x1317 JUMP JUMPDEST PUSH1 0x40 MLOAD DUP1 SWAP2 SUB SWAP1 REVERT JUMPDEST PUSH1 0x0 JUMPDEST PUSH1 0x1 PUSH1 0x0 DUP4 DUP2 MSTORE PUSH1 0x20 ADD SWAP1 DUP2 MSTORE PUSH1 0x20 ADD PUSH1 0x0 KECCAK256 PUSH1 0x6 ADD DUP1 SLOAD SWAP1 POP DUP2 LT ISZERO PUSH2 0x650 JUMPI PUSH1 0x1 PUSH1 0x0 DUP4 DUP2 MSTORE PUSH1 0x20 ADD SWAP1 DUP2 MSTORE PUSH1 0x20 ADD PUSH1 0x0 KECCAK256 PUSH1 0x6 ADD DUP2 DUP2 SLOAD DUP2 LT PUSH2 0x58C JUMPI PUSH2 0x58B PUSH2 0x1193 JUMP JUMPDEST JUMPDEST SWAP1 PUSH1 0x0 MSTORE PUSH1 0x20 PUSH1 0x0 KECCAK256 SWAP1 PUSH1 0x2 MUL ADD PUSH1 0x0 ADD PUSH1 0x0 SWAP1 SLOAD SWAP1 PUSH2 0x100 EXP SWAP1 DIV PUSH20 0xFFFFFFFFFFFFFFFFFFFFFFFFFFFFFFFFFFFFFFFF AND PUSH20 0xFFFFFFFFFFFFFFFFFFFFFFFFFFFFFFFFFFFFFFFF AND PUSH2 0x8FC PUSH1 0x1 PUSH1 0x0 DUP6 DUP2 MSTORE PUSH1 0x20 ADD SWAP1 DUP2 MSTORE PUSH1 0x20 ADD PUSH1 0x0 KECCAK256 PUSH1 0x6 ADD DUP4 DUP2 SLOAD DUP2 LT PUSH2 0x5FF JUMPI PUSH2 0x5FE PUSH2 0x1193 JUMP JUMPDEST JUMPDEST SWAP1 PUSH1 0x0 MSTORE PUSH1 0x20 PUSH1 0x0 KECCAK256 SWAP1 PUSH1 0x2 MUL ADD PUSH1 0x1 ADD SLOAD SWAP1 DUP2 ISZERO MUL SWAP1 PUSH1 0x40 MLOAD PUSH1 0x0 PUSH1 0x40 MLOAD DUP1 DUP4 SUB DUP2 DUP6 DUP9 DUP9 CALL SWAP4 POP POP POP POP ISZERO DUP1 ISZERO PUSH2 0x63C JUMPI RETURNDATASIZE PUSH1 0x0 DUP1 RETURNDATACOPY RETURNDATASIZE PUSH1 0x0 REVERT JUMPDEST POP DUP1 DUP1 PUSH2 0x648 SWAP1 PUSH2 0x11F1 JUMP JUMPDEST SWAP2 POP POP PUSH2 0x543 JUMP JUMPDEST POP PUSH1 0x1 PUSH1 0x0 DUP3 DUP2 MSTORE PUSH1 0x20 ADD SWAP1 DUP2 MSTORE PUSH1 0x20 ADD PUSH1 0x0 KECCAK256 PUSH1 0x0 DUP1 DUP3 ADD PUSH1 0x0 PUSH2 0x675 SWAP2 SWAP1 PUSH2 0xC52 JUMP JUMPDEST PUSH1 0x1 DUP3 ADD PUSH1 0x0 PUSH2 0x685 SWAP2 SWAP1 PUSH2 0xC52 JUMP JUMPDEST PUSH1 0x2 DUP3 ADD PUSH1 0x0 SWAP1 SSTORE PUSH1 0x3 DUP3 ADD PUSH1 0x0 SWAP1 SSTORE PUSH1 0x4 DUP3 ADD PUSH1 0x0 SWAP1 SSTORE PUSH1 0x5 DUP3 ADD PUSH1 0x0 PUSH2 0x100 EXP DUP2 SLOAD SWAP1 PUSH20 0xFFFFFFFFFFFFFFFFFFFFFFFFFFFFFFFFFFFFFFFF MUL NOT AND SWAP1 SSTORE PUSH1 0x6 DUP3 ADD PUSH1 0x0 PUSH2 0x6D4 SWAP2 SWAP1 PUSH2 0xC92 JUMP JUMPDEST POP POP POP JUMP JUMPDEST PUSH1 0x1 PUSH1 0x0 DUP3 DUP2 MSTORE PUSH1 0x20 ADD SWAP1 DUP2 MSTORE PUSH1 0x20 ADD PUSH1 0x0 KECCAK256 PUSH1 0x5 ADD PUSH1 0x0 SWAP1 SLOAD SWAP1 PUSH2 0x100 EXP SWAP1 DIV PUSH20 0xFFFFFFFFFFFFFFFFFFFFFFFFFFFFFFFFFFFFFFFF AND PUSH20 0xFFFFFFFFFFFFFFFFFFFFFFFFFFFFFFFFFFFFFFFF AND CALLER PUSH20 0xFFFFFFFFFFFFFFFFFFFFFFFFFFFFFFFFFFFFFFFF AND SUB PUSH2 0x77D JUMPI PUSH1 0x40 MLOAD PUSH32 0x8C379A000000000000000000000000000000000000000000000000000000000 DUP2 MSTORE PUSH1 0x4 ADD PUSH2 0x774 SWAP1 PUSH2 0x1383 JUMP JUMPDEST PUSH1 0x40 MLOAD DUP1 SWAP2 SUB SWAP1 REVERT JUMPDEST PUSH1 0x1 PUSH1 0x0 DUP3 DUP2 MSTORE PUSH1 0x20 ADD SWAP1 DUP2 MSTORE PUSH1 0x20 ADD PUSH1 0x0 KECCAK256 PUSH1 0x2 ADD SLOAD CALLVALUE LT PUSH2 0x7D5 JUMPI PUSH1 0x40 MLOAD PUSH32 0x8C379A000000000000000000000000000000000000000000000000000000000 DUP2 MSTORE PUSH1 0x4 ADD PUSH2 0x7CC SWAP1 PUSH2 0x1415 JUMP JUMPDEST PUSH1 0x40 MLOAD DUP1 SWAP2 SUB SWAP1 REVERT JUMPDEST PUSH1 0x1 PUSH1 0x0 DUP3 DUP2 MSTORE PUSH1 0x20 ADD SWAP1 DUP2 MSTORE PUSH1 0x20 ADD PUSH1 0x0 KECCAK256 PUSH1 0x2 ADD SLOAD CALLVALUE PUSH1 0x1 PUSH1 0x0 DUP5 DUP2 MSTORE PUSH1 0x20 ADD SWAP1 DUP2 MSTORE PUSH1 0x20 ADD PUSH1 0x0 KECCAK256 PUSH1 0x4 ADD SLOAD PUSH2 0x80E SWAP2 SWAP1 PUSH2 0x1435 JUMP JUMPDEST LT PUSH2 0x818 JUMPI PUSH1 0x0 DUP1 REVERT JUMPDEST PUSH1 0x1 PUSH1 0x0 DUP3 DUP2 MSTORE PUSH1 0x20 ADD SWAP1 DUP2 MSTORE PUSH1 0x20 ADD PUSH1 0x0 KECCAK256 PUSH1 0x6 ADD PUSH1 0x40 MLOAD DUP1 PUSH1 0x40 ADD PUSH1 0x40 MSTORE DUP1 CALLER PUSH20 0xFFFFFFFFFFFFFFFFFFFFFFFFFFFFFFFFFFFFFFFF AND DUP2 MSTORE PUSH1 0x20 ADD CALLVALUE DUP2 MSTORE POP SWAP1 DUP1 PUSH1 0x1 DUP2 SLOAD ADD DUP1 DUP3 SSTORE DUP1 SWAP2 POP POP PUSH1 0x1 SWAP1 SUB SWAP1 PUSH1 0x0 MSTORE PUSH1 0x20 PUSH1 0x0 KECCAK256 SWAP1 PUSH1 0x2 MUL ADD PUSH1 0x0 SWAP1 SWAP2 SWAP1 SWAP2 SWAP1 SWAP2 POP PUSH1 0x0 DUP3 ADD MLOAD DUP2 PUSH1 0x0 ADD PUSH1 0x0 PUSH2 0x100 EXP DUP2 SLOAD DUP2 PUSH20 0xFFFFFFFFFFFFFFFFFFFFFFFFFFFFFFFFFFFFFFFF MUL NOT AND SWAP1 DUP4 PUSH20 0xFFFFFFFFFFFFFFFFFFFFFFFFFFFFFFFFFFFFFFFF AND MUL OR SWAP1 SSTORE POP PUSH1 0x20 DUP3 ADD MLOAD DUP2 PUSH1 0x1 ADD SSTORE POP POP CALLVALUE PUSH1 0x1 PUSH1 0x0 DUP4 DUP2 MSTORE PUSH1 0x20 ADD SWAP1 DUP2 MSTORE PUSH1 0x20 ADD PUSH1 0x0 KECCAK256 PUSH1 0x4 ADD SLOAD PUSH2 0x8F7 SWAP2 SWAP1 PUSH2 0x1435 JUMP JUMPDEST PUSH1 0x1 PUSH1 0x0 DUP4 DUP2 MSTORE PUSH1 0x20 ADD SWAP1 DUP2 MSTORE PUSH1 0x20 ADD PUSH1 0x0 KECCAK256 PUSH1 0x4 ADD DUP2 SWAP1 SSTORE POP POP JUMP JUMPDEST CALLER PUSH20 0xFFFFFFFFFFFFFFFFFFFFFFFFFFFFFFFFFFFFFFFF AND PUSH1 0x1 PUSH1 0x0 DUP4 DUP2 MSTORE PUSH1 0x20 ADD SWAP1 DUP2 MSTORE PUSH1 0x20 ADD PUSH1 0x0 KECCAK256 PUSH1 0x5 ADD PUSH1 0x0 SWAP1 SLOAD SWAP1 PUSH2 0x100 EXP SWAP1 DIV PUSH20 0xFFFFFFFFFFFFFFFFFFFFFFFFFFFFFFFFFFFFFFFF AND PUSH20 0xFFFFFFFFFFFFFFFFFFFFFFFFFFFFFFFFFFFFFFFF AND EQ PUSH2 0x9B8 JUMPI PUSH1 0x40 MLOAD PUSH32 0x8C379A000000000000000000000000000000000000000000000000000000000 DUP2 MSTORE PUSH1 0x4 ADD PUSH2 0x9AF SWAP1 PUSH2 0x1285 JUMP JUMPDEST PUSH1 0x40 MLOAD DUP1 SWAP2 SUB SWAP1 REVERT JUMPDEST PUSH1 0x0 JUMPDEST PUSH1 0x1 PUSH1 0x0 DUP4 DUP2 MSTORE PUSH1 0x20 ADD SWAP1 DUP2 MSTORE PUSH1 0x20 ADD PUSH1 0x0 KECCAK256 PUSH1 0x6 ADD DUP1 SLOAD SWAP1 POP DUP2 LT ISZERO PUSH2 0xAC8 JUMPI PUSH1 0x1 PUSH1 0x0 DUP4 DUP2 MSTORE PUSH1 0x20 ADD SWAP1 DUP2 MSTORE PUSH1 0x20 ADD PUSH1 0x0 KECCAK256 PUSH1 0x6 ADD DUP2 DUP2 SLOAD DUP2 LT PUSH2 0xA04 JUMPI PUSH2 0xA03 PUSH2 0x1193 JUMP JUMPDEST JUMPDEST SWAP1 PUSH1 0x0 MSTORE PUSH1 0x20 PUSH1 0x0 KECCAK256 SWAP1 PUSH1 0x2 MUL ADD PUSH1 0x0 ADD PUSH1 0x0 SWAP1 SLOAD SWAP1 PUSH2 0x100 EXP SWAP1 DIV PUSH20 0xFFFFFFFFFFFFFFFFFFFFFFFFFFFFFFFFFFFFFFFF AND PUSH20 0xFFFFFFFFFFFFFFFFFFFFFFFFFFFFFFFFFFFFFFFF AND PUSH2 0x8FC PUSH1 0x1 PUSH1 0x0 DUP6 DUP2 MSTORE PUSH1 0x20 ADD SWAP1 DUP2 MSTORE PUSH1 0x20 ADD PUSH1 0x0 KECCAK256 PUSH1 0x6 ADD DUP4 DUP2 SLOAD DUP2 LT PUSH2 0xA77 JUMPI PUSH2 0xA76 PUSH2 0x1193 JUMP JUMPDEST JUMPDEST SWAP1 PUSH1 0x0 MSTORE PUSH1 0x20 PUSH1 0x0 KECCAK256 SWAP1 PUSH1 0x2 MUL ADD PUSH1 0x1 ADD SLOAD SWAP1 DUP2 ISZERO MUL SWAP1 PUSH1 0x40 MLOAD PUSH1 0x0 PUSH1 0x40 MLOAD DUP1 DUP4 SUB DUP2 DUP6 DUP9 DUP9 CALL SWAP4 POP POP POP POP ISZERO DUP1 ISZERO PUSH2 0xAB4 JUMPI RETURNDATASIZE PUSH1 0x0 DUP1 RETURNDATACOPY RETURNDATASIZE PUSH1 0x0 REVERT JUMPDEST POP DUP1 DUP1 PUSH2 0xAC0 SWAP1 PUSH2 0x11F1 JUMP JUMPDEST SWAP2 POP POP PUSH2 0x9BB JUMP JUMPDEST POP PUSH1 0x1 PUSH1 0x0 DUP3 DUP2 MSTORE PUSH1 0x20 ADD SWAP1 DUP2 MSTORE PUSH1 0x20 ADD PUSH1 0x0 KECCAK256 PUSH1 0x0 DUP1 DUP3 ADD PUSH1 0x0 PUSH2 0xAED SWAP2 SWAP1 PUSH2 0xC52 JUMP JUMPDEST PUSH1 0x1 DUP3 ADD PUSH1 0x0 PUSH2 0xAFD SWAP2 SWAP1 PUSH2 0xC52 JUMP JUMPDEST PUSH1 0x2 DUP3 ADD PUSH1 0x0 SWAP1 SSTORE PUSH1 0x3 DUP3 ADD PUSH1 0x0 SWAP1 SSTORE PUSH1 0x4 DUP3 ADD PUSH1 0x0 SWAP1 SSTORE PUSH1 0x5 DUP3 ADD PUSH1 0x0 PUSH2 0x100 EXP DUP2 SLOAD SWAP1 PUSH20 0xFFFFFFFFFFFFFFFFFFFFFFFFFFFFFFFFFFFFFFFF MUL NOT AND SWAP1 SSTORE PUSH1 0x6 DUP3 ADD PUSH1 0x0 PUSH2 0xB4C SWAP2 SWAP1 PUSH2 0xC92 JUMP JUMPDEST POP POP POP JUMP JUMPDEST DUP4 PUSH1 0x1 PUSH1 0x0 DUP8 DUP2 MSTORE PUSH1 0x20 ADD SWAP1 DUP2 MSTORE PUSH1 0x20 ADD PUSH1 0x0 KECCAK256 PUSH1 0x0 ADD SWAP1 DUP2 PUSH2 0xB74 SWAP2 SWAP1 PUSH2 0x1615 JUMP JUMPDEST POP DUP3 PUSH1 0x1 PUSH1 0x0 DUP8 DUP2 MSTORE PUSH1 0x20 ADD SWAP1 DUP2 MSTORE PUSH1 0x20 ADD PUSH1 0x0 KECCAK256 PUSH1 0x1 ADD SWAP1 DUP2 PUSH2 0xB98 SWAP2 SWAP1 PUSH2 0x1615 JUMP JUMPDEST POP DUP2 PUSH1 0x1 PUSH1 0x0 DUP8 DUP2 MSTORE PUSH1 0x20 ADD SWAP1 DUP2 MSTORE PUSH1 0x20 ADD PUSH1 0x0 KECCAK256 PUSH1 0x2 ADD DUP2 SWAP1 SSTORE POP CALLER PUSH1 0x1 PUSH1 0x0 DUP8 DUP2 MSTORE PUSH1 0x20 ADD SWAP1 DUP2 MSTORE PUSH1 0x20 ADD PUSH1 0x0 KECCAK256 PUSH1 0x5 ADD PUSH1 0x0 PUSH2 0x100 EXP DUP2 SLOAD DUP2 PUSH20 0xFFFFFFFFFFFFFFFFFFFFFFFFFFFFFFFFFFFFFFFF MUL NOT AND SWAP1 DUP4 PUSH20 0xFFFFFFFFFFFFFFFFFFFFFFFFFFFFFFFFFFFFFFFF AND MUL OR SWAP1 SSTORE POP PUSH1 0x0 PUSH1 0x1 PUSH1 0x0 DUP8 DUP2 MSTORE PUSH1 0x20 ADD SWAP1 DUP2 MSTORE PUSH1 0x20 ADD PUSH1 0x0 KECCAK256 PUSH1 0x4 ADD DUP2 SWAP1 SSTORE POP DUP1 TIMESTAMP PUSH2 0xC31 SWAP2 SWAP1 PUSH2 0x1435 JUMP JUMPDEST PUSH1 0x1 PUSH1 0x0 DUP8 DUP2 MSTORE PUSH1 0x20 ADD SWAP1 DUP2 MSTORE PUSH1 0x20 ADD PUSH1 0x0 KECCAK256 PUSH1 0x3 ADD DUP2 SWAP1 SSTORE POP POP POP POP POP POP JUMP JUMPDEST POP DUP1 SLOAD PUSH2 0xC5E SWAP1 PUSH2 0x10F6 JUMP JUMPDEST PUSH1 0x0 DUP3 SSTORE DUP1 PUSH1 0x1F LT PUSH2 0xC70 JUMPI POP PUSH2 0xC8F JUMP JUMPDEST PUSH1 0x1F ADD PUSH1 0x20 SWAP1 DIV SWAP1 PUSH1 0x0 MSTORE PUSH1 0x20 PUSH1 0x0 KECCAK256 SWAP1 DUP2 ADD SWAP1 PUSH2 0xC8E SWAP2 SWAP1 PUSH2 0xCB6 JUMP JUMPDEST JUMPDEST POP JUMP JUMPDEST POP DUP1 SLOAD PUSH1 0x0 DUP3 SSTORE PUSH1 0x2 MUL SWAP1 PUSH1 0x0 MSTORE PUSH1 0x20 PUSH1 0x0 KECCAK256 SWAP1 DUP2 ADD SWAP1 PUSH2 0xCB3 SWAP2 SWAP1 PUSH2 0xCD3 JUMP JUMPDEST POP JUMP JUMPDEST JUMPDEST DUP1 DUP3 GT ISZERO PUSH2 0xCCF JUMPI PUSH1 0x0 DUP2 PUSH1 0x0 SWAP1 SSTORE POP PUSH1 0x1 ADD PUSH2 0xCB7 JUMP JUMPDEST POP SWAP1 JUMP JUMPDEST JUMPDEST DUP1 DUP3 GT ISZERO PUSH2 0xD15 JUMPI PUSH1 0x0 DUP1 DUP3 ADD PUSH1 0x0 PUSH2 0x100 EXP DUP2 SLOAD SWAP1 PUSH20 0xFFFFFFFFFFFFFFFFFFFFFFFFFFFFFFFFFFFFFFFF MUL NOT AND SWAP1 SSTORE PUSH1 0x1 DUP3 ADD PUSH1 0x0 SWAP1 SSTORE POP PUSH1 0x2 ADD PUSH2 0xCD4 JUMP JUMPDEST POP SWAP1 JUMP JUMPDEST PUSH1 0x0 PUSH1 0x40 MLOAD SWAP1 POP SWAP1 JUMP JUMPDEST PUSH1 0x0 DUP1 REVERT JUMPDEST PUSH1 0x0 DUP1 REVERT JUMPDEST PUSH1 0x0 DUP2 SWAP1 POP SWAP2 SWAP1 POP JUMP JUMPDEST PUSH2 0xD40 DUP2 PUSH2 0xD2D JUMP JUMPDEST DUP2 EQ PUSH2 0xD4B JUMPI PUSH1 0x0 DUP1 REVERT JUMPDEST POP JUMP JUMPDEST PUSH1 0x0 DUP2 CALLDATALOAD SWAP1 POP PUSH2 0xD5D DUP2 PUSH2 0xD37 JUMP JUMPDEST SWAP3 SWAP2 POP POP JUMP JUMPDEST PUSH1 0x0 PUSH1 0x20 DUP3 DUP5 SUB SLT ISZERO PUSH2 0xD79 JUMPI PUSH2 0xD78 PUSH2 0xD23 JUMP JUMPDEST JUMPDEST PUSH1 0x0 PUSH2 0xD87 DUP5 DUP3 DUP6 ADD PUSH2 0xD4E JUMP JUMPDEST SWAP2 POP POP SWAP3 SWAP2 POP POP JUMP JUMPDEST PUSH1 0x0 DUP2 MLOAD SWAP1 POP SWAP2 SWAP1 POP JUMP JUMPDEST PUSH1 0x0 DUP3 DUP3 MSTORE PUSH1 0x20 DUP3 ADD SWAP1 POP SWAP3 SWAP2 POP POP JUMP JUMPDEST PUSH1 0x0 JUMPDEST DUP4 DUP2 LT ISZERO PUSH2 0xDCA JUMPI DUP1 DUP3 ADD MLOAD DUP2 DUP5 ADD MSTORE PUSH1 0x20 DUP2 ADD SWAP1 POP PUSH2 0xDAF JUMP JUMPDEST PUSH1 0x0 DUP5 DUP5 ADD MSTORE POP POP POP POP JUMP JUMPDEST PUSH1 0x0 PUSH1 0x1F NOT PUSH1 0x1F DUP4 ADD AND SWAP1 POP SWAP2 SWAP1 POP JUMP JUMPDEST PUSH1 0x0 PUSH2 0xDF2 DUP3 PUSH2 0xD90 JUMP JUMPDEST PUSH2 0xDFC DUP2 DUP6 PUSH2 0xD9B JUMP JUMPDEST SWAP4 POP PUSH2 0xE0C DUP2 DUP6 PUSH1 0x20 DUP7 ADD PUSH2 0xDAC JUMP JUMPDEST PUSH2 0xE15 DUP2 PUSH2 0xDD6 JUMP JUMPDEST DUP5 ADD SWAP2 POP POP SWAP3 SWAP2 POP POP JUMP JUMPDEST PUSH2 0xE29 DUP2 PUSH2 0xD2D JUMP JUMPDEST DUP3 MSTORE POP POP JUMP JUMPDEST PUSH1 0x0 PUSH20 0xFFFFFFFFFFFFFFFFFFFFFFFFFFFFFFFFFFFFFFFF DUP3 AND SWAP1 POP SWAP2 SWAP1 POP JUMP JUMPDEST PUSH1 0x0 PUSH2 0xE5A DUP3 PUSH2 0xE2F JUMP JUMPDEST SWAP1 POP SWAP2 SWAP1 POP JUMP JUMPDEST PUSH2 0xE6A DUP2 PUSH2 0xE4F JUMP JUMPDEST DUP3 MSTORE POP POP JUMP JUMPDEST PUSH1 0x0 PUSH1 0xC0 DUP3 ADD SWAP1 POP DUP2 DUP2 SUB PUSH1 0x0 DUP4 ADD MSTORE PUSH2 0xE8A DUP2 DUP10 PUSH2 0xDE7 JUMP JUMPDEST SWAP1 POP DUP2 DUP2 SUB PUSH1 0x20 DUP4 ADD MSTORE PUSH2 0xE9E DUP2 DUP9 PUSH2 0xDE7 JUMP JUMPDEST SWAP1 POP PUSH2 0xEAD PUSH1 0x40 DUP4 ADD DUP8 PUSH2 0xE20 JUMP JUMPDEST PUSH2 0xEBA PUSH1 0x60 DUP4 ADD DUP7 PUSH2 0xE20 JUMP JUMPDEST PUSH2 0xEC7 PUSH1 0x80 DUP4 ADD DUP6 PUSH2 0xE20 JUMP JUMPDEST PUSH2 0xED4 PUSH1 0xA0 DUP4 ADD DUP5 PUSH2 0xE61 JUMP JUMPDEST SWAP8 SWAP7 POP POP POP POP POP POP POP JUMP JUMPDEST PUSH1 0x0 DUP1 REVERT JUMPDEST PUSH1 0x0 DUP1 REVERT JUMPDEST PUSH32 0x4E487B7100000000000000000000000000000000000000000000000000000000 PUSH1 0x0 MSTORE PUSH1 0x41 PUSH1 0x4 MSTORE PUSH1 0x24 PUSH1 0x0 REVERT JUMPDEST PUSH2 0xF21 DUP3 PUSH2 0xDD6 JUMP JUMPDEST DUP2 ADD DUP2 DUP2 LT PUSH8 0xFFFFFFFFFFFFFFFF DUP3 GT OR ISZERO PUSH2 0xF40 JUMPI PUSH2 0xF3F PUSH2 0xEE9 JUMP JUMPDEST JUMPDEST DUP1 PUSH1 0x40 MSTORE POP POP POP JUMP JUMPDEST PUSH1 0x0 PUSH2 0xF53 PUSH2 0xD19 JUMP JUMPDEST SWAP1 POP PUSH2 0xF5F DUP3 DUP3 PUSH2 0xF18 JUMP JUMPDEST SWAP2 SWAP1 POP JUMP JUMPDEST PUSH1 0x0 PUSH8 0xFFFFFFFFFFFFFFFF DUP3 GT ISZERO PUSH2 0xF7F JUMPI PUSH2 0xF7E PUSH2 0xEE9 JUMP JUMPDEST JUMPDEST PUSH2 0xF88 DUP3 PUSH2 0xDD6 JUMP JUMPDEST SWAP1 POP PUSH1 0x20 DUP2 ADD SWAP1 POP SWAP2 SWAP1 POP JUMP JUMPDEST DUP3 DUP2 DUP4 CALLDATACOPY PUSH1 0x0 DUP4 DUP4 ADD MSTORE POP POP POP JUMP JUMPDEST PUSH1 0x0 PUSH2 0xFB7 PUSH2 0xFB2 DUP5 PUSH2 0xF64 JUMP JUMPDEST PUSH2 0xF49 JUMP JUMPDEST SWAP1 POP DUP3 DUP2 MSTORE PUSH1 0x20 DUP2 ADD DUP5 DUP5 DUP5 ADD GT ISZERO PUSH2 0xFD3 JUMPI PUSH2 0xFD2 PUSH2 0xEE4 JUMP JUMPDEST JUMPDEST PUSH2 0xFDE DUP5 DUP3 DUP6 PUSH2 0xF95 JUMP JUMPDEST POP SWAP4 SWAP3 POP POP POP JUMP JUMPDEST PUSH1 0x0 DUP3 PUSH1 0x1F DUP4 ADD SLT PUSH2 0xFFB JUMPI PUSH2 0xFFA PUSH2 0xEDF JUMP JUMPDEST JUMPDEST DUP2 CALLDATALOAD PUSH2 0x100B DUP5 DUP3 PUSH1 0x20 DUP7 ADD PUSH2 0xFA4 JUMP JUMPDEST SWAP2 POP POP SWAP3 SWAP2 POP POP JUMP JUMPDEST PUSH1 0x0 DUP1 PUSH1 0x0 DUP1 PUSH1 0x0 PUSH1 0xA0 DUP7 DUP9 SUB SLT ISZERO PUSH2 0x1030 JUMPI PUSH2 0x102F PUSH2 0xD23 JUMP JUMPDEST JUMPDEST PUSH1 0x0 PUSH2 0x103E DUP9 DUP3 DUP10 ADD PUSH2 0xD4E JUMP JUMPDEST SWAP6 POP POP PUSH1 0x20 DUP7 ADD CALLDATALOAD PUSH8 0xFFFFFFFFFFFFFFFF DUP2 GT ISZERO PUSH2 0x105F JUMPI PUSH2 0x105E PUSH2 0xD28 JUMP JUMPDEST JUMPDEST PUSH2 0x106B DUP9 DUP3 DUP10 ADD PUSH2 0xFE6 JUMP JUMPDEST SWAP5 POP POP PUSH1 0x40 DUP7 ADD CALLDATALOAD PUSH8 0xFFFFFFFFFFFFFFFF DUP2 GT ISZERO PUSH2 0x108C JUMPI PUSH2 0x108B PUSH2 0xD28 JUMP JUMPDEST JUMPDEST PUSH2 0x1098 DUP9 DUP3 DUP10 ADD PUSH2 0xFE6 JUMP JUMPDEST SWAP4 POP POP PUSH1 0x60 PUSH2 0x10A9 DUP9 DUP3 DUP10 ADD PUSH2 0xD4E JUMP JUMPDEST SWAP3 POP POP PUSH1 0x80 PUSH2 0x10BA DUP9 DUP3 DUP10 ADD PUSH2 0xD4E JUMP JUMPDEST SWAP2 POP POP SWAP3 SWAP6 POP SWAP3 SWAP6 SWAP1 SWAP4 POP JUMP JUMPDEST PUSH32 0x4E487B7100000000000000000000000000000000000000000000000000000000 PUSH1 0x0 MSTORE PUSH1 0x22 PUSH1 0x4 MSTORE PUSH1 0x24 PUSH1 0x0 REVERT JUMPDEST PUSH1 0x0 PUSH1 0x2 DUP3 DIV SWAP1 POP PUSH1 0x1 DUP3 AND DUP1 PUSH2 0x110E JUMPI PUSH1 0x7F DUP3 AND SWAP2 POP JUMPDEST PUSH1 0x20 DUP3 LT DUP2 SUB PUSH2 0x1121 JUMPI PUSH2 0x1120 PUSH2 0x10C7 JUMP JUMPDEST JUMPDEST POP SWAP2 SWAP1 POP JUMP JUMPDEST PUSH32 0x204F6E6C79204F776E65722063616E2077696474686472617700000000000000 PUSH1 0x0 DUP3 ADD MSTORE POP JUMP JUMPDEST PUSH1 0x0 PUSH2 0x115D PUSH1 0x19 DUP4 PUSH2 0xD9B JUMP JUMPDEST SWAP2 POP PUSH2 0x1168 DUP3 PUSH2 0x1127 JUMP JUMPDEST PUSH1 0x20 DUP3 ADD SWAP1 POP SWAP2 SWAP1 POP JUMP JUMPDEST PUSH1 0x0 PUSH1 0x20 DUP3 ADD SWAP1 POP DUP2 DUP2 SUB PUSH1 0x0 DUP4 ADD MSTORE PUSH2 0x118C DUP2 PUSH2 0x1150 JUMP JUMPDEST SWAP1 POP SWAP2 SWAP1 POP JUMP JUMPDEST PUSH32 0x4E487B7100000000000000000000000000000000000000000000000000000000 PUSH1 0x0 MSTORE PUSH1 0x32 PUSH1 0x4 MSTORE PUSH1 0x24 PUSH1 0x0 REVERT JUMPDEST PUSH32 0x4E487B7100000000000000000000000000000000000000000000000000000000 PUSH1 0x0 MSTORE PUSH1 0x11 PUSH1 0x4 MSTORE PUSH1 0x24 PUSH1 0x0 REVERT JUMPDEST PUSH1 0x0 PUSH2 0x11FC DUP3 PUSH2 0xD2D JUMP JUMPDEST SWAP2 POP PUSH32 0xFFFFFFFFFFFFFFFFFFFFFFFFFFFFFFFFFFFFFFFFFFFFFFFFFFFFFFFFFFFFFFFF DUP3 SUB PUSH2 0x122E JUMPI PUSH2 0x122D PUSH2 0x11C2 JUMP JUMPDEST JUMPDEST PUSH1 0x1 DUP3 ADD SWAP1 POP SWAP2 SWAP1 POP JUMP JUMPDEST PUSH32 0x6F6E6C792063616E20726566756E640000000000000000000000000000000000 PUSH1 0x0 DUP3 ADD MSTORE POP JUMP JUMPDEST PUSH1 0x0 PUSH2 0x126F PUSH1 0xF DUP4 PUSH2 0xD9B JUMP JUMPDEST SWAP2 POP PUSH2 0x127A DUP3 PUSH2 0x1239 JUMP JUMPDEST PUSH1 0x20 DUP3 ADD SWAP1 POP SWAP2 SWAP1 POP JUMP JUMPDEST PUSH1 0x0 PUSH1 0x20 DUP3 ADD SWAP1 POP DUP2 DUP2 SUB PUSH1 0x0 DUP4 ADD MSTORE PUSH2 0x129E DUP2 PUSH2 0x1262 JUMP JUMPDEST SWAP1 POP SWAP2 SWAP1 POP JUMP JUMPDEST PUSH32 0x205374696C6C206861766520736F6D652074696D65206C65667420666F722066 PUSH1 0x0 DUP3 ADD MSTORE PUSH32 0x756E64696E672000000000000000000000000000000000000000000000000000 PUSH1 0x20 DUP3 ADD MSTORE POP JUMP JUMPDEST PUSH1 0x0 PUSH2 0x1301 PUSH1 0x27 DUP4 PUSH2 0xD9B JUMP JUMPDEST SWAP2 POP PUSH2 0x130C DUP3 PUSH2 0x12A5 JUMP JUMPDEST PUSH1 0x40 DUP3 ADD SWAP1 POP SWAP2 SWAP1 POP JUMP JUMPDEST PUSH1 0x0 PUSH1 0x20 DUP3 ADD SWAP1 POP DUP2 DUP2 SUB PUSH1 0x0 DUP4 ADD MSTORE PUSH2 0x1330 DUP2 PUSH2 0x12F4 JUMP JUMPDEST SWAP1 POP SWAP2 SWAP1 POP JUMP JUMPDEST PUSH32 0x204F776E65722063616E277420636F6E74726962757465000000000000000000 PUSH1 0x0 DUP3 ADD MSTORE POP JUMP JUMPDEST PUSH1 0x0 PUSH2 0x136D PUSH1 0x17 DUP4 PUSH2 0xD9B JUMP JUMPDEST SWAP2 POP PUSH2 0x1378 DUP3 PUSH2 0x1337 JUMP JUMPDEST PUSH1 0x20 DUP3 ADD SWAP1 POP SWAP2 SWAP1 POP JUMP JUMPDEST PUSH1 0x0 PUSH1 0x20 DUP3 ADD SWAP1 POP DUP2 DUP2 SUB PUSH1 0x0 DUP4 ADD MSTORE PUSH2 0x139C DUP2 PUSH2 0x1360 JUMP JUMPDEST SWAP1 POP SWAP2 SWAP1 POP JUMP JUMPDEST PUSH32 0x416D6F756E742063616E206E6F742062652067726561746572207468616E2067 PUSH1 0x0 DUP3 ADD MSTORE PUSH32 0x6F616C20616D6F756E7400000000000000000000000000000000000000000000 PUSH1 0x20 DUP3 ADD MSTORE POP JUMP JUMPDEST PUSH1 0x0 PUSH2 0x13FF PUSH1 0x2A DUP4 PUSH2 0xD9B JUMP JUMPDEST SWAP2 POP PUSH2 0x140A DUP3 PUSH2 0x13A3 JUMP JUMPDEST PUSH1 0x40 DUP3 ADD SWAP1 POP SWAP2 SWAP1 POP JUMP JUMPDEST PUSH1 0x0 PUSH1 0x20 DUP3 ADD SWAP1 POP DUP2 DUP2 SUB PUSH1 0x0 DUP4 ADD MSTORE PUSH2 0x142E DUP2 PUSH2 0x13F2 JUMP JUMPDEST SWAP1 POP SWAP2 SWAP1 POP JUMP JUMPDEST PUSH1 0x0 PUSH2 0x1440 DUP3 PUSH2 0xD2D JUMP JUMPDEST SWAP2 POP PUSH2 0x144B DUP4 PUSH2 0xD2D JUMP JUMPDEST SWAP3 POP DUP3 DUP3 ADD SWAP1 POP DUP1 DUP3 GT ISZERO PUSH2 0x1463 JUMPI PUSH2 0x1462 PUSH2 0x11C2 JUMP JUMPDEST JUMPDEST SWAP3 SWAP2 POP POP JUMP JUMPDEST PUSH1 0x0 DUP2 SWAP1 POP DUP2 PUSH1 0x0 MSTORE PUSH1 0x20 PUSH1 0x0 KECCAK256 SWAP1 POP SWAP2 SWAP1 POP JUMP JUMPDEST PUSH1 0x0 PUSH1 0x20 PUSH1 0x1F DUP4 ADD DIV SWAP1 POP SWAP2 SWAP1 POP JUMP JUMPDEST PUSH1 0x0 DUP3 DUP3 SHL SWAP1 POP SWAP3 SWAP2 POP POP JUMP JUMPDEST PUSH1 0x0 PUSH1 0x8 DUP4 MUL PUSH2 0x14CB PUSH32 0xFFFFFFFFFFFFFFFFFFFFFFFFFFFFFFFFFFFFFFFFFFFFFFFFFFFFFFFFFFFFFFFF DUP3 PUSH2 0x148E JUMP JUMPDEST PUSH2 0x14D5 DUP7 DUP4 PUSH2 0x148E JUMP JUMPDEST SWAP6 POP DUP1 NOT DUP5 AND SWAP4 POP DUP1 DUP7 AND DUP5 OR SWAP3 POP POP POP SWAP4 SWAP3 POP POP POP JUMP JUMPDEST PUSH1 0x0 DUP2 SWAP1 POP SWAP2 SWAP1 POP JUMP JUMPDEST PUSH1 0x0 PUSH2 0x1512 PUSH2 0x150D PUSH2 0x1508 DUP5 PUSH2 0xD2D JUMP JUMPDEST PUSH2 0x14ED JUMP JUMPDEST PUSH2 0xD2D JUMP JUMPDEST SWAP1 POP SWAP2 SWAP1 POP JUMP JUMPDEST PUSH1 0x0 DUP2 SWAP1 POP SWAP2 SWAP1 POP JUMP JUMPDEST PUSH2 0x152C DUP4 PUSH2 0x14F7 JUMP JUMPDEST PUSH2 0x1540 PUSH2 0x1538 DUP3 PUSH2 0x1519 JUMP JUMPDEST DUP5 DUP5 SLOAD PUSH2 0x149B JUMP JUMPDEST DUP3 SSTORE POP POP POP POP JUMP JUMPDEST PUSH1 0x0 SWAP1 JUMP JUMPDEST PUSH2 0x1555 PUSH2 0x1548 JUMP JUMPDEST PUSH2 0x1560 DUP2 DUP5 DUP5 PUSH2 0x1523 JUMP JUMPDEST POP POP POP JUMP JUMPDEST JUMPDEST DUP2 DUP2 LT ISZERO PUSH2 0x1584 JUMPI PUSH2 0x1579 PUSH1 0x0 DUP3 PUSH2 0x154D JUMP JUMPDEST PUSH1 0x1 DUP2 ADD SWAP1 POP PUSH2 0x1566 JUMP JUMPDEST POP POP JUMP JUMPDEST PUSH1 0x1F DUP3 GT ISZERO PUSH2 0x15C9 JUMPI PUSH2 0x159A DUP2 PUSH2 0x1469 JUMP JUMPDEST PUSH2 0x15A3 DUP5 PUSH2 0x147E JUMP JUMPDEST DUP2 ADD PUSH1 0x20 DUP6 LT ISZERO PUSH2 0x15B2 JUMPI DUP2 SWAP1 POP JUMPDEST PUSH2 0x15C6 PUSH2 0x15BE DUP6 PUSH2 0x147E JUMP JUMPDEST DUP4 ADD DUP3 PUSH2 0x1565 JUMP JUMPDEST POP POP JUMPDEST POP POP POP JUMP JUMPDEST PUSH1 0x0 DUP3 DUP3 SHR SWAP1 POP SWAP3 SWAP2 POP POP JUMP JUMPDEST PUSH1 0x0 PUSH2 0x15EC PUSH1 0x0 NOT DUP5 PUSH1 0x8 MUL PUSH2 0x15CE JUMP JUMPDEST NOT DUP1 DUP4 AND SWAP2 POP POP SWAP3 SWAP2 POP POP JUMP JUMPDEST PUSH1 0x0 PUSH2 0x1605 DUP4 DUP4 PUSH2 0x15DB JUMP JUMPDEST SWAP2 POP DUP3 PUSH1 0x2 MUL DUP3 OR SWAP1 POP SWAP3 SWAP2 POP POP JUMP JUMPDEST PUSH2 0x161E DUP3 PUSH2 0xD90 JUMP JUMPDEST PUSH8 0xFFFFFFFFFFFFFFFF DUP2 GT ISZERO PUSH2 0x1637 JUMPI PUSH2 0x1636 PUSH2 0xEE9 JUMP JUMPDEST JUMPDEST PUSH2 0x1641 DUP3 SLOAD PUSH2 0x10F6 JUMP JUMPDEST PUSH2 0x164C DUP3 DUP3 DUP6 PUSH2 0x1588 JUMP JUMPDEST PUSH1 0x0 PUSH1 0x20 SWAP1 POP PUSH1 0x1F DUP4 GT PUSH1 0x1 DUP2 EQ PUSH2 0x167F JUMPI PUSH1 0x0 DUP5 ISZERO PUSH2 0x166D JUMPI DUP3 DUP8 ADD MLOAD SWAP1 POP JUMPDEST PUSH2 0x1677 DUP6 DUP3 PUSH2 0x15F9 JUMP JUMPDEST DUP7 SSTORE POP PUSH2 0x16DF JUMP JUMPDEST PUSH1 0x1F NOT DUP5 AND PUSH2 0x168D DUP7 PUSH2 0x1469 JUMP JUMPDEST PUSH1 0x0 JUMPDEST DUP3 DUP2 LT ISZERO PUSH2 0x16B5 JUMPI DUP5 DUP10 ADD MLOAD DUP3 SSTORE PUSH1 0x1 DUP3 ADD SWAP2 POP PUSH1 0x20 DUP6 ADD SWAP5 POP PUSH1 0x20 DUP2 ADD SWAP1 POP PUSH2 0x1690 JUMP JUMPDEST DUP7 DUP4 LT ISZERO PUSH2 0x16D2 JUMPI DUP5 DUP10 ADD MLOAD PUSH2 0x16CE PUSH1 0x1F DUP10 AND DUP3 PUSH2 0x15DB JUMP JUMPDEST DUP4 SSTORE POP JUMPDEST PUSH1 0x1 PUSH1 0x2 DUP9 MUL ADD DUP9 SSTORE POP POP POP JUMPDEST POP POP POP POP POP POP JUMP INVALID LOG2 PUSH5 0x6970667358 0x22 SLT KECCAK256 SELFBALANCE PC 0xD9 DUP15 0x1E 0x1E 0xD7 ORIGIN SLOAD 0x2B 0x21 0xE7 REVERT GAS DUP14 DUP5 0xCA CALLVALUE 0xE7 0x4F SWAP14 GAS 0xAD LOG4 0xC3 JUMPDEST JUMP REVERT DUP1 0xE1 0xC3 DELEGATECALL PUSH5 0x736F6C6343 STOP ADDMOD SLT STOP CALLER "
				},
				"gasEstimates": {
					"creation": {
						"codeDepositCost": "1183400",
						"executionCost": "1227",
						"totalCost": "1184627"
					},
					"external": {
						"conditionNotMet(uint256)": "infinite",
						"contribute(uint256)": "infinite",
						"fundingComplete(uint256)": "infinite",
						"refundCancel(uint256)": "infinite",
						"setProjectDetails(uint256,string,string,uint256,uint256)": "infinite",
						"userProjects(uint256)": "infinite"
					}
				},
				"methodIdentifiers": {
					"conditionNotMet(uint256)": "9ea5cb11",
					"contribute(uint256)": "c1cbbca7",
					"fundingComplete(uint256)": "38e22afc",
					"refundCancel(uint256)": "d6734822",
					"setProjectDetails(uint256,string,string,uint256,uint256)": "ec939ae4",
					"userProjects(uint256)": "33b8c62a"
				}
			},
			"storageLayout": {
				"storage": [
					{
						"astId": 25,
						"contract": "Practice tokens/Assignment7.sol:CrowdFunding",
						"label": "id",
						"offset": 0,
						"slot": "0",
						"type": "t_uint256"
					},
					{
						"astId": 30,
						"contract": "Practice tokens/Assignment7.sol:CrowdFunding",
						"label": "userProjects",
						"offset": 0,
						"slot": "1",
						"type": "t_mapping(t_uint256,t_struct(projectDetails)18_storage)"
					}
				],
				"types": {
					"t_address": {
						"encoding": "inplace",
						"label": "address",
						"numberOfBytes": "20"
					},
					"t_array(t_struct(userbalance)23_storage)dyn_storage": {
						"base": "t_struct(userbalance)23_storage",
						"encoding": "dynamic_array",
						"label": "struct CrowdFunding.userbalance[]",
						"numberOfBytes": "32"
					},
					"t_mapping(t_uint256,t_struct(projectDetails)18_storage)": {
						"encoding": "mapping",
						"key": "t_uint256",
						"label": "mapping(uint256 => struct CrowdFunding.projectDetails)",
						"numberOfBytes": "32",
						"value": "t_struct(projectDetails)18_storage"
					},
					"t_string_storage": {
						"encoding": "bytes",
						"label": "string",
						"numberOfBytes": "32"
					},
					"t_struct(projectDetails)18_storage": {
						"encoding": "inplace",
						"label": "struct CrowdFunding.projectDetails",
						"members": [
							{
								"astId": 3,
								"contract": "Practice tokens/Assignment7.sol:CrowdFunding",
								"label": "name",
								"offset": 0,
								"slot": "0",
								"type": "t_string_storage"
							},
							{
								"astId": 5,
								"contract": "Practice tokens/Assignment7.sol:CrowdFunding",
								"label": "description",
								"offset": 0,
								"slot": "1",
								"type": "t_string_storage"
							},
							{
								"astId": 7,
								"contract": "Practice tokens/Assignment7.sol:CrowdFunding",
								"label": "funding_goal",
								"offset": 0,
								"slot": "2",
								"type": "t_uint256"
							},
							{
								"astId": 9,
								"contract": "Practice tokens/Assignment7.sol:CrowdFunding",
								"label": "deadline",
								"offset": 0,
								"slot": "3",
								"type": "t_uint256"
							},
							{
								"astId": 11,
								"contract": "Practice tokens/Assignment7.sol:CrowdFunding",
								"label": "recievedAmount",
								"offset": 0,
								"slot": "4",
								"type": "t_uint256"
							},
							{
								"astId": 13,
								"contract": "Practice tokens/Assignment7.sol:CrowdFunding",
								"label": "_owner",
								"offset": 0,
								"slot": "5",
								"type": "t_address"
							},
							{
								"astId": 17,
								"contract": "Practice tokens/Assignment7.sol:CrowdFunding",
								"label": "balance",
								"offset": 0,
								"slot": "6",
								"type": "t_array(t_struct(userbalance)23_storage)dyn_storage"
							}
						],
						"numberOfBytes": "224"
					},
					"t_struct(userbalance)23_storage": {
						"encoding": "inplace",
						"label": "struct CrowdFunding.userbalance",
						"members": [
							{
								"astId": 20,
								"contract": "Practice tokens/Assignment7.sol:CrowdFunding",
								"label": "_address",
								"offset": 0,
								"slot": "0",
								"type": "t_address"
							},
							{
								"astId": 22,
								"contract": "Practice tokens/Assignment7.sol:CrowdFunding",
								"label": "_balance",
								"offset": 0,
								"slot": "1",
								"type": "t_uint256"
							}
						],
						"numberOfBytes": "64"
					},
					"t_uint256": {
						"encoding": "inplace",
						"label": "uint256",
						"numberOfBytes": "32"
					}
				}
			},
			"userdoc": {
				"kind": "user",
				"methods": {},
				"version": 1
			}
		}
	}
}