{
	"Practice tokens/Assignment7.sol": {
		"CrowdFunding": {
			"abi": [
				{
					"inputs": [
						{
							"internalType": "uint256",
							"name": "_id",
							"type": "uint256"
						}
					],
					"name": "conditionNotMet",
					"outputs": [],
					"stateMutability": "payable",
					"type": "function"
				},
				{
					"inputs": [
						{
							"internalType": "uint256",
							"name": "_id",
							"type": "uint256"
						}
					],
					"name": "contribute",
					"outputs": [],
					"stateMutability": "payable",
					"type": "function"
				},
				{
					"inputs": [
						{
							"internalType": "uint256",
							"name": "_id",
							"type": "uint256"
						}
					],
					"name": "fundingComplete",
					"outputs": [],
					"stateMutability": "payable",
					"type": "function"
				},
				{
					"inputs": [
						{
							"internalType": "uint256",
							"name": "_id",
							"type": "uint256"
						},
						{
							"internalType": "string",
							"name": "_name",
							"type": "string"
						},
						{
							"internalType": "string",
							"name": "_description",
							"type": "string"
						},
						{
							"internalType": "uint256",
							"name": "_funding_goal",
							"type": "uint256"
						},
						{
							"internalType": "uint256",
							"name": "_deadline",
							"type": "uint256"
						}
					],
					"name": "setProjectDetails",
					"outputs": [],
					"stateMutability": "nonpayable",
					"type": "function"
				},
				{
					"inputs": [
						{
							"internalType": "uint256",
							"name": "",
							"type": "uint256"
						}
					],
					"name": "userProjects",
					"outputs": [
						{
							"internalType": "string",
							"name": "name",
							"type": "string"
						},
						{
							"internalType": "string",
							"name": "description",
							"type": "string"
						},
						{
							"internalType": "uint256",
							"name": "funding_goal",
							"type": "uint256"
						},
						{
							"internalType": "uint256",
							"name": "deadline",
							"type": "uint256"
						},
						{
							"internalType": "uint256",
							"name": "funding",
							"type": "uint256"
						},
						{
							"internalType": "address",
							"name": "_owner",
							"type": "address"
						}
					],
					"stateMutability": "view",
					"type": "function"
				}
			],
			"devdoc": {
				"kind": "dev",
				"methods": {},
				"version": 1
			},
			"evm": {
				"assembly": "    /* \"Practice tokens/Assignment7.sol\":57:1462  contract CrowdFunding {... */\n  mstore(0x40, 0x80)\n  callvalue\n  dup1\n  iszero\n  tag_1\n  jumpi\n  0x00\n  dup1\n  revert\ntag_1:\n  pop\n  dataSize(sub_0)\n  dup1\n  dataOffset(sub_0)\n  0x00\n  codecopy\n  0x00\n  return\nstop\n\nsub_0: assembly {\n        /* \"Practice tokens/Assignment7.sol\":57:1462  contract CrowdFunding {... */\n      mstore(0x40, 0x80)\n      jumpi(tag_1, lt(calldatasize, 0x04))\n      shr(0xe0, calldataload(0x00))\n      dup1\n      0x33b8c62a\n      eq\n      tag_2\n      jumpi\n      dup1\n      0x38e22afc\n      eq\n      tag_3\n      jumpi\n      dup1\n      0x9ea5cb11\n      eq\n      tag_4\n      jumpi\n      dup1\n      0xc1cbbca7\n      eq\n      tag_5\n      jumpi\n      dup1\n      0xec939ae4\n      eq\n      tag_6\n      jumpi\n    tag_1:\n      0x00\n      dup1\n      revert\n        /* \"Practice tokens/Assignment7.sol\":334:388  mapping(uint256 => projectDetails) public userProjects */\n    tag_2:\n      callvalue\n      dup1\n      iszero\n      tag_7\n      jumpi\n      0x00\n      dup1\n      revert\n    tag_7:\n      pop\n      tag_8\n      0x04\n      dup1\n      calldatasize\n      sub\n      dup2\n      add\n      swap1\n      tag_9\n      swap2\n      swap1\n      tag_10\n      jump\t// in\n    tag_9:\n      tag_11\n      jump\t// in\n    tag_8:\n      mload(0x40)\n      tag_12\n      swap7\n      swap6\n      swap5\n      swap4\n      swap3\n      swap2\n      swap1\n      tag_13\n      jump\t// in\n    tag_12:\n      mload(0x40)\n      dup1\n      swap2\n      sub\n      swap1\n      return\n        /* \"Practice tokens/Assignment7.sol\":1239:1459  function fundingComplete(uint _id) public payable{... */\n    tag_3:\n      tag_14\n      0x04\n      dup1\n      calldatasize\n      sub\n      dup2\n      add\n      swap1\n      tag_15\n      swap2\n      swap1\n      tag_10\n      jump\t// in\n    tag_15:\n      tag_16\n      jump\t// in\n    tag_14:\n      stop\n        /* \"Practice tokens/Assignment7.sol\":998:1233  function conditionNotMet(uint _id) public payable {... */\n    tag_4:\n      tag_17\n      0x04\n      dup1\n      calldatasize\n      sub\n      dup2\n      add\n      swap1\n      tag_18\n      swap2\n      swap1\n      tag_10\n      jump\t// in\n    tag_18:\n      tag_19\n      jump\t// in\n    tag_17:\n      stop\n        /* \"Practice tokens/Assignment7.sol\":810:992  function contribute(uint _id) public payable {... */\n    tag_5:\n      tag_20\n      0x04\n      dup1\n      calldatasize\n      sub\n      dup2\n      add\n      swap1\n      tag_21\n      swap2\n      swap1\n      tag_10\n      jump\t// in\n    tag_21:\n      tag_22\n      jump\t// in\n    tag_20:\n      stop\n        /* \"Practice tokens/Assignment7.sol\":396:804  function setProjectDetails( uint256 _id, string memory _name,string memory _description,uint256 _funding_goal, uint256 _deadline ) public {... */\n    tag_6:\n      callvalue\n      dup1\n      iszero\n      tag_23\n      jumpi\n      0x00\n      dup1\n      revert\n    tag_23:\n      pop\n      tag_24\n      0x04\n      dup1\n      calldatasize\n      sub\n      dup2\n      add\n      swap1\n      tag_25\n      swap2\n      swap1\n      tag_26\n      jump\t// in\n    tag_25:\n      tag_27\n      jump\t// in\n    tag_24:\n      stop\n        /* \"Practice tokens/Assignment7.sol\":334:388  mapping(uint256 => projectDetails) public userProjects */\n    tag_11:\n      mstore(0x20, 0x02)\n      dup1\n      0x00\n      mstore\n      keccak256(0x00, 0x40)\n      0x00\n      swap2\n      pop\n      swap1\n      pop\n      dup1\n      0x00\n      add\n      dup1\n      sload\n      tag_28\n      swap1\n      tag_29\n      jump\t// in\n    tag_28:\n      dup1\n      0x1f\n      add\n      0x20\n      dup1\n      swap2\n      div\n      mul\n      0x20\n      add\n      mload(0x40)\n      swap1\n      dup2\n      add\n      0x40\n      mstore\n      dup1\n      swap3\n      swap2\n      swap1\n      dup2\n      dup2\n      mstore\n      0x20\n      add\n      dup3\n      dup1\n      sload\n      tag_30\n      swap1\n      tag_29\n      jump\t// in\n    tag_30:\n      dup1\n      iszero\n      tag_31\n      jumpi\n      dup1\n      0x1f\n      lt\n      tag_32\n      jumpi\n      0x0100\n      dup1\n      dup4\n      sload\n      div\n      mul\n      dup4\n      mstore\n      swap2\n      0x20\n      add\n      swap2\n      jump(tag_31)\n    tag_32:\n      dup3\n      add\n      swap2\n      swap1\n      0x00\n      mstore\n      keccak256(0x00, 0x20)\n      swap1\n    tag_33:\n      dup2\n      sload\n      dup2\n      mstore\n      swap1\n      0x01\n      add\n      swap1\n      0x20\n      add\n      dup1\n      dup4\n      gt\n      tag_33\n      jumpi\n      dup3\n      swap1\n      sub\n      0x1f\n      and\n      dup3\n      add\n      swap2\n    tag_31:\n      pop\n      pop\n      pop\n      pop\n      pop\n      swap1\n      dup1\n      0x01\n      add\n      dup1\n      sload\n      tag_34\n      swap1\n      tag_29\n      jump\t// in\n    tag_34:\n      dup1\n      0x1f\n      add\n      0x20\n      dup1\n      swap2\n      div\n      mul\n      0x20\n      add\n      mload(0x40)\n      swap1\n      dup2\n      add\n      0x40\n      mstore\n      dup1\n      swap3\n      swap2\n      swap1\n      dup2\n      dup2\n      mstore\n      0x20\n      add\n      dup3\n      dup1\n      sload\n      tag_35\n      swap1\n      tag_29\n      jump\t// in\n    tag_35:\n      dup1\n      iszero\n      tag_36\n      jumpi\n      dup1\n      0x1f\n      lt\n      tag_37\n      jumpi\n      0x0100\n      dup1\n      dup4\n      sload\n      div\n      mul\n      dup4\n      mstore\n      swap2\n      0x20\n      add\n      swap2\n      jump(tag_36)\n    tag_37:\n      dup3\n      add\n      swap2\n      swap1\n      0x00\n      mstore\n      keccak256(0x00, 0x20)\n      swap1\n    tag_38:\n      dup2\n      sload\n      dup2\n      mstore\n      swap1\n      0x01\n      add\n      swap1\n      0x20\n      add\n      dup1\n      dup4\n      gt\n      tag_38\n      jumpi\n      dup3\n      swap1\n      sub\n      0x1f\n      and\n      dup3\n      add\n      swap2\n    tag_36:\n      pop\n      pop\n      pop\n      pop\n      pop\n      swap1\n      dup1\n      0x02\n      add\n      sload\n      swap1\n      dup1\n      0x03\n      add\n      sload\n      swap1\n      dup1\n      0x04\n      add\n      sload\n      swap1\n      dup1\n      0x05\n      add\n      0x00\n      swap1\n      sload\n      swap1\n      0x0100\n      exp\n      swap1\n      div\n      0xffffffffffffffffffffffffffffffffffffffff\n      and\n      swap1\n      pop\n      dup7\n      jump\t// out\n        /* \"Practice tokens/Assignment7.sol\":1239:1459  function fundingComplete(uint _id) public payable{... */\n    tag_16:\n        /* \"Practice tokens/Assignment7.sol\":1320:1332  userProjects */\n      0x02\n        /* \"Practice tokens/Assignment7.sol\":1320:1337  userProjects[_id] */\n      0x00\n        /* \"Practice tokens/Assignment7.sol\":1333:1336  _id */\n      dup3\n        /* \"Practice tokens/Assignment7.sol\":1320:1337  userProjects[_id] */\n      dup2\n      mstore\n      0x20\n      add\n      swap1\n      dup2\n      mstore\n      0x20\n      add\n      0x00\n      keccak256\n        /* \"Practice tokens/Assignment7.sol\":1320:1344  userProjects[_id]._owner */\n      0x05\n      add\n      0x00\n      swap1\n      sload\n      swap1\n      0x0100\n      exp\n      swap1\n      div\n      0xffffffffffffffffffffffffffffffffffffffff\n      and\n        /* \"Practice tokens/Assignment7.sol\":1306:1344  msg.sender == userProjects[_id]._owner */\n      0xffffffffffffffffffffffffffffffffffffffff\n      and\n        /* \"Practice tokens/Assignment7.sol\":1306:1316  msg.sender */\n      caller\n        /* \"Practice tokens/Assignment7.sol\":1306:1344  msg.sender == userProjects[_id]._owner */\n      0xffffffffffffffffffffffffffffffffffffffff\n      and\n      eq\n        /* \"Practice tokens/Assignment7.sol\":1298:1373  require(msg.sender == userProjects[_id]._owner,\" Only Owner can widthdraw\") */\n      tag_40\n      jumpi\n      mload(0x40)\n      0x08c379a000000000000000000000000000000000000000000000000000000000\n      dup2\n      mstore\n      0x04\n      add\n      tag_41\n      swap1\n      tag_42\n      jump\t// in\n    tag_41:\n      mload(0x40)\n      dup1\n      swap2\n      sub\n      swap1\n      revert\n    tag_40:\n        /* \"Practice tokens/Assignment7.sol\":1391:1403  userProjects */\n      0x02\n        /* \"Practice tokens/Assignment7.sol\":1391:1408  userProjects[_id] */\n      0x00\n        /* \"Practice tokens/Assignment7.sol\":1404:1407  _id */\n      dup3\n        /* \"Practice tokens/Assignment7.sol\":1391:1408  userProjects[_id] */\n      dup2\n      mstore\n      0x20\n      add\n      swap1\n      dup2\n      mstore\n      0x20\n      add\n      0x00\n      keccak256\n        /* \"Practice tokens/Assignment7.sol\":1391:1415  userProjects[_id]._owner */\n      0x05\n      add\n      0x00\n      swap1\n      sload\n      swap1\n      0x0100\n      exp\n      swap1\n      div\n      0xffffffffffffffffffffffffffffffffffffffff\n      and\n        /* \"Practice tokens/Assignment7.sol\":1383:1425  payable(userProjects[_id]._owner).transfer */\n      0xffffffffffffffffffffffffffffffffffffffff\n      and\n        /* \"Practice tokens/Assignment7.sol\":1383:1452  payable(userProjects[_id]._owner).transfer(userProjects[_id].funding) */\n      0x08fc\n        /* \"Practice tokens/Assignment7.sol\":1426:1438  userProjects */\n      0x02\n        /* \"Practice tokens/Assignment7.sol\":1426:1443  userProjects[_id] */\n      0x00\n        /* \"Practice tokens/Assignment7.sol\":1439:1442  _id */\n      dup5\n        /* \"Practice tokens/Assignment7.sol\":1426:1443  userProjects[_id] */\n      dup2\n      mstore\n      0x20\n      add\n      swap1\n      dup2\n      mstore\n      0x20\n      add\n      0x00\n      keccak256\n        /* \"Practice tokens/Assignment7.sol\":1426:1451  userProjects[_id].funding */\n      0x04\n      add\n      sload\n        /* \"Practice tokens/Assignment7.sol\":1383:1452  payable(userProjects[_id]._owner).transfer(userProjects[_id].funding) */\n      swap1\n      dup2\n      iszero\n      mul\n      swap1\n      mload(0x40)\n      0x00\n      mload(0x40)\n      dup1\n      dup4\n      sub\n      dup2\n      dup6\n      dup9\n      dup9\n      call\n      swap4\n      pop\n      pop\n      pop\n      pop\n      iszero\n      dup1\n      iszero\n      tag_44\n      jumpi\n      returndatasize\n      0x00\n      dup1\n      returndatacopy\n      revert(0x00, returndatasize)\n    tag_44:\n      pop\n        /* \"Practice tokens/Assignment7.sol\":1239:1459  function fundingComplete(uint _id) public payable{... */\n      pop\n      jump\t// out\n        /* \"Practice tokens/Assignment7.sol\":998:1233  function conditionNotMet(uint _id) public payable {... */\n    tag_19:\n        /* \"Practice tokens/Assignment7.sol\":1080:1092  userProjects */\n      0x02\n        /* \"Practice tokens/Assignment7.sol\":1080:1097  userProjects[_id] */\n      0x00\n        /* \"Practice tokens/Assignment7.sol\":1093:1096  _id */\n      dup3\n        /* \"Practice tokens/Assignment7.sol\":1080:1097  userProjects[_id] */\n      dup2\n      mstore\n      0x20\n      add\n      swap1\n      dup2\n      mstore\n      0x20\n      add\n      0x00\n      keccak256\n        /* \"Practice tokens/Assignment7.sol\":1080:1104  userProjects[_id]._owner */\n      0x05\n      add\n      0x00\n      swap1\n      sload\n      swap1\n      0x0100\n      exp\n      swap1\n      div\n      0xffffffffffffffffffffffffffffffffffffffff\n      and\n        /* \"Practice tokens/Assignment7.sol\":1066:1104  msg.sender != userProjects[_id]._owner */\n      0xffffffffffffffffffffffffffffffffffffffff\n      and\n        /* \"Practice tokens/Assignment7.sol\":1066:1076  msg.sender */\n      caller\n        /* \"Practice tokens/Assignment7.sol\":1066:1104  msg.sender != userProjects[_id]._owner */\n      0xffffffffffffffffffffffffffffffffffffffff\n      and\n      sub\n        /* \"Practice tokens/Assignment7.sol\":1058:1161  require(msg.sender != userProjects[_id]._owner,\" Owner can't take money if contribution not completed\") */\n      tag_46\n      jumpi\n      mload(0x40)\n      0x08c379a000000000000000000000000000000000000000000000000000000000\n      dup2\n      mstore\n      0x04\n      add\n      tag_47\n      swap1\n      tag_48\n      jump\t// in\n    tag_47:\n      mload(0x40)\n      dup1\n      swap2\n      sub\n      swap1\n      revert\n    tag_46:\n        /* \"Practice tokens/Assignment7.sol\":1179:1189  msg.sender */\n      caller\n        /* \"Practice tokens/Assignment7.sol\":1171:1199  payable(msg.sender).transfer */\n      0xffffffffffffffffffffffffffffffffffffffff\n      and\n        /* \"Practice tokens/Assignment7.sol\":1171:1226  payable(msg.sender).transfer(userProjects[_id].funding) */\n      0x08fc\n        /* \"Practice tokens/Assignment7.sol\":1200:1212  userProjects */\n      0x02\n        /* \"Practice tokens/Assignment7.sol\":1200:1217  userProjects[_id] */\n      0x00\n        /* \"Practice tokens/Assignment7.sol\":1213:1216  _id */\n      dup5\n        /* \"Practice tokens/Assignment7.sol\":1200:1217  userProjects[_id] */\n      dup2\n      mstore\n      0x20\n      add\n      swap1\n      dup2\n      mstore\n      0x20\n      add\n      0x00\n      keccak256\n        /* \"Practice tokens/Assignment7.sol\":1200:1225  userProjects[_id].funding */\n      0x04\n      add\n      sload\n        /* \"Practice tokens/Assignment7.sol\":1171:1226  payable(msg.sender).transfer(userProjects[_id].funding) */\n      swap1\n      dup2\n      iszero\n      mul\n      swap1\n      mload(0x40)\n      0x00\n      mload(0x40)\n      dup1\n      dup4\n      sub\n      dup2\n      dup6\n      dup9\n      dup9\n      call\n      swap4\n      pop\n      pop\n      pop\n      pop\n      iszero\n      dup1\n      iszero\n      tag_50\n      jumpi\n      returndatasize\n      0x00\n      dup1\n      returndatacopy\n      revert(0x00, returndatasize)\n    tag_50:\n      pop\n        /* \"Practice tokens/Assignment7.sol\":998:1233  function conditionNotMet(uint _id) public payable {... */\n      pop\n      jump\t// out\n        /* \"Practice tokens/Assignment7.sol\":810:992  function contribute(uint _id) public payable {... */\n    tag_22:\n        /* \"Practice tokens/Assignment7.sol\":887:899  userProjects */\n      0x02\n        /* \"Practice tokens/Assignment7.sol\":887:904  userProjects[_id] */\n      0x00\n        /* \"Practice tokens/Assignment7.sol\":900:903  _id */\n      dup3\n        /* \"Practice tokens/Assignment7.sol\":887:904  userProjects[_id] */\n      dup2\n      mstore\n      0x20\n      add\n      swap1\n      dup2\n      mstore\n      0x20\n      add\n      0x00\n      keccak256\n        /* \"Practice tokens/Assignment7.sol\":887:911  userProjects[_id]._owner */\n      0x05\n      add\n      0x00\n      swap1\n      sload\n      swap1\n      0x0100\n      exp\n      swap1\n      div\n      0xffffffffffffffffffffffffffffffffffffffff\n      and\n        /* \"Practice tokens/Assignment7.sol\":873:911  msg.sender != userProjects[_id]._owner */\n      0xffffffffffffffffffffffffffffffffffffffff\n      and\n        /* \"Practice tokens/Assignment7.sol\":873:883  msg.sender */\n      caller\n        /* \"Practice tokens/Assignment7.sol\":873:911  msg.sender != userProjects[_id]._owner */\n      0xffffffffffffffffffffffffffffffffffffffff\n      and\n      sub\n        /* \"Practice tokens/Assignment7.sol\":865:938  require(msg.sender != userProjects[_id]._owner,\" Owner can't contribute\") */\n      tag_52\n      jumpi\n      mload(0x40)\n      0x08c379a000000000000000000000000000000000000000000000000000000000\n      dup2\n      mstore\n      0x04\n      add\n      tag_53\n      swap1\n      tag_54\n      jump\t// in\n    tag_53:\n      mload(0x40)\n      dup1\n      swap2\n      sub\n      swap1\n      revert\n    tag_52:\n        /* \"Practice tokens/Assignment7.sol\":976:985  msg.value */\n      callvalue\n        /* \"Practice tokens/Assignment7.sol\":948:960  userProjects */\n      0x02\n        /* \"Practice tokens/Assignment7.sol\":948:965  userProjects[_id] */\n      0x00\n        /* \"Practice tokens/Assignment7.sol\":961:964  _id */\n      dup4\n        /* \"Practice tokens/Assignment7.sol\":948:965  userProjects[_id] */\n      dup2\n      mstore\n      0x20\n      add\n      swap1\n      dup2\n      mstore\n      0x20\n      add\n      0x00\n      keccak256\n        /* \"Practice tokens/Assignment7.sol\":948:973  userProjects[_id].funding */\n      0x04\n      add\n        /* \"Practice tokens/Assignment7.sol\":948:985  userProjects[_id].funding = msg.value */\n      dup2\n      swap1\n      sstore\n      pop\n        /* \"Practice tokens/Assignment7.sol\":810:992  function contribute(uint _id) public payable {... */\n      pop\n      jump\t// out\n        /* \"Practice tokens/Assignment7.sol\":396:804  function setProjectDetails( uint256 _id, string memory _name,string memory _description,uint256 _funding_goal, uint256 _deadline ) public {... */\n    tag_27:\n        /* \"Practice tokens/Assignment7.sol\":569:574  _name */\n      dup4\n        /* \"Practice tokens/Assignment7.sol\":544:556  userProjects */\n      0x02\n        /* \"Practice tokens/Assignment7.sol\":544:561  userProjects[_id] */\n      0x00\n        /* \"Practice tokens/Assignment7.sol\":557:560  _id */\n      dup8\n        /* \"Practice tokens/Assignment7.sol\":544:561  userProjects[_id] */\n      dup2\n      mstore\n      0x20\n      add\n      swap1\n      dup2\n      mstore\n      0x20\n      add\n      0x00\n      keccak256\n        /* \"Practice tokens/Assignment7.sol\":544:566  userProjects[_id].name */\n      0x00\n      add\n        /* \"Practice tokens/Assignment7.sol\":544:574  userProjects[_id].name = _name */\n      swap1\n      dup2\n      tag_56\n      swap2\n      swap1\n      tag_57\n      jump\t// in\n    tag_56:\n      pop\n        /* \"Practice tokens/Assignment7.sol\":616:628  _description */\n      dup3\n        /* \"Practice tokens/Assignment7.sol\":584:596  userProjects */\n      0x02\n        /* \"Practice tokens/Assignment7.sol\":584:601  userProjects[_id] */\n      0x00\n        /* \"Practice tokens/Assignment7.sol\":597:600  _id */\n      dup8\n        /* \"Practice tokens/Assignment7.sol\":584:601  userProjects[_id] */\n      dup2\n      mstore\n      0x20\n      add\n      swap1\n      dup2\n      mstore\n      0x20\n      add\n      0x00\n      keccak256\n        /* \"Practice tokens/Assignment7.sol\":584:613  userProjects[_id].description */\n      0x01\n      add\n        /* \"Practice tokens/Assignment7.sol\":584:628  userProjects[_id].description = _description */\n      swap1\n      dup2\n      tag_58\n      swap2\n      swap1\n      tag_57\n      jump\t// in\n    tag_58:\n      pop\n        /* \"Practice tokens/Assignment7.sol\":671:684  _funding_goal */\n      dup2\n        /* \"Practice tokens/Assignment7.sol\":638:650  userProjects */\n      0x02\n        /* \"Practice tokens/Assignment7.sol\":638:655  userProjects[_id] */\n      0x00\n        /* \"Practice tokens/Assignment7.sol\":651:654  _id */\n      dup8\n        /* \"Practice tokens/Assignment7.sol\":638:655  userProjects[_id] */\n      dup2\n      mstore\n      0x20\n      add\n      swap1\n      dup2\n      mstore\n      0x20\n      add\n      0x00\n      keccak256\n        /* \"Practice tokens/Assignment7.sol\":638:668  userProjects[_id].funding_goal */\n      0x02\n      add\n        /* \"Practice tokens/Assignment7.sol\":638:684  userProjects[_id].funding_goal = _funding_goal */\n      dup2\n      swap1\n      sstore\n      pop\n        /* \"Practice tokens/Assignment7.sol\":721:731  msg.sender */\n      caller\n        /* \"Practice tokens/Assignment7.sol\":694:706  userProjects */\n      0x02\n        /* \"Practice tokens/Assignment7.sol\":694:711  userProjects[_id] */\n      0x00\n        /* \"Practice tokens/Assignment7.sol\":707:710  _id */\n      dup8\n        /* \"Practice tokens/Assignment7.sol\":694:711  userProjects[_id] */\n      dup2\n      mstore\n      0x20\n      add\n      swap1\n      dup2\n      mstore\n      0x20\n      add\n      0x00\n      keccak256\n        /* \"Practice tokens/Assignment7.sol\":694:718  userProjects[_id]._owner */\n      0x05\n      add\n      0x00\n        /* \"Practice tokens/Assignment7.sol\":694:731  userProjects[_id]._owner = msg.sender */\n      0x0100\n      exp\n      dup2\n      sload\n      dup2\n      0xffffffffffffffffffffffffffffffffffffffff\n      mul\n      not\n      and\n      swap1\n      dup4\n      0xffffffffffffffffffffffffffffffffffffffff\n      and\n      mul\n      or\n      swap1\n      sstore\n      pop\n        /* \"Practice tokens/Assignment7.sol\":788:797  _deadline */\n      dup1\n        /* \"Practice tokens/Assignment7.sol\":770:785  block.timestamp */\n      timestamp\n        /* \"Practice tokens/Assignment7.sol\":770:797  block.timestamp + _deadline */\n      tag_59\n      swap2\n      swap1\n      tag_60\n      jump\t// in\n    tag_59:\n        /* \"Practice tokens/Assignment7.sol\":741:753  userProjects */\n      0x02\n        /* \"Practice tokens/Assignment7.sol\":741:758  userProjects[_id] */\n      0x00\n        /* \"Practice tokens/Assignment7.sol\":754:757  _id */\n      dup8\n        /* \"Practice tokens/Assignment7.sol\":741:758  userProjects[_id] */\n      dup2\n      mstore\n      0x20\n      add\n      swap1\n      dup2\n      mstore\n      0x20\n      add\n      0x00\n      keccak256\n        /* \"Practice tokens/Assignment7.sol\":741:767  userProjects[_id].deadline */\n      0x03\n      add\n        /* \"Practice tokens/Assignment7.sol\":741:797  userProjects[_id].deadline = block.timestamp + _deadline */\n      dup2\n      swap1\n      sstore\n      pop\n        /* \"Practice tokens/Assignment7.sol\":396:804  function setProjectDetails( uint256 _id, string memory _name,string memory _description,uint256 _funding_goal, uint256 _deadline ) public {... */\n      pop\n      pop\n      pop\n      pop\n      pop\n      jump\t// out\n        /* \"#utility.yul\":7:82   */\n    tag_61:\n        /* \"#utility.yul\":40:46   */\n      0x00\n        /* \"#utility.yul\":73:75   */\n      0x40\n        /* \"#utility.yul\":67:76   */\n      mload\n        /* \"#utility.yul\":57:76   */\n      swap1\n      pop\n        /* \"#utility.yul\":7:82   */\n      swap1\n      jump\t// out\n        /* \"#utility.yul\":88:205   */\n    tag_62:\n        /* \"#utility.yul\":197:198   */\n      0x00\n        /* \"#utility.yul\":194:195   */\n      dup1\n        /* \"#utility.yul\":187:199   */\n      revert\n        /* \"#utility.yul\":211:328   */\n    tag_63:\n        /* \"#utility.yul\":320:321   */\n      0x00\n        /* \"#utility.yul\":317:318   */\n      dup1\n        /* \"#utility.yul\":310:322   */\n      revert\n        /* \"#utility.yul\":334:411   */\n    tag_64:\n        /* \"#utility.yul\":371:378   */\n      0x00\n        /* \"#utility.yul\":400:405   */\n      dup2\n        /* \"#utility.yul\":389:405   */\n      swap1\n      pop\n        /* \"#utility.yul\":334:411   */\n      swap2\n      swap1\n      pop\n      jump\t// out\n        /* \"#utility.yul\":417:539   */\n    tag_65:\n        /* \"#utility.yul\":490:514   */\n      tag_114\n        /* \"#utility.yul\":508:513   */\n      dup2\n        /* \"#utility.yul\":490:514   */\n      tag_64\n      jump\t// in\n    tag_114:\n        /* \"#utility.yul\":483:488   */\n      dup2\n        /* \"#utility.yul\":480:515   */\n      eq\n        /* \"#utility.yul\":470:533   */\n      tag_115\n      jumpi\n        /* \"#utility.yul\":529:530   */\n      0x00\n        /* \"#utility.yul\":526:527   */\n      dup1\n        /* \"#utility.yul\":519:531   */\n      revert\n        /* \"#utility.yul\":470:533   */\n    tag_115:\n        /* \"#utility.yul\":417:539   */\n      pop\n      jump\t// out\n        /* \"#utility.yul\":545:684   */\n    tag_66:\n        /* \"#utility.yul\":591:596   */\n      0x00\n        /* \"#utility.yul\":629:635   */\n      dup2\n        /* \"#utility.yul\":616:636   */\n      calldataload\n        /* \"#utility.yul\":607:636   */\n      swap1\n      pop\n        /* \"#utility.yul\":645:678   */\n      tag_117\n        /* \"#utility.yul\":672:677   */\n      dup2\n        /* \"#utility.yul\":645:678   */\n      tag_65\n      jump\t// in\n    tag_117:\n        /* \"#utility.yul\":545:684   */\n      swap3\n      swap2\n      pop\n      pop\n      jump\t// out\n        /* \"#utility.yul\":690:1019   */\n    tag_10:\n        /* \"#utility.yul\":749:755   */\n      0x00\n        /* \"#utility.yul\":798:800   */\n      0x20\n        /* \"#utility.yul\":786:795   */\n      dup3\n        /* \"#utility.yul\":777:784   */\n      dup5\n        /* \"#utility.yul\":773:796   */\n      sub\n        /* \"#utility.yul\":769:801   */\n      slt\n        /* \"#utility.yul\":766:885   */\n      iszero\n      tag_119\n      jumpi\n        /* \"#utility.yul\":804:883   */\n      tag_120\n      tag_62\n      jump\t// in\n    tag_120:\n        /* \"#utility.yul\":766:885   */\n    tag_119:\n        /* \"#utility.yul\":924:925   */\n      0x00\n        /* \"#utility.yul\":949:1002   */\n      tag_121\n        /* \"#utility.yul\":994:1001   */\n      dup5\n        /* \"#utility.yul\":985:991   */\n      dup3\n        /* \"#utility.yul\":974:983   */\n      dup6\n        /* \"#utility.yul\":970:992   */\n      add\n        /* \"#utility.yul\":949:1002   */\n      tag_66\n      jump\t// in\n    tag_121:\n        /* \"#utility.yul\":939:1002   */\n      swap2\n      pop\n        /* \"#utility.yul\":895:1012   */\n      pop\n        /* \"#utility.yul\":690:1019   */\n      swap3\n      swap2\n      pop\n      pop\n      jump\t// out\n        /* \"#utility.yul\":1025:1124   */\n    tag_67:\n        /* \"#utility.yul\":1077:1083   */\n      0x00\n        /* \"#utility.yul\":1111:1116   */\n      dup2\n        /* \"#utility.yul\":1105:1117   */\n      mload\n        /* \"#utility.yul\":1095:1117   */\n      swap1\n      pop\n        /* \"#utility.yul\":1025:1124   */\n      swap2\n      swap1\n      pop\n      jump\t// out\n        /* \"#utility.yul\":1130:1299   */\n    tag_68:\n        /* \"#utility.yul\":1214:1225   */\n      0x00\n        /* \"#utility.yul\":1248:1254   */\n      dup3\n        /* \"#utility.yul\":1243:1246   */\n      dup3\n        /* \"#utility.yul\":1236:1255   */\n      mstore\n        /* \"#utility.yul\":1288:1292   */\n      0x20\n        /* \"#utility.yul\":1283:1286   */\n      dup3\n        /* \"#utility.yul\":1279:1293   */\n      add\n        /* \"#utility.yul\":1264:1293   */\n      swap1\n      pop\n        /* \"#utility.yul\":1130:1299   */\n      swap3\n      swap2\n      pop\n      pop\n      jump\t// out\n        /* \"#utility.yul\":1305:1551   */\n    tag_69:\n        /* \"#utility.yul\":1386:1387   */\n      0x00\n        /* \"#utility.yul\":1396:1509   */\n    tag_125:\n        /* \"#utility.yul\":1410:1416   */\n      dup4\n        /* \"#utility.yul\":1407:1408   */\n      dup2\n        /* \"#utility.yul\":1404:1417   */\n      lt\n        /* \"#utility.yul\":1396:1509   */\n      iszero\n      tag_127\n      jumpi\n        /* \"#utility.yul\":1495:1496   */\n      dup1\n        /* \"#utility.yul\":1490:1493   */\n      dup3\n        /* \"#utility.yul\":1486:1497   */\n      add\n        /* \"#utility.yul\":1480:1498   */\n      mload\n        /* \"#utility.yul\":1476:1477   */\n      dup2\n        /* \"#utility.yul\":1471:1474   */\n      dup5\n        /* \"#utility.yul\":1467:1478   */\n      add\n        /* \"#utility.yul\":1460:1499   */\n      mstore\n        /* \"#utility.yul\":1432:1434   */\n      0x20\n        /* \"#utility.yul\":1429:1430   */\n      dup2\n        /* \"#utility.yul\":1425:1435   */\n      add\n        /* \"#utility.yul\":1420:1435   */\n      swap1\n      pop\n        /* \"#utility.yul\":1396:1509   */\n      jump(tag_125)\n    tag_127:\n        /* \"#utility.yul\":1543:1544   */\n      0x00\n        /* \"#utility.yul\":1534:1540   */\n      dup5\n        /* \"#utility.yul\":1529:1532   */\n      dup5\n        /* \"#utility.yul\":1525:1541   */\n      add\n        /* \"#utility.yul\":1518:1545   */\n      mstore\n        /* \"#utility.yul\":1367:1551   */\n      pop\n        /* \"#utility.yul\":1305:1551   */\n      pop\n      pop\n      pop\n      jump\t// out\n        /* \"#utility.yul\":1557:1659   */\n    tag_70:\n        /* \"#utility.yul\":1598:1604   */\n      0x00\n        /* \"#utility.yul\":1649:1651   */\n      0x1f\n        /* \"#utility.yul\":1645:1652   */\n      not\n        /* \"#utility.yul\":1640:1642   */\n      0x1f\n        /* \"#utility.yul\":1633:1638   */\n      dup4\n        /* \"#utility.yul\":1629:1643   */\n      add\n        /* \"#utility.yul\":1625:1653   */\n      and\n        /* \"#utility.yul\":1615:1653   */\n      swap1\n      pop\n        /* \"#utility.yul\":1557:1659   */\n      swap2\n      swap1\n      pop\n      jump\t// out\n        /* \"#utility.yul\":1665:2042   */\n    tag_71:\n        /* \"#utility.yul\":1753:1756   */\n      0x00\n        /* \"#utility.yul\":1781:1820   */\n      tag_130\n        /* \"#utility.yul\":1814:1819   */\n      dup3\n        /* \"#utility.yul\":1781:1820   */\n      tag_67\n      jump\t// in\n    tag_130:\n        /* \"#utility.yul\":1836:1907   */\n      tag_131\n        /* \"#utility.yul\":1900:1906   */\n      dup2\n        /* \"#utility.yul\":1895:1898   */\n      dup6\n        /* \"#utility.yul\":1836:1907   */\n      tag_68\n      jump\t// in\n    tag_131:\n        /* \"#utility.yul\":1829:1907   */\n      swap4\n      pop\n        /* \"#utility.yul\":1916:1981   */\n      tag_132\n        /* \"#utility.yul\":1974:1980   */\n      dup2\n        /* \"#utility.yul\":1969:1972   */\n      dup6\n        /* \"#utility.yul\":1962:1966   */\n      0x20\n        /* \"#utility.yul\":1955:1960   */\n      dup7\n        /* \"#utility.yul\":1951:1967   */\n      add\n        /* \"#utility.yul\":1916:1981   */\n      tag_69\n      jump\t// in\n    tag_132:\n        /* \"#utility.yul\":2006:2035   */\n      tag_133\n        /* \"#utility.yul\":2028:2034   */\n      dup2\n        /* \"#utility.yul\":2006:2035   */\n      tag_70\n      jump\t// in\n    tag_133:\n        /* \"#utility.yul\":2001:2004   */\n      dup5\n        /* \"#utility.yul\":1997:2036   */\n      add\n        /* \"#utility.yul\":1990:2036   */\n      swap2\n      pop\n        /* \"#utility.yul\":1757:2042   */\n      pop\n        /* \"#utility.yul\":1665:2042   */\n      swap3\n      swap2\n      pop\n      pop\n      jump\t// out\n        /* \"#utility.yul\":2048:2166   */\n    tag_72:\n        /* \"#utility.yul\":2135:2159   */\n      tag_135\n        /* \"#utility.yul\":2153:2158   */\n      dup2\n        /* \"#utility.yul\":2135:2159   */\n      tag_64\n      jump\t// in\n    tag_135:\n        /* \"#utility.yul\":2130:2133   */\n      dup3\n        /* \"#utility.yul\":2123:2160   */\n      mstore\n        /* \"#utility.yul\":2048:2166   */\n      pop\n      pop\n      jump\t// out\n        /* \"#utility.yul\":2172:2298   */\n    tag_73:\n        /* \"#utility.yul\":2209:2216   */\n      0x00\n        /* \"#utility.yul\":2249:2291   */\n      0xffffffffffffffffffffffffffffffffffffffff\n        /* \"#utility.yul\":2242:2247   */\n      dup3\n        /* \"#utility.yul\":2238:2292   */\n      and\n        /* \"#utility.yul\":2227:2292   */\n      swap1\n      pop\n        /* \"#utility.yul\":2172:2298   */\n      swap2\n      swap1\n      pop\n      jump\t// out\n        /* \"#utility.yul\":2304:2400   */\n    tag_74:\n        /* \"#utility.yul\":2341:2348   */\n      0x00\n        /* \"#utility.yul\":2370:2394   */\n      tag_138\n        /* \"#utility.yul\":2388:2393   */\n      dup3\n        /* \"#utility.yul\":2370:2394   */\n      tag_73\n      jump\t// in\n    tag_138:\n        /* \"#utility.yul\":2359:2394   */\n      swap1\n      pop\n        /* \"#utility.yul\":2304:2400   */\n      swap2\n      swap1\n      pop\n      jump\t// out\n        /* \"#utility.yul\":2406:2524   */\n    tag_75:\n        /* \"#utility.yul\":2493:2517   */\n      tag_140\n        /* \"#utility.yul\":2511:2516   */\n      dup2\n        /* \"#utility.yul\":2493:2517   */\n      tag_74\n      jump\t// in\n    tag_140:\n        /* \"#utility.yul\":2488:2491   */\n      dup3\n        /* \"#utility.yul\":2481:2518   */\n      mstore\n        /* \"#utility.yul\":2406:2524   */\n      pop\n      pop\n      jump\t// out\n        /* \"#utility.yul\":2530:3487   */\n    tag_13:\n        /* \"#utility.yul\":2803:2807   */\n      0x00\n        /* \"#utility.yul\":2841:2844   */\n      0xc0\n        /* \"#utility.yul\":2830:2839   */\n      dup3\n        /* \"#utility.yul\":2826:2845   */\n      add\n        /* \"#utility.yul\":2818:2845   */\n      swap1\n      pop\n        /* \"#utility.yul\":2891:2900   */\n      dup2\n        /* \"#utility.yul\":2885:2889   */\n      dup2\n        /* \"#utility.yul\":2881:2901   */\n      sub\n        /* \"#utility.yul\":2877:2878   */\n      0x00\n        /* \"#utility.yul\":2866:2875   */\n      dup4\n        /* \"#utility.yul\":2862:2879   */\n      add\n        /* \"#utility.yul\":2855:2902   */\n      mstore\n        /* \"#utility.yul\":2919:2997   */\n      tag_142\n        /* \"#utility.yul\":2992:2996   */\n      dup2\n        /* \"#utility.yul\":2983:2989   */\n      dup10\n        /* \"#utility.yul\":2919:2997   */\n      tag_71\n      jump\t// in\n    tag_142:\n        /* \"#utility.yul\":2911:2997   */\n      swap1\n      pop\n        /* \"#utility.yul\":3044:3053   */\n      dup2\n        /* \"#utility.yul\":3038:3042   */\n      dup2\n        /* \"#utility.yul\":3034:3054   */\n      sub\n        /* \"#utility.yul\":3029:3031   */\n      0x20\n        /* \"#utility.yul\":3018:3027   */\n      dup4\n        /* \"#utility.yul\":3014:3032   */\n      add\n        /* \"#utility.yul\":3007:3055   */\n      mstore\n        /* \"#utility.yul\":3072:3150   */\n      tag_143\n        /* \"#utility.yul\":3145:3149   */\n      dup2\n        /* \"#utility.yul\":3136:3142   */\n      dup9\n        /* \"#utility.yul\":3072:3150   */\n      tag_71\n      jump\t// in\n    tag_143:\n        /* \"#utility.yul\":3064:3150   */\n      swap1\n      pop\n        /* \"#utility.yul\":3160:3232   */\n      tag_144\n        /* \"#utility.yul\":3228:3230   */\n      0x40\n        /* \"#utility.yul\":3217:3226   */\n      dup4\n        /* \"#utility.yul\":3213:3231   */\n      add\n        /* \"#utility.yul\":3204:3210   */\n      dup8\n        /* \"#utility.yul\":3160:3232   */\n      tag_72\n      jump\t// in\n    tag_144:\n        /* \"#utility.yul\":3242:3314   */\n      tag_145\n        /* \"#utility.yul\":3310:3312   */\n      0x60\n        /* \"#utility.yul\":3299:3308   */\n      dup4\n        /* \"#utility.yul\":3295:3313   */\n      add\n        /* \"#utility.yul\":3286:3292   */\n      dup7\n        /* \"#utility.yul\":3242:3314   */\n      tag_72\n      jump\t// in\n    tag_145:\n        /* \"#utility.yul\":3324:3397   */\n      tag_146\n        /* \"#utility.yul\":3392:3395   */\n      0x80\n        /* \"#utility.yul\":3381:3390   */\n      dup4\n        /* \"#utility.yul\":3377:3396   */\n      add\n        /* \"#utility.yul\":3368:3374   */\n      dup6\n        /* \"#utility.yul\":3324:3397   */\n      tag_72\n      jump\t// in\n    tag_146:\n        /* \"#utility.yul\":3407:3480   */\n      tag_147\n        /* \"#utility.yul\":3475:3478   */\n      0xa0\n        /* \"#utility.yul\":3464:3473   */\n      dup4\n        /* \"#utility.yul\":3460:3479   */\n      add\n        /* \"#utility.yul\":3451:3457   */\n      dup5\n        /* \"#utility.yul\":3407:3480   */\n      tag_75\n      jump\t// in\n    tag_147:\n        /* \"#utility.yul\":2530:3487   */\n      swap8\n      swap7\n      pop\n      pop\n      pop\n      pop\n      pop\n      pop\n      pop\n      jump\t// out\n        /* \"#utility.yul\":3493:3610   */\n    tag_76:\n        /* \"#utility.yul\":3602:3603   */\n      0x00\n        /* \"#utility.yul\":3599:3600   */\n      dup1\n        /* \"#utility.yul\":3592:3604   */\n      revert\n        /* \"#utility.yul\":3616:3733   */\n    tag_77:\n        /* \"#utility.yul\":3725:3726   */\n      0x00\n        /* \"#utility.yul\":3722:3723   */\n      dup1\n        /* \"#utility.yul\":3715:3727   */\n      revert\n        /* \"#utility.yul\":3739:3919   */\n    tag_78:\n        /* \"#utility.yul\":3787:3864   */\n      0x4e487b7100000000000000000000000000000000000000000000000000000000\n        /* \"#utility.yul\":3784:3785   */\n      0x00\n        /* \"#utility.yul\":3777:3865   */\n      mstore\n        /* \"#utility.yul\":3884:3888   */\n      0x41\n        /* \"#utility.yul\":3881:3882   */\n      0x04\n        /* \"#utility.yul\":3874:3889   */\n      mstore\n        /* \"#utility.yul\":3908:3912   */\n      0x24\n        /* \"#utility.yul\":3905:3906   */\n      0x00\n        /* \"#utility.yul\":3898:3913   */\n      revert\n        /* \"#utility.yul\":3925:4206   */\n    tag_79:\n        /* \"#utility.yul\":4008:4035   */\n      tag_152\n        /* \"#utility.yul\":4030:4034   */\n      dup3\n        /* \"#utility.yul\":4008:4035   */\n      tag_70\n      jump\t// in\n    tag_152:\n        /* \"#utility.yul\":4000:4006   */\n      dup2\n        /* \"#utility.yul\":3996:4036   */\n      add\n        /* \"#utility.yul\":4138:4144   */\n      dup2\n        /* \"#utility.yul\":4126:4136   */\n      dup2\n        /* \"#utility.yul\":4123:4145   */\n      lt\n        /* \"#utility.yul\":4102:4120   */\n      0xffffffffffffffff\n        /* \"#utility.yul\":4090:4100   */\n      dup3\n        /* \"#utility.yul\":4087:4121   */\n      gt\n        /* \"#utility.yul\":4084:4146   */\n      or\n        /* \"#utility.yul\":4081:4169   */\n      iszero\n      tag_153\n      jumpi\n        /* \"#utility.yul\":4149:4167   */\n      tag_154\n      tag_78\n      jump\t// in\n    tag_154:\n        /* \"#utility.yul\":4081:4169   */\n    tag_153:\n        /* \"#utility.yul\":4189:4199   */\n      dup1\n        /* \"#utility.yul\":4185:4187   */\n      0x40\n        /* \"#utility.yul\":4178:4200   */\n      mstore\n        /* \"#utility.yul\":3968:4206   */\n      pop\n        /* \"#utility.yul\":3925:4206   */\n      pop\n      pop\n      jump\t// out\n        /* \"#utility.yul\":4212:4341   */\n    tag_80:\n        /* \"#utility.yul\":4246:4252   */\n      0x00\n        /* \"#utility.yul\":4273:4293   */\n      tag_156\n      tag_61\n      jump\t// in\n    tag_156:\n        /* \"#utility.yul\":4263:4293   */\n      swap1\n      pop\n        /* \"#utility.yul\":4302:4335   */\n      tag_157\n        /* \"#utility.yul\":4330:4334   */\n      dup3\n        /* \"#utility.yul\":4322:4328   */\n      dup3\n        /* \"#utility.yul\":4302:4335   */\n      tag_79\n      jump\t// in\n    tag_157:\n        /* \"#utility.yul\":4212:4341   */\n      swap2\n      swap1\n      pop\n      jump\t// out\n        /* \"#utility.yul\":4347:4655   */\n    tag_81:\n        /* \"#utility.yul\":4409:4413   */\n      0x00\n        /* \"#utility.yul\":4499:4517   */\n      0xffffffffffffffff\n        /* \"#utility.yul\":4491:4497   */\n      dup3\n        /* \"#utility.yul\":4488:4518   */\n      gt\n        /* \"#utility.yul\":4485:4541   */\n      iszero\n      tag_159\n      jumpi\n        /* \"#utility.yul\":4521:4539   */\n      tag_160\n      tag_78\n      jump\t// in\n    tag_160:\n        /* \"#utility.yul\":4485:4541   */\n    tag_159:\n        /* \"#utility.yul\":4559:4588   */\n      tag_161\n        /* \"#utility.yul\":4581:4587   */\n      dup3\n        /* \"#utility.yul\":4559:4588   */\n      tag_70\n      jump\t// in\n    tag_161:\n        /* \"#utility.yul\":4551:4588   */\n      swap1\n      pop\n        /* \"#utility.yul\":4643:4647   */\n      0x20\n        /* \"#utility.yul\":4637:4641   */\n      dup2\n        /* \"#utility.yul\":4633:4648   */\n      add\n        /* \"#utility.yul\":4625:4648   */\n      swap1\n      pop\n        /* \"#utility.yul\":4347:4655   */\n      swap2\n      swap1\n      pop\n      jump\t// out\n        /* \"#utility.yul\":4661:4807   */\n    tag_82:\n        /* \"#utility.yul\":4758:4764   */\n      dup3\n        /* \"#utility.yul\":4753:4756   */\n      dup2\n        /* \"#utility.yul\":4748:4751   */\n      dup4\n        /* \"#utility.yul\":4735:4765   */\n      calldatacopy\n        /* \"#utility.yul\":4799:4800   */\n      0x00\n        /* \"#utility.yul\":4790:4796   */\n      dup4\n        /* \"#utility.yul\":4785:4788   */\n      dup4\n        /* \"#utility.yul\":4781:4797   */\n      add\n        /* \"#utility.yul\":4774:4801   */\n      mstore\n        /* \"#utility.yul\":4661:4807   */\n      pop\n      pop\n      pop\n      jump\t// out\n        /* \"#utility.yul\":4813:5238   */\n    tag_83:\n        /* \"#utility.yul\":4891:4896   */\n      0x00\n        /* \"#utility.yul\":4916:4982   */\n      tag_164\n        /* \"#utility.yul\":4932:4981   */\n      tag_165\n        /* \"#utility.yul\":4974:4980   */\n      dup5\n        /* \"#utility.yul\":4932:4981   */\n      tag_81\n      jump\t// in\n    tag_165:\n        /* \"#utility.yul\":4916:4982   */\n      tag_80\n      jump\t// in\n    tag_164:\n        /* \"#utility.yul\":4907:4982   */\n      swap1\n      pop\n        /* \"#utility.yul\":5005:5011   */\n      dup3\n        /* \"#utility.yul\":4998:5003   */\n      dup2\n        /* \"#utility.yul\":4991:5012   */\n      mstore\n        /* \"#utility.yul\":5043:5047   */\n      0x20\n        /* \"#utility.yul\":5036:5041   */\n      dup2\n        /* \"#utility.yul\":5032:5048   */\n      add\n        /* \"#utility.yul\":5081:5084   */\n      dup5\n        /* \"#utility.yul\":5072:5078   */\n      dup5\n        /* \"#utility.yul\":5067:5070   */\n      dup5\n        /* \"#utility.yul\":5063:5079   */\n      add\n        /* \"#utility.yul\":5060:5085   */\n      gt\n        /* \"#utility.yul\":5057:5169   */\n      iszero\n      tag_166\n      jumpi\n        /* \"#utility.yul\":5088:5167   */\n      tag_167\n      tag_77\n      jump\t// in\n    tag_167:\n        /* \"#utility.yul\":5057:5169   */\n    tag_166:\n        /* \"#utility.yul\":5178:5232   */\n      tag_168\n        /* \"#utility.yul\":5225:5231   */\n      dup5\n        /* \"#utility.yul\":5220:5223   */\n      dup3\n        /* \"#utility.yul\":5215:5218   */\n      dup6\n        /* \"#utility.yul\":5178:5232   */\n      tag_82\n      jump\t// in\n    tag_168:\n        /* \"#utility.yul\":4897:5238   */\n      pop\n        /* \"#utility.yul\":4813:5238   */\n      swap4\n      swap3\n      pop\n      pop\n      pop\n      jump\t// out\n        /* \"#utility.yul\":5258:5598   */\n    tag_84:\n        /* \"#utility.yul\":5314:5319   */\n      0x00\n        /* \"#utility.yul\":5363:5366   */\n      dup3\n        /* \"#utility.yul\":5356:5360   */\n      0x1f\n        /* \"#utility.yul\":5348:5354   */\n      dup4\n        /* \"#utility.yul\":5344:5361   */\n      add\n        /* \"#utility.yul\":5340:5367   */\n      slt\n        /* \"#utility.yul\":5330:5452   */\n      tag_170\n      jumpi\n        /* \"#utility.yul\":5371:5450   */\n      tag_171\n      tag_76\n      jump\t// in\n    tag_171:\n        /* \"#utility.yul\":5330:5452   */\n    tag_170:\n        /* \"#utility.yul\":5488:5494   */\n      dup2\n        /* \"#utility.yul\":5475:5495   */\n      calldataload\n        /* \"#utility.yul\":5513:5592   */\n      tag_172\n        /* \"#utility.yul\":5588:5591   */\n      dup5\n        /* \"#utility.yul\":5580:5586   */\n      dup3\n        /* \"#utility.yul\":5573:5577   */\n      0x20\n        /* \"#utility.yul\":5565:5571   */\n      dup7\n        /* \"#utility.yul\":5561:5578   */\n      add\n        /* \"#utility.yul\":5513:5592   */\n      tag_83\n      jump\t// in\n    tag_172:\n        /* \"#utility.yul\":5504:5592   */\n      swap2\n      pop\n        /* \"#utility.yul\":5320:5598   */\n      pop\n        /* \"#utility.yul\":5258:5598   */\n      swap3\n      swap2\n      pop\n      pop\n      jump\t// out\n        /* \"#utility.yul\":5604:6875   */\n    tag_26:\n        /* \"#utility.yul\":5719:5725   */\n      0x00\n        /* \"#utility.yul\":5727:5733   */\n      dup1\n        /* \"#utility.yul\":5735:5741   */\n      0x00\n        /* \"#utility.yul\":5743:5749   */\n      dup1\n        /* \"#utility.yul\":5751:5757   */\n      0x00\n        /* \"#utility.yul\":5800:5803   */\n      0xa0\n        /* \"#utility.yul\":5788:5797   */\n      dup7\n        /* \"#utility.yul\":5779:5786   */\n      dup9\n        /* \"#utility.yul\":5775:5798   */\n      sub\n        /* \"#utility.yul\":5771:5804   */\n      slt\n        /* \"#utility.yul\":5768:5888   */\n      iszero\n      tag_174\n      jumpi\n        /* \"#utility.yul\":5807:5886   */\n      tag_175\n      tag_62\n      jump\t// in\n    tag_175:\n        /* \"#utility.yul\":5768:5888   */\n    tag_174:\n        /* \"#utility.yul\":5927:5928   */\n      0x00\n        /* \"#utility.yul\":5952:6005   */\n      tag_176\n        /* \"#utility.yul\":5997:6004   */\n      dup9\n        /* \"#utility.yul\":5988:5994   */\n      dup3\n        /* \"#utility.yul\":5977:5986   */\n      dup10\n        /* \"#utility.yul\":5973:5995   */\n      add\n        /* \"#utility.yul\":5952:6005   */\n      tag_66\n      jump\t// in\n    tag_176:\n        /* \"#utility.yul\":5942:6005   */\n      swap6\n      pop\n        /* \"#utility.yul\":5898:6015   */\n      pop\n        /* \"#utility.yul\":6082:6084   */\n      0x20\n        /* \"#utility.yul\":6071:6080   */\n      dup7\n        /* \"#utility.yul\":6067:6085   */\n      add\n        /* \"#utility.yul\":6054:6086   */\n      calldataload\n        /* \"#utility.yul\":6113:6131   */\n      0xffffffffffffffff\n        /* \"#utility.yul\":6105:6111   */\n      dup2\n        /* \"#utility.yul\":6102:6132   */\n      gt\n        /* \"#utility.yul\":6099:6216   */\n      iszero\n      tag_177\n      jumpi\n        /* \"#utility.yul\":6135:6214   */\n      tag_178\n      tag_63\n      jump\t// in\n    tag_178:\n        /* \"#utility.yul\":6099:6216   */\n    tag_177:\n        /* \"#utility.yul\":6240:6303   */\n      tag_179\n        /* \"#utility.yul\":6295:6302   */\n      dup9\n        /* \"#utility.yul\":6286:6292   */\n      dup3\n        /* \"#utility.yul\":6275:6284   */\n      dup10\n        /* \"#utility.yul\":6271:6293   */\n      add\n        /* \"#utility.yul\":6240:6303   */\n      tag_84\n      jump\t// in\n    tag_179:\n        /* \"#utility.yul\":6230:6303   */\n      swap5\n      pop\n        /* \"#utility.yul\":6025:6313   */\n      pop\n        /* \"#utility.yul\":6380:6382   */\n      0x40\n        /* \"#utility.yul\":6369:6378   */\n      dup7\n        /* \"#utility.yul\":6365:6383   */\n      add\n        /* \"#utility.yul\":6352:6384   */\n      calldataload\n        /* \"#utility.yul\":6411:6429   */\n      0xffffffffffffffff\n        /* \"#utility.yul\":6403:6409   */\n      dup2\n        /* \"#utility.yul\":6400:6430   */\n      gt\n        /* \"#utility.yul\":6397:6514   */\n      iszero\n      tag_180\n      jumpi\n        /* \"#utility.yul\":6433:6512   */\n      tag_181\n      tag_63\n      jump\t// in\n    tag_181:\n        /* \"#utility.yul\":6397:6514   */\n    tag_180:\n        /* \"#utility.yul\":6538:6601   */\n      tag_182\n        /* \"#utility.yul\":6593:6600   */\n      dup9\n        /* \"#utility.yul\":6584:6590   */\n      dup3\n        /* \"#utility.yul\":6573:6582   */\n      dup10\n        /* \"#utility.yul\":6569:6591   */\n      add\n        /* \"#utility.yul\":6538:6601   */\n      tag_84\n      jump\t// in\n    tag_182:\n        /* \"#utility.yul\":6528:6601   */\n      swap4\n      pop\n        /* \"#utility.yul\":6323:6611   */\n      pop\n        /* \"#utility.yul\":6650:6652   */\n      0x60\n        /* \"#utility.yul\":6676:6729   */\n      tag_183\n        /* \"#utility.yul\":6721:6728   */\n      dup9\n        /* \"#utility.yul\":6712:6718   */\n      dup3\n        /* \"#utility.yul\":6701:6710   */\n      dup10\n        /* \"#utility.yul\":6697:6719   */\n      add\n        /* \"#utility.yul\":6676:6729   */\n      tag_66\n      jump\t// in\n    tag_183:\n        /* \"#utility.yul\":6666:6729   */\n      swap3\n      pop\n        /* \"#utility.yul\":6621:6739   */\n      pop\n        /* \"#utility.yul\":6778:6781   */\n      0x80\n        /* \"#utility.yul\":6805:6858   */\n      tag_184\n        /* \"#utility.yul\":6850:6857   */\n      dup9\n        /* \"#utility.yul\":6841:6847   */\n      dup3\n        /* \"#utility.yul\":6830:6839   */\n      dup10\n        /* \"#utility.yul\":6826:6848   */\n      add\n        /* \"#utility.yul\":6805:6858   */\n      tag_66\n      jump\t// in\n    tag_184:\n        /* \"#utility.yul\":6795:6858   */\n      swap2\n      pop\n        /* \"#utility.yul\":6749:6868   */\n      pop\n        /* \"#utility.yul\":5604:6875   */\n      swap3\n      swap6\n      pop\n      swap3\n      swap6\n      swap1\n      swap4\n      pop\n      jump\t// out\n        /* \"#utility.yul\":6881:7061   */\n    tag_85:\n        /* \"#utility.yul\":6929:7006   */\n      0x4e487b7100000000000000000000000000000000000000000000000000000000\n        /* \"#utility.yul\":6926:6927   */\n      0x00\n        /* \"#utility.yul\":6919:7007   */\n      mstore\n        /* \"#utility.yul\":7026:7030   */\n      0x22\n        /* \"#utility.yul\":7023:7024   */\n      0x04\n        /* \"#utility.yul\":7016:7031   */\n      mstore\n        /* \"#utility.yul\":7050:7054   */\n      0x24\n        /* \"#utility.yul\":7047:7048   */\n      0x00\n        /* \"#utility.yul\":7040:7055   */\n      revert\n        /* \"#utility.yul\":7067:7387   */\n    tag_29:\n        /* \"#utility.yul\":7111:7117   */\n      0x00\n        /* \"#utility.yul\":7148:7149   */\n      0x02\n        /* \"#utility.yul\":7142:7146   */\n      dup3\n        /* \"#utility.yul\":7138:7150   */\n      div\n        /* \"#utility.yul\":7128:7150   */\n      swap1\n      pop\n        /* \"#utility.yul\":7195:7196   */\n      0x01\n        /* \"#utility.yul\":7189:7193   */\n      dup3\n        /* \"#utility.yul\":7185:7197   */\n      and\n        /* \"#utility.yul\":7216:7234   */\n      dup1\n        /* \"#utility.yul\":7206:7287   */\n      tag_187\n      jumpi\n        /* \"#utility.yul\":7272:7276   */\n      0x7f\n        /* \"#utility.yul\":7264:7270   */\n      dup3\n        /* \"#utility.yul\":7260:7277   */\n      and\n        /* \"#utility.yul\":7250:7277   */\n      swap2\n      pop\n        /* \"#utility.yul\":7206:7287   */\n    tag_187:\n        /* \"#utility.yul\":7334:7336   */\n      0x20\n        /* \"#utility.yul\":7326:7332   */\n      dup3\n        /* \"#utility.yul\":7323:7337   */\n      lt\n        /* \"#utility.yul\":7303:7321   */\n      dup2\n        /* \"#utility.yul\":7300:7338   */\n      sub\n        /* \"#utility.yul\":7297:7381   */\n      tag_188\n      jumpi\n        /* \"#utility.yul\":7353:7371   */\n      tag_189\n      tag_85\n      jump\t// in\n    tag_189:\n        /* \"#utility.yul\":7297:7381   */\n    tag_188:\n        /* \"#utility.yul\":7118:7387   */\n      pop\n        /* \"#utility.yul\":7067:7387   */\n      swap2\n      swap1\n      pop\n      jump\t// out\n        /* \"#utility.yul\":7393:7568   */\n    tag_86:\n        /* \"#utility.yul\":7533:7560   */\n      0x204f6e6c79204f776e65722063616e2077696474686472617700000000000000\n        /* \"#utility.yul\":7529:7530   */\n      0x00\n        /* \"#utility.yul\":7521:7527   */\n      dup3\n        /* \"#utility.yul\":7517:7531   */\n      add\n        /* \"#utility.yul\":7510:7561   */\n      mstore\n        /* \"#utility.yul\":7393:7568   */\n      pop\n      jump\t// out\n        /* \"#utility.yul\":7574:7940   */\n    tag_87:\n        /* \"#utility.yul\":7716:7719   */\n      0x00\n        /* \"#utility.yul\":7737:7804   */\n      tag_192\n        /* \"#utility.yul\":7801:7803   */\n      0x19\n        /* \"#utility.yul\":7796:7799   */\n      dup4\n        /* \"#utility.yul\":7737:7804   */\n      tag_68\n      jump\t// in\n    tag_192:\n        /* \"#utility.yul\":7730:7804   */\n      swap2\n      pop\n        /* \"#utility.yul\":7813:7906   */\n      tag_193\n        /* \"#utility.yul\":7902:7905   */\n      dup3\n        /* \"#utility.yul\":7813:7906   */\n      tag_86\n      jump\t// in\n    tag_193:\n        /* \"#utility.yul\":7931:7933   */\n      0x20\n        /* \"#utility.yul\":7926:7929   */\n      dup3\n        /* \"#utility.yul\":7922:7934   */\n      add\n        /* \"#utility.yul\":7915:7934   */\n      swap1\n      pop\n        /* \"#utility.yul\":7574:7940   */\n      swap2\n      swap1\n      pop\n      jump\t// out\n        /* \"#utility.yul\":7946:8365   */\n    tag_42:\n        /* \"#utility.yul\":8112:8116   */\n      0x00\n        /* \"#utility.yul\":8150:8152   */\n      0x20\n        /* \"#utility.yul\":8139:8148   */\n      dup3\n        /* \"#utility.yul\":8135:8153   */\n      add\n        /* \"#utility.yul\":8127:8153   */\n      swap1\n      pop\n        /* \"#utility.yul\":8199:8208   */\n      dup2\n        /* \"#utility.yul\":8193:8197   */\n      dup2\n        /* \"#utility.yul\":8189:8209   */\n      sub\n        /* \"#utility.yul\":8185:8186   */\n      0x00\n        /* \"#utility.yul\":8174:8183   */\n      dup4\n        /* \"#utility.yul\":8170:8187   */\n      add\n        /* \"#utility.yul\":8163:8210   */\n      mstore\n        /* \"#utility.yul\":8227:8358   */\n      tag_195\n        /* \"#utility.yul\":8353:8357   */\n      dup2\n        /* \"#utility.yul\":8227:8358   */\n      tag_87\n      jump\t// in\n    tag_195:\n        /* \"#utility.yul\":8219:8358   */\n      swap1\n      pop\n        /* \"#utility.yul\":7946:8365   */\n      swap2\n      swap1\n      pop\n      jump\t// out\n        /* \"#utility.yul\":8371:8611   */\n    tag_88:\n        /* \"#utility.yul\":8511:8545   */\n      0x204f776e65722063616e27742074616b65206d6f6e657920696620636f6e7472\n        /* \"#utility.yul\":8507:8508   */\n      0x00\n        /* \"#utility.yul\":8499:8505   */\n      dup3\n        /* \"#utility.yul\":8495:8509   */\n      add\n        /* \"#utility.yul\":8488:8546   */\n      mstore\n        /* \"#utility.yul\":8580:8603   */\n      0x69627574696f6e206e6f7420636f6d706c657465640000000000000000000000\n        /* \"#utility.yul\":8575:8577   */\n      0x20\n        /* \"#utility.yul\":8567:8573   */\n      dup3\n        /* \"#utility.yul\":8563:8578   */\n      add\n        /* \"#utility.yul\":8556:8604   */\n      mstore\n        /* \"#utility.yul\":8371:8611   */\n      pop\n      jump\t// out\n        /* \"#utility.yul\":8617:8983   */\n    tag_89:\n        /* \"#utility.yul\":8759:8762   */\n      0x00\n        /* \"#utility.yul\":8780:8847   */\n      tag_198\n        /* \"#utility.yul\":8844:8846   */\n      0x35\n        /* \"#utility.yul\":8839:8842   */\n      dup4\n        /* \"#utility.yul\":8780:8847   */\n      tag_68\n      jump\t// in\n    tag_198:\n        /* \"#utility.yul\":8773:8847   */\n      swap2\n      pop\n        /* \"#utility.yul\":8856:8949   */\n      tag_199\n        /* \"#utility.yul\":8945:8948   */\n      dup3\n        /* \"#utility.yul\":8856:8949   */\n      tag_88\n      jump\t// in\n    tag_199:\n        /* \"#utility.yul\":8974:8976   */\n      0x40\n        /* \"#utility.yul\":8969:8972   */\n      dup3\n        /* \"#utility.yul\":8965:8977   */\n      add\n        /* \"#utility.yul\":8958:8977   */\n      swap1\n      pop\n        /* \"#utility.yul\":8617:8983   */\n      swap2\n      swap1\n      pop\n      jump\t// out\n        /* \"#utility.yul\":8989:9408   */\n    tag_48:\n        /* \"#utility.yul\":9155:9159   */\n      0x00\n        /* \"#utility.yul\":9193:9195   */\n      0x20\n        /* \"#utility.yul\":9182:9191   */\n      dup3\n        /* \"#utility.yul\":9178:9196   */\n      add\n        /* \"#utility.yul\":9170:9196   */\n      swap1\n      pop\n        /* \"#utility.yul\":9242:9251   */\n      dup2\n        /* \"#utility.yul\":9236:9240   */\n      dup2\n        /* \"#utility.yul\":9232:9252   */\n      sub\n        /* \"#utility.yul\":9228:9229   */\n      0x00\n        /* \"#utility.yul\":9217:9226   */\n      dup4\n        /* \"#utility.yul\":9213:9230   */\n      add\n        /* \"#utility.yul\":9206:9253   */\n      mstore\n        /* \"#utility.yul\":9270:9401   */\n      tag_201\n        /* \"#utility.yul\":9396:9400   */\n      dup2\n        /* \"#utility.yul\":9270:9401   */\n      tag_89\n      jump\t// in\n    tag_201:\n        /* \"#utility.yul\":9262:9401   */\n      swap1\n      pop\n        /* \"#utility.yul\":8989:9408   */\n      swap2\n      swap1\n      pop\n      jump\t// out\n        /* \"#utility.yul\":9414:9587   */\n    tag_90:\n        /* \"#utility.yul\":9554:9579   */\n      0x204f776e65722063616e277420636f6e74726962757465000000000000000000\n        /* \"#utility.yul\":9550:9551   */\n      0x00\n        /* \"#utility.yul\":9542:9548   */\n      dup3\n        /* \"#utility.yul\":9538:9552   */\n      add\n        /* \"#utility.yul\":9531:9580   */\n      mstore\n        /* \"#utility.yul\":9414:9587   */\n      pop\n      jump\t// out\n        /* \"#utility.yul\":9593:9959   */\n    tag_91:\n        /* \"#utility.yul\":9735:9738   */\n      0x00\n        /* \"#utility.yul\":9756:9823   */\n      tag_204\n        /* \"#utility.yul\":9820:9822   */\n      0x17\n        /* \"#utility.yul\":9815:9818   */\n      dup4\n        /* \"#utility.yul\":9756:9823   */\n      tag_68\n      jump\t// in\n    tag_204:\n        /* \"#utility.yul\":9749:9823   */\n      swap2\n      pop\n        /* \"#utility.yul\":9832:9925   */\n      tag_205\n        /* \"#utility.yul\":9921:9924   */\n      dup3\n        /* \"#utility.yul\":9832:9925   */\n      tag_90\n      jump\t// in\n    tag_205:\n        /* \"#utility.yul\":9950:9952   */\n      0x20\n        /* \"#utility.yul\":9945:9948   */\n      dup3\n        /* \"#utility.yul\":9941:9953   */\n      add\n        /* \"#utility.yul\":9934:9953   */\n      swap1\n      pop\n        /* \"#utility.yul\":9593:9959   */\n      swap2\n      swap1\n      pop\n      jump\t// out\n        /* \"#utility.yul\":9965:10384   */\n    tag_54:\n        /* \"#utility.yul\":10131:10135   */\n      0x00\n        /* \"#utility.yul\":10169:10171   */\n      0x20\n        /* \"#utility.yul\":10158:10167   */\n      dup3\n        /* \"#utility.yul\":10154:10172   */\n      add\n        /* \"#utility.yul\":10146:10172   */\n      swap1\n      pop\n        /* \"#utility.yul\":10218:10227   */\n      dup2\n        /* \"#utility.yul\":10212:10216   */\n      dup2\n        /* \"#utility.yul\":10208:10228   */\n      sub\n        /* \"#utility.yul\":10204:10205   */\n      0x00\n        /* \"#utility.yul\":10193:10202   */\n      dup4\n        /* \"#utility.yul\":10189:10206   */\n      add\n        /* \"#utility.yul\":10182:10229   */\n      mstore\n        /* \"#utility.yul\":10246:10377   */\n      tag_207\n        /* \"#utility.yul\":10372:10376   */\n      dup2\n        /* \"#utility.yul\":10246:10377   */\n      tag_91\n      jump\t// in\n    tag_207:\n        /* \"#utility.yul\":10238:10377   */\n      swap1\n      pop\n        /* \"#utility.yul\":9965:10384   */\n      swap2\n      swap1\n      pop\n      jump\t// out\n        /* \"#utility.yul\":10390:10531   */\n    tag_92:\n        /* \"#utility.yul\":10439:10443   */\n      0x00\n        /* \"#utility.yul\":10462:10465   */\n      dup2\n        /* \"#utility.yul\":10454:10465   */\n      swap1\n      pop\n        /* \"#utility.yul\":10485:10488   */\n      dup2\n        /* \"#utility.yul\":10482:10483   */\n      0x00\n        /* \"#utility.yul\":10475:10489   */\n      mstore\n        /* \"#utility.yul\":10519:10523   */\n      0x20\n        /* \"#utility.yul\":10516:10517   */\n      0x00\n        /* \"#utility.yul\":10506:10524   */\n      keccak256\n        /* \"#utility.yul\":10498:10524   */\n      swap1\n      pop\n        /* \"#utility.yul\":10390:10531   */\n      swap2\n      swap1\n      pop\n      jump\t// out\n        /* \"#utility.yul\":10537:10630   */\n    tag_93:\n        /* \"#utility.yul\":10574:10580   */\n      0x00\n        /* \"#utility.yul\":10621:10623   */\n      0x20\n        /* \"#utility.yul\":10616:10618   */\n      0x1f\n        /* \"#utility.yul\":10609:10614   */\n      dup4\n        /* \"#utility.yul\":10605:10619   */\n      add\n        /* \"#utility.yul\":10601:10624   */\n      div\n        /* \"#utility.yul\":10591:10624   */\n      swap1\n      pop\n        /* \"#utility.yul\":10537:10630   */\n      swap2\n      swap1\n      pop\n      jump\t// out\n        /* \"#utility.yul\":10636:10743   */\n    tag_94:\n        /* \"#utility.yul\":10680:10688   */\n      0x00\n        /* \"#utility.yul\":10730:10735   */\n      dup3\n        /* \"#utility.yul\":10724:10728   */\n      dup3\n        /* \"#utility.yul\":10720:10736   */\n      shl\n        /* \"#utility.yul\":10699:10736   */\n      swap1\n      pop\n        /* \"#utility.yul\":10636:10743   */\n      swap3\n      swap2\n      pop\n      pop\n      jump\t// out\n        /* \"#utility.yul\":10749:11142   */\n    tag_95:\n        /* \"#utility.yul\":10818:10824   */\n      0x00\n        /* \"#utility.yul\":10868:10869   */\n      0x08\n        /* \"#utility.yul\":10856:10866   */\n      dup4\n        /* \"#utility.yul\":10852:10870   */\n      mul\n        /* \"#utility.yul\":10891:10988   */\n      tag_212\n        /* \"#utility.yul\":10921:10987   */\n      0xffffffffffffffffffffffffffffffffffffffffffffffffffffffffffffffff\n        /* \"#utility.yul\":10910:10919   */\n      dup3\n        /* \"#utility.yul\":10891:10988   */\n      tag_94\n      jump\t// in\n    tag_212:\n        /* \"#utility.yul\":11009:11048   */\n      tag_213\n        /* \"#utility.yul\":11039:11047   */\n      dup7\n        /* \"#utility.yul\":11028:11037   */\n      dup4\n        /* \"#utility.yul\":11009:11048   */\n      tag_94\n      jump\t// in\n    tag_213:\n        /* \"#utility.yul\":10997:11048   */\n      swap6\n      pop\n        /* \"#utility.yul\":11081:11085   */\n      dup1\n        /* \"#utility.yul\":11077:11086   */\n      not\n        /* \"#utility.yul\":11070:11075   */\n      dup5\n        /* \"#utility.yul\":11066:11087   */\n      and\n        /* \"#utility.yul\":11057:11087   */\n      swap4\n      pop\n        /* \"#utility.yul\":11130:11134   */\n      dup1\n        /* \"#utility.yul\":11120:11128   */\n      dup7\n        /* \"#utility.yul\":11116:11135   */\n      and\n        /* \"#utility.yul\":11109:11114   */\n      dup5\n        /* \"#utility.yul\":11106:11136   */\n      or\n        /* \"#utility.yul\":11096:11136   */\n      swap3\n      pop\n        /* \"#utility.yul\":10825:11142   */\n      pop\n      pop\n        /* \"#utility.yul\":10749:11142   */\n      swap4\n      swap3\n      pop\n      pop\n      pop\n      jump\t// out\n        /* \"#utility.yul\":11148:11208   */\n    tag_96:\n        /* \"#utility.yul\":11176:11179   */\n      0x00\n        /* \"#utility.yul\":11197:11202   */\n      dup2\n        /* \"#utility.yul\":11190:11202   */\n      swap1\n      pop\n        /* \"#utility.yul\":11148:11208   */\n      swap2\n      swap1\n      pop\n      jump\t// out\n        /* \"#utility.yul\":11214:11356   */\n    tag_97:\n        /* \"#utility.yul\":11264:11273   */\n      0x00\n        /* \"#utility.yul\":11297:11350   */\n      tag_216\n        /* \"#utility.yul\":11315:11349   */\n      tag_217\n        /* \"#utility.yul\":11324:11348   */\n      tag_218\n        /* \"#utility.yul\":11342:11347   */\n      dup5\n        /* \"#utility.yul\":11324:11348   */\n      tag_64\n      jump\t// in\n    tag_218:\n        /* \"#utility.yul\":11315:11349   */\n      tag_96\n      jump\t// in\n    tag_217:\n        /* \"#utility.yul\":11297:11350   */\n      tag_64\n      jump\t// in\n    tag_216:\n        /* \"#utility.yul\":11284:11350   */\n      swap1\n      pop\n        /* \"#utility.yul\":11214:11356   */\n      swap2\n      swap1\n      pop\n      jump\t// out\n        /* \"#utility.yul\":11362:11437   */\n    tag_98:\n        /* \"#utility.yul\":11405:11408   */\n      0x00\n        /* \"#utility.yul\":11426:11431   */\n      dup2\n        /* \"#utility.yul\":11419:11431   */\n      swap1\n      pop\n        /* \"#utility.yul\":11362:11437   */\n      swap2\n      swap1\n      pop\n      jump\t// out\n        /* \"#utility.yul\":11443:11712   */\n    tag_99:\n        /* \"#utility.yul\":11553:11592   */\n      tag_221\n        /* \"#utility.yul\":11584:11591   */\n      dup4\n        /* \"#utility.yul\":11553:11592   */\n      tag_97\n      jump\t// in\n    tag_221:\n        /* \"#utility.yul\":11614:11705   */\n      tag_222\n        /* \"#utility.yul\":11663:11704   */\n      tag_223\n        /* \"#utility.yul\":11687:11703   */\n      dup3\n        /* \"#utility.yul\":11663:11704   */\n      tag_98\n      jump\t// in\n    tag_223:\n        /* \"#utility.yul\":11655:11661   */\n      dup5\n        /* \"#utility.yul\":11648:11652   */\n      dup5\n        /* \"#utility.yul\":11642:11653   */\n      sload\n        /* \"#utility.yul\":11614:11705   */\n      tag_95\n      jump\t// in\n    tag_222:\n        /* \"#utility.yul\":11608:11612   */\n      dup3\n        /* \"#utility.yul\":11601:11706   */\n      sstore\n        /* \"#utility.yul\":11519:11712   */\n      pop\n        /* \"#utility.yul\":11443:11712   */\n      pop\n      pop\n      pop\n      jump\t// out\n        /* \"#utility.yul\":11718:11791   */\n    tag_100:\n        /* \"#utility.yul\":11763:11766   */\n      0x00\n        /* \"#utility.yul\":11718:11791   */\n      swap1\n      jump\t// out\n        /* \"#utility.yul\":11797:11986   */\n    tag_101:\n        /* \"#utility.yul\":11874:11906   */\n      tag_226\n      tag_100\n      jump\t// in\n    tag_226:\n        /* \"#utility.yul\":11915:11980   */\n      tag_227\n        /* \"#utility.yul\":11973:11979   */\n      dup2\n        /* \"#utility.yul\":11965:11971   */\n      dup5\n        /* \"#utility.yul\":11959:11963   */\n      dup5\n        /* \"#utility.yul\":11915:11980   */\n      tag_99\n      jump\t// in\n    tag_227:\n        /* \"#utility.yul\":11850:11986   */\n      pop\n        /* \"#utility.yul\":11797:11986   */\n      pop\n      pop\n      jump\t// out\n        /* \"#utility.yul\":11992:12178   */\n    tag_102:\n        /* \"#utility.yul\":12052:12172   */\n    tag_229:\n        /* \"#utility.yul\":12069:12072   */\n      dup2\n        /* \"#utility.yul\":12062:12067   */\n      dup2\n        /* \"#utility.yul\":12059:12073   */\n      lt\n        /* \"#utility.yul\":12052:12172   */\n      iszero\n      tag_231\n      jumpi\n        /* \"#utility.yul\":12123:12162   */\n      tag_232\n        /* \"#utility.yul\":12160:12161   */\n      0x00\n        /* \"#utility.yul\":12153:12158   */\n      dup3\n        /* \"#utility.yul\":12123:12162   */\n      tag_101\n      jump\t// in\n    tag_232:\n        /* \"#utility.yul\":12096:12097   */\n      0x01\n        /* \"#utility.yul\":12089:12094   */\n      dup2\n        /* \"#utility.yul\":12085:12098   */\n      add\n        /* \"#utility.yul\":12076:12098   */\n      swap1\n      pop\n        /* \"#utility.yul\":12052:12172   */\n      jump(tag_229)\n    tag_231:\n        /* \"#utility.yul\":11992:12178   */\n      pop\n      pop\n      jump\t// out\n        /* \"#utility.yul\":12184:12727   */\n    tag_103:\n        /* \"#utility.yul\":12285:12287   */\n      0x1f\n        /* \"#utility.yul\":12280:12283   */\n      dup3\n        /* \"#utility.yul\":12277:12288   */\n      gt\n        /* \"#utility.yul\":12274:12720   */\n      iszero\n      tag_234\n      jumpi\n        /* \"#utility.yul\":12319:12357   */\n      tag_235\n        /* \"#utility.yul\":12351:12356   */\n      dup2\n        /* \"#utility.yul\":12319:12357   */\n      tag_92\n      jump\t// in\n    tag_235:\n        /* \"#utility.yul\":12403:12432   */\n      tag_236\n        /* \"#utility.yul\":12421:12431   */\n      dup5\n        /* \"#utility.yul\":12403:12432   */\n      tag_93\n      jump\t// in\n    tag_236:\n        /* \"#utility.yul\":12393:12401   */\n      dup2\n        /* \"#utility.yul\":12389:12433   */\n      add\n        /* \"#utility.yul\":12586:12588   */\n      0x20\n        /* \"#utility.yul\":12574:12584   */\n      dup6\n        /* \"#utility.yul\":12571:12589   */\n      lt\n        /* \"#utility.yul\":12568:12617   */\n      iszero\n      tag_237\n      jumpi\n        /* \"#utility.yul\":12607:12615   */\n      dup2\n        /* \"#utility.yul\":12592:12615   */\n      swap1\n      pop\n        /* \"#utility.yul\":12568:12617   */\n    tag_237:\n        /* \"#utility.yul\":12630:12710   */\n      tag_238\n        /* \"#utility.yul\":12686:12708   */\n      tag_239\n        /* \"#utility.yul\":12704:12707   */\n      dup6\n        /* \"#utility.yul\":12686:12708   */\n      tag_93\n      jump\t// in\n    tag_239:\n        /* \"#utility.yul\":12676:12684   */\n      dup4\n        /* \"#utility.yul\":12672:12709   */\n      add\n        /* \"#utility.yul\":12659:12670   */\n      dup3\n        /* \"#utility.yul\":12630:12710   */\n      tag_102\n      jump\t// in\n    tag_238:\n        /* \"#utility.yul\":12289:12720   */\n      pop\n      pop\n        /* \"#utility.yul\":12274:12720   */\n    tag_234:\n        /* \"#utility.yul\":12184:12727   */\n      pop\n      pop\n      pop\n      jump\t// out\n        /* \"#utility.yul\":12733:12850   */\n    tag_104:\n        /* \"#utility.yul\":12787:12795   */\n      0x00\n        /* \"#utility.yul\":12837:12842   */\n      dup3\n        /* \"#utility.yul\":12831:12835   */\n      dup3\n        /* \"#utility.yul\":12827:12843   */\n      shr\n        /* \"#utility.yul\":12806:12843   */\n      swap1\n      pop\n        /* \"#utility.yul\":12733:12850   */\n      swap3\n      swap2\n      pop\n      pop\n      jump\t// out\n        /* \"#utility.yul\":12856:13025   */\n    tag_105:\n        /* \"#utility.yul\":12900:12906   */\n      0x00\n        /* \"#utility.yul\":12933:12984   */\n      tag_242\n        /* \"#utility.yul\":12981:12982   */\n      0x00\n        /* \"#utility.yul\":12977:12983   */\n      not\n        /* \"#utility.yul\":12969:12974   */\n      dup5\n        /* \"#utility.yul\":12966:12967   */\n      0x08\n        /* \"#utility.yul\":12962:12975   */\n      mul\n        /* \"#utility.yul\":12933:12984   */\n      tag_104\n      jump\t// in\n    tag_242:\n        /* \"#utility.yul\":12929:12985   */\n      not\n        /* \"#utility.yul\":13014:13018   */\n      dup1\n        /* \"#utility.yul\":13008:13012   */\n      dup4\n        /* \"#utility.yul\":13004:13019   */\n      and\n        /* \"#utility.yul\":12994:13019   */\n      swap2\n      pop\n        /* \"#utility.yul\":12907:13025   */\n      pop\n        /* \"#utility.yul\":12856:13025   */\n      swap3\n      swap2\n      pop\n      pop\n      jump\t// out\n        /* \"#utility.yul\":13030:13325   */\n    tag_106:\n        /* \"#utility.yul\":13106:13110   */\n      0x00\n        /* \"#utility.yul\":13252:13281   */\n      tag_244\n        /* \"#utility.yul\":13277:13280   */\n      dup4\n        /* \"#utility.yul\":13271:13275   */\n      dup4\n        /* \"#utility.yul\":13252:13281   */\n      tag_105\n      jump\t// in\n    tag_244:\n        /* \"#utility.yul\":13244:13281   */\n      swap2\n      pop\n        /* \"#utility.yul\":13314:13317   */\n      dup3\n        /* \"#utility.yul\":13311:13312   */\n      0x02\n        /* \"#utility.yul\":13307:13318   */\n      mul\n        /* \"#utility.yul\":13301:13305   */\n      dup3\n        /* \"#utility.yul\":13298:13319   */\n      or\n        /* \"#utility.yul\":13290:13319   */\n      swap1\n      pop\n        /* \"#utility.yul\":13030:13325   */\n      swap3\n      swap2\n      pop\n      pop\n      jump\t// out\n        /* \"#utility.yul\":13330:14725   */\n    tag_57:\n        /* \"#utility.yul\":13447:13484   */\n      tag_246\n        /* \"#utility.yul\":13480:13483   */\n      dup3\n        /* \"#utility.yul\":13447:13484   */\n      tag_67\n      jump\t// in\n    tag_246:\n        /* \"#utility.yul\":13549:13567   */\n      0xffffffffffffffff\n        /* \"#utility.yul\":13541:13547   */\n      dup2\n        /* \"#utility.yul\":13538:13568   */\n      gt\n        /* \"#utility.yul\":13535:13591   */\n      iszero\n      tag_247\n      jumpi\n        /* \"#utility.yul\":13571:13589   */\n      tag_248\n      tag_78\n      jump\t// in\n    tag_248:\n        /* \"#utility.yul\":13535:13591   */\n    tag_247:\n        /* \"#utility.yul\":13615:13653   */\n      tag_249\n        /* \"#utility.yul\":13647:13651   */\n      dup3\n        /* \"#utility.yul\":13641:13652   */\n      sload\n        /* \"#utility.yul\":13615:13653   */\n      tag_29\n      jump\t// in\n    tag_249:\n        /* \"#utility.yul\":13700:13767   */\n      tag_250\n        /* \"#utility.yul\":13760:13766   */\n      dup3\n        /* \"#utility.yul\":13752:13758   */\n      dup3\n        /* \"#utility.yul\":13746:13750   */\n      dup6\n        /* \"#utility.yul\":13700:13767   */\n      tag_103\n      jump\t// in\n    tag_250:\n        /* \"#utility.yul\":13794:13795   */\n      0x00\n        /* \"#utility.yul\":13818:13822   */\n      0x20\n        /* \"#utility.yul\":13805:13822   */\n      swap1\n      pop\n        /* \"#utility.yul\":13850:13852   */\n      0x1f\n        /* \"#utility.yul\":13842:13848   */\n      dup4\n        /* \"#utility.yul\":13839:13853   */\n      gt\n        /* \"#utility.yul\":13867:13868   */\n      0x01\n        /* \"#utility.yul\":13862:14480   */\n      dup2\n      eq\n      tag_252\n      jumpi\n        /* \"#utility.yul\":14524:14525   */\n      0x00\n        /* \"#utility.yul\":14541:14547   */\n      dup5\n        /* \"#utility.yul\":14538:14615   */\n      iszero\n      tag_253\n      jumpi\n        /* \"#utility.yul\":14590:14599   */\n      dup3\n        /* \"#utility.yul\":14585:14588   */\n      dup8\n        /* \"#utility.yul\":14581:14600   */\n      add\n        /* \"#utility.yul\":14575:14601   */\n      mload\n        /* \"#utility.yul\":14566:14601   */\n      swap1\n      pop\n        /* \"#utility.yul\":14538:14615   */\n    tag_253:\n        /* \"#utility.yul\":14641:14708   */\n      tag_254\n        /* \"#utility.yul\":14701:14707   */\n      dup6\n        /* \"#utility.yul\":14694:14699   */\n      dup3\n        /* \"#utility.yul\":14641:14708   */\n      tag_106\n      jump\t// in\n    tag_254:\n        /* \"#utility.yul\":14635:14639   */\n      dup7\n        /* \"#utility.yul\":14628:14709   */\n      sstore\n        /* \"#utility.yul\":14497:14719   */\n      pop\n        /* \"#utility.yul\":13832:14719   */\n      jump(tag_251)\n        /* \"#utility.yul\":13862:14480   */\n    tag_252:\n        /* \"#utility.yul\":13914:13918   */\n      0x1f\n        /* \"#utility.yul\":13910:13919   */\n      not\n        /* \"#utility.yul\":13902:13908   */\n      dup5\n        /* \"#utility.yul\":13898:13920   */\n      and\n        /* \"#utility.yul\":13948:13985   */\n      tag_255\n        /* \"#utility.yul\":13980:13984   */\n      dup7\n        /* \"#utility.yul\":13948:13985   */\n      tag_92\n      jump\t// in\n    tag_255:\n        /* \"#utility.yul\":14007:14008   */\n      0x00\n        /* \"#utility.yul\":14021:14229   */\n    tag_256:\n        /* \"#utility.yul\":14035:14042   */\n      dup3\n        /* \"#utility.yul\":14032:14033   */\n      dup2\n        /* \"#utility.yul\":14029:14043   */\n      lt\n        /* \"#utility.yul\":14021:14229   */\n      iszero\n      tag_258\n      jumpi\n        /* \"#utility.yul\":14114:14123   */\n      dup5\n        /* \"#utility.yul\":14109:14112   */\n      dup10\n        /* \"#utility.yul\":14105:14124   */\n      add\n        /* \"#utility.yul\":14099:14125   */\n      mload\n        /* \"#utility.yul\":14091:14097   */\n      dup3\n        /* \"#utility.yul\":14084:14126   */\n      sstore\n        /* \"#utility.yul\":14165:14166   */\n      0x01\n        /* \"#utility.yul\":14157:14163   */\n      dup3\n        /* \"#utility.yul\":14153:14167   */\n      add\n        /* \"#utility.yul\":14143:14167   */\n      swap2\n      pop\n        /* \"#utility.yul\":14212:14214   */\n      0x20\n        /* \"#utility.yul\":14201:14210   */\n      dup6\n        /* \"#utility.yul\":14197:14215   */\n      add\n        /* \"#utility.yul\":14184:14215   */\n      swap5\n      pop\n        /* \"#utility.yul\":14058:14062   */\n      0x20\n        /* \"#utility.yul\":14055:14056   */\n      dup2\n        /* \"#utility.yul\":14051:14063   */\n      add\n        /* \"#utility.yul\":14046:14063   */\n      swap1\n      pop\n        /* \"#utility.yul\":14021:14229   */\n      jump(tag_256)\n    tag_258:\n        /* \"#utility.yul\":14257:14263   */\n      dup7\n        /* \"#utility.yul\":14248:14255   */\n      dup4\n        /* \"#utility.yul\":14245:14264   */\n      lt\n        /* \"#utility.yul\":14242:14421   */\n      iszero\n      tag_259\n      jumpi\n        /* \"#utility.yul\":14315:14324   */\n      dup5\n        /* \"#utility.yul\":14310:14313   */\n      dup10\n        /* \"#utility.yul\":14306:14325   */\n      add\n        /* \"#utility.yul\":14300:14326   */\n      mload\n        /* \"#utility.yul\":14358:14406   */\n      tag_260\n        /* \"#utility.yul\":14400:14404   */\n      0x1f\n        /* \"#utility.yul\":14392:14398   */\n      dup10\n        /* \"#utility.yul\":14388:14405   */\n      and\n        /* \"#utility.yul\":14377:14386   */\n      dup3\n        /* \"#utility.yul\":14358:14406   */\n      tag_105\n      jump\t// in\n    tag_260:\n        /* \"#utility.yul\":14350:14356   */\n      dup4\n        /* \"#utility.yul\":14343:14407   */\n      sstore\n        /* \"#utility.yul\":14265:14421   */\n      pop\n        /* \"#utility.yul\":14242:14421   */\n    tag_259:\n        /* \"#utility.yul\":14467:14468   */\n      0x01\n        /* \"#utility.yul\":14463:14464   */\n      0x02\n        /* \"#utility.yul\":14455:14461   */\n      dup9\n        /* \"#utility.yul\":14451:14465   */\n      mul\n        /* \"#utility.yul\":14447:14469   */\n      add\n        /* \"#utility.yul\":14441:14445   */\n      dup9\n        /* \"#utility.yul\":14434:14470   */\n      sstore\n        /* \"#utility.yul\":13869:14480   */\n      pop\n      pop\n      pop\n        /* \"#utility.yul\":13832:14719   */\n    tag_251:\n      pop\n        /* \"#utility.yul\":13422:14725   */\n      pop\n      pop\n      pop\n        /* \"#utility.yul\":13330:14725   */\n      pop\n      pop\n      jump\t// out\n        /* \"#utility.yul\":14731:14911   */\n    tag_107:\n        /* \"#utility.yul\":14779:14856   */\n      0x4e487b7100000000000000000000000000000000000000000000000000000000\n        /* \"#utility.yul\":14776:14777   */\n      0x00\n        /* \"#utility.yul\":14769:14857   */\n      mstore\n        /* \"#utility.yul\":14876:14880   */\n      0x11\n        /* \"#utility.yul\":14873:14874   */\n      0x04\n        /* \"#utility.yul\":14866:14881   */\n      mstore\n        /* \"#utility.yul\":14900:14904   */\n      0x24\n        /* \"#utility.yul\":14897:14898   */\n      0x00\n        /* \"#utility.yul\":14890:14905   */\n      revert\n        /* \"#utility.yul\":14917:15108   */\n    tag_60:\n        /* \"#utility.yul\":14957:14960   */\n      0x00\n        /* \"#utility.yul\":14976:14996   */\n      tag_263\n        /* \"#utility.yul\":14994:14995   */\n      dup3\n        /* \"#utility.yul\":14976:14996   */\n      tag_64\n      jump\t// in\n    tag_263:\n        /* \"#utility.yul\":14971:14996   */\n      swap2\n      pop\n        /* \"#utility.yul\":15010:15030   */\n      tag_264\n        /* \"#utility.yul\":15028:15029   */\n      dup4\n        /* \"#utility.yul\":15010:15030   */\n      tag_64\n      jump\t// in\n    tag_264:\n        /* \"#utility.yul\":15005:15030   */\n      swap3\n      pop\n        /* \"#utility.yul\":15053:15054   */\n      dup3\n        /* \"#utility.yul\":15050:15051   */\n      dup3\n        /* \"#utility.yul\":15046:15055   */\n      add\n        /* \"#utility.yul\":15039:15055   */\n      swap1\n      pop\n        /* \"#utility.yul\":15074:15077   */\n      dup1\n        /* \"#utility.yul\":15071:15072   */\n      dup3\n        /* \"#utility.yul\":15068:15078   */\n      gt\n        /* \"#utility.yul\":15065:15101   */\n      iszero\n      tag_265\n      jumpi\n        /* \"#utility.yul\":15081:15099   */\n      tag_266\n      tag_107\n      jump\t// in\n    tag_266:\n        /* \"#utility.yul\":15065:15101   */\n    tag_265:\n        /* \"#utility.yul\":14917:15108   */\n      swap3\n      swap2\n      pop\n      pop\n      jump\t// out\n\n    auxdata: 0xa2646970667358221220368445655c96a86abf345eeaab0e31c7c9ff896605f5bc520f55e742b64cf88a64736f6c63430008120033\n}\n",
				"bytecode": {
					"linkReferences": {},
					"object": "608060405234801561001057600080fd5b50610eee806100206000396000f3fe60806040526004361061004a5760003560e01c806333b8c62a1461004f57806338e22afc146100915780639ea5cb11146100ad578063c1cbbca7146100c9578063ec939ae4146100e5575b600080fd5b34801561005b57600080fd5b50610076600480360381019061007191906106a9565b61010e565b604051610088969594939291906107b6565b60405180910390f35b6100ab60048036038101906100a691906106a9565b61027a565b005b6100c760048036038101906100c291906106a9565b6103b4565b005b6100e360048036038101906100de91906106a9565b6104b8565b005b3480156100f157600080fd5b5061010c6004803603810190610107919061095a565b61057a565b005b600260205280600052604060002060009150905080600001805461013190610a3c565b80601f016020809104026020016040519081016040528092919081815260200182805461015d90610a3c565b80156101aa5780601f1061017f576101008083540402835291602001916101aa565b820191906000526020600020905b81548152906001019060200180831161018d57829003601f168201915b5050505050908060010180546101bf90610a3c565b80601f01602080910402602001604051908101604052809291908181526020018280546101eb90610a3c565b80156102385780601f1061020d57610100808354040283529160200191610238565b820191906000526020600020905b81548152906001019060200180831161021b57829003601f168201915b5050505050908060020154908060030154908060040154908060050160009054906101000a900473ffffffffffffffffffffffffffffffffffffffff16905086565b6002600082815260200190815260200160002060050160009054906101000a900473ffffffffffffffffffffffffffffffffffffffff1673ffffffffffffffffffffffffffffffffffffffff163373ffffffffffffffffffffffffffffffffffffffff161461031e576040517f08c379a000000000000000000000000000000000000000000000000000000000815260040161031590610ab9565b60405180910390fd5b6002600082815260200190815260200160002060050160009054906101000a900473ffffffffffffffffffffffffffffffffffffffff1673ffffffffffffffffffffffffffffffffffffffff166108fc60026000848152602001908152602001600020600401549081150290604051600060405180830381858888f193505050501580156103b0573d6000803e3d6000fd5b5050565b6002600082815260200190815260200160002060050160009054906101000a900473ffffffffffffffffffffffffffffffffffffffff1673ffffffffffffffffffffffffffffffffffffffff163373ffffffffffffffffffffffffffffffffffffffff1603610458576040517f08c379a000000000000000000000000000000000000000000000000000000000815260040161044f90610b4b565b60405180910390fd5b3373ffffffffffffffffffffffffffffffffffffffff166108fc60026000848152602001908152602001600020600401549081150290604051600060405180830381858888f193505050501580156104b4573d6000803e3d6000fd5b5050565b6002600082815260200190815260200160002060050160009054906101000a900473ffffffffffffffffffffffffffffffffffffffff1673ffffffffffffffffffffffffffffffffffffffff163373ffffffffffffffffffffffffffffffffffffffff160361055c576040517f08c379a000000000000000000000000000000000000000000000000000000000815260040161055390610bb7565b60405180910390fd5b34600260008381526020019081526020016000206004018190555050565b8360026000878152602001908152602001600020600001908161059d9190610d83565b50826002600087815260200190815260200160002060010190816105c19190610d83565b50816002600087815260200190815260200160002060020181905550336002600087815260200190815260200160002060050160006101000a81548173ffffffffffffffffffffffffffffffffffffffff021916908373ffffffffffffffffffffffffffffffffffffffff160217905550804261063e9190610e84565b60026000878152602001908152602001600020600301819055505050505050565b6000604051905090565b600080fd5b600080fd5b6000819050919050565b61068681610673565b811461069157600080fd5b50565b6000813590506106a38161067d565b92915050565b6000602082840312156106bf576106be610669565b5b60006106cd84828501610694565b91505092915050565b600081519050919050565b600082825260208201905092915050565b60005b838110156107105780820151818401526020810190506106f5565b60008484015250505050565b6000601f19601f8301169050919050565b6000610738826106d6565b61074281856106e1565b93506107528185602086016106f2565b61075b8161071c565b840191505092915050565b61076f81610673565b82525050565b600073ffffffffffffffffffffffffffffffffffffffff82169050919050565b60006107a082610775565b9050919050565b6107b081610795565b82525050565b600060c08201905081810360008301526107d0818961072d565b905081810360208301526107e4818861072d565b90506107f36040830187610766565b6108006060830186610766565b61080d6080830185610766565b61081a60a08301846107a7565b979650505050505050565b600080fd5b600080fd5b7f4e487b7100000000000000000000000000000000000000000000000000000000600052604160045260246000fd5b6108678261071c565b810181811067ffffffffffffffff821117156108865761088561082f565b5b80604052505050565b600061089961065f565b90506108a5828261085e565b919050565b600067ffffffffffffffff8211156108c5576108c461082f565b5b6108ce8261071c565b9050602081019050919050565b82818337600083830152505050565b60006108fd6108f8846108aa565b61088f565b9050828152602081018484840111156109195761091861082a565b5b6109248482856108db565b509392505050565b600082601f83011261094157610940610825565b5b81356109518482602086016108ea565b91505092915050565b600080600080600060a0868803121561097657610975610669565b5b600061098488828901610694565b955050602086013567ffffffffffffffff8111156109a5576109a461066e565b5b6109b18882890161092c565b945050604086013567ffffffffffffffff8111156109d2576109d161066e565b5b6109de8882890161092c565b93505060606109ef88828901610694565b9250506080610a0088828901610694565b9150509295509295909350565b7f4e487b7100000000000000000000000000000000000000000000000000000000600052602260045260246000fd5b60006002820490506001821680610a5457607f821691505b602082108103610a6757610a66610a0d565b5b50919050565b7f204f6e6c79204f776e65722063616e2077696474686472617700000000000000600082015250565b6000610aa36019836106e1565b9150610aae82610a6d565b602082019050919050565b60006020820190508181036000830152610ad281610a96565b9050919050565b7f204f776e65722063616e27742074616b65206d6f6e657920696620636f6e747260008201527f69627574696f6e206e6f7420636f6d706c657465640000000000000000000000602082015250565b6000610b356035836106e1565b9150610b4082610ad9565b604082019050919050565b60006020820190508181036000830152610b6481610b28565b9050919050565b7f204f776e65722063616e277420636f6e74726962757465000000000000000000600082015250565b6000610ba16017836106e1565b9150610bac82610b6b565b602082019050919050565b60006020820190508181036000830152610bd081610b94565b9050919050565b60008190508160005260206000209050919050565b60006020601f8301049050919050565b600082821b905092915050565b600060088302610c397fffffffffffffffffffffffffffffffffffffffffffffffffffffffffffffffff82610bfc565b610c438683610bfc565b95508019841693508086168417925050509392505050565b6000819050919050565b6000610c80610c7b610c7684610673565b610c5b565b610673565b9050919050565b6000819050919050565b610c9a83610c65565b610cae610ca682610c87565b848454610c09565b825550505050565b600090565b610cc3610cb6565b610cce818484610c91565b505050565b5b81811015610cf257610ce7600082610cbb565b600181019050610cd4565b5050565b601f821115610d3757610d0881610bd7565b610d1184610bec565b81016020851015610d20578190505b610d34610d2c85610bec565b830182610cd3565b50505b505050565b600082821c905092915050565b6000610d5a60001984600802610d3c565b1980831691505092915050565b6000610d738383610d49565b9150826002028217905092915050565b610d8c826106d6565b67ffffffffffffffff811115610da557610da461082f565b5b610daf8254610a3c565b610dba828285610cf6565b600060209050601f831160018114610ded5760008415610ddb578287015190505b610de58582610d67565b865550610e4d565b601f198416610dfb86610bd7565b60005b82811015610e2357848901518255600182019150602085019450602081019050610dfe565b86831015610e405784890151610e3c601f891682610d49565b8355505b6001600288020188555050505b505050505050565b7f4e487b7100000000000000000000000000000000000000000000000000000000600052601160045260246000fd5b6000610e8f82610673565b9150610e9a83610673565b9250828201905080821115610eb257610eb1610e55565b5b9291505056fea2646970667358221220368445655c96a86abf345eeaab0e31c7c9ff896605f5bc520f55e742b64cf88a64736f6c63430008120033",
					"opcodes": "PUSH1 0x80 PUSH1 0x40 MSTORE CALLVALUE DUP1 ISZERO PUSH2 0x10 JUMPI PUSH1 0x0 DUP1 REVERT JUMPDEST POP PUSH2 0xEEE DUP1 PUSH2 0x20 PUSH1 0x0 CODECOPY PUSH1 0x0 RETURN INVALID PUSH1 0x80 PUSH1 0x40 MSTORE PUSH1 0x4 CALLDATASIZE LT PUSH2 0x4A JUMPI PUSH1 0x0 CALLDATALOAD PUSH1 0xE0 SHR DUP1 PUSH4 0x33B8C62A EQ PUSH2 0x4F JUMPI DUP1 PUSH4 0x38E22AFC EQ PUSH2 0x91 JUMPI DUP1 PUSH4 0x9EA5CB11 EQ PUSH2 0xAD JUMPI DUP1 PUSH4 0xC1CBBCA7 EQ PUSH2 0xC9 JUMPI DUP1 PUSH4 0xEC939AE4 EQ PUSH2 0xE5 JUMPI JUMPDEST PUSH1 0x0 DUP1 REVERT JUMPDEST CALLVALUE DUP1 ISZERO PUSH2 0x5B JUMPI PUSH1 0x0 DUP1 REVERT JUMPDEST POP PUSH2 0x76 PUSH1 0x4 DUP1 CALLDATASIZE SUB DUP2 ADD SWAP1 PUSH2 0x71 SWAP2 SWAP1 PUSH2 0x6A9 JUMP JUMPDEST PUSH2 0x10E JUMP JUMPDEST PUSH1 0x40 MLOAD PUSH2 0x88 SWAP7 SWAP6 SWAP5 SWAP4 SWAP3 SWAP2 SWAP1 PUSH2 0x7B6 JUMP JUMPDEST PUSH1 0x40 MLOAD DUP1 SWAP2 SUB SWAP1 RETURN JUMPDEST PUSH2 0xAB PUSH1 0x4 DUP1 CALLDATASIZE SUB DUP2 ADD SWAP1 PUSH2 0xA6 SWAP2 SWAP1 PUSH2 0x6A9 JUMP JUMPDEST PUSH2 0x27A JUMP JUMPDEST STOP JUMPDEST PUSH2 0xC7 PUSH1 0x4 DUP1 CALLDATASIZE SUB DUP2 ADD SWAP1 PUSH2 0xC2 SWAP2 SWAP1 PUSH2 0x6A9 JUMP JUMPDEST PUSH2 0x3B4 JUMP JUMPDEST STOP JUMPDEST PUSH2 0xE3 PUSH1 0x4 DUP1 CALLDATASIZE SUB DUP2 ADD SWAP1 PUSH2 0xDE SWAP2 SWAP1 PUSH2 0x6A9 JUMP JUMPDEST PUSH2 0x4B8 JUMP JUMPDEST STOP JUMPDEST CALLVALUE DUP1 ISZERO PUSH2 0xF1 JUMPI PUSH1 0x0 DUP1 REVERT JUMPDEST POP PUSH2 0x10C PUSH1 0x4 DUP1 CALLDATASIZE SUB DUP2 ADD SWAP1 PUSH2 0x107 SWAP2 SWAP1 PUSH2 0x95A JUMP JUMPDEST PUSH2 0x57A JUMP JUMPDEST STOP JUMPDEST PUSH1 0x2 PUSH1 0x20 MSTORE DUP1 PUSH1 0x0 MSTORE PUSH1 0x40 PUSH1 0x0 KECCAK256 PUSH1 0x0 SWAP2 POP SWAP1 POP DUP1 PUSH1 0x0 ADD DUP1 SLOAD PUSH2 0x131 SWAP1 PUSH2 0xA3C JUMP JUMPDEST DUP1 PUSH1 0x1F ADD PUSH1 0x20 DUP1 SWAP2 DIV MUL PUSH1 0x20 ADD PUSH1 0x40 MLOAD SWAP1 DUP2 ADD PUSH1 0x40 MSTORE DUP1 SWAP3 SWAP2 SWAP1 DUP2 DUP2 MSTORE PUSH1 0x20 ADD DUP3 DUP1 SLOAD PUSH2 0x15D SWAP1 PUSH2 0xA3C JUMP JUMPDEST DUP1 ISZERO PUSH2 0x1AA JUMPI DUP1 PUSH1 0x1F LT PUSH2 0x17F JUMPI PUSH2 0x100 DUP1 DUP4 SLOAD DIV MUL DUP4 MSTORE SWAP2 PUSH1 0x20 ADD SWAP2 PUSH2 0x1AA JUMP JUMPDEST DUP3 ADD SWAP2 SWAP1 PUSH1 0x0 MSTORE PUSH1 0x20 PUSH1 0x0 KECCAK256 SWAP1 JUMPDEST DUP2 SLOAD DUP2 MSTORE SWAP1 PUSH1 0x1 ADD SWAP1 PUSH1 0x20 ADD DUP1 DUP4 GT PUSH2 0x18D JUMPI DUP3 SWAP1 SUB PUSH1 0x1F AND DUP3 ADD SWAP2 JUMPDEST POP POP POP POP POP SWAP1 DUP1 PUSH1 0x1 ADD DUP1 SLOAD PUSH2 0x1BF SWAP1 PUSH2 0xA3C JUMP JUMPDEST DUP1 PUSH1 0x1F ADD PUSH1 0x20 DUP1 SWAP2 DIV MUL PUSH1 0x20 ADD PUSH1 0x40 MLOAD SWAP1 DUP2 ADD PUSH1 0x40 MSTORE DUP1 SWAP3 SWAP2 SWAP1 DUP2 DUP2 MSTORE PUSH1 0x20 ADD DUP3 DUP1 SLOAD PUSH2 0x1EB SWAP1 PUSH2 0xA3C JUMP JUMPDEST DUP1 ISZERO PUSH2 0x238 JUMPI DUP1 PUSH1 0x1F LT PUSH2 0x20D JUMPI PUSH2 0x100 DUP1 DUP4 SLOAD DIV MUL DUP4 MSTORE SWAP2 PUSH1 0x20 ADD SWAP2 PUSH2 0x238 JUMP JUMPDEST DUP3 ADD SWAP2 SWAP1 PUSH1 0x0 MSTORE PUSH1 0x20 PUSH1 0x0 KECCAK256 SWAP1 JUMPDEST DUP2 SLOAD DUP2 MSTORE SWAP1 PUSH1 0x1 ADD SWAP1 PUSH1 0x20 ADD DUP1 DUP4 GT PUSH2 0x21B JUMPI DUP3 SWAP1 SUB PUSH1 0x1F AND DUP3 ADD SWAP2 JUMPDEST POP POP POP POP POP SWAP1 DUP1 PUSH1 0x2 ADD SLOAD SWAP1 DUP1 PUSH1 0x3 ADD SLOAD SWAP1 DUP1 PUSH1 0x4 ADD SLOAD SWAP1 DUP1 PUSH1 0x5 ADD PUSH1 0x0 SWAP1 SLOAD SWAP1 PUSH2 0x100 EXP SWAP1 DIV PUSH20 0xFFFFFFFFFFFFFFFFFFFFFFFFFFFFFFFFFFFFFFFF AND SWAP1 POP DUP7 JUMP JUMPDEST PUSH1 0x2 PUSH1 0x0 DUP3 DUP2 MSTORE PUSH1 0x20 ADD SWAP1 DUP2 MSTORE PUSH1 0x20 ADD PUSH1 0x0 KECCAK256 PUSH1 0x5 ADD PUSH1 0x0 SWAP1 SLOAD SWAP1 PUSH2 0x100 EXP SWAP1 DIV PUSH20 0xFFFFFFFFFFFFFFFFFFFFFFFFFFFFFFFFFFFFFFFF AND PUSH20 0xFFFFFFFFFFFFFFFFFFFFFFFFFFFFFFFFFFFFFFFF AND CALLER PUSH20 0xFFFFFFFFFFFFFFFFFFFFFFFFFFFFFFFFFFFFFFFF AND EQ PUSH2 0x31E JUMPI PUSH1 0x40 MLOAD PUSH32 0x8C379A000000000000000000000000000000000000000000000000000000000 DUP2 MSTORE PUSH1 0x4 ADD PUSH2 0x315 SWAP1 PUSH2 0xAB9 JUMP JUMPDEST PUSH1 0x40 MLOAD DUP1 SWAP2 SUB SWAP1 REVERT JUMPDEST PUSH1 0x2 PUSH1 0x0 DUP3 DUP2 MSTORE PUSH1 0x20 ADD SWAP1 DUP2 MSTORE PUSH1 0x20 ADD PUSH1 0x0 KECCAK256 PUSH1 0x5 ADD PUSH1 0x0 SWAP1 SLOAD SWAP1 PUSH2 0x100 EXP SWAP1 DIV PUSH20 0xFFFFFFFFFFFFFFFFFFFFFFFFFFFFFFFFFFFFFFFF AND PUSH20 0xFFFFFFFFFFFFFFFFFFFFFFFFFFFFFFFFFFFFFFFF AND PUSH2 0x8FC PUSH1 0x2 PUSH1 0x0 DUP5 DUP2 MSTORE PUSH1 0x20 ADD SWAP1 DUP2 MSTORE PUSH1 0x20 ADD PUSH1 0x0 KECCAK256 PUSH1 0x4 ADD SLOAD SWAP1 DUP2 ISZERO MUL SWAP1 PUSH1 0x40 MLOAD PUSH1 0x0 PUSH1 0x40 MLOAD DUP1 DUP4 SUB DUP2 DUP6 DUP9 DUP9 CALL SWAP4 POP POP POP POP ISZERO DUP1 ISZERO PUSH2 0x3B0 JUMPI RETURNDATASIZE PUSH1 0x0 DUP1 RETURNDATACOPY RETURNDATASIZE PUSH1 0x0 REVERT JUMPDEST POP POP JUMP JUMPDEST PUSH1 0x2 PUSH1 0x0 DUP3 DUP2 MSTORE PUSH1 0x20 ADD SWAP1 DUP2 MSTORE PUSH1 0x20 ADD PUSH1 0x0 KECCAK256 PUSH1 0x5 ADD PUSH1 0x0 SWAP1 SLOAD SWAP1 PUSH2 0x100 EXP SWAP1 DIV PUSH20 0xFFFFFFFFFFFFFFFFFFFFFFFFFFFFFFFFFFFFFFFF AND PUSH20 0xFFFFFFFFFFFFFFFFFFFFFFFFFFFFFFFFFFFFFFFF AND CALLER PUSH20 0xFFFFFFFFFFFFFFFFFFFFFFFFFFFFFFFFFFFFFFFF AND SUB PUSH2 0x458 JUMPI PUSH1 0x40 MLOAD PUSH32 0x8C379A000000000000000000000000000000000000000000000000000000000 DUP2 MSTORE PUSH1 0x4 ADD PUSH2 0x44F SWAP1 PUSH2 0xB4B JUMP JUMPDEST PUSH1 0x40 MLOAD DUP1 SWAP2 SUB SWAP1 REVERT JUMPDEST CALLER PUSH20 0xFFFFFFFFFFFFFFFFFFFFFFFFFFFFFFFFFFFFFFFF AND PUSH2 0x8FC PUSH1 0x2 PUSH1 0x0 DUP5 DUP2 MSTORE PUSH1 0x20 ADD SWAP1 DUP2 MSTORE PUSH1 0x20 ADD PUSH1 0x0 KECCAK256 PUSH1 0x4 ADD SLOAD SWAP1 DUP2 ISZERO MUL SWAP1 PUSH1 0x40 MLOAD PUSH1 0x0 PUSH1 0x40 MLOAD DUP1 DUP4 SUB DUP2 DUP6 DUP9 DUP9 CALL SWAP4 POP POP POP POP ISZERO DUP1 ISZERO PUSH2 0x4B4 JUMPI RETURNDATASIZE PUSH1 0x0 DUP1 RETURNDATACOPY RETURNDATASIZE PUSH1 0x0 REVERT JUMPDEST POP POP JUMP JUMPDEST PUSH1 0x2 PUSH1 0x0 DUP3 DUP2 MSTORE PUSH1 0x20 ADD SWAP1 DUP2 MSTORE PUSH1 0x20 ADD PUSH1 0x0 KECCAK256 PUSH1 0x5 ADD PUSH1 0x0 SWAP1 SLOAD SWAP1 PUSH2 0x100 EXP SWAP1 DIV PUSH20 0xFFFFFFFFFFFFFFFFFFFFFFFFFFFFFFFFFFFFFFFF AND PUSH20 0xFFFFFFFFFFFFFFFFFFFFFFFFFFFFFFFFFFFFFFFF AND CALLER PUSH20 0xFFFFFFFFFFFFFFFFFFFFFFFFFFFFFFFFFFFFFFFF AND SUB PUSH2 0x55C JUMPI PUSH1 0x40 MLOAD PUSH32 0x8C379A000000000000000000000000000000000000000000000000000000000 DUP2 MSTORE PUSH1 0x4 ADD PUSH2 0x553 SWAP1 PUSH2 0xBB7 JUMP JUMPDEST PUSH1 0x40 MLOAD DUP1 SWAP2 SUB SWAP1 REVERT JUMPDEST CALLVALUE PUSH1 0x2 PUSH1 0x0 DUP4 DUP2 MSTORE PUSH1 0x20 ADD SWAP1 DUP2 MSTORE PUSH1 0x20 ADD PUSH1 0x0 KECCAK256 PUSH1 0x4 ADD DUP2 SWAP1 SSTORE POP POP JUMP JUMPDEST DUP4 PUSH1 0x2 PUSH1 0x0 DUP8 DUP2 MSTORE PUSH1 0x20 ADD SWAP1 DUP2 MSTORE PUSH1 0x20 ADD PUSH1 0x0 KECCAK256 PUSH1 0x0 ADD SWAP1 DUP2 PUSH2 0x59D SWAP2 SWAP1 PUSH2 0xD83 JUMP JUMPDEST POP DUP3 PUSH1 0x2 PUSH1 0x0 DUP8 DUP2 MSTORE PUSH1 0x20 ADD SWAP1 DUP2 MSTORE PUSH1 0x20 ADD PUSH1 0x0 KECCAK256 PUSH1 0x1 ADD SWAP1 DUP2 PUSH2 0x5C1 SWAP2 SWAP1 PUSH2 0xD83 JUMP JUMPDEST POP DUP2 PUSH1 0x2 PUSH1 0x0 DUP8 DUP2 MSTORE PUSH1 0x20 ADD SWAP1 DUP2 MSTORE PUSH1 0x20 ADD PUSH1 0x0 KECCAK256 PUSH1 0x2 ADD DUP2 SWAP1 SSTORE POP CALLER PUSH1 0x2 PUSH1 0x0 DUP8 DUP2 MSTORE PUSH1 0x20 ADD SWAP1 DUP2 MSTORE PUSH1 0x20 ADD PUSH1 0x0 KECCAK256 PUSH1 0x5 ADD PUSH1 0x0 PUSH2 0x100 EXP DUP2 SLOAD DUP2 PUSH20 0xFFFFFFFFFFFFFFFFFFFFFFFFFFFFFFFFFFFFFFFF MUL NOT AND SWAP1 DUP4 PUSH20 0xFFFFFFFFFFFFFFFFFFFFFFFFFFFFFFFFFFFFFFFF AND MUL OR SWAP1 SSTORE POP DUP1 TIMESTAMP PUSH2 0x63E SWAP2 SWAP1 PUSH2 0xE84 JUMP JUMPDEST PUSH1 0x2 PUSH1 0x0 DUP8 DUP2 MSTORE PUSH1 0x20 ADD SWAP1 DUP2 MSTORE PUSH1 0x20 ADD PUSH1 0x0 KECCAK256 PUSH1 0x3 ADD DUP2 SWAP1 SSTORE POP POP POP POP POP POP JUMP JUMPDEST PUSH1 0x0 PUSH1 0x40 MLOAD SWAP1 POP SWAP1 JUMP JUMPDEST PUSH1 0x0 DUP1 REVERT JUMPDEST PUSH1 0x0 DUP1 REVERT JUMPDEST PUSH1 0x0 DUP2 SWAP1 POP SWAP2 SWAP1 POP JUMP JUMPDEST PUSH2 0x686 DUP2 PUSH2 0x673 JUMP JUMPDEST DUP2 EQ PUSH2 0x691 JUMPI PUSH1 0x0 DUP1 REVERT JUMPDEST POP JUMP JUMPDEST PUSH1 0x0 DUP2 CALLDATALOAD SWAP1 POP PUSH2 0x6A3 DUP2 PUSH2 0x67D JUMP JUMPDEST SWAP3 SWAP2 POP POP JUMP JUMPDEST PUSH1 0x0 PUSH1 0x20 DUP3 DUP5 SUB SLT ISZERO PUSH2 0x6BF JUMPI PUSH2 0x6BE PUSH2 0x669 JUMP JUMPDEST JUMPDEST PUSH1 0x0 PUSH2 0x6CD DUP5 DUP3 DUP6 ADD PUSH2 0x694 JUMP JUMPDEST SWAP2 POP POP SWAP3 SWAP2 POP POP JUMP JUMPDEST PUSH1 0x0 DUP2 MLOAD SWAP1 POP SWAP2 SWAP1 POP JUMP JUMPDEST PUSH1 0x0 DUP3 DUP3 MSTORE PUSH1 0x20 DUP3 ADD SWAP1 POP SWAP3 SWAP2 POP POP JUMP JUMPDEST PUSH1 0x0 JUMPDEST DUP4 DUP2 LT ISZERO PUSH2 0x710 JUMPI DUP1 DUP3 ADD MLOAD DUP2 DUP5 ADD MSTORE PUSH1 0x20 DUP2 ADD SWAP1 POP PUSH2 0x6F5 JUMP JUMPDEST PUSH1 0x0 DUP5 DUP5 ADD MSTORE POP POP POP POP JUMP JUMPDEST PUSH1 0x0 PUSH1 0x1F NOT PUSH1 0x1F DUP4 ADD AND SWAP1 POP SWAP2 SWAP1 POP JUMP JUMPDEST PUSH1 0x0 PUSH2 0x738 DUP3 PUSH2 0x6D6 JUMP JUMPDEST PUSH2 0x742 DUP2 DUP6 PUSH2 0x6E1 JUMP JUMPDEST SWAP4 POP PUSH2 0x752 DUP2 DUP6 PUSH1 0x20 DUP7 ADD PUSH2 0x6F2 JUMP JUMPDEST PUSH2 0x75B DUP2 PUSH2 0x71C JUMP JUMPDEST DUP5 ADD SWAP2 POP POP SWAP3 SWAP2 POP POP JUMP JUMPDEST PUSH2 0x76F DUP2 PUSH2 0x673 JUMP JUMPDEST DUP3 MSTORE POP POP JUMP JUMPDEST PUSH1 0x0 PUSH20 0xFFFFFFFFFFFFFFFFFFFFFFFFFFFFFFFFFFFFFFFF DUP3 AND SWAP1 POP SWAP2 SWAP1 POP JUMP JUMPDEST PUSH1 0x0 PUSH2 0x7A0 DUP3 PUSH2 0x775 JUMP JUMPDEST SWAP1 POP SWAP2 SWAP1 POP JUMP JUMPDEST PUSH2 0x7B0 DUP2 PUSH2 0x795 JUMP JUMPDEST DUP3 MSTORE POP POP JUMP JUMPDEST PUSH1 0x0 PUSH1 0xC0 DUP3 ADD SWAP1 POP DUP2 DUP2 SUB PUSH1 0x0 DUP4 ADD MSTORE PUSH2 0x7D0 DUP2 DUP10 PUSH2 0x72D JUMP JUMPDEST SWAP1 POP DUP2 DUP2 SUB PUSH1 0x20 DUP4 ADD MSTORE PUSH2 0x7E4 DUP2 DUP9 PUSH2 0x72D JUMP JUMPDEST SWAP1 POP PUSH2 0x7F3 PUSH1 0x40 DUP4 ADD DUP8 PUSH2 0x766 JUMP JUMPDEST PUSH2 0x800 PUSH1 0x60 DUP4 ADD DUP7 PUSH2 0x766 JUMP JUMPDEST PUSH2 0x80D PUSH1 0x80 DUP4 ADD DUP6 PUSH2 0x766 JUMP JUMPDEST PUSH2 0x81A PUSH1 0xA0 DUP4 ADD DUP5 PUSH2 0x7A7 JUMP JUMPDEST SWAP8 SWAP7 POP POP POP POP POP POP POP JUMP JUMPDEST PUSH1 0x0 DUP1 REVERT JUMPDEST PUSH1 0x0 DUP1 REVERT JUMPDEST PUSH32 0x4E487B7100000000000000000000000000000000000000000000000000000000 PUSH1 0x0 MSTORE PUSH1 0x41 PUSH1 0x4 MSTORE PUSH1 0x24 PUSH1 0x0 REVERT JUMPDEST PUSH2 0x867 DUP3 PUSH2 0x71C JUMP JUMPDEST DUP2 ADD DUP2 DUP2 LT PUSH8 0xFFFFFFFFFFFFFFFF DUP3 GT OR ISZERO PUSH2 0x886 JUMPI PUSH2 0x885 PUSH2 0x82F JUMP JUMPDEST JUMPDEST DUP1 PUSH1 0x40 MSTORE POP POP POP JUMP JUMPDEST PUSH1 0x0 PUSH2 0x899 PUSH2 0x65F JUMP JUMPDEST SWAP1 POP PUSH2 0x8A5 DUP3 DUP3 PUSH2 0x85E JUMP JUMPDEST SWAP2 SWAP1 POP JUMP JUMPDEST PUSH1 0x0 PUSH8 0xFFFFFFFFFFFFFFFF DUP3 GT ISZERO PUSH2 0x8C5 JUMPI PUSH2 0x8C4 PUSH2 0x82F JUMP JUMPDEST JUMPDEST PUSH2 0x8CE DUP3 PUSH2 0x71C JUMP JUMPDEST SWAP1 POP PUSH1 0x20 DUP2 ADD SWAP1 POP SWAP2 SWAP1 POP JUMP JUMPDEST DUP3 DUP2 DUP4 CALLDATACOPY PUSH1 0x0 DUP4 DUP4 ADD MSTORE POP POP POP JUMP JUMPDEST PUSH1 0x0 PUSH2 0x8FD PUSH2 0x8F8 DUP5 PUSH2 0x8AA JUMP JUMPDEST PUSH2 0x88F JUMP JUMPDEST SWAP1 POP DUP3 DUP2 MSTORE PUSH1 0x20 DUP2 ADD DUP5 DUP5 DUP5 ADD GT ISZERO PUSH2 0x919 JUMPI PUSH2 0x918 PUSH2 0x82A JUMP JUMPDEST JUMPDEST PUSH2 0x924 DUP5 DUP3 DUP6 PUSH2 0x8DB JUMP JUMPDEST POP SWAP4 SWAP3 POP POP POP JUMP JUMPDEST PUSH1 0x0 DUP3 PUSH1 0x1F DUP4 ADD SLT PUSH2 0x941 JUMPI PUSH2 0x940 PUSH2 0x825 JUMP JUMPDEST JUMPDEST DUP2 CALLDATALOAD PUSH2 0x951 DUP5 DUP3 PUSH1 0x20 DUP7 ADD PUSH2 0x8EA JUMP JUMPDEST SWAP2 POP POP SWAP3 SWAP2 POP POP JUMP JUMPDEST PUSH1 0x0 DUP1 PUSH1 0x0 DUP1 PUSH1 0x0 PUSH1 0xA0 DUP7 DUP9 SUB SLT ISZERO PUSH2 0x976 JUMPI PUSH2 0x975 PUSH2 0x669 JUMP JUMPDEST JUMPDEST PUSH1 0x0 PUSH2 0x984 DUP9 DUP3 DUP10 ADD PUSH2 0x694 JUMP JUMPDEST SWAP6 POP POP PUSH1 0x20 DUP7 ADD CALLDATALOAD PUSH8 0xFFFFFFFFFFFFFFFF DUP2 GT ISZERO PUSH2 0x9A5 JUMPI PUSH2 0x9A4 PUSH2 0x66E JUMP JUMPDEST JUMPDEST PUSH2 0x9B1 DUP9 DUP3 DUP10 ADD PUSH2 0x92C JUMP JUMPDEST SWAP5 POP POP PUSH1 0x40 DUP7 ADD CALLDATALOAD PUSH8 0xFFFFFFFFFFFFFFFF DUP2 GT ISZERO PUSH2 0x9D2 JUMPI PUSH2 0x9D1 PUSH2 0x66E JUMP JUMPDEST JUMPDEST PUSH2 0x9DE DUP9 DUP3 DUP10 ADD PUSH2 0x92C JUMP JUMPDEST SWAP4 POP POP PUSH1 0x60 PUSH2 0x9EF DUP9 DUP3 DUP10 ADD PUSH2 0x694 JUMP JUMPDEST SWAP3 POP POP PUSH1 0x80 PUSH2 0xA00 DUP9 DUP3 DUP10 ADD PUSH2 0x694 JUMP JUMPDEST SWAP2 POP POP SWAP3 SWAP6 POP SWAP3 SWAP6 SWAP1 SWAP4 POP JUMP JUMPDEST PUSH32 0x4E487B7100000000000000000000000000000000000000000000000000000000 PUSH1 0x0 MSTORE PUSH1 0x22 PUSH1 0x4 MSTORE PUSH1 0x24 PUSH1 0x0 REVERT JUMPDEST PUSH1 0x0 PUSH1 0x2 DUP3 DIV SWAP1 POP PUSH1 0x1 DUP3 AND DUP1 PUSH2 0xA54 JUMPI PUSH1 0x7F DUP3 AND SWAP2 POP JUMPDEST PUSH1 0x20 DUP3 LT DUP2 SUB PUSH2 0xA67 JUMPI PUSH2 0xA66 PUSH2 0xA0D JUMP JUMPDEST JUMPDEST POP SWAP2 SWAP1 POP JUMP JUMPDEST PUSH32 0x204F6E6C79204F776E65722063616E2077696474686472617700000000000000 PUSH1 0x0 DUP3 ADD MSTORE POP JUMP JUMPDEST PUSH1 0x0 PUSH2 0xAA3 PUSH1 0x19 DUP4 PUSH2 0x6E1 JUMP JUMPDEST SWAP2 POP PUSH2 0xAAE DUP3 PUSH2 0xA6D JUMP JUMPDEST PUSH1 0x20 DUP3 ADD SWAP1 POP SWAP2 SWAP1 POP JUMP JUMPDEST PUSH1 0x0 PUSH1 0x20 DUP3 ADD SWAP1 POP DUP2 DUP2 SUB PUSH1 0x0 DUP4 ADD MSTORE PUSH2 0xAD2 DUP2 PUSH2 0xA96 JUMP JUMPDEST SWAP1 POP SWAP2 SWAP1 POP JUMP JUMPDEST PUSH32 0x204F776E65722063616E27742074616B65206D6F6E657920696620636F6E7472 PUSH1 0x0 DUP3 ADD MSTORE PUSH32 0x69627574696F6E206E6F7420636F6D706C657465640000000000000000000000 PUSH1 0x20 DUP3 ADD MSTORE POP JUMP JUMPDEST PUSH1 0x0 PUSH2 0xB35 PUSH1 0x35 DUP4 PUSH2 0x6E1 JUMP JUMPDEST SWAP2 POP PUSH2 0xB40 DUP3 PUSH2 0xAD9 JUMP JUMPDEST PUSH1 0x40 DUP3 ADD SWAP1 POP SWAP2 SWAP1 POP JUMP JUMPDEST PUSH1 0x0 PUSH1 0x20 DUP3 ADD SWAP1 POP DUP2 DUP2 SUB PUSH1 0x0 DUP4 ADD MSTORE PUSH2 0xB64 DUP2 PUSH2 0xB28 JUMP JUMPDEST SWAP1 POP SWAP2 SWAP1 POP JUMP JUMPDEST PUSH32 0x204F776E65722063616E277420636F6E74726962757465000000000000000000 PUSH1 0x0 DUP3 ADD MSTORE POP JUMP JUMPDEST PUSH1 0x0 PUSH2 0xBA1 PUSH1 0x17 DUP4 PUSH2 0x6E1 JUMP JUMPDEST SWAP2 POP PUSH2 0xBAC DUP3 PUSH2 0xB6B JUMP JUMPDEST PUSH1 0x20 DUP3 ADD SWAP1 POP SWAP2 SWAP1 POP JUMP JUMPDEST PUSH1 0x0 PUSH1 0x20 DUP3 ADD SWAP1 POP DUP2 DUP2 SUB PUSH1 0x0 DUP4 ADD MSTORE PUSH2 0xBD0 DUP2 PUSH2 0xB94 JUMP JUMPDEST SWAP1 POP SWAP2 SWAP1 POP JUMP JUMPDEST PUSH1 0x0 DUP2 SWAP1 POP DUP2 PUSH1 0x0 MSTORE PUSH1 0x20 PUSH1 0x0 KECCAK256 SWAP1 POP SWAP2 SWAP1 POP JUMP JUMPDEST PUSH1 0x0 PUSH1 0x20 PUSH1 0x1F DUP4 ADD DIV SWAP1 POP SWAP2 SWAP1 POP JUMP JUMPDEST PUSH1 0x0 DUP3 DUP3 SHL SWAP1 POP SWAP3 SWAP2 POP POP JUMP JUMPDEST PUSH1 0x0 PUSH1 0x8 DUP4 MUL PUSH2 0xC39 PUSH32 0xFFFFFFFFFFFFFFFFFFFFFFFFFFFFFFFFFFFFFFFFFFFFFFFFFFFFFFFFFFFFFFFF DUP3 PUSH2 0xBFC JUMP JUMPDEST PUSH2 0xC43 DUP7 DUP4 PUSH2 0xBFC JUMP JUMPDEST SWAP6 POP DUP1 NOT DUP5 AND SWAP4 POP DUP1 DUP7 AND DUP5 OR SWAP3 POP POP POP SWAP4 SWAP3 POP POP POP JUMP JUMPDEST PUSH1 0x0 DUP2 SWAP1 POP SWAP2 SWAP1 POP JUMP JUMPDEST PUSH1 0x0 PUSH2 0xC80 PUSH2 0xC7B PUSH2 0xC76 DUP5 PUSH2 0x673 JUMP JUMPDEST PUSH2 0xC5B JUMP JUMPDEST PUSH2 0x673 JUMP JUMPDEST SWAP1 POP SWAP2 SWAP1 POP JUMP JUMPDEST PUSH1 0x0 DUP2 SWAP1 POP SWAP2 SWAP1 POP JUMP JUMPDEST PUSH2 0xC9A DUP4 PUSH2 0xC65 JUMP JUMPDEST PUSH2 0xCAE PUSH2 0xCA6 DUP3 PUSH2 0xC87 JUMP JUMPDEST DUP5 DUP5 SLOAD PUSH2 0xC09 JUMP JUMPDEST DUP3 SSTORE POP POP POP POP JUMP JUMPDEST PUSH1 0x0 SWAP1 JUMP JUMPDEST PUSH2 0xCC3 PUSH2 0xCB6 JUMP JUMPDEST PUSH2 0xCCE DUP2 DUP5 DUP5 PUSH2 0xC91 JUMP JUMPDEST POP POP POP JUMP JUMPDEST JUMPDEST DUP2 DUP2 LT ISZERO PUSH2 0xCF2 JUMPI PUSH2 0xCE7 PUSH1 0x0 DUP3 PUSH2 0xCBB JUMP JUMPDEST PUSH1 0x1 DUP2 ADD SWAP1 POP PUSH2 0xCD4 JUMP JUMPDEST POP POP JUMP JUMPDEST PUSH1 0x1F DUP3 GT ISZERO PUSH2 0xD37 JUMPI PUSH2 0xD08 DUP2 PUSH2 0xBD7 JUMP JUMPDEST PUSH2 0xD11 DUP5 PUSH2 0xBEC JUMP JUMPDEST DUP2 ADD PUSH1 0x20 DUP6 LT ISZERO PUSH2 0xD20 JUMPI DUP2 SWAP1 POP JUMPDEST PUSH2 0xD34 PUSH2 0xD2C DUP6 PUSH2 0xBEC JUMP JUMPDEST DUP4 ADD DUP3 PUSH2 0xCD3 JUMP JUMPDEST POP POP JUMPDEST POP POP POP JUMP JUMPDEST PUSH1 0x0 DUP3 DUP3 SHR SWAP1 POP SWAP3 SWAP2 POP POP JUMP JUMPDEST PUSH1 0x0 PUSH2 0xD5A PUSH1 0x0 NOT DUP5 PUSH1 0x8 MUL PUSH2 0xD3C JUMP JUMPDEST NOT DUP1 DUP4 AND SWAP2 POP POP SWAP3 SWAP2 POP POP JUMP JUMPDEST PUSH1 0x0 PUSH2 0xD73 DUP4 DUP4 PUSH2 0xD49 JUMP JUMPDEST SWAP2 POP DUP3 PUSH1 0x2 MUL DUP3 OR SWAP1 POP SWAP3 SWAP2 POP POP JUMP JUMPDEST PUSH2 0xD8C DUP3 PUSH2 0x6D6 JUMP JUMPDEST PUSH8 0xFFFFFFFFFFFFFFFF DUP2 GT ISZERO PUSH2 0xDA5 JUMPI PUSH2 0xDA4 PUSH2 0x82F JUMP JUMPDEST JUMPDEST PUSH2 0xDAF DUP3 SLOAD PUSH2 0xA3C JUMP JUMPDEST PUSH2 0xDBA DUP3 DUP3 DUP6 PUSH2 0xCF6 JUMP JUMPDEST PUSH1 0x0 PUSH1 0x20 SWAP1 POP PUSH1 0x1F DUP4 GT PUSH1 0x1 DUP2 EQ PUSH2 0xDED JUMPI PUSH1 0x0 DUP5 ISZERO PUSH2 0xDDB JUMPI DUP3 DUP8 ADD MLOAD SWAP1 POP JUMPDEST PUSH2 0xDE5 DUP6 DUP3 PUSH2 0xD67 JUMP JUMPDEST DUP7 SSTORE POP PUSH2 0xE4D JUMP JUMPDEST PUSH1 0x1F NOT DUP5 AND PUSH2 0xDFB DUP7 PUSH2 0xBD7 JUMP JUMPDEST PUSH1 0x0 JUMPDEST DUP3 DUP2 LT ISZERO PUSH2 0xE23 JUMPI DUP5 DUP10 ADD MLOAD DUP3 SSTORE PUSH1 0x1 DUP3 ADD SWAP2 POP PUSH1 0x20 DUP6 ADD SWAP5 POP PUSH1 0x20 DUP2 ADD SWAP1 POP PUSH2 0xDFE JUMP JUMPDEST DUP7 DUP4 LT ISZERO PUSH2 0xE40 JUMPI DUP5 DUP10 ADD MLOAD PUSH2 0xE3C PUSH1 0x1F DUP10 AND DUP3 PUSH2 0xD49 JUMP JUMPDEST DUP4 SSTORE POP JUMPDEST PUSH1 0x1 PUSH1 0x2 DUP9 MUL ADD DUP9 SSTORE POP POP POP JUMPDEST POP POP POP POP POP POP JUMP JUMPDEST PUSH32 0x4E487B7100000000000000000000000000000000000000000000000000000000 PUSH1 0x0 MSTORE PUSH1 0x11 PUSH1 0x4 MSTORE PUSH1 0x24 PUSH1 0x0 REVERT JUMPDEST PUSH1 0x0 PUSH2 0xE8F DUP3 PUSH2 0x673 JUMP JUMPDEST SWAP2 POP PUSH2 0xE9A DUP4 PUSH2 0x673 JUMP JUMPDEST SWAP3 POP DUP3 DUP3 ADD SWAP1 POP DUP1 DUP3 GT ISZERO PUSH2 0xEB2 JUMPI PUSH2 0xEB1 PUSH2 0xE55 JUMP JUMPDEST JUMPDEST SWAP3 SWAP2 POP POP JUMP INVALID LOG2 PUSH5 0x6970667358 0x22 SLT KECCAK256 CALLDATASIZE DUP5 GASLIMIT PUSH6 0x5C96A86ABF34 0x5E 0xEA 0xAB 0xE BALANCE 0xC7 0xC9 SELFDESTRUCT DUP10 PUSH7 0x5F5BC520F55E7 TIMESTAMP 0xB6 0x4C 0xF8 DUP11 PUSH5 0x736F6C6343 STOP ADDMOD SLT STOP CALLER "
				},
				"gasEstimates": {
					"creation": {
						"codeDepositCost": "764400",
						"executionCost": "799",
						"totalCost": "765199"
					},
					"external": {
						"conditionNotMet(uint256)": "infinite",
						"contribute(uint256)": "24877",
						"fundingComplete(uint256)": "infinite",
						"setProjectDetails(uint256,string,string,uint256,uint256)": "infinite",
						"userProjects(uint256)": "infinite"
					}
				},
				"methodIdentifiers": {
					"conditionNotMet(uint256)": "9ea5cb11",
					"contribute(uint256)": "c1cbbca7",
					"fundingComplete(uint256)": "38e22afc",
					"setProjectDetails(uint256,string,string,uint256,uint256)": "ec939ae4",
					"userProjects(uint256)": "33b8c62a"
				}
			},
			"storageLayout": {
				"storage": [
					{
						"astId": 16,
						"contract": "Practice tokens/Assignment7.sol:CrowdFunding",
						"label": "id",
						"offset": 0,
						"slot": "0",
						"type": "t_uint256"
					},
					{
						"astId": 20,
						"contract": "Practice tokens/Assignment7.sol:CrowdFunding",
						"label": "project",
						"offset": 0,
						"slot": "1",
						"type": "t_array(t_struct(projectDetails)14_storage)dyn_storage"
					},
					{
						"astId": 25,
						"contract": "Practice tokens/Assignment7.sol:CrowdFunding",
						"label": "userProjects",
						"offset": 0,
						"slot": "2",
						"type": "t_mapping(t_uint256,t_struct(projectDetails)14_storage)"
					}
				],
				"types": {
					"t_address": {
						"encoding": "inplace",
						"label": "address",
						"numberOfBytes": "20"
					},
					"t_array(t_struct(projectDetails)14_storage)dyn_storage": {
						"base": "t_struct(projectDetails)14_storage",
						"encoding": "dynamic_array",
						"label": "struct CrowdFunding.projectDetails[]",
						"numberOfBytes": "32"
					},
					"t_mapping(t_uint256,t_struct(projectDetails)14_storage)": {
						"encoding": "mapping",
						"key": "t_uint256",
						"label": "mapping(uint256 => struct CrowdFunding.projectDetails)",
						"numberOfBytes": "32",
						"value": "t_struct(projectDetails)14_storage"
					},
					"t_string_storage": {
						"encoding": "bytes",
						"label": "string",
						"numberOfBytes": "32"
					},
					"t_struct(projectDetails)14_storage": {
						"encoding": "inplace",
						"label": "struct CrowdFunding.projectDetails",
						"members": [
							{
								"astId": 3,
								"contract": "Practice tokens/Assignment7.sol:CrowdFunding",
								"label": "name",
								"offset": 0,
								"slot": "0",
								"type": "t_string_storage"
							},
							{
								"astId": 5,
								"contract": "Practice tokens/Assignment7.sol:CrowdFunding",
								"label": "description",
								"offset": 0,
								"slot": "1",
								"type": "t_string_storage"
							},
							{
								"astId": 7,
								"contract": "Practice tokens/Assignment7.sol:CrowdFunding",
								"label": "funding_goal",
								"offset": 0,
								"slot": "2",
								"type": "t_uint256"
							},
							{
								"astId": 9,
								"contract": "Practice tokens/Assignment7.sol:CrowdFunding",
								"label": "deadline",
								"offset": 0,
								"slot": "3",
								"type": "t_uint256"
							},
							{
								"astId": 11,
								"contract": "Practice tokens/Assignment7.sol:CrowdFunding",
								"label": "funding",
								"offset": 0,
								"slot": "4",
								"type": "t_uint256"
							},
							{
								"astId": 13,
								"contract": "Practice tokens/Assignment7.sol:CrowdFunding",
								"label": "_owner",
								"offset": 0,
								"slot": "5",
								"type": "t_address"
							}
						],
						"numberOfBytes": "192"
					},
					"t_uint256": {
						"encoding": "inplace",
						"label": "uint256",
						"numberOfBytes": "32"
					}
				}
			},
			"userdoc": {
				"kind": "user",
				"methods": {},
				"version": 1
			}
		}
	}
}