{
	"Practice tokens/Assignment7.sol": {
		"CrowdFunding": {
			"abi": [
				{
					"inputs": [
						{
							"internalType": "uint256",
							"name": "_id",
							"type": "uint256"
						}
					],
					"name": "conditionNotMet",
					"outputs": [],
					"stateMutability": "nonpayable",
					"type": "function"
				},
				{
					"inputs": [
						{
							"internalType": "uint256",
							"name": "_id",
							"type": "uint256"
						}
					],
					"name": "contribute",
					"outputs": [],
					"stateMutability": "payable",
					"type": "function"
				},
				{
					"inputs": [
						{
							"internalType": "uint256",
							"name": "_id",
							"type": "uint256"
						}
					],
					"name": "fundingComplete",
					"outputs": [],
					"stateMutability": "payable",
					"type": "function"
				},
				{
					"inputs": [
						{
							"internalType": "uint256",
							"name": "_id",
							"type": "uint256"
						}
					],
					"name": "refundCancel",
					"outputs": [],
					"stateMutability": "payable",
					"type": "function"
				},
				{
					"inputs": [
						{
							"internalType": "uint256",
							"name": "_id",
							"type": "uint256"
						},
						{
							"internalType": "string",
							"name": "_name",
							"type": "string"
						},
						{
							"internalType": "string",
							"name": "_description",
							"type": "string"
						},
						{
							"internalType": "uint256",
							"name": "_funding_goal",
							"type": "uint256"
						},
						{
							"internalType": "uint256",
							"name": "_deadline",
							"type": "uint256"
						}
					],
					"name": "setProjectDetails",
					"outputs": [],
					"stateMutability": "nonpayable",
					"type": "function"
				},
				{
					"inputs": [
						{
							"internalType": "uint256",
							"name": "",
							"type": "uint256"
						}
					],
					"name": "userProjects",
					"outputs": [
						{
							"internalType": "string",
							"name": "name",
							"type": "string"
						},
						{
							"internalType": "string",
							"name": "description",
							"type": "string"
						},
						{
							"internalType": "uint256",
							"name": "funding_goal",
							"type": "uint256"
						},
						{
							"internalType": "uint256",
							"name": "deadline",
							"type": "uint256"
						},
						{
							"internalType": "uint256",
							"name": "recievedAmount",
							"type": "uint256"
						},
						{
							"internalType": "address",
							"name": "_owner",
							"type": "address"
						}
					],
					"stateMutability": "view",
					"type": "function"
				}
			],
			"devdoc": {
				"kind": "dev",
				"methods": {},
				"version": 1
			},
			"evm": {
				"assembly": "    /* \"Practice tokens/Assignment7.sol\":57:2594  contract CrowdFunding {... */\n  mstore(0x40, 0x80)\n  callvalue\n  dup1\n  iszero\n  tag_1\n  jumpi\n  0x00\n  dup1\n  revert\ntag_1:\n  pop\n  dataSize(sub_0)\n  dup1\n  dataOffset(sub_0)\n  0x00\n  codecopy\n  0x00\n  return\nstop\n\nsub_0: assembly {\n        /* \"Practice tokens/Assignment7.sol\":57:2594  contract CrowdFunding {... */\n      mstore(0x40, 0x80)\n      jumpi(tag_1, lt(calldatasize, 0x04))\n      shr(0xe0, calldataload(0x00))\n      dup1\n      0x33b8c62a\n      eq\n      tag_2\n      jumpi\n      dup1\n      0x38e22afc\n      eq\n      tag_3\n      jumpi\n      dup1\n      0x9ea5cb11\n      eq\n      tag_4\n      jumpi\n      dup1\n      0xc1cbbca7\n      eq\n      tag_5\n      jumpi\n      dup1\n      0xd6734822\n      eq\n      tag_6\n      jumpi\n      dup1\n      0xec939ae4\n      eq\n      tag_7\n      jumpi\n    tag_1:\n      0x00\n      dup1\n      revert\n        /* \"Practice tokens/Assignment7.sol\":431:485  mapping(uint256 => projectDetails) public userProjects */\n    tag_2:\n      callvalue\n      dup1\n      iszero\n      tag_8\n      jumpi\n      0x00\n      dup1\n      revert\n    tag_8:\n      pop\n      tag_9\n      0x04\n      dup1\n      calldatasize\n      sub\n      dup2\n      add\n      swap1\n      tag_10\n      swap2\n      swap1\n      tag_11\n      jump\t// in\n    tag_10:\n      tag_12\n      jump\t// in\n    tag_9:\n      mload(0x40)\n      tag_13\n      swap7\n      swap6\n      swap5\n      swap4\n      swap3\n      swap2\n      swap1\n      tag_14\n      jump\t// in\n    tag_13:\n      mload(0x40)\n      dup1\n      swap2\n      sub\n      swap1\n      return\n        /* \"Practice tokens/Assignment7.sol\":1928:2231  function fundingComplete(uint _id) public payable{... */\n    tag_3:\n      tag_15\n      0x04\n      dup1\n      calldatasize\n      sub\n      dup2\n      add\n      swap1\n      tag_16\n      swap2\n      swap1\n      tag_11\n      jump\t// in\n    tag_16:\n      tag_17\n      jump\t// in\n    tag_15:\n      stop\n        /* \"Practice tokens/Assignment7.sol\":1465:1922  function conditionNotMet(uint _id) public  {... */\n    tag_4:\n      callvalue\n      dup1\n      iszero\n      tag_18\n      jumpi\n      0x00\n      dup1\n      revert\n    tag_18:\n      pop\n      tag_19\n      0x04\n      dup1\n      calldatasize\n      sub\n      dup2\n      add\n      swap1\n      tag_20\n      swap2\n      swap1\n      tag_11\n      jump\t// in\n    tag_20:\n      tag_21\n      jump\t// in\n    tag_19:\n      stop\n        /* \"Practice tokens/Assignment7.sol\":956:1459  function contribute(uint _id) public payable {... */\n    tag_5:\n      tag_22\n      0x04\n      dup1\n      calldatasize\n      sub\n      dup2\n      add\n      swap1\n      tag_23\n      swap2\n      swap1\n      tag_11\n      jump\t// in\n    tag_23:\n      tag_24\n      jump\t// in\n    tag_22:\n      stop\n        /* \"Practice tokens/Assignment7.sol\":2237:2592  function refundCancel(uint _id) public  payable {... */\n    tag_6:\n      tag_25\n      0x04\n      dup1\n      calldatasize\n      sub\n      dup2\n      add\n      swap1\n      tag_26\n      swap2\n      swap1\n      tag_11\n      jump\t// in\n    tag_26:\n      tag_27\n      jump\t// in\n    tag_25:\n      stop\n        /* \"Practice tokens/Assignment7.sol\":497:950  function setProjectDetails( uint256 _id, string memory _name,string memory _description,uint256 _funding_goal, uint256 _deadline ) public {... */\n    tag_7:\n      callvalue\n      dup1\n      iszero\n      tag_28\n      jumpi\n      0x00\n      dup1\n      revert\n    tag_28:\n      pop\n      tag_29\n      0x04\n      dup1\n      calldatasize\n      sub\n      dup2\n      add\n      swap1\n      tag_30\n      swap2\n      swap1\n      tag_31\n      jump\t// in\n    tag_30:\n      tag_32\n      jump\t// in\n    tag_29:\n      stop\n        /* \"Practice tokens/Assignment7.sol\":431:485  mapping(uint256 => projectDetails) public userProjects */\n    tag_12:\n      mstore(0x20, 0x01)\n      dup1\n      0x00\n      mstore\n      keccak256(0x00, 0x40)\n      0x00\n      swap2\n      pop\n      swap1\n      pop\n      dup1\n      0x00\n      add\n      dup1\n      sload\n      tag_33\n      swap1\n      tag_34\n      jump\t// in\n    tag_33:\n      dup1\n      0x1f\n      add\n      0x20\n      dup1\n      swap2\n      div\n      mul\n      0x20\n      add\n      mload(0x40)\n      swap1\n      dup2\n      add\n      0x40\n      mstore\n      dup1\n      swap3\n      swap2\n      swap1\n      dup2\n      dup2\n      mstore\n      0x20\n      add\n      dup3\n      dup1\n      sload\n      tag_35\n      swap1\n      tag_34\n      jump\t// in\n    tag_35:\n      dup1\n      iszero\n      tag_36\n      jumpi\n      dup1\n      0x1f\n      lt\n      tag_37\n      jumpi\n      0x0100\n      dup1\n      dup4\n      sload\n      div\n      mul\n      dup4\n      mstore\n      swap2\n      0x20\n      add\n      swap2\n      jump(tag_36)\n    tag_37:\n      dup3\n      add\n      swap2\n      swap1\n      0x00\n      mstore\n      keccak256(0x00, 0x20)\n      swap1\n    tag_38:\n      dup2\n      sload\n      dup2\n      mstore\n      swap1\n      0x01\n      add\n      swap1\n      0x20\n      add\n      dup1\n      dup4\n      gt\n      tag_38\n      jumpi\n      dup3\n      swap1\n      sub\n      0x1f\n      and\n      dup3\n      add\n      swap2\n    tag_36:\n      pop\n      pop\n      pop\n      pop\n      pop\n      swap1\n      dup1\n      0x01\n      add\n      dup1\n      sload\n      tag_39\n      swap1\n      tag_34\n      jump\t// in\n    tag_39:\n      dup1\n      0x1f\n      add\n      0x20\n      dup1\n      swap2\n      div\n      mul\n      0x20\n      add\n      mload(0x40)\n      swap1\n      dup2\n      add\n      0x40\n      mstore\n      dup1\n      swap3\n      swap2\n      swap1\n      dup2\n      dup2\n      mstore\n      0x20\n      add\n      dup3\n      dup1\n      sload\n      tag_40\n      swap1\n      tag_34\n      jump\t// in\n    tag_40:\n      dup1\n      iszero\n      tag_41\n      jumpi\n      dup1\n      0x1f\n      lt\n      tag_42\n      jumpi\n      0x0100\n      dup1\n      dup4\n      sload\n      div\n      mul\n      dup4\n      mstore\n      swap2\n      0x20\n      add\n      swap2\n      jump(tag_41)\n    tag_42:\n      dup3\n      add\n      swap2\n      swap1\n      0x00\n      mstore\n      keccak256(0x00, 0x20)\n      swap1\n    tag_43:\n      dup2\n      sload\n      dup2\n      mstore\n      swap1\n      0x01\n      add\n      swap1\n      0x20\n      add\n      dup1\n      dup4\n      gt\n      tag_43\n      jumpi\n      dup3\n      swap1\n      sub\n      0x1f\n      and\n      dup3\n      add\n      swap2\n    tag_41:\n      pop\n      pop\n      pop\n      pop\n      pop\n      swap1\n      dup1\n      0x02\n      add\n      sload\n      swap1\n      dup1\n      0x03\n      add\n      sload\n      swap1\n      dup1\n      0x04\n      add\n      sload\n      swap1\n      dup1\n      0x05\n      add\n      0x00\n      swap1\n      sload\n      swap1\n      0x0100\n      exp\n      swap1\n      div\n      0xffffffffffffffffffffffffffffffffffffffff\n      and\n      swap1\n      pop\n      dup7\n      jump\t// out\n        /* \"Practice tokens/Assignment7.sol\":1928:2231  function fundingComplete(uint _id) public payable{... */\n    tag_17:\n        /* \"Practice tokens/Assignment7.sol\":2009:2021  userProjects */\n      0x01\n        /* \"Practice tokens/Assignment7.sol\":2009:2026  userProjects[_id] */\n      0x00\n        /* \"Practice tokens/Assignment7.sol\":2022:2025  _id */\n      dup3\n        /* \"Practice tokens/Assignment7.sol\":2009:2026  userProjects[_id] */\n      dup2\n      mstore\n      0x20\n      add\n      swap1\n      dup2\n      mstore\n      0x20\n      add\n      0x00\n      keccak256\n        /* \"Practice tokens/Assignment7.sol\":2009:2033  userProjects[_id]._owner */\n      0x05\n      add\n      0x00\n      swap1\n      sload\n      swap1\n      0x0100\n      exp\n      swap1\n      div\n      0xffffffffffffffffffffffffffffffffffffffff\n      and\n        /* \"Practice tokens/Assignment7.sol\":1995:2033  msg.sender == userProjects[_id]._owner */\n      0xffffffffffffffffffffffffffffffffffffffff\n      and\n        /* \"Practice tokens/Assignment7.sol\":1995:2005  msg.sender */\n      caller\n        /* \"Practice tokens/Assignment7.sol\":1995:2033  msg.sender == userProjects[_id]._owner */\n      0xffffffffffffffffffffffffffffffffffffffff\n      and\n      eq\n        /* \"Practice tokens/Assignment7.sol\":1987:2062  require(msg.sender == userProjects[_id]._owner,\" Only Owner can widthdraw\") */\n      tag_45\n      jumpi\n      mload(0x40)\n      0x08c379a000000000000000000000000000000000000000000000000000000000\n      dup2\n      mstore\n      0x04\n      add\n      tag_46\n      swap1\n      tag_47\n      jump\t// in\n    tag_46:\n      mload(0x40)\n      dup1\n      swap2\n      sub\n      swap1\n      revert\n    tag_45:\n        /* \"Practice tokens/Assignment7.sol\":2076:2082  uint i */\n      0x00\n        /* \"Practice tokens/Assignment7.sol\":2072:2225  for(uint i=0; i < userProjects[_id].balance.length;i++){... */\n    tag_48:\n        /* \"Practice tokens/Assignment7.sol\":2090:2102  userProjects */\n      0x01\n        /* \"Practice tokens/Assignment7.sol\":2090:2107  userProjects[_id] */\n      0x00\n        /* \"Practice tokens/Assignment7.sol\":2103:2106  _id */\n      dup4\n        /* \"Practice tokens/Assignment7.sol\":2090:2107  userProjects[_id] */\n      dup2\n      mstore\n      0x20\n      add\n      swap1\n      dup2\n      mstore\n      0x20\n      add\n      0x00\n      keccak256\n        /* \"Practice tokens/Assignment7.sol\":2090:2115  userProjects[_id].balance */\n      0x06\n      add\n        /* \"Practice tokens/Assignment7.sol\":2090:2122  userProjects[_id].balance.length */\n      dup1\n      sload\n      swap1\n      pop\n        /* \"Practice tokens/Assignment7.sol\":2086:2087  i */\n      dup2\n        /* \"Practice tokens/Assignment7.sol\":2086:2122  i < userProjects[_id].balance.length */\n      lt\n        /* \"Practice tokens/Assignment7.sol\":2072:2225  for(uint i=0; i < userProjects[_id].balance.length;i++){... */\n      iszero\n      tag_49\n      jumpi\n        /* \"Practice tokens/Assignment7.sol\":2145:2157  userProjects */\n      0x01\n        /* \"Practice tokens/Assignment7.sol\":2145:2162  userProjects[_id] */\n      0x00\n        /* \"Practice tokens/Assignment7.sol\":2158:2161  _id */\n      dup4\n        /* \"Practice tokens/Assignment7.sol\":2145:2162  userProjects[_id] */\n      dup2\n      mstore\n      0x20\n      add\n      swap1\n      dup2\n      mstore\n      0x20\n      add\n      0x00\n      keccak256\n        /* \"Practice tokens/Assignment7.sol\":2145:2169  userProjects[_id]._owner */\n      0x05\n      add\n      0x00\n      swap1\n      sload\n      swap1\n      0x0100\n      exp\n      swap1\n      div\n      0xffffffffffffffffffffffffffffffffffffffff\n      and\n        /* \"Practice tokens/Assignment7.sol\":2137:2179  payable(userProjects[_id]._owner).transfer */\n      0xffffffffffffffffffffffffffffffffffffffff\n      and\n        /* \"Practice tokens/Assignment7.sol\":2137:2218  payable(userProjects[_id]._owner).transfer(userProjects[_id].balance[i]._balance) */\n      0x08fc\n        /* \"Practice tokens/Assignment7.sol\":2180:2192  userProjects */\n      0x01\n        /* \"Practice tokens/Assignment7.sol\":2180:2197  userProjects[_id] */\n      0x00\n        /* \"Practice tokens/Assignment7.sol\":2193:2196  _id */\n      dup6\n        /* \"Practice tokens/Assignment7.sol\":2180:2197  userProjects[_id] */\n      dup2\n      mstore\n      0x20\n      add\n      swap1\n      dup2\n      mstore\n      0x20\n      add\n      0x00\n      keccak256\n        /* \"Practice tokens/Assignment7.sol\":2180:2205  userProjects[_id].balance */\n      0x06\n      add\n        /* \"Practice tokens/Assignment7.sol\":2206:2207  i */\n      dup4\n        /* \"Practice tokens/Assignment7.sol\":2180:2208  userProjects[_id].balance[i] */\n      dup2\n      sload\n      dup2\n      lt\n      tag_51\n      jumpi\n      tag_52\n      tag_53\n      jump\t// in\n    tag_52:\n    tag_51:\n      swap1\n      0x00\n      mstore\n      keccak256(0x00, 0x20)\n      swap1\n      0x02\n      mul\n      add\n        /* \"Practice tokens/Assignment7.sol\":2180:2217  userProjects[_id].balance[i]._balance */\n      0x01\n      add\n      sload\n        /* \"Practice tokens/Assignment7.sol\":2137:2218  payable(userProjects[_id]._owner).transfer(userProjects[_id].balance[i]._balance) */\n      swap1\n      dup2\n      iszero\n      mul\n      swap1\n      mload(0x40)\n      0x00\n      mload(0x40)\n      dup1\n      dup4\n      sub\n      dup2\n      dup6\n      dup9\n      dup9\n      call\n      swap4\n      pop\n      pop\n      pop\n      pop\n      iszero\n      dup1\n      iszero\n      tag_56\n      jumpi\n      returndatasize\n      0x00\n      dup1\n      returndatacopy\n      revert(0x00, returndatasize)\n    tag_56:\n      pop\n        /* \"Practice tokens/Assignment7.sol\":2123:2126  i++ */\n      dup1\n      dup1\n      tag_57\n      swap1\n      tag_58\n      jump\t// in\n    tag_57:\n      swap2\n      pop\n      pop\n        /* \"Practice tokens/Assignment7.sol\":2072:2225  for(uint i=0; i < userProjects[_id].balance.length;i++){... */\n      jump(tag_48)\n    tag_49:\n      pop\n        /* \"Practice tokens/Assignment7.sol\":1928:2231  function fundingComplete(uint _id) public payable{... */\n      pop\n      jump\t// out\n        /* \"Practice tokens/Assignment7.sol\":1465:1922  function conditionNotMet(uint _id) public  {... */\n    tag_21:\n        /* \"Practice tokens/Assignment7.sol\":1554:1564  msg.sender */\n      caller\n        /* \"Practice tokens/Assignment7.sol\":1526:1564  userProjects[_id]._owner == msg.sender */\n      0xffffffffffffffffffffffffffffffffffffffff\n      and\n        /* \"Practice tokens/Assignment7.sol\":1526:1538  userProjects */\n      0x01\n        /* \"Practice tokens/Assignment7.sol\":1526:1543  userProjects[_id] */\n      0x00\n        /* \"Practice tokens/Assignment7.sol\":1539:1542  _id */\n      dup4\n        /* \"Practice tokens/Assignment7.sol\":1526:1543  userProjects[_id] */\n      dup2\n      mstore\n      0x20\n      add\n      swap1\n      dup2\n      mstore\n      0x20\n      add\n      0x00\n      keccak256\n        /* \"Practice tokens/Assignment7.sol\":1526:1550  userProjects[_id]._owner */\n      0x05\n      add\n      0x00\n      swap1\n      sload\n      swap1\n      0x0100\n      exp\n      swap1\n      div\n      0xffffffffffffffffffffffffffffffffffffffff\n      and\n        /* \"Practice tokens/Assignment7.sol\":1526:1564  userProjects[_id]._owner == msg.sender */\n      0xffffffffffffffffffffffffffffffffffffffff\n      and\n      eq\n        /* \"Practice tokens/Assignment7.sol\":1518:1584  require(userProjects[_id]._owner == msg.sender, \"only can refund\") */\n      tag_60\n      jumpi\n      mload(0x40)\n      0x08c379a000000000000000000000000000000000000000000000000000000000\n      dup2\n      mstore\n      0x04\n      add\n      tag_61\n      swap1\n      tag_62\n      jump\t// in\n    tag_61:\n      mload(0x40)\n      dup1\n      swap2\n      sub\n      swap1\n      revert\n    tag_60:\n        /* \"Practice tokens/Assignment7.sol\":1622:1634  userProjects */\n      0x01\n        /* \"Practice tokens/Assignment7.sol\":1622:1639  userProjects[_id] */\n      0x00\n        /* \"Practice tokens/Assignment7.sol\":1635:1638  _id */\n      dup3\n        /* \"Practice tokens/Assignment7.sol\":1622:1639  userProjects[_id] */\n      dup2\n      mstore\n      0x20\n      add\n      swap1\n      dup2\n      mstore\n      0x20\n      add\n      0x00\n      keccak256\n        /* \"Practice tokens/Assignment7.sol\":1622:1648  userProjects[_id].deadline */\n      0x03\n      add\n      sload\n        /* \"Practice tokens/Assignment7.sol\":1603:1618  block.timestamp */\n      timestamp\n        /* \"Practice tokens/Assignment7.sol\":1603:1648  block.timestamp >= userProjects[_id].deadline */\n      lt\n      iszero\n        /* \"Practice tokens/Assignment7.sol\":1595:1692  require(block.timestamp >= userProjects[_id].deadline,\" Still have some time left for funding \" ) */\n      tag_63\n      jumpi\n      mload(0x40)\n      0x08c379a000000000000000000000000000000000000000000000000000000000\n      dup2\n      mstore\n      0x04\n      add\n      tag_64\n      swap1\n      tag_65\n      jump\t// in\n    tag_64:\n      mload(0x40)\n      dup1\n      swap2\n      sub\n      swap1\n      revert\n    tag_63:\n        /* \"Practice tokens/Assignment7.sol\":1706:1712  uint i */\n      0x00\n        /* \"Practice tokens/Assignment7.sol\":1702:1916  for(uint i=0; i< userProjects[_id].balance.length;i++){... */\n    tag_66:\n        /* \"Practice tokens/Assignment7.sol\":1719:1731  userProjects */\n      0x01\n        /* \"Practice tokens/Assignment7.sol\":1719:1736  userProjects[_id] */\n      0x00\n        /* \"Practice tokens/Assignment7.sol\":1732:1735  _id */\n      dup4\n        /* \"Practice tokens/Assignment7.sol\":1719:1736  userProjects[_id] */\n      dup2\n      mstore\n      0x20\n      add\n      swap1\n      dup2\n      mstore\n      0x20\n      add\n      0x00\n      keccak256\n        /* \"Practice tokens/Assignment7.sol\":1719:1744  userProjects[_id].balance */\n      0x06\n      add\n        /* \"Practice tokens/Assignment7.sol\":1719:1751  userProjects[_id].balance.length */\n      dup1\n      sload\n      swap1\n      pop\n        /* \"Practice tokens/Assignment7.sol\":1716:1717  i */\n      dup2\n        /* \"Practice tokens/Assignment7.sol\":1716:1751  i< userProjects[_id].balance.length */\n      lt\n        /* \"Practice tokens/Assignment7.sol\":1702:1916  for(uint i=0; i< userProjects[_id].balance.length;i++){... */\n      iszero\n      tag_67\n      jumpi\n        /* \"Practice tokens/Assignment7.sol\":1774:1786  userProjects */\n      0x01\n        /* \"Practice tokens/Assignment7.sol\":1774:1791  userProjects[_id] */\n      0x00\n        /* \"Practice tokens/Assignment7.sol\":1787:1790  _id */\n      dup4\n        /* \"Practice tokens/Assignment7.sol\":1774:1791  userProjects[_id] */\n      dup2\n      mstore\n      0x20\n      add\n      swap1\n      dup2\n      mstore\n      0x20\n      add\n      0x00\n      keccak256\n        /* \"Practice tokens/Assignment7.sol\":1774:1799  userProjects[_id].balance */\n      0x06\n      add\n        /* \"Practice tokens/Assignment7.sol\":1800:1801  i */\n      dup2\n        /* \"Practice tokens/Assignment7.sol\":1774:1802  userProjects[_id].balance[i] */\n      dup2\n      sload\n      dup2\n      lt\n      tag_69\n      jumpi\n      tag_70\n      tag_53\n      jump\t// in\n    tag_70:\n    tag_69:\n      swap1\n      0x00\n      mstore\n      keccak256(0x00, 0x20)\n      swap1\n      0x02\n      mul\n      add\n        /* \"Practice tokens/Assignment7.sol\":1774:1811  userProjects[_id].balance[i]._address */\n      0x00\n      add\n      0x00\n      swap1\n      sload\n      swap1\n      0x0100\n      exp\n      swap1\n      div\n      0xffffffffffffffffffffffffffffffffffffffff\n      and\n        /* \"Practice tokens/Assignment7.sol\":1766:1821  payable(userProjects[_id].balance[i]._address).transfer */\n      0xffffffffffffffffffffffffffffffffffffffff\n      and\n        /* \"Practice tokens/Assignment7.sol\":1766:1860  payable(userProjects[_id].balance[i]._address).transfer(userProjects[_id].balance[i]._balance) */\n      0x08fc\n        /* \"Practice tokens/Assignment7.sol\":1822:1834  userProjects */\n      0x01\n        /* \"Practice tokens/Assignment7.sol\":1822:1839  userProjects[_id] */\n      0x00\n        /* \"Practice tokens/Assignment7.sol\":1835:1838  _id */\n      dup6\n        /* \"Practice tokens/Assignment7.sol\":1822:1839  userProjects[_id] */\n      dup2\n      mstore\n      0x20\n      add\n      swap1\n      dup2\n      mstore\n      0x20\n      add\n      0x00\n      keccak256\n        /* \"Practice tokens/Assignment7.sol\":1822:1847  userProjects[_id].balance */\n      0x06\n      add\n        /* \"Practice tokens/Assignment7.sol\":1848:1849  i */\n      dup4\n        /* \"Practice tokens/Assignment7.sol\":1822:1850  userProjects[_id].balance[i] */\n      dup2\n      sload\n      dup2\n      lt\n      tag_72\n      jumpi\n      tag_73\n      tag_53\n      jump\t// in\n    tag_73:\n    tag_72:\n      swap1\n      0x00\n      mstore\n      keccak256(0x00, 0x20)\n      swap1\n      0x02\n      mul\n      add\n        /* \"Practice tokens/Assignment7.sol\":1822:1859  userProjects[_id].balance[i]._balance */\n      0x01\n      add\n      sload\n        /* \"Practice tokens/Assignment7.sol\":1766:1860  payable(userProjects[_id].balance[i]._address).transfer(userProjects[_id].balance[i]._balance) */\n      swap1\n      dup2\n      iszero\n      mul\n      swap1\n      mload(0x40)\n      0x00\n      mload(0x40)\n      dup1\n      dup4\n      sub\n      dup2\n      dup6\n      dup9\n      dup9\n      call\n      swap4\n      pop\n      pop\n      pop\n      pop\n      iszero\n      dup1\n      iszero\n      tag_76\n      jumpi\n      returndatasize\n      0x00\n      dup1\n      returndatacopy\n      revert(0x00, returndatasize)\n    tag_76:\n      pop\n        /* \"Practice tokens/Assignment7.sol\":1877:1889  userProjects */\n      0x01\n        /* \"Practice tokens/Assignment7.sol\":1877:1894  userProjects[_id] */\n      0x00\n        /* \"Practice tokens/Assignment7.sol\":1890:1893  _id */\n      dup4\n        /* \"Practice tokens/Assignment7.sol\":1877:1894  userProjects[_id] */\n      dup2\n      mstore\n      0x20\n      add\n      swap1\n      dup2\n      mstore\n      0x20\n      add\n      0x00\n      keccak256\n        /* \"Practice tokens/Assignment7.sol\":1877:1902  userProjects[_id].balance */\n      0x06\n      add\n        /* \"Practice tokens/Assignment7.sol\":1903:1904  i */\n      dup2\n        /* \"Practice tokens/Assignment7.sol\":1877:1905  userProjects[_id].balance[i] */\n      dup2\n      sload\n      dup2\n      lt\n      tag_77\n      jumpi\n      tag_78\n      tag_53\n      jump\t// in\n    tag_78:\n    tag_77:\n      swap1\n      0x00\n      mstore\n      keccak256(0x00, 0x20)\n      swap1\n      0x02\n      mul\n      add\n      0x00\n        /* \"Practice tokens/Assignment7.sol\":1870:1905  delete userProjects[_id].balance[i] */\n      dup1\n      dup3\n      add\n      exp(0x0100, 0x00)\n      dup2\n      sload\n      swap1\n      0xffffffffffffffffffffffffffffffffffffffff\n      mul\n      not\n      and\n      swap1\n      sstore\n      0x01\n      dup3\n      add\n      0x00\n      swap1\n      sstore\n      pop\n      pop\n        /* \"Practice tokens/Assignment7.sol\":1752:1755  i++ */\n      dup1\n      dup1\n      tag_80\n      swap1\n      tag_58\n      jump\t// in\n    tag_80:\n      swap2\n      pop\n      pop\n        /* \"Practice tokens/Assignment7.sol\":1702:1916  for(uint i=0; i< userProjects[_id].balance.length;i++){... */\n      jump(tag_66)\n    tag_67:\n      pop\n        /* \"Practice tokens/Assignment7.sol\":1465:1922  function conditionNotMet(uint _id) public  {... */\n      pop\n      jump\t// out\n        /* \"Practice tokens/Assignment7.sol\":956:1459  function contribute(uint _id) public payable {... */\n    tag_24:\n        /* \"Practice tokens/Assignment7.sol\":1033:1045  userProjects */\n      0x01\n        /* \"Practice tokens/Assignment7.sol\":1033:1050  userProjects[_id] */\n      0x00\n        /* \"Practice tokens/Assignment7.sol\":1046:1049  _id */\n      dup3\n        /* \"Practice tokens/Assignment7.sol\":1033:1050  userProjects[_id] */\n      dup2\n      mstore\n      0x20\n      add\n      swap1\n      dup2\n      mstore\n      0x20\n      add\n      0x00\n      keccak256\n        /* \"Practice tokens/Assignment7.sol\":1033:1057  userProjects[_id]._owner */\n      0x05\n      add\n      0x00\n      swap1\n      sload\n      swap1\n      0x0100\n      exp\n      swap1\n      div\n      0xffffffffffffffffffffffffffffffffffffffff\n      and\n        /* \"Practice tokens/Assignment7.sol\":1019:1057  msg.sender != userProjects[_id]._owner */\n      0xffffffffffffffffffffffffffffffffffffffff\n      and\n        /* \"Practice tokens/Assignment7.sol\":1019:1029  msg.sender */\n      caller\n        /* \"Practice tokens/Assignment7.sol\":1019:1057  msg.sender != userProjects[_id]._owner */\n      0xffffffffffffffffffffffffffffffffffffffff\n      and\n      sub\n        /* \"Practice tokens/Assignment7.sol\":1011:1084  require(msg.sender != userProjects[_id]._owner,\" Owner can't contribute\") */\n      tag_82\n      jumpi\n      mload(0x40)\n      0x08c379a000000000000000000000000000000000000000000000000000000000\n      dup2\n      mstore\n      0x04\n      add\n      tag_83\n      swap1\n      tag_84\n      jump\t// in\n    tag_83:\n      mload(0x40)\n      dup1\n      swap2\n      sub\n      swap1\n      revert\n    tag_82:\n        /* \"Practice tokens/Assignment7.sol\":1114:1126  userProjects */\n      0x01\n        /* \"Practice tokens/Assignment7.sol\":1114:1131  userProjects[_id] */\n      0x00\n        /* \"Practice tokens/Assignment7.sol\":1127:1130  _id */\n      dup3\n        /* \"Practice tokens/Assignment7.sol\":1114:1131  userProjects[_id] */\n      dup2\n      mstore\n      0x20\n      add\n      swap1\n      dup2\n      mstore\n      0x20\n      add\n      0x00\n      keccak256\n        /* \"Practice tokens/Assignment7.sol\":1114:1144  userProjects[_id].funding_goal */\n      0x02\n      add\n      sload\n        /* \"Practice tokens/Assignment7.sol\":1102:1111  msg.value */\n      callvalue\n        /* \"Practice tokens/Assignment7.sol\":1102:1144  msg.value < userProjects[_id].funding_goal */\n      lt\n        /* \"Practice tokens/Assignment7.sol\":1094:1190  require(msg.value < userProjects[_id].funding_goal,\"Amount can not be greater than goal amount\") */\n      tag_85\n      jumpi\n      mload(0x40)\n      0x08c379a000000000000000000000000000000000000000000000000000000000\n      dup2\n      mstore\n      0x04\n      add\n      tag_86\n      swap1\n      tag_87\n      jump\t// in\n    tag_86:\n      mload(0x40)\n      dup1\n      swap2\n      sub\n      swap1\n      revert\n    tag_85:\n        /* \"Practice tokens/Assignment7.sol\":1256:1268  userProjects */\n      0x01\n        /* \"Practice tokens/Assignment7.sol\":1256:1273  userProjects[_id] */\n      0x00\n        /* \"Practice tokens/Assignment7.sol\":1269:1272  _id */\n      dup3\n        /* \"Practice tokens/Assignment7.sol\":1256:1273  userProjects[_id] */\n      dup2\n      mstore\n      0x20\n      add\n      swap1\n      dup2\n      mstore\n      0x20\n      add\n      0x00\n      keccak256\n        /* \"Practice tokens/Assignment7.sol\":1256:1286  userProjects[_id].funding_goal */\n      0x02\n      add\n      sload\n        /* \"Practice tokens/Assignment7.sol\":1244:1253  msg.value */\n      callvalue\n        /* \"Practice tokens/Assignment7.sol\":1209:1221  userProjects */\n      0x01\n        /* \"Practice tokens/Assignment7.sol\":1209:1226  userProjects[_id] */\n      0x00\n        /* \"Practice tokens/Assignment7.sol\":1222:1225  _id */\n      dup5\n        /* \"Practice tokens/Assignment7.sol\":1209:1226  userProjects[_id] */\n      dup2\n      mstore\n      0x20\n      add\n      swap1\n      dup2\n      mstore\n      0x20\n      add\n      0x00\n      keccak256\n        /* \"Practice tokens/Assignment7.sol\":1209:1241  userProjects[_id].recievedAmount */\n      0x04\n      add\n      sload\n        /* \"Practice tokens/Assignment7.sol\":1209:1253  userProjects[_id].recievedAmount + msg.value */\n      tag_88\n      swap2\n      swap1\n      tag_89\n      jump\t// in\n    tag_88:\n        /* \"Practice tokens/Assignment7.sol\":1209:1286  userProjects[_id].recievedAmount + msg.value < userProjects[_id].funding_goal */\n      lt\n        /* \"Practice tokens/Assignment7.sol\":1200:1287  require( userProjects[_id].recievedAmount + msg.value < userProjects[_id].funding_goal) */\n      tag_90\n      jumpi\n      0x00\n      dup1\n      revert\n    tag_90:\n        /* \"Practice tokens/Assignment7.sol\":1297:1309  userProjects */\n      0x01\n        /* \"Practice tokens/Assignment7.sol\":1297:1314  userProjects[_id] */\n      0x00\n        /* \"Practice tokens/Assignment7.sol\":1310:1313  _id */\n      dup3\n        /* \"Practice tokens/Assignment7.sol\":1297:1314  userProjects[_id] */\n      dup2\n      mstore\n      0x20\n      add\n      swap1\n      dup2\n      mstore\n      0x20\n      add\n      0x00\n      keccak256\n        /* \"Practice tokens/Assignment7.sol\":1297:1322  userProjects[_id].balance */\n      0x06\n      add\n        /* \"Practice tokens/Assignment7.sol\":1328:1361  userbalance(msg.sender,msg.value) */\n      mload(0x40)\n      dup1\n      0x40\n      add\n      0x40\n      mstore\n      dup1\n        /* \"Practice tokens/Assignment7.sol\":1340:1350  msg.sender */\n      caller\n        /* \"Practice tokens/Assignment7.sol\":1328:1361  userbalance(msg.sender,msg.value) */\n      0xffffffffffffffffffffffffffffffffffffffff\n      and\n      dup2\n      mstore\n      0x20\n      add\n        /* \"Practice tokens/Assignment7.sol\":1351:1360  msg.value */\n      callvalue\n        /* \"Practice tokens/Assignment7.sol\":1328:1361  userbalance(msg.sender,msg.value) */\n      dup2\n      mstore\n      pop\n        /* \"Practice tokens/Assignment7.sol\":1297:1362  userProjects[_id].balance.push(userbalance(msg.sender,msg.value)) */\n      swap1\n      dup1\n      0x01\n      dup2\n      sload\n      add\n      dup1\n      dup3\n      sstore\n      dup1\n      swap2\n      pop\n      pop\n      0x01\n      swap1\n      sub\n      swap1\n      0x00\n      mstore\n      keccak256(0x00, 0x20)\n      swap1\n      0x02\n      mul\n      add\n      0x00\n      swap1\n      swap2\n      swap1\n      swap2\n      swap1\n      swap2\n      pop\n      0x00\n      dup3\n      add\n      mload\n      dup2\n      0x00\n      add\n      exp(0x0100, 0x00)\n      dup2\n      sload\n      dup2\n      0xffffffffffffffffffffffffffffffffffffffff\n      mul\n      not\n      and\n      swap1\n      dup4\n      0xffffffffffffffffffffffffffffffffffffffff\n      and\n      mul\n      or\n      swap1\n      sstore\n      pop\n      0x20\n      dup3\n      add\n      mload\n      dup2\n      0x01\n      add\n      sstore\n      pop\n      pop\n        /* \"Practice tokens/Assignment7.sol\":1442:1451  msg.value */\n      callvalue\n        /* \"Practice tokens/Assignment7.sol\":1407:1419  userProjects */\n      0x01\n        /* \"Practice tokens/Assignment7.sol\":1407:1424  userProjects[_id] */\n      0x00\n        /* \"Practice tokens/Assignment7.sol\":1420:1423  _id */\n      dup4\n        /* \"Practice tokens/Assignment7.sol\":1407:1424  userProjects[_id] */\n      dup2\n      mstore\n      0x20\n      add\n      swap1\n      dup2\n      mstore\n      0x20\n      add\n      0x00\n      keccak256\n        /* \"Practice tokens/Assignment7.sol\":1407:1439  userProjects[_id].recievedAmount */\n      0x04\n      add\n      sload\n        /* \"Practice tokens/Assignment7.sol\":1407:1451  userProjects[_id].recievedAmount + msg.value */\n      tag_92\n      swap2\n      swap1\n      tag_89\n      jump\t// in\n    tag_92:\n        /* \"Practice tokens/Assignment7.sol\":1372:1384  userProjects */\n      0x01\n        /* \"Practice tokens/Assignment7.sol\":1372:1389  userProjects[_id] */\n      0x00\n        /* \"Practice tokens/Assignment7.sol\":1385:1388  _id */\n      dup4\n        /* \"Practice tokens/Assignment7.sol\":1372:1389  userProjects[_id] */\n      dup2\n      mstore\n      0x20\n      add\n      swap1\n      dup2\n      mstore\n      0x20\n      add\n      0x00\n      keccak256\n        /* \"Practice tokens/Assignment7.sol\":1372:1404  userProjects[_id].recievedAmount */\n      0x04\n      add\n        /* \"Practice tokens/Assignment7.sol\":1372:1451  userProjects[_id].recievedAmount = userProjects[_id].recievedAmount + msg.value */\n      dup2\n      swap1\n      sstore\n      pop\n        /* \"Practice tokens/Assignment7.sol\":956:1459  function contribute(uint _id) public payable {... */\n      pop\n      jump\t// out\n        /* \"Practice tokens/Assignment7.sol\":2237:2592  function refundCancel(uint _id) public  payable {... */\n    tag_27:\n        /* \"Practice tokens/Assignment7.sol\":2332:2342  msg.sender */\n      caller\n        /* \"Practice tokens/Assignment7.sol\":2304:2342  userProjects[_id]._owner == msg.sender */\n      0xffffffffffffffffffffffffffffffffffffffff\n      and\n        /* \"Practice tokens/Assignment7.sol\":2304:2316  userProjects */\n      0x01\n        /* \"Practice tokens/Assignment7.sol\":2304:2321  userProjects[_id] */\n      0x00\n        /* \"Practice tokens/Assignment7.sol\":2317:2320  _id */\n      dup4\n        /* \"Practice tokens/Assignment7.sol\":2304:2321  userProjects[_id] */\n      dup2\n      mstore\n      0x20\n      add\n      swap1\n      dup2\n      mstore\n      0x20\n      add\n      0x00\n      keccak256\n        /* \"Practice tokens/Assignment7.sol\":2304:2328  userProjects[_id]._owner */\n      0x05\n      add\n      0x00\n      swap1\n      sload\n      swap1\n      0x0100\n      exp\n      swap1\n      div\n      0xffffffffffffffffffffffffffffffffffffffff\n      and\n        /* \"Practice tokens/Assignment7.sol\":2304:2342  userProjects[_id]._owner == msg.sender */\n      0xffffffffffffffffffffffffffffffffffffffff\n      and\n      eq\n        /* \"Practice tokens/Assignment7.sol\":2296:2362  require(userProjects[_id]._owner == msg.sender, \"only can refund\") */\n      tag_94\n      jumpi\n      mload(0x40)\n      0x08c379a000000000000000000000000000000000000000000000000000000000\n      dup2\n      mstore\n      0x04\n      add\n      tag_95\n      swap1\n      tag_62\n      jump\t// in\n    tag_95:\n      mload(0x40)\n      dup1\n      swap2\n      sub\n      swap1\n      revert\n    tag_94:\n        /* \"Practice tokens/Assignment7.sol\":2376:2382  uint i */\n      0x00\n        /* \"Practice tokens/Assignment7.sol\":2372:2586  for(uint i=0; i< userProjects[_id].balance.length;i++){... */\n    tag_96:\n        /* \"Practice tokens/Assignment7.sol\":2389:2401  userProjects */\n      0x01\n        /* \"Practice tokens/Assignment7.sol\":2389:2406  userProjects[_id] */\n      0x00\n        /* \"Practice tokens/Assignment7.sol\":2402:2405  _id */\n      dup4\n        /* \"Practice tokens/Assignment7.sol\":2389:2406  userProjects[_id] */\n      dup2\n      mstore\n      0x20\n      add\n      swap1\n      dup2\n      mstore\n      0x20\n      add\n      0x00\n      keccak256\n        /* \"Practice tokens/Assignment7.sol\":2389:2414  userProjects[_id].balance */\n      0x06\n      add\n        /* \"Practice tokens/Assignment7.sol\":2389:2421  userProjects[_id].balance.length */\n      dup1\n      sload\n      swap1\n      pop\n        /* \"Practice tokens/Assignment7.sol\":2386:2387  i */\n      dup2\n        /* \"Practice tokens/Assignment7.sol\":2386:2421  i< userProjects[_id].balance.length */\n      lt\n        /* \"Practice tokens/Assignment7.sol\":2372:2586  for(uint i=0; i< userProjects[_id].balance.length;i++){... */\n      iszero\n      tag_97\n      jumpi\n        /* \"Practice tokens/Assignment7.sol\":2444:2456  userProjects */\n      0x01\n        /* \"Practice tokens/Assignment7.sol\":2444:2461  userProjects[_id] */\n      0x00\n        /* \"Practice tokens/Assignment7.sol\":2457:2460  _id */\n      dup4\n        /* \"Practice tokens/Assignment7.sol\":2444:2461  userProjects[_id] */\n      dup2\n      mstore\n      0x20\n      add\n      swap1\n      dup2\n      mstore\n      0x20\n      add\n      0x00\n      keccak256\n        /* \"Practice tokens/Assignment7.sol\":2444:2469  userProjects[_id].balance */\n      0x06\n      add\n        /* \"Practice tokens/Assignment7.sol\":2470:2471  i */\n      dup2\n        /* \"Practice tokens/Assignment7.sol\":2444:2472  userProjects[_id].balance[i] */\n      dup2\n      sload\n      dup2\n      lt\n      tag_99\n      jumpi\n      tag_100\n      tag_53\n      jump\t// in\n    tag_100:\n    tag_99:\n      swap1\n      0x00\n      mstore\n      keccak256(0x00, 0x20)\n      swap1\n      0x02\n      mul\n      add\n        /* \"Practice tokens/Assignment7.sol\":2444:2481  userProjects[_id].balance[i]._address */\n      0x00\n      add\n      0x00\n      swap1\n      sload\n      swap1\n      0x0100\n      exp\n      swap1\n      div\n      0xffffffffffffffffffffffffffffffffffffffff\n      and\n        /* \"Practice tokens/Assignment7.sol\":2436:2491  payable(userProjects[_id].balance[i]._address).transfer */\n      0xffffffffffffffffffffffffffffffffffffffff\n      and\n        /* \"Practice tokens/Assignment7.sol\":2436:2530  payable(userProjects[_id].balance[i]._address).transfer(userProjects[_id].balance[i]._balance) */\n      0x08fc\n        /* \"Practice tokens/Assignment7.sol\":2492:2504  userProjects */\n      0x01\n        /* \"Practice tokens/Assignment7.sol\":2492:2509  userProjects[_id] */\n      0x00\n        /* \"Practice tokens/Assignment7.sol\":2505:2508  _id */\n      dup6\n        /* \"Practice tokens/Assignment7.sol\":2492:2509  userProjects[_id] */\n      dup2\n      mstore\n      0x20\n      add\n      swap1\n      dup2\n      mstore\n      0x20\n      add\n      0x00\n      keccak256\n        /* \"Practice tokens/Assignment7.sol\":2492:2517  userProjects[_id].balance */\n      0x06\n      add\n        /* \"Practice tokens/Assignment7.sol\":2518:2519  i */\n      dup4\n        /* \"Practice tokens/Assignment7.sol\":2492:2520  userProjects[_id].balance[i] */\n      dup2\n      sload\n      dup2\n      lt\n      tag_102\n      jumpi\n      tag_103\n      tag_53\n      jump\t// in\n    tag_103:\n    tag_102:\n      swap1\n      0x00\n      mstore\n      keccak256(0x00, 0x20)\n      swap1\n      0x02\n      mul\n      add\n        /* \"Practice tokens/Assignment7.sol\":2492:2529  userProjects[_id].balance[i]._balance */\n      0x01\n      add\n      sload\n        /* \"Practice tokens/Assignment7.sol\":2436:2530  payable(userProjects[_id].balance[i]._address).transfer(userProjects[_id].balance[i]._balance) */\n      swap1\n      dup2\n      iszero\n      mul\n      swap1\n      mload(0x40)\n      0x00\n      mload(0x40)\n      dup1\n      dup4\n      sub\n      dup2\n      dup6\n      dup9\n      dup9\n      call\n      swap4\n      pop\n      pop\n      pop\n      pop\n      iszero\n      dup1\n      iszero\n      tag_106\n      jumpi\n      returndatasize\n      0x00\n      dup1\n      returndatacopy\n      revert(0x00, returndatasize)\n    tag_106:\n      pop\n        /* \"Practice tokens/Assignment7.sol\":2547:2559  userProjects */\n      0x01\n        /* \"Practice tokens/Assignment7.sol\":2547:2564  userProjects[_id] */\n      0x00\n        /* \"Practice tokens/Assignment7.sol\":2560:2563  _id */\n      dup4\n        /* \"Practice tokens/Assignment7.sol\":2547:2564  userProjects[_id] */\n      dup2\n      mstore\n      0x20\n      add\n      swap1\n      dup2\n      mstore\n      0x20\n      add\n      0x00\n      keccak256\n        /* \"Practice tokens/Assignment7.sol\":2547:2572  userProjects[_id].balance */\n      0x06\n      add\n        /* \"Practice tokens/Assignment7.sol\":2573:2574  i */\n      dup2\n        /* \"Practice tokens/Assignment7.sol\":2547:2575  userProjects[_id].balance[i] */\n      dup2\n      sload\n      dup2\n      lt\n      tag_107\n      jumpi\n      tag_108\n      tag_53\n      jump\t// in\n    tag_108:\n    tag_107:\n      swap1\n      0x00\n      mstore\n      keccak256(0x00, 0x20)\n      swap1\n      0x02\n      mul\n      add\n      0x00\n        /* \"Practice tokens/Assignment7.sol\":2540:2575  delete userProjects[_id].balance[i] */\n      dup1\n      dup3\n      add\n      exp(0x0100, 0x00)\n      dup2\n      sload\n      swap1\n      0xffffffffffffffffffffffffffffffffffffffff\n      mul\n      not\n      and\n      swap1\n      sstore\n      0x01\n      dup3\n      add\n      0x00\n      swap1\n      sstore\n      pop\n      pop\n        /* \"Practice tokens/Assignment7.sol\":2422:2425  i++ */\n      dup1\n      dup1\n      tag_110\n      swap1\n      tag_58\n      jump\t// in\n    tag_110:\n      swap2\n      pop\n      pop\n        /* \"Practice tokens/Assignment7.sol\":2372:2586  for(uint i=0; i< userProjects[_id].balance.length;i++){... */\n      jump(tag_96)\n    tag_97:\n      pop\n        /* \"Practice tokens/Assignment7.sol\":2237:2592  function refundCancel(uint _id) public  payable {... */\n      pop\n      jump\t// out\n        /* \"Practice tokens/Assignment7.sol\":497:950  function setProjectDetails( uint256 _id, string memory _name,string memory _description,uint256 _funding_goal, uint256 _deadline ) public {... */\n    tag_32:\n        /* \"Practice tokens/Assignment7.sol\":670:675  _name */\n      dup4\n        /* \"Practice tokens/Assignment7.sol\":645:657  userProjects */\n      0x01\n        /* \"Practice tokens/Assignment7.sol\":645:662  userProjects[_id] */\n      0x00\n        /* \"Practice tokens/Assignment7.sol\":658:661  _id */\n      dup8\n        /* \"Practice tokens/Assignment7.sol\":645:662  userProjects[_id] */\n      dup2\n      mstore\n      0x20\n      add\n      swap1\n      dup2\n      mstore\n      0x20\n      add\n      0x00\n      keccak256\n        /* \"Practice tokens/Assignment7.sol\":645:667  userProjects[_id].name */\n      0x00\n      add\n        /* \"Practice tokens/Assignment7.sol\":645:675  userProjects[_id].name = _name */\n      swap1\n      dup2\n      tag_112\n      swap2\n      swap1\n      tag_113\n      jump\t// in\n    tag_112:\n      pop\n        /* \"Practice tokens/Assignment7.sol\":717:729  _description */\n      dup3\n        /* \"Practice tokens/Assignment7.sol\":685:697  userProjects */\n      0x01\n        /* \"Practice tokens/Assignment7.sol\":685:702  userProjects[_id] */\n      0x00\n        /* \"Practice tokens/Assignment7.sol\":698:701  _id */\n      dup8\n        /* \"Practice tokens/Assignment7.sol\":685:702  userProjects[_id] */\n      dup2\n      mstore\n      0x20\n      add\n      swap1\n      dup2\n      mstore\n      0x20\n      add\n      0x00\n      keccak256\n        /* \"Practice tokens/Assignment7.sol\":685:714  userProjects[_id].description */\n      0x01\n      add\n        /* \"Practice tokens/Assignment7.sol\":685:729  userProjects[_id].description = _description */\n      swap1\n      dup2\n      tag_114\n      swap2\n      swap1\n      tag_113\n      jump\t// in\n    tag_114:\n      pop\n        /* \"Practice tokens/Assignment7.sol\":772:785  _funding_goal */\n      dup2\n        /* \"Practice tokens/Assignment7.sol\":739:751  userProjects */\n      0x01\n        /* \"Practice tokens/Assignment7.sol\":739:756  userProjects[_id] */\n      0x00\n        /* \"Practice tokens/Assignment7.sol\":752:755  _id */\n      dup8\n        /* \"Practice tokens/Assignment7.sol\":739:756  userProjects[_id] */\n      dup2\n      mstore\n      0x20\n      add\n      swap1\n      dup2\n      mstore\n      0x20\n      add\n      0x00\n      keccak256\n        /* \"Practice tokens/Assignment7.sol\":739:769  userProjects[_id].funding_goal */\n      0x02\n      add\n        /* \"Practice tokens/Assignment7.sol\":739:785  userProjects[_id].funding_goal = _funding_goal */\n      dup2\n      swap1\n      sstore\n      pop\n        /* \"Practice tokens/Assignment7.sol\":822:832  msg.sender */\n      caller\n        /* \"Practice tokens/Assignment7.sol\":795:807  userProjects */\n      0x01\n        /* \"Practice tokens/Assignment7.sol\":795:812  userProjects[_id] */\n      0x00\n        /* \"Practice tokens/Assignment7.sol\":808:811  _id */\n      dup8\n        /* \"Practice tokens/Assignment7.sol\":795:812  userProjects[_id] */\n      dup2\n      mstore\n      0x20\n      add\n      swap1\n      dup2\n      mstore\n      0x20\n      add\n      0x00\n      keccak256\n        /* \"Practice tokens/Assignment7.sol\":795:819  userProjects[_id]._owner */\n      0x05\n      add\n      0x00\n        /* \"Practice tokens/Assignment7.sol\":795:832  userProjects[_id]._owner = msg.sender */\n      0x0100\n      exp\n      dup2\n      sload\n      dup2\n      0xffffffffffffffffffffffffffffffffffffffff\n      mul\n      not\n      and\n      swap1\n      dup4\n      0xffffffffffffffffffffffffffffffffffffffff\n      and\n      mul\n      or\n      swap1\n      sstore\n      pop\n        /* \"Practice tokens/Assignment7.sol\":876:877  0 */\n      0x00\n        /* \"Practice tokens/Assignment7.sol\":842:854  userProjects */\n      0x01\n        /* \"Practice tokens/Assignment7.sol\":842:859  userProjects[_id] */\n      0x00\n        /* \"Practice tokens/Assignment7.sol\":855:858  _id */\n      dup8\n        /* \"Practice tokens/Assignment7.sol\":842:859  userProjects[_id] */\n      dup2\n      mstore\n      0x20\n      add\n      swap1\n      dup2\n      mstore\n      0x20\n      add\n      0x00\n      keccak256\n        /* \"Practice tokens/Assignment7.sol\":842:874  userProjects[_id].recievedAmount */\n      0x04\n      add\n        /* \"Practice tokens/Assignment7.sol\":842:877  userProjects[_id].recievedAmount =0 */\n      dup2\n      swap1\n      sstore\n      pop\n        /* \"Practice tokens/Assignment7.sol\":934:943  _deadline */\n      dup1\n        /* \"Practice tokens/Assignment7.sol\":916:931  block.timestamp */\n      timestamp\n        /* \"Practice tokens/Assignment7.sol\":916:943  block.timestamp + _deadline */\n      tag_115\n      swap2\n      swap1\n      tag_89\n      jump\t// in\n    tag_115:\n        /* \"Practice tokens/Assignment7.sol\":887:899  userProjects */\n      0x01\n        /* \"Practice tokens/Assignment7.sol\":887:904  userProjects[_id] */\n      0x00\n        /* \"Practice tokens/Assignment7.sol\":900:903  _id */\n      dup8\n        /* \"Practice tokens/Assignment7.sol\":887:904  userProjects[_id] */\n      dup2\n      mstore\n      0x20\n      add\n      swap1\n      dup2\n      mstore\n      0x20\n      add\n      0x00\n      keccak256\n        /* \"Practice tokens/Assignment7.sol\":887:913  userProjects[_id].deadline */\n      0x03\n      add\n        /* \"Practice tokens/Assignment7.sol\":887:943  userProjects[_id].deadline = block.timestamp + _deadline */\n      dup2\n      swap1\n      sstore\n      pop\n        /* \"Practice tokens/Assignment7.sol\":497:950  function setProjectDetails( uint256 _id, string memory _name,string memory _description,uint256 _funding_goal, uint256 _deadline ) public {... */\n      pop\n      pop\n      pop\n      pop\n      pop\n      jump\t// out\n        /* \"#utility.yul\":7:82   */\n    tag_116:\n        /* \"#utility.yul\":40:46   */\n      0x00\n        /* \"#utility.yul\":73:75   */\n      0x40\n        /* \"#utility.yul\":67:76   */\n      mload\n        /* \"#utility.yul\":57:76   */\n      swap1\n      pop\n        /* \"#utility.yul\":7:82   */\n      swap1\n      jump\t// out\n        /* \"#utility.yul\":88:205   */\n    tag_117:\n        /* \"#utility.yul\":197:198   */\n      0x00\n        /* \"#utility.yul\":194:195   */\n      dup1\n        /* \"#utility.yul\":187:199   */\n      revert\n        /* \"#utility.yul\":211:328   */\n    tag_118:\n        /* \"#utility.yul\":320:321   */\n      0x00\n        /* \"#utility.yul\":317:318   */\n      dup1\n        /* \"#utility.yul\":310:322   */\n      revert\n        /* \"#utility.yul\":334:411   */\n    tag_119:\n        /* \"#utility.yul\":371:378   */\n      0x00\n        /* \"#utility.yul\":400:405   */\n      dup2\n        /* \"#utility.yul\":389:405   */\n      swap1\n      pop\n        /* \"#utility.yul\":334:411   */\n      swap2\n      swap1\n      pop\n      jump\t// out\n        /* \"#utility.yul\":417:539   */\n    tag_120:\n        /* \"#utility.yul\":490:514   */\n      tag_173\n        /* \"#utility.yul\":508:513   */\n      dup2\n        /* \"#utility.yul\":490:514   */\n      tag_119\n      jump\t// in\n    tag_173:\n        /* \"#utility.yul\":483:488   */\n      dup2\n        /* \"#utility.yul\":480:515   */\n      eq\n        /* \"#utility.yul\":470:533   */\n      tag_174\n      jumpi\n        /* \"#utility.yul\":529:530   */\n      0x00\n        /* \"#utility.yul\":526:527   */\n      dup1\n        /* \"#utility.yul\":519:531   */\n      revert\n        /* \"#utility.yul\":470:533   */\n    tag_174:\n        /* \"#utility.yul\":417:539   */\n      pop\n      jump\t// out\n        /* \"#utility.yul\":545:684   */\n    tag_121:\n        /* \"#utility.yul\":591:596   */\n      0x00\n        /* \"#utility.yul\":629:635   */\n      dup2\n        /* \"#utility.yul\":616:636   */\n      calldataload\n        /* \"#utility.yul\":607:636   */\n      swap1\n      pop\n        /* \"#utility.yul\":645:678   */\n      tag_176\n        /* \"#utility.yul\":672:677   */\n      dup2\n        /* \"#utility.yul\":645:678   */\n      tag_120\n      jump\t// in\n    tag_176:\n        /* \"#utility.yul\":545:684   */\n      swap3\n      swap2\n      pop\n      pop\n      jump\t// out\n        /* \"#utility.yul\":690:1019   */\n    tag_11:\n        /* \"#utility.yul\":749:755   */\n      0x00\n        /* \"#utility.yul\":798:800   */\n      0x20\n        /* \"#utility.yul\":786:795   */\n      dup3\n        /* \"#utility.yul\":777:784   */\n      dup5\n        /* \"#utility.yul\":773:796   */\n      sub\n        /* \"#utility.yul\":769:801   */\n      slt\n        /* \"#utility.yul\":766:885   */\n      iszero\n      tag_178\n      jumpi\n        /* \"#utility.yul\":804:883   */\n      tag_179\n      tag_117\n      jump\t// in\n    tag_179:\n        /* \"#utility.yul\":766:885   */\n    tag_178:\n        /* \"#utility.yul\":924:925   */\n      0x00\n        /* \"#utility.yul\":949:1002   */\n      tag_180\n        /* \"#utility.yul\":994:1001   */\n      dup5\n        /* \"#utility.yul\":985:991   */\n      dup3\n        /* \"#utility.yul\":974:983   */\n      dup6\n        /* \"#utility.yul\":970:992   */\n      add\n        /* \"#utility.yul\":949:1002   */\n      tag_121\n      jump\t// in\n    tag_180:\n        /* \"#utility.yul\":939:1002   */\n      swap2\n      pop\n        /* \"#utility.yul\":895:1012   */\n      pop\n        /* \"#utility.yul\":690:1019   */\n      swap3\n      swap2\n      pop\n      pop\n      jump\t// out\n        /* \"#utility.yul\":1025:1124   */\n    tag_122:\n        /* \"#utility.yul\":1077:1083   */\n      0x00\n        /* \"#utility.yul\":1111:1116   */\n      dup2\n        /* \"#utility.yul\":1105:1117   */\n      mload\n        /* \"#utility.yul\":1095:1117   */\n      swap1\n      pop\n        /* \"#utility.yul\":1025:1124   */\n      swap2\n      swap1\n      pop\n      jump\t// out\n        /* \"#utility.yul\":1130:1299   */\n    tag_123:\n        /* \"#utility.yul\":1214:1225   */\n      0x00\n        /* \"#utility.yul\":1248:1254   */\n      dup3\n        /* \"#utility.yul\":1243:1246   */\n      dup3\n        /* \"#utility.yul\":1236:1255   */\n      mstore\n        /* \"#utility.yul\":1288:1292   */\n      0x20\n        /* \"#utility.yul\":1283:1286   */\n      dup3\n        /* \"#utility.yul\":1279:1293   */\n      add\n        /* \"#utility.yul\":1264:1293   */\n      swap1\n      pop\n        /* \"#utility.yul\":1130:1299   */\n      swap3\n      swap2\n      pop\n      pop\n      jump\t// out\n        /* \"#utility.yul\":1305:1551   */\n    tag_124:\n        /* \"#utility.yul\":1386:1387   */\n      0x00\n        /* \"#utility.yul\":1396:1509   */\n    tag_184:\n        /* \"#utility.yul\":1410:1416   */\n      dup4\n        /* \"#utility.yul\":1407:1408   */\n      dup2\n        /* \"#utility.yul\":1404:1417   */\n      lt\n        /* \"#utility.yul\":1396:1509   */\n      iszero\n      tag_186\n      jumpi\n        /* \"#utility.yul\":1495:1496   */\n      dup1\n        /* \"#utility.yul\":1490:1493   */\n      dup3\n        /* \"#utility.yul\":1486:1497   */\n      add\n        /* \"#utility.yul\":1480:1498   */\n      mload\n        /* \"#utility.yul\":1476:1477   */\n      dup2\n        /* \"#utility.yul\":1471:1474   */\n      dup5\n        /* \"#utility.yul\":1467:1478   */\n      add\n        /* \"#utility.yul\":1460:1499   */\n      mstore\n        /* \"#utility.yul\":1432:1434   */\n      0x20\n        /* \"#utility.yul\":1429:1430   */\n      dup2\n        /* \"#utility.yul\":1425:1435   */\n      add\n        /* \"#utility.yul\":1420:1435   */\n      swap1\n      pop\n        /* \"#utility.yul\":1396:1509   */\n      jump(tag_184)\n    tag_186:\n        /* \"#utility.yul\":1543:1544   */\n      0x00\n        /* \"#utility.yul\":1534:1540   */\n      dup5\n        /* \"#utility.yul\":1529:1532   */\n      dup5\n        /* \"#utility.yul\":1525:1541   */\n      add\n        /* \"#utility.yul\":1518:1545   */\n      mstore\n        /* \"#utility.yul\":1367:1551   */\n      pop\n        /* \"#utility.yul\":1305:1551   */\n      pop\n      pop\n      pop\n      jump\t// out\n        /* \"#utility.yul\":1557:1659   */\n    tag_125:\n        /* \"#utility.yul\":1598:1604   */\n      0x00\n        /* \"#utility.yul\":1649:1651   */\n      0x1f\n        /* \"#utility.yul\":1645:1652   */\n      not\n        /* \"#utility.yul\":1640:1642   */\n      0x1f\n        /* \"#utility.yul\":1633:1638   */\n      dup4\n        /* \"#utility.yul\":1629:1643   */\n      add\n        /* \"#utility.yul\":1625:1653   */\n      and\n        /* \"#utility.yul\":1615:1653   */\n      swap1\n      pop\n        /* \"#utility.yul\":1557:1659   */\n      swap2\n      swap1\n      pop\n      jump\t// out\n        /* \"#utility.yul\":1665:2042   */\n    tag_126:\n        /* \"#utility.yul\":1753:1756   */\n      0x00\n        /* \"#utility.yul\":1781:1820   */\n      tag_189\n        /* \"#utility.yul\":1814:1819   */\n      dup3\n        /* \"#utility.yul\":1781:1820   */\n      tag_122\n      jump\t// in\n    tag_189:\n        /* \"#utility.yul\":1836:1907   */\n      tag_190\n        /* \"#utility.yul\":1900:1906   */\n      dup2\n        /* \"#utility.yul\":1895:1898   */\n      dup6\n        /* \"#utility.yul\":1836:1907   */\n      tag_123\n      jump\t// in\n    tag_190:\n        /* \"#utility.yul\":1829:1907   */\n      swap4\n      pop\n        /* \"#utility.yul\":1916:1981   */\n      tag_191\n        /* \"#utility.yul\":1974:1980   */\n      dup2\n        /* \"#utility.yul\":1969:1972   */\n      dup6\n        /* \"#utility.yul\":1962:1966   */\n      0x20\n        /* \"#utility.yul\":1955:1960   */\n      dup7\n        /* \"#utility.yul\":1951:1967   */\n      add\n        /* \"#utility.yul\":1916:1981   */\n      tag_124\n      jump\t// in\n    tag_191:\n        /* \"#utility.yul\":2006:2035   */\n      tag_192\n        /* \"#utility.yul\":2028:2034   */\n      dup2\n        /* \"#utility.yul\":2006:2035   */\n      tag_125\n      jump\t// in\n    tag_192:\n        /* \"#utility.yul\":2001:2004   */\n      dup5\n        /* \"#utility.yul\":1997:2036   */\n      add\n        /* \"#utility.yul\":1990:2036   */\n      swap2\n      pop\n        /* \"#utility.yul\":1757:2042   */\n      pop\n        /* \"#utility.yul\":1665:2042   */\n      swap3\n      swap2\n      pop\n      pop\n      jump\t// out\n        /* \"#utility.yul\":2048:2166   */\n    tag_127:\n        /* \"#utility.yul\":2135:2159   */\n      tag_194\n        /* \"#utility.yul\":2153:2158   */\n      dup2\n        /* \"#utility.yul\":2135:2159   */\n      tag_119\n      jump\t// in\n    tag_194:\n        /* \"#utility.yul\":2130:2133   */\n      dup3\n        /* \"#utility.yul\":2123:2160   */\n      mstore\n        /* \"#utility.yul\":2048:2166   */\n      pop\n      pop\n      jump\t// out\n        /* \"#utility.yul\":2172:2298   */\n    tag_128:\n        /* \"#utility.yul\":2209:2216   */\n      0x00\n        /* \"#utility.yul\":2249:2291   */\n      0xffffffffffffffffffffffffffffffffffffffff\n        /* \"#utility.yul\":2242:2247   */\n      dup3\n        /* \"#utility.yul\":2238:2292   */\n      and\n        /* \"#utility.yul\":2227:2292   */\n      swap1\n      pop\n        /* \"#utility.yul\":2172:2298   */\n      swap2\n      swap1\n      pop\n      jump\t// out\n        /* \"#utility.yul\":2304:2400   */\n    tag_129:\n        /* \"#utility.yul\":2341:2348   */\n      0x00\n        /* \"#utility.yul\":2370:2394   */\n      tag_197\n        /* \"#utility.yul\":2388:2393   */\n      dup3\n        /* \"#utility.yul\":2370:2394   */\n      tag_128\n      jump\t// in\n    tag_197:\n        /* \"#utility.yul\":2359:2394   */\n      swap1\n      pop\n        /* \"#utility.yul\":2304:2400   */\n      swap2\n      swap1\n      pop\n      jump\t// out\n        /* \"#utility.yul\":2406:2524   */\n    tag_130:\n        /* \"#utility.yul\":2493:2517   */\n      tag_199\n        /* \"#utility.yul\":2511:2516   */\n      dup2\n        /* \"#utility.yul\":2493:2517   */\n      tag_129\n      jump\t// in\n    tag_199:\n        /* \"#utility.yul\":2488:2491   */\n      dup3\n        /* \"#utility.yul\":2481:2518   */\n      mstore\n        /* \"#utility.yul\":2406:2524   */\n      pop\n      pop\n      jump\t// out\n        /* \"#utility.yul\":2530:3487   */\n    tag_14:\n        /* \"#utility.yul\":2803:2807   */\n      0x00\n        /* \"#utility.yul\":2841:2844   */\n      0xc0\n        /* \"#utility.yul\":2830:2839   */\n      dup3\n        /* \"#utility.yul\":2826:2845   */\n      add\n        /* \"#utility.yul\":2818:2845   */\n      swap1\n      pop\n        /* \"#utility.yul\":2891:2900   */\n      dup2\n        /* \"#utility.yul\":2885:2889   */\n      dup2\n        /* \"#utility.yul\":2881:2901   */\n      sub\n        /* \"#utility.yul\":2877:2878   */\n      0x00\n        /* \"#utility.yul\":2866:2875   */\n      dup4\n        /* \"#utility.yul\":2862:2879   */\n      add\n        /* \"#utility.yul\":2855:2902   */\n      mstore\n        /* \"#utility.yul\":2919:2997   */\n      tag_201\n        /* \"#utility.yul\":2992:2996   */\n      dup2\n        /* \"#utility.yul\":2983:2989   */\n      dup10\n        /* \"#utility.yul\":2919:2997   */\n      tag_126\n      jump\t// in\n    tag_201:\n        /* \"#utility.yul\":2911:2997   */\n      swap1\n      pop\n        /* \"#utility.yul\":3044:3053   */\n      dup2\n        /* \"#utility.yul\":3038:3042   */\n      dup2\n        /* \"#utility.yul\":3034:3054   */\n      sub\n        /* \"#utility.yul\":3029:3031   */\n      0x20\n        /* \"#utility.yul\":3018:3027   */\n      dup4\n        /* \"#utility.yul\":3014:3032   */\n      add\n        /* \"#utility.yul\":3007:3055   */\n      mstore\n        /* \"#utility.yul\":3072:3150   */\n      tag_202\n        /* \"#utility.yul\":3145:3149   */\n      dup2\n        /* \"#utility.yul\":3136:3142   */\n      dup9\n        /* \"#utility.yul\":3072:3150   */\n      tag_126\n      jump\t// in\n    tag_202:\n        /* \"#utility.yul\":3064:3150   */\n      swap1\n      pop\n        /* \"#utility.yul\":3160:3232   */\n      tag_203\n        /* \"#utility.yul\":3228:3230   */\n      0x40\n        /* \"#utility.yul\":3217:3226   */\n      dup4\n        /* \"#utility.yul\":3213:3231   */\n      add\n        /* \"#utility.yul\":3204:3210   */\n      dup8\n        /* \"#utility.yul\":3160:3232   */\n      tag_127\n      jump\t// in\n    tag_203:\n        /* \"#utility.yul\":3242:3314   */\n      tag_204\n        /* \"#utility.yul\":3310:3312   */\n      0x60\n        /* \"#utility.yul\":3299:3308   */\n      dup4\n        /* \"#utility.yul\":3295:3313   */\n      add\n        /* \"#utility.yul\":3286:3292   */\n      dup7\n        /* \"#utility.yul\":3242:3314   */\n      tag_127\n      jump\t// in\n    tag_204:\n        /* \"#utility.yul\":3324:3397   */\n      tag_205\n        /* \"#utility.yul\":3392:3395   */\n      0x80\n        /* \"#utility.yul\":3381:3390   */\n      dup4\n        /* \"#utility.yul\":3377:3396   */\n      add\n        /* \"#utility.yul\":3368:3374   */\n      dup6\n        /* \"#utility.yul\":3324:3397   */\n      tag_127\n      jump\t// in\n    tag_205:\n        /* \"#utility.yul\":3407:3480   */\n      tag_206\n        /* \"#utility.yul\":3475:3478   */\n      0xa0\n        /* \"#utility.yul\":3464:3473   */\n      dup4\n        /* \"#utility.yul\":3460:3479   */\n      add\n        /* \"#utility.yul\":3451:3457   */\n      dup5\n        /* \"#utility.yul\":3407:3480   */\n      tag_130\n      jump\t// in\n    tag_206:\n        /* \"#utility.yul\":2530:3487   */\n      swap8\n      swap7\n      pop\n      pop\n      pop\n      pop\n      pop\n      pop\n      pop\n      jump\t// out\n        /* \"#utility.yul\":3493:3610   */\n    tag_131:\n        /* \"#utility.yul\":3602:3603   */\n      0x00\n        /* \"#utility.yul\":3599:3600   */\n      dup1\n        /* \"#utility.yul\":3592:3604   */\n      revert\n        /* \"#utility.yul\":3616:3733   */\n    tag_132:\n        /* \"#utility.yul\":3725:3726   */\n      0x00\n        /* \"#utility.yul\":3722:3723   */\n      dup1\n        /* \"#utility.yul\":3715:3727   */\n      revert\n        /* \"#utility.yul\":3739:3919   */\n    tag_133:\n        /* \"#utility.yul\":3787:3864   */\n      0x4e487b7100000000000000000000000000000000000000000000000000000000\n        /* \"#utility.yul\":3784:3785   */\n      0x00\n        /* \"#utility.yul\":3777:3865   */\n      mstore\n        /* \"#utility.yul\":3884:3888   */\n      0x41\n        /* \"#utility.yul\":3881:3882   */\n      0x04\n        /* \"#utility.yul\":3874:3889   */\n      mstore\n        /* \"#utility.yul\":3908:3912   */\n      0x24\n        /* \"#utility.yul\":3905:3906   */\n      0x00\n        /* \"#utility.yul\":3898:3913   */\n      revert\n        /* \"#utility.yul\":3925:4206   */\n    tag_134:\n        /* \"#utility.yul\":4008:4035   */\n      tag_211\n        /* \"#utility.yul\":4030:4034   */\n      dup3\n        /* \"#utility.yul\":4008:4035   */\n      tag_125\n      jump\t// in\n    tag_211:\n        /* \"#utility.yul\":4000:4006   */\n      dup2\n        /* \"#utility.yul\":3996:4036   */\n      add\n        /* \"#utility.yul\":4138:4144   */\n      dup2\n        /* \"#utility.yul\":4126:4136   */\n      dup2\n        /* \"#utility.yul\":4123:4145   */\n      lt\n        /* \"#utility.yul\":4102:4120   */\n      0xffffffffffffffff\n        /* \"#utility.yul\":4090:4100   */\n      dup3\n        /* \"#utility.yul\":4087:4121   */\n      gt\n        /* \"#utility.yul\":4084:4146   */\n      or\n        /* \"#utility.yul\":4081:4169   */\n      iszero\n      tag_212\n      jumpi\n        /* \"#utility.yul\":4149:4167   */\n      tag_213\n      tag_133\n      jump\t// in\n    tag_213:\n        /* \"#utility.yul\":4081:4169   */\n    tag_212:\n        /* \"#utility.yul\":4189:4199   */\n      dup1\n        /* \"#utility.yul\":4185:4187   */\n      0x40\n        /* \"#utility.yul\":4178:4200   */\n      mstore\n        /* \"#utility.yul\":3968:4206   */\n      pop\n        /* \"#utility.yul\":3925:4206   */\n      pop\n      pop\n      jump\t// out\n        /* \"#utility.yul\":4212:4341   */\n    tag_135:\n        /* \"#utility.yul\":4246:4252   */\n      0x00\n        /* \"#utility.yul\":4273:4293   */\n      tag_215\n      tag_116\n      jump\t// in\n    tag_215:\n        /* \"#utility.yul\":4263:4293   */\n      swap1\n      pop\n        /* \"#utility.yul\":4302:4335   */\n      tag_216\n        /* \"#utility.yul\":4330:4334   */\n      dup3\n        /* \"#utility.yul\":4322:4328   */\n      dup3\n        /* \"#utility.yul\":4302:4335   */\n      tag_134\n      jump\t// in\n    tag_216:\n        /* \"#utility.yul\":4212:4341   */\n      swap2\n      swap1\n      pop\n      jump\t// out\n        /* \"#utility.yul\":4347:4655   */\n    tag_136:\n        /* \"#utility.yul\":4409:4413   */\n      0x00\n        /* \"#utility.yul\":4499:4517   */\n      0xffffffffffffffff\n        /* \"#utility.yul\":4491:4497   */\n      dup3\n        /* \"#utility.yul\":4488:4518   */\n      gt\n        /* \"#utility.yul\":4485:4541   */\n      iszero\n      tag_218\n      jumpi\n        /* \"#utility.yul\":4521:4539   */\n      tag_219\n      tag_133\n      jump\t// in\n    tag_219:\n        /* \"#utility.yul\":4485:4541   */\n    tag_218:\n        /* \"#utility.yul\":4559:4588   */\n      tag_220\n        /* \"#utility.yul\":4581:4587   */\n      dup3\n        /* \"#utility.yul\":4559:4588   */\n      tag_125\n      jump\t// in\n    tag_220:\n        /* \"#utility.yul\":4551:4588   */\n      swap1\n      pop\n        /* \"#utility.yul\":4643:4647   */\n      0x20\n        /* \"#utility.yul\":4637:4641   */\n      dup2\n        /* \"#utility.yul\":4633:4648   */\n      add\n        /* \"#utility.yul\":4625:4648   */\n      swap1\n      pop\n        /* \"#utility.yul\":4347:4655   */\n      swap2\n      swap1\n      pop\n      jump\t// out\n        /* \"#utility.yul\":4661:4807   */\n    tag_137:\n        /* \"#utility.yul\":4758:4764   */\n      dup3\n        /* \"#utility.yul\":4753:4756   */\n      dup2\n        /* \"#utility.yul\":4748:4751   */\n      dup4\n        /* \"#utility.yul\":4735:4765   */\n      calldatacopy\n        /* \"#utility.yul\":4799:4800   */\n      0x00\n        /* \"#utility.yul\":4790:4796   */\n      dup4\n        /* \"#utility.yul\":4785:4788   */\n      dup4\n        /* \"#utility.yul\":4781:4797   */\n      add\n        /* \"#utility.yul\":4774:4801   */\n      mstore\n        /* \"#utility.yul\":4661:4807   */\n      pop\n      pop\n      pop\n      jump\t// out\n        /* \"#utility.yul\":4813:5238   */\n    tag_138:\n        /* \"#utility.yul\":4891:4896   */\n      0x00\n        /* \"#utility.yul\":4916:4982   */\n      tag_223\n        /* \"#utility.yul\":4932:4981   */\n      tag_224\n        /* \"#utility.yul\":4974:4980   */\n      dup5\n        /* \"#utility.yul\":4932:4981   */\n      tag_136\n      jump\t// in\n    tag_224:\n        /* \"#utility.yul\":4916:4982   */\n      tag_135\n      jump\t// in\n    tag_223:\n        /* \"#utility.yul\":4907:4982   */\n      swap1\n      pop\n        /* \"#utility.yul\":5005:5011   */\n      dup3\n        /* \"#utility.yul\":4998:5003   */\n      dup2\n        /* \"#utility.yul\":4991:5012   */\n      mstore\n        /* \"#utility.yul\":5043:5047   */\n      0x20\n        /* \"#utility.yul\":5036:5041   */\n      dup2\n        /* \"#utility.yul\":5032:5048   */\n      add\n        /* \"#utility.yul\":5081:5084   */\n      dup5\n        /* \"#utility.yul\":5072:5078   */\n      dup5\n        /* \"#utility.yul\":5067:5070   */\n      dup5\n        /* \"#utility.yul\":5063:5079   */\n      add\n        /* \"#utility.yul\":5060:5085   */\n      gt\n        /* \"#utility.yul\":5057:5169   */\n      iszero\n      tag_225\n      jumpi\n        /* \"#utility.yul\":5088:5167   */\n      tag_226\n      tag_132\n      jump\t// in\n    tag_226:\n        /* \"#utility.yul\":5057:5169   */\n    tag_225:\n        /* \"#utility.yul\":5178:5232   */\n      tag_227\n        /* \"#utility.yul\":5225:5231   */\n      dup5\n        /* \"#utility.yul\":5220:5223   */\n      dup3\n        /* \"#utility.yul\":5215:5218   */\n      dup6\n        /* \"#utility.yul\":5178:5232   */\n      tag_137\n      jump\t// in\n    tag_227:\n        /* \"#utility.yul\":4897:5238   */\n      pop\n        /* \"#utility.yul\":4813:5238   */\n      swap4\n      swap3\n      pop\n      pop\n      pop\n      jump\t// out\n        /* \"#utility.yul\":5258:5598   */\n    tag_139:\n        /* \"#utility.yul\":5314:5319   */\n      0x00\n        /* \"#utility.yul\":5363:5366   */\n      dup3\n        /* \"#utility.yul\":5356:5360   */\n      0x1f\n        /* \"#utility.yul\":5348:5354   */\n      dup4\n        /* \"#utility.yul\":5344:5361   */\n      add\n        /* \"#utility.yul\":5340:5367   */\n      slt\n        /* \"#utility.yul\":5330:5452   */\n      tag_229\n      jumpi\n        /* \"#utility.yul\":5371:5450   */\n      tag_230\n      tag_131\n      jump\t// in\n    tag_230:\n        /* \"#utility.yul\":5330:5452   */\n    tag_229:\n        /* \"#utility.yul\":5488:5494   */\n      dup2\n        /* \"#utility.yul\":5475:5495   */\n      calldataload\n        /* \"#utility.yul\":5513:5592   */\n      tag_231\n        /* \"#utility.yul\":5588:5591   */\n      dup5\n        /* \"#utility.yul\":5580:5586   */\n      dup3\n        /* \"#utility.yul\":5573:5577   */\n      0x20\n        /* \"#utility.yul\":5565:5571   */\n      dup7\n        /* \"#utility.yul\":5561:5578   */\n      add\n        /* \"#utility.yul\":5513:5592   */\n      tag_138\n      jump\t// in\n    tag_231:\n        /* \"#utility.yul\":5504:5592   */\n      swap2\n      pop\n        /* \"#utility.yul\":5320:5598   */\n      pop\n        /* \"#utility.yul\":5258:5598   */\n      swap3\n      swap2\n      pop\n      pop\n      jump\t// out\n        /* \"#utility.yul\":5604:6875   */\n    tag_31:\n        /* \"#utility.yul\":5719:5725   */\n      0x00\n        /* \"#utility.yul\":5727:5733   */\n      dup1\n        /* \"#utility.yul\":5735:5741   */\n      0x00\n        /* \"#utility.yul\":5743:5749   */\n      dup1\n        /* \"#utility.yul\":5751:5757   */\n      0x00\n        /* \"#utility.yul\":5800:5803   */\n      0xa0\n        /* \"#utility.yul\":5788:5797   */\n      dup7\n        /* \"#utility.yul\":5779:5786   */\n      dup9\n        /* \"#utility.yul\":5775:5798   */\n      sub\n        /* \"#utility.yul\":5771:5804   */\n      slt\n        /* \"#utility.yul\":5768:5888   */\n      iszero\n      tag_233\n      jumpi\n        /* \"#utility.yul\":5807:5886   */\n      tag_234\n      tag_117\n      jump\t// in\n    tag_234:\n        /* \"#utility.yul\":5768:5888   */\n    tag_233:\n        /* \"#utility.yul\":5927:5928   */\n      0x00\n        /* \"#utility.yul\":5952:6005   */\n      tag_235\n        /* \"#utility.yul\":5997:6004   */\n      dup9\n        /* \"#utility.yul\":5988:5994   */\n      dup3\n        /* \"#utility.yul\":5977:5986   */\n      dup10\n        /* \"#utility.yul\":5973:5995   */\n      add\n        /* \"#utility.yul\":5952:6005   */\n      tag_121\n      jump\t// in\n    tag_235:\n        /* \"#utility.yul\":5942:6005   */\n      swap6\n      pop\n        /* \"#utility.yul\":5898:6015   */\n      pop\n        /* \"#utility.yul\":6082:6084   */\n      0x20\n        /* \"#utility.yul\":6071:6080   */\n      dup7\n        /* \"#utility.yul\":6067:6085   */\n      add\n        /* \"#utility.yul\":6054:6086   */\n      calldataload\n        /* \"#utility.yul\":6113:6131   */\n      0xffffffffffffffff\n        /* \"#utility.yul\":6105:6111   */\n      dup2\n        /* \"#utility.yul\":6102:6132   */\n      gt\n        /* \"#utility.yul\":6099:6216   */\n      iszero\n      tag_236\n      jumpi\n        /* \"#utility.yul\":6135:6214   */\n      tag_237\n      tag_118\n      jump\t// in\n    tag_237:\n        /* \"#utility.yul\":6099:6216   */\n    tag_236:\n        /* \"#utility.yul\":6240:6303   */\n      tag_238\n        /* \"#utility.yul\":6295:6302   */\n      dup9\n        /* \"#utility.yul\":6286:6292   */\n      dup3\n        /* \"#utility.yul\":6275:6284   */\n      dup10\n        /* \"#utility.yul\":6271:6293   */\n      add\n        /* \"#utility.yul\":6240:6303   */\n      tag_139\n      jump\t// in\n    tag_238:\n        /* \"#utility.yul\":6230:6303   */\n      swap5\n      pop\n        /* \"#utility.yul\":6025:6313   */\n      pop\n        /* \"#utility.yul\":6380:6382   */\n      0x40\n        /* \"#utility.yul\":6369:6378   */\n      dup7\n        /* \"#utility.yul\":6365:6383   */\n      add\n        /* \"#utility.yul\":6352:6384   */\n      calldataload\n        /* \"#utility.yul\":6411:6429   */\n      0xffffffffffffffff\n        /* \"#utility.yul\":6403:6409   */\n      dup2\n        /* \"#utility.yul\":6400:6430   */\n      gt\n        /* \"#utility.yul\":6397:6514   */\n      iszero\n      tag_239\n      jumpi\n        /* \"#utility.yul\":6433:6512   */\n      tag_240\n      tag_118\n      jump\t// in\n    tag_240:\n        /* \"#utility.yul\":6397:6514   */\n    tag_239:\n        /* \"#utility.yul\":6538:6601   */\n      tag_241\n        /* \"#utility.yul\":6593:6600   */\n      dup9\n        /* \"#utility.yul\":6584:6590   */\n      dup3\n        /* \"#utility.yul\":6573:6582   */\n      dup10\n        /* \"#utility.yul\":6569:6591   */\n      add\n        /* \"#utility.yul\":6538:6601   */\n      tag_139\n      jump\t// in\n    tag_241:\n        /* \"#utility.yul\":6528:6601   */\n      swap4\n      pop\n        /* \"#utility.yul\":6323:6611   */\n      pop\n        /* \"#utility.yul\":6650:6652   */\n      0x60\n        /* \"#utility.yul\":6676:6729   */\n      tag_242\n        /* \"#utility.yul\":6721:6728   */\n      dup9\n        /* \"#utility.yul\":6712:6718   */\n      dup3\n        /* \"#utility.yul\":6701:6710   */\n      dup10\n        /* \"#utility.yul\":6697:6719   */\n      add\n        /* \"#utility.yul\":6676:6729   */\n      tag_121\n      jump\t// in\n    tag_242:\n        /* \"#utility.yul\":6666:6729   */\n      swap3\n      pop\n        /* \"#utility.yul\":6621:6739   */\n      pop\n        /* \"#utility.yul\":6778:6781   */\n      0x80\n        /* \"#utility.yul\":6805:6858   */\n      tag_243\n        /* \"#utility.yul\":6850:6857   */\n      dup9\n        /* \"#utility.yul\":6841:6847   */\n      dup3\n        /* \"#utility.yul\":6830:6839   */\n      dup10\n        /* \"#utility.yul\":6826:6848   */\n      add\n        /* \"#utility.yul\":6805:6858   */\n      tag_121\n      jump\t// in\n    tag_243:\n        /* \"#utility.yul\":6795:6858   */\n      swap2\n      pop\n        /* \"#utility.yul\":6749:6868   */\n      pop\n        /* \"#utility.yul\":5604:6875   */\n      swap3\n      swap6\n      pop\n      swap3\n      swap6\n      swap1\n      swap4\n      pop\n      jump\t// out\n        /* \"#utility.yul\":6881:7061   */\n    tag_140:\n        /* \"#utility.yul\":6929:7006   */\n      0x4e487b7100000000000000000000000000000000000000000000000000000000\n        /* \"#utility.yul\":6926:6927   */\n      0x00\n        /* \"#utility.yul\":6919:7007   */\n      mstore\n        /* \"#utility.yul\":7026:7030   */\n      0x22\n        /* \"#utility.yul\":7023:7024   */\n      0x04\n        /* \"#utility.yul\":7016:7031   */\n      mstore\n        /* \"#utility.yul\":7050:7054   */\n      0x24\n        /* \"#utility.yul\":7047:7048   */\n      0x00\n        /* \"#utility.yul\":7040:7055   */\n      revert\n        /* \"#utility.yul\":7067:7387   */\n    tag_34:\n        /* \"#utility.yul\":7111:7117   */\n      0x00\n        /* \"#utility.yul\":7148:7149   */\n      0x02\n        /* \"#utility.yul\":7142:7146   */\n      dup3\n        /* \"#utility.yul\":7138:7150   */\n      div\n        /* \"#utility.yul\":7128:7150   */\n      swap1\n      pop\n        /* \"#utility.yul\":7195:7196   */\n      0x01\n        /* \"#utility.yul\":7189:7193   */\n      dup3\n        /* \"#utility.yul\":7185:7197   */\n      and\n        /* \"#utility.yul\":7216:7234   */\n      dup1\n        /* \"#utility.yul\":7206:7287   */\n      tag_246\n      jumpi\n        /* \"#utility.yul\":7272:7276   */\n      0x7f\n        /* \"#utility.yul\":7264:7270   */\n      dup3\n        /* \"#utility.yul\":7260:7277   */\n      and\n        /* \"#utility.yul\":7250:7277   */\n      swap2\n      pop\n        /* \"#utility.yul\":7206:7287   */\n    tag_246:\n        /* \"#utility.yul\":7334:7336   */\n      0x20\n        /* \"#utility.yul\":7326:7332   */\n      dup3\n        /* \"#utility.yul\":7323:7337   */\n      lt\n        /* \"#utility.yul\":7303:7321   */\n      dup2\n        /* \"#utility.yul\":7300:7338   */\n      sub\n        /* \"#utility.yul\":7297:7381   */\n      tag_247\n      jumpi\n        /* \"#utility.yul\":7353:7371   */\n      tag_248\n      tag_140\n      jump\t// in\n    tag_248:\n        /* \"#utility.yul\":7297:7381   */\n    tag_247:\n        /* \"#utility.yul\":7118:7387   */\n      pop\n        /* \"#utility.yul\":7067:7387   */\n      swap2\n      swap1\n      pop\n      jump\t// out\n        /* \"#utility.yul\":7393:7568   */\n    tag_141:\n        /* \"#utility.yul\":7533:7560   */\n      0x204f6e6c79204f776e65722063616e2077696474686472617700000000000000\n        /* \"#utility.yul\":7529:7530   */\n      0x00\n        /* \"#utility.yul\":7521:7527   */\n      dup3\n        /* \"#utility.yul\":7517:7531   */\n      add\n        /* \"#utility.yul\":7510:7561   */\n      mstore\n        /* \"#utility.yul\":7393:7568   */\n      pop\n      jump\t// out\n        /* \"#utility.yul\":7574:7940   */\n    tag_142:\n        /* \"#utility.yul\":7716:7719   */\n      0x00\n        /* \"#utility.yul\":7737:7804   */\n      tag_251\n        /* \"#utility.yul\":7801:7803   */\n      0x19\n        /* \"#utility.yul\":7796:7799   */\n      dup4\n        /* \"#utility.yul\":7737:7804   */\n      tag_123\n      jump\t// in\n    tag_251:\n        /* \"#utility.yul\":7730:7804   */\n      swap2\n      pop\n        /* \"#utility.yul\":7813:7906   */\n      tag_252\n        /* \"#utility.yul\":7902:7905   */\n      dup3\n        /* \"#utility.yul\":7813:7906   */\n      tag_141\n      jump\t// in\n    tag_252:\n        /* \"#utility.yul\":7931:7933   */\n      0x20\n        /* \"#utility.yul\":7926:7929   */\n      dup3\n        /* \"#utility.yul\":7922:7934   */\n      add\n        /* \"#utility.yul\":7915:7934   */\n      swap1\n      pop\n        /* \"#utility.yul\":7574:7940   */\n      swap2\n      swap1\n      pop\n      jump\t// out\n        /* \"#utility.yul\":7946:8365   */\n    tag_47:\n        /* \"#utility.yul\":8112:8116   */\n      0x00\n        /* \"#utility.yul\":8150:8152   */\n      0x20\n        /* \"#utility.yul\":8139:8148   */\n      dup3\n        /* \"#utility.yul\":8135:8153   */\n      add\n        /* \"#utility.yul\":8127:8153   */\n      swap1\n      pop\n        /* \"#utility.yul\":8199:8208   */\n      dup2\n        /* \"#utility.yul\":8193:8197   */\n      dup2\n        /* \"#utility.yul\":8189:8209   */\n      sub\n        /* \"#utility.yul\":8185:8186   */\n      0x00\n        /* \"#utility.yul\":8174:8183   */\n      dup4\n        /* \"#utility.yul\":8170:8187   */\n      add\n        /* \"#utility.yul\":8163:8210   */\n      mstore\n        /* \"#utility.yul\":8227:8358   */\n      tag_254\n        /* \"#utility.yul\":8353:8357   */\n      dup2\n        /* \"#utility.yul\":8227:8358   */\n      tag_142\n      jump\t// in\n    tag_254:\n        /* \"#utility.yul\":8219:8358   */\n      swap1\n      pop\n        /* \"#utility.yul\":7946:8365   */\n      swap2\n      swap1\n      pop\n      jump\t// out\n        /* \"#utility.yul\":8371:8551   */\n    tag_53:\n        /* \"#utility.yul\":8419:8496   */\n      0x4e487b7100000000000000000000000000000000000000000000000000000000\n        /* \"#utility.yul\":8416:8417   */\n      0x00\n        /* \"#utility.yul\":8409:8497   */\n      mstore\n        /* \"#utility.yul\":8516:8520   */\n      0x32\n        /* \"#utility.yul\":8513:8514   */\n      0x04\n        /* \"#utility.yul\":8506:8521   */\n      mstore\n        /* \"#utility.yul\":8540:8544   */\n      0x24\n        /* \"#utility.yul\":8537:8538   */\n      0x00\n        /* \"#utility.yul\":8530:8545   */\n      revert\n        /* \"#utility.yul\":8557:8737   */\n    tag_143:\n        /* \"#utility.yul\":8605:8682   */\n      0x4e487b7100000000000000000000000000000000000000000000000000000000\n        /* \"#utility.yul\":8602:8603   */\n      0x00\n        /* \"#utility.yul\":8595:8683   */\n      mstore\n        /* \"#utility.yul\":8702:8706   */\n      0x11\n        /* \"#utility.yul\":8699:8700   */\n      0x04\n        /* \"#utility.yul\":8692:8707   */\n      mstore\n        /* \"#utility.yul\":8726:8730   */\n      0x24\n        /* \"#utility.yul\":8723:8724   */\n      0x00\n        /* \"#utility.yul\":8716:8731   */\n      revert\n        /* \"#utility.yul\":8743:8976   */\n    tag_58:\n        /* \"#utility.yul\":8782:8785   */\n      0x00\n        /* \"#utility.yul\":8805:8829   */\n      tag_258\n        /* \"#utility.yul\":8823:8828   */\n      dup3\n        /* \"#utility.yul\":8805:8829   */\n      tag_119\n      jump\t// in\n    tag_258:\n        /* \"#utility.yul\":8796:8829   */\n      swap2\n      pop\n        /* \"#utility.yul\":8851:8917   */\n      0xffffffffffffffffffffffffffffffffffffffffffffffffffffffffffffffff\n        /* \"#utility.yul\":8844:8849   */\n      dup3\n        /* \"#utility.yul\":8841:8918   */\n      sub\n        /* \"#utility.yul\":8838:8941   */\n      tag_259\n      jumpi\n        /* \"#utility.yul\":8921:8939   */\n      tag_260\n      tag_143\n      jump\t// in\n    tag_260:\n        /* \"#utility.yul\":8838:8941   */\n    tag_259:\n        /* \"#utility.yul\":8968:8969   */\n      0x01\n        /* \"#utility.yul\":8961:8966   */\n      dup3\n        /* \"#utility.yul\":8957:8970   */\n      add\n        /* \"#utility.yul\":8950:8970   */\n      swap1\n      pop\n        /* \"#utility.yul\":8743:8976   */\n      swap2\n      swap1\n      pop\n      jump\t// out\n        /* \"#utility.yul\":8982:9147   */\n    tag_144:\n        /* \"#utility.yul\":9122:9139   */\n      0x6f6e6c792063616e20726566756e640000000000000000000000000000000000\n        /* \"#utility.yul\":9118:9119   */\n      0x00\n        /* \"#utility.yul\":9110:9116   */\n      dup3\n        /* \"#utility.yul\":9106:9120   */\n      add\n        /* \"#utility.yul\":9099:9140   */\n      mstore\n        /* \"#utility.yul\":8982:9147   */\n      pop\n      jump\t// out\n        /* \"#utility.yul\":9153:9519   */\n    tag_145:\n        /* \"#utility.yul\":9295:9298   */\n      0x00\n        /* \"#utility.yul\":9316:9383   */\n      tag_263\n        /* \"#utility.yul\":9380:9382   */\n      0x0f\n        /* \"#utility.yul\":9375:9378   */\n      dup4\n        /* \"#utility.yul\":9316:9383   */\n      tag_123\n      jump\t// in\n    tag_263:\n        /* \"#utility.yul\":9309:9383   */\n      swap2\n      pop\n        /* \"#utility.yul\":9392:9485   */\n      tag_264\n        /* \"#utility.yul\":9481:9484   */\n      dup3\n        /* \"#utility.yul\":9392:9485   */\n      tag_144\n      jump\t// in\n    tag_264:\n        /* \"#utility.yul\":9510:9512   */\n      0x20\n        /* \"#utility.yul\":9505:9508   */\n      dup3\n        /* \"#utility.yul\":9501:9513   */\n      add\n        /* \"#utility.yul\":9494:9513   */\n      swap1\n      pop\n        /* \"#utility.yul\":9153:9519   */\n      swap2\n      swap1\n      pop\n      jump\t// out\n        /* \"#utility.yul\":9525:9944   */\n    tag_62:\n        /* \"#utility.yul\":9691:9695   */\n      0x00\n        /* \"#utility.yul\":9729:9731   */\n      0x20\n        /* \"#utility.yul\":9718:9727   */\n      dup3\n        /* \"#utility.yul\":9714:9732   */\n      add\n        /* \"#utility.yul\":9706:9732   */\n      swap1\n      pop\n        /* \"#utility.yul\":9778:9787   */\n      dup2\n        /* \"#utility.yul\":9772:9776   */\n      dup2\n        /* \"#utility.yul\":9768:9788   */\n      sub\n        /* \"#utility.yul\":9764:9765   */\n      0x00\n        /* \"#utility.yul\":9753:9762   */\n      dup4\n        /* \"#utility.yul\":9749:9766   */\n      add\n        /* \"#utility.yul\":9742:9789   */\n      mstore\n        /* \"#utility.yul\":9806:9937   */\n      tag_266\n        /* \"#utility.yul\":9932:9936   */\n      dup2\n        /* \"#utility.yul\":9806:9937   */\n      tag_145\n      jump\t// in\n    tag_266:\n        /* \"#utility.yul\":9798:9937   */\n      swap1\n      pop\n        /* \"#utility.yul\":9525:9944   */\n      swap2\n      swap1\n      pop\n      jump\t// out\n        /* \"#utility.yul\":9950:10176   */\n    tag_146:\n        /* \"#utility.yul\":10090:10124   */\n      0x205374696c6c206861766520736f6d652074696d65206c65667420666f722066\n        /* \"#utility.yul\":10086:10087   */\n      0x00\n        /* \"#utility.yul\":10078:10084   */\n      dup3\n        /* \"#utility.yul\":10074:10088   */\n      add\n        /* \"#utility.yul\":10067:10125   */\n      mstore\n        /* \"#utility.yul\":10159:10168   */\n      0x756e64696e672000000000000000000000000000000000000000000000000000\n        /* \"#utility.yul\":10154:10156   */\n      0x20\n        /* \"#utility.yul\":10146:10152   */\n      dup3\n        /* \"#utility.yul\":10142:10157   */\n      add\n        /* \"#utility.yul\":10135:10169   */\n      mstore\n        /* \"#utility.yul\":9950:10176   */\n      pop\n      jump\t// out\n        /* \"#utility.yul\":10182:10548   */\n    tag_147:\n        /* \"#utility.yul\":10324:10327   */\n      0x00\n        /* \"#utility.yul\":10345:10412   */\n      tag_269\n        /* \"#utility.yul\":10409:10411   */\n      0x27\n        /* \"#utility.yul\":10404:10407   */\n      dup4\n        /* \"#utility.yul\":10345:10412   */\n      tag_123\n      jump\t// in\n    tag_269:\n        /* \"#utility.yul\":10338:10412   */\n      swap2\n      pop\n        /* \"#utility.yul\":10421:10514   */\n      tag_270\n        /* \"#utility.yul\":10510:10513   */\n      dup3\n        /* \"#utility.yul\":10421:10514   */\n      tag_146\n      jump\t// in\n    tag_270:\n        /* \"#utility.yul\":10539:10541   */\n      0x40\n        /* \"#utility.yul\":10534:10537   */\n      dup3\n        /* \"#utility.yul\":10530:10542   */\n      add\n        /* \"#utility.yul\":10523:10542   */\n      swap1\n      pop\n        /* \"#utility.yul\":10182:10548   */\n      swap2\n      swap1\n      pop\n      jump\t// out\n        /* \"#utility.yul\":10554:10973   */\n    tag_65:\n        /* \"#utility.yul\":10720:10724   */\n      0x00\n        /* \"#utility.yul\":10758:10760   */\n      0x20\n        /* \"#utility.yul\":10747:10756   */\n      dup3\n        /* \"#utility.yul\":10743:10761   */\n      add\n        /* \"#utility.yul\":10735:10761   */\n      swap1\n      pop\n        /* \"#utility.yul\":10807:10816   */\n      dup2\n        /* \"#utility.yul\":10801:10805   */\n      dup2\n        /* \"#utility.yul\":10797:10817   */\n      sub\n        /* \"#utility.yul\":10793:10794   */\n      0x00\n        /* \"#utility.yul\":10782:10791   */\n      dup4\n        /* \"#utility.yul\":10778:10795   */\n      add\n        /* \"#utility.yul\":10771:10818   */\n      mstore\n        /* \"#utility.yul\":10835:10966   */\n      tag_272\n        /* \"#utility.yul\":10961:10965   */\n      dup2\n        /* \"#utility.yul\":10835:10966   */\n      tag_147\n      jump\t// in\n    tag_272:\n        /* \"#utility.yul\":10827:10966   */\n      swap1\n      pop\n        /* \"#utility.yul\":10554:10973   */\n      swap2\n      swap1\n      pop\n      jump\t// out\n        /* \"#utility.yul\":10979:11152   */\n    tag_148:\n        /* \"#utility.yul\":11119:11144   */\n      0x204f776e65722063616e277420636f6e74726962757465000000000000000000\n        /* \"#utility.yul\":11115:11116   */\n      0x00\n        /* \"#utility.yul\":11107:11113   */\n      dup3\n        /* \"#utility.yul\":11103:11117   */\n      add\n        /* \"#utility.yul\":11096:11145   */\n      mstore\n        /* \"#utility.yul\":10979:11152   */\n      pop\n      jump\t// out\n        /* \"#utility.yul\":11158:11524   */\n    tag_149:\n        /* \"#utility.yul\":11300:11303   */\n      0x00\n        /* \"#utility.yul\":11321:11388   */\n      tag_275\n        /* \"#utility.yul\":11385:11387   */\n      0x17\n        /* \"#utility.yul\":11380:11383   */\n      dup4\n        /* \"#utility.yul\":11321:11388   */\n      tag_123\n      jump\t// in\n    tag_275:\n        /* \"#utility.yul\":11314:11388   */\n      swap2\n      pop\n        /* \"#utility.yul\":11397:11490   */\n      tag_276\n        /* \"#utility.yul\":11486:11489   */\n      dup3\n        /* \"#utility.yul\":11397:11490   */\n      tag_148\n      jump\t// in\n    tag_276:\n        /* \"#utility.yul\":11515:11517   */\n      0x20\n        /* \"#utility.yul\":11510:11513   */\n      dup3\n        /* \"#utility.yul\":11506:11518   */\n      add\n        /* \"#utility.yul\":11499:11518   */\n      swap1\n      pop\n        /* \"#utility.yul\":11158:11524   */\n      swap2\n      swap1\n      pop\n      jump\t// out\n        /* \"#utility.yul\":11530:11949   */\n    tag_84:\n        /* \"#utility.yul\":11696:11700   */\n      0x00\n        /* \"#utility.yul\":11734:11736   */\n      0x20\n        /* \"#utility.yul\":11723:11732   */\n      dup3\n        /* \"#utility.yul\":11719:11737   */\n      add\n        /* \"#utility.yul\":11711:11737   */\n      swap1\n      pop\n        /* \"#utility.yul\":11783:11792   */\n      dup2\n        /* \"#utility.yul\":11777:11781   */\n      dup2\n        /* \"#utility.yul\":11773:11793   */\n      sub\n        /* \"#utility.yul\":11769:11770   */\n      0x00\n        /* \"#utility.yul\":11758:11767   */\n      dup4\n        /* \"#utility.yul\":11754:11771   */\n      add\n        /* \"#utility.yul\":11747:11794   */\n      mstore\n        /* \"#utility.yul\":11811:11942   */\n      tag_278\n        /* \"#utility.yul\":11937:11941   */\n      dup2\n        /* \"#utility.yul\":11811:11942   */\n      tag_149\n      jump\t// in\n    tag_278:\n        /* \"#utility.yul\":11803:11942   */\n      swap1\n      pop\n        /* \"#utility.yul\":11530:11949   */\n      swap2\n      swap1\n      pop\n      jump\t// out\n        /* \"#utility.yul\":11955:12184   */\n    tag_150:\n        /* \"#utility.yul\":12095:12129   */\n      0x416d6f756e742063616e206e6f742062652067726561746572207468616e2067\n        /* \"#utility.yul\":12091:12092   */\n      0x00\n        /* \"#utility.yul\":12083:12089   */\n      dup3\n        /* \"#utility.yul\":12079:12093   */\n      add\n        /* \"#utility.yul\":12072:12130   */\n      mstore\n        /* \"#utility.yul\":12164:12176   */\n      0x6f616c20616d6f756e7400000000000000000000000000000000000000000000\n        /* \"#utility.yul\":12159:12161   */\n      0x20\n        /* \"#utility.yul\":12151:12157   */\n      dup3\n        /* \"#utility.yul\":12147:12162   */\n      add\n        /* \"#utility.yul\":12140:12177   */\n      mstore\n        /* \"#utility.yul\":11955:12184   */\n      pop\n      jump\t// out\n        /* \"#utility.yul\":12190:12556   */\n    tag_151:\n        /* \"#utility.yul\":12332:12335   */\n      0x00\n        /* \"#utility.yul\":12353:12420   */\n      tag_281\n        /* \"#utility.yul\":12417:12419   */\n      0x2a\n        /* \"#utility.yul\":12412:12415   */\n      dup4\n        /* \"#utility.yul\":12353:12420   */\n      tag_123\n      jump\t// in\n    tag_281:\n        /* \"#utility.yul\":12346:12420   */\n      swap2\n      pop\n        /* \"#utility.yul\":12429:12522   */\n      tag_282\n        /* \"#utility.yul\":12518:12521   */\n      dup3\n        /* \"#utility.yul\":12429:12522   */\n      tag_150\n      jump\t// in\n    tag_282:\n        /* \"#utility.yul\":12547:12549   */\n      0x40\n        /* \"#utility.yul\":12542:12545   */\n      dup3\n        /* \"#utility.yul\":12538:12550   */\n      add\n        /* \"#utility.yul\":12531:12550   */\n      swap1\n      pop\n        /* \"#utility.yul\":12190:12556   */\n      swap2\n      swap1\n      pop\n      jump\t// out\n        /* \"#utility.yul\":12562:12981   */\n    tag_87:\n        /* \"#utility.yul\":12728:12732   */\n      0x00\n        /* \"#utility.yul\":12766:12768   */\n      0x20\n        /* \"#utility.yul\":12755:12764   */\n      dup3\n        /* \"#utility.yul\":12751:12769   */\n      add\n        /* \"#utility.yul\":12743:12769   */\n      swap1\n      pop\n        /* \"#utility.yul\":12815:12824   */\n      dup2\n        /* \"#utility.yul\":12809:12813   */\n      dup2\n        /* \"#utility.yul\":12805:12825   */\n      sub\n        /* \"#utility.yul\":12801:12802   */\n      0x00\n        /* \"#utility.yul\":12790:12799   */\n      dup4\n        /* \"#utility.yul\":12786:12803   */\n      add\n        /* \"#utility.yul\":12779:12826   */\n      mstore\n        /* \"#utility.yul\":12843:12974   */\n      tag_284\n        /* \"#utility.yul\":12969:12973   */\n      dup2\n        /* \"#utility.yul\":12843:12974   */\n      tag_151\n      jump\t// in\n    tag_284:\n        /* \"#utility.yul\":12835:12974   */\n      swap1\n      pop\n        /* \"#utility.yul\":12562:12981   */\n      swap2\n      swap1\n      pop\n      jump\t// out\n        /* \"#utility.yul\":12987:13178   */\n    tag_89:\n        /* \"#utility.yul\":13027:13030   */\n      0x00\n        /* \"#utility.yul\":13046:13066   */\n      tag_286\n        /* \"#utility.yul\":13064:13065   */\n      dup3\n        /* \"#utility.yul\":13046:13066   */\n      tag_119\n      jump\t// in\n    tag_286:\n        /* \"#utility.yul\":13041:13066   */\n      swap2\n      pop\n        /* \"#utility.yul\":13080:13100   */\n      tag_287\n        /* \"#utility.yul\":13098:13099   */\n      dup4\n        /* \"#utility.yul\":13080:13100   */\n      tag_119\n      jump\t// in\n    tag_287:\n        /* \"#utility.yul\":13075:13100   */\n      swap3\n      pop\n        /* \"#utility.yul\":13123:13124   */\n      dup3\n        /* \"#utility.yul\":13120:13121   */\n      dup3\n        /* \"#utility.yul\":13116:13125   */\n      add\n        /* \"#utility.yul\":13109:13125   */\n      swap1\n      pop\n        /* \"#utility.yul\":13144:13147   */\n      dup1\n        /* \"#utility.yul\":13141:13142   */\n      dup3\n        /* \"#utility.yul\":13138:13148   */\n      gt\n        /* \"#utility.yul\":13135:13171   */\n      iszero\n      tag_288\n      jumpi\n        /* \"#utility.yul\":13151:13169   */\n      tag_289\n      tag_143\n      jump\t// in\n    tag_289:\n        /* \"#utility.yul\":13135:13171   */\n    tag_288:\n        /* \"#utility.yul\":12987:13178   */\n      swap3\n      swap2\n      pop\n      pop\n      jump\t// out\n        /* \"#utility.yul\":13184:13325   */\n    tag_152:\n        /* \"#utility.yul\":13233:13237   */\n      0x00\n        /* \"#utility.yul\":13256:13259   */\n      dup2\n        /* \"#utility.yul\":13248:13259   */\n      swap1\n      pop\n        /* \"#utility.yul\":13279:13282   */\n      dup2\n        /* \"#utility.yul\":13276:13277   */\n      0x00\n        /* \"#utility.yul\":13269:13283   */\n      mstore\n        /* \"#utility.yul\":13313:13317   */\n      0x20\n        /* \"#utility.yul\":13310:13311   */\n      0x00\n        /* \"#utility.yul\":13300:13318   */\n      keccak256\n        /* \"#utility.yul\":13292:13318   */\n      swap1\n      pop\n        /* \"#utility.yul\":13184:13325   */\n      swap2\n      swap1\n      pop\n      jump\t// out\n        /* \"#utility.yul\":13331:13424   */\n    tag_153:\n        /* \"#utility.yul\":13368:13374   */\n      0x00\n        /* \"#utility.yul\":13415:13417   */\n      0x20\n        /* \"#utility.yul\":13410:13412   */\n      0x1f\n        /* \"#utility.yul\":13403:13408   */\n      dup4\n        /* \"#utility.yul\":13399:13413   */\n      add\n        /* \"#utility.yul\":13395:13418   */\n      div\n        /* \"#utility.yul\":13385:13418   */\n      swap1\n      pop\n        /* \"#utility.yul\":13331:13424   */\n      swap2\n      swap1\n      pop\n      jump\t// out\n        /* \"#utility.yul\":13430:13537   */\n    tag_154:\n        /* \"#utility.yul\":13474:13482   */\n      0x00\n        /* \"#utility.yul\":13524:13529   */\n      dup3\n        /* \"#utility.yul\":13518:13522   */\n      dup3\n        /* \"#utility.yul\":13514:13530   */\n      shl\n        /* \"#utility.yul\":13493:13530   */\n      swap1\n      pop\n        /* \"#utility.yul\":13430:13537   */\n      swap3\n      swap2\n      pop\n      pop\n      jump\t// out\n        /* \"#utility.yul\":13543:13936   */\n    tag_155:\n        /* \"#utility.yul\":13612:13618   */\n      0x00\n        /* \"#utility.yul\":13662:13663   */\n      0x08\n        /* \"#utility.yul\":13650:13660   */\n      dup4\n        /* \"#utility.yul\":13646:13664   */\n      mul\n        /* \"#utility.yul\":13685:13782   */\n      tag_294\n        /* \"#utility.yul\":13715:13781   */\n      0xffffffffffffffffffffffffffffffffffffffffffffffffffffffffffffffff\n        /* \"#utility.yul\":13704:13713   */\n      dup3\n        /* \"#utility.yul\":13685:13782   */\n      tag_154\n      jump\t// in\n    tag_294:\n        /* \"#utility.yul\":13803:13842   */\n      tag_295\n        /* \"#utility.yul\":13833:13841   */\n      dup7\n        /* \"#utility.yul\":13822:13831   */\n      dup4\n        /* \"#utility.yul\":13803:13842   */\n      tag_154\n      jump\t// in\n    tag_295:\n        /* \"#utility.yul\":13791:13842   */\n      swap6\n      pop\n        /* \"#utility.yul\":13875:13879   */\n      dup1\n        /* \"#utility.yul\":13871:13880   */\n      not\n        /* \"#utility.yul\":13864:13869   */\n      dup5\n        /* \"#utility.yul\":13860:13881   */\n      and\n        /* \"#utility.yul\":13851:13881   */\n      swap4\n      pop\n        /* \"#utility.yul\":13924:13928   */\n      dup1\n        /* \"#utility.yul\":13914:13922   */\n      dup7\n        /* \"#utility.yul\":13910:13929   */\n      and\n        /* \"#utility.yul\":13903:13908   */\n      dup5\n        /* \"#utility.yul\":13900:13930   */\n      or\n        /* \"#utility.yul\":13890:13930   */\n      swap3\n      pop\n        /* \"#utility.yul\":13619:13936   */\n      pop\n      pop\n        /* \"#utility.yul\":13543:13936   */\n      swap4\n      swap3\n      pop\n      pop\n      pop\n      jump\t// out\n        /* \"#utility.yul\":13942:14002   */\n    tag_156:\n        /* \"#utility.yul\":13970:13973   */\n      0x00\n        /* \"#utility.yul\":13991:13996   */\n      dup2\n        /* \"#utility.yul\":13984:13996   */\n      swap1\n      pop\n        /* \"#utility.yul\":13942:14002   */\n      swap2\n      swap1\n      pop\n      jump\t// out\n        /* \"#utility.yul\":14008:14150   */\n    tag_157:\n        /* \"#utility.yul\":14058:14067   */\n      0x00\n        /* \"#utility.yul\":14091:14144   */\n      tag_298\n        /* \"#utility.yul\":14109:14143   */\n      tag_299\n        /* \"#utility.yul\":14118:14142   */\n      tag_300\n        /* \"#utility.yul\":14136:14141   */\n      dup5\n        /* \"#utility.yul\":14118:14142   */\n      tag_119\n      jump\t// in\n    tag_300:\n        /* \"#utility.yul\":14109:14143   */\n      tag_156\n      jump\t// in\n    tag_299:\n        /* \"#utility.yul\":14091:14144   */\n      tag_119\n      jump\t// in\n    tag_298:\n        /* \"#utility.yul\":14078:14144   */\n      swap1\n      pop\n        /* \"#utility.yul\":14008:14150   */\n      swap2\n      swap1\n      pop\n      jump\t// out\n        /* \"#utility.yul\":14156:14231   */\n    tag_158:\n        /* \"#utility.yul\":14199:14202   */\n      0x00\n        /* \"#utility.yul\":14220:14225   */\n      dup2\n        /* \"#utility.yul\":14213:14225   */\n      swap1\n      pop\n        /* \"#utility.yul\":14156:14231   */\n      swap2\n      swap1\n      pop\n      jump\t// out\n        /* \"#utility.yul\":14237:14506   */\n    tag_159:\n        /* \"#utility.yul\":14347:14386   */\n      tag_303\n        /* \"#utility.yul\":14378:14385   */\n      dup4\n        /* \"#utility.yul\":14347:14386   */\n      tag_157\n      jump\t// in\n    tag_303:\n        /* \"#utility.yul\":14408:14499   */\n      tag_304\n        /* \"#utility.yul\":14457:14498   */\n      tag_305\n        /* \"#utility.yul\":14481:14497   */\n      dup3\n        /* \"#utility.yul\":14457:14498   */\n      tag_158\n      jump\t// in\n    tag_305:\n        /* \"#utility.yul\":14449:14455   */\n      dup5\n        /* \"#utility.yul\":14442:14446   */\n      dup5\n        /* \"#utility.yul\":14436:14447   */\n      sload\n        /* \"#utility.yul\":14408:14499   */\n      tag_155\n      jump\t// in\n    tag_304:\n        /* \"#utility.yul\":14402:14406   */\n      dup3\n        /* \"#utility.yul\":14395:14500   */\n      sstore\n        /* \"#utility.yul\":14313:14506   */\n      pop\n        /* \"#utility.yul\":14237:14506   */\n      pop\n      pop\n      pop\n      jump\t// out\n        /* \"#utility.yul\":14512:14585   */\n    tag_160:\n        /* \"#utility.yul\":14557:14560   */\n      0x00\n        /* \"#utility.yul\":14512:14585   */\n      swap1\n      jump\t// out\n        /* \"#utility.yul\":14591:14780   */\n    tag_161:\n        /* \"#utility.yul\":14668:14700   */\n      tag_308\n      tag_160\n      jump\t// in\n    tag_308:\n        /* \"#utility.yul\":14709:14774   */\n      tag_309\n        /* \"#utility.yul\":14767:14773   */\n      dup2\n        /* \"#utility.yul\":14759:14765   */\n      dup5\n        /* \"#utility.yul\":14753:14757   */\n      dup5\n        /* \"#utility.yul\":14709:14774   */\n      tag_159\n      jump\t// in\n    tag_309:\n        /* \"#utility.yul\":14644:14780   */\n      pop\n        /* \"#utility.yul\":14591:14780   */\n      pop\n      pop\n      jump\t// out\n        /* \"#utility.yul\":14786:14972   */\n    tag_162:\n        /* \"#utility.yul\":14846:14966   */\n    tag_311:\n        /* \"#utility.yul\":14863:14866   */\n      dup2\n        /* \"#utility.yul\":14856:14861   */\n      dup2\n        /* \"#utility.yul\":14853:14867   */\n      lt\n        /* \"#utility.yul\":14846:14966   */\n      iszero\n      tag_313\n      jumpi\n        /* \"#utility.yul\":14917:14956   */\n      tag_314\n        /* \"#utility.yul\":14954:14955   */\n      0x00\n        /* \"#utility.yul\":14947:14952   */\n      dup3\n        /* \"#utility.yul\":14917:14956   */\n      tag_161\n      jump\t// in\n    tag_314:\n        /* \"#utility.yul\":14890:14891   */\n      0x01\n        /* \"#utility.yul\":14883:14888   */\n      dup2\n        /* \"#utility.yul\":14879:14892   */\n      add\n        /* \"#utility.yul\":14870:14892   */\n      swap1\n      pop\n        /* \"#utility.yul\":14846:14966   */\n      jump(tag_311)\n    tag_313:\n        /* \"#utility.yul\":14786:14972   */\n      pop\n      pop\n      jump\t// out\n        /* \"#utility.yul\":14978:15521   */\n    tag_163:\n        /* \"#utility.yul\":15079:15081   */\n      0x1f\n        /* \"#utility.yul\":15074:15077   */\n      dup3\n        /* \"#utility.yul\":15071:15082   */\n      gt\n        /* \"#utility.yul\":15068:15514   */\n      iszero\n      tag_316\n      jumpi\n        /* \"#utility.yul\":15113:15151   */\n      tag_317\n        /* \"#utility.yul\":15145:15150   */\n      dup2\n        /* \"#utility.yul\":15113:15151   */\n      tag_152\n      jump\t// in\n    tag_317:\n        /* \"#utility.yul\":15197:15226   */\n      tag_318\n        /* \"#utility.yul\":15215:15225   */\n      dup5\n        /* \"#utility.yul\":15197:15226   */\n      tag_153\n      jump\t// in\n    tag_318:\n        /* \"#utility.yul\":15187:15195   */\n      dup2\n        /* \"#utility.yul\":15183:15227   */\n      add\n        /* \"#utility.yul\":15380:15382   */\n      0x20\n        /* \"#utility.yul\":15368:15378   */\n      dup6\n        /* \"#utility.yul\":15365:15383   */\n      lt\n        /* \"#utility.yul\":15362:15411   */\n      iszero\n      tag_319\n      jumpi\n        /* \"#utility.yul\":15401:15409   */\n      dup2\n        /* \"#utility.yul\":15386:15409   */\n      swap1\n      pop\n        /* \"#utility.yul\":15362:15411   */\n    tag_319:\n        /* \"#utility.yul\":15424:15504   */\n      tag_320\n        /* \"#utility.yul\":15480:15502   */\n      tag_321\n        /* \"#utility.yul\":15498:15501   */\n      dup6\n        /* \"#utility.yul\":15480:15502   */\n      tag_153\n      jump\t// in\n    tag_321:\n        /* \"#utility.yul\":15470:15478   */\n      dup4\n        /* \"#utility.yul\":15466:15503   */\n      add\n        /* \"#utility.yul\":15453:15464   */\n      dup3\n        /* \"#utility.yul\":15424:15504   */\n      tag_162\n      jump\t// in\n    tag_320:\n        /* \"#utility.yul\":15083:15514   */\n      pop\n      pop\n        /* \"#utility.yul\":15068:15514   */\n    tag_316:\n        /* \"#utility.yul\":14978:15521   */\n      pop\n      pop\n      pop\n      jump\t// out\n        /* \"#utility.yul\":15527:15644   */\n    tag_164:\n        /* \"#utility.yul\":15581:15589   */\n      0x00\n        /* \"#utility.yul\":15631:15636   */\n      dup3\n        /* \"#utility.yul\":15625:15629   */\n      dup3\n        /* \"#utility.yul\":15621:15637   */\n      shr\n        /* \"#utility.yul\":15600:15637   */\n      swap1\n      pop\n        /* \"#utility.yul\":15527:15644   */\n      swap3\n      swap2\n      pop\n      pop\n      jump\t// out\n        /* \"#utility.yul\":15650:15819   */\n    tag_165:\n        /* \"#utility.yul\":15694:15700   */\n      0x00\n        /* \"#utility.yul\":15727:15778   */\n      tag_324\n        /* \"#utility.yul\":15775:15776   */\n      0x00\n        /* \"#utility.yul\":15771:15777   */\n      not\n        /* \"#utility.yul\":15763:15768   */\n      dup5\n        /* \"#utility.yul\":15760:15761   */\n      0x08\n        /* \"#utility.yul\":15756:15769   */\n      mul\n        /* \"#utility.yul\":15727:15778   */\n      tag_164\n      jump\t// in\n    tag_324:\n        /* \"#utility.yul\":15723:15779   */\n      not\n        /* \"#utility.yul\":15808:15812   */\n      dup1\n        /* \"#utility.yul\":15802:15806   */\n      dup4\n        /* \"#utility.yul\":15798:15813   */\n      and\n        /* \"#utility.yul\":15788:15813   */\n      swap2\n      pop\n        /* \"#utility.yul\":15701:15819   */\n      pop\n        /* \"#utility.yul\":15650:15819   */\n      swap3\n      swap2\n      pop\n      pop\n      jump\t// out\n        /* \"#utility.yul\":15824:16119   */\n    tag_166:\n        /* \"#utility.yul\":15900:15904   */\n      0x00\n        /* \"#utility.yul\":16046:16075   */\n      tag_326\n        /* \"#utility.yul\":16071:16074   */\n      dup4\n        /* \"#utility.yul\":16065:16069   */\n      dup4\n        /* \"#utility.yul\":16046:16075   */\n      tag_165\n      jump\t// in\n    tag_326:\n        /* \"#utility.yul\":16038:16075   */\n      swap2\n      pop\n        /* \"#utility.yul\":16108:16111   */\n      dup3\n        /* \"#utility.yul\":16105:16106   */\n      0x02\n        /* \"#utility.yul\":16101:16112   */\n      mul\n        /* \"#utility.yul\":16095:16099   */\n      dup3\n        /* \"#utility.yul\":16092:16113   */\n      or\n        /* \"#utility.yul\":16084:16113   */\n      swap1\n      pop\n        /* \"#utility.yul\":15824:16119   */\n      swap3\n      swap2\n      pop\n      pop\n      jump\t// out\n        /* \"#utility.yul\":16124:17519   */\n    tag_113:\n        /* \"#utility.yul\":16241:16278   */\n      tag_328\n        /* \"#utility.yul\":16274:16277   */\n      dup3\n        /* \"#utility.yul\":16241:16278   */\n      tag_122\n      jump\t// in\n    tag_328:\n        /* \"#utility.yul\":16343:16361   */\n      0xffffffffffffffff\n        /* \"#utility.yul\":16335:16341   */\n      dup2\n        /* \"#utility.yul\":16332:16362   */\n      gt\n        /* \"#utility.yul\":16329:16385   */\n      iszero\n      tag_329\n      jumpi\n        /* \"#utility.yul\":16365:16383   */\n      tag_330\n      tag_133\n      jump\t// in\n    tag_330:\n        /* \"#utility.yul\":16329:16385   */\n    tag_329:\n        /* \"#utility.yul\":16409:16447   */\n      tag_331\n        /* \"#utility.yul\":16441:16445   */\n      dup3\n        /* \"#utility.yul\":16435:16446   */\n      sload\n        /* \"#utility.yul\":16409:16447   */\n      tag_34\n      jump\t// in\n    tag_331:\n        /* \"#utility.yul\":16494:16561   */\n      tag_332\n        /* \"#utility.yul\":16554:16560   */\n      dup3\n        /* \"#utility.yul\":16546:16552   */\n      dup3\n        /* \"#utility.yul\":16540:16544   */\n      dup6\n        /* \"#utility.yul\":16494:16561   */\n      tag_163\n      jump\t// in\n    tag_332:\n        /* \"#utility.yul\":16588:16589   */\n      0x00\n        /* \"#utility.yul\":16612:16616   */\n      0x20\n        /* \"#utility.yul\":16599:16616   */\n      swap1\n      pop\n        /* \"#utility.yul\":16644:16646   */\n      0x1f\n        /* \"#utility.yul\":16636:16642   */\n      dup4\n        /* \"#utility.yul\":16633:16647   */\n      gt\n        /* \"#utility.yul\":16661:16662   */\n      0x01\n        /* \"#utility.yul\":16656:17274   */\n      dup2\n      eq\n      tag_334\n      jumpi\n        /* \"#utility.yul\":17318:17319   */\n      0x00\n        /* \"#utility.yul\":17335:17341   */\n      dup5\n        /* \"#utility.yul\":17332:17409   */\n      iszero\n      tag_335\n      jumpi\n        /* \"#utility.yul\":17384:17393   */\n      dup3\n        /* \"#utility.yul\":17379:17382   */\n      dup8\n        /* \"#utility.yul\":17375:17394   */\n      add\n        /* \"#utility.yul\":17369:17395   */\n      mload\n        /* \"#utility.yul\":17360:17395   */\n      swap1\n      pop\n        /* \"#utility.yul\":17332:17409   */\n    tag_335:\n        /* \"#utility.yul\":17435:17502   */\n      tag_336\n        /* \"#utility.yul\":17495:17501   */\n      dup6\n        /* \"#utility.yul\":17488:17493   */\n      dup3\n        /* \"#utility.yul\":17435:17502   */\n      tag_166\n      jump\t// in\n    tag_336:\n        /* \"#utility.yul\":17429:17433   */\n      dup7\n        /* \"#utility.yul\":17422:17503   */\n      sstore\n        /* \"#utility.yul\":17291:17513   */\n      pop\n        /* \"#utility.yul\":16626:17513   */\n      jump(tag_333)\n        /* \"#utility.yul\":16656:17274   */\n    tag_334:\n        /* \"#utility.yul\":16708:16712   */\n      0x1f\n        /* \"#utility.yul\":16704:16713   */\n      not\n        /* \"#utility.yul\":16696:16702   */\n      dup5\n        /* \"#utility.yul\":16692:16714   */\n      and\n        /* \"#utility.yul\":16742:16779   */\n      tag_337\n        /* \"#utility.yul\":16774:16778   */\n      dup7\n        /* \"#utility.yul\":16742:16779   */\n      tag_152\n      jump\t// in\n    tag_337:\n        /* \"#utility.yul\":16801:16802   */\n      0x00\n        /* \"#utility.yul\":16815:17023   */\n    tag_338:\n        /* \"#utility.yul\":16829:16836   */\n      dup3\n        /* \"#utility.yul\":16826:16827   */\n      dup2\n        /* \"#utility.yul\":16823:16837   */\n      lt\n        /* \"#utility.yul\":16815:17023   */\n      iszero\n      tag_340\n      jumpi\n        /* \"#utility.yul\":16908:16917   */\n      dup5\n        /* \"#utility.yul\":16903:16906   */\n      dup10\n        /* \"#utility.yul\":16899:16918   */\n      add\n        /* \"#utility.yul\":16893:16919   */\n      mload\n        /* \"#utility.yul\":16885:16891   */\n      dup3\n        /* \"#utility.yul\":16878:16920   */\n      sstore\n        /* \"#utility.yul\":16959:16960   */\n      0x01\n        /* \"#utility.yul\":16951:16957   */\n      dup3\n        /* \"#utility.yul\":16947:16961   */\n      add\n        /* \"#utility.yul\":16937:16961   */\n      swap2\n      pop\n        /* \"#utility.yul\":17006:17008   */\n      0x20\n        /* \"#utility.yul\":16995:17004   */\n      dup6\n        /* \"#utility.yul\":16991:17009   */\n      add\n        /* \"#utility.yul\":16978:17009   */\n      swap5\n      pop\n        /* \"#utility.yul\":16852:16856   */\n      0x20\n        /* \"#utility.yul\":16849:16850   */\n      dup2\n        /* \"#utility.yul\":16845:16857   */\n      add\n        /* \"#utility.yul\":16840:16857   */\n      swap1\n      pop\n        /* \"#utility.yul\":16815:17023   */\n      jump(tag_338)\n    tag_340:\n        /* \"#utility.yul\":17051:17057   */\n      dup7\n        /* \"#utility.yul\":17042:17049   */\n      dup4\n        /* \"#utility.yul\":17039:17058   */\n      lt\n        /* \"#utility.yul\":17036:17215   */\n      iszero\n      tag_341\n      jumpi\n        /* \"#utility.yul\":17109:17118   */\n      dup5\n        /* \"#utility.yul\":17104:17107   */\n      dup10\n        /* \"#utility.yul\":17100:17119   */\n      add\n        /* \"#utility.yul\":17094:17120   */\n      mload\n        /* \"#utility.yul\":17152:17200   */\n      tag_342\n        /* \"#utility.yul\":17194:17198   */\n      0x1f\n        /* \"#utility.yul\":17186:17192   */\n      dup10\n        /* \"#utility.yul\":17182:17199   */\n      and\n        /* \"#utility.yul\":17171:17180   */\n      dup3\n        /* \"#utility.yul\":17152:17200   */\n      tag_165\n      jump\t// in\n    tag_342:\n        /* \"#utility.yul\":17144:17150   */\n      dup4\n        /* \"#utility.yul\":17137:17201   */\n      sstore\n        /* \"#utility.yul\":17059:17215   */\n      pop\n        /* \"#utility.yul\":17036:17215   */\n    tag_341:\n        /* \"#utility.yul\":17261:17262   */\n      0x01\n        /* \"#utility.yul\":17257:17258   */\n      0x02\n        /* \"#utility.yul\":17249:17255   */\n      dup9\n        /* \"#utility.yul\":17245:17259   */\n      mul\n        /* \"#utility.yul\":17241:17263   */\n      add\n        /* \"#utility.yul\":17235:17239   */\n      dup9\n        /* \"#utility.yul\":17228:17264   */\n      sstore\n        /* \"#utility.yul\":16663:17274   */\n      pop\n      pop\n      pop\n        /* \"#utility.yul\":16626:17513   */\n    tag_333:\n      pop\n        /* \"#utility.yul\":16216:17519   */\n      pop\n      pop\n      pop\n        /* \"#utility.yul\":16124:17519   */\n      pop\n      pop\n      jump\t// out\n\n    auxdata: 0xa2646970667358221220281885bcf85d4a5bc4acbf1adb8ae3295d85576390b22d962d194c6d57721e0d64736f6c63430008120033\n}\n",
				"bytecode": {
					"linkReferences": {},
					"object": "608060405234801561001057600080fd5b5061161c806100206000396000f3fe6080604052600436106100555760003560e01c806333b8c62a1461005a57806338e22afc1461009c5780639ea5cb11146100b8578063c1cbbca7146100e1578063d6734822146100fd578063ec939ae414610119575b600080fd5b34801561006657600080fd5b50610081600480360381019061007c9190610c62565b610142565b60405161009396959493929190610d6f565b60405180910390f35b6100b660048036038101906100b19190610c62565b6102ae565b005b3480156100c457600080fd5b506100df60048036038101906100da9190610c62565b610443565b005b6100fb60048036038101906100f69190610c62565b6106bc565b005b61011760048036038101906101129190610c62565b6108f7565b005b34801561012557600080fd5b50610140600480360381019061013b9190610f13565b610b17565b005b600160205280600052604060002060009150905080600001805461016590610ff5565b80601f016020809104026020016040519081016040528092919081815260200182805461019190610ff5565b80156101de5780601f106101b3576101008083540402835291602001916101de565b820191906000526020600020905b8154815290600101906020018083116101c157829003601f168201915b5050505050908060010180546101f390610ff5565b80601f016020809104026020016040519081016040528092919081815260200182805461021f90610ff5565b801561026c5780601f106102415761010080835404028352916020019161026c565b820191906000526020600020905b81548152906001019060200180831161024f57829003601f168201915b5050505050908060020154908060030154908060040154908060050160009054906101000a900473ffffffffffffffffffffffffffffffffffffffff16905086565b6001600082815260200190815260200160002060050160009054906101000a900473ffffffffffffffffffffffffffffffffffffffff1673ffffffffffffffffffffffffffffffffffffffff163373ffffffffffffffffffffffffffffffffffffffff1614610352576040517f08c379a000000000000000000000000000000000000000000000000000000000815260040161034990611072565b60405180910390fd5b60005b600160008381526020019081526020016000206006018054905081101561043f576001600083815260200190815260200160002060050160009054906101000a900473ffffffffffffffffffffffffffffffffffffffff1673ffffffffffffffffffffffffffffffffffffffff166108fc6001600085815260200190815260200160002060060183815481106103ee576103ed611092565b5b9060005260206000209060020201600101549081150290604051600060405180830381858888f1935050505015801561042b573d6000803e3d6000fd5b508080610437906110f0565b915050610355565b5050565b3373ffffffffffffffffffffffffffffffffffffffff166001600083815260200190815260200160002060050160009054906101000a900473ffffffffffffffffffffffffffffffffffffffff1673ffffffffffffffffffffffffffffffffffffffff16146104e7576040517f08c379a00000000000000000000000000000000000000000000000000000000081526004016104de90611184565b60405180910390fd5b6001600082815260200190815260200160002060030154421015610540576040517f08c379a000000000000000000000000000000000000000000000000000000000815260040161053790611216565b60405180910390fd5b60005b60016000838152602001908152602001600020600601805490508110156106b85760016000838152602001908152602001600020600601818154811061058c5761058b611092565b5b906000526020600020906002020160000160009054906101000a900473ffffffffffffffffffffffffffffffffffffffff1673ffffffffffffffffffffffffffffffffffffffff166108fc6001600085815260200190815260200160002060060183815481106105ff576105fe611092565b5b9060005260206000209060020201600101549081150290604051600060405180830381858888f1935050505015801561063c573d6000803e3d6000fd5b5060016000838152602001908152602001600020600601818154811061066557610664611092565b5b9060005260206000209060020201600080820160006101000a81549073ffffffffffffffffffffffffffffffffffffffff02191690556001820160009055505080806106b0906110f0565b915050610543565b5050565b6001600082815260200190815260200160002060050160009054906101000a900473ffffffffffffffffffffffffffffffffffffffff1673ffffffffffffffffffffffffffffffffffffffff163373ffffffffffffffffffffffffffffffffffffffff1603610760576040517f08c379a000000000000000000000000000000000000000000000000000000000815260040161075790611282565b60405180910390fd5b600160008281526020019081526020016000206002015434106107b8576040517f08c379a00000000000000000000000000000000000000000000000000000000081526004016107af90611314565b60405180910390fd5b60016000828152602001908152602001600020600201543460016000848152602001908152602001600020600401546107f19190611334565b106107fb57600080fd5b6001600082815260200190815260200160002060060160405180604001604052803373ffffffffffffffffffffffffffffffffffffffff16815260200134815250908060018154018082558091505060019003906000526020600020906002020160009091909190915060008201518160000160006101000a81548173ffffffffffffffffffffffffffffffffffffffff021916908373ffffffffffffffffffffffffffffffffffffffff1602179055506020820151816001015550503460016000838152602001908152602001600020600401546108da9190611334565b600160008381526020019081526020016000206004018190555050565b3373ffffffffffffffffffffffffffffffffffffffff166001600083815260200190815260200160002060050160009054906101000a900473ffffffffffffffffffffffffffffffffffffffff1673ffffffffffffffffffffffffffffffffffffffff161461099b576040517f08c379a000000000000000000000000000000000000000000000000000000000815260040161099290611184565b60405180910390fd5b60005b6001600083815260200190815260200160002060060180549050811015610b13576001600083815260200190815260200160002060060181815481106109e7576109e6611092565b5b906000526020600020906002020160000160009054906101000a900473ffffffffffffffffffffffffffffffffffffffff1673ffffffffffffffffffffffffffffffffffffffff166108fc600160008581526020019081526020016000206006018381548110610a5a57610a59611092565b5b9060005260206000209060020201600101549081150290604051600060405180830381858888f19350505050158015610a97573d6000803e3d6000fd5b50600160008381526020019081526020016000206006018181548110610ac057610abf611092565b5b9060005260206000209060020201600080820160006101000a81549073ffffffffffffffffffffffffffffffffffffffff0219169055600182016000905550508080610b0b906110f0565b91505061099e565b5050565b83600160008781526020019081526020016000206000019081610b3a9190611514565b5082600160008781526020019081526020016000206001019081610b5e9190611514565b50816001600087815260200190815260200160002060020181905550336001600087815260200190815260200160002060050160006101000a81548173ffffffffffffffffffffffffffffffffffffffff021916908373ffffffffffffffffffffffffffffffffffffffff160217905550600060016000878152602001908152602001600020600401819055508042610bf79190611334565b60016000878152602001908152602001600020600301819055505050505050565b6000604051905090565b600080fd5b600080fd5b6000819050919050565b610c3f81610c2c565b8114610c4a57600080fd5b50565b600081359050610c5c81610c36565b92915050565b600060208284031215610c7857610c77610c22565b5b6000610c8684828501610c4d565b91505092915050565b600081519050919050565b600082825260208201905092915050565b60005b83811015610cc9578082015181840152602081019050610cae565b60008484015250505050565b6000601f19601f8301169050919050565b6000610cf182610c8f565b610cfb8185610c9a565b9350610d0b818560208601610cab565b610d1481610cd5565b840191505092915050565b610d2881610c2c565b82525050565b600073ffffffffffffffffffffffffffffffffffffffff82169050919050565b6000610d5982610d2e565b9050919050565b610d6981610d4e565b82525050565b600060c0820190508181036000830152610d898189610ce6565b90508181036020830152610d9d8188610ce6565b9050610dac6040830187610d1f565b610db96060830186610d1f565b610dc66080830185610d1f565b610dd360a0830184610d60565b979650505050505050565b600080fd5b600080fd5b7f4e487b7100000000000000000000000000000000000000000000000000000000600052604160045260246000fd5b610e2082610cd5565b810181811067ffffffffffffffff82111715610e3f57610e3e610de8565b5b80604052505050565b6000610e52610c18565b9050610e5e8282610e17565b919050565b600067ffffffffffffffff821115610e7e57610e7d610de8565b5b610e8782610cd5565b9050602081019050919050565b82818337600083830152505050565b6000610eb6610eb184610e63565b610e48565b905082815260208101848484011115610ed257610ed1610de3565b5b610edd848285610e94565b509392505050565b600082601f830112610efa57610ef9610dde565b5b8135610f0a848260208601610ea3565b91505092915050565b600080600080600060a08688031215610f2f57610f2e610c22565b5b6000610f3d88828901610c4d565b955050602086013567ffffffffffffffff811115610f5e57610f5d610c27565b5b610f6a88828901610ee5565b945050604086013567ffffffffffffffff811115610f8b57610f8a610c27565b5b610f9788828901610ee5565b9350506060610fa888828901610c4d565b9250506080610fb988828901610c4d565b9150509295509295909350565b7f4e487b7100000000000000000000000000000000000000000000000000000000600052602260045260246000fd5b6000600282049050600182168061100d57607f821691505b6020821081036110205761101f610fc6565b5b50919050565b7f204f6e6c79204f776e65722063616e2077696474686472617700000000000000600082015250565b600061105c601983610c9a565b915061106782611026565b602082019050919050565b6000602082019050818103600083015261108b8161104f565b9050919050565b7f4e487b7100000000000000000000000000000000000000000000000000000000600052603260045260246000fd5b7f4e487b7100000000000000000000000000000000000000000000000000000000600052601160045260246000fd5b60006110fb82610c2c565b91507fffffffffffffffffffffffffffffffffffffffffffffffffffffffffffffffff820361112d5761112c6110c1565b5b600182019050919050565b7f6f6e6c792063616e20726566756e640000000000000000000000000000000000600082015250565b600061116e600f83610c9a565b915061117982611138565b602082019050919050565b6000602082019050818103600083015261119d81611161565b9050919050565b7f205374696c6c206861766520736f6d652074696d65206c65667420666f72206660008201527f756e64696e672000000000000000000000000000000000000000000000000000602082015250565b6000611200602783610c9a565b915061120b826111a4565b604082019050919050565b6000602082019050818103600083015261122f816111f3565b9050919050565b7f204f776e65722063616e277420636f6e74726962757465000000000000000000600082015250565b600061126c601783610c9a565b915061127782611236565b602082019050919050565b6000602082019050818103600083015261129b8161125f565b9050919050565b7f416d6f756e742063616e206e6f742062652067726561746572207468616e206760008201527f6f616c20616d6f756e7400000000000000000000000000000000000000000000602082015250565b60006112fe602a83610c9a565b9150611309826112a2565b604082019050919050565b6000602082019050818103600083015261132d816112f1565b9050919050565b600061133f82610c2c565b915061134a83610c2c565b9250828201905080821115611362576113616110c1565b5b92915050565b60008190508160005260206000209050919050565b60006020601f8301049050919050565b600082821b905092915050565b6000600883026113ca7fffffffffffffffffffffffffffffffffffffffffffffffffffffffffffffffff8261138d565b6113d4868361138d565b95508019841693508086168417925050509392505050565b6000819050919050565b600061141161140c61140784610c2c565b6113ec565b610c2c565b9050919050565b6000819050919050565b61142b836113f6565b61143f61143782611418565b84845461139a565b825550505050565b600090565b611454611447565b61145f818484611422565b505050565b5b818110156114835761147860008261144c565b600181019050611465565b5050565b601f8211156114c85761149981611368565b6114a28461137d565b810160208510156114b1578190505b6114c56114bd8561137d565b830182611464565b50505b505050565b600082821c905092915050565b60006114eb600019846008026114cd565b1980831691505092915050565b600061150483836114da565b9150826002028217905092915050565b61151d82610c8f565b67ffffffffffffffff81111561153657611535610de8565b5b6115408254610ff5565b61154b828285611487565b600060209050601f83116001811461157e576000841561156c578287015190505b61157685826114f8565b8655506115de565b601f19841661158c86611368565b60005b828110156115b45784890151825560018201915060208501945060208101905061158f565b868310156115d157848901516115cd601f8916826114da565b8355505b6001600288020188555050505b50505050505056fea2646970667358221220281885bcf85d4a5bc4acbf1adb8ae3295d85576390b22d962d194c6d57721e0d64736f6c63430008120033",
					"opcodes": "PUSH1 0x80 PUSH1 0x40 MSTORE CALLVALUE DUP1 ISZERO PUSH2 0x10 JUMPI PUSH1 0x0 DUP1 REVERT JUMPDEST POP PUSH2 0x161C DUP1 PUSH2 0x20 PUSH1 0x0 CODECOPY PUSH1 0x0 RETURN INVALID PUSH1 0x80 PUSH1 0x40 MSTORE PUSH1 0x4 CALLDATASIZE LT PUSH2 0x55 JUMPI PUSH1 0x0 CALLDATALOAD PUSH1 0xE0 SHR DUP1 PUSH4 0x33B8C62A EQ PUSH2 0x5A JUMPI DUP1 PUSH4 0x38E22AFC EQ PUSH2 0x9C JUMPI DUP1 PUSH4 0x9EA5CB11 EQ PUSH2 0xB8 JUMPI DUP1 PUSH4 0xC1CBBCA7 EQ PUSH2 0xE1 JUMPI DUP1 PUSH4 0xD6734822 EQ PUSH2 0xFD JUMPI DUP1 PUSH4 0xEC939AE4 EQ PUSH2 0x119 JUMPI JUMPDEST PUSH1 0x0 DUP1 REVERT JUMPDEST CALLVALUE DUP1 ISZERO PUSH2 0x66 JUMPI PUSH1 0x0 DUP1 REVERT JUMPDEST POP PUSH2 0x81 PUSH1 0x4 DUP1 CALLDATASIZE SUB DUP2 ADD SWAP1 PUSH2 0x7C SWAP2 SWAP1 PUSH2 0xC62 JUMP JUMPDEST PUSH2 0x142 JUMP JUMPDEST PUSH1 0x40 MLOAD PUSH2 0x93 SWAP7 SWAP6 SWAP5 SWAP4 SWAP3 SWAP2 SWAP1 PUSH2 0xD6F JUMP JUMPDEST PUSH1 0x40 MLOAD DUP1 SWAP2 SUB SWAP1 RETURN JUMPDEST PUSH2 0xB6 PUSH1 0x4 DUP1 CALLDATASIZE SUB DUP2 ADD SWAP1 PUSH2 0xB1 SWAP2 SWAP1 PUSH2 0xC62 JUMP JUMPDEST PUSH2 0x2AE JUMP JUMPDEST STOP JUMPDEST CALLVALUE DUP1 ISZERO PUSH2 0xC4 JUMPI PUSH1 0x0 DUP1 REVERT JUMPDEST POP PUSH2 0xDF PUSH1 0x4 DUP1 CALLDATASIZE SUB DUP2 ADD SWAP1 PUSH2 0xDA SWAP2 SWAP1 PUSH2 0xC62 JUMP JUMPDEST PUSH2 0x443 JUMP JUMPDEST STOP JUMPDEST PUSH2 0xFB PUSH1 0x4 DUP1 CALLDATASIZE SUB DUP2 ADD SWAP1 PUSH2 0xF6 SWAP2 SWAP1 PUSH2 0xC62 JUMP JUMPDEST PUSH2 0x6BC JUMP JUMPDEST STOP JUMPDEST PUSH2 0x117 PUSH1 0x4 DUP1 CALLDATASIZE SUB DUP2 ADD SWAP1 PUSH2 0x112 SWAP2 SWAP1 PUSH2 0xC62 JUMP JUMPDEST PUSH2 0x8F7 JUMP JUMPDEST STOP JUMPDEST CALLVALUE DUP1 ISZERO PUSH2 0x125 JUMPI PUSH1 0x0 DUP1 REVERT JUMPDEST POP PUSH2 0x140 PUSH1 0x4 DUP1 CALLDATASIZE SUB DUP2 ADD SWAP1 PUSH2 0x13B SWAP2 SWAP1 PUSH2 0xF13 JUMP JUMPDEST PUSH2 0xB17 JUMP JUMPDEST STOP JUMPDEST PUSH1 0x1 PUSH1 0x20 MSTORE DUP1 PUSH1 0x0 MSTORE PUSH1 0x40 PUSH1 0x0 KECCAK256 PUSH1 0x0 SWAP2 POP SWAP1 POP DUP1 PUSH1 0x0 ADD DUP1 SLOAD PUSH2 0x165 SWAP1 PUSH2 0xFF5 JUMP JUMPDEST DUP1 PUSH1 0x1F ADD PUSH1 0x20 DUP1 SWAP2 DIV MUL PUSH1 0x20 ADD PUSH1 0x40 MLOAD SWAP1 DUP2 ADD PUSH1 0x40 MSTORE DUP1 SWAP3 SWAP2 SWAP1 DUP2 DUP2 MSTORE PUSH1 0x20 ADD DUP3 DUP1 SLOAD PUSH2 0x191 SWAP1 PUSH2 0xFF5 JUMP JUMPDEST DUP1 ISZERO PUSH2 0x1DE JUMPI DUP1 PUSH1 0x1F LT PUSH2 0x1B3 JUMPI PUSH2 0x100 DUP1 DUP4 SLOAD DIV MUL DUP4 MSTORE SWAP2 PUSH1 0x20 ADD SWAP2 PUSH2 0x1DE JUMP JUMPDEST DUP3 ADD SWAP2 SWAP1 PUSH1 0x0 MSTORE PUSH1 0x20 PUSH1 0x0 KECCAK256 SWAP1 JUMPDEST DUP2 SLOAD DUP2 MSTORE SWAP1 PUSH1 0x1 ADD SWAP1 PUSH1 0x20 ADD DUP1 DUP4 GT PUSH2 0x1C1 JUMPI DUP3 SWAP1 SUB PUSH1 0x1F AND DUP3 ADD SWAP2 JUMPDEST POP POP POP POP POP SWAP1 DUP1 PUSH1 0x1 ADD DUP1 SLOAD PUSH2 0x1F3 SWAP1 PUSH2 0xFF5 JUMP JUMPDEST DUP1 PUSH1 0x1F ADD PUSH1 0x20 DUP1 SWAP2 DIV MUL PUSH1 0x20 ADD PUSH1 0x40 MLOAD SWAP1 DUP2 ADD PUSH1 0x40 MSTORE DUP1 SWAP3 SWAP2 SWAP1 DUP2 DUP2 MSTORE PUSH1 0x20 ADD DUP3 DUP1 SLOAD PUSH2 0x21F SWAP1 PUSH2 0xFF5 JUMP JUMPDEST DUP1 ISZERO PUSH2 0x26C JUMPI DUP1 PUSH1 0x1F LT PUSH2 0x241 JUMPI PUSH2 0x100 DUP1 DUP4 SLOAD DIV MUL DUP4 MSTORE SWAP2 PUSH1 0x20 ADD SWAP2 PUSH2 0x26C JUMP JUMPDEST DUP3 ADD SWAP2 SWAP1 PUSH1 0x0 MSTORE PUSH1 0x20 PUSH1 0x0 KECCAK256 SWAP1 JUMPDEST DUP2 SLOAD DUP2 MSTORE SWAP1 PUSH1 0x1 ADD SWAP1 PUSH1 0x20 ADD DUP1 DUP4 GT PUSH2 0x24F JUMPI DUP3 SWAP1 SUB PUSH1 0x1F AND DUP3 ADD SWAP2 JUMPDEST POP POP POP POP POP SWAP1 DUP1 PUSH1 0x2 ADD SLOAD SWAP1 DUP1 PUSH1 0x3 ADD SLOAD SWAP1 DUP1 PUSH1 0x4 ADD SLOAD SWAP1 DUP1 PUSH1 0x5 ADD PUSH1 0x0 SWAP1 SLOAD SWAP1 PUSH2 0x100 EXP SWAP1 DIV PUSH20 0xFFFFFFFFFFFFFFFFFFFFFFFFFFFFFFFFFFFFFFFF AND SWAP1 POP DUP7 JUMP JUMPDEST PUSH1 0x1 PUSH1 0x0 DUP3 DUP2 MSTORE PUSH1 0x20 ADD SWAP1 DUP2 MSTORE PUSH1 0x20 ADD PUSH1 0x0 KECCAK256 PUSH1 0x5 ADD PUSH1 0x0 SWAP1 SLOAD SWAP1 PUSH2 0x100 EXP SWAP1 DIV PUSH20 0xFFFFFFFFFFFFFFFFFFFFFFFFFFFFFFFFFFFFFFFF AND PUSH20 0xFFFFFFFFFFFFFFFFFFFFFFFFFFFFFFFFFFFFFFFF AND CALLER PUSH20 0xFFFFFFFFFFFFFFFFFFFFFFFFFFFFFFFFFFFFFFFF AND EQ PUSH2 0x352 JUMPI PUSH1 0x40 MLOAD PUSH32 0x8C379A000000000000000000000000000000000000000000000000000000000 DUP2 MSTORE PUSH1 0x4 ADD PUSH2 0x349 SWAP1 PUSH2 0x1072 JUMP JUMPDEST PUSH1 0x40 MLOAD DUP1 SWAP2 SUB SWAP1 REVERT JUMPDEST PUSH1 0x0 JUMPDEST PUSH1 0x1 PUSH1 0x0 DUP4 DUP2 MSTORE PUSH1 0x20 ADD SWAP1 DUP2 MSTORE PUSH1 0x20 ADD PUSH1 0x0 KECCAK256 PUSH1 0x6 ADD DUP1 SLOAD SWAP1 POP DUP2 LT ISZERO PUSH2 0x43F JUMPI PUSH1 0x1 PUSH1 0x0 DUP4 DUP2 MSTORE PUSH1 0x20 ADD SWAP1 DUP2 MSTORE PUSH1 0x20 ADD PUSH1 0x0 KECCAK256 PUSH1 0x5 ADD PUSH1 0x0 SWAP1 SLOAD SWAP1 PUSH2 0x100 EXP SWAP1 DIV PUSH20 0xFFFFFFFFFFFFFFFFFFFFFFFFFFFFFFFFFFFFFFFF AND PUSH20 0xFFFFFFFFFFFFFFFFFFFFFFFFFFFFFFFFFFFFFFFF AND PUSH2 0x8FC PUSH1 0x1 PUSH1 0x0 DUP6 DUP2 MSTORE PUSH1 0x20 ADD SWAP1 DUP2 MSTORE PUSH1 0x20 ADD PUSH1 0x0 KECCAK256 PUSH1 0x6 ADD DUP4 DUP2 SLOAD DUP2 LT PUSH2 0x3EE JUMPI PUSH2 0x3ED PUSH2 0x1092 JUMP JUMPDEST JUMPDEST SWAP1 PUSH1 0x0 MSTORE PUSH1 0x20 PUSH1 0x0 KECCAK256 SWAP1 PUSH1 0x2 MUL ADD PUSH1 0x1 ADD SLOAD SWAP1 DUP2 ISZERO MUL SWAP1 PUSH1 0x40 MLOAD PUSH1 0x0 PUSH1 0x40 MLOAD DUP1 DUP4 SUB DUP2 DUP6 DUP9 DUP9 CALL SWAP4 POP POP POP POP ISZERO DUP1 ISZERO PUSH2 0x42B JUMPI RETURNDATASIZE PUSH1 0x0 DUP1 RETURNDATACOPY RETURNDATASIZE PUSH1 0x0 REVERT JUMPDEST POP DUP1 DUP1 PUSH2 0x437 SWAP1 PUSH2 0x10F0 JUMP JUMPDEST SWAP2 POP POP PUSH2 0x355 JUMP JUMPDEST POP POP JUMP JUMPDEST CALLER PUSH20 0xFFFFFFFFFFFFFFFFFFFFFFFFFFFFFFFFFFFFFFFF AND PUSH1 0x1 PUSH1 0x0 DUP4 DUP2 MSTORE PUSH1 0x20 ADD SWAP1 DUP2 MSTORE PUSH1 0x20 ADD PUSH1 0x0 KECCAK256 PUSH1 0x5 ADD PUSH1 0x0 SWAP1 SLOAD SWAP1 PUSH2 0x100 EXP SWAP1 DIV PUSH20 0xFFFFFFFFFFFFFFFFFFFFFFFFFFFFFFFFFFFFFFFF AND PUSH20 0xFFFFFFFFFFFFFFFFFFFFFFFFFFFFFFFFFFFFFFFF AND EQ PUSH2 0x4E7 JUMPI PUSH1 0x40 MLOAD PUSH32 0x8C379A000000000000000000000000000000000000000000000000000000000 DUP2 MSTORE PUSH1 0x4 ADD PUSH2 0x4DE SWAP1 PUSH2 0x1184 JUMP JUMPDEST PUSH1 0x40 MLOAD DUP1 SWAP2 SUB SWAP1 REVERT JUMPDEST PUSH1 0x1 PUSH1 0x0 DUP3 DUP2 MSTORE PUSH1 0x20 ADD SWAP1 DUP2 MSTORE PUSH1 0x20 ADD PUSH1 0x0 KECCAK256 PUSH1 0x3 ADD SLOAD TIMESTAMP LT ISZERO PUSH2 0x540 JUMPI PUSH1 0x40 MLOAD PUSH32 0x8C379A000000000000000000000000000000000000000000000000000000000 DUP2 MSTORE PUSH1 0x4 ADD PUSH2 0x537 SWAP1 PUSH2 0x1216 JUMP JUMPDEST PUSH1 0x40 MLOAD DUP1 SWAP2 SUB SWAP1 REVERT JUMPDEST PUSH1 0x0 JUMPDEST PUSH1 0x1 PUSH1 0x0 DUP4 DUP2 MSTORE PUSH1 0x20 ADD SWAP1 DUP2 MSTORE PUSH1 0x20 ADD PUSH1 0x0 KECCAK256 PUSH1 0x6 ADD DUP1 SLOAD SWAP1 POP DUP2 LT ISZERO PUSH2 0x6B8 JUMPI PUSH1 0x1 PUSH1 0x0 DUP4 DUP2 MSTORE PUSH1 0x20 ADD SWAP1 DUP2 MSTORE PUSH1 0x20 ADD PUSH1 0x0 KECCAK256 PUSH1 0x6 ADD DUP2 DUP2 SLOAD DUP2 LT PUSH2 0x58C JUMPI PUSH2 0x58B PUSH2 0x1092 JUMP JUMPDEST JUMPDEST SWAP1 PUSH1 0x0 MSTORE PUSH1 0x20 PUSH1 0x0 KECCAK256 SWAP1 PUSH1 0x2 MUL ADD PUSH1 0x0 ADD PUSH1 0x0 SWAP1 SLOAD SWAP1 PUSH2 0x100 EXP SWAP1 DIV PUSH20 0xFFFFFFFFFFFFFFFFFFFFFFFFFFFFFFFFFFFFFFFF AND PUSH20 0xFFFFFFFFFFFFFFFFFFFFFFFFFFFFFFFFFFFFFFFF AND PUSH2 0x8FC PUSH1 0x1 PUSH1 0x0 DUP6 DUP2 MSTORE PUSH1 0x20 ADD SWAP1 DUP2 MSTORE PUSH1 0x20 ADD PUSH1 0x0 KECCAK256 PUSH1 0x6 ADD DUP4 DUP2 SLOAD DUP2 LT PUSH2 0x5FF JUMPI PUSH2 0x5FE PUSH2 0x1092 JUMP JUMPDEST JUMPDEST SWAP1 PUSH1 0x0 MSTORE PUSH1 0x20 PUSH1 0x0 KECCAK256 SWAP1 PUSH1 0x2 MUL ADD PUSH1 0x1 ADD SLOAD SWAP1 DUP2 ISZERO MUL SWAP1 PUSH1 0x40 MLOAD PUSH1 0x0 PUSH1 0x40 MLOAD DUP1 DUP4 SUB DUP2 DUP6 DUP9 DUP9 CALL SWAP4 POP POP POP POP ISZERO DUP1 ISZERO PUSH2 0x63C JUMPI RETURNDATASIZE PUSH1 0x0 DUP1 RETURNDATACOPY RETURNDATASIZE PUSH1 0x0 REVERT JUMPDEST POP PUSH1 0x1 PUSH1 0x0 DUP4 DUP2 MSTORE PUSH1 0x20 ADD SWAP1 DUP2 MSTORE PUSH1 0x20 ADD PUSH1 0x0 KECCAK256 PUSH1 0x6 ADD DUP2 DUP2 SLOAD DUP2 LT PUSH2 0x665 JUMPI PUSH2 0x664 PUSH2 0x1092 JUMP JUMPDEST JUMPDEST SWAP1 PUSH1 0x0 MSTORE PUSH1 0x20 PUSH1 0x0 KECCAK256 SWAP1 PUSH1 0x2 MUL ADD PUSH1 0x0 DUP1 DUP3 ADD PUSH1 0x0 PUSH2 0x100 EXP DUP2 SLOAD SWAP1 PUSH20 0xFFFFFFFFFFFFFFFFFFFFFFFFFFFFFFFFFFFFFFFF MUL NOT AND SWAP1 SSTORE PUSH1 0x1 DUP3 ADD PUSH1 0x0 SWAP1 SSTORE POP POP DUP1 DUP1 PUSH2 0x6B0 SWAP1 PUSH2 0x10F0 JUMP JUMPDEST SWAP2 POP POP PUSH2 0x543 JUMP JUMPDEST POP POP JUMP JUMPDEST PUSH1 0x1 PUSH1 0x0 DUP3 DUP2 MSTORE PUSH1 0x20 ADD SWAP1 DUP2 MSTORE PUSH1 0x20 ADD PUSH1 0x0 KECCAK256 PUSH1 0x5 ADD PUSH1 0x0 SWAP1 SLOAD SWAP1 PUSH2 0x100 EXP SWAP1 DIV PUSH20 0xFFFFFFFFFFFFFFFFFFFFFFFFFFFFFFFFFFFFFFFF AND PUSH20 0xFFFFFFFFFFFFFFFFFFFFFFFFFFFFFFFFFFFFFFFF AND CALLER PUSH20 0xFFFFFFFFFFFFFFFFFFFFFFFFFFFFFFFFFFFFFFFF AND SUB PUSH2 0x760 JUMPI PUSH1 0x40 MLOAD PUSH32 0x8C379A000000000000000000000000000000000000000000000000000000000 DUP2 MSTORE PUSH1 0x4 ADD PUSH2 0x757 SWAP1 PUSH2 0x1282 JUMP JUMPDEST PUSH1 0x40 MLOAD DUP1 SWAP2 SUB SWAP1 REVERT JUMPDEST PUSH1 0x1 PUSH1 0x0 DUP3 DUP2 MSTORE PUSH1 0x20 ADD SWAP1 DUP2 MSTORE PUSH1 0x20 ADD PUSH1 0x0 KECCAK256 PUSH1 0x2 ADD SLOAD CALLVALUE LT PUSH2 0x7B8 JUMPI PUSH1 0x40 MLOAD PUSH32 0x8C379A000000000000000000000000000000000000000000000000000000000 DUP2 MSTORE PUSH1 0x4 ADD PUSH2 0x7AF SWAP1 PUSH2 0x1314 JUMP JUMPDEST PUSH1 0x40 MLOAD DUP1 SWAP2 SUB SWAP1 REVERT JUMPDEST PUSH1 0x1 PUSH1 0x0 DUP3 DUP2 MSTORE PUSH1 0x20 ADD SWAP1 DUP2 MSTORE PUSH1 0x20 ADD PUSH1 0x0 KECCAK256 PUSH1 0x2 ADD SLOAD CALLVALUE PUSH1 0x1 PUSH1 0x0 DUP5 DUP2 MSTORE PUSH1 0x20 ADD SWAP1 DUP2 MSTORE PUSH1 0x20 ADD PUSH1 0x0 KECCAK256 PUSH1 0x4 ADD SLOAD PUSH2 0x7F1 SWAP2 SWAP1 PUSH2 0x1334 JUMP JUMPDEST LT PUSH2 0x7FB JUMPI PUSH1 0x0 DUP1 REVERT JUMPDEST PUSH1 0x1 PUSH1 0x0 DUP3 DUP2 MSTORE PUSH1 0x20 ADD SWAP1 DUP2 MSTORE PUSH1 0x20 ADD PUSH1 0x0 KECCAK256 PUSH1 0x6 ADD PUSH1 0x40 MLOAD DUP1 PUSH1 0x40 ADD PUSH1 0x40 MSTORE DUP1 CALLER PUSH20 0xFFFFFFFFFFFFFFFFFFFFFFFFFFFFFFFFFFFFFFFF AND DUP2 MSTORE PUSH1 0x20 ADD CALLVALUE DUP2 MSTORE POP SWAP1 DUP1 PUSH1 0x1 DUP2 SLOAD ADD DUP1 DUP3 SSTORE DUP1 SWAP2 POP POP PUSH1 0x1 SWAP1 SUB SWAP1 PUSH1 0x0 MSTORE PUSH1 0x20 PUSH1 0x0 KECCAK256 SWAP1 PUSH1 0x2 MUL ADD PUSH1 0x0 SWAP1 SWAP2 SWAP1 SWAP2 SWAP1 SWAP2 POP PUSH1 0x0 DUP3 ADD MLOAD DUP2 PUSH1 0x0 ADD PUSH1 0x0 PUSH2 0x100 EXP DUP2 SLOAD DUP2 PUSH20 0xFFFFFFFFFFFFFFFFFFFFFFFFFFFFFFFFFFFFFFFF MUL NOT AND SWAP1 DUP4 PUSH20 0xFFFFFFFFFFFFFFFFFFFFFFFFFFFFFFFFFFFFFFFF AND MUL OR SWAP1 SSTORE POP PUSH1 0x20 DUP3 ADD MLOAD DUP2 PUSH1 0x1 ADD SSTORE POP POP CALLVALUE PUSH1 0x1 PUSH1 0x0 DUP4 DUP2 MSTORE PUSH1 0x20 ADD SWAP1 DUP2 MSTORE PUSH1 0x20 ADD PUSH1 0x0 KECCAK256 PUSH1 0x4 ADD SLOAD PUSH2 0x8DA SWAP2 SWAP1 PUSH2 0x1334 JUMP JUMPDEST PUSH1 0x1 PUSH1 0x0 DUP4 DUP2 MSTORE PUSH1 0x20 ADD SWAP1 DUP2 MSTORE PUSH1 0x20 ADD PUSH1 0x0 KECCAK256 PUSH1 0x4 ADD DUP2 SWAP1 SSTORE POP POP JUMP JUMPDEST CALLER PUSH20 0xFFFFFFFFFFFFFFFFFFFFFFFFFFFFFFFFFFFFFFFF AND PUSH1 0x1 PUSH1 0x0 DUP4 DUP2 MSTORE PUSH1 0x20 ADD SWAP1 DUP2 MSTORE PUSH1 0x20 ADD PUSH1 0x0 KECCAK256 PUSH1 0x5 ADD PUSH1 0x0 SWAP1 SLOAD SWAP1 PUSH2 0x100 EXP SWAP1 DIV PUSH20 0xFFFFFFFFFFFFFFFFFFFFFFFFFFFFFFFFFFFFFFFF AND PUSH20 0xFFFFFFFFFFFFFFFFFFFFFFFFFFFFFFFFFFFFFFFF AND EQ PUSH2 0x99B JUMPI PUSH1 0x40 MLOAD PUSH32 0x8C379A000000000000000000000000000000000000000000000000000000000 DUP2 MSTORE PUSH1 0x4 ADD PUSH2 0x992 SWAP1 PUSH2 0x1184 JUMP JUMPDEST PUSH1 0x40 MLOAD DUP1 SWAP2 SUB SWAP1 REVERT JUMPDEST PUSH1 0x0 JUMPDEST PUSH1 0x1 PUSH1 0x0 DUP4 DUP2 MSTORE PUSH1 0x20 ADD SWAP1 DUP2 MSTORE PUSH1 0x20 ADD PUSH1 0x0 KECCAK256 PUSH1 0x6 ADD DUP1 SLOAD SWAP1 POP DUP2 LT ISZERO PUSH2 0xB13 JUMPI PUSH1 0x1 PUSH1 0x0 DUP4 DUP2 MSTORE PUSH1 0x20 ADD SWAP1 DUP2 MSTORE PUSH1 0x20 ADD PUSH1 0x0 KECCAK256 PUSH1 0x6 ADD DUP2 DUP2 SLOAD DUP2 LT PUSH2 0x9E7 JUMPI PUSH2 0x9E6 PUSH2 0x1092 JUMP JUMPDEST JUMPDEST SWAP1 PUSH1 0x0 MSTORE PUSH1 0x20 PUSH1 0x0 KECCAK256 SWAP1 PUSH1 0x2 MUL ADD PUSH1 0x0 ADD PUSH1 0x0 SWAP1 SLOAD SWAP1 PUSH2 0x100 EXP SWAP1 DIV PUSH20 0xFFFFFFFFFFFFFFFFFFFFFFFFFFFFFFFFFFFFFFFF AND PUSH20 0xFFFFFFFFFFFFFFFFFFFFFFFFFFFFFFFFFFFFFFFF AND PUSH2 0x8FC PUSH1 0x1 PUSH1 0x0 DUP6 DUP2 MSTORE PUSH1 0x20 ADD SWAP1 DUP2 MSTORE PUSH1 0x20 ADD PUSH1 0x0 KECCAK256 PUSH1 0x6 ADD DUP4 DUP2 SLOAD DUP2 LT PUSH2 0xA5A JUMPI PUSH2 0xA59 PUSH2 0x1092 JUMP JUMPDEST JUMPDEST SWAP1 PUSH1 0x0 MSTORE PUSH1 0x20 PUSH1 0x0 KECCAK256 SWAP1 PUSH1 0x2 MUL ADD PUSH1 0x1 ADD SLOAD SWAP1 DUP2 ISZERO MUL SWAP1 PUSH1 0x40 MLOAD PUSH1 0x0 PUSH1 0x40 MLOAD DUP1 DUP4 SUB DUP2 DUP6 DUP9 DUP9 CALL SWAP4 POP POP POP POP ISZERO DUP1 ISZERO PUSH2 0xA97 JUMPI RETURNDATASIZE PUSH1 0x0 DUP1 RETURNDATACOPY RETURNDATASIZE PUSH1 0x0 REVERT JUMPDEST POP PUSH1 0x1 PUSH1 0x0 DUP4 DUP2 MSTORE PUSH1 0x20 ADD SWAP1 DUP2 MSTORE PUSH1 0x20 ADD PUSH1 0x0 KECCAK256 PUSH1 0x6 ADD DUP2 DUP2 SLOAD DUP2 LT PUSH2 0xAC0 JUMPI PUSH2 0xABF PUSH2 0x1092 JUMP JUMPDEST JUMPDEST SWAP1 PUSH1 0x0 MSTORE PUSH1 0x20 PUSH1 0x0 KECCAK256 SWAP1 PUSH1 0x2 MUL ADD PUSH1 0x0 DUP1 DUP3 ADD PUSH1 0x0 PUSH2 0x100 EXP DUP2 SLOAD SWAP1 PUSH20 0xFFFFFFFFFFFFFFFFFFFFFFFFFFFFFFFFFFFFFFFF MUL NOT AND SWAP1 SSTORE PUSH1 0x1 DUP3 ADD PUSH1 0x0 SWAP1 SSTORE POP POP DUP1 DUP1 PUSH2 0xB0B SWAP1 PUSH2 0x10F0 JUMP JUMPDEST SWAP2 POP POP PUSH2 0x99E JUMP JUMPDEST POP POP JUMP JUMPDEST DUP4 PUSH1 0x1 PUSH1 0x0 DUP8 DUP2 MSTORE PUSH1 0x20 ADD SWAP1 DUP2 MSTORE PUSH1 0x20 ADD PUSH1 0x0 KECCAK256 PUSH1 0x0 ADD SWAP1 DUP2 PUSH2 0xB3A SWAP2 SWAP1 PUSH2 0x1514 JUMP JUMPDEST POP DUP3 PUSH1 0x1 PUSH1 0x0 DUP8 DUP2 MSTORE PUSH1 0x20 ADD SWAP1 DUP2 MSTORE PUSH1 0x20 ADD PUSH1 0x0 KECCAK256 PUSH1 0x1 ADD SWAP1 DUP2 PUSH2 0xB5E SWAP2 SWAP1 PUSH2 0x1514 JUMP JUMPDEST POP DUP2 PUSH1 0x1 PUSH1 0x0 DUP8 DUP2 MSTORE PUSH1 0x20 ADD SWAP1 DUP2 MSTORE PUSH1 0x20 ADD PUSH1 0x0 KECCAK256 PUSH1 0x2 ADD DUP2 SWAP1 SSTORE POP CALLER PUSH1 0x1 PUSH1 0x0 DUP8 DUP2 MSTORE PUSH1 0x20 ADD SWAP1 DUP2 MSTORE PUSH1 0x20 ADD PUSH1 0x0 KECCAK256 PUSH1 0x5 ADD PUSH1 0x0 PUSH2 0x100 EXP DUP2 SLOAD DUP2 PUSH20 0xFFFFFFFFFFFFFFFFFFFFFFFFFFFFFFFFFFFFFFFF MUL NOT AND SWAP1 DUP4 PUSH20 0xFFFFFFFFFFFFFFFFFFFFFFFFFFFFFFFFFFFFFFFF AND MUL OR SWAP1 SSTORE POP PUSH1 0x0 PUSH1 0x1 PUSH1 0x0 DUP8 DUP2 MSTORE PUSH1 0x20 ADD SWAP1 DUP2 MSTORE PUSH1 0x20 ADD PUSH1 0x0 KECCAK256 PUSH1 0x4 ADD DUP2 SWAP1 SSTORE POP DUP1 TIMESTAMP PUSH2 0xBF7 SWAP2 SWAP1 PUSH2 0x1334 JUMP JUMPDEST PUSH1 0x1 PUSH1 0x0 DUP8 DUP2 MSTORE PUSH1 0x20 ADD SWAP1 DUP2 MSTORE PUSH1 0x20 ADD PUSH1 0x0 KECCAK256 PUSH1 0x3 ADD DUP2 SWAP1 SSTORE POP POP POP POP POP POP JUMP JUMPDEST PUSH1 0x0 PUSH1 0x40 MLOAD SWAP1 POP SWAP1 JUMP JUMPDEST PUSH1 0x0 DUP1 REVERT JUMPDEST PUSH1 0x0 DUP1 REVERT JUMPDEST PUSH1 0x0 DUP2 SWAP1 POP SWAP2 SWAP1 POP JUMP JUMPDEST PUSH2 0xC3F DUP2 PUSH2 0xC2C JUMP JUMPDEST DUP2 EQ PUSH2 0xC4A JUMPI PUSH1 0x0 DUP1 REVERT JUMPDEST POP JUMP JUMPDEST PUSH1 0x0 DUP2 CALLDATALOAD SWAP1 POP PUSH2 0xC5C DUP2 PUSH2 0xC36 JUMP JUMPDEST SWAP3 SWAP2 POP POP JUMP JUMPDEST PUSH1 0x0 PUSH1 0x20 DUP3 DUP5 SUB SLT ISZERO PUSH2 0xC78 JUMPI PUSH2 0xC77 PUSH2 0xC22 JUMP JUMPDEST JUMPDEST PUSH1 0x0 PUSH2 0xC86 DUP5 DUP3 DUP6 ADD PUSH2 0xC4D JUMP JUMPDEST SWAP2 POP POP SWAP3 SWAP2 POP POP JUMP JUMPDEST PUSH1 0x0 DUP2 MLOAD SWAP1 POP SWAP2 SWAP1 POP JUMP JUMPDEST PUSH1 0x0 DUP3 DUP3 MSTORE PUSH1 0x20 DUP3 ADD SWAP1 POP SWAP3 SWAP2 POP POP JUMP JUMPDEST PUSH1 0x0 JUMPDEST DUP4 DUP2 LT ISZERO PUSH2 0xCC9 JUMPI DUP1 DUP3 ADD MLOAD DUP2 DUP5 ADD MSTORE PUSH1 0x20 DUP2 ADD SWAP1 POP PUSH2 0xCAE JUMP JUMPDEST PUSH1 0x0 DUP5 DUP5 ADD MSTORE POP POP POP POP JUMP JUMPDEST PUSH1 0x0 PUSH1 0x1F NOT PUSH1 0x1F DUP4 ADD AND SWAP1 POP SWAP2 SWAP1 POP JUMP JUMPDEST PUSH1 0x0 PUSH2 0xCF1 DUP3 PUSH2 0xC8F JUMP JUMPDEST PUSH2 0xCFB DUP2 DUP6 PUSH2 0xC9A JUMP JUMPDEST SWAP4 POP PUSH2 0xD0B DUP2 DUP6 PUSH1 0x20 DUP7 ADD PUSH2 0xCAB JUMP JUMPDEST PUSH2 0xD14 DUP2 PUSH2 0xCD5 JUMP JUMPDEST DUP5 ADD SWAP2 POP POP SWAP3 SWAP2 POP POP JUMP JUMPDEST PUSH2 0xD28 DUP2 PUSH2 0xC2C JUMP JUMPDEST DUP3 MSTORE POP POP JUMP JUMPDEST PUSH1 0x0 PUSH20 0xFFFFFFFFFFFFFFFFFFFFFFFFFFFFFFFFFFFFFFFF DUP3 AND SWAP1 POP SWAP2 SWAP1 POP JUMP JUMPDEST PUSH1 0x0 PUSH2 0xD59 DUP3 PUSH2 0xD2E JUMP JUMPDEST SWAP1 POP SWAP2 SWAP1 POP JUMP JUMPDEST PUSH2 0xD69 DUP2 PUSH2 0xD4E JUMP JUMPDEST DUP3 MSTORE POP POP JUMP JUMPDEST PUSH1 0x0 PUSH1 0xC0 DUP3 ADD SWAP1 POP DUP2 DUP2 SUB PUSH1 0x0 DUP4 ADD MSTORE PUSH2 0xD89 DUP2 DUP10 PUSH2 0xCE6 JUMP JUMPDEST SWAP1 POP DUP2 DUP2 SUB PUSH1 0x20 DUP4 ADD MSTORE PUSH2 0xD9D DUP2 DUP9 PUSH2 0xCE6 JUMP JUMPDEST SWAP1 POP PUSH2 0xDAC PUSH1 0x40 DUP4 ADD DUP8 PUSH2 0xD1F JUMP JUMPDEST PUSH2 0xDB9 PUSH1 0x60 DUP4 ADD DUP7 PUSH2 0xD1F JUMP JUMPDEST PUSH2 0xDC6 PUSH1 0x80 DUP4 ADD DUP6 PUSH2 0xD1F JUMP JUMPDEST PUSH2 0xDD3 PUSH1 0xA0 DUP4 ADD DUP5 PUSH2 0xD60 JUMP JUMPDEST SWAP8 SWAP7 POP POP POP POP POP POP POP JUMP JUMPDEST PUSH1 0x0 DUP1 REVERT JUMPDEST PUSH1 0x0 DUP1 REVERT JUMPDEST PUSH32 0x4E487B7100000000000000000000000000000000000000000000000000000000 PUSH1 0x0 MSTORE PUSH1 0x41 PUSH1 0x4 MSTORE PUSH1 0x24 PUSH1 0x0 REVERT JUMPDEST PUSH2 0xE20 DUP3 PUSH2 0xCD5 JUMP JUMPDEST DUP2 ADD DUP2 DUP2 LT PUSH8 0xFFFFFFFFFFFFFFFF DUP3 GT OR ISZERO PUSH2 0xE3F JUMPI PUSH2 0xE3E PUSH2 0xDE8 JUMP JUMPDEST JUMPDEST DUP1 PUSH1 0x40 MSTORE POP POP POP JUMP JUMPDEST PUSH1 0x0 PUSH2 0xE52 PUSH2 0xC18 JUMP JUMPDEST SWAP1 POP PUSH2 0xE5E DUP3 DUP3 PUSH2 0xE17 JUMP JUMPDEST SWAP2 SWAP1 POP JUMP JUMPDEST PUSH1 0x0 PUSH8 0xFFFFFFFFFFFFFFFF DUP3 GT ISZERO PUSH2 0xE7E JUMPI PUSH2 0xE7D PUSH2 0xDE8 JUMP JUMPDEST JUMPDEST PUSH2 0xE87 DUP3 PUSH2 0xCD5 JUMP JUMPDEST SWAP1 POP PUSH1 0x20 DUP2 ADD SWAP1 POP SWAP2 SWAP1 POP JUMP JUMPDEST DUP3 DUP2 DUP4 CALLDATACOPY PUSH1 0x0 DUP4 DUP4 ADD MSTORE POP POP POP JUMP JUMPDEST PUSH1 0x0 PUSH2 0xEB6 PUSH2 0xEB1 DUP5 PUSH2 0xE63 JUMP JUMPDEST PUSH2 0xE48 JUMP JUMPDEST SWAP1 POP DUP3 DUP2 MSTORE PUSH1 0x20 DUP2 ADD DUP5 DUP5 DUP5 ADD GT ISZERO PUSH2 0xED2 JUMPI PUSH2 0xED1 PUSH2 0xDE3 JUMP JUMPDEST JUMPDEST PUSH2 0xEDD DUP5 DUP3 DUP6 PUSH2 0xE94 JUMP JUMPDEST POP SWAP4 SWAP3 POP POP POP JUMP JUMPDEST PUSH1 0x0 DUP3 PUSH1 0x1F DUP4 ADD SLT PUSH2 0xEFA JUMPI PUSH2 0xEF9 PUSH2 0xDDE JUMP JUMPDEST JUMPDEST DUP2 CALLDATALOAD PUSH2 0xF0A DUP5 DUP3 PUSH1 0x20 DUP7 ADD PUSH2 0xEA3 JUMP JUMPDEST SWAP2 POP POP SWAP3 SWAP2 POP POP JUMP JUMPDEST PUSH1 0x0 DUP1 PUSH1 0x0 DUP1 PUSH1 0x0 PUSH1 0xA0 DUP7 DUP9 SUB SLT ISZERO PUSH2 0xF2F JUMPI PUSH2 0xF2E PUSH2 0xC22 JUMP JUMPDEST JUMPDEST PUSH1 0x0 PUSH2 0xF3D DUP9 DUP3 DUP10 ADD PUSH2 0xC4D JUMP JUMPDEST SWAP6 POP POP PUSH1 0x20 DUP7 ADD CALLDATALOAD PUSH8 0xFFFFFFFFFFFFFFFF DUP2 GT ISZERO PUSH2 0xF5E JUMPI PUSH2 0xF5D PUSH2 0xC27 JUMP JUMPDEST JUMPDEST PUSH2 0xF6A DUP9 DUP3 DUP10 ADD PUSH2 0xEE5 JUMP JUMPDEST SWAP5 POP POP PUSH1 0x40 DUP7 ADD CALLDATALOAD PUSH8 0xFFFFFFFFFFFFFFFF DUP2 GT ISZERO PUSH2 0xF8B JUMPI PUSH2 0xF8A PUSH2 0xC27 JUMP JUMPDEST JUMPDEST PUSH2 0xF97 DUP9 DUP3 DUP10 ADD PUSH2 0xEE5 JUMP JUMPDEST SWAP4 POP POP PUSH1 0x60 PUSH2 0xFA8 DUP9 DUP3 DUP10 ADD PUSH2 0xC4D JUMP JUMPDEST SWAP3 POP POP PUSH1 0x80 PUSH2 0xFB9 DUP9 DUP3 DUP10 ADD PUSH2 0xC4D JUMP JUMPDEST SWAP2 POP POP SWAP3 SWAP6 POP SWAP3 SWAP6 SWAP1 SWAP4 POP JUMP JUMPDEST PUSH32 0x4E487B7100000000000000000000000000000000000000000000000000000000 PUSH1 0x0 MSTORE PUSH1 0x22 PUSH1 0x4 MSTORE PUSH1 0x24 PUSH1 0x0 REVERT JUMPDEST PUSH1 0x0 PUSH1 0x2 DUP3 DIV SWAP1 POP PUSH1 0x1 DUP3 AND DUP1 PUSH2 0x100D JUMPI PUSH1 0x7F DUP3 AND SWAP2 POP JUMPDEST PUSH1 0x20 DUP3 LT DUP2 SUB PUSH2 0x1020 JUMPI PUSH2 0x101F PUSH2 0xFC6 JUMP JUMPDEST JUMPDEST POP SWAP2 SWAP1 POP JUMP JUMPDEST PUSH32 0x204F6E6C79204F776E65722063616E2077696474686472617700000000000000 PUSH1 0x0 DUP3 ADD MSTORE POP JUMP JUMPDEST PUSH1 0x0 PUSH2 0x105C PUSH1 0x19 DUP4 PUSH2 0xC9A JUMP JUMPDEST SWAP2 POP PUSH2 0x1067 DUP3 PUSH2 0x1026 JUMP JUMPDEST PUSH1 0x20 DUP3 ADD SWAP1 POP SWAP2 SWAP1 POP JUMP JUMPDEST PUSH1 0x0 PUSH1 0x20 DUP3 ADD SWAP1 POP DUP2 DUP2 SUB PUSH1 0x0 DUP4 ADD MSTORE PUSH2 0x108B DUP2 PUSH2 0x104F JUMP JUMPDEST SWAP1 POP SWAP2 SWAP1 POP JUMP JUMPDEST PUSH32 0x4E487B7100000000000000000000000000000000000000000000000000000000 PUSH1 0x0 MSTORE PUSH1 0x32 PUSH1 0x4 MSTORE PUSH1 0x24 PUSH1 0x0 REVERT JUMPDEST PUSH32 0x4E487B7100000000000000000000000000000000000000000000000000000000 PUSH1 0x0 MSTORE PUSH1 0x11 PUSH1 0x4 MSTORE PUSH1 0x24 PUSH1 0x0 REVERT JUMPDEST PUSH1 0x0 PUSH2 0x10FB DUP3 PUSH2 0xC2C JUMP JUMPDEST SWAP2 POP PUSH32 0xFFFFFFFFFFFFFFFFFFFFFFFFFFFFFFFFFFFFFFFFFFFFFFFFFFFFFFFFFFFFFFFF DUP3 SUB PUSH2 0x112D JUMPI PUSH2 0x112C PUSH2 0x10C1 JUMP JUMPDEST JUMPDEST PUSH1 0x1 DUP3 ADD SWAP1 POP SWAP2 SWAP1 POP JUMP JUMPDEST PUSH32 0x6F6E6C792063616E20726566756E640000000000000000000000000000000000 PUSH1 0x0 DUP3 ADD MSTORE POP JUMP JUMPDEST PUSH1 0x0 PUSH2 0x116E PUSH1 0xF DUP4 PUSH2 0xC9A JUMP JUMPDEST SWAP2 POP PUSH2 0x1179 DUP3 PUSH2 0x1138 JUMP JUMPDEST PUSH1 0x20 DUP3 ADD SWAP1 POP SWAP2 SWAP1 POP JUMP JUMPDEST PUSH1 0x0 PUSH1 0x20 DUP3 ADD SWAP1 POP DUP2 DUP2 SUB PUSH1 0x0 DUP4 ADD MSTORE PUSH2 0x119D DUP2 PUSH2 0x1161 JUMP JUMPDEST SWAP1 POP SWAP2 SWAP1 POP JUMP JUMPDEST PUSH32 0x205374696C6C206861766520736F6D652074696D65206C65667420666F722066 PUSH1 0x0 DUP3 ADD MSTORE PUSH32 0x756E64696E672000000000000000000000000000000000000000000000000000 PUSH1 0x20 DUP3 ADD MSTORE POP JUMP JUMPDEST PUSH1 0x0 PUSH2 0x1200 PUSH1 0x27 DUP4 PUSH2 0xC9A JUMP JUMPDEST SWAP2 POP PUSH2 0x120B DUP3 PUSH2 0x11A4 JUMP JUMPDEST PUSH1 0x40 DUP3 ADD SWAP1 POP SWAP2 SWAP1 POP JUMP JUMPDEST PUSH1 0x0 PUSH1 0x20 DUP3 ADD SWAP1 POP DUP2 DUP2 SUB PUSH1 0x0 DUP4 ADD MSTORE PUSH2 0x122F DUP2 PUSH2 0x11F3 JUMP JUMPDEST SWAP1 POP SWAP2 SWAP1 POP JUMP JUMPDEST PUSH32 0x204F776E65722063616E277420636F6E74726962757465000000000000000000 PUSH1 0x0 DUP3 ADD MSTORE POP JUMP JUMPDEST PUSH1 0x0 PUSH2 0x126C PUSH1 0x17 DUP4 PUSH2 0xC9A JUMP JUMPDEST SWAP2 POP PUSH2 0x1277 DUP3 PUSH2 0x1236 JUMP JUMPDEST PUSH1 0x20 DUP3 ADD SWAP1 POP SWAP2 SWAP1 POP JUMP JUMPDEST PUSH1 0x0 PUSH1 0x20 DUP3 ADD SWAP1 POP DUP2 DUP2 SUB PUSH1 0x0 DUP4 ADD MSTORE PUSH2 0x129B DUP2 PUSH2 0x125F JUMP JUMPDEST SWAP1 POP SWAP2 SWAP1 POP JUMP JUMPDEST PUSH32 0x416D6F756E742063616E206E6F742062652067726561746572207468616E2067 PUSH1 0x0 DUP3 ADD MSTORE PUSH32 0x6F616C20616D6F756E7400000000000000000000000000000000000000000000 PUSH1 0x20 DUP3 ADD MSTORE POP JUMP JUMPDEST PUSH1 0x0 PUSH2 0x12FE PUSH1 0x2A DUP4 PUSH2 0xC9A JUMP JUMPDEST SWAP2 POP PUSH2 0x1309 DUP3 PUSH2 0x12A2 JUMP JUMPDEST PUSH1 0x40 DUP3 ADD SWAP1 POP SWAP2 SWAP1 POP JUMP JUMPDEST PUSH1 0x0 PUSH1 0x20 DUP3 ADD SWAP1 POP DUP2 DUP2 SUB PUSH1 0x0 DUP4 ADD MSTORE PUSH2 0x132D DUP2 PUSH2 0x12F1 JUMP JUMPDEST SWAP1 POP SWAP2 SWAP1 POP JUMP JUMPDEST PUSH1 0x0 PUSH2 0x133F DUP3 PUSH2 0xC2C JUMP JUMPDEST SWAP2 POP PUSH2 0x134A DUP4 PUSH2 0xC2C JUMP JUMPDEST SWAP3 POP DUP3 DUP3 ADD SWAP1 POP DUP1 DUP3 GT ISZERO PUSH2 0x1362 JUMPI PUSH2 0x1361 PUSH2 0x10C1 JUMP JUMPDEST JUMPDEST SWAP3 SWAP2 POP POP JUMP JUMPDEST PUSH1 0x0 DUP2 SWAP1 POP DUP2 PUSH1 0x0 MSTORE PUSH1 0x20 PUSH1 0x0 KECCAK256 SWAP1 POP SWAP2 SWAP1 POP JUMP JUMPDEST PUSH1 0x0 PUSH1 0x20 PUSH1 0x1F DUP4 ADD DIV SWAP1 POP SWAP2 SWAP1 POP JUMP JUMPDEST PUSH1 0x0 DUP3 DUP3 SHL SWAP1 POP SWAP3 SWAP2 POP POP JUMP JUMPDEST PUSH1 0x0 PUSH1 0x8 DUP4 MUL PUSH2 0x13CA PUSH32 0xFFFFFFFFFFFFFFFFFFFFFFFFFFFFFFFFFFFFFFFFFFFFFFFFFFFFFFFFFFFFFFFF DUP3 PUSH2 0x138D JUMP JUMPDEST PUSH2 0x13D4 DUP7 DUP4 PUSH2 0x138D JUMP JUMPDEST SWAP6 POP DUP1 NOT DUP5 AND SWAP4 POP DUP1 DUP7 AND DUP5 OR SWAP3 POP POP POP SWAP4 SWAP3 POP POP POP JUMP JUMPDEST PUSH1 0x0 DUP2 SWAP1 POP SWAP2 SWAP1 POP JUMP JUMPDEST PUSH1 0x0 PUSH2 0x1411 PUSH2 0x140C PUSH2 0x1407 DUP5 PUSH2 0xC2C JUMP JUMPDEST PUSH2 0x13EC JUMP JUMPDEST PUSH2 0xC2C JUMP JUMPDEST SWAP1 POP SWAP2 SWAP1 POP JUMP JUMPDEST PUSH1 0x0 DUP2 SWAP1 POP SWAP2 SWAP1 POP JUMP JUMPDEST PUSH2 0x142B DUP4 PUSH2 0x13F6 JUMP JUMPDEST PUSH2 0x143F PUSH2 0x1437 DUP3 PUSH2 0x1418 JUMP JUMPDEST DUP5 DUP5 SLOAD PUSH2 0x139A JUMP JUMPDEST DUP3 SSTORE POP POP POP POP JUMP JUMPDEST PUSH1 0x0 SWAP1 JUMP JUMPDEST PUSH2 0x1454 PUSH2 0x1447 JUMP JUMPDEST PUSH2 0x145F DUP2 DUP5 DUP5 PUSH2 0x1422 JUMP JUMPDEST POP POP POP JUMP JUMPDEST JUMPDEST DUP2 DUP2 LT ISZERO PUSH2 0x1483 JUMPI PUSH2 0x1478 PUSH1 0x0 DUP3 PUSH2 0x144C JUMP JUMPDEST PUSH1 0x1 DUP2 ADD SWAP1 POP PUSH2 0x1465 JUMP JUMPDEST POP POP JUMP JUMPDEST PUSH1 0x1F DUP3 GT ISZERO PUSH2 0x14C8 JUMPI PUSH2 0x1499 DUP2 PUSH2 0x1368 JUMP JUMPDEST PUSH2 0x14A2 DUP5 PUSH2 0x137D JUMP JUMPDEST DUP2 ADD PUSH1 0x20 DUP6 LT ISZERO PUSH2 0x14B1 JUMPI DUP2 SWAP1 POP JUMPDEST PUSH2 0x14C5 PUSH2 0x14BD DUP6 PUSH2 0x137D JUMP JUMPDEST DUP4 ADD DUP3 PUSH2 0x1464 JUMP JUMPDEST POP POP JUMPDEST POP POP POP JUMP JUMPDEST PUSH1 0x0 DUP3 DUP3 SHR SWAP1 POP SWAP3 SWAP2 POP POP JUMP JUMPDEST PUSH1 0x0 PUSH2 0x14EB PUSH1 0x0 NOT DUP5 PUSH1 0x8 MUL PUSH2 0x14CD JUMP JUMPDEST NOT DUP1 DUP4 AND SWAP2 POP POP SWAP3 SWAP2 POP POP JUMP JUMPDEST PUSH1 0x0 PUSH2 0x1504 DUP4 DUP4 PUSH2 0x14DA JUMP JUMPDEST SWAP2 POP DUP3 PUSH1 0x2 MUL DUP3 OR SWAP1 POP SWAP3 SWAP2 POP POP JUMP JUMPDEST PUSH2 0x151D DUP3 PUSH2 0xC8F JUMP JUMPDEST PUSH8 0xFFFFFFFFFFFFFFFF DUP2 GT ISZERO PUSH2 0x1536 JUMPI PUSH2 0x1535 PUSH2 0xDE8 JUMP JUMPDEST JUMPDEST PUSH2 0x1540 DUP3 SLOAD PUSH2 0xFF5 JUMP JUMPDEST PUSH2 0x154B DUP3 DUP3 DUP6 PUSH2 0x1487 JUMP JUMPDEST PUSH1 0x0 PUSH1 0x20 SWAP1 POP PUSH1 0x1F DUP4 GT PUSH1 0x1 DUP2 EQ PUSH2 0x157E JUMPI PUSH1 0x0 DUP5 ISZERO PUSH2 0x156C JUMPI DUP3 DUP8 ADD MLOAD SWAP1 POP JUMPDEST PUSH2 0x1576 DUP6 DUP3 PUSH2 0x14F8 JUMP JUMPDEST DUP7 SSTORE POP PUSH2 0x15DE JUMP JUMPDEST PUSH1 0x1F NOT DUP5 AND PUSH2 0x158C DUP7 PUSH2 0x1368 JUMP JUMPDEST PUSH1 0x0 JUMPDEST DUP3 DUP2 LT ISZERO PUSH2 0x15B4 JUMPI DUP5 DUP10 ADD MLOAD DUP3 SSTORE PUSH1 0x1 DUP3 ADD SWAP2 POP PUSH1 0x20 DUP6 ADD SWAP5 POP PUSH1 0x20 DUP2 ADD SWAP1 POP PUSH2 0x158F JUMP JUMPDEST DUP7 DUP4 LT ISZERO PUSH2 0x15D1 JUMPI DUP5 DUP10 ADD MLOAD PUSH2 0x15CD PUSH1 0x1F DUP10 AND DUP3 PUSH2 0x14DA JUMP JUMPDEST DUP4 SSTORE POP JUMPDEST PUSH1 0x1 PUSH1 0x2 DUP9 MUL ADD DUP9 SSTORE POP POP POP JUMPDEST POP POP POP POP POP POP JUMP INVALID LOG2 PUSH5 0x6970667358 0x22 SLT KECCAK256 0x28 XOR DUP6 0xBC 0xF8 0x5D 0x4A JUMPDEST 0xC4 0xAC 0xBF BYTE 0xDB DUP11 0xE3 0x29 0x5D DUP6 JUMPI PUSH4 0x90B22D96 0x2D NOT 0x4C PUSH14 0x57721E0D64736F6C634300081200 CALLER "
				},
				"gasEstimates": {
					"creation": {
						"codeDepositCost": "1132000",
						"executionCost": "1174",
						"totalCost": "1133174"
					},
					"external": {
						"conditionNotMet(uint256)": "infinite",
						"contribute(uint256)": "infinite",
						"fundingComplete(uint256)": "infinite",
						"refundCancel(uint256)": "infinite",
						"setProjectDetails(uint256,string,string,uint256,uint256)": "infinite",
						"userProjects(uint256)": "infinite"
					}
				},
				"methodIdentifiers": {
					"conditionNotMet(uint256)": "9ea5cb11",
					"contribute(uint256)": "c1cbbca7",
					"fundingComplete(uint256)": "38e22afc",
					"refundCancel(uint256)": "d6734822",
					"setProjectDetails(uint256,string,string,uint256,uint256)": "ec939ae4",
					"userProjects(uint256)": "33b8c62a"
				}
			},
			"storageLayout": {
				"storage": [
					{
						"astId": 25,
						"contract": "Practice tokens/Assignment7.sol:CrowdFunding",
						"label": "id",
						"offset": 0,
						"slot": "0",
						"type": "t_uint256"
					},
					{
						"astId": 30,
						"contract": "Practice tokens/Assignment7.sol:CrowdFunding",
						"label": "userProjects",
						"offset": 0,
						"slot": "1",
						"type": "t_mapping(t_uint256,t_struct(projectDetails)18_storage)"
					}
				],
				"types": {
					"t_address": {
						"encoding": "inplace",
						"label": "address",
						"numberOfBytes": "20"
					},
					"t_array(t_struct(userbalance)23_storage)dyn_storage": {
						"base": "t_struct(userbalance)23_storage",
						"encoding": "dynamic_array",
						"label": "struct CrowdFunding.userbalance[]",
						"numberOfBytes": "32"
					},
					"t_mapping(t_uint256,t_struct(projectDetails)18_storage)": {
						"encoding": "mapping",
						"key": "t_uint256",
						"label": "mapping(uint256 => struct CrowdFunding.projectDetails)",
						"numberOfBytes": "32",
						"value": "t_struct(projectDetails)18_storage"
					},
					"t_string_storage": {
						"encoding": "bytes",
						"label": "string",
						"numberOfBytes": "32"
					},
					"t_struct(projectDetails)18_storage": {
						"encoding": "inplace",
						"label": "struct CrowdFunding.projectDetails",
						"members": [
							{
								"astId": 3,
								"contract": "Practice tokens/Assignment7.sol:CrowdFunding",
								"label": "name",
								"offset": 0,
								"slot": "0",
								"type": "t_string_storage"
							},
							{
								"astId": 5,
								"contract": "Practice tokens/Assignment7.sol:CrowdFunding",
								"label": "description",
								"offset": 0,
								"slot": "1",
								"type": "t_string_storage"
							},
							{
								"astId": 7,
								"contract": "Practice tokens/Assignment7.sol:CrowdFunding",
								"label": "funding_goal",
								"offset": 0,
								"slot": "2",
								"type": "t_uint256"
							},
							{
								"astId": 9,
								"contract": "Practice tokens/Assignment7.sol:CrowdFunding",
								"label": "deadline",
								"offset": 0,
								"slot": "3",
								"type": "t_uint256"
							},
							{
								"astId": 11,
								"contract": "Practice tokens/Assignment7.sol:CrowdFunding",
								"label": "recievedAmount",
								"offset": 0,
								"slot": "4",
								"type": "t_uint256"
							},
							{
								"astId": 13,
								"contract": "Practice tokens/Assignment7.sol:CrowdFunding",
								"label": "_owner",
								"offset": 0,
								"slot": "5",
								"type": "t_address"
							},
							{
								"astId": 17,
								"contract": "Practice tokens/Assignment7.sol:CrowdFunding",
								"label": "balance",
								"offset": 0,
								"slot": "6",
								"type": "t_array(t_struct(userbalance)23_storage)dyn_storage"
							}
						],
						"numberOfBytes": "224"
					},
					"t_struct(userbalance)23_storage": {
						"encoding": "inplace",
						"label": "struct CrowdFunding.userbalance",
						"members": [
							{
								"astId": 20,
								"contract": "Practice tokens/Assignment7.sol:CrowdFunding",
								"label": "_address",
								"offset": 0,
								"slot": "0",
								"type": "t_address"
							},
							{
								"astId": 22,
								"contract": "Practice tokens/Assignment7.sol:CrowdFunding",
								"label": "_balance",
								"offset": 0,
								"slot": "1",
								"type": "t_uint256"
							}
						],
						"numberOfBytes": "64"
					},
					"t_uint256": {
						"encoding": "inplace",
						"label": "uint256",
						"numberOfBytes": "32"
					}
				}
			},
			"userdoc": {
				"kind": "user",
				"methods": {},
				"version": 1
			}
		}
	}
}